{
  "_format": "hh-sol-artifact-1",
  "contractName": "EmptyCollateralManager",
  "sourceName": "contracts/EmptyCollateralManager.sol",
  "abi": [
    {
      "constant": false,
      "inputs": [
        {
          "internalType": "address[]",
          "name": "",
          "type": "address[]"
        }
      ],
      "name": "addCollaterals",
      "outputs": [],
      "payable": false,
      "stateMutability": "nonpayable",
      "type": "function"
    },
    {
      "constant": false,
      "inputs": [
        {
          "internalType": "bytes32[2][]",
          "name": "",
          "type": "bytes32[2][]"
        },
        {
          "internalType": "bytes32[]",
          "name": "",
          "type": "bytes32[]"
        }
      ],
      "name": "addShortableSynths",
      "outputs": [],
      "payable": false,
      "stateMutability": "nonpayable",
      "type": "function"
    },
    {
      "constant": false,
      "inputs": [
        {
          "internalType": "bytes32[]",
          "name": "",
          "type": "bytes32[]"
        },
        {
          "internalType": "bytes32[]",
          "name": "",
          "type": "bytes32[]"
        }
      ],
      "name": "addSynths",
      "outputs": [],
      "payable": false,
      "stateMutability": "nonpayable",
      "type": "function"
    },
    {
      "constant": true,
      "inputs": [
        {
          "internalType": "bytes32[]",
          "name": "",
          "type": "bytes32[]"
        },
        {
          "internalType": "bytes32[]",
          "name": "",
          "type": "bytes32[]"
        }
      ],
      "name": "areShortableSynthsSet",
      "outputs": [
        {
          "internalType": "bool",
          "name": "",
          "type": "bool"
        }
      ],
      "payable": false,
      "stateMutability": "view",
      "type": "function"
    },
    {
      "constant": true,
      "inputs": [
        {
          "internalType": "bytes32[]",
          "name": "",
          "type": "bytes32[]"
        },
        {
          "internalType": "bytes32[]",
          "name": "",
          "type": "bytes32[]"
        }
      ],
      "name": "areSynthsAndCurrenciesSet",
      "outputs": [
        {
          "internalType": "bool",
          "name": "",
          "type": "bool"
        }
      ],
      "payable": false,
      "stateMutability": "view",
      "type": "function"
    },
    {
      "constant": false,
      "inputs": [
        {
          "internalType": "bytes32",
          "name": "",
          "type": "bytes32"
        },
        {
          "internalType": "uint256",
          "name": "",
          "type": "uint256"
        }
      ],
      "name": "decrementLongs",
      "outputs": [],
      "payable": false,
      "stateMutability": "nonpayable",
      "type": "function"
    },
    {
      "constant": false,
      "inputs": [
        {
          "internalType": "bytes32",
          "name": "",
          "type": "bytes32"
        },
        {
          "internalType": "uint256",
          "name": "",
          "type": "uint256"
        }
      ],
      "name": "decrementShorts",
      "outputs": [],
      "payable": false,
      "stateMutability": "nonpayable",
      "type": "function"
    },
    {
      "constant": true,
      "inputs": [
        {
          "internalType": "uint256",
          "name": "",
          "type": "uint256"
        },
        {
          "internalType": "bytes32",
          "name": "",
          "type": "bytes32"
        }
      ],
      "name": "exceedsDebtLimit",
      "outputs": [
        {
          "internalType": "bool",
          "name": "canIssue",
          "type": "bool"
        },
        {
          "internalType": "bool",
          "name": "anyRateIsInvalid",
          "type": "bool"
        }
      ],
      "payable": false,
      "stateMutability": "view",
      "type": "function"
    },
    {
      "constant": true,
      "inputs": [],
      "name": "getBorrowRate",
      "outputs": [
        {
          "internalType": "uint256",
          "name": "borrowRate",
          "type": "uint256"
        },
        {
          "internalType": "bool",
          "name": "anyRateIsInvalid",
          "type": "bool"
        }
      ],
      "payable": false,
      "stateMutability": "view",
      "type": "function"
    },
    {
      "constant": false,
      "inputs": [],
      "name": "getNewLoanId",
      "outputs": [
        {
          "internalType": "uint256",
          "name": "id",
          "type": "uint256"
        }
      ],
      "payable": false,
      "stateMutability": "nonpayable",
      "type": "function"
    },
    {
      "constant": true,
      "inputs": [
        {
          "internalType": "uint256",
          "name": "",
          "type": "uint256"
        }
      ],
      "name": "getRatesAndTime",
      "outputs": [
        {
          "internalType": "uint256",
          "name": "entryRate",
          "type": "uint256"
        },
        {
          "internalType": "uint256",
          "name": "lastRate",
          "type": "uint256"
        },
        {
          "internalType": "uint256",
          "name": "lastUpdated",
          "type": "uint256"
        },
        {
          "internalType": "uint256",
          "name": "newIndex",
          "type": "uint256"
        }
      ],
      "payable": false,
      "stateMutability": "view",
      "type": "function"
    },
    {
      "constant": true,
      "inputs": [
        {
          "internalType": "bytes32",
          "name": "",
          "type": "bytes32"
        }
      ],
      "name": "getShortRate",
      "outputs": [
        {
          "internalType": "uint256",
          "name": "shortRate",
          "type": "uint256"
        },
        {
          "internalType": "bool",
          "name": "rateIsInvalid",
          "type": "bool"
        }
      ],
      "payable": false,
      "stateMutability": "view",
      "type": "function"
    },
    {
      "constant": true,
      "inputs": [
        {
          "internalType": "bytes32",
          "name": "",
          "type": "bytes32"
        },
        {
          "internalType": "uint256",
          "name": "",
          "type": "uint256"
        }
      ],
      "name": "getShortRatesAndTime",
      "outputs": [
        {
          "internalType": "uint256",
          "name": "entryRate",
          "type": "uint256"
        },
        {
          "internalType": "uint256",
          "name": "lastRate",
          "type": "uint256"
        },
        {
          "internalType": "uint256",
          "name": "lastUpdated",
          "type": "uint256"
        },
        {
          "internalType": "uint256",
          "name": "newIndex",
          "type": "uint256"
        }
      ],
      "payable": false,
      "stateMutability": "view",
      "type": "function"
    },
    {
      "constant": true,
      "inputs": [
        {
          "internalType": "address",
          "name": "",
          "type": "address"
        }
      ],
      "name": "hasCollateral",
      "outputs": [
        {
          "internalType": "bool",
          "name": "",
          "type": "bool"
        }
      ],
      "payable": false,
      "stateMutability": "view",
      "type": "function"
    },
    {
      "constant": false,
      "inputs": [
        {
          "internalType": "bytes32",
          "name": "",
          "type": "bytes32"
        },
        {
          "internalType": "uint256",
          "name": "",
          "type": "uint256"
        }
      ],
      "name": "incrementLongs",
      "outputs": [],
      "payable": false,
      "stateMutability": "nonpayable",
      "type": "function"
    },
    {
      "constant": false,
      "inputs": [
        {
          "internalType": "bytes32",
          "name": "",
          "type": "bytes32"
        },
        {
          "internalType": "uint256",
          "name": "",
          "type": "uint256"
        }
      ],
      "name": "incrementShorts",
      "outputs": [],
      "payable": false,
      "stateMutability": "nonpayable",
      "type": "function"
    },
    {
      "constant": true,
      "inputs": [
        {
          "internalType": "bytes32",
          "name": "",
          "type": "bytes32"
        }
      ],
      "name": "isSynthManaged",
      "outputs": [
        {
          "internalType": "bool",
          "name": "",
          "type": "bool"
        }
      ],
      "payable": false,
      "stateMutability": "view",
      "type": "function"
    },
    {
      "constant": true,
      "inputs": [
        {
          "internalType": "bytes32",
          "name": "",
          "type": "bytes32"
        }
      ],
      "name": "long",
      "outputs": [
        {
          "internalType": "uint256",
          "name": "amount",
          "type": "uint256"
        }
      ],
      "payable": false,
      "stateMutability": "view",
      "type": "function"
    },
    {
      "constant": false,
      "inputs": [
        {
          "internalType": "address[]",
          "name": "",
          "type": "address[]"
        }
      ],
      "name": "removeCollaterals",
      "outputs": [],
      "payable": false,
      "stateMutability": "nonpayable",
      "type": "function"
    },
    {
      "constant": false,
      "inputs": [
        {
          "internalType": "bytes32[]",
          "name": "",
          "type": "bytes32[]"
        }
      ],
      "name": "removeShortableSynths",
      "outputs": [],
      "payable": false,
      "stateMutability": "nonpayable",
      "type": "function"
    },
    {
      "constant": false,
      "inputs": [
        {
          "internalType": "bytes32[]",
          "name": "",
          "type": "bytes32[]"
        },
        {
          "internalType": "bytes32[]",
          "name": "",
          "type": "bytes32[]"
        }
      ],
      "name": "removeSynths",
      "outputs": [],
      "payable": false,
      "stateMutability": "nonpayable",
      "type": "function"
    },
    {
      "constant": true,
      "inputs": [
        {
          "internalType": "bytes32",
          "name": "",
          "type": "bytes32"
        }
      ],
      "name": "short",
      "outputs": [
        {
          "internalType": "uint256",
          "name": "amount",
          "type": "uint256"
        }
      ],
      "payable": false,
      "stateMutability": "view",
      "type": "function"
    },
    {
      "constant": true,
      "inputs": [],
      "name": "totalLong",
      "outputs": [
        {
          "internalType": "uint256",
          "name": "susdValue",
          "type": "uint256"
        },
        {
          "internalType": "bool",
          "name": "anyRateIsInvalid",
          "type": "bool"
        }
      ],
      "payable": false,
      "stateMutability": "view",
      "type": "function"
    },
    {
      "constant": true,
      "inputs": [],
      "name": "totalShort",
      "outputs": [
        {
          "internalType": "uint256",
          "name": "susdValue",
          "type": "uint256"
        },
        {
          "internalType": "bool",
          "name": "anyRateIsInvalid",
          "type": "bool"
        }
      ],
      "payable": false,
      "stateMutability": "view",
      "type": "function"
    },
    {
      "constant": false,
      "inputs": [
        {
          "internalType": "uint256",
          "name": "",
          "type": "uint256"
        }
      ],
      "name": "updateBorrowRates",
      "outputs": [],
      "payable": false,
      "stateMutability": "nonpayable",
      "type": "function"
    },
    {
      "constant": false,
      "inputs": [
        {
          "internalType": "bytes32",
          "name": "",
          "type": "bytes32"
        },
        {
          "internalType": "uint256",
          "name": "",
          "type": "uint256"
        }
      ],
      "name": "updateShortRates",
      "outputs": [],
      "payable": false,
      "stateMutability": "nonpayable",
      "type": "function"
    }
  ],
  "bytecode": "0x608060405234801561001057600080fd5b50610cf3806100206000396000f3fe608060405234801561001057600080fd5b506004361061018e5760003560e01c8063b4d6cb40116100de578063e31f27c111610097578063eb94bbde11610071578063eb94bbde14610a6d578063ee81f79014610aa5578063f53037b614610af2578063ffa749cd14610b205761018e565b8063e31f27c1146109bb578063e32261fe146109f3578063e50a31b314610a355761018e565b8063b4d6cb4014610735578063ba1c5e8014610790578063bbb601cd146107b9578063c88b412e14610832578063ca969f2314610900578063d2f00475146109795761018e565b806372e18b6a1161014b578063ad79a85811610125578063ad79a85814610631578063af07aa9d1461065a578063b38988f7146106bb578063b3b46732146107175761018e565b806372e18b6a1461041f5780638471db131461050557806393a72fbe1461054b5761018e565b806303f048b0146101935780631e33fc6b146101ea57806323d60e2e1461021357806324620639146102e15780635246f2b914610319578063710388d114610351575b600080fd5b6101bf600480360360208110156101a957600080fd5b8101908080359060200190929190505050610b99565b6040518085815260200184815260200183815260200182815260200194505050505060405180910390f35b6101f2610bc0565b60405180838152602001821515151581526020019250505060405180910390f35b6102df6004803603604081101561022957600080fd5b810190808035906020019064010000000081111561024657600080fd5b82018360208201111561025857600080fd5b8035906020019184602083028401116401000000008311171561027a57600080fd5b90919293919293908035906020019064010000000081111561029b57600080fd5b8201836020820111156102ad57600080fd5b803590602001918460208302840111640100000000831117156102cf57600080fd5b9091929391929390505050610bd1565b005b610317600480360360408110156102f757600080fd5b810190808035906020019092919080359060200190929190505050610bd7565b005b61034f6004803603604081101561032f57600080fd5b810190808035906020019092919080359060200190929190505050610bdb565b005b61041d6004803603604081101561036757600080fd5b810190808035906020019064010000000081111561038457600080fd5b82018360208201111561039657600080fd5b803590602001918460208302840111640100000000831117156103b857600080fd5b9091929391929390803590602001906401000000008111156103d957600080fd5b8201836020820111156103eb57600080fd5b8035906020019184602083028401116401000000008311171561040d57600080fd5b9091929391929390505050610bdf565b005b6104eb6004803603604081101561043557600080fd5b810190808035906020019064010000000081111561045257600080fd5b82018360208201111561046457600080fd5b8035906020019184602083028401116401000000008311171561048657600080fd5b9091929391929390803590602001906401000000008111156104a757600080fd5b8201836020820111156104b957600080fd5b803590602001918460208302840111640100000000831117156104db57600080fd5b9091929391929390505050610be5565b604051808215151515815260200191505060405180910390f35b6105316004803603602081101561051b57600080fd5b8101908080359060200190929190505050610bf2565b604051808215151515815260200191505060405180910390f35b6106176004803603604081101561056157600080fd5b810190808035906020019064010000000081111561057e57600080fd5b82018360208201111561059057600080fd5b803590602001918460208302840111640100000000831117156105b257600080fd5b9091929391929390803590602001906401000000008111156105d357600080fd5b8201836020820111156105e557600080fd5b8035906020019184602083028401116401000000008311171561060757600080fd5b9091929391929390505050610bfc565b604051808215151515815260200191505060405180910390f35b610639610c09565b60405180838152602001821515151581526020019250505060405180910390f35b6106906004803603604081101561067057600080fd5b810190808035906020019092919080359060200190929190505050610c1a565b6040518085815260200184815260200183815260200182815260200194505050505060405180910390f35b6106fd600480360360208110156106d157600080fd5b81019080803573ffffffffffffffffffffffffffffffffffffffff169060200190929190505050610c43565b604051808215151515815260200191505060405180910390f35b61071f610c4d565b6040518082815260200191505060405180910390f35b61076b6004803603604081101561074b57600080fd5b810190808035906020019092919080359060200190929190505050610c55565b6040518083151515158152602001821515151581526020019250505060405180910390f35b610798610c66565b60405180838152602001821515151581526020019250505060405180910390f35b610830600480360360208110156107cf57600080fd5b81019080803590602001906401000000008111156107ec57600080fd5b8201836020820111156107fe57600080fd5b8035906020019184602083028401116401000000008311171561082057600080fd5b9091929391929390505050610c77565b005b6108fe6004803603604081101561084857600080fd5b810190808035906020019064010000000081111561086557600080fd5b82018360208201111561087757600080fd5b8035906020019184604083028401116401000000008311171561089957600080fd5b9091929391929390803590602001906401000000008111156108ba57600080fd5b8201836020820111156108cc57600080fd5b803590602001918460208302840111640100000000831117156108ee57600080fd5b9091929391929390505050610c7b565b005b6109776004803603602081101561091657600080fd5b810190808035906020019064010000000081111561093357600080fd5b82018360208201111561094557600080fd5b8035906020019184602083028401116401000000008311171561096757600080fd5b9091929391929390505050610c81565b005b6109a56004803603602081101561098f57600080fd5b8101908080359060200190929190505050610c85565b6040518082815260200191505060405180910390f35b6109f1600480360360408110156109d157600080fd5b810190808035906020019092919080359060200190929190505050610c8f565b005b610a1f60048036036020811015610a0957600080fd5b8101908080359060200190929190505050610c93565b6040518082815260200191505060405180910390f35b610a6b60048036036040811015610a4b57600080fd5b810190808035906020019092919080359060200190929190505050610c9d565b005b610aa360048036036040811015610a8357600080fd5b810190808035906020019092919080359060200190929190505050610ca1565b005b610ad160048036036020811015610abb57600080fd5b8101908080359060200190929190505050610ca5565b60405180838152602001821515151581526020019250505060405180910390f35b610b1e60048036036020811015610b0857600080fd5b8101908080359060200190929190505050610cb7565b005b610b9760048036036020811015610b3657600080fd5b8101908080359060200190640100000000811115610b5357600080fd5b820183602082011115610b6557600080fd5b80359060200191846020830284011164010000000083111715610b8757600080fd5b9091929391929390505050610cba565b005b60008060008060008060008083935082925081915080905093509350935093509193509193565b600080600080819150915091509091565b50505050565b5050565b5050565b50505050565b6000809050949350505050565b6000809050919050565b6000809050949350505050565b600080600080819150915091509091565b600080600080600080600080839350829250819150809050935093509350935092959194509250565b6000809050919050565b600080905090565b600080600080915091509250929050565b600080600080819150915091509091565b5050565b50505050565b5050565b6000809050919050565b5050565b6000809050919050565b5050565b5050565b60008060008081915091509150915091565b50565b505056fea265627a7a723158205eab3c5d5bdc2a5af69affc2aeaa5a9a498dab69caaa3691000811145bd7870364736f6c63430005100032",
  "linkReferences": {},
  "deployedLinkReferences": {}
}