{
  "_format": "hh-sol-artifact-1",
  "contractName": "PublicMath",
  "sourceName": "contracts/test-helpers/PublicMath.sol",
  "abi": [
    {
      "constant": true,
      "inputs": [
        {
          "internalType": "uint256",
          "name": "x",
          "type": "uint256"
        },
        {
          "internalType": "uint256",
          "name": "y",
          "type": "uint256"
        }
      ],
      "name": "powerDecimal",
      "outputs": [
        {
          "internalType": "uint256",
          "name": "",
          "type": "uint256"
        }
      ],
      "payable": false,
      "stateMutability": "pure",
      "type": "function"
    }
  ],
  "bytecode": "0x608060405234801561001057600080fd5b50610289806100206000396000f3fe608060405234801561001057600080fd5b506004361061002b5760003560e01c80634447d1d714610030575b600080fd5b6100666004803603604081101561004657600080fd5b81019080803590602001909291908035906020019092919050505061007c565b6040518082815260200191505060405180910390f35b6000610091828461009990919063ffffffff16565b905092915050565b60008073__$b8d33eeb36ac0d1e81cd70156e0043e778$__63907af6c06040518163ffffffff1660e01b815260040160206040518083038186803b1580156100e057600080fd5b505af41580156100f4573d6000803e3d6000fd5b505050506040513d602081101561010a57600080fd5b810190808051906020019092919050505090505b60008311156101765760006002848161013357fe5b061461014f5761014c848261018090919063ffffffff16565b90505b610162848561018090919063ffffffff16565b93506002838161016e57fe5b04925061011e565b8091505092915050565b6000601260ff16600a0a61019d83856101ad90919063ffffffff16565b816101a457fe5b04905092915050565b6000808314156101c0576000905061022d565b60008284029050828482816101d157fe5b0414610228576040517f08c379a00000000000000000000000000000000000000000000000000000000081526004018080602001828103825260218152602001806102346021913960400191505060405180910390fd5b809150505b9291505056fe536166654d6174683a206d756c7469706c69636174696f6e206f766572666c6f77a265627a7a723158206fdec6bcdd760c382bf519d816ae4fdebc5fa6e08d1310dd1fd3785e63f93bfa64736f6c63430005100032",
  "linkReferences": {
    "contracts/SafeDecimalMath.sol": {
      "SafeDecimalMath": [
        {
          "length": 20,
          "start": 190
        }
      ]
    }
  },
  "deployedLinkReferences": {
    "contracts/SafeDecimalMath.sol": {
      "SafeDecimalMath": [
        {
          "length": 20,
          "start": 158
        }
      ]
    }
  }
}