{
  "_format": "hh-sol-artifact-1",
  "contractName": "MockEtherCollateral",
  "sourceName": "contracts/test-helpers/MockEtherCollateral.sol",
  "abi": [
    {
      "inputs": [],
      "payable": false,
      "stateMutability": "nonpayable",
      "type": "constructor"
    },
    {
      "constant": false,
      "inputs": [
        {
          "internalType": "uint256",
          "name": "amount",
          "type": "uint256"
        }
      ],
      "name": "closeLoan",
      "outputs": [],
      "payable": false,
      "stateMutability": "nonpayable",
      "type": "function"
    },
    {
      "constant": false,
      "inputs": [
        {
          "internalType": "uint256",
          "name": "amount",
          "type": "uint256"
        }
      ],
      "name": "openLoan",
      "outputs": [],
      "payable": false,
      "stateMutability": "nonpayable",
      "type": "function"
    },
    {
      "constant": true,
      "inputs": [],
      "name": "totalIssuedSynths",
      "outputs": [
        {
          "internalType": "uint256",
          "name": "",
          "type": "uint256"
        }
      ],
      "payable": false,
      "stateMutability": "view",
      "type": "function"
    }
  ],
  "bytecode": "0x608060405234801561001057600080fd5b50610248806100206000396000f3fe608060405234801561001057600080fd5b50600436106100415760003560e01c806354e3e70d14610046578063d05951a014610074578063ee5f3f5c146100a2575b600080fd5b6100726004803603602081101561005c57600080fd5b81019080803590602001909291905050506100c0565b005b6100a06004803603602081101561008a57600080fd5b81019080803590602001909291905050506100de565b005b6100aa6100fc565b6040518082815260200191505060405180910390f35b6100d58160005461010290919063ffffffff16565b60008190555050565b6100f38160005461018a90919063ffffffff16565b60008190555050565b60005481565b600080828401905083811015610180576040517f08c379a000000000000000000000000000000000000000000000000000000000815260040180806020018281038252601b8152602001807f536166654d6174683a206164646974696f6e206f766572666c6f77000000000081525060200191505060405180910390fd5b8091505092915050565b600082821115610202576040517f08c379a000000000000000000000000000000000000000000000000000000000815260040180806020018281038252601e8152602001807f536166654d6174683a207375627472616374696f6e206f766572666c6f77000081525060200191505060405180910390fd5b60008284039050809150509291505056fea265627a7a7231582067f5ca1a0adda3132cc618fbd74b042ce3560ada7d960cc65741556c2511a3a064736f6c63430005100032",
  "linkReferences": {},
  "deployedLinkReferences": {}
}