{
  "_format": "hh-sol-artifact-1",
  "contractName": "BinaryOptionMarketData",
  "sourceName": "contracts/BinaryOptionMarketData.sol",
  "abi": [
    {
      "constant": true,
      "inputs": [
        {
          "internalType": "contract BinaryOptionMarket",
          "name": "market",
          "type": "address"
        },
        {
          "internalType": "address",
          "name": "account",
          "type": "address"
        }
      ],
      "name": "getAccountMarketData",
      "outputs": [
        {
          "components": [
            {
              "components": [
                {
                  "internalType": "uint256",
                  "name": "long",
                  "type": "uint256"
                },
                {
                  "internalType": "uint256",
                  "name": "short",
                  "type": "uint256"
                }
              ],
              "internalType": "struct BinaryOptionMarketData.OptionValues",
              "name": "bids",
              "type": "tuple"
            },
            {
              "components": [
                {
                  "internalType": "uint256",
                  "name": "long",
                  "type": "uint256"
                },
                {
                  "internalType": "uint256",
                  "name": "short",
                  "type": "uint256"
                }
              ],
              "internalType": "struct BinaryOptionMarketData.OptionValues",
              "name": "claimable",
              "type": "tuple"
            },
            {
              "components": [
                {
                  "internalType": "uint256",
                  "name": "long",
                  "type": "uint256"
                },
                {
                  "internalType": "uint256",
                  "name": "short",
                  "type": "uint256"
                }
              ],
              "internalType": "struct BinaryOptionMarketData.OptionValues",
              "name": "balances",
              "type": "tuple"
            }
          ],
          "internalType": "struct BinaryOptionMarketData.AccountData",
          "name": "",
          "type": "tuple"
        }
      ],
      "payable": false,
      "stateMutability": "view",
      "type": "function"
    },
    {
      "constant": true,
      "inputs": [
        {
          "internalType": "contract BinaryOptionMarket",
          "name": "market",
          "type": "address"
        }
      ],
      "name": "getMarketData",
      "outputs": [
        {
          "components": [
            {
              "components": [
                {
                  "internalType": "uint256",
                  "name": "price",
                  "type": "uint256"
                },
                {
                  "internalType": "uint256",
                  "name": "updatedAt",
                  "type": "uint256"
                }
              ],
              "internalType": "struct BinaryOptionMarketData.OraclePriceAndTimestamp",
              "name": "oraclePriceAndTimestamp",
              "type": "tuple"
            },
            {
              "components": [
                {
                  "internalType": "uint256",
                  "name": "long",
                  "type": "uint256"
                },
                {
                  "internalType": "uint256",
                  "name": "short",
                  "type": "uint256"
                }
              ],
              "internalType": "struct BinaryOptionMarket.Prices",
              "name": "prices",
              "type": "tuple"
            },
            {
              "components": [
                {
                  "internalType": "uint256",
                  "name": "deposited",
                  "type": "uint256"
                },
                {
                  "internalType": "uint256",
                  "name": "exercisableDeposits",
                  "type": "uint256"
                }
              ],
              "internalType": "struct BinaryOptionMarketData.Deposits",
              "name": "deposits",
              "type": "tuple"
            },
            {
              "components": [
                {
                  "internalType": "bool",
                  "name": "resolved",
                  "type": "bool"
                },
                {
                  "internalType": "bool",
                  "name": "canResolve",
                  "type": "bool"
                }
              ],
              "internalType": "struct BinaryOptionMarketData.Resolution",
              "name": "resolution",
              "type": "tuple"
            },
            {
              "internalType": "enum IBinaryOptionMarket.Phase",
              "name": "phase",
              "type": "uint8"
            },
            {
              "internalType": "enum IBinaryOptionMarket.Side",
              "name": "result",
              "type": "uint8"
            },
            {
              "components": [
                {
                  "internalType": "uint256",
                  "name": "long",
                  "type": "uint256"
                },
                {
                  "internalType": "uint256",
                  "name": "short",
                  "type": "uint256"
                }
              ],
              "internalType": "struct BinaryOptionMarketData.OptionValues",
              "name": "totalBids",
              "type": "tuple"
            },
            {
              "components": [
                {
                  "internalType": "uint256",
                  "name": "long",
                  "type": "uint256"
                },
                {
                  "internalType": "uint256",
                  "name": "short",
                  "type": "uint256"
                }
              ],
              "internalType": "struct BinaryOptionMarketData.OptionValues",
              "name": "totalClaimableSupplies",
              "type": "tuple"
            },
            {
              "components": [
                {
                  "internalType": "uint256",
                  "name": "long",
                  "type": "uint256"
                },
                {
                  "internalType": "uint256",
                  "name": "short",
                  "type": "uint256"
                }
              ],
              "internalType": "struct BinaryOptionMarketData.OptionValues",
              "name": "totalSupplies",
              "type": "tuple"
            }
          ],
          "internalType": "struct BinaryOptionMarketData.MarketData",
          "name": "",
          "type": "tuple"
        }
      ],
      "payable": false,
      "stateMutability": "view",
      "type": "function"
    },
    {
      "constant": true,
      "inputs": [
        {
          "internalType": "contract BinaryOptionMarket",
          "name": "market",
          "type": "address"
        }
      ],
      "name": "getMarketParameters",
      "outputs": [
        {
          "components": [
            {
              "internalType": "address",
              "name": "creator",
              "type": "address"
            },
            {
              "components": [
                {
                  "internalType": "contract BinaryOption",
                  "name": "long",
                  "type": "address"
                },
                {
                  "internalType": "contract BinaryOption",
                  "name": "short",
                  "type": "address"
                }
              ],
              "internalType": "struct BinaryOptionMarket.Options",
              "name": "options",
              "type": "tuple"
            },
            {
              "components": [
                {
                  "internalType": "uint256",
                  "name": "biddingEnd",
                  "type": "uint256"
                },
                {
                  "internalType": "uint256",
                  "name": "maturity",
                  "type": "uint256"
                },
                {
                  "internalType": "uint256",
                  "name": "expiry",
                  "type": "uint256"
                }
              ],
              "internalType": "struct BinaryOptionMarket.Times",
              "name": "times",
              "type": "tuple"
            },
            {
              "components": [
                {
                  "internalType": "bytes32",
                  "name": "key",
                  "type": "bytes32"
                },
                {
                  "internalType": "uint256",
                  "name": "strikePrice",
                  "type": "uint256"
                },
                {
                  "internalType": "uint256",
                  "name": "finalPrice",
                  "type": "uint256"
                }
              ],
              "internalType": "struct BinaryOptionMarket.OracleDetails",
              "name": "oracleDetails",
              "type": "tuple"
            },
            {
              "components": [
                {
                  "internalType": "uint256",
                  "name": "poolFee",
                  "type": "uint256"
                },
                {
                  "internalType": "uint256",
                  "name": "creatorFee",
                  "type": "uint256"
                },
                {
                  "internalType": "uint256",
                  "name": "refundFee",
                  "type": "uint256"
                }
              ],
              "internalType": "struct BinaryOptionMarketManager.Fees",
              "name": "fees",
              "type": "tuple"
            },
            {
              "components": [
                {
                  "internalType": "uint256",
                  "name": "capitalRequirement",
                  "type": "uint256"
                },
                {
                  "internalType": "uint256",
                  "name": "skewLimit",
                  "type": "uint256"
                }
              ],
              "internalType": "struct BinaryOptionMarketManager.CreatorLimits",
              "name": "creatorLimits",
              "type": "tuple"
            }
          ],
          "internalType": "struct BinaryOptionMarketData.MarketParameters",
          "name": "",
          "type": "tuple"
        }
      ],
      "payable": false,
      "stateMutability": "view",
      "type": "function"
    }
  ],
  "bytecode": "0x608060405234801561001057600080fd5b50611992806100206000396000f3fe608060405234801561001057600080fd5b50600436106100415760003560e01c80631216fc7b14610046578063a30c302d14610076578063dca5f5c3146100a6575b600080fd5b610060600480360361005b9190810190611190565b6100d6565b60405161006d919061178b565b60405180910390f35b610090600480360361008b9190810190611190565b610522565b60405161009d919061176f565b60405180910390f35b6100c060048036036100bb91908101906111b9565b610ba3565b6040516100cd9190611754565b60405180910390f35b6100de610dbd565b6000808373ffffffffffffffffffffffffffffffffffffffff16631069143a6040518163ffffffff1660e01b8152600401604080518083038186803b15801561012657600080fd5b505afa15801561013a573d6000803e3d6000fd5b505050506040513d601f19601f8201168201806040525061015e91908101906111f5565b9150915060008060008673ffffffffffffffffffffffffffffffffffffffff16639e3b34bf6040518163ffffffff1660e01b815260040160606040518083038186803b1580156101ad57600080fd5b505afa1580156101c1573d6000803e3d6000fd5b505050506040513d601f19601f820116820180604052506101e591908101906112e8565b92509250925060008060008973ffffffffffffffffffffffffffffffffffffffff166398508ecd6040518163ffffffff1660e01b815260040160606040518083038186803b15801561023657600080fd5b505afa15801561024a573d6000803e3d6000fd5b505050506040513d601f19601f8201168201806040525061026e9190810190611141565b92509250925060008060008c73ffffffffffffffffffffffffffffffffffffffff16639af1d35a6040518163ffffffff1660e01b815260040160606040518083038186803b1580156102bf57600080fd5b505afa1580156102d3573d6000803e3d6000fd5b505050506040513d601f19601f820116820180604052506102f791908101906112e8565b925092509250610305610dbd565b6040518060c001604052808f73ffffffffffffffffffffffffffffffffffffffff166302d05d3f6040518163ffffffff1660e01b815260040160206040518083038186803b15801561035657600080fd5b505afa15801561036a573d6000803e3d6000fd5b505050506040513d601f19601f8201168201806040525061038e91908101906110ef565b73ffffffffffffffffffffffffffffffffffffffff16815260200160405180604001604052808f73ffffffffffffffffffffffffffffffffffffffff1681526020018e73ffffffffffffffffffffffffffffffffffffffff16815250815260200160405180606001604052808d81526020018c81526020018b815250815260200160405180606001604052808a81526020018981526020018881525081526020016040518060600160405280878152602001868152602001858152508152602001604051806040016040528060008152602001600081525081525090506000808f73ffffffffffffffffffffffffffffffffffffffff1663be5af9fe6040518163ffffffff1660e01b8152600401604080518083038186803b1580156104b357600080fd5b505afa1580156104c7573d6000803e3d6000fd5b505050506040513d601f19601f820116820180604052506104eb91908101906112ac565b915091506040518060400160405280838152602001828152508360a00181905250829e505050505050505050505050505050919050565b61052a610e27565b6000808373ffffffffffffffffffffffffffffffffffffffff1663c7a5bdc86040518163ffffffff1660e01b8152600401604080518083038186803b15801561057257600080fd5b505afa158015610586573d6000803e3d6000fd5b505050506040513d601f19601f820116820180604052506105aa91908101906112ac565b915091506000808573ffffffffffffffffffffffffffffffffffffffff16633d7a783b6040518163ffffffff1660e01b8152600401604080518083038186803b1580156105f657600080fd5b505afa15801561060a573d6000803e3d6000fd5b505050506040513d601f19601f8201168201806040525061062e91908101906112ac565b915091506000808773ffffffffffffffffffffffffffffffffffffffff1663d068cdc56040518163ffffffff1660e01b8152600401604080518083038186803b15801561067a57600080fd5b505afa15801561068e573d6000803e3d6000fd5b505050506040513d601f19601f820116820180604052506106b291908101906112ac565b915091506000808973ffffffffffffffffffffffffffffffffffffffff16638b0341366040518163ffffffff1660e01b8152600401604080518083038186803b1580156106fe57600080fd5b505afa158015610712573d6000803e3d6000fd5b505050506040513d601f19601f8201168201806040525061073691908101906112ac565b915091506000808b73ffffffffffffffffffffffffffffffffffffffff1663d3419bf36040518163ffffffff1660e01b8152600401604080518083038186803b15801561078257600080fd5b505afa158015610796573d6000803e3d6000fd5b505050506040513d601f19601f820116820180604052506107ba91908101906112ac565b9150915060405180610120016040528060405180604001604052808d81526020018c8152508152602001604051806040016040528085815260200184815250815260200160405180604001604052808f73ffffffffffffffffffffffffffffffffffffffff1663eef49ee36040518163ffffffff1660e01b815260040160206040518083038186803b15801561084f57600080fd5b505afa158015610863573d6000803e3d6000fd5b505050506040513d601f19601f820116820180604052506108879190810190611283565b81526020018f73ffffffffffffffffffffffffffffffffffffffff16632115e3036040518163ffffffff1660e01b815260040160206040518083038186803b1580156108d257600080fd5b505afa1580156108e6573d6000803e3d6000fd5b505050506040513d601f19601f8201168201806040525061090a9190810190611283565b815250815260200160405180604001604052808f73ffffffffffffffffffffffffffffffffffffffff16633f6fa6556040518163ffffffff1660e01b815260040160206040518083038186803b15801561096357600080fd5b505afa158015610977573d6000803e3d6000fd5b505050506040513d601f19601f8201168201806040525061099b9190810190611118565b151581526020018f73ffffffffffffffffffffffffffffffffffffffff1663ac3791e36040518163ffffffff1660e01b815260040160206040518083038186803b1580156109e857600080fd5b505afa1580156109fc573d6000803e3d6000fd5b505050506040513d601f19601f82011682018060405250610a209190810190611118565b151581525081526020018d73ffffffffffffffffffffffffffffffffffffffff1663b1c9fe6e6040518163ffffffff1660e01b815260040160206040518083038186803b158015610a7057600080fd5b505afa158015610a84573d6000803e3d6000fd5b505050506040513d601f19601f82011682018060405250610aa89190810190611231565b6003811115610ab357fe5b81526020018d73ffffffffffffffffffffffffffffffffffffffff1663653721476040518163ffffffff1660e01b815260040160206040518083038186803b158015610afe57600080fd5b505afa158015610b12573d6000803e3d6000fd5b505050506040513d601f19601f82011682018060405250610b36919081019061125a565b6001811115610b4157fe5b8152602001604051806040016040528087815260200186815250815260200160405180604001604052808b81526020018a81525081526020016040518060400160405280898152602001888152508152509a5050505050505050505050919050565b610bab610eb3565b6000808473ffffffffffffffffffffffffffffffffffffffff166329e77b5d856040518263ffffffff1660e01b8152600401610be79190611739565b604080518083038186803b158015610bfe57600080fd5b505afa158015610c12573d6000803e3d6000fd5b505050506040513d601f19601f82011682018060405250610c3691908101906112ac565b915091506000808673ffffffffffffffffffffffffffffffffffffffff1663408e82af876040518263ffffffff1660e01b8152600401610c769190611739565b604080518083038186803b158015610c8d57600080fd5b505afa158015610ca1573d6000803e3d6000fd5b505050506040513d601f19601f82011682018060405250610cc591908101906112ac565b915091506000808873ffffffffffffffffffffffffffffffffffffffff16636392a51f896040518263ffffffff1660e01b8152600401610d059190611739565b604080518083038186803b158015610d1c57600080fd5b505afa158015610d30573d6000803e3d6000fd5b505050506040513d601f19601f82011682018060405250610d5491908101906112ac565b91509150604051806060016040528060405180604001604052808981526020018881525081526020016040518060400160405280878152602001868152508152602001604051806040016040528085815260200184815250815250965050505050505092915050565b6040518060c00160405280600073ffffffffffffffffffffffffffffffffffffffff168152602001610ded610ee6565b8152602001610dfa610f2c565b8152602001610e07610f4d565b8152602001610e14610f71565b8152602001610e21610f92565b81525090565b604051806101200160405280610e3b610fac565b8152602001610e48610fc6565b8152602001610e55610fe0565b8152602001610e62610ffa565b815260200160006003811115610e7457fe5b815260200160006001811115610e8657fe5b8152602001610e93611018565b8152602001610ea0611018565b8152602001610ead611018565b81525090565b6040518060600160405280610ec6611018565b8152602001610ed3611018565b8152602001610ee0611018565b81525090565b6040518060400160405280600073ffffffffffffffffffffffffffffffffffffffff168152602001600073ffffffffffffffffffffffffffffffffffffffff1681525090565b60405180606001604052806000815260200160008152602001600081525090565b60405180606001604052806000801916815260200160008152602001600081525090565b60405180606001604052806000815260200160008152602001600081525090565b604051806040016040528060008152602001600081525090565b604051806040016040528060008152602001600081525090565b604051806040016040528060008152602001600081525090565b604051806040016040528060008152602001600081525090565b60405180604001604052806000151581526020016000151581525090565b604051806040016040528060008152602001600081525090565b600081359050611041816118a5565b92915050565b600081519050611056816118a5565b92915050565b60008151905061106b816118bc565b92915050565b600081519050611080816118d3565b92915050565b600081359050611095816118ea565b92915050565b6000815190506110aa81611901565b92915050565b6000815190506110bf81611918565b92915050565b6000815190506110d481611928565b92915050565b6000815190506110e981611938565b92915050565b60006020828403121561110157600080fd5b600061110f84828501611047565b91505092915050565b60006020828403121561112a57600080fd5b60006111388482850161105c565b91505092915050565b60008060006060848603121561115657600080fd5b600061116486828701611071565b9350506020611175868287016110da565b9250506040611186868287016110da565b9150509250925092565b6000602082840312156111a257600080fd5b60006111b084828501611086565b91505092915050565b600080604083850312156111cc57600080fd5b60006111da85828601611086565b92505060206111eb85828601611032565b9150509250929050565b6000806040838503121561120857600080fd5b60006112168582860161109b565b92505060206112278582860161109b565b9150509250929050565b60006020828403121561124357600080fd5b6000611251848285016110b0565b91505092915050565b60006020828403121561126c57600080fd5b600061127a848285016110c5565b91505092915050565b60006020828403121561129557600080fd5b60006112a3848285016110da565b91505092915050565b600080604083850312156112bf57600080fd5b60006112cd858286016110da565b92505060206112de858286016110da565b9150509250929050565b6000806000606084860312156112fd57600080fd5b600061130b868287016110da565b935050602061131c868287016110da565b925050604061132d868287016110da565b9150509250925092565b611340816117a7565b82525050565b61134f816117a7565b82525050565b61135e816117b9565b82525050565b61136d816117c5565b82525050565b61137c81611843565b82525050565b61138b81611867565b82525050565b61139a81611879565b82525050565b60c0820160008201516113b660008501826115bb565b5060208201516113c960408501826115bb565b5060408201516113dc60808501826115bb565b50505050565b6040820160008201516113f8600085018261172a565b50602082015161140b602085018261172a565b50505050565b604082016000820151611427600085018261172a565b50602082015161143a602085018261172a565b50505050565b606082016000820151611456600085018261172a565b506020820151611469602085018261172a565b50604082015161147c604085018261172a565b50505050565b61020082016000820151611499600085018261165b565b5060208201516114ac604085018261168a565b5060408201516114bf6080850182611411565b5060608201516114d260c08501826116b9565b5060808201516114e6610100850182611382565b5060a08201516114fa610120850182611391565b5060c082015161150e6101408501826115bb565b5060e08201516115226101808501826115bb565b506101008201516115376101c08501826115bb565b50505050565b6101c0820160008201516115546000850182611337565b50602082015161156760208501826115ea565b50604082015161157a60608501826116e8565b50606082015161158d60c0850182611619565b5060808201516115a1610120850182611440565b5060a08201516115b56101808501826113e2565b50505050565b6040820160008201516115d1600085018261172a565b5060208201516115e4602085018261172a565b50505050565b6040820160008201516116006000850182611373565b5060208201516116136020850182611373565b50505050565b60608201600082015161162f6000850182611364565b506020820151611642602085018261172a565b506040820151611655604085018261172a565b50505050565b604082016000820151611671600085018261172a565b506020820151611684602085018261172a565b50505050565b6040820160008201516116a0600085018261172a565b5060208201516116b3602085018261172a565b50505050565b6040820160008201516116cf6000850182611355565b5060208201516116e26020850182611355565b50505050565b6060820160008201516116fe600085018261172a565b506020820151611711602085018261172a565b506040820151611724604085018261172a565b50505050565b61173381611839565b82525050565b600060208201905061174e6000830184611346565b92915050565b600060c08201905061176960008301846113a0565b92915050565b6000610200820190506117856000830184611482565b92915050565b60006101c0820190506117a1600083018461153d565b92915050565b60006117b282611819565b9050919050565b60008115159050919050565b6000819050919050565b60006117da826117a7565b9050919050565b60006117ec826117a7565b9050919050565b60008190506118018261188b565b919050565b600081905061181482611898565b919050565b600073ffffffffffffffffffffffffffffffffffffffff82169050919050565b6000819050919050565b600061184e82611855565b9050919050565b600061186082611819565b9050919050565b6000611872826117f3565b9050919050565b600061188482611806565b9050919050565b6004811061189557fe5b50565b600281106118a257fe5b50565b6118ae816117a7565b81146118b957600080fd5b50565b6118c5816117b9565b81146118d057600080fd5b50565b6118dc816117c5565b81146118e757600080fd5b50565b6118f3816117cf565b81146118fe57600080fd5b50565b61190a816117e1565b811461191557600080fd5b50565b6004811061192557600080fd5b50565b6002811061193557600080fd5b50565b61194181611839565b811461194c57600080fd5b5056fea365627a7a723158205d1cb03e10f716a3f2b27610aa71383a3d2242648697165e275472165642b5106c6578706572696d656e74616cf564736f6c63430005100040",
  "linkReferences": {},
  "deployedLinkReferences": {}
}