{
  "_format": "hh-sol-artifact-1",
  "contractName": "IssuerWithoutLiquidations",
  "sourceName": "contracts/IssuerWithoutLiquidations.sol",
  "abi": [
    {
      "inputs": [
        {
          "internalType": "address",
          "name": "_owner",
          "type": "address"
        },
        {
          "internalType": "address",
          "name": "_resolver",
          "type": "address"
        }
      ],
      "payable": false,
      "stateMutability": "nonpayable",
      "type": "constructor"
    },
    {
      "anonymous": false,
      "inputs": [
        {
          "indexed": false,
          "internalType": "bytes32",
          "name": "name",
          "type": "bytes32"
        },
        {
          "indexed": false,
          "internalType": "address",
          "name": "destination",
          "type": "address"
        }
      ],
      "name": "CacheUpdated",
      "type": "event"
    },
    {
      "anonymous": false,
      "inputs": [
        {
          "indexed": false,
          "internalType": "address",
          "name": "oldOwner",
          "type": "address"
        },
        {
          "indexed": false,
          "internalType": "address",
          "name": "newOwner",
          "type": "address"
        }
      ],
      "name": "OwnerChanged",
      "type": "event"
    },
    {
      "anonymous": false,
      "inputs": [
        {
          "indexed": false,
          "internalType": "address",
          "name": "newOwner",
          "type": "address"
        }
      ],
      "name": "OwnerNominated",
      "type": "event"
    },
    {
      "anonymous": false,
      "inputs": [
        {
          "indexed": false,
          "internalType": "bytes32",
          "name": "currencyKey",
          "type": "bytes32"
        },
        {
          "indexed": false,
          "internalType": "address",
          "name": "synth",
          "type": "address"
        }
      ],
      "name": "SynthAdded",
      "type": "event"
    },
    {
      "anonymous": false,
      "inputs": [
        {
          "indexed": false,
          "internalType": "bytes32",
          "name": "currencyKey",
          "type": "bytes32"
        },
        {
          "indexed": false,
          "internalType": "address",
          "name": "synth",
          "type": "address"
        }
      ],
      "name": "SynthRemoved",
      "type": "event"
    },
    {
      "constant": true,
      "inputs": [],
      "name": "CONTRACT_NAME",
      "outputs": [
        {
          "internalType": "bytes32",
          "name": "",
          "type": "bytes32"
        }
      ],
      "payable": false,
      "stateMutability": "view",
      "type": "function"
    },
    {
      "constant": false,
      "inputs": [],
      "name": "acceptOwnership",
      "outputs": [],
      "payable": false,
      "stateMutability": "nonpayable",
      "type": "function"
    },
    {
      "constant": false,
      "inputs": [
        {
          "internalType": "contract ISynth",
          "name": "synth",
          "type": "address"
        }
      ],
      "name": "addSynth",
      "outputs": [],
      "payable": false,
      "stateMutability": "nonpayable",
      "type": "function"
    },
    {
      "constant": false,
      "inputs": [
        {
          "internalType": "contract ISynth[]",
          "name": "synthsToAdd",
          "type": "address[]"
        }
      ],
      "name": "addSynths",
      "outputs": [],
      "payable": false,
      "stateMutability": "nonpayable",
      "type": "function"
    },
    {
      "constant": true,
      "inputs": [],
      "name": "anySynthOrSNXRateIsInvalid",
      "outputs": [
        {
          "internalType": "bool",
          "name": "anyRateInvalid",
          "type": "bool"
        }
      ],
      "payable": false,
      "stateMutability": "view",
      "type": "function"
    },
    {
      "constant": true,
      "inputs": [],
      "name": "availableCurrencyKeys",
      "outputs": [
        {
          "internalType": "bytes32[]",
          "name": "",
          "type": "bytes32[]"
        }
      ],
      "payable": false,
      "stateMutability": "view",
      "type": "function"
    },
    {
      "constant": true,
      "inputs": [],
      "name": "availableSynthCount",
      "outputs": [
        {
          "internalType": "uint256",
          "name": "",
          "type": "uint256"
        }
      ],
      "payable": false,
      "stateMutability": "view",
      "type": "function"
    },
    {
      "constant": true,
      "inputs": [
        {
          "internalType": "uint256",
          "name": "",
          "type": "uint256"
        }
      ],
      "name": "availableSynths",
      "outputs": [
        {
          "internalType": "contract ISynth",
          "name": "",
          "type": "address"
        }
      ],
      "payable": false,
      "stateMutability": "view",
      "type": "function"
    },
    {
      "constant": false,
      "inputs": [
        {
          "internalType": "address",
          "name": "from",
          "type": "address"
        },
        {
          "internalType": "uint256",
          "name": "amount",
          "type": "uint256"
        }
      ],
      "name": "burnSynths",
      "outputs": [],
      "payable": false,
      "stateMutability": "nonpayable",
      "type": "function"
    },
    {
      "constant": false,
      "inputs": [
        {
          "internalType": "address",
          "name": "burnForAddress",
          "type": "address"
        },
        {
          "internalType": "address",
          "name": "from",
          "type": "address"
        },
        {
          "internalType": "uint256",
          "name": "amount",
          "type": "uint256"
        }
      ],
      "name": "burnSynthsOnBehalf",
      "outputs": [],
      "payable": false,
      "stateMutability": "nonpayable",
      "type": "function"
    },
    {
      "constant": false,
      "inputs": [
        {
          "internalType": "address",
          "name": "from",
          "type": "address"
        }
      ],
      "name": "burnSynthsToTarget",
      "outputs": [],
      "payable": false,
      "stateMutability": "nonpayable",
      "type": "function"
    },
    {
      "constant": false,
      "inputs": [
        {
          "internalType": "address",
          "name": "burnForAddress",
          "type": "address"
        },
        {
          "internalType": "address",
          "name": "from",
          "type": "address"
        }
      ],
      "name": "burnSynthsToTargetOnBehalf",
      "outputs": [],
      "payable": false,
      "stateMutability": "nonpayable",
      "type": "function"
    },
    {
      "constant": true,
      "inputs": [
        {
          "internalType": "address",
          "name": "account",
          "type": "address"
        }
      ],
      "name": "canBurnSynths",
      "outputs": [
        {
          "internalType": "bool",
          "name": "",
          "type": "bool"
        }
      ],
      "payable": false,
      "stateMutability": "view",
      "type": "function"
    },
    {
      "constant": true,
      "inputs": [
        {
          "internalType": "address",
          "name": "account",
          "type": "address"
        }
      ],
      "name": "collateral",
      "outputs": [
        {
          "internalType": "uint256",
          "name": "",
          "type": "uint256"
        }
      ],
      "payable": false,
      "stateMutability": "view",
      "type": "function"
    },
    {
      "constant": true,
      "inputs": [
        {
          "internalType": "address",
          "name": "_issuer",
          "type": "address"
        }
      ],
      "name": "collateralisationRatio",
      "outputs": [
        {
          "internalType": "uint256",
          "name": "cratio",
          "type": "uint256"
        }
      ],
      "payable": false,
      "stateMutability": "view",
      "type": "function"
    },
    {
      "constant": true,
      "inputs": [
        {
          "internalType": "address",
          "name": "_issuer",
          "type": "address"
        }
      ],
      "name": "collateralisationRatioAndAnyRatesInvalid",
      "outputs": [
        {
          "internalType": "uint256",
          "name": "cratio",
          "type": "uint256"
        },
        {
          "internalType": "bool",
          "name": "anyRateIsInvalid",
          "type": "bool"
        }
      ],
      "payable": false,
      "stateMutability": "view",
      "type": "function"
    },
    {
      "constant": true,
      "inputs": [
        {
          "internalType": "address",
          "name": "_issuer",
          "type": "address"
        },
        {
          "internalType": "bytes32",
          "name": "currencyKey",
          "type": "bytes32"
        }
      ],
      "name": "debtBalanceOf",
      "outputs": [
        {
          "internalType": "uint256",
          "name": "debtBalance",
          "type": "uint256"
        }
      ],
      "payable": false,
      "stateMutability": "view",
      "type": "function"
    },
    {
      "constant": true,
      "inputs": [
        {
          "internalType": "bytes32[]",
          "name": "currencyKeys",
          "type": "bytes32[]"
        }
      ],
      "name": "getSynths",
      "outputs": [
        {
          "internalType": "contract ISynth[]",
          "name": "",
          "type": "address[]"
        }
      ],
      "payable": false,
      "stateMutability": "view",
      "type": "function"
    },
    {
      "constant": true,
      "inputs": [],
      "name": "isResolverCached",
      "outputs": [
        {
          "internalType": "bool",
          "name": "",
          "type": "bool"
        }
      ],
      "payable": false,
      "stateMutability": "view",
      "type": "function"
    },
    {
      "constant": true,
      "inputs": [],
      "name": "issuanceRatio",
      "outputs": [
        {
          "internalType": "uint256",
          "name": "",
          "type": "uint256"
        }
      ],
      "payable": false,
      "stateMutability": "view",
      "type": "function"
    },
    {
      "constant": false,
      "inputs": [
        {
          "internalType": "address",
          "name": "from",
          "type": "address"
        }
      ],
      "name": "issueMaxSynths",
      "outputs": [],
      "payable": false,
      "stateMutability": "nonpayable",
      "type": "function"
    },
    {
      "constant": false,
      "inputs": [
        {
          "internalType": "address",
          "name": "issueForAddress",
          "type": "address"
        },
        {
          "internalType": "address",
          "name": "from",
          "type": "address"
        }
      ],
      "name": "issueMaxSynthsOnBehalf",
      "outputs": [],
      "payable": false,
      "stateMutability": "nonpayable",
      "type": "function"
    },
    {
      "constant": false,
      "inputs": [
        {
          "internalType": "address",
          "name": "from",
          "type": "address"
        },
        {
          "internalType": "uint256",
          "name": "amount",
          "type": "uint256"
        }
      ],
      "name": "issueSynths",
      "outputs": [],
      "payable": false,
      "stateMutability": "nonpayable",
      "type": "function"
    },
    {
      "constant": false,
      "inputs": [
        {
          "internalType": "address",
          "name": "issueForAddress",
          "type": "address"
        },
        {
          "internalType": "address",
          "name": "from",
          "type": "address"
        },
        {
          "internalType": "uint256",
          "name": "amount",
          "type": "uint256"
        }
      ],
      "name": "issueSynthsOnBehalf",
      "outputs": [],
      "payable": false,
      "stateMutability": "nonpayable",
      "type": "function"
    },
    {
      "constant": true,
      "inputs": [
        {
          "internalType": "address",
          "name": "account",
          "type": "address"
        }
      ],
      "name": "lastIssueEvent",
      "outputs": [
        {
          "internalType": "uint256",
          "name": "",
          "type": "uint256"
        }
      ],
      "payable": false,
      "stateMutability": "view",
      "type": "function"
    },
    {
      "constant": false,
      "inputs": [
        {
          "internalType": "address",
          "name": "account",
          "type": "address"
        },
        {
          "internalType": "uint256",
          "name": "susdAmount",
          "type": "uint256"
        },
        {
          "internalType": "address",
          "name": "liquidator",
          "type": "address"
        }
      ],
      "name": "liquidateDelinquentAccount",
      "outputs": [
        {
          "internalType": "uint256",
          "name": "totalRedeemed",
          "type": "uint256"
        },
        {
          "internalType": "uint256",
          "name": "amountToLiquidate",
          "type": "uint256"
        }
      ],
      "payable": false,
      "stateMutability": "nonpayable",
      "type": "function"
    },
    {
      "constant": true,
      "inputs": [
        {
          "internalType": "address",
          "name": "_issuer",
          "type": "address"
        }
      ],
      "name": "maxIssuableSynths",
      "outputs": [
        {
          "internalType": "uint256",
          "name": "",
          "type": "uint256"
        }
      ],
      "payable": false,
      "stateMutability": "view",
      "type": "function"
    },
    {
      "constant": true,
      "inputs": [],
      "name": "minimumStakeTime",
      "outputs": [
        {
          "internalType": "uint256",
          "name": "",
          "type": "uint256"
        }
      ],
      "payable": false,
      "stateMutability": "view",
      "type": "function"
    },
    {
      "constant": false,
      "inputs": [
        {
          "internalType": "address",
          "name": "_owner",
          "type": "address"
        }
      ],
      "name": "nominateNewOwner",
      "outputs": [],
      "payable": false,
      "stateMutability": "nonpayable",
      "type": "function"
    },
    {
      "constant": true,
      "inputs": [],
      "name": "nominatedOwner",
      "outputs": [
        {
          "internalType": "address",
          "name": "",
          "type": "address"
        }
      ],
      "payable": false,
      "stateMutability": "view",
      "type": "function"
    },
    {
      "constant": true,
      "inputs": [],
      "name": "owner",
      "outputs": [
        {
          "internalType": "address",
          "name": "",
          "type": "address"
        }
      ],
      "payable": false,
      "stateMutability": "view",
      "type": "function"
    },
    {
      "constant": false,
      "inputs": [],
      "name": "rebuildCache",
      "outputs": [],
      "payable": false,
      "stateMutability": "nonpayable",
      "type": "function"
    },
    {
      "constant": true,
      "inputs": [
        {
          "internalType": "address",
          "name": "_issuer",
          "type": "address"
        }
      ],
      "name": "remainingIssuableSynths",
      "outputs": [
        {
          "internalType": "uint256",
          "name": "maxIssuable",
          "type": "uint256"
        },
        {
          "internalType": "uint256",
          "name": "alreadyIssued",
          "type": "uint256"
        },
        {
          "internalType": "uint256",
          "name": "totalSystemDebt",
          "type": "uint256"
        }
      ],
      "payable": false,
      "stateMutability": "view",
      "type": "function"
    },
    {
      "constant": false,
      "inputs": [
        {
          "internalType": "bytes32",
          "name": "currencyKey",
          "type": "bytes32"
        }
      ],
      "name": "removeSynth",
      "outputs": [],
      "payable": false,
      "stateMutability": "nonpayable",
      "type": "function"
    },
    {
      "constant": false,
      "inputs": [
        {
          "internalType": "bytes32[]",
          "name": "currencyKeys",
          "type": "bytes32[]"
        }
      ],
      "name": "removeSynths",
      "outputs": [],
      "payable": false,
      "stateMutability": "nonpayable",
      "type": "function"
    },
    {
      "constant": true,
      "inputs": [],
      "name": "resolver",
      "outputs": [
        {
          "internalType": "contract AddressResolver",
          "name": "",
          "type": "address"
        }
      ],
      "payable": false,
      "stateMutability": "view",
      "type": "function"
    },
    {
      "constant": true,
      "inputs": [],
      "name": "resolverAddressesRequired",
      "outputs": [
        {
          "internalType": "bytes32[]",
          "name": "addresses",
          "type": "bytes32[]"
        }
      ],
      "payable": false,
      "stateMutability": "view",
      "type": "function"
    },
    {
      "constant": true,
      "inputs": [
        {
          "internalType": "bytes32",
          "name": "",
          "type": "bytes32"
        }
      ],
      "name": "synths",
      "outputs": [
        {
          "internalType": "contract ISynth",
          "name": "",
          "type": "address"
        }
      ],
      "payable": false,
      "stateMutability": "view",
      "type": "function"
    },
    {
      "constant": true,
      "inputs": [
        {
          "internalType": "address",
          "name": "",
          "type": "address"
        }
      ],
      "name": "synthsByAddress",
      "outputs": [
        {
          "internalType": "bytes32",
          "name": "",
          "type": "bytes32"
        }
      ],
      "payable": false,
      "stateMutability": "view",
      "type": "function"
    },
    {
      "constant": true,
      "inputs": [
        {
          "internalType": "bytes32",
          "name": "currencyKey",
          "type": "bytes32"
        },
        {
          "internalType": "bool",
          "name": "excludeEtherCollateral",
          "type": "bool"
        }
      ],
      "name": "totalIssuedSynths",
      "outputs": [
        {
          "internalType": "uint256",
          "name": "totalIssued",
          "type": "uint256"
        }
      ],
      "payable": false,
      "stateMutability": "view",
      "type": "function"
    },
    {
      "constant": true,
      "inputs": [
        {
          "internalType": "address",
          "name": "account",
          "type": "address"
        },
        {
          "internalType": "uint256",
          "name": "balance",
          "type": "uint256"
        }
      ],
      "name": "transferableSynthetixAndAnyRateIsInvalid",
      "outputs": [
        {
          "internalType": "uint256",
          "name": "transferable",
          "type": "uint256"
        },
        {
          "internalType": "bool",
          "name": "anyRateIsInvalid",
          "type": "bool"
        }
      ],
      "payable": false,
      "stateMutability": "view",
      "type": "function"
    }
  ],
  "bytecode": "0x60806040523480156200001157600080fd5b506040516200636338038062006363833981810160405260408110156200003757600080fd5b8101908080519060200190929190805190602001909291905050508181808083600073ffffffffffffffffffffffffffffffffffffffff168173ffffffffffffffffffffffffffffffffffffffff161415620000fb576040517f08c379a00000000000000000000000000000000000000000000000000000000081526004018080602001828103825260198152602001807f4f776e657220616464726573732063616e6e6f7420626520300000000000000081525060200191505060405180910390fd5b806000806101000a81548173ffffffffffffffffffffffffffffffffffffffff021916908373ffffffffffffffffffffffffffffffffffffffff1602179055507fb532073b38c83145e3e5135377a08bf9aab55bc0fd7c1179cd4fb995d2a5159c600082604051808373ffffffffffffffffffffffffffffffffffffffff1673ffffffffffffffffffffffffffffffffffffffff1681526020018273ffffffffffffffffffffffffffffffffffffffff1673ffffffffffffffffffffffffffffffffffffffff1681526020019250505060405180910390a15080600260006101000a81548173ffffffffffffffffffffffffffffffffffffffff021916908373ffffffffffffffffffffffffffffffffffffffff160217905550505050505050616138806200022b6000396000f3fe608060405234801561001057600080fd5b50600436106102535760003560e01c806372cb051f11610146578063a5fdc5de116100c3578063bff4fdfc11610087578063bff4fdfc14610d85578063c897713214610de1578063d37c4d8b14610e25578063dbf6334014610e87578063dd3d2b2e14610ea5578063fd864ccf14610efd57610253565b8063a5fdc5de14610bd5578063a63c4df414610c2d578063ae3bbbbb14610cb6578063b06e8c6514610d19578063b410a03414610d6757610253565b8063849cf5881161010a578063849cf58814610a22578063899ffef414610a665780638da5cb5b14610ac55780639a5154b414610b0f578063a311c7c214610b7d57610253565b806372cb051f146108f3578063741853601461095257806379ba50971461095c5780637b1001b714610966578063835e119c146109b457610253565b806332608039116101d45780634e99bda9116101985780634e99bda91461078357806353a47bb7146107a5578063614d08f8146107ef5780636bed04151461080d5780637168d2c21461087a57610253565b8063326080391461051c5780633b6afe401461058a57806344ec6b621461065857806347a9b6db146106c6578063497d704a1461073f57610253565b80631627540c1161021b5780631627540c146103dc57806316b2213f14610420578063242df9e1146104785780632af64bd3146104965780632b3f41aa146104b857610253565b8063042e06881461025857806304f3bcec146102a657806305b3c1c9146102f05780630b887dae146103485780631137aedf14610376575b600080fd5b6102a46004803603604081101561026e57600080fd5b81019080803573ffffffffffffffffffffffffffffffffffffffff16906020019092919080359060200190929190505050610f61565b005b6102ae610f79565b604051808273ffffffffffffffffffffffffffffffffffffffff1673ffffffffffffffffffffffffffffffffffffffff16815260200191505060405180910390f35b6103326004803603602081101561030657600080fd5b81019080803573ffffffffffffffffffffffffffffffffffffffff169060200190929190505050610f9f565b6040518082815260200191505060405180910390f35b6103746004803603602081101561035e57600080fd5b8101908080359060200190929190505050610fb7565b005b6103b86004803603602081101561038c57600080fd5b81019080803573ffffffffffffffffffffffffffffffffffffffff1690602001909291905050506110bc565b60405180848152602001838152602001828152602001935050505060405180910390f35b61041e600480360360208110156103f257600080fd5b81019080803573ffffffffffffffffffffffffffffffffffffffff1690602001909291905050506110de565b005b6104626004803603602081101561043657600080fd5b81019080803573ffffffffffffffffffffffffffffffffffffffff16906020019092919050505061118d565b6040518082815260200191505060405180910390f35b6104806111a5565b6040518082815260200191505060405180910390f35b61049e6111b4565b604051808215151515815260200191505060405180910390f35b61051a600480360360408110156104ce57600080fd5b81019080803573ffffffffffffffffffffffffffffffffffffffff169060200190929190803573ffffffffffffffffffffffffffffffffffffffff16906020019092919050505061138c565b005b6105486004803603602081101561053257600080fd5b81019080803590602001909291905050506113af565b604051808273ffffffffffffffffffffffffffffffffffffffff1673ffffffffffffffffffffffffffffffffffffffff16815260200191505060405180910390f35b610601600480360360208110156105a057600080fd5b81019080803590602001906401000000008111156105bd57600080fd5b8201836020820111156105cf57600080fd5b803590602001918460208302840111640100000000831117156105f157600080fd5b90919293919293905050506113e2565b6040518080602001828103825283818151815260200191508051906020019060200280838360005b83811015610644578082015181840152602081019050610629565b505050509050019250505060405180910390f35b6106c46004803603606081101561066e57600080fd5b81019080803573ffffffffffffffffffffffffffffffffffffffff169060200190929190803573ffffffffffffffffffffffffffffffffffffffff169060200190929190803590602001909291905050506114d3565b005b61073d600480360360208110156106dc57600080fd5b81019080803590602001906401000000008111156106f957600080fd5b82018360208201111561070b57600080fd5b8035906020019184602083028401116401000000008311171561072d57600080fd5b90919293919293905050506114f6565b005b6107816004803603602081101561075557600080fd5b81019080803573ffffffffffffffffffffffffffffffffffffffff1690602001909291905050506115cf565b005b61078b6115e7565b604051808215151515815260200191505060405180910390f35b6107ad611776565b604051808273ffffffffffffffffffffffffffffffffffffffff1673ffffffffffffffffffffffffffffffffffffffff16815260200191505060405180910390f35b6107f761179c565b6040518082815260200191505060405180910390f35b6108596004803603604081101561082357600080fd5b81019080803573ffffffffffffffffffffffffffffffffffffffff169060200190929190803590602001909291905050506117c0565b60405180838152602001821515151581526020019250505060405180910390f35b6108f16004803603602081101561089057600080fd5b81019080803590602001906401000000008111156108ad57600080fd5b8201836020820111156108bf57600080fd5b803590602001918460208302840111640100000000831117156108e157600080fd5b9091929391929390505050611846565b005b6108fb611a27565b6040518080602001828103825283818151815260200191508051906020019060200280838360005b8381101561093e578082015181840152602081019050610923565b505050509050019250505060405180910390f35b61095a611a38565b005b610964611ca1565b005b61099e6004803603604081101561097c57600080fd5b8101908080359060200190929190803515159060200190929190505050611ec7565b6040518082815260200191505060405180910390f35b6109e0600480360360208110156109ca57600080fd5b8101908080359060200190929190505050611ede565b604051808273ffffffffffffffffffffffffffffffffffffffff1673ffffffffffffffffffffffffffffffffffffffff16815260200191505060405180910390f35b610a6460048036036020811015610a3857600080fd5b81019080803573ffffffffffffffffffffffffffffffffffffffff169060200190929190505050611f1a565b005b610a6e611fa5565b6040518080602001828103825283818151815260200191508051906020019060200280838360005b83811015610ab1578082015181840152602081019050610a96565b505050509050019250505060405180910390f35b610acd6122ea565b604051808273ffffffffffffffffffffffffffffffffffffffff1673ffffffffffffffffffffffffffffffffffffffff16815260200191505060405180910390f35b610b7b60048036036060811015610b2557600080fd5b81019080803573ffffffffffffffffffffffffffffffffffffffff169060200190929190803573ffffffffffffffffffffffffffffffffffffffff1690602001909291908035906020019092919050505061230f565b005b610bbf60048036036020811015610b9357600080fd5b81019080803573ffffffffffffffffffffffffffffffffffffffff169060200190929190505050612332565b6040518082815260200191505060405180910390f35b610c1760048036036020811015610beb57600080fd5b81019080803573ffffffffffffffffffffffffffffffffffffffff169060200190929190505050612347565b6040518082815260200191505060405180910390f35b610c9960048036036060811015610c4357600080fd5b81019080803573ffffffffffffffffffffffffffffffffffffffff16906020019092919080359060200190929190803573ffffffffffffffffffffffffffffffffffffffff169060200190929190505050612359565b604051808381526020018281526020019250505060405180910390f35b610cf860048036036020811015610ccc57600080fd5b81019080803573ffffffffffffffffffffffffffffffffffffffff16906020019092919050505061236c565b60405180838152602001821515151581526020019250505060405180910390f35b610d6560048036036040811015610d2f57600080fd5b81019080803573ffffffffffffffffffffffffffffffffffffffff16906020019092919080359060200190929190505050612381565b005b610d6f612399565b6040518082815260200191505060405180910390f35b610dc760048036036020811015610d9b57600080fd5b81019080803573ffffffffffffffffffffffffffffffffffffffff1690602001909291905050506123a8565b604051808215151515815260200191505060405180910390f35b610e2360048036036020811015610df757600080fd5b81019080803573ffffffffffffffffffffffffffffffffffffffff1690602001909291905050506123ba565b005b610e7160048036036040811015610e3b57600080fd5b81019080803573ffffffffffffffffffffffffffffffffffffffff169060200190929190803590602001909291905050506123d2565b6040518082815260200191505060405180910390f35b610e8f6124d3565b6040518082815260200191505060405180910390f35b610ee760048036036020811015610ebb57600080fd5b81019080803573ffffffffffffffffffffffffffffffffffffffff1690602001909291905050506124e0565b6040518082815260200191505060405180910390f35b610f5f60048036036040811015610f1357600080fd5b81019080803573ffffffffffffffffffffffffffffffffffffffff169060200190929190803573ffffffffffffffffffffffffffffffffffffffff1690602001909291905050506124f2565b005b610f69612515565b610f75828260006125a2565b5050565b600260009054906101000a900473ffffffffffffffffffffffffffffffffffffffff1681565b600080610fab83612877565b50905080915050919050565b610fbf61297a565b6000610fc9612a21565b90508073ffffffffffffffffffffffffffffffffffffffff1663d685743a8360006040518363ffffffff1660e01b81526004018083815260200182815260200192505050600060405180830381600087803b15801561102757600080fd5b505af115801561103b573d6000803e3d6000fd5b505050508073ffffffffffffffffffffffffffffffffffffffff166304bd11e560016040518263ffffffff1660e01b81526004018082151515158152602001915050600060405180830381600087803b15801561109757600080fd5b505af11580156110ab573d6000803e3d6000fd5b505050506110b882612a51565b5050565b60008060006110ca84612f16565b508093508194508295505050509193909250565b6110e661297a565b80600160006101000a81548173ffffffffffffffffffffffffffffffffffffffff021916908373ffffffffffffffffffffffffffffffffffffffff1602179055507f906a1c6bd7e3091ea86693dd029a831c19049ce77f1dce2ce0bab1cacbabce2281604051808273ffffffffffffffffffffffffffffffffffffffff1673ffffffffffffffffffffffffffffffffffffffff16815260200191505060405180910390a150565b60066020528060005260406000206000915090505481565b60006111af612f9f565b905090565b600060606111c0611fa5565b905060008090505b81518110156113825760008282815181106111df57fe5b602002602001015190506003600082815260200190815260200160002060009054906101000a900473ffffffffffffffffffffffffffffffffffffffff1673ffffffffffffffffffffffffffffffffffffffff16600260009054906101000a900473ffffffffffffffffffffffffffffffffffffffff1673ffffffffffffffffffffffffffffffffffffffff166321f8a721836040518263ffffffff1660e01b81526004018082815260200191505060206040518083038186803b1580156112a657600080fd5b505afa1580156112ba573d6000803e3d6000fd5b505050506040513d60208110156112d057600080fd5b810190808051906020019092919050505073ffffffffffffffffffffffffffffffffffffffff161415806113635750600073ffffffffffffffffffffffffffffffffffffffff166003600083815260200190815260200160002060009054906101000a900473ffffffffffffffffffffffffffffffffffffffff1673ffffffffffffffffffffffffffffffffffffffff16145b156113745760009350505050611389565b5080806001019150506111c8565b5060019150505b90565b611394612515565b61139e8282613081565b6113ab82600060016131ea565b5050565b60056020528060005260406000206000915054906101000a900473ffffffffffffffffffffffffffffffffffffffff1681565b6060600083839050905060608160405190808252806020026020018201604052801561141d5781602001602082028038833980820191505090505b50905060008090505b828110156114c7576005600087878481811061143e57fe5b90506020020135815260200190815260200160002060009054906101000a900473ffffffffffffffffffffffffffffffffffffffff1682828151811061148057fe5b602002602001019073ffffffffffffffffffffffffffffffffffffffff16908173ffffffffffffffffffffffffffffffffffffffff16815250508080600101915050611426565b50809250505092915050565b6114db612515565b6114e58383613631565b6114f1838260006125a2565b505050565b6114fe61297a565b600082829050905060008090505b818110156115525761154584848381811061152357fe5b9050602002013573ffffffffffffffffffffffffffffffffffffffff1661379a565b808060010191505061150c565b5061155b612a21565b73ffffffffffffffffffffffffffffffffffffffff166304bd11e560016040518263ffffffff1660e01b81526004018082151515158152602001915050600060405180830381600087803b1580156115b257600080fd5b505af11580156115c6573d6000803e3d6000fd5b50505050505050565b6115d7612515565b6115e481600060016131ea565b50565b60006115f1613b16565b73ffffffffffffffffffffffffffffffffffffffff1663c8e5bbd56116166001613b46565b6040518263ffffffff1660e01b81526004018080602001828103825283818151815260200191508051906020019060200280838360005b8381101561166857808201518184015260208101905061164d565b505050509050019250505060006040518083038186803b15801561168b57600080fd5b505afa15801561169f573d6000803e3d6000fd5b505050506040513d6000823e3d601f19601f8201168201806040525060408110156116c957600080fd5b81019080805160405193929190846401000000008211156116e957600080fd5b838201915060208201858111156116ff57600080fd5b825186602082028301116401000000008211171561171c57600080fd5b8083526020830192505050908051906020019060200280838360005b83811015611753578082015181840152602081019050611738565b505050509050016040526020018051906020019092919050505090508091505090565b600160009054906101000a900473ffffffffffffffffffffffffffffffffffffffff1681565b7f497373756572000000000000000000000000000000000000000000000000000081565b60008060006117ef857f534e580000000000000000000000000000000000000000000000000000000000613c91565b905080935081925050506000611815611806613f05565b83613fe790919063ffffffff16565b9050848110611827576000935061183d565b61183a818661400390919063ffffffff16565b93505b50509250929050565b61184e61297a565b60008282905090506000611860612a21565b90506060826040519080825280602002602001820160405280156118935781602001602082028038833980820191505090505b5090508173ffffffffffffffffffffffffffffffffffffffff166317b38db48686846040518463ffffffff1660e01b81526004018080602001806020018381038352868682818152602001925060200280828437600081840152601f19601f820116905080830192505050838103825284818151815260200191508051906020019060200280838360005b8381101561193957808201518184015260208101905061191e565b5050505090500195505050505050600060405180830381600087803b15801561196157600080fd5b505af1158015611975573d6000803e3d6000fd5b505050508173ffffffffffffffffffffffffffffffffffffffff166304bd11e560016040518263ffffffff1660e01b81526004018082151515158152602001915050600060405180830381600087803b1580156119d157600080fd5b505af11580156119e5573d6000803e3d6000fd5b5050505060008090505b83811015611a1f57611a12868683818110611a0657fe5b90506020020135612a51565b80806001019150506119ef565b505050505050565b6060611a336000613b46565b905090565b6060611a42611fa5565b905060008090505b8151811015611c9d576000828281518110611a6157fe5b602002602001015190506000600260009054906101000a900473ffffffffffffffffffffffffffffffffffffffff1673ffffffffffffffffffffffffffffffffffffffff1663dacb2d01838460405160200180807f5265736f6c766572206d697373696e67207461726765743a20000000000000008152506019018281526020019150506040516020818303038152906040526040518363ffffffff1660e01b81526004018083815260200180602001828103825283818151815260200191508051906020019080838360005b83811015611b49578082015181840152602081019050611b2e565b50505050905090810190601f168015611b765780820380516001836020036101000a031916815260200191505b50935050505060206040518083038186803b158015611b9457600080fd5b505afa158015611ba8573d6000803e3d6000fd5b505050506040513d6020811015611bbe57600080fd5b81019080805190602001909291905050509050806003600084815260200190815260200160002060006101000a81548173ffffffffffffffffffffffffffffffffffffffff021916908373ffffffffffffffffffffffffffffffffffffffff1602179055507f88a93678a3692f6789d9546fc621bf7234b101ddb7d4fe479455112831b8aa688282604051808381526020018273ffffffffffffffffffffffffffffffffffffffff1673ffffffffffffffffffffffffffffffffffffffff1681526020019250505060405180910390a150508080600101915050611a4a565b5050565b600160009054906101000a900473ffffffffffffffffffffffffffffffffffffffff1673ffffffffffffffffffffffffffffffffffffffff163373ffffffffffffffffffffffffffffffffffffffff1614611d47576040517f08c379a00000000000000000000000000000000000000000000000000000000081526004018080602001828103825260358152602001806160446035913960400191505060405180910390fd5b7fb532073b38c83145e3e5135377a08bf9aab55bc0fd7c1179cd4fb995d2a5159c6000809054906101000a900473ffffffffffffffffffffffffffffffffffffffff16600160009054906101000a900473ffffffffffffffffffffffffffffffffffffffff16604051808373ffffffffffffffffffffffffffffffffffffffff1673ffffffffffffffffffffffffffffffffffffffff1681526020018273ffffffffffffffffffffffffffffffffffffffff1673ffffffffffffffffffffffffffffffffffffffff1681526020019250505060405180910390a1600160009054906101000a900473ffffffffffffffffffffffffffffffffffffffff166000806101000a81548173ffffffffffffffffffffffffffffffffffffffff021916908373ffffffffffffffffffffffffffffffffffffffff1602179055506000600160006101000a81548173ffffffffffffffffffffffffffffffffffffffff021916908373ffffffffffffffffffffffffffffffffffffffff160217905550565b6000611ed3838361408c565b508091505092915050565b60048181548110611eeb57fe5b906000526020600020016000915054906101000a900473ffffffffffffffffffffffffffffffffffffffff1681565b611f2261297a565b611f2b8161379a565b611f33612a21565b73ffffffffffffffffffffffffffffffffffffffff166304bd11e560016040518263ffffffff1660e01b81526004018082151515158152602001915050600060405180830381600087803b158015611f8a57600080fd5b505af1158015611f9e573d6000803e3d6000fd5b5050505050565b606080611fb0614532565b90506060600d604051908082528060200260200182016040528015611fe45781602001602082028038833980820191505090505b5090507f53796e74686574697800000000000000000000000000000000000000000000008160008151811061201557fe5b6020026020010181815250507f45786368616e67657200000000000000000000000000000000000000000000008160018151811061204f57fe5b6020026020010181815250507f45786368616e67655261746573000000000000000000000000000000000000008160028151811061208957fe5b6020026020010181815250507f53796e7468657469785374617465000000000000000000000000000000000000816003815181106120c357fe5b6020026020010181815250507f466565506f6f6c00000000000000000000000000000000000000000000000000816004815181106120fd57fe5b6020026020010181815250507f44656c6567617465417070726f76616c730000000000000000000000000000008160058151811061213757fe5b6020026020010181815250507f4574686572436f6c6c61746572616c00000000000000000000000000000000008160068151811061217157fe5b6020026020010181815250507f4574686572436f6c6c61746572616c7355534400000000000000000000000000816007815181106121ab57fe5b6020026020010181815250507f526577617264457363726f775632000000000000000000000000000000000000816008815181106121e557fe5b6020026020010181815250507f53796e746865746978457363726f7700000000000000000000000000000000008160098151811061221f57fe5b6020026020010181815250507f4c69717569646174696f6e73000000000000000000000000000000000000000081600a8151811061225957fe5b6020026020010181815250507f446562744361636865000000000000000000000000000000000000000000000081600b8151811061229357fe5b6020026020010181815250507f436f6c6c61746572616c4d616e6167657200000000000000000000000000000081600c815181106122cd57fe5b6020026020010181815250506122e382826145a4565b9250505090565b6000809054906101000a900473ffffffffffffffffffffffffffffffffffffffff1681565b612317612515565b6123218383613081565b61232d838260006131ea565b505050565b600061233d82614677565b5080915050919050565b6000612352826146f5565b9050919050565b600080612364612515565b935093915050565b60008061237883614677565b91509150915091565b612389612515565b612395828260006131ea565b5050565b60006123a3613f05565b905090565b60006123b3826149e0565b9050919050565b6123c2612515565b6123cf81600060016125a2565b50565b6000806123dd614a0e565b905060008173ffffffffffffffffffffffffffffffffffffffff16638b3f8088866040518263ffffffff1660e01b8152600401808273ffffffffffffffffffffffffffffffffffffffff1673ffffffffffffffffffffffffffffffffffffffff168152602001915050604080518083038186803b15801561245d57600080fd5b505afa158015612471573d6000803e3d6000fd5b505050506040513d604081101561248757600080fd5b81019080805190602001909291908051906020019092919050505050905060008114156124b9576000925050506124cd565b6124c38585613c91565b9050508093505050505b92915050565b6000600480549050905090565b60006124eb82614a3e565b9050919050565b6124fa612515565b6125048282613631565b61251182600060016125a2565b5050565b61251d614b7f565b73ffffffffffffffffffffffffffffffffffffffff163373ffffffffffffffffffffffffffffffffffffffff16146125a0576040517f08c379a000000000000000000000000000000000000000000000000000000000815260040180806020018281038252603b815260200180616079603b913960400191505060405180910390fd5b565b6000806000806125b187612f16565b93509350935093506125c281614baf565b84612642578386111561263d576040517f08c379a00000000000000000000000000000000000000000000000000000000081526004018080602001828103825260108152602001807f416d6f756e7420746f6f206c617267650000000000000000000000000000000081525060200191505060405180910390fd5b612646565b8395505b61265287878585614c26565b61265b876150a9565b600560007f7355534400000000000000000000000000000000000000000000000000000000815260200190815260200160002060009054906101000a900473ffffffffffffffffffffffffffffffffffffffff1673ffffffffffffffffffffffffffffffffffffffff1663867904b488886040518363ffffffff1660e01b8152600401808373ffffffffffffffffffffffffffffffffffffffff1673ffffffffffffffffffffffffffffffffffffffff16815260200182815260200192505050600060405180830381600087803b15801561273557600080fd5b505af1158015612749573d6000803e3d6000fd5b50505050612755612a21565b73ffffffffffffffffffffffffffffffffffffffff1663d685743a7f735553440000000000000000000000000000000000000000000000000000000073__$b8d33eeb36ac0d1e81cd70156e0043e778$__63907af6c06040518163ffffffff1660e01b815260040160206040518083038186803b1580156127d557600080fd5b505af41580156127e9573d6000803e3d6000fd5b505050506040513d60208110156127ff57600080fd5b81019080805190602001909291905050506040518363ffffffff1660e01b81526004018083815260200182815260200192505050600060405180830381600087803b15801561284d57600080fd5b505af1158015612861573d6000803e3d6000fd5b5050505061286e876151cb565b50505050505050565b600080600080612885613b16565b73ffffffffffffffffffffffffffffffffffffffff16630c71cd237f534e5800000000000000000000000000000000000000000000000000000000006040518263ffffffff1660e01b815260040180828152602001915050604080518083038186803b1580156128f457600080fd5b505afa158015612908573d6000803e3d6000fd5b505050506040513d604081101561291e57600080fd5b81019080805190602001909291908051906020019092919050505091509150600061295161294b876146f5565b84615351565b905061296d61295e613f05565b8261536e90919063ffffffff16565b8294509450505050915091565b6000809054906101000a900473ffffffffffffffffffffffffffffffffffffffff1673ffffffffffffffffffffffffffffffffffffffff163373ffffffffffffffffffffffffffffffffffffffff1614612a1f576040517f08c379a000000000000000000000000000000000000000000000000000000000815260040180806020018281038252602f8152602001806160b4602f913960400191505060405180910390fd5b565b6000612a4c7f446562744361636865000000000000000000000000000000000000000000000061539b565b905090565b60006005600083815260200190815260200160002060009054906101000a900473ffffffffffffffffffffffffffffffffffffffff169050600073ffffffffffffffffffffffffffffffffffffffff168173ffffffffffffffffffffffffffffffffffffffff161415612b2c576040517f08c379a00000000000000000000000000000000000000000000000000000000081526004018080602001828103825260148152602001807f53796e746820646f6573206e6f7420657869737400000000000000000000000081525060200191505060405180910390fd5b60008173ffffffffffffffffffffffffffffffffffffffff166318160ddd6040518163ffffffff1660e01b815260040160206040518083038186803b158015612b7457600080fd5b505afa158015612b88573d6000803e3d6000fd5b505050506040513d6020811015612b9e57600080fd5b810190808051906020019092919050505014612c22576040517f08c379a00000000000000000000000000000000000000000000000000000000081526004018080602001828103825260138152602001807f53796e746820737570706c79206578697374730000000000000000000000000081525060200191505060405180910390fd5b7f7355534400000000000000000000000000000000000000000000000000000000821415612cb8576040517f08c379a00000000000000000000000000000000000000000000000000000000081526004018080602001828103825260138152602001807f43616e6e6f742072656d6f76652073796e74680000000000000000000000000081525060200191505060405180910390fd5b60008090505b600480549050811015612e2d578173ffffffffffffffffffffffffffffffffffffffff1660048281548110612cef57fe5b9060005260206000200160009054906101000a900473ffffffffffffffffffffffffffffffffffffffff1673ffffffffffffffffffffffffffffffffffffffff161415612e205760048181548110612d4357fe5b9060005260206000200160006101000a81549073ffffffffffffffffffffffffffffffffffffffff0219169055600460016004805490500381548110612d8557fe5b9060005260206000200160009054906101000a900473ffffffffffffffffffffffffffffffffffffffff1660048281548110612dbd57fe5b9060005260206000200160006101000a81548173ffffffffffffffffffffffffffffffffffffffff021916908373ffffffffffffffffffffffffffffffffffffffff1602179055506004805480919060019003612e1a9190615ff2565b50612e2d565b8080600101915050612cbe565b50600660008273ffffffffffffffffffffffffffffffffffffffff1673ffffffffffffffffffffffffffffffffffffffff168152602001908152602001600020600090556005600083815260200190815260200160002060006101000a81549073ffffffffffffffffffffffffffffffffffffffff02191690557f6166f5c475cc1cd535c6cdf14a6d5edb811e34117031fc2863392a136eb655d08282604051808381526020018273ffffffffffffffffffffffffffffffffffffffff1673ffffffffffffffffffffffffffffffffffffffff1681526020019250505060405180910390a15050565b600080600080612f46857f7355534400000000000000000000000000000000000000000000000000000000613c91565b809350819450829550505050600080612f5e87612877565b915091508195508280612f6e5750805b9250858510612f805760009550612f96565b612f93858761400390919063ffffffff16565b95505b50509193509193565b6000612fa96154fd565b73ffffffffffffffffffffffffffffffffffffffff166323257c2b7f53797374656d53657474696e67730000000000000000000000000000000000007f6d696e696d756d5374616b6554696d65000000000000000000000000000000006040518363ffffffff1660e01b8152600401808381526020018281526020019250505060206040518083038186803b15801561304157600080fd5b505afa158015613055573d6000803e3d6000fd5b505050506040513d602081101561306b57600080fd5b8101908080519060200190929190505050905090565b61308961552d565b73ffffffffffffffffffffffffffffffffffffffff16637d3f0ba283836040518363ffffffff1660e01b8152600401808373ffffffffffffffffffffffffffffffffffffffff1673ffffffffffffffffffffffffffffffffffffffff1681526020018273ffffffffffffffffffffffffffffffffffffffff1673ffffffffffffffffffffffffffffffffffffffff1681526020019250505060206040518083038186803b15801561313957600080fd5b505afa15801561314d573d6000803e3d6000fd5b505050506040513d602081101561316357600080fd5b81019080805190602001909291905050506131e6576040517f08c379a000000000000000000000000000000000000000000000000000000000815260040180806020018281038252601d8152602001807f4e6f7420617070726f76656420746f20616374206f6e20626568616c6600000081525060200191505060405180910390fd5b5050565b80613475576131f8836149e0565b61326a576040517f08c379a000000000000000000000000000000000000000000000000000000000815260040180806020018281038252601e8152602001807f4d696e696d756d207374616b652074696d65206e6f742072656163686564000081525060200191505060405180910390fd5b60008061327561555d565b73ffffffffffffffffffffffffffffffffffffffff16631b16802c867f73555344000000000000000000000000000000000000000000000000000000006040518363ffffffff1660e01b8152600401808373ffffffffffffffffffffffffffffffffffffffff1673ffffffffffffffffffffffffffffffffffffffff16815260200182815260200192505050606060405180830381600087803b15801561331b57600080fd5b505af115801561332f573d6000803e3d6000fd5b505050506040513d606081101561334557600080fd5b81019080805190602001909291908051906020019092919080519060200190929190505050925092505060008111156134725761338061555d565b73ffffffffffffffffffffffffffffffffffffffff16634c268fc8867f735553440000000000000000000000000000000000000000000000000000000087866040518563ffffffff1660e01b8152600401808573ffffffffffffffffffffffffffffffffffffffff1673ffffffffffffffffffffffffffffffffffffffff16815260200184815260200183815260200182815260200194505050505060206040518083038186803b15801561343457600080fd5b505afa158015613448573d6000803e3d6000fd5b505050506040513d602081101561345e57600080fd5b810190808051906020019092919050505093505b50505b60008060006134a4867f7355534400000000000000000000000000000000000000000000000000000000613c91565b9250925092506000806134b688612877565b915091506134cb83806134c65750815b614baf565b60008511613541576040517f08c379a00000000000000000000000000000000000000000000000000000000081526004018080602001828103825260128152602001807f4e6f206465627420746f20666f7267697665000000000000000000000000000081525060200191505060405180910390fd5b851561355d5761355a828661400390919063ffffffff16565b96505b600061356c898a8a898961558d565b905082613582828861400390919063ffffffff16565b116136265761358f6157c8565b73ffffffffffffffffffffffffffffffffffffffff1663974e9e7f8a6040518263ffffffff1660e01b8152600401808273ffffffffffffffffffffffffffffffffffffffff1673ffffffffffffffffffffffffffffffffffffffff168152602001915050600060405180830381600087803b15801561360d57600080fd5b505af1158015613621573d6000803e3d6000fd5b505050505b505050505050505050565b61363961552d565b73ffffffffffffffffffffffffffffffffffffffff16630487261783836040518363ffffffff1660e01b8152600401808373ffffffffffffffffffffffffffffffffffffffff1673ffffffffffffffffffffffffffffffffffffffff1681526020018273ffffffffffffffffffffffffffffffffffffffff1673ffffffffffffffffffffffffffffffffffffffff1681526020019250505060206040518083038186803b1580156136e957600080fd5b505afa1580156136fd573d6000803e3d6000fd5b505050506040513d602081101561371357600080fd5b8101908080519060200190929190505050613796576040517f08c379a000000000000000000000000000000000000000000000000000000000815260040180806020018281038252601d8152602001807f4e6f7420617070726f76656420746f20616374206f6e20626568616c6600000081525060200191505060405180910390fd5b5050565b60008173ffffffffffffffffffffffffffffffffffffffff1663dbd06c856040518163ffffffff1660e01b815260040160206040518083038186803b1580156137e257600080fd5b505afa1580156137f6573d6000803e3d6000fd5b505050506040513d602081101561380c57600080fd5b81019080805190602001909291905050509050600073ffffffffffffffffffffffffffffffffffffffff166005600083815260200190815260200160002060009054906101000a900473ffffffffffffffffffffffffffffffffffffffff1673ffffffffffffffffffffffffffffffffffffffff16146138f4576040517f08c379a000000000000000000000000000000000000000000000000000000000815260040180806020018281038252600c8152602001807f53796e746820657869737473000000000000000000000000000000000000000081525060200191505060405180910390fd5b6000801b600660008473ffffffffffffffffffffffffffffffffffffffff1673ffffffffffffffffffffffffffffffffffffffff16815260200190815260200160002054146139ab576040517f08c379a000000000000000000000000000000000000000000000000000000000815260040180806020018281038252601c8152602001807f53796e7468206164647265737320616c7265616479206578697374730000000081525060200191505060405180910390fd5b60048290806001815401808255809150509060018203906000526020600020016000909192909190916101000a81548173ffffffffffffffffffffffffffffffffffffffff021916908373ffffffffffffffffffffffffffffffffffffffff16021790555050816005600083815260200190815260200160002060006101000a81548173ffffffffffffffffffffffffffffffffffffffff021916908373ffffffffffffffffffffffffffffffffffffffff16021790555080600660008473ffffffffffffffffffffffffffffffffffffffff1673ffffffffffffffffffffffffffffffffffffffff168152602001908152602001600020819055507f0a2b6ebf143b3e9fcd67e17748ad315174746100c27228468b2c98c302c628848183604051808381526020018273ffffffffffffffffffffffffffffffffffffffff1673ffffffffffffffffffffffffffffffffffffffff1681526020019250505060405180910390a15050565b6000613b417f45786368616e676552617465730000000000000000000000000000000000000061539b565b905090565b60608082613b55576000613b58565b60015b60ff1660048054905001604051908082528060200260200182016040528015613b905781602001602082028038833980820191505090505b50905060008090505b600480549050811015613c42576006600060048381548110613bb757fe5b9060005260206000200160009054906101000a900473ffffffffffffffffffffffffffffffffffffffff1673ffffffffffffffffffffffffffffffffffffffff1673ffffffffffffffffffffffffffffffffffffffff16815260200190815260200160002054828281518110613c2957fe5b6020026020010181815250508080600101915050613b99565b508215613c88577f534e5800000000000000000000000000000000000000000000000000000000008160048054905081518110613c7b57fe5b6020026020010181815250505b80915050919050565b600080600080613c9f614a0e565b90506000808273ffffffffffffffffffffffffffffffffffffffff16638b3f8088896040518263ffffffff1660e01b8152600401808273ffffffffffffffffffffffffffffffffffffffff1673ffffffffffffffffffffffffffffffffffffffff168152602001915050604080518083038186803b158015613d2057600080fd5b505afa158015613d34573d6000803e3d6000fd5b505050506040513d6040811015613d4a57600080fd5b81019080805190602001909291908051906020019092919050505091509150613d7487600161408c565b80955081965050506000821415613d9a5760008585829250955095509550505050613efe565b6000613ecc83613ebe8673ffffffffffffffffffffffffffffffffffffffff166308d95cd5866040518263ffffffff1660e01b81526004018082815260200191505060206040518083038186803b158015613df457600080fd5b505afa158015613e08573d6000803e3d6000fd5b505050506040513d6020811015613e1e57600080fd5b81019080805190602001909291905050508773ffffffffffffffffffffffffffffffffffffffff1663463177126040518163ffffffff1660e01b815260040160206040518083038186803b158015613e7557600080fd5b505afa158015613e89573d6000803e3d6000fd5b505050506040513d6020811015613e9f57600080fd5b81019080805190602001909291905050506157f890919063ffffffff16565b61581490919063ffffffff16565b90506000613eeb82613edd89615830565b61581490919063ffffffff16565b9050613ef681615856565b975050505050505b9250925092565b6000613f0f6154fd565b73ffffffffffffffffffffffffffffffffffffffff166323257c2b7f53797374656d53657474696e67730000000000000000000000000000000000007f69737375616e6365526174696f000000000000000000000000000000000000006040518363ffffffff1660e01b8152600401808381526020018281526020019250505060206040518083038186803b158015613fa757600080fd5b505afa158015613fbb573d6000803e3d6000fd5b505050506040513d6020811015613fd157600080fd5b8101908080519060200190929190505050905090565b6000613ffb8383601260ff16600a0a6158a5565b905092915050565b60008282111561407b576040517f08c379a000000000000000000000000000000000000000000000000000000000815260040180806020018281038252601e8152602001807f536166654d6174683a207375627472616374696f6e206f766572666c6f77000081525060200191505060405180910390fd5b600082840390508091505092915050565b600080600080600061409c612a21565b73ffffffffffffffffffffffffffffffffffffffff16633a900a2e6040518163ffffffff1660e01b815260040160806040518083038186803b1580156140e157600080fd5b505afa1580156140f5573d6000803e3d6000fd5b505050506040513d608081101561410b57600080fd5b810190808051906020019092919080519060200190929190805190602001909291908051906020019092919050505093509350509250818061414a5750805b93506000614156613b16565b90508661443157600080614168615900565b73ffffffffffffffffffffffffffffffffffffffff16631e33fc6b6040518163ffffffff1660e01b8152600401604080518083038186803b1580156141ac57600080fd5b505afa1580156141c0573d6000803e3d6000fd5b505050506040513d60408110156141d657600080fd5b81019080805190602001909291908051906020019092919050505091509150614208828761593090919063ffffffff16565b955086806142135750805b96506142af6142206159b8565b73ffffffffffffffffffffffffffffffffffffffff1663ee5f3f5c6040518163ffffffff1660e01b815260040160206040518083038186803b15801561426557600080fd5b505afa158015614279573d6000803e3d6000fd5b505050506040513d602081101561428f57600080fd5b81019080805190602001909291905050508761593090919063ffffffff16565b95506000808473ffffffffffffffffffffffffffffffffffffffff16630c71cd237f73455448000000000000000000000000000000000000000000000000000000006040518263ffffffff1660e01b815260040180828152602001915050604080518083038186803b15801561432457600080fd5b505afa158015614338573d6000803e3d6000fd5b505050506040513d604081101561434e57600080fd5b8101908080519060200190929190805190602001909291905050509150915060006144098361437b6159e8565b73ffffffffffffffffffffffffffffffffffffffff1663ee5f3f5c6040518163ffffffff1660e01b815260040160206040518083038186803b1580156143c057600080fd5b505afa1580156143d4573d6000803e3d6000fd5b505050506040513d60208110156143ea57600080fd5b8101908080519060200190929190505050615a1890919063ffffffff16565b905061441e818a61593090919063ffffffff16565b985089806144295750815b995050505050505b7f7355534400000000000000000000000000000000000000000000000000000000881415614468578385955095505050505061452b565b6000808273ffffffffffffffffffffffffffffffffffffffff16630c71cd238b6040518263ffffffff1660e01b815260040180828152602001915050604080518083038186803b1580156144bb57600080fd5b505afa1580156144cf573d6000803e3d6000fd5b505050506040513d60408110156144e557600080fd5b810190808051906020019092919080519060200190929190505050915091506145178287613fe790919063ffffffff16565b87806145205750815b975097505050505050505b9250929050565b606060016040519080825280602002602001820160405280156145645781602001602082028038833980820191505090505b5090507f466c657869626c6553746f7261676500000000000000000000000000000000008160008151811061459557fe5b60200260200101818152505090565b606081518351016040519080825280602002602001820160405280156145d95781602001602082028038833980820191505090505b50905060008090505b8351811015614624578381815181106145f757fe5b602002602001015182828151811061460b57fe5b60200260200101818152505080806001019150506145e2565b5060008090505b82518110156146705782818151811061464057fe5b602002602001015182828651018151811061465757fe5b602002602001018181525050808060010191505061462b565b5092915050565b6000806000614685846146f5565b90506000806146b4867f534e580000000000000000000000000000000000000000000000000000000000613c91565b925050915060008314156146d457600081819150945094505050506146f0565b6146e78383613fe790919063ffffffff16565b81945094505050505b915091565b600080614700614b7f565b73ffffffffffffffffffffffffffffffffffffffff166370a08231846040518263ffffffff1660e01b8152600401808273ffffffffffffffffffffffffffffffffffffffff1673ffffffffffffffffffffffffffffffffffffffff16815260200191505060206040518083038186803b15801561477c57600080fd5b505afa158015614790573d6000803e3d6000fd5b505050506040513d60208110156147a657600080fd5b81019080805190602001909291905050509050600073ffffffffffffffffffffffffffffffffffffffff166147d9615a34565b73ffffffffffffffffffffffffffffffffffffffff16146148c8576148c56147ff615a34565b73ffffffffffffffffffffffffffffffffffffffff166370a08231856040518263ffffffff1660e01b8152600401808273ffffffffffffffffffffffffffffffffffffffff1673ffffffffffffffffffffffffffffffffffffffff16815260200191505060206040518083038186803b15801561487b57600080fd5b505afa15801561488f573d6000803e3d6000fd5b505050506040513d60208110156148a557600080fd5b81019080805190602001909291905050508261593090919063ffffffff16565b90505b600073ffffffffffffffffffffffffffffffffffffffff166148e8615a64565b73ffffffffffffffffffffffffffffffffffffffff16146149d7576149d461490e615a64565b73ffffffffffffffffffffffffffffffffffffffff166370a08231856040518263ffffffff1660e01b8152600401808273ffffffffffffffffffffffffffffffffffffffff1673ffffffffffffffffffffffffffffffffffffffff16815260200191505060206040518083038186803b15801561498a57600080fd5b505afa15801561499e573d6000803e3d6000fd5b505050506040513d60208110156149b457600080fd5b81019080805190602001909291905050508261593090919063ffffffff16565b90505b80915050919050565b6000614a046149ed612f9f565b6149f684614a3e565b61593090919063ffffffff16565b4210159050919050565b6000614a397f53796e746865746978537461746500000000000000000000000000000000000061539b565b905090565b6000614a486154fd565b73ffffffffffffffffffffffffffffffffffffffff166323257c2b7f49737375657200000000000000000000000000000000000000000000000000007f6c61737449737375654576656e7400000000000000000000000000000000000085604051602001808381526020018273ffffffffffffffffffffffffffffffffffffffff1673ffffffffffffffffffffffffffffffffffffffff1660601b815260140192505050604051602081830303815290604052805190602001206040518363ffffffff1660e01b8152600401808381526020018281526020019250505060206040518083038186803b158015614b3d57600080fd5b505afa158015614b51573d6000803e3d6000fd5b505050506040513d6020811015614b6757600080fd5b81019080805190602001909291905050509050919050565b6000614baa7f53796e746865746978000000000000000000000000000000000000000000000061539b565b905090565b8015614c23576040517f08c379a000000000000000000000000000000000000000000000000000000000815260040180806020018281038252601e8152602001807f412073796e7468206f7220534e58207261746520697320696e76616c6964000081525060200191505060405180910390fd5b50565b6000614c30614a0e565b90506000614c47838661593090919063ffffffff16565b90506000614c5e82876157f890919063ffffffff16565b90506000614cf38273__$b8d33eeb36ac0d1e81cd70156e0043e778$__63d5e5e6e66040518163ffffffff1660e01b815260040160206040518083038186803b158015614caa57600080fd5b505af4158015614cbe573d6000803e3d6000fd5b505050506040513d6020811015614cd457600080fd5b810190808051906020019092919050505061400390919063ffffffff16565b90506000861115614d2a57614d2383614d15888a61593090919063ffffffff16565b6157f890919063ffffffff16565b9150614d8b565b8373ffffffffffffffffffffffffffffffffffffffff16631bfba5956040518163ffffffff1660e01b8152600401600060405180830381600087803b158015614d7257600080fd5b505af1158015614d86573d6000803e3d6000fd5b505050505b8373ffffffffffffffffffffffffffffffffffffffff1663a764eb4589846040518363ffffffff1660e01b8152600401808373ffffffffffffffffffffffffffffffffffffffff1673ffffffffffffffffffffffffffffffffffffffff16815260200182815260200192505050600060405180830381600087803b158015614e1257600080fd5b505af1158015614e26573d6000803e3d6000fd5b5050505060008473ffffffffffffffffffffffffffffffffffffffff1663cd92eba96040518163ffffffff1660e01b815260040160206040518083038186803b158015614e7257600080fd5b505afa158015614e86573d6000803e3d6000fd5b505050506040513d6020811015614e9c57600080fd5b81019080805190602001909291905050501115614fb5578373ffffffffffffffffffffffffffffffffffffffff16633d31e97b614f62838773ffffffffffffffffffffffffffffffffffffffff1663463177126040518163ffffffff1660e01b815260040160206040518083038186803b158015614f1957600080fd5b505afa158015614f2d573d6000803e3d6000fd5b505050506040513d6020811015614f4357600080fd5b810190808051906020019092919050505061581490919063ffffffff16565b6040518263ffffffff1660e01b815260040180828152602001915050600060405180830381600087803b158015614f9857600080fd5b505af1158015614fac573d6000803e3d6000fd5b5050505061509f565b8373ffffffffffffffffffffffffffffffffffffffff16633d31e97b73__$b8d33eeb36ac0d1e81cd70156e0043e778$__63d5e5e6e66040518163ffffffff1660e01b815260040160206040518083038186803b15801561501557600080fd5b505af4158015615029573d6000803e3d6000fd5b505050506040513d602081101561503f57600080fd5b81019080805190602001909291905050506040518263ffffffff1660e01b815260040180828152602001915050600060405180830381600087803b15801561508657600080fd5b505af115801561509a573d6000803e3d6000fd5b505050505b5050505050505050565b6150b16154fd565b73ffffffffffffffffffffffffffffffffffffffff16631d5b277f7f49737375657200000000000000000000000000000000000000000000000000007f6c61737449737375654576656e7400000000000000000000000000000000000084604051602001808381526020018273ffffffffffffffffffffffffffffffffffffffff1673ffffffffffffffffffffffffffffffffffffffff1660601b81526014019250505060405160208183030381529060405280519060200120426040518463ffffffff1660e01b8152600401808481526020018381526020018281526020019350505050600060405180830381600087803b1580156151b057600080fd5b505af11580156151c4573d6000803e3d6000fd5b5050505050565b6000806151d6614a0e565b73ffffffffffffffffffffffffffffffffffffffff16638b3f8088846040518263ffffffff1660e01b8152600401808273ffffffffffffffffffffffffffffffffffffffff1673ffffffffffffffffffffffffffffffffffffffff168152602001915050604080518083038186803b15801561525157600080fd5b505afa158015615265573d6000803e3d6000fd5b505050506040513d604081101561527b57600080fd5b81019080805190602001909291908051906020019092919050505080925081935050506152a6615a94565b73ffffffffffffffffffffffffffffffffffffffff1663866452748484846040518463ffffffff1660e01b8152600401808473ffffffffffffffffffffffffffffffffffffffff1673ffffffffffffffffffffffffffffffffffffffff1681526020018381526020018281526020019350505050600060405180830381600087803b15801561533457600080fd5b505af1158015615348573d6000803e3d6000fd5b50505050505050565b60006153668284615a1890919063ffffffff16565b905092915050565b6000601260ff16600a0a61538b8385615ac490919063ffffffff16565b8161539257fe5b04905092915050565b6000806003600084815260200190815260200160002060009054906101000a900473ffffffffffffffffffffffffffffffffffffffff169050600073ffffffffffffffffffffffffffffffffffffffff168173ffffffffffffffffffffffffffffffffffffffff1614158360405160200180807f4d697373696e6720616464726573733a20000000000000000000000000000000815250601101828152602001915050604051602081830303815290604052906154f3576040517f08c379a00000000000000000000000000000000000000000000000000000000081526004018080602001828103825283818151815260200191508051906020019080838360005b838110156154b857808201518184015260208101905061549d565b50505050905090810190601f1680156154e55780820380516001836020036101000a031916815260200191505b509250505060405180910390fd5b5080915050919050565b60006155287f466c657869626c6553746f72616765000000000000000000000000000000000061539b565b905090565b60006155587f44656c6567617465417070726f76616c7300000000000000000000000000000061539b565b905090565b60006155887f45786368616e676572000000000000000000000000000000000000000000000061539b565b905090565b600083831061559c578361559e565b825b90506155ac86828585615b4a565b600560007f7355534400000000000000000000000000000000000000000000000000000000815260200190815260200160002060009054906101000a900473ffffffffffffffffffffffffffffffffffffffff1673ffffffffffffffffffffffffffffffffffffffff16639dc29fac86836040518363ffffffff1660e01b8152600401808373ffffffffffffffffffffffffffffffffffffffff1673ffffffffffffffffffffffffffffffffffffffff16815260200182815260200192505050600060405180830381600087803b15801561568657600080fd5b505af115801561569a573d6000803e3d6000fd5b505050506156a6612a21565b73ffffffffffffffffffffffffffffffffffffffff1663d685743a7f735553440000000000000000000000000000000000000000000000000000000073__$b8d33eeb36ac0d1e81cd70156e0043e778$__63907af6c06040518163ffffffff1660e01b815260040160206040518083038186803b15801561572657600080fd5b505af415801561573a573d6000803e3d6000fd5b505050506040513d602081101561575057600080fd5b81019080805190602001909291905050506040518363ffffffff1660e01b81526004018083815260200182815260200192505050600060405180830381600087803b15801561579e57600080fd5b505af11580156157b2573d6000803e3d6000fd5b505050506157bf866151cb565b95945050505050565b60006157f37f4c69717569646174696f6e73000000000000000000000000000000000000000061539b565b905090565b600061580c8383601b60ff16600a0a6158a5565b905092915050565b60006158288383601b60ff16600a0a615f0a565b905092915050565b600061584f6012601b0360ff16600a0a83615ac490919063ffffffff16565b9050919050565b600080600a6012601b0360ff16600a0a8161586d57fe5b04838161587657fe5b0490506005600a828161588557fe5b061061589257600a810190505b600a818161589c57fe5b04915050919050565b6000806158d0846158c2600a860288615ac490919063ffffffff16565b615f6390919063ffffffff16565b90506005600a82816158de57fe5b06106158eb57600a810190505b600a81816158f557fe5b049150509392505050565b600061592b7f436f6c6c61746572616c4d616e6167657200000000000000000000000000000061539b565b905090565b6000808284019050838110156159ae576040517f08c379a000000000000000000000000000000000000000000000000000000000815260040180806020018281038252601b8152602001807f536166654d6174683a206164646974696f6e206f766572666c6f77000000000081525060200191505060405180910390fd5b8091505092915050565b60006159e37f4574686572436f6c6c61746572616c735553440000000000000000000000000061539b565b905090565b6000615a137f4574686572436f6c6c61746572616c000000000000000000000000000000000061539b565b905090565b6000615a2c8383601260ff16600a0a615f0a565b905092915050565b6000615a5f7f53796e746865746978457363726f77000000000000000000000000000000000061539b565b905090565b6000615a8f7f526577617264457363726f77563200000000000000000000000000000000000061539b565b905090565b6000615abf7f466565506f6f6c0000000000000000000000000000000000000000000000000061539b565b905090565b600080831415615ad75760009050615b44565b6000828402905082848281615ae857fe5b0414615b3f576040517f08c379a00000000000000000000000000000000000000000000000000000000081526004018080602001828103825260218152602001806160e36021913960400191505060405180910390fd5b809150505b92915050565b6000615b54614a0e565b90506000615b6b858461400390919063ffffffff16565b905060008090506000821115615c27576000615b9083886157f890919063ffffffff16565b9050615c238173__$b8d33eeb36ac0d1e81cd70156e0043e778$__63d5e5e6e66040518163ffffffff1660e01b815260040160206040518083038186803b158015615bda57600080fd5b505af4158015615bee573d6000803e3d6000fd5b505050506040513d6020811015615c0457600080fd5b810190808051906020019092919050505061593090919063ffffffff16565b9150505b84861415615d34578273ffffffffffffffffffffffffffffffffffffffff1663a764eb458860006040518363ffffffff1660e01b8152600401808373ffffffffffffffffffffffffffffffffffffffff1673ffffffffffffffffffffffffffffffffffffffff16815260200182815260200192505050600060405180830381600087803b158015615cb757600080fd5b505af1158015615ccb573d6000803e3d6000fd5b505050508273ffffffffffffffffffffffffffffffffffffffff1663ba08f2996040518163ffffffff1660e01b8152600401600060405180830381600087803b158015615d1757600080fd5b505af1158015615d2b573d6000803e3d6000fd5b50505050615e04565b6000615d49878761400390919063ffffffff16565b90506000615d6084836157f890919063ffffffff16565b90508473ffffffffffffffffffffffffffffffffffffffff1663a764eb458a836040518363ffffffff1660e01b8152600401808373ffffffffffffffffffffffffffffffffffffffff1673ffffffffffffffffffffffffffffffffffffffff16815260200182815260200192505050600060405180830381600087803b158015615de957600080fd5b505af1158015615dfd573d6000803e3d6000fd5b5050505050505b8273ffffffffffffffffffffffffffffffffffffffff16633d31e97b615eb3838673ffffffffffffffffffffffffffffffffffffffff1663463177126040518163ffffffff1660e01b815260040160206040518083038186803b158015615e6a57600080fd5b505afa158015615e7e573d6000803e3d6000fd5b505050506040513d6020811015615e9457600080fd5b810190808051906020019092919050505061581490919063ffffffff16565b6040518263ffffffff1660e01b815260040180828152602001915050600060405180830381600087803b158015615ee957600080fd5b505af1158015615efd573d6000803e3d6000fd5b5050505050505050505050565b600080600a8381615f1757fe5b04615f2b8587615ac490919063ffffffff16565b81615f3257fe5b0490506005600a8281615f4157fe5b0610615f4e57600a810190505b600a8181615f5857fe5b049150509392505050565b6000808211615fda576040517f08c379a000000000000000000000000000000000000000000000000000000000815260040180806020018281038252601a8152602001807f536166654d6174683a206469766973696f6e206279207a65726f00000000000081525060200191505060405180910390fd5b6000828481615fe557fe5b0490508091505092915050565b81548183558181111561601957818360005260206000209182019101616018919061601e565b5b505050565b61604091905b8082111561603c576000816000905550600101616024565b5090565b9056fe596f75206d757374206265206e6f6d696e61746564206265666f726520796f752063616e20616363657074206f776e6572736869704973737565723a204f6e6c79207468652073796e74686574697820636f6e74726163742063616e20706572666f726d207468697320616374696f6e4f6e6c792074686520636f6e7472616374206f776e6572206d617920706572666f726d207468697320616374696f6e536166654d6174683a206d756c7469706c69636174696f6e206f766572666c6f77a265627a7a72315820a21d66a2568f4e8c3d9661fb5125f10bee7fe2287ce8acaef3d8d4582d1893a364736f6c63430005100032",
  "linkReferences": {
    "contracts/SafeDecimalMath.sol": {
      "SafeDecimalMath": [
        {
          "length": 20,
          "start": 10686
        },
        {
          "length": 20,
          "start": 20115
        },
        {
          "length": 20,
          "start": 20990
        },
        {
          "length": 20,
          "start": 22799
        },
        {
          "length": 20,
          "start": 24003
        }
      ]
    }
  },
  "deployedLinkReferences": {
    "contracts/SafeDecimalMath.sol": {
      "SafeDecimalMath": [
        {
          "length": 20,
          "start": 10131
        },
        {
          "length": 20,
          "start": 19560
        },
        {
          "length": 20,
          "start": 20435
        },
        {
          "length": 20,
          "start": 22244
        },
        {
          "length": 20,
          "start": 23448
        }
      ]
    }
  }
}