{
  "_format": "hh-sol-artifact-1",
  "contractName": "EmptyEtherCollateral",
  "sourceName": "contracts/EmptyEtherCollateral.sol",
  "abi": [
    {
      "constant": true,
      "inputs": [],
      "name": "totalIssuedSynths",
      "outputs": [
        {
          "internalType": "uint256",
          "name": "",
          "type": "uint256"
        }
      ],
      "payable": false,
      "stateMutability": "pure",
      "type": "function"
    }
  ],
  "bytecode": "0x6080604052348015600f57600080fd5b5060868061001e6000396000f3fe6080604052348015600f57600080fd5b506004361060285760003560e01c8063ee5f3f5c14602d575b600080fd5b60336049565b6040518082815260200191505060405180910390f35b60008090509056fea265627a7a72315820defc0f9c2a5f5679102cb8220a2dfcaf24e36582e9c9fc15626432c9104f392a64736f6c63430005100032",
  "linkReferences": {},
  "deployedLinkReferences": {}
}