{
  "_format": "hh-sol-artifact-1",
  "contractName": "Exchanger",
  "sourceName": "contracts/Exchanger.sol",
  "abi": [
    {
      "inputs": [
        {
          "internalType": "address",
          "name": "_owner",
          "type": "address"
        },
        {
          "internalType": "address",
          "name": "_resolver",
          "type": "address"
        }
      ],
      "payable": false,
      "stateMutability": "nonpayable",
      "type": "constructor"
    },
    {
      "anonymous": false,
      "inputs": [
        {
          "indexed": false,
          "internalType": "bytes32",
          "name": "name",
          "type": "bytes32"
        },
        {
          "indexed": false,
          "internalType": "address",
          "name": "destination",
          "type": "address"
        }
      ],
      "name": "CacheUpdated",
      "type": "event"
    },
    {
      "anonymous": false,
      "inputs": [
        {
          "indexed": true,
          "internalType": "address",
          "name": "account",
          "type": "address"
        },
        {
          "indexed": false,
          "internalType": "bytes32",
          "name": "src",
          "type": "bytes32"
        },
        {
          "indexed": false,
          "internalType": "uint256",
          "name": "amount",
          "type": "uint256"
        },
        {
          "indexed": false,
          "internalType": "bytes32",
          "name": "dest",
          "type": "bytes32"
        },
        {
          "indexed": false,
          "internalType": "uint256",
          "name": "amountReceived",
          "type": "uint256"
        },
        {
          "indexed": false,
          "internalType": "uint256",
          "name": "exchangeFeeRate",
          "type": "uint256"
        },
        {
          "indexed": false,
          "internalType": "uint256",
          "name": "roundIdForSrc",
          "type": "uint256"
        },
        {
          "indexed": false,
          "internalType": "uint256",
          "name": "roundIdForDest",
          "type": "uint256"
        }
      ],
      "name": "ExchangeEntryAppended",
      "type": "event"
    },
    {
      "anonymous": false,
      "inputs": [
        {
          "indexed": true,
          "internalType": "address",
          "name": "from",
          "type": "address"
        },
        {
          "indexed": false,
          "internalType": "bytes32",
          "name": "src",
          "type": "bytes32"
        },
        {
          "indexed": false,
          "internalType": "uint256",
          "name": "amount",
          "type": "uint256"
        },
        {
          "indexed": false,
          "internalType": "bytes32",
          "name": "dest",
          "type": "bytes32"
        },
        {
          "indexed": false,
          "internalType": "uint256",
          "name": "reclaim",
          "type": "uint256"
        },
        {
          "indexed": false,
          "internalType": "uint256",
          "name": "rebate",
          "type": "uint256"
        },
        {
          "indexed": false,
          "internalType": "uint256",
          "name": "srcRoundIdAtPeriodEnd",
          "type": "uint256"
        },
        {
          "indexed": false,
          "internalType": "uint256",
          "name": "destRoundIdAtPeriodEnd",
          "type": "uint256"
        },
        {
          "indexed": false,
          "internalType": "uint256",
          "name": "exchangeTimestamp",
          "type": "uint256"
        }
      ],
      "name": "ExchangeEntrySettled",
      "type": "event"
    },
    {
      "anonymous": false,
      "inputs": [
        {
          "indexed": false,
          "internalType": "address",
          "name": "oldOwner",
          "type": "address"
        },
        {
          "indexed": false,
          "internalType": "address",
          "name": "newOwner",
          "type": "address"
        }
      ],
      "name": "OwnerChanged",
      "type": "event"
    },
    {
      "anonymous": false,
      "inputs": [
        {
          "indexed": false,
          "internalType": "address",
          "name": "newOwner",
          "type": "address"
        }
      ],
      "name": "OwnerNominated",
      "type": "event"
    },
    {
      "constant": true,
      "inputs": [],
      "name": "CIRCUIT_BREAKER_SUSPENSION_REASON",
      "outputs": [
        {
          "internalType": "uint256",
          "name": "",
          "type": "uint256"
        }
      ],
      "payable": false,
      "stateMutability": "view",
      "type": "function"
    },
    {
      "constant": false,
      "inputs": [],
      "name": "acceptOwnership",
      "outputs": [],
      "payable": false,
      "stateMutability": "nonpayable",
      "type": "function"
    },
    {
      "constant": true,
      "inputs": [
        {
          "internalType": "address",
          "name": "from",
          "type": "address"
        },
        {
          "internalType": "bytes32",
          "name": "currencyKey",
          "type": "bytes32"
        },
        {
          "internalType": "uint256",
          "name": "amount",
          "type": "uint256"
        },
        {
          "internalType": "uint256",
          "name": "refunded",
          "type": "uint256"
        }
      ],
      "name": "calculateAmountAfterSettlement",
      "outputs": [
        {
          "internalType": "uint256",
          "name": "amountAfterSettlement",
          "type": "uint256"
        }
      ],
      "payable": false,
      "stateMutability": "view",
      "type": "function"
    },
    {
      "constant": false,
      "inputs": [
        {
          "internalType": "address",
          "name": "from",
          "type": "address"
        },
        {
          "internalType": "bytes32",
          "name": "sourceCurrencyKey",
          "type": "bytes32"
        },
        {
          "internalType": "uint256",
          "name": "sourceAmount",
          "type": "uint256"
        },
        {
          "internalType": "bytes32",
          "name": "destinationCurrencyKey",
          "type": "bytes32"
        },
        {
          "internalType": "address",
          "name": "destinationAddress",
          "type": "address"
        }
      ],
      "name": "exchange",
      "outputs": [
        {
          "internalType": "uint256",
          "name": "amountReceived",
          "type": "uint256"
        }
      ],
      "payable": false,
      "stateMutability": "nonpayable",
      "type": "function"
    },
    {
      "constant": false,
      "inputs": [
        {
          "internalType": "address",
          "name": "exchangeForAddress",
          "type": "address"
        },
        {
          "internalType": "address",
          "name": "from",
          "type": "address"
        },
        {
          "internalType": "bytes32",
          "name": "sourceCurrencyKey",
          "type": "bytes32"
        },
        {
          "internalType": "uint256",
          "name": "sourceAmount",
          "type": "uint256"
        },
        {
          "internalType": "bytes32",
          "name": "destinationCurrencyKey",
          "type": "bytes32"
        }
      ],
      "name": "exchangeOnBehalf",
      "outputs": [
        {
          "internalType": "uint256",
          "name": "amountReceived",
          "type": "uint256"
        }
      ],
      "payable": false,
      "stateMutability": "nonpayable",
      "type": "function"
    },
    {
      "constant": false,
      "inputs": [
        {
          "internalType": "address",
          "name": "exchangeForAddress",
          "type": "address"
        },
        {
          "internalType": "address",
          "name": "from",
          "type": "address"
        },
        {
          "internalType": "bytes32",
          "name": "sourceCurrencyKey",
          "type": "bytes32"
        },
        {
          "internalType": "uint256",
          "name": "sourceAmount",
          "type": "uint256"
        },
        {
          "internalType": "bytes32",
          "name": "destinationCurrencyKey",
          "type": "bytes32"
        },
        {
          "internalType": "address",
          "name": "originator",
          "type": "address"
        },
        {
          "internalType": "bytes32",
          "name": "trackingCode",
          "type": "bytes32"
        }
      ],
      "name": "exchangeOnBehalfWithTracking",
      "outputs": [
        {
          "internalType": "uint256",
          "name": "amountReceived",
          "type": "uint256"
        }
      ],
      "payable": false,
      "stateMutability": "nonpayable",
      "type": "function"
    },
    {
      "constant": false,
      "inputs": [
        {
          "internalType": "address",
          "name": "from",
          "type": "address"
        },
        {
          "internalType": "bytes32",
          "name": "sourceCurrencyKey",
          "type": "bytes32"
        },
        {
          "internalType": "uint256",
          "name": "sourceAmount",
          "type": "uint256"
        },
        {
          "internalType": "bytes32",
          "name": "destinationCurrencyKey",
          "type": "bytes32"
        },
        {
          "internalType": "address",
          "name": "destinationAddress",
          "type": "address"
        },
        {
          "internalType": "address",
          "name": "originator",
          "type": "address"
        },
        {
          "internalType": "bytes32",
          "name": "trackingCode",
          "type": "bytes32"
        }
      ],
      "name": "exchangeWithTracking",
      "outputs": [
        {
          "internalType": "uint256",
          "name": "amountReceived",
          "type": "uint256"
        }
      ],
      "payable": false,
      "stateMutability": "nonpayable",
      "type": "function"
    },
    {
      "constant": false,
      "inputs": [
        {
          "internalType": "address",
          "name": "from",
          "type": "address"
        },
        {
          "internalType": "bytes32",
          "name": "sourceCurrencyKey",
          "type": "bytes32"
        },
        {
          "internalType": "uint256",
          "name": "sourceAmount",
          "type": "uint256"
        },
        {
          "internalType": "bytes32",
          "name": "destinationCurrencyKey",
          "type": "bytes32"
        },
        {
          "internalType": "address",
          "name": "destinationAddress",
          "type": "address"
        },
        {
          "internalType": "bytes32",
          "name": "trackingCode",
          "type": "bytes32"
        }
      ],
      "name": "exchangeWithVirtual",
      "outputs": [
        {
          "internalType": "uint256",
          "name": "amountReceived",
          "type": "uint256"
        },
        {
          "internalType": "contract IVirtualSynth",
          "name": "vSynth",
          "type": "address"
        }
      ],
      "payable": false,
      "stateMutability": "nonpayable",
      "type": "function"
    },
    {
      "constant": true,
      "inputs": [
        {
          "internalType": "bytes32",
          "name": "sourceCurrencyKey",
          "type": "bytes32"
        },
        {
          "internalType": "bytes32",
          "name": "destinationCurrencyKey",
          "type": "bytes32"
        }
      ],
      "name": "feeRateForExchange",
      "outputs": [
        {
          "internalType": "uint256",
          "name": "exchangeFeeRate",
          "type": "uint256"
        }
      ],
      "payable": false,
      "stateMutability": "view",
      "type": "function"
    },
    {
      "constant": true,
      "inputs": [
        {
          "internalType": "uint256",
          "name": "sourceAmount",
          "type": "uint256"
        },
        {
          "internalType": "bytes32",
          "name": "sourceCurrencyKey",
          "type": "bytes32"
        },
        {
          "internalType": "bytes32",
          "name": "destinationCurrencyKey",
          "type": "bytes32"
        }
      ],
      "name": "getAmountsForExchange",
      "outputs": [
        {
          "internalType": "uint256",
          "name": "amountReceived",
          "type": "uint256"
        },
        {
          "internalType": "uint256",
          "name": "fee",
          "type": "uint256"
        },
        {
          "internalType": "uint256",
          "name": "exchangeFeeRate",
          "type": "uint256"
        }
      ],
      "payable": false,
      "stateMutability": "view",
      "type": "function"
    },
    {
      "constant": true,
      "inputs": [
        {
          "internalType": "address",
          "name": "account",
          "type": "address"
        },
        {
          "internalType": "bytes32",
          "name": "currencyKey",
          "type": "bytes32"
        }
      ],
      "name": "hasWaitingPeriodOrSettlementOwing",
      "outputs": [
        {
          "internalType": "bool",
          "name": "",
          "type": "bool"
        }
      ],
      "payable": false,
      "stateMutability": "view",
      "type": "function"
    },
    {
      "constant": true,
      "inputs": [],
      "name": "isResolverCached",
      "outputs": [
        {
          "internalType": "bool",
          "name": "",
          "type": "bool"
        }
      ],
      "payable": false,
      "stateMutability": "view",
      "type": "function"
    },
    {
      "constant": true,
      "inputs": [
        {
          "internalType": "bytes32",
          "name": "currencyKey",
          "type": "bytes32"
        }
      ],
      "name": "isSynthRateInvalid",
      "outputs": [
        {
          "internalType": "bool",
          "name": "",
          "type": "bool"
        }
      ],
      "payable": false,
      "stateMutability": "view",
      "type": "function"
    },
    {
      "constant": true,
      "inputs": [
        {
          "internalType": "bytes32",
          "name": "",
          "type": "bytes32"
        }
      ],
      "name": "lastExchangeRate",
      "outputs": [
        {
          "internalType": "uint256",
          "name": "",
          "type": "uint256"
        }
      ],
      "payable": false,
      "stateMutability": "view",
      "type": "function"
    },
    {
      "constant": true,
      "inputs": [
        {
          "internalType": "address",
          "name": "account",
          "type": "address"
        },
        {
          "internalType": "bytes32",
          "name": "currencyKey",
          "type": "bytes32"
        }
      ],
      "name": "maxSecsLeftInWaitingPeriod",
      "outputs": [
        {
          "internalType": "uint256",
          "name": "",
          "type": "uint256"
        }
      ],
      "payable": false,
      "stateMutability": "view",
      "type": "function"
    },
    {
      "constant": false,
      "inputs": [
        {
          "internalType": "address",
          "name": "_owner",
          "type": "address"
        }
      ],
      "name": "nominateNewOwner",
      "outputs": [],
      "payable": false,
      "stateMutability": "nonpayable",
      "type": "function"
    },
    {
      "constant": true,
      "inputs": [],
      "name": "nominatedOwner",
      "outputs": [
        {
          "internalType": "address",
          "name": "",
          "type": "address"
        }
      ],
      "payable": false,
      "stateMutability": "view",
      "type": "function"
    },
    {
      "constant": true,
      "inputs": [],
      "name": "owner",
      "outputs": [
        {
          "internalType": "address",
          "name": "",
          "type": "address"
        }
      ],
      "payable": false,
      "stateMutability": "view",
      "type": "function"
    },
    {
      "constant": true,
      "inputs": [],
      "name": "priceDeviationThresholdFactor",
      "outputs": [
        {
          "internalType": "uint256",
          "name": "",
          "type": "uint256"
        }
      ],
      "payable": false,
      "stateMutability": "view",
      "type": "function"
    },
    {
      "constant": false,
      "inputs": [],
      "name": "rebuildCache",
      "outputs": [],
      "payable": false,
      "stateMutability": "nonpayable",
      "type": "function"
    },
    {
      "constant": true,
      "inputs": [],
      "name": "resolver",
      "outputs": [
        {
          "internalType": "contract AddressResolver",
          "name": "",
          "type": "address"
        }
      ],
      "payable": false,
      "stateMutability": "view",
      "type": "function"
    },
    {
      "constant": true,
      "inputs": [],
      "name": "resolverAddressesRequired",
      "outputs": [
        {
          "internalType": "bytes32[]",
          "name": "addresses",
          "type": "bytes32[]"
        }
      ],
      "payable": false,
      "stateMutability": "view",
      "type": "function"
    },
    {
      "constant": false,
      "inputs": [
        {
          "internalType": "bytes32",
          "name": "currencyKey",
          "type": "bytes32"
        },
        {
          "internalType": "uint256",
          "name": "rate",
          "type": "uint256"
        }
      ],
      "name": "setLastExchangeRateForSynth",
      "outputs": [],
      "payable": false,
      "stateMutability": "nonpayable",
      "type": "function"
    },
    {
      "constant": false,
      "inputs": [
        {
          "internalType": "address",
          "name": "from",
          "type": "address"
        },
        {
          "internalType": "bytes32",
          "name": "currencyKey",
          "type": "bytes32"
        }
      ],
      "name": "settle",
      "outputs": [
        {
          "internalType": "uint256",
          "name": "reclaimed",
          "type": "uint256"
        },
        {
          "internalType": "uint256",
          "name": "refunded",
          "type": "uint256"
        },
        {
          "internalType": "uint256",
          "name": "numEntriesSettled",
          "type": "uint256"
        }
      ],
      "payable": false,
      "stateMutability": "nonpayable",
      "type": "function"
    },
    {
      "constant": true,
      "inputs": [
        {
          "internalType": "address",
          "name": "account",
          "type": "address"
        },
        {
          "internalType": "bytes32",
          "name": "currencyKey",
          "type": "bytes32"
        }
      ],
      "name": "settlementOwing",
      "outputs": [
        {
          "internalType": "uint256",
          "name": "reclaimAmount",
          "type": "uint256"
        },
        {
          "internalType": "uint256",
          "name": "rebateAmount",
          "type": "uint256"
        },
        {
          "internalType": "uint256",
          "name": "numEntries",
          "type": "uint256"
        }
      ],
      "payable": false,
      "stateMutability": "view",
      "type": "function"
    },
    {
      "constant": false,
      "inputs": [
        {
          "internalType": "bytes32",
          "name": "currencyKey",
          "type": "bytes32"
        }
      ],
      "name": "suspendSynthWithInvalidRate",
      "outputs": [],
      "payable": false,
      "stateMutability": "nonpayable",
      "type": "function"
    },
    {
      "constant": true,
      "inputs": [],
      "name": "tradingRewardsEnabled",
      "outputs": [
        {
          "internalType": "bool",
          "name": "",
          "type": "bool"
        }
      ],
      "payable": false,
      "stateMutability": "view",
      "type": "function"
    },
    {
      "constant": true,
      "inputs": [],
      "name": "waitingPeriodSecs",
      "outputs": [
        {
          "internalType": "uint256",
          "name": "",
          "type": "uint256"
        }
      ],
      "payable": false,
      "stateMutability": "view",
      "type": "function"
    }
  ],
  "bytecode": "0x60806040523480156200001157600080fd5b506040516200611238038062006112833981810160405260408110156200003757600080fd5b810190808051906020019092919080519060200190929190505050808083600073ffffffffffffffffffffffffffffffffffffffff168173ffffffffffffffffffffffffffffffffffffffff161415620000f9576040517f08c379a00000000000000000000000000000000000000000000000000000000081526004018080602001828103825260198152602001807f4f776e657220616464726573732063616e6e6f7420626520300000000000000081525060200191505060405180910390fd5b806000806101000a81548173ffffffffffffffffffffffffffffffffffffffff021916908373ffffffffffffffffffffffffffffffffffffffff1602179055507fb532073b38c83145e3e5135377a08bf9aab55bc0fd7c1179cd4fb995d2a5159c600082604051808373ffffffffffffffffffffffffffffffffffffffff1673ffffffffffffffffffffffffffffffffffffffff1681526020018273ffffffffffffffffffffffffffffffffffffffff1673ffffffffffffffffffffffffffffffffffffffff1681526020019250505060405180910390a15080600260006101000a81548173ffffffffffffffffffffffffffffffffffffffff021916908373ffffffffffffffffffffffffffffffffffffffff16021790555050505050615eeb80620002276000396000f3fe608060405234801561001057600080fd5b50600436106101c45760003560e01c80636a1c4758116100f95780638da5cb5b11610097578063d6f32e0611610071578063d6f32e06146108da578063dfffca7614610940578063f399522414610a00578063f450aa3414610ad3576101c4565b80638da5cb5b14610836578063c193f0d814610880578063ce096940146108a2576101c4565b80637dd1a57a116100d35780637dd1a57a146106b757806386baa45c146106f957806389257117146107b9578063899ffef4146107d7576101c4565b80636a1c47581461060d57806374185360146106a357806379ba5097146106ad576101c4565b80631b16802c116101665780633fa70f45116101405780633fa70f45146104e95780634c268fc81461050757806353a47bb71461057d57806357af302c146105c7576101c4565b80631b16802c146104395780632af64bd3146104a9578063372a395a146104cb576101c4565b80630b9e31c9116101a25780630b9e31c91461030b5780631627540c1461033957806319d5c6651461037d5780631a5c6095146103ed576101c4565b806304f3bcec146101c9578063059c29ec146102135780630a1e187d14610275575b600080fd5b6101d1610b37565b604051808273ffffffffffffffffffffffffffffffffffffffff1673ffffffffffffffffffffffffffffffffffffffff16815260200191505060405180910390f35b61025f6004803603604081101561022957600080fd5b81019080803573ffffffffffffffffffffffffffffffffffffffff16906020019092919080359060200190929190505050610b5d565b6040518082815260200191505060405180910390f35b6102f5600480360360a081101561028b57600080fd5b81019080803573ffffffffffffffffffffffffffffffffffffffff169060200190929190803590602001909291908035906020019092919080359060200190929190803573ffffffffffffffffffffffffffffffffffffffff169060200190929190505050610c36565b6040518082815260200191505060405180910390f35b6103376004803603602081101561032157600080fd5b8101908080359060200190929190505050610dbb565b005b61037b6004803603602081101561034f57600080fd5b81019080803573ffffffffffffffffffffffffffffffffffffffff1690602001909291905050506110e1565b005b6103c96004803603604081101561039357600080fd5b81019080803573ffffffffffffffffffffffffffffffffffffffff16906020019092919080359060200190929190505050611190565b60405180848152602001838152602001828152602001935050505060405180910390f35b6104236004803603604081101561040357600080fd5b8101908080359060200190929190803590602001909291905050506111b3565b6040518082815260200191505060405180910390f35b6104856004803603604081101561044f57600080fd5b81019080803573ffffffffffffffffffffffffffffffffffffffff169060200190929190803590602001909291905050506111c7565b60405180848152602001838152602001828152602001935050505060405180910390f35b6104b1611255565b604051808215151515815260200191505060405180910390f35b6104d361142d565b6040518082815260200191505060405180910390f35b6104f161143c565b6040518082815260200191505060405180910390f35b6105676004803603608081101561051d57600080fd5b81019080803573ffffffffffffffffffffffffffffffffffffffff169060200190929190803590602001909291908035906020019092919080359060200190929190505050611441565b6040518082815260200191505060405180910390f35b6105856115c8565b604051808273ffffffffffffffffffffffffffffffffffffffff1673ffffffffffffffffffffffffffffffffffffffff16815260200191505060405180910390f35b6105f3600480360360208110156105dd57600080fd5b81019080803590602001909291905050506115ee565b604051808215151515815260200191505060405180910390f35b61068d600480360360a081101561062357600080fd5b81019080803573ffffffffffffffffffffffffffffffffffffffff169060200190929190803573ffffffffffffffffffffffffffffffffffffffff169060200190929190803590602001909291908035906020019092919080359060200190929190505050611693565b6040518082815260200191505060405180910390f35b6106ab61197d565b005b6106b5611be6565b005b6106e3600480360360208110156106cd57600080fd5b8101908080359060200190929190505050611e0c565b6040518082815260200191505060405180910390f35b6107a3600480360360e081101561070f57600080fd5b81019080803573ffffffffffffffffffffffffffffffffffffffff169060200190929190803590602001909291908035906020019092919080359060200190929190803573ffffffffffffffffffffffffffffffffffffffff169060200190929190803573ffffffffffffffffffffffffffffffffffffffff16906020019092919080359060200190929190505050611e24565b6040518082815260200191505060405180910390f35b6107c1611fb6565b6040518082815260200191505060405180910390f35b6107df611fc5565b6040518080602001828103825283818151815260200191508051906020019060200280838360005b83811015610822578082015181840152602081019050610807565b505050509050019250505060405180910390f35b61083e612222565b604051808273ffffffffffffffffffffffffffffffffffffffff1673ffffffffffffffffffffffffffffffffffffffff16815260200191505060405180910390f35b610888612247565b604051808215151515815260200191505060405180910390f35b6108d8600480360360408110156108b857600080fd5b810190808035906020019092919080359060200190929190505050612256565b005b610926600480360360408110156108f057600080fd5b81019080803573ffffffffffffffffffffffffffffffffffffffff16906020019092919080359060200190929190505050612396565b604051808215151515815260200191505060405180910390f35b6109ea600480360360e081101561095657600080fd5b81019080803573ffffffffffffffffffffffffffffffffffffffff169060200190929190803573ffffffffffffffffffffffffffffffffffffffff169060200190929190803590602001909291908035906020019092919080359060200190929190803573ffffffffffffffffffffffffffffffffffffffff169060200190929190803590602001909291905050506123d0565b6040518082815260200191505060405180910390f35b610a8a600480360360c0811015610a1657600080fd5b81019080803573ffffffffffffffffffffffffffffffffffffffff169060200190929190803590602001909291908035906020019092919080359060200190929190803573ffffffffffffffffffffffffffffffffffffffff169060200190929190803590602001909291905050506126c7565b604051808381526020018273ffffffffffffffffffffffffffffffffffffffff1673ffffffffffffffffffffffffffffffffffffffff1681526020019250505060405180910390f35b610b1360048036036060811015610ae957600080fd5b81019080803590602001909291908035906020019092919080359060200190929190505050612869565b60405180848152602001838152602001828152602001935050505060405180910390f35b600260009054906101000a900473ffffffffffffffffffffffffffffffffffffffff1681565b6000610c2e610b6a612891565b73ffffffffffffffffffffffffffffffffffffffff1663f1406dc885856040518363ffffffff1660e01b8152600401808373ffffffffffffffffffffffffffffffffffffffff1673ffffffffffffffffffffffffffffffffffffffff1681526020018281526020019250505060206040518083038186803b158015610bee57600080fd5b505afa158015610c02573d6000803e3d6000fd5b505050506040513d6020811015610c1857600080fd5b81019080805190602001909291905050506128c1565b905092915050565b600080610c4161292c565b90508073ffffffffffffffffffffffffffffffffffffffff163373ffffffffffffffffffffffffffffffffffffffff161480610d3757506000801b8173ffffffffffffffffffffffffffffffffffffffff166316b2213f336040518263ffffffff1660e01b8152600401808273ffffffffffffffffffffffffffffffffffffffff1673ffffffffffffffffffffffffffffffffffffffff16815260200191505060206040518083038186803b158015610cf957600080fd5b505afa158015610d0d573d6000803e3d6000fd5b505050506040513d6020811015610d2357600080fd5b810190808051906020019092919050505014155b610d8c576040517f08c379a0000000000000000000000000000000000000000000000000000000008152600401808060200182810382526045815260200180615ddd6045913960600191505060405180910390fd5b6000610d9d8888888888600061295c565b508092508194505050610db08185612eaf565b505095945050505050565b610dc3612fac565b73ffffffffffffffffffffffffffffffffffffffff1663086dabd16040518163ffffffff1660e01b815260040160006040518083038186803b158015610e0857600080fd5b505afa158015610e1c573d6000803e3d6000fd5b50505050600073ffffffffffffffffffffffffffffffffffffffff16610e40612fdc565b73ffffffffffffffffffffffffffffffffffffffff166332608039836040518263ffffffff1660e01b81526004018082815260200191505060206040518083038186803b158015610e9057600080fd5b505afa158015610ea4573d6000803e3d6000fd5b505050506040513d6020811015610eba57600080fd5b810190808051906020019092919050505073ffffffffffffffffffffffffffffffffffffffff161415610f55576040517f08c379a000000000000000000000000000000000000000000000000000000000815260040180806020018281038252600d8152602001807f4e6f20737563682073796e74680000000000000000000000000000000000000081525060200191505060405180910390fd5b610ff181610f6161300c565b73ffffffffffffffffffffffffffffffffffffffff1663ac82f608846040518263ffffffff1660e01b81526004018082815260200191505060206040518083038186803b158015610fb157600080fd5b505afa158015610fc5573d6000803e3d6000fd5b505050506040513d6020811015610fdb57600080fd5b810190808051906020019092919050505061303c565b611063576040517f08c379a00000000000000000000000000000000000000000000000000000000081526004018080602001828103825260148152602001807f53796e74682070726963652069732076616c696400000000000000000000000081525060200191505060405180910390fd5b61106b612fac565b73ffffffffffffffffffffffffffffffffffffffff1663abc0bb6e8260416040518363ffffffff1660e01b81526004018083815260200182815260200192505050600060405180830381600087803b1580156110c657600080fd5b505af11580156110da573d6000803e3d6000fd5b5050505050565b6110e96132c8565b80600160006101000a81548173ffffffffffffffffffffffffffffffffffffffff021916908373ffffffffffffffffffffffffffffffffffffffff1602179055507f906a1c6bd7e3091ea86693dd029a831c19049ce77f1dce2ce0bab1cacbabce2281604051808273ffffffffffffffffffffffffffffffffffffffff1673ffffffffffffffffffffffffffffffffffffffff16815260200191505060405180910390a150565b600080600061119f858561336f565b508093508194508295505050509250925092565b60006111bf83836136a3565b905092915050565b60008060006111d4612fac565b73ffffffffffffffffffffffffffffffffffffffff166342a28e21856040518263ffffffff1660e01b81526004018082815260200191505060006040518083038186803b15801561122457600080fd5b505afa158015611238573d6000803e3d6000fd5b505050506112488585600161382b565b9250925092509250925092565b60006060611261611fc5565b905060008090505b815181101561142357600082828151811061128057fe5b602002602001015190506003600082815260200190815260200160002060009054906101000a900473ffffffffffffffffffffffffffffffffffffffff1673ffffffffffffffffffffffffffffffffffffffff16600260009054906101000a900473ffffffffffffffffffffffffffffffffffffffff1673ffffffffffffffffffffffffffffffffffffffff166321f8a721836040518263ffffffff1660e01b81526004018082815260200191505060206040518083038186803b15801561134757600080fd5b505afa15801561135b573d6000803e3d6000fd5b505050506040513d602081101561137157600080fd5b810190808051906020019092919050505073ffffffffffffffffffffffffffffffffffffffff161415806114045750600073ffffffffffffffffffffffffffffffffffffffff166003600083815260200190815260200160002060009054906101000a900473ffffffffffffffffffffffffffffffffffffffff1673ffffffffffffffffffffffffffffffffffffffff16145b15611415576000935050505061142a565b508080600101915050611269565b5060019150505b90565b6000611437613c1c565b905090565b604181565b60008290506000611450612fdc565b73ffffffffffffffffffffffffffffffffffffffff166332608039866040518263ffffffff1660e01b81526004018082815260200191505060206040518083038186803b1580156114a057600080fd5b505afa1580156114b4573d6000803e3d6000fd5b505050506040513d60208110156114ca57600080fd5b810190808051906020019092919050505073ffffffffffffffffffffffffffffffffffffffff166370a08231876040518263ffffffff1660e01b8152600401808273ffffffffffffffffffffffffffffffffffffffff1673ffffffffffffffffffffffffffffffffffffffff16815260200191505060206040518083038186803b15801561155757600080fd5b505afa15801561156b573d6000803e3d6000fd5b505050506040513d602081101561158157600080fd5b81019080805190602001909291905050509050808211156115a0578091505b60008311156115bf576115bc8383613cfe90919063ffffffff16565b91505b50949350505050565b600160009054906101000a900473ffffffffffffffffffffffffffffffffffffffff1681565b600061168c826115fc61300c565b73ffffffffffffffffffffffffffffffffffffffff1663ac82f608856040518263ffffffff1660e01b81526004018082815260200191505060206040518083038186803b15801561164c57600080fd5b505afa158015611660573d6000803e3d6000fd5b505050506040513d602081101561167657600080fd5b810190808051906020019092919050505061303c565b9050919050565b60008061169e61292c565b90508073ffffffffffffffffffffffffffffffffffffffff163373ffffffffffffffffffffffffffffffffffffffff16148061179457506000801b8173ffffffffffffffffffffffffffffffffffffffff166316b2213f336040518263ffffffff1660e01b8152600401808273ffffffffffffffffffffffffffffffffffffffff1673ffffffffffffffffffffffffffffffffffffffff16815260200191505060206040518083038186803b15801561175657600080fd5b505afa15801561176a573d6000803e3d6000fd5b505050506040513d602081101561178057600080fd5b810190808051906020019092919050505014155b6117e9576040517f08c379a0000000000000000000000000000000000000000000000000000000008152600401808060200182810382526045815260200180615ddd6045913960600191505060405180910390fd5b6117f1613d86565b73ffffffffffffffffffffffffffffffffffffffff1663faf431bb88886040518363ffffffff1660e01b8152600401808373ffffffffffffffffffffffffffffffffffffffff1673ffffffffffffffffffffffffffffffffffffffff1681526020018273ffffffffffffffffffffffffffffffffffffffff1673ffffffffffffffffffffffffffffffffffffffff1681526020019250505060206040518083038186803b1580156118a157600080fd5b505afa1580156118b5573d6000803e3d6000fd5b505050506040513d60208110156118cb57600080fd5b810190808051906020019092919050505061194e576040517f08c379a000000000000000000000000000000000000000000000000000000000815260040180806020018281038252601d8152602001807f4e6f7420617070726f76656420746f20616374206f6e20626568616c6600000081525060200191505060405180910390fd5b600061195f888787878c600061295c565b5080925081945050506119728189612eaf565b505095945050505050565b6060611987611fc5565b905060008090505b8151811015611be25760008282815181106119a657fe5b602002602001015190506000600260009054906101000a900473ffffffffffffffffffffffffffffffffffffffff1673ffffffffffffffffffffffffffffffffffffffff1663dacb2d01838460405160200180807f5265736f6c766572206d697373696e67207461726765743a20000000000000008152506019018281526020019150506040516020818303038152906040526040518363ffffffff1660e01b81526004018083815260200180602001828103825283818151815260200191508051906020019080838360005b83811015611a8e578082015181840152602081019050611a73565b50505050905090810190601f168015611abb5780820380516001836020036101000a031916815260200191505b50935050505060206040518083038186803b158015611ad957600080fd5b505afa158015611aed573d6000803e3d6000fd5b505050506040513d6020811015611b0357600080fd5b81019080805190602001909291905050509050806003600084815260200190815260200160002060006101000a81548173ffffffffffffffffffffffffffffffffffffffff021916908373ffffffffffffffffffffffffffffffffffffffff1602179055507f88a93678a3692f6789d9546fc621bf7234b101ddb7d4fe479455112831b8aa688282604051808381526020018273ffffffffffffffffffffffffffffffffffffffff1673ffffffffffffffffffffffffffffffffffffffff1681526020019250505060405180910390a15050808060010191505061198f565b5050565b600160009054906101000a900473ffffffffffffffffffffffffffffffffffffffff1673ffffffffffffffffffffffffffffffffffffffff163373ffffffffffffffffffffffffffffffffffffffff1614611c8c576040517f08c379a0000000000000000000000000000000000000000000000000000000008152600401808060200182810382526035815260200180615da86035913960400191505060405180910390fd5b7fb532073b38c83145e3e5135377a08bf9aab55bc0fd7c1179cd4fb995d2a5159c6000809054906101000a900473ffffffffffffffffffffffffffffffffffffffff16600160009054906101000a900473ffffffffffffffffffffffffffffffffffffffff16604051808373ffffffffffffffffffffffffffffffffffffffff1673ffffffffffffffffffffffffffffffffffffffff1681526020018273ffffffffffffffffffffffffffffffffffffffff1673ffffffffffffffffffffffffffffffffffffffff1681526020019250505060405180910390a1600160009054906101000a900473ffffffffffffffffffffffffffffffffffffffff166000806101000a81548173ffffffffffffffffffffffffffffffffffffffff021916908373ffffffffffffffffffffffffffffffffffffffff1602179055506000600160006101000a81548173ffffffffffffffffffffffffffffffffffffffff021916908373ffffffffffffffffffffffffffffffffffffffff160217905550565b60046020528060005260406000206000915090505481565b600080611e2f61292c565b90508073ffffffffffffffffffffffffffffffffffffffff163373ffffffffffffffffffffffffffffffffffffffff161480611f2557506000801b8173ffffffffffffffffffffffffffffffffffffffff166316b2213f336040518263ffffffff1660e01b8152600401808273ffffffffffffffffffffffffffffffffffffffff1673ffffffffffffffffffffffffffffffffffffffff16815260200191505060206040518083038186803b158015611ee757600080fd5b505afa158015611efb573d6000803e3d6000fd5b505050506040513d6020811015611f1157600080fd5b810190808051906020019092919050505014155b611f7a576040517f08c379a0000000000000000000000000000000000000000000000000000000008152600401808060200182810382526045815260200180615ddd6045913960600191505060405180910390fd5b6000611f8b8a8a8a8a8a600061295c565b508092508194505050611f9e8186612eaf565b611fa9848885613db6565b5050979650505050505050565b6000611fc0613e3d565b905090565b606080611fd0613f1f565b9050606060096040519080825280602002602001820160405280156120045781602001602082028038833980820191505090505b5090507f53797374656d53746174757300000000000000000000000000000000000000008160008151811061203557fe5b6020026020010181815250507f45786368616e67655374617465000000000000000000000000000000000000008160018151811061206f57fe5b6020026020010181815250507f45786368616e6765526174657300000000000000000000000000000000000000816002815181106120a957fe5b6020026020010181815250507f53796e7468657469780000000000000000000000000000000000000000000000816003815181106120e357fe5b6020026020010181815250507f466565506f6f6c000000000000000000000000000000000000000000000000008160048151811061211d57fe5b6020026020010181815250507f54726164696e67526577617264730000000000000000000000000000000000008160058151811061215757fe5b6020026020010181815250507f44656c6567617465417070726f76616c730000000000000000000000000000008160068151811061219157fe5b6020026020010181815250507f4973737565720000000000000000000000000000000000000000000000000000816007815181106121cb57fe5b6020026020010181815250507f44656274436163686500000000000000000000000000000000000000000000008160088151811061220557fe5b60200260200101818152505061221b8282613f91565b9250505090565b6000809054906101000a900473ffffffffffffffffffffffffffffffffffffffff1681565b6000612251614064565b905090565b600061226061300c565b90508073ffffffffffffffffffffffffffffffffffffffff163373ffffffffffffffffffffffffffffffffffffffff1614612303576040517f08c379a000000000000000000000000000000000000000000000000000000000815260040180806020018281038252601b8152602001807f5265737472696374656420746f2045786368616e67655261746573000000000081525060200191505060405180910390fd5b60008211612379576040517f08c379a00000000000000000000000000000000000000000000000000000000081526004018080602001828103825260148152602001807f52617465206d7573742062652061626f7665203000000000000000000000000081525060200191505060405180910390fd5b816004600085815260200190815260200160002081905550505050565b6000806123a38484610b5d565b146123b157600190506123ca565b60006123bd848461336f565b5050509050600081119150505b92915050565b6000806123db61292c565b90508073ffffffffffffffffffffffffffffffffffffffff163373ffffffffffffffffffffffffffffffffffffffff1614806124d157506000801b8173ffffffffffffffffffffffffffffffffffffffff166316b2213f336040518263ffffffff1660e01b8152600401808273ffffffffffffffffffffffffffffffffffffffff1673ffffffffffffffffffffffffffffffffffffffff16815260200191505060206040518083038186803b15801561249357600080fd5b505afa1580156124a7573d6000803e3d6000fd5b505050506040513d60208110156124bd57600080fd5b810190808051906020019092919050505014155b612526576040517f08c379a0000000000000000000000000000000000000000000000000000000008152600401808060200182810382526045815260200180615ddd6045913960600191505060405180910390fd5b61252e613d86565b73ffffffffffffffffffffffffffffffffffffffff1663faf431bb8a8a6040518363ffffffff1660e01b8152600401808373ffffffffffffffffffffffffffffffffffffffff1673ffffffffffffffffffffffffffffffffffffffff1681526020018273ffffffffffffffffffffffffffffffffffffffff1673ffffffffffffffffffffffffffffffffffffffff1681526020019250505060206040518083038186803b1580156125de57600080fd5b505afa1580156125f2573d6000803e3d6000fd5b505050506040513d602081101561260857600080fd5b810190808051906020019092919050505061268b576040517f08c379a000000000000000000000000000000000000000000000000000000000815260040180806020018281038252601d8152602001807f4e6f7420617070726f76656420746f20616374206f6e20626568616c6600000081525060200191505060405180910390fd5b600061269c8a8989898e600061295c565b5080925081945050506126af8186612eaf565b6126ba848785613db6565b5050979650505050505050565b60008060006126d461292c565b90508073ffffffffffffffffffffffffffffffffffffffff163373ffffffffffffffffffffffffffffffffffffffff1614806127ca57506000801b8173ffffffffffffffffffffffffffffffffffffffff166316b2213f336040518263ffffffff1660e01b8152600401808273ffffffffffffffffffffffffffffffffffffffff1673ffffffffffffffffffffffffffffffffffffffff16815260200191505060206040518083038186803b15801561278c57600080fd5b505afa1580156127a0573d6000803e3d6000fd5b505050506040513d60208110156127b657600080fd5b810190808051906020019092919050505014155b61281f576040517f08c379a0000000000000000000000000000000000000000000000000000000008152600401808060200182810382526045815260200180615ddd6045913960600191505060405180910390fd5b60006128308a8a8a8a8a600161295c565b8095508193508296505050506128468187612eaf565b6000801b851461285c5761285b858886613db6565b5b5050965096945050505050565b6000806000612879868686614146565b90505080935081945082955050505093509350939050565b60006128bc7f45786368616e676553746174650000000000000000000000000000000000000061424b565b905090565b6000806128cc613e3d565b905060008314806128ef57506128eb8184613cfe90919063ffffffff16565b4210155b156128fe576000915050612927565b612923426129158386613cfe90919063ffffffff16565b6143ad90919063ffffffff16565b9150505b919050565b60006129577f53796e746865746978000000000000000000000000000000000000000000000061424b565b905090565b600080600061296c888888614436565b6000612979888b8b6146bb565b9050600081141561299b57600080600082925081915093509350935050612ea3565b60008060006129ab848d8c614146565b809550819650829750839a50849b5050505050506129c98c836146f5565b806129da57506129d98a826146f5565b5b156129f957600080600082925081915096509650965050505050612ea3565b612a088c8e868d8b8e8e6147a9565b9450600073ffffffffffffffffffffffffffffffffffffffff168573ffffffffffffffffffffffffffffffffffffffff1614612a42578498505b6000861115612d5b57612a5361300c565b73ffffffffffffffffffffffffffffffffffffffff1663654a60ac8b887f73555344000000000000000000000000000000000000000000000000000000006040518463ffffffff1660e01b815260040180848152602001838152602001828152602001935050505060206040518083038186803b158015612ad357600080fd5b505afa158015612ae7573d6000803e3d6000fd5b505050506040513d6020811015612afd57600080fd5b81019080805190602001909291905050509550612b18612fdc565b73ffffffffffffffffffffffffffffffffffffffff1663326080397f73555344000000000000000000000000000000000000000000000000000000006040518263ffffffff1660e01b81526004018082815260200191505060206040518083038186803b158015612b8857600080fd5b505afa158015612b9c573d6000803e3d6000fd5b505050506040513d6020811015612bb257600080fd5b810190808051906020019092919050505073ffffffffffffffffffffffffffffffffffffffff1663867904b4612be6614b5d565b73ffffffffffffffffffffffffffffffffffffffff1663eb1edd616040518163ffffffff1660e01b815260040160206040518083038186803b158015612c2b57600080fd5b505afa158015612c3f573d6000803e3d6000fd5b505050506040513d6020811015612c5557600080fd5b8101908080519060200190929190505050886040518363ffffffff1660e01b8152600401808373ffffffffffffffffffffffffffffffffffffffff1673ffffffffffffffffffffffffffffffffffffffff16815260200182815260200192505050600060405180830381600087803b158015612cd057600080fd5b505af1158015612ce4573d6000803e3d6000fd5b50505050612cf0614b5d565b73ffffffffffffffffffffffffffffffffffffffff166322bf55ef876040518263ffffffff1660e01b815260040180828152602001915050600060405180830381600087803b158015612d4257600080fd5b505af1158015612d56573d6000803e3d6000fd5b505050505b612d8d60405180604001604052808e81526020018c815250604051806040016040528085815260200184815250614b8d565b612d9561292c565b73ffffffffffffffffffffffffffffffffffffffff16636c00f3108e8e878e8c8f6040518763ffffffff1660e01b8152600401808773ffffffffffffffffffffffffffffffffffffffff1673ffffffffffffffffffffffffffffffffffffffff1681526020018681526020018581526020018481526020018381526020018273ffffffffffffffffffffffffffffffffffffffff1673ffffffffffffffffffffffffffffffffffffffff1681526020019650505050505050600060405180830381600087803b158015612e6757600080fd5b505af1158015612e7b573d6000803e3d6000fd5b505050506000612e89613e3d565b1115612e9e57612e9d898d868d8b88614f06565b5b505050505b96509650969350505050565b600082118015612eec5750600073ffffffffffffffffffffffffffffffffffffffff168173ffffffffffffffffffffffffffffffffffffffff1614155b8015612efc5750612efb614064565b5b15612fa857612f09615199565b73ffffffffffffffffffffffffffffffffffffffff166321cad77483836040518363ffffffff1660e01b8152600401808381526020018273ffffffffffffffffffffffffffffffffffffffff1673ffffffffffffffffffffffffffffffffffffffff16815260200192505050600060405180830381600087803b158015612f8f57600080fd5b505af1158015612fa3573d6000803e3d6000fd5b505050505b5050565b6000612fd77f53797374656d537461747573000000000000000000000000000000000000000061424b565b905090565b60006130077f497373756572000000000000000000000000000000000000000000000000000061424b565b905090565b60006130377f45786368616e676552617465730000000000000000000000000000000000000061424b565b905090565b60008082141561304f57600190506132c2565b60006004600085815260200190815260200160002054905060008111156130825761307a81846151c9565b9150506132c2565b606061308c61300c565b73ffffffffffffffffffffffffffffffffffffffff16632d7371e18660046040518363ffffffff1660e01b8152600401808381526020018281526020019250505060006040518083038186803b1580156130e557600080fd5b505afa1580156130f9573d6000803e3d6000fd5b505050506040513d6000823e3d601f19601f82011682018060405250604081101561312357600080fd5b810190808051604051939291908464010000000082111561314357600080fd5b8382019150602082018581111561315957600080fd5b825186602082028301116401000000008211171561317657600080fd5b8083526020830192505050908051906020019060200280838360005b838110156131ad578082015181840152602081019050613192565b50505050905001604052602001805160405193929190846401000000008211156131d657600080fd5b838201915060208201858111156131ec57600080fd5b825186602082028301116401000000008211171561320957600080fd5b8083526020830192505050908051906020019060200280838360005b83811015613240578082015181840152602081019050613225565b505050509050016040525050505090506000600190505b81518110156132ba57600082828151811061326e57fe5b602002602001015111801561329c575061329b82828151811061328d57fe5b6020026020010151866151c9565b5b156132ad57600193505050506132c2565b8080600101915050613257565b506000925050505b92915050565b6000809054906101000a900473ffffffffffffffffffffffffffffffffffffffff1673ffffffffffffffffffffffffffffffffffffffff163373ffffffffffffffffffffffffffffffffffffffff161461336d576040517f08c379a000000000000000000000000000000000000000000000000000000000815260040180806020018281038252602f815260200180615e22602f913960400191505060405180910390fd5b565b6000806000606061337e612891565b73ffffffffffffffffffffffffffffffffffffffff1663b44e975387876040518363ffffffff1660e01b8152600401808373ffffffffffffffffffffffffffffffffffffffff1673ffffffffffffffffffffffffffffffffffffffff1681526020018281526020019250505060206040518083038186803b15801561340257600080fd5b505afa158015613416573d6000803e3d6000fd5b505050506040513d602081101561342c57600080fd5b8101908080519060200190929190505050915060608260405190808252806020026020018201604052801561347b57816020015b613468615d11565b8152602001906001900390816134605790505b50905060008090505b8381101561368c57600080613497615d5c565b6134a28b8b86615236565b90506000806134b0836153bc565b9150915060006134be61300c565b73ffffffffffffffffffffffffffffffffffffffff1663266da16b85600001518660200151876040015187876040518663ffffffff1660e01b8152600401808681526020018581526020018481526020018381526020018281526020019550505050505060206040518083038186803b15801561353a57600080fd5b505afa15801561354e573d6000803e3d6000fd5b505050506040513d602081101561356457600080fd5b810190808051906020019092919050505090506000613587828660800151615542565b90506135978560600151826151c9565b6136175780856060015111156135da576135be8186606001516143ad90919063ffffffff16565b96506135d3878e613cfe90919063ffffffff16565b9c50613616565b8460600151811115613615576135fd8560600151826143ad90919063ffffffff16565b9550613612868d613cfe90919063ffffffff16565b9b505b5b5b6040518061010001604052808660000151815260200186602001518152602001866040015181526020018881526020018781526020018581526020018481526020018660a0015181525089898151811061366d57fe5b6020026020010181905250505050505050508080600101915050613484565b508484848394509450945094505092959194509250565b60006136ae826155ef565b90507f73555344000000000000000000000000000000000000000000000000000000008314806136fd57507f735553440000000000000000000000000000000000000000000000000000000082145b1561370a57809050613825565b607360f81b8360006020811061371c57fe5b1a60f81b7effffffffffffffffffffffffffffffffffffffffffffffffffffffffffffff19161480156137845750606960f81b8260006020811061375c57fe5b1a60f81b7effffffffffffffffffffffffffffffffffffffffffffffffffffffffffffff1916145b806138055750606960f81b8360006020811061379c57fe5b1a60f81b7effffffffffffffffffffffffffffffffffffffffffffffffffffffffffffff19161480156138045750607360f81b826000602081106137dc57fe5b1a60f81b7effffffffffffffffffffffffffffffffffffffffffffffffffffffffffffff1916145b5b156138215761381e60028261570190919063ffffffff16565b90505b8090505b92915050565b60008060008061383b8787610b5d565b14613891576040517f08c379a0000000000000000000000000000000000000000000000000000000008152600401808060200182810382526023815260200180615e946023913960400191505060405180910390fd5b600080600060606138a28a8a61336f565b9350935093509350828411156138d7576138c583856143ad90919063ffffffff16565b96506138d28a8a89615787565b613901565b83831115613900576138f284846143ad90919063ffffffff16565b95506138ff8a8a8861596b565b5b5b8715613a0b57606060016040519080825280602002602001820160405280156139395781602001602082028038833980820191505090505b509050898160008151811061394a57fe5b60200260200101818152505061395e615b4f565b73ffffffffffffffffffffffffffffffffffffffff1663cda218c7826040518263ffffffff1660e01b81526004018080602001828103825283818151815260200191508051906020019060200280838360005b838110156139cc5780820151818401526020810190506139b1565b5050505090500192505050600060405180830381600087803b1580156139f157600080fd5b505af1158015613a05573d6000803e3d6000fd5b50505050505b60008090505b8151811015613b65578a73ffffffffffffffffffffffffffffffffffffffff167f8e3ad1f68bec55de3b6fa12ae2674a2a683a17c918a4cbf5157ac5d9ddc6e940838381518110613a5e57fe5b602002602001015160000151848481518110613a7657fe5b602002602001015160200151858581518110613a8e57fe5b602002602001015160400151868681518110613aa657fe5b602002602001015160600151878781518110613abe57fe5b602002602001015160800151888881518110613ad657fe5b602002602001015160a00151898981518110613aee57fe5b602002602001015160c001518a8a81518110613b0657fe5b602002602001015160e00151604051808981526020018881526020018781526020018681526020018581526020018481526020018381526020018281526020019850505050505050505060405180910390a28080600101915050613a11565b50819450613b71612891565b73ffffffffffffffffffffffffffffffffffffffff1663d0d3d62a8b8b6040518363ffffffff1660e01b8152600401808373ffffffffffffffffffffffffffffffffffffffff1673ffffffffffffffffffffffffffffffffffffffff16815260200182815260200192505050600060405180830381600087803b158015613bf757600080fd5b505af1158015613c0b573d6000803e3d6000fd5b505050505050505093509350939050565b6000613c26615b7f565b73ffffffffffffffffffffffffffffffffffffffff166323257c2b7f53797374656d53657474696e67730000000000000000000000000000000000007f7072696365446576696174696f6e5468726573686f6c64466163746f720000006040518363ffffffff1660e01b8152600401808381526020018281526020019250505060206040518083038186803b158015613cbe57600080fd5b505afa158015613cd2573d6000803e3d6000fd5b505050506040513d6020811015613ce857600080fd5b8101908080519060200190929190505050905090565b600080828401905083811015613d7c576040517f08c379a000000000000000000000000000000000000000000000000000000000815260040180806020018281038252601b8152602001807f536166654d6174683a206164646974696f6e206f766572666c6f77000000000081525060200191505060405180910390fd5b8091505092915050565b6000613db17f44656c6567617465417070726f76616c7300000000000000000000000000000061424b565b905090565b613dbe61292c565b73ffffffffffffffffffffffffffffffffffffffff1663ddd03a3f8484846040518463ffffffff1660e01b8152600401808481526020018381526020018281526020019350505050600060405180830381600087803b158015613e2057600080fd5b505af1158015613e34573d6000803e3d6000fd5b50505050505050565b6000613e47615b7f565b73ffffffffffffffffffffffffffffffffffffffff166323257c2b7f53797374656d53657474696e67730000000000000000000000000000000000007f77616974696e67506572696f64536563730000000000000000000000000000006040518363ffffffff1660e01b8152600401808381526020018281526020019250505060206040518083038186803b158015613edf57600080fd5b505afa158015613ef3573d6000803e3d6000fd5b505050506040513d6020811015613f0957600080fd5b8101908080519060200190929190505050905090565b60606001604051908082528060200260200182016040528015613f515781602001602082028038833980820191505090505b5090507f466c657869626c6553746f72616765000000000000000000000000000000000081600081518110613f8257fe5b60200260200101818152505090565b60608151835101604051908082528060200260200182016040528015613fc65781602001602082028038833980820191505090505b50905060008090505b835181101561401157838181518110613fe457fe5b6020026020010151828281518110613ff857fe5b6020026020010181815250508080600101915050613fcf565b5060008090505b825181101561405d5782818151811061402d57fe5b602002602001015182828651018151811061404457fe5b6020026020010181815250508080600101915050614018565b5092915050565b600061406e615b7f565b73ffffffffffffffffffffffffffffffffffffffff1663d994502d7f53797374656d53657474696e67730000000000000000000000000000000000007f74726164696e6752657761726473456e61626c656400000000000000000000006040518363ffffffff1660e01b8152600401808381526020018281526020019250505060206040518083038186803b15801561410657600080fd5b505afa15801561411a573d6000803e3d6000fd5b505050506040513d602081101561413057600080fd5b8101908080519060200190929190505050905090565b60008060008060008061415761300c565b73ffffffffffffffffffffffffffffffffffffffff16638295016a898b8a6040518463ffffffff1660e01b815260040180848152602001838152602001828152602001935050505060606040518083038186803b1580156141b757600080fd5b505afa1580156141cb573d6000803e3d6000fd5b505050506040513d60608110156141e157600080fd5b8101908080519060200190929190805190602001909291908051906020019092919050505080945081955082935050505061421c88886136a3565b93506142288185615542565b955061423d86826143ad90919063ffffffff16565b945050939792965093509350565b6000806003600084815260200190815260200160002060009054906101000a900473ffffffffffffffffffffffffffffffffffffffff169050600073ffffffffffffffffffffffffffffffffffffffff168173ffffffffffffffffffffffffffffffffffffffff1614158360405160200180807f4d697373696e6720616464726573733a20000000000000000000000000000000815250601101828152602001915050604051602081830303815290604052906143a3576040517f08c379a00000000000000000000000000000000000000000000000000000000081526004018080602001828103825283818151815260200191508051906020019080838360005b8381101561436857808201518184015260208101905061434d565b50505050905090810190601f1680156143955780820380516001836020036101000a031916815260200191505b509250505060405180910390fd5b5080915050919050565b600082821115614425576040517f08c379a000000000000000000000000000000000000000000000000000000000815260040180806020018281038252601e8152602001807f536166654d6174683a207375627472616374696f6e206f766572666c6f77000081525060200191505060405180910390fd5b600082840390508091505092915050565b808314156144ac576040517f08c379a00000000000000000000000000000000000000000000000000000000081526004018080602001828103825260138152602001807f43616e27742062652073616d652073796e74680000000000000000000000000081525060200191505060405180910390fd5b60008211614522576040517f08c379a000000000000000000000000000000000000000000000000000000000815260040180806020018281038252600b8152602001807f5a65726f20616d6f756e7400000000000000000000000000000000000000000081525060200191505060405180910390fd5b606060026040519080825280602002602001820160405280156145545781602001602082028038833980820191505090505b509050838160008151811061456557fe5b602002602001018181525050818160018151811061457f57fe5b60200260200101818152505061459361300c565b73ffffffffffffffffffffffffffffffffffffffff16630a7d36d1826040518263ffffffff1660e01b81526004018080602001828103825283818151815260200191508051906020019060200280838360005b838110156146015780820151818401526020810190506145e6565b505050509050019250505060206040518083038186803b15801561462457600080fd5b505afa158015614638573d6000803e3d6000fd5b505050506040513d602081101561464e57600080fd5b8101908080519060200190929190505050156146b5576040517f08c379a0000000000000000000000000000000000000000000000000000000008152600401808060200182810382526022815260200180615e726022913960400191505060405180910390fd5b50505050565b60008060006146cc8585600061382b565b925092505085925060008111156146ec576146e985858885611441565b92505b50509392505050565b6000614701838361303c565b1561478a5761470e612fac565b73ffffffffffffffffffffffffffffffffffffffff1663abc0bb6e8460416040518363ffffffff1660e01b81526004018083815260200182815260200192505050600060405180830381600087803b15801561476957600080fd5b505af115801561477d573d6000803e3d6000fd5b50505050600190506147a3565b8160046000858152602001908152602001600020819055505b92915050565b60006147b3612fdc565b73ffffffffffffffffffffffffffffffffffffffff166332608039896040518263ffffffff1660e01b81526004018082815260200191505060206040518083038186803b15801561480357600080fd5b505afa158015614817573d6000803e3d6000fd5b505050506040513d602081101561482d57600080fd5b810190808051906020019092919050505073ffffffffffffffffffffffffffffffffffffffff16639dc29fac88886040518363ffffffff1660e01b8152600401808373ffffffffffffffffffffffffffffffffffffffff1673ffffffffffffffffffffffffffffffffffffffff16815260200182815260200192505050600060405180830381600087803b1580156148c457600080fd5b505af11580156148d8573d6000803e3d6000fd5b5050505060006148e6612fdc565b73ffffffffffffffffffffffffffffffffffffffff166332608039876040518263ffffffff1660e01b81526004018082815260200191505060206040518083038186803b15801561493657600080fd5b505afa15801561494a573d6000803e3d6000fd5b505050506040513d602081101561496057600080fd5b810190808051906020019092919050505090508215614ab1576000819050614a0a8173ffffffffffffffffffffffffffffffffffffffff1663ec5568896040518163ffffffff1660e01b815260040160206040518083038186803b1580156149c757600080fd5b505afa1580156149db573d6000803e3d6000fd5b505050506040513d60208110156149f157600080fd5b810190808051906020019092919050505086888a615baf565b92508173ffffffffffffffffffffffffffffffffffffffff1663867904b484886040518363ffffffff1660e01b8152600401808373ffffffffffffffffffffffffffffffffffffffff1673ffffffffffffffffffffffffffffffffffffffff16815260200182815260200192505050600060405180830381600087803b158015614a9357600080fd5b505af1158015614aa7573d6000803e3d6000fd5b5050505050614b51565b8073ffffffffffffffffffffffffffffffffffffffff1663867904b485876040518363ffffffff1660e01b8152600401808373ffffffffffffffffffffffffffffffffffffffff1673ffffffffffffffffffffffffffffffffffffffff16815260200182815260200192505050600060405180830381600087803b158015614b3857600080fd5b505af1158015614b4c573d6000803e3d6000fd5b505050505b50979650505050505050565b6000614b887f466565506f6f6c0000000000000000000000000000000000000000000000000061424b565b905090565b60007f735553440000000000000000000000000000000000000000000000000000000083600060028110614bbd57fe5b60200201511480614bfe57507f735553440000000000000000000000000000000000000000000000000000000083600160028110614bf757fe5b6020020151145b9050600081614c0e576003614c11565b60025b60ff169050606081604051908082528060200260200182016040528015614c475781602001602082028038833980820191505090505b50905084600060028110614c5757fe5b602002015181600081518110614c6957fe5b60200260200101818152505084600160028110614c8257fe5b602002015181600181518110614c9457fe5b602002602001018181525050606082604051908082528060200260200182016040528015614cd15781602001602082028038833980820191505090505b50905084600060028110614ce157fe5b602002015181600081518110614cf357fe5b60200260200101818152505084600160028110614d0c57fe5b602002015181600181518110614d1e57fe5b60200260200101818152505083614e02577f735553440000000000000000000000000000000000000000000000000000000082600281518110614d5d57fe5b60200260200101818152505073__$b8d33eeb36ac0d1e81cd70156e0043e778$__63907af6c06040518163ffffffff1660e01b815260040160206040518083038186803b158015614dad57600080fd5b505af4158015614dc1573d6000803e3d6000fd5b505050506040513d6020811015614dd757600080fd5b810190808051906020019092919050505081600281518110614df557fe5b6020026020010181815250505b614e0a615b4f565b73ffffffffffffffffffffffffffffffffffffffff166317b38db483836040518363ffffffff1660e01b8152600401808060200180602001838103835285818151815260200191508051906020019060200280838360005b83811015614e7d578082015181840152602081019050614e62565b50505050905001838103825284818151815260200191508051906020019060200280838360005b83811015614ebf578082015181840152602081019050614ea4565b50505050905001945050505050600060405180830381600087803b158015614ee657600080fd5b505af1158015614efa573d6000803e3d6000fd5b50505050505050505050565b6000614f1061300c565b905060008173ffffffffffffffffffffffffffffffffffffffff16637a018a1e886040518263ffffffff1660e01b81526004018082815260200191505060206040518083038186803b158015614f6557600080fd5b505afa158015614f79573d6000803e3d6000fd5b505050506040513d6020811015614f8f57600080fd5b8101908080519060200190929190505050905060008273ffffffffffffffffffffffffffffffffffffffff16637a018a1e876040518263ffffffff1660e01b81526004018082815260200191505060206040518083038186803b158015614ff557600080fd5b505afa158015615009573d6000803e3d6000fd5b505050506040513d602081101561501f57600080fd5b8101908080519060200190929190505050905061503a612891565b73ffffffffffffffffffffffffffffffffffffffff16633ca9d85c8a8a8a8a8a8a428a8a6040518a63ffffffff1660e01b8152600401808a73ffffffffffffffffffffffffffffffffffffffff1673ffffffffffffffffffffffffffffffffffffffff1681526020018981526020018881526020018781526020018681526020018581526020018481526020018381526020018281526020019950505050505050505050600060405180830381600087803b1580156150f857600080fd5b505af115801561510c573d6000803e3d6000fd5b505050508873ffffffffffffffffffffffffffffffffffffffff167f62e40d554c7abcdd31074960d8347a2225daeb04d93bc748f049ba2ce9462398898989898988886040518088815260200187815260200186815260200185815260200184815260200183815260200182815260200197505050505050505060405180910390a2505050505050505050565b60006151c47f54726164696e675265776172647300000000000000000000000000000000000061424b565b905090565b6000808314806151d95750600082145b156151e75760019050615230565b60008383111561520b576152048484615c1f90919063ffffffff16565b9050615221565b61521e8385615c1f90919063ffffffff16565b90505b615229613c1c565b8110159150505b92915050565b61523e615d5c565b600080600080600080600080615252612891565b73ffffffffffffffffffffffffffffffffffffffff166315987eb68d8d8d6040518463ffffffff1660e01b8152600401808473ffffffffffffffffffffffffffffffffffffffff1673ffffffffffffffffffffffffffffffffffffffff16815260200183815260200182815260200193505050506101006040518083038186803b1580156152df57600080fd5b505afa1580156152f3573d6000803e3d6000fd5b505050506040513d61010081101561530a57600080fd5b8101908080519060200190929190805190602001909291908051906020019092919080519060200190929190805190602001909291908051906020019092919080519060200190929190805190602001909291905050509750975097509750975097509750975060405180610100016040528089815260200188815260200187815260200186815260200185815260200184815260200183815260200182815250985050505050505050509392505050565b60008060006153c961300c565b905060006153d5613e3d565b90508173ffffffffffffffffffffffffffffffffffffffff1663109e46a286600001518760c001518860a00151856040518563ffffffff1660e01b81526004018085815260200184815260200183815260200182815260200194505050505060206040518083038186803b15801561544c57600080fd5b505afa158015615460573d6000803e3d6000fd5b505050506040513d602081101561547657600080fd5b810190808051906020019092919050505093508173ffffffffffffffffffffffffffffffffffffffff1663109e46a286604001518760e001518860a00151856040518563ffffffff1660e01b81526004018085815260200184815260200183815260200182815260200194505050505060206040518083038186803b1580156154fe57600080fd5b505afa158015615512573d6000803e3d6000fd5b505050506040513d602081101561552857600080fd5b810190808051906020019092919050505092505050915091565b60006155e76155d88373__$b8d33eeb36ac0d1e81cd70156e0043e778$__63907af6c06040518163ffffffff1660e01b815260040160206040518083038186803b15801561558f57600080fd5b505af41580156155a3573d6000803e3d6000fd5b505050506040513d60208110156155b957600080fd5b81019080805190602001909291905050506143ad90919063ffffffff16565b84615c5590919063ffffffff16565b905092915050565b60006155f9615b7f565b73ffffffffffffffffffffffffffffffffffffffff166323257c2b7f53797374656d53657474696e67730000000000000000000000000000000000007f65786368616e6765466565526174650000000000000000000000000000000000856040516020018083815260200182815260200192505050604051602081830303815290604052805190602001206040518363ffffffff1660e01b8152600401808381526020018281526020019250505060206040518083038186803b1580156156bf57600080fd5b505afa1580156156d3573d6000803e3d6000fd5b505050506040513d60208110156156e957600080fd5b81019080805190602001909291905050509050919050565b6000808314156157145760009050615781565b600082840290508284828161572557fe5b041461577c576040517f08c379a0000000000000000000000000000000000000000000000000000000008152600401808060200182810382526021815260200180615e516021913960400191505060405180910390fd5b809150505b92915050565b61578f612fdc565b73ffffffffffffffffffffffffffffffffffffffff166332608039836040518263ffffffff1660e01b81526004018082815260200191505060206040518083038186803b1580156157df57600080fd5b505afa1580156157f3573d6000803e3d6000fd5b505050506040513d602081101561580957600080fd5b810190808051906020019092919050505073ffffffffffffffffffffffffffffffffffffffff16639dc29fac84836040518363ffffffff1660e01b8152600401808373ffffffffffffffffffffffffffffffffffffffff1673ffffffffffffffffffffffffffffffffffffffff16815260200182815260200192505050600060405180830381600087803b1580156158a057600080fd5b505af11580156158b4573d6000803e3d6000fd5b505050506158c061292c565b73ffffffffffffffffffffffffffffffffffffffff1663ace88afd8484846040518463ffffffff1660e01b8152600401808473ffffffffffffffffffffffffffffffffffffffff1673ffffffffffffffffffffffffffffffffffffffff1681526020018381526020018281526020019350505050600060405180830381600087803b15801561594e57600080fd5b505af1158015615962573d6000803e3d6000fd5b50505050505050565b615973612fdc565b73ffffffffffffffffffffffffffffffffffffffff166332608039836040518263ffffffff1660e01b81526004018082815260200191505060206040518083038186803b1580156159c357600080fd5b505afa1580156159d7573d6000803e3d6000fd5b505050506040513d60208110156159ed57600080fd5b810190808051906020019092919050505073ffffffffffffffffffffffffffffffffffffffff1663867904b484836040518363ffffffff1660e01b8152600401808373ffffffffffffffffffffffffffffffffffffffff1673ffffffffffffffffffffffffffffffffffffffff16815260200182815260200192505050600060405180830381600087803b158015615a8457600080fd5b505af1158015615a98573d6000803e3d6000fd5b50505050615aa461292c565b73ffffffffffffffffffffffffffffffffffffffff16636f01a9868484846040518463ffffffff1660e01b8152600401808473ffffffffffffffffffffffffffffffffffffffff1673ffffffffffffffffffffffffffffffffffffffff1681526020018381526020018281526020019350505050600060405180830381600087803b158015615b3257600080fd5b505af1158015615b46573d6000803e3d6000fd5b50505050505050565b6000615b7a7f446562744361636865000000000000000000000000000000000000000000000061424b565b905090565b6000615baa7f466c657869626c6553746f72616765000000000000000000000000000000000061424b565b905090565b60006040517f08c379a000000000000000000000000000000000000000000000000000000000815260040180806020018281038252601b8152602001807f43616e6e6f742062652072756e206f6e2074686973206c61796572000000000081525060200191505060405180910390fd5b6000615c4d82615c3f601260ff16600a0a8661570190919063ffffffff16565b615c8290919063ffffffff16565b905092915050565b6000601260ff16600a0a615c72838561570190919063ffffffff16565b81615c7957fe5b04905092915050565b6000808211615cf9576040517f08c379a000000000000000000000000000000000000000000000000000000000815260040180806020018281038252601a8152602001807f536166654d6174683a206469766973696f6e206279207a65726f00000000000081525060200191505060405180910390fd5b6000828481615d0457fe5b0490508091505092915050565b60405180610100016040528060008019168152602001600081526020016000801916815260200160008152602001600081526020016000815260200160008152602001600081525090565b6040518061010001604052806000801916815260200160008152602001600080191681526020016000815260200160008152602001600081526020016000815260200160008152509056fe596f75206d757374206265206e6f6d696e61746564206265666f726520796f752063616e20616363657074206f776e65727368697045786368616e6765723a204f6e6c792073796e746865746978206f7220612073796e746820636f6e74726163742063616e20706572666f726d207468697320616374696f6e4f6e6c792074686520636f6e7472616374206f776e6572206d617920706572666f726d207468697320616374696f6e536166654d6174683a206d756c7469706c69636174696f6e206f766572666c6f775372632f64657374207261746520696e76616c6964206f72206e6f7420666f756e6443616e6e6f7420736574746c6520647572696e672077616974696e6720706572696f64a265627a7a7231582036f61ba2b396f18257e26592b5d5c0261a909e3b3c73dcf4714018e404a588a464736f6c63430005100032",
  "linkReferences": {
    "contracts/SafeDecimalMath.sol": {
      "SafeDecimalMath": [
        {
          "length": 20,
          "start": 20370
        },
        {
          "length": 20,
          "start": 22388
        }
      ]
    }
  },
  "deployedLinkReferences": {
    "contracts/SafeDecimalMath.sol": {
      "SafeDecimalMath": [
        {
          "length": 20,
          "start": 19819
        },
        {
          "length": 20,
          "start": 21837
        }
      ]
    }
  }
}