{
  "_format": "hh-sol-artifact-1",
  "contractName": "MockContractStorage",
  "sourceName": "contracts/test-helpers/MockContractStorage.sol",
  "abi": [
    {
      "inputs": [
        {
          "internalType": "address",
          "name": "_resolver",
          "type": "address"
        }
      ],
      "payable": false,
      "stateMutability": "nonpayable",
      "type": "constructor"
    },
    {
      "anonymous": false,
      "inputs": [
        {
          "indexed": false,
          "internalType": "bytes32",
          "name": "fromContractName",
          "type": "bytes32"
        },
        {
          "indexed": false,
          "internalType": "bytes32",
          "name": "toContractName",
          "type": "bytes32"
        },
        {
          "indexed": false,
          "internalType": "bool",
          "name": "removeAccessFromPreviousContract",
          "type": "bool"
        }
      ],
      "name": "KeyMigrated",
      "type": "event"
    },
    {
      "constant": true,
      "inputs": [
        {
          "internalType": "bytes32",
          "name": "",
          "type": "bytes32"
        },
        {
          "internalType": "bytes32",
          "name": "",
          "type": "bytes32"
        }
      ],
      "name": "entries",
      "outputs": [
        {
          "internalType": "uint256",
          "name": "value",
          "type": "uint256"
        },
        {
          "internalType": "bool",
          "name": "flag",
          "type": "bool"
        }
      ],
      "payable": false,
      "stateMutability": "view",
      "type": "function"
    },
    {
      "constant": true,
      "inputs": [
        {
          "internalType": "bytes32",
          "name": "contractName",
          "type": "bytes32"
        },
        {
          "internalType": "bytes32",
          "name": "record",
          "type": "bytes32"
        }
      ],
      "name": "getEntry",
      "outputs": [
        {
          "internalType": "uint256",
          "name": "value",
          "type": "uint256"
        },
        {
          "internalType": "bool",
          "name": "flag",
          "type": "bool"
        }
      ],
      "payable": false,
      "stateMutability": "view",
      "type": "function"
    },
    {
      "constant": true,
      "inputs": [
        {
          "internalType": "bytes32",
          "name": "",
          "type": "bytes32"
        }
      ],
      "name": "hashes",
      "outputs": [
        {
          "internalType": "bytes32",
          "name": "",
          "type": "bytes32"
        }
      ],
      "payable": false,
      "stateMutability": "view",
      "type": "function"
    },
    {
      "constant": false,
      "inputs": [
        {
          "internalType": "bytes32",
          "name": "fromContractName",
          "type": "bytes32"
        },
        {
          "internalType": "bytes32",
          "name": "toContractName",
          "type": "bytes32"
        },
        {
          "internalType": "bool",
          "name": "removeAccessFromPreviousContract",
          "type": "bool"
        }
      ],
      "name": "migrateContractKey",
      "outputs": [],
      "payable": false,
      "stateMutability": "nonpayable",
      "type": "function"
    },
    {
      "constant": false,
      "inputs": [
        {
          "internalType": "bytes32",
          "name": "contractName",
          "type": "bytes32"
        },
        {
          "internalType": "bytes32",
          "name": "record",
          "type": "bytes32"
        },
        {
          "internalType": "uint256",
          "name": "value",
          "type": "uint256"
        },
        {
          "internalType": "bool",
          "name": "flag",
          "type": "bool"
        }
      ],
      "name": "persistEntry",
      "outputs": [],
      "payable": false,
      "stateMutability": "nonpayable",
      "type": "function"
    },
    {
      "constant": true,
      "inputs": [],
      "name": "resolverProxy",
      "outputs": [
        {
          "internalType": "contract IAddressResolver",
          "name": "",
          "type": "address"
        }
      ],
      "payable": false,
      "stateMutability": "view",
      "type": "function"
    }
  ],
  "bytecode": "0x608060405234801561001057600080fd5b5060405161092c38038061092c8339818101604052602081101561003357600080fd5b810190808051906020019092919050505080806000806101000a81548173ffffffffffffffffffffffffffffffffffffffff021916908373ffffffffffffffffffffffffffffffffffffffff1602179055505050610896806100966000396000f3fe608060405234801561001057600080fd5b50600436106100625760003560e01c8063335476b0146100675780635bda91e2146100b55780636a59e495146100f95780639515cf5614610143578063979072961461019a578063d658d2e9146101f1575b600080fd5b6100b36004803603608081101561007d57600080fd5b81019080803590602001909291908035906020019092919080359060200190929190803515159060200190929190505050610233565b005b6100f7600480360360608110156100cb57600080fd5b810190808035906020019092919080359060200190929190803515159060200190929190505050610408565b005b610101610681565b604051808273ffffffffffffffffffffffffffffffffffffffff1673ffffffffffffffffffffffffffffffffffffffff16815260200191505060405180910390f35b6101796004803603604081101561015957600080fd5b8101908080359060200190929190803590602001909291905050506106a6565b60405180838152602001821515151581526020019250505060405180910390f35b6101d0600480360360408110156101b057600080fd5b810190808035906020019092919080359060200190929190505050610707565b60405180838152602001821515151581526020019250505060405180910390f35b61021d6004803603602081101561020757600080fd5b8101908080359060200190929190505050610745565b6040518082815260200191505060405180910390f35b8360008060009054906101000a900473ffffffffffffffffffffffffffffffffffffffff1673ffffffffffffffffffffffffffffffffffffffff1663dacb2d01836040518263ffffffff1660e01b815260040180828152602001806020018281038252602881526020018061080c602891396040019250505060206040518083038186803b1580156102c457600080fd5b505afa1580156102d8573d6000803e3d6000fd5b505050506040513d60208110156102ee57600080fd5b810190808051906020019092919050505090503373ffffffffffffffffffffffffffffffffffffffff168173ffffffffffffffffffffffffffffffffffffffff1614610385576040517f08c379a000000000000000000000000000000000000000000000000000000000815260040180806020018281038252602e815260200180610834602e913960400191505060405180910390fd5b83600260006103938961075d565b815260200190815260200160002060008781526020019081526020016000206000018190555082600260006103c78961075d565b8152602001908152602001600020600087815260200190815260200160002060010160006101000a81548160ff021916908315150217905550505050505050565b8260008060009054906101000a900473ffffffffffffffffffffffffffffffffffffffff1673ffffffffffffffffffffffffffffffffffffffff1663dacb2d01836040518263ffffffff1660e01b815260040180828152602001806020018281038252602881526020018061080c602891396040019250505060206040518083038186803b15801561049957600080fd5b505afa1580156104ad573d6000803e3d6000fd5b505050506040513d60208110156104c357600080fd5b810190808051906020019092919050505090503373ffffffffffffffffffffffffffffffffffffffff168173ffffffffffffffffffffffffffffffffffffffff161461055a576040517f08c379a000000000000000000000000000000000000000000000000000000000815260040180806020018281038252602e815260200180610834602e913960400191505060405180910390fd5b6000801b600160008781526020019081526020016000205414156105e6576040517f08c379a000000000000000000000000000000000000000000000000000000000815260040180806020018281038252601d8152602001807f43616e6e6f74206d69677261746520656d70747920636f6e747261637400000081525060200191505060405180910390fd5b60016000868152602001908152602001600020546001600086815260200190815260200160002081905550821561062f5760016000868152602001908152602001600020600090555b7fa3db9c909daa141b61562c797dae4dc4b3d7751686068c98111db87b2a8c374c8585856040518084815260200183815260200182151515158152602001935050505060405180910390a15050505050565b6000809054906101000a900473ffffffffffffffffffffffffffffffffffffffff1681565b600080600060026000600160008881526020019081526020016000205481526020019081526020016000206000858152602001908152602001600020905080600001548160010160009054906101000a900460ff1692509250509250929050565b6002602052816000526040600020602052806000526040600020600091509150508060000154908060010160009054906101000a900460ff16905082565b60016020528060005260406000206000915090505481565b600080600160008481526020019081526020016000205490506000801b81141561080257338343604051602001808473ffffffffffffffffffffffffffffffffffffffff1673ffffffffffffffffffffffffffffffffffffffff1660601b815260140183815260200182815260200193505050506040516020818303038152906040528051906020012090508060016000858152602001908152602001600020819055505b8091505091905056fe43616e6e6f742066696e6420636f6e747261637420696e2041646472657373205265736f6c76657243616e206f6e6c7920626520696e766f6b65642062792074686520636f6e6669677572656420636f6e7472616374a265627a7a723158200182e89625bab8349ce8884dfb48c383f47fca1435bf3e0f52301a27267da3ab64736f6c63430005100032",
  "linkReferences": {},
  "deployedLinkReferences": {}
}