{
  "contractName": "Adminable",
  "abi": [
    {
      "constant": true,
      "inputs": [],
      "name": "getAdmin",
      "outputs": [
        {
          "internalType": "address",
          "name": "",
          "type": "address"
        }
      ],
      "payable": false,
      "stateMutability": "view",
      "type": "function"
    }
  ],
  "bytecode": "0x608060405234801561001057600080fd5b5060f88061001f6000396000f3fe6080604052348015600f57600080fd5b506004361060285760003560e01c80636e9960c314602d575b600080fd5b60336047565b604051603e91906086565b60405180910390f35b600060707fb53127684a568b3173ae13b9f8a6016e243e63b6e8ee1178d6a717850b5d61036075565b905090565b5490565b6080816098565b82525050565b60208101609282846079565b92915050565b600073ffffffffffffffffffffffffffffffffffffffff8216609256fea365627a7a72315820047c8b2275e3c495148a86fc726a6c630f7c5fdb90e4ce223805398004ddf0b46c6578706572696d656e74616cf564736f6c63430005100040",
  "source": "/*\n\n    Copyright 2020 dYdX Trading Inc.\n\n    Licensed under the Apache License, Version 2.0 (the \"License\");\n    you may not use this file except in compliance with the License.\n    You may obtain a copy of the License at\n\n    http://www.apache.org/licenses/LICENSE-2.0\n\n    Unless required by applicable law or agreed to in writing, software\n    distributed under the License is distributed on an \"AS IS\" BASIS,\n    WITHOUT WARRANTIES OR CONDITIONS OF ANY KIND, either express or implied.\n    See the License for the specific language governing permissions and\n    limitations under the License.\n\n*/\n\npragma solidity 0.5.16;\npragma experimental ABIEncoderV2;\n\nimport { Storage } from \"./Storage.sol\";\n\n\n/**\n * @title Adminable\n * @author dYdX\n *\n * @dev EIP-1967 Proxy Admin contract.\n */\ncontract Adminable {\n    /**\n     * @dev Storage slot with the admin of the contract.\n     *  This is the keccak-256 hash of \"eip1967.proxy.admin\" subtracted by 1.\n     */\n    bytes32 internal constant ADMIN_SLOT =\n    0xb53127684a568b3173ae13b9f8a6016e243e63b6e8ee1178d6a717850b5d6103;\n\n    /**\n    * @dev Modifier to check whether the `msg.sender` is the admin.\n    *  If it is, it will run the function. Otherwise, it will revert.\n    */\n    modifier onlyAdmin() {\n        require(\n            msg.sender == getAdmin(),\n            \"Adminable: caller is not admin\"\n        );\n        _;\n    }\n\n    /**\n     * @return The EIP-1967 proxy admin\n     */\n    function getAdmin()\n        public\n        view\n        returns (address)\n    {\n        return address(uint160(uint256(Storage.load(ADMIN_SLOT))));\n    }\n}\n",
  "sourcePath": "/Users/dennismacpro/Projects/Defi/Ethereum-Solidity-Collection/icarus-protocol/defi-seeder/.tmp/dydx-protocol/perpetual/contracts/protocol/lib/Adminable.sol",
  "compiler": {
    "name": "solc",
    "version": "0.5.16+commit.9c3226ce.Linux.g++"
  },
  "schemaVersion": "3.3.4",
  "updatedAt": "2021-04-01T16:42:57.357Z",
  "devdoc": {
    "author": "dYdX",
    "details": "EIP-1967 Proxy Admin contract.",
    "methods": {
      "getAdmin()": {
        "return": "The EIP-1967 proxy admin"
      }
    },
    "title": "Adminable"
  },
  "userdoc": {
    "methods": {}
  }
}