{
  "contractName": "P1Admin",
  "abi": [
    {
      "anonymous": false,
      "inputs": [
        {
          "indexed": true,
          "internalType": "address",
          "name": "account",
          "type": "address"
        },
        {
          "indexed": false,
          "internalType": "bool",
          "name": "isPositive",
          "type": "bool"
        },
        {
          "indexed": false,
          "internalType": "uint256",
          "name": "amount",
          "type": "uint256"
        },
        {
          "indexed": false,
          "internalType": "bytes32",
          "name": "balance",
          "type": "bytes32"
        }
      ],
      "name": "LogAccountSettled",
      "type": "event"
    },
    {
      "anonymous": false,
      "inputs": [
        {
          "indexed": false,
          "internalType": "uint256",
          "name": "settlementPrice",
          "type": "uint256"
        }
      ],
      "name": "LogFinalSettlementEnabled",
      "type": "event"
    },
    {
      "anonymous": false,
      "inputs": [
        {
          "indexed": false,
          "internalType": "bytes32",
          "name": "index",
          "type": "bytes32"
        }
      ],
      "name": "LogIndex",
      "type": "event"
    },
    {
      "anonymous": false,
      "inputs": [
        {
          "indexed": false,
          "internalType": "address",
          "name": "funder",
          "type": "address"
        }
      ],
      "name": "LogSetFunder",
      "type": "event"
    },
    {
      "anonymous": false,
      "inputs": [
        {
          "indexed": false,
          "internalType": "address",
          "name": "operator",
          "type": "address"
        },
        {
          "indexed": false,
          "internalType": "bool",
          "name": "approved",
          "type": "bool"
        }
      ],
      "name": "LogSetGlobalOperator",
      "type": "event"
    },
    {
      "anonymous": false,
      "inputs": [
        {
          "indexed": false,
          "internalType": "uint256",
          "name": "minCollateral",
          "type": "uint256"
        }
      ],
      "name": "LogSetMinCollateral",
      "type": "event"
    },
    {
      "anonymous": false,
      "inputs": [
        {
          "indexed": false,
          "internalType": "address",
          "name": "oracle",
          "type": "address"
        }
      ],
      "name": "LogSetOracle",
      "type": "event"
    },
    {
      "anonymous": false,
      "inputs": [
        {
          "indexed": true,
          "internalType": "address",
          "name": "account",
          "type": "address"
        },
        {
          "indexed": false,
          "internalType": "uint256",
          "name": "amount",
          "type": "uint256"
        },
        {
          "indexed": false,
          "internalType": "bytes32",
          "name": "balance",
          "type": "bytes32"
        }
      ],
      "name": "LogWithdrawFinalSettlement",
      "type": "event"
    },
    {
      "constant": true,
      "inputs": [],
      "name": "getAdmin",
      "outputs": [
        {
          "internalType": "address",
          "name": "",
          "type": "address"
        }
      ],
      "payable": false,
      "stateMutability": "view",
      "type": "function"
    },
    {
      "constant": false,
      "inputs": [],
      "name": "withdrawFinalSettlement",
      "outputs": [],
      "payable": false,
      "stateMutability": "nonpayable",
      "type": "function"
    },
    {
      "constant": false,
      "inputs": [
        {
          "internalType": "address",
          "name": "operator",
          "type": "address"
        },
        {
          "internalType": "bool",
          "name": "approved",
          "type": "bool"
        }
      ],
      "name": "setGlobalOperator",
      "outputs": [],
      "payable": false,
      "stateMutability": "nonpayable",
      "type": "function"
    },
    {
      "constant": false,
      "inputs": [
        {
          "internalType": "address",
          "name": "oracle",
          "type": "address"
        }
      ],
      "name": "setOracle",
      "outputs": [],
      "payable": false,
      "stateMutability": "nonpayable",
      "type": "function"
    },
    {
      "constant": false,
      "inputs": [
        {
          "internalType": "address",
          "name": "funder",
          "type": "address"
        }
      ],
      "name": "setFunder",
      "outputs": [],
      "payable": false,
      "stateMutability": "nonpayable",
      "type": "function"
    },
    {
      "constant": false,
      "inputs": [
        {
          "internalType": "uint256",
          "name": "minCollateral",
          "type": "uint256"
        }
      ],
      "name": "setMinCollateral",
      "outputs": [],
      "payable": false,
      "stateMutability": "nonpayable",
      "type": "function"
    },
    {
      "constant": false,
      "inputs": [
        {
          "internalType": "uint256",
          "name": "priceLowerBound",
          "type": "uint256"
        },
        {
          "internalType": "uint256",
          "name": "priceUpperBound",
          "type": "uint256"
        }
      ],
      "name": "enableFinalSettlement",
      "outputs": [],
      "payable": false,
      "stateMutability": "nonpayable",
      "type": "function"
    }
  ],
  "bytecode": "0x608060405260016000556125e5806100186000396000f3fe608060405234801561001057600080fd5b506004361061007d5760003560e01c80636e9960c31161005b5780636e9960c3146100b25780637adbf973146100d0578063846321a4146100e3578063f40c3699146100f65761007d565b80630acc8cd114610082578063142c69b31461009757806346d256c51461009f575b600080fd5b610095610090366004611c54565b610109565b005b6100956102b2565b6100956100ad366004611c72565b61062f565b6100ba61073c565b6040516100c79190612335565b60405180910390f35b6100956100de366004611c54565b61076c565b6100956100f1366004611cfa565b6108f5565b610095610104366004611d36565b6109cd565b61011161073c565b73ffffffffffffffffffffffffffffffffffffffff163373ffffffffffffffffffffffffffffffffffffffff16146101645760405162461bcd60e51b815260040161015b9061243e565b60405180910390fd5b60001960005414156101885760405162461bcd60e51b815260040161015b906124ae565b60001960009081556040517febed4bd400000000000000000000000000000000000000000000000000000000815273ffffffffffffffffffffffffffffffffffffffff83169163ebed4bd4916101e191906004016123af565b604080518083038186803b1580156101f857600080fd5b505afa15801561020c573d6000803e3d6000fd5b505050506040513d601f19601f820116820180604052506102309190810190611cca565b5050600780547fffffffffffffffffffffffff00000000000000000000000000000000000000001673ffffffffffffffffffffffffffffffffffffffff83161790556040517f433b5c8c9ff78f62114ee8804a916537fa42009ebac4965bfed953f771789e47906102a2908390612335565b60405180910390a1506001600055565b600a5460ff166102d45760405162461bcd60e51b815260040161015b906123ee565b60001960005414156102f85760405162461bcd60e51b815260040161015b906124ae565b600019600055610306611b99565b506040805160608082018352600b5482526009546020808401919091528351918201845260085463ffffffff81168352640100000000810460ff161515918301919091526501000000000090046fffffffffffffffffffffffffffffffff168184015291810191909152610378611bbf565b6103828233610b35565b9050600080610395838560000151610ff1565b91509150808210156103aa5750505050610628565b60006103d36103b76110ae565b6103c7858563ffffffff6110ba16565b9063ffffffff61110316565b6005546040517f70a0823100000000000000000000000000000000000000000000000000000000815291925060009173ffffffffffffffffffffffffffffffffffffffff909116906370a082319061042f903090600401612335565b60206040518083038186803b15801561044757600080fd5b505afa15801561045b573d6000803e3d6000fd5b505050506040513d601f19601f8201168201806040525061047f9190810190611d18565b9050600061048d8284611145565b905060006104a96104a4858463ffffffff6110ba16565b61115b565b604080516080810182526effffffffffffffffffffffffffffff8381168015158352600060208085018281528587019384526060860183815233808552600190935296909220855181549351945197517fffffffffffffffffffffffffffffffffffffffffffffffffffffffffffffff00909416901515177fffffffffffffffffffffffffffffffffffffffffffffffffffffffffffff00ff1661010094151594909402939093177fffffffffffffffffffffffffffffff000000000000000000000000000000ffff1662010000968516969096029590951770ffffffffffffffffffffffffffffffffff167101000000000000000000000000000000000091909316029190911790556005549099509192506105dd9173ffffffffffffffffffffffffffffffffffffffff169084611190565b337fc3b34c584e097adcd5d59ecaf4107928698a4f075c7753b5dbe28cd20d7ac1fd836106098a611252565b6040516106179291906124ce565b60405180910390a250505050505050505b6001600055565b61063761073c565b73ffffffffffffffffffffffffffffffffffffffff163373ffffffffffffffffffffffffffffffffffffffff16146106815760405162461bcd60e51b815260040161015b9061243e565b60001960005414156106a55760405162461bcd60e51b815260040161015b906124ae565b600019600090815573ffffffffffffffffffffffffffffffffffffffff83168152600360205260409081902080547fffffffffffffffffffffffffffffffffffffffffffffffffffffffffffffff0016831515179055517feaeee7699e70e6b31ac89ec999ef6936b97ac1e364f0e1fcf584772372caa0d39061072b9084908490612343565b60405180910390a150506001600055565b60006107677fb53127684a568b3173ae13b9f8a6016e243e63b6e8ee1178d6a717850b5d61036112e7565b905090565b61077461073c565b73ffffffffffffffffffffffffffffffffffffffff163373ffffffffffffffffffffffffffffffffffffffff16146107be5760405162461bcd60e51b815260040161015b9061243e565b60001960005414156107e25760405162461bcd60e51b815260040161015b906124ae565b6000196000819055508073ffffffffffffffffffffffffffffffffffffffff166398d5fdca6040518163ffffffff1660e01b815260040160206040518083038186803b15801561083157600080fd5b505afa158015610845573d6000803e3d6000fd5b505050506040513d601f19601f820116820180604052506108699190810190611d18565b6108855760405162461bcd60e51b815260040161015b9061246e565b600680547fffffffffffffffffffffffff00000000000000000000000000000000000000001673ffffffffffffffffffffffffffffffffffffffff83161790556040517fad675642c3cba5442815383698d42cd28889533d9671a6d32cffea58ef0874da906102a2908390612335565b6108fd61073c565b73ffffffffffffffffffffffffffffffffffffffff163373ffffffffffffffffffffffffffffffffffffffff16146109475760405162461bcd60e51b815260040161015b9061243e565b600019600054141561096b5760405162461bcd60e51b815260040161015b906124ae565b6000196000556109796110ae565b8110156109985760405162461bcd60e51b815260040161015b906123de565b60098190556040517f248b36ced4662a14c995e0872f00eb61be4e3dea3913226cdeb513d64728cdca906102a29083906123a1565b6109d561073c565b73ffffffffffffffffffffffffffffffffffffffff163373ffffffffffffffffffffffffffffffffffffffff1614610a1f5760405162461bcd60e51b815260040161015b9061243e565b600a5460ff1615610a425760405162461bcd60e51b815260040161015b9061244e565b6000196000541415610a665760405162461bcd60e51b815260040161015b906124ae565b600019600055610a74611b99565b610a7c6112eb565b90508281600001511015610aa25760405162461bcd60e51b815260040161015b906123ce565b8051821015610ac35760405162461bcd60e51b815260040161015b9061248e565b8051600b819055600a80547fffffffffffffffffffffffffffffffffffffffffffffffffffffffffffffff001660011790556040517f68e4c41627e835051be46337f1542645a60c7e6d6ea79efc5f20bdadae5f88d291610b23916123a1565b60405180910390a15050600160005550565b610b3d611bbf565b610b45611be6565b506040830151610b53611be6565b5073ffffffffffffffffffffffffffffffffffffffff83166000908152600260209081526040918290208251606081018452905463ffffffff81168252640100000000810460ff16151592820192909252650100000000009091046fffffffffffffffffffffffffffffffff1691810191909152610bcf611bbf565b5073ffffffffffffffffffffffffffffffffffffffff84166000908152600160209081526040918290208251608081018452905460ff808216151583526101008204161515928201929092526effffffffffffffffffffffffffffff6201000083048116938201939093527101000000000000000000000000000000000090910490911660608201528251825163ffffffff90811691161415610c76579250610feb915050565b73ffffffffffffffffffffffffffffffffffffffff85166000908152600260209081526040918290208551815492870151938701517fffffffffffffffffffffffffffffffffffffffffffffffffffffffff0000000090931663ffffffff909116177fffffffffffffffffffffffffffffffffffffffffffffffffffffff00ffffffff1664010000000093151593909302929092177fffffffffffffffffffffff00000000000000000000000000000000ffffffffff16650100000000006fffffffffffffffffffffffffffffffff9092169190910217905560608101516effffffffffffffffffffffffffffff16610d73579250610feb915050565b610d7b611c06565b50604080518082018252908401516fffffffffffffffffffffffffffffffff16815260208085015115158183015283015115610de0576040830151610dd99082906fffffffffffffffffffffffffffffffff1663ffffffff61168f16565b9050610e0b565b6040830151610e089082906fffffffffffffffffffffffffffffffff1663ffffffff61173e16565b90505b600082602001511515826020015115151415905060008115610e655760608401518351610e4e916effffffffffffffffffffffffffffff1663ffffffff6117bb16565b9050610e60848263ffffffff6117d916565b610e9e565b60608401518351610e8c916effffffffffffffffffffffffffffff1663ffffffff61180e16565b9050610e9e848263ffffffff61186516565b73ffffffffffffffffffffffffffffffffffffffff881660008181526001602090815260409182902087518154928901519389015160608a01517fffffffffffffffffffffffffffffffffffffffffffffffffffffffffffffff00909416911515919091177fffffffffffffffffffffffffffffffffffffffffffffffffffffffffffff00ff1661010094151594909402939093177fffffffffffffffffffffffffffffff000000000000000000000000000000ffff16620100006effffffffffffffffffffffffffffff948516021770ffffffffffffffffffffffffffffffffff167101000000000000000000000000000000000093909216929092021790557f022694ffbbd957d26de6b85c040be68ec582d13d40114b29130581793a1bf31e8383610fcb88611252565b604051610fda93929190612379565b60405180910390a250919450505050505b92915050565b8151600090819081908190156110355761102e61100c6110ae565b60408801516effffffffffffffffffffffffffffff169063ffffffff61188816565b9150611043565b61104061100c6110ae565b90505b606086015160009061106c906effffffffffffffffffffffffffffff168763ffffffff61188816565b905086602001511561108f57611088838263ffffffff6118c216565b92506110a2565b61109f828263ffffffff6118c216565b91505b50909590945092505050565b670de0b6b3a764000090565b60006110fc83836040518060400160405280601e81526020017f536166654d6174683a207375627472616374696f6e206f766572666c6f7700008152506118e7565b9392505050565b60006110fc83836040518060400160405280601a81526020017f536166654d6174683a206469766973696f6e206279207a65726f000000000000815250611913565b600081831061115457816110fc565b5090919050565b60006f01000000000000000000000000000000821061118c5760405162461bcd60e51b815260040161015b9061240e565b5090565b60405161124d9084907fa9059cbb00000000000000000000000000000000000000000000000000000000906111cb908690869060240161235e565b604080517fffffffffffffffffffffffffffffffffffffffffffffffffffffffffffffffe08184030181529190526020810180517bffffffffffffffffffffffffffffffffffffffffffffffffffffffff167fffffffff000000000000000000000000000000000000000000000000000000009093169290921790915261194a565b505050565b6000808260200151611265576000611277565b6f010000000000000000000000000000005b83516112845760006112a6565b7f01000000000000000000000000000000000000000000000000000000000000005b608085604001516effffffffffffffffffffffffffffff16901b85606001516effffffffffffffffffffffffffffff1617171790508060001b915050919050565b5490565b6112f3611b99565b6112fb611be6565b506040805160608101825260085463ffffffff81168252640100000000810460ff161515602080840191909152650100000000009091046fffffffffffffffffffffffffffffffff168284015260065483517f98d5fdca0000000000000000000000000000000000000000000000000000000081529351929360009373ffffffffffffffffffffffffffffffffffffffff909216926398d5fdca92600480840193829003018186803b1580156113b057600080fd5b505afa1580156113c4573d6000803e3d6000fd5b505050506040513d601f19601f820116820180604052506113e89190810190611d18565b90506000611409836000015163ffffffff16426110ba90919063ffffffff16565b9050801561162f57611419611c06565b50604080518082018252848201516fffffffffffffffffffffffffffffffff16815260208086015115159082015260075491517febed4bd40000000000000000000000000000000000000000000000000000000081529091600091829173ffffffffffffffffffffffffffffffffffffffff169063ebed4bd4906114a19087906004016123a1565b604080518083038186803b1580156114b857600080fd5b505afa1580156114cc573d6000803e3d6000fd5b505050506040513d601f19601f820116820180604052506114f09190810190611cca565b9092509050611505818663ffffffff6117bb16565b905081156115245761151d838263ffffffff61173e16565b9250611537565b611534838263ffffffff61168f16565b92505b604051806060016040528061154b42611a4f565b63ffffffff16815260200184602001511515815260200161156f8560000151611a75565b6fffffffffffffffffffffffffffffffff9081169091528151600880546020850151604086015190941665010000000000027fffffffffffffffffffffff00000000000000000000000000000000ffffffffff941515640100000000027fffffffffffffffffffffffffffffffffffffffffffffffffffffff00ffffffff63ffffffff9095167fffffffffffffffffffffffffffffffffffffffffffffffffffffffff000000009093169290921793909316179290921617905595505050505b7f995e61c355733308eab39a59e1e1ac167274cdd1ad707fe4d13e127a0107642861165984611aa7565b60405161166691906123a1565b60405180910390a150604080516060810182529182526009546020830152810191909152905090565b611697611c06565b82602001516116d35760405180604001604052806116c28560000151856118c290919063ffffffff16565b815260006020909101529050610feb565b825182101561170b5760408051808201909152835181906116fa908563ffffffff6110ba16565b815260016020909101529050610feb565b604051806040016040528061172d8560000151856110ba90919063ffffffff16565b815260006020909101529392505050565b611746611c06565b8260200151156117725760405180604001604052806116fa8560000151856118c290919063ffffffff16565b825182111561179d5760405180604001604052806116fa8560000151856110ba90919063ffffffff16565b604080518082019091528351819061172d908563ffffffff6110ba16565b60006110fc670de0b6b3a76400006103c7858563ffffffff61188816565b6117e1611c06565b6117ea83611afd565b90506117fc818363ffffffff61173e16565b905061124d838263ffffffff611b3216565b600082158061181b575081155b1561182857506000610feb565b6110fc6001611859670de0b6b3a76400006103c78361184d898963ffffffff61188816565b9063ffffffff6110ba16565b9063ffffffff6118c216565b61186d611c06565b61187683611afd565b90506117fc818363ffffffff61168f16565b60008261189757506000610feb565b828202828482816118a457fe5b04146110fc5760405162461bcd60e51b815260040161015b9061245e565b6000828201838110156110fc5760405162461bcd60e51b815260040161015b906123fe565b6000818484111561190b5760405162461bcd60e51b815260040161015b91906123bd565b505050900390565b600081836119345760405162461bcd60e51b815260040161015b91906123bd565b50600083858161194057fe5b0495945050505050565b6119698273ffffffffffffffffffffffffffffffffffffffff16611b5d565b6119855760405162461bcd60e51b815260040161015b906124be565b600060608373ffffffffffffffffffffffffffffffffffffffff16836040516119ae9190612329565b6000604051808303816000865af19150503d80600081146119eb576040519150601f19603f3d011682016040523d82523d6000602084013e6119f0565b606091505b509150915081611a125760405162461bcd60e51b815260040161015b9061242e565b805115611a495780806020019051611a2d9190810190611cac565b611a495760405162461bcd60e51b815260040161015b9061249e565b50505050565b6000640100000000821061118c5760405162461bcd60e51b815260040161015b9061247e565b6000700100000000000000000000000000000000821061118c5760405162461bcd60e51b815260040161015b9061241e565b6000806088836000015163ffffffff16901b8360200151611ac9576000611adc565b7001000000000000000000000000000000005b60408501516fffffffffffffffffffffffffffffffff161717915050919050565b611b05611c06565b50604080518082018252908201516effffffffffffffffffffffffffffff16815290511515602082015290565b8051611b3d9061115b565b6effffffffffffffffffffffffffffff1660408301526020015115159052565b6000813f7fc5d2460186f7233c927e7db2dcc703c0e500b653ca82273b7bfad8045d85a470818114801590611b9157508115155b949350505050565b60405180606001604052806000815260200160008152602001611bba611be6565b905290565b60408051608081018252600080825260208201819052918101829052606081019190915290565b604080516060810182526000808252602082018190529181019190915290565b604080518082019091526000808252602082015290565b8035610feb81612579565b8035610feb81612590565b8051610feb81612590565b8035610feb81612599565b8051610feb81612599565b600060208284031215611c6657600080fd5b6000611b918484611c1d565b60008060408385031215611c8557600080fd5b6000611c918585611c1d565b9250506020611ca285828601611c28565b9150509250929050565b600060208284031215611cbe57600080fd5b6000611b918484611c33565b60008060408385031215611cdd57600080fd5b6000611ce98585611c33565b9250506020611ca285828601611c49565b600060208284031215611d0c57600080fd5b6000611b918484611c3e565b600060208284031215611d2a57600080fd5b6000611b918484611c49565b60008060408385031215611d4957600080fd5b6000611d558585611c3e565b9250506020611ca285828601611c3e565b611d6f816124ee565b82525050565b611d6f816124f9565b611d6f816124fe565b6000611d92826124dc565b611d9c81856124e0565b9350611dac818560208601612525565b9290920192915050565b611d6f8161251a565b6000611dca826124dc565b611dd481856124e5565b9350611de4818560208601612525565b611ded81612551565b9093019392505050565b6000611e046032836124e5565b7f4f7261636c65207072696365206973206c657373207468616e2074686520707281527f6f7669646564206c6f77657220626f756e640000000000000000000000000000602082015260400192915050565b6000611e63602f836124e5565b7f54686520636f6c6c61746572616c20726571756972656d656e742063616e6e6f81527f7420626520756e64657220313030250000000000000000000000000000000000602082015260400192915050565b6000611ec26026836124e5565b7f4f6e6c79207065726d697474656420647572696e672066696e616c207365747481527f6c656d656e740000000000000000000000000000000000000000000000000000602082015260400192915050565b6000611f21601b836124e5565b7f536166654d6174683a206164646974696f6e206f766572666c6f770000000000815260200192915050565b6000611f5a6027836124e5565b7f53616665436173743a2076616c756520646f65736e27742066697420696e203181527f3230206269747300000000000000000000000000000000000000000000000000602082015260400192915050565b6000611fb96027836124e5565b7f53616665436173743a2076616c756520646f65736e27742066697420696e203181527f3238206269747300000000000000000000000000000000000000000000000000602082015260400192915050565b60006120186020836124e5565b7f5361666545524332303a206c6f772d6c6576656c2063616c6c206661696c6564815260200192915050565b6000612051601e836124e5565b7f41646d696e61626c653a2063616c6c6572206973206e6f742061646d696e0000815260200192915050565b600061208a6025836124e5565b7f4e6f74207065726d697474656420647572696e672066696e616c20736574746c81527f656d656e74000000000000000000000000000000000000000000000000000000602082015260400192915050565b60006120e96021836124e5565b7f536166654d6174683a206d756c7469706c69636174696f6e206f766572666c6f81527f7700000000000000000000000000000000000000000000000000000000000000602082015260400192915050565b60006121486025836124e5565b7f4e6577206f7261636c652063616e6e6f742072657475726e2061207a65726f2081527f7072696365000000000000000000000000000000000000000000000000000000602082015260400192915050565b60006121a76026836124e5565b7f53616665436173743a2076616c756520646f65736e27742066697420696e203381527f3220626974730000000000000000000000000000000000000000000000000000602082015260400192915050565b60006122066035836124e5565b7f4f7261636c652070726963652069732067726561746572207468616e2074686581527f2070726f766964656420757070657220626f756e640000000000000000000000602082015260400192915050565b6000612265602a836124e5565b7f5361666545524332303a204552433230206f7065726174696f6e20646964206e81527f6f74207375636365656400000000000000000000000000000000000000000000602082015260400192915050565b60006122c4601f836124e5565b7f5265656e7472616e637947756172643a207265656e7472616e742063616c6c00815260200192915050565b60006122fd601f836124e5565b7f5361666545524332303a2063616c6c20746f206e6f6e2d636f6e747261637400815260200192915050565b60006110fc8284611d87565b60208101610feb8284611d66565b604081016123518285611d66565b6110fc6020830184611d75565b6040810161236c8285611d66565b6110fc6020830184611d7e565b606081016123878286611d75565b6123946020830185611d7e565b611b916040830184611d7e565b60208101610feb8284611d7e565b60208101610feb8284611db6565b602080825281016110fc8184611dbf565b60208082528101610feb81611df7565b60208082528101610feb81611e56565b60208082528101610feb81611eb5565b60208082528101610feb81611f14565b60208082528101610feb81611f4d565b60208082528101610feb81611fac565b60208082528101610feb8161200b565b60208082528101610feb81612044565b60208082528101610feb8161207d565b60208082528101610feb816120dc565b60208082528101610feb8161213b565b60208082528101610feb8161219a565b60208082528101610feb816121f9565b60208082528101610feb81612258565b60208082528101610feb816122b7565b60208082528101610feb816122f0565b6040810161236c8285611d7e565b5190565b919050565b90815260200190565b6000610feb82612501565b151590565b90565b73ffffffffffffffffffffffffffffffffffffffff1690565b6000610feb826124fe565b60005b83811015612540578181015183820152602001612528565b83811115611a495750506000910152565b601f017fffffffffffffffffffffffffffffffffffffffffffffffffffffffffffffffe01690565b612582816124ee565b811461258d57600080fd5b50565b612582816124f9565b612582816124fe56fea365627a7a72315820e39921396c0f28aa0dde7b46c70448599e41782e9d3b8800e26d17e2473fff786c6578706572696d656e74616cf564736f6c63430005100040",
  "source": "/*\n\n    Copyright 2020 dYdX Trading Inc.\n\n    Licensed under the Apache License, Version 2.0 (the \"License\");\n    you may not use this file except in compliance with the License.\n    You may obtain a copy of the License at\n\n    http://www.apache.org/licenses/LICENSE-2.0\n\n    Unless required by applicable law or agreed to in writing, software\n    distributed under the License is distributed on an \"AS IS\" BASIS,\n    WITHOUT WARRANTIES OR CONDITIONS OF ANY KIND, either express or implied.\n    See the License for the specific language governing permissions and\n    limitations under the License.\n\n*/\n\npragma solidity 0.5.16;\npragma experimental ABIEncoderV2;\n\nimport { P1FinalSettlement } from \"./P1FinalSettlement.sol\";\nimport { P1Storage } from \"./P1Storage.sol\";\nimport { BaseMath } from \"../../lib/BaseMath.sol\";\nimport { I_P1Funder } from \"../intf/I_P1Funder.sol\";\nimport { I_P1Oracle } from \"../intf/I_P1Oracle.sol\";\nimport { P1Types } from \"../lib/P1Types.sol\";\n\n\n/**\n * @title P1Admin\n * @author dYdX\n *\n * @notice Contract allowing the Admin address to set certain parameters.\n */\ncontract P1Admin is\n    P1Storage,\n    P1FinalSettlement\n{\n    // ============ Events ============\n\n    event LogSetGlobalOperator(\n        address operator,\n        bool approved\n    );\n\n    event LogSetOracle(\n        address oracle\n    );\n\n    event LogSetFunder(\n        address funder\n    );\n\n    event LogSetMinCollateral(\n        uint256 minCollateral\n    );\n\n    event LogFinalSettlementEnabled(\n        uint256 settlementPrice\n    );\n\n    // ============ Functions ============\n\n    /**\n     * @notice Add or remove a Global Operator address.\n     * @dev Must be called by the PerpetualV1 admin. Emits the LogSetGlobalOperator event.\n     *\n     * @param  operator  The address for which to enable or disable global operator privileges.\n     * @param  approved  True if approved, false if disapproved.\n     */\n    function setGlobalOperator(\n        address operator,\n        bool approved\n    )\n        external\n        onlyAdmin\n        nonReentrant\n    {\n        _GLOBAL_OPERATORS_[operator] = approved;\n        emit LogSetGlobalOperator(operator, approved);\n    }\n\n    /**\n     * @notice Sets a new price oracle contract.\n     * @dev Must be called by the PerpetualV1 admin. Emits the LogSetOracle event.\n     *\n     * @param  oracle  The address of the new price oracle contract.\n     */\n    function setOracle(\n        address oracle\n    )\n        external\n        onlyAdmin\n        nonReentrant\n    {\n        require(\n            I_P1Oracle(oracle).getPrice() != 0,\n            \"New oracle cannot return a zero price\"\n        );\n        _ORACLE_ = oracle;\n        emit LogSetOracle(oracle);\n    }\n\n    /**\n     * @notice Sets a new funder contract.\n     * @dev Must be called by the PerpetualV1 admin. Emits the LogSetFunder event.\n     *\n     * @param  funder  The address of the new funder contract.\n     */\n    function setFunder(\n        address funder\n    )\n        external\n        onlyAdmin\n        nonReentrant\n    {\n        // call getFunding to ensure that no reverts occur\n        I_P1Funder(funder).getFunding(0);\n\n        _FUNDER_ = funder;\n        emit LogSetFunder(funder);\n    }\n\n    /**\n     * @notice Sets a new value for the minimum collateralization percentage.\n     * @dev Must be called by the PerpetualV1 admin. Emits the LogSetMinCollateral event.\n     *\n     * @param  minCollateral  The new value of the minimum initial collateralization percentage,\n     *                        as a fixed-point number with 18 decimals.\n     */\n    function setMinCollateral(\n        uint256 minCollateral\n    )\n        external\n        onlyAdmin\n        nonReentrant\n    {\n        require(\n            minCollateral >= BaseMath.base(),\n            \"The collateral requirement cannot be under 100%\"\n        );\n        _MIN_COLLATERAL_ = minCollateral;\n        emit LogSetMinCollateral(minCollateral);\n    }\n\n    /**\n     * @notice Enables final settlement if the oracle price is between the provided bounds.\n     * @dev Must be called by the PerpetualV1 admin. The current result of the price oracle\n     *  must be between the two bounds supplied. Emits the LogFinalSettlementEnabled event.\n     *\n     * @param  priceLowerBound  The lower-bound (inclusive) of the acceptable price range.\n     * @param  priceUpperBound  The upper-bound (inclusive) of the acceptable price range.\n     */\n    function enableFinalSettlement(\n        uint256 priceLowerBound,\n        uint256 priceUpperBound\n    )\n        external\n        onlyAdmin\n        noFinalSettlement\n        nonReentrant\n    {\n        // Update the Global Index and grab the Price.\n        P1Types.Context memory context = _loadContext();\n\n        // Check price bounds.\n        require(\n            context.price >= priceLowerBound,\n            \"Oracle price is less than the provided lower bound\"\n        );\n        require(\n            context.price <= priceUpperBound,\n            \"Oracle price is greater than the provided upper bound\"\n        );\n\n        // Save storage variables.\n        _FINAL_SETTLEMENT_PRICE_ = context.price;\n        _FINAL_SETTLEMENT_ENABLED_ = true;\n\n        emit LogFinalSettlementEnabled(_FINAL_SETTLEMENT_PRICE_);\n    }\n}\n",
  "sourcePath": "/Users/dennismacpro/Projects/Defi/Ethereum-Solidity-Collection/icarus-protocol/defi-seeder/.tmp/dydx-protocol/perpetual/contracts/protocol/v1/impl/P1Admin.sol",
  "compiler": {
    "name": "solc",
    "version": "0.5.16+commit.9c3226ce.Linux.g++"
  },
  "schemaVersion": "3.3.4",
  "updatedAt": "2021-04-01T16:42:57.375Z",
  "devdoc": {
    "author": "dYdX",
    "methods": {
      "enableFinalSettlement(uint256,uint256)": {
        "details": "Must be called by the PerpetualV1 admin. The current result of the price oracle must be between the two bounds supplied. Emits the LogFinalSettlementEnabled event.",
        "params": {
          "priceLowerBound": "The lower-bound (inclusive) of the acceptable price range.",
          "priceUpperBound": "The upper-bound (inclusive) of the acceptable price range."
        }
      },
      "getAdmin()": {
        "return": "The EIP-1967 proxy admin"
      },
      "setFunder(address)": {
        "details": "Must be called by the PerpetualV1 admin. Emits the LogSetFunder event.",
        "params": {
          "funder": "The address of the new funder contract."
        }
      },
      "setGlobalOperator(address,bool)": {
        "details": "Must be called by the PerpetualV1 admin. Emits the LogSetGlobalOperator event.",
        "params": {
          "approved": "True if approved, false if disapproved.",
          "operator": "The address for which to enable or disable global operator privileges."
        }
      },
      "setMinCollateral(uint256)": {
        "details": "Must be called by the PerpetualV1 admin. Emits the LogSetMinCollateral event.",
        "params": {
          "minCollateral": "The new value of the minimum initial collateralization percentage,                       as a fixed-point number with 18 decimals."
        }
      },
      "setOracle(address)": {
        "details": "Must be called by the PerpetualV1 admin. Emits the LogSetOracle event.",
        "params": {
          "oracle": "The address of the new price oracle contract."
        }
      },
      "withdrawFinalSettlement()": {
        "details": "Emits the LogAccountSettled and LogWithdrawFinalSettlement events."
      }
    },
    "title": "P1Admin"
  },
  "userdoc": {
    "methods": {
      "enableFinalSettlement(uint256,uint256)": {
        "notice": "Enables final settlement if the oracle price is between the provided bounds."
      },
      "setFunder(address)": {
        "notice": "Sets a new funder contract."
      },
      "setGlobalOperator(address,bool)": {
        "notice": "Add or remove a Global Operator address."
      },
      "setMinCollateral(uint256)": {
        "notice": "Sets a new value for the minimum collateralization percentage."
      },
      "setOracle(address)": {
        "notice": "Sets a new price oracle contract."
      },
      "withdrawFinalSettlement()": {
        "notice": "Withdraw the number of margin tokens equal to the value of the account at the time that final settlement occurred."
      }
    },
    "notice": "Contract allowing the Admin address to set certain parameters."
  }
}