{
  "contractName": "P1ChainlinkOracle",
  "abi": [
    {
      "inputs": [
        {
          "internalType": "address",
          "name": "oracle",
          "type": "address"
        },
        {
          "internalType": "address",
          "name": "reader",
          "type": "address"
        },
        {
          "internalType": "uint96",
          "name": "adjustmentExponent",
          "type": "uint96"
        }
      ],
      "payable": false,
      "stateMutability": "nonpayable",
      "type": "constructor"
    },
    {
      "constant": true,
      "inputs": [],
      "name": "_ADJUSTMENT_",
      "outputs": [
        {
          "internalType": "uint256",
          "name": "",
          "type": "uint256"
        }
      ],
      "payable": false,
      "stateMutability": "view",
      "type": "function"
    },
    {
      "constant": true,
      "inputs": [
        {
          "internalType": "address",
          "name": "",
          "type": "address"
        }
      ],
      "name": "_MAPPING_",
      "outputs": [
        {
          "internalType": "bytes32",
          "name": "",
          "type": "bytes32"
        }
      ],
      "payable": false,
      "stateMutability": "view",
      "type": "function"
    },
    {
      "constant": true,
      "inputs": [],
      "name": "_ORACLE_",
      "outputs": [
        {
          "internalType": "address",
          "name": "",
          "type": "address"
        }
      ],
      "payable": false,
      "stateMutability": "view",
      "type": "function"
    },
    {
      "constant": true,
      "inputs": [],
      "name": "_READER_",
      "outputs": [
        {
          "internalType": "address",
          "name": "",
          "type": "address"
        }
      ],
      "payable": false,
      "stateMutability": "view",
      "type": "function"
    },
    {
      "constant": true,
      "inputs": [],
      "name": "getPrice",
      "outputs": [
        {
          "internalType": "uint256",
          "name": "",
          "type": "uint256"
        }
      ],
      "payable": false,
      "stateMutability": "view",
      "type": "function"
    }
  ],
  "bytecode": "0x608060405234801561001057600080fd5b506040516107d83803806107d883398101604081905261002f916100b2565b600080546001600160a01b03199081166001600160a01b0386811691909117835560018054909216941693841790556001600160601b0391909116600a81900a60025591815260036020526040902060609290921b6001600160601b03191617905561013c565b80516100a18161011c565b92915050565b80516100a181610133565b6000806000606084860312156100c757600080fd5b60006100d38686610096565b93505060206100e486828701610096565b92505060406100f5868287016100a7565b9150509250925092565b60006001600160a01b0382166100a1565b6001600160601b031690565b610125816100ff565b811461013057600080fd5b50565b61012581610110565b61068d8061014b6000396000f3fe608060405234801561001057600080fd5b50600436106100675760003560e01c8063939a543911610050578063939a54391461009257806398d5fdca146100a7578063c1f75961146100af57610067565b806367b141ee1461006c57806373a2ab7c1461008a575b600080fd5b6100746100c2565b6040516100819190610541565b60405180910390f35b6100746100de565b61009a6100fa565b604051610081919061054f565b61009a610100565b61009a6100bd366004610390565b610237565b60015473ffffffffffffffffffffffffffffffffffffffff1681565b60005473ffffffffffffffffffffffffffffffffffffffff1681565b60025481565b3360009081526003602052604081205480610150576040517f08c379a00000000000000000000000000000000000000000000000000000000081526004016101479061056e565b60405180910390fd5b60008061015c83610249565b9150915060008273ffffffffffffffffffffffffffffffffffffffff166350d25bcd6040518163ffffffff1660e01b815260040160206040518083038186803b1580156101a857600080fd5b505afa1580156101bc573d6000803e3d6000fd5b505050506040513d601f19601f820116820180604052506101e091908101906103b6565b90506000811361021c576040517f08c379a00000000000000000000000000000000000000000000000000000000081526004016101479061058e565b8061022d818463ffffffff61026516565b9550505050505090565b60036020526000908152604090205481565b606081901c6bffffffffffffffffffffffff8216600a0a915091565b600061028f670de0b6b3a7640000610283858563ffffffff61029816565b9063ffffffff6102ec16565b90505b92915050565b6000826102a757506000610292565b828202828482816102b457fe5b041461028f576040517f08c379a00000000000000000000000000000000000000000000000000000000081526004016101479061057e565b600061028f83836040518060400160405280601a81526020017f536166654d6174683a206469766973696f6e206279207a65726f00000000000081525060008183610364576040517f08c379a0000000000000000000000000000000000000000000000000000000008152600401610147919061055d565b50600083858161037057fe5b0495945050505050565b80356102928161062a565b805161029281610641565b6000602082840312156103a257600080fd5b60006103ae848461037a565b949350505050565b6000602082840312156103c857600080fd5b60006103ae8484610385565b6103dd816105ab565b82525050565b6103dd816105b6565b60006103f78261059e565b61040181856105a2565b93506104118185602086016105d2565b61041a81610602565b9093019392505050565b60006104316035836105a2565b7f5031436861696e6c696e6b4f7261636c653a2053656e646572206e6f7420617581527f74686f72697a656420746f206765742070726963650000000000000000000000602082015260400192915050565b60006104906021836105a2565b7f536166654d6174683a206d756c7469706c69636174696f6e206f766572666c6f81527f7700000000000000000000000000000000000000000000000000000000000000602082015260400192915050565b60006104ef6031836105a2565b7f5031436861696e6c696e6b4f7261636c653a20496e76616c696420616e73776581527f722066726f6d2061676772656761746f72000000000000000000000000000000602082015260400192915050565b6020810161029282846103d4565b6020810161029282846103e3565b6020808252810161028f81846103ec565b6020808252810161029281610424565b6020808252810161029281610483565b60208082528101610292816104e2565b5190565b90815260200190565b6000610292826105b9565b90565b73ffffffffffffffffffffffffffffffffffffffff1690565b60005b838110156105ed5781810151838201526020016105d5565b838111156105fc576000848401525b50505050565b601f017fffffffffffffffffffffffffffffffffffffffffffffffffffffffffffffffe01690565b610633816105ab565b811461063e57600080fd5b50565b610633816105b656fea365627a7a72315820073f6d449d669cbe4e7b354a7dbcc7e4bbde57448eddaa094c539b2d3cceb4ea6c6578706572696d656e74616cf564736f6c63430005100040",
  "source": "/*\n\n    Copyright 2020 dYdX Trading Inc.\n\n    Licensed under the Apache License, Version 2.0 (the \"License\");\n    you may not use this file except in compliance with the License.\n    You may obtain a copy of the License at\n\n    http://www.apache.org/licenses/LICENSE-2.0\n\n    Unless required by applicable law or agreed to in writing, software\n    distributed under the License is distributed on an \"AS IS\" BASIS,\n    WITHOUT WARRANTIES OR CONDITIONS OF ANY KIND, either express or implied.\n    See the License for the specific language governing permissions and\n    limitations under the License.\n\n*/\n\npragma solidity 0.5.16;\npragma experimental ABIEncoderV2;\n\nimport { I_Aggregator } from \"../../../external/chainlink/I_Aggregator.sol\";\nimport { BaseMath } from \"../../lib/BaseMath.sol\";\nimport { I_P1Oracle } from \"../intf/I_P1Oracle.sol\";\n\n\n/**\n * @title P1ChainlinkOracle\n * @author dYdX\n *\n * @notice P1Oracle that reads the price from a Chainlink aggregator.\n */\ncontract P1ChainlinkOracle is\n    I_P1Oracle\n{\n    using BaseMath for uint256;\n\n    // ============ Storage ============\n\n    // The underlying aggregator to get the price from.\n    address public _ORACLE_;\n\n    // The address with permission to read the oracle price.\n    address public _READER_;\n\n    // A constant factor to adjust the price by, as a fixed-point number with 18 decimal places.\n    uint256 public _ADJUSTMENT_;\n\n    // Compact storage for the above parameters.\n    mapping (address => bytes32) public _MAPPING_;\n\n    // ============ Constructor ============\n\n    constructor(\n        address oracle,\n        address reader,\n        uint96 adjustmentExponent\n    )\n        public\n    {\n        _ORACLE_ = oracle;\n        _READER_ = reader;\n        _ADJUSTMENT_ = 10 ** uint256(adjustmentExponent);\n\n        bytes32 oracleAndAdjustment =\n            bytes32(bytes20(oracle)) |\n            bytes32(uint256(adjustmentExponent));\n        _MAPPING_[reader] = oracleAndAdjustment;\n    }\n\n    // ============ Public Functions ============\n\n    /**\n     * @notice Returns the oracle price from the aggregator.\n     *\n     * @return The adjusted price as a fixed-point number with 18 decimals.\n     */\n    function getPrice()\n        external\n        view\n        returns (uint256)\n    {\n        bytes32 oracleAndExponent = _MAPPING_[msg.sender];\n        require(\n            oracleAndExponent != bytes32(0),\n            \"P1ChainlinkOracle: Sender not authorized to get price\"\n        );\n        (address oracle, uint256 adjustment) = getOracleAndAdjustment(oracleAndExponent);\n        int256 answer = I_Aggregator(oracle).latestAnswer();\n        require(\n            answer > 0,\n            \"P1ChainlinkOracle: Invalid answer from aggregator\"\n        );\n        uint256 rawPrice = uint256(answer);\n        return rawPrice.baseMul(adjustment);\n    }\n\n    function getOracleAndAdjustment(\n        bytes32 oracleAndExponent\n    )\n        private\n        pure\n        returns (address, uint256)\n    {\n        address oracle = address(bytes20(oracleAndExponent));\n        uint256 exponent = uint256(uint96(uint256(oracleAndExponent)));\n        return (oracle, 10 ** exponent);\n    }\n}\n",
  "sourcePath": "/Users/dennismacpro/Projects/Defi/Ethereum-Solidity-Collection/icarus-protocol/defi-seeder/.tmp/dydx-protocol/perpetual/contracts/protocol/v1/oracles/P1ChainlinkOracle.sol",
  "compiler": {
    "name": "solc",
    "version": "0.5.16+commit.9c3226ce.Linux.g++"
  },
  "schemaVersion": "3.3.4",
  "updatedAt": "2021-04-01T16:42:57.401Z",
  "devdoc": {
    "author": "dYdX",
    "methods": {
      "getPrice()": {
        "return": "The adjusted price as a fixed-point number with 18 decimals."
      }
    },
    "title": "P1ChainlinkOracle"
  },
  "userdoc": {
    "methods": {
      "getPrice()": {
        "notice": "Returns the oracle price from the aggregator."
      }
    },
    "notice": "P1Oracle that reads the price from a Chainlink aggregator."
  }
}