{
  "contractName": "P1CurrencyConverterProxy",
  "abi": [
    {
      "anonymous": false,
      "inputs": [
        {
          "indexed": true,
          "internalType": "address",
          "name": "account",
          "type": "address"
        },
        {
          "indexed": false,
          "internalType": "address",
          "name": "source",
          "type": "address"
        },
        {
          "indexed": false,
          "internalType": "address",
          "name": "perpetual",
          "type": "address"
        },
        {
          "indexed": false,
          "internalType": "address",
          "name": "exchangeWrapper",
          "type": "address"
        },
        {
          "indexed": false,
          "internalType": "address",
          "name": "tokenFrom",
          "type": "address"
        },
        {
          "indexed": false,
          "internalType": "address",
          "name": "tokenTo",
          "type": "address"
        },
        {
          "indexed": false,
          "internalType": "uint256",
          "name": "tokenFromAmount",
          "type": "uint256"
        },
        {
          "indexed": false,
          "internalType": "uint256",
          "name": "tokenToAmount",
          "type": "uint256"
        }
      ],
      "name": "LogConvertedDeposit",
      "type": "event"
    },
    {
      "anonymous": false,
      "inputs": [
        {
          "indexed": true,
          "internalType": "address",
          "name": "account",
          "type": "address"
        },
        {
          "indexed": false,
          "internalType": "address",
          "name": "destination",
          "type": "address"
        },
        {
          "indexed": false,
          "internalType": "address",
          "name": "perpetual",
          "type": "address"
        },
        {
          "indexed": false,
          "internalType": "address",
          "name": "exchangeWrapper",
          "type": "address"
        },
        {
          "indexed": false,
          "internalType": "address",
          "name": "tokenFrom",
          "type": "address"
        },
        {
          "indexed": false,
          "internalType": "address",
          "name": "tokenTo",
          "type": "address"
        },
        {
          "indexed": false,
          "internalType": "uint256",
          "name": "tokenFromAmount",
          "type": "uint256"
        },
        {
          "indexed": false,
          "internalType": "uint256",
          "name": "tokenToAmount",
          "type": "uint256"
        }
      ],
      "name": "LogConvertedWithdrawal",
      "type": "event"
    },
    {
      "constant": false,
      "inputs": [
        {
          "internalType": "address",
          "name": "perpetual",
          "type": "address"
        }
      ],
      "name": "approveMaximumOnPerpetual",
      "outputs": [],
      "payable": false,
      "stateMutability": "nonpayable",
      "type": "function"
    },
    {
      "constant": false,
      "inputs": [
        {
          "internalType": "address",
          "name": "account",
          "type": "address"
        },
        {
          "internalType": "address",
          "name": "perpetual",
          "type": "address"
        },
        {
          "internalType": "address",
          "name": "exchangeWrapper",
          "type": "address"
        },
        {
          "internalType": "address",
          "name": "tokenFrom",
          "type": "address"
        },
        {
          "internalType": "uint256",
          "name": "tokenFromAmount",
          "type": "uint256"
        },
        {
          "internalType": "bytes",
          "name": "data",
          "type": "bytes"
        }
      ],
      "name": "deposit",
      "outputs": [
        {
          "internalType": "uint256",
          "name": "",
          "type": "uint256"
        }
      ],
      "payable": false,
      "stateMutability": "nonpayable",
      "type": "function"
    },
    {
      "constant": false,
      "inputs": [
        {
          "internalType": "address",
          "name": "account",
          "type": "address"
        },
        {
          "internalType": "address",
          "name": "destination",
          "type": "address"
        },
        {
          "internalType": "address",
          "name": "perpetual",
          "type": "address"
        },
        {
          "internalType": "address",
          "name": "exchangeWrapper",
          "type": "address"
        },
        {
          "internalType": "address",
          "name": "tokenTo",
          "type": "address"
        },
        {
          "internalType": "uint256",
          "name": "tokenFromAmount",
          "type": "uint256"
        },
        {
          "internalType": "bytes",
          "name": "data",
          "type": "bytes"
        }
      ],
      "name": "withdraw",
      "outputs": [
        {
          "internalType": "uint256",
          "name": "",
          "type": "uint256"
        }
      ],
      "payable": false,
      "stateMutability": "nonpayable",
      "type": "function"
    }
  ],
  "bytecode": "0x608060405234801561001057600080fd5b506111cd806100206000396000f3fe608060405234801561001057600080fd5b50600436106100415760003560e01c80635b3901f614610046578063b13b8d0a1461006f578063fe0f885814610082575b600080fd5b610059610054366004610b58565b610097565b60405161006691906110a4565b60405180910390f35b61005961007d366004610c10565b6103df565b610095610090366004610b1c565b61062f565b005b60008087905060008173ffffffffffffffffffffffffffffffffffffffff166328b7bede6040518163ffffffff1660e01b815260040160206040518083038186803b1580156100e557600080fd5b505afa1580156100f9573d6000803e3d6000fd5b505050506040513d601f19601f8201168201806040525061011d9190810190610b3a565b90503073ffffffffffffffffffffffffffffffffffffffff8c163314806101e357506040517f84ea286200000000000000000000000000000000000000000000000000000000815273ffffffffffffffffffffffffffffffffffffffff8416906384ea286290610193908f903390600401610fe8565b60206040518083038186803b1580156101ab57600080fd5b505afa1580156101bf573d6000803e3d6000fd5b505050506040513d601f19601f820116820180604052506101e39190810190610cb5565b610222576040517f08c379a000000000000000000000000000000000000000000000000000000000815260040161021990611054565b60405180910390fd5b6040517fd9caed1200000000000000000000000000000000000000000000000000000000815273ffffffffffffffffffffffffffffffffffffffff84169063d9caed1290610278908f908d908c90600401611011565b600060405180830381600087803b15801561029257600080fd5b505af11580156102a6573d6000803e3d6000fd5b50505050600089905060008173ffffffffffffffffffffffffffffffffffffffff16637d98ebac33858d888e8e8e6040518863ffffffff1660e01b81526004016102f69796959493929190610f6b565b602060405180830381600087803b15801561031057600080fd5b505af1158015610324573d6000803e3d6000fd5b505050506040513d601f19601f820116820180604052506103489190810190610cd3565b905061037273ffffffffffffffffffffffffffffffffffffffff8b168c8f8463ffffffff61072416565b8d73ffffffffffffffffffffffffffffffffffffffff167f80ff1ccb23c5efa0821893d4924d2f4abe9ddf65316ec0f50606c0642f1d13678e8e8e888f8f886040516103c49796959493929190611003565b60405180910390a29450505050505b98975050505050505050565b60008087905060008173ffffffffffffffffffffffffffffffffffffffff166328b7bede6040518163ffffffff1660e01b815260040160206040518083038186803b15801561042d57600080fd5b505afa158015610441573d6000803e3d6000fd5b505050506040513d601f19601f820116820180604052506104659190810190610b3a565b90503061049073ffffffffffffffffffffffffffffffffffffffff8916338b8a63ffffffff61072416565b600089905060008173ffffffffffffffffffffffffffffffffffffffff16637d98ebac3385878e8e8e8e6040518863ffffffff1660e01b81526004016104dc9796959493929190610f6b565b602060405180830381600087803b1580156104f657600080fd5b505af115801561050a573d6000803e3d6000fd5b505050506040513d601f19601f8201168201806040525061052e9190810190610cd3565b905061055873ffffffffffffffffffffffffffffffffffffffff85168c858463ffffffff61072416565b8473ffffffffffffffffffffffffffffffffffffffff166347e7ef248e836040518363ffffffff1660e01b8152600401610593929190611039565b600060405180830381600087803b1580156105ad57600080fd5b505af11580156105c1573d6000803e3d6000fd5b505050508c73ffffffffffffffffffffffffffffffffffffffff167fb82979dec0b27d2050fc2ec2e499e291b29e8ce7d4cfd1f711b2557d5e609c08338e8e8e898f886040516106179796959493929190610f0f565b60405180910390a29c9b505050505050505050505050565b60008173ffffffffffffffffffffffffffffffffffffffff166328b7bede6040518163ffffffff1660e01b815260040160206040518083038186803b15801561067757600080fd5b505afa15801561068b573d6000803e3d6000fd5b505050506040513d601f19601f820116820180604052506106af9190810190610b3a565b90506106d973ffffffffffffffffffffffffffffffffffffffff821683600063ffffffff6107e916565b61072073ffffffffffffffffffffffffffffffffffffffff8216837fffffffffffffffffffffffffffffffffffffffffffffffffffffffffffffffff63ffffffff6107e916565b5050565b6040516107e39085907f23b872dd000000000000000000000000000000000000000000000000000000009061076190879087908790602401611011565b604080517fffffffffffffffffffffffffffffffffffffffffffffffffffffffffffffffe08184030181529190526020810180517bffffffffffffffffffffffffffffffffffffffffffffffffffffffff167fffffffff000000000000000000000000000000000000000000000000000000009093169290921790915261090d565b50505050565b80158061089757506040517fdd62ed3e00000000000000000000000000000000000000000000000000000000815273ffffffffffffffffffffffffffffffffffffffff84169063dd62ed3e906108459030908690600401610fcd565b60206040518083038186803b15801561085d57600080fd5b505afa158015610871573d6000803e3d6000fd5b505050506040513d601f19601f820116820180604052506108959190810190610cd3565b155b6108cd576040517f08c379a000000000000000000000000000000000000000000000000000000000815260040161021990611084565b6040516109089084907f095ea7b300000000000000000000000000000000000000000000000000000000906107619086908690602401611039565b505050565b61092c8273ffffffffffffffffffffffffffffffffffffffff16610a5a565b610962576040517f08c379a000000000000000000000000000000000000000000000000000000000815260040161021990611094565b600060608373ffffffffffffffffffffffffffffffffffffffff168360405161098b9190610efc565b6000604051808303816000865af19150503d80600081146109c8576040519150601f19603f3d011682016040523d82523d6000602084013e6109cd565b606091505b509150915081610a09576040517f08c379a000000000000000000000000000000000000000000000000000000000815260040161021990611064565b8051156107e35780806020019051610a249190810190610cb5565b6107e3576040517f08c379a000000000000000000000000000000000000000000000000000000000815260040161021990611074565b6000813f7fc5d2460186f7233c927e7db2dcc703c0e500b653ca82273b7bfad8045d85a470818114801590610a8e57508115155b949350505050565b8035610aa181611161565b92915050565b8051610aa181611161565b8051610aa181611178565b60008083601f840112610acf57600080fd5b50813567ffffffffffffffff811115610ae757600080fd5b602083019150836001820283011115610aff57600080fd5b9250929050565b8035610aa181611181565b8051610aa181611181565b600060208284031215610b2e57600080fd5b6000610a8e8484610a96565b600060208284031215610b4c57600080fd5b6000610a8e8484610aa7565b60008060008060008060008060e0898b031215610b7457600080fd5b6000610b808b8b610a96565b9850506020610b918b828c01610a96565b9750506040610ba28b828c01610a96565b9650506060610bb38b828c01610a96565b9550506080610bc48b828c01610a96565b94505060a0610bd58b828c01610b06565b93505060c089013567ffffffffffffffff811115610bf257600080fd5b610bfe8b828c01610abd565b92509250509295985092959890939650565b600080600080600080600060c0888a031215610c2b57600080fd5b6000610c378a8a610a96565b9750506020610c488a828b01610a96565b9650506040610c598a828b01610a96565b9550506060610c6a8a828b01610a96565b9450506080610c7b8a828b01610b06565b93505060a088013567ffffffffffffffff811115610c9857600080fd5b610ca48a828b01610abd565b925092505092959891949750929550565b600060208284031215610cc757600080fd5b6000610a8e8484610ab2565b600060208284031215610ce557600080fd5b6000610a8e8484610b11565b610cfa816110f0565b82525050565b610cfa816110c4565b6000610d1583856110b6565b9350610d22838584611101565b610d2b83611139565b9093019392505050565b6000610d40826110b2565b610d4a81856110bf565b9350610d5a81856020860161110d565b9290920192915050565b6000610d716025836110b6565b7f6d73672e73656e6465722063616e6e6f74206f7065726174652074686520616381527f636f756e74000000000000000000000000000000000000000000000000000000602082015260400192915050565b6000610dd06020836110b6565b7f5361666545524332303a206c6f772d6c6576656c2063616c6c206661696c6564815260200192915050565b6000610e09602a836110b6565b7f5361666545524332303a204552433230206f7065726174696f6e20646964206e81527f6f74207375636365656400000000000000000000000000000000000000000000602082015260400192915050565b6000610e686036836110b6565b7f5361666545524332303a20617070726f76652066726f6d206e6f6e2d7a65726f81527f20746f206e6f6e2d7a65726f20616c6c6f77616e636500000000000000000000602082015260400192915050565b6000610ec7601f836110b6565b7f5361666545524332303a2063616c6c20746f206e6f6e2d636f6e747261637400815260200192915050565b610cfa816110ed565b6000610f088284610d35565b9392505050565b60e08101610f1d828a610cf1565b610f2a6020830189610d00565b610f376040830188610d00565b610f446060830187610d00565b610f516080830186610d00565b610f5e60a0830185610ef3565b6103d360c0830184610ef3565b60c08101610f79828a610cf1565b610f866020830189610d00565b610f936040830188610d00565b610fa06060830187610d00565b610fad6080830186610ef3565b81810360a0830152610fc0818486610d09565b9998505050505050505050565b60408101610fdb8285610d00565b610f086020830184610d00565b60408101610ff68285610d00565b610f086020830184610cf1565b60e08101610f1d828a610d00565b6060810161101f8286610d00565b61102c6020830185610d00565b610a8e6040830184610ef3565b604081016110478285610d00565b610f086020830184610ef3565b60208082528101610aa181610d64565b60208082528101610aa181610dc3565b60208082528101610aa181610dfc565b60208082528101610aa181610e5b565b60208082528101610aa181610eba565b60208101610aa18284610ef3565b5190565b90815260200190565b919050565b6000610aa1826110d4565b151590565b73ffffffffffffffffffffffffffffffffffffffff1690565b90565b6000610aa1826000610aa1826110c4565b82818337506000910152565b60005b83811015611128578181015183820152602001611110565b838111156107e35750506000910152565b601f017fffffffffffffffffffffffffffffffffffffffffffffffffffffffffffffffe01690565b61116a816110c4565b811461117557600080fd5b50565b61116a816110cf565b61116a816110ed56fea365627a7a72315820bbbe405022892efed15b5701639bcb37a1505b704db3c58f57ad7958c13cb53c6c6578706572696d656e74616cf564736f6c63430005100040",
  "source": "/*\n\n    Copyright 2020 dYdX Trading Inc.\n\n    Licensed under the Apache License, Version 2.0 (the \"License\");\n    you may not use this file except in compliance with the License.\n    You may obtain a copy of the License at\n\n    http://www.apache.org/licenses/LICENSE-2.0\n\n    Unless required by applicable law or agreed to in writing, software\n    distributed under the License is distributed on an \"AS IS\" BASIS,\n    WITHOUT WARRANTIES OR CONDITIONS OF ANY KIND, either express or implied.\n    See the License for the specific language governing permissions and\n    limitations under the License.\n\n*/\n\npragma solidity 0.5.16;\npragma experimental ABIEncoderV2;\n\nimport { IERC20 } from \"@openzeppelin/contracts/token/ERC20/IERC20.sol\";\nimport { SafeERC20 } from \"@openzeppelin/contracts/token/ERC20/SafeERC20.sol\";\nimport { I_ExchangeWrapper } from \"../../../external/I_ExchangeWrapper.sol\";\nimport { I_PerpetualV1 } from \"../intf/I_PerpetualV1.sol\";\n\n\n/**\n * @title P1CurrencyConverterProxy\n * @author dYdX\n *\n * @notice Proxy contract which executes a trade via an ExchangeWrapper before making a deposit\n *  or after making a withdrawal.\n */\ncontract P1CurrencyConverterProxy {\n    using SafeERC20 for IERC20;\n\n    // ============ Events ============\n\n    event LogConvertedDeposit(\n        address indexed account,\n        address source,\n        address perpetual,\n        address exchangeWrapper,\n        address tokenFrom,\n        address tokenTo,\n        uint256 tokenFromAmount,\n        uint256 tokenToAmount\n    );\n\n    event LogConvertedWithdrawal(\n        address indexed account,\n        address destination,\n        address perpetual,\n        address exchangeWrapper,\n        address tokenFrom,\n        address tokenTo,\n        uint256 tokenFromAmount,\n        uint256 tokenToAmount\n    );\n\n    // ============ State-Changing Functions ============\n\n    /**\n     * @notice Sets the maximum allowance on the Perpetual contract. Must be called at least once\n     *  on a given Perpetual before deposits can be made.\n     * @dev Cannot be run in the constructor due to technical restrictions in Solidity.\n     */\n    function approveMaximumOnPerpetual(\n        address perpetual\n    )\n        external\n    {\n        IERC20 tokenContract = IERC20(I_PerpetualV1(perpetual).getTokenContract());\n\n        // safeApprove requires unsetting the allowance first.\n        tokenContract.safeApprove(perpetual, 0);\n\n        // Set the allowance to the highest possible value.\n        tokenContract.safeApprove(perpetual, uint256(-1));\n    }\n\n    /**\n     * @notice Make a margin deposit to a Perpetual, after converting funds to the margin currency.\n     *  Funds will be withdrawn from the sender and deposited into the specified account.\n     * @dev Emits LogConvertedDeposit event.\n     *\n     * @param  account          The account for which to credit the deposit.\n     * @param  perpetual        The PerpetualV1 contract to deposit to.\n     * @param  exchangeWrapper  The ExchangeWrapper contract to trade with.\n     * @param  tokenFrom        The token to convert from.\n     * @param  tokenFromAmount  The amount of `tokenFrom` tokens to deposit.\n     * @param  data             Trade parameters for the ExchangeWrapper.\n     */\n    function deposit(\n        address account,\n        address perpetual,\n        address exchangeWrapper,\n        address tokenFrom,\n        uint256 tokenFromAmount,\n        bytes calldata data\n    )\n        external\n        returns (uint256)\n    {\n        I_PerpetualV1 perpetualContract = I_PerpetualV1(perpetual);\n        address tokenTo = perpetualContract.getTokenContract();\n        address self = address(this);\n\n        // Send fromToken to the ExchangeWrapper.\n        //\n        // TODO: Take possible ERC20 fee into account.\n        IERC20(tokenFrom).safeTransferFrom(\n            msg.sender,\n            exchangeWrapper,\n            tokenFromAmount\n        );\n\n        // Convert fromToken to toToken on the ExchangeWrapper.\n        I_ExchangeWrapper exchangeWrapperContract = I_ExchangeWrapper(exchangeWrapper);\n        uint256 tokenToAmount = exchangeWrapperContract.exchange(\n            msg.sender,\n            self,\n            tokenTo,\n            tokenFrom,\n            tokenFromAmount,\n            data\n        );\n\n        // Receive toToken from the ExchangeWrapper.\n        IERC20(tokenTo).safeTransferFrom(\n            exchangeWrapper,\n            self,\n            tokenToAmount\n        );\n\n        // Deposit toToken to the Perpetual.\n        perpetualContract.deposit(\n            account,\n            tokenToAmount\n        );\n\n        // Log the result.\n        emit LogConvertedDeposit(\n            account,\n            msg.sender,\n            perpetual,\n            exchangeWrapper,\n            tokenFrom,\n            tokenTo,\n            tokenFromAmount,\n            tokenToAmount\n        );\n\n        return tokenToAmount;\n    }\n\n    /**\n     * @notice Withdraw margin from a Perpetual, then convert the funds to another currency. Funds\n     *  will be withdrawn from the specified account and transfered to the specified destination.\n     * @dev Emits LogConvertedWithdrawal event.\n     *\n     * @param  account          The account to withdraw from.\n     * @param  destination      The address to send the withdrawn funds to.\n     * @param  perpetual        The PerpetualV1 contract to withdraw from to.\n     * @param  exchangeWrapper  The ExchangeWrapper contract to trade with.\n     * @param  tokenTo          The token to convert to.\n     * @param  tokenFromAmount  The amount of `tokenFrom` tokens to withdraw.\n     * @param  data             Trade parameters for the ExchangeWrapper.\n     */\n    function withdraw(\n        address account,\n        address destination,\n        address perpetual,\n        address exchangeWrapper,\n        address tokenTo,\n        uint256 tokenFromAmount,\n        bytes calldata data\n    )\n        external\n        returns (uint256)\n    {\n        I_PerpetualV1 perpetualContract = I_PerpetualV1(perpetual);\n        address tokenFrom = perpetualContract.getTokenContract();\n        address self = address(this);\n\n        // Verify that the sender has permission to withdraw from the account.\n        require(\n            account == msg.sender || perpetualContract.hasAccountPermissions(account, msg.sender),\n            \"msg.sender cannot operate the account\"\n        );\n\n        // Withdraw fromToken from the Perpetual.\n        perpetualContract.withdraw(\n            account,\n            exchangeWrapper,\n            tokenFromAmount\n        );\n\n        // Convert fromToken to toToken on the ExchangeWrapper.\n        I_ExchangeWrapper exchangeWrapperContract = I_ExchangeWrapper(exchangeWrapper);\n        uint256 tokenToAmount = exchangeWrapperContract.exchange(\n            msg.sender,\n            self,\n            tokenTo,\n            tokenFrom,\n            tokenFromAmount,\n            data\n        );\n\n        // Transfer toToken from the ExchangeWrapper to the destination address.\n        IERC20(tokenTo).safeTransferFrom(\n            exchangeWrapper,\n            destination,\n            tokenToAmount\n        );\n\n        // Log the result.\n        emit LogConvertedWithdrawal(\n            account,\n            destination,\n            perpetual,\n            exchangeWrapper,\n            tokenFrom,\n            tokenTo,\n            tokenFromAmount,\n            tokenToAmount\n        );\n\n        return tokenToAmount;\n    }\n}\n",
  "sourcePath": "/Users/dennismacpro/Projects/Defi/Ethereum-Solidity-Collection/icarus-protocol/defi-seeder/.tmp/dydx-protocol/perpetual/contracts/protocol/v1/proxies/P1CurrencyConverterProxy.sol",
  "compiler": {
    "name": "solc",
    "version": "0.5.16+commit.9c3226ce.Linux.g++"
  },
  "schemaVersion": "3.3.4",
  "updatedAt": "2021-04-01T16:42:57.425Z",
  "devdoc": {
    "author": "dYdX",
    "methods": {
      "approveMaximumOnPerpetual(address)": {
        "details": "Cannot be run in the constructor due to technical restrictions in Solidity."
      },
      "deposit(address,address,address,address,uint256,bytes)": {
        "details": "Emits LogConvertedDeposit event.",
        "params": {
          "account": "The account for which to credit the deposit.",
          "data": "Trade parameters for the ExchangeWrapper.",
          "exchangeWrapper": "The ExchangeWrapper contract to trade with.",
          "perpetual": "The PerpetualV1 contract to deposit to.",
          "tokenFrom": "The token to convert from.",
          "tokenFromAmount": "The amount of `tokenFrom` tokens to deposit."
        }
      },
      "withdraw(address,address,address,address,address,uint256,bytes)": {
        "details": "Emits LogConvertedWithdrawal event.",
        "params": {
          "account": "The account to withdraw from.",
          "data": "Trade parameters for the ExchangeWrapper.",
          "destination": "The address to send the withdrawn funds to.",
          "exchangeWrapper": "The ExchangeWrapper contract to trade with.",
          "perpetual": "The PerpetualV1 contract to withdraw from to.",
          "tokenFromAmount": "The amount of `tokenFrom` tokens to withdraw.",
          "tokenTo": "The token to convert to."
        }
      }
    },
    "title": "P1CurrencyConverterProxy"
  },
  "userdoc": {
    "methods": {
      "approveMaximumOnPerpetual(address)": {
        "notice": "Sets the maximum allowance on the Perpetual contract. Must be called at least once on a given Perpetual before deposits can be made."
      },
      "deposit(address,address,address,address,uint256,bytes)": {
        "notice": "Make a margin deposit to a Perpetual, after converting funds to the margin currency. Funds will be withdrawn from the sender and deposited into the specified account."
      },
      "withdraw(address,address,address,address,address,uint256,bytes)": {
        "notice": "Withdraw margin from a Perpetual, then convert the funds to another currency. Funds will be withdrawn from the specified account and transfered to the specified destination."
      }
    },
    "notice": "Proxy contract which executes a trade via an ExchangeWrapper before making a deposit or after making a withdrawal."
  }
}