{
  "contractName": "P1Deleveraging",
  "abi": [
    {
      "inputs": [
        {
          "internalType": "address",
          "name": "perpetualV1",
          "type": "address"
        },
        {
          "internalType": "address",
          "name": "deleveragingOperator",
          "type": "address"
        }
      ],
      "payable": false,
      "stateMutability": "nonpayable",
      "type": "constructor"
    },
    {
      "anonymous": false,
      "inputs": [
        {
          "indexed": true,
          "internalType": "address",
          "name": "maker",
          "type": "address"
        },
        {
          "indexed": true,
          "internalType": "address",
          "name": "taker",
          "type": "address"
        },
        {
          "indexed": false,
          "internalType": "uint256",
          "name": "amount",
          "type": "uint256"
        },
        {
          "indexed": false,
          "internalType": "bool",
          "name": "isBuy",
          "type": "bool"
        },
        {
          "indexed": false,
          "internalType": "uint256",
          "name": "oraclePrice",
          "type": "uint256"
        }
      ],
      "name": "LogDeleveraged",
      "type": "event"
    },
    {
      "anonymous": false,
      "inputs": [
        {
          "indexed": false,
          "internalType": "address",
          "name": "deleveragingOperator",
          "type": "address"
        }
      ],
      "name": "LogDeleveragingOperatorSet",
      "type": "event"
    },
    {
      "anonymous": false,
      "inputs": [
        {
          "indexed": true,
          "internalType": "address",
          "name": "account",
          "type": "address"
        }
      ],
      "name": "LogMarkedForDeleveraging",
      "type": "event"
    },
    {
      "anonymous": false,
      "inputs": [
        {
          "indexed": true,
          "internalType": "address",
          "name": "account",
          "type": "address"
        }
      ],
      "name": "LogUnmarkedForDeleveraging",
      "type": "event"
    },
    {
      "anonymous": false,
      "inputs": [
        {
          "indexed": true,
          "internalType": "address",
          "name": "previousOwner",
          "type": "address"
        },
        {
          "indexed": true,
          "internalType": "address",
          "name": "newOwner",
          "type": "address"
        }
      ],
      "name": "OwnershipTransferred",
      "type": "event"
    },
    {
      "constant": true,
      "inputs": [],
      "name": "DELEVERAGING_TIMELOCK_S",
      "outputs": [
        {
          "internalType": "uint256",
          "name": "",
          "type": "uint256"
        }
      ],
      "payable": false,
      "stateMutability": "view",
      "type": "function"
    },
    {
      "constant": true,
      "inputs": [],
      "name": "_DELEVERAGING_OPERATOR_",
      "outputs": [
        {
          "internalType": "address",
          "name": "",
          "type": "address"
        }
      ],
      "payable": false,
      "stateMutability": "view",
      "type": "function"
    },
    {
      "constant": true,
      "inputs": [
        {
          "internalType": "address",
          "name": "",
          "type": "address"
        }
      ],
      "name": "_MARKED_TIMESTAMP_",
      "outputs": [
        {
          "internalType": "uint256",
          "name": "",
          "type": "uint256"
        }
      ],
      "payable": false,
      "stateMutability": "view",
      "type": "function"
    },
    {
      "constant": true,
      "inputs": [],
      "name": "_PERPETUAL_V1_",
      "outputs": [
        {
          "internalType": "address",
          "name": "",
          "type": "address"
        }
      ],
      "payable": false,
      "stateMutability": "view",
      "type": "function"
    },
    {
      "constant": true,
      "inputs": [],
      "name": "isOwner",
      "outputs": [
        {
          "internalType": "bool",
          "name": "",
          "type": "bool"
        }
      ],
      "payable": false,
      "stateMutability": "view",
      "type": "function"
    },
    {
      "constant": true,
      "inputs": [],
      "name": "owner",
      "outputs": [
        {
          "internalType": "address",
          "name": "",
          "type": "address"
        }
      ],
      "payable": false,
      "stateMutability": "view",
      "type": "function"
    },
    {
      "constant": false,
      "inputs": [],
      "name": "renounceOwnership",
      "outputs": [],
      "payable": false,
      "stateMutability": "nonpayable",
      "type": "function"
    },
    {
      "constant": false,
      "inputs": [
        {
          "internalType": "address",
          "name": "newOwner",
          "type": "address"
        }
      ],
      "name": "transferOwnership",
      "outputs": [],
      "payable": false,
      "stateMutability": "nonpayable",
      "type": "function"
    },
    {
      "constant": false,
      "inputs": [
        {
          "internalType": "address",
          "name": "sender",
          "type": "address"
        },
        {
          "internalType": "address",
          "name": "maker",
          "type": "address"
        },
        {
          "internalType": "address",
          "name": "taker",
          "type": "address"
        },
        {
          "internalType": "uint256",
          "name": "price",
          "type": "uint256"
        },
        {
          "internalType": "bytes",
          "name": "data",
          "type": "bytes"
        },
        {
          "internalType": "bytes32",
          "name": "traderFlags",
          "type": "bytes32"
        }
      ],
      "name": "trade",
      "outputs": [
        {
          "components": [
            {
              "internalType": "uint256",
              "name": "marginAmount",
              "type": "uint256"
            },
            {
              "internalType": "uint256",
              "name": "positionAmount",
              "type": "uint256"
            },
            {
              "internalType": "bool",
              "name": "isBuy",
              "type": "bool"
            },
            {
              "internalType": "bytes32",
              "name": "traderFlags",
              "type": "bytes32"
            }
          ],
          "internalType": "struct P1Types.TradeResult",
          "name": "",
          "type": "tuple"
        }
      ],
      "payable": false,
      "stateMutability": "nonpayable",
      "type": "function"
    },
    {
      "constant": false,
      "inputs": [
        {
          "internalType": "address",
          "name": "account",
          "type": "address"
        }
      ],
      "name": "mark",
      "outputs": [],
      "payable": false,
      "stateMutability": "nonpayable",
      "type": "function"
    },
    {
      "constant": false,
      "inputs": [
        {
          "internalType": "address",
          "name": "account",
          "type": "address"
        }
      ],
      "name": "unmark",
      "outputs": [],
      "payable": false,
      "stateMutability": "nonpayable",
      "type": "function"
    },
    {
      "constant": false,
      "inputs": [
        {
          "internalType": "address",
          "name": "newOperator",
          "type": "address"
        }
      ],
      "name": "setDeleveragingOperator",
      "outputs": [],
      "payable": false,
      "stateMutability": "nonpayable",
      "type": "function"
    }
  ],
  "bytecode": "0x60806040523480156200001157600080fd5b5060405162001dbb38038062001dbb83398101604081905262000034916200011c565b6000620000496001600160e01b036200010516565b600080546001600160a01b0319166001600160a01b0383169081178255604051929350917f8be0079c531659141344cd1fd0a4f28419497f9722a3daafe3b4186f6b6457e0908290a350600180546001600160a01b038085166001600160a01b03199283161790925560038054928416929091169190911790556040517f40f472379384d27e4916dabc7440b7ce7f7282a3e665176fe8fbcaf4c12a90a390620000f59083906200016c565b60405180910390a15050620001a8565b3390565b805162000116816200018e565b92915050565b600080604083850312156200013057600080fd5b60006200013e858562000109565b9250506020620001518582860162000109565b9150509250929050565b62000166816200017c565b82525050565b602081016200011682846200015b565b60006001600160a01b03821662000116565b62000199816200017c565b8114620001a557600080fd5b50565b611c0380620001b86000396000f3fe608060405234801561001057600080fd5b50600436106100d45760003560e01c80638e085c9811610081578063a5db61981161005b578063a5db61981461018c578063d4bec8eb1461019f578063f2fde38b146101a7576100d4565b80638e085c981461014f5780638f32d59b14610157578063970c2ba11461016c576100d4565b8063741c1195116100b2578063741c11951461011f5780637ceeb880146101275780638da5cb5b1461013a576100d4565b80634ca5dcb2146100d95780635ce999b6146100ee578063715018a614610117575b600080fd5b6100ec6100e73660046111a8565b6101ba565b005b6101016100fc3660046111a8565b610262565b60405161010e9190611a93565b60405180910390f35b6100ec610274565b610101610307565b6100ec6101353660046111a8565b61030d565b610142610383565b60405161010e9190611958565b61014261039f565b61015f6103bb565b60405161010e9190611966565b61017f61017a3660046111ec565b6103f9565b60405161010e9190611a85565b6100ec61019a3660046111a8565b610795565b6101426107c7565b6100ec6101b53660046111a8565b6107e3565b6101c26103bb565b6101e75760405162461bcd60e51b81526004016101de906119f5565b60405180910390fd5b600380547fffffffffffffffffffffffff00000000000000000000000000000000000000001673ffffffffffffffffffffffffffffffffffffffff83161790556040517f40f472379384d27e4916dabc7440b7ce7f7282a3e665176fe8fbcaf4c12a90a390610257908390611958565b60405180910390a150565b60026020526000908152604090205481565b61027c6103bb565b6102985760405162461bcd60e51b81526004016101de906119f5565b6000805460405173ffffffffffffffffffffffffffffffffffffffff909116907f8be0079c531659141344cd1fd0a4f28419497f9722a3daafe3b4186f6b6457e0908390a3600080547fffffffffffffffffffffffff0000000000000000000000000000000000000000169055565b61070881565b61031681610810565b6103325760405162461bcd60e51b81526004016101de90611a35565b73ffffffffffffffffffffffffffffffffffffffff8116600081815260026020526040808220429055517fc5c00dddf28309e25cd647751e97c5c3b8be3425d81f33ba7835ac8e710aa8b99190a250565b60005473ffffffffffffffffffffffffffffffffffffffff1690565b60035473ffffffffffffffffffffffffffffffffffffffff1681565b6000805473ffffffffffffffffffffffffffffffffffffffff166103dd6109f0565b73ffffffffffffffffffffffffffffffffffffffff1614905090565b610401611008565b60015473ffffffffffffffffffffffffffffffffffffffff163381146104395760405162461bcd60e51b81526004016101de90611a75565b82156104575760405162461bcd60e51b81526004016101de90611a15565b61046189896109f4565b61046961102f565b610475858701876112af565b905061047f611008565b6040517f93423e9c00000000000000000000000000000000000000000000000000000000815273ffffffffffffffffffffffffffffffffffffffff8416906393423e9c906104d1908d90600401611958565b60806040518083038186803b1580156104e957600080fd5b505afa1580156104fd573d6000803e3d6000fd5b505050506040513d601f19601f820116820180604052506105219190810190611291565b905061052b611008565b6040517f93423e9c00000000000000000000000000000000000000000000000000000000815273ffffffffffffffffffffffffffffffffffffffff8516906393423e9c9061057d908d90600401611958565b60806040518083038186803b15801561059557600080fd5b505afa1580156105a9573d6000803e3d6000fd5b505050506040513d601f19601f820116820180604052506105cd9190810190611291565b90506105db8383838c610a96565b600061061e846000015161061985606001516effffffffffffffffffffffffffffff1685606001516effffffffffffffffffffffffffffff16610bff565b610bff565b905060008460200151156106725761066b8285606001516effffffffffffffffffffffffffffff1686604001516effffffffffffffffffffffffffffff16610c199092919063ffffffff16565b90506106b4565b6106b18285606001516effffffffffffffffffffffffffffff1686604001516effffffffffffffffffffffffffffff16610c889092919063ffffffff16565b90505b83606001516effffffffffffffffffffffffffffff16821480156106dc57506106dc8d610c9e565b156106ea576106ea8d610cc8565b8b73ffffffffffffffffffffffffffffffffffffffff168d73ffffffffffffffffffffffffffffffffffffffff167f750eb1daab9f5a06890a5126e981abeeb7d50b590d48e4a9e523016de22985bb8488602001518f60405161074f93929190611aa1565b60405180910390a36040518060800160405280828152602001838152602001866020015115158152602001600460001b8152509650505050505050979650505050505050565b61079e81610810565b156107bb5760405162461bcd60e51b81526004016101de90611985565b6107c481610cc8565b50565b60015473ffffffffffffffffffffffffffffffffffffffff1681565b6107eb6103bb565b6108075760405162461bcd60e51b81526004016101de906119f5565b6107c481610d19565b60015460009073ffffffffffffffffffffffffffffffffffffffff16610834611008565b6040517f93423e9c00000000000000000000000000000000000000000000000000000000815273ffffffffffffffffffffffffffffffffffffffff8316906393423e9c90610886908790600401611958565b60806040518083038186803b15801561089e57600080fd5b505afa1580156108b2573d6000803e3d6000fd5b505050506040513d601f19601f820116820180604052506108d69190810190611291565b905060008273ffffffffffffffffffffffffffffffffffffffff1663e3bbb5656040518163ffffffff1660e01b815260040160206040518083038186803b15801561092057600080fd5b505afa158015610934573d6000803e3d6000fd5b505050506040513d601f19601f8201168201806040525061095891908101906111ce565b905060008173ffffffffffffffffffffffffffffffffffffffff166398d5fdca6040518163ffffffff1660e01b815260040160206040518083038186803b1580156109a257600080fd5b505afa1580156109b6573d6000803e3d6000fd5b505050506040513d601f19601f820116820180604052506109da91908101906112cd565b90506109e68382610dd9565b9695505050505050565b3390565b60035473ffffffffffffffffffffffffffffffffffffffff838116911614610a925773ffffffffffffffffffffffffffffffffffffffff811660009081526002602052604090205480610a595760405162461bcd60e51b81526004016101de906119d5565b6000610a6b428363ffffffff610df716565b9050610708811015610a8f5760405162461bcd60e51b81526004016101de906119c5565b50505b5050565b610aa08382610dd9565b610abc5760405162461bcd60e51b81526004016101de906119b5565b83604001511580610ae35750835160608401516effffffffffffffffffffffffffffff1610155b610aff5760405162461bcd60e51b81526004016101de90611a55565b82602001511515826020015115151415610b2b5760405162461bcd60e51b81526004016101de90611a65565b83604001511580610b525750835160608301516effffffffffffffffffffffffffffff1610155b610b6e5760405162461bcd60e51b81526004016101de90611a45565b826020015115158460200151151514610b995760405162461bcd60e51b81526004016101de90611a25565b825180610bb9575060408301516effffffffffffffffffffffffffffff16155b80610bc5575082602001515b80610be3575060608301516effffffffffffffffffffffffffffff16155b610a8f5760405162461bcd60e51b81526004016101de90611a05565b6000818310610c0e5781610c10565b825b90505b92915050565b6000831580610c26575082155b15610c3d57610c36600083610e39565b9050610c81565b610c7e6001610c7284610c6683610c5a8a8a63ffffffff610e7b16565b9063ffffffff610df716565b9063ffffffff610e3916565b9063ffffffff610eb516565b90505b9392505050565b6000610c7e82610c66868663ffffffff610e7b16565b73ffffffffffffffffffffffffffffffffffffffff16600090815260026020526040902054151590565b73ffffffffffffffffffffffffffffffffffffffff8116600081815260026020526040808220829055517f9771b33aeb53e1bf116f495e5f185f99fd84b523e3da950a84ca36ad10b8160e9190a250565b73ffffffffffffffffffffffffffffffffffffffff8116610d4c5760405162461bcd60e51b81526004016101de90611995565b6000805460405173ffffffffffffffffffffffffffffffffffffffff808516939216917f8be0079c531659141344cd1fd0a4f28419497f9722a3daafe3b4186f6b6457e091a3600080547fffffffffffffffffffffffff00000000000000000000000000000000000000001673ffffffffffffffffffffffffffffffffffffffff92909216919091179055565b60008080610ded858563ffffffff610eda16565b1195945050505050565b6000610c1083836040518060400160405280601e81526020017f536166654d6174683a207375627472616374696f6e206f766572666c6f770000815250610f99565b6000610c1083836040518060400160405280601a81526020017f536166654d6174683a206469766973696f6e206279207a65726f000000000000815250610fc5565b600082610e8a57506000610c13565b82820282848281610e9757fe5b0414610c105760405162461bcd60e51b81526004016101de906119e5565b600082820183811015610c105760405162461bcd60e51b81526004016101de906119a5565b815160009081908190819015610f1e57610f17610ef5610ffc565b60408801516effffffffffffffffffffffffffffff169063ffffffff610e7b16565b9150610f2c565b610f29610ef5610ffc565b90505b6060860151600090610f55906effffffffffffffffffffffffffffff168763ffffffff610e7b16565b9050866020015115610f7857610f71838263ffffffff610eb516565b9250610f8b565b610f88828263ffffffff610eb516565b91505b5090925090505b9250929050565b60008184841115610fbd5760405162461bcd60e51b81526004016101de9190611974565b505050900390565b60008183610fe65760405162461bcd60e51b81526004016101de9190611974565b506000838581610ff257fe5b0495945050505050565b670de0b6b3a764000090565b60408051608081018252600080825260208201819052918101829052606081019190915290565b604080516060810182526000808252602082018190529181019190915290565b8035610c1381611b91565b8051610c1381611b91565b8035610c1381611ba5565b8051610c1381611ba5565b8035610c1381611bae565b60008083601f84011261109857600080fd5b50813567ffffffffffffffff8111156110b057600080fd5b602083019150836001820283011115610f9257600080fd5b6000608082840312156110da57600080fd5b6110e46080611ac9565b905060006110f28484611070565b825250602061110384848301611070565b602083015250604061111784828501611192565b604083015250606061112b84828501611192565b60608301525092915050565b60006060828403121561114957600080fd5b6111536060611ac9565b90506000611161848461107b565b825250602061117284848301611065565b602083015250604061118684828501611065565b60408301525092915050565b8051610c1381611bb7565b8051610c1381611bae565b6000602082840312156111ba57600080fd5b60006111c6848461104f565b949350505050565b6000602082840312156111e057600080fd5b60006111c6848461105a565b600080600080600080600060c0888a03121561120757600080fd5b60006112138a8a61104f565b97505060206112248a828b0161104f565b96505060406112358a828b0161104f565b95505060606112468a828b0161107b565b945050608088013567ffffffffffffffff81111561126357600080fd5b61126f8a828b01611086565b935093505060a06112828a828b0161107b565b91505092959891949750929550565b6000608082840312156112a357600080fd5b60006111c684846110c8565b6000606082840312156112c157600080fd5b60006111c68484611137565b6000602082840312156112df57600080fd5b60006111c6848461119d565b6112f481611afd565b82525050565b6112f481611b08565b6112f481611b0d565b600061131782611af0565b6113218185611af4565b9350611331818560208601611b3d565b61133a81611b69565b9093019392505050565b6000611351602983611af4565b7f43616e6e6f7420756e6d61726b2073696e6365206163636f756e74206973207581527f6e64657277617465720000000000000000000000000000000000000000000000602082015260400192915050565b60006113b0602683611af4565b7f4f776e61626c653a206e6577206f776e657220697320746865207a65726f206181527f6464726573730000000000000000000000000000000000000000000000000000602082015260400192915050565b600061140f601b83611af4565b7f536166654d6174683a206164646974696f6e206f766572666c6f770000000000815260200192915050565b6000611448602f83611af4565b7f43616e6e6f742064656c657665726167652073696e6365206d616b657220697381527f206e6f7420756e64657277617465720000000000000000000000000000000000602082015260400192915050565b60006114a7604b83611af4565b7f43616e6e6f742064656c657665726167652073696e6365206163636f756e742081527f686173206e6f74206265656e206d61726b656420666f72207468652074696d6560208201527f6c6f636b20706572696f64000000000000000000000000000000000000000000604082015260600192915050565b600061152c602d83611af4565b7f43616e6e6f742064656c657665726167652073696e6365206163636f756e742081527f6973206e6f74206d61726b656400000000000000000000000000000000000000602082015260400192915050565b600061158b602183611af4565b7f536166654d6174683a206d756c7469706c69636174696f6e206f766572666c6f81527f7700000000000000000000000000000000000000000000000000000000000000602082015260400192915050565b60006115ea602083611af4565b7f4f776e61626c653a2063616c6c6572206973206e6f7420746865206f776e6572815260200192915050565b6000611623604183611af4565b7f43616e6e6f74206c6971756964617465207768656e206d616b657220706f736981527f74696f6e20616e64206d617267696e2061726520626f7468206e65676174697660208201527f6500000000000000000000000000000000000000000000000000000000000000604082015260600192915050565b60006116a8603e83611af4565b7f63616e6e6f742064656c65766572616765206166746572206f7468657220747281527f616465206f7065726174696f6e732c20696e207468652073616d652074780000602082015260400192915050565b6000611707603483611af4565b7f64656c657665726167696e67206d757374206e6f7420696e637265617365206d81527f616b6572277320706f736974696f6e2073697a65000000000000000000000000602082015260400192915050565b6000611766602b83611af4565b7f43616e6e6f74206d61726b2073696e6365206163636f756e74206973206e6f7481527f20756e6465727761746572000000000000000000000000000000000000000000602082015260400192915050565b60006117c5603a83611af4565b7f616c6c4f724e6f7468696e672069732073657420616e642074616b657220706f81527f736974696f6e206973206c657373207468616e20616d6f756e74000000000000602082015260400192915050565b6000611824603a83611af4565b7f616c6c4f724e6f7468696e672069732073657420616e64206d616b657220706f81527f736974696f6e206973206c657373207468616e20616d6f756e74000000000000602082015260400192915050565b6000611883603683611af4565b7f54616b657220706f736974696f6e206861732077726f6e67207369676e20746f81527f2064656c657665726167652074686973206d616b657200000000000000000000602082015260400192915050565b60006118e2601e83611af4565b7f6d73672e73656e646572206d7573742062652050657270657475616c56310000815260200192915050565b8051608083019061191f8482611303565b5060208201516119326020850182611303565b50604082015161194560408501826112fa565b506060820151610a8f6060850182611303565b60208101610c1382846112eb565b60208101610c1382846112fa565b60208082528101610c10818461130c565b60208082528101610c1381611344565b60208082528101610c13816113a3565b60208082528101610c1381611402565b60208082528101610c138161143b565b60208082528101610c138161149a565b60208082528101610c138161151f565b60208082528101610c138161157e565b60208082528101610c13816115dd565b60208082528101610c1381611616565b60208082528101610c138161169b565b60208082528101610c13816116fa565b60208082528101610c1381611759565b60208082528101610c13816117b8565b60208082528101610c1381611817565b60208082528101610c1381611876565b60208082528101610c13816118d5565b60808101610c13828461190e565b60208101610c138284611303565b60608101611aaf8286611303565b611abc60208301856112fa565b6111c66040830184611303565b60405181810167ffffffffffffffff81118282101715611ae857600080fd5b604052919050565b5190565b90815260200190565b6000610c1382611b24565b151590565b90565b6effffffffffffffffffffffffffffff1690565b73ffffffffffffffffffffffffffffffffffffffff1690565b60005b83811015611b58578181015183820152602001611b40565b83811115610a8f5750506000910152565b601f017fffffffffffffffffffffffffffffffffffffffffffffffffffffffffffffffe01690565b611b9a81611afd565b81146107c457600080fd5b611b9a81611b08565b611b9a81611b0d565b611b9a81611b1056fea365627a7a7231582017b7af1b89b80d77333e06294289408ddec29695e68796e508bae55ccd36e8326c6578706572696d656e74616cf564736f6c63430005100040",
  "source": "/*\n\n    Copyright 2020 dYdX Trading Inc.\n\n    Licensed under the Apache License, Version 2.0 (the \"License\");\n    you may not use this file except in compliance with the License.\n    You may obtain a copy of the License at\n\n    http://www.apache.org/licenses/LICENSE-2.0\n\n    Unless required by applicable law or agreed to in writing, software\n    distributed under the License is distributed on an \"AS IS\" BASIS,\n    WITHOUT WARRANTIES OR CONDITIONS OF ANY KIND, either express or implied.\n    See the License for the specific language governing permissions and\n    limitations under the License.\n\n*/\n\npragma solidity 0.5.16;\npragma experimental ABIEncoderV2;\n\nimport { SafeMath } from \"@openzeppelin/contracts/math/SafeMath.sol\";\nimport { Ownable } from \"@openzeppelin/contracts/ownership/Ownable.sol\";\nimport { P1TraderConstants } from \"./P1TraderConstants.sol\";\nimport { Math } from \"../../lib/Math.sol\";\nimport { P1Getters } from \"../impl/P1Getters.sol\";\nimport { I_P1Oracle } from \"../intf/I_P1Oracle.sol\";\nimport { P1BalanceMath } from \"../lib/P1BalanceMath.sol\";\nimport { P1Types } from \"../lib/P1Types.sol\";\n\n\n/**\n * @title P1Deleveraging\n * @author dYdX\n *\n * @notice Contract allowing underwater accounts to be deleveraged against offsetting accounts.\n */\ncontract P1Deleveraging is\n    Ownable,\n    P1TraderConstants\n{\n    using SafeMath for uint256;\n    using Math for uint256;\n    using P1BalanceMath for P1Types.Balance;\n\n    // ============ Structs ============\n\n    struct TradeData {\n        uint256 amount;\n        bool isBuy; // from taker's perspective\n        bool allOrNothing; // if true, will revert if maker's position is less than the amount\n    }\n\n    // ============ Events ============\n\n    event LogDeleveraged(\n        address indexed maker,\n        address indexed taker,\n        uint256 amount,\n        bool isBuy, // from taker's perspective\n        uint256 oraclePrice\n    );\n\n    event LogMarkedForDeleveraging(\n        address indexed account\n    );\n\n    event LogUnmarkedForDeleveraging(\n        address indexed account\n    );\n\n    event LogDeleveragingOperatorSet(\n        address deleveragingOperator\n    );\n\n    // ============ Immutable Storage ============\n\n    // address of the perpetual contract\n    address public _PERPETUAL_V1_;\n\n    // Waiting period for non-admin to deleverage an account after marking it.\n    uint256 constant public DELEVERAGING_TIMELOCK_S = 1800; // 30 minutes\n\n    // ============ Mutable Storage ============\n\n    // account => timestamp at which an account was marked as underwater\n    //\n    // After an account has been marked for the timelock period, it can be deleveraged by anybody.\n    // The contract admin can deleverage underwater accounts at any time.\n    mapping (address => uint256) public _MARKED_TIMESTAMP_;\n\n    // Address which has the ability to deleverage accounts without marking them first.\n    address public _DELEVERAGING_OPERATOR_;\n\n    // ============ Constructor ============\n\n    constructor (\n        address perpetualV1,\n        address deleveragingOperator\n    )\n        public\n    {\n        _PERPETUAL_V1_ = perpetualV1;\n        _DELEVERAGING_OPERATOR_ = deleveragingOperator;\n\n        emit LogDeleveragingOperatorSet(deleveragingOperator);\n    }\n\n    // ============ External Functions ============\n\n    /**\n     * @notice Allows an underwater (less than 100% collateralization) account to be subsumed by any\n     *  other account with an offsetting position (a position of opposite sign). The sender must be\n     *  the privileged deleveraging operator unless the account has been marked as underwater for\n     *  the timelock period.\n     * @dev Emits the LogDeleveraged event. May emit the LogUnmarkedForDeleveraging event.\n     *\n     * @param  sender  The address that called the trade() function on PerpetualV1.\n     * @param  maker   The underwater account.\n     * @param  taker   The offsetting account.\n     * @param  price   The current oracle price of the underlying asset.\n     * @param  data    A struct of type TradeData.\n     * @return         The amounts to be traded, and flags indicating that deleveraging occurred.\n     */\n    function trade(\n        address sender,\n        address maker,\n        address taker,\n        uint256 price,\n        bytes calldata data,\n        bytes32 traderFlags\n    )\n        external\n        returns (P1Types.TradeResult memory)\n    {\n        address perpetual = _PERPETUAL_V1_;\n        require(\n            msg.sender == perpetual,\n            \"msg.sender must be PerpetualV1\"\n        );\n        require(\n            traderFlags == 0,\n            \"cannot deleverage after other trade operations, in the same tx\"\n        );\n\n        _verifyPermissions(\n            sender,\n            maker\n        );\n\n        TradeData memory tradeData = abi.decode(data, (TradeData));\n        P1Types.Balance memory makerBalance = P1Getters(perpetual).getAccountBalance(maker);\n        P1Types.Balance memory takerBalance = P1Getters(perpetual).getAccountBalance(taker);\n\n        _verifyTrade(\n            tradeData,\n            makerBalance,\n            takerBalance,\n            price\n        );\n\n        // Bound the execution amount by the size of the maker and taker positions.\n        uint256 amount = Math.min(\n            tradeData.amount,\n            Math.min(makerBalance.position, takerBalance.position)\n        );\n\n        // When partially deleveraging the maker, maintain the same position/margin ratio.\n        // Ensure the collateralization of the maker does not decrease.\n        uint256 marginAmount;\n        if (tradeData.isBuy) {\n            marginAmount = uint256(makerBalance.margin).getFractionRoundUp(\n                amount,\n                makerBalance.position\n            );\n        } else {\n            marginAmount = uint256(makerBalance.margin).getFraction(amount, makerBalance.position);\n        }\n\n        if (amount == makerBalance.position && _isMarked(maker)) {\n            _unmark(maker);\n        }\n\n        emit LogDeleveraged(\n            maker,\n            taker,\n            amount,\n            tradeData.isBuy,\n            price\n        );\n\n        return P1Types.TradeResult({\n            marginAmount: marginAmount,\n            positionAmount: amount,\n            isBuy: tradeData.isBuy,\n            traderFlags: TRADER_FLAG_DELEVERAGING\n        });\n    }\n\n    /**\n     * @notice Mark an account as underwater. An account must be marked for a period of time before\n     *  any non-admin is allowed to deleverage that account.\n     * @dev Emits the LogMarkedForDeleveraging event.\n     *\n     * @param  account  The account to mark.\n     */\n    function mark(\n        address account\n    )\n        external\n    {\n        require(\n            _isAccountUnderwater(account),\n            \"Cannot mark since account is not underwater\"\n        );\n        _MARKED_TIMESTAMP_[account] = block.timestamp;\n        emit LogMarkedForDeleveraging(account);\n    }\n\n    /**\n     * @notice Un-mark an account which is no longer underwater.\n     * @dev Emits the LogUnmarkedForDeleveraging event.\n     *\n     * @param  account  The account to unmark.\n     */\n    function unmark(\n        address account\n    )\n        external\n    {\n        require(\n            !_isAccountUnderwater(account),\n            \"Cannot unmark since account is underwater\"\n        );\n        _unmark(account);\n    }\n\n    /**\n     * @notice Set the privileged deleveraging operator. Can only be called by the admin.\n     * @dev Emits the LogFundingRateProviderSet event.\n     *\n     * @param  newOperator  The new operator, who will have the ability to deleverage accounts\n     *                      without first marking them and waiting the timelock period.\n     */\n    function setDeleveragingOperator(\n        address newOperator\n    )\n        external\n        onlyOwner\n    {\n        _DELEVERAGING_OPERATOR_ = newOperator;\n        emit LogDeleveragingOperatorSet(newOperator);\n    }\n\n    // ============ Helper Functions ============\n\n    function _unmark(\n        address account\n    )\n        private\n    {\n        _MARKED_TIMESTAMP_[account] = 0;\n        emit LogUnmarkedForDeleveraging(account);\n    }\n\n    function _isMarked(\n        address account\n    )\n        private\n        view\n        returns (bool)\n    {\n        return _MARKED_TIMESTAMP_[account] != 0;\n    }\n\n    function _verifyPermissions(\n        address sender,\n        address maker\n    )\n        private\n        view\n    {\n        // The privileged deleveraging operator may deleverage underwater accounts at any time.\n        if (sender != _DELEVERAGING_OPERATOR_) {\n            uint256 markedTimestamp = _MARKED_TIMESTAMP_[maker];\n            require(\n                markedTimestamp != 0,\n                \"Cannot deleverage since account is not marked\"\n            );\n            uint256 timeDelta = block.timestamp.sub(markedTimestamp);\n            require(\n                timeDelta >= DELEVERAGING_TIMELOCK_S,\n                \"Cannot deleverage since account has not been marked for the timelock period\"\n            );\n        }\n    }\n\n    function _verifyTrade(\n        TradeData memory tradeData,\n        P1Types.Balance memory makerBalance,\n        P1Types.Balance memory takerBalance,\n        uint256 price\n    )\n        private\n        pure\n    {\n        require(\n            _isUnderwater(makerBalance, price),\n            \"Cannot deleverage since maker is not underwater\"\n        );\n        require(\n            !tradeData.allOrNothing || makerBalance.position >= tradeData.amount,\n            \"allOrNothing is set and maker position is less than amount\"\n        );\n        require(\n            takerBalance.positionIsPositive != makerBalance.positionIsPositive,\n            \"Taker position has wrong sign to deleverage this maker\"\n        );\n        require(\n            !tradeData.allOrNothing || takerBalance.position >= tradeData.amount,\n            \"allOrNothing is set and taker position is less than amount\"\n        );\n        require(\n            tradeData.isBuy == makerBalance.positionIsPositive,\n            \"deleveraging must not increase maker's position size\"\n        );\n\n        // Disallow deleveraging in the edge case where both the position and margin are negative.\n        //\n        // This case is not handled correctly by P1Trade. If an account is in this situation, the\n        // margin should first be set to zero via a deposit, then the account should be deleveraged.\n        require(\n            makerBalance.marginIsPositive || makerBalance.margin == 0 ||\n                makerBalance.positionIsPositive || makerBalance.position == 0,\n            \"Cannot liquidate when maker position and margin are both negative\"\n        );\n    }\n\n    function _isUnderwater(\n        P1Types.Balance memory balance,\n        uint256 price\n    )\n        private\n        pure\n        returns (bool)\n    {\n        (uint256 positive, uint256 negative) = balance.getPositiveAndNegativeValue(price);\n        return positive < negative;\n    }\n\n    function _isAccountUnderwater(\n        address account\n    )\n        private\n        view\n        returns (bool)\n    {\n        address perpetual = _PERPETUAL_V1_;\n        P1Types.Balance memory balance = P1Getters(perpetual).getAccountBalance(account);\n        address oracle = P1Getters(perpetual).getOracleContract();\n        uint256 price = I_P1Oracle(oracle).getPrice();\n        return _isUnderwater(balance, price);\n    }\n}\n",
  "sourcePath": "/Users/dennismacpro/Projects/Defi/Ethereum-Solidity-Collection/icarus-protocol/defi-seeder/.tmp/dydx-protocol/perpetual/contracts/protocol/v1/traders/P1Deleveraging.sol",
  "compiler": {
    "name": "solc",
    "version": "0.5.16+commit.9c3226ce.Linux.g++"
  },
  "schemaVersion": "3.3.4",
  "updatedAt": "2021-04-01T16:42:57.446Z",
  "devdoc": {
    "author": "dYdX",
    "methods": {
      "isOwner()": {
        "details": "Returns true if the caller is the current owner."
      },
      "mark(address)": {
        "details": "Emits the LogMarkedForDeleveraging event.",
        "params": {
          "account": "The account to mark."
        }
      },
      "owner()": {
        "details": "Returns the address of the current owner."
      },
      "renounceOwnership()": {
        "details": "Leaves the contract without owner. It will not be possible to call `onlyOwner` functions anymore. Can only be called by the current owner.     * NOTE: Renouncing ownership will leave the contract without an owner, thereby removing any functionality that is only available to the owner."
      },
      "setDeleveragingOperator(address)": {
        "details": "Emits the LogFundingRateProviderSet event.",
        "params": {
          "newOperator": "The new operator, who will have the ability to deleverage accounts                     without first marking them and waiting the timelock period."
        }
      },
      "trade(address,address,address,uint256,bytes,bytes32)": {
        "details": "Emits the LogDeleveraged event. May emit the LogUnmarkedForDeleveraging event.",
        "params": {
          "data": "A struct of type TradeData.",
          "maker": "The underwater account.",
          "price": "The current oracle price of the underlying asset.",
          "sender": "The address that called the trade() function on PerpetualV1.",
          "taker": "The offsetting account."
        },
        "return": "The amounts to be traded, and flags indicating that deleveraging occurred."
      },
      "transferOwnership(address)": {
        "details": "Transfers ownership of the contract to a new account (`newOwner`). Can only be called by the current owner."
      },
      "unmark(address)": {
        "details": "Emits the LogUnmarkedForDeleveraging event.",
        "params": {
          "account": "The account to unmark."
        }
      }
    },
    "title": "P1Deleveraging"
  },
  "userdoc": {
    "methods": {
      "mark(address)": {
        "notice": "Mark an account as underwater. An account must be marked for a period of time before any non-admin is allowed to deleverage that account."
      },
      "setDeleveragingOperator(address)": {
        "notice": "Set the privileged deleveraging operator. Can only be called by the admin."
      },
      "trade(address,address,address,uint256,bytes,bytes32)": {
        "notice": "Allows an underwater (less than 100% collateralization) account to be subsumed by any other account with an offsetting position (a position of opposite sign). The sender must be the privileged deleveraging operator unless the account has been marked as underwater for the timelock period."
      },
      "unmark(address)": {
        "notice": "Un-mark an account which is no longer underwater."
      }
    },
    "notice": "Contract allowing underwater accounts to be deleveraged against offsetting accounts."
  }
}