{
  "contractName": "P1FinalSettlement",
  "abi": [
    {
      "anonymous": false,
      "inputs": [
        {
          "indexed": true,
          "internalType": "address",
          "name": "account",
          "type": "address"
        },
        {
          "indexed": false,
          "internalType": "bool",
          "name": "isPositive",
          "type": "bool"
        },
        {
          "indexed": false,
          "internalType": "uint256",
          "name": "amount",
          "type": "uint256"
        },
        {
          "indexed": false,
          "internalType": "bytes32",
          "name": "balance",
          "type": "bytes32"
        }
      ],
      "name": "LogAccountSettled",
      "type": "event"
    },
    {
      "anonymous": false,
      "inputs": [
        {
          "indexed": false,
          "internalType": "bytes32",
          "name": "index",
          "type": "bytes32"
        }
      ],
      "name": "LogIndex",
      "type": "event"
    },
    {
      "anonymous": false,
      "inputs": [
        {
          "indexed": true,
          "internalType": "address",
          "name": "account",
          "type": "address"
        },
        {
          "indexed": false,
          "internalType": "uint256",
          "name": "amount",
          "type": "uint256"
        },
        {
          "indexed": false,
          "internalType": "bytes32",
          "name": "balance",
          "type": "bytes32"
        }
      ],
      "name": "LogWithdrawFinalSettlement",
      "type": "event"
    },
    {
      "constant": true,
      "inputs": [],
      "name": "getAdmin",
      "outputs": [
        {
          "internalType": "address",
          "name": "",
          "type": "address"
        }
      ],
      "payable": false,
      "stateMutability": "view",
      "type": "function"
    },
    {
      "constant": false,
      "inputs": [],
      "name": "withdrawFinalSettlement",
      "outputs": [],
      "payable": false,
      "stateMutability": "nonpayable",
      "type": "function"
    }
  ],
  "bytecode": "0x6080604052600160005561171a806100186000396000f3fe608060405234801561001057600080fd5b50600436106100365760003560e01c8063142c69b31461003b5780636e9960c314610045575b600080fd5b610043610063565b005b61004d610459565b60405161005a9190611535565b60405180910390f35b600a5460ff166100a8576040517f08c379a000000000000000000000000000000000000000000000000000000000815260040161009f90611597565b60405180910390fd5b7fffffffffffffffffffffffffffffffffffffffffffffffffffffffffffffffff6000541415610104576040517f08c379a000000000000000000000000000000000000000000000000000000000815260040161009f906115f7565b7fffffffffffffffffffffffffffffffffffffffffffffffffffffffffffffffff60005561013061116b565b506040805160608082018352600b5482526009546020808401919091528351918201845260085463ffffffff81168352640100000000810460ff161515918301919091526501000000000090046fffffffffffffffffffffffffffffffff1681840152918101919091526101a2611191565b6101ac8233610489565b90506000806101bf838560000151610945565b91509150808210156101d45750505050610452565b60006101fd6101e1610a02565b6101f1858563ffffffff610a0e16565b9063ffffffff610a5716565b6005546040517f70a0823100000000000000000000000000000000000000000000000000000000815291925060009173ffffffffffffffffffffffffffffffffffffffff909116906370a0823190610259903090600401611535565b60206040518083038186803b15801561027157600080fd5b505afa158015610285573d6000803e3d6000fd5b505050506040513d601f19601f820116820180604052506102a99190810190611223565b905060006102b78284610a99565b905060006102d36102ce858463ffffffff610a0e16565b610aaf565b604080516080810182526effffffffffffffffffffffffffffff8381168015158352600060208085018281528587019384526060860183815233808552600190935296909220855181549351945197517fffffffffffffffffffffffffffffffffffffffffffffffffffffffffffffff00909416901515177fffffffffffffffffffffffffffffffffffffffffffffffffffffffffffff00ff1661010094151594909402939093177fffffffffffffffffffffffffffffff000000000000000000000000000000ffff1662010000968516969096029590951770ffffffffffffffffffffffffffffffffff167101000000000000000000000000000000000091909316029190911790556005549099509192506104079173ffffffffffffffffffffffffffffffffffffffff169084610afe565b337fc3b34c584e097adcd5d59ecaf4107928698a4f075c7753b5dbe28cd20d7ac1fd836104338a610bc0565b604051610441929190611617565b60405180910390a250505050505050505b6001600055565b60006104847fb53127684a568b3173ae13b9f8a6016e243e63b6e8ee1178d6a717850b5d6103610c55565b905090565b610491611191565b6104996111b8565b5060408301516104a76111b8565b5073ffffffffffffffffffffffffffffffffffffffff83166000908152600260209081526040918290208251606081018452905463ffffffff81168252640100000000810460ff16151592820192909252650100000000009091046fffffffffffffffffffffffffffffffff1691810191909152610523611191565b5073ffffffffffffffffffffffffffffffffffffffff84166000908152600160209081526040918290208251608081018452905460ff808216151583526101008204161515928201929092526effffffffffffffffffffffffffffff6201000083048116938201939093527101000000000000000000000000000000000090910490911660608201528251825163ffffffff908116911614156105ca57925061093f915050565b73ffffffffffffffffffffffffffffffffffffffff85166000908152600260209081526040918290208551815492870151938701517fffffffffffffffffffffffffffffffffffffffffffffffffffffffff0000000090931663ffffffff909116177fffffffffffffffffffffffffffffffffffffffffffffffffffffff00ffffffff1664010000000093151593909302929092177fffffffffffffffffffffff00000000000000000000000000000000ffffffffff16650100000000006fffffffffffffffffffffffffffffffff9092169190910217905560608101516effffffffffffffffffffffffffffff166106c757925061093f915050565b6106cf6111d8565b50604080518082018252908401516fffffffffffffffffffffffffffffffff1681526020808501511515818301528301511561073457604083015161072d9082906fffffffffffffffffffffffffffffffff1663ffffffff610c5916565b905061075f565b604083015161075c9082906fffffffffffffffffffffffffffffffff1663ffffffff610d0816565b90505b6000826020015115158260200151151514159050600081156107b957606084015183516107a2916effffffffffffffffffffffffffffff1663ffffffff610d8516565b90506107b4848263ffffffff610da316565b6107f2565b606084015183516107e0916effffffffffffffffffffffffffffff1663ffffffff610dd816565b90506107f2848263ffffffff610e2f16565b73ffffffffffffffffffffffffffffffffffffffff881660008181526001602090815260409182902087518154928901519389015160608a01517fffffffffffffffffffffffffffffffffffffffffffffffffffffffffffffff00909416911515919091177fffffffffffffffffffffffffffffffffffffffffffffffffffffffffffff00ff1661010094151594909402939093177fffffffffffffffffffffffffffffff000000000000000000000000000000ffff16620100006effffffffffffffffffffffffffffff948516021770ffffffffffffffffffffffffffffffffff167101000000000000000000000000000000000093909216929092021790557f022694ffbbd957d26de6b85c040be68ec582d13d40114b29130581793a1bf31e838361091f88610bc0565b60405161092e9392919061155e565b60405180910390a250919450505050505b92915050565b81516000908190819081901561098957610982610960610a02565b60408801516effffffffffffffffffffffffffffff169063ffffffff610e5216565b9150610997565b610994610960610a02565b90505b60608601516000906109c0906effffffffffffffffffffffffffffff168763ffffffff610e5216565b90508660200151156109e3576109dc838263ffffffff610ea616565b92506109f6565b6109f3828263ffffffff610ea616565b91505b50909590945092505050565b670de0b6b3a764000090565b6000610a5083836040518060400160405280601e81526020017f536166654d6174683a207375627472616374696f6e206f766572666c6f770000815250610ee5565b9392505050565b6000610a5083836040518060400160405280601a81526020017f536166654d6174683a206469766973696f6e206279207a65726f000000000000815250610f2b565b6000818310610aa85781610a50565b5090919050565b60006f010000000000000000000000000000008210610afa576040517f08c379a000000000000000000000000000000000000000000000000000000000815260040161009f906115b7565b5090565b604051610bbb9084907fa9059cbb0000000000000000000000000000000000000000000000000000000090610b399086908690602401611543565b604080517fffffffffffffffffffffffffffffffffffffffffffffffffffffffffffffffe08184030181529190526020810180517bffffffffffffffffffffffffffffffffffffffffffffffffffffffff167fffffffff0000000000000000000000000000000000000000000000000000000090931692909217909152610f7c565b505050565b6000808260200151610bd3576000610be5565b6f010000000000000000000000000000005b8351610bf2576000610c14565b7f01000000000000000000000000000000000000000000000000000000000000005b608085604001516effffffffffffffffffffffffffffff16901b85606001516effffffffffffffffffffffffffffff1617171790508060001b915050919050565b5490565b610c616111d8565b8260200151610c9d576040518060400160405280610c8c856000015185610ea690919063ffffffff16565b81526000602090910152905061093f565b8251821015610cd5576040805180820190915283518190610cc4908563ffffffff610a0e16565b81526001602090910152905061093f565b6040518060400160405280610cf7856000015185610a0e90919063ffffffff16565b815260006020909101529392505050565b610d106111d8565b826020015115610d3c576040518060400160405280610cc4856000015185610ea690919063ffffffff16565b8251821115610d67576040518060400160405280610cc4856000015185610a0e90919063ffffffff16565b6040805180820190915283518190610cf7908563ffffffff610a0e16565b6000610a50670de0b6b3a76400006101f1858563ffffffff610e5216565b610dab6111d8565b610db4836110cf565b9050610dc6818363ffffffff610d0816565b9050610bbb838263ffffffff61110416565b6000821580610de5575081155b15610df25750600061093f565b610a506001610e23670de0b6b3a76400006101f183610e17898963ffffffff610e5216565b9063ffffffff610a0e16565b9063ffffffff610ea616565b610e376111d8565b610e40836110cf565b9050610dc6818363ffffffff610c5916565b600082610e615750600061093f565b82820282848281610e6e57fe5b0414610a50576040517f08c379a000000000000000000000000000000000000000000000000000000000815260040161009f906115d7565b600082820183811015610a50576040517f08c379a000000000000000000000000000000000000000000000000000000000815260040161009f906115a7565b60008184841115610f23576040517f08c379a000000000000000000000000000000000000000000000000000000000815260040161009f9190611586565b505050900390565b60008183610f66576040517f08c379a000000000000000000000000000000000000000000000000000000000815260040161009f9190611586565b506000838581610f7257fe5b0495945050505050565b610f9b8273ffffffffffffffffffffffffffffffffffffffff1661112f565b610fd1576040517f08c379a000000000000000000000000000000000000000000000000000000000815260040161009f90611607565b600060608373ffffffffffffffffffffffffffffffffffffffff1683604051610ffa9190611529565b6000604051808303816000865af19150503d8060008114611037576040519150601f19603f3d011682016040523d82523d6000602084013e61103c565b606091505b509150915081611078576040517f08c379a000000000000000000000000000000000000000000000000000000000815260040161009f906115c7565b8051156110c957808060200190516110939190810190611205565b6110c9576040517f08c379a000000000000000000000000000000000000000000000000000000000815260040161009f906115e7565b50505050565b6110d76111d8565b50604080518082018252908201516effffffffffffffffffffffffffffff16815290511515602082015290565b805161110f90610aaf565b6effffffffffffffffffffffffffffff1660408301526020015115159052565b6000813f7fc5d2460186f7233c927e7db2dcc703c0e500b653ca82273b7bfad8045d85a47081811480159061116357508115155b949350505050565b6040518060600160405280600081526020016000815260200161118c6111b8565b905290565b60408051608081018252600080825260208201819052918101829052606081019190915290565b604080516060810182526000808252602082018190529181019190915290565b604080518082019091526000808252602082015290565b805161093f816116b7565b805161093f816116ce565b60006020828403121561121757600080fd5b600061116384846111ef565b60006020828403121561123557600080fd5b600061116384846111fa565b61124a81611637565b82525050565b61124a81611642565b61124a81611647565b600061126d82611625565b6112778185611629565b9350611287818560208601611663565b9290920192915050565b600061129c82611625565b6112a6818561162e565b93506112b6818560208601611663565b6112bf8161168f565b9093019392505050565b60006112d660268361162e565b7f4f6e6c79207065726d697474656420647572696e672066696e616c207365747481527f6c656d656e740000000000000000000000000000000000000000000000000000602082015260400192915050565b6000611335601b8361162e565b7f536166654d6174683a206164646974696f6e206f766572666c6f770000000000815260200192915050565b600061136e60278361162e565b7f53616665436173743a2076616c756520646f65736e27742066697420696e203181527f3230206269747300000000000000000000000000000000000000000000000000602082015260400192915050565b60006113cd60208361162e565b7f5361666545524332303a206c6f772d6c6576656c2063616c6c206661696c6564815260200192915050565b600061140660218361162e565b7f536166654d6174683a206d756c7469706c69636174696f6e206f766572666c6f81527f7700000000000000000000000000000000000000000000000000000000000000602082015260400192915050565b6000611465602a8361162e565b7f5361666545524332303a204552433230206f7065726174696f6e20646964206e81527f6f74207375636365656400000000000000000000000000000000000000000000602082015260400192915050565b60006114c4601f8361162e565b7f5265656e7472616e637947756172643a207265656e7472616e742063616c6c00815260200192915050565b60006114fd601f8361162e565b7f5361666545524332303a2063616c6c20746f206e6f6e2d636f6e747261637400815260200192915050565b6000610a508284611262565b6020810161093f8284611241565b604081016115518285611241565b610a506020830184611259565b6060810161156c8286611250565b6115796020830185611259565b6111636040830184611259565b60208082528101610a508184611291565b6020808252810161093f816112c9565b6020808252810161093f81611328565b6020808252810161093f81611361565b6020808252810161093f816113c0565b6020808252810161093f816113f9565b6020808252810161093f81611458565b6020808252810161093f816114b7565b6020808252810161093f816114f0565b604081016115518285611259565b5190565b919050565b90815260200190565b600061093f8261164a565b151590565b90565b73ffffffffffffffffffffffffffffffffffffffff1690565b60005b8381101561167e578181015183820152602001611666565b838111156110c95750506000910152565b601f017fffffffffffffffffffffffffffffffffffffffffffffffffffffffffffffffe01690565b6116c081611642565b81146116cb57600080fd5b50565b6116c08161164756fea365627a7a72315820e010e7110f40b42e5ab9b35640f40c1f5578a2f6c0c2ffb72c10a8df3c64a6106c6578706572696d656e74616cf564736f6c63430005100040",
  "source": "/*\n\n    Copyright 2020 dYdX Trading Inc.\n\n    Licensed under the Apache License, Version 2.0 (the \"License\");\n    you may not use this file except in compliance with the License.\n    You may obtain a copy of the License at\n\n    http://www.apache.org/licenses/LICENSE-2.0\n\n    Unless required by applicable law or agreed to in writing, software\n    distributed under the License is distributed on an \"AS IS\" BASIS,\n    WITHOUT WARRANTIES OR CONDITIONS OF ANY KIND, either express or implied.\n    See the License for the specific language governing permissions and\n    limitations under the License.\n\n*/\n\npragma solidity 0.5.16;\npragma experimental ABIEncoderV2;\n\nimport { SafeMath } from \"@openzeppelin/contracts/math/SafeMath.sol\";\nimport { IERC20 } from \"@openzeppelin/contracts/token/ERC20/IERC20.sol\";\nimport { SafeERC20 } from \"@openzeppelin/contracts/token/ERC20/SafeERC20.sol\";\nimport { P1Settlement } from \"./P1Settlement.sol\";\nimport { BaseMath } from \"../../lib/BaseMath.sol\";\nimport { Math } from \"../../lib/Math.sol\";\nimport { P1BalanceMath } from \"../lib/P1BalanceMath.sol\";\nimport { P1Types } from \"../lib/P1Types.sol\";\n\n\n/**\n * @title P1FinalSettlement\n * @author dYdX\n *\n * @notice Functions regulating the smart contract's behavior during final settlement.\n */\ncontract P1FinalSettlement is\n    P1Settlement\n{\n    using SafeMath for uint256;\n\n    // ============ Events ============\n\n    event LogWithdrawFinalSettlement(\n        address indexed account,\n        uint256 amount,\n        bytes32 balance\n    );\n\n    // ============ Modifiers ============\n\n    /**\n    * @dev Modifier to ensure the function is not run after final settlement has been enabled.\n    */\n    modifier noFinalSettlement() {\n        require(\n            !_FINAL_SETTLEMENT_ENABLED_,\n            \"Not permitted during final settlement\"\n        );\n        _;\n    }\n\n    /**\n    * @dev Modifier to ensure the function is only run after final settlement has been enabled.\n    */\n    modifier onlyFinalSettlement() {\n        require(\n            _FINAL_SETTLEMENT_ENABLED_,\n            \"Only permitted during final settlement\"\n        );\n        _;\n    }\n\n    // ============ Functions ============\n\n    /**\n     * @notice Withdraw the number of margin tokens equal to the value of the account at the time\n     *  that final settlement occurred.\n     * @dev Emits the LogAccountSettled and LogWithdrawFinalSettlement events.\n     */\n    function withdrawFinalSettlement()\n        external\n        onlyFinalSettlement\n        nonReentrant\n    {\n        // Load the context using the final settlement price.\n        P1Types.Context memory context = P1Types.Context({\n            price: _FINAL_SETTLEMENT_PRICE_,\n            minCollateral: _MIN_COLLATERAL_,\n            index: _GLOBAL_INDEX_\n        });\n\n        // Apply funding changes.\n        P1Types.Balance memory balance = _settleAccount(context, msg.sender);\n\n        // Determine the account net value.\n        // `positive` and `negative` are base values with extra precision.\n        (uint256 positive, uint256 negative) = P1BalanceMath.getPositiveAndNegativeValue(\n            balance,\n            context.price\n        );\n\n        // No amount is withdrawable.\n        if (positive < negative) {\n            return;\n        }\n\n        // Get the account value, which is rounded down to the nearest token amount.\n        uint256 accountValue = positive.sub(negative).div(BaseMath.base());\n\n        // Get the number of tokens in the Perpetual Contract.\n        uint256 contractBalance = IERC20(_TOKEN_).balanceOf(address(this));\n\n        // Determine the maximum withdrawable amount.\n        uint256 amountToWithdraw = Math.min(contractBalance, accountValue);\n\n        // Update the user's balance.\n        uint120 remainingMargin = accountValue.sub(amountToWithdraw).toUint120();\n        balance = P1Types.Balance({\n            marginIsPositive: remainingMargin != 0,\n            positionIsPositive: false,\n            margin: remainingMargin,\n            position: 0\n        });\n        _BALANCES_[msg.sender] = balance;\n\n        // Send the tokens.\n        SafeERC20.safeTransfer(\n            IERC20(_TOKEN_),\n            msg.sender,\n            amountToWithdraw\n        );\n\n        // Emit the log.\n        emit LogWithdrawFinalSettlement(\n            msg.sender,\n            amountToWithdraw,\n            balance.toBytes32()\n        );\n    }\n}\n",
  "sourcePath": "/Users/dennismacpro/Projects/Defi/Ethereum-Solidity-Collection/icarus-protocol/defi-seeder/.tmp/dydx-protocol/perpetual/contracts/protocol/v1/impl/P1FinalSettlement.sol",
  "compiler": {
    "name": "solc",
    "version": "0.5.16+commit.9c3226ce.Linux.g++"
  },
  "schemaVersion": "3.3.4",
  "updatedAt": "2021-04-01T16:42:57.377Z",
  "devdoc": {
    "author": "dYdX",
    "methods": {
      "getAdmin()": {
        "return": "The EIP-1967 proxy admin"
      },
      "withdrawFinalSettlement()": {
        "details": "Emits the LogAccountSettled and LogWithdrawFinalSettlement events."
      }
    },
    "title": "P1FinalSettlement"
  },
  "userdoc": {
    "methods": {
      "withdrawFinalSettlement()": {
        "notice": "Withdraw the number of margin tokens equal to the value of the account at the time that final settlement occurred."
      }
    },
    "notice": "Functions regulating the smart contract's behavior during final settlement."
  }
}