{
  "contractName": "P1FundingOracle",
  "abi": [
    {
      "inputs": [
        {
          "internalType": "address",
          "name": "fundingRateProvider",
          "type": "address"
        }
      ],
      "payable": false,
      "stateMutability": "nonpayable",
      "type": "constructor"
    },
    {
      "anonymous": false,
      "inputs": [
        {
          "indexed": false,
          "internalType": "address",
          "name": "fundingRateProvider",
          "type": "address"
        }
      ],
      "name": "LogFundingRateProviderSet",
      "type": "event"
    },
    {
      "anonymous": false,
      "inputs": [
        {
          "indexed": false,
          "internalType": "bytes32",
          "name": "fundingRate",
          "type": "bytes32"
        }
      ],
      "name": "LogFundingRateUpdated",
      "type": "event"
    },
    {
      "anonymous": false,
      "inputs": [
        {
          "indexed": true,
          "internalType": "address",
          "name": "previousOwner",
          "type": "address"
        },
        {
          "indexed": true,
          "internalType": "address",
          "name": "newOwner",
          "type": "address"
        }
      ],
      "name": "OwnershipTransferred",
      "type": "event"
    },
    {
      "constant": true,
      "inputs": [],
      "name": "MAX_ABS_DIFF_PER_SECOND",
      "outputs": [
        {
          "internalType": "uint128",
          "name": "",
          "type": "uint128"
        }
      ],
      "payable": false,
      "stateMutability": "view",
      "type": "function"
    },
    {
      "constant": true,
      "inputs": [],
      "name": "MAX_ABS_VALUE",
      "outputs": [
        {
          "internalType": "uint128",
          "name": "",
          "type": "uint128"
        }
      ],
      "payable": false,
      "stateMutability": "view",
      "type": "function"
    },
    {
      "constant": true,
      "inputs": [],
      "name": "_FUNDING_RATE_PROVIDER_",
      "outputs": [
        {
          "internalType": "address",
          "name": "",
          "type": "address"
        }
      ],
      "payable": false,
      "stateMutability": "view",
      "type": "function"
    },
    {
      "constant": true,
      "inputs": [],
      "name": "isOwner",
      "outputs": [
        {
          "internalType": "bool",
          "name": "",
          "type": "bool"
        }
      ],
      "payable": false,
      "stateMutability": "view",
      "type": "function"
    },
    {
      "constant": true,
      "inputs": [],
      "name": "owner",
      "outputs": [
        {
          "internalType": "address",
          "name": "",
          "type": "address"
        }
      ],
      "payable": false,
      "stateMutability": "view",
      "type": "function"
    },
    {
      "constant": false,
      "inputs": [],
      "name": "renounceOwnership",
      "outputs": [],
      "payable": false,
      "stateMutability": "nonpayable",
      "type": "function"
    },
    {
      "constant": false,
      "inputs": [
        {
          "internalType": "address",
          "name": "newOwner",
          "type": "address"
        }
      ],
      "name": "transferOwnership",
      "outputs": [],
      "payable": false,
      "stateMutability": "nonpayable",
      "type": "function"
    },
    {
      "constant": false,
      "inputs": [
        {
          "components": [
            {
              "internalType": "uint256",
              "name": "value",
              "type": "uint256"
            },
            {
              "internalType": "bool",
              "name": "isPositive",
              "type": "bool"
            }
          ],
          "internalType": "struct SignedMath.Int",
          "name": "newRate",
          "type": "tuple"
        }
      ],
      "name": "setFundingRate",
      "outputs": [
        {
          "components": [
            {
              "internalType": "uint32",
              "name": "timestamp",
              "type": "uint32"
            },
            {
              "internalType": "bool",
              "name": "isPositive",
              "type": "bool"
            },
            {
              "internalType": "uint128",
              "name": "value",
              "type": "uint128"
            }
          ],
          "internalType": "struct P1Types.Index",
          "name": "",
          "type": "tuple"
        }
      ],
      "payable": false,
      "stateMutability": "nonpayable",
      "type": "function"
    },
    {
      "constant": false,
      "inputs": [
        {
          "internalType": "address",
          "name": "newProvider",
          "type": "address"
        }
      ],
      "name": "setFundingRateProvider",
      "outputs": [],
      "payable": false,
      "stateMutability": "nonpayable",
      "type": "function"
    },
    {
      "constant": true,
      "inputs": [
        {
          "internalType": "uint256",
          "name": "timeDelta",
          "type": "uint256"
        }
      ],
      "name": "getFunding",
      "outputs": [
        {
          "internalType": "bool",
          "name": "",
          "type": "bool"
        },
        {
          "internalType": "uint256",
          "name": "",
          "type": "uint256"
        }
      ],
      "payable": false,
      "stateMutability": "view",
      "type": "function"
    }
  ],
  "bytecode": "0x60806040523480156200001157600080fd5b506040516200160e3803806200160e833981016040819052620000349162000292565b6000620000496001600160e01b03620001e316565b600080546001600160a01b0319166001600160a01b0383169081178255604051929350917f8be0079c531659141344cd1fd0a4f28419497f9722a3daafe3b4186f6b6457e0908290a3506200009d6200025f565b6040518060600160405280620000be42620001e760201b620007e21760201c565b63ffffffff908116825260016020808401829052600060409485015284518254868301519587015163ffffffff19909116919094161760ff60201b19166401000000009415159490940293909317600160281b600160a81b031916650100000000006001600160801b0390931692909202919091179055600280546001600160a01b0319166001600160a01b0386161790559091507f2ebf65220b5046a8d9cff102710ef15de0a0bf3709dcc11c3af50abe472e1c22906200018b9083906200021d811b6200087217901c565b6040516200019a919062000331565b60405180910390a17f232d43841005a98dbf929d234a7a8d2c4c570becee067c9c81bcd4e0acd0ab9282604051620001d3919062000321565b60405180910390a1505062000392565b3390565b60006401000000008210620002195760405162461bcd60e51b8152600401620002109062000341565b60405180910390fd5b5090565b6000806088836000015163ffffffff16901b83602001516200024157600062000247565b600160801b5b60408501516001600160801b03161717915050919050565b604080516060810182526000808252602082018190529181019190915290565b80516200028c8162000378565b92915050565b600060208284031215620002a557600080fd5b6000620002b384846200027f565b949350505050565b620002c6816200035c565b82525050565b620002c68162000369565b6000620002e660268362000353565b7f53616665436173743a2076616c756520646f65736e27742066697420696e203381526532206269747360d01b602082015260400192915050565b602081016200028c8284620002bb565b602081016200028c8284620002cc565b602080825281016200028c81620002d7565b90815260200190565b60006200028c826200036c565b90565b6001600160a01b031690565b62000383816200035c565b81146200038f57600080fd5b50565b61126c80620003a26000396000f3fe608060405234801561001057600080fd5b50600436106100be5760003560e01c80638da5cb5b11610076578063ebed4bd41161005b578063ebed4bd414610138578063ef460e3614610159578063f2fde38b14610179576100be565b80638da5cb5b1461011b5780638f32d59b14610123576100be565b8063499c9c6d116100a7578063499c9c6d146100f657806356a281ea1461010b578063715018a614610113576100be565b80630b8781ee146100c3578063109f60e3146100e1575b600080fd5b6100cb61018c565b6040516100d8919061104f565b60405180910390f35b6100f46100ef366004610cda565b6101a8565b005b6100fe61026a565b6040516100d89190611123565b6100fe61027a565b6100f4610288565b6100cb610335565b61012b610351565b6040516100d8919061105d565b61014b610146366004610d3c565b61038f565b6040516100d892919061106b565b61016c610167366004610d00565b610409565b6040516100d89190611115565b6100f4610187366004610cda565b6105c7565b60025473ffffffffffffffffffffffffffffffffffffffff1681565b6101b0610351565b6101ef576040517f08c379a00000000000000000000000000000000000000000000000000000000081526004016101e6906110f5565b60405180910390fd5b600280547fffffffffffffffffffffffff00000000000000000000000000000000000000001673ffffffffffffffffffffffffffffffffffffffff83161790556040517f232d43841005a98dbf929d234a7a8d2c4c570becee067c9c81bcd4e0acd0ab929061025f90839061104f565b60405180910390a150565b617080661aa535d3d0c0005b0481565b610a8c64794415f854610276565b610290610351565b6102c6576040517f08c379a00000000000000000000000000000000000000000000000000000000081526004016101e6906110f5565b6000805460405173ffffffffffffffffffffffffffffffffffffffff909116907f8be0079c531659141344cd1fd0a4f28419497f9722a3daafe3b4186f6b6457e0908390a3600080547fffffffffffffffffffffffff0000000000000000000000000000000000000000169055565b60005473ffffffffffffffffffffffffffffffffffffffff1690565b6000805473ffffffffffffffffffffffffffffffffffffffff16610373610611565b73ffffffffffffffffffffffffffffffffffffffff1614905090565b60008061039a610c23565b506040805160608101825260015463ffffffff8082168352640100000000820460ff1615156020840152650100000000009091046fffffffffffffffffffffffffffffffff1692820183905290916000916103f89190879061061516565b602090920151935090915050915091565b610411610c23565b60025473ffffffffffffffffffffffffffffffffffffffff163314610462576040517f08c379a00000000000000000000000000000000000000000000000000000000081526004016101e6906110d5565b61046a610c43565b61048161047c36859003850185610d1e565b610672565b905061048b610c23565b604051806060016040528061049f426107e2565b63ffffffff1681526020018360200151151581526020016104c38460000151610826565b6fffffffffffffffffffffffffffffffff9081169091528151600180546020850151604086015190941665010000000000027fffffffffffffffffffffff00000000000000000000000000000000ffffffffff941515640100000000027fffffffffffffffffffffffffffffffffffffffffffffffffffffff00ffffffff63ffffffff9095167fffffffffffffffffffffffffffffffffffffffffffffffffffffffff000000009093169290921793909316179290921617905590507f2ebf65220b5046a8d9cff102710ef15de0a0bf3709dcc11c3af50abe472e1c226105a982610872565b6040516105b69190611086565b60405180910390a19150505b919050565b6105cf610351565b610605576040517f08c379a00000000000000000000000000000000000000000000000000000000081526004016101e6906110f5565b61060e816108c8565b50565b3390565b6000826106245750600061066c565b8282028284828161063157fe5b0414610669576040517f08c379a00000000000000000000000000000000000000000000000000000000081526004016101e6906110e5565b90505b92915050565b61067a610c43565b610682610c23565b506040805160608101825260015463ffffffff81168252640100000000810460ff16151560208301526501000000000090046fffffffffffffffffffffffffffffffff16918101919091526106d5610c43565b50604080518082018252908201516fffffffffffffffffffffffffffffffff168152602080830151151590820152815160009061071d90429063ffffffff908116906109a216565b90506000610735630b7f70728363ffffffff61061516565b9050610747868463ffffffff6109e416565b1561079d57610754610c43565b610785610767858463ffffffff610a3816565b60408051808201909152643ca20afc2a815260016020820152610ad7565b90506107918782610ad7565b955050505050506105c2565b6107a5610c43565b6107d66107b8858463ffffffff610afa16565b60408051808201909152643ca20afc2a815260006020820152610b87565b90506107918782610b87565b60006401000000008210610822576040517f08c379a00000000000000000000000000000000000000000000000000000000081526004016101e690611105565b5090565b60007001000000000000000000000000000000008210610822576040517f08c379a00000000000000000000000000000000000000000000000000000000081526004016101e6906110c5565b6000806088836000015163ffffffff16901b83602001516108945760006108a7565b7001000000000000000000000000000000005b60408501516fffffffffffffffffffffffffffffffff161717915050919050565b73ffffffffffffffffffffffffffffffffffffffff8116610915576040517f08c379a00000000000000000000000000000000000000000000000000000000081526004016101e6906110a5565b6000805460405173ffffffffffffffffffffffffffffffffffffffff808516939216917f8be0079c531659141344cd1fd0a4f28419497f9722a3daafe3b4186f6b6457e091a3600080547fffffffffffffffffffffffff00000000000000000000000000000000000000001673ffffffffffffffffffffffffffffffffffffffff92909216919091179055565b600061066983836040518060400160405280601e81526020017f536166654d6174683a207375627472616374696f6e206f766572666c6f770000815250610b99565b6000826020015115610a1b57816020015115610a055750805182511161066c565b8251151580610a145750815115155b905061066c565b816020015115610a2d5750600061066c565b50805182511061066c565b610a40610c43565b826020015115610a7d576040518060400160405280610a6c856000015185610be490919063ffffffff16565b81526001602090910152905061066c565b8251821115610aa8576040518060400160405280610a6c8560000151856109a290919063ffffffff16565b6040805180820190915283518190610ac6908563ffffffff6109a216565b815260006020909101529392505050565b610adf610c43565b610ae982846109e4565b610af35781610669565b5090919050565b610b02610c43565b8260200151610b3e576040518060400160405280610b2d856000015185610be490919063ffffffff16565b81526000602090910152905061066c565b8251821015610b65576040805180820190915283518190610a6c908563ffffffff6109a216565b6040518060400160405280610ac68560000151856109a290919063ffffffff16565b610b8f610c43565b610ae983836109e4565b60008184841115610bd7576040517f08c379a00000000000000000000000000000000000000000000000000000000081526004016101e69190611094565b50508183035b9392505050565b600082820183811015610669576040517f08c379a00000000000000000000000000000000000000000000000000000000081526004016101e6906110b5565b604080516060810182526000808252602082018190529181019190915290565b604080518082019091526000808252602082015290565b803561066c81611203565b803561066c81611217565b600060408284031215610c8257600080fd5b50919050565b600060408284031215610c9a57600080fd5b610ca46040611131565b90506000610cb28484610ccf565b8252506020610cc384848301610c65565b60208301525092915050565b803561066c81611220565b600060208284031215610cec57600080fd5b6000610cf88484610c5a565b949350505050565b600060408284031215610d1257600080fd5b6000610cf88484610c70565b600060408284031215610d3057600080fd5b6000610cf88484610c88565b600060208284031215610d4e57600080fd5b6000610cf88484610ccf565b610d6381611165565b82525050565b610d6381611170565b610d6381611175565b6000610d8682611158565b610d90818561115c565b9350610da08185602086016111af565b610da9816111db565b9093019392505050565b6000610dc060268361115c565b7f4f776e61626c653a206e6577206f776e657220697320746865207a65726f206181527f6464726573730000000000000000000000000000000000000000000000000000602082015260400192915050565b6000610e1f601b8361115c565b7f536166654d6174683a206164646974696f6e206f766572666c6f770000000000815260200192915050565b6000610e5860278361115c565b7f53616665436173743a2076616c756520646f65736e27742066697420696e203181527f3238206269747300000000000000000000000000000000000000000000000000602082015260400192915050565b6000610eb7603d8361115c565b7f5468652066756e64696e6720726174652063616e206f6e6c792062652073657481527f206279207468652066756e64696e6720726174652070726f7669646572000000602082015260400192915050565b6000610f1660218361115c565b7f536166654d6174683a206d756c7469706c69636174696f6e206f766572666c6f81527f7700000000000000000000000000000000000000000000000000000000000000602082015260400192915050565b6000610f7560208361115c565b7f4f776e61626c653a2063616c6c6572206973206e6f7420746865206f776e6572815260200192915050565b6000610fae60268361115c565b7f53616665436173743a2076616c756520646f65736e27742066697420696e203381527f3220626974730000000000000000000000000000000000000000000000000000602082015260400192915050565b805160608301906110118482611046565b5060208201516110246020850182610d69565b506040820151611037604085018261103d565b50505050565b610d6381611178565b610d63816111a6565b6020810161066c8284610d5a565b6020810161066c8284610d69565b604081016110798285610d69565b610bdd6020830184610d72565b6020810161066c8284610d72565b602080825281016106698184610d7b565b6020808252810161066c81610db3565b6020808252810161066c81610e12565b6020808252810161066c81610e4b565b6020808252810161066c81610eaa565b6020808252810161066c81610f09565b6020808252810161066c81610f68565b6020808252810161066c81610fa1565b6060810161066c8284611000565b6020810161066c828461103d565b60405181810167ffffffffffffffff8111828210171561115057600080fd5b604052919050565b5190565b90815260200190565b600061066c8261118d565b151590565b90565b6fffffffffffffffffffffffffffffffff1690565b73ffffffffffffffffffffffffffffffffffffffff1690565b63ffffffff1690565b60005b838110156111ca5781810151838201526020016111b2565b838111156110375750506000910152565b601f017fffffffffffffffffffffffffffffffffffffffffffffffffffffffffffffffe01690565b61120c81611165565b811461060e57600080fd5b61120c81611170565b61120c8161117556fea365627a7a72315820cb45ce23edd7ecc61db114d4be48252f4d1c532a67ceb6e85883f0cbdf00369e6c6578706572696d656e74616cf564736f6c63430005100040",
  "source": "/*\n\n    Copyright 2020 dYdX Trading Inc.\n\n    Licensed under the Apache License, Version 2.0 (the \"License\");\n    you may not use this file except in compliance with the License.\n    You may obtain a copy of the License at\n\n    http://www.apache.org/licenses/LICENSE-2.0\n\n    Unless required by applicable law or agreed to in writing, software\n    distributed under the License is distributed on an \"AS IS\" BASIS,\n    WITHOUT WARRANTIES OR CONDITIONS OF ANY KIND, either express or implied.\n    See the License for the specific language governing permissions and\n    limitations under the License.\n\n*/\n\npragma solidity 0.5.16;\npragma experimental ABIEncoderV2;\n\nimport { SafeMath } from \"@openzeppelin/contracts/math/SafeMath.sol\";\nimport { Ownable } from \"@openzeppelin/contracts/ownership/Ownable.sol\";\nimport { BaseMath } from \"../../lib/BaseMath.sol\";\nimport { Math } from \"../../lib/Math.sol\";\nimport { SafeCast } from \"../../lib/SafeCast.sol\";\nimport { SignedMath } from \"../../lib/SignedMath.sol\";\nimport { I_P1Funder } from \"../intf/I_P1Funder.sol\";\nimport { P1IndexMath } from \"../lib/P1IndexMath.sol\";\nimport { P1Types } from \"../lib/P1Types.sol\";\n\n\n/**\n * @title P1FundingOracle\n * @author dYdX\n *\n * @notice Oracle providing the funding rate for a perpetual market.\n */\ncontract P1FundingOracle is\n    Ownable,\n    I_P1Funder\n{\n    using BaseMath for uint256;\n    using SafeCast for uint256;\n    using SafeMath for uint128;\n    using SafeMath for uint256;\n    using P1IndexMath for P1Types.Index;\n    using SignedMath for SignedMath.Int;\n\n    // ============ Constants ============\n\n    uint256 private constant FLAG_IS_POSITIVE = 1 << 128;\n    uint128 constant internal BASE = 10 ** 18;\n\n    /**\n     * @notice Bounding params constraining updates to the funding rate.\n     *\n     *  Like the funding rate, these are per-second rates, fixed-point with 18 decimals.\n     *  We calculate the per-second rates from the market specifications, which use 8-hour rates:\n     *  - The max absolute funding rate is 0.75% (8-hour rate).\n     *  - The max change over a 45-minute period is 1.5% (8-hour rate).\n     *\n     *  This means the fastest the funding rate can go from its min to its max value, or vice versa,\n     *  is in 45 minutes.\n     */\n    uint128 public constant MAX_ABS_VALUE = BASE * 75 / 10000 / (8 hours);\n    uint128 public constant MAX_ABS_DIFF_PER_SECOND = MAX_ABS_VALUE * 2 / (45 minutes);\n\n    // ============ Events ============\n\n    event LogFundingRateUpdated(\n        bytes32 fundingRate\n    );\n\n    event LogFundingRateProviderSet(\n        address fundingRateProvider\n    );\n\n    // ============ Mutable Storage ============\n\n    // The funding rate is denoted in units per second, as a fixed-point number with 18 decimals.\n    P1Types.Index private _FUNDING_RATE_;\n\n    // Address which has the ability to update the funding rate.\n    address public _FUNDING_RATE_PROVIDER_;\n\n    // ============ Constructor ============\n\n    constructor(\n        address fundingRateProvider\n    )\n        public\n    {\n        P1Types.Index memory fundingRate = P1Types.Index({\n            timestamp: block.timestamp.toUint32(),\n            isPositive: true,\n            value: 0\n        });\n        _FUNDING_RATE_ = fundingRate;\n        _FUNDING_RATE_PROVIDER_ = fundingRateProvider;\n\n        emit LogFundingRateUpdated(fundingRate.toBytes32());\n        emit LogFundingRateProviderSet(fundingRateProvider);\n    }\n\n    // ============ External Functions ============\n\n    /**\n     * @notice Set the funding rate, denoted in units per second, fixed-point with 18 decimals.\n     * @dev Can only be called by the funding rate provider. Emits the LogFundingRateUpdated event.\n     *\n     * @param  newRate  The intended new funding rate. Is bounded by the global constant bounds.\n     * @return          The new funding rate with a timestamp of the update.\n     */\n    function setFundingRate(\n        SignedMath.Int calldata newRate\n    )\n        external\n        returns (P1Types.Index memory)\n    {\n        require(\n            msg.sender == _FUNDING_RATE_PROVIDER_,\n            \"The funding rate can only be set by the funding rate provider\"\n        );\n\n        SignedMath.Int memory boundedNewRate = _boundRate(newRate);\n        P1Types.Index memory boundedNewRateWithTimestamp = P1Types.Index({\n            timestamp: block.timestamp.toUint32(),\n            isPositive: boundedNewRate.isPositive,\n            value: boundedNewRate.value.toUint128()\n        });\n        _FUNDING_RATE_ = boundedNewRateWithTimestamp;\n\n        emit LogFundingRateUpdated(boundedNewRateWithTimestamp.toBytes32());\n\n        return boundedNewRateWithTimestamp;\n    }\n\n    /**\n     * @notice Set the funding rate provider. Can only be called by the admin.\n     * @dev Emits the LogFundingRateProviderSet event.\n     *\n     * @param  newProvider  The new provider, who will have the ability to set the funding rate.\n     */\n    function setFundingRateProvider(\n        address newProvider\n    )\n        external\n        onlyOwner\n    {\n        _FUNDING_RATE_PROVIDER_ = newProvider;\n        emit LogFundingRateProviderSet(newProvider);\n    }\n\n    // ============ Public Functions ============\n\n    /**\n     * @notice Calculates the signed funding amount that has accumulated over a period of time.\n     *\n     * @param  timeDelta  Number of seconds over which to calculate the accumulated funding amount.\n     * @return            True if the funding rate is positive, and false otherwise.\n     * @return            The funding amount as a unitless rate, represented as a fixed-point number\n     *                    with 18 decimals.\n     */\n    function getFunding(\n        uint256 timeDelta\n    )\n        public\n        view\n        returns (bool, uint256)\n    {\n        // Note: Funding interest in PerpetualV1 does not compound, as the interest affects margin\n        // balances but is calculated based on position balances.\n        P1Types.Index memory fundingRate = _FUNDING_RATE_;\n        uint256 fundingAmount = uint256(fundingRate.value).mul(timeDelta);\n        return (fundingRate.isPositive, fundingAmount);\n    }\n\n    // ============ Helper Functions ============\n\n    /**\n     * @dev Apply the contract-defined bounds and return the bounded rate.\n     */\n    function _boundRate(\n        SignedMath.Int memory newRate\n    )\n        private\n        view\n        returns (SignedMath.Int memory)\n    {\n        // Get the old rate from storage.\n        P1Types.Index memory oldRateWithTimestamp = _FUNDING_RATE_;\n        SignedMath.Int memory oldRate = SignedMath.Int({\n            value: oldRateWithTimestamp.value,\n            isPositive: oldRateWithTimestamp.isPositive\n        });\n\n        // Get the maximum allowed change in the rate.\n        uint256 timeDelta = block.timestamp.sub(oldRateWithTimestamp.timestamp);\n        uint256 maxDiff = MAX_ABS_DIFF_PER_SECOND.mul(timeDelta);\n\n        // Calculate and return the bounded rate.\n        if (newRate.gt(oldRate)) {\n            SignedMath.Int memory upperBound = SignedMath.min(\n                oldRate.add(maxDiff),\n                SignedMath.Int({ value: MAX_ABS_VALUE, isPositive: true })\n            );\n            return SignedMath.min(\n                newRate,\n                upperBound\n            );\n        } else {\n            SignedMath.Int memory lowerBound = SignedMath.max(\n                oldRate.sub(maxDiff),\n                SignedMath.Int({ value: MAX_ABS_VALUE, isPositive: false })\n            );\n            return SignedMath.max(\n                newRate,\n                lowerBound\n            );\n        }\n    }\n}\n",
  "sourcePath": "/Users/dennismacpro/Projects/Defi/Ethereum-Solidity-Collection/icarus-protocol/defi-seeder/.tmp/dydx-protocol/perpetual/contracts/protocol/v1/oracles/P1FundingOracle.sol",
  "compiler": {
    "name": "solc",
    "version": "0.5.16+commit.9c3226ce.Linux.g++"
  },
  "schemaVersion": "3.3.4",
  "updatedAt": "2021-04-01T16:42:57.403Z",
  "devdoc": {
    "author": "dYdX",
    "methods": {
      "getFunding(uint256)": {
        "params": {
          "timeDelta": "Number of seconds over which to calculate the accumulated funding amount."
        },
        "return": "True if the funding rate is positive, and false otherwise.The funding amount as a unitless rate, represented as a fixed-point number                   with 18 decimals."
      },
      "isOwner()": {
        "details": "Returns true if the caller is the current owner."
      },
      "owner()": {
        "details": "Returns the address of the current owner."
      },
      "renounceOwnership()": {
        "details": "Leaves the contract without owner. It will not be possible to call `onlyOwner` functions anymore. Can only be called by the current owner.     * NOTE: Renouncing ownership will leave the contract without an owner, thereby removing any functionality that is only available to the owner."
      },
      "setFundingRate((uint256,bool))": {
        "details": "Can only be called by the funding rate provider. Emits the LogFundingRateUpdated event.",
        "params": {
          "newRate": "The intended new funding rate. Is bounded by the global constant bounds."
        },
        "return": "The new funding rate with a timestamp of the update."
      },
      "setFundingRateProvider(address)": {
        "details": "Emits the LogFundingRateProviderSet event.",
        "params": {
          "newProvider": "The new provider, who will have the ability to set the funding rate."
        }
      },
      "transferOwnership(address)": {
        "details": "Transfers ownership of the contract to a new account (`newOwner`). Can only be called by the current owner."
      }
    },
    "title": "P1FundingOracle"
  },
  "userdoc": {
    "methods": {
      "getFunding(uint256)": {
        "notice": "Calculates the signed funding amount that has accumulated over a period of time."
      },
      "setFundingRate((uint256,bool))": {
        "notice": "Set the funding rate, denoted in units per second, fixed-point with 18 decimals."
      },
      "setFundingRateProvider(address)": {
        "notice": "Set the funding rate provider. Can only be called by the admin."
      }
    },
    "notice": "Oracle providing the funding rate for a perpetual market."
  }
}