{
  "contractName": "P1Getters",
  "abi": [
    {
      "constant": true,
      "inputs": [],
      "name": "getAdmin",
      "outputs": [
        {
          "internalType": "address",
          "name": "",
          "type": "address"
        }
      ],
      "payable": false,
      "stateMutability": "view",
      "type": "function"
    },
    {
      "constant": true,
      "inputs": [
        {
          "internalType": "address",
          "name": "account",
          "type": "address"
        }
      ],
      "name": "getAccountBalance",
      "outputs": [
        {
          "components": [
            {
              "internalType": "bool",
              "name": "marginIsPositive",
              "type": "bool"
            },
            {
              "internalType": "bool",
              "name": "positionIsPositive",
              "type": "bool"
            },
            {
              "internalType": "uint120",
              "name": "margin",
              "type": "uint120"
            },
            {
              "internalType": "uint120",
              "name": "position",
              "type": "uint120"
            }
          ],
          "internalType": "struct P1Types.Balance",
          "name": "",
          "type": "tuple"
        }
      ],
      "payable": false,
      "stateMutability": "view",
      "type": "function"
    },
    {
      "constant": true,
      "inputs": [
        {
          "internalType": "address",
          "name": "account",
          "type": "address"
        }
      ],
      "name": "getAccountIndex",
      "outputs": [
        {
          "components": [
            {
              "internalType": "uint32",
              "name": "timestamp",
              "type": "uint32"
            },
            {
              "internalType": "bool",
              "name": "isPositive",
              "type": "bool"
            },
            {
              "internalType": "uint128",
              "name": "value",
              "type": "uint128"
            }
          ],
          "internalType": "struct P1Types.Index",
          "name": "",
          "type": "tuple"
        }
      ],
      "payable": false,
      "stateMutability": "view",
      "type": "function"
    },
    {
      "constant": true,
      "inputs": [
        {
          "internalType": "address",
          "name": "account",
          "type": "address"
        },
        {
          "internalType": "address",
          "name": "operator",
          "type": "address"
        }
      ],
      "name": "getIsLocalOperator",
      "outputs": [
        {
          "internalType": "bool",
          "name": "",
          "type": "bool"
        }
      ],
      "payable": false,
      "stateMutability": "view",
      "type": "function"
    },
    {
      "constant": true,
      "inputs": [
        {
          "internalType": "address",
          "name": "operator",
          "type": "address"
        }
      ],
      "name": "getIsGlobalOperator",
      "outputs": [
        {
          "internalType": "bool",
          "name": "",
          "type": "bool"
        }
      ],
      "payable": false,
      "stateMutability": "view",
      "type": "function"
    },
    {
      "constant": true,
      "inputs": [],
      "name": "getTokenContract",
      "outputs": [
        {
          "internalType": "address",
          "name": "",
          "type": "address"
        }
      ],
      "payable": false,
      "stateMutability": "view",
      "type": "function"
    },
    {
      "constant": true,
      "inputs": [],
      "name": "getOracleContract",
      "outputs": [
        {
          "internalType": "address",
          "name": "",
          "type": "address"
        }
      ],
      "payable": false,
      "stateMutability": "view",
      "type": "function"
    },
    {
      "constant": true,
      "inputs": [],
      "name": "getFunderContract",
      "outputs": [
        {
          "internalType": "address",
          "name": "",
          "type": "address"
        }
      ],
      "payable": false,
      "stateMutability": "view",
      "type": "function"
    },
    {
      "constant": true,
      "inputs": [],
      "name": "getGlobalIndex",
      "outputs": [
        {
          "components": [
            {
              "internalType": "uint32",
              "name": "timestamp",
              "type": "uint32"
            },
            {
              "internalType": "bool",
              "name": "isPositive",
              "type": "bool"
            },
            {
              "internalType": "uint128",
              "name": "value",
              "type": "uint128"
            }
          ],
          "internalType": "struct P1Types.Index",
          "name": "",
          "type": "tuple"
        }
      ],
      "payable": false,
      "stateMutability": "view",
      "type": "function"
    },
    {
      "constant": true,
      "inputs": [],
      "name": "getMinCollateral",
      "outputs": [
        {
          "internalType": "uint256",
          "name": "",
          "type": "uint256"
        }
      ],
      "payable": false,
      "stateMutability": "view",
      "type": "function"
    },
    {
      "constant": true,
      "inputs": [],
      "name": "getFinalSettlementEnabled",
      "outputs": [
        {
          "internalType": "bool",
          "name": "",
          "type": "bool"
        }
      ],
      "payable": false,
      "stateMutability": "view",
      "type": "function"
    },
    {
      "constant": true,
      "inputs": [],
      "name": "getOraclePrice",
      "outputs": [
        {
          "internalType": "uint256",
          "name": "",
          "type": "uint256"
        }
      ],
      "payable": false,
      "stateMutability": "view",
      "type": "function"
    },
    {
      "constant": true,
      "inputs": [
        {
          "internalType": "address",
          "name": "account",
          "type": "address"
        },
        {
          "internalType": "address",
          "name": "operator",
          "type": "address"
        }
      ],
      "name": "hasAccountPermissions",
      "outputs": [
        {
          "internalType": "bool",
          "name": "",
          "type": "bool"
        }
      ],
      "payable": false,
      "stateMutability": "view",
      "type": "function"
    }
  ],
  "bytecode": "0x608060405260016000556108e7806100186000396000f3fe608060405234801561001057600080fd5b50600436106100df5760003560e01c806380d636811161008c5780639ba63e9e116100665780639ba63e9e146101a2578063dc4f3a0e146101b5578063e3bbb565146101bd578063e830b690146101c5576100df565b806380d636811461015a57806384ea28621461016f57806393423e9c14610182576100df565b80636e9960c3116100bd5780636e9960c3146101355780637099366b1461013d578063796da7af14610145576100df565b8063052f72d7146100e457806328b7bede1461010d5780633a031bf014610122575b600080fd5b6100f76100f2366004610627565b6101cd565b60405161010491906107d5565b60405180910390f35b6101156101f8565b60405161010491906107c7565b6100f761013036600461064d565b610214565b610115610251565b6100f7610281565b61014d61028a565b604051610104919061080f565b61016261037c565b6040516101049190610801565b6100f761017d36600461064d565b6103d2565b610195610190366004610627565b610477565b60405161010491906107f3565b6101626101b0366004610627565b61050a565b610115610588565b6101156105a4565b61014d6105c0565b73ffffffffffffffffffffffffffffffffffffffff1660009081526003602052604090205460ff1690565b60055473ffffffffffffffffffffffffffffffffffffffff1690565b73ffffffffffffffffffffffffffffffffffffffff80831660009081526004602090815260408083209385168352929052205460ff165b92915050565b600061027c7fb53127684a568b3173ae13b9f8a6016e243e63b6e8ee1178d6a717850b5d61036105c6565b905090565b600a5460ff1690565b3360009081526003602052604081205460ff166102dc576040517f08c379a00000000000000000000000000000000000000000000000000000000081526004016102d3906107e3565b60405180910390fd5b600660009054906101000a900473ffffffffffffffffffffffffffffffffffffffff1673ffffffffffffffffffffffffffffffffffffffff166398d5fdca6040518163ffffffff1660e01b815260040160206040518083038186803b15801561034457600080fd5b505afa158015610358573d6000803e3d6000fd5b505050506040513d601f19601f8201168201806040525061027c9190810190610687565b6103846105ca565b506040805160608101825260085463ffffffff81168252640100000000810460ff16151560208301526501000000000090046fffffffffffffffffffffffffffffffff169181019190915290565b60008173ffffffffffffffffffffffffffffffffffffffff168373ffffffffffffffffffffffffffffffffffffffff161480610433575073ffffffffffffffffffffffffffffffffffffffff821660009081526003602052604090205460ff165b80610470575073ffffffffffffffffffffffffffffffffffffffff80841660009081526004602090815260408083209386168352929052205460ff165b9392505050565b61047f6105ea565b5073ffffffffffffffffffffffffffffffffffffffff166000908152600160209081526040918290208251608081018452905460ff808216151583526101008204161515928201929092526effffffffffffffffffffffffffffff62010000830481169382019390935271010000000000000000000000000000000000909104909116606082015290565b6105126105ca565b5073ffffffffffffffffffffffffffffffffffffffff166000908152600260209081526040918290208251606081018452905463ffffffff81168252640100000000810460ff16151592820192909252650100000000009091046fffffffffffffffffffffffffffffffff169181019190915290565b60075473ffffffffffffffffffffffffffffffffffffffff1690565b60065473ffffffffffffffffffffffffffffffffffffffff1690565b60095490565b5490565b604080516060810182526000808252602082018190529181019190915290565b60408051608081018252600080825260208201819052918101829052606081019190915290565b803561024b81610884565b805161024b8161089b565b60006020828403121561063957600080fd5b60006106458484610611565b949350505050565b6000806040838503121561066057600080fd5b600061066c8585610611565b925050602061067d85828601610611565b9150509250929050565b60006020828403121561069957600080fd5b6000610645848461061c565b6106ae81610826565b82525050565b6106ae81610831565b60006106ca602a8361081d565b7f4f7261636c6520707269636520726571756573746572206e6f7420676c6f626181527f6c206f70657261746f7200000000000000000000000000000000000000000000602082015260400192915050565b8051608083019061072d84826106b4565b50602082015161074060208501826106b4565b50604082015161075360408501826107a3565b50606082015161076660608501826107a3565b50505050565b8051606083019061077d84826107be565b50602082015161079060208501826106b4565b50604082015161076660408501826107ac565b6106ae81610836565b6106ae8161084a565b6106ae81610878565b6106ae8161087b565b6020810161024b82846106a5565b6020810161024b82846106b4565b6020808252810161024b816106bd565b6080810161024b828461071c565b6060810161024b828461076c565b6020810161024b82846107b5565b90815260200190565b600061024b8261085f565b151590565b6effffffffffffffffffffffffffffff1690565b6fffffffffffffffffffffffffffffffff1690565b73ffffffffffffffffffffffffffffffffffffffff1690565b90565b63ffffffff1690565b61088d81610826565b811461089857600080fd5b50565b61088d8161087856fea365627a7a72315820657b8850d83d7d3bb0fe52e6af112ef1ed246a9816c2eca448ae255377778cba6c6578706572696d656e74616cf564736f6c63430005100040",
  "source": "/*\n\n    Copyright 2020 dYdX Trading Inc.\n\n    Licensed under the Apache License, Version 2.0 (the \"License\");\n    you may not use this file except in compliance with the License.\n    You may obtain a copy of the License at\n\n    http://www.apache.org/licenses/LICENSE-2.0\n\n    Unless required by applicable law or agreed to in writing, software\n    distributed under the License is distributed on an \"AS IS\" BASIS,\n    WITHOUT WARRANTIES OR CONDITIONS OF ANY KIND, either express or implied.\n    See the License for the specific language governing permissions and\n    limitations under the License.\n\n*/\n\npragma solidity 0.5.16;\npragma experimental ABIEncoderV2;\n\nimport { P1Storage } from \"./P1Storage.sol\";\nimport { I_P1Oracle } from \"../intf/I_P1Oracle.sol\";\nimport { P1Types } from \"../lib/P1Types.sol\";\n\n\n/**\n * @title P1Getters\n * @author dYdX\n *\n * @notice Contract for read-only getters.\n */\ncontract P1Getters is\n    P1Storage\n{\n    // ============ Account Getters ============\n\n    /**\n     * @notice Get the balance of an account, without accounting for changes in the index.\n     *\n     * @param  account  The address of the account to query the balances of.\n     * @return          The balances of the account.\n     */\n    function getAccountBalance(\n        address account\n    )\n        external\n        view\n        returns (P1Types.Balance memory)\n    {\n        return _BALANCES_[account];\n    }\n\n    /**\n     * @notice Gets the most recently cached index of an account.\n     *\n     * @param  account  The address of the account to query the index of.\n     * @return          The index of the account.\n     */\n    function getAccountIndex(\n        address account\n    )\n        external\n        view\n        returns (P1Types.Index memory)\n    {\n        return _LOCAL_INDEXES_[account];\n    }\n\n    /**\n     * @notice Gets the local operator status of an operator for a particular account.\n     *\n     * @param  account   The account to query the operator for.\n     * @param  operator  The address of the operator to query the status of.\n     * @return           True if the operator is a local operator of the account, false otherwise.\n     */\n    function getIsLocalOperator(\n        address account,\n        address operator\n    )\n        external\n        view\n        returns (bool)\n    {\n        return _LOCAL_OPERATORS_[account][operator];\n    }\n\n    // ============ Global Getters ============\n\n    /**\n     * @notice Gets the global operator status of an address.\n     *\n     * @param  operator  The address of the operator to query the status of.\n     * @return           True if the address is a global operator, false otherwise.\n     */\n    function getIsGlobalOperator(\n        address operator\n    )\n        external\n        view\n        returns (bool)\n    {\n        return _GLOBAL_OPERATORS_[operator];\n    }\n\n    /**\n     * @notice Gets the address of the ERC20 margin contract used for margin deposits.\n     *\n     * @return The address of the ERC20 token.\n     */\n    function getTokenContract()\n        external\n        view\n        returns (address)\n    {\n        return _TOKEN_;\n    }\n\n    /**\n     * @notice Gets the current address of the price oracle contract.\n     *\n     * @return The address of the price oracle contract.\n     */\n    function getOracleContract()\n        external\n        view\n        returns (address)\n    {\n        return _ORACLE_;\n    }\n\n    /**\n     * @notice Gets the current address of the funder contract.\n     *\n     * @return The address of the funder contract.\n     */\n    function getFunderContract()\n        external\n        view\n        returns (address)\n    {\n        return _FUNDER_;\n    }\n\n    /**\n     * @notice Gets the most recently cached global index.\n     *\n     * @return The most recently cached global index.\n     */\n    function getGlobalIndex()\n        external\n        view\n        returns (P1Types.Index memory)\n    {\n        return _GLOBAL_INDEX_;\n    }\n\n    /**\n     * @notice Gets minimum collateralization ratio of the protocol.\n     *\n     * @return The minimum-acceptable collateralization ratio, returned as a fixed-point number with\n     *  18 decimals of precision.\n     */\n    function getMinCollateral()\n        external\n        view\n        returns (uint256)\n    {\n        return _MIN_COLLATERAL_;\n    }\n\n    /**\n     * @notice Gets the status of whether final-settlement was initiated by the Admin.\n     *\n     * @return True if final-settlement was enabled, false otherwise.\n     */\n    function getFinalSettlementEnabled()\n        external\n        view\n        returns (bool)\n    {\n        return _FINAL_SETTLEMENT_ENABLED_;\n    }\n\n    // ============ Authorized External Getters ============\n\n    /**\n     * @notice Gets the price returned by the oracle.\n     * @dev Only able to be called by global operators.\n     *\n     * @return The price returned by the current price oracle.\n     */\n    function getOraclePrice()\n        external\n        view\n        returns (uint256)\n    {\n        require(\n            _GLOBAL_OPERATORS_[msg.sender],\n            \"Oracle price requester not global operator\"\n        );\n        return I_P1Oracle(_ORACLE_).getPrice();\n    }\n\n    // ============ Public Getters ============\n\n    /**\n     * @notice Gets whether an address has permissions to operate an account.\n     *\n     * @param  account   The account to query.\n     * @param  operator  The address to query.\n     * @return           True if the operator has permission to operate the account,\n     *                   and false otherwise.\n     */\n    function hasAccountPermissions(\n        address account,\n        address operator\n    )\n        public\n        view\n        returns (bool)\n    {\n        return account == operator\n            || _GLOBAL_OPERATORS_[operator]\n            || _LOCAL_OPERATORS_[account][operator];\n    }\n}\n",
  "sourcePath": "/Users/dennismacpro/Projects/Defi/Ethereum-Solidity-Collection/icarus-protocol/defi-seeder/.tmp/dydx-protocol/perpetual/contracts/protocol/v1/impl/P1Getters.sol",
  "compiler": {
    "name": "solc",
    "version": "0.5.16+commit.9c3226ce.Linux.g++"
  },
  "schemaVersion": "3.3.4",
  "updatedAt": "2021-04-01T16:42:57.380Z",
  "devdoc": {
    "author": "dYdX",
    "methods": {
      "getAccountBalance(address)": {
        "params": {
          "account": "The address of the account to query the balances of."
        },
        "return": "The balances of the account."
      },
      "getAccountIndex(address)": {
        "params": {
          "account": "The address of the account to query the index of."
        },
        "return": "The index of the account."
      },
      "getAdmin()": {
        "return": "The EIP-1967 proxy admin"
      },
      "getFinalSettlementEnabled()": {
        "return": "True if final-settlement was enabled, false otherwise."
      },
      "getFunderContract()": {
        "return": "The address of the funder contract."
      },
      "getGlobalIndex()": {
        "return": "The most recently cached global index."
      },
      "getIsGlobalOperator(address)": {
        "params": {
          "operator": "The address of the operator to query the status of."
        },
        "return": "True if the address is a global operator, false otherwise."
      },
      "getIsLocalOperator(address,address)": {
        "params": {
          "account": "The account to query the operator for.",
          "operator": "The address of the operator to query the status of."
        },
        "return": "True if the operator is a local operator of the account, false otherwise."
      },
      "getMinCollateral()": {
        "return": "The minimum-acceptable collateralization ratio, returned as a fixed-point number with 18 decimals of precision."
      },
      "getOracleContract()": {
        "return": "The address of the price oracle contract."
      },
      "getOraclePrice()": {
        "details": "Only able to be called by global operators.",
        "return": "The price returned by the current price oracle."
      },
      "getTokenContract()": {
        "return": "The address of the ERC20 token."
      },
      "hasAccountPermissions(address,address)": {
        "params": {
          "account": "The account to query.",
          "operator": "The address to query."
        },
        "return": "True if the operator has permission to operate the account,                  and false otherwise."
      }
    },
    "title": "P1Getters"
  },
  "userdoc": {
    "methods": {
      "getAccountBalance(address)": {
        "notice": "Get the balance of an account, without accounting for changes in the index."
      },
      "getAccountIndex(address)": {
        "notice": "Gets the most recently cached index of an account."
      },
      "getFinalSettlementEnabled()": {
        "notice": "Gets the status of whether final-settlement was initiated by the Admin."
      },
      "getFunderContract()": {
        "notice": "Gets the current address of the funder contract."
      },
      "getGlobalIndex()": {
        "notice": "Gets the most recently cached global index."
      },
      "getIsGlobalOperator(address)": {
        "notice": "Gets the global operator status of an address."
      },
      "getIsLocalOperator(address,address)": {
        "notice": "Gets the local operator status of an operator for a particular account."
      },
      "getMinCollateral()": {
        "notice": "Gets minimum collateralization ratio of the protocol."
      },
      "getOracleContract()": {
        "notice": "Gets the current address of the price oracle contract."
      },
      "getOraclePrice()": {
        "notice": "Gets the price returned by the oracle."
      },
      "getTokenContract()": {
        "notice": "Gets the address of the ERC20 margin contract used for margin deposits."
      },
      "hasAccountPermissions(address,address)": {
        "notice": "Gets whether an address has permissions to operate an account."
      }
    },
    "notice": "Contract for read-only getters."
  }
}