{
  "contractName": "P1InverseFundingOracle",
  "abi": [
    {
      "inputs": [
        {
          "internalType": "address",
          "name": "fundingRateProvider",
          "type": "address"
        }
      ],
      "payable": false,
      "stateMutability": "nonpayable",
      "type": "constructor"
    },
    {
      "anonymous": false,
      "inputs": [
        {
          "indexed": false,
          "internalType": "address",
          "name": "fundingRateProvider",
          "type": "address"
        }
      ],
      "name": "LogFundingRateProviderSet",
      "type": "event"
    },
    {
      "anonymous": false,
      "inputs": [
        {
          "indexed": false,
          "internalType": "bytes32",
          "name": "fundingRate",
          "type": "bytes32"
        }
      ],
      "name": "LogFundingRateUpdated",
      "type": "event"
    },
    {
      "anonymous": false,
      "inputs": [
        {
          "indexed": true,
          "internalType": "address",
          "name": "previousOwner",
          "type": "address"
        },
        {
          "indexed": true,
          "internalType": "address",
          "name": "newOwner",
          "type": "address"
        }
      ],
      "name": "OwnershipTransferred",
      "type": "event"
    },
    {
      "constant": true,
      "inputs": [],
      "name": "MAX_ABS_DIFF_PER_SECOND",
      "outputs": [
        {
          "internalType": "uint128",
          "name": "",
          "type": "uint128"
        }
      ],
      "payable": false,
      "stateMutability": "view",
      "type": "function"
    },
    {
      "constant": true,
      "inputs": [],
      "name": "MAX_ABS_VALUE",
      "outputs": [
        {
          "internalType": "uint128",
          "name": "",
          "type": "uint128"
        }
      ],
      "payable": false,
      "stateMutability": "view",
      "type": "function"
    },
    {
      "constant": true,
      "inputs": [],
      "name": "_FUNDING_RATE_PROVIDER_",
      "outputs": [
        {
          "internalType": "address",
          "name": "",
          "type": "address"
        }
      ],
      "payable": false,
      "stateMutability": "view",
      "type": "function"
    },
    {
      "constant": true,
      "inputs": [],
      "name": "isOwner",
      "outputs": [
        {
          "internalType": "bool",
          "name": "",
          "type": "bool"
        }
      ],
      "payable": false,
      "stateMutability": "view",
      "type": "function"
    },
    {
      "constant": true,
      "inputs": [],
      "name": "owner",
      "outputs": [
        {
          "internalType": "address",
          "name": "",
          "type": "address"
        }
      ],
      "payable": false,
      "stateMutability": "view",
      "type": "function"
    },
    {
      "constant": false,
      "inputs": [],
      "name": "renounceOwnership",
      "outputs": [],
      "payable": false,
      "stateMutability": "nonpayable",
      "type": "function"
    },
    {
      "constant": false,
      "inputs": [
        {
          "components": [
            {
              "internalType": "uint256",
              "name": "value",
              "type": "uint256"
            },
            {
              "internalType": "bool",
              "name": "isPositive",
              "type": "bool"
            }
          ],
          "internalType": "struct SignedMath.Int",
          "name": "newRate",
          "type": "tuple"
        }
      ],
      "name": "setFundingRate",
      "outputs": [
        {
          "components": [
            {
              "internalType": "uint32",
              "name": "timestamp",
              "type": "uint32"
            },
            {
              "internalType": "bool",
              "name": "isPositive",
              "type": "bool"
            },
            {
              "internalType": "uint128",
              "name": "value",
              "type": "uint128"
            }
          ],
          "internalType": "struct P1Types.Index",
          "name": "",
          "type": "tuple"
        }
      ],
      "payable": false,
      "stateMutability": "nonpayable",
      "type": "function"
    },
    {
      "constant": false,
      "inputs": [
        {
          "internalType": "address",
          "name": "newProvider",
          "type": "address"
        }
      ],
      "name": "setFundingRateProvider",
      "outputs": [],
      "payable": false,
      "stateMutability": "nonpayable",
      "type": "function"
    },
    {
      "constant": false,
      "inputs": [
        {
          "internalType": "address",
          "name": "newOwner",
          "type": "address"
        }
      ],
      "name": "transferOwnership",
      "outputs": [],
      "payable": false,
      "stateMutability": "nonpayable",
      "type": "function"
    },
    {
      "constant": true,
      "inputs": [
        {
          "internalType": "uint256",
          "name": "timeDelta",
          "type": "uint256"
        }
      ],
      "name": "getFunding",
      "outputs": [
        {
          "internalType": "bool",
          "name": "",
          "type": "bool"
        },
        {
          "internalType": "uint256",
          "name": "",
          "type": "uint256"
        }
      ],
      "payable": false,
      "stateMutability": "view",
      "type": "function"
    }
  ],
  "bytecode": "0x60806040523480156200001157600080fd5b506040516200162c3803806200162c833981016040819052620000349162000294565b8060006200004a6001600160e01b03620001e516565b600080546001600160a01b0319166001600160a01b0383169081178255604051929350917f8be0079c531659141344cd1fd0a4f28419497f9722a3daafe3b4186f6b6457e0908290a3506200009e62000261565b6040518060600160405280620000bf42620001e960201b620007a11760201c565b63ffffffff908116825260016020808401829052600060409485015284518254868301519587015163ffffffff19909116919094161760ff60201b19166401000000009415159490940293909317600160281b600160a81b031916650100000000006001600160801b0390931692909202919091179055600280546001600160a01b0319166001600160a01b0386161790559091507f2ebf65220b5046a8d9cff102710ef15de0a0bf3709dcc11c3af50abe472e1c22906200018c9083906200021f811b6200083117901c565b6040516200019b919062000333565b60405180910390a17f232d43841005a98dbf929d234a7a8d2c4c570becee067c9c81bcd4e0acd0ab9282604051620001d4919062000323565b60405180910390a150505062000394565b3390565b600064010000000082106200021b5760405162461bcd60e51b8152600401620002129062000343565b60405180910390fd5b5090565b6000806088836000015163ffffffff16901b83602001516200024357600062000249565b600160801b5b60408501516001600160801b03161717915050919050565b604080516060810182526000808252602082018190529181019190915290565b80516200028e816200037a565b92915050565b600060208284031215620002a757600080fd5b6000620002b5848462000281565b949350505050565b620002c8816200035e565b82525050565b620002c8816200036b565b6000620002e860268362000355565b7f53616665436173743a2076616c756520646f65736e27742066697420696e203381526532206269747360d01b602082015260400192915050565b602081016200028e8284620002bd565b602081016200028e8284620002ce565b602080825281016200028e81620002d9565b90815260200190565b60006200028e826200036e565b90565b6001600160a01b031690565b62000385816200035e565b81146200039157600080fd5b50565b61128880620003a46000396000f3fe608060405234801561001057600080fd5b50600436106100be5760003560e01c80638da5cb5b11610076578063ebed4bd41161005b578063ebed4bd414610138578063ef460e3614610159578063f2fde38b14610179576100be565b80638da5cb5b1461011b5780638f32d59b14610123576100be565b8063499c9c6d116100a7578063499c9c6d146100f657806356a281ea1461010b578063715018a614610113576100be565b80630b8781ee146100c3578063109f60e3146100e1575b600080fd5b6100cb61018c565b6040516100d8919061106b565b60405180910390f35b6100f46100ef366004610cf6565b6101a8565b005b6100fe61026a565b6040516100d8919061113f565b6100fe61027a565b6100f4610288565b6100cb610335565b61012b610351565b6040516100d89190611079565b61014b610146366004610d58565b61038f565b6040516100d8929190611087565b61016c610167366004610d1c565b6103ab565b6040516100d89190611131565b6100f4610187366004610cf6565b610569565b60025473ffffffffffffffffffffffffffffffffffffffff1681565b6101b0610351565b6101ef576040517f08c379a00000000000000000000000000000000000000000000000000000000081526004016101e690611111565b60405180910390fd5b600280547fffffffffffffffffffffffff00000000000000000000000000000000000000001673ffffffffffffffffffffffffffffffffffffffff83161790556040517f232d43841005a98dbf929d234a7a8d2c4c570becee067c9c81bcd4e0acd0ab929061025f90839061106b565b60405180910390a150565b617080661aa535d3d0c0005b0481565b610a8c64794415f854610276565b610290610351565b6102c6576040517f08c379a00000000000000000000000000000000000000000000000000000000081526004016101e690611111565b6000805460405173ffffffffffffffffffffffffffffffffffffffff909116907f8be0079c531659141344cd1fd0a4f28419497f9722a3daafe3b4186f6b6457e0908390a3600080547fffffffffffffffffffffffff0000000000000000000000000000000000000000169055565b60005473ffffffffffffffffffffffffffffffffffffffff1690565b6000805473ffffffffffffffffffffffffffffffffffffffff166103736105b3565b73ffffffffffffffffffffffffffffffffffffffff1614905090565b60008060008061039e856105b7565b9015945092505050915091565b6103b3610c3f565b60025473ffffffffffffffffffffffffffffffffffffffff163314610404576040517f08c379a00000000000000000000000000000000000000000000000000000000081526004016101e6906110f1565b61040c610c5f565b61042361041e36859003850185610d3a565b610631565b905061042d610c3f565b6040518060600160405280610441426107a1565b63ffffffff16815260200183602001511515815260200161046584600001516107e5565b6fffffffffffffffffffffffffffffffff9081169091528151600180546020850151604086015190941665010000000000027fffffffffffffffffffffff00000000000000000000000000000000ffffffffff941515640100000000027fffffffffffffffffffffffffffffffffffffffffffffffffffffff00ffffffff63ffffffff9095167fffffffffffffffffffffffffffffffffffffffffffffffffffffffff000000009093169290921793909316179290921617905590507f2ebf65220b5046a8d9cff102710ef15de0a0bf3709dcc11c3af50abe472e1c2261054b82610831565b60405161055891906110a2565b60405180910390a19150505b919050565b610571610351565b6105a7576040517f08c379a00000000000000000000000000000000000000000000000000000000081526004016101e690611111565b6105b081610887565b50565b3390565b6000806105c2610c3f565b506040805160608101825260015463ffffffff8082168352640100000000820460ff1615156020840152650100000000009091046fffffffffffffffffffffffffffffffff1692820183905290916000916106209190879061096116565b602090920151935090915050915091565b610639610c5f565b610641610c3f565b506040805160608101825260015463ffffffff81168252640100000000810460ff16151560208301526501000000000090046fffffffffffffffffffffffffffffffff1691810191909152610694610c5f565b50604080518082018252908201516fffffffffffffffffffffffffffffffff16815260208083015115159082015281516000906106dc90429063ffffffff908116906109be16565b905060006106f4630b7f70728363ffffffff61096116565b9050610706868463ffffffff610a0016565b1561075c57610713610c5f565b610744610726858463ffffffff610a5416565b60408051808201909152643ca20afc2a815260016020820152610af3565b90506107508782610af3565b95505050505050610564565b610764610c5f565b610795610777858463ffffffff610b1616565b60408051808201909152643ca20afc2a815260006020820152610ba3565b90506107508782610ba3565b600064010000000082106107e1576040517f08c379a00000000000000000000000000000000000000000000000000000000081526004016101e690611121565b5090565b600070010000000000000000000000000000000082106107e1576040517f08c379a00000000000000000000000000000000000000000000000000000000081526004016101e6906110e1565b6000806088836000015163ffffffff16901b8360200151610853576000610866565b7001000000000000000000000000000000005b60408501516fffffffffffffffffffffffffffffffff161717915050919050565b73ffffffffffffffffffffffffffffffffffffffff81166108d4576040517f08c379a00000000000000000000000000000000000000000000000000000000081526004016101e6906110c1565b6000805460405173ffffffffffffffffffffffffffffffffffffffff808516939216917f8be0079c531659141344cd1fd0a4f28419497f9722a3daafe3b4186f6b6457e091a3600080547fffffffffffffffffffffffff00000000000000000000000000000000000000001673ffffffffffffffffffffffffffffffffffffffff92909216919091179055565b600082610970575060006109b8565b8282028284828161097d57fe5b04146109b5576040517f08c379a00000000000000000000000000000000000000000000000000000000081526004016101e690611101565b90505b92915050565b60006109b583836040518060400160405280601e81526020017f536166654d6174683a207375627472616374696f6e206f766572666c6f770000815250610bb5565b6000826020015115610a3757816020015115610a21575080518251116109b8565b8251151580610a305750815115155b90506109b8565b816020015115610a49575060006109b8565b5080518251106109b8565b610a5c610c5f565b826020015115610a99576040518060400160405280610a88856000015185610c0090919063ffffffff16565b8152600160209091015290506109b8565b8251821115610ac4576040518060400160405280610a888560000151856109be90919063ffffffff16565b6040805180820190915283518190610ae2908563ffffffff6109be16565b815260006020909101529392505050565b610afb610c5f565b610b058284610a00565b610b0f57816109b5565b5090919050565b610b1e610c5f565b8260200151610b5a576040518060400160405280610b49856000015185610c0090919063ffffffff16565b8152600060209091015290506109b8565b8251821015610b81576040805180820190915283518190610a88908563ffffffff6109be16565b6040518060400160405280610ae28560000151856109be90919063ffffffff16565b610bab610c5f565b610b058383610a00565b60008184841115610bf3576040517f08c379a00000000000000000000000000000000000000000000000000000000081526004016101e691906110b0565b50508183035b9392505050565b6000828201838110156109b5576040517f08c379a00000000000000000000000000000000000000000000000000000000081526004016101e6906110d1565b604080516060810182526000808252602082018190529181019190915290565b604080518082019091526000808252602082015290565b80356109b88161121f565b80356109b881611233565b600060408284031215610c9e57600080fd5b50919050565b600060408284031215610cb657600080fd5b610cc0604061114d565b90506000610cce8484610ceb565b8252506020610cdf84848301610c81565b60208301525092915050565b80356109b88161123c565b600060208284031215610d0857600080fd5b6000610d148484610c76565b949350505050565b600060408284031215610d2e57600080fd5b6000610d148484610c8c565b600060408284031215610d4c57600080fd5b6000610d148484610ca4565b600060208284031215610d6a57600080fd5b6000610d148484610ceb565b610d7f81611181565b82525050565b610d7f8161118c565b610d7f81611191565b6000610da282611174565b610dac8185611178565b9350610dbc8185602086016111cb565b610dc5816111f7565b9093019392505050565b6000610ddc602683611178565b7f4f776e61626c653a206e6577206f776e657220697320746865207a65726f206181527f6464726573730000000000000000000000000000000000000000000000000000602082015260400192915050565b6000610e3b601b83611178565b7f536166654d6174683a206164646974696f6e206f766572666c6f770000000000815260200192915050565b6000610e74602783611178565b7f53616665436173743a2076616c756520646f65736e27742066697420696e203181527f3238206269747300000000000000000000000000000000000000000000000000602082015260400192915050565b6000610ed3603d83611178565b7f5468652066756e64696e6720726174652063616e206f6e6c792062652073657481527f206279207468652066756e64696e6720726174652070726f7669646572000000602082015260400192915050565b6000610f32602183611178565b7f536166654d6174683a206d756c7469706c69636174696f6e206f766572666c6f81527f7700000000000000000000000000000000000000000000000000000000000000602082015260400192915050565b6000610f91602083611178565b7f4f776e61626c653a2063616c6c6572206973206e6f7420746865206f776e6572815260200192915050565b6000610fca602683611178565b7f53616665436173743a2076616c756520646f65736e27742066697420696e203381527f3220626974730000000000000000000000000000000000000000000000000000602082015260400192915050565b8051606083019061102d8482611062565b5060208201516110406020850182610d85565b5060408201516110536040850182611059565b50505050565b610d7f81611194565b610d7f816111c2565b602081016109b88284610d76565b602081016109b88284610d85565b604081016110958285610d85565b610bf96020830184610d8e565b602081016109b88284610d8e565b602080825281016109b58184610d97565b602080825281016109b881610dcf565b602080825281016109b881610e2e565b602080825281016109b881610e67565b602080825281016109b881610ec6565b602080825281016109b881610f25565b602080825281016109b881610f84565b602080825281016109b881610fbd565b606081016109b8828461101c565b602081016109b88284611059565b60405181810167ffffffffffffffff8111828210171561116c57600080fd5b604052919050565b5190565b90815260200190565b60006109b8826111a9565b151590565b90565b6fffffffffffffffffffffffffffffffff1690565b73ffffffffffffffffffffffffffffffffffffffff1690565b63ffffffff1690565b60005b838110156111e65781810151838201526020016111ce565b838111156110535750506000910152565b601f017fffffffffffffffffffffffffffffffffffffffffffffffffffffffffffffffe01690565b61122881611181565b81146105b057600080fd5b6112288161118c565b6112288161119156fea365627a7a7231582011059e9ca825296e483d57b5710e5f6e9e0ed8873da0a3d9b15b49b392823b7c6c6578706572696d656e74616cf564736f6c63430005100040",
  "source": "/*\n\n    Copyright 2020 dYdX Trading Inc.\n\n    Licensed under the Apache License, Version 2.0 (the \"License\");\n    you may not use this file except in compliance with the License.\n    You may obtain a copy of the License at\n\n    http://www.apache.org/licenses/LICENSE-2.0\n\n    Unless required by applicable law or agreed to in writing, software\n    distributed under the License is distributed on an \"AS IS\" BASIS,\n    WITHOUT WARRANTIES OR CONDITIONS OF ANY KIND, either express or implied.\n    See the License for the specific language governing permissions and\n    limitations under the License.\n\n*/\n\npragma solidity 0.5.16;\npragma experimental ABIEncoderV2;\n\nimport { P1FundingOracle } from \"./P1FundingOracle.sol\";\n\n\n/**\n * @title P1InverseFundingOracle\n * @author dYdX\n *\n * @notice P1FundingOracle that uses the inverted rate (i.e. flips base and quote currencies)\n *  when getting the funding amount.\n */\ncontract P1InverseFundingOracle is\n    P1FundingOracle\n{\n    // ============ Constructor ============\n\n    constructor(\n        address fundingRateProvider\n    )\n        P1FundingOracle(fundingRateProvider)\n        public\n    {\n    }\n\n    // ============ External Functions ============\n\n    /**\n     * @notice Calculates the signed funding amount that has accumulated over a period of time.\n     *\n     * @param  timeDelta  Number of seconds over which to calculate the accumulated funding amount.\n     * @return            True if the funding rate is positive, and false otherwise.\n     * @return            The funding amount as a unitless rate, represented as a fixed-point number\n     *                    with 18 decimals.\n     */\n    function getFunding(\n        uint256 timeDelta\n    )\n        public\n        view\n        returns (bool, uint256)\n    {\n        (bool isPositive, uint256 fundingAmount) = super.getFunding(timeDelta);\n        return (!isPositive, fundingAmount);\n    }\n}\n",
  "sourcePath": "/Users/dennismacpro/Projects/Defi/Ethereum-Solidity-Collection/icarus-protocol/defi-seeder/.tmp/dydx-protocol/perpetual/contracts/protocol/v1/oracles/P1InverseFundingOracle.sol",
  "compiler": {
    "name": "solc",
    "version": "0.5.16+commit.9c3226ce.Linux.g++"
  },
  "schemaVersion": "3.3.4",
  "updatedAt": "2021-04-01T16:42:57.406Z",
  "devdoc": {
    "author": "dYdX",
    "methods": {
      "getFunding(uint256)": {
        "params": {
          "timeDelta": "Number of seconds over which to calculate the accumulated funding amount."
        },
        "return": "True if the funding rate is positive, and false otherwise.The funding amount as a unitless rate, represented as a fixed-point number                   with 18 decimals."
      },
      "isOwner()": {
        "details": "Returns true if the caller is the current owner."
      },
      "owner()": {
        "details": "Returns the address of the current owner."
      },
      "renounceOwnership()": {
        "details": "Leaves the contract without owner. It will not be possible to call `onlyOwner` functions anymore. Can only be called by the current owner.     * NOTE: Renouncing ownership will leave the contract without an owner, thereby removing any functionality that is only available to the owner."
      },
      "setFundingRate((uint256,bool))": {
        "details": "Can only be called by the funding rate provider. Emits the LogFundingRateUpdated event.",
        "params": {
          "newRate": "The intended new funding rate. Is bounded by the global constant bounds."
        },
        "return": "The new funding rate with a timestamp of the update."
      },
      "setFundingRateProvider(address)": {
        "details": "Emits the LogFundingRateProviderSet event.",
        "params": {
          "newProvider": "The new provider, who will have the ability to set the funding rate."
        }
      },
      "transferOwnership(address)": {
        "details": "Transfers ownership of the contract to a new account (`newOwner`). Can only be called by the current owner."
      }
    },
    "title": "P1InverseFundingOracle"
  },
  "userdoc": {
    "methods": {
      "getFunding(uint256)": {
        "notice": "Calculates the signed funding amount that has accumulated over a period of time."
      },
      "setFundingRate((uint256,bool))": {
        "notice": "Set the funding rate, denoted in units per second, fixed-point with 18 decimals."
      },
      "setFundingRateProvider(address)": {
        "notice": "Set the funding rate provider. Can only be called by the admin."
      }
    },
    "notice": "P1FundingOracle that uses the inverted rate (i.e. flips base and quote currencies) when getting the funding amount."
  }
}