{
  "contractName": "P1LiquidatorProxy",
  "abi": [
    {
      "inputs": [
        {
          "internalType": "address",
          "name": "perpetualV1",
          "type": "address"
        },
        {
          "internalType": "address",
          "name": "liquidator",
          "type": "address"
        },
        {
          "internalType": "address",
          "name": "insuranceFund",
          "type": "address"
        },
        {
          "internalType": "uint256",
          "name": "insuranceFee",
          "type": "uint256"
        }
      ],
      "payable": false,
      "stateMutability": "nonpayable",
      "type": "constructor"
    },
    {
      "anonymous": false,
      "inputs": [
        {
          "indexed": false,
          "internalType": "uint256",
          "name": "insuranceFee",
          "type": "uint256"
        }
      ],
      "name": "LogInsuranceFeeSet",
      "type": "event"
    },
    {
      "anonymous": false,
      "inputs": [
        {
          "indexed": false,
          "internalType": "address",
          "name": "insuranceFund",
          "type": "address"
        }
      ],
      "name": "LogInsuranceFundSet",
      "type": "event"
    },
    {
      "anonymous": false,
      "inputs": [
        {
          "indexed": true,
          "internalType": "address",
          "name": "liquidatee",
          "type": "address"
        },
        {
          "indexed": true,
          "internalType": "address",
          "name": "liquidator",
          "type": "address"
        },
        {
          "indexed": false,
          "internalType": "bool",
          "name": "isBuy",
          "type": "bool"
        },
        {
          "indexed": false,
          "internalType": "uint256",
          "name": "liquidationAmount",
          "type": "uint256"
        },
        {
          "indexed": false,
          "internalType": "uint256",
          "name": "feeAmount",
          "type": "uint256"
        }
      ],
      "name": "LogLiquidatorProxyUsed",
      "type": "event"
    },
    {
      "anonymous": false,
      "inputs": [
        {
          "indexed": true,
          "internalType": "address",
          "name": "previousOwner",
          "type": "address"
        },
        {
          "indexed": true,
          "internalType": "address",
          "name": "newOwner",
          "type": "address"
        }
      ],
      "name": "OwnershipTransferred",
      "type": "event"
    },
    {
      "constant": true,
      "inputs": [],
      "name": "_INSURANCE_FEE_",
      "outputs": [
        {
          "internalType": "uint256",
          "name": "",
          "type": "uint256"
        }
      ],
      "payable": false,
      "stateMutability": "view",
      "type": "function"
    },
    {
      "constant": true,
      "inputs": [],
      "name": "_INSURANCE_FUND_",
      "outputs": [
        {
          "internalType": "address",
          "name": "",
          "type": "address"
        }
      ],
      "payable": false,
      "stateMutability": "view",
      "type": "function"
    },
    {
      "constant": true,
      "inputs": [],
      "name": "_LIQUIDATION_",
      "outputs": [
        {
          "internalType": "address",
          "name": "",
          "type": "address"
        }
      ],
      "payable": false,
      "stateMutability": "view",
      "type": "function"
    },
    {
      "constant": true,
      "inputs": [],
      "name": "_PERPETUAL_V1_",
      "outputs": [
        {
          "internalType": "address",
          "name": "",
          "type": "address"
        }
      ],
      "payable": false,
      "stateMutability": "view",
      "type": "function"
    },
    {
      "constant": true,
      "inputs": [],
      "name": "isOwner",
      "outputs": [
        {
          "internalType": "bool",
          "name": "",
          "type": "bool"
        }
      ],
      "payable": false,
      "stateMutability": "view",
      "type": "function"
    },
    {
      "constant": true,
      "inputs": [],
      "name": "owner",
      "outputs": [
        {
          "internalType": "address",
          "name": "",
          "type": "address"
        }
      ],
      "payable": false,
      "stateMutability": "view",
      "type": "function"
    },
    {
      "constant": false,
      "inputs": [],
      "name": "renounceOwnership",
      "outputs": [],
      "payable": false,
      "stateMutability": "nonpayable",
      "type": "function"
    },
    {
      "constant": false,
      "inputs": [
        {
          "internalType": "address",
          "name": "newOwner",
          "type": "address"
        }
      ],
      "name": "transferOwnership",
      "outputs": [],
      "payable": false,
      "stateMutability": "nonpayable",
      "type": "function"
    },
    {
      "constant": false,
      "inputs": [],
      "name": "approveMaximumOnPerpetual",
      "outputs": [],
      "payable": false,
      "stateMutability": "nonpayable",
      "type": "function"
    },
    {
      "constant": false,
      "inputs": [
        {
          "internalType": "address",
          "name": "liquidatee",
          "type": "address"
        },
        {
          "internalType": "address",
          "name": "liquidator",
          "type": "address"
        },
        {
          "internalType": "bool",
          "name": "isBuy",
          "type": "bool"
        },
        {
          "components": [
            {
              "internalType": "uint256",
              "name": "value",
              "type": "uint256"
            },
            {
              "internalType": "bool",
              "name": "isPositive",
              "type": "bool"
            }
          ],
          "internalType": "struct SignedMath.Int",
          "name": "maxPosition",
          "type": "tuple"
        }
      ],
      "name": "liquidate",
      "outputs": [
        {
          "internalType": "uint256",
          "name": "",
          "type": "uint256"
        }
      ],
      "payable": false,
      "stateMutability": "nonpayable",
      "type": "function"
    },
    {
      "constant": false,
      "inputs": [
        {
          "internalType": "address",
          "name": "insuranceFund",
          "type": "address"
        }
      ],
      "name": "setInsuranceFund",
      "outputs": [],
      "payable": false,
      "stateMutability": "nonpayable",
      "type": "function"
    },
    {
      "constant": false,
      "inputs": [
        {
          "internalType": "uint256",
          "name": "insuranceFee",
          "type": "uint256"
        }
      ],
      "name": "setInsuranceFee",
      "outputs": [],
      "payable": false,
      "stateMutability": "nonpayable",
      "type": "function"
    }
  ],
  "bytecode": "0x60806040523480156200001157600080fd5b506040516200248838038062002488833981016040819052620000349162000176565b6000620000496001600160e01b036200015216565b600080546001600160a01b0319166001600160a01b0383169081178255604051929350917f8be0079c531659141344cd1fd0a4f28419497f9722a3daafe3b4186f6b6457e0908290a350600180546001600160a01b038087166001600160a01b03199283161790925560028054868416908316179055600380549285169290911691909117905560048190556040517f02be8aef8c7fb3cfe392924a6868452212a6fb3db277cc1a24af9f7c4af80ebd9062000107908490620001fc565b60405180910390a17fb66e25e76b9dc01dd4aa8dffb4c93b795262619460b2d05e1c4cc18388f78f48816040516200014091906200020c565b60405180910390a15050505062000256565b3390565b8051620001638162000231565b92915050565b805162000163816200024b565b600080600080608085870312156200018d57600080fd5b60006200019b878762000156565b9450506020620001ae8782880162000156565b9350506040620001c18782880162000156565b9250506060620001d48782880162000169565b91505092959194509250565b620001eb816200021c565b82525050565b620001eb816200022e565b60208101620001638284620001e0565b60208101620001638284620001f1565b60006001600160a01b03821662000163565b90565b6200023c816200021c565b81146200024857600080fd5b50565b6200023c816200022e565b61222280620002666000396000f3fe608060405234801561001057600080fd5b50600436106100d45760003560e01c80638ffac73311610081578063c3c052931161005b578063c3c0529314610169578063d4bec8eb1461017c578063f2fde38b14610184576100d4565b80638ffac7331461013b578063a5d9c62a14610143578063ba32681e14610156576100d4565b8063786ed92e116100b2578063786ed92e146101165780638da5cb5b1461011e5780638f32d59b14610126576100d4565b80633fa8c92a146100d95780634ce7c2ca146100f7578063715018a61461010c575b600080fd5b6100e1610197565b6040516100ee9190611ec5565b60405180910390f35b6100ff6101b3565b6040516100ee9190612086565b6101146101b9565b005b6100e1610255565b6100e1610271565b61012e61028d565b6040516100ee9190611f8c565b6101146102cb565b6100ff6101513660046117e4565b6103e8565b61011461016436600461189f565b610884565b6101146101773660046117a8565b610920565b6100e16109b4565b6101146101923660046117a8565b6109d0565b60035473ffffffffffffffffffffffffffffffffffffffff1681565b60045481565b6101c161028d565b6101e65760405162461bcd60e51b81526004016101dd90612036565b60405180910390fd5b6000805460405173ffffffffffffffffffffffffffffffffffffffff909116907f8be0079c531659141344cd1fd0a4f28419497f9722a3daafe3b4186f6b6457e0908390a3600080547fffffffffffffffffffffffff0000000000000000000000000000000000000000169055565b60025473ffffffffffffffffffffffffffffffffffffffff1681565b60005473ffffffffffffffffffffffffffffffffffffffff1690565b6000805473ffffffffffffffffffffffffffffffffffffffff166102af610a00565b73ffffffffffffffffffffffffffffffffffffffff1614905090565b600154604080517f28b7bede000000000000000000000000000000000000000000000000000000008152905173ffffffffffffffffffffffffffffffffffffffff9092169160009183916328b7bede91600480820192602092909190829003018186803b15801561033b57600080fd5b505afa15801561034f573d6000803e3d6000fd5b505050506040513d601f19601f8201168201806040525061037391908101906117c6565b905061039d73ffffffffffffffffffffffffffffffffffffffff821683600063ffffffff610a0416565b6103e473ffffffffffffffffffffffffffffffffffffffff8216837fffffffffffffffffffffffffffffffffffffffffffffffffffffffffffffffff63ffffffff610a0416565b5050565b60015460009073ffffffffffffffffffffffffffffffffffffffff9081169085163314806104b557506040517f84ea286200000000000000000000000000000000000000000000000000000000815273ffffffffffffffffffffffffffffffffffffffff8216906384ea2862906104659088903390600401611eee565b60206040518083038186803b15801561047d57600080fd5b505afa158015610491573d6000803e3d6000fd5b505050506040513d601f19601f820116820180604052506104b59190810190611845565b6104d15760405162461bcd60e51b81526004016101dd90612016565b6040517f47e7ef2400000000000000000000000000000000000000000000000000000000815273ffffffffffffffffffffffffffffffffffffffff8216906347e7ef2490610526908890600090600401611f31565b600060405180830381600087803b15801561054057600080fd5b505af1158015610554573d6000803e3d6000fd5b50505050610560611611565b6040517f93423e9c00000000000000000000000000000000000000000000000000000000815273ffffffffffffffffffffffffffffffffffffffff8316906393423e9c906105b2908990600401611ec5565b60806040518083038186803b1580156105ca57600080fd5b505afa1580156105de573d6000803e3d6000fd5b505050506040513d601f19601f820116820180604052506106029190810190611863565b905061060c611638565b610625828761062036899003890189611881565b610b90565b905061063383898984610bf8565b61063b611611565b6040517f93423e9c00000000000000000000000000000000000000000000000000000000815273ffffffffffffffffffffffffffffffffffffffff8516906393423e9c9061068d908b90600401611ec5565b60806040518083038186803b1580156106a557600080fd5b505afa1580156106b9573d6000803e3d6000fd5b505050506040513d601f19601f820116820180604052506106dd9190810190611863565b90506000806106ed868685610e1d565b9092509050801561080b576040517fd9caed1200000000000000000000000000000000000000000000000000000000815273ffffffffffffffffffffffffffffffffffffffff87169063d9caed129061074e908d9030908690600401611f09565b600060405180830381600087803b15801561076857600080fd5b505af115801561077c573d6000803e3d6000fd5b50506003546040517f47e7ef2400000000000000000000000000000000000000000000000000000000815273ffffffffffffffffffffffffffffffffffffffff808b1694506347e7ef2493506107d89216908590600401611f4c565b600060405180830381600087803b1580156107f257600080fd5b505af1158015610806573d6000803e3d6000fd5b505050505b8973ffffffffffffffffffffffffffffffffffffffff168b73ffffffffffffffffffffffffffffffffffffffff167f56f54e5e291f84831023c9ddf34fe42973dae320af11193db2b5f7af27719ba68b858560405161086c93929190611f9a565b60405180910390a3509450505050505b949350505050565b61088c61028d565b6108a85760405162461bcd60e51b81526004016101dd90612036565b6108c160026108b5610f7d565b9063ffffffff610f8916565b8111156108e05760405162461bcd60e51b81526004016101dd90612006565b60048190556040517fb66e25e76b9dc01dd4aa8dffb4c93b795262619460b2d05e1c4cc18388f78f4890610915908390612086565b60405180910390a150565b61092861028d565b6109445760405162461bcd60e51b81526004016101dd90612036565b600380547fffffffffffffffffffffffff00000000000000000000000000000000000000001673ffffffffffffffffffffffffffffffffffffffff83161790556040517f02be8aef8c7fb3cfe392924a6868452212a6fb3db277cc1a24af9f7c4af80ebd90610915908390611ec5565b60015473ffffffffffffffffffffffffffffffffffffffff1681565b6109d861028d565b6109f45760405162461bcd60e51b81526004016101dd90612036565b6109fd81610fd4565b50565b3390565b801580610ab257506040517fdd62ed3e00000000000000000000000000000000000000000000000000000000815273ffffffffffffffffffffffffffffffffffffffff84169063dd62ed3e90610a609030908690600401611ed3565b60206040518083038186803b158015610a7857600080fd5b505afa158015610a8c573d6000803e3d6000fd5b505050506040513d601f19601f82011682018060405250610ab091908101906118bd565b155b610ace5760405162461bcd60e51b81526004016101dd90612066565b604051610b8b9084907f095ea7b30000000000000000000000000000000000000000000000000000000090610b099086908690602401611f4c565b604080517fffffffffffffffffffffffffffffffffffffffffffffffffffffffffffffffe08184030181529190526020810180517bffffffffffffffffffffffffffffffffffffffffffffffffffffffff167fffffffff0000000000000000000000000000000000000000000000000000000090931692909217909152611094565b505050565b610b98611638565b610ba0611638565b610bb9610bac86611199565b849063ffffffff6111d816565b905083151581602001511515148015610bd25750805115155b610bee5760405162461bcd60e51b81526004016101dd90612046565b90505b9392505050565b6040805160028082526060808301845273ffffffffffffffffffffffffffffffffffffffff878116908716109390929190602083019080388339019050509050600082610c46576001610c49565b60005b60ff169050600083610c5c576000610c5f565b60015b60ff16905085838381518110610c7157fe5b602002602001019073ffffffffffffffffffffffffffffffffffffffff16908173ffffffffffffffffffffffffffffffffffffffff168152505086838281518110610cb857fe5b73ffffffffffffffffffffffffffffffffffffffff90921660209283029190910190910152604080516001808252818301909252606091816020015b610cfc61164f565b815260200190600190039081610cf457505060408051608081018252858152602080820186905260025473ffffffffffffffffffffffffffffffffffffffff168284015289518a820151935194955091936060850193610d629392909160009101612094565b60405160208183030381529060405281525081600081518110610d8157fe5b60209081029190910101526040517f68eec3f600000000000000000000000000000000000000000000000000000000815273ffffffffffffffffffffffffffffffffffffffff8a16906368eec3f690610de09087908590600401611f67565b600060405180830381600087803b158015610dfa57600080fd5b505af1158015610e0e573d6000803e3d6000fd5b50505050505050505050505050565b600080610e28611638565b610e49610e3486611199565b610e3d86611199565b9063ffffffff6111d816565b9050610e53611638565b610e68610e5f8761120a565b610e3d8761120a565b9050610e72611611565b610e82818463ffffffff61123f16565b610e92818363ffffffff61126d16565b60008873ffffffffffffffffffffffffffffffffffffffff1663796da7af6040518163ffffffff1660e01b815260040160206040518083038186803b158015610eda57600080fd5b505afa158015610eee573d6000803e3d6000fd5b505050506040513d601f19601f82011682018060405250610f1291908101906118bd565b9050600080610f27848463ffffffff61129816565b915091506000818311610f3b576000610f69565b610f69610f46610f7d565b6004546108b590610f5d878763ffffffff61135516565b9063ffffffff61139716565b96519c969b50959950505050505050505050565b670de0b6b3a764000090565b6000610fcb83836040518060400160405280601a81526020017f536166654d6174683a206469766973696f6e206279207a65726f0000000000008152506113b5565b90505b92915050565b73ffffffffffffffffffffffffffffffffffffffff81166110075760405162461bcd60e51b81526004016101dd90611fc6565b6000805460405173ffffffffffffffffffffffffffffffffffffffff808516939216917f8be0079c531659141344cd1fd0a4f28419497f9722a3daafe3b4186f6b6457e091a3600080547fffffffffffffffffffffffff00000000000000000000000000000000000000001673ffffffffffffffffffffffffffffffffffffffff92909216919091179055565b6110b38273ffffffffffffffffffffffffffffffffffffffff166113ec565b6110cf5760405162461bcd60e51b81526004016101dd90612076565b600060608373ffffffffffffffffffffffffffffffffffffffff16836040516110f89190611eb9565b6000604051808303816000865af19150503d8060008114611135576040519150601f19603f3d011682016040523d82523d6000602084013e61113a565b606091505b50915091508161115c5760405162461bcd60e51b81526004016101dd90611ff6565b80511561119357808060200190516111779190810190611845565b6111935760405162461bcd60e51b81526004016101dd90612056565b50505050565b6111a1611638565b604051806040016040528083606001516effffffffffffffffffffffffffffff168152602001836020015115158152509050919050565b6111e0611638565b81602001516111fc576111f7838360000151611425565b610fcb565b610fcb8383600001516114c4565b611212611638565b50604080518082018252908201516effffffffffffffffffffffffffffff16815290511515602082015290565b805161124a90611551565b6effffffffffffffffffffffffffffff1660608301526020908101511515910152565b805161127890611551565b6effffffffffffffffffffffffffffff1660408301526020015115159052565b8151600090819081908190156112dc576112d56112b3610f7d565b60408801516effffffffffffffffffffffffffffff169063ffffffff61158616565b91506112ea565b6112e76112b3610f7d565b90505b6060860151600090611313906effffffffffffffffffffffffffffff168763ffffffff61158616565b90508660200151156113365761132f838263ffffffff6115c016565b9250611349565b611346828263ffffffff6115c016565b91505b50909590945092505050565b6000610fcb83836040518060400160405280601e81526020017f536166654d6174683a207375627472616374696f6e206f766572666c6f7700008152506115e5565b6000610fcb670de0b6b3a76400006108b5858563ffffffff61158616565b600081836113d65760405162461bcd60e51b81526004016101dd9190611fb5565b5060008385816113e257fe5b0495945050505050565b6000813f7fc5d2460186f7233c927e7db2dcc703c0e500b653ca82273b7bfad8045d85a47081811480159061087c575050151592915050565b61142d611638565b82602001511561146a5760405180604001604052806114598560000151856115c090919063ffffffff16565b815260016020909101529050610fce565b825182111561149557604051806040016040528061145985600001518561135590919063ffffffff16565b60408051808201909152835181906114b3908563ffffffff61135516565b815260006020909101529392505050565b6114cc611638565b82602001516115085760405180604001604052806114f78560000151856115c090919063ffffffff16565b815260006020909101529050610fce565b825182101561152f576040805180820190915283518190611459908563ffffffff61135516565b60405180604001604052806114b385600001518561135590919063ffffffff16565b60006f0100000000000000000000000000000082106115825760405162461bcd60e51b81526004016101dd90611fe6565b5090565b60008261159557506000610fce565b828202828482816115a257fe5b0414610fcb5760405162461bcd60e51b81526004016101dd90612026565b600082820183811015610fcb5760405162461bcd60e51b81526004016101dd90611fd6565b600081848411156116095760405162461bcd60e51b81526004016101dd9190611fb5565b505050900390565b60408051608081018252600080825260208201819052918101829052606081019190915290565b604080518082019091526000808252602082015290565b60405180608001604052806000815260200160008152602001600073ffffffffffffffffffffffffffffffffffffffff168152602001606081525090565b8035610fce816121b0565b8051610fce816121b0565b8035610fce816121c4565b8051610fce816121c4565b6000608082840312156116cb57600080fd5b6116d560806120bc565b905060006116e384846116ae565b82525060206116f4848483016116ae565b602083015250604061170884828501611787565b604083015250606061171c84828501611787565b60608301525092915050565b60006040828403121561173a57600080fd5b50919050565b60006040828403121561175257600080fd5b61175c60406120bc565b9050600061176a8484611792565b825250602061177b848483016116a3565b60208301525092915050565b8051610fce816121cd565b8035610fce816121d6565b8051610fce816121d6565b6000602082840312156117ba57600080fd5b600061087c848461168d565b6000602082840312156117d857600080fd5b600061087c8484611698565b60008060008060a085870312156117fa57600080fd5b6000611806878761168d565b94505060206118178782880161168d565b9350506040611828878288016116a3565b925050606061183987828801611728565b91505092959194509250565b60006020828403121561185757600080fd5b600061087c84846116ae565b60006080828403121561187557600080fd5b600061087c84846116b9565b60006040828403121561189357600080fd5b600061087c8484611740565b6000602082840312156118b157600080fd5b600061087c8484611792565b6000602082840312156118cf57600080fd5b600061087c848461179d565b60006118e7838361190a565b505060200190565b6000610fcb8383611e55565b6119048161213b565b82525050565b611904816120fb565b600061191e826120e9565b61192881856120ed565b9350611933836120e3565b8060005b8381101561196157815161194b88826118db565b9750611956836120e3565b925050600101611937565b509495945050505050565b6000611977826120e9565b61198181856120ed565b935083602082028501611993856120e3565b8060005b858110156119cd57848403895281516119b085826118ef565b94506119bb836120e3565b60209a909a0199925050600101611997565b5091979650505050505050565b61190481612106565b60006119ee826120e9565b6119f881856120f6565b9350611a0881856020860161215c565b9290920192915050565b6000611a1d826120e9565b611a2781856120ed565b9350611a3781856020860161215c565b611a4081612188565b9093019392505050565b61190481612146565b6000611a606026836120ed565b7f4f776e61626c653a206e6577206f776e657220697320746865207a65726f206181527f6464726573730000000000000000000000000000000000000000000000000000602082015260400192915050565b6000611abf601b836120ed565b7f536166654d6174683a206164646974696f6e206f766572666c6f770000000000815260200192915050565b6000611af86027836120ed565b7f53616665436173743a2076616c756520646f65736e27742066697420696e203181527f3230206269747300000000000000000000000000000000000000000000000000602082015260400192915050565b6000611b576020836120ed565b7f5361666545524332303a206c6f772d6c6576656c2063616c6c206661696c6564815260200192915050565b6000611b906027836120ed565b7f696e737572616e63654665652063616e6e6f742062652067726561746572207481527f68616e2035302500000000000000000000000000000000000000000000000000602082015260400192915050565b6000611bef6030836120ed565b7f6d73672e73656e6465722063616e6e6f74206f70657261746520746865206c6981527f7175696461746f72206163636f756e7400000000000000000000000000000000602082015260400192915050565b6000611c4e6021836120ed565b7f536166654d6174683a206d756c7469706c69636174696f6e206f766572666c6f81527f7700000000000000000000000000000000000000000000000000000000000000602082015260400192915050565b6000611cad6020836120ed565b7f4f776e61626c653a2063616c6c6572206973206e6f7420746865206f776e6572815260200192915050565b6000611ce6604a836120ed565b7f43616e6e6f74206c697175696461746520696620697420776f756c642070757481527f206c697175696461746f7220706173742074686520737065636966696564206d60208201527f6178506f736974696f6e00000000000000000000000000000000000000000000604082015260600192915050565b6000611d6b602a836120ed565b7f5361666545524332303a204552433230206f7065726174696f6e20646964206e81527f6f74207375636365656400000000000000000000000000000000000000000000602082015260400192915050565b6000611dca6036836120ed565b7f5361666545524332303a20617070726f76652066726f6d206e6f6e2d7a65726f81527f20746f206e6f6e2d7a65726f20616c6c6f77616e636500000000000000000000602082015260400192915050565b6000611e29601f836120ed565b7f5361666545524332303a2063616c6c20746f206e6f6e2d636f6e747261637400815260200192915050565b80516000906080840190611e698582611eb0565b506020830151611e7c6020860182611eb0565b506040830151611e8f604086018261190a565b5060608301518482036060860152611ea78282611a12565b95945050505050565b61190481612138565b6000610bf182846119e3565b60208101610fce828461190a565b60408101611ee1828561190a565b610bf1602083018461190a565b60408101611efc828561190a565b610bf160208301846118fb565b60608101611f17828661190a565b611f24602083018561190a565b61087c6040830184611eb0565b60408101611f3f828561190a565b610bf16020830184611a4a565b60408101611f5a828561190a565b610bf16020830184611eb0565b60408082528101611f788185611913565b9050818103602083015261087c818461196c565b60208101610fce82846119da565b60608101611fa882866119da565b611f246020830185611eb0565b60208082528101610fcb8184611a12565b60208082528101610fce81611a53565b60208082528101610fce81611ab2565b60208082528101610fce81611aeb565b60208082528101610fce81611b4a565b60208082528101610fce81611b83565b60208082528101610fce81611be2565b60208082528101610fce81611c41565b60208082528101610fce81611ca0565b60208082528101610fce81611cd9565b60208082528101610fce81611d5e565b60208082528101610fce81611dbd565b60208082528101610fce81611e1c565b60208101610fce8284611eb0565b606081016120a28286611eb0565b6120af60208301856119da565b61087c60408301846119da565b60405181810167ffffffffffffffff811182821017156120db57600080fd5b604052919050565b60200190565b5190565b90815260200190565b919050565b6000610fce8261211f565b151590565b6effffffffffffffffffffffffffffff1690565b73ffffffffffffffffffffffffffffffffffffffff1690565b90565b6000610fce82612151565b6000610fce82612138565b6000610fce826120fb565b60005b8381101561217757818101518382015260200161215f565b838111156111935750506000910152565b601f017fffffffffffffffffffffffffffffffffffffffffffffffffffffffffffffffe01690565b6121b9816120fb565b81146109fd57600080fd5b6121b981612106565b6121b98161210b565b6121b98161213856fea365627a7a7231582049831c04ba2431917d25e21af8386cfecb370695b2dd3ded479471a6e90ebfaa6c6578706572696d656e74616cf564736f6c63430005100040",
  "source": "/*\n\n    Copyright 2020 dYdX Trading Inc.\n\n    Licensed under the Apache License, Version 2.0 (the \"License\");\n    you may not use this file except in compliance with the License.\n    You may obtain a copy of the License at\n\n    http://www.apache.org/licenses/LICENSE-2.0\n\n    Unless required by applicable law or agreed to in writing, software\n    distributed under the License is distributed on an \"AS IS\" BASIS,\n    WITHOUT WARRANTIES OR CONDITIONS OF ANY KIND, either express or implied.\n    See the License for the specific language governing permissions and\n    limitations under the License.\n\n*/\n\npragma solidity 0.5.16;\npragma experimental ABIEncoderV2;\n\nimport { SafeMath } from \"@openzeppelin/contracts/math/SafeMath.sol\";\nimport { Ownable } from \"@openzeppelin/contracts/ownership/Ownable.sol\";\nimport { IERC20 } from \"@openzeppelin/contracts/token/ERC20/IERC20.sol\";\nimport { SafeERC20 } from \"@openzeppelin/contracts/token/ERC20/SafeERC20.sol\";\nimport { BaseMath } from \"../../lib/BaseMath.sol\";\nimport { SignedMath } from \"../../lib/SignedMath.sol\";\nimport { I_PerpetualV1 } from \"../intf/I_PerpetualV1.sol\";\nimport { P1BalanceMath } from \"../lib/P1BalanceMath.sol\";\nimport { P1Types } from \"../lib/P1Types.sol\";\n\n\n/**\n * @title P1LiquidatorProxy\n * @author dYdX\n *\n * @notice Proxy contract for liquidating accounts. A fixed percentage of each liquidation is\n * directed to the insurance fund.\n */\ncontract P1LiquidatorProxy is\n    Ownable\n{\n    using BaseMath for uint256;\n    using SafeMath for uint256;\n    using SignedMath for SignedMath.Int;\n    using P1BalanceMath for P1Types.Balance;\n    using SafeERC20 for IERC20;\n\n    // ============ Events ============\n\n    event LogLiquidatorProxyUsed(\n        address indexed liquidatee,\n        address indexed liquidator,\n        bool isBuy,\n        uint256 liquidationAmount,\n        uint256 feeAmount\n    );\n\n    event LogInsuranceFundSet(\n        address insuranceFund\n    );\n\n    event LogInsuranceFeeSet(\n        uint256 insuranceFee\n    );\n\n    // ============ Immutable Storage ============\n\n    // Address of the perpetual contract.\n    address public _PERPETUAL_V1_;\n\n    // Address of the P1Liquidation contract.\n    address public _LIQUIDATION_;\n\n    // ============ Mutable Storage ============\n\n    // Address of the insurance fund.\n    address public _INSURANCE_FUND_;\n\n    // Proportion of liquidation profits that is directed to the insurance fund.\n    // This number is represented as a fixed-point number with 18 decimals.\n    uint256 public _INSURANCE_FEE_;\n\n    // ============ Constructor ============\n\n    constructor (\n        address perpetualV1,\n        address liquidator,\n        address insuranceFund,\n        uint256 insuranceFee\n    )\n        public\n    {\n        _PERPETUAL_V1_ = perpetualV1;\n        _LIQUIDATION_ = liquidator;\n        _INSURANCE_FUND_ = insuranceFund;\n        _INSURANCE_FEE_ = insuranceFee;\n\n        emit LogInsuranceFundSet(insuranceFund);\n        emit LogInsuranceFeeSet(insuranceFee);\n    }\n\n    // ============ External Functions ============\n\n    /**\n     * @notice Sets the maximum allowance on the perpetual contract. Must be called at least once.\n     * @dev Cannot be run in the constructor due to technical restrictions in Solidity.\n     */\n    function approveMaximumOnPerpetual()\n        external\n    {\n        address perpetual = _PERPETUAL_V1_;\n        IERC20 tokenContract = IERC20(I_PerpetualV1(perpetual).getTokenContract());\n\n        // safeApprove requires unsetting the allowance first.\n        tokenContract.safeApprove(perpetual, 0);\n\n        // Set the allowance to the highest possible value.\n        tokenContract.safeApprove(perpetual, uint256(-1));\n    }\n\n    /**\n     * @notice Allows an account below the minimum collateralization to be liquidated by another\n     *  account. This allows the account to be partially or fully subsumed by the liquidator.\n     *  A proportion of all liquidation profits is directed to the insurance fund.\n     * @dev Emits the LogLiquidatorProxyUsed event.\n     *\n     * @param  liquidatee   The account to liquidate.\n     * @param  liquidator   The account that performs the liquidation.\n     * @param  isBuy        True if the liquidatee has a long position, false otherwise.\n     * @param  maxPosition  Maximum position size that the liquidator will take post-liquidation.\n     * @return              The change in position.\n     */\n    function liquidate(\n        address liquidatee,\n        address liquidator,\n        bool isBuy,\n        SignedMath.Int calldata maxPosition\n    )\n        external\n        returns (uint256)\n    {\n        I_PerpetualV1 perpetual = I_PerpetualV1(_PERPETUAL_V1_);\n\n        // Verify that this account can liquidate for the liquidator.\n        require(\n            liquidator == msg.sender || perpetual.hasAccountPermissions(liquidator, msg.sender),\n            \"msg.sender cannot operate the liquidator account\"\n        );\n\n        // Settle the liquidator's account and get balances.\n        perpetual.deposit(liquidator, 0);\n        P1Types.Balance memory initialBalance = perpetual.getAccountBalance(liquidator);\n\n        // Get the maximum liquidatable amount.\n        SignedMath.Int memory maxPositionDelta = _getMaxPositionDelta(\n            initialBalance,\n            isBuy,\n            maxPosition\n        );\n\n        // Do the liquidation.\n        _doLiquidation(\n            perpetual,\n            liquidatee,\n            liquidator,\n            maxPositionDelta\n        );\n\n        // Get the balances of the liquidator.\n        P1Types.Balance memory currentBalance = perpetual.getAccountBalance(liquidator);\n\n        // Get the liquidated amount and fee amount.\n        (uint256 liqAmount, uint256 feeAmount) = _getLiquidatedAndFeeAmount(\n            perpetual,\n            initialBalance,\n            currentBalance\n        );\n\n        // Transfer fee from liquidator to insurance fund.\n        if (feeAmount > 0) {\n            perpetual.withdraw(liquidator, address(this), feeAmount);\n            perpetual.deposit(_INSURANCE_FUND_, feeAmount);\n        }\n\n        // Log the result.\n        emit LogLiquidatorProxyUsed(\n            liquidatee,\n            liquidator,\n            isBuy,\n            liqAmount,\n            feeAmount\n        );\n\n        return liqAmount;\n    }\n\n    // ============ Admin Functions ============\n\n    /**\n     * @dev Allows the owner to set the insurance fund address. Emits the LogInsuranceFundSet event.\n     *\n     * @param  insuranceFund  The address to set as the insurance fund.\n     */\n    function setInsuranceFund(\n        address insuranceFund\n    )\n        external\n        onlyOwner\n    {\n        _INSURANCE_FUND_ = insuranceFund;\n        emit LogInsuranceFundSet(insuranceFund);\n    }\n\n    /**\n     * @dev Allows the owner to set the insurance fee. Emits the LogInsuranceFeeSet event.\n     *\n     * @param  insuranceFee  The new fee as a fixed-point number with 18 decimal places. Max of 50%.\n     */\n    function setInsuranceFee(\n        uint256 insuranceFee\n    )\n        external\n        onlyOwner\n    {\n        require(\n            insuranceFee <= BaseMath.base().div(2),\n            \"insuranceFee cannot be greater than 50%\"\n        );\n        _INSURANCE_FEE_ = insuranceFee;\n        emit LogInsuranceFeeSet(insuranceFee);\n    }\n\n    // ============ Helper Functions ============\n\n    /**\n     * @dev Calculate (and verify) the maximum amount to liquidate based on the maxPosition input.\n     */\n    function _getMaxPositionDelta(\n        P1Types.Balance memory initialBalance,\n        bool isBuy,\n        SignedMath.Int memory maxPosition\n    )\n        private\n        pure\n        returns (SignedMath.Int memory)\n    {\n        SignedMath.Int memory result = maxPosition.signedSub(initialBalance.getPosition());\n\n        require(\n            result.isPositive == isBuy && result.value > 0,\n            \"Cannot liquidate if it would put liquidator past the specified maxPosition\"\n        );\n\n        return result;\n    }\n\n    /**\n     * @dev Perform the liquidation by constructing the correct arguments and sending it to the\n     * perpetual.\n     */\n    function _doLiquidation(\n        I_PerpetualV1 perpetual,\n        address liquidatee,\n        address liquidator,\n        SignedMath.Int memory maxPositionDelta\n    )\n        private\n    {\n        // Create accounts. Base protocol requires accounts to be sorted.\n        bool takerFirst = liquidator < liquidatee;\n        address[] memory accounts = new address[](2);\n        uint256 takerIndex = takerFirst ? 0 : 1;\n        uint256 makerIndex = takerFirst ? 1 : 0;\n        accounts[takerIndex] = liquidator;\n        accounts[makerIndex] = liquidatee;\n\n        // Create trade args.\n        I_PerpetualV1.TradeArg[] memory trades = new I_PerpetualV1.TradeArg[](1);\n        trades[0] = I_PerpetualV1.TradeArg({\n            takerIndex: takerIndex,\n            makerIndex: makerIndex,\n            trader: _LIQUIDATION_,\n            data: abi.encode(\n                maxPositionDelta.value,\n                maxPositionDelta.isPositive,\n                false // allOrNothing\n            )\n        });\n\n        // Do the liquidation.\n        perpetual.trade(accounts, trades);\n    }\n\n    /**\n     * @dev Calculate the liquidated amount and also the fee amount based on a percentage of the\n     * value of the repaid debt.\n     * @return  The position amount bought or sold.\n     * @return  The fee amount in margin token.\n     */\n    function _getLiquidatedAndFeeAmount(\n        I_PerpetualV1 perpetual,\n        P1Types.Balance memory initialBalance,\n        P1Types.Balance memory currentBalance\n    )\n        private\n        view\n        returns (uint256, uint256)\n    {\n        // Get the change in the position and margin of the liquidator.\n        SignedMath.Int memory deltaPosition =\n            currentBalance.getPosition().signedSub(initialBalance.getPosition());\n        SignedMath.Int memory deltaMargin =\n            currentBalance.getMargin().signedSub(initialBalance.getMargin());\n\n        // Get the change in the balances of the liquidator.\n        P1Types.Balance memory deltaBalance;\n        deltaBalance.setPosition(deltaPosition);\n        deltaBalance.setMargin(deltaMargin);\n\n        // Get the positive and negative value taken by the liquidator.\n        uint256 price = perpetual.getOraclePrice();\n        (uint256 posValue, uint256 negValue) = deltaBalance.getPositiveAndNegativeValue(price);\n\n        // Calculate the fee amount based on the liquidation profit.\n        uint256 feeAmount = posValue > negValue\n            ? posValue.sub(negValue).baseMul(_INSURANCE_FEE_).div(BaseMath.base())\n            : 0;\n\n        return (deltaPosition.value, feeAmount);\n    }\n}\n",
  "sourcePath": "/Users/dennismacpro/Projects/Defi/Ethereum-Solidity-Collection/icarus-protocol/defi-seeder/.tmp/dydx-protocol/perpetual/contracts/protocol/v1/proxies/P1LiquidatorProxy.sol",
  "compiler": {
    "name": "solc",
    "version": "0.5.16+commit.9c3226ce.Linux.g++"
  },
  "schemaVersion": "3.3.4",
  "updatedAt": "2021-04-01T16:42:57.428Z",
  "devdoc": {
    "author": "dYdX",
    "methods": {
      "approveMaximumOnPerpetual()": {
        "details": "Cannot be run in the constructor due to technical restrictions in Solidity."
      },
      "isOwner()": {
        "details": "Returns true if the caller is the current owner."
      },
      "liquidate(address,address,bool,(uint256,bool))": {
        "details": "Emits the LogLiquidatorProxyUsed event.",
        "params": {
          "isBuy": "True if the liquidatee has a long position, false otherwise.",
          "liquidatee": "The account to liquidate.",
          "liquidator": "The account that performs the liquidation.",
          "maxPosition": "Maximum position size that the liquidator will take post-liquidation."
        },
        "return": "The change in position."
      },
      "owner()": {
        "details": "Returns the address of the current owner."
      },
      "renounceOwnership()": {
        "details": "Leaves the contract without owner. It will not be possible to call `onlyOwner` functions anymore. Can only be called by the current owner.     * NOTE: Renouncing ownership will leave the contract without an owner, thereby removing any functionality that is only available to the owner."
      },
      "setInsuranceFee(uint256)": {
        "details": "Allows the owner to set the insurance fee. Emits the LogInsuranceFeeSet event.",
        "params": {
          "insuranceFee": "The new fee as a fixed-point number with 18 decimal places. Max of 50%."
        }
      },
      "setInsuranceFund(address)": {
        "details": "Allows the owner to set the insurance fund address. Emits the LogInsuranceFundSet event.",
        "params": {
          "insuranceFund": "The address to set as the insurance fund."
        }
      },
      "transferOwnership(address)": {
        "details": "Transfers ownership of the contract to a new account (`newOwner`). Can only be called by the current owner."
      }
    },
    "title": "P1LiquidatorProxy"
  },
  "userdoc": {
    "methods": {
      "approveMaximumOnPerpetual()": {
        "notice": "Sets the maximum allowance on the perpetual contract. Must be called at least once."
      },
      "liquidate(address,address,bool,(uint256,bool))": {
        "notice": "Allows an account below the minimum collateralization to be liquidated by another account. This allows the account to be partially or fully subsumed by the liquidator. A proportion of all liquidation profits is directed to the insurance fund."
      }
    },
    "notice": "Proxy contract for liquidating accounts. A fixed percentage of each liquidation is directed to the insurance fund."
  }
}