{
  "contractName": "P1Liquidation",
  "abi": [
    {
      "inputs": [
        {
          "internalType": "address",
          "name": "perpetualV1",
          "type": "address"
        }
      ],
      "payable": false,
      "stateMutability": "nonpayable",
      "type": "constructor"
    },
    {
      "anonymous": false,
      "inputs": [
        {
          "indexed": true,
          "internalType": "address",
          "name": "maker",
          "type": "address"
        },
        {
          "indexed": true,
          "internalType": "address",
          "name": "taker",
          "type": "address"
        },
        {
          "indexed": false,
          "internalType": "uint256",
          "name": "amount",
          "type": "uint256"
        },
        {
          "indexed": false,
          "internalType": "bool",
          "name": "isBuy",
          "type": "bool"
        },
        {
          "indexed": false,
          "internalType": "uint256",
          "name": "oraclePrice",
          "type": "uint256"
        }
      ],
      "name": "LogLiquidated",
      "type": "event"
    },
    {
      "constant": true,
      "inputs": [],
      "name": "_PERPETUAL_V1_",
      "outputs": [
        {
          "internalType": "address",
          "name": "",
          "type": "address"
        }
      ],
      "payable": false,
      "stateMutability": "view",
      "type": "function"
    },
    {
      "constant": false,
      "inputs": [
        {
          "internalType": "address",
          "name": "sender",
          "type": "address"
        },
        {
          "internalType": "address",
          "name": "maker",
          "type": "address"
        },
        {
          "internalType": "address",
          "name": "taker",
          "type": "address"
        },
        {
          "internalType": "uint256",
          "name": "price",
          "type": "uint256"
        },
        {
          "internalType": "bytes",
          "name": "data",
          "type": "bytes"
        },
        {
          "internalType": "bytes32",
          "name": "",
          "type": "bytes32"
        }
      ],
      "name": "trade",
      "outputs": [
        {
          "components": [
            {
              "internalType": "uint256",
              "name": "marginAmount",
              "type": "uint256"
            },
            {
              "internalType": "uint256",
              "name": "positionAmount",
              "type": "uint256"
            },
            {
              "internalType": "bool",
              "name": "isBuy",
              "type": "bool"
            },
            {
              "internalType": "bytes32",
              "name": "traderFlags",
              "type": "bytes32"
            }
          ],
          "internalType": "struct P1Types.TradeResult",
          "name": "",
          "type": "tuple"
        }
      ],
      "payable": false,
      "stateMutability": "nonpayable",
      "type": "function"
    }
  ],
  "bytecode": "0x608060405234801561001057600080fd5b50604051620012333803806200123383398101604081905261003191610067565b600080546001600160a01b0319166001600160a01b03929092169190911790556100b5565b80516100618161009e565b92915050565b60006020828403121561007957600080fd5b60006100858484610056565b949350505050565b60006001600160a01b038216610061565b6100a78161008d565b81146100b257600080fd5b50565b61116e80620000c56000396000f3fe608060405234801561001057600080fd5b50600436106100365760003560e01c8063970c2ba11461003b578063d4bec8eb14610064575b600080fd5b61004e610049366004610ae8565b610079565b60405161005b9190610ffb565b60405180910390f35b61006c6103e7565b60405161005b9190610f5c565b610081610953565b60005473ffffffffffffffffffffffffffffffffffffffff163381146100dc576040517f08c379a00000000000000000000000000000000000000000000000000000000081526004016100d390610feb565b60405180910390fd5b6040517f052f72d700000000000000000000000000000000000000000000000000000000815273ffffffffffffffffffffffffffffffffffffffff82169063052f72d79061012e908c90600401610f5c565b60206040518083038186803b15801561014657600080fd5b505afa15801561015a573d6000803e3d6000fd5b505050506040513d601f19601f8201168201806040525061017e9190810190610b8d565b6101b4576040517f08c379a00000000000000000000000000000000000000000000000000000000081526004016100d390610fcb565b6101bc61097a565b6101c885870187610bd1565b90506101d2610953565b6040517f93423e9c00000000000000000000000000000000000000000000000000000000815273ffffffffffffffffffffffffffffffffffffffff8416906393423e9c90610224908d90600401610f5c565b60806040518083038186803b15801561023c57600080fd5b505afa158015610250573d6000803e3d6000fd5b505050506040513d601f19601f820116820180604052506102749190810190610bb3565b90506102828282858b610403565b60006102a7836000015183606001516effffffffffffffffffffffffffffff1661056c565b905060008360200151156102fb576102f48284606001516effffffffffffffffffffffffffffff1685604001516effffffffffffffffffffffffffffff166105869092919063ffffffff16565b905061033d565b61033a8284606001516effffffffffffffffffffffffffffff1685604001516effffffffffffffffffffffffffffff166105f59092919063ffffffff16565b90505b8a73ffffffffffffffffffffffffffffffffffffffff168c73ffffffffffffffffffffffffffffffffffffffff167f6a35c9c914a0cd15e436f6ff44611a525491fdeb755e1044e9841d7e74ba42428487602001518e6040516103a293929190611009565b60405180910390a36040518060800160405280828152602001838152602001856020015115158152602001600260001b81525095505050505050979650505050505050565b60005473ffffffffffffffffffffffffffffffffffffffff1681565b61040e83838361060b565b610444576040517f08c379a00000000000000000000000000000000000000000000000000000000081526004016100d390610f8b565b8360400151158061046b5750835160608401516effffffffffffffffffffffffffffff1610155b6104a1576040517f08c379a00000000000000000000000000000000000000000000000000000000081526004016100d390610fbb565b8260200151151584602001511515146104e6576040517f08c379a00000000000000000000000000000000000000000000000000000000081526004016100d390610fdb565b825180610506575060408301516effffffffffffffffffffffffffffff16155b80610512575082602001515b80610530575060608301516effffffffffffffffffffffffffffff16155b610566576040517f08c379a00000000000000000000000000000000000000000000000000000000081526004016100d390610fab565b50505050565b600081831061057b578161057d565b825b90505b92915050565b6000831580610593575082155b156105aa576105a36000836106da565b90506105ee565b6105eb60016105df846105d3836105c78a8a63ffffffff61071c16565b9063ffffffff61077016565b9063ffffffff6106da16565b9063ffffffff6107b216565b90505b9392505050565b60006105eb826105d3868663ffffffff61071c16565b6000808373ffffffffffffffffffffffffffffffffffffffff1663e830b6906040518163ffffffff1660e01b815260040160206040518083038186803b15801561065457600080fd5b505afa158015610668573d6000803e3d6000fd5b505050506040513d601f19601f8201168201806040525061068c9190810190610bef565b90506000806106a1878663ffffffff6107f116565b90925090506106b6818463ffffffff61071c16565b6106ce6106c16108b0565b849063ffffffff61071c16565b10979650505050505050565b600061057d83836040518060400160405280601a81526020017f536166654d6174683a206469766973696f6e206279207a65726f0000000000008152506108bc565b60008261072b57506000610580565b8282028284828161073857fe5b041461057d576040517f08c379a00000000000000000000000000000000000000000000000000000000081526004016100d390610f9b565b600061057d83836040518060400160405280601e81526020017f536166654d6174683a207375627472616374696f6e206f766572666c6f77000081525061090d565b60008282018381101561057d576040517f08c379a00000000000000000000000000000000000000000000000000000000081526004016100d390610f7b565b8151600090819081908190156108355761082e61080c6108b0565b60408801516effffffffffffffffffffffffffffff169063ffffffff61071c16565b9150610843565b61084061080c6108b0565b90505b606086015160009061086c906effffffffffffffffffffffffffffff168763ffffffff61071c16565b905086602001511561088f57610888838263ffffffff6107b216565b92506108a2565b61089f828263ffffffff6107b216565b91505b5090925090505b9250929050565b670de0b6b3a764000090565b600081836108f7576040517f08c379a00000000000000000000000000000000000000000000000000000000081526004016100d39190610f6a565b50600083858161090357fe5b0495945050505050565b6000818484111561094b576040517f08c379a00000000000000000000000000000000000000000000000000000000081526004016100d39190610f6a565b505050900390565b60408051608081018252600080825260208201819052918101829052606081019190915290565b604080516060810182526000808252602082018190529181019190915290565b8035610580816110f9565b803561058081611110565b805161058081611110565b803561058081611119565b60008083601f8401126109d857600080fd5b50813567ffffffffffffffff8111156109f057600080fd5b6020830191508360018202830111156108a957600080fd5b600060808284031215610a1a57600080fd5b610a246080611031565b90506000610a3284846109b0565b8252506020610a43848483016109b0565b6020830152506040610a5784828501610ad2565b6040830152506060610a6b84828501610ad2565b60608301525092915050565b600060608284031215610a8957600080fd5b610a936060611031565b90506000610aa184846109bb565b8252506020610ab2848483016109a5565b6020830152506040610ac6848285016109a5565b60408301525092915050565b805161058081611122565b805161058081611119565b600080600080600080600060c0888a031215610b0357600080fd5b6000610b0f8a8a61099a565b9750506020610b208a828b0161099a565b9650506040610b318a828b0161099a565b9550506060610b428a828b016109bb565b945050608088013567ffffffffffffffff811115610b5f57600080fd5b610b6b8a828b016109c6565b935093505060a0610b7e8a828b016109bb565b91505092959891949750929550565b600060208284031215610b9f57600080fd5b6000610bab84846109b0565b949350505050565b600060808284031215610bc557600080fd5b6000610bab8484610a08565b600060608284031215610be357600080fd5b6000610bab8484610a77565b600060208284031215610c0157600080fd5b6000610bab8484610add565b610c1681611065565b82525050565b610c1681611070565b610c1681611075565b6000610c3982611058565b610c43818561105c565b9350610c538185602086016110a5565b610c5c816110d1565b9093019392505050565b6000610c73601b8361105c565b7f536166654d6174683a206164646974696f6e206f766572666c6f770000000000815260200192915050565b6000610cac60378361105c565b7f43616e6e6f74206c69717569646174652073696e6365206d616b65722069732081527f6e6f7420756e646572636f6c6c61746572616c697a6564000000000000000000602082015260400192915050565b6000610d0b60218361105c565b7f536166654d6174683a206d756c7469706c69636174696f6e206f766572666c6f81527f7700000000000000000000000000000000000000000000000000000000000000602082015260400192915050565b6000610d6a60418361105c565b7f43616e6e6f74206c6971756964617465207768656e206d616b657220706f736981527f74696f6e20616e64206d617267696e2061726520626f7468206e65676174697660208201527f6500000000000000000000000000000000000000000000000000000000000000604082015260600192915050565b6000610def603a8361105c565b7f616c6c4f724e6f7468696e672069732073657420616e64206d616b657220706f81527f736974696f6e206973206c657373207468616e20616d6f756e74000000000000602082015260400192915050565b6000610e4e601f8361105c565b7f53656e646572206973206e6f74206120676c6f62616c206f70657261746f7200815260200192915050565b6000610e8760338361105c565b7f6c69717569646174696f6e206d757374206e6f7420696e637265617365206d6181527f6b6572277320706f736974696f6e2073697a6500000000000000000000000000602082015260400192915050565b6000610ee6601e8361105c565b7f6d73672e73656e646572206d7573742062652050657270657475616c56310000815260200192915050565b80516080830190610f238482610c25565b506020820151610f366020850182610c25565b506040820151610f496040850182610c1c565b5060608201516105666060850182610c25565b602081016105808284610c0d565b6020808252810161057d8184610c2e565b6020808252810161058081610c66565b6020808252810161058081610c9f565b6020808252810161058081610cfe565b6020808252810161058081610d5d565b6020808252810161058081610de2565b6020808252810161058081610e41565b6020808252810161058081610e7a565b6020808252810161058081610ed9565b608081016105808284610f12565b606081016110178286610c25565b6110246020830185610c1c565b610bab6040830184610c25565b60405181810167ffffffffffffffff8111828210171561105057600080fd5b604052919050565b5190565b90815260200190565b60006105808261108c565b151590565b90565b6effffffffffffffffffffffffffffff1690565b73ffffffffffffffffffffffffffffffffffffffff1690565b60005b838110156110c05781810151838201526020016110a8565b838111156105665750506000910152565b601f017fffffffffffffffffffffffffffffffffffffffffffffffffffffffffffffffe01690565b61110281611065565b811461110d57600080fd5b50565b61110281611070565b61110281611075565b6111028161107856fea365627a7a723158208ee7cc1c6111d880223655a4dde6cf838bf67ac7b03e5ba0ac5f0821cbb0abc76c6578706572696d656e74616cf564736f6c63430005100040",
  "source": "/*\n\n    Copyright 2020 dYdX Trading Inc.\n\n    Licensed under the Apache License, Version 2.0 (the \"License\");\n    you may not use this file except in compliance with the License.\n    You may obtain a copy of the License at\n\n    http://www.apache.org/licenses/LICENSE-2.0\n\n    Unless required by applicable law or agreed to in writing, software\n    distributed under the License is distributed on an \"AS IS\" BASIS,\n    WITHOUT WARRANTIES OR CONDITIONS OF ANY KIND, either express or implied.\n    See the License for the specific language governing permissions and\n    limitations under the License.\n\n*/\n\npragma solidity 0.5.16;\npragma experimental ABIEncoderV2;\n\nimport { SafeMath } from \"@openzeppelin/contracts/math/SafeMath.sol\";\nimport { P1TraderConstants } from \"./P1TraderConstants.sol\";\nimport { BaseMath } from \"../../lib/BaseMath.sol\";\nimport { Math } from \"../../lib/Math.sol\";\nimport { P1Getters } from \"../impl/P1Getters.sol\";\nimport { P1BalanceMath } from \"../lib/P1BalanceMath.sol\";\nimport { P1Types } from \"../lib/P1Types.sol\";\n\n\n/**\n * @title P1Liquidation\n * @author dYdX\n *\n * @notice Contract allowing accounts to be liquidated by other accounts.\n */\ncontract P1Liquidation is\n    P1TraderConstants\n{\n    using SafeMath for uint256;\n    using Math for uint256;\n    using P1BalanceMath for P1Types.Balance;\n\n    // ============ Structs ============\n\n    struct TradeData {\n        uint256 amount;\n        bool isBuy; // from taker's perspective\n        bool allOrNothing; // if true, will revert if maker's position is less than the amount\n    }\n\n    // ============ Events ============\n\n    event LogLiquidated(\n        address indexed maker,\n        address indexed taker,\n        uint256 amount,\n        bool isBuy, // from taker's perspective\n        uint256 oraclePrice\n    );\n\n    // ============ Immutable Storage ============\n\n    // address of the perpetual contract\n    address public _PERPETUAL_V1_;\n\n    // ============ Constructor ============\n\n    constructor (\n        address perpetualV1\n    )\n        public\n    {\n        _PERPETUAL_V1_ = perpetualV1;\n    }\n\n    // ============ External Functions ============\n\n    /**\n     * @notice Allows an account below the minimum collateralization to be liquidated by another\n     *  account. This allows the account to be partially or fully subsumed by the liquidator.\n     * @dev Emits the LogLiquidated event.\n     *\n     * @param  sender  The address that called the trade() function on PerpetualV1.\n     * @param  maker   The account to be liquidated.\n     * @param  taker   The account of the liquidator.\n     * @param  price   The current oracle price of the underlying asset.\n     * @param  data    A struct of type TradeData.\n     * @return         The amounts to be traded, and flags indicating that a liquidation occurred.\n     */\n    function trade(\n        address sender,\n        address maker,\n        address taker,\n        uint256 price,\n        bytes calldata data,\n        bytes32 /* traderFlags */\n    )\n        external\n        returns (P1Types.TradeResult memory)\n    {\n        address perpetual = _PERPETUAL_V1_;\n\n        require(\n            msg.sender == perpetual,\n            \"msg.sender must be PerpetualV1\"\n        );\n\n        require(\n            P1Getters(perpetual).getIsGlobalOperator(sender),\n            \"Sender is not a global operator\"\n        );\n\n        TradeData memory tradeData = abi.decode(data, (TradeData));\n        P1Types.Balance memory makerBalance = P1Getters(perpetual).getAccountBalance(maker);\n\n        _verifyTrade(\n            tradeData,\n            makerBalance,\n            perpetual,\n            price\n        );\n\n        // Bound the execution amount by the size of the maker position.\n        uint256 amount = Math.min(tradeData.amount, makerBalance.position);\n\n        // When partially liquidating the maker, maintain the same position/margin ratio.\n        // Ensure the collateralization of the maker does not decrease.\n        uint256 marginAmount;\n        if (tradeData.isBuy) {\n            marginAmount = uint256(makerBalance.margin).getFractionRoundUp(\n                amount,\n                makerBalance.position\n            );\n        } else {\n            marginAmount = uint256(makerBalance.margin).getFraction(amount, makerBalance.position);\n        }\n\n        emit LogLiquidated(\n            maker,\n            taker,\n            amount,\n            tradeData.isBuy,\n            price\n        );\n\n        return P1Types.TradeResult({\n            marginAmount: marginAmount,\n            positionAmount: amount,\n            isBuy: tradeData.isBuy,\n            traderFlags: TRADER_FLAG_LIQUIDATION\n        });\n    }\n\n    // ============ Helper Functions ============\n\n    function _verifyTrade(\n        TradeData memory tradeData,\n        P1Types.Balance memory makerBalance,\n        address perpetual,\n        uint256 price\n    )\n        private\n        view\n    {\n        require(\n            _isUndercollateralized(makerBalance, perpetual, price),\n            \"Cannot liquidate since maker is not undercollateralized\"\n        );\n        require(\n            !tradeData.allOrNothing || makerBalance.position >= tradeData.amount,\n            \"allOrNothing is set and maker position is less than amount\"\n        );\n        require(\n            tradeData.isBuy == makerBalance.positionIsPositive,\n            \"liquidation must not increase maker's position size\"\n        );\n\n        // Disallow liquidating in the edge case where both the position and margin are negative.\n        //\n        // This case is not handled correctly by P1Trade. If an account is in this situation, the\n        // margin should first be set to zero via a deposit, then the account should be deleveraged.\n        require(\n            makerBalance.marginIsPositive || makerBalance.margin == 0 ||\n                makerBalance.positionIsPositive || makerBalance.position == 0,\n            \"Cannot liquidate when maker position and margin are both negative\"\n        );\n    }\n\n    function _isUndercollateralized(\n        P1Types.Balance memory balance,\n        address perpetual,\n        uint256 price\n    )\n        private\n        view\n        returns (bool)\n    {\n        uint256 minCollateral = P1Getters(perpetual).getMinCollateral();\n        (uint256 positive, uint256 negative) = balance.getPositiveAndNegativeValue(price);\n\n        // See P1Settlement.sol for discussion of overflow risk.\n        return positive.mul(BaseMath.base()) < negative.mul(minCollateral);\n    }\n}\n",
  "sourcePath": "/Users/dennismacpro/Projects/Defi/Ethereum-Solidity-Collection/icarus-protocol/defi-seeder/.tmp/dydx-protocol/perpetual/contracts/protocol/v1/traders/P1Liquidation.sol",
  "compiler": {
    "name": "solc",
    "version": "0.5.16+commit.9c3226ce.Linux.g++"
  },
  "schemaVersion": "3.3.4",
  "updatedAt": "2021-04-01T16:42:57.468Z",
  "devdoc": {
    "author": "dYdX",
    "methods": {
      "trade(address,address,address,uint256,bytes,bytes32)": {
        "details": "Emits the LogLiquidated event.",
        "params": {
          "data": "A struct of type TradeData.",
          "maker": "The account to be liquidated.",
          "price": "The current oracle price of the underlying asset.",
          "sender": "The address that called the trade() function on PerpetualV1.",
          "taker": "The account of the liquidator."
        },
        "return": "The amounts to be traded, and flags indicating that a liquidation occurred."
      }
    },
    "title": "P1Liquidation"
  },
  "userdoc": {
    "methods": {
      "trade(address,address,address,uint256,bytes,bytes32)": {
        "notice": "Allows an account below the minimum collateralization to be liquidated by another account. This allows the account to be partially or fully subsumed by the liquidator."
      }
    },
    "notice": "Contract allowing accounts to be liquidated by other accounts."
  }
}