{
  "contractName": "P1MakerOracle",
  "abi": [
    {
      "anonymous": false,
      "inputs": [
        {
          "indexed": true,
          "internalType": "address",
          "name": "oracle",
          "type": "address"
        },
        {
          "indexed": false,
          "internalType": "uint256",
          "name": "adjustment",
          "type": "uint256"
        }
      ],
      "name": "LogAdjustmentSet",
      "type": "event"
    },
    {
      "anonymous": false,
      "inputs": [
        {
          "indexed": true,
          "internalType": "address",
          "name": "sender",
          "type": "address"
        },
        {
          "indexed": false,
          "internalType": "address",
          "name": "oracle",
          "type": "address"
        }
      ],
      "name": "LogRouteSet",
      "type": "event"
    },
    {
      "anonymous": false,
      "inputs": [
        {
          "indexed": true,
          "internalType": "address",
          "name": "previousOwner",
          "type": "address"
        },
        {
          "indexed": true,
          "internalType": "address",
          "name": "newOwner",
          "type": "address"
        }
      ],
      "name": "OwnershipTransferred",
      "type": "event"
    },
    {
      "constant": true,
      "inputs": [
        {
          "internalType": "address",
          "name": "",
          "type": "address"
        }
      ],
      "name": "_ADJUSTMENTS_",
      "outputs": [
        {
          "internalType": "uint256",
          "name": "",
          "type": "uint256"
        }
      ],
      "payable": false,
      "stateMutability": "view",
      "type": "function"
    },
    {
      "constant": true,
      "inputs": [
        {
          "internalType": "address",
          "name": "",
          "type": "address"
        }
      ],
      "name": "_ROUTER_",
      "outputs": [
        {
          "internalType": "address",
          "name": "",
          "type": "address"
        }
      ],
      "payable": false,
      "stateMutability": "view",
      "type": "function"
    },
    {
      "constant": true,
      "inputs": [],
      "name": "isOwner",
      "outputs": [
        {
          "internalType": "bool",
          "name": "",
          "type": "bool"
        }
      ],
      "payable": false,
      "stateMutability": "view",
      "type": "function"
    },
    {
      "constant": true,
      "inputs": [],
      "name": "owner",
      "outputs": [
        {
          "internalType": "address",
          "name": "",
          "type": "address"
        }
      ],
      "payable": false,
      "stateMutability": "view",
      "type": "function"
    },
    {
      "constant": false,
      "inputs": [],
      "name": "renounceOwnership",
      "outputs": [],
      "payable": false,
      "stateMutability": "nonpayable",
      "type": "function"
    },
    {
      "constant": false,
      "inputs": [
        {
          "internalType": "address",
          "name": "newOwner",
          "type": "address"
        }
      ],
      "name": "transferOwnership",
      "outputs": [],
      "payable": false,
      "stateMutability": "nonpayable",
      "type": "function"
    },
    {
      "constant": true,
      "inputs": [],
      "name": "getPrice",
      "outputs": [
        {
          "internalType": "uint256",
          "name": "",
          "type": "uint256"
        }
      ],
      "payable": false,
      "stateMutability": "view",
      "type": "function"
    },
    {
      "constant": false,
      "inputs": [
        {
          "internalType": "address",
          "name": "sender",
          "type": "address"
        },
        {
          "internalType": "address",
          "name": "oracle",
          "type": "address"
        }
      ],
      "name": "setRoute",
      "outputs": [],
      "payable": false,
      "stateMutability": "nonpayable",
      "type": "function"
    },
    {
      "constant": false,
      "inputs": [
        {
          "internalType": "address",
          "name": "oracle",
          "type": "address"
        },
        {
          "internalType": "uint256",
          "name": "adjustment",
          "type": "uint256"
        }
      ],
      "name": "setAdjustment",
      "outputs": [],
      "payable": false,
      "stateMutability": "nonpayable",
      "type": "function"
    }
  ],
  "bytecode": "0x608060405260006100176001600160e01b0361006616565b600080546001600160a01b0319166001600160a01b0383169081178255604051929350917f8be0079c531659141344cd1fd0a4f28419497f9722a3daafe3b4186f6b6457e0908290a35061006a565b3390565b610bec806100796000396000f3fe608060405234801561001057600080fd5b50600436106100a35760003560e01c80638f32d59b11610076578063ca670a7a1161005b578063ca670a7a14610120578063f2fde38b14610133578063f77b3a1714610146576100a3565b80638f32d59b1461010357806398d5fdca14610118576100a3565b80630505e94d146100a857806346fb89ce146100bd578063715018a6146100e65780638da5cb5b146100ee575b600080fd5b6100bb6100b6366004610800565b610159565b005b6100d06100cb3660046107da565b610231565b6040516100dd9190610aed565b60405180910390f35b6100bb610243565b6100f66102f0565b6040516100dd9190610a70565b61010b61030c565b6040516100dd9190610a7e565b6100d061034a565b6100f661012e3660046107da565b6104b2565b6100bb6101413660046107da565b6104da565b6100bb61015436600461083a565b610524565b61016161030c565b6101a0576040517f08c379a000000000000000000000000000000000000000000000000000000000815260040161019790610acd565b60405180910390fd5b73ffffffffffffffffffffffffffffffffffffffff8281166000818152600160205260409081902080547fffffffffffffffffffffffff0000000000000000000000000000000000000000169385169390931790925590517f16f50a0fb14e340612b259bd02dedc506aae22cf39d7215c0b8d5e85030e87b390610225908490610a70565b60405180910390a25050565b60026020526000908152604090205481565b61024b61030c565b610281576040517f08c379a000000000000000000000000000000000000000000000000000000000815260040161019790610acd565b6000805460405173ffffffffffffffffffffffffffffffffffffffff909116907f8be0079c531659141344cd1fd0a4f28419497f9722a3daafe3b4186f6b6457e0908390a3600080547fffffffffffffffffffffffff0000000000000000000000000000000000000000169055565b60005473ffffffffffffffffffffffffffffffffffffffff1690565b6000805473ffffffffffffffffffffffffffffffffffffffff1661032e6105ba565b73ffffffffffffffffffffffffffffffffffffffff1614905090565b3360009081526001602052604081205473ffffffffffffffffffffffffffffffffffffffff16806103a7576040517f08c379a000000000000000000000000000000000000000000000000000000000815260040161019790610add565b73ffffffffffffffffffffffffffffffffffffffff8116600090815260026020526040902054806103dd576103da6105be565b90505b60008273ffffffffffffffffffffffffffffffffffffffff166357de26a46040518163ffffffff1660e01b815260040160206040518083038186803b15801561042557600080fd5b505afa158015610439573d6000803e3d6000fd5b505050506040513d601f19601f8201168201806040525061045d919081019061086a565b90506000610471828463ffffffff6105ca16565b9050806104aa576040517f08c379a000000000000000000000000000000000000000000000000000000000815260040161019790610aad565b935050505090565b60016020526000908152604090205473ffffffffffffffffffffffffffffffffffffffff1681565b6104e261030c565b610518576040517f08c379a000000000000000000000000000000000000000000000000000000000815260040161019790610acd565b610521816105fd565b50565b61052c61030c565b610562576040517f08c379a000000000000000000000000000000000000000000000000000000000815260040161019790610acd565b73ffffffffffffffffffffffffffffffffffffffff821660008181526002602052604090819020839055517f6a5ac74b5033ae621af6e2a1a99689adfe6563e782629d2b76aad70664178e2190610225908490610aed565b3390565b670de0b6b3a764000090565b60006105f4670de0b6b3a76400006105e8858563ffffffff6106d716565b9063ffffffff61072b16565b90505b92915050565b73ffffffffffffffffffffffffffffffffffffffff811661064a576040517f08c379a000000000000000000000000000000000000000000000000000000000815260040161019790610a9d565b6000805460405173ffffffffffffffffffffffffffffffffffffffff808516939216917f8be0079c531659141344cd1fd0a4f28419497f9722a3daafe3b4186f6b6457e091a3600080547fffffffffffffffffffffffff00000000000000000000000000000000000000001673ffffffffffffffffffffffffffffffffffffffff92909216919091179055565b6000826106e6575060006105f7565b828202828482816106f357fe5b04146105f4576040517f08c379a000000000000000000000000000000000000000000000000000000000815260040161019790610abd565b60006105f483836040518060400160405280601a81526020017f536166654d6174683a206469766973696f6e206279207a65726f000000000000815250600081836107a3576040517f08c379a00000000000000000000000000000000000000000000000000000000081526004016101979190610a8c565b5060008385816107af57fe5b0495945050505050565b80356105f781610b8c565b80516105f781610ba0565b80356105f781610ba0565b6000602082840312156107ec57600080fd5b60006107f884846107b9565b949350505050565b6000806040838503121561081357600080fd5b600061081f85856107b9565b9250506020610830858286016107b9565b9150509250929050565b6000806040838503121561084d57600080fd5b600061085985856107b9565b9250506020610830858286016107cf565b60006020828403121561087c57600080fd5b60006107f884846107c4565b61089181610b08565b82525050565b61089181610b13565b60006108ab82610afb565b6108b58185610aff565b93506108c5818560208601610b34565b6108ce81610b64565b9093019392505050565b60006108e5602683610aff565b7f4f776e61626c653a206e6577206f776e657220697320746865207a65726f206181527f6464726573730000000000000000000000000000000000000000000000000000602082015260400192915050565b6000610944601e83610aff565b7f4f7261636c6520776f756c642072657475726e207a65726f2070726963650000815260200192915050565b600061097d602183610aff565b7f536166654d6174683a206d756c7469706c69636174696f6e206f766572666c6f81527f7700000000000000000000000000000000000000000000000000000000000000602082015260400192915050565b60006109dc602083610aff565b7f4f776e61626c653a2063616c6c6572206973206e6f7420746865206f776e6572815260200192915050565b6000610a15602283610aff565b7f53656e646572206e6f7420617574686f72697a656420746f206765742070726981527f6365000000000000000000000000000000000000000000000000000000000000602082015260400192915050565b61089181610b18565b602081016105f78284610888565b602081016105f78284610897565b602080825281016105f481846108a0565b602080825281016105f7816108d8565b602080825281016105f781610937565b602080825281016105f781610970565b602080825281016105f7816109cf565b602080825281016105f781610a08565b602081016105f78284610a67565b5190565b90815260200190565b60006105f782610b1b565b151590565b90565b73ffffffffffffffffffffffffffffffffffffffff1690565b60005b83811015610b4f578181015183820152602001610b37565b83811115610b5e576000848401525b50505050565b601f017fffffffffffffffffffffffffffffffffffffffffffffffffffffffffffffffe01690565b610b9581610b08565b811461052157600080fd5b610b9581610b1856fea365627a7a72315820f4fbdb2264bce3ffb344eadc55f3caf347f2640ed71d573a98ce42c537f4c8d56c6578706572696d656e74616cf564736f6c63430005100040",
  "source": "/*\n\n    Copyright 2020 dYdX Trading Inc.\n\n    Licensed under the Apache License, Version 2.0 (the \"License\");\n    you may not use this file except in compliance with the License.\n    You may obtain a copy of the License at\n\n    http://www.apache.org/licenses/LICENSE-2.0\n\n    Unless required by applicable law or agreed to in writing, software\n    distributed under the License is distributed on an \"AS IS\" BASIS,\n    WITHOUT WARRANTIES OR CONDITIONS OF ANY KIND, either express or implied.\n    See the License for the specific language governing permissions and\n    limitations under the License.\n\n*/\n\npragma solidity 0.5.16;\npragma experimental ABIEncoderV2;\n\nimport { Ownable } from \"@openzeppelin/contracts/ownership/Ownable.sol\";\nimport { I_MakerOracle } from \"../../../external/maker/I_MakerOracle.sol\";\nimport { BaseMath } from \"../../lib/BaseMath.sol\";\nimport { I_P1Oracle } from \"../intf/I_P1Oracle.sol\";\n\n\n/**\n * @title P1MakerOracle\n * @author dYdX\n *\n * @notice P1Oracle that reads the price from a Maker V2 Oracle.\n */\ncontract P1MakerOracle is\n    Ownable,\n    I_P1Oracle\n{\n    using BaseMath for uint256;\n\n    // ============ Events ============\n\n    event LogRouteSet(\n        address indexed sender,\n        address oracle\n    );\n\n    event LogAdjustmentSet(\n        address indexed oracle,\n        uint256 adjustment\n    );\n\n    // ============ Storage ============\n\n    // @dev Maps from the sender to the oracle address to use.\n    mapping(address => address) public _ROUTER_;\n\n    // @dev The amount to adjust the price by. Is as a fixed-point number with 18 decimal places.\n    mapping(address => uint256) public _ADJUSTMENTS_;\n\n    // ============ Public Functions ============\n\n    /**\n     * @notice Returns the price of the underlying asset relative to the margin token.\n     *\n     * @return The price as a fixed-point number with 18 decimals.\n     */\n    function getPrice()\n        external\n        view\n        returns (uint256)\n    {\n        // get the oracle address to read from\n        address oracle = _ROUTER_[msg.sender];\n\n        // revert if no oracle found\n        require(\n            oracle != address(0),\n            \"Sender not authorized to get price\"\n        );\n\n        // get adjustment or default to 1\n        uint256 adjustment = _ADJUSTMENTS_[oracle];\n        if (adjustment == 0) {\n            adjustment = BaseMath.base();\n        }\n\n        // get the adjusted price\n        uint256 rawPrice = uint256(I_MakerOracle(oracle).read());\n        uint256 result = rawPrice.baseMul(adjustment);\n\n        // revert if invalid price\n        require(\n            result != 0,\n            \"Oracle would return zero price\"\n        );\n\n        return result;\n    }\n\n    // ============ Admin Functions ============\n\n    /**\n     * @dev Allows the owner to set a route for a particular sender.\n     *\n     * @param  sender The sender to set the route for.\n     * @param  oracle The oracle to route the sender to.\n     */\n    function setRoute(\n        address sender,\n        address oracle\n    )\n        external\n        onlyOwner\n    {\n        _ROUTER_[sender] = oracle;\n        emit LogRouteSet(sender, oracle);\n    }\n\n    /**\n     * @dev Allows the owner to set an adjustment to an oracle source.\n     *\n     * @param  oracle     The oracle to apply the adjustment to.\n     * @param  adjustment The adjustment to set when reading from the oracle.\n     */\n    function setAdjustment(\n        address oracle,\n        uint256 adjustment\n    )\n        external\n        onlyOwner\n    {\n        _ADJUSTMENTS_[oracle] = adjustment;\n        emit LogAdjustmentSet(oracle, adjustment);\n    }\n}\n",
  "sourcePath": "/Users/dennismacpro/Projects/Defi/Ethereum-Solidity-Collection/icarus-protocol/defi-seeder/.tmp/dydx-protocol/perpetual/contracts/protocol/v1/oracles/P1MakerOracle.sol",
  "compiler": {
    "name": "solc",
    "version": "0.5.16+commit.9c3226ce.Linux.g++"
  },
  "schemaVersion": "3.3.4",
  "updatedAt": "2021-04-01T16:42:57.407Z",
  "devdoc": {
    "author": "dYdX",
    "methods": {
      "getPrice()": {
        "return": "The price as a fixed-point number with 18 decimals."
      },
      "isOwner()": {
        "details": "Returns true if the caller is the current owner."
      },
      "owner()": {
        "details": "Returns the address of the current owner."
      },
      "renounceOwnership()": {
        "details": "Leaves the contract without owner. It will not be possible to call `onlyOwner` functions anymore. Can only be called by the current owner.     * NOTE: Renouncing ownership will leave the contract without an owner, thereby removing any functionality that is only available to the owner."
      },
      "setAdjustment(address,uint256)": {
        "details": "Allows the owner to set an adjustment to an oracle source.",
        "params": {
          "adjustment": "The adjustment to set when reading from the oracle.",
          "oracle": "The oracle to apply the adjustment to."
        }
      },
      "setRoute(address,address)": {
        "details": "Allows the owner to set a route for a particular sender.",
        "params": {
          "oracle": "The oracle to route the sender to.",
          "sender": "The sender to set the route for."
        }
      },
      "transferOwnership(address)": {
        "details": "Transfers ownership of the contract to a new account (`newOwner`). Can only be called by the current owner."
      }
    },
    "title": "P1MakerOracle"
  },
  "userdoc": {
    "methods": {
      "getPrice()": {
        "notice": "Returns the price of the underlying asset relative to the margin token."
      }
    },
    "notice": "P1Oracle that reads the price from a Maker V2 Oracle."
  }
}