{
  "contractName": "P1Margin",
  "abi": [
    {
      "anonymous": false,
      "inputs": [
        {
          "indexed": true,
          "internalType": "address",
          "name": "account",
          "type": "address"
        },
        {
          "indexed": false,
          "internalType": "bool",
          "name": "isPositive",
          "type": "bool"
        },
        {
          "indexed": false,
          "internalType": "uint256",
          "name": "amount",
          "type": "uint256"
        },
        {
          "indexed": false,
          "internalType": "bytes32",
          "name": "balance",
          "type": "bytes32"
        }
      ],
      "name": "LogAccountSettled",
      "type": "event"
    },
    {
      "anonymous": false,
      "inputs": [
        {
          "indexed": true,
          "internalType": "address",
          "name": "account",
          "type": "address"
        },
        {
          "indexed": false,
          "internalType": "uint256",
          "name": "amount",
          "type": "uint256"
        },
        {
          "indexed": false,
          "internalType": "bytes32",
          "name": "balance",
          "type": "bytes32"
        }
      ],
      "name": "LogDeposit",
      "type": "event"
    },
    {
      "anonymous": false,
      "inputs": [
        {
          "indexed": false,
          "internalType": "bytes32",
          "name": "index",
          "type": "bytes32"
        }
      ],
      "name": "LogIndex",
      "type": "event"
    },
    {
      "anonymous": false,
      "inputs": [
        {
          "indexed": true,
          "internalType": "address",
          "name": "account",
          "type": "address"
        },
        {
          "indexed": false,
          "internalType": "address",
          "name": "destination",
          "type": "address"
        },
        {
          "indexed": false,
          "internalType": "uint256",
          "name": "amount",
          "type": "uint256"
        },
        {
          "indexed": false,
          "internalType": "bytes32",
          "name": "balance",
          "type": "bytes32"
        }
      ],
      "name": "LogWithdraw",
      "type": "event"
    },
    {
      "anonymous": false,
      "inputs": [
        {
          "indexed": true,
          "internalType": "address",
          "name": "account",
          "type": "address"
        },
        {
          "indexed": false,
          "internalType": "uint256",
          "name": "amount",
          "type": "uint256"
        },
        {
          "indexed": false,
          "internalType": "bytes32",
          "name": "balance",
          "type": "bytes32"
        }
      ],
      "name": "LogWithdrawFinalSettlement",
      "type": "event"
    },
    {
      "constant": true,
      "inputs": [
        {
          "internalType": "address",
          "name": "account",
          "type": "address"
        }
      ],
      "name": "getAccountBalance",
      "outputs": [
        {
          "components": [
            {
              "internalType": "bool",
              "name": "marginIsPositive",
              "type": "bool"
            },
            {
              "internalType": "bool",
              "name": "positionIsPositive",
              "type": "bool"
            },
            {
              "internalType": "uint120",
              "name": "margin",
              "type": "uint120"
            },
            {
              "internalType": "uint120",
              "name": "position",
              "type": "uint120"
            }
          ],
          "internalType": "struct P1Types.Balance",
          "name": "",
          "type": "tuple"
        }
      ],
      "payable": false,
      "stateMutability": "view",
      "type": "function"
    },
    {
      "constant": true,
      "inputs": [
        {
          "internalType": "address",
          "name": "account",
          "type": "address"
        }
      ],
      "name": "getAccountIndex",
      "outputs": [
        {
          "components": [
            {
              "internalType": "uint32",
              "name": "timestamp",
              "type": "uint32"
            },
            {
              "internalType": "bool",
              "name": "isPositive",
              "type": "bool"
            },
            {
              "internalType": "uint128",
              "name": "value",
              "type": "uint128"
            }
          ],
          "internalType": "struct P1Types.Index",
          "name": "",
          "type": "tuple"
        }
      ],
      "payable": false,
      "stateMutability": "view",
      "type": "function"
    },
    {
      "constant": true,
      "inputs": [],
      "name": "getAdmin",
      "outputs": [
        {
          "internalType": "address",
          "name": "",
          "type": "address"
        }
      ],
      "payable": false,
      "stateMutability": "view",
      "type": "function"
    },
    {
      "constant": true,
      "inputs": [],
      "name": "getFinalSettlementEnabled",
      "outputs": [
        {
          "internalType": "bool",
          "name": "",
          "type": "bool"
        }
      ],
      "payable": false,
      "stateMutability": "view",
      "type": "function"
    },
    {
      "constant": true,
      "inputs": [],
      "name": "getFunderContract",
      "outputs": [
        {
          "internalType": "address",
          "name": "",
          "type": "address"
        }
      ],
      "payable": false,
      "stateMutability": "view",
      "type": "function"
    },
    {
      "constant": true,
      "inputs": [],
      "name": "getGlobalIndex",
      "outputs": [
        {
          "components": [
            {
              "internalType": "uint32",
              "name": "timestamp",
              "type": "uint32"
            },
            {
              "internalType": "bool",
              "name": "isPositive",
              "type": "bool"
            },
            {
              "internalType": "uint128",
              "name": "value",
              "type": "uint128"
            }
          ],
          "internalType": "struct P1Types.Index",
          "name": "",
          "type": "tuple"
        }
      ],
      "payable": false,
      "stateMutability": "view",
      "type": "function"
    },
    {
      "constant": true,
      "inputs": [
        {
          "internalType": "address",
          "name": "operator",
          "type": "address"
        }
      ],
      "name": "getIsGlobalOperator",
      "outputs": [
        {
          "internalType": "bool",
          "name": "",
          "type": "bool"
        }
      ],
      "payable": false,
      "stateMutability": "view",
      "type": "function"
    },
    {
      "constant": true,
      "inputs": [
        {
          "internalType": "address",
          "name": "account",
          "type": "address"
        },
        {
          "internalType": "address",
          "name": "operator",
          "type": "address"
        }
      ],
      "name": "getIsLocalOperator",
      "outputs": [
        {
          "internalType": "bool",
          "name": "",
          "type": "bool"
        }
      ],
      "payable": false,
      "stateMutability": "view",
      "type": "function"
    },
    {
      "constant": true,
      "inputs": [],
      "name": "getMinCollateral",
      "outputs": [
        {
          "internalType": "uint256",
          "name": "",
          "type": "uint256"
        }
      ],
      "payable": false,
      "stateMutability": "view",
      "type": "function"
    },
    {
      "constant": true,
      "inputs": [],
      "name": "getOracleContract",
      "outputs": [
        {
          "internalType": "address",
          "name": "",
          "type": "address"
        }
      ],
      "payable": false,
      "stateMutability": "view",
      "type": "function"
    },
    {
      "constant": true,
      "inputs": [],
      "name": "getOraclePrice",
      "outputs": [
        {
          "internalType": "uint256",
          "name": "",
          "type": "uint256"
        }
      ],
      "payable": false,
      "stateMutability": "view",
      "type": "function"
    },
    {
      "constant": true,
      "inputs": [],
      "name": "getTokenContract",
      "outputs": [
        {
          "internalType": "address",
          "name": "",
          "type": "address"
        }
      ],
      "payable": false,
      "stateMutability": "view",
      "type": "function"
    },
    {
      "constant": true,
      "inputs": [
        {
          "internalType": "address",
          "name": "account",
          "type": "address"
        },
        {
          "internalType": "address",
          "name": "operator",
          "type": "address"
        }
      ],
      "name": "hasAccountPermissions",
      "outputs": [
        {
          "internalType": "bool",
          "name": "",
          "type": "bool"
        }
      ],
      "payable": false,
      "stateMutability": "view",
      "type": "function"
    },
    {
      "constant": false,
      "inputs": [],
      "name": "withdrawFinalSettlement",
      "outputs": [],
      "payable": false,
      "stateMutability": "nonpayable",
      "type": "function"
    },
    {
      "constant": false,
      "inputs": [
        {
          "internalType": "address",
          "name": "account",
          "type": "address"
        },
        {
          "internalType": "uint256",
          "name": "amount",
          "type": "uint256"
        }
      ],
      "name": "deposit",
      "outputs": [],
      "payable": false,
      "stateMutability": "nonpayable",
      "type": "function"
    },
    {
      "constant": false,
      "inputs": [
        {
          "internalType": "address",
          "name": "account",
          "type": "address"
        },
        {
          "internalType": "address",
          "name": "destination",
          "type": "address"
        },
        {
          "internalType": "uint256",
          "name": "amount",
          "type": "uint256"
        }
      ],
      "name": "withdraw",
      "outputs": [],
      "payable": false,
      "stateMutability": "nonpayable",
      "type": "function"
    }
  ],
  "bytecode": "0x60806040526001600055612933806100186000396000f3fe608060405234801561001057600080fd5b50600436106101005760003560e01c806380d6368111610097578063d9caed1211610066578063d9caed12146101f3578063dc4f3a0e14610206578063e3bbb5651461020e578063e830b6901461021657610100565b806380d636811461019857806384ea2862146101ad57806393423e9c146101c05780639ba63e9e146101e057610100565b806347e7ef24116100d357806347e7ef24146101605780636e9960c3146101735780637099366b1461017b578063796da7af1461018357610100565b8063052f72d714610105578063142c69b31461012e57806328b7bede146101385780633a031bf01461014d575b600080fd5b610118610113366004611f6d565b61021e565b60405161012591906126be565b60405180910390f35b610136610249565b005b6101406105cf565b6040516101259190612652565b61011861015b366004611f8b565b6105eb565b61013661016e366004612012565b610628565b61014061081e565b61011861084e565b61018b610857565b60405161012591906126da565b6101a0610926565b60405161012591906127e7565b6101186101bb366004611f8b565b61097c565b6101d36101ce366004611f6d565b610a21565b60405161012591906127d9565b6101a06101ee366004611f6d565b610ab4565b610136610201366004611fc5565b610b32565b610140610d8d565b610140610da9565b61018b610dc5565b73ffffffffffffffffffffffffffffffffffffffff1660009081526003602052604090205460ff1690565b600a5460ff166102745760405162461bcd60e51b815260040161026b90612709565b60405180910390fd5b60001960005414156102985760405162461bcd60e51b815260040161026b906127b9565b6000196000556102a6611ebd565b506040805160608082018352600b5482526009546020808401919091528351918201845260085463ffffffff81168352640100000000810460ff161515918301919091526501000000000090046fffffffffffffffffffffffffffffffff168184015291810191909152610318611ee3565b6103228233610dcb565b9050600080610335838560000151611285565b915091508082101561034a57505050506105c8565b6000610373610357611342565b610367858563ffffffff61134e16565b9063ffffffff61139016565b6005546040517f70a0823100000000000000000000000000000000000000000000000000000000815291925060009173ffffffffffffffffffffffffffffffffffffffff909116906370a08231906103cf903090600401612652565b60206040518083038186803b1580156103e757600080fd5b505afa1580156103fb573d6000803e3d6000fd5b505050506040513d601f19601f8201168201806040525061041f9190810190612090565b9050600061042d82846113d2565b90506000610449610444858463ffffffff61134e16565b6113e8565b604080516080810182526effffffffffffffffffffffffffffff8381168015158352600060208085018281528587019384526060860183815233808552600190935296909220855181549351945197517fffffffffffffffffffffffffffffffffffffffffffffffffffffffffffffff00909416901515177fffffffffffffffffffffffffffffffffffffffffffffffffffffffffffff00ff1661010094151594909402939093177fffffffffffffffffffffffffffffff000000000000000000000000000000ffff1662010000968516969096029590951770ffffffffffffffffffffffffffffffffff1671010000000000000000000000000000000000919093160291909117905560055490995091925061057d9173ffffffffffffffffffffffffffffffffffffffff16908461141d565b337fc3b34c584e097adcd5d59ecaf4107928698a4f075c7753b5dbe28cd20d7ac1fd836105a98a6114df565b6040516105b79291906127f5565b60405180910390a250505050505050505b6001600055565b60055473ffffffffffffffffffffffffffffffffffffffff1690565b73ffffffffffffffffffffffffffffffffffffffff80831660009081526004602090815260408083209385168352929052205460ff165b92915050565b600a5460ff161561064b5760405162461bcd60e51b815260040161026b90612769565b600019600054141561066f5760405162461bcd60e51b815260040161026b906127b9565b60001960005561067d611ebd565b610685611574565b905061068f611ee3565b6106998285610dcb565b6005549091506106c19073ffffffffffffffffffffffffffffffffffffffff16333086611918565b6106d1818463ffffffff61195b16565b73ffffffffffffffffffffffffffffffffffffffff841660008181526001602090815260409182902084518154928601519386015160608701517fffffffffffffffffffffffffffffffffffffffffffffffffffffffffffffff00909416911515919091177fffffffffffffffffffffffffffffffffffffffffffffffffffffffffffff00ff1661010094151594909402939093177fffffffffffffffffffffffffffffff000000000000000000000000000000ffff16620100006effffffffffffffffffffffffffffff948516021770ffffffffffffffffffffffffffffffffff167101000000000000000000000000000000000093909216929092021790557f40a9cb3a9707d3a68091d8ef7ffd4158d01d0b2ad92b1e489abe8312dd543023846107fd846114df565b60405161080b9291906127f5565b60405180910390a2505060016000555050565b60006108497fb53127684a568b3173ae13b9f8a6016e243e63b6e8ee1178d6a717850b5d6103611990565b905090565b600a5460ff1690565b3360009081526003602052604081205460ff166108865760405162461bcd60e51b815260040161026b90612759565b600660009054906101000a900473ffffffffffffffffffffffffffffffffffffffff1673ffffffffffffffffffffffffffffffffffffffff166398d5fdca6040518163ffffffff1660e01b815260040160206040518083038186803b1580156108ee57600080fd5b505afa158015610902573d6000803e3d6000fd5b505050506040513d601f19601f820116820180604052506108499190810190612090565b61092e611f0a565b506040805160608101825260085463ffffffff81168252640100000000810460ff16151560208301526501000000000090046fffffffffffffffffffffffffffffffff169181019190915290565b60008173ffffffffffffffffffffffffffffffffffffffff168373ffffffffffffffffffffffffffffffffffffffff1614806109dd575073ffffffffffffffffffffffffffffffffffffffff821660009081526003602052604090205460ff165b80610a1a575073ffffffffffffffffffffffffffffffffffffffff80841660009081526004602090815260408083209386168352929052205460ff165b9392505050565b610a29611ee3565b5073ffffffffffffffffffffffffffffffffffffffff166000908152600160209081526040918290208251608081018452905460ff808216151583526101008204161515928201929092526effffffffffffffffffffffffffffff62010000830481169382019390935271010000000000000000000000000000000000909104909116606082015290565b610abc611f0a565b5073ffffffffffffffffffffffffffffffffffffffff166000908152600260209081526040918290208251606081018452905463ffffffff81168252640100000000810460ff16151592820192909252650100000000009091046fffffffffffffffffffffffffffffffff169181019190915290565b600a5460ff1615610b555760405162461bcd60e51b815260040161026b90612769565b6000196000541415610b795760405162461bcd60e51b815260040161026b906127b9565b600019600055610b89833361097c565b610ba55760405162461bcd60e51b815260040161026b906126f9565b610bad611ebd565b610bb5611574565b9050610bbf611ee3565b610bc98286610dcb565b600554909150610bf09073ffffffffffffffffffffffffffffffffffffffff16858561141d565b610c00818463ffffffff61199416565b73ffffffffffffffffffffffffffffffffffffffff851660009081526001602090815260409182902083518154928501519385015160608601517fffffffffffffffffffffffffffffffffffffffffffffffffffffffffffffff00909416911515919091177fffffffffffffffffffffffffffffffffffffffffffffffffffffffffffff00ff1661010094151594909402939093177fffffffffffffffffffffffffffffff000000000000000000000000000000ffff16620100006effffffffffffffffffffffffffffff948516021770ffffffffffffffffffffffffffffffffff16710100000000000000000000000000000000009390921692909202179055610d0b82826119b7565b610d275760405162461bcd60e51b815260040161026b90612799565b8473ffffffffffffffffffffffffffffffffffffffff167f74348e8cb927b5536fe550310d0cdf05914498fcb04ad61b99c29e3899b0bce98585610d6a856114df565b604051610d79939291906126a3565b60405180910390a250506001600055505050565b60075473ffffffffffffffffffffffffffffffffffffffff1690565b60065473ffffffffffffffffffffffffffffffffffffffff1690565b60095490565b610dd3611ee3565b610ddb611f0a565b506040830151610de9611f0a565b5073ffffffffffffffffffffffffffffffffffffffff83166000908152600260209081526040918290208251606081018452905463ffffffff81168252640100000000810460ff16151592820192909252650100000000009091046fffffffffffffffffffffffffffffffff1691810191909152610e65611ee3565b5073ffffffffffffffffffffffffffffffffffffffff84166000908152600160209081526040918290208251608081018452905460ff808216151583526101008204161515928201929092526effffffffffffffffffffffffffffff6201000083048116938201939093527101000000000000000000000000000000000090910490911660608201528251825163ffffffff90811691161415610f0c579250610622915050565b73ffffffffffffffffffffffffffffffffffffffff85166000908152600260209081526040918290208551815492870151938701517fffffffffffffffffffffffffffffffffffffffffffffffffffffffff0000000090931663ffffffff909116177fffffffffffffffffffffffffffffffffffffffffffffffffffffff00ffffffff1664010000000093151593909302929092177fffffffffffffffffffffff00000000000000000000000000000000ffffffffff16650100000000006fffffffffffffffffffffffffffffffff9092169190910217905560608101516effffffffffffffffffffffffffffff16611009579250610622915050565b611011611f2a565b50604080518082018252908401516fffffffffffffffffffffffffffffffff1681526020808501511515818301528301511561107657604083015161106f9082906fffffffffffffffffffffffffffffffff1663ffffffff611a1116565b90506110a1565b604083015161109e9082906fffffffffffffffffffffffffffffffff1663ffffffff611ac016565b90505b6000826020015115158260200151151514159050600081156110fb57606084015183516110e4916effffffffffffffffffffffffffffff1663ffffffff611b3d16565b90506110f6848263ffffffff61195b16565b611134565b60608401518351611122916effffffffffffffffffffffffffffff1663ffffffff611b5b16565b9050611134848263ffffffff61199416565b73ffffffffffffffffffffffffffffffffffffffff881660008181526001602090815260409182902087518154928901519389015160608a01517fffffffffffffffffffffffffffffffffffffffffffffffffffffffffffffff00909416911515919091177fffffffffffffffffffffffffffffffffffffffffffffffffffffffffffff00ff1661010094151594909402939093177fffffffffffffffffffffffffffffff000000000000000000000000000000ffff16620100006effffffffffffffffffffffffffffff948516021770ffffffffffffffffffffffffffffffffff167101000000000000000000000000000000000093909216929092021790557f022694ffbbd957d26de6b85c040be68ec582d13d40114b29130581793a1bf31e8383611261886114df565b604051611270939291906126cc565b60405180910390a25091979650505050505050565b8151600090819081908190156112c9576112c26112a0611342565b60408801516effffffffffffffffffffffffffffff169063ffffffff611bb216565b91506112d7565b6112d46112a0611342565b90505b6060860151600090611300906effffffffffffffffffffffffffffff168763ffffffff611bb216565b90508660200151156113235761131c838263ffffffff611bec16565b9250611336565b611333828263ffffffff611bec16565b91505b50909590945092505050565b670de0b6b3a764000090565b6000610a1a83836040518060400160405280601e81526020017f536166654d6174683a207375627472616374696f6e206f766572666c6f770000815250611c11565b6000610a1a83836040518060400160405280601a81526020017f536166654d6174683a206469766973696f6e206279207a65726f000000000000815250611c3d565b60008183106113e15781610a1a565b5090919050565b60006f0100000000000000000000000000000082106114195760405162461bcd60e51b815260040161026b90612729565b5090565b6040516114da9084907fa9059cbb00000000000000000000000000000000000000000000000000000000906114589086908690602401612688565b604080517fffffffffffffffffffffffffffffffffffffffffffffffffffffffffffffffe08184030181529190526020810180517bffffffffffffffffffffffffffffffffffffffffffffffffffffffff167fffffffff0000000000000000000000000000000000000000000000000000000090931692909217909152611c74565b505050565b60008082602001516114f2576000611504565b6f010000000000000000000000000000005b8351611511576000611533565b7f01000000000000000000000000000000000000000000000000000000000000005b608085604001516effffffffffffffffffffffffffffff16901b85606001516effffffffffffffffffffffffffffff1617171790508060001b915050919050565b61157c611ebd565b611584611f0a565b506040805160608101825260085463ffffffff81168252640100000000810460ff161515602080840191909152650100000000009091046fffffffffffffffffffffffffffffffff168284015260065483517f98d5fdca0000000000000000000000000000000000000000000000000000000081529351929360009373ffffffffffffffffffffffffffffffffffffffff909216926398d5fdca92600480840193829003018186803b15801561163957600080fd5b505afa15801561164d573d6000803e3d6000fd5b505050506040513d601f19601f820116820180604052506116719190810190612090565b90506000611692836000015163ffffffff164261134e90919063ffffffff16565b905080156118b8576116a2611f2a565b50604080518082018252848201516fffffffffffffffffffffffffffffffff16815260208086015115159082015260075491517febed4bd40000000000000000000000000000000000000000000000000000000081529091600091829173ffffffffffffffffffffffffffffffffffffffff169063ebed4bd49061172a9087906004016126da565b604080518083038186803b15801561174157600080fd5b505afa158015611755573d6000803e3d6000fd5b505050506040513d601f19601f820116820180604052506117799190810190612060565b909250905061178e818663ffffffff611b3d16565b905081156117ad576117a6838263ffffffff611ac016565b92506117c0565b6117bd838263ffffffff611a1116565b92505b60405180606001604052806117d442611d73565b63ffffffff1681526020018460200151151581526020016117f88560000151611d99565b6fffffffffffffffffffffffffffffffff9081169091528151600880546020850151604086015190941665010000000000027fffffffffffffffffffffff00000000000000000000000000000000ffffffffff941515640100000000027fffffffffffffffffffffffffffffffffffffffffffffffffffffff00ffffffff63ffffffff9095167fffffffffffffffffffffffffffffffffffffffffffffffffffffffff000000009093169290921793909316179290921617905595505050505b7f995e61c355733308eab39a59e1e1ac167274cdd1ad707fe4d13e127a010764286118e284611dcb565b6040516118ef91906126da565b60405180910390a150604080516060810182529182526009546020830152810191909152905090565b6040516119559085907f23b872dd000000000000000000000000000000000000000000000000000000009061145890879087908790602401612660565b50505050565b611963611f2a565b61196c83611e21565b905061197e818363ffffffff611ac016565b90506114da838263ffffffff611e5616565b5490565b61199c611f2a565b6119a583611e21565b905061197e818363ffffffff611a1116565b60008060006119d385600001518561128590919063ffffffff16565b915091506119ee856020015182611bb290919063ffffffff16565b611a066119f9611342565b849063ffffffff611bb216565b101595945050505050565b611a19611f2a565b8260200151611a55576040518060400160405280611a44856000015185611bec90919063ffffffff16565b815260006020909101529050610622565b8251821015611a8d576040805180820190915283518190611a7c908563ffffffff61134e16565b815260016020909101529050610622565b6040518060400160405280611aaf85600001518561134e90919063ffffffff16565b815260006020909101529392505050565b611ac8611f2a565b826020015115611af4576040518060400160405280611a7c856000015185611bec90919063ffffffff16565b8251821115611b1f576040518060400160405280611a7c85600001518561134e90919063ffffffff16565b6040805180820190915283518190611aaf908563ffffffff61134e16565b6000610a1a670de0b6b3a7640000610367858563ffffffff611bb216565b6000821580611b68575081155b15611b7557506000610622565b610a1a6001611ba6670de0b6b3a764000061036783611b9a898963ffffffff611bb216565b9063ffffffff61134e16565b9063ffffffff611bec16565b600082611bc157506000610622565b82820282848281611bce57fe5b0414610a1a5760405162461bcd60e51b815260040161026b90612779565b600082820183811015610a1a5760405162461bcd60e51b815260040161026b90612719565b60008184841115611c355760405162461bcd60e51b815260040161026b91906126e8565b505050900390565b60008183611c5e5760405162461bcd60e51b815260040161026b91906126e8565b506000838581611c6a57fe5b0495945050505050565b611c938273ffffffffffffffffffffffffffffffffffffffff16611e81565b611caf5760405162461bcd60e51b815260040161026b906127c9565b600060608373ffffffffffffffffffffffffffffffffffffffff1683604051611cd89190612646565b6000604051808303816000865af19150503d8060008114611d15576040519150601f19603f3d011682016040523d82523d6000602084013e611d1a565b606091505b509150915081611d3c5760405162461bcd60e51b815260040161026b90612749565b8051156119555780806020019051611d579190810190612042565b6119555760405162461bcd60e51b815260040161026b906127a9565b600064010000000082106114195760405162461bcd60e51b815260040161026b90612789565b600070010000000000000000000000000000000082106114195760405162461bcd60e51b815260040161026b90612739565b6000806088836000015163ffffffff16901b8360200151611ded576000611e00565b7001000000000000000000000000000000005b60408501516fffffffffffffffffffffffffffffffff161717915050919050565b611e29611f2a565b50604080518082018252908201516effffffffffffffffffffffffffffff16815290511515602082015290565b8051611e61906113e8565b6effffffffffffffffffffffffffffff1660408301526020015115159052565b6000813f7fc5d2460186f7233c927e7db2dcc703c0e500b653ca82273b7bfad8045d85a470818114801590611eb557508115155b949350505050565b60405180606001604052806000815260200160008152602001611ede611f0a565b905290565b60408051608081018252600080825260208201819052918101829052606081019190915290565b604080516060810182526000808252602082018190529181019190915290565b604080518082019091526000808252602082015290565b8035610622816128c7565b8051610622816128de565b8035610622816128e7565b8051610622816128e7565b600060208284031215611f7f57600080fd5b6000611eb58484611f41565b60008060408385031215611f9e57600080fd5b6000611faa8585611f41565b9250506020611fbb85828601611f41565b9150509250929050565b600080600060608486031215611fda57600080fd5b6000611fe68686611f41565b9350506020611ff786828701611f41565b925050604061200886828701611f57565b9150509250925092565b6000806040838503121561202557600080fd5b60006120318585611f41565b9250506020611fbb85828601611f57565b60006020828403121561205457600080fd5b6000611eb58484611f4c565b6000806040838503121561207357600080fd5b600061207f8585611f4c565b9250506020611fbb85828601611f62565b6000602082840312156120a257600080fd5b6000611eb58484611f62565b6120b781612815565b82525050565b6120b781612820565b6120b781612825565b60006120da82612803565b6120e48185612807565b93506120f4818560208601612873565b9290920192915050565b600061210982612803565b612113818561280c565b9350612123818560208601612873565b61212c8161289f565b9093019392505050565b6000612143602b8361280c565b7f73656e64657220646f6573206e6f742068617665207065726d697373696f6e2081527f746f207769746864726177000000000000000000000000000000000000000000602082015260400192915050565b60006121a260268361280c565b7f4f6e6c79207065726d697474656420647572696e672066696e616c207365747481527f6c656d656e740000000000000000000000000000000000000000000000000000602082015260400192915050565b6000612201601b8361280c565b7f536166654d6174683a206164646974696f6e206f766572666c6f770000000000815260200192915050565b600061223a60278361280c565b7f53616665436173743a2076616c756520646f65736e27742066697420696e203181527f3230206269747300000000000000000000000000000000000000000000000000602082015260400192915050565b600061229960278361280c565b7f53616665436173743a2076616c756520646f65736e27742066697420696e203181527f3238206269747300000000000000000000000000000000000000000000000000602082015260400192915050565b60006122f860208361280c565b7f5361666545524332303a206c6f772d6c6576656c2063616c6c206661696c6564815260200192915050565b6000612331602a8361280c565b7f4f7261636c6520707269636520726571756573746572206e6f7420676c6f626181527f6c206f70657261746f7200000000000000000000000000000000000000000000602082015260400192915050565b600061239060258361280c565b7f4e6f74207065726d697474656420647572696e672066696e616c20736574746c81527f656d656e74000000000000000000000000000000000000000000000000000000602082015260400192915050565b60006123ef60218361280c565b7f536166654d6174683a206d756c7469706c69636174696f6e206f766572666c6f81527f7700000000000000000000000000000000000000000000000000000000000000602082015260400192915050565b600061244e60268361280c565b7f53616665436173743a2076616c756520646f65736e27742066697420696e203381527f3220626974730000000000000000000000000000000000000000000000000000602082015260400192915050565b60006124ad601a8361280c565b7f6163636f756e74206e6f7420636f6c6c61746572616c697a6564000000000000815260200192915050565b60006124e6602a8361280c565b7f5361666545524332303a204552433230206f7065726174696f6e20646964206e81527f6f74207375636365656400000000000000000000000000000000000000000000602082015260400192915050565b6000612545601f8361280c565b7f5265656e7472616e637947756172643a207265656e7472616e742063616c6c00815260200192915050565b600061257e601f8361280c565b7f5361666545524332303a2063616c6c20746f206e6f6e2d636f6e747261637400815260200192915050565b805160808301906125bb84826120bd565b5060208201516125ce60208501826120bd565b5060408201516125e1604085018261262b565b506060820151611955606085018261262b565b80516060830190612605848261263d565b50602082015161261860208501826120bd565b5060408201516119556040850182612634565b6120b781612828565b6120b78161283c565b6120b78161286a565b6000610a1a82846120cf565b6020810161062282846120ae565b6060810161266e82866120ae565b61267b60208301856120ae565b611eb560408301846120c6565b6040810161269682856120ae565b610a1a60208301846120c6565b606081016126b182866120ae565b61267b60208301856120c6565b6020810161062282846120bd565b606081016126b182866120bd565b6020810161062282846120c6565b60208082528101610a1a81846120fe565b6020808252810161062281612136565b6020808252810161062281612195565b60208082528101610622816121f4565b602080825281016106228161222d565b602080825281016106228161228c565b60208082528101610622816122eb565b6020808252810161062281612324565b6020808252810161062281612383565b60208082528101610622816123e2565b6020808252810161062281612441565b60208082528101610622816124a0565b60208082528101610622816124d9565b6020808252810161062281612538565b6020808252810161062281612571565b6080810161062282846125aa565b6060810161062282846125f4565b6040810161269682856120c6565b5190565b919050565b90815260200190565b600061062282612851565b151590565b90565b6effffffffffffffffffffffffffffff1690565b6fffffffffffffffffffffffffffffffff1690565b73ffffffffffffffffffffffffffffffffffffffff1690565b63ffffffff1690565b60005b8381101561288e578181015183820152602001612876565b838111156119555750506000910152565b601f017fffffffffffffffffffffffffffffffffffffffffffffffffffffffffffffffe01690565b6128d081612815565b81146128db57600080fd5b50565b6128d081612820565b6128d08161282556fea365627a7a72315820d9c04616ac5ec8a48de77aacc24b3d27b2544f9a708734fa8adebb8c389136396c6578706572696d656e74616cf564736f6c63430005100040",
  "source": "/*\n\n    Copyright 2020 dYdX Trading Inc.\n\n    Licensed under the Apache License, Version 2.0 (the \"License\");\n    you may not use this file except in compliance with the License.\n    You may obtain a copy of the License at\n\n    http://www.apache.org/licenses/LICENSE-2.0\n\n    Unless required by applicable law or agreed to in writing, software\n    distributed under the License is distributed on an \"AS IS\" BASIS,\n    WITHOUT WARRANTIES OR CONDITIONS OF ANY KIND, either express or implied.\n    See the License for the specific language governing permissions and\n    limitations under the License.\n\n*/\n\npragma solidity 0.5.16;\npragma experimental ABIEncoderV2;\n\nimport { IERC20 } from \"@openzeppelin/contracts/token/ERC20/IERC20.sol\";\nimport { SafeERC20 } from \"@openzeppelin/contracts/token/ERC20/SafeERC20.sol\";\nimport { P1FinalSettlement } from \"./P1FinalSettlement.sol\";\nimport { P1Getters } from \"./P1Getters.sol\";\nimport { P1BalanceMath } from \"../lib/P1BalanceMath.sol\";\nimport { P1Types } from \"../lib/P1Types.sol\";\n\n\n/**\n * @title P1Margin\n * @author dYdX\n *\n * @notice Contract for withdrawing and depositing.\n */\ncontract P1Margin is\n    P1FinalSettlement,\n    P1Getters\n{\n    using P1BalanceMath for P1Types.Balance;\n\n    // ============ Events ============\n\n    event LogDeposit(\n        address indexed account,\n        uint256 amount,\n        bytes32 balance\n    );\n\n    event LogWithdraw(\n        address indexed account,\n        address destination,\n        uint256 amount,\n        bytes32 balance\n    );\n\n    // ============ Functions ============\n\n    /**\n     * @notice Deposit some amount of margin tokens from the msg.sender into an account.\n     * @dev Emits LogIndex, LogAccountSettled, and LogDeposit events.\n     *\n     * @param  account  The account for which to credit the deposit.\n     * @param  amount   the amount of tokens to deposit.\n     */\n    function deposit(\n        address account,\n        uint256 amount\n    )\n        external\n        noFinalSettlement\n        nonReentrant\n    {\n        P1Types.Context memory context = _loadContext();\n        P1Types.Balance memory balance = _settleAccount(context, account);\n\n        SafeERC20.safeTransferFrom(\n            IERC20(_TOKEN_),\n            msg.sender,\n            address(this),\n            amount\n        );\n\n        balance.addToMargin(amount);\n        _BALANCES_[account] = balance;\n\n        emit LogDeposit(\n            account,\n            amount,\n            balance.toBytes32()\n        );\n    }\n\n    /**\n     * @notice Withdraw some amount of margin tokens from an account to a destination address.\n     * @dev Emits LogIndex, LogAccountSettled, and LogWithdraw events.\n     *\n     * @param  account      The account for which to debit the withdrawal.\n     * @param  destination  The address to which the tokens are transferred.\n     * @param  amount       The amount of tokens to withdraw.\n     */\n    function withdraw(\n        address account,\n        address destination,\n        uint256 amount\n    )\n        external\n        noFinalSettlement\n        nonReentrant\n    {\n        require(\n            hasAccountPermissions(account, msg.sender),\n            \"sender does not have permission to withdraw\"\n        );\n\n        P1Types.Context memory context = _loadContext();\n        P1Types.Balance memory balance = _settleAccount(context, account);\n\n        SafeERC20.safeTransfer(\n            IERC20(_TOKEN_),\n            destination,\n            amount\n        );\n\n        balance.subFromMargin(amount);\n        _BALANCES_[account] = balance;\n\n        require(\n            _isCollateralized(context, balance),\n            \"account not collateralized\"\n        );\n\n        emit LogWithdraw(\n            account,\n            destination,\n            amount,\n            balance.toBytes32()\n        );\n    }\n}\n",
  "sourcePath": "/Users/dennismacpro/Projects/Defi/Ethereum-Solidity-Collection/icarus-protocol/defi-seeder/.tmp/dydx-protocol/perpetual/contracts/protocol/v1/impl/P1Margin.sol",
  "compiler": {
    "name": "solc",
    "version": "0.5.16+commit.9c3226ce.Linux.g++"
  },
  "schemaVersion": "3.3.4",
  "updatedAt": "2021-04-01T16:42:57.381Z",
  "devdoc": {
    "author": "dYdX",
    "methods": {
      "deposit(address,uint256)": {
        "details": "Emits LogIndex, LogAccountSettled, and LogDeposit events.",
        "params": {
          "account": "The account for which to credit the deposit.",
          "amount": "the amount of tokens to deposit."
        }
      },
      "getAccountBalance(address)": {
        "params": {
          "account": "The address of the account to query the balances of."
        },
        "return": "The balances of the account."
      },
      "getAccountIndex(address)": {
        "params": {
          "account": "The address of the account to query the index of."
        },
        "return": "The index of the account."
      },
      "getAdmin()": {
        "return": "The EIP-1967 proxy admin"
      },
      "getFinalSettlementEnabled()": {
        "return": "True if final-settlement was enabled, false otherwise."
      },
      "getFunderContract()": {
        "return": "The address of the funder contract."
      },
      "getGlobalIndex()": {
        "return": "The most recently cached global index."
      },
      "getIsGlobalOperator(address)": {
        "params": {
          "operator": "The address of the operator to query the status of."
        },
        "return": "True if the address is a global operator, false otherwise."
      },
      "getIsLocalOperator(address,address)": {
        "params": {
          "account": "The account to query the operator for.",
          "operator": "The address of the operator to query the status of."
        },
        "return": "True if the operator is a local operator of the account, false otherwise."
      },
      "getMinCollateral()": {
        "return": "The minimum-acceptable collateralization ratio, returned as a fixed-point number with 18 decimals of precision."
      },
      "getOracleContract()": {
        "return": "The address of the price oracle contract."
      },
      "getOraclePrice()": {
        "details": "Only able to be called by global operators.",
        "return": "The price returned by the current price oracle."
      },
      "getTokenContract()": {
        "return": "The address of the ERC20 token."
      },
      "hasAccountPermissions(address,address)": {
        "params": {
          "account": "The account to query.",
          "operator": "The address to query."
        },
        "return": "True if the operator has permission to operate the account,                  and false otherwise."
      },
      "withdraw(address,address,uint256)": {
        "details": "Emits LogIndex, LogAccountSettled, and LogWithdraw events.",
        "params": {
          "account": "The account for which to debit the withdrawal.",
          "amount": "The amount of tokens to withdraw.",
          "destination": "The address to which the tokens are transferred."
        }
      },
      "withdrawFinalSettlement()": {
        "details": "Emits the LogAccountSettled and LogWithdrawFinalSettlement events."
      }
    },
    "title": "P1Margin"
  },
  "userdoc": {
    "methods": {
      "deposit(address,uint256)": {
        "notice": "Deposit some amount of margin tokens from the msg.sender into an account."
      },
      "getAccountBalance(address)": {
        "notice": "Get the balance of an account, without accounting for changes in the index."
      },
      "getAccountIndex(address)": {
        "notice": "Gets the most recently cached index of an account."
      },
      "getFinalSettlementEnabled()": {
        "notice": "Gets the status of whether final-settlement was initiated by the Admin."
      },
      "getFunderContract()": {
        "notice": "Gets the current address of the funder contract."
      },
      "getGlobalIndex()": {
        "notice": "Gets the most recently cached global index."
      },
      "getIsGlobalOperator(address)": {
        "notice": "Gets the global operator status of an address."
      },
      "getIsLocalOperator(address,address)": {
        "notice": "Gets the local operator status of an operator for a particular account."
      },
      "getMinCollateral()": {
        "notice": "Gets minimum collateralization ratio of the protocol."
      },
      "getOracleContract()": {
        "notice": "Gets the current address of the price oracle contract."
      },
      "getOraclePrice()": {
        "notice": "Gets the price returned by the oracle."
      },
      "getTokenContract()": {
        "notice": "Gets the address of the ERC20 margin contract used for margin deposits."
      },
      "hasAccountPermissions(address,address)": {
        "notice": "Gets whether an address has permissions to operate an account."
      },
      "withdraw(address,address,uint256)": {
        "notice": "Withdraw some amount of margin tokens from an account to a destination address."
      },
      "withdrawFinalSettlement()": {
        "notice": "Withdraw the number of margin tokens equal to the value of the account at the time that final settlement occurred."
      }
    },
    "notice": "Contract for withdrawing and depositing."
  }
}