{
  "contractName": "P1MirrorOracleETHUSD",
  "abi": [
    {
      "inputs": [
        {
          "internalType": "address",
          "name": "oracle",
          "type": "address"
        }
      ],
      "payable": false,
      "stateMutability": "nonpayable",
      "type": "constructor"
    },
    {
      "anonymous": false,
      "inputs": [
        {
          "indexed": false,
          "internalType": "uint256",
          "name": "val",
          "type": "uint256"
        },
        {
          "indexed": false,
          "internalType": "uint256",
          "name": "age",
          "type": "uint256"
        }
      ],
      "name": "LogMedianPrice",
      "type": "event"
    },
    {
      "anonymous": false,
      "inputs": [
        {
          "indexed": false,
          "internalType": "uint256",
          "name": "bar",
          "type": "uint256"
        }
      ],
      "name": "LogSetBar",
      "type": "event"
    },
    {
      "anonymous": false,
      "inputs": [
        {
          "indexed": false,
          "internalType": "address",
          "name": "reader",
          "type": "address"
        },
        {
          "indexed": false,
          "internalType": "bool",
          "name": "authorized",
          "type": "bool"
        }
      ],
      "name": "LogSetReader",
      "type": "event"
    },
    {
      "anonymous": false,
      "inputs": [
        {
          "indexed": false,
          "internalType": "address",
          "name": "signer",
          "type": "address"
        },
        {
          "indexed": false,
          "internalType": "bool",
          "name": "authorized",
          "type": "bool"
        }
      ],
      "name": "LogSetSigner",
      "type": "event"
    },
    {
      "anonymous": false,
      "inputs": [
        {
          "indexed": true,
          "internalType": "address",
          "name": "previousOwner",
          "type": "address"
        },
        {
          "indexed": true,
          "internalType": "address",
          "name": "newOwner",
          "type": "address"
        }
      ],
      "name": "OwnershipTransferred",
      "type": "event"
    },
    {
      "constant": true,
      "inputs": [],
      "name": "WAT",
      "outputs": [
        {
          "internalType": "bytes32",
          "name": "",
          "type": "bytes32"
        }
      ],
      "payable": false,
      "stateMutability": "view",
      "type": "function"
    },
    {
      "constant": true,
      "inputs": [],
      "name": "_AGE_",
      "outputs": [
        {
          "internalType": "uint32",
          "name": "",
          "type": "uint32"
        }
      ],
      "payable": false,
      "stateMutability": "view",
      "type": "function"
    },
    {
      "constant": true,
      "inputs": [],
      "name": "_BAR_",
      "outputs": [
        {
          "internalType": "uint256",
          "name": "",
          "type": "uint256"
        }
      ],
      "payable": false,
      "stateMutability": "view",
      "type": "function"
    },
    {
      "constant": true,
      "inputs": [],
      "name": "_ORACLE_",
      "outputs": [
        {
          "internalType": "address",
          "name": "",
          "type": "address"
        }
      ],
      "payable": false,
      "stateMutability": "view",
      "type": "function"
    },
    {
      "constant": true,
      "inputs": [
        {
          "internalType": "address",
          "name": "",
          "type": "address"
        }
      ],
      "name": "_ORCL_",
      "outputs": [
        {
          "internalType": "uint256",
          "name": "",
          "type": "uint256"
        }
      ],
      "payable": false,
      "stateMutability": "view",
      "type": "function"
    },
    {
      "constant": true,
      "inputs": [
        {
          "internalType": "uint8",
          "name": "",
          "type": "uint8"
        }
      ],
      "name": "_SLOT_",
      "outputs": [
        {
          "internalType": "address",
          "name": "",
          "type": "address"
        }
      ],
      "payable": false,
      "stateMutability": "view",
      "type": "function"
    },
    {
      "constant": true,
      "inputs": [],
      "name": "age",
      "outputs": [
        {
          "internalType": "uint32",
          "name": "",
          "type": "uint32"
        }
      ],
      "payable": false,
      "stateMutability": "view",
      "type": "function"
    },
    {
      "constant": true,
      "inputs": [],
      "name": "bar",
      "outputs": [
        {
          "internalType": "uint256",
          "name": "",
          "type": "uint256"
        }
      ],
      "payable": false,
      "stateMutability": "view",
      "type": "function"
    },
    {
      "constant": true,
      "inputs": [
        {
          "internalType": "address",
          "name": "reader",
          "type": "address"
        }
      ],
      "name": "bud",
      "outputs": [
        {
          "internalType": "uint256",
          "name": "",
          "type": "uint256"
        }
      ],
      "payable": false,
      "stateMutability": "view",
      "type": "function"
    },
    {
      "constant": true,
      "inputs": [],
      "name": "checkSynced",
      "outputs": [
        {
          "internalType": "uint256",
          "name": "",
          "type": "uint256"
        },
        {
          "internalType": "uint256",
          "name": "",
          "type": "uint256"
        },
        {
          "internalType": "bool",
          "name": "",
          "type": "bool"
        }
      ],
      "payable": false,
      "stateMutability": "view",
      "type": "function"
    },
    {
      "constant": false,
      "inputs": [
        {
          "internalType": "address[]",
          "name": "readers",
          "type": "address[]"
        }
      ],
      "name": "diss",
      "outputs": [],
      "payable": false,
      "stateMutability": "nonpayable",
      "type": "function"
    },
    {
      "constant": false,
      "inputs": [
        {
          "internalType": "address",
          "name": "reader",
          "type": "address"
        }
      ],
      "name": "diss",
      "outputs": [],
      "payable": false,
      "stateMutability": "nonpayable",
      "type": "function"
    },
    {
      "constant": false,
      "inputs": [
        {
          "internalType": "address[]",
          "name": "signers",
          "type": "address[]"
        }
      ],
      "name": "drop",
      "outputs": [],
      "payable": false,
      "stateMutability": "nonpayable",
      "type": "function"
    },
    {
      "constant": true,
      "inputs": [],
      "name": "isOwner",
      "outputs": [
        {
          "internalType": "bool",
          "name": "",
          "type": "bool"
        }
      ],
      "payable": false,
      "stateMutability": "view",
      "type": "function"
    },
    {
      "constant": false,
      "inputs": [
        {
          "internalType": "address[]",
          "name": "readers",
          "type": "address[]"
        }
      ],
      "name": "kiss",
      "outputs": [],
      "payable": false,
      "stateMutability": "nonpayable",
      "type": "function"
    },
    {
      "constant": false,
      "inputs": [
        {
          "internalType": "address",
          "name": "reader",
          "type": "address"
        }
      ],
      "name": "kiss",
      "outputs": [],
      "payable": false,
      "stateMutability": "nonpayable",
      "type": "function"
    },
    {
      "constant": false,
      "inputs": [
        {
          "internalType": "address[]",
          "name": "signers",
          "type": "address[]"
        }
      ],
      "name": "lift",
      "outputs": [],
      "payable": false,
      "stateMutability": "nonpayable",
      "type": "function"
    },
    {
      "constant": true,
      "inputs": [
        {
          "internalType": "address",
          "name": "signer",
          "type": "address"
        }
      ],
      "name": "orcl",
      "outputs": [
        {
          "internalType": "uint256",
          "name": "",
          "type": "uint256"
        }
      ],
      "payable": false,
      "stateMutability": "view",
      "type": "function"
    },
    {
      "constant": true,
      "inputs": [],
      "name": "owner",
      "outputs": [
        {
          "internalType": "address",
          "name": "",
          "type": "address"
        }
      ],
      "payable": false,
      "stateMutability": "view",
      "type": "function"
    },
    {
      "constant": true,
      "inputs": [],
      "name": "peek",
      "outputs": [
        {
          "internalType": "bytes32",
          "name": "",
          "type": "bytes32"
        },
        {
          "internalType": "bool",
          "name": "",
          "type": "bool"
        }
      ],
      "payable": false,
      "stateMutability": "view",
      "type": "function"
    },
    {
      "constant": false,
      "inputs": [
        {
          "internalType": "uint256[]",
          "name": "val_",
          "type": "uint256[]"
        },
        {
          "internalType": "uint256[]",
          "name": "age_",
          "type": "uint256[]"
        },
        {
          "internalType": "uint8[]",
          "name": "v",
          "type": "uint8[]"
        },
        {
          "internalType": "bytes32[]",
          "name": "r",
          "type": "bytes32[]"
        },
        {
          "internalType": "bytes32[]",
          "name": "s",
          "type": "bytes32[]"
        }
      ],
      "name": "poke",
      "outputs": [],
      "payable": false,
      "stateMutability": "nonpayable",
      "type": "function"
    },
    {
      "constant": true,
      "inputs": [],
      "name": "read",
      "outputs": [
        {
          "internalType": "bytes32",
          "name": "",
          "type": "bytes32"
        }
      ],
      "payable": false,
      "stateMutability": "view",
      "type": "function"
    },
    {
      "constant": false,
      "inputs": [],
      "name": "renounceOwnership",
      "outputs": [],
      "payable": false,
      "stateMutability": "nonpayable",
      "type": "function"
    },
    {
      "constant": false,
      "inputs": [],
      "name": "setBar",
      "outputs": [],
      "payable": false,
      "stateMutability": "nonpayable",
      "type": "function"
    },
    {
      "constant": true,
      "inputs": [
        {
          "internalType": "uint8",
          "name": "signerId",
          "type": "uint8"
        }
      ],
      "name": "slot",
      "outputs": [
        {
          "internalType": "address",
          "name": "",
          "type": "address"
        }
      ],
      "payable": false,
      "stateMutability": "view",
      "type": "function"
    },
    {
      "constant": false,
      "inputs": [
        {
          "internalType": "address",
          "name": "newOwner",
          "type": "address"
        }
      ],
      "name": "transferOwnership",
      "outputs": [],
      "payable": false,
      "stateMutability": "nonpayable",
      "type": "function"
    }
  ],
  "bytecode": "0x60806040523480156200001157600080fd5b5060405162001faa38038062001faa8339810160408190526200003491620000d2565b8060006200004a6001600160e01b03620000bb16565b600080546001600160a01b0319166001600160a01b0383169081178255604051929350917f8be0079c531659141344cd1fd0a4f28419497f9722a3daafe3b4186f6b6457e0908290a350600680546001600160a01b0319166001600160a01b03929092169190911790555062000127565b3390565b8051620000cc816200010d565b92915050565b600060208284031215620000e557600080fd5b6000620000f38484620000bf565b949350505050565b60006001600160a01b038216620000cc565b6200011881620000fb565b81146200012457600080fd5b50565b611e7380620001376000396000f3fe608060405234801561001057600080fd5b50600436106101ae5760003560e01c806382bdfc35116100ee5780638f8d10bb11610097578063e2f1028e11610071578063e2f1028e14610338578063f29c29c414610340578063f2fde38b14610353578063febb0f7e14610366576101ae565b80638f8d10bb146102fb578063943181061461030e578063aff85a4b14610321576101ae565b80638da5cb5b116100c85780638da5cb5b146102cb5780638ef5eaf0146102d35780638f32d59b146102e6576101ae565b806382bdfc351461029d57806389bbb8b2146102a55780638d0e5a9a146102b8576101ae565b80634e7d34221161015b57806359e02dd71161013557806359e02dd71461026457806365c4ce7a1461027a578063715018a61461028d57806373a2ab7c14610295576101ae565b80634e7d3422146102415780634fce7a2a1461024957806357de26a41461025c576101ae565b806324a904b51161018c57806324a904b514610211578063262a9dff1461021957806346d4577d1461022e576101ae565b8063020b2e32146101b35780631006b5d7146101dc5780631b25b65f146101fc575b600080fd5b6101c66101c1366004611412565b61036e565b6040516101d39190611c06565b60405180910390f35b6101ef6101ea3660046115b8565b610396565b6040516101d39190611bc8565b61020f61020a366004611456565b6103be565b005b61020f61042c565b610221610512565b6040516101d39190611d7a565b61020f61023c366004611456565b610532565b6101c6610592565b6101c6610257366004611412565b6105b6565b6101c66105de565b61026c610644565b6040516101d3929190611c14565b61020f610288366004611412565b610693565b61020f6106c3565b6101ef610756565b6101c6610772565b61020f6102b3366004611498565b610778565b6101ef6102c63660046115b8565b610a0c565b6101ef610a37565b61020f6102e1366004611456565b610a53565b6102ee610c34565b6040516101d39190611bf8565b6101c6610309366004611412565b610c72565b61020f61031c366004611456565b610c84565b610329610e74565b6040516101d393929190611d52565b6102216110bd565b61020f61034e366004611412565b6110dd565b61020f610361366004611412565b61110a565b6101c6611137565b73ffffffffffffffffffffffffffffffffffffffff1660009081526003602052604090205490565b60056020526000908152604090205473ffffffffffffffffffffffffffffffffffffffff1681565b6103c6610c34565b6103eb5760405162461bcd60e51b81526004016103e290611cd7565b60405180910390fd5b60005b818110156104275761041f83838381811061040557fe5b905060200201602061041a9190810190611412565b61113d565b6001016103ee565b505050565b600654604080517ffebb0f7e000000000000000000000000000000000000000000000000000000008152905160009273ffffffffffffffffffffffffffffffffffffffff169163febb0f7e916004808301926020929190829003018186803b15801561049757600080fd5b505afa1580156104ab573d6000803e3d6000fd5b505050506040513d601f19601f820116820180604052506104cf919081019061159a565b9050806002819055507f48c6ae1362d7627f13b4207e5f5cd2724aaac090cb9602e9e8aefe15eb8f24a6816040516105079190611c06565b60405180910390a150565b600154700100000000000000000000000000000000900463ffffffff1690565b61053a610c34565b6105565760405162461bcd60e51b81526004016103e290611cd7565b60005b818110156104275761058a83838381811061057057fe5b90506020020160206105859190810190611412565b61119a565b600101610559565b7f455448555344000000000000000000000000000000000000000000000000000081565b73ffffffffffffffffffffffffffffffffffffffff1660009081526004602052604090205490565b3360009081526004602052604081205460011461060d5760405162461bcd60e51b81526004016103e290611d27565b6001546fffffffffffffffffffffffffffffffff168061063f5760405162461bcd60e51b81526004016103e290611c77565b905090565b3360009081526004602052604081205481906001146106755760405162461bcd60e51b81526004016103e290611d17565b50506001546fffffffffffffffffffffffffffffffff168015159091565b61069b610c34565b6106b75760405162461bcd60e51b81526004016103e290611cd7565b6106c08161119a565b50565b6106cb610c34565b6106e75760405162461bcd60e51b81526004016103e290611cd7565b6000805460405173ffffffffffffffffffffffffffffffffffffffff909116907f8be0079c531659141344cd1fd0a4f28419497f9722a3daafe3b4186f6b6457e0908390a3600080547fffffffffffffffffffffffff0000000000000000000000000000000000000000169055565b60065473ffffffffffffffffffffffffffffffffffffffff1681565b60025481565b60025489146107995760405162461bcd60e51b81526004016103e290611ca7565b6001546000908190700100000000000000000000000000000000900463ffffffff16815b8c8110156109195760008e8e838181106107d357fe5b90506020020135905060008d8d848181106107ea57fe5b905060200201359050600061084683838f8f8881811061080657fe5b905060200201602061081b91908101906115b8565b8e8e8981811061082757fe5b905060200201358d8d8a81811061083a57fe5b905060200201356111f2565b73ffffffffffffffffffffffffffffffffffffffff811660009081526003602052604090205490915060011461088e5760405162461bcd60e51b81526004016103e290611cc7565b8482116108ad5760405162461bcd60e51b81526004016103e290611c97565b858310156108cd5760405162461bcd60e51b81526004016103e290611c57565b82955060006108db826112a6565b9050600160ff82161b888116156109045760405162461bcd60e51b81526004016103e290611d07565b97909717965050600190920191506107bd9050565b508c8c600181901c81811061092a57fe5b6001805463ffffffff4281167001000000000000000000000000000000009081027fffffffffffffffffffffffff00000000ffffffffffffffffffffffffffffffff6fffffffffffffffffffffffffffffffff6020909702989098013586167fffffffffffffffffffffffffffffffff00000000000000000000000000000000909416939093179690961691909117918290556040517fb78ebc573f1f889ca9e1e0fb62c843c836f3d3a2e1f43ef62940e9b894f4ea4c956109f59550938316939092041690611d37565b60405180910390a150505050505050505050505050565b60ff1660009081526005602052604090205473ffffffffffffffffffffffffffffffffffffffff1690565b60005473ffffffffffffffffffffffffffffffffffffffff1690565b60005b81811015610427576000838383818110610a6c57fe5b9050602002016020610a819190810190611412565b6006546040517f020b2e3200000000000000000000000000000000000000000000000000000000815291925073ffffffffffffffffffffffffffffffffffffffff169063020b2e3290610ad8908490600401611bc8565b60206040518083038186803b158015610af057600080fd5b505afa158015610b04573d6000803e3d6000fd5b505050506040513d601f19601f82011682018060405250610b28919081019061159a565b15610b455760405162461bcd60e51b81526004016103e290611cf7565b73ffffffffffffffffffffffffffffffffffffffff8116600090815260036020526040902054610b875760405162461bcd60e51b81526004016103e290611ce7565b6000610b92826112a6565b73ffffffffffffffffffffffffffffffffffffffff8316600090815260036020908152604080832083905560ff84168352600590915280822080547fffffffffffffffffffffffff0000000000000000000000000000000000000000169055519192507f8700965646f22bb776d5e0cbb11e1559f8143228405160e62250b866e954d91291610c22918591611bd6565b60405180910390a15050600101610a56565b6000805473ffffffffffffffffffffffffffffffffffffffff16610c566112af565b73ffffffffffffffffffffffffffffffffffffffff1614905090565b60036020526000908152604090205481565b60005b81811015610427576000838383818110610c9d57fe5b9050602002016020610cb29190810190611412565b6006546040517f020b2e3200000000000000000000000000000000000000000000000000000000815291925073ffffffffffffffffffffffffffffffffffffffff169063020b2e3290610d09908490600401611bc8565b60206040518083038186803b158015610d2157600080fd5b505afa158015610d35573d6000803e3d6000fd5b505050506040513d601f19601f82011682018060405250610d59919081019061159a565b600114610d785760405162461bcd60e51b81526004016103e290611cb7565b6000610d83826112a6565b60ff811660009081526005602052604090205490915073ffffffffffffffffffffffffffffffffffffffff1615610dcc5760405162461bcd60e51b81526004016103e290611c67565b73ffffffffffffffffffffffffffffffffffffffff8216600081815260036020908152604080832060019081905560ff8616845260059092529182902080547fffffffffffffffffffffffff000000000000000000000000000000000000000016909317909255517f8700965646f22bb776d5e0cbb11e1559f8143228405160e62250b866e954d91291610e6291859190611bd6565b60405180910390a15050600101610c87565b6000806000806000905060008090506000600660009054906101000a900473ffffffffffffffffffffffffffffffffffffffff1673ffffffffffffffffffffffffffffffffffffffff1663febb0f7e6040518163ffffffff1660e01b815260040160206040518083038186803b158015610eed57600080fd5b505afa158015610f01573d6000803e3d6000fd5b505050506040513d601f19601f82011682018060405250610f25919081019061159a565b6002541415905060005b6101008110156110b05760ff81166000818152600560205260408082205460065491517f8d0e5a9a00000000000000000000000000000000000000000000000000000000815285946001901b9373ffffffffffffffffffffffffffffffffffffffff9283169390921690638d0e5a9a90610fad908790600401611d88565b60206040518083038186803b158015610fc557600080fd5b505afa158015610fd9573d6000803e3d6000fd5b505050506040513d601f19601f82011682018060405250610ffd9190810190611438565b905073ffffffffffffffffffffffffffffffffffffffff82166110405773ffffffffffffffffffffffffffffffffffffffff81161561103b57968217965b6110a0565b73ffffffffffffffffffffffffffffffffffffffff811661106457958217956110a0565b8073ffffffffffffffffffffffffffffffffffffffff168273ffffffffffffffffffffffffffffffffffffffff16146110a05796821796958217955b505060019092019150610f2f9050565b5091945092509050909192565b600154700100000000000000000000000000000000900463ffffffff1681565b6110e5610c34565b6111015760405162461bcd60e51b81526004016103e290611cd7565b6106c08161113d565b611112610c34565b61112e5760405162461bcd60e51b81526004016103e290611cd7565b6106c0816112b3565b60025490565b73ffffffffffffffffffffffffffffffffffffffff81166000908152600460205260409081902060019081905590517fadb3d91f6b7a78ea487b119a89fd644a0e6cf0909aa48faff97d153e0df682c09161050791849190611bd6565b73ffffffffffffffffffffffffffffffffffffffff8116600090815260046020526040808220829055517fadb3d91f6b7a78ea487b119a89fd644a0e6cf0909aa48faff97d153e0df682c09161050791849190611bd6565b600060018686611200611373565b60405160200161121293929190611b91565b604051602081830303815290604052805190602001206040516020016112389190611b71565b604051602081830303815290604052805190602001208585856040516000815260200160405260405161126e9493929190611c22565b6020604051602081039080840390855afa158015611290573d6000803e3d6000fd5b5050506020604051035190505b95945050505050565b60981c60ff1690565b3390565b73ffffffffffffffffffffffffffffffffffffffff81166112e65760405162461bcd60e51b81526004016103e290611c87565b6000805460405173ffffffffffffffffffffffffffffffffffffffff808516939216917f8be0079c531659141344cd1fd0a4f28419497f9722a3daafe3b4186f6b6457e091a3600080547fffffffffffffffffffffffff00000000000000000000000000000000000000001673ffffffffffffffffffffffffffffffffffffffff92909216919091179055565b7f455448555344000000000000000000000000000000000000000000000000000090565b80356113a281611e0a565b92915050565b80516113a281611e0a565b60008083601f8401126113c557600080fd5b50813567ffffffffffffffff8111156113dd57600080fd5b6020830191508360208202830111156113f557600080fd5b9250929050565b80516113a281611e1e565b80356113a281611e27565b60006020828403121561142457600080fd5b60006114308484611397565b949350505050565b60006020828403121561144a57600080fd5b600061143084846113a8565b6000806020838503121561146957600080fd5b823567ffffffffffffffff81111561148057600080fd5b61148c858286016113b3565b92509250509250929050565b60008060008060008060008060008060a08b8d0312156114b757600080fd5b8a3567ffffffffffffffff8111156114ce57600080fd5b6114da8d828e016113b3565b9a509a505060208b013567ffffffffffffffff8111156114f957600080fd5b6115058d828e016113b3565b985098505060408b013567ffffffffffffffff81111561152457600080fd5b6115308d828e016113b3565b965096505060608b013567ffffffffffffffff81111561154f57600080fd5b61155b8d828e016113b3565b945094505060808b013567ffffffffffffffff81111561157a57600080fd5b6115868d828e016113b3565b92509250509295989b9194979a5092959850565b6000602082840312156115ac57600080fd5b600061143084846113fc565b6000602082840312156115ca57600080fd5b60006114308484611407565b6115df81611da4565b82525050565b6115df81611daf565b6115df81611db4565b6115df61160382611db4565b611db4565b6000611615602983611d96565b7f50314d6972726f724f7261636c6523706f6b653a204d657373616765206f757481527f206f66206f726465720000000000000000000000000000000000000000000000602082015260400192915050565b6000611674602e83611d96565b7f50314d6972726f724f7261636c65236c6966743a205369676e657220616c726581527f61647920617574686f72697a6564000000000000000000000000000000000000602082015260400192915050565b60006116d3602283611d96565b7f50314d6972726f724f7261636c6523726561643a205072696365206973207a6581527f726f000000000000000000000000000000000000000000000000000000000000602082015260400192915050565b6000611732601c83611d9f565b7f19457468657265756d205369676e6564204d6573736167653a0a3332000000008152601c0192915050565b600061176b602683611d96565b7f4f776e61626c653a206e6577206f776e657220697320746865207a65726f206181527f6464726573730000000000000000000000000000000000000000000000000000602082015260400192915050565b60006117ca602283611d96565b7f50314d6972726f724f7261636c6523706f6b653a205374616c65206d6573736181527f6765000000000000000000000000000000000000000000000000000000000000602082015260400192915050565b6000611829602d83611d96565b7f50314d6972726f724f7261636c6523706f6b653a2057726f6e67206e756d626581527f72206f66206d6573736167657300000000000000000000000000000000000000602082015260400192915050565b6000611888603f83611d96565b7f50314d6972726f724f7261636c65236c6966743a205369676e6572206e6f742081527f617574686f72697a6564206f6e20756e6465726c79696e67206f7261636c6500602082015260400192915050565b60006118e7602383611d96565b7f50314d6972726f724f7261636c6523706f6b653a20496e76616c69642073696781527f6e65720000000000000000000000000000000000000000000000000000000000602082015260400192915050565b6000611946602083611d96565b7f4f776e61626c653a2063616c6c6572206973206e6f7420746865206f776e6572815260200192915050565b600061197f603583611d96565b7f50314d6972726f724f7261636c652364726f703a205369676e6572206973206181527f6c7265616479206e6f7420617574686f72697a65640000000000000000000000602082015260400192915050565b60006119de603e83611d96565b7f50314d6972726f724f7261636c652364726f703a205369676e6572206973206181527f7574686f72697a6564206f6e20756e6465726c79696e67206f7261636c650000602082015260400192915050565b6000611a3d602583611d96565b7f50314d6972726f724f7261636c6523706f6b653a204475706c6963617465207381527f69676e6572000000000000000000000000000000000000000000000000000000602082015260400192915050565b6000611a9c603783611d96565b7f50314d6972726f724f7261636c65237065656b3a2053656e646572206e6f742081527f617574686f72697a656420746f20676574207072696365000000000000000000602082015260400192915050565b6000611afb603783611d96565b7f50314d6972726f724f7261636c6523726561643a2053656e646572206e6f742081527f617574686f72697a656420746f20676574207072696365000000000000000000602082015260400192915050565b6115df81611df4565b6115df81611dff565b6115df81611de5565b6115df81611dee565b6000611b7c82611725565b9150611b8882846115f7565b50602001919050565b6000611b9d82866115f7565b602082019150611bad82856115f7565b602082019150611bbd82846115f7565b506020019392505050565b602081016113a282846115d6565b60408101611be482856115d6565b611bf160208301846115e5565b9392505050565b602081016113a282846115e5565b602081016113a282846115ee565b60408101611be482856115ee565b60808101611c3082876115ee565b611c3d6020830186611b68565b611c4a60408301856115ee565b61129d60608301846115ee565b602080825281016113a281611608565b602080825281016113a281611667565b602080825281016113a2816116c6565b602080825281016113a28161175e565b602080825281016113a2816117bd565b602080825281016113a28161181c565b602080825281016113a28161187b565b602080825281016113a2816118da565b602080825281016113a281611939565b602080825281016113a281611972565b602080825281016113a2816119d1565b602080825281016113a281611a30565b602080825281016113a281611a8f565b602080825281016113a281611aee565b60408101611d458285611b4d565b611bf16020830184611b56565b60608101611d6082866115ee565b611d6d60208301856115ee565b61143060408301846115e5565b602081016113a28284611b5f565b602081016113a28284611b68565b90815260200190565b919050565b60006113a282611dcc565b151590565b90565b6fffffffffffffffffffffffffffffffff1690565b73ffffffffffffffffffffffffffffffffffffffff1690565b63ffffffff1690565b60ff1690565b60006113a282611db7565b60006113a282611de5565b611e1381611da4565b81146106c057600080fd5b611e1381611db4565b611e1381611dee56fea365627a7a7231582052b0bf3147e9fc380b9f0c70185f489b4cfe41bdecdda85e5dd6efde364d7bbe6c6578706572696d656e74616cf564736f6c63430005100040",
  "source": "/*\n\n    Copyright 2020 dYdX Trading Inc.\n\n    Licensed under the Apache License, Version 2.0 (the \"License\");\n    you may not use this file except in compliance with the License.\n    You may obtain a copy of the License at\n\n    http://www.apache.org/licenses/LICENSE-2.0\n\n    Unless required by applicable law or agreed to in writing, software\n    distributed under the License is distributed on an \"AS IS\" BASIS,\n    WITHOUT WARRANTIES OR CONDITIONS OF ANY KIND, either express or implied.\n    See the License for the specific language governing permissions and\n    limitations under the License.\n\n*/\n\npragma solidity 0.5.16;\npragma experimental ABIEncoderV2;\n\nimport { P1MirrorOracle } from \"./P1MirrorOracle.sol\";\n\n\n/**\n * @title P1MirrorOracleETHUSD\n * @author dYdX\n *\n * Oracle which mirrors the ETHUSD oracle.\n */\ncontract P1MirrorOracleETHUSD is\n    P1MirrorOracle\n{\n    bytes32 public constant WAT = \"ETHUSD\";\n\n    constructor(\n        address oracle\n    )\n        P1MirrorOracle(oracle)\n        public\n    {\n    }\n\n    function wat()\n        internal\n        pure\n        returns (bytes32)\n    {\n        return WAT;\n    }\n}\n",
  "sourcePath": "/Users/dennismacpro/Projects/Defi/Ethereum-Solidity-Collection/icarus-protocol/defi-seeder/.tmp/dydx-protocol/perpetual/contracts/protocol/v1/oracles/P1MirrorOracleETHUSD.sol",
  "compiler": {
    "name": "solc",
    "version": "0.5.16+commit.9c3226ce.Linux.g++"
  },
  "schemaVersion": "3.3.4",
  "updatedAt": "2021-04-01T16:42:57.422Z",
  "devdoc": {
    "author": "dYdX * Oracle which mirrors the ETHUSD oracle.",
    "methods": {
      "checkSynced()": {
        "return": "A bitmap of the IDs of signers that need to be added to the mirror.A bitmap of the IDs of signers that need to be removed from the mirror.False if the required number of signers (bar) matches, and true otherwise."
      },
      "isOwner()": {
        "details": "Returns true if the caller is the current owner."
      },
      "owner()": {
        "details": "Returns the address of the current owner."
      },
      "renounceOwnership()": {
        "details": "Leaves the contract without owner. It will not be possible to call `onlyOwner` functions anymore. Can only be called by the current owner.     * NOTE: Renouncing ownership will leave the contract without an owner, thereby removing any functionality that is only available to the owner."
      },
      "transferOwnership(address)": {
        "details": "Transfers ownership of the contract to a new account (`newOwner`). Can only be called by the current owner."
      }
    },
    "title": "P1MirrorOracleETHUSD"
  },
  "userdoc": {
    "methods": {
      "age()": {
        "notice": "Returns the timetamp of the last update."
      },
      "bar()": {
        "notice": "Returns the number of signers per poke."
      },
      "bud(address)": {
        "notice": "Returns 1 if the address is authorized to read the oracle price, and 0 otherwise."
      },
      "checkSynced()": {
        "notice": "Check whether the list of signers and required number of signers match the underlying oracle."
      },
      "diss(address)": {
        "notice": "Unauthorize an address so it can no longer read the oracle price."
      },
      "diss(address[])": {
        "notice": "Unauthorize addresses so they can no longer read the oracle price."
      },
      "drop(address[])": {
        "notice": "Unauthorize signers. The signers must NOT be authorized on the underlying oracle."
      },
      "kiss(address)": {
        "notice": "Authorize an address to read the oracle price."
      },
      "kiss(address[])": {
        "notice": "Authorize addresses to read the oracle price."
      },
      "lift(address[])": {
        "notice": "Authorize new signers. The signers must be authorized on the underlying oracle."
      },
      "orcl(address)": {
        "notice": "Returns 1 if the signer is authorized, and 0 otherwise."
      },
      "peek()": {
        "notice": "Returns the current price, and a boolean indicating whether the price is nonzero."
      },
      "poke(uint256[],uint256[],uint8[],bytes32[],bytes32[])": {
        "notice": "Send an array of signed messages to update the oracle value. Must have exactly `_BAR_` number of messages."
      },
      "read()": {
        "notice": "Requires the price to be nonzero, and returns the current price."
      },
      "setBar()": {
        "notice": "Sync `_BAR_` (the number of required signers) with the underyling oracle contract."
      },
      "slot(uint8)": {
        "notice": "A mapping from the first byte of an authorized signer's address to the signer."
      }
    }
  }
}