{
  "contractName": "P1Operator",
  "abi": [
    {
      "anonymous": false,
      "inputs": [
        {
          "indexed": true,
          "internalType": "address",
          "name": "sender",
          "type": "address"
        },
        {
          "indexed": false,
          "internalType": "address",
          "name": "operator",
          "type": "address"
        },
        {
          "indexed": false,
          "internalType": "bool",
          "name": "approved",
          "type": "bool"
        }
      ],
      "name": "LogSetLocalOperator",
      "type": "event"
    },
    {
      "constant": true,
      "inputs": [],
      "name": "getAdmin",
      "outputs": [
        {
          "internalType": "address",
          "name": "",
          "type": "address"
        }
      ],
      "payable": false,
      "stateMutability": "view",
      "type": "function"
    },
    {
      "constant": false,
      "inputs": [
        {
          "internalType": "address",
          "name": "operator",
          "type": "address"
        },
        {
          "internalType": "bool",
          "name": "approved",
          "type": "bool"
        }
      ],
      "name": "setLocalOperator",
      "outputs": [],
      "payable": false,
      "stateMutability": "nonpayable",
      "type": "function"
    }
  ],
  "bytecode": "0x60806040526001600055610264806100186000396000f3fe608060405234801561001057600080fd5b50600436106100365760003560e01c80636e9960c31461003b578063b4959e7214610059575b600080fd5b61004361006e565b60405161005091906101a8565b60405180910390f35b61006c610067366004610156565b61009e565b005b60006100997fb53127684a568b3173ae13b9f8a6016e243e63b6e8ee1178d6a717850b5d6103610136565b905090565b33600081815260046020908152604080832073ffffffffffffffffffffffffffffffffffffffff871684529091529081902080547fffffffffffffffffffffffffffffffffffffffffffffffffffffffffffffff0016841515179055517ffe9fa8ad7dbd5e50cbcd1a903ea64717cb80b02e6b737e74f7e2f070b3e4d15f9061012a90859085906101b6565b60405180910390a25050565b5490565b803561014581610201565b92915050565b803561014581610218565b6000806040838503121561016957600080fd5b6000610175858561013a565b92505060206101868582860161014b565b9150509250929050565b610199816101d8565b82525050565b610199816101e3565b602081016101458284610190565b604081016101c48285610190565b6101d1602083018461019f565b9392505050565b6000610145826101e8565b151590565b73ffffffffffffffffffffffffffffffffffffffff1690565b61020a816101d8565b811461021557600080fd5b50565b61020a816101e356fea365627a7a7231582056f7886b92ad30c197dfb36acecfa004a834cc91043c9b41050a36837e3f24d26c6578706572696d656e74616cf564736f6c63430005100040",
  "source": "/*\n\n    Copyright 2020 dYdX Trading Inc.\n\n    Licensed under the Apache License, Version 2.0 (the \"License\");\n    you may not use this file except in compliance with the License.\n    You may obtain a copy of the License at\n\n    http://www.apache.org/licenses/LICENSE-2.0\n\n    Unless required by applicable law or agreed to in writing, software\n    distributed under the License is distributed on an \"AS IS\" BASIS,\n    WITHOUT WARRANTIES OR CONDITIONS OF ANY KIND, either express or implied.\n    See the License for the specific language governing permissions and\n    limitations under the License.\n\n*/\n\npragma solidity 0.5.16;\npragma experimental ABIEncoderV2;\n\nimport { P1Storage } from \"./P1Storage.sol\";\n\n\n/**\n * @title P1Operator\n * @author dYdX\n *\n * @notice Contract for setting local operators for an account.\n */\ncontract P1Operator is\n    P1Storage\n{\n    // ============ Events ============\n\n    event LogSetLocalOperator(\n        address indexed sender,\n        address operator,\n        bool approved\n    );\n\n    // ============ Functions ============\n\n    /**\n     * @notice Grants or revokes permission for another account to perform certain actions on behalf\n     *  of the sender.\n     * @dev Emits the LogSetLocalOperator event.\n     *\n     * @param  operator  The account that is approved or disapproved.\n     * @param  approved  True for approval, false for disapproval.\n     */\n    function setLocalOperator(\n        address operator,\n        bool approved\n    )\n        external\n    {\n        _LOCAL_OPERATORS_[msg.sender][operator] = approved;\n        emit LogSetLocalOperator(msg.sender, operator, approved);\n    }\n}\n",
  "sourcePath": "/Users/dennismacpro/Projects/Defi/Ethereum-Solidity-Collection/icarus-protocol/defi-seeder/.tmp/dydx-protocol/perpetual/contracts/protocol/v1/impl/P1Operator.sol",
  "compiler": {
    "name": "solc",
    "version": "0.5.16+commit.9c3226ce.Linux.g++"
  },
  "schemaVersion": "3.3.4",
  "updatedAt": "2021-04-01T16:42:57.384Z",
  "devdoc": {
    "author": "dYdX",
    "methods": {
      "getAdmin()": {
        "return": "The EIP-1967 proxy admin"
      },
      "setLocalOperator(address,bool)": {
        "details": "Emits the LogSetLocalOperator event.",
        "params": {
          "approved": "True for approval, false for disapproval.",
          "operator": "The account that is approved or disapproved."
        }
      }
    },
    "title": "P1Operator"
  },
  "userdoc": {
    "methods": {
      "setLocalOperator(address,bool)": {
        "notice": "Grants or revokes permission for another account to perform certain actions on behalf of the sender."
      }
    },
    "notice": "Contract for setting local operators for an account."
  }
}