{
  "contractName": "P1Orders",
  "abi": [
    {
      "inputs": [
        {
          "internalType": "address",
          "name": "perpetualV1",
          "type": "address"
        },
        {
          "internalType": "uint256",
          "name": "chainId",
          "type": "uint256"
        }
      ],
      "payable": false,
      "stateMutability": "nonpayable",
      "type": "constructor"
    },
    {
      "anonymous": false,
      "inputs": [
        {
          "indexed": true,
          "internalType": "address",
          "name": "maker",
          "type": "address"
        },
        {
          "indexed": false,
          "internalType": "bytes32",
          "name": "orderHash",
          "type": "bytes32"
        }
      ],
      "name": "LogOrderApproved",
      "type": "event"
    },
    {
      "anonymous": false,
      "inputs": [
        {
          "indexed": true,
          "internalType": "address",
          "name": "maker",
          "type": "address"
        },
        {
          "indexed": false,
          "internalType": "bytes32",
          "name": "orderHash",
          "type": "bytes32"
        }
      ],
      "name": "LogOrderCanceled",
      "type": "event"
    },
    {
      "anonymous": false,
      "inputs": [
        {
          "indexed": false,
          "internalType": "bytes32",
          "name": "orderHash",
          "type": "bytes32"
        },
        {
          "indexed": false,
          "internalType": "bytes32",
          "name": "flags",
          "type": "bytes32"
        },
        {
          "indexed": false,
          "internalType": "uint256",
          "name": "triggerPrice",
          "type": "uint256"
        },
        {
          "components": [
            {
              "internalType": "uint256",
              "name": "amount",
              "type": "uint256"
            },
            {
              "internalType": "uint256",
              "name": "price",
              "type": "uint256"
            },
            {
              "internalType": "uint256",
              "name": "fee",
              "type": "uint256"
            },
            {
              "internalType": "bool",
              "name": "isNegativeFee",
              "type": "bool"
            }
          ],
          "indexed": false,
          "internalType": "struct P1Orders.Fill",
          "name": "fill",
          "type": "tuple"
        }
      ],
      "name": "LogOrderFilled",
      "type": "event"
    },
    {
      "constant": true,
      "inputs": [],
      "name": "_EIP712_DOMAIN_HASH_",
      "outputs": [
        {
          "internalType": "bytes32",
          "name": "",
          "type": "bytes32"
        }
      ],
      "payable": false,
      "stateMutability": "view",
      "type": "function"
    },
    {
      "constant": true,
      "inputs": [
        {
          "internalType": "bytes32",
          "name": "",
          "type": "bytes32"
        }
      ],
      "name": "_FILLED_AMOUNT_",
      "outputs": [
        {
          "internalType": "uint256",
          "name": "",
          "type": "uint256"
        }
      ],
      "payable": false,
      "stateMutability": "view",
      "type": "function"
    },
    {
      "constant": true,
      "inputs": [],
      "name": "_PERPETUAL_V1_",
      "outputs": [
        {
          "internalType": "address",
          "name": "",
          "type": "address"
        }
      ],
      "payable": false,
      "stateMutability": "view",
      "type": "function"
    },
    {
      "constant": true,
      "inputs": [
        {
          "internalType": "bytes32",
          "name": "",
          "type": "bytes32"
        }
      ],
      "name": "_STATUS_",
      "outputs": [
        {
          "internalType": "enum P1Orders.OrderStatus",
          "name": "",
          "type": "uint8"
        }
      ],
      "payable": false,
      "stateMutability": "view",
      "type": "function"
    },
    {
      "constant": false,
      "inputs": [
        {
          "internalType": "address",
          "name": "sender",
          "type": "address"
        },
        {
          "internalType": "address",
          "name": "maker",
          "type": "address"
        },
        {
          "internalType": "address",
          "name": "taker",
          "type": "address"
        },
        {
          "internalType": "uint256",
          "name": "price",
          "type": "uint256"
        },
        {
          "internalType": "bytes",
          "name": "data",
          "type": "bytes"
        },
        {
          "internalType": "bytes32",
          "name": "",
          "type": "bytes32"
        }
      ],
      "name": "trade",
      "outputs": [
        {
          "components": [
            {
              "internalType": "uint256",
              "name": "marginAmount",
              "type": "uint256"
            },
            {
              "internalType": "uint256",
              "name": "positionAmount",
              "type": "uint256"
            },
            {
              "internalType": "bool",
              "name": "isBuy",
              "type": "bool"
            },
            {
              "internalType": "bytes32",
              "name": "traderFlags",
              "type": "bytes32"
            }
          ],
          "internalType": "struct P1Types.TradeResult",
          "name": "",
          "type": "tuple"
        }
      ],
      "payable": false,
      "stateMutability": "nonpayable",
      "type": "function"
    },
    {
      "constant": false,
      "inputs": [
        {
          "components": [
            {
              "internalType": "bytes32",
              "name": "flags",
              "type": "bytes32"
            },
            {
              "internalType": "uint256",
              "name": "amount",
              "type": "uint256"
            },
            {
              "internalType": "uint256",
              "name": "limitPrice",
              "type": "uint256"
            },
            {
              "internalType": "uint256",
              "name": "triggerPrice",
              "type": "uint256"
            },
            {
              "internalType": "uint256",
              "name": "limitFee",
              "type": "uint256"
            },
            {
              "internalType": "address",
              "name": "maker",
              "type": "address"
            },
            {
              "internalType": "address",
              "name": "taker",
              "type": "address"
            },
            {
              "internalType": "uint256",
              "name": "expiration",
              "type": "uint256"
            }
          ],
          "internalType": "struct P1Orders.Order",
          "name": "order",
          "type": "tuple"
        }
      ],
      "name": "approveOrder",
      "outputs": [],
      "payable": false,
      "stateMutability": "nonpayable",
      "type": "function"
    },
    {
      "constant": false,
      "inputs": [
        {
          "components": [
            {
              "internalType": "bytes32",
              "name": "flags",
              "type": "bytes32"
            },
            {
              "internalType": "uint256",
              "name": "amount",
              "type": "uint256"
            },
            {
              "internalType": "uint256",
              "name": "limitPrice",
              "type": "uint256"
            },
            {
              "internalType": "uint256",
              "name": "triggerPrice",
              "type": "uint256"
            },
            {
              "internalType": "uint256",
              "name": "limitFee",
              "type": "uint256"
            },
            {
              "internalType": "address",
              "name": "maker",
              "type": "address"
            },
            {
              "internalType": "address",
              "name": "taker",
              "type": "address"
            },
            {
              "internalType": "uint256",
              "name": "expiration",
              "type": "uint256"
            }
          ],
          "internalType": "struct P1Orders.Order",
          "name": "order",
          "type": "tuple"
        }
      ],
      "name": "cancelOrder",
      "outputs": [],
      "payable": false,
      "stateMutability": "nonpayable",
      "type": "function"
    },
    {
      "constant": true,
      "inputs": [
        {
          "internalType": "bytes32[]",
          "name": "orderHashes",
          "type": "bytes32[]"
        }
      ],
      "name": "getOrdersStatus",
      "outputs": [
        {
          "components": [
            {
              "internalType": "enum P1Orders.OrderStatus",
              "name": "status",
              "type": "uint8"
            },
            {
              "internalType": "uint256",
              "name": "filledAmount",
              "type": "uint256"
            }
          ],
          "internalType": "struct P1Orders.OrderQueryOutput[]",
          "name": "",
          "type": "tuple[]"
        }
      ],
      "payable": false,
      "stateMutability": "view",
      "type": "function"
    }
  ],
  "bytecode": "0x60806040523480156200001157600080fd5b506040516200271a3803806200271a833981016040819052620000349162000145565b600080546001600160a01b0319166001600160a01b0384161790556040516200006090602001620002aa565b60408051601f1981840301815282825280516020918201208383018352600884526750314f726465727360c01b938201939093528151808301835260038152620312e360ec1b9082015290516200010192917fa158a5339131788e3aca6a19d29e24b109bb548949d45296cd531bbe8e7565d1917fe6bbd6277e1bf288eed5e8d1780f9a50b239e86b153736bceebccf4ea79d90b3918691309101620002f8565b60405160208183030381529060405280519060200120600181905550505062000394565b805162000132816200036f565b92915050565b8051620001328162000389565b600080604083850312156200015957600080fd5b600062000167858562000125565b92505060206200017a8582860162000138565b9150509250929050565b6200018f8162000353565b82525050565b6200018f8162000360565b6000620001af600c836200034e565b6b1cdd1c9a5b99c81b985b594b60a21b8152600c0192915050565b6000620001d96019836200034e565b7f6164647265737320766572696679696e67436f6e747261637400000000000000815260190192915050565b6000620002146010836200034e565b6f1d5a5b9d0c8d4d8818da185a5b92590b60821b815260100192915050565b6000620002426001836200034e565b602960f81b815260010192915050565b600062000261600f836200034e565b6e1cdd1c9a5b99c81d995c9cda5bdb8b608a1b8152600f0192915050565b60006200028e600d836200034e565b6c08a92a06e626488dedac2d2dc5609b1b8152600d0192915050565b6000620002b7826200027f565b9150620002c482620001a0565b9150620002d18262000252565b9150620002de8262000205565b9150620002eb82620001ca565b9150620001328262000233565b60a0810162000308828862000195565b62000317602083018762000195565b62000326604083018662000195565b62000335606083018562000195565b62000344608083018462000184565b9695505050505050565b919050565b6000620001328262000363565b90565b6001600160a01b031690565b6200037a8162000353565b81146200038657600080fd5b50565b6200037a8162000360565b61237680620003a46000396000f3fe608060405234801561001057600080fd5b50600436106100885760003560e01c80639ea070711161005b5780639ea07071146100fe578063aacc263e1461011e578063c7dc03f91461013e578063d4bec8eb1461014657610088565b80635c457f291461008d5780637946c890146100b6578063867f1690146100cb578063970c2ba1146100de575b600080fd5b6100a061009b36600461150c565b61015b565b6040516100ad9190612006565b60405180910390f35b6100c96100c4366004611548565b61016d565b005b6100c96100d9366004611548565b610261565b6100f16100ec366004611407565b610377565b6040516100ad91906121d2565b61011161010c36600461150c565b610677565b6040516100ad91906120a3565b61013161012c3660046114ac565b61068c565b6040516100ad9190611ff5565b6100a061075f565b61014e610765565b6040516100ad9190611fcc565b60026020526000908152604090205481565b61017d60c0820160a083016113e1565b73ffffffffffffffffffffffffffffffffffffffff163373ffffffffffffffffffffffffffffffffffffffff16146101d05760405162461bcd60e51b81526004016101c790612172565b60405180910390fd5b60006101e96101e436849003840184611567565b610781565b6000818152600360205260409081902080547fffffffffffffffffffffffffffffffffffffffffffffffffffffffffffffff001660021790555190915033907f4117a4c82505f7102c183e1fb9daa8f8e06d56d6af04479fc417fa8c0490289390610255908490612006565b60405180910390a25050565b61027160c0820160a083016113e1565b73ffffffffffffffffffffffffffffffffffffffff163373ffffffffffffffffffffffffffffffffffffffff16146102bb5760405162461bcd60e51b81526004016101c790612112565b60006102cf6101e436849003840184611567565b9050600260008281526003602052604090205460ff1660028111156102f057fe5b141561030e5760405162461bcd60e51b81526004016101c790612192565b6000818152600360205260409081902080547fffffffffffffffffffffffffffffffffffffffffffffffffffffffffffffff001660011790555133907fbd06df5febc1b0cd2e8ba37a6bb524ae77524c4aa2dc5e0f5ac64f5d11a50b1b90610255908490612006565b61037f610f8d565b60005473ffffffffffffffffffffffffffffffffffffffff163381146103b75760405162461bcd60e51b81526004016101c7906121c2565b8873ffffffffffffffffffffffffffffffffffffffff168773ffffffffffffffffffffffffffffffffffffffff16146104aa576040517f84ea286200000000000000000000000000000000000000000000000000000000815273ffffffffffffffffffffffffffffffffffffffff8216906384ea28629061043e908a908d90600401611fda565b60206040518083038186803b15801561045657600080fd5b505afa15801561046a573d6000803e3d6000fd5b505050506040513d601f19601f8201168201806040525061048e91908101906114ee565b6104aa5760405162461bcd60e51b81526004016101c7906120c2565b6104b2610fb4565b6104be85870187611586565b905060006104cf8260000151610781565b90506104db8282610845565b6104e8828b8b868c610915565b6000818152600260209081526040822054908401515190919061051290839063ffffffff610c4d16565b84516020015190915081111561053a5760405162461bcd60e51b81526004016101c7906121a2565b600083815260026020908152604091829020839055855180516060909101519187015192517f5760b5a80923536b02524ebe3b1f92cc973195ac25559c60564e8db9e02d15ad9361059093889392909190612014565b60405180910390a160006105bd856020015160200151866020015160400151610c7990919063ffffffff16565b905060006105ce8660000151610ca3565b905060008660200151606001511515821515146106025760208088015101516105fd908463ffffffff610c4d16565b61061a565b602080880151015161061a908463ffffffff610cac16565b90506040518060800160405280610642838a6020015160000151610c7990919063ffffffff16565b815260209889015151988101989098529115604088015250600160609096019590955250929c9b505050505050505050505050565b60036020526000908152604090205460ff1681565b606080838390506040519080825280602002602001820160405280156106cc57816020015b6106b9610fe6565b8152602001906001900390816106b15790505b50905060005b838110156107555760008585838181106106e857fe5b604080518082018252602092830294909401356000818152600390935291205490935082915060ff16600281111561071c57fe5b8152600083815260026020908152604090912054910152835184908490811061074157fe5b6020908102919091010152506001016106d2565b5090505b92915050565b60015481565b60005473ffffffffffffffffffffffffffffffffffffffff1681565b60008060405160200161079390611f5e565b60405160208183030381529060405280519060200120836040516020016107bb929190612052565b604080517fffffffffffffffffffffffffffffffffffffffffffffffffffffffffffffffe0818403018152908290528051602091820120600154909350610826927f190100000000000000000000000000000000000000000000000000000000000092859101611f05565b604051602081830303815290604052805190602001209150505b919050565b60008181526003602052604081205460ff169081600281111561086457fe5b14156108cf57610878828460400151610cee565b73ffffffffffffffffffffffffffffffffffffffff16836000015160a0015173ffffffffffffffffffffffffffffffffffffffff16146108ca5760405162461bcd60e51b81526004016101c790612142565b610910565b60028160028111156108dd57fe5b14156108fb5760405162461bcd60e51b81526004016101c790612122565b600181600281111561090957fe5b1461091057fe5b505050565b8373ffffffffffffffffffffffffffffffffffffffff16856000015160a0015173ffffffffffffffffffffffffffffffffffffffff16146109685760405162461bcd60e51b81526004016101c7906120f2565b8273ffffffffffffffffffffffffffffffffffffffff16856000015160c0015173ffffffffffffffffffffffffffffffffffffffff1614806109c35750845160c0015173ffffffffffffffffffffffffffffffffffffffff16155b6109df5760405162461bcd60e51b81526004016101c7906121b2565b845160e00151421115806109f65750845160e00151155b610a125760405162461bcd60e51b81526004016101c790612152565b6000610a218660000151610ca3565b9050600081610a3f5786516040015160208089015101511015610a50565b865160400151602080890151015111155b905080610a6f5760405162461bcd60e51b81526004016101c790612182565b6000610a7e8860000151610e9c565b610aa85787602001516060015180610aa3575087516080015160208901516040015111155b610aca565b8760200151606001518015610aca575087516080015160208901516040015110155b905080610ae95760405162461bcd60e51b81526004016101c7906120d2565b87516060015115610b3457600083610b0957885160600151851115610b13565b8851606001518510155b905080610b325760405162461bcd60e51b81526004016101c790612162565b505b8751610b3f90610ea5565b15610c4357610b4c610f8d565b6040517f93423e9c00000000000000000000000000000000000000000000000000000000815273ffffffffffffffffffffffffffffffffffffffff8716906393423e9c90610b9e908b90600401611fcc565b60806040518083038186803b158015610bb657600080fd5b505afa158015610bca573d6000803e3d6000fd5b505050506040513d601f19601f82011682018060405250610bee919081019061152a565b90508060200151151584151514158015610c25575080606001516effffffffffffffffffffffffffffff1689602001516000015111155b610c415760405162461bcd60e51b81526004016101c7906120e2565b505b5050505050505050565b600082820183811015610c725760405162461bcd60e51b81526004016101c790612102565b9392505050565b6000610c72670de0b6b3a7640000610c97858563ffffffff610eae16565b9063ffffffff610ee816565b51600116151590565b6000610c7283836040518060400160405280601e81526020017f536166654d6174683a207375627472616374696f6e206f766572666c6f770000815250610f2a565b6040810151600090819060f01c60ff166003811115610d0957fe5b9050600080826003811115610d1a57fe5b1415610d27575083610e16565b6001826003811115610d3557fe5b1415610da0576040518060400160405280601c81526020017f19457468657265756d205369676e6564204d6573736167653a0a33320000000081525085604051602001610d83929190611f3c565b604051602081830303815290604052805190602001209050610e16565b6002826003811115610dae57fe5b14610db557fe5b6040518060400160405280601b81526020017f19457468657265756d205369676e6564204d6573736167653a0a20000000000081525085604051602001610dfd929190611f3c565b6040516020818303038152906040528051906020012090505b600181856040015160f81c8660000151876020015160405160008152602001604052604051610e48949392919061206e565b6020604051602081039080840390855afa158015610e6a573d6000803e3d6000fd5b50506040517fffffffffffffffffffffffffffffffffffffffffffffffffffffffffffffffe001519695505050505050565b51600416151590565b51600216151590565b600082610ebd57506000610759565b82820282848281610eca57fe5b0414610c725760405162461bcd60e51b81526004016101c790612132565b6000610c7283836040518060400160405280601a81526020017f536166654d6174683a206469766973696f6e206279207a65726f000000000000815250610f56565b60008184841115610f4e5760405162461bcd60e51b81526004016101c791906120b1565b505050900390565b60008183610f775760405162461bcd60e51b81526004016101c791906120b1565b506000838581610f8357fe5b0495945050505050565b60408051608081018252600080825260208201819052918101829052606081019190915290565b6040518060600160405280610fc7610ffd565b8152602001610fd4611071565b8152602001610fe161109b565b905290565b604080518082019091526000808252602082015290565b6040518061010001604052806000801916815260200160008152602001600081526020016000815260200160008152602001600073ffffffffffffffffffffffffffffffffffffffff168152602001600073ffffffffffffffffffffffffffffffffffffffff168152602001600081525090565b60405180608001604052806000815260200160008152602001600081526020016000151581525090565b604080516060810182526000808252602082018190529181019190915290565b8035610759816122fb565b60008083601f8401126110d857600080fd5b50813567ffffffffffffffff8111156110f057600080fd5b60208301915083602082028301111561110857600080fd5b9250929050565b80356107598161230f565b80516107598161230f565b803561075981612318565b803561075981612321565b60008083601f84011261114d57600080fd5b50813567ffffffffffffffff81111561116557600080fd5b60208301915083600182028301111561110857600080fd5b60006080828403121561118f57600080fd5b61119960806121e0565b905060006111a7848461111a565b82525060206111b88484830161111a565b60208301525060406111cc848285016113d6565b60408301525060606111e0848285016113d6565b60608301525092915050565b6000608082840312156111fe57600080fd5b61120860806121e0565b905060006112168484611130565b825250602061122784848301611130565b602083015250604061123b84828501611130565b60408301525060606111e08482850161110f565b6000610100828403121561126257600080fd5b50919050565b6000610100828403121561127b57600080fd5b6112866101006121e0565b905060006112948484611130565b82525060206112a584848301611130565b60208301525060406112b984828501611130565b60408301525060606112cd84828501611130565b60608301525060806112e184828501611130565b60808301525060a06112f5848285016110bb565b60a08301525060c0611309848285016110bb565b60c08301525060e061131d84828501611130565b60e08301525092915050565b60006060828403121561133b57600080fd5b61134560606121e0565b905060006113538484611130565b825250602061136484848301611130565b602083015250604061137884828501611125565b60408301525092915050565b60006101e0828403121561139757600080fd5b6113a160606121e0565b905060006113af8484611268565b8252506101006113c1848483016111ec565b60208301525061018061137884828501611329565b80516107598161232a565b6000602082840312156113f357600080fd5b60006113ff84846110bb565b949350505050565b600080600080600080600060c0888a03121561142257600080fd5b600061142e8a8a6110bb565b975050602061143f8a828b016110bb565b96505060406114508a828b016110bb565b95505060606114618a828b01611130565b945050608088013567ffffffffffffffff81111561147e57600080fd5b61148a8a828b0161113b565b935093505060a061149d8a828b01611130565b91505092959891949750929550565b600080602083850312156114bf57600080fd5b823567ffffffffffffffff8111156114d657600080fd5b6114e2858286016110c6565b92509250509250929050565b60006020828403121561150057600080fd5b60006113ff848461111a565b60006020828403121561151e57600080fd5b60006113ff8484611130565b60006080828403121561153c57600080fd5b60006113ff848461117d565b6000610100828403121561155b57600080fd5b60006113ff848461124f565b6000610100828403121561157a57600080fd5b60006113ff8484611268565b60006101e0828403121561159957600080fd5b60006113ff8484611384565b60006115b18383611df7565b505060400190565b6115c28161221a565b82525050565b60006115d38261220d565b6115dd8185612211565b93506115e883612207565b8060005b8381101561161657815161160088826115a5565b975061160b83612207565b9250506001016115ec565b509495945050505050565b6115c281612225565b6115c26116368261222a565b61224f565b6115c28161224f565b6115c26116368261224f565b600061165b8261220d565b6116658185610840565b935061167581856020860161229a565b9290920192915050565b6115c28161228f565b60006116938261220d565b61169d8185612211565b93506116ad81856020860161229a565b6116b6816122c6565b9093019392505050565b60006116cd602e83612211565b7f53656e64657220646f6573206e6f742068617665207065726d697373696f6e7381527f20666f72207468652074616b6572000000000000000000000000000000000000602082015260400192915050565b600061172c601383612211565b7f46696c6c2066656520697320696e76616c696400000000000000000000000000815260200192915050565b6000611765601f83612211565b7f46696c6c20646f6573206e6f7420646563726561736520706f736974696f6e00815260200192915050565b600061179e600f83610840565b7f75696e7432353620616d6f756e742c00000000000000000000000000000000008152600f0192915050565b60006117d7602083612211565b7f4f72646572206d616b657220646f6573206e6f74206d61746368206d616b6572815260200192915050565b6000611810600683610840565b7f4f72646572280000000000000000000000000000000000000000000000000000815260060192915050565b6000611849601b83612211565b7f536166654d6174683a206164646974696f6e206f766572666c6f770000000000815260200192915050565b6000611882601583610840565b7f75696e74323536207472696767657250726963652c0000000000000000000000815260150192915050565b60006118bb600183610840565b7f2900000000000000000000000000000000000000000000000000000000000000815260010192915050565b60006118f4602583612211565b7f4f726465722063616e6e6f7420626520617070726f766564206279206e6f6e2d81527f6d616b6572000000000000000000000000000000000000000000000000000000602082015260400192915050565b6000611953600e83610840565b7f6279746573333220666c6167732c0000000000000000000000000000000000008152600e0192915050565b600061198c601a83612211565b7f4f726465722077617320616c72656164792063616e63656c6564000000000000815260200192915050565b60006119c5602183612211565b7f536166654d6174683a206d756c7469706c69636174696f6e206f766572666c6f81527f7700000000000000000000000000000000000000000000000000000000000000602082015260400192915050565b6000611a24601383610840565b7f75696e74323536206c696d697450726963652c00000000000000000000000000815260130192915050565b6000611a5d600e83610840565b7f616464726573732074616b65722c0000000000000000000000000000000000008152600e0192915050565b6000611a96600e83610840565b7f61646472657373206d616b65722c0000000000000000000000000000000000008152600e0192915050565b6000611acf601e83612211565b7f4f726465722068617320616e20696e76616c6964207369676e61747572650000815260200192915050565b6000611b08601183612211565b7f4f72646572206861732065787069726564000000000000000000000000000000815260200192915050565b6000611b41602283612211565b7f5472696767657220707269636520686173206e6f74206265656e20726561636881527f6564000000000000000000000000000000000000000000000000000000000000602082015260400192915050565b6000611ba0601283610840565b7f75696e743235362065787069726174696f6e0000000000000000000000000000815260120192915050565b6000611bd9602583612211565b7f4f726465722063616e6e6f742062652063616e63656c6564206279206e6f6e2d81527f6d616b6572000000000000000000000000000000000000000000000000000000602082015260400192915050565b6000611c38601583612211565b7f46696c6c20707269636520697320696e76616c69640000000000000000000000815260200192915050565b6000611c71602183612211565b7f43616e63656c6564206f726465722063616e6e6f7420626520617070726f766581527f6400000000000000000000000000000000000000000000000000000000000000602082015260400192915050565b6000611cd0601583612211565b7f43616e6e6f74206f76657266696c6c206f726465720000000000000000000000815260200192915050565b6000611d09602083612211565b7f4f726465722074616b657220646f6573206e6f74206d617463682074616b6572815260200192915050565b6000611d42601183610840565b7f75696e74323536206c696d69744665652c000000000000000000000000000000815260110192915050565b6000611d7b601e83612211565b7f6d73672e73656e646572206d7573742062652050657270657475616c56310000815260200192915050565b80516080830190611db8848261163b565b506020820151611dcb602085018261163b565b506040820151611dde604085018261163b565b506060820151611df16060850182611621565b50505050565b80516040830190611e08848261167f565b506020820151611df1602085018261163b565b8051610100830190611e2d848261163b565b506020820151611e40602085018261163b565b506040820151611e53604085018261163b565b506060820151611e66606085018261163b565b506080820151611e79608085018261163b565b5060a0820151611e8c60a08501826115b9565b5060c0820151611e9f60c08501826115b9565b5060e0820151611df160e085018261163b565b80516080830190611ec3848261163b565b506020820151611ed6602085018261163b565b506040820151611ee96040850182611621565b506060820151611df1606085018261163b565b6115c281612289565b6000611f11828661162a565b600282019150611f218285611644565b602082019150611f318284611644565b506020019392505050565b6000611f488285611650565b9150611f548284611644565b5060200192915050565b6000611f6982611803565b9150611f7482611946565b9150611f7f82611791565b9150611f8a82611a17565b9150611f9582611875565b9150611fa082611d35565b9150611fab82611a89565b9150611fb682611a50565b9150611fc182611b93565b9150610759826118ae565b6020810161075982846115b9565b60408101611fe882856115b9565b610c7260208301846115b9565b60208082528101610c7281846115c8565b60208101610759828461163b565b60e08101612022828761163b565b61202f602083018661163b565b61203c604083018561163b565b6120496060830184611da7565b95945050505050565b6101208101612061828561163b565b610c726020830184611e1b565b6080810161207c828761163b565b6120896020830186611efc565b612096604083018561163b565b612049606083018461163b565b60208101610759828461167f565b60208082528101610c728184611688565b60208082528101610759816116c0565b602080825281016107598161171f565b6020808252810161075981611758565b60208082528101610759816117ca565b602080825281016107598161183c565b60208082528101610759816118e7565b602080825281016107598161197f565b60208082528101610759816119b8565b6020808252810161075981611ac2565b6020808252810161075981611afb565b6020808252810161075981611b34565b6020808252810161075981611bcc565b6020808252810161075981611c2b565b6020808252810161075981611c64565b6020808252810161075981611cc3565b6020808252810161075981611cfc565b6020808252810161075981611d6e565b608081016107598284611eb2565b60405181810167ffffffffffffffff811182821017156121ff57600080fd5b604052919050565b60200190565b5190565b90815260200190565b600061075982612270565b151590565b7fffff0000000000000000000000000000000000000000000000000000000000001690565b90565b80610840816122ee565b6effffffffffffffffffffffffffffff1690565b73ffffffffffffffffffffffffffffffffffffffff1690565b60ff1690565b600061075982612252565b60005b838110156122b557818101518382015260200161229d565b83811115611df15750506000910152565b601f017fffffffffffffffffffffffffffffffffffffffffffffffffffffffffffffffe01690565b600381106122f857fe5b50565b6123048161221a565b81146122f857600080fd5b61230481612225565b6123048161222a565b6123048161224f565b6123048161225c56fea365627a7a723158202661dddc4ef39e395b9c395103dbc232daeeb7f0a4337d999014f6c9cd10ef276c6578706572696d656e74616cf564736f6c63430005100040",
  "source": "/*\n\n    Copyright 2020 dYdX Trading Inc.\n\n    Licensed under the Apache License, Version 2.0 (the \"License\");\n    you may not use this file except in compliance with the License.\n    You may obtain a copy of the License at\n\n    http://www.apache.org/licenses/LICENSE-2.0\n\n    Unless required by applicable law or agreed to in writing, software\n    distributed under the License is distributed on an \"AS IS\" BASIS,\n    WITHOUT WARRANTIES OR CONDITIONS OF ANY KIND, either express or implied.\n    See the License for the specific language governing permissions and\n    limitations under the License.\n\n*/\n\npragma solidity 0.5.16;\npragma experimental ABIEncoderV2;\n\nimport { SafeMath } from \"@openzeppelin/contracts/math/SafeMath.sol\";\nimport { P1TraderConstants } from \"./P1TraderConstants.sol\";\nimport { BaseMath } from \"../../lib/BaseMath.sol\";\nimport { TypedSignature } from \"../../lib/TypedSignature.sol\";\nimport { P1Getters } from \"../impl/P1Getters.sol\";\nimport { P1Types } from \"../lib/P1Types.sol\";\n\n\n/**\n * @title P1Orders\n * @author dYdX\n *\n * @notice Contract allowing trading between accounts using cryptographically signed messages.\n */\ncontract P1Orders is\n    P1TraderConstants\n{\n    using BaseMath for uint256;\n    using SafeMath for uint256;\n\n    // ============ Constants ============\n\n    // EIP191 header for EIP712 prefix\n    bytes2 constant private EIP191_HEADER = 0x1901;\n\n    // EIP712 Domain Name value\n    string constant private EIP712_DOMAIN_NAME = \"P1Orders\";\n\n    // EIP712 Domain Version value\n    string constant private EIP712_DOMAIN_VERSION = \"1.0\";\n\n    // Hash of the EIP712 Domain Separator Schema\n    /* solium-disable-next-line indentation */\n    bytes32 constant private EIP712_DOMAIN_SEPARATOR_SCHEMA_HASH = keccak256(abi.encodePacked(\n        \"EIP712Domain(\",\n        \"string name,\",\n        \"string version,\",\n        \"uint256 chainId,\",\n        \"address verifyingContract\",\n        \")\"\n    ));\n\n    // Hash of the EIP712 LimitOrder struct\n    /* solium-disable-next-line indentation */\n    bytes32 constant private EIP712_ORDER_STRUCT_SCHEMA_HASH = keccak256(abi.encodePacked(\n        \"Order(\",\n        \"bytes32 flags,\",\n        \"uint256 amount,\",\n        \"uint256 limitPrice,\",\n        \"uint256 triggerPrice,\",\n        \"uint256 limitFee,\",\n        \"address maker,\",\n        \"address taker,\",\n        \"uint256 expiration\",\n        \")\"\n    ));\n\n    // Bitmasks for the flags field\n    bytes32 constant FLAG_MASK_NULL = bytes32(uint256(0));\n    bytes32 constant FLAG_MASK_IS_BUY = bytes32(uint256(1));\n    bytes32 constant FLAG_MASK_IS_DECREASE_ONLY = bytes32(uint256(1 << 1));\n    bytes32 constant FLAG_MASK_IS_NEGATIVE_LIMIT_FEE = bytes32(uint256(1 << 2));\n\n    // ============ Enums ============\n\n    enum OrderStatus {\n        Open,\n        Approved,\n        Canceled\n    }\n\n    // ============ Structs ============\n\n    struct Order {\n        bytes32 flags;\n        uint256 amount;\n        uint256 limitPrice;\n        uint256 triggerPrice;\n        uint256 limitFee;\n        address maker;\n        address taker;\n        uint256 expiration;\n    }\n\n    struct Fill {\n        uint256 amount;\n        uint256 price;\n        uint256 fee;\n        bool isNegativeFee;\n    }\n\n    struct TradeData {\n        Order order;\n        Fill fill;\n        TypedSignature.Signature signature;\n    }\n\n    struct OrderQueryOutput {\n        OrderStatus status;\n        uint256 filledAmount;\n    }\n\n    // ============ Events ============\n\n    event LogOrderCanceled(\n        address indexed maker,\n        bytes32 orderHash\n    );\n\n    event LogOrderApproved(\n        address indexed maker,\n        bytes32 orderHash\n    );\n\n    event LogOrderFilled(\n        bytes32 orderHash,\n        bytes32 flags,\n        uint256 triggerPrice,\n        Fill fill\n    );\n\n    // ============ Immutable Storage ============\n\n    // address of the perpetual contract\n    address public _PERPETUAL_V1_;\n\n    // Hash of the EIP712 Domain Separator data\n    bytes32 public _EIP712_DOMAIN_HASH_;\n\n    // ============ Mutable Storage ============\n\n    // order hash => filled amount (in position amount)\n    mapping (bytes32 => uint256) public _FILLED_AMOUNT_;\n\n    // order hash => status\n    mapping (bytes32 => OrderStatus) public _STATUS_;\n\n    // ============ Constructor ============\n\n    constructor (\n        address perpetualV1,\n        uint256 chainId\n    )\n        public\n    {\n        _PERPETUAL_V1_ = perpetualV1;\n\n        /* solium-disable-next-line indentation */\n        _EIP712_DOMAIN_HASH_ = keccak256(abi.encode(\n            EIP712_DOMAIN_SEPARATOR_SCHEMA_HASH,\n            keccak256(bytes(EIP712_DOMAIN_NAME)),\n            keccak256(bytes(EIP712_DOMAIN_VERSION)),\n            chainId,\n            address(this)\n        ));\n    }\n\n    // ============ External Functions ============\n\n    /**\n     * @notice Allows an account to take an order cryptographically signed by a different account.\n     * @dev Emits the LogOrderFilled event.\n     *\n     * @param  sender  The address that called the trade() function on PerpetualV1.\n     * @param  maker   The maker of the order.\n     * @param  taker   The taker of the order.\n     * @param  price   The current oracle price of the underlying asset.\n     * @param  data    A struct of type TradeData.\n     * @return         The assets to be traded and traderFlags that indicate that a trade occurred.\n     */\n    function trade(\n        address sender,\n        address maker,\n        address taker,\n        uint256 price,\n        bytes calldata data,\n        bytes32 /* traderFlags */\n    )\n        external\n        returns (P1Types.TradeResult memory)\n    {\n        address perpetual = _PERPETUAL_V1_;\n\n        require(\n            msg.sender == perpetual,\n            \"msg.sender must be PerpetualV1\"\n        );\n\n        if (taker != sender) {\n            require(\n                P1Getters(perpetual).hasAccountPermissions(taker, sender),\n                \"Sender does not have permissions for the taker\"\n            );\n        }\n\n        TradeData memory tradeData = abi.decode(data, (TradeData));\n        bytes32 orderHash = _getOrderHash(tradeData.order);\n\n        // validations\n        _verifyOrderStateAndSignature(\n            tradeData,\n            orderHash\n        );\n        _verifyOrderRequest(\n            tradeData,\n            maker,\n            taker,\n            perpetual,\n            price\n        );\n\n        // set _FILLED_AMOUNT_\n        uint256 oldFilledAmount = _FILLED_AMOUNT_[orderHash];\n        uint256 newFilledAmount = oldFilledAmount.add(tradeData.fill.amount);\n        require(\n            newFilledAmount <= tradeData.order.amount,\n            \"Cannot overfill order\"\n        );\n        _FILLED_AMOUNT_[orderHash] = newFilledAmount;\n\n        emit LogOrderFilled(\n            orderHash,\n            tradeData.order.flags,\n            tradeData.order.triggerPrice,\n            tradeData.fill\n        );\n\n        // Order fee is denoted as a percentage of execution price.\n        // Convert into an amount per unit position.\n        uint256 fee = tradeData.fill.fee.baseMul(tradeData.fill.price);\n\n        // `isBuyOrder` is from the maker's perspective.\n        bool isBuyOrder = _isBuy(tradeData.order);\n        uint256 marginPerPosition = (isBuyOrder == tradeData.fill.isNegativeFee)\n            ? tradeData.fill.price.sub(fee)\n            : tradeData.fill.price.add(fee);\n\n        return P1Types.TradeResult({\n            marginAmount: tradeData.fill.amount.baseMul(marginPerPosition),\n            positionAmount: tradeData.fill.amount,\n            isBuy: !isBuyOrder,\n            traderFlags: TRADER_FLAG_ORDERS\n        });\n    }\n\n    /**\n     * @notice On-chain approves an order.\n     * @dev Emits the LogOrderApproved event.\n     *\n     * @param  order  The order that will be approved.\n     */\n    function approveOrder(\n        Order calldata order\n    )\n        external\n    {\n        require(\n            msg.sender == order.maker,\n            \"Order cannot be approved by non-maker\"\n        );\n        bytes32 orderHash = _getOrderHash(order);\n        require(\n            _STATUS_[orderHash] != OrderStatus.Canceled,\n            \"Canceled order cannot be approved\"\n        );\n        _STATUS_[orderHash] = OrderStatus.Approved;\n        emit LogOrderApproved(msg.sender, orderHash);\n    }\n\n    /**\n     * @notice On-chain cancels an order.\n     * @dev Emits the LogOrderCanceled event.\n     *\n     * @param  order  The order that will be permanently canceled.\n     */\n    function cancelOrder(\n        Order calldata order\n    )\n        external\n    {\n        require(\n            msg.sender == order.maker,\n            \"Order cannot be canceled by non-maker\"\n        );\n        bytes32 orderHash = _getOrderHash(order);\n        _STATUS_[orderHash] = OrderStatus.Canceled;\n        emit LogOrderCanceled(msg.sender, orderHash);\n    }\n\n    // ============ Getter Functions ============\n\n    /**\n     * @notice Gets the status (open/approved/canceled) and filled amount of each order in a list.\n     *\n     * @param  orderHashes  A list of the hashes of the orders to check.\n     * @return              A list of OrderQueryOutput structs containing the status and filled\n     *                      amount of each order.\n     */\n    function getOrdersStatus(\n        bytes32[] calldata orderHashes\n    )\n        external\n        view\n        returns (OrderQueryOutput[] memory)\n    {\n        OrderQueryOutput[] memory result = new OrderQueryOutput[](orderHashes.length);\n        for (uint256 i = 0; i < orderHashes.length; i++) {\n            bytes32 orderHash = orderHashes[i];\n            result[i] = OrderQueryOutput({\n                status: _STATUS_[orderHash],\n                filledAmount: _FILLED_AMOUNT_[orderHash]\n            });\n        }\n        return result;\n    }\n\n    // ============ Helper Functions ============\n\n    function _verifyOrderStateAndSignature(\n        TradeData memory tradeData,\n        bytes32 orderHash\n    )\n        private\n        view\n    {\n        OrderStatus orderStatus = _STATUS_[orderHash];\n\n        if (orderStatus == OrderStatus.Open) {\n            require(\n                tradeData.order.maker == TypedSignature.recover(orderHash, tradeData.signature),\n                \"Order has an invalid signature\"\n            );\n        } else {\n            require(\n                orderStatus != OrderStatus.Canceled,\n                \"Order was already canceled\"\n            );\n            assert(orderStatus == OrderStatus.Approved);\n        }\n    }\n\n    function _verifyOrderRequest(\n        TradeData memory tradeData,\n        address maker,\n        address taker,\n        address perpetual,\n        uint256 price\n    )\n        private\n        view\n    {\n        require(\n            tradeData.order.maker == maker,\n            \"Order maker does not match maker\"\n        );\n        require(\n            tradeData.order.taker == taker || tradeData.order.taker == address(0),\n            \"Order taker does not match taker\"\n        );\n        require(\n            tradeData.order.expiration >= block.timestamp || tradeData.order.expiration == 0,\n            \"Order has expired\"\n        );\n\n        // `isBuyOrder` is from the maker's perspective.\n        bool isBuyOrder = _isBuy(tradeData.order);\n        bool validPrice = isBuyOrder\n            ? tradeData.fill.price <= tradeData.order.limitPrice\n            : tradeData.fill.price >= tradeData.order.limitPrice;\n        require(\n            validPrice,\n            \"Fill price is invalid\"\n        );\n\n        bool validFee = _isNegativeLimitFee(tradeData.order)\n            ? tradeData.fill.isNegativeFee && tradeData.fill.fee >= tradeData.order.limitFee\n            : tradeData.fill.isNegativeFee || tradeData.fill.fee <= tradeData.order.limitFee;\n        require(\n            validFee,\n            \"Fill fee is invalid\"\n        );\n\n        if (tradeData.order.triggerPrice != 0) {\n            bool validTriggerPrice = isBuyOrder\n                ? tradeData.order.triggerPrice <= price\n                : tradeData.order.triggerPrice >= price;\n            require(\n                validTriggerPrice,\n                \"Trigger price has not been reached\"\n            );\n        }\n\n        if (_isDecreaseOnly(tradeData.order)) {\n            P1Types.Balance memory balance = P1Getters(perpetual).getAccountBalance(maker);\n            require(\n                isBuyOrder != balance.positionIsPositive\n                && tradeData.fill.amount <= balance.position,\n                \"Fill does not decrease position\"\n            );\n        }\n    }\n\n    /**\n     * @dev Returns the EIP712 hash of an order.\n     */\n    function _getOrderHash(\n        Order memory order\n    )\n        private\n        view\n        returns (bytes32)\n    {\n        // compute the overall signed struct hash\n        /* solium-disable-next-line indentation */\n        bytes32 structHash = keccak256(abi.encode(\n            EIP712_ORDER_STRUCT_SCHEMA_HASH,\n            order\n        ));\n\n        // compute eip712 compliant hash\n        /* solium-disable-next-line indentation */\n        return keccak256(abi.encodePacked(\n            EIP191_HEADER,\n            _EIP712_DOMAIN_HASH_,\n            structHash\n        ));\n    }\n\n    function _isBuy(\n        Order memory order\n    )\n        private\n        pure\n        returns (bool)\n    {\n        return (order.flags & FLAG_MASK_IS_BUY) != FLAG_MASK_NULL;\n    }\n\n    function _isDecreaseOnly(\n        Order memory order\n    )\n        private\n        pure\n        returns (bool)\n    {\n        return (order.flags & FLAG_MASK_IS_DECREASE_ONLY) != FLAG_MASK_NULL;\n    }\n\n    function _isNegativeLimitFee(\n        Order memory order\n    )\n        private\n        pure\n        returns (bool)\n    {\n        return (order.flags & FLAG_MASK_IS_NEGATIVE_LIMIT_FEE) != FLAG_MASK_NULL;\n    }\n}\n",
  "sourcePath": "/Users/dennismacpro/Projects/Defi/Ethereum-Solidity-Collection/icarus-protocol/defi-seeder/.tmp/dydx-protocol/perpetual/contracts/protocol/v1/traders/P1Orders.sol",
  "compiler": {
    "name": "solc",
    "version": "0.5.16+commit.9c3226ce.Linux.g++"
  },
  "schemaVersion": "3.3.4",
  "updatedAt": "2021-04-01T16:42:57.471Z",
  "devdoc": {
    "author": "dYdX",
    "methods": {
      "approveOrder((bytes32,uint256,uint256,uint256,uint256,address,address,uint256))": {
        "details": "Emits the LogOrderApproved event.",
        "params": {
          "order": "The order that will be approved."
        }
      },
      "cancelOrder((bytes32,uint256,uint256,uint256,uint256,address,address,uint256))": {
        "details": "Emits the LogOrderCanceled event.",
        "params": {
          "order": "The order that will be permanently canceled."
        }
      },
      "getOrdersStatus(bytes32[])": {
        "params": {
          "orderHashes": "A list of the hashes of the orders to check."
        },
        "return": "A list of OrderQueryOutput structs containing the status and filled                     amount of each order."
      },
      "trade(address,address,address,uint256,bytes,bytes32)": {
        "details": "Emits the LogOrderFilled event.",
        "params": {
          "data": "A struct of type TradeData.",
          "maker": "The maker of the order.",
          "price": "The current oracle price of the underlying asset.",
          "sender": "The address that called the trade() function on PerpetualV1.",
          "taker": "The taker of the order."
        },
        "return": "The assets to be traded and traderFlags that indicate that a trade occurred."
      }
    },
    "title": "P1Orders"
  },
  "userdoc": {
    "methods": {
      "approveOrder((bytes32,uint256,uint256,uint256,uint256,address,address,uint256))": {
        "notice": "On-chain approves an order."
      },
      "cancelOrder((bytes32,uint256,uint256,uint256,uint256,address,address,uint256))": {
        "notice": "On-chain cancels an order."
      },
      "getOrdersStatus(bytes32[])": {
        "notice": "Gets the status (open/approved/canceled) and filled amount of each order in a list."
      },
      "trade(address,address,address,uint256,bytes,bytes32)": {
        "notice": "Allows an account to take an order cryptographically signed by a different account."
      }
    },
    "notice": "Contract allowing trading between accounts using cryptographically signed messages."
  }
}