{
  "contractName": "P1OracleInverter",
  "abi": [
    {
      "inputs": [
        {
          "internalType": "address",
          "name": "oracle",
          "type": "address"
        },
        {
          "internalType": "address",
          "name": "reader",
          "type": "address"
        },
        {
          "internalType": "uint96",
          "name": "adjustmentExponent",
          "type": "uint96"
        }
      ],
      "payable": false,
      "stateMutability": "nonpayable",
      "type": "constructor"
    },
    {
      "constant": true,
      "inputs": [],
      "name": "_ADJUSTMENT_",
      "outputs": [
        {
          "internalType": "uint256",
          "name": "",
          "type": "uint256"
        }
      ],
      "payable": false,
      "stateMutability": "view",
      "type": "function"
    },
    {
      "constant": true,
      "inputs": [
        {
          "internalType": "address",
          "name": "",
          "type": "address"
        }
      ],
      "name": "_MAPPING_",
      "outputs": [
        {
          "internalType": "bytes32",
          "name": "",
          "type": "bytes32"
        }
      ],
      "payable": false,
      "stateMutability": "view",
      "type": "function"
    },
    {
      "constant": true,
      "inputs": [],
      "name": "_ORACLE_",
      "outputs": [
        {
          "internalType": "address",
          "name": "",
          "type": "address"
        }
      ],
      "payable": false,
      "stateMutability": "view",
      "type": "function"
    },
    {
      "constant": true,
      "inputs": [],
      "name": "_READER_",
      "outputs": [
        {
          "internalType": "address",
          "name": "",
          "type": "address"
        }
      ],
      "payable": false,
      "stateMutability": "view",
      "type": "function"
    },
    {
      "constant": true,
      "inputs": [],
      "name": "getPrice",
      "outputs": [
        {
          "internalType": "uint256",
          "name": "",
          "type": "uint256"
        }
      ],
      "payable": false,
      "stateMutability": "view",
      "type": "function"
    }
  ],
  "bytecode": "0x608060405234801561001057600080fd5b5060405161077438038061077483398101604081905261002f916100b2565b600080546001600160a01b03199081166001600160a01b0386811691909117835560018054909216941693841790556001600160601b0391909116600a81900a60025591815260036020526040902060609290921b6001600160601b03191617905561013c565b80516100a18161011c565b92915050565b80516100a181610133565b6000806000606084860312156100c757600080fd5b60006100d38686610096565b93505060206100e486828701610096565b92505060406100f5868287016100a7565b9150509250925092565b60006001600160a01b0382166100a1565b6001600160601b031690565b610125816100ff565b811461013057600080fd5b50565b61012581610110565b6106298061014b6000396000f3fe608060405234801561001057600080fd5b50600436106100675760003560e01c8063939a543911610050578063939a54391461009257806398d5fdca146100a7578063c1f75961146100af57610067565b806367b141ee1461006c57806373a2ab7c1461008a575b600080fd5b6100746100c2565b60405161008191906104ed565b60405180910390f35b6100746100de565b61009a6100fa565b60405161008191906104fb565b61009a610100565b61009a6100bd36600461039b565b61020c565b60015473ffffffffffffffffffffffffffffffffffffffff1681565b60005473ffffffffffffffffffffffffffffffffffffffff1681565b60025481565b3360009081526003602052604081205480610150576040517f08c379a00000000000000000000000000000000000000000000000000000000081526004016101479061052a565b60405180910390fd5b60008061015c8361021e565b9150915060008273ffffffffffffffffffffffffffffffffffffffff166398d5fdca6040518163ffffffff1660e01b815260040160206040518083038186803b1580156101a857600080fd5b505afa1580156101bc573d6000803e3d6000fd5b505050506040513d601f19601f820116820180604052506101e091908101906103c1565b905060006101ed8261023a565b90506000610201828563ffffffff61025416565b965050505050505090565b60036020526000908152604090205481565b606081901c6bffffffffffffffffffffffff8216600a0a915091565b600061024e670de0b6b3a764000083610285565b92915050565b600061027e670de0b6b3a7640000610272858563ffffffff6102a316565b9063ffffffff6102f716565b9392505050565b600061027e8261027285670de0b6b3a764000063ffffffff6102a316565b6000826102b25750600061024e565b828202828482816102bf57fe5b041461027e576040517f08c379a00000000000000000000000000000000000000000000000000000000081526004016101479061051a565b600061027e83836040518060400160405280601a81526020017f536166654d6174683a206469766973696f6e206279207a65726f0000000000008152506000818361036f576040517f08c379a00000000000000000000000000000000000000000000000000000000081526004016101479190610509565b50600083858161037b57fe5b0495945050505050565b803561024e816105c6565b805161024e816105dd565b6000602082840312156103ad57600080fd5b60006103b98484610385565b949350505050565b6000602082840312156103d357600080fd5b60006103b98484610390565b6103e881610547565b82525050565b6103e881610552565b60006104028261053a565b61040c818561053e565b935061041c81856020860161056e565b6104258161059e565b9093019392505050565b600061043c60218361053e565b7f536166654d6174683a206d756c7469706c69636174696f6e206f766572666c6f81527f7700000000000000000000000000000000000000000000000000000000000000602082015260400192915050565b600061049b60348361053e565b7f50314f7261636c65496e7665727465723a2053656e646572206e6f742061757481527f686f72697a656420746f20676574207072696365000000000000000000000000602082015260400192915050565b6020810161024e82846103df565b6020810161024e82846103ee565b6020808252810161027e81846103f7565b6020808252810161024e8161042f565b6020808252810161024e8161048e565b5190565b90815260200190565b600061024e82610555565b90565b73ffffffffffffffffffffffffffffffffffffffff1690565b60005b83811015610589578181015183820152602001610571565b83811115610598576000848401525b50505050565b601f017fffffffffffffffffffffffffffffffffffffffffffffffffffffffffffffffe01690565b6105cf81610547565b81146105da57600080fd5b50565b6105cf8161055256fea365627a7a72315820afef69bf666f7fe5a855daf04f8240bff5594276f30f7a799dbcefc3a08513da6c6578706572696d656e74616cf564736f6c63430005100040",
  "source": "/*\n\n    Copyright 2020 dYdX Trading Inc.\n\n    Licensed under the Apache License, Version 2.0 (the \"License\");\n    you may not use this file except in compliance with the License.\n    You may obtain a copy of the License at\n\n    http://www.apache.org/licenses/LICENSE-2.0\n\n    Unless required by applicable law or agreed to in writing, software\n    distributed under the License is distributed on an \"AS IS\" BASIS,\n    WITHOUT WARRANTIES OR CONDITIONS OF ANY KIND, either express or implied.\n    See the License for the specific language governing permissions and\n    limitations under the License.\n\n*/\n\npragma solidity 0.5.16;\npragma experimental ABIEncoderV2;\n\nimport { BaseMath } from \"../../lib/BaseMath.sol\";\nimport { I_P1Oracle } from \"../intf/I_P1Oracle.sol\";\n\n\n/**\n * @title P1OracleInverter\n * @author dYdX\n *\n * @notice P1Oracle that returns the inverted price (i.e. flips base and quote currencies) of\n *  another P1Oracle.\n */\ncontract P1OracleInverter is\n    I_P1Oracle\n{\n    using BaseMath for uint256;\n\n    // ============ Storage ============\n\n    // The underlying P1Oracle to get and invert the price of.\n    address public _ORACLE_;\n\n    // The address with permission to get the oracle price.\n    address public _READER_;\n\n    // A constant factor to adjust the price by, as a fixed-point number with 18 decimal places.\n    uint256 public _ADJUSTMENT_;\n\n    // Compact storage for the above parameters.\n    mapping (address => bytes32) public _MAPPING_;\n\n    // ============ Constructor ============\n\n    constructor(\n        address oracle,\n        address reader,\n        uint96 adjustmentExponent\n    )\n        public\n    {\n        _ORACLE_ = oracle;\n        _READER_ = reader;\n        _ADJUSTMENT_ = 10 ** uint256(adjustmentExponent);\n\n        bytes32 oracleAndAdjustment =\n            bytes32(bytes20(oracle)) |\n            bytes32(uint256(adjustmentExponent));\n        _MAPPING_[reader] = oracleAndAdjustment;\n    }\n\n    // ============ Public Functions ============\n\n    /**\n     * @notice Returns the oracle price, inverted.\n     *\n     * @return The inverted price as a fixed-point number with 18 decimals.\n     */\n    function getPrice()\n        external\n        view\n        returns (uint256)\n    {\n        bytes32 oracleAndExponent = _MAPPING_[msg.sender];\n        require(\n            oracleAndExponent != bytes32(0),\n            \"P1OracleInverter: Sender not authorized to get price\"\n        );\n        (address oracle, uint256 adjustment) = getOracleAndAdjustment(oracleAndExponent);\n        uint256 rawPrice = I_P1Oracle(oracle).getPrice();\n        uint256 invertedPrice = rawPrice.baseReciprocal();\n        uint256 result = invertedPrice.baseMul(adjustment);\n        return result;\n    }\n\n    function getOracleAndAdjustment(\n        bytes32 oracleAndExponent\n    )\n        private\n        pure\n        returns (address, uint256)\n    {\n        address oracle = address(bytes20(oracleAndExponent));\n        uint256 exponent = uint256(uint96(uint256(oracleAndExponent)));\n        return (oracle, 10 ** exponent);\n    }\n}\n",
  "sourcePath": "/Users/dennismacpro/Projects/Defi/Ethereum-Solidity-Collection/icarus-protocol/defi-seeder/.tmp/dydx-protocol/perpetual/contracts/protocol/v1/oracles/P1OracleInverter.sol",
  "compiler": {
    "name": "solc",
    "version": "0.5.16+commit.9c3226ce.Linux.g++"
  },
  "schemaVersion": "3.3.4",
  "updatedAt": "2021-04-01T16:42:57.423Z",
  "devdoc": {
    "author": "dYdX",
    "methods": {
      "getPrice()": {
        "return": "The inverted price as a fixed-point number with 18 decimals."
      }
    },
    "title": "P1OracleInverter"
  },
  "userdoc": {
    "methods": {
      "getPrice()": {
        "notice": "Returns the oracle price, inverted."
      }
    },
    "notice": "P1Oracle that returns the inverted price (i.e. flips base and quote currencies) of another P1Oracle."
  }
}