{
  "contractName": "P1Proxy",
  "abi": [
    {
      "constant": false,
      "inputs": [
        {
          "internalType": "address",
          "name": "perpetual",
          "type": "address"
        }
      ],
      "name": "approveMaximumOnPerpetual",
      "outputs": [],
      "payable": false,
      "stateMutability": "nonpayable",
      "type": "function"
    }
  ],
  "bytecode": "0x608060405234801561001057600080fd5b506107f8806100206000396000f3fe608060405234801561001057600080fd5b506004361061002b5760003560e01c8063fe0f885814610030575b600080fd5b61004361003e3660046104aa565b610045565b005b60008173ffffffffffffffffffffffffffffffffffffffff166328b7bede6040518163ffffffff1660e01b815260040160206040518083038186803b15801561008d57600080fd5b505afa1580156100a1573d6000803e3d6000fd5b505050506040513d601f19601f820116820180604052506100c591908101906104c8565b90506100ef73ffffffffffffffffffffffffffffffffffffffff821683600063ffffffff61013a16565b61013673ffffffffffffffffffffffffffffffffffffffff8216837fffffffffffffffffffffffffffffffffffffffffffffffffffffffffffffffff63ffffffff61013a16565b5050565b8015806101e857506040517fdd62ed3e00000000000000000000000000000000000000000000000000000000815273ffffffffffffffffffffffffffffffffffffffff84169063dd62ed3e9061019690309086906004016106ac565b60206040518083038186803b1580156101ae57600080fd5b505afa1580156101c2573d6000803e3d6000fd5b505050506040513d601f19601f820116820180604052506101e69190810190610504565b155b610227576040517f08c379a000000000000000000000000000000000000000000000000000000000815260040161021e90610702565b60405180910390fd5b6040516102e49084907f095ea7b3000000000000000000000000000000000000000000000000000000009061026290869086906024016106c7565b604080517fffffffffffffffffffffffffffffffffffffffffffffffffffffffffffffffe08184030181529190526020810180517bffffffffffffffffffffffffffffffffffffffffffffffffffffffff167fffffffff00000000000000000000000000000000000000000000000000000000909316929092179091526102e9565b505050565b6103088273ffffffffffffffffffffffffffffffffffffffff1661043c565b61033e576040517f08c379a000000000000000000000000000000000000000000000000000000000815260040161021e90610712565b600060608373ffffffffffffffffffffffffffffffffffffffff16836040516103679190610699565b6000604051808303816000865af19150503d80600081146103a4576040519150601f19603f3d011682016040523d82523d6000602084013e6103a9565b606091505b5091509150816103e5576040517f08c379a000000000000000000000000000000000000000000000000000000000815260040161021e906106e2565b805115610436578080602001905161040091908101906104e6565b610436576040517f08c379a000000000000000000000000000000000000000000000000000000000815260040161021e906106f2565b50505050565b6000813f7fc5d2460186f7233c927e7db2dcc703c0e500b653ca82273b7bfad8045d85a47081811480159061047057508115155b949350505050565b80356104838161078c565b92915050565b80516104838161078c565b8051610483816107a3565b8051610483816107ac565b6000602082840312156104bc57600080fd5b60006104708484610478565b6000602082840312156104da57600080fd5b60006104708484610489565b6000602082840312156104f857600080fd5b60006104708484610494565b60006020828403121561051657600080fd5b6000610470848461049f565b61052b81610734565b82525050565b600061053c82610722565b6105468185610726565b9350610556818560208601610760565b9290920192915050565b600061056d60208361072b565b7f5361666545524332303a206c6f772d6c6576656c2063616c6c206661696c6564815260200192915050565b60006105a6602a8361072b565b7f5361666545524332303a204552433230206f7065726174696f6e20646964206e81527f6f74207375636365656400000000000000000000000000000000000000000000602082015260400192915050565b600061060560368361072b565b7f5361666545524332303a20617070726f76652066726f6d206e6f6e2d7a65726f81527f20746f206e6f6e2d7a65726f20616c6c6f77616e636500000000000000000000602082015260400192915050565b6000610664601f8361072b565b7f5361666545524332303a2063616c6c20746f206e6f6e2d636f6e747261637400815260200192915050565b61052b8161075d565b60006106a58284610531565b9392505050565b604081016106ba8285610522565b6106a56020830184610522565b604081016106d58285610522565b6106a56020830184610690565b6020808252810161048381610560565b6020808252810161048381610599565b60208082528101610483816105f8565b6020808252810161048381610657565b5190565b919050565b90815260200190565b600061048382610744565b151590565b73ffffffffffffffffffffffffffffffffffffffff1690565b90565b60005b8381101561077b578181015183820152602001610763565b838111156104365750506000910152565b61079581610734565b81146107a057600080fd5b50565b6107958161073f565b6107958161075d56fea365627a7a723158203910f690928611db8ce713685d4d11ce7314edd2a1d1629515c0608821eab5e66c6578706572696d656e74616cf564736f6c63430005100040",
  "source": "/*\n\n    Copyright 2020 dYdX Trading Inc.\n\n    Licensed under the Apache License, Version 2.0 (the \"License\");\n    you may not use this file except in compliance with the License.\n    You may obtain a copy of the License at\n\n    http://www.apache.org/licenses/LICENSE-2.0\n\n    Unless required by applicable law or agreed to in writing, software\n    distributed under the License is distributed on an \"AS IS\" BASIS,\n    WITHOUT WARRANTIES OR CONDITIONS OF ANY KIND, either express or implied.\n    See the License for the specific language governing permissions and\n    limitations under the License.\n\n*/\n\npragma solidity 0.5.16;\npragma experimental ABIEncoderV2;\n\nimport { IERC20 } from \"@openzeppelin/contracts/token/ERC20/IERC20.sol\";\nimport { SafeERC20 } from \"@openzeppelin/contracts/token/ERC20/SafeERC20.sol\";\nimport { I_PerpetualV1 } from \"../intf/I_PerpetualV1.sol\";\n\n\n/**\n * @title P1Proxy\n * @author dYdX\n *\n * @notice Base contract for proxy contracts, which can be used to provide additional functionality\n *  or restrictions when making calls to a Perpetual contract on behalf of a user.\n */\ncontract P1Proxy {\n    using SafeERC20 for IERC20;\n\n    /**\n     * @notice Sets the maximum allowance on the Perpetual contract. Must be called at least once\n     *  on a given Perpetual before deposits can be made.\n     * @dev Cannot be run in the constructor due to technical restrictions in Solidity.\n     */\n    function approveMaximumOnPerpetual(\n        address perpetual\n    )\n        external\n    {\n        IERC20 tokenContract = IERC20(I_PerpetualV1(perpetual).getTokenContract());\n\n        // safeApprove requires unsetting the allowance first.\n        tokenContract.safeApprove(perpetual, 0);\n\n        // Set the allowance to the highest possible value.\n        tokenContract.safeApprove(perpetual, uint256(-1));\n    }\n}\n",
  "sourcePath": "/Users/dennismacpro/Projects/Defi/Ethereum-Solidity-Collection/icarus-protocol/defi-seeder/.tmp/dydx-protocol/perpetual/contracts/protocol/v1/proxies/P1Proxy.sol",
  "compiler": {
    "name": "solc",
    "version": "0.5.16+commit.9c3226ce.Linux.g++"
  },
  "schemaVersion": "3.3.4",
  "updatedAt": "2021-04-01T16:42:57.435Z",
  "devdoc": {
    "author": "dYdX",
    "methods": {
      "approveMaximumOnPerpetual(address)": {
        "details": "Cannot be run in the constructor due to technical restrictions in Solidity."
      }
    },
    "title": "P1Proxy"
  },
  "userdoc": {
    "methods": {
      "approveMaximumOnPerpetual(address)": {
        "notice": "Sets the maximum allowance on the Perpetual contract. Must be called at least once on a given Perpetual before deposits can be made."
      }
    },
    "notice": "Base contract for proxy contracts, which can be used to provide additional functionality or restrictions when making calls to a Perpetual contract on behalf of a user."
  }
}