{
  "contractName": "P1Settlement",
  "abi": [
    {
      "anonymous": false,
      "inputs": [
        {
          "indexed": true,
          "internalType": "address",
          "name": "account",
          "type": "address"
        },
        {
          "indexed": false,
          "internalType": "bool",
          "name": "isPositive",
          "type": "bool"
        },
        {
          "indexed": false,
          "internalType": "uint256",
          "name": "amount",
          "type": "uint256"
        },
        {
          "indexed": false,
          "internalType": "bytes32",
          "name": "balance",
          "type": "bytes32"
        }
      ],
      "name": "LogAccountSettled",
      "type": "event"
    },
    {
      "anonymous": false,
      "inputs": [
        {
          "indexed": false,
          "internalType": "bytes32",
          "name": "index",
          "type": "bytes32"
        }
      ],
      "name": "LogIndex",
      "type": "event"
    },
    {
      "constant": true,
      "inputs": [],
      "name": "getAdmin",
      "outputs": [
        {
          "internalType": "address",
          "name": "",
          "type": "address"
        }
      ],
      "payable": false,
      "stateMutability": "view",
      "type": "function"
    }
  ],
  "bytecode": "0x6080604052600160005560f8806100176000396000f3fe6080604052348015600f57600080fd5b506004361060285760003560e01c80636e9960c314602d575b600080fd5b60336047565b604051603e91906086565b60405180910390f35b600060707fb53127684a568b3173ae13b9f8a6016e243e63b6e8ee1178d6a717850b5d61036075565b905090565b5490565b6080816098565b82525050565b60208101609282846079565b92915050565b600073ffffffffffffffffffffffffffffffffffffffff8216609256fea365627a7a7231582086fb95472d1b4d294b677bd1315762c369dec2e9d3acfef9c2e03a3b57b599916c6578706572696d656e74616cf564736f6c63430005100040",
  "source": "/*\n\n    Copyright 2020 dYdX Trading Inc.\n\n    Licensed under the Apache License, Version 2.0 (the \"License\");\n    you may not use this file except in compliance with the License.\n    You may obtain a copy of the License at\n\n    http://www.apache.org/licenses/LICENSE-2.0\n\n    Unless required by applicable law or agreed to in writing, software\n    distributed under the License is distributed on an \"AS IS\" BASIS,\n    WITHOUT WARRANTIES OR CONDITIONS OF ANY KIND, either express or implied.\n    See the License for the specific language governing permissions and\n    limitations under the License.\n\n*/\n\npragma solidity 0.5.16;\npragma experimental ABIEncoderV2;\n\nimport { SafeMath } from \"@openzeppelin/contracts/math/SafeMath.sol\";\nimport { P1Storage } from \"./P1Storage.sol\";\nimport { BaseMath } from \"../../lib/BaseMath.sol\";\nimport { SafeCast } from \"../../lib/SafeCast.sol\";\nimport { SignedMath } from \"../../lib/SignedMath.sol\";\nimport { I_P1Funder } from \"../intf/I_P1Funder.sol\";\nimport { I_P1Oracle } from \"../intf/I_P1Oracle.sol\";\nimport { P1BalanceMath } from \"../lib/P1BalanceMath.sol\";\nimport { P1IndexMath } from \"../lib/P1IndexMath.sol\";\nimport { P1Types } from \"../lib/P1Types.sol\";\n\n\n/**\n * @title P1Settlement\n * @author dYdX\n *\n * @notice Contract containing logic for settling funding payments between accounts.\n */\ncontract P1Settlement is\n    P1Storage\n{\n    using BaseMath for uint256;\n    using SafeCast for uint256;\n    using SafeMath for uint256;\n    using P1BalanceMath for P1Types.Balance;\n    using P1IndexMath for P1Types.Index;\n    using SignedMath for SignedMath.Int;\n\n    // ============ Events ============\n\n    event LogIndex(\n        bytes32 index\n    );\n\n    event LogAccountSettled(\n        address indexed account,\n        bool isPositive,\n        uint256 amount,\n        bytes32 balance\n    );\n\n    // ============ Functions ============\n\n    /**\n     * @dev Calculates the funding change since the last update and stores it in the Global Index.\n     *\n     * @return Context struct that containing:\n     *         - The current oracle price;\n     *         - The global index;\n     *         - The minimum required collateralization.\n     */\n    function _loadContext()\n        internal\n        returns (P1Types.Context memory)\n    {\n        // SLOAD old index\n        P1Types.Index memory index = _GLOBAL_INDEX_;\n\n        // get Price (P)\n        uint256 price = I_P1Oracle(_ORACLE_).getPrice();\n\n        // get Funding (F)\n        uint256 timeDelta = block.timestamp.sub(index.timestamp);\n        if (timeDelta > 0) {\n            // turn the current index into a signed integer\n            SignedMath.Int memory signedIndex = SignedMath.Int({\n                value: index.value,\n                isPositive: index.isPositive\n            });\n\n            // Get the funding rate, applied over the time delta.\n            (\n                bool fundingPositive,\n                uint256 fundingValue\n            ) = I_P1Funder(_FUNDER_).getFunding(timeDelta);\n            fundingValue = fundingValue.baseMul(price);\n\n            // Update the index according to the funding rate, applied over the time delta.\n            if (fundingPositive) {\n                signedIndex = signedIndex.add(fundingValue);\n            } else {\n                signedIndex = signedIndex.sub(fundingValue);\n            }\n\n            // store new index\n            index = P1Types.Index({\n                timestamp: block.timestamp.toUint32(),\n                isPositive: signedIndex.isPositive,\n                value: signedIndex.value.toUint128()\n            });\n            _GLOBAL_INDEX_ = index;\n        }\n\n        emit LogIndex(index.toBytes32());\n\n        return P1Types.Context({\n            price: price,\n            minCollateral: _MIN_COLLATERAL_,\n            index: index\n        });\n    }\n\n    /**\n     * @dev Settle the funding payments for a list of accounts and return their resulting balances.\n     */\n    function _settleAccounts(\n        P1Types.Context memory context,\n        address[] memory accounts\n    )\n        internal\n        returns (P1Types.Balance[] memory)\n    {\n        uint256 numAccounts = accounts.length;\n        P1Types.Balance[] memory result = new P1Types.Balance[](numAccounts);\n\n        for (uint256 i = 0; i < numAccounts; i++) {\n            result[i] = _settleAccount(context, accounts[i]);\n        }\n\n        return result;\n    }\n\n    /**\n     * @dev Settle the funding payment for a single account and return its resulting balance.\n     */\n    function _settleAccount(\n        P1Types.Context memory context,\n        address account\n    )\n        internal\n        returns (P1Types.Balance memory)\n    {\n        P1Types.Index memory newIndex = context.index;\n        P1Types.Index memory oldIndex = _LOCAL_INDEXES_[account];\n        P1Types.Balance memory balance = _BALANCES_[account];\n\n        // Don't update the index if no time has passed.\n        if (oldIndex.timestamp == newIndex.timestamp) {\n            return balance;\n        }\n\n        // Store a cached copy of the index for this account.\n        _LOCAL_INDEXES_[account] = newIndex;\n\n        // No need for settlement if balance is zero.\n        if (balance.position == 0) {\n            return balance;\n        }\n\n        // Get the difference between the newIndex and oldIndex.\n        SignedMath.Int memory signedIndexDiff = SignedMath.Int({\n            isPositive: newIndex.isPositive,\n            value: newIndex.value\n        });\n        if (oldIndex.isPositive) {\n            signedIndexDiff = signedIndexDiff.sub(oldIndex.value);\n        } else {\n            signedIndexDiff = signedIndexDiff.add(oldIndex.value);\n        }\n\n        // By convention, positive funding (index increases) means longs pay shorts\n        // and negative funding (index decreases) means shorts pay longs.\n        bool settlementIsPositive = signedIndexDiff.isPositive != balance.positionIsPositive;\n\n        // Settle the account balance by applying the index delta as a credit or debit.\n        // The interest amount scales with the position size.\n        //\n        // We round interest debits up and credits down to ensure that the contract won't become\n        // insolvent due to rounding errors.\n        uint256 settlementAmount;\n        if (settlementIsPositive) {\n            settlementAmount = signedIndexDiff.value.baseMul(balance.position);\n            balance.addToMargin(settlementAmount);\n        } else {\n            settlementAmount = signedIndexDiff.value.baseMulRoundUp(balance.position);\n            balance.subFromMargin(settlementAmount);\n        }\n        _BALANCES_[account] = balance;\n\n        // Log the change to the account balance, which is the negative of the change in the index.\n        emit LogAccountSettled(\n            account,\n            settlementIsPositive,\n            settlementAmount,\n            balance.toBytes32()\n        );\n\n        return balance;\n    }\n\n    /**\n     * @dev Returns true if the balance is collateralized according to the price and minimum\n     * collateralization passed-in through the context.\n     */\n    function _isCollateralized(\n        P1Types.Context memory context,\n        P1Types.Balance memory balance\n    )\n        internal\n        pure\n        returns (bool)\n    {\n        (uint256 positive, uint256 negative) = balance.getPositiveAndNegativeValue(context.price);\n\n        // Overflow risk assessment:\n        // 2^256 / 10^36 is significantly greater than 2^120 and this calculation is therefore not\n        // expected to be a limiting factor on the size of accounts that this contract can handle.\n        return positive.mul(BaseMath.base()) >= negative.mul(context.minCollateral);\n    }\n}\n",
  "sourcePath": "/Users/dennismacpro/Projects/Defi/Ethereum-Solidity-Collection/icarus-protocol/defi-seeder/.tmp/dydx-protocol/perpetual/contracts/protocol/v1/impl/P1Settlement.sol",
  "compiler": {
    "name": "solc",
    "version": "0.5.16+commit.9c3226ce.Linux.g++"
  },
  "schemaVersion": "3.3.4",
  "updatedAt": "2021-04-01T16:42:57.385Z",
  "devdoc": {
    "author": "dYdX",
    "methods": {
      "getAdmin()": {
        "return": "The EIP-1967 proxy admin"
      }
    },
    "title": "P1Settlement"
  },
  "userdoc": {
    "methods": {},
    "notice": "Contract containing logic for settling funding payments between accounts."
  }
}