{
  "contractName": "P1SoloBridgeProxy",
  "abi": [
    {
      "inputs": [
        {
          "internalType": "address",
          "name": "soloMargin",
          "type": "address"
        },
        {
          "internalType": "uint256",
          "name": "chainId",
          "type": "uint256"
        }
      ],
      "payable": false,
      "stateMutability": "nonpayable",
      "type": "constructor"
    },
    {
      "anonymous": false,
      "inputs": [
        {
          "indexed": true,
          "internalType": "address",
          "name": "account",
          "type": "address"
        },
        {
          "indexed": false,
          "internalType": "bytes32",
          "name": "transferHash",
          "type": "bytes32"
        }
      ],
      "name": "LogSignatureInvalidated",
      "type": "event"
    },
    {
      "anonymous": false,
      "inputs": [
        {
          "indexed": true,
          "internalType": "address",
          "name": "account",
          "type": "address"
        },
        {
          "indexed": false,
          "internalType": "address",
          "name": "perpetual",
          "type": "address"
        },
        {
          "indexed": false,
          "internalType": "uint256",
          "name": "soloAccountNumber",
          "type": "uint256"
        },
        {
          "indexed": false,
          "internalType": "uint256",
          "name": "soloMarketId",
          "type": "uint256"
        },
        {
          "indexed": false,
          "internalType": "bool",
          "name": "toPerpetual",
          "type": "bool"
        },
        {
          "indexed": false,
          "internalType": "uint256",
          "name": "amount",
          "type": "uint256"
        }
      ],
      "name": "LogTransferred",
      "type": "event"
    },
    {
      "constant": true,
      "inputs": [],
      "name": "_EIP712_DOMAIN_HASH_",
      "outputs": [
        {
          "internalType": "bytes32",
          "name": "",
          "type": "bytes32"
        }
      ],
      "payable": false,
      "stateMutability": "view",
      "type": "function"
    },
    {
      "constant": true,
      "inputs": [
        {
          "internalType": "bytes32",
          "name": "",
          "type": "bytes32"
        }
      ],
      "name": "_SIGNATURE_USED_",
      "outputs": [
        {
          "internalType": "bool",
          "name": "",
          "type": "bool"
        }
      ],
      "payable": false,
      "stateMutability": "view",
      "type": "function"
    },
    {
      "constant": true,
      "inputs": [],
      "name": "_SOLO_MARGIN_",
      "outputs": [
        {
          "internalType": "address",
          "name": "",
          "type": "address"
        }
      ],
      "payable": false,
      "stateMutability": "view",
      "type": "function"
    },
    {
      "constant": false,
      "inputs": [
        {
          "internalType": "address",
          "name": "perpetual",
          "type": "address"
        }
      ],
      "name": "approveMaximumOnPerpetual",
      "outputs": [],
      "payable": false,
      "stateMutability": "nonpayable",
      "type": "function"
    },
    {
      "constant": false,
      "inputs": [
        {
          "internalType": "uint256",
          "name": "soloMarketId",
          "type": "uint256"
        }
      ],
      "name": "approveMaximumOnSolo",
      "outputs": [],
      "payable": false,
      "stateMutability": "nonpayable",
      "type": "function"
    },
    {
      "constant": false,
      "inputs": [
        {
          "components": [
            {
              "internalType": "address",
              "name": "account",
              "type": "address"
            },
            {
              "internalType": "address",
              "name": "perpetual",
              "type": "address"
            },
            {
              "internalType": "uint256",
              "name": "soloAccountNumber",
              "type": "uint256"
            },
            {
              "internalType": "uint256",
              "name": "soloMarketId",
              "type": "uint256"
            },
            {
              "internalType": "uint256",
              "name": "amount",
              "type": "uint256"
            },
            {
              "internalType": "bytes32",
              "name": "options",
              "type": "bytes32"
            }
          ],
          "internalType": "struct P1SoloBridgeProxy.Transfer",
          "name": "transfer",
          "type": "tuple"
        },
        {
          "components": [
            {
              "internalType": "bytes32",
              "name": "r",
              "type": "bytes32"
            },
            {
              "internalType": "bytes32",
              "name": "s",
              "type": "bytes32"
            },
            {
              "internalType": "bytes2",
              "name": "vType",
              "type": "bytes2"
            }
          ],
          "internalType": "struct TypedSignature.Signature",
          "name": "signature",
          "type": "tuple"
        }
      ],
      "name": "bridgeTransfer",
      "outputs": [
        {
          "internalType": "uint256",
          "name": "",
          "type": "uint256"
        }
      ],
      "payable": false,
      "stateMutability": "nonpayable",
      "type": "function"
    },
    {
      "constant": false,
      "inputs": [
        {
          "components": [
            {
              "internalType": "address",
              "name": "account",
              "type": "address"
            },
            {
              "internalType": "address",
              "name": "perpetual",
              "type": "address"
            },
            {
              "internalType": "uint256",
              "name": "soloAccountNumber",
              "type": "uint256"
            },
            {
              "internalType": "uint256",
              "name": "soloMarketId",
              "type": "uint256"
            },
            {
              "internalType": "uint256",
              "name": "amount",
              "type": "uint256"
            },
            {
              "internalType": "bytes32",
              "name": "options",
              "type": "bytes32"
            }
          ],
          "internalType": "struct P1SoloBridgeProxy.Transfer",
          "name": "transfer",
          "type": "tuple"
        }
      ],
      "name": "invalidateSignature",
      "outputs": [],
      "payable": false,
      "stateMutability": "nonpayable",
      "type": "function"
    }
  ],
  "bytecode": "0x60806040523480156200001157600080fd5b5060405162002b1e38038062002b1e833981016040819052620000349162000153565b6001600081905580546001600160a01b0319166001600160a01b0384161790556040516200006590602001620002b8565b60408051601f198184030181528282528051602091820120838301835260118452705031536f6c6f42726964676550726f787960781b938201939093528151808301835260038152620312e360ec1b9082015290516200010f92917f0aed8d6c7f100a5bf2497af1ce627706c75ad4a9f206996cef7eee112346ecdf917fe6bbd6277e1bf288eed5e8d1780f9a50b239e86b153736bceebccf4ea79d90b391869130910162000306565b604051602081830303815290604052805190602001206002819055505050620003a2565b805162000140816200037d565b92915050565b8051620001408162000397565b600080604083850312156200016757600080fd5b600062000175858562000133565b9250506020620001888582860162000146565b9150509250929050565b6200019d8162000361565b82525050565b6200019d816200036e565b6000620001bd600c836200035c565b6b1cdd1c9a5b99c81b985b594b60a21b8152600c0192915050565b6000620001e76019836200035c565b7f6164647265737320766572696679696e67436f6e747261637400000000000000815260190192915050565b6000620002226010836200035c565b6f1d5a5b9d0c8d4d8818da185a5b92590b60821b815260100192915050565b6000620002506001836200035c565b602960f81b815260010192915050565b60006200026f600f836200035c565b6e1cdd1c9a5b99c81d995c9cda5bdb8b608a1b8152600f0192915050565b60006200029c600d836200035c565b6c08a92a06e626488dedac2d2dc5609b1b8152600d0192915050565b6000620002c5826200028d565b9150620002d282620001ae565b9150620002df8262000260565b9150620002ec8262000213565b9150620002f982620001d8565b9150620001408262000241565b60a08101620003168288620001a3565b620003256020830187620001a3565b620003346040830186620001a3565b620003436060830185620001a3565b62000352608083018462000192565b9695505050505050565b919050565b6000620001408262000371565b90565b6001600160a01b031690565b620003888162000361565b81146200039457600080fd5b50565b62000388816200036e565b61276c80620003b26000396000f3fe608060405234801561001057600080fd5b506004361061007d5760003560e01c8063b9fed3f61161005b578063b9fed3f6146100d5578063c7dc03f9146100f5578063f1beb6d7146100fd578063fe0f8858146101105761007d565b80630352ddfc146100825780633f41499d146100ab5780635249243c146100c0575b600080fd5b6100956100903660046119c8565b610123565b6040516100a291906124a1565b60405180910390f35b6100b3610138565b6040516100a2919061239b565b6100d36100ce366004611a04565b610154565b005b6100e86100e3366004611a22565b610314565b6040516100a291906124af565b6100e8610877565b6100d361010b3660046119c8565b61087d565b6100d361011e36600461196e565b61099e565b60036020526000908152604090205460ff1681565b60015473ffffffffffffffffffffffffffffffffffffffff1681565b610161602082018261196e565b73ffffffffffffffffffffffffffffffffffffffff163373ffffffffffffffffffffffffffffffffffffffff16146102615760015473ffffffffffffffffffffffffffffffffffffffff1660006101be604084016020850161196e565b905060006101d96101d436869003860186611a5d565b610a93565b90506000808260028111156101ea57fe5b1480610201575060028260028111156101ff57fe5b145b905061021d848461021736899003890189611a5d565b84610ab1565b61025c576040517f08c379a00000000000000000000000000000000000000000000000000000000081526004016102539061252e565b60405180910390fd5b505050505b600061027a61027536849003840184611a5d565b610ced565b600081815260036020908152604090912080547fffffffffffffffffffffffffffffffffffffffffffffffffffffffffffffff001660011790559091506102c39083018361196e565b73ffffffffffffffffffffffffffffffffffffffff167fee0a433ca6f431de6cf9e5ae3dacef4ee7ef663bc14bfc1ee7b0dcca438ef5c38260405161030891906124af565b60405180910390a25050565b60007fffffffffffffffffffffffffffffffffffffffffffffffffffffffffffffffff6000541415610372576040517f08c379a00000000000000000000000000000000000000000000000000000000081526004016102539061258e565b7fffffffffffffffffffffffffffffffffffffffffffffffffffffffffffffffff60009081556103aa61027536869003860186611a5d565b60015490915073ffffffffffffffffffffffffffffffffffffffff1660006103d8604087016020880161196e565b905060008173ffffffffffffffffffffffffffffffffffffffff166328b7bede6040518163ffffffff1660e01b815260040160206040518083038186803b15801561042257600080fd5b505afa158015610436573d6000803e3d6000fd5b505050506040513d601f19601f8201168201806040525061045a919081019061198c565b905060006104706101d4368a90038a018a611a5d565b905060008082600281111561048157fe5b14806104985750600282600281111561049657fe5b145b90506104b3856104ad368c90038c018c611a5d565b85610db0565b60006104cf86866104c9368e90038e018e611a5d565b85610ab1565b905080610535576104fd6104e8368c90038c018c611a5d565b886104f8368d90038d018d6119e6565b610ea7565b600087815260036020526040902080547fffffffffffffffffffffffffffffffffffffffffffffffffffffffffffffff001660011790555b6000821561074c576040517f70a0823100000000000000000000000000000000000000000000000000000000815260009073ffffffffffffffffffffffffffffffffffffffff8716906370a082319061059290309060040161239b565b60206040518083038186803b1580156105aa57600080fd5b505afa1580156105be573d6000803e3d6000fd5b505050506040513d601f19601f820116820180604052506105e29190810190611a7b565b905061060d886105f7368f90038f018f611a5d565b6001600289600281111561060757fe5b14610fb5565b6040517f70a0823100000000000000000000000000000000000000000000000000000000815260009073ffffffffffffffffffffffffffffffffffffffff8816906370a082319061066290309060040161239b565b60206040518083038186803b15801561067a57600080fd5b505afa15801561068e573d6000803e3d6000fd5b505050506040513d601f19601f820116820180604052506106b29190810190611a7b565b90506106c4818363ffffffff6111e816565b92508773ffffffffffffffffffffffffffffffffffffffff166347e7ef248e60000160206106f5919081019061196e565b856040518363ffffffff1660e01b8152600401610713929190612415565b600060405180830381600087803b15801561072d57600080fd5b505af1158015610741573d6000803e3d6000fd5b5050505050506107ea565b5060808a013573ffffffffffffffffffffffffffffffffffffffff861663d9caed1261077b60208e018e61196e565b30846040518463ffffffff1660e01b815260040161079b939291906123ed565b600060405180830381600087803b1580156107b557600080fd5b505af11580156107c9573d6000803e3d6000fd5b505050506107ea878c8036036107e29190810190611a5d565b600080610fb5565b6107f760208c018c61196e565b73ffffffffffffffffffffffffffffffffffffffff167f44704b4f0be8f8a46df98e25b1b154fd1305d5c952ca3edee386cb73b34ae24161083e60408e0160208f0161196e565b8d604001358e60600135878660405161085b959493929190612430565b60405180910390a2505060016000555094979650505050505050565b60025481565b6001546040517f062bd3e900000000000000000000000000000000000000000000000000000000815273ffffffffffffffffffffffffffffffffffffffff90911690600090829063062bd3e9906108d89086906004016124af565b60206040518083038186803b1580156108f057600080fd5b505afa158015610904573d6000803e3d6000fd5b505050506040513d601f19601f82011682018060405250610928919081019061198c565b905061095273ffffffffffffffffffffffffffffffffffffffff821683600063ffffffff61123316565b61099973ffffffffffffffffffffffffffffffffffffffff8216837fffffffffffffffffffffffffffffffffffffffffffffffffffffffffffffffff63ffffffff61123316565b505050565b60008173ffffffffffffffffffffffffffffffffffffffff166328b7bede6040518163ffffffff1660e01b815260040160206040518083038186803b1580156109e657600080fd5b505afa1580156109fa573d6000803e3d6000fd5b505050506040513d601f19601f82011682018060405250610a1e919081019061198c565b9050610a4873ffffffffffffffffffffffffffffffffffffffff821683600063ffffffff61123316565b610a8f73ffffffffffffffffffffffffffffffffffffffff8216837fffffffffffffffffffffffffffffffffffffffffffffffffffffffffffffffff63ffffffff61123316565b5050565b60a081015160009060ff166002811115610aa957fe5b90505b919050565b815160009073ffffffffffffffffffffffffffffffffffffffff16331415610adb57506001610ce5565b6040517f052f72d700000000000000000000000000000000000000000000000000000000815260009073ffffffffffffffffffffffffffffffffffffffff87169063052f72d790610b309033906004016123a9565b60206040518083038186803b158015610b4857600080fd5b505afa158015610b5c573d6000803e3d6000fd5b505050506040513d601f19601f82011682018060405250610b8091908101906119aa565b80610c2b575083516040517f3a031bf000000000000000000000000000000000000000000000000000000000815273ffffffffffffffffffffffffffffffffffffffff881691633a031bf091610bdb919033906004016123d2565b60206040518083038186803b158015610bf357600080fd5b505afa158015610c07573d6000803e3d6000fd5b505050506040513d601f19601f82011682018060405250610c2b91908101906119aa565b9050808015610ce157508280610ce1575083516040517f84ea286200000000000000000000000000000000000000000000000000000000815273ffffffffffffffffffffffffffffffffffffffff8716916384ea286291610c91919033906004016123d2565b60206040518083038186803b158015610ca957600080fd5b505afa158015610cbd573d6000803e3d6000fd5b505050506040513d601f19601f82011682018060405250610ce191908101906119aa565b9150505b949350505050565b600080604051602001610cff90612343565b6040516020818303038152906040528051906020012083604051602001610d279291906124bd565b604080517fffffffffffffffffffffffffffffffffffffffffffffffffffffffffffffffe0818403018152908290528051602091820120600254909350610d92927f1901000000000000000000000000000000000000000000000000000000000000928591016122de565b60405160208183030381529060405280519060200120915050919050565b60608201516040517f062bd3e900000000000000000000000000000000000000000000000000000000815273ffffffffffffffffffffffffffffffffffffffff808416929086169163062bd3e991610e0a916004016124af565b60206040518083038186803b158015610e2257600080fd5b505afa158015610e36573d6000803e3d6000fd5b505050506040513d601f19601f82011682018060405250610e5a919081019061198c565b73ffffffffffffffffffffffffffffffffffffffff1614610999576040517f08c379a00000000000000000000000000000000000000000000000000000000081526004016102539061255e565b6000610eb2846113d4565b90504281101580610ec1575080155b610ef7576040517f08c379a00000000000000000000000000000000000000000000000000000000081526004016102539061256e565b60008381526003602052604090205460ff1615610f40576040517f08c379a00000000000000000000000000000000000000000000000000000000081526004016102539061254e565b835173ffffffffffffffffffffffffffffffffffffffff16610f6284846113f2565b73ffffffffffffffffffffffffffffffffffffffff1614610faf576040517f08c379a00000000000000000000000000000000000000000000000000000000081526004016102539061251e565b50505050565b604080516001808252818301909252606091816020015b610fd4611771565b815260200190600190039081610fcc5790505090506040518060400160405280856000015173ffffffffffffffffffffffffffffffffffffffff16815260200185604001518152508160008151811061102957fe5b602002602001018190525061103c611788565b60408051608081018252851581526000602082015290810184611060576000611063565b60015b600181111561106e57fe5b815260200184611082578660800151611085565b60005b905260408051600180825281830190925291925060609190816020015b6110aa6117b1565b8152602001906001900390816110a2579050509050604051806101000160405280866110d75760006110da565b60015b60088111156110e557fe5b81526020018760400151815260200183815260200187606001518152602001600081526020013073ffffffffffffffffffffffffffffffffffffffff16815260200160008152602001604051806020016040528060008152508152508160008151811061114e57fe5b60209081029190910101526040517fa67a6a4500000000000000000000000000000000000000000000000000000000815273ffffffffffffffffffffffffffffffffffffffff88169063a67a6a45906111ad908690859060040161247c565b600060405180830381600087803b1580156111c757600080fd5b505af11580156111db573d6000803e3d6000fd5b5050505050505050505050565b600061122a83836040518060400160405280601e81526020017f536166654d6174683a207375627472616374696f6e206f766572666c6f7700008152506115a0565b90505b92915050565b8015806112e157506040517fdd62ed3e00000000000000000000000000000000000000000000000000000000815273ffffffffffffffffffffffffffffffffffffffff84169063dd62ed3e9061128f90309086906004016123b7565b60206040518083038186803b1580156112a757600080fd5b505afa1580156112bb573d6000803e3d6000fd5b505050506040513d601f19601f820116820180604052506112df9190810190611a7b565b155b611317576040517f08c379a00000000000000000000000000000000000000000000000000000000081526004016102539061259e565b6040516109999084907f095ea7b300000000000000000000000000000000000000000000000000000000906113529086908690602401612415565b604080517fffffffffffffffffffffffffffffffffffffffffffffffffffffffffffffffe08184030181529190526020810180517bffffffffffffffffffffffffffffffffffffffffffffffffffffffff167fffffffff00000000000000000000000000000000000000000000000000000000909316929092179091526115eb565b60a081015160081c6effffffffffffffffffffffffffffff16919050565b6040810151600090819060f01c60ff16600381111561140d57fe5b905060008082600381111561141e57fe5b141561142b57508361151a565b600182600381111561143957fe5b14156114a4576040518060400160405280601c81526020017f19457468657265756d205369676e6564204d6573736167653a0a33320000000081525085604051602001611487929190612321565b60405160208183030381529060405280519060200120905061151a565b60028260038111156114b257fe5b146114b957fe5b6040518060400160405280601b81526020017f19457468657265756d205369676e6564204d6573736167653a0a20000000000081525085604051602001611501929190612321565b6040516020818303038152906040528051906020012090505b600181856040015160f81c866000015187602001516040516000815260200160405260405161154c94939291906124d8565b6020604051602081039080840390855afa15801561156e573d6000803e3d6000fd5b50506040517fffffffffffffffffffffffffffffffffffffffffffffffffffffffffffffffe001519695505050505050565b600081848411156115de576040517f08c379a0000000000000000000000000000000000000000000000000000000008152600401610253919061250d565b50508183035b9392505050565b61160a8273ffffffffffffffffffffffffffffffffffffffff16611738565b611640576040517f08c379a0000000000000000000000000000000000000000000000000000000008152600401610253906125ae565b600060608373ffffffffffffffffffffffffffffffffffffffff16836040516116699190612315565b6000604051808303816000865af19150503d80600081146116a6576040519150601f19603f3d011682016040523d82523d6000602084013e6116ab565b606091505b5091509150816116e7576040517f08c379a00000000000000000000000000000000000000000000000000000000081526004016102539061253e565b805115610faf578080602001905161170291908101906119aa565b610faf576040517f08c379a00000000000000000000000000000000000000000000000000000000081526004016102539061257e565b6000813f7fc5d2460186f7233c927e7db2dcc703c0e500b653ca82273b7bfad8045d85a470818114801590610ce5575050151592915050565b604080518082019091526000808252602082015290565b604080516080810190915260008082526020820190815260200160008152602001600081525090565b6040805161010081018252600080825260208201529081016117d1611788565b81526020016000815260200160008152602001600073ffffffffffffffffffffffffffffffffffffffff16815260200160008152602001606081525090565b803561122d816126fa565b805161122d816126fa565b805161122d8161270e565b803561122d81612717565b803561122d81612720565b60006060828403121561185957600080fd5b50919050565b60006060828403121561187157600080fd5b61187b60606125be565b90506000611889848461183c565b825250602061189a8484830161183c565b60208301525060406118ae84828501611831565b60408301525092915050565b600060c0828403121561185957600080fd5b600060c082840312156118de57600080fd5b6118e860c06125be565b905060006118f68484611810565b825250602061190784848301611810565b602083015250604061191b8482850161183c565b604083015250606061192f8482850161183c565b60608301525060806119438482850161183c565b60808301525060a06119578482850161183c565b60a08301525092915050565b805161122d81612720565b60006020828403121561198057600080fd5b6000610ce58484611810565b60006020828403121561199e57600080fd5b6000610ce5848461181b565b6000602082840312156119bc57600080fd5b6000610ce58484611826565b6000602082840312156119da57600080fd5b6000610ce5848461183c565b6000606082840312156119f857600080fd5b6000610ce5848461185f565b600060c08284031215611a1657600080fd5b6000610ce584846118ba565b6000806101208385031215611a3657600080fd5b6000611a4285856118ba565b92505060c0611a5385828601611847565b9150509250929050565b600060c08284031215611a6f57600080fd5b6000610ce584846118cc565b600060208284031215611a8d57600080fd5b6000610ce58484611963565b6000611aa5838361214c565b505060400190565b600061122a8383612170565b611ac281612663565b82525050565b611ac2816125f8565b6000611adc826125eb565b611ae681856125ef565b9350611af1836125e5565b8060005b83811015611b1f578151611b098882611a99565b9750611b14836125e5565b925050600101611af5565b509495945050505050565b6000611b35826125eb565b611b3f81856125ef565b935083602082028501611b51856125e5565b8060005b85811015611b8b5784840389528151611b6e8582611aad565b9450611b79836125e5565b60209a909a0199925050600101611b55565b5091979650505050505050565b611ac281612603565b611ac2611bad82612608565b61262d565b611ac28161262d565b611ac2611bad8261262d565b6000611bd2826125eb565b611bdc8185610aac565b9350611bec81856020860161268f565b9290920192915050565b6000611c01826125eb565b611c0b81856125ef565b9350611c1b81856020860161268f565b611c24816126bb565b9093019392505050565b611ac28161266e565b611ac281612679565b6000611c4d601583610aac565b7f75696e7432353620736f6c6f4d61726b657449642c0000000000000000000000815260150192915050565b6000611c866041836125ef565b7f53656e64657220646f6573206e6f742068617665206163636f756e742070657281527f6d697373696f6e7320616e64207369676e617475726520697320696e76616c6960208201527f6400000000000000000000000000000000000000000000000000000000000000604082015260600192915050565b6000611d0b600f83610aac565b7f62797465733332206f7074696f6e7300000000000000000000000000000000008152600f0192915050565b6000611d44601083610aac565b7f61646472657373206163636f756e742c00000000000000000000000000000000815260100192915050565b6000611d7d600f83610aac565b7f75696e7432353620616d6f756e742c00000000000000000000000000000000008152600f0192915050565b6000611db6601283610aac565b7f616464726573732070657270657475616c2c0000000000000000000000000000815260120192915050565b6000611def602d836125ef565b7f53656e64657220646f6573206e6f742068617665207065726d697373696f6e2081527f746f20696e76616c696461746500000000000000000000000000000000000000602082015260400192915050565b6000611e4e6020836125ef565b7f5361666545524332303a206c6f772d6c6576656c2063616c6c206661696c6564815260200192915050565b6000611e87600183610aac565b7f2900000000000000000000000000000000000000000000000000000000000000815260010192915050565b6000611ec06029836125ef565b7f5369676e61747572652077617320616c72656164792075736564206f7220696e81527f76616c6964617465640000000000000000000000000000000000000000000000602082015260400192915050565b6000611f1f602a836125ef565b7f536f6c6f20616e642050657270657475616c2061737365747320617265206e6f81527f74207468652073616d6500000000000000000000000000000000000000000000602082015260400192915050565b6000611f7e600983610aac565b7f5472616e73666572280000000000000000000000000000000000000000000000815260090192915050565b6000611fb76015836125ef565b7f5369676e61747572652068617320657870697265640000000000000000000000815260200192915050565b6000611ff0601a83610aac565b7f75696e7432353620736f6c6f4163636f756e744e756d6265722c0000000000008152601a0192915050565b6000612029602a836125ef565b7f5361666545524332303a204552433230206f7065726174696f6e20646964206e81527f6f74207375636365656400000000000000000000000000000000000000000000602082015260400192915050565b6000612088601f836125ef565b7f5265656e7472616e637947756172643a207265656e7472616e742063616c6c00815260200192915050565b60006120c16036836125ef565b7f5361666545524332303a20617070726f76652066726f6d206e6f6e2d7a65726f81527f20746f206e6f6e2d7a65726f20616c6c6f77616e636500000000000000000000602082015260400192915050565b6000612120601f836125ef565b7f5361666545524332303a2063616c6c20746f206e6f6e2d636f6e747261637400815260200192915050565b8051604083019061215d8482611ac8565b506020820151610faf6020850182611bb2565b80516000906101608401906121858582611c2e565b5060208301516121986020860182611bb2565b5060408301516121ab604086018261221b565b5060608301516121be60c0860182611bb2565b5060808301516121d160e0860182611bb2565b5060a08301516121e5610100860182611ac8565b5060c08301516121f9610120860182611bb2565b5060e08301518482036101408601526122128282611bf6565b95945050505050565b8051608083019061222c8482611b98565b50602082015161223f6020850182611c37565b5060408201516122526040850182611c37565b506060820151610faf6060850182611bb2565b805160c08301906122768482611ac8565b5060208201516122896020850182611ac8565b50604082015161229c6040850182611bb2565b5060608201516122af6060850182611bb2565b5060808201516122c26080850182611bb2565b5060a0820151610faf60a0850182611bb2565b611ac28161265d565b60006122ea8286611ba1565b6002820191506122fa8285611bbb565b60208201915061230a8284611bbb565b506020019392505050565b60006115e48284611bc7565b600061232d8285611bc7565b91506123398284611bbb565b5060200192915050565b600061234e82611f71565b915061235982611d37565b915061236482611da9565b915061236f82611fe3565b915061237a82611c40565b915061238582611d70565b915061239082611cfe565b915061122d82611e7a565b6020810161122d8284611ac8565b6020810161122d8284611ab9565b604081016123c58285611ac8565b6115e46020830184611ac8565b604081016123e08285611ac8565b6115e46020830184611ab9565b606081016123fb8286611ac8565b6124086020830185611ac8565b610ce56040830184611bb2565b604081016124238285611ac8565b6115e46020830184611bb2565b60a0810161243e8288611ac8565b61244b6020830187611bb2565b6124586040830186611bb2565b6124656060830185611b98565b6124726080830184611bb2565b9695505050505050565b6040808252810161248d8185611ad1565b90508181036020830152610ce58184611b2a565b6020810161122d8284611b98565b6020810161122d8284611bb2565b60e081016124cb8285611bb2565b6115e46020830184612265565b608081016124e68287611bb2565b6124f360208301866122d5565b6125006040830185611bb2565b6122126060830184611bb2565b6020808252810161122a8184611bf6565b60208082528101610aa981611c79565b60208082528101610aa981611de2565b60208082528101610aa981611e41565b60208082528101610aa981611eb3565b60208082528101610aa981611f12565b60208082528101610aa981611faa565b60208082528101610aa98161201c565b60208082528101610aa98161207b565b60208082528101610aa9816120b4565b60208082528101610aa981612113565b60405181810167ffffffffffffffff811182821017156125dd57600080fd5b604052919050565b60200190565b5190565b90815260200190565b6000610aa982612644565b151590565b7fffff0000000000000000000000000000000000000000000000000000000000001690565b90565b80610aac816126e3565b80610aac816126f0565b73ffffffffffffffffffffffffffffffffffffffff1690565b60ff1690565b6000610aa982612684565b6000610aa982612630565b6000610aa98261263a565b6000610aa9826125f8565b60005b838110156126aa578181015183820152602001612692565b83811115610faf5750506000910152565b601f017fffffffffffffffffffffffffffffffffffffffffffffffffffffffffffffffe01690565b600981106126ed57fe5b50565b600281106126ed57fe5b612703816125f8565b81146126ed57600080fd5b61270381612603565b61270381612608565b6127038161262d56fea365627a7a7231582079413f80b0353a8efb6f561df566f078b319593927d940dcb88bc39a18b870a16c6578706572696d656e74616cf564736f6c63430005100040",
  "source": "/*\n\n    Copyright 2020 dYdX Trading Inc.\n\n    Licensed under the Apache License, Version 2.0 (the \"License\");\n    you may not use this file except in compliance with the License.\n    You may obtain a copy of the License at\n\n    http://www.apache.org/licenses/LICENSE-2.0\n\n    Unless required by applicable law or agreed to in writing, software\n    distributed under the License is distributed on an \"AS IS\" BASIS,\n    WITHOUT WARRANTIES OR CONDITIONS OF ANY KIND, either express or implied.\n    See the License for the specific language governing permissions and\n    limitations under the License.\n\n*/\n\npragma solidity 0.5.16;\npragma experimental ABIEncoderV2;\n\nimport { SafeMath } from \"@openzeppelin/contracts/math/SafeMath.sol\";\nimport { IERC20 } from \"@openzeppelin/contracts/token/ERC20/IERC20.sol\";\nimport { SafeERC20 } from \"@openzeppelin/contracts/token/ERC20/SafeERC20.sol\";\nimport { P1Proxy } from \"./P1Proxy.sol\";\nimport { I_Solo } from \"../../../external/dydx/I_Solo.sol\";\nimport { BaseMath } from \"../../lib/BaseMath.sol\";\nimport { ReentrancyGuard } from \"../../lib/ReentrancyGuard.sol\";\nimport { SignedMath } from \"../../lib/SignedMath.sol\";\nimport { TypedSignature } from \"../../lib/TypedSignature.sol\";\nimport { I_PerpetualV1 } from \"../intf/I_PerpetualV1.sol\";\nimport { P1BalanceMath } from \"../lib/P1BalanceMath.sol\";\nimport { P1Types } from \"../lib/P1Types.sol\";\n\n\n/**\n * @title P1SoloBridgeProxy\n * @author dYdX\n *\n * @notice Facilitates transfers between the PerpetualV1 and Solo smart contracts.\n */\ncontract P1SoloBridgeProxy is\n    P1Proxy,\n    ReentrancyGuard\n{\n    using BaseMath for uint256;\n    using SafeMath for uint256;\n    using SignedMath for SignedMath.Int;\n    using P1BalanceMath for P1Types.Balance;\n    using SafeERC20 for IERC20;\n\n    // ============ Constants ============\n\n    // EIP191 header for EIP712 prefix\n    bytes2 constant private EIP191_HEADER = 0x1901;\n\n    // EIP712 Domain Name value\n    string constant private EIP712_DOMAIN_NAME = \"P1SoloBridgeProxy\";\n\n    // EIP712 Domain Version value\n    string constant private EIP712_DOMAIN_VERSION = \"1.0\";\n\n    // EIP712 hash of the Domain Separator Schema\n    /* solium-disable-next-line indentation */\n    bytes32 constant private EIP712_DOMAIN_SEPARATOR_SCHEMA_HASH = keccak256(abi.encodePacked(\n        \"EIP712Domain(\",\n        \"string name,\",\n        \"string version,\",\n        \"uint256 chainId,\",\n        \"address verifyingContract\",\n        \")\"\n    ));\n\n    // EIP712 hash of the Transfer struct\n    /* solium-disable-next-line indentation */\n    bytes32 constant private EIP712_TRANSFER_STRUCT_SCHEMA_HASH = keccak256(abi.encodePacked(\n        \"Transfer(\",\n        \"address account,\",\n        \"address perpetual,\",\n        \"uint256 soloAccountNumber,\",\n        \"uint256 soloMarketId,\",\n        \"uint256 amount,\",\n        \"bytes32 options\",\n        \")\"\n    ));\n\n    // Constants for the options field of the Transfer struct.\n    bytes32 private constant OPTIONS_MASK_TRANSFER_MODE = bytes32(uint256((1 << 8) - 1));\n    bytes32 private constant OPTIONS_MASK_EXPIRATION = bytes32(uint256((1 << 120) - 1));\n    uint256 private constant OPTIONS_OFFSET_EXPIRATION = 8;\n\n    // ============ Enums ============\n\n    enum TransferMode {\n        SomeToPerpetual,\n        SomeToSolo,\n        AllToPerpetual\n    }\n\n    // ============ Structs ============\n\n    struct Transfer {\n        address account;\n        address perpetual;\n        uint256 soloAccountNumber;\n        uint256 soloMarketId;\n        uint256 amount;\n        bytes32 options; // salt (16 bytes), expiration (15 bytes), transfer mode (1 byte)\n    }\n\n    // ============ Events ============\n\n    event LogTransferred(\n        address indexed account,\n        address perpetual,\n        uint256 soloAccountNumber,\n        uint256 soloMarketId,\n        bool toPerpetual,\n        uint256 amount\n    );\n\n    event LogSignatureInvalidated(\n        address indexed account,\n        bytes32 transferHash\n    );\n\n    // ============ Immutable Storage ============\n\n    // Address of the Solo margin contract.\n    address public _SOLO_MARGIN_;\n\n    // Hash of the EIP712 Domain Separator data\n    bytes32 public _EIP712_DOMAIN_HASH_;\n\n    // ============ Mutable Storage ============\n\n    // transfer hash => bool\n    mapping (bytes32 => bool) public _SIGNATURE_USED_;\n\n    // ============ Constructor ============\n\n    constructor (\n        address soloMargin,\n        uint256 chainId\n    )\n        public\n    {\n        _SOLO_MARGIN_ = soloMargin;\n\n        /* solium-disable-next-line indentation */\n        _EIP712_DOMAIN_HASH_ = keccak256(abi.encode(\n            EIP712_DOMAIN_SEPARATOR_SCHEMA_HASH,\n            keccak256(bytes(EIP712_DOMAIN_NAME)),\n            keccak256(bytes(EIP712_DOMAIN_VERSION)),\n            chainId,\n            address(this)\n        ));\n    }\n\n    // ============ External Functions ============\n\n    /**\n     * @notice Sets the maximum allowance on the Solo contract for a given market. Must be called\n     *  at least once on a given market before deposits can be made.\n     * @dev Cannot be run in the constructor due to technical restrictions in Solidity.\n     */\n    function approveMaximumOnSolo(\n        uint256 soloMarketId\n    )\n        external\n    {\n        address solo = _SOLO_MARGIN_;\n        IERC20 tokenContract = IERC20(I_Solo(solo).getMarketTokenAddress(soloMarketId));\n\n        // safeApprove requires unsetting the allowance first.\n        tokenContract.safeApprove(solo, 0);\n\n        // Set the allowance to the highest possible value.\n        tokenContract.safeApprove(solo, uint256(-1));\n    }\n\n    /**\n     * @notice Executes a transfer from Solo to Perpetual or vice vera.\n     * @dev Emits the LogTransferred event.\n     *\n     * @param  transfer   The transfer to execute.\n     * @param  signature  (Optional) Signature for the transfer, will be checked if sender does not\n     *                    have permission to operate the account.\n     */\n    function bridgeTransfer(\n        Transfer calldata transfer,\n        TypedSignature.Signature calldata signature\n    )\n        external\n        nonReentrant\n        returns (uint256)\n    {\n        bytes32 transferHash = _getTransferHash(transfer);\n        I_Solo solo = I_Solo(_SOLO_MARGIN_);\n        I_PerpetualV1 perpetual = I_PerpetualV1(transfer.perpetual);\n        address tokenAddress = perpetual.getTokenContract();\n        TransferMode transferMode = _getTransferMode(transfer);\n        bool toPerpetual = (\n            transferMode == TransferMode.SomeToPerpetual ||\n            transferMode == TransferMode.AllToPerpetual\n        );\n\n        // Validations.\n        _verifySoloMarket(\n            solo,\n            transfer,\n            tokenAddress\n        );\n\n        // Verify permissions: Either msg.sender must be a valid operator of the account or the\n        // signature must be valid.\n        bool isValidOperator = _isValidOperator(\n            solo,\n            perpetual,\n            transfer,\n            toPerpetual\n        );\n        if (!isValidOperator) {\n            _verifySignature(\n                transfer,\n                transferHash,\n                signature\n            );\n            _SIGNATURE_USED_[transferHash] = true;\n        }\n\n        // Execute the transfer.\n        uint256 amount;\n        if (toPerpetual) {\n\n            // Withdraw from Solo.\n            uint256 initialBalance = IERC20(tokenAddress).balanceOf(address(this));\n            _doSoloOperation(\n                solo,\n                transfer,\n                true,\n                transferMode == TransferMode.AllToPerpetual\n            );\n            uint256 finalBalance = IERC20(tokenAddress).balanceOf(address(this));\n\n            // Deposit to Perpetual.\n            amount = finalBalance.sub(initialBalance);\n            perpetual.deposit(transfer.account, amount);\n        } else { // transferMode == TransferMode.SomeToSolo\n\n            // Withdraw from Perpetual.\n            amount = transfer.amount;\n            perpetual.withdraw(transfer.account, address(this), amount);\n\n            // Deposit to Solo.\n            _doSoloOperation(\n                solo,\n                transfer,\n                false,\n                false\n            );\n        }\n\n        // Log the transfer.\n        emit LogTransferred(\n            transfer.account,\n            transfer.perpetual,\n            transfer.soloAccountNumber,\n            transfer.soloMarketId,\n            toPerpetual,\n            amount\n        );\n    }\n\n    /**\n     * @notice Invalidate a signature, given the exact transfer parameters.\n     * @dev Emits the LogSignatureInvalidated event.\n     *\n     * @param  transfer  The parameters for the signature that will be invalidated.\n     */\n    function invalidateSignature(\n        Transfer calldata transfer\n    )\n        external\n    {\n        // Check permissions. Short-circuit if sender is the account owner.\n        if (msg.sender != transfer.account) {\n            I_Solo solo = I_Solo(_SOLO_MARGIN_);\n            I_PerpetualV1 perpetual = I_PerpetualV1(transfer.perpetual);\n            TransferMode transferMode = _getTransferMode(transfer);\n            bool toPerpetual = (\n                transferMode == TransferMode.SomeToPerpetual ||\n                transferMode == TransferMode.AllToPerpetual\n            );\n            require(\n                _isValidOperator(\n                    solo,\n                    perpetual,\n                    transfer,\n                    toPerpetual\n                ),\n                \"Sender does not have permission to invalidate\"\n            );\n        }\n\n        // Mark this signature as used to prevent replay attacks.\n        bytes32 transferHash = _getTransferHash(transfer);\n        _SIGNATURE_USED_[transferHash] = true;\n\n        // Log the invalidation.\n        emit LogSignatureInvalidated(\n            transfer.account,\n            transferHash\n        );\n    }\n\n    // ============ Helper Functions ============\n\n    /**\n     * @dev Execute a withdrawal or deposit operation on Solo.\n     */\n    function _doSoloOperation(\n        I_Solo solo,\n        Transfer memory transfer,\n        bool isWithdrawal,\n        bool withdrawToZero\n    )\n        private\n    {\n        // Create Solo accounts array.\n        I_Solo.AccountInfo[] memory soloAccounts = new I_Solo.AccountInfo[](1);\n        soloAccounts[0] = I_Solo.AccountInfo({\n            owner: transfer.account,\n            number: transfer.soloAccountNumber\n        });\n\n        // Create Solo actions array.\n        I_Solo.AssetAmount memory amount = I_Solo.AssetAmount({\n            sign: !isWithdrawal,\n            denomination: I_Solo.AssetDenomination.Wei,\n            ref: withdrawToZero ? I_Solo.AssetReference.Target : I_Solo.AssetReference.Delta,\n            value: withdrawToZero ? 0 : transfer.amount\n        });\n        I_Solo.ActionArgs[] memory soloActions = new I_Solo.ActionArgs[](1);\n        soloActions[0] = I_Solo.ActionArgs({\n            actionType: isWithdrawal ? I_Solo.ActionType.Withdraw : I_Solo.ActionType.Deposit,\n            accountId: transfer.soloAccountNumber,\n            amount: amount,\n            primaryMarketId: transfer.soloMarketId,\n            secondaryMarketId: 0,\n            otherAddress: address(this),\n            otherAccountId: 0,\n            data: \"\"\n        });\n\n        // Execute the withdrawal or deposit.\n        solo.operate(soloAccounts, soloActions);\n    }\n\n    /**\n     * Verify that the signature is valid for the given hash and not used, invalidated, or expired.\n     */\n    function _verifySignature(\n        Transfer memory transfer,\n        bytes32 transferHash,\n        TypedSignature.Signature memory signature\n    )\n        private\n        view\n    {\n        // Verify expiration.\n        uint256 expiration = _getExpiration(transfer);\n        require(\n            expiration >= block.timestamp || expiration == 0,\n            \"Signature has expired\"\n        );\n\n        // Check whether the signature was previously used or invalidated.\n        require(\n            !_SIGNATURE_USED_[transferHash],\n            \"Signature was already used or invalidated\"\n        );\n\n        require(\n            TypedSignature.recover(transferHash, signature) == transfer.account,\n            \"Sender does not have account permissions and signature is invalid\"\n        );\n    }\n\n    /**\n     * Check whether msg.sender has permission to operate the account.\n     */\n    function _isValidOperator(\n        I_Solo solo,\n        I_PerpetualV1 perpetual,\n        Transfer memory transfer,\n        bool toPerpetual\n    )\n        private\n        view\n        returns (bool)\n    {\n        // Short-circuit if sender is the account owner.\n        if (msg.sender == transfer.account) {\n            return true;\n        }\n\n        bool isSoloOperator =\n            solo.getIsGlobalOperator(msg.sender) ||\n            solo.getIsLocalOperator(transfer.account, msg.sender);\n\n        // Solo only accepts deposits from valid operators of an account, so require Solo operator\n        // permissions for either transfer direction. Only require Perpetual operator permissions to\n        // withdraw from Perpetual.\n        return\n            isSoloOperator &&\n            (toPerpetual || perpetual.hasAccountPermissions(transfer.account, msg.sender));\n    }\n\n    /**\n     * Verify token addresses.\n     */\n    function _verifySoloMarket(\n        I_Solo solo,\n        Transfer memory transfer,\n        address tokenAddress\n    )\n        private\n        view\n    {\n        // Verify that the Solo market asset matches the Perpetual margin asset.\n        require(\n            solo.getMarketTokenAddress(transfer.soloMarketId) == tokenAddress,\n            \"Solo and Perpetual assets are not the same\"\n        );\n    }\n\n    /**\n     * Returns the EIP712 hash of a transfer.\n     */\n    function _getTransferHash(\n        Transfer memory transfer\n    )\n        private\n        view\n        returns (bytes32)\n    {\n        // Compute the overall signed struct hash\n        /* solium-disable-next-line indentation */\n        bytes32 structHash = keccak256(abi.encode(\n            EIP712_TRANSFER_STRUCT_SCHEMA_HASH,\n            transfer\n        ));\n\n        // Compute EIP712 compliant hash\n        /* solium-disable-next-line indentation */\n        return keccak256(abi.encodePacked(\n            EIP191_HEADER,\n            _EIP712_DOMAIN_HASH_,\n            structHash\n        ));\n    }\n\n    function _getTransferMode(\n        Transfer memory transfer\n    )\n        private\n        pure\n        returns (TransferMode)\n    {\n        return TransferMode(uint256(transfer.options & OPTIONS_MASK_TRANSFER_MODE));\n    }\n\n    function _getExpiration(\n        Transfer memory transfer\n    )\n        private\n        pure\n        returns (uint256)\n    {\n        return uint256((transfer.options >> OPTIONS_OFFSET_EXPIRATION) & OPTIONS_MASK_EXPIRATION);\n    }\n}\n",
  "sourcePath": "/Users/dennismacpro/Projects/Defi/Ethereum-Solidity-Collection/icarus-protocol/defi-seeder/.tmp/dydx-protocol/perpetual/contracts/protocol/v1/proxies/P1SoloBridgeProxy.sol",
  "compiler": {
    "name": "solc",
    "version": "0.5.16+commit.9c3226ce.Linux.g++"
  },
  "schemaVersion": "3.3.4",
  "updatedAt": "2021-04-01T16:42:57.435Z",
  "devdoc": {
    "author": "dYdX",
    "methods": {
      "approveMaximumOnPerpetual(address)": {
        "details": "Cannot be run in the constructor due to technical restrictions in Solidity."
      },
      "approveMaximumOnSolo(uint256)": {
        "details": "Cannot be run in the constructor due to technical restrictions in Solidity."
      },
      "bridgeTransfer((address,address,uint256,uint256,uint256,bytes32),(bytes32,bytes32,bytes2))": {
        "details": "Emits the LogTransferred event.",
        "params": {
          "signature": "(Optional) Signature for the transfer, will be checked if sender does not                   have permission to operate the account.",
          "transfer": "The transfer to execute."
        }
      },
      "invalidateSignature((address,address,uint256,uint256,uint256,bytes32))": {
        "details": "Emits the LogSignatureInvalidated event.",
        "params": {
          "transfer": "The parameters for the signature that will be invalidated."
        }
      }
    },
    "title": "P1SoloBridgeProxy"
  },
  "userdoc": {
    "methods": {
      "approveMaximumOnPerpetual(address)": {
        "notice": "Sets the maximum allowance on the Perpetual contract. Must be called at least once on a given Perpetual before deposits can be made."
      },
      "approveMaximumOnSolo(uint256)": {
        "notice": "Sets the maximum allowance on the Solo contract for a given market. Must be called at least once on a given market before deposits can be made."
      },
      "bridgeTransfer((address,address,uint256,uint256,uint256,bytes32),(bytes32,bytes32,bytes2))": {
        "notice": "Executes a transfer from Solo to Perpetual or vice vera."
      },
      "invalidateSignature((address,address,uint256,uint256,uint256,bytes32))": {
        "notice": "Invalidate a signature, given the exact transfer parameters."
      }
    },
    "notice": "Facilitates transfers between the PerpetualV1 and Solo smart contracts."
  }
}