{
  "contractName": "P1Storage",
  "abi": [
    {
      "constant": true,
      "inputs": [],
      "name": "getAdmin",
      "outputs": [
        {
          "internalType": "address",
          "name": "",
          "type": "address"
        }
      ],
      "payable": false,
      "stateMutability": "view",
      "type": "function"
    }
  ],
  "bytecode": "0x6080604052600160005560f8806100176000396000f3fe6080604052348015600f57600080fd5b506004361060285760003560e01c80636e9960c314602d575b600080fd5b60336047565b604051603e91906086565b60405180910390f35b600060707fb53127684a568b3173ae13b9f8a6016e243e63b6e8ee1178d6a717850b5d61036075565b905090565b5490565b6080816098565b82525050565b60208101609282846079565b92915050565b600073ffffffffffffffffffffffffffffffffffffffff8216609256fea365627a7a723158204c5baad5b724b26479cb9d7eda5b509bd16a4c8782691a2cdec8536c23932e476c6578706572696d656e74616cf564736f6c63430005100040",
  "source": "/*\n\n    Copyright 2020 dYdX Trading Inc.\n\n    Licensed under the Apache License, Version 2.0 (the \"License\");\n    you may not use this file except in compliance with the License.\n    You may obtain a copy of the License at\n\n    http://www.apache.org/licenses/LICENSE-2.0\n\n    Unless required by applicable law or agreed to in writing, software\n    distributed under the License is distributed on an \"AS IS\" BASIS,\n    WITHOUT WARRANTIES OR CONDITIONS OF ANY KIND, either express or implied.\n    See the License for the specific language governing permissions and\n    limitations under the License.\n\n*/\n\npragma solidity 0.5.16;\npragma experimental ABIEncoderV2;\n\nimport { Adminable } from \"../../lib/Adminable.sol\";\nimport { ReentrancyGuard } from \"../../lib/ReentrancyGuard.sol\";\nimport { P1Types } from \"../lib/P1Types.sol\";\n\n\n/**\n * @title P1Storage\n * @author dYdX\n *\n * @notice Storage contract. Contains or inherits from all contracts that have ordered storage.\n */\ncontract P1Storage is\n    Adminable,\n    ReentrancyGuard\n{\n    mapping(address => P1Types.Balance) internal _BALANCES_;\n    mapping(address => P1Types.Index) internal _LOCAL_INDEXES_;\n\n    mapping(address => bool) internal _GLOBAL_OPERATORS_;\n    mapping(address => mapping(address => bool)) internal _LOCAL_OPERATORS_;\n\n    address internal _TOKEN_;\n    address internal _ORACLE_;\n    address internal _FUNDER_;\n\n    P1Types.Index internal _GLOBAL_INDEX_;\n    uint256 internal _MIN_COLLATERAL_;\n\n    bool internal _FINAL_SETTLEMENT_ENABLED_;\n    uint256 internal _FINAL_SETTLEMENT_PRICE_;\n}\n",
  "sourcePath": "/Users/dennismacpro/Projects/Defi/Ethereum-Solidity-Collection/icarus-protocol/defi-seeder/.tmp/dydx-protocol/perpetual/contracts/protocol/v1/impl/P1Storage.sol",
  "compiler": {
    "name": "solc",
    "version": "0.5.16+commit.9c3226ce.Linux.g++"
  },
  "schemaVersion": "3.3.4",
  "updatedAt": "2021-04-01T16:42:57.388Z",
  "devdoc": {
    "author": "dYdX",
    "methods": {
      "getAdmin()": {
        "return": "The EIP-1967 proxy admin"
      }
    },
    "title": "P1Storage"
  },
  "userdoc": {
    "methods": {},
    "notice": "Storage contract. Contains or inherits from all contracts that have ordered storage."
  }
}