{
  "contractName": "P1Trade",
  "abi": [
    {
      "anonymous": false,
      "inputs": [
        {
          "indexed": true,
          "internalType": "address",
          "name": "account",
          "type": "address"
        },
        {
          "indexed": false,
          "internalType": "bool",
          "name": "isPositive",
          "type": "bool"
        },
        {
          "indexed": false,
          "internalType": "uint256",
          "name": "amount",
          "type": "uint256"
        },
        {
          "indexed": false,
          "internalType": "bytes32",
          "name": "balance",
          "type": "bytes32"
        }
      ],
      "name": "LogAccountSettled",
      "type": "event"
    },
    {
      "anonymous": false,
      "inputs": [
        {
          "indexed": false,
          "internalType": "bytes32",
          "name": "index",
          "type": "bytes32"
        }
      ],
      "name": "LogIndex",
      "type": "event"
    },
    {
      "anonymous": false,
      "inputs": [
        {
          "indexed": true,
          "internalType": "address",
          "name": "maker",
          "type": "address"
        },
        {
          "indexed": true,
          "internalType": "address",
          "name": "taker",
          "type": "address"
        },
        {
          "indexed": false,
          "internalType": "address",
          "name": "trader",
          "type": "address"
        },
        {
          "indexed": false,
          "internalType": "uint256",
          "name": "marginAmount",
          "type": "uint256"
        },
        {
          "indexed": false,
          "internalType": "uint256",
          "name": "positionAmount",
          "type": "uint256"
        },
        {
          "indexed": false,
          "internalType": "bool",
          "name": "isBuy",
          "type": "bool"
        },
        {
          "indexed": false,
          "internalType": "bytes32",
          "name": "makerBalance",
          "type": "bytes32"
        },
        {
          "indexed": false,
          "internalType": "bytes32",
          "name": "takerBalance",
          "type": "bytes32"
        }
      ],
      "name": "LogTrade",
      "type": "event"
    },
    {
      "anonymous": false,
      "inputs": [
        {
          "indexed": true,
          "internalType": "address",
          "name": "account",
          "type": "address"
        },
        {
          "indexed": false,
          "internalType": "uint256",
          "name": "amount",
          "type": "uint256"
        },
        {
          "indexed": false,
          "internalType": "bytes32",
          "name": "balance",
          "type": "bytes32"
        }
      ],
      "name": "LogWithdrawFinalSettlement",
      "type": "event"
    },
    {
      "constant": true,
      "inputs": [],
      "name": "getAdmin",
      "outputs": [
        {
          "internalType": "address",
          "name": "",
          "type": "address"
        }
      ],
      "payable": false,
      "stateMutability": "view",
      "type": "function"
    },
    {
      "constant": false,
      "inputs": [],
      "name": "withdrawFinalSettlement",
      "outputs": [],
      "payable": false,
      "stateMutability": "nonpayable",
      "type": "function"
    },
    {
      "constant": false,
      "inputs": [
        {
          "internalType": "address[]",
          "name": "accounts",
          "type": "address[]"
        },
        {
          "components": [
            {
              "internalType": "uint256",
              "name": "takerIndex",
              "type": "uint256"
            },
            {
              "internalType": "uint256",
              "name": "makerIndex",
              "type": "uint256"
            },
            {
              "internalType": "address",
              "name": "trader",
              "type": "address"
            },
            {
              "internalType": "bytes",
              "name": "data",
              "type": "bytes"
            }
          ],
          "internalType": "struct P1Trade.TradeArg[]",
          "name": "trades",
          "type": "tuple[]"
        }
      ],
      "name": "trade",
      "outputs": [],
      "payable": false,
      "stateMutability": "nonpayable",
      "type": "function"
    }
  ],
  "bytecode": "0x60806040526001600055613074806100186000396000f3fe608060405234801561001057600080fd5b50600436106100415760003560e01c8063142c69b31461004657806368eec3f6146100505780636e9960c314610063575b600080fd5b61004e610081565b005b61004e61005e36600461252f565b610443565b61006b610ae3565b6040516100789190612b71565b60405180910390f35b600a5460ff166100ac5760405162461bcd60e51b81526004016100a390612c91565b60405180910390fd5b7fffffffffffffffffffffffffffffffffffffffffffffffffffffffffffffffff60005414156100ee5760405162461bcd60e51b81526004016100a390612d41565b7fffffffffffffffffffffffffffffffffffffffffffffffffffffffffffffffff60005561011a61222c565b506040805160608082018352600b5482526009546020808401919091528351918201845260085463ffffffff81168352640100000000810460ff161515918301919091526501000000000090046fffffffffffffffffffffffffffffffff16818401529181019190915261018c612252565b6101968233610b13565b90506000806101a9838560000151610fcf565b91509150808210156101be575050505061043c565b60006101e76101cb61108c565b6101db858563ffffffff61109816565b9063ffffffff6110e116565b6005546040517f70a0823100000000000000000000000000000000000000000000000000000000815291925060009173ffffffffffffffffffffffffffffffffffffffff909116906370a0823190610243903090600401612b71565b60206040518083038186803b15801561025b57600080fd5b505afa15801561026f573d6000803e3d6000fd5b505050506040513d601f19601f820116820180604052506102939190810190612604565b905060006102a18284611123565b905060006102bd6102b8858463ffffffff61109816565b611139565b604080516080810182526effffffffffffffffffffffffffffff8381168015158352600060208085018281528587019384526060860183815233808552600190935296909220855181549351945197517fffffffffffffffffffffffffffffffffffffffffffffffffffffffffffffff00909416901515177fffffffffffffffffffffffffffffffffffffffffffffffffffffffffffff00ff1661010094151594909402939093177fffffffffffffffffffffffffffffff000000000000000000000000000000ffff1662010000968516969096029590951770ffffffffffffffffffffffffffffffffff167101000000000000000000000000000000000091909316029190911790556005549099509192506103f19173ffffffffffffffffffffffffffffffffffffffff16908461116e565b337fc3b34c584e097adcd5d59ecaf4107928698a4f075c7753b5dbe28cd20d7ac1fd8361041d8a611230565b60405161042b929190612d71565b60405180910390a250505050505050505b6001600055565b600a5460ff16156104665760405162461bcd60e51b81526004016100a390612cf1565b7fffffffffffffffffffffffffffffffffffffffffffffffffffffffffffffffff60005414156104a85760405162461bcd60e51b81526004016100a390612d41565b7fffffffffffffffffffffffffffffffffffffffffffffffffffffffffffffffff6000556104d5826112c5565b6104dd61222c565b6104e561137c565b905060606104f38285611720565b90506060815160405190808252806020026020018201604052801561053257816020015b61051f612252565b8152602001906001900390816105175790505b50905060005b825181101561057c5761055d83828151811061055057fe5b60200260200101516117b7565b82828151811061056957fe5b6020908102919091010152600101610538565b506000805b8551821015610ac957610592612279565b86838151811061059e57fe5b60209081029190910181015160408082015173ffffffffffffffffffffffffffffffffffffffff16600090815260039093529091205490915060ff166105f65760405162461bcd60e51b81526004016100a390612cb1565b60008882602001518151811061060857fe5b6020026020010151905060008983600001518151811061062457fe5b60200260200101519050610636612252565b6040808501518a51606087015192517f970c2ba100000000000000000000000000000000000000000000000000000000815273ffffffffffffffffffffffffffffffffffffffff9092169263970c2ba19261069d9233928992899291908d90600401612b7f565b608060405180830381600087803b1580156106b757600080fd5b505af11580156106cb573d6000803e3d6000fd5b505050506040513d601f19601f820116820180604052506106ef91908101906125e6565b90508060600151851794508173ffffffffffffffffffffffffffffffffffffffff168373ffffffffffffffffffffffffffffffffffffffff1614156107375750505050610abe565b61073f612252565b8785602001518151811061074f57fe5b60200260200101519050610761612252565b8886600001518151811061077157fe5b602002602001015190508260400151156107dc57825161079890839063ffffffff61181d16565b60208301516107ae90839063ffffffff61185216565b82516107c190829063ffffffff61188716565b60208301516107d790829063ffffffff6118aa16565b61082e565b82516107ef90839063ffffffff61188716565b602083015161080590839063ffffffff6118aa16565b825161081890829063ffffffff61181d16565b602083015161082e90829063ffffffff61185216565b81600160008773ffffffffffffffffffffffffffffffffffffffff1673ffffffffffffffffffffffffffffffffffffffff16815260200190815260200160002060008201518160000160006101000a81548160ff02191690831515021790555060208201518160000160016101000a81548160ff02191690831515021790555060408201518160000160026101000a8154816effffffffffffffffffffffffffffff02191690836effffffffffffffffffffffffffffff16021790555060608201518160000160116101000a8154816effffffffffffffffffffffffffffff02191690836effffffffffffffffffffffffffffff16021790555090505080600160008673ffffffffffffffffffffffffffffffffffffffff1673ffffffffffffffffffffffffffffffffffffffff16815260200190815260200160002060008201518160000160006101000a81548160ff02191690831515021790555060208201518160000160016101000a81548160ff02191690831515021790555060408201518160000160026101000a8154816effffffffffffffffffffffffffffff02191690836effffffffffffffffffffffffffffff16021790555060608201518160000160116101000a8154816effffffffffffffffffffffffffffff02191690836effffffffffffffffffffffffffffff1602179055509050508373ffffffffffffffffffffffffffffffffffffffff168573ffffffffffffffffffffffffffffffffffffffff167f5171a2ba3550a103fd09ca39b7dcfdf328a5acef18e290c7802d69c8ba73d8d98860400151866000015187602001518860400151610a9489611230565b610a9d89611230565b604051610aaf96959493929190612bfb565b60405180910390a35050505050505b600190910190610581565b610ad5858886866118cd565b505060016000555050505050565b6000610b0e7fb53127684a568b3173ae13b9f8a6016e243e63b6e8ee1178d6a717850b5d6103611b08565b905090565b610b1b612252565b610b236122b7565b506040830151610b316122b7565b5073ffffffffffffffffffffffffffffffffffffffff83166000908152600260209081526040918290208251606081018452905463ffffffff81168252640100000000810460ff16151592820192909252650100000000009091046fffffffffffffffffffffffffffffffff1691810191909152610bad612252565b5073ffffffffffffffffffffffffffffffffffffffff84166000908152600160209081526040918290208251608081018452905460ff808216151583526101008204161515928201929092526effffffffffffffffffffffffffffff6201000083048116938201939093527101000000000000000000000000000000000090910490911660608201528251825163ffffffff90811691161415610c54579250610fc9915050565b73ffffffffffffffffffffffffffffffffffffffff85166000908152600260209081526040918290208551815492870151938701517fffffffffffffffffffffffffffffffffffffffffffffffffffffffff0000000090931663ffffffff909116177fffffffffffffffffffffffffffffffffffffffffffffffffffffff00ffffffff1664010000000093151593909302929092177fffffffffffffffffffffff00000000000000000000000000000000ffffffffff16650100000000006fffffffffffffffffffffffffffffffff9092169190910217905560608101516effffffffffffffffffffffffffffff16610d51579250610fc9915050565b610d596122d7565b50604080518082018252908401516fffffffffffffffffffffffffffffffff16815260208085015115158183015283015115610dbe576040830151610db79082906fffffffffffffffffffffffffffffffff1663ffffffff611b0c16565b9050610de9565b6040830151610de69082906fffffffffffffffffffffffffffffffff1663ffffffff611bbb16565b90505b600082602001511515826020015115151415905060008115610e435760608401518351610e2c916effffffffffffffffffffffffffffff1663ffffffff611c3816565b9050610e3e848263ffffffff61181d16565b610e7c565b60608401518351610e6a916effffffffffffffffffffffffffffff1663ffffffff611c5616565b9050610e7c848263ffffffff61188716565b73ffffffffffffffffffffffffffffffffffffffff881660008181526001602090815260409182902087518154928901519389015160608a01517fffffffffffffffffffffffffffffffffffffffffffffffffffffffffffffff00909416911515919091177fffffffffffffffffffffffffffffffffffffffffffffffffffffffffffff00ff1661010094151594909402939093177fffffffffffffffffffffffffffffff000000000000000000000000000000ffff16620100006effffffffffffffffffffffffffffff948516021770ffffffffffffffffffffffffffffffffff167101000000000000000000000000000000000093909216929092021790557f022694ffbbd957d26de6b85c040be68ec582d13d40114b29130581793a1bf31e8383610fa988611230565b604051610fb893929190612c4a565b60405180910390a250919450505050505b92915050565b8151600090819081908190156110135761100c610fea61108c565b60408801516effffffffffffffffffffffffffffff169063ffffffff611cad16565b9150611021565b61101e610fea61108c565b90505b606086015160009061104a906effffffffffffffffffffffffffffff168763ffffffff611cad16565b905086602001511561106d57611066838263ffffffff611ce716565b9250611080565b61107d828263ffffffff611ce716565b91505b50909590945092505050565b670de0b6b3a764000090565b60006110da83836040518060400160405280601e81526020017f536166654d6174683a207375627472616374696f6e206f766572666c6f770000815250611d0c565b9392505050565b60006110da83836040518060400160405280601a81526020017f536166654d6174683a206469766973696f6e206279207a65726f000000000000815250611d38565b600081831061113257816110da565b5090919050565b60006f01000000000000000000000000000000821061116a5760405162461bcd60e51b81526004016100a390612cc1565b5090565b60405161122b9084907fa9059cbb00000000000000000000000000000000000000000000000000000000906111a99086908690602401612be0565b604080517fffffffffffffffffffffffffffffffffffffffffffffffffffffffffffffffe08184030181529190526020810180517bffffffffffffffffffffffffffffffffffffffffffffffffffffffff167fffffffff0000000000000000000000000000000000000000000000000000000090931692909217909152611d6f565b505050565b6000808260200151611243576000611255565b6f010000000000000000000000000000005b8351611262576000611284565b7f01000000000000000000000000000000000000000000000000000000000000005b608085604001516effffffffffffffffffffffffffffff16901b85606001516effffffffffffffffffffffffffffff1617171790508060001b915050919050565b60008151116112e65760405162461bcd60e51b81526004016100a390612d11565b6000816000815181106112f557fe5b602002602001015190506000600190505b825181101561122b57600083828151811061131d57fe5b602002602001015190508273ffffffffffffffffffffffffffffffffffffffff168173ffffffffffffffffffffffffffffffffffffffff16116113725760405162461bcd60e51b81526004016100a390612d61565b9150600101611306565b61138461222c565b61138c6122b7565b506040805160608101825260085463ffffffff81168252640100000000810460ff161515602080840191909152650100000000009091046fffffffffffffffffffffffffffffffff168284015260065483517f98d5fdca0000000000000000000000000000000000000000000000000000000081529351929360009373ffffffffffffffffffffffffffffffffffffffff909216926398d5fdca92600480840193829003018186803b15801561144157600080fd5b505afa158015611455573d6000803e3d6000fd5b505050506040513d601f19601f820116820180604052506114799190810190612604565b9050600061149a836000015163ffffffff164261109890919063ffffffff16565b905080156116c0576114aa6122d7565b50604080518082018252848201516fffffffffffffffffffffffffffffffff16815260208086015115159082015260075491517febed4bd40000000000000000000000000000000000000000000000000000000081529091600091829173ffffffffffffffffffffffffffffffffffffffff169063ebed4bd490611532908790600401612c72565b604080518083038186803b15801561154957600080fd5b505afa15801561155d573d6000803e3d6000fd5b505050506040513d601f19601f8201168201806040525061158191908101906125b6565b9092509050611596818663ffffffff611c3816565b905081156115b5576115ae838263ffffffff611bbb16565b92506115c8565b6115c5838263ffffffff611b0c16565b92505b60405180606001604052806115dc42611e74565b63ffffffff1681526020018460200151151581526020016116008560000151611e9a565b6fffffffffffffffffffffffffffffffff9081169091528151600880546020850151604086015190941665010000000000027fffffffffffffffffffffff00000000000000000000000000000000ffffffffff941515640100000000027fffffffffffffffffffffffffffffffffffffffffffffffffffffff00ffffffff63ffffffff9095167fffffffffffffffffffffffffffffffffffffffffffffffffffffffff000000009093169290921793909316179290921617905595505050505b7f995e61c355733308eab39a59e1e1ac167274cdd1ad707fe4d13e127a010764286116ea84611ecc565b6040516116f79190612c72565b60405180910390a150604080516060810182529182526009546020830152810191909152905090565b606060008251905060608160405190808252806020026020018201604052801561176457816020015b611751612252565b8152602001906001900390816117495790505b50905060005b828110156117ae5761178f8686838151811061178257fe5b6020026020010151610b13565b82828151811061179b57fe5b602090810291909101015260010161176a565b50949350505050565b6117bf612252565b604051806080016040528083600001511515815260200183602001511515815260200183604001516effffffffffffffffffffffffffffff16815260200183606001516effffffffffffffffffffffffffffff168152509050919050565b6118256122d7565b61182e83611f22565b9050611840818363ffffffff611bbb16565b905061122b838263ffffffff611f5716565b61185a6122d7565b61186383611f82565b9050611875818363ffffffff611b0c16565b905061122b838263ffffffff611fc116565b61188f6122d7565b61189883611f22565b9050611840818363ffffffff611b0c16565b6118b26122d7565b6118bb83611f82565b9050611875818363ffffffff611bbb16565b60005b8351811015611b01576118e1612252565b8282815181106118ed57fe5b60200260200101519050600080611911886000015184610fcf90919063ffffffff16565b91509150600061192e896020015183611cad90919063ffffffff16565b61194661193961108c565b859063ffffffff611cad16565b10801591506119585750505050611af9565b600088868151811061196657fe5b60200260200101519050611978612252565b88878151811061198457fe5b602002602001015190506000806119a88d6000015184610fcf90919063ffffffff16565b915091506119d38760001415604051806060016040528060388152602001612f496038913986611fef565b611a2383606001516effffffffffffffffffffffffffffff1689606001516effffffffffffffffffffffffffffff161115604051806080016040528060438152602001612fba6043913986611fef565b611a54836020015115158960200151151514604051806060016040528060398152602001612f816039913986611fef565b611a7b8160001415604051806060016040528060358152602001612ffd6035913986611fef565b611af08860200151611aae57611a97888363ffffffff61205316565b611aa7848963ffffffff61205316565b1115611ad1565b611abe828963ffffffff61205316565b611ace888563ffffffff61205316565b11155b6040518060600160405280603e8152602001612f0b603e913986611fef565b50505050505050505b6001016118d0565b5050505050565b5490565b611b146122d7565b8260200151611b50576040518060400160405280611b3f856000015185611ce790919063ffffffff16565b815260006020909101529050610fc9565b8251821015611b88576040805180820190915283518190611b77908563ffffffff61109816565b815260016020909101529050610fc9565b6040518060400160405280611baa85600001518561109890919063ffffffff16565b815260006020909101529392505050565b611bc36122d7565b826020015115611bef576040518060400160405280611b77856000015185611ce790919063ffffffff16565b8251821115611c1a576040518060400160405280611b7785600001518561109890919063ffffffff16565b6040805180820190915283518190611baa908563ffffffff61109816565b60006110da670de0b6b3a76400006101db858563ffffffff611cad16565b6000821580611c63575081155b15611c7057506000610fc9565b6110da6001611ca1670de0b6b3a76400006101db83611c95898963ffffffff611cad16565b9063ffffffff61109816565b9063ffffffff611ce716565b600082611cbc57506000610fc9565b82820282848281611cc957fe5b04146110da5760405162461bcd60e51b81526004016100a390612d01565b6000828201838110156110da5760405162461bcd60e51b81526004016100a390612ca1565b60008184841115611d305760405162461bcd60e51b81526004016100a39190612c80565b505050900390565b60008183611d595760405162461bcd60e51b81526004016100a39190612c80565b506000838581611d6557fe5b0495945050505050565b611d8e8273ffffffffffffffffffffffffffffffffffffffff1661207d565b611daa5760405162461bcd60e51b81526004016100a390612d51565b600060608373ffffffffffffffffffffffffffffffffffffffff1683604051611dd39190612b4d565b6000604051808303816000865af19150503d8060008114611e10576040519150601f19603f3d011682016040523d82523d6000602084013e611e15565b606091505b509150915081611e375760405162461bcd60e51b81526004016100a390612ce1565b805115611e6e5780806020019051611e529190810190612598565b611e6e5760405162461bcd60e51b81526004016100a390612d31565b50505050565b6000640100000000821061116a5760405162461bcd60e51b81526004016100a390612d21565b6000700100000000000000000000000000000000821061116a5760405162461bcd60e51b81526004016100a390612cd1565b6000806088836000015163ffffffff16901b8360200151611eee576000611f01565b7001000000000000000000000000000000005b60408501516fffffffffffffffffffffffffffffffff161717915050919050565b611f2a6122d7565b50604080518082018252908201516effffffffffffffffffffffffffffff16815290511515602082015290565b8051611f6290611139565b6effffffffffffffffffffffffffffff1660408301526020015115159052565b611f8a6122d7565b604051806040016040528083606001516effffffffffffffffffffffffffffff168152602001836020015115158152509050919050565b8051611fcc90611139565b6effffffffffffffffffffffffffffff1660608301526020908101511515910152565b8261122b5781611ffe826120b9565b60405160200161200f929190612b59565b604080517fffffffffffffffffffffffffffffffffffffffffffffffffffffffffffffffe08184030181529082905262461bcd60e51b82526100a391600401612c80565b60006110da8261207185670de0b6b3a764000063ffffffff6110e116565b9063ffffffff611cad16565b6000813f7fc5d2460186f7233c927e7db2dcc703c0e500b653ca82273b7bfad8045d85a4708181148015906120b157508115155b949350505050565b606080763a20307830303030303030302e2e2e303030303030303060481b6040516020016120e79190612b38565b604080517fffffffffffffffffffffffffffffffffffffffffffffffffffffffffffffffe0818403018152919052905073ffffffffffffffffffffffffffffffffffffffff8316609c601c60045b600c8110156121ff5761214984841c61220a565b85828151811061215557fe5b60200101907effffffffffffffffffffffffffffffffffffffffffffffffffffffffffffff1916908160001a90535061218f84831c61220a565b8582600b018151811061219e57fe5b60200101907effffffffffffffffffffffffffffffffffffffffffffffffffffffffffffff1916908160001a9053507ffffffffffffffffffffffffffffffffffffffffffffffffffffffffffffffffc928301929190910190600101612135565b509295945050505050565b6000600f8216600a811061221f576057612222565b60305b0160f81b92915050565b6040518060600160405280600081526020016000815260200161224d6122b7565b905290565b60408051608081018252600080825260208201819052918101829052606081019190915290565b60405180608001604052806000815260200160008152602001600073ffffffffffffffffffffffffffffffffffffffff168152602001606081525090565b604080516060810182526000808252602082018190529181019190915290565b604080518082019091526000808252602082015290565b8035610fc981612ee1565b600082601f83011261230a57600080fd5b813561231d61231882612da6565b612d7f565b9150818183526020840193506020810190508385602084028201111561234257600080fd5b60005b8381101561236e578161235888826122ee565b8452506020928301929190910190600101612345565b5050505092915050565b600082601f83011261238957600080fd5b813561239761231882612da6565b81815260209384019390925082018360005b8381101561236e57813586016123bf888261243a565b84525060209283019291909101906001016123a9565b8051610fc981612ef8565b8051610fc981612f01565b600082601f8301126123fc57600080fd5b813561240a61231882612dc7565b9150808252602083016020830185838301111561242657600080fd5b612431838284612e81565b50505092915050565b60006080828403121561244c57600080fd5b6124566080612d7f565b905060006124648484612524565b825250602061247584848301612524565b6020830152506040612489848285016122ee565b604083015250606082013567ffffffffffffffff8111156124a957600080fd5b6124b5848285016123eb565b60608301525092915050565b6000608082840312156124d357600080fd5b6124dd6080612d7f565b905060006124eb84846123e0565b82525060206124fc848483016123e0565b6020830152506040612510848285016123d5565b60408301525060606124b5848285016123e0565b8035610fc981612f01565b6000806040838503121561254257600080fd5b823567ffffffffffffffff81111561255957600080fd5b612565858286016122f9565b925050602083013567ffffffffffffffff81111561258257600080fd5b61258e85828601612378565b9150509250929050565b6000602082840312156125aa57600080fd5b60006120b184846123d5565b600080604083850312156125c957600080fd5b60006125d585856123d5565b925050602061258e858286016123e0565b6000608082840312156125f857600080fd5b60006120b184846124c1565b60006020828403121561261657600080fd5b60006120b184846123e0565b61262b81612e70565b82525050565b61262b81612e1f565b61262b81612e2a565b61262b61264f82612e2f565b612e54565b61262b81612e54565b600061266882612e0d565b6126728185612e1a565b9350612682818560208601612e8d565b9290920192915050565b600061269782612e0d565b6126a18185612e11565b93506126b1818560208601612e8d565b6126ba81612eb9565b9093019392505050565b60006126d1602683612e11565b7f4f6e6c79207065726d697474656420647572696e672066696e616c207365747481527f6c656d656e740000000000000000000000000000000000000000000000000000602082015260400192915050565b6000612730601b83612e11565b7f536166654d6174683a206164646974696f6e206f766572666c6f770000000000815260200192915050565b6000612769601d83612e11565b7f747261646572206973206e6f7420676c6f62616c206f70657261746f72000000815260200192915050565b60006127a2602783612e11565b7f53616665436173743a2076616c756520646f65736e27742066697420696e203181527f3230206269747300000000000000000000000000000000000000000000000000602082015260400192915050565b6000612801602783612e11565b7f53616665436173743a2076616c756520646f65736e27742066697420696e203181527f3238206269747300000000000000000000000000000000000000000000000000602082015260400192915050565b6000612860602083612e11565b7f5361666545524332303a206c6f772d6c6576656c2063616c6c206661696c6564815260200192915050565b6000612899602583612e11565b7f4e6f74207065726d697474656420647572696e672066696e616c20736574746c81527f656d656e74000000000000000000000000000000000000000000000000000000602082015260400192915050565b60006128f8602183612e11565b7f536166654d6174683a206d756c7469706c69636174696f6e206f766572666c6f81527f7700000000000000000000000000000000000000000000000000000000000000602082015260400192915050565b6000612957602283612e11565b7f4163636f756e7473206d7573742068617665206e6f6e2d7a65726f206c656e6781527f7468000000000000000000000000000000000000000000000000000000000000602082015260400192915050565b60006129b6602683612e11565b7f53616665436173743a2076616c756520646f65736e27742066697420696e203381527f3220626974730000000000000000000000000000000000000000000000000000602082015260400192915050565b6000612a15602a83612e11565b7f5361666545524332303a204552433230206f7065726174696f6e20646964206e81527f6f74207375636365656400000000000000000000000000000000000000000000602082015260400192915050565b6000612a74601f83612e11565b7f5265656e7472616e637947756172643a207265656e7472616e742063616c6c00815260200192915050565b6000612aad601f83612e11565b7f5361666545524332303a2063616c6c20746f206e6f6e2d636f6e747261637400815260200192915050565b6000612ae6602283612e11565b7f4163636f756e7473206d75737420626520736f7274656420616e6420756e697181527f7565000000000000000000000000000000000000000000000000000000000000602082015260400192915050565b6000612b448284612643565b50601701919050565b60006110da828461265d565b6000612b65828561265d565b91506120b1828461265d565b60208101610fc98284612631565b60c08101612b8d8289612622565b612b9a6020830188612631565b612ba76040830187612631565b612bb46060830186612654565b8181036080830152612bc6818561268c565b9050612bd560a0830184612654565b979650505050505050565b60408101612bee8285612631565b6110da6020830184612654565b60c08101612c098289612631565b612c166020830188612654565b612c236040830187612654565b612c30606083018661263a565b612c3d6080830185612654565b612bd560a0830184612654565b60608101612c58828661263a565b612c656020830185612654565b6120b16040830184612654565b60208101610fc98284612654565b602080825281016110da818461268c565b60208082528101610fc9816126c4565b60208082528101610fc981612723565b60208082528101610fc98161275c565b60208082528101610fc981612795565b60208082528101610fc9816127f4565b60208082528101610fc981612853565b60208082528101610fc98161288c565b60208082528101610fc9816128eb565b60208082528101610fc98161294a565b60208082528101610fc9816129a9565b60208082528101610fc981612a08565b60208082528101610fc981612a67565b60208082528101610fc981612aa0565b60208082528101610fc981612ad9565b60408101612bee8285612654565b60405181810167ffffffffffffffff81118282101715612d9e57600080fd5b604052919050565b600067ffffffffffffffff821115612dbd57600080fd5b5060209081020190565b600067ffffffffffffffff821115612dde57600080fd5b506020601f919091017fffffffffffffffffffffffffffffffffffffffffffffffffffffffffffffffe0160190565b5190565b90815260200190565b919050565b6000610fc982612e57565b151590565b7fffffffffffffffffffffffffffffffffffffffffffffff0000000000000000001690565b90565b73ffffffffffffffffffffffffffffffffffffffff1690565b6000610fc9826000610fc982612e1f565b82818337506000910152565b60005b83811015612ea8578181015183820152602001612e90565b83811115611e6e5750506000910152565b601f017fffffffffffffffffffffffffffffffffffffffffffffffffffffffffffffffe01690565b612eea81612e1f565b8114612ef557600080fd5b50565b612eea81612e2a565b612eea81612e5456fe6163636f756e7420697320756e646572636f6c6c61746572616c697a656420616e6420636f6c6c61746572616c697a6174696f6e206465637265617365646163636f756e7420697320756e646572636f6c6c61746572616c697a656420616e6420686173206e6f20706f7369746976652076616c75656163636f756e7420697320756e646572636f6c6c61746572616c697a656420616e6420706f736974696f6e206368616e676564207369676e736163636f756e7420697320756e646572636f6c6c61746572616c697a656420616e64206162736f6c75746520706f736974696f6e2073697a6520696e637265617365646163636f756e7420697320756e646572636f6c6c61746572616c697a656420616e6420776173206e6f742070726576696f75736c79a365627a7a723158205b06317f19ba9298f3d86b4243bd19713a601bd40870bf2d92d852f70ebebfec6c6578706572696d656e74616cf564736f6c63430005100040",
  "source": "/*\n\n    Copyright 2020 dYdX Trading Inc.\n\n    Licensed under the Apache License, Version 2.0 (the \"License\");\n    you may not use this file except in compliance with the License.\n    You may obtain a copy of the License at\n\n    http://www.apache.org/licenses/LICENSE-2.0\n\n    Unless required by applicable law or agreed to in writing, software\n    distributed under the License is distributed on an \"AS IS\" BASIS,\n    WITHOUT WARRANTIES OR CONDITIONS OF ANY KIND, either express or implied.\n    See the License for the specific language governing permissions and\n    limitations under the License.\n\n*/\n\npragma solidity 0.5.16;\npragma experimental ABIEncoderV2;\n\nimport { SafeMath } from \"@openzeppelin/contracts/math/SafeMath.sol\";\nimport { P1FinalSettlement } from \"./P1FinalSettlement.sol\";\nimport { BaseMath } from \"../../lib/BaseMath.sol\";\nimport { Require } from \"../../lib/Require.sol\";\nimport { I_P1Trader } from \"../intf/I_P1Trader.sol\";\nimport { P1BalanceMath } from \"../lib/P1BalanceMath.sol\";\nimport { P1Types } from \"../lib/P1Types.sol\";\n\n\n/**\n * @title P1Trade\n * @author dYdX\n *\n * @notice Contract for settling trades between two accounts. A \"trade\" in this context may refer\n *  to any approved transfer of balances, as determined by the smart contracts implementing the\n *  I_P1Trader interface and approved as global operators on the PerpetualV1 contract.\n */\ncontract P1Trade is\n    P1FinalSettlement\n{\n    using SafeMath for uint120;\n    using P1BalanceMath for P1Types.Balance;\n\n    // ============ Structs ============\n\n    struct TradeArg {\n        uint256 takerIndex;\n        uint256 makerIndex;\n        address trader;\n        bytes data;\n    }\n\n    // ============ Events ============\n\n    event LogTrade(\n        address indexed maker,\n        address indexed taker,\n        address trader,\n        uint256 marginAmount,\n        uint256 positionAmount,\n        bool isBuy, // from taker's perspective\n        bytes32 makerBalance,\n        bytes32 takerBalance\n    );\n\n    // ============ Functions ============\n\n    /**\n     * @notice Submits one or more trades between any number of accounts.\n     * @dev Emits the LogIndex event, one LogAccountSettled event for each account in `accounts`,\n     *  and the LogTrade event for each trade in `trades`.\n     *\n     * @param  accounts  The sorted list of accounts that are involved in trades.\n     * @param  trades    The list of trades to execute in-order.\n     */\n    function trade(\n        address[] memory accounts,\n        TradeArg[] memory trades\n    )\n        public\n        noFinalSettlement\n        nonReentrant\n    {\n        _verifyAccounts(accounts);\n        P1Types.Context memory context = _loadContext();\n        P1Types.Balance[] memory initialBalances = _settleAccounts(context, accounts);\n        P1Types.Balance[] memory currentBalances = new P1Types.Balance[](initialBalances.length);\n\n        uint256 i;\n        for (i = 0; i < initialBalances.length; i++) {\n            currentBalances[i] = initialBalances[i].copy();\n        }\n\n        bytes32 traderFlags = 0;\n        for (i = 0; i < trades.length; i++) {\n            TradeArg memory tradeArg = trades[i];\n\n            require(\n                _GLOBAL_OPERATORS_[tradeArg.trader],\n                \"trader is not global operator\"\n            );\n\n            address maker = accounts[tradeArg.makerIndex];\n            address taker = accounts[tradeArg.takerIndex];\n\n            P1Types.TradeResult memory tradeResult = I_P1Trader(tradeArg.trader).trade(\n                msg.sender,\n                maker,\n                taker,\n                context.price,\n                tradeArg.data,\n                traderFlags\n            );\n\n            traderFlags |= tradeResult.traderFlags;\n\n            // If the accounts are equal, no need to update balances.\n            if (maker == taker) {\n                continue;\n            }\n\n            // Modify currentBalances in-place. Note that `isBuy` is from the taker's perspective.\n            P1Types.Balance memory makerBalance = currentBalances[tradeArg.makerIndex];\n            P1Types.Balance memory takerBalance = currentBalances[tradeArg.takerIndex];\n            if (tradeResult.isBuy) {\n                makerBalance.addToMargin(tradeResult.marginAmount);\n                makerBalance.subFromPosition(tradeResult.positionAmount);\n                takerBalance.subFromMargin(tradeResult.marginAmount);\n                takerBalance.addToPosition(tradeResult.positionAmount);\n            } else {\n                makerBalance.subFromMargin(tradeResult.marginAmount);\n                makerBalance.addToPosition(tradeResult.positionAmount);\n                takerBalance.addToMargin(tradeResult.marginAmount);\n                takerBalance.subFromPosition(tradeResult.positionAmount);\n            }\n\n            // Store the new balances in storage.\n            _BALANCES_[maker] = makerBalance;\n            _BALANCES_[taker] = takerBalance;\n\n            emit LogTrade(\n                maker,\n                taker,\n                tradeArg.trader,\n                tradeResult.marginAmount,\n                tradeResult.positionAmount,\n                tradeResult.isBuy,\n                makerBalance.toBytes32(),\n                takerBalance.toBytes32()\n            );\n        }\n\n        _verifyAccountsFinalBalances(\n            context,\n            accounts,\n            initialBalances,\n            currentBalances\n        );\n    }\n\n    /**\n     * @dev Verify that `accounts` contains at least one address and that the contents are unique.\n     *  We verify uniqueness by requiring that the array is sorted.\n     */\n    function _verifyAccounts(\n        address[] memory accounts\n    )\n        private\n        pure\n    {\n        require(\n            accounts.length > 0,\n            \"Accounts must have non-zero length\"\n        );\n\n        // Check that accounts are unique\n        address prevAccount = accounts[0];\n        for (uint256 i = 1; i < accounts.length; i++) {\n            address account = accounts[i];\n            require(\n                account > prevAccount,\n                \"Accounts must be sorted and unique\"\n            );\n            prevAccount = account;\n        }\n    }\n\n    /**\n     * Verify that account balances at the end of the tx are allowable given the initial balances.\n     *\n     * We require that for every account, either:\n     * 1. The account meets the collateralization requirement; OR\n     * 2. All of the following are true:\n     *   a) The absolute value of the account position has not increased;\n     *   b) The sign of the account position has not flipped positive to negative or vice-versa.\n     *   c) The account's collateralization ratio has not worsened;\n     */\n    function _verifyAccountsFinalBalances(\n        P1Types.Context memory context,\n        address[] memory accounts,\n        P1Types.Balance[] memory initialBalances,\n        P1Types.Balance[] memory currentBalances\n    )\n        private\n        pure\n    {\n        for (uint256 i = 0; i < accounts.length; i++) {\n            P1Types.Balance memory currentBalance = currentBalances[i];\n            (uint256 currentPos, uint256 currentNeg) =\n                currentBalance.getPositiveAndNegativeValue(context.price);\n\n            // See P1Settlement._isCollateralized().\n            bool isCollateralized =\n                currentPos.mul(BaseMath.base()) >= currentNeg.mul(context.minCollateral);\n\n            if (isCollateralized) {\n                continue;\n            }\n\n            address account = accounts[i];\n            P1Types.Balance memory initialBalance = initialBalances[i];\n            (uint256 initialPos, uint256 initialNeg) =\n                initialBalance.getPositiveAndNegativeValue(context.price);\n\n            Require.that(\n                currentPos != 0,\n                \"account is undercollateralized and has no positive value\",\n                account\n            );\n            Require.that(\n                currentBalance.position <= initialBalance.position,\n                \"account is undercollateralized and absolute position size increased\",\n                account\n            );\n\n            // Note that currentBalance.position can't be zero at this point since that would imply\n            // either currentPos is zero or the account is well-collateralized.\n\n            Require.that(\n                currentBalance.positionIsPositive == initialBalance.positionIsPositive,\n                \"account is undercollateralized and position changed signs\",\n                account\n            );\n            Require.that(\n                initialNeg != 0,\n                \"account is undercollateralized and was not previously\",\n                account\n            );\n\n            // Note that at this point:\n            //   Absolute position size must have decreased and not changed signs.\n            //   Initial margin/position must be one of -/-, -/+, or +/-.\n            //   Current margin/position must now be either -/+ or +/-.\n            //\n            // Which implies one of the following [intial] -> [current] configurations:\n            //   [-/-] -> [+/-]\n            //   [-/+] -> [-/+]\n            //   [+/-] -> [+/-]\n\n            // Check that collateralization increased.\n            // In the case of [-/-] initial, initialPos == 0 so the following will pass. Otherwise:\n            // at this point, either initialNeg and currentNeg represent the margin values, or\n            // initialPos and currentPos do. Since the margin is multiplied by the base value in\n            // getPositiveAndNegativeValue(), it is safe to use baseDivMul() to divide the margin\n            // without any rounding. This is important to avoid the possibility of overflow.\n            Require.that(\n                currentBalance.positionIsPositive\n                    ? currentNeg.baseDivMul(initialPos) <= initialNeg.baseDivMul(currentPos)\n                    : initialPos.baseDivMul(currentNeg) <= currentPos.baseDivMul(initialNeg),\n                \"account is undercollateralized and collateralization decreased\",\n                account\n            );\n        }\n    }\n}\n",
  "sourcePath": "/Users/dennismacpro/Projects/Defi/Ethereum-Solidity-Collection/icarus-protocol/defi-seeder/.tmp/dydx-protocol/perpetual/contracts/protocol/v1/impl/P1Trade.sol",
  "compiler": {
    "name": "solc",
    "version": "0.5.16+commit.9c3226ce.Linux.g++"
  },
  "schemaVersion": "3.3.4",
  "updatedAt": "2021-04-01T16:42:57.389Z",
  "devdoc": {
    "author": "dYdX",
    "methods": {
      "getAdmin()": {
        "return": "The EIP-1967 proxy admin"
      },
      "trade(address[],(uint256,uint256,address,bytes)[])": {
        "details": "Emits the LogIndex event, one LogAccountSettled event for each account in `accounts`, and the LogTrade event for each trade in `trades`.",
        "params": {
          "accounts": "The sorted list of accounts that are involved in trades.",
          "trades": "The list of trades to execute in-order."
        }
      },
      "withdrawFinalSettlement()": {
        "details": "Emits the LogAccountSettled and LogWithdrawFinalSettlement events."
      }
    },
    "title": "P1Trade"
  },
  "userdoc": {
    "methods": {
      "trade(address[],(uint256,uint256,address,bytes)[])": {
        "notice": "Submits one or more trades between any number of accounts."
      },
      "withdrawFinalSettlement()": {
        "notice": "Withdraw the number of margin tokens equal to the value of the account at the time that final settlement occurred."
      }
    },
    "notice": "Contract for settling trades between two accounts. A \"trade\" in this context may refer to any approved transfer of balances, as determined by the smart contracts implementing the I_P1Trader interface and approved as global operators on the PerpetualV1 contract."
  }
}