{
  "contractName": "P1WethProxy",
  "abi": [
    {
      "inputs": [
        {
          "internalType": "address payable",
          "name": "weth",
          "type": "address"
        }
      ],
      "payable": false,
      "stateMutability": "nonpayable",
      "type": "constructor"
    },
    {
      "payable": true,
      "stateMutability": "payable",
      "type": "fallback"
    },
    {
      "constant": true,
      "inputs": [],
      "name": "_WETH_",
      "outputs": [
        {
          "internalType": "contract WETH9",
          "name": "",
          "type": "address"
        }
      ],
      "payable": false,
      "stateMutability": "view",
      "type": "function"
    },
    {
      "constant": false,
      "inputs": [
        {
          "internalType": "address",
          "name": "perpetual",
          "type": "address"
        }
      ],
      "name": "approveMaximumOnPerpetual",
      "outputs": [],
      "payable": false,
      "stateMutability": "nonpayable",
      "type": "function"
    },
    {
      "constant": false,
      "inputs": [
        {
          "internalType": "address",
          "name": "perpetual",
          "type": "address"
        },
        {
          "internalType": "address",
          "name": "account",
          "type": "address"
        }
      ],
      "name": "depositEth",
      "outputs": [],
      "payable": true,
      "stateMutability": "payable",
      "type": "function"
    },
    {
      "constant": false,
      "inputs": [
        {
          "internalType": "address",
          "name": "perpetual",
          "type": "address"
        },
        {
          "internalType": "address",
          "name": "account",
          "type": "address"
        },
        {
          "internalType": "address payable",
          "name": "destination",
          "type": "address"
        },
        {
          "internalType": "uint256",
          "name": "amount",
          "type": "uint256"
        }
      ],
      "name": "withdrawEth",
      "outputs": [],
      "payable": false,
      "stateMutability": "nonpayable",
      "type": "function"
    }
  ],
  "bytecode": "0x60806040523480156200001157600080fd5b506040516200141538038062001415833981016040819052620000349162000072565b6001600081905580546001600160a01b0319166001600160a01b0392909216919091179055620000c7565b80516200006c81620000ad565b92915050565b6000602082840312156200008557600080fd5b60006200009384846200005f565b949350505050565b60006001600160a01b0382166200006c565b620000b8816200009b565b8114620000c457600080fd5b50565b61133e80620000d76000396000f3fe60806040526004361061003f5760003560e01c80630d4eec8f1461009b5780631e04e856146100c6578063f2f938dc146100d9578063fe0f8858146100f9575b60015473ffffffffffffffffffffffffffffffffffffffff163314610099576040517f08c379a0000000000000000000000000000000000000000000000000000000008152600401610090906111c8565b60405180910390fd5b005b3480156100a757600080fd5b506100b0610119565b6040516100bd91906111ba565b60405180910390f35b6100996100d4366004610d90565b610135565b3480156100e557600080fd5b506100996100f4366004610dca565b61045f565b34801561010557600080fd5b50610099610114366004610d54565b6108ed565b60015473ffffffffffffffffffffffffffffffffffffffff1681565b7fffffffffffffffffffffffffffffffffffffffffffffffffffffffffffffffff6000541415610191576040517f08c379a000000000000000000000000000000000000000000000000000000000815260040161009090611218565b7fffffffffffffffffffffffffffffffffffffffffffffffffffffffffffffffff6000908155600154604080517f28b7bede000000000000000000000000000000000000000000000000000000008152905173ffffffffffffffffffffffffffffffffffffffff92831693928616916328b7bede916004808301926020929190829003018186803b15801561022557600080fd5b505afa158015610239573d6000803e3d6000fd5b505050506040513d601f19601f8201168201806040525061025d9190810190610d72565b90508173ffffffffffffffffffffffffffffffffffffffff168173ffffffffffffffffffffffffffffffffffffffff16146102c4576040517f08c379a0000000000000000000000000000000000000000000000000000000008152600401610090906111f8565b8173ffffffffffffffffffffffffffffffffffffffff1663d0e30db0346040518263ffffffff1660e01b81526004016000604051808303818588803b15801561030c57600080fd5b505af1158015610320573d6000803e3d6000fd5b50506040517f70a082310000000000000000000000000000000000000000000000000000000081526000935073ffffffffffffffffffffffffffffffffffffffff861692506370a08231915061037a903090600401611133565b60206040518083038186803b15801561039257600080fd5b505afa1580156103a6573d6000803e3d6000fd5b505050506040513d601f19601f820116820180604052506103ca9190810190610e49565b6040517f47e7ef2400000000000000000000000000000000000000000000000000000000815290915073ffffffffffffffffffffffffffffffffffffffff8616906347e7ef2490610421908790859060040161119f565b600060405180830381600087803b15801561043b57600080fd5b505af115801561044f573d6000803e3d6000fd5b5050600160005550505050505050565b7fffffffffffffffffffffffffffffffffffffffffffffffffffffffffffffffff60005414156104bb576040517f08c379a000000000000000000000000000000000000000000000000000000000815260040161009090611218565b7fffffffffffffffffffffffffffffffffffffffffffffffffffffffffffffffff6000908155600154604080517f28b7bede000000000000000000000000000000000000000000000000000000008152905173ffffffffffffffffffffffffffffffffffffffff92831693928816916328b7bede916004808301926020929190829003018186803b15801561054f57600080fd5b505afa158015610563573d6000803e3d6000fd5b505050506040513d601f19601f820116820180604052506105879190810190610d72565b90508173ffffffffffffffffffffffffffffffffffffffff168173ffffffffffffffffffffffffffffffffffffffff16146105ee576040517f08c379a0000000000000000000000000000000000000000000000000000000008152600401610090906111f8565b3373ffffffffffffffffffffffffffffffffffffffff861614806106b157506040517f84ea286200000000000000000000000000000000000000000000000000000000815273ffffffffffffffffffffffffffffffffffffffff8716906384ea286290610661908890339060040161115c565b60206040518083038186803b15801561067957600080fd5b505afa15801561068d573d6000803e3d6000fd5b505050506040513d601f19601f820116820180604052506106b19190810190610e2b565b6106e7576040517f08c379a0000000000000000000000000000000000000000000000000000000008152600401610090906111e8565b6040517fd9caed1200000000000000000000000000000000000000000000000000000000815273ffffffffffffffffffffffffffffffffffffffff87169063d9caed129061073d90889030908890600401611177565b600060405180830381600087803b15801561075757600080fd5b505af115801561076b573d6000803e3d6000fd5b50506040517f70a082310000000000000000000000000000000000000000000000000000000081526000925073ffffffffffffffffffffffffffffffffffffffff851691506370a08231906107c4903090600401611133565b60206040518083038186803b1580156107dc57600080fd5b505afa1580156107f0573d6000803e3d6000fd5b505050506040513d601f19601f820116820180604052506108149190810190610e49565b6040517f2e1a7d4d00000000000000000000000000000000000000000000000000000000815290915073ffffffffffffffffffffffffffffffffffffffff841690632e1a7d4d90610869908490600401611248565b600060405180830381600087803b15801561088357600080fd5b505af1158015610897573d6000803e3d6000fd5b505060405173ffffffffffffffffffffffffffffffffffffffff8816925083156108fc02915083906000818181858888f193505050501580156108de573d6000803e3d6000fd5b50506001600055505050505050565b60008173ffffffffffffffffffffffffffffffffffffffff166328b7bede6040518163ffffffff1660e01b815260040160206040518083038186803b15801561093557600080fd5b505afa158015610949573d6000803e3d6000fd5b505050506040513d601f19601f8201168201806040525061096d9190810190610d72565b905061099773ffffffffffffffffffffffffffffffffffffffff821683600063ffffffff6109e216565b6109de73ffffffffffffffffffffffffffffffffffffffff8216837fffffffffffffffffffffffffffffffffffffffffffffffffffffffffffffffff63ffffffff6109e216565b5050565b801580610a9057506040517fdd62ed3e00000000000000000000000000000000000000000000000000000000815273ffffffffffffffffffffffffffffffffffffffff84169063dd62ed3e90610a3e9030908690600401611141565b60206040518083038186803b158015610a5657600080fd5b505afa158015610a6a573d6000803e3d6000fd5b505050506040513d601f19601f82011682018060405250610a8e9190810190610e49565b155b610ac6576040517f08c379a000000000000000000000000000000000000000000000000000000000815260040161009090611228565b604051610b839084907f095ea7b30000000000000000000000000000000000000000000000000000000090610b01908690869060240161119f565b604080517fffffffffffffffffffffffffffffffffffffffffffffffffffffffffffffffe08184030181529190526020810180517bffffffffffffffffffffffffffffffffffffffffffffffffffffffff167fffffffff0000000000000000000000000000000000000000000000000000000090931692909217909152610b88565b505050565b610ba78273ffffffffffffffffffffffffffffffffffffffff16610cdb565b610bdd576040517f08c379a000000000000000000000000000000000000000000000000000000000815260040161009090611238565b600060608373ffffffffffffffffffffffffffffffffffffffff1683604051610c069190611120565b6000604051808303816000865af19150503d8060008114610c43576040519150601f19603f3d011682016040523d82523d6000602084013e610c48565b606091505b509150915081610c84576040517f08c379a0000000000000000000000000000000000000000000000000000000008152600401610090906111d8565b805115610cd55780806020019051610c9f9190810190610e2b565b610cd5576040517f08c379a000000000000000000000000000000000000000000000000000000000815260040161009090611208565b50505050565b6000813f7fc5d2460186f7233c927e7db2dcc703c0e500b653ca82273b7bfad8045d85a470818114801590610d0f57508115155b949350505050565b8035610d22816112d2565b92915050565b8051610d22816112d2565b8051610d22816112e9565b8035610d22816112f2565b8051610d22816112f2565b600060208284031215610d6657600080fd5b6000610d0f8484610d17565b600060208284031215610d8457600080fd5b6000610d0f8484610d28565b60008060408385031215610da357600080fd5b6000610daf8585610d17565b9250506020610dc085828601610d17565b9150509250929050565b60008060008060808587031215610de057600080fd5b6000610dec8787610d17565b9450506020610dfd87828801610d17565b9350506040610e0e87828801610d17565b9250506060610e1f87828801610d3e565b91505092959194509250565b600060208284031215610e3d57600080fd5b6000610d0f8484610d33565b600060208284031215610e5b57600080fd5b6000610d0f8484610d49565b610e7081611294565b82525050565b610e7081611268565b6000610e8a82611256565b610e94818561125a565b9350610ea48185602086016112a6565b9290920192915050565b610e708161129b565b6000610ec460128361125f565b7f43616e6e6f742072656365697665204554480000000000000000000000000000815260200192915050565b6000610efd60208361125f565b7f5361666545524332303a206c6f772d6c6576656c2063616c6c206661696c6564815260200192915050565b6000610f3660398361125f565b7f53656e64657220646f6573206e6f74206861766520776974686472617720706581527f726d697373696f6e7320666f7220746865206163636f756e7400000000000000602082015260400192915050565b6000610f9560338361125f565b7f5468652070657270657475616c20646f6573206e6f742075736520574554482081527f666f72206d617267696e206465706f7369747300000000000000000000000000602082015260400192915050565b6000610ff4602a8361125f565b7f5361666545524332303a204552433230206f7065726174696f6e20646964206e81527f6f74207375636365656400000000000000000000000000000000000000000000602082015260400192915050565b6000611053601f8361125f565b7f5265656e7472616e637947756172643a207265656e7472616e742063616c6c00815260200192915050565b600061108c60368361125f565b7f5361666545524332303a20617070726f76652066726f6d206e6f6e2d7a65726f81527f20746f206e6f6e2d7a65726f20616c6c6f77616e636500000000000000000000602082015260400192915050565b60006110eb601f8361125f565b7f5361666545524332303a2063616c6c20746f206e6f6e2d636f6e747261637400815260200192915050565b610e7081611291565b600061112c8284610e7f565b9392505050565b60208101610d228284610e67565b6040810161114f8285610e76565b61112c6020830184610e76565b6040810161116a8285610e76565b61112c6020830184610e67565b606081016111858286610e76565b6111926020830185610e67565b610d0f6040830184611117565b604081016111ad8285610e76565b61112c6020830184611117565b60208101610d228284610eae565b60208082528101610d2281610eb7565b60208082528101610d2281610ef0565b60208082528101610d2281610f29565b60208082528101610d2281610f88565b60208082528101610d2281610fe7565b60208082528101610d2281611046565b60208082528101610d228161107f565b60208082528101610d22816110de565b60208101610d228284611117565b5190565b919050565b90815260200190565b6000610d2282611278565b151590565b73ffffffffffffffffffffffffffffffffffffffff1690565b90565b6000610d22825b6000610d2282611268565b60005b838110156112c15781810151838201526020016112a9565b83811115610cd55750506000910152565b6112db81611268565b81146112e657600080fd5b50565b6112db81611273565b6112db8161129156fea365627a7a723158204fff3aeda776b0b0a11ec759425f5789fa1e10d9b22cd30a0ee3d2fedf071da96c6578706572696d656e74616cf564736f6c63430005100040",
  "source": "/*\n\n    Copyright 2020 dYdX Trading Inc.\n\n    Licensed under the Apache License, Version 2.0 (the \"License\");\n    you may not use this file except in compliance with the License.\n    You may obtain a copy of the License at\n\n    http://www.apache.org/licenses/LICENSE-2.0\n\n    Unless required by applicable law or agreed to in writing, software\n    distributed under the License is distributed on an \"AS IS\" BASIS,\n    WITHOUT WARRANTIES OR CONDITIONS OF ANY KIND, either express or implied.\n    See the License for the specific language governing permissions and\n    limitations under the License.\n\n*/\n\npragma solidity 0.5.16;\npragma experimental ABIEncoderV2;\n\nimport { WETH9 } from \"canonical-weth/contracts/WETH9.sol\";\nimport { P1Proxy } from \"./P1Proxy.sol\";\nimport { ReentrancyGuard } from \"../../lib/ReentrancyGuard.sol\";\nimport { I_PerpetualV1 } from \"../intf/I_PerpetualV1.sol\";\n\n\n/**\n * @title P1WethProxy\n * @author dYdX\n *\n * @notice A proxy for depositing and withdrawing ETH to/from a Perpetual contract that uses WETH as\n *  its margin token. The ETH will be wrapper and unwrapped by the proxy.\n */\ncontract P1WethProxy is\n    P1Proxy,\n    ReentrancyGuard\n{\n    // ============ Storage ============\n\n    WETH9 public _WETH_;\n\n    // ============ Constructor ============\n\n    constructor (\n        address payable weth\n    )\n        public\n    {\n        _WETH_ = WETH9(weth);\n    }\n\n    // ============ External Functions ============\n\n    /**\n     * Fallback function. Disallows ether to be sent to this contract without data except when\n     * unwrapping WETH.\n     */\n    function ()\n        external\n        payable\n    {\n        require(\n            msg.sender == address(_WETH_),\n            \"Cannot receive ETH\"\n        );\n    }\n\n    /**\n     * @notice Deposit ETH into a Perpetual, by first wrapping it as WETH. Any ETH paid to this\n     *  function will be converted and deposited.\n     *\n     * @param  perpetual  Address of the Perpetual contract to deposit to.\n     * @param  account    The account on the Perpetual for which to credit the deposit.\n     */\n    function depositEth(\n        address perpetual,\n        address account\n    )\n        external\n        payable\n        nonReentrant\n    {\n        WETH9 weth = _WETH_;\n        address marginToken = I_PerpetualV1(perpetual).getTokenContract();\n        require(\n            marginToken == address(weth),\n            \"The perpetual does not use WETH for margin deposits\"\n        );\n\n        // Wrap ETH.\n        weth.deposit.value(msg.value)();\n\n        // Deposit all WETH into the perpetual.\n        uint256 amount = weth.balanceOf(address(this));\n        I_PerpetualV1(perpetual).deposit(account, amount);\n    }\n\n    /**\n     * @notice Withdraw ETH from a Perpetual, by first withdrawing and unwrapping WETH.\n     *\n     * @param  perpetual    Address of the Perpetual contract to withdraw from.\n     * @param  account      The account on the Perpetual to withdraw from.\n     * @param  destination  The address to send the withdrawn ETH to.\n     * @param  amount       The amount of ETH/WETH to withdraw.\n     */\n    function withdrawEth(\n        address perpetual,\n        address account,\n        address payable destination,\n        uint256 amount\n    )\n        external\n        nonReentrant\n    {\n        WETH9 weth = _WETH_;\n        address marginToken = I_PerpetualV1(perpetual).getTokenContract();\n        require(\n            marginToken == address(weth),\n            \"The perpetual does not use WETH for margin deposits\"\n        );\n\n        require(\n            // Short-circuit if sender is the account owner.\n            msg.sender == account ||\n                I_PerpetualV1(perpetual).hasAccountPermissions(account, msg.sender),\n            \"Sender does not have withdraw permissions for the account\"\n        );\n\n        // Withdraw WETH from the perpetual.\n        I_PerpetualV1(perpetual).withdraw(account, address(this), amount);\n\n        // Unwrap all WETH and send it as ETH to the provided destination.\n        uint256 balance = weth.balanceOf(address(this));\n        weth.withdraw(balance);\n        destination.transfer(balance);\n    }\n}\n",
  "sourcePath": "/Users/dennismacpro/Projects/Defi/Ethereum-Solidity-Collection/icarus-protocol/defi-seeder/.tmp/dydx-protocol/perpetual/contracts/protocol/v1/proxies/P1WethProxy.sol",
  "compiler": {
    "name": "solc",
    "version": "0.5.16+commit.9c3226ce.Linux.g++"
  },
  "schemaVersion": "3.3.4",
  "updatedAt": "2021-04-01T16:42:57.444Z",
  "devdoc": {
    "author": "dYdX",
    "methods": {
      "approveMaximumOnPerpetual(address)": {
        "details": "Cannot be run in the constructor due to technical restrictions in Solidity."
      },
      "depositEth(address,address)": {
        "params": {
          "account": "The account on the Perpetual for which to credit the deposit.",
          "perpetual": "Address of the Perpetual contract to deposit to."
        }
      },
      "withdrawEth(address,address,address,uint256)": {
        "params": {
          "account": "The account on the Perpetual to withdraw from.",
          "amount": "The amount of ETH/WETH to withdraw.",
          "destination": "The address to send the withdrawn ETH to.",
          "perpetual": "Address of the Perpetual contract to withdraw from."
        }
      }
    },
    "title": "P1WethProxy"
  },
  "userdoc": {
    "methods": {
      "approveMaximumOnPerpetual(address)": {
        "notice": "Sets the maximum allowance on the Perpetual contract. Must be called at least once on a given Perpetual before deposits can be made."
      },
      "depositEth(address,address)": {
        "notice": "Deposit ETH into a Perpetual, by first wrapping it as WETH. Any ETH paid to this function will be converted and deposited."
      },
      "withdrawEth(address,address,address,uint256)": {
        "notice": "Withdraw ETH from a Perpetual, by first withdrawing and unwrapping WETH."
      }
    },
    "notice": "A proxy for depositing and withdrawing ETH to/from a Perpetual contract that uses WETH as its margin token. The ETH will be wrapper and unwrapped by the proxy."
  }
}