{
  "contractName": "PerpetualV1",
  "abi": [
    {
      "anonymous": false,
      "inputs": [
        {
          "indexed": true,
          "internalType": "address",
          "name": "account",
          "type": "address"
        },
        {
          "indexed": false,
          "internalType": "bool",
          "name": "isPositive",
          "type": "bool"
        },
        {
          "indexed": false,
          "internalType": "uint256",
          "name": "amount",
          "type": "uint256"
        },
        {
          "indexed": false,
          "internalType": "bytes32",
          "name": "balance",
          "type": "bytes32"
        }
      ],
      "name": "LogAccountSettled",
      "type": "event"
    },
    {
      "anonymous": false,
      "inputs": [
        {
          "indexed": true,
          "internalType": "address",
          "name": "account",
          "type": "address"
        },
        {
          "indexed": false,
          "internalType": "uint256",
          "name": "amount",
          "type": "uint256"
        },
        {
          "indexed": false,
          "internalType": "bytes32",
          "name": "balance",
          "type": "bytes32"
        }
      ],
      "name": "LogDeposit",
      "type": "event"
    },
    {
      "anonymous": false,
      "inputs": [
        {
          "indexed": false,
          "internalType": "uint256",
          "name": "settlementPrice",
          "type": "uint256"
        }
      ],
      "name": "LogFinalSettlementEnabled",
      "type": "event"
    },
    {
      "anonymous": false,
      "inputs": [
        {
          "indexed": false,
          "internalType": "bytes32",
          "name": "index",
          "type": "bytes32"
        }
      ],
      "name": "LogIndex",
      "type": "event"
    },
    {
      "anonymous": false,
      "inputs": [
        {
          "indexed": false,
          "internalType": "address",
          "name": "funder",
          "type": "address"
        }
      ],
      "name": "LogSetFunder",
      "type": "event"
    },
    {
      "anonymous": false,
      "inputs": [
        {
          "indexed": false,
          "internalType": "address",
          "name": "operator",
          "type": "address"
        },
        {
          "indexed": false,
          "internalType": "bool",
          "name": "approved",
          "type": "bool"
        }
      ],
      "name": "LogSetGlobalOperator",
      "type": "event"
    },
    {
      "anonymous": false,
      "inputs": [
        {
          "indexed": true,
          "internalType": "address",
          "name": "sender",
          "type": "address"
        },
        {
          "indexed": false,
          "internalType": "address",
          "name": "operator",
          "type": "address"
        },
        {
          "indexed": false,
          "internalType": "bool",
          "name": "approved",
          "type": "bool"
        }
      ],
      "name": "LogSetLocalOperator",
      "type": "event"
    },
    {
      "anonymous": false,
      "inputs": [
        {
          "indexed": false,
          "internalType": "uint256",
          "name": "minCollateral",
          "type": "uint256"
        }
      ],
      "name": "LogSetMinCollateral",
      "type": "event"
    },
    {
      "anonymous": false,
      "inputs": [
        {
          "indexed": false,
          "internalType": "address",
          "name": "oracle",
          "type": "address"
        }
      ],
      "name": "LogSetOracle",
      "type": "event"
    },
    {
      "anonymous": false,
      "inputs": [
        {
          "indexed": true,
          "internalType": "address",
          "name": "maker",
          "type": "address"
        },
        {
          "indexed": true,
          "internalType": "address",
          "name": "taker",
          "type": "address"
        },
        {
          "indexed": false,
          "internalType": "address",
          "name": "trader",
          "type": "address"
        },
        {
          "indexed": false,
          "internalType": "uint256",
          "name": "marginAmount",
          "type": "uint256"
        },
        {
          "indexed": false,
          "internalType": "uint256",
          "name": "positionAmount",
          "type": "uint256"
        },
        {
          "indexed": false,
          "internalType": "bool",
          "name": "isBuy",
          "type": "bool"
        },
        {
          "indexed": false,
          "internalType": "bytes32",
          "name": "makerBalance",
          "type": "bytes32"
        },
        {
          "indexed": false,
          "internalType": "bytes32",
          "name": "takerBalance",
          "type": "bytes32"
        }
      ],
      "name": "LogTrade",
      "type": "event"
    },
    {
      "anonymous": false,
      "inputs": [
        {
          "indexed": true,
          "internalType": "address",
          "name": "account",
          "type": "address"
        },
        {
          "indexed": false,
          "internalType": "address",
          "name": "destination",
          "type": "address"
        },
        {
          "indexed": false,
          "internalType": "uint256",
          "name": "amount",
          "type": "uint256"
        },
        {
          "indexed": false,
          "internalType": "bytes32",
          "name": "balance",
          "type": "bytes32"
        }
      ],
      "name": "LogWithdraw",
      "type": "event"
    },
    {
      "anonymous": false,
      "inputs": [
        {
          "indexed": true,
          "internalType": "address",
          "name": "account",
          "type": "address"
        },
        {
          "indexed": false,
          "internalType": "uint256",
          "name": "amount",
          "type": "uint256"
        },
        {
          "indexed": false,
          "internalType": "bytes32",
          "name": "balance",
          "type": "bytes32"
        }
      ],
      "name": "LogWithdrawFinalSettlement",
      "type": "event"
    },
    {
      "constant": false,
      "inputs": [
        {
          "internalType": "address",
          "name": "account",
          "type": "address"
        },
        {
          "internalType": "uint256",
          "name": "amount",
          "type": "uint256"
        }
      ],
      "name": "deposit",
      "outputs": [],
      "payable": false,
      "stateMutability": "nonpayable",
      "type": "function"
    },
    {
      "constant": false,
      "inputs": [
        {
          "internalType": "uint256",
          "name": "priceLowerBound",
          "type": "uint256"
        },
        {
          "internalType": "uint256",
          "name": "priceUpperBound",
          "type": "uint256"
        }
      ],
      "name": "enableFinalSettlement",
      "outputs": [],
      "payable": false,
      "stateMutability": "nonpayable",
      "type": "function"
    },
    {
      "constant": true,
      "inputs": [
        {
          "internalType": "address",
          "name": "account",
          "type": "address"
        }
      ],
      "name": "getAccountBalance",
      "outputs": [
        {
          "components": [
            {
              "internalType": "bool",
              "name": "marginIsPositive",
              "type": "bool"
            },
            {
              "internalType": "bool",
              "name": "positionIsPositive",
              "type": "bool"
            },
            {
              "internalType": "uint120",
              "name": "margin",
              "type": "uint120"
            },
            {
              "internalType": "uint120",
              "name": "position",
              "type": "uint120"
            }
          ],
          "internalType": "struct P1Types.Balance",
          "name": "",
          "type": "tuple"
        }
      ],
      "payable": false,
      "stateMutability": "view",
      "type": "function"
    },
    {
      "constant": true,
      "inputs": [
        {
          "internalType": "address",
          "name": "account",
          "type": "address"
        }
      ],
      "name": "getAccountIndex",
      "outputs": [
        {
          "components": [
            {
              "internalType": "uint32",
              "name": "timestamp",
              "type": "uint32"
            },
            {
              "internalType": "bool",
              "name": "isPositive",
              "type": "bool"
            },
            {
              "internalType": "uint128",
              "name": "value",
              "type": "uint128"
            }
          ],
          "internalType": "struct P1Types.Index",
          "name": "",
          "type": "tuple"
        }
      ],
      "payable": false,
      "stateMutability": "view",
      "type": "function"
    },
    {
      "constant": true,
      "inputs": [],
      "name": "getAdmin",
      "outputs": [
        {
          "internalType": "address",
          "name": "",
          "type": "address"
        }
      ],
      "payable": false,
      "stateMutability": "view",
      "type": "function"
    },
    {
      "constant": true,
      "inputs": [],
      "name": "getFinalSettlementEnabled",
      "outputs": [
        {
          "internalType": "bool",
          "name": "",
          "type": "bool"
        }
      ],
      "payable": false,
      "stateMutability": "view",
      "type": "function"
    },
    {
      "constant": true,
      "inputs": [],
      "name": "getFunderContract",
      "outputs": [
        {
          "internalType": "address",
          "name": "",
          "type": "address"
        }
      ],
      "payable": false,
      "stateMutability": "view",
      "type": "function"
    },
    {
      "constant": true,
      "inputs": [],
      "name": "getGlobalIndex",
      "outputs": [
        {
          "components": [
            {
              "internalType": "uint32",
              "name": "timestamp",
              "type": "uint32"
            },
            {
              "internalType": "bool",
              "name": "isPositive",
              "type": "bool"
            },
            {
              "internalType": "uint128",
              "name": "value",
              "type": "uint128"
            }
          ],
          "internalType": "struct P1Types.Index",
          "name": "",
          "type": "tuple"
        }
      ],
      "payable": false,
      "stateMutability": "view",
      "type": "function"
    },
    {
      "constant": true,
      "inputs": [
        {
          "internalType": "address",
          "name": "operator",
          "type": "address"
        }
      ],
      "name": "getIsGlobalOperator",
      "outputs": [
        {
          "internalType": "bool",
          "name": "",
          "type": "bool"
        }
      ],
      "payable": false,
      "stateMutability": "view",
      "type": "function"
    },
    {
      "constant": true,
      "inputs": [
        {
          "internalType": "address",
          "name": "account",
          "type": "address"
        },
        {
          "internalType": "address",
          "name": "operator",
          "type": "address"
        }
      ],
      "name": "getIsLocalOperator",
      "outputs": [
        {
          "internalType": "bool",
          "name": "",
          "type": "bool"
        }
      ],
      "payable": false,
      "stateMutability": "view",
      "type": "function"
    },
    {
      "constant": true,
      "inputs": [],
      "name": "getMinCollateral",
      "outputs": [
        {
          "internalType": "uint256",
          "name": "",
          "type": "uint256"
        }
      ],
      "payable": false,
      "stateMutability": "view",
      "type": "function"
    },
    {
      "constant": true,
      "inputs": [],
      "name": "getOracleContract",
      "outputs": [
        {
          "internalType": "address",
          "name": "",
          "type": "address"
        }
      ],
      "payable": false,
      "stateMutability": "view",
      "type": "function"
    },
    {
      "constant": true,
      "inputs": [],
      "name": "getOraclePrice",
      "outputs": [
        {
          "internalType": "uint256",
          "name": "",
          "type": "uint256"
        }
      ],
      "payable": false,
      "stateMutability": "view",
      "type": "function"
    },
    {
      "constant": true,
      "inputs": [],
      "name": "getTokenContract",
      "outputs": [
        {
          "internalType": "address",
          "name": "",
          "type": "address"
        }
      ],
      "payable": false,
      "stateMutability": "view",
      "type": "function"
    },
    {
      "constant": true,
      "inputs": [
        {
          "internalType": "address",
          "name": "account",
          "type": "address"
        },
        {
          "internalType": "address",
          "name": "operator",
          "type": "address"
        }
      ],
      "name": "hasAccountPermissions",
      "outputs": [
        {
          "internalType": "bool",
          "name": "",
          "type": "bool"
        }
      ],
      "payable": false,
      "stateMutability": "view",
      "type": "function"
    },
    {
      "constant": false,
      "inputs": [
        {
          "internalType": "address",
          "name": "funder",
          "type": "address"
        }
      ],
      "name": "setFunder",
      "outputs": [],
      "payable": false,
      "stateMutability": "nonpayable",
      "type": "function"
    },
    {
      "constant": false,
      "inputs": [
        {
          "internalType": "address",
          "name": "operator",
          "type": "address"
        },
        {
          "internalType": "bool",
          "name": "approved",
          "type": "bool"
        }
      ],
      "name": "setGlobalOperator",
      "outputs": [],
      "payable": false,
      "stateMutability": "nonpayable",
      "type": "function"
    },
    {
      "constant": false,
      "inputs": [
        {
          "internalType": "address",
          "name": "operator",
          "type": "address"
        },
        {
          "internalType": "bool",
          "name": "approved",
          "type": "bool"
        }
      ],
      "name": "setLocalOperator",
      "outputs": [],
      "payable": false,
      "stateMutability": "nonpayable",
      "type": "function"
    },
    {
      "constant": false,
      "inputs": [
        {
          "internalType": "uint256",
          "name": "minCollateral",
          "type": "uint256"
        }
      ],
      "name": "setMinCollateral",
      "outputs": [],
      "payable": false,
      "stateMutability": "nonpayable",
      "type": "function"
    },
    {
      "constant": false,
      "inputs": [
        {
          "internalType": "address",
          "name": "oracle",
          "type": "address"
        }
      ],
      "name": "setOracle",
      "outputs": [],
      "payable": false,
      "stateMutability": "nonpayable",
      "type": "function"
    },
    {
      "constant": false,
      "inputs": [
        {
          "internalType": "address[]",
          "name": "accounts",
          "type": "address[]"
        },
        {
          "components": [
            {
              "internalType": "uint256",
              "name": "takerIndex",
              "type": "uint256"
            },
            {
              "internalType": "uint256",
              "name": "makerIndex",
              "type": "uint256"
            },
            {
              "internalType": "address",
              "name": "trader",
              "type": "address"
            },
            {
              "internalType": "bytes",
              "name": "data",
              "type": "bytes"
            }
          ],
          "internalType": "struct P1Trade.TradeArg[]",
          "name": "trades",
          "type": "tuple[]"
        }
      ],
      "name": "trade",
      "outputs": [],
      "payable": false,
      "stateMutability": "nonpayable",
      "type": "function"
    },
    {
      "constant": false,
      "inputs": [
        {
          "internalType": "address",
          "name": "account",
          "type": "address"
        },
        {
          "internalType": "address",
          "name": "destination",
          "type": "address"
        },
        {
          "internalType": "uint256",
          "name": "amount",
          "type": "uint256"
        }
      ],
      "name": "withdraw",
      "outputs": [],
      "payable": false,
      "stateMutability": "nonpayable",
      "type": "function"
    },
    {
      "constant": false,
      "inputs": [],
      "name": "withdrawFinalSettlement",
      "outputs": [],
      "payable": false,
      "stateMutability": "nonpayable",
      "type": "function"
    },
    {
      "constant": false,
      "inputs": [
        {
          "internalType": "address",
          "name": "token",
          "type": "address"
        },
        {
          "internalType": "address",
          "name": "oracle",
          "type": "address"
        },
        {
          "internalType": "address",
          "name": "funder",
          "type": "address"
        },
        {
          "internalType": "uint256",
          "name": "minCollateral",
          "type": "uint256"
        }
      ],
      "name": "initializeV1",
      "outputs": [],
      "payable": false,
      "stateMutability": "nonpayable",
      "type": "function"
    }
  ],
  "bytecode": "0x608060405260016000556146e2806100186000396000f3fe608060405234801561001057600080fd5b50600436106101985760003560e01c806380d63681116100e3578063b4959e721161008c578063e3bbb56511610066578063e3bbb5651461032b578063e830b69014610333578063f40c36991461033b57610198565b8063b4959e72146102fd578063d9caed1214610310578063dc4f3a0e1461032357610198565b806393423e9c116100bd57806393423e9c146102b75780639ba63e9e146102d7578063a895155b146102ea57610198565b806380d636811461027c578063846321a41461029157806384ea2862146102a457610198565b806347e7ef24116101455780637099366b1161011f5780637099366b1461024c578063796da7af146102545780637adbf9731461026957610198565b806347e7ef241461021e57806368eec3f6146102315780636e9960c31461024457610198565b806328b7bede1161017657806328b7bede146101e35780633a031bf0146101f857806346d256c51461020b57610198565b8063052f72d71461019d5780630acc8cd1146101c6578063142c69b3146101db575b600080fd5b6101b06101ab3660046134f5565b61034e565b6040516101bd91906141d5565b60405180910390f35b6101d96101d43660046134f5565b61036c565b005b6101d96104e1565b6101eb610826565b6040516101bd919061409e565b6101b0610206366004613513565b610835565b6101d96102193660046135fb565b610865565b6101d961022c36600461362b565b61092d565b6101d961023f36600461365b565b610aeb565b6101eb6110cd565b6101b06110fd565b61025c611106565b6040516101bd91906141f1565b6101d96102773660046134f5565b6111bb565b610284611310565b6040516101bd919061439c565b6101d961029f366004613726565b611366565b6101b06102b2366004613513565b611424565b6102ca6102c53660046134f5565b611495565b6040516101bd919061438e565b6102846102e53660046134f5565b61151b565b6101d96102f836600461354d565b61158c565b6101d961030b3660046135fb565b61171f565b6101d961031e3660046135ae565b61178c565b6101eb6119a2565b6101eb6119b1565b61025c6119c0565b6101d9610349366004613762565b6119c6565b6001600160a01b031660009081526003602052604090205460ff1690565b6103746110cd565b6001600160a01b0316336001600160a01b0316146103ad5760405162461bcd60e51b81526004016103a4906142be565b60405180910390fd5b60001960005414156103d15760405162461bcd60e51b81526004016103a49061435e565b60001960009081556040517febed4bd40000000000000000000000000000000000000000000000000000000081526001600160a01b0383169163ebed4bd49161041d91906004016141ff565b604080518083038186803b15801561043457600080fd5b505afa158015610448573d6000803e3d6000fd5b505050506040513d601f19601f8201168201806040525061046c91908101906136d8565b5050600780547fffffffffffffffffffffffff0000000000000000000000000000000000000000166001600160a01b0383161790556040517f433b5c8c9ff78f62114ee8804a916537fa42009ebac4965bfed953f771789e47906104d190839061409e565b60405180910390a1506001600055565b600a5460ff166105035760405162461bcd60e51b81526004016103a49061424e565b60001960005414156105275760405162461bcd60e51b81526004016103a49061435e565b6000196000556105356131f4565b506040805160608082018352600b5482526009546020808401919091528351918201845260085463ffffffff81168352640100000000810460ff161515918301919091526501000000000090046fffffffffffffffffffffffffffffffff1681840152918101919091526105a761321a565b6105b18233611af6565b90506000806105c4838560000151611f5e565b91509150808210156105d9575050505061081f565b60006106026105e661201b565b6105f6858563ffffffff61202716565b9063ffffffff61206916565b6005546040517f70a082310000000000000000000000000000000000000000000000000000000081529192506000916001600160a01b03909116906370a082319061065190309060040161409e565b60206040518083038186803b15801561066957600080fd5b505afa15801561067d573d6000803e3d6000fd5b505050506040513d601f19601f820116820180604052506106a19190810190613744565b905060006106af82846120ab565b905060006106cb6106c6858463ffffffff61202716565b6120c1565b604080516080810182526effffffffffffffffffffffffffffff83811680151583526000602080850182815285870193845260608601838152338085526001909352969092208551815493519451975160ff19909416901515177fffffffffffffffffffffffffffffffffffffffffffffffffffffffffffff00ff1661010094151594909402939093177fffffffffffffffffffffffffffffff000000000000000000000000000000ffff1662010000968516969096029590951770ffffffffffffffffffffffffffffffffff167101000000000000000000000000000000000091909316029190911790556005549099509192506107d4916001600160a01b031690846120f6565b337fc3b34c584e097adcd5d59ecaf4107928698a4f075c7753b5dbe28cd20d7ac1fd836108008a6121b8565b60405161080e9291906143aa565b60405180910390a250505050505050505b6001600055565b6005546001600160a01b031690565b6001600160a01b0380831660009081526004602090815260408083209385168352929052205460ff165b92915050565b61086d6110cd565b6001600160a01b0316336001600160a01b03161461089d5760405162461bcd60e51b81526004016103a4906142be565b60001960005414156108c15760405162461bcd60e51b81526004016103a49061435e565b60001960009081556001600160a01b03831681526003602052604090819020805460ff1916831515179055517feaeee7699e70e6b31ac89ec999ef6936b97ac1e364f0e1fcf584772372caa0d39061091c9084908490614135565b60405180910390a150506001600055565b600a5460ff16156109505760405162461bcd60e51b81526004016103a4906142ce565b60001960005414156109745760405162461bcd60e51b81526004016103a49061435e565b6000196000556109826131f4565b61098a61224d565b905061099461321a565b61099e8285611af6565b6005549091506109b9906001600160a01b03163330866125d7565b6109c9818463ffffffff61261a16565b6001600160a01b038416600081815260016020908152604091829020845181549286015193860151606087015160ff19909416911515919091177fffffffffffffffffffffffffffffffffffffffffffffffffffffffffffff00ff1661010094151594909402939093177fffffffffffffffffffffffffffffff000000000000000000000000000000ffff16620100006effffffffffffffffffffffffffffff948516021770ffffffffffffffffffffffffffffffffff167101000000000000000000000000000000000093909216929092021790557f40a9cb3a9707d3a68091d8ef7ffd4158d01d0b2ad92b1e489abe8312dd54302384610aca846121b8565b604051610ad89291906143aa565b60405180910390a2505060016000555050565b600a5460ff1615610b0e5760405162461bcd60e51b81526004016103a4906142ce565b6000196000541415610b325760405162461bcd60e51b81526004016103a49061435e565b600019600055610b418261264f565b610b496131f4565b610b5161224d565b90506060610b5f82856126ec565b905060608151604051908082528060200260200182016040528015610b9e57816020015b610b8b61321a565b815260200190600190039081610b835790505b50905060005b8251811015610be857610bc9838281518110610bbc57fe5b6020026020010151612783565b828281518110610bd557fe5b6020908102919091010152600101610ba4565b506000805b85518210156110b357610bfe613241565b868381518110610c0a57fe5b6020908102919091018101516040808201516001600160a01b0316600090815260039093529091205490915060ff16610c555760405162461bcd60e51b81526004016103a49061426e565b600088826020015181518110610c6757fe5b60200260200101519050600089836000015181518110610c8357fe5b60200260200101519050610c9561321a565b6040808501518a51606087015192517f970c2ba10000000000000000000000000000000000000000000000000000000081526001600160a01b039092169263970c2ba192610cef9233928992899291908d906004016140ac565b608060405180830381600087803b158015610d0957600080fd5b505af1158015610d1d573d6000803e3d6000fd5b505050506040513d601f19601f82011682018060405250610d419190810190613708565b9050806060015185179450816001600160a01b0316836001600160a01b03161415610d6f57505050506110a8565b610d7761321a565b87856020015181518110610d8757fe5b60200260200101519050610d9961321a565b88866000015181518110610da957fe5b60200260200101519050826040015115610e14578251610dd090839063ffffffff61261a16565b6020830151610de690839063ffffffff6127e916565b8251610df990829063ffffffff61281e16565b6020830151610e0f90829063ffffffff61284116565b610e66565b8251610e2790839063ffffffff61281e16565b6020830151610e3d90839063ffffffff61284116565b8251610e5090829063ffffffff61261a16565b6020830151610e6690829063ffffffff6127e916565b8160016000876001600160a01b03166001600160a01b0316815260200190815260200160002060008201518160000160006101000a81548160ff02191690831515021790555060208201518160000160016101000a81548160ff02191690831515021790555060408201518160000160026101000a8154816effffffffffffffffffffffffffffff02191690836effffffffffffffffffffffffffffff16021790555060608201518160000160116101000a8154816effffffffffffffffffffffffffffff02191690836effffffffffffffffffffffffffffff1602179055509050508060016000866001600160a01b03166001600160a01b0316815260200190815260200160002060008201518160000160006101000a81548160ff02191690831515021790555060208201518160000160016101000a81548160ff02191690831515021790555060408201518160000160026101000a8154816effffffffffffffffffffffffffffff02191690836effffffffffffffffffffffffffffff16021790555060608201518160000160116101000a8154816effffffffffffffffffffffffffffff02191690836effffffffffffffffffffffffffffff160217905550905050836001600160a01b0316856001600160a01b03167f5171a2ba3550a103fd09ca39b7dcfdf328a5acef18e290c7802d69c8ba73d8d9886040015186600001518760200151886040015161107e896121b8565b611087896121b8565b60405161109996959493929190614186565b60405180910390a35050505050505b600190910190610bed565b6110bf85888686612864565b505060016000555050505050565b60006110f87fb53127684a568b3173ae13b9f8a6016e243e63b6e8ee1178d6a717850b5d6103612a9f565b905090565b600a5460ff1690565b3360009081526003602052604081205460ff166111355760405162461bcd60e51b81526004016103a4906142ae565b600660009054906101000a90046001600160a01b03166001600160a01b03166398d5fdca6040518163ffffffff1660e01b815260040160206040518083038186803b15801561118357600080fd5b505afa158015611197573d6000803e3d6000fd5b505050506040513d601f19601f820116820180604052506110f89190810190613744565b6111c36110cd565b6001600160a01b0316336001600160a01b0316146111f35760405162461bcd60e51b81526004016103a4906142be565b60001960005414156112175760405162461bcd60e51b81526004016103a49061435e565b600019600081905550806001600160a01b03166398d5fdca6040518163ffffffff1660e01b815260040160206040518083038186803b15801561125957600080fd5b505afa15801561126d573d6000803e3d6000fd5b505050506040513d601f19601f820116820180604052506112919190810190613744565b6112ad5760405162461bcd60e51b81526004016103a4906142fe565b600680547fffffffffffffffffffffffff0000000000000000000000000000000000000000166001600160a01b0383161790556040517fad675642c3cba5442815383698d42cd28889533d9671a6d32cffea58ef0874da906104d190839061409e565b611318613272565b506040805160608101825260085463ffffffff81168252640100000000810460ff16151560208301526501000000000090046fffffffffffffffffffffffffffffffff169181019190915290565b61136e6110cd565b6001600160a01b0316336001600160a01b03161461139e5760405162461bcd60e51b81526004016103a4906142be565b60001960005414156113c25760405162461bcd60e51b81526004016103a49061435e565b6000196000556113d061201b565b8110156113ef5760405162461bcd60e51b81526004016103a49061423e565b60098190556040517f248b36ced4662a14c995e0872f00eb61be4e3dea3913226cdeb513d64728cdca906104d19083906141f1565b6000816001600160a01b0316836001600160a01b0316148061145e57506001600160a01b03821660009081526003602052604090205460ff165b8061148e57506001600160a01b0380841660009081526004602090815260408083209386168352929052205460ff165b9392505050565b61149d61321a565b506001600160a01b03166000908152600160209081526040918290208251608081018452905460ff808216151583526101008204161515928201929092526effffffffffffffffffffffffffffff62010000830481169382019390935271010000000000000000000000000000000000909104909116606082015290565b611523613272565b506001600160a01b03166000908152600260209081526040918290208251606081018452905463ffffffff81168252640100000000810460ff16151592820192909252650100000000009091046fffffffffffffffffffffffffffffffff169181019190915290565b6115946110cd565b6001600160a01b0316336001600160a01b0316146115c45760405162461bcd60e51b81526004016103a4906142be565b60001960005414156115e85760405162461bcd60e51b81526004016103a49061435e565b6000196000556040516116109060019061160190614093565b60405190819003902003612a9f565b1561162d5760405162461bcd60e51b81526004016103a4906142de565b61164f600160405161163e90614093565b604051908190039020036001612aa3565b600580547fffffffffffffffffffffffff00000000000000000000000000000000000000009081166001600160a01b0396871617909155600680548216948616949094179093556007805490931691909316179055600955604080516060810182524263ffffffff1680825260006020830181905291909201819052600880547fffffffffffffffffffffffffffffffffffffffffffffffffffffffff00000000169092177fffffffffffffffffffffff0000000000000000000000000000000000ffffffff1690915560019055565b3360008181526004602090815260408083206001600160a01b038716845290915290819020805460ff1916841515179055517ffe9fa8ad7dbd5e50cbcd1a903ea64717cb80b02e6b737e74f7e2f070b3e4d15f906117809085908590614135565b60405180910390a25050565b600a5460ff16156117af5760405162461bcd60e51b81526004016103a4906142ce565b60001960005414156117d35760405162461bcd60e51b81526004016103a49061435e565b6000196000556117e38333611424565b6117ff5760405162461bcd60e51b81526004016103a49061421e565b6118076131f4565b61180f61224d565b905061181961321a565b6118238286611af6565b60055490915061183d906001600160a01b031685856120f6565b61184d818463ffffffff61281e16565b6001600160a01b038516600090815260016020908152604091829020835181549285015193850151606086015160ff19909416911515919091177fffffffffffffffffffffffffffffffffffffffffffffffffffffffffffff00ff1661010094151594909402939093177fffffffffffffffffffffffffffffff000000000000000000000000000000ffff16620100006effffffffffffffffffffffffffffff948516021770ffffffffffffffffffffffffffffffffff1671010000000000000000000000000000000000939092169290920217905561192d8282612aa7565b6119495760405162461bcd60e51b81526004016103a49061432e565b846001600160a01b03167f74348e8cb927b5536fe550310d0cdf05914498fcb04ad61b99c29e3899b0bce9858561197f856121b8565b60405161198e9392919061416b565b60405180910390a250506001600055505050565b6007546001600160a01b031690565b6006546001600160a01b031690565b60095490565b6119ce6110cd565b6001600160a01b0316336001600160a01b0316146119fe5760405162461bcd60e51b81526004016103a4906142be565b600a5460ff1615611a215760405162461bcd60e51b81526004016103a4906142ce565b6000196000541415611a455760405162461bcd60e51b81526004016103a49061435e565b600019600055611a536131f4565b611a5b61224d565b90508281600001511015611a815760405162461bcd60e51b81526004016103a49061422e565b8051821015611aa25760405162461bcd60e51b81526004016103a49061433e565b8051600b819055600a805460ff191660011790556040517f68e4c41627e835051be46337f1542645a60c7e6d6ea79efc5f20bdadae5f88d291611ae4916141f1565b60405180910390a15050600160005550565b611afe61321a565b611b06613272565b506040830151611b14613272565b506001600160a01b0383166000908152600260209081526040918290208251606081018452905463ffffffff81168252640100000000810460ff16151592820192909252650100000000009091046fffffffffffffffffffffffffffffffff1691810191909152611b8361321a565b506001600160a01b0384166000908152600160209081526040918290208251608081018452905460ff808216151583526101008204161515928201929092526effffffffffffffffffffffffffffff6201000083048116938201939093527101000000000000000000000000000000000090910490911660608201528251825163ffffffff90811691161415611c1d57925061085f915050565b6001600160a01b0385166000908152600260209081526040918290208551815492870151938701517fffffffffffffffffffffffffffffffffffffffffffffffffffffffff0000000090931663ffffffff909116177fffffffffffffffffffffffffffffffffffffffffffffffffffffff00ffffffff1664010000000093151593909302929092177fffffffffffffffffffffff00000000000000000000000000000000ffffffffff16650100000000006fffffffffffffffffffffffffffffffff9092169190910217905560608101516effffffffffffffffffffffffffffff16611d0d57925061085f915050565b611d15613292565b50604080518082018252908401516fffffffffffffffffffffffffffffffff16815260208085015115158183015283015115611d7a576040830151611d739082906fffffffffffffffffffffffffffffffff1663ffffffff612b0116565b9050611da5565b6040830151611da29082906fffffffffffffffffffffffffffffffff1663ffffffff612bb016565b90505b600082602001511515826020015115151415905060008115611dff5760608401518351611de8916effffffffffffffffffffffffffffff1663ffffffff612c2d16565b9050611dfa848263ffffffff61261a16565b611e38565b60608401518351611e26916effffffffffffffffffffffffffffff1663ffffffff612c4b16565b9050611e38848263ffffffff61281e16565b6001600160a01b03881660008181526001602090815260409182902087518154928901519389015160608a015160ff19909416911515919091177fffffffffffffffffffffffffffffffffffffffffffffffffffffffffffff00ff1661010094151594909402939093177fffffffffffffffffffffffffffffff000000000000000000000000000000ffff16620100006effffffffffffffffffffffffffffff948516021770ffffffffffffffffffffffffffffffffff167101000000000000000000000000000000000093909216929092021790557f022694ffbbd957d26de6b85c040be68ec582d13d40114b29130581793a1bf31e8383611f3a886121b8565b604051611f49939291906141e3565b60405180910390a25091979650505050505050565b815160009081908190819015611fa257611f9b611f7961201b565b60408801516effffffffffffffffffffffffffffff169063ffffffff612ca216565b9150611fb0565b611fad611f7961201b565b90505b6060860151600090611fd9906effffffffffffffffffffffffffffff168763ffffffff612ca216565b9050866020015115611ffc57611ff5838263ffffffff612cdc16565b925061200f565b61200c828263ffffffff612cdc16565b91505b50909590945092505050565b670de0b6b3a764000090565b600061148e83836040518060400160405280601e81526020017f536166654d6174683a207375627472616374696f6e206f766572666c6f770000815250612d01565b600061148e83836040518060400160405280601a81526020017f536166654d6174683a206469766973696f6e206279207a65726f000000000000815250612d2d565b60008183106120ba578161148e565b5090919050565b60006f0100000000000000000000000000000082106120f25760405162461bcd60e51b81526004016103a49061427e565b5090565b6040516121b39084907fa9059cbb00000000000000000000000000000000000000000000000000000000906121319086908690602401614150565b604080517fffffffffffffffffffffffffffffffffffffffffffffffffffffffffffffffe08184030181529190526020810180517bffffffffffffffffffffffffffffffffffffffffffffffffffffffff167fffffffff0000000000000000000000000000000000000000000000000000000090931692909217909152612d64565b505050565b60008082602001516121cb5760006121dd565b6f010000000000000000000000000000005b83516121ea57600061220c565b7f01000000000000000000000000000000000000000000000000000000000000005b608085604001516effffffffffffffffffffffffffffff16901b85606001516effffffffffffffffffffffffffffff1617171790508060001b915050919050565b6122556131f4565b61225d613272565b506040805160608101825260085463ffffffff81168252640100000000810460ff161515602080840191909152650100000000009091046fffffffffffffffffffffffffffffffff168284015260065483517f98d5fdca000000000000000000000000000000000000000000000000000000008152935192936000936001600160a01b03909216926398d5fdca92600480840193829003018186803b15801561230557600080fd5b505afa158015612319573d6000803e3d6000fd5b505050506040513d601f19601f8201168201806040525061233d9190810190613744565b9050600061235e836000015163ffffffff164261202790919063ffffffff16565b905080156125775761236e613292565b50604080518082018252848201516fffffffffffffffffffffffffffffffff16815260208086015115159082015260075491517febed4bd4000000000000000000000000000000000000000000000000000000008152909160009182916001600160a01b03169063ebed4bd4906123e99087906004016141f1565b604080518083038186803b15801561240057600080fd5b505afa158015612414573d6000803e3d6000fd5b505050506040513d601f19601f8201168201806040525061243891908101906136d8565b909250905061244d818663ffffffff612c2d16565b9050811561246c57612465838263ffffffff612bb016565b925061247f565b61247c838263ffffffff612b0116565b92505b604051806060016040528061249342612e49565b63ffffffff1681526020018460200151151581526020016124b78560000151612e6f565b6fffffffffffffffffffffffffffffffff9081169091528151600880546020850151604086015190941665010000000000027fffffffffffffffffffffff00000000000000000000000000000000ffffffffff941515640100000000027fffffffffffffffffffffffffffffffffffffffffffffffffffffff00ffffffff63ffffffff9095167fffffffffffffffffffffffffffffffffffffffffffffffffffffffff000000009093169290921793909316179290921617905595505050505b7f995e61c355733308eab39a59e1e1ac167274cdd1ad707fe4d13e127a010764286125a184612ea1565b6040516125ae91906141f1565b60405180910390a150604080516060810182529182526009546020830152810191909152905090565b6040516126149085907f23b872dd00000000000000000000000000000000000000000000000000000000906121319087908790879060240161410d565b50505050565b612622613292565b61262b83612ef7565b905061263d818363ffffffff612bb016565b90506121b3838263ffffffff612f2c16565b60008151116126705760405162461bcd60e51b81526004016103a49061430e565b60008160008151811061267f57fe5b602002602001015190506000600190505b82518110156121b35760008382815181106126a757fe5b60200260200101519050826001600160a01b0316816001600160a01b0316116126e25760405162461bcd60e51b81526004016103a49061437e565b9150600101612690565b606060008251905060608160405190808252806020026020018201604052801561273057816020015b61271d61321a565b8152602001906001900390816127155790505b50905060005b8281101561277a5761275b8686838151811061274e57fe5b6020026020010151611af6565b82828151811061276757fe5b6020908102919091010152600101612736565b50949350505050565b61278b61321a565b604051806080016040528083600001511515815260200183602001511515815260200183604001516effffffffffffffffffffffffffffff16815260200183606001516effffffffffffffffffffffffffffff168152509050919050565b6127f1613292565b6127fa83612f57565b905061280c818363ffffffff612b0116565b90506121b3838263ffffffff612f9616565b612826613292565b61282f83612ef7565b905061263d818363ffffffff612b0116565b612849613292565b61285283612f57565b905061280c818363ffffffff612bb016565b60005b8351811015612a985761287861321a565b82828151811061288457fe5b602002602001015190506000806128a8886000015184611f5e90919063ffffffff16565b9150915060006128c5896020015183612ca290919063ffffffff16565b6128dd6128d061201b565b859063ffffffff612ca216565b10801591506128ef5750505050612a90565b60008886815181106128fd57fe5b6020026020010151905061290f61321a565b88878151811061291b57fe5b6020026020010151905060008061293f8d6000015184611f5e90919063ffffffff16565b9150915061296a87600014156040518060600160405280603881526020016145b76038913986612fc4565b6129ba83606001516effffffffffffffffffffffffffffff1689606001516effffffffffffffffffffffffffffff1611156040518060800160405280604381526020016146286043913986612fc4565b6129eb8360200151151589602001511515146040518060600160405280603981526020016145ef6039913986612fc4565b612a12816000141560405180606001604052806035815260200161466b6035913986612fc4565b612a878860200151612a4557612a2e888363ffffffff61302816565b612a3e848963ffffffff61302816565b1115612a68565b612a55828963ffffffff61302816565b612a65888563ffffffff61302816565b11155b6040518060600160405280603e8152602001614579603e913986612fc4565b50505050505050505b600101612867565b5050505050565b5490565b9055565b6000806000612ac3856000015185611f5e90919063ffffffff16565b91509150612ade856020015182612ca290919063ffffffff16565b612af6612ae961201b565b849063ffffffff612ca216565b101595945050505050565b612b09613292565b8260200151612b45576040518060400160405280612b34856000015185612cdc90919063ffffffff16565b81526000602090910152905061085f565b8251821015612b7d576040805180820190915283518190612b6c908563ffffffff61202716565b81526001602090910152905061085f565b6040518060400160405280612b9f85600001518561202790919063ffffffff16565b815260006020909101529392505050565b612bb8613292565b826020015115612be4576040518060400160405280612b6c856000015185612cdc90919063ffffffff16565b8251821115612c0f576040518060400160405280612b6c85600001518561202790919063ffffffff16565b6040805180820190915283518190612b9f908563ffffffff61202716565b600061148e670de0b6b3a76400006105f6858563ffffffff612ca216565b6000821580612c58575081155b15612c655750600061085f565b61148e6001612c96670de0b6b3a76400006105f683612c8a898963ffffffff612ca216565b9063ffffffff61202716565b9063ffffffff612cdc16565b600082612cb15750600061085f565b82820282848281612cbe57fe5b041461148e5760405162461bcd60e51b81526004016103a4906142ee565b60008282018381101561148e5760405162461bcd60e51b81526004016103a49061425e565b60008184841115612d255760405162461bcd60e51b81526004016103a4919061420d565b505050900390565b60008183612d4e5760405162461bcd60e51b81526004016103a4919061420d565b506000838581612d5a57fe5b0495945050505050565b612d76826001600160a01b0316613052565b612d925760405162461bcd60e51b81526004016103a49061436e565b60006060836001600160a01b031683604051612dae919061406f565b6000604051808303816000865af19150503d8060008114612deb576040519150601f19603f3d011682016040523d82523d6000602084013e612df0565b606091505b509150915081612e125760405162461bcd60e51b81526004016103a49061429e565b8051156126145780806020019051612e2d91908101906136ba565b6126145760405162461bcd60e51b81526004016103a49061434e565b600064010000000082106120f25760405162461bcd60e51b81526004016103a49061431e565b600070010000000000000000000000000000000082106120f25760405162461bcd60e51b81526004016103a49061428e565b6000806088836000015163ffffffff16901b8360200151612ec3576000612ed6565b7001000000000000000000000000000000005b60408501516fffffffffffffffffffffffffffffffff161717915050919050565b612eff613292565b50604080518082018252908201516effffffffffffffffffffffffffffff16815290511515602082015290565b8051612f37906120c1565b6effffffffffffffffffffffffffffff1660408301526020015115159052565b612f5f613292565b604051806040016040528083606001516effffffffffffffffffffffffffffff168152602001836020015115158152509050919050565b8051612fa1906120c1565b6effffffffffffffffffffffffffffff1660608301526020908101511515910152565b826121b35781612fd38261308e565b604051602001612fe492919061407b565b604080517fffffffffffffffffffffffffffffffffffffffffffffffffffffffffffffffe08184030181529082905262461bcd60e51b82526103a49160040161420d565b600061148e8261304685670de0b6b3a764000063ffffffff61206916565b9063ffffffff612ca216565b6000813f7fc5d2460186f7233c927e7db2dcc703c0e500b653ca82273b7bfad8045d85a47081811480159061308657508115155b949350505050565b606080763a20307830303030303030302e2e2e303030303030303060481b6040516020016130bc919061405a565b604080517fffffffffffffffffffffffffffffffffffffffffffffffffffffffffffffffe081840301815291905290506001600160a01b038316609c601c60045b600c8110156131c75761311184841c6131d2565b85828151811061311d57fe5b60200101907effffffffffffffffffffffffffffffffffffffffffffffffffffffffffffff1916908160001a90535061315784831c6131d2565b8582600b018151811061316657fe5b60200101907effffffffffffffffffffffffffffffffffffffffffffffffffffffffffffff1916908160001a9053507ffffffffffffffffffffffffffffffffffffffffffffffffffffffffffffffffc9283019291909101906001016130fd565b509295945050505050565b6000600f8216600a81106131e75760576131ea565b60305b0160f81b92915050565b60405180606001604052806000815260200160008152602001613215613272565b905290565b60408051608081018252600080825260208201819052918101829052606081019190915290565b6040518060800160405280600081526020016000815260200160006001600160a01b03168152602001606081525090565b604080516060810182526000808252602082018190529181019190915290565b604080518082019091526000808252602082015290565b803561085f8161454f565b600082601f8301126132c557600080fd5b81356132d86132d3826143df565b6143b8565b915081818352602084019350602081019050838560208402820111156132fd57600080fd5b60005b83811015613329578161331388826132a9565b8452506020928301929190910190600101613300565b5050505092915050565b600082601f83011261334457600080fd5b81356133526132d3826143df565b81815260209384019390925082018360005b83811015613329578135860161337a8882613400565b8452506020928301929190910190600101613364565b803561085f81614566565b805161085f81614566565b805161085f8161456f565b600082601f8301126133c257600080fd5b81356133d06132d382614400565b915080825260208301602083018583830111156133ec57600080fd5b6133f78382846144ef565b50505092915050565b60006080828403121561341257600080fd5b61341c60806143b8565b9050600061342a84846134ea565b825250602061343b848483016134ea565b602083015250604061344f848285016132a9565b604083015250606082013567ffffffffffffffff81111561346f57600080fd5b61347b848285016133b1565b60608301525092915050565b60006080828403121561349957600080fd5b6134a360806143b8565b905060006134b184846133a6565b82525060206134c2848483016133a6565b60208301525060406134d68482850161339b565b604083015250606061347b848285016133a6565b803561085f8161456f565b60006020828403121561350757600080fd5b600061308684846132a9565b6000806040838503121561352657600080fd5b600061353285856132a9565b9250506020613543858286016132a9565b9150509250929050565b6000806000806080858703121561356357600080fd5b600061356f87876132a9565b9450506020613580878288016132a9565b9350506040613591878288016132a9565b92505060606135a2878288016134ea565b91505092959194509250565b6000806000606084860312156135c357600080fd5b60006135cf86866132a9565b93505060206135e0868287016132a9565b92505060406135f1868287016134ea565b9150509250925092565b6000806040838503121561360e57600080fd5b600061361a85856132a9565b925050602061354385828601613390565b6000806040838503121561363e57600080fd5b600061364a85856132a9565b9250506020613543858286016134ea565b6000806040838503121561366e57600080fd5b823567ffffffffffffffff81111561368557600080fd5b613691858286016132b4565b925050602083013567ffffffffffffffff8111156136ae57600080fd5b61354385828601613333565b6000602082840312156136cc57600080fd5b6000613086848461339b565b600080604083850312156136eb57600080fd5b60006136f7858561339b565b9250506020613543858286016133a6565b60006080828403121561371a57600080fd5b60006130868484613487565b60006020828403121561373857600080fd5b600061308684846134ea565b60006020828403121561375657600080fd5b600061308684846133a6565b6000806040838503121561377557600080fd5b600061364a85856134ea565b61378a816144ce565b82525050565b61378a81614458565b61378a81614463565b61378a6137ae82614468565b61448d565b61378a8161448d565b60006137c782614446565b6137d18185614453565b93506137e18185602086016144fb565b9290920192915050565b60006137f682614446565b613800818561444a565b93506138108185602086016144fb565b61381981614527565b9093019392505050565b61378a816144d9565b6000613839602b8361444a565b7f73656e64657220646f6573206e6f742068617665207065726d697373696f6e2081527f746f207769746864726177000000000000000000000000000000000000000000602082015260400192915050565b600061389860328361444a565b7f4f7261636c65207072696365206973206c657373207468616e2074686520707281527f6f7669646564206c6f77657220626f756e640000000000000000000000000000602082015260400192915050565b60006138f7601b83614453565b7f645964582e50657270657475616c56312e696e697469616c697a6500000000008152601b0192915050565b6000613930602f8361444a565b7f54686520636f6c6c61746572616c20726571756972656d656e742063616e6e6f81527f7420626520756e64657220313030250000000000000000000000000000000000602082015260400192915050565b600061398f60268361444a565b7f4f6e6c79207065726d697474656420647572696e672066696e616c207365747481527f6c656d656e740000000000000000000000000000000000000000000000000000602082015260400192915050565b60006139ee601b8361444a565b7f536166654d6174683a206164646974696f6e206f766572666c6f770000000000815260200192915050565b6000613a27601d8361444a565b7f747261646572206973206e6f7420676c6f62616c206f70657261746f72000000815260200192915050565b6000613a6060278361444a565b7f53616665436173743a2076616c756520646f65736e27742066697420696e203181527f3230206269747300000000000000000000000000000000000000000000000000602082015260400192915050565b6000613abf60278361444a565b7f53616665436173743a2076616c756520646f65736e27742066697420696e203181527f3238206269747300000000000000000000000000000000000000000000000000602082015260400192915050565b6000613b1e60208361444a565b7f5361666545524332303a206c6f772d6c6576656c2063616c6c206661696c6564815260200192915050565b6000613b57602a8361444a565b7f4f7261636c6520707269636520726571756573746572206e6f7420676c6f626181527f6c206f70657261746f7200000000000000000000000000000000000000000000602082015260400192915050565b6000613bb6601e8361444a565b7f41646d696e61626c653a2063616c6c6572206973206e6f742061646d696e0000815260200192915050565b6000613bef60258361444a565b7f4e6f74207065726d697474656420647572696e672066696e616c20736574746c81527f656d656e74000000000000000000000000000000000000000000000000000000602082015260400192915050565b6000613c4e601f8361444a565b7f50657270657475616c563120616c726561647920696e697469616c697a656400815260200192915050565b6000613c8760218361444a565b7f536166654d6174683a206d756c7469706c69636174696f6e206f766572666c6f81527f7700000000000000000000000000000000000000000000000000000000000000602082015260400192915050565b6000613ce660258361444a565b7f4e6577206f7261636c652063616e6e6f742072657475726e2061207a65726f2081527f7072696365000000000000000000000000000000000000000000000000000000602082015260400192915050565b6000613d4560228361444a565b7f4163636f756e7473206d7573742068617665206e6f6e2d7a65726f206c656e6781527f7468000000000000000000000000000000000000000000000000000000000000602082015260400192915050565b6000613da460268361444a565b7f53616665436173743a2076616c756520646f65736e27742066697420696e203381527f3220626974730000000000000000000000000000000000000000000000000000602082015260400192915050565b6000613e03601a8361444a565b7f6163636f756e74206e6f7420636f6c6c61746572616c697a6564000000000000815260200192915050565b6000613e3c60358361444a565b7f4f7261636c652070726963652069732067726561746572207468616e2074686581527f2070726f766964656420757070657220626f756e640000000000000000000000602082015260400192915050565b6000613e9b602a8361444a565b7f5361666545524332303a204552433230206f7065726174696f6e20646964206e81527f6f74207375636365656400000000000000000000000000000000000000000000602082015260400192915050565b6000613efa601f8361444a565b7f5265656e7472616e637947756172643a207265656e7472616e742063616c6c00815260200192915050565b6000613f33601f8361444a565b7f5361666545524332303a2063616c6c20746f206e6f6e2d636f6e747261637400815260200192915050565b6000613f6c60228361444a565b7f4163636f756e7473206d75737420626520736f7274656420616e6420756e697181527f7565000000000000000000000000000000000000000000000000000000000000602082015260400192915050565b80516080830190613fcf8482613799565b506020820151613fe26020850182613799565b506040820151613ff5604085018261403f565b506060820151612614606085018261403f565b805160608301906140198482614051565b50602082015161402c6020850182613799565b5060408201516126146040850182614048565b61378a81614490565b61378a816144a4565b61378a816144c5565b600061406682846137a2565b50601701919050565b600061148e82846137bc565b600061408782856137bc565b915061308682846137bc565b600061085f826138ea565b6020810161085f8284613790565b60c081016140ba8289613781565b6140c76020830188613790565b6140d46040830187613790565b6140e160608301866137b3565b81810360808301526140f381856137eb565b905061410260a08301846137b3565b979650505050505050565b6060810161411b8286613790565b6141286020830185613790565b61308660408301846137b3565b604081016141438285613790565b61148e6020830184613799565b6040810161415e8285613790565b61148e60208301846137b3565b606081016141798286613790565b61412860208301856137b3565b60c081016141948289613790565b6141a160208301886137b3565b6141ae60408301876137b3565b6141bb6060830186613799565b6141c860808301856137b3565b61410260a08301846137b3565b6020810161085f8284613799565b606081016141798286613799565b6020810161085f82846137b3565b6020810161085f8284613823565b6020808252810161148e81846137eb565b6020808252810161085f8161382c565b6020808252810161085f8161388b565b6020808252810161085f81613923565b6020808252810161085f81613982565b6020808252810161085f816139e1565b6020808252810161085f81613a1a565b6020808252810161085f81613a53565b6020808252810161085f81613ab2565b6020808252810161085f81613b11565b6020808252810161085f81613b4a565b6020808252810161085f81613ba9565b6020808252810161085f81613be2565b6020808252810161085f81613c41565b6020808252810161085f81613c7a565b6020808252810161085f81613cd9565b6020808252810161085f81613d38565b6020808252810161085f81613d97565b6020808252810161085f81613df6565b6020808252810161085f81613e2f565b6020808252810161085f81613e8e565b6020808252810161085f81613eed565b6020808252810161085f81613f26565b6020808252810161085f81613f5f565b6080810161085f8284613fbe565b6060810161085f8284614008565b6040810161415e82856137b3565b60405181810167ffffffffffffffff811182821017156143d757600080fd5b604052919050565b600067ffffffffffffffff8211156143f657600080fd5b5060209081020190565b600067ffffffffffffffff82111561441757600080fd5b506020601f919091017fffffffffffffffffffffffffffffffffffffffffffffffffffffffffffffffe0160190565b5190565b90815260200190565b919050565b600061085f826144b9565b151590565b7fffffffffffffffffffffffffffffffffffffffffffffff0000000000000000001690565b90565b6effffffffffffffffffffffffffffff1690565b6fffffffffffffffffffffffffffffffff1690565b6001600160a01b031690565b63ffffffff1690565b600061085f826144e4565b600061085f8261448d565b600061085f82614458565b82818337506000910152565b60005b838110156145165781810151838201526020016144fe565b838111156126145750506000910152565b601f017fffffffffffffffffffffffffffffffffffffffffffffffffffffffffffffffe01690565b61455881614458565b811461456357600080fd5b50565b61455881614463565b6145588161448d56fe6163636f756e7420697320756e646572636f6c6c61746572616c697a656420616e6420636f6c6c61746572616c697a6174696f6e206465637265617365646163636f756e7420697320756e646572636f6c6c61746572616c697a656420616e6420686173206e6f20706f7369746976652076616c75656163636f756e7420697320756e646572636f6c6c61746572616c697a656420616e6420706f736974696f6e206368616e676564207369676e736163636f756e7420697320756e646572636f6c6c61746572616c697a656420616e64206162736f6c75746520706f736974696f6e2073697a6520696e637265617365646163636f756e7420697320756e646572636f6c6c61746572616c697a656420616e6420776173206e6f742070726576696f75736c79a365627a7a7231582083b955b2fcc75c1186083f854cb76a0fee5dd5830eff71d1f63bf86d1448100f6c6578706572696d656e74616cf564736f6c63430005100040",
  "source": "/*\n\n    Copyright 2020 dYdX Trading Inc.\n\n    Licensed under the Apache License, Version 2.0 (the \"License\");\n    you may not use this file except in compliance with the License.\n    You may obtain a copy of the License at\n\n    http://www.apache.org/licenses/LICENSE-2.0\n\n    Unless required by applicable law or agreed to in writing, software\n    distributed under the License is distributed on an \"AS IS\" BASIS,\n    WITHOUT WARRANTIES OR CONDITIONS OF ANY KIND, either express or implied.\n    See the License for the specific language governing permissions and\n    limitations under the License.\n\n*/\n\npragma solidity 0.5.16;\npragma experimental ABIEncoderV2;\n\nimport { Storage } from \"../lib/Storage.sol\";\nimport { P1Admin } from \"./impl/P1Admin.sol\";\nimport { P1FinalSettlement } from \"./impl/P1FinalSettlement.sol\";\nimport { P1Getters } from \"./impl/P1Getters.sol\";\nimport { P1Margin } from \"./impl/P1Margin.sol\";\nimport { P1Operator } from \"./impl/P1Operator.sol\";\nimport { P1Trade } from \"./impl/P1Trade.sol\";\nimport { P1Types } from \"./lib/P1Types.sol\";\n\n\n/**\n * @title PerpetualV1\n * @author dYdX\n *\n * @notice A market for a perpetual contract, a financial derivative which may be traded on margin\n *  and which aims to closely track the spot price of an underlying asset. The underlying asset is\n *  specified via the price oracle which reports its spot price. Tethering of the perpetual market\n *  price is supported by a funding oracle which governs funding payments between longs and shorts.\n * @dev Main perpetual market implementation contract that inherits from other contracts.\n */\ncontract PerpetualV1 is\n    P1FinalSettlement,\n    P1Admin,\n    P1Getters,\n    P1Margin,\n    P1Operator,\n    P1Trade\n{\n    // Non-colliding storage slot.\n    bytes32 internal constant PERPETUAL_V1_INITIALIZE_SLOT =\n    bytes32(uint256(keccak256(\"dYdX.PerpetualV1.initialize\")) - 1);\n\n    /**\n     * @dev Once-only initializer function that replaces the constructor since this contract is\n     *  proxied. Uses a non-colliding storage slot to store if this version has been initialized.\n     * @dev Can only be called once and can only be called by the admin of this contract.\n     *\n     * @param  token          The address of the token to use for margin-deposits.\n     * @param  oracle         The address of the price oracle contract.\n     * @param  funder         The address of the funder contract.\n     * @param  minCollateral  The minimum allowed initial collateralization percentage.\n     */\n    function initializeV1(\n        address token,\n        address oracle,\n        address funder,\n        uint256 minCollateral\n    )\n        external\n        onlyAdmin\n        nonReentrant\n    {\n        // only allow initialization once\n        require(\n            Storage.load(PERPETUAL_V1_INITIALIZE_SLOT) == 0x0,\n            \"PerpetualV1 already initialized\"\n        );\n        Storage.store(PERPETUAL_V1_INITIALIZE_SLOT, bytes32(uint256(1)));\n\n        _TOKEN_ = token;\n        _ORACLE_ = oracle;\n        _FUNDER_ = funder;\n        _MIN_COLLATERAL_ = minCollateral;\n\n        _GLOBAL_INDEX_ = P1Types.Index({\n            timestamp: uint32(block.timestamp),\n            isPositive: false,\n            value: 0\n        });\n    }\n}\n",
  "sourcePath": "/Users/dennismacpro/Projects/Defi/Ethereum-Solidity-Collection/icarus-protocol/defi-seeder/.tmp/dydx-protocol/perpetual/contracts/protocol/v1/PerpetualV1.sol",
  "compiler": {
    "name": "solc",
    "version": "0.5.16+commit.9c3226ce.Linux.g++"
  },
  "schemaVersion": "3.3.4",
  "updatedAt": "2021-04-01T16:42:57.368Z",
  "devdoc": {
    "author": "dYdX",
    "details": "Main perpetual market implementation contract that inherits from other contracts.",
    "methods": {
      "deposit(address,uint256)": {
        "details": "Emits LogIndex, LogAccountSettled, and LogDeposit events.",
        "params": {
          "account": "The account for which to credit the deposit.",
          "amount": "the amount of tokens to deposit."
        }
      },
      "enableFinalSettlement(uint256,uint256)": {
        "details": "Must be called by the PerpetualV1 admin. The current result of the price oracle must be between the two bounds supplied. Emits the LogFinalSettlementEnabled event.",
        "params": {
          "priceLowerBound": "The lower-bound (inclusive) of the acceptable price range.",
          "priceUpperBound": "The upper-bound (inclusive) of the acceptable price range."
        }
      },
      "getAccountBalance(address)": {
        "params": {
          "account": "The address of the account to query the balances of."
        },
        "return": "The balances of the account."
      },
      "getAccountIndex(address)": {
        "params": {
          "account": "The address of the account to query the index of."
        },
        "return": "The index of the account."
      },
      "getAdmin()": {
        "return": "The EIP-1967 proxy admin"
      },
      "getFinalSettlementEnabled()": {
        "return": "True if final-settlement was enabled, false otherwise."
      },
      "getFunderContract()": {
        "return": "The address of the funder contract."
      },
      "getGlobalIndex()": {
        "return": "The most recently cached global index."
      },
      "getIsGlobalOperator(address)": {
        "params": {
          "operator": "The address of the operator to query the status of."
        },
        "return": "True if the address is a global operator, false otherwise."
      },
      "getIsLocalOperator(address,address)": {
        "params": {
          "account": "The account to query the operator for.",
          "operator": "The address of the operator to query the status of."
        },
        "return": "True if the operator is a local operator of the account, false otherwise."
      },
      "getMinCollateral()": {
        "return": "The minimum-acceptable collateralization ratio, returned as a fixed-point number with 18 decimals of precision."
      },
      "getOracleContract()": {
        "return": "The address of the price oracle contract."
      },
      "getOraclePrice()": {
        "details": "Only able to be called by global operators.",
        "return": "The price returned by the current price oracle."
      },
      "getTokenContract()": {
        "return": "The address of the ERC20 token."
      },
      "hasAccountPermissions(address,address)": {
        "params": {
          "account": "The account to query.",
          "operator": "The address to query."
        },
        "return": "True if the operator has permission to operate the account,                  and false otherwise."
      },
      "initializeV1(address,address,address,uint256)": {
        "details": "Once-only initializer function that replaces the constructor since this contract is proxied. Uses a non-colliding storage slot to store if this version has been initialized.Can only be called once and can only be called by the admin of this contract.",
        "params": {
          "funder": "The address of the funder contract.",
          "minCollateral": "The minimum allowed initial collateralization percentage.",
          "oracle": "The address of the price oracle contract.",
          "token": "The address of the token to use for margin-deposits."
        }
      },
      "setFunder(address)": {
        "details": "Must be called by the PerpetualV1 admin. Emits the LogSetFunder event.",
        "params": {
          "funder": "The address of the new funder contract."
        }
      },
      "setGlobalOperator(address,bool)": {
        "details": "Must be called by the PerpetualV1 admin. Emits the LogSetGlobalOperator event.",
        "params": {
          "approved": "True if approved, false if disapproved.",
          "operator": "The address for which to enable or disable global operator privileges."
        }
      },
      "setLocalOperator(address,bool)": {
        "details": "Emits the LogSetLocalOperator event.",
        "params": {
          "approved": "True for approval, false for disapproval.",
          "operator": "The account that is approved or disapproved."
        }
      },
      "setMinCollateral(uint256)": {
        "details": "Must be called by the PerpetualV1 admin. Emits the LogSetMinCollateral event.",
        "params": {
          "minCollateral": "The new value of the minimum initial collateralization percentage,                       as a fixed-point number with 18 decimals."
        }
      },
      "setOracle(address)": {
        "details": "Must be called by the PerpetualV1 admin. Emits the LogSetOracle event.",
        "params": {
          "oracle": "The address of the new price oracle contract."
        }
      },
      "trade(address[],(uint256,uint256,address,bytes)[])": {
        "details": "Emits the LogIndex event, one LogAccountSettled event for each account in `accounts`, and the LogTrade event for each trade in `trades`.",
        "params": {
          "accounts": "The sorted list of accounts that are involved in trades.",
          "trades": "The list of trades to execute in-order."
        }
      },
      "withdraw(address,address,uint256)": {
        "details": "Emits LogIndex, LogAccountSettled, and LogWithdraw events.",
        "params": {
          "account": "The account for which to debit the withdrawal.",
          "amount": "The amount of tokens to withdraw.",
          "destination": "The address to which the tokens are transferred."
        }
      },
      "withdrawFinalSettlement()": {
        "details": "Emits the LogAccountSettled and LogWithdrawFinalSettlement events."
      }
    },
    "title": "PerpetualV1"
  },
  "userdoc": {
    "methods": {
      "deposit(address,uint256)": {
        "notice": "Deposit some amount of margin tokens from the msg.sender into an account."
      },
      "enableFinalSettlement(uint256,uint256)": {
        "notice": "Enables final settlement if the oracle price is between the provided bounds."
      },
      "getAccountBalance(address)": {
        "notice": "Get the balance of an account, without accounting for changes in the index."
      },
      "getAccountIndex(address)": {
        "notice": "Gets the most recently cached index of an account."
      },
      "getFinalSettlementEnabled()": {
        "notice": "Gets the status of whether final-settlement was initiated by the Admin."
      },
      "getFunderContract()": {
        "notice": "Gets the current address of the funder contract."
      },
      "getGlobalIndex()": {
        "notice": "Gets the most recently cached global index."
      },
      "getIsGlobalOperator(address)": {
        "notice": "Gets the global operator status of an address."
      },
      "getIsLocalOperator(address,address)": {
        "notice": "Gets the local operator status of an operator for a particular account."
      },
      "getMinCollateral()": {
        "notice": "Gets minimum collateralization ratio of the protocol."
      },
      "getOracleContract()": {
        "notice": "Gets the current address of the price oracle contract."
      },
      "getOraclePrice()": {
        "notice": "Gets the price returned by the oracle."
      },
      "getTokenContract()": {
        "notice": "Gets the address of the ERC20 margin contract used for margin deposits."
      },
      "hasAccountPermissions(address,address)": {
        "notice": "Gets whether an address has permissions to operate an account."
      },
      "setFunder(address)": {
        "notice": "Sets a new funder contract."
      },
      "setGlobalOperator(address,bool)": {
        "notice": "Add or remove a Global Operator address."
      },
      "setLocalOperator(address,bool)": {
        "notice": "Grants or revokes permission for another account to perform certain actions on behalf of the sender."
      },
      "setMinCollateral(uint256)": {
        "notice": "Sets a new value for the minimum collateralization percentage."
      },
      "setOracle(address)": {
        "notice": "Sets a new price oracle contract."
      },
      "trade(address[],(uint256,uint256,address,bytes)[])": {
        "notice": "Submits one or more trades between any number of accounts."
      },
      "withdraw(address,address,uint256)": {
        "notice": "Withdraw some amount of margin tokens from an account to a destination address."
      },
      "withdrawFinalSettlement()": {
        "notice": "Withdraw the number of margin tokens equal to the value of the account at the time that final settlement occurred."
      }
    },
    "notice": "A market for a perpetual contract, a financial derivative which may be traded on margin and which aims to closely track the spot price of an underlying asset. The underlying asset is specified via the price oracle which reports its spot price. Tethering of the perpetual market price is supported by a funding oracle which governs funding payments between longs and shorts."
  }
}