{
  "contractName": "Test_P1Trader",
  "abi": [
    {
      "constant": true,
      "inputs": [],
      "name": "TRADER_FLAG_RESULT_2",
      "outputs": [
        {
          "internalType": "bytes32",
          "name": "",
          "type": "bytes32"
        }
      ],
      "payable": false,
      "stateMutability": "view",
      "type": "function"
    },
    {
      "constant": true,
      "inputs": [],
      "name": "_TRADE_RESULT_",
      "outputs": [
        {
          "internalType": "uint256",
          "name": "marginAmount",
          "type": "uint256"
        },
        {
          "internalType": "uint256",
          "name": "positionAmount",
          "type": "uint256"
        },
        {
          "internalType": "bool",
          "name": "isBuy",
          "type": "bool"
        },
        {
          "internalType": "bytes32",
          "name": "traderFlags",
          "type": "bytes32"
        }
      ],
      "payable": false,
      "stateMutability": "view",
      "type": "function"
    },
    {
      "constant": true,
      "inputs": [],
      "name": "_TRADE_RESULT_2_",
      "outputs": [
        {
          "internalType": "uint256",
          "name": "marginAmount",
          "type": "uint256"
        },
        {
          "internalType": "uint256",
          "name": "positionAmount",
          "type": "uint256"
        },
        {
          "internalType": "bool",
          "name": "isBuy",
          "type": "bool"
        },
        {
          "internalType": "bytes32",
          "name": "traderFlags",
          "type": "bytes32"
        }
      ],
      "payable": false,
      "stateMutability": "view",
      "type": "function"
    },
    {
      "constant": false,
      "inputs": [
        {
          "internalType": "address",
          "name": "",
          "type": "address"
        },
        {
          "internalType": "address",
          "name": "",
          "type": "address"
        },
        {
          "internalType": "address",
          "name": "",
          "type": "address"
        },
        {
          "internalType": "uint256",
          "name": "",
          "type": "uint256"
        },
        {
          "internalType": "bytes",
          "name": "",
          "type": "bytes"
        },
        {
          "internalType": "bytes32",
          "name": "traderFlags",
          "type": "bytes32"
        }
      ],
      "name": "trade",
      "outputs": [
        {
          "components": [
            {
              "internalType": "uint256",
              "name": "marginAmount",
              "type": "uint256"
            },
            {
              "internalType": "uint256",
              "name": "positionAmount",
              "type": "uint256"
            },
            {
              "internalType": "bool",
              "name": "isBuy",
              "type": "bool"
            },
            {
              "internalType": "bytes32",
              "name": "traderFlags",
              "type": "bytes32"
            }
          ],
          "internalType": "struct P1Types.TradeResult",
          "name": "",
          "type": "tuple"
        }
      ],
      "payable": false,
      "stateMutability": "nonpayable",
      "type": "function"
    },
    {
      "constant": false,
      "inputs": [
        {
          "internalType": "uint256",
          "name": "marginAmount",
          "type": "uint256"
        },
        {
          "internalType": "uint256",
          "name": "positionAmount",
          "type": "uint256"
        },
        {
          "internalType": "bool",
          "name": "isBuy",
          "type": "bool"
        },
        {
          "internalType": "bytes32",
          "name": "traderFlags",
          "type": "bytes32"
        }
      ],
      "name": "setTradeResult",
      "outputs": [],
      "payable": false,
      "stateMutability": "nonpayable",
      "type": "function"
    },
    {
      "constant": false,
      "inputs": [
        {
          "internalType": "uint256",
          "name": "marginAmount",
          "type": "uint256"
        },
        {
          "internalType": "uint256",
          "name": "positionAmount",
          "type": "uint256"
        },
        {
          "internalType": "bool",
          "name": "isBuy",
          "type": "bool"
        },
        {
          "internalType": "bytes32",
          "name": "traderFlags",
          "type": "bytes32"
        }
      ],
      "name": "setSecondTradeResult",
      "outputs": [],
      "payable": false,
      "stateMutability": "nonpayable",
      "type": "function"
    }
  ],
  "bytecode": "0x608060405234801561001057600080fd5b506105a3806100206000396000f3fe608060405234801561001057600080fd5b50600436106100725760003560e01c806375092a301161005057806375092a30146100c2578063970c2ba1146100ca578063e53adbb2146100ea57610072565b8063495f9bff1461007757806363a3d85f146100985780636d2c6021146100ad575b600080fd5b61007f6100fd565b60405161008f94939291906104cd565b60405180910390f35b6100ab6100a63660046103e8565b610112565b005b6100b5610173565b60405161008f91906104b1565b61007f610197565b6100dd6100d8366004610343565b6101ac565b60405161008f91906104bf565b6100ab6100f83660046103e8565b61024b565b60005460015460025460035460ff9091169084565b60408051608081018252858152602081018590529215159083018190526060909201819052600493909355600591909155600680547fffffffffffffffffffffffffffffffffffffffffffffffffffffffffffffff00169091179055600755565b7fffffffffffffffffffffffffffffffffffffffffffffffffffffffffffffffff81565b60045460055460065460075460ff9091169084565b6101b46102ac565b7fffffffffffffffffffffffffffffffffffffffffffffffffffffffffffffffff8214156102105750604080516080810182526004548152600554602082015260065460ff161515918101919091526007546060820152610240565b50604080516080810182526000548152600154602082015260025460ff1615159181019190915260035460608201525b979650505050505050565b60408051608081018252858152602081018590529215159083018190526060909201819052600093909355600191909155600280547fffffffffffffffffffffffffffffffffffffffffffffffffffffffffffffff00169091179055600355565b60408051608081018252600080825260208201819052918101829052606081019190915290565b80356102de81610537565b92915050565b80356102de8161054e565b80356102de81610557565b60008083601f84011261030c57600080fd5b50813567ffffffffffffffff81111561032457600080fd5b60208301915083600182028301111561033c57600080fd5b9250929050565b600080600080600080600060c0888a03121561035e57600080fd5b600061036a8a8a6102d3565b975050602061037b8a828b016102d3565b965050604061038c8a828b016102d3565b955050606061039d8a828b016102ef565b945050608088013567ffffffffffffffff8111156103ba57600080fd5b6103c68a828b016102fa565b935093505060a06103d98a828b016102ef565b91505092959891949750929550565b600080600080608085870312156103fe57600080fd5b600061040a87876102ef565b945050602061041b878288016102ef565b935050604061042c878288016102e4565b925050606061043d878288016102ef565b91505092959194509250565b61045281610516565b82525050565b6104528161051b565b805160808301906104728482610458565b5060208201516104856020850182610458565b5060408201516104986040850182610449565b5060608201516104ab6060850182610458565b50505050565b602081016102de8284610458565b608081016102de8284610461565b608081016104db8287610458565b6104e86020830186610458565b6104f56040830185610449565b6105026060830184610458565b95945050505050565b60006102de8261051e565b151590565b90565b73ffffffffffffffffffffffffffffffffffffffff1690565b6105408161050b565b811461054b57600080fd5b50565b61054081610516565b6105408161051b56fea365627a7a72315820d8cb3edd9b6f6e35c6966f80e91687890bb57cf7f8e48b1d6f6ee261101af7f26c6578706572696d656e74616cf564736f6c63430005100040",
  "source": "/*\n\n    Copyright 2020 dYdX Trading Inc.\n\n    Licensed under the Apache License, Version 2.0 (the \"License\");\n    you may not use this file except in compliance with the License.\n    You may obtain a copy of the License at\n\n    http://www.apache.org/licenses/LICENSE-2.0\n\n    Unless required by applicable law or agreed to in writing, software\n    distributed under the License is distributed on an \"AS IS\" BASIS,\n    WITHOUT WARRANTIES OR CONDITIONS OF ANY KIND, either express or implied.\n    See the License for the specific language governing permissions and\n    limitations under the License.\n\n*/\n\npragma solidity 0.5.16;\npragma experimental ABIEncoderV2;\n\nimport { I_P1Trader } from \"../../protocol/v1/intf/I_P1Trader.sol\";\nimport { P1Types } from \"../../protocol/v1/lib/P1Types.sol\";\n\n\n/**\n * @title Test_P1Trader\n * @author dYdX\n *\n * @notice I_P1Trader implementation for testing.\n */\n/* solium-disable-next-line camelcase */\ncontract Test_P1Trader is\n    I_P1Trader\n{\n    P1Types.TradeResult public _TRADE_RESULT_;\n    P1Types.TradeResult public _TRADE_RESULT_2_;\n\n    // Special testing-only trader flag that will cause the second result to be returned.\n    bytes32 constant public TRADER_FLAG_RESULT_2 = bytes32(~uint256(0));\n\n    function trade(\n        address, // sender\n        address, // maker\n        address, // taker\n        uint256, // price\n        bytes calldata, // data\n        bytes32 traderFlags\n    )\n        external\n        returns (P1Types.TradeResult memory)\n    {\n        if (traderFlags == TRADER_FLAG_RESULT_2) {\n            return _TRADE_RESULT_2_;\n        }\n        return _TRADE_RESULT_;\n    }\n\n    function setTradeResult(\n        uint256 marginAmount,\n        uint256 positionAmount,\n        bool isBuy,\n        bytes32 traderFlags\n    )\n        external\n    {\n        _TRADE_RESULT_ = P1Types.TradeResult({\n            marginAmount: marginAmount,\n            positionAmount: positionAmount,\n            isBuy: isBuy,\n            traderFlags: traderFlags\n        });\n    }\n\n    /**\n     * Sets a second trade result which can be triggered by the trader flags of the first trade.\n     */\n    function setSecondTradeResult(\n        uint256 marginAmount,\n        uint256 positionAmount,\n        bool isBuy,\n        bytes32 traderFlags\n    )\n        external\n    {\n        _TRADE_RESULT_2_ = P1Types.TradeResult({\n            marginAmount: marginAmount,\n            positionAmount: positionAmount,\n            isBuy: isBuy,\n            traderFlags: traderFlags\n        });\n    }\n}\n",
  "sourcePath": "/Users/dennismacpro/Projects/Defi/Ethereum-Solidity-Collection/icarus-protocol/defi-seeder/.tmp/dydx-protocol/perpetual/contracts/test/v1/Test_P1Trader.sol",
  "compiler": {
    "name": "solc",
    "version": "0.5.16+commit.9c3226ce.Linux.g++"
  },
  "schemaVersion": "3.3.4",
  "updatedAt": "2021-04-01T16:42:57.493Z",
  "devdoc": {
    "author": "dYdX",
    "methods": {},
    "title": "Test_P1Trader"
  },
  "userdoc": {
    "methods": {
      "setSecondTradeResult(uint256,uint256,bool,bytes32)": {
        "notice": "Sets a second trade result which can be triggered by the trader flags of the first trade."
      }
    },
    "notice": "I_P1Trader implementation for testing."
  }
}