{
  "contractName": "Test_Lib",
  "abi": [
    {
      "constant": true,
      "inputs": [],
      "name": "base",
      "outputs": [
        {
          "internalType": "uint256",
          "name": "",
          "type": "uint256"
        }
      ],
      "payable": false,
      "stateMutability": "pure",
      "type": "function"
    },
    {
      "constant": true,
      "inputs": [
        {
          "internalType": "uint256",
          "name": "value",
          "type": "uint256"
        },
        {
          "internalType": "uint256",
          "name": "baseValue",
          "type": "uint256"
        }
      ],
      "name": "baseMul",
      "outputs": [
        {
          "internalType": "uint256",
          "name": "",
          "type": "uint256"
        }
      ],
      "payable": false,
      "stateMutability": "pure",
      "type": "function"
    },
    {
      "constant": true,
      "inputs": [
        {
          "internalType": "uint256",
          "name": "value",
          "type": "uint256"
        },
        {
          "internalType": "uint256",
          "name": "baseValue",
          "type": "uint256"
        }
      ],
      "name": "baseDivMul",
      "outputs": [
        {
          "internalType": "uint256",
          "name": "",
          "type": "uint256"
        }
      ],
      "payable": false,
      "stateMutability": "pure",
      "type": "function"
    },
    {
      "constant": true,
      "inputs": [
        {
          "internalType": "uint256",
          "name": "value",
          "type": "uint256"
        },
        {
          "internalType": "uint256",
          "name": "baseValue",
          "type": "uint256"
        }
      ],
      "name": "baseMulRoundUp",
      "outputs": [
        {
          "internalType": "uint256",
          "name": "",
          "type": "uint256"
        }
      ],
      "payable": false,
      "stateMutability": "pure",
      "type": "function"
    },
    {
      "constant": true,
      "inputs": [
        {
          "internalType": "uint256",
          "name": "value",
          "type": "uint256"
        },
        {
          "internalType": "uint256",
          "name": "baseValue",
          "type": "uint256"
        }
      ],
      "name": "baseDiv",
      "outputs": [
        {
          "internalType": "uint256",
          "name": "",
          "type": "uint256"
        }
      ],
      "payable": false,
      "stateMutability": "pure",
      "type": "function"
    },
    {
      "constant": true,
      "inputs": [
        {
          "internalType": "uint256",
          "name": "baseValue",
          "type": "uint256"
        }
      ],
      "name": "baseReciprocal",
      "outputs": [
        {
          "internalType": "uint256",
          "name": "",
          "type": "uint256"
        }
      ],
      "payable": false,
      "stateMutability": "pure",
      "type": "function"
    },
    {
      "constant": true,
      "inputs": [
        {
          "internalType": "uint256",
          "name": "target",
          "type": "uint256"
        },
        {
          "internalType": "uint256",
          "name": "numerator",
          "type": "uint256"
        },
        {
          "internalType": "uint256",
          "name": "denominator",
          "type": "uint256"
        }
      ],
      "name": "getFraction",
      "outputs": [
        {
          "internalType": "uint256",
          "name": "",
          "type": "uint256"
        }
      ],
      "payable": false,
      "stateMutability": "pure",
      "type": "function"
    },
    {
      "constant": true,
      "inputs": [
        {
          "internalType": "uint256",
          "name": "target",
          "type": "uint256"
        },
        {
          "internalType": "uint256",
          "name": "numerator",
          "type": "uint256"
        },
        {
          "internalType": "uint256",
          "name": "denominator",
          "type": "uint256"
        }
      ],
      "name": "getFractionRoundUp",
      "outputs": [
        {
          "internalType": "uint256",
          "name": "",
          "type": "uint256"
        }
      ],
      "payable": false,
      "stateMutability": "pure",
      "type": "function"
    },
    {
      "constant": true,
      "inputs": [
        {
          "internalType": "uint256",
          "name": "a",
          "type": "uint256"
        },
        {
          "internalType": "uint256",
          "name": "b",
          "type": "uint256"
        }
      ],
      "name": "min",
      "outputs": [
        {
          "internalType": "uint256",
          "name": "",
          "type": "uint256"
        }
      ],
      "payable": false,
      "stateMutability": "pure",
      "type": "function"
    },
    {
      "constant": true,
      "inputs": [
        {
          "internalType": "uint256",
          "name": "a",
          "type": "uint256"
        },
        {
          "internalType": "uint256",
          "name": "b",
          "type": "uint256"
        }
      ],
      "name": "max",
      "outputs": [
        {
          "internalType": "uint256",
          "name": "",
          "type": "uint256"
        }
      ],
      "payable": false,
      "stateMutability": "pure",
      "type": "function"
    },
    {
      "constant": true,
      "inputs": [
        {
          "internalType": "bool",
          "name": "must",
          "type": "bool"
        },
        {
          "internalType": "string",
          "name": "requireReason",
          "type": "string"
        },
        {
          "internalType": "address",
          "name": "addr",
          "type": "address"
        }
      ],
      "name": "that",
      "outputs": [],
      "payable": false,
      "stateMutability": "pure",
      "type": "function"
    },
    {
      "constant": true,
      "inputs": [
        {
          "internalType": "uint256",
          "name": "value",
          "type": "uint256"
        }
      ],
      "name": "toUint128",
      "outputs": [
        {
          "internalType": "uint128",
          "name": "",
          "type": "uint128"
        }
      ],
      "payable": false,
      "stateMutability": "pure",
      "type": "function"
    },
    {
      "constant": true,
      "inputs": [
        {
          "internalType": "uint256",
          "name": "value",
          "type": "uint256"
        }
      ],
      "name": "toUint120",
      "outputs": [
        {
          "internalType": "uint120",
          "name": "",
          "type": "uint120"
        }
      ],
      "payable": false,
      "stateMutability": "pure",
      "type": "function"
    },
    {
      "constant": true,
      "inputs": [
        {
          "internalType": "uint256",
          "name": "value",
          "type": "uint256"
        }
      ],
      "name": "toUint32",
      "outputs": [
        {
          "internalType": "uint32",
          "name": "",
          "type": "uint32"
        }
      ],
      "payable": false,
      "stateMutability": "pure",
      "type": "function"
    },
    {
      "constant": true,
      "inputs": [
        {
          "components": [
            {
              "internalType": "uint256",
              "name": "value",
              "type": "uint256"
            },
            {
              "internalType": "bool",
              "name": "isPositive",
              "type": "bool"
            }
          ],
          "internalType": "struct SignedMath.Int",
          "name": "sint",
          "type": "tuple"
        },
        {
          "internalType": "uint256",
          "name": "value",
          "type": "uint256"
        }
      ],
      "name": "add",
      "outputs": [
        {
          "components": [
            {
              "internalType": "uint256",
              "name": "value",
              "type": "uint256"
            },
            {
              "internalType": "bool",
              "name": "isPositive",
              "type": "bool"
            }
          ],
          "internalType": "struct SignedMath.Int",
          "name": "",
          "type": "tuple"
        }
      ],
      "payable": false,
      "stateMutability": "pure",
      "type": "function"
    },
    {
      "constant": true,
      "inputs": [
        {
          "components": [
            {
              "internalType": "uint256",
              "name": "value",
              "type": "uint256"
            },
            {
              "internalType": "bool",
              "name": "isPositive",
              "type": "bool"
            }
          ],
          "internalType": "struct SignedMath.Int",
          "name": "sint",
          "type": "tuple"
        },
        {
          "internalType": "uint256",
          "name": "value",
          "type": "uint256"
        }
      ],
      "name": "sub",
      "outputs": [
        {
          "components": [
            {
              "internalType": "uint256",
              "name": "value",
              "type": "uint256"
            },
            {
              "internalType": "bool",
              "name": "isPositive",
              "type": "bool"
            }
          ],
          "internalType": "struct SignedMath.Int",
          "name": "",
          "type": "tuple"
        }
      ],
      "payable": false,
      "stateMutability": "pure",
      "type": "function"
    },
    {
      "constant": true,
      "inputs": [
        {
          "components": [
            {
              "internalType": "uint256",
              "name": "value",
              "type": "uint256"
            },
            {
              "internalType": "bool",
              "name": "isPositive",
              "type": "bool"
            }
          ],
          "internalType": "struct SignedMath.Int",
          "name": "augend",
          "type": "tuple"
        },
        {
          "components": [
            {
              "internalType": "uint256",
              "name": "value",
              "type": "uint256"
            },
            {
              "internalType": "bool",
              "name": "isPositive",
              "type": "bool"
            }
          ],
          "internalType": "struct SignedMath.Int",
          "name": "addend",
          "type": "tuple"
        }
      ],
      "name": "signedAdd",
      "outputs": [
        {
          "components": [
            {
              "internalType": "uint256",
              "name": "value",
              "type": "uint256"
            },
            {
              "internalType": "bool",
              "name": "isPositive",
              "type": "bool"
            }
          ],
          "internalType": "struct SignedMath.Int",
          "name": "",
          "type": "tuple"
        }
      ],
      "payable": false,
      "stateMutability": "pure",
      "type": "function"
    },
    {
      "constant": true,
      "inputs": [
        {
          "components": [
            {
              "internalType": "uint256",
              "name": "value",
              "type": "uint256"
            },
            {
              "internalType": "bool",
              "name": "isPositive",
              "type": "bool"
            }
          ],
          "internalType": "struct SignedMath.Int",
          "name": "minuend",
          "type": "tuple"
        },
        {
          "components": [
            {
              "internalType": "uint256",
              "name": "value",
              "type": "uint256"
            },
            {
              "internalType": "bool",
              "name": "isPositive",
              "type": "bool"
            }
          ],
          "internalType": "struct SignedMath.Int",
          "name": "subtrahend",
          "type": "tuple"
        }
      ],
      "name": "signedSub",
      "outputs": [
        {
          "components": [
            {
              "internalType": "uint256",
              "name": "value",
              "type": "uint256"
            },
            {
              "internalType": "bool",
              "name": "isPositive",
              "type": "bool"
            }
          ],
          "internalType": "struct SignedMath.Int",
          "name": "",
          "type": "tuple"
        }
      ],
      "payable": false,
      "stateMutability": "pure",
      "type": "function"
    },
    {
      "constant": true,
      "inputs": [
        {
          "internalType": "bytes32",
          "name": "slot",
          "type": "bytes32"
        }
      ],
      "name": "load",
      "outputs": [
        {
          "internalType": "bytes32",
          "name": "",
          "type": "bytes32"
        }
      ],
      "payable": false,
      "stateMutability": "view",
      "type": "function"
    },
    {
      "constant": false,
      "inputs": [
        {
          "internalType": "bytes32",
          "name": "slot",
          "type": "bytes32"
        },
        {
          "internalType": "bytes32",
          "name": "value",
          "type": "bytes32"
        }
      ],
      "name": "store",
      "outputs": [],
      "payable": false,
      "stateMutability": "nonpayable",
      "type": "function"
    },
    {
      "constant": true,
      "inputs": [
        {
          "internalType": "bytes32",
          "name": "hash",
          "type": "bytes32"
        },
        {
          "internalType": "bytes",
          "name": "signatureBytes",
          "type": "bytes"
        }
      ],
      "name": "recover",
      "outputs": [
        {
          "internalType": "address",
          "name": "",
          "type": "address"
        }
      ],
      "payable": false,
      "stateMutability": "pure",
      "type": "function"
    },
    {
      "constant": true,
      "inputs": [
        {
          "components": [
            {
              "internalType": "bool",
              "name": "marginIsPositive",
              "type": "bool"
            },
            {
              "internalType": "bool",
              "name": "positionIsPositive",
              "type": "bool"
            },
            {
              "internalType": "uint120",
              "name": "margin",
              "type": "uint120"
            },
            {
              "internalType": "uint120",
              "name": "position",
              "type": "uint120"
            }
          ],
          "internalType": "struct P1Types.Balance",
          "name": "balance",
          "type": "tuple"
        }
      ],
      "name": "copy",
      "outputs": [
        {
          "components": [
            {
              "internalType": "bool",
              "name": "marginIsPositive",
              "type": "bool"
            },
            {
              "internalType": "bool",
              "name": "positionIsPositive",
              "type": "bool"
            },
            {
              "internalType": "uint120",
              "name": "margin",
              "type": "uint120"
            },
            {
              "internalType": "uint120",
              "name": "position",
              "type": "uint120"
            }
          ],
          "internalType": "struct P1Types.Balance",
          "name": "",
          "type": "tuple"
        }
      ],
      "payable": false,
      "stateMutability": "pure",
      "type": "function"
    },
    {
      "constant": true,
      "inputs": [
        {
          "components": [
            {
              "internalType": "bool",
              "name": "marginIsPositive",
              "type": "bool"
            },
            {
              "internalType": "bool",
              "name": "positionIsPositive",
              "type": "bool"
            },
            {
              "internalType": "uint120",
              "name": "margin",
              "type": "uint120"
            },
            {
              "internalType": "uint120",
              "name": "position",
              "type": "uint120"
            }
          ],
          "internalType": "struct P1Types.Balance",
          "name": "balance",
          "type": "tuple"
        },
        {
          "internalType": "uint256",
          "name": "amount",
          "type": "uint256"
        }
      ],
      "name": "addToMargin",
      "outputs": [
        {
          "components": [
            {
              "internalType": "bool",
              "name": "marginIsPositive",
              "type": "bool"
            },
            {
              "internalType": "bool",
              "name": "positionIsPositive",
              "type": "bool"
            },
            {
              "internalType": "uint120",
              "name": "margin",
              "type": "uint120"
            },
            {
              "internalType": "uint120",
              "name": "position",
              "type": "uint120"
            }
          ],
          "internalType": "struct P1Types.Balance",
          "name": "",
          "type": "tuple"
        }
      ],
      "payable": false,
      "stateMutability": "pure",
      "type": "function"
    },
    {
      "constant": true,
      "inputs": [
        {
          "components": [
            {
              "internalType": "bool",
              "name": "marginIsPositive",
              "type": "bool"
            },
            {
              "internalType": "bool",
              "name": "positionIsPositive",
              "type": "bool"
            },
            {
              "internalType": "uint120",
              "name": "margin",
              "type": "uint120"
            },
            {
              "internalType": "uint120",
              "name": "position",
              "type": "uint120"
            }
          ],
          "internalType": "struct P1Types.Balance",
          "name": "balance",
          "type": "tuple"
        },
        {
          "internalType": "uint256",
          "name": "amount",
          "type": "uint256"
        }
      ],
      "name": "subFromMargin",
      "outputs": [
        {
          "components": [
            {
              "internalType": "bool",
              "name": "marginIsPositive",
              "type": "bool"
            },
            {
              "internalType": "bool",
              "name": "positionIsPositive",
              "type": "bool"
            },
            {
              "internalType": "uint120",
              "name": "margin",
              "type": "uint120"
            },
            {
              "internalType": "uint120",
              "name": "position",
              "type": "uint120"
            }
          ],
          "internalType": "struct P1Types.Balance",
          "name": "",
          "type": "tuple"
        }
      ],
      "payable": false,
      "stateMutability": "pure",
      "type": "function"
    },
    {
      "constant": true,
      "inputs": [
        {
          "components": [
            {
              "internalType": "bool",
              "name": "marginIsPositive",
              "type": "bool"
            },
            {
              "internalType": "bool",
              "name": "positionIsPositive",
              "type": "bool"
            },
            {
              "internalType": "uint120",
              "name": "margin",
              "type": "uint120"
            },
            {
              "internalType": "uint120",
              "name": "position",
              "type": "uint120"
            }
          ],
          "internalType": "struct P1Types.Balance",
          "name": "balance",
          "type": "tuple"
        },
        {
          "internalType": "uint256",
          "name": "amount",
          "type": "uint256"
        }
      ],
      "name": "addToPosition",
      "outputs": [
        {
          "components": [
            {
              "internalType": "bool",
              "name": "marginIsPositive",
              "type": "bool"
            },
            {
              "internalType": "bool",
              "name": "positionIsPositive",
              "type": "bool"
            },
            {
              "internalType": "uint120",
              "name": "margin",
              "type": "uint120"
            },
            {
              "internalType": "uint120",
              "name": "position",
              "type": "uint120"
            }
          ],
          "internalType": "struct P1Types.Balance",
          "name": "",
          "type": "tuple"
        }
      ],
      "payable": false,
      "stateMutability": "pure",
      "type": "function"
    },
    {
      "constant": true,
      "inputs": [
        {
          "components": [
            {
              "internalType": "bool",
              "name": "marginIsPositive",
              "type": "bool"
            },
            {
              "internalType": "bool",
              "name": "positionIsPositive",
              "type": "bool"
            },
            {
              "internalType": "uint120",
              "name": "margin",
              "type": "uint120"
            },
            {
              "internalType": "uint120",
              "name": "position",
              "type": "uint120"
            }
          ],
          "internalType": "struct P1Types.Balance",
          "name": "balance",
          "type": "tuple"
        },
        {
          "internalType": "uint256",
          "name": "amount",
          "type": "uint256"
        }
      ],
      "name": "subFromPosition",
      "outputs": [
        {
          "components": [
            {
              "internalType": "bool",
              "name": "marginIsPositive",
              "type": "bool"
            },
            {
              "internalType": "bool",
              "name": "positionIsPositive",
              "type": "bool"
            },
            {
              "internalType": "uint120",
              "name": "margin",
              "type": "uint120"
            },
            {
              "internalType": "uint120",
              "name": "position",
              "type": "uint120"
            }
          ],
          "internalType": "struct P1Types.Balance",
          "name": "",
          "type": "tuple"
        }
      ],
      "payable": false,
      "stateMutability": "pure",
      "type": "function"
    },
    {
      "constant": true,
      "inputs": [
        {
          "components": [
            {
              "internalType": "bool",
              "name": "marginIsPositive",
              "type": "bool"
            },
            {
              "internalType": "bool",
              "name": "positionIsPositive",
              "type": "bool"
            },
            {
              "internalType": "uint120",
              "name": "margin",
              "type": "uint120"
            },
            {
              "internalType": "uint120",
              "name": "position",
              "type": "uint120"
            }
          ],
          "internalType": "struct P1Types.Balance",
          "name": "balance",
          "type": "tuple"
        },
        {
          "internalType": "uint256",
          "name": "price",
          "type": "uint256"
        }
      ],
      "name": "getPositiveAndNegativeValue",
      "outputs": [
        {
          "internalType": "uint256",
          "name": "",
          "type": "uint256"
        },
        {
          "internalType": "uint256",
          "name": "",
          "type": "uint256"
        }
      ],
      "payable": false,
      "stateMutability": "pure",
      "type": "function"
    },
    {
      "constant": true,
      "inputs": [
        {
          "components": [
            {
              "internalType": "bool",
              "name": "marginIsPositive",
              "type": "bool"
            },
            {
              "internalType": "bool",
              "name": "positionIsPositive",
              "type": "bool"
            },
            {
              "internalType": "uint120",
              "name": "margin",
              "type": "uint120"
            },
            {
              "internalType": "uint120",
              "name": "position",
              "type": "uint120"
            }
          ],
          "internalType": "struct P1Types.Balance",
          "name": "balance",
          "type": "tuple"
        }
      ],
      "name": "getMargin",
      "outputs": [
        {
          "components": [
            {
              "internalType": "uint256",
              "name": "value",
              "type": "uint256"
            },
            {
              "internalType": "bool",
              "name": "isPositive",
              "type": "bool"
            }
          ],
          "internalType": "struct SignedMath.Int",
          "name": "",
          "type": "tuple"
        }
      ],
      "payable": false,
      "stateMutability": "pure",
      "type": "function"
    },
    {
      "constant": true,
      "inputs": [
        {
          "components": [
            {
              "internalType": "bool",
              "name": "marginIsPositive",
              "type": "bool"
            },
            {
              "internalType": "bool",
              "name": "positionIsPositive",
              "type": "bool"
            },
            {
              "internalType": "uint120",
              "name": "margin",
              "type": "uint120"
            },
            {
              "internalType": "uint120",
              "name": "position",
              "type": "uint120"
            }
          ],
          "internalType": "struct P1Types.Balance",
          "name": "balance",
          "type": "tuple"
        }
      ],
      "name": "getPosition",
      "outputs": [
        {
          "components": [
            {
              "internalType": "uint256",
              "name": "value",
              "type": "uint256"
            },
            {
              "internalType": "bool",
              "name": "isPositive",
              "type": "bool"
            }
          ],
          "internalType": "struct SignedMath.Int",
          "name": "",
          "type": "tuple"
        }
      ],
      "payable": false,
      "stateMutability": "pure",
      "type": "function"
    },
    {
      "constant": true,
      "inputs": [
        {
          "components": [
            {
              "internalType": "bool",
              "name": "marginIsPositive",
              "type": "bool"
            },
            {
              "internalType": "bool",
              "name": "positionIsPositive",
              "type": "bool"
            },
            {
              "internalType": "uint120",
              "name": "margin",
              "type": "uint120"
            },
            {
              "internalType": "uint120",
              "name": "position",
              "type": "uint120"
            }
          ],
          "internalType": "struct P1Types.Balance",
          "name": "balance",
          "type": "tuple"
        },
        {
          "components": [
            {
              "internalType": "uint256",
              "name": "value",
              "type": "uint256"
            },
            {
              "internalType": "bool",
              "name": "isPositive",
              "type": "bool"
            }
          ],
          "internalType": "struct SignedMath.Int",
          "name": "newMargin",
          "type": "tuple"
        }
      ],
      "name": "setMargin",
      "outputs": [
        {
          "components": [
            {
              "internalType": "bool",
              "name": "marginIsPositive",
              "type": "bool"
            },
            {
              "internalType": "bool",
              "name": "positionIsPositive",
              "type": "bool"
            },
            {
              "internalType": "uint120",
              "name": "margin",
              "type": "uint120"
            },
            {
              "internalType": "uint120",
              "name": "position",
              "type": "uint120"
            }
          ],
          "internalType": "struct P1Types.Balance",
          "name": "",
          "type": "tuple"
        }
      ],
      "payable": false,
      "stateMutability": "pure",
      "type": "function"
    },
    {
      "constant": true,
      "inputs": [
        {
          "components": [
            {
              "internalType": "bool",
              "name": "marginIsPositive",
              "type": "bool"
            },
            {
              "internalType": "bool",
              "name": "positionIsPositive",
              "type": "bool"
            },
            {
              "internalType": "uint120",
              "name": "margin",
              "type": "uint120"
            },
            {
              "internalType": "uint120",
              "name": "position",
              "type": "uint120"
            }
          ],
          "internalType": "struct P1Types.Balance",
          "name": "balance",
          "type": "tuple"
        },
        {
          "components": [
            {
              "internalType": "uint256",
              "name": "value",
              "type": "uint256"
            },
            {
              "internalType": "bool",
              "name": "isPositive",
              "type": "bool"
            }
          ],
          "internalType": "struct SignedMath.Int",
          "name": "newPosition",
          "type": "tuple"
        }
      ],
      "name": "setPosition",
      "outputs": [
        {
          "components": [
            {
              "internalType": "bool",
              "name": "marginIsPositive",
              "type": "bool"
            },
            {
              "internalType": "bool",
              "name": "positionIsPositive",
              "type": "bool"
            },
            {
              "internalType": "uint120",
              "name": "margin",
              "type": "uint120"
            },
            {
              "internalType": "uint120",
              "name": "position",
              "type": "uint120"
            }
          ],
          "internalType": "struct P1Types.Balance",
          "name": "",
          "type": "tuple"
        }
      ],
      "payable": false,
      "stateMutability": "pure",
      "type": "function"
    },
    {
      "constant": false,
      "inputs": [],
      "name": "nonReentrant1",
      "outputs": [
        {
          "internalType": "uint256",
          "name": "",
          "type": "uint256"
        }
      ],
      "payable": false,
      "stateMutability": "nonpayable",
      "type": "function"
    },
    {
      "constant": false,
      "inputs": [],
      "name": "nonReentrant2",
      "outputs": [
        {
          "internalType": "uint256",
          "name": "",
          "type": "uint256"
        }
      ],
      "payable": false,
      "stateMutability": "nonpayable",
      "type": "function"
    }
  ],
  "bytecode": "0x608060405260016000556120c7806100186000396000f3fe608060405234801561001057600080fd5b506004361061020b5760003560e01c80637dc1e49a1161012a578063c8193255116100bd578063d46b4aff1161008c578063ded7c1c511610071578063ded7c1c51461049d578063e78af4ec146104b0578063f0350799146104c35761020b565b8063d46b4aff14610469578063d5ae406c1461047c5761020b565b8063c819325514610410578063ce18b19014610430578063cf17840814610443578063d165c800146104565761020b565b80638f6561af116100f95780638f6561af146103c457806397259d26146103d7578063b63f6580146103ea578063c1f7ea1e146103fd5761020b565b80637dc1e49a1461036b5780637dd1c9621461037e57806380778a4f14610391578063809fdd33146103a45761020b565b80634c93be61116101a25780636394400f116101715780636394400f1461032a5780636d5433e61461033d5780637ae2b5c7146103505780637bdfba4b146103635761020b565b80634c93be61146102e95780635001f3b5146102fc57806351894bf6146103045780635b827a5d146103175761020b565b80632953a626116101de5780632953a626146102995780634000e4f6146102ac578063437348e7146102c15780634437e178146102d45761020b565b80630d261665146102105780631491ac011461023957806319045a25146102595780631e4e4bad14610279575b600080fd5b61022361021e3660046118e9565b6104d6565b6040516102309190611ead565b60405180910390f35b61024c6102473660046118cb565b610518565b6040516102309190611ebb565b61026c610267366004611875565b610537565b6040516102309190611de2565b61028c61028736600461181d565b610564565b6040516102309190611ec9565b61024c6102a7366004611997565b61056f565b6102bf6102ba36600461183b565b61058f565b005b6102236102cf366004611919565b61059d565b6102dc6105c8565b6040516102309190611df0565b6102bf6102f73660046117b3565b6106e0565b6102dc610728565b61024c610312366004611967565b610737565b6102dc610325366004611a21565b610765565b6102dc61033836600461183b565b61077a565b6102dc61034b36600461183b565b610786565b6102dc61035e36600461183b565b610792565b6102dc61079e565b6102dc61037936600461181d565b610807565b61022361038c366004611919565b610812565b61022361039f3660046118e9565b61083d565b6103b76103b236600461181d565b610876565b6040516102309190611ed7565b6102dc6103d236600461183b565b610881565b6102dc6103e5366004611a21565b61088d565b61024c6103f8366004611967565b61089a565b61024c61040b3660046118cb565b6108c8565b61042361041e36600461181d565b6108e7565b6040516102309190611f00565b6102dc61043e36600461183b565b6108f2565b610223610451366004611919565b6108fe565b61024c610464366004611997565b610929565b6102236104773660046118cb565b610949565b61048f61048a366004611919565b610968565b604051610230929190611ee5565b6102dc6104ab36600461183b565b61098f565b6102236104be366004611919565b61099b565b6102dc6104d136600461181d565b6109c6565b6104de611596565b6104e6611596565b6104f536859003850185611949565b905061050f8161050a368690038601866119c7565b6109d1565b90505b92915050565b6105206115bd565b61051261053236849003840184611949565b6109ff565b60006105416115d4565b61054d838501856119e5565b90506105598582610a3e565b9150505b9392505050565b600061051282610bec565b6105776115bd565b61050f610589368590038501856119c7565b83610c3b565b6105998282610cda565b5050565b6105a5611596565b6105ad611596565b6105bc36859003850185611949565b905061050f8184610cde565b60007fffffffffffffffffffffffffffffffffffffffffffffffffffffffffffffffff600054141561062f576040517f08c379a000000000000000000000000000000000000000000000000000000000815260040161062690611e9d565b60405180910390fd5b7fffffffffffffffffffffffffffffffffffffffffffffffffffffffffffffffff6000819055503073ffffffffffffffffffffffffffffffffffffffff16637bdfba4b6040518163ffffffff1660e01b8152600401602060405180830381600087803b15801561069e57600080fd5b505af11580156106b2573d6000803e3d6000fd5b505050506040513d601f19601f820116820180604052506106d69190810190611a03565b9050600160005590565b6107228484848080601f016020809104026020016040519081016040528093929190818152602001838380828437600092019190915250869250610d18915050565b50505050565b6000610732610d96565b905090565b61073f6115bd565b61050f610751368590038501856119c7565b610760368590038501856119c7565b610da2565b6000610772848484610dd4565b949350505050565b600061050f8383610df6565b600061050f8383610e4d565b600061050f8383610e63565b60007fffffffffffffffffffffffffffffffffffffffffffffffffffffffffffffffff60005414156107fc576040517f08c379a000000000000000000000000000000000000000000000000000000000815260040161062690611e9d565b506001600090815590565b600061051282610e72565b61081a611596565b610822611596565b61083136859003850185611949565b905061050f8184610e86565b610845611596565b61084d611596565b61085c36859003850185611949565b905061050f81610871368690038601866119c7565b610ebb565b600061051282610ee6565b600061050f8383610f32565b6000610772848484610f5c565b6108a26115bd565b61050f6108b4368590038501856119c7565b6108c3368590038501856119c7565b610f9d565b6108d06115bd565b6105126108e236849003840184611949565b610fca565b600061051282610fff565b600061050f838361103f565b610906611596565b61090e611596565b61091d36859003850185611949565b905061050f818461105d565b6109316115bd565b61050f610943368590038501856119c7565b83611080565b610951611596565b61051261096336849003840184611949565b61110d565b60008061098361097d36869003860186611949565b84611173565b915091505b9250929050565b600061050f8383611230565b6109a3611596565b6109ab611596565b6109ba36859003850185611949565b905061050f818461124e565b600061051282611271565b80516109dc90610bec565b6effffffffffffffffffffffffffffff1660608301526020908101511515910152565b610a076115bd565b604051806040016040528083606001516effffffffffffffffffffffffffffff168152602001836020015115158152509050919050565b6040810151600090819060f01c60ff166003811115610a5957fe5b9050600080826003811115610a6a57fe5b1415610a77575083610b66565b6001826003811115610a8557fe5b1415610af0576040518060400160405280601c81526020017f19457468657265756d205369676e6564204d6573736167653a0a33320000000081525085604051602001610ad3929190611da8565b604051602081830303815290604052805190602001209050610b66565b6002826003811115610afe57fe5b14610b0557fe5b6040518060400160405280601b81526020017f19457468657265756d205369676e6564204d6573736167653a0a20000000000081525085604051602001610b4d929190611da8565b6040516020818303038152906040528051906020012090505b600181856040015160f81c8660000151876020015160405160008152602001604052604051610b989493929190611dfe565b6020604051602081039080840390855afa158015610bba573d6000803e3d6000fd5b50506040517fffffffffffffffffffffffffffffffffffffffffffffffffffffffffffffffe001519695505050505050565b60006f010000000000000000000000000000008210610c37576040517f08c379a000000000000000000000000000000000000000000000000000000000815260040161062690611e5d565b5090565b610c436115bd565b826020015115610c80576040518060400160405280610c6f85600001518561127590919063ffffffff16565b815260016020909101529050610512565b8251821115610cab576040518060400160405280610c6f8560000151856112b490919063ffffffff16565b6040805180820190915283518190610cc9908563ffffffff6112b416565b815260006020909101529392505050565b9055565b610ce66115bd565b610cef836109ff565b9050610d01818363ffffffff61108016565b9050610d13838263ffffffff6109d116565b505050565b82610d135781610d27826112f6565b604051602001610d38929190611dca565b604080517fffffffffffffffffffffffffffffffffffffffffffffffffffffffffffffffe0818403018152908290527f08c379a000000000000000000000000000000000000000000000000000000000825261062691600401611e3c565b670de0b6b3a764000090565b610daa6115bd565b8160200151610dc657610dc1838360000151610c3b565b61050f565b61050f838360000151611080565b600061077282610dea868663ffffffff61144716565b9063ffffffff61149b16565b6000821580610e03575081155b15610e1057506000610512565b61050f6001610e41670de0b6b3a7640000610dea83610e35898963ffffffff61144716565b9063ffffffff6112b416565b9063ffffffff61127516565b6000818311610e5c578161050f565b5090919050565b6000818310610e5c578161050f565b6000610512670de0b6b3a764000083611230565b610e8e6115bd565b610e9783610fca565b9050610ea9818363ffffffff61108016565b9050610d13838263ffffffff610ebb16565b8051610ec690610bec565b6effffffffffffffffffffffffffffff1660408301526020015115159052565b60007001000000000000000000000000000000008210610c37576040517f08c379a000000000000000000000000000000000000000000000000000000000815260040161062690611e6d565b600061050f82610f5085670de0b6b3a764000063ffffffff61149b16565b9063ffffffff61144716565b6000831580610f69575082155b15610f8057610f7960008361149b565b905061055d565b6107726001610e4184610dea83610e358a8a63ffffffff61144716565b610fa56115bd565b8160200151610fbc57610dc1838360000151611080565b61050f838360000151610c3b565b610fd26115bd565b50604080518082018252908201516effffffffffffffffffffffffffffff16815290511515602082015290565b60006401000000008210610c37576040517f08c379a000000000000000000000000000000000000000000000000000000000815260040161062690611e8d565b600061050f670de0b6b3a7640000610dea858563ffffffff61144716565b6110656115bd565b61106e836109ff565b9050610d01818363ffffffff610c3b16565b6110886115bd565b82602001516110c45760405180604001604052806110b385600001518561127590919063ffffffff16565b815260006020909101529050610512565b82518210156110eb576040805180820190915283518190610c6f908563ffffffff6112b416565b6040518060400160405280610cc98560000151856112b490919063ffffffff16565b611115611596565b604051806080016040528083600001511515815260200183602001511515815260200183604001516effffffffffffffffffffffffffffff16815260200183606001516effffffffffffffffffffffffffffff168152509050919050565b8151600090819081908190156111b7576111b061118e610d96565b60408801516effffffffffffffffffffffffffffff169063ffffffff61144716565b91506111c5565b6111c261118e610d96565b90505b60608601516000906111ee906effffffffffffffffffffffffffffff168763ffffffff61144716565b90508660200151156112115761120a838263ffffffff61127516565b9250611224565b611221828263ffffffff61127516565b91505b50909590945092505050565b600061050f82610dea85670de0b6b3a764000063ffffffff61144716565b6112566115bd565b61125f83610fca565b9050610ea9818363ffffffff610c3b16565b5490565b60008282018381101561050f576040517f08c379a000000000000000000000000000000000000000000000000000000000815260040161062690611e4d565b600061050f83836040518060400160405280601e81526020017f536166654d6174683a207375627472616374696f6e206f766572666c6f7700008152506114dd565b606080763a20307830303030303030302e2e2e303030303030303060481b6040516020016113249190611d93565b604080517fffffffffffffffffffffffffffffffffffffffffffffffffffffffffffffffe0818403018152919052905073ffffffffffffffffffffffffffffffffffffffff8316609c601c60045b600c81101561143c5761138684841c611523565b85828151811061139257fe5b60200101907effffffffffffffffffffffffffffffffffffffffffffffffffffffffffffff1916908160001a9053506113cc84831c611523565b8582600b01815181106113db57fe5b60200101907effffffffffffffffffffffffffffffffffffffffffffffffffffffffffffff1916908160001a9053507ffffffffffffffffffffffffffffffffffffffffffffffffffffffffffffffffc928301929190910190600101611372565b509295945050505050565b60008261145657506000610512565b8282028284828161146357fe5b041461050f576040517f08c379a000000000000000000000000000000000000000000000000000000000815260040161062690611e7d565b600061050f83836040518060400160405280601a81526020017f536166654d6174683a206469766973696f6e206279207a65726f000000000000815250611545565b6000818484111561151b576040517f08c379a00000000000000000000000000000000000000000000000000000000081526004016106269190611e3c565b505050900390565b6000600f8216600a811061153857605761153b565b60305b0160f81b92915050565b60008183611580576040517f08c379a00000000000000000000000000000000000000000000000000000000081526004016106269190611e3c565b50600083858161158c57fe5b0495945050505050565b60408051608081018252600080825260208201819052918101829052606081019190915290565b604080518082019091526000808252602082015290565b604080516060810182526000808252602082018190529181019190915290565b803561051281612049565b803561051281612060565b803561051281612069565b803561051281612072565b60008083601f84011261163257600080fd5b50813567ffffffffffffffff81111561164a57600080fd5b60208301915083600182028301111561098857600080fd5b60006080828403121561167457600080fd5b50919050565b60006080828403121561168c57600080fd5b6116966080611f0e565b905060006116a484846115ff565b82525060206116b5848483016115ff565b60208301525060406116c98482850161179d565b60408301525060606116dd8482850161179d565b60608301525092915050565b60006040828403121561167457600080fd5b60006040828403121561170d57600080fd5b6117176040611f0e565b905060006117258484611615565b8252506020611736848483016115ff565b60208301525092915050565b60006060828403121561175457600080fd5b61175e6060611f0e565b9050600061176c8484611615565b825250602061177d84848301611615565b60208301525060406117918482850161160a565b60408301525092915050565b80356105128161207b565b805161051281612072565b600080600080606085870312156117c957600080fd5b60006117d587876115ff565b945050602085013567ffffffffffffffff8111156117f257600080fd5b6117fe87828801611620565b93509350506040611811878288016115f4565b91505092959194509250565b60006020828403121561182f57600080fd5b60006107728484611615565b6000806040838503121561184e57600080fd5b600061185a8585611615565b925050602061186b85828601611615565b9150509250929050565b60008060006040848603121561188a57600080fd5b60006118968686611615565b935050602084013567ffffffffffffffff8111156118b357600080fd5b6118bf86828701611620565b92509250509250925092565b6000608082840312156118dd57600080fd5b60006107728484611662565b60008060c083850312156118fc57600080fd5b60006119088585611662565b925050608061186b858286016116e9565b60008060a0838503121561192c57600080fd5b60006119388585611662565b925050608061186b85828601611615565b60006080828403121561195b57600080fd5b6000610772848461167a565b6000806080838503121561197a57600080fd5b600061198685856116e9565b925050604061186b858286016116e9565b600080606083850312156119aa57600080fd5b60006119b685856116e9565b925050604061186b85828601611615565b6000604082840312156119d957600080fd5b600061077284846116fb565b6000606082840312156119f757600080fd5b60006107728484611742565b600060208284031215611a1557600080fd5b600061077284846117a8565b600080600060608486031215611a3657600080fd5b6000611a428686611615565b9350506020611a5386828701611615565b9250506040611a6486828701611615565b9150509250925092565b611a7781611f47565b82525050565b611a7781611f52565b611a77611a9282611f7c565b611fa1565b611a7781611fa1565b611a77611a9282611fa1565b6000611ab782611f35565b611ac18185611f39565b9350611ad1818560208601611ff5565b9290920192915050565b6000611ae682611f35565b611af08185611f3e565b9350611b00818560208601611ff5565b611b0981612021565b9093019392505050565b6000611b20601b83611f3e565b7f536166654d6174683a206164646974696f6e206f766572666c6f770000000000815260200192915050565b6000611b59602783611f3e565b7f53616665436173743a2076616c756520646f65736e27742066697420696e203181527f3230206269747300000000000000000000000000000000000000000000000000602082015260400192915050565b6000611bb8602783611f3e565b7f53616665436173743a2076616c756520646f65736e27742066697420696e203181527f3238206269747300000000000000000000000000000000000000000000000000602082015260400192915050565b6000611c17602183611f3e565b7f536166654d6174683a206d756c7469706c69636174696f6e206f766572666c6f81527f7700000000000000000000000000000000000000000000000000000000000000602082015260400192915050565b6000611c76602683611f3e565b7f53616665436173743a2076616c756520646f65736e27742066697420696e203381527f3220626974730000000000000000000000000000000000000000000000000000602082015260400192915050565b6000611cd5601f83611f3e565b7f5265656e7472616e637947756172643a207265656e7472616e742063616c6c00815260200192915050565b80516080830190611d128482611a7d565b506020820151611d256020850182611a7d565b506040820151611d386040850182611d6f565b5060608201516107226060850182611d6f565b80516040830190611d5c8482611a97565b5060208201516107226020850182611a7d565b611a7781611fa4565b611a7781611fb8565b611a7781611fe6565b611a7781611fef565b6000611d9f8284611a86565b50601701919050565b6000611db48285611aac565b9150611dc08284611aa0565b5060200192915050565b6000611dd68285611aac565b91506107728284611aac565b602081016105128284611a6e565b602081016105128284611a97565b60808101611e0c8287611a97565b611e196020830186611d8a565b611e266040830185611a97565b611e336060830184611a97565b95945050505050565b6020808252810161050f8184611adb565b6020808252810161051281611b13565b6020808252810161051281611b4c565b6020808252810161051281611bab565b6020808252810161051281611c0a565b6020808252810161051281611c69565b6020808252810161051281611cc8565b608081016105128284611d01565b604081016105128284611d4b565b602081016105128284611d6f565b602081016105128284611d78565b60408101611ef38285611a97565b61055d6020830184611a97565b602081016105128284611d81565b60405181810167ffffffffffffffff81118282101715611f2d57600080fd5b604052919050565b5190565b919050565b90815260200190565b600061051282611fcd565b151590565b7fffff0000000000000000000000000000000000000000000000000000000000001690565b7fffffffffffffffffffffffffffffffffffffffffffffff0000000000000000001690565b90565b6effffffffffffffffffffffffffffff1690565b6fffffffffffffffffffffffffffffffff1690565b73ffffffffffffffffffffffffffffffffffffffff1690565b63ffffffff1690565b60ff1690565b60005b83811015612010578181015183820152602001611ff8565b838111156107225750506000910152565b601f017fffffffffffffffffffffffffffffffffffffffffffffffffffffffffffffffe01690565b61205281611f47565b811461205d57600080fd5b50565b61205281611f52565b61205281611f57565b61205281611fa1565b61205281611fa456fea365627a7a723158209995b8219f5a5ac991cd720958d94d891d302285097a74f7793a7fdd5d4ff5336c6578706572696d656e74616cf564736f6c63430005100040",
  "source": "/*\n\n    Copyright 2020 dYdX Trading Inc.\n\n    Licensed under the Apache License, Version 2.0 (the \"License\");\n    you may not use this file except in compliance with the License.\n    You may obtain a copy of the License at\n\n    http://www.apache.org/licenses/LICENSE-2.0\n\n    Unless required by applicable law or agreed to in writing, software\n    distributed under the License is distributed on an \"AS IS\" BASIS,\n    WITHOUT WARRANTIES OR CONDITIONS OF ANY KIND, either express or implied.\n    See the License for the specific language governing permissions and\n    limitations under the License.\n\n*/\n\npragma solidity 0.5.16;\npragma experimental ABIEncoderV2;\n\nimport { BaseMath } from \"../protocol/lib/BaseMath.sol\";\nimport { Math } from \"../protocol/lib/Math.sol\";\nimport { ReentrancyGuard } from \"../protocol/lib/ReentrancyGuard.sol\";\nimport { Require } from \"../protocol/lib/Require.sol\";\nimport { SafeCast } from \"../protocol/lib/SafeCast.sol\";\nimport { SignedMath } from \"../protocol/lib/SignedMath.sol\";\nimport { Storage } from \"../protocol/lib/Storage.sol\";\nimport { TypedSignature } from \"../protocol/lib/TypedSignature.sol\";\nimport { P1BalanceMath } from \"../protocol/v1/lib/P1BalanceMath.sol\";\nimport { P1Types } from \"../protocol/v1/lib/P1Types.sol\";\n\n\n/**\n * @title Test_Lib\n * @author dYdX\n *\n * @notice Exposes library functions for testing.\n */\n/* solium-disable-next-line camelcase */\ncontract Test_Lib is\n    ReentrancyGuard\n{\n\n    // ============ BaseMath.sol ============\n\n    function base()\n        external\n        pure\n        returns (uint256)\n    {\n        return BaseMath.base();\n    }\n\n    function baseMul(\n        uint256 value,\n        uint256 baseValue\n    )\n        external\n        pure\n        returns (uint256)\n    {\n        return BaseMath.baseMul(value, baseValue);\n    }\n\n    function baseDivMul(\n        uint256 value,\n        uint256 baseValue\n    )\n        external\n        pure\n        returns (uint256)\n    {\n        return BaseMath.baseDivMul(value, baseValue);\n    }\n\n    function baseMulRoundUp(\n        uint256 value,\n        uint256 baseValue\n    )\n        external\n        pure\n        returns (uint256)\n    {\n        return BaseMath.baseMulRoundUp(value, baseValue);\n    }\n\n    function baseDiv(\n        uint256 value,\n        uint256 baseValue\n    )\n        external\n        pure\n        returns (uint256)\n    {\n        return BaseMath.baseDiv(value, baseValue);\n    }\n\n    function baseReciprocal(\n        uint256 baseValue\n    )\n        external\n        pure\n        returns (uint256)\n    {\n        return BaseMath.baseReciprocal(baseValue);\n    }\n\n    // ============ Math.sol ============\n\n    function getFraction(\n        uint256 target,\n        uint256 numerator,\n        uint256 denominator\n    )\n        external\n        pure\n        returns (uint256)\n    {\n        return Math.getFraction(target, numerator, denominator);\n    }\n\n    function getFractionRoundUp(\n        uint256 target,\n        uint256 numerator,\n        uint256 denominator\n    )\n        external\n        pure\n        returns (uint256)\n    {\n        return Math.getFractionRoundUp(target, numerator, denominator);\n    }\n\n    function min(\n        uint256 a,\n        uint256 b\n    )\n        external\n        pure\n        returns (uint256)\n    {\n        return Math.min(a, b);\n    }\n\n    function max(\n        uint256 a,\n        uint256 b\n    )\n        external\n        pure\n        returns (uint256)\n    {\n        return Math.max(a, b);\n    }\n\n    // ============ Require.sol ============\n\n    function that(\n        bool must,\n        string calldata requireReason,\n        address addr\n    )\n        external\n        pure\n    {\n        Require.that(\n            must,\n            requireReason,\n            addr\n        );\n    }\n\n    // ============ SafeCast.sol ============\n\n    function toUint128(\n        uint256 value\n    )\n        external\n        pure\n        returns (uint128)\n    {\n        return SafeCast.toUint128(value);\n    }\n\n    function toUint120(\n        uint256 value\n    )\n        external\n        pure\n        returns (uint120)\n    {\n        return SafeCast.toUint120(value);\n    }\n\n    function toUint32(\n        uint256 value\n    )\n        external\n        pure\n        returns (uint32)\n    {\n        return SafeCast.toUint32(value);\n    }\n\n    // ============ SignedMath.sol ============\n\n    function add(\n        SignedMath.Int calldata sint,\n        uint256 value\n    )\n        external\n        pure\n        returns (SignedMath.Int memory)\n    {\n        return SignedMath.add(sint, value);\n    }\n\n    function sub(\n        SignedMath.Int calldata sint,\n        uint256 value\n    )\n        external\n        pure\n        returns (SignedMath.Int memory)\n    {\n        return SignedMath.sub(sint, value);\n    }\n\n    function signedAdd(\n        SignedMath.Int calldata augend,\n        SignedMath.Int calldata addend\n    )\n        external\n        pure\n        returns (SignedMath.Int memory)\n    {\n        return SignedMath.signedAdd(augend, addend);\n    }\n\n    function signedSub(\n        SignedMath.Int calldata minuend,\n        SignedMath.Int calldata subtrahend\n    )\n        external\n        pure\n        returns (SignedMath.Int memory)\n    {\n        return SignedMath.signedSub(minuend, subtrahend);\n    }\n\n    // ============ Storage.sol ============\n\n    function load(\n        bytes32 slot\n    )\n        external\n        view\n        returns (bytes32)\n    {\n        return Storage.load(slot);\n    }\n\n    function store(\n        bytes32 slot,\n        bytes32 value\n    )\n        external\n    {\n        Storage.store(slot, value);\n    }\n\n    // ============ TypedSignature.sol ============\n\n    function recover(\n        bytes32 hash,\n        bytes calldata signatureBytes\n    )\n        external\n        pure\n        returns (address)\n    {\n        TypedSignature.Signature memory signature = abi.decode(\n            signatureBytes,\n            (TypedSignature.Signature)\n        );\n        return TypedSignature.recover(hash, signature);\n    }\n\n    // ============ P1BalanceMath.sol ============\n\n    function copy(\n        P1Types.Balance calldata balance\n    )\n        external\n        pure\n        returns (P1Types.Balance memory)\n    {\n        return P1BalanceMath.copy(balance);\n    }\n\n    function addToMargin(\n        P1Types.Balance calldata balance,\n        uint256 amount\n    )\n        external\n        pure\n        returns (P1Types.Balance memory)\n    {\n        // Copy to memory, modify in place, and return the memory object.\n        P1Types.Balance memory _balance = balance;\n        P1BalanceMath.addToMargin(_balance, amount);\n        return _balance;\n    }\n\n    function subFromMargin(\n        P1Types.Balance calldata balance,\n        uint256 amount\n    )\n        external\n        pure\n        returns (P1Types.Balance memory)\n    {\n        // Copy to memory, modify in place, and return the memory object.\n        P1Types.Balance memory _balance = balance;\n        P1BalanceMath.subFromMargin(_balance, amount);\n        return _balance;\n    }\n\n    function addToPosition(\n        P1Types.Balance calldata balance,\n        uint256 amount\n    )\n        external\n        pure\n        returns (P1Types.Balance memory)\n    {\n        // Copy to memory, modify in place, and return the memory object.\n        P1Types.Balance memory _balance = balance;\n        P1BalanceMath.addToPosition(_balance, amount);\n        return _balance;\n    }\n\n    function subFromPosition(\n        P1Types.Balance calldata balance,\n        uint256 amount\n    )\n        external\n        pure\n        returns (P1Types.Balance memory)\n    {\n        // Copy to memory, modify in place, and return the memory object.\n        P1Types.Balance memory _balance = balance;\n        P1BalanceMath.subFromPosition(_balance, amount);\n        return _balance;\n    }\n\n    function getPositiveAndNegativeValue(\n        P1Types.Balance calldata balance,\n        uint256 price\n    )\n        external\n        pure\n        returns (uint256, uint256)\n    {\n        return P1BalanceMath.getPositiveAndNegativeValue(balance, price);\n    }\n\n    function getMargin(\n        P1Types.Balance calldata balance\n    )\n        external\n        pure\n        returns (SignedMath.Int memory)\n    {\n        return P1BalanceMath.getMargin(balance);\n    }\n\n    function getPosition(\n        P1Types.Balance calldata balance\n    )\n        external\n        pure\n        returns (SignedMath.Int memory)\n    {\n        return P1BalanceMath.getPosition(balance);\n    }\n\n    function setMargin(\n        P1Types.Balance calldata balance,\n        SignedMath.Int calldata newMargin\n    )\n        external\n        pure\n        returns (P1Types.Balance memory)\n    {\n        // Copy to memory, modify in place, and return the memory object.\n        P1Types.Balance memory _balance = balance;\n        P1BalanceMath.setMargin(_balance, newMargin);\n        return _balance;\n    }\n\n    function setPosition(\n        P1Types.Balance calldata balance,\n        SignedMath.Int calldata newPosition\n    )\n        external\n        pure\n        returns (P1Types.Balance memory)\n    {\n        // Copy to memory, modify in place, and return the memory object.\n        P1Types.Balance memory _balance = balance;\n        P1BalanceMath.setPosition(_balance, newPosition);\n        return _balance;\n    }\n\n    // ============ ReentrancyGuard.sol ============\n\n    function nonReentrant1()\n        public\n        nonReentrant\n        returns (uint256)\n    {\n        return this.nonReentrant2();\n    }\n\n    function nonReentrant2()\n        public\n        nonReentrant\n        returns (uint256)\n    {\n        return 0;\n    }\n}\n",
  "sourcePath": "/Users/dennismacpro/Projects/Defi/Ethereum-Solidity-Collection/icarus-protocol/defi-seeder/.tmp/dydx-protocol/perpetual/contracts/test/Test_Lib.sol",
  "compiler": {
    "name": "solc",
    "version": "0.5.16+commit.9c3226ce.Linux.g++"
  },
  "schemaVersion": "3.3.4",
  "updatedAt": "2021-04-01T16:42:57.479Z",
  "devdoc": {
    "author": "dYdX",
    "methods": {},
    "title": "Test_Lib"
  },
  "userdoc": {
    "methods": {},
    "notice": "Exposes library functions for testing."
  }
}