{
  "contractName": "Test_Solo",
  "abi": [
    {
      "constant": true,
      "inputs": [
        {
          "internalType": "uint256",
          "name": "",
          "type": "uint256"
        }
      ],
      "name": "_TOKEN_ADDRESSES_",
      "outputs": [
        {
          "internalType": "address",
          "name": "",
          "type": "address"
        }
      ],
      "payable": false,
      "stateMutability": "view",
      "type": "function"
    },
    {
      "constant": false,
      "inputs": [
        {
          "internalType": "address",
          "name": "owner",
          "type": "address"
        },
        {
          "internalType": "address",
          "name": "operator",
          "type": "address"
        },
        {
          "internalType": "bool",
          "name": "approved",
          "type": "bool"
        }
      ],
      "name": "setIsLocalOperator",
      "outputs": [
        {
          "internalType": "bool",
          "name": "",
          "type": "bool"
        }
      ],
      "payable": false,
      "stateMutability": "nonpayable",
      "type": "function"
    },
    {
      "constant": false,
      "inputs": [
        {
          "internalType": "address",
          "name": "operator",
          "type": "address"
        },
        {
          "internalType": "bool",
          "name": "approved",
          "type": "bool"
        }
      ],
      "name": "setIsGlobalOperator",
      "outputs": [
        {
          "internalType": "bool",
          "name": "",
          "type": "bool"
        }
      ],
      "payable": false,
      "stateMutability": "nonpayable",
      "type": "function"
    },
    {
      "constant": false,
      "inputs": [
        {
          "internalType": "uint256",
          "name": "marketId",
          "type": "uint256"
        },
        {
          "internalType": "address",
          "name": "tokenAddress",
          "type": "address"
        }
      ],
      "name": "setTokenAddress",
      "outputs": [],
      "payable": false,
      "stateMutability": "nonpayable",
      "type": "function"
    },
    {
      "constant": true,
      "inputs": [
        {
          "internalType": "address",
          "name": "owner",
          "type": "address"
        },
        {
          "internalType": "address",
          "name": "operator",
          "type": "address"
        }
      ],
      "name": "getIsLocalOperator",
      "outputs": [
        {
          "internalType": "bool",
          "name": "",
          "type": "bool"
        }
      ],
      "payable": false,
      "stateMutability": "view",
      "type": "function"
    },
    {
      "constant": true,
      "inputs": [
        {
          "internalType": "address",
          "name": "operator",
          "type": "address"
        }
      ],
      "name": "getIsGlobalOperator",
      "outputs": [
        {
          "internalType": "bool",
          "name": "",
          "type": "bool"
        }
      ],
      "payable": false,
      "stateMutability": "view",
      "type": "function"
    },
    {
      "constant": true,
      "inputs": [
        {
          "internalType": "uint256",
          "name": "marketId",
          "type": "uint256"
        }
      ],
      "name": "getMarketTokenAddress",
      "outputs": [
        {
          "internalType": "address",
          "name": "",
          "type": "address"
        }
      ],
      "payable": false,
      "stateMutability": "view",
      "type": "function"
    },
    {
      "constant": false,
      "inputs": [
        {
          "components": [
            {
              "internalType": "address",
              "name": "owner",
              "type": "address"
            },
            {
              "internalType": "uint256",
              "name": "number",
              "type": "uint256"
            }
          ],
          "internalType": "struct I_Solo.AccountInfo[]",
          "name": "accounts",
          "type": "tuple[]"
        },
        {
          "components": [
            {
              "internalType": "enum I_Solo.ActionType",
              "name": "actionType",
              "type": "uint8"
            },
            {
              "internalType": "uint256",
              "name": "accountId",
              "type": "uint256"
            },
            {
              "components": [
                {
                  "internalType": "bool",
                  "name": "sign",
                  "type": "bool"
                },
                {
                  "internalType": "enum I_Solo.AssetDenomination",
                  "name": "denomination",
                  "type": "uint8"
                },
                {
                  "internalType": "enum I_Solo.AssetReference",
                  "name": "ref",
                  "type": "uint8"
                },
                {
                  "internalType": "uint256",
                  "name": "value",
                  "type": "uint256"
                }
              ],
              "internalType": "struct I_Solo.AssetAmount",
              "name": "amount",
              "type": "tuple"
            },
            {
              "internalType": "uint256",
              "name": "primaryMarketId",
              "type": "uint256"
            },
            {
              "internalType": "uint256",
              "name": "secondaryMarketId",
              "type": "uint256"
            },
            {
              "internalType": "address",
              "name": "otherAddress",
              "type": "address"
            },
            {
              "internalType": "uint256",
              "name": "otherAccountId",
              "type": "uint256"
            },
            {
              "internalType": "bytes",
              "name": "data",
              "type": "bytes"
            }
          ],
          "internalType": "struct I_Solo.ActionArgs[]",
          "name": "actions",
          "type": "tuple[]"
        }
      ],
      "name": "operate",
      "outputs": [],
      "payable": false,
      "stateMutability": "nonpayable",
      "type": "function"
    }
  ],
  "bytecode": "0x608060405234801561001057600080fd5b506111fd806100206000396000f3fe608060405234801561001057600080fd5b50600436106100885760003560e01c80633a031bf01161005b5780633a031bf0146100fe5780634d499acc1461011157806381f02d5b14610124578063a67a6a451461013757610088565b8063052f72d71461008d578063062bd3e9146100b65780631e6b2f5c146100d6578063287e96c1146100e9575b600080fd5b6100a061009b366004610b4a565b61014a565b6040516100ad919061100a565b60405180910390f35b6100c96100c4366004610ca4565b610175565b6040516100ad9190610fb9565b6100a06100e4366004610baa565b61019d565b6100fc6100f7366004610ce0565b610202565b005b6100a061010c366004610b70565b610255565b6100a061011f366004610bf7565b610292565b6100c9610132366004610ca4565b6102e6565b6100fc610145366004610c27565b61030e565b73ffffffffffffffffffffffffffffffffffffffff1660009081526020819052604090205460ff1690565b60009081526002602052604090205473ffffffffffffffffffffffffffffffffffffffff1690565b73ffffffffffffffffffffffffffffffffffffffff838116600090815260016020908152604080832093861683529290522080547fffffffffffffffffffffffffffffffffffffffffffffffffffffffffffffff0016821515179055805b9392505050565b60009182526002602052604090912080547fffffffffffffffffffffffff00000000000000000000000000000000000000001673ffffffffffffffffffffffffffffffffffffffff909216919091179055565b73ffffffffffffffffffffffffffffffffffffffff80831660009081526001602090815260408083209385168352929052205460ff165b92915050565b73ffffffffffffffffffffffffffffffffffffffff91909116600090815260208190526040902080547fffffffffffffffffffffffffffffffffffffffffffffffffffffffffffffff001682151517905590565b60026020526000908152604090205473ffffffffffffffffffffffffffffffffffffffff1681565b8151600114610352576040517f08c379a000000000000000000000000000000000000000000000000000000000815260040161034990611058565b60405180910390fd5b805160011461038d576040517f08c379a000000000000000000000000000000000000000000000000000000000815260040161034990611098565b61039561079f565b826000815181106103a257fe5b602002602001015190506103b46107b6565b826000815181106103c157fe5b6020026020010151905060006103da8260600151610175565b9050816020015183602001511461041d576040517f08c379a000000000000000000000000000000000000000000000000000000000815260040161034990611048565b610425610815565b50604082015160008160200151600181111561043d57fe5b14610474576040517f08c379a000000000000000000000000000000000000000000000000000000000815260040161034990611088565b6000808260400151600181111561048757fe5b1415610498575060608101516105bf565b6060820151156104d4576040517f08c379a000000000000000000000000000000000000000000000000000000000815260040161034990611068565b6001845160088111156104e357fe5b1461051a576040517f08c379a000000000000000000000000000000000000000000000000000000000815260040161034990611038565b6040517f70a0823100000000000000000000000000000000000000000000000000000000815273ffffffffffffffffffffffffffffffffffffffff8416906370a082319061056c903090600401610fb9565b60206040518083038186803b15801561058457600080fd5b505afa158015610598573d6000803e3d6000fd5b505050506040513d601f19601f820116820180604052506105bc9190810190610cc2565b90505b6001845160088111156105ce57fe5b14156106bd5781511561060d576040517f08c379a000000000000000000000000000000000000000000000000000000000815260040161034990611028565b60a08401516040517fa9059cbb00000000000000000000000000000000000000000000000000000000815273ffffffffffffffffffffffffffffffffffffffff85169163a9059cbb9161066591908590600401610fef565b602060405180830381600087803b15801561067f57600080fd5b505af1158015610693573d6000803e3d6000fd5b505050506040513d601f19601f820116820180604052506106b79190810190610c86565b50610796565b6000845160088111156106cc57fe5b141561076457815161070a576040517f08c379a000000000000000000000000000000000000000000000000000000000815260040161034990611078565b60a08401516040517f23b872dd00000000000000000000000000000000000000000000000000000000815273ffffffffffffffffffffffffffffffffffffffff8516916323b872dd91610665919030908690600401610fc7565b6040517f08c379a000000000000000000000000000000000000000000000000000000000815260040161034990611018565b50505050505050565b604080518082019091526000808252602082015290565b6040805161010081018252600080825260208201529081016107d6610815565b81526020016000815260200160008152602001600073ffffffffffffffffffffffffffffffffffffffff16815260200160008152602001606081525090565b604080516080810190915260008082526020820190815260200160008152602001600081525090565b803561028c81611177565b600082601f83011261085a57600080fd5b813561086d610868826110cf565b6110a8565b9150818183526020840193506020810190508385604084028201111561089257600080fd5b60005b838110156108c057816108a888826109a2565b84525060209092019160409190910190600101610895565b5050505092915050565b600082601f8301126108db57600080fd5b81356108e9610868826110cf565b81815260209384019390925082018360005b838110156108c0578135860161091188826109e9565b84525060209283019291909101906001016108fb565b803561028c8161118e565b805161028c8161118e565b600082601f83011261094e57600080fd5b813561095c610868826110f0565b9150808252602083016020830185838301111561097857600080fd5b61098383828461116b565b50505092915050565b803561028c81611197565b803561028c816111a4565b6000604082840312156109b457600080fd5b6109be60406110a8565b905060006109cc848461083e565b82525060206109dd84848301610b34565b60208301525092915050565b600061016082840312156109fc57600080fd5b610a076101006110a8565b90506000610a15848461098c565b8252506020610a2684848301610b34565b6020830152506040610a3a84828501610ac5565b60408301525060c0610a4e84828501610b34565b60608301525060e0610a6284828501610b34565b608083015250610100610a778482850161083e565b60a083015250610120610a8c84828501610b34565b60c08301525061014082013567ffffffffffffffff811115610aad57600080fd5b610ab98482850161093d565b60e08301525092915050565b600060808284031215610ad757600080fd5b610ae160806110a8565b90506000610aef8484610927565b8252506020610b0084848301610997565b6020830152506040610b1484828501610997565b6040830152506060610b2884828501610b34565b60608301525092915050565b803561028c816111b1565b805161028c816111b1565b600060208284031215610b5c57600080fd5b6000610b68848461083e565b949350505050565b60008060408385031215610b8357600080fd5b6000610b8f858561083e565b9250506020610ba08582860161083e565b9150509250929050565b600080600060608486031215610bbf57600080fd5b6000610bcb868661083e565b9350506020610bdc8682870161083e565b9250506040610bed86828701610927565b9150509250925092565b60008060408385031215610c0a57600080fd5b6000610c16858561083e565b9250506020610ba085828601610927565b60008060408385031215610c3a57600080fd5b823567ffffffffffffffff811115610c5157600080fd5b610c5d85828601610849565b925050602083013567ffffffffffffffff811115610c7a57600080fd5b610ba0858286016108ca565b600060208284031215610c9857600080fd5b6000610b688484610932565b600060208284031215610cb657600080fd5b6000610b688484610b34565b600060208284031215610cd457600080fd5b6000610b688484610b3f565b60008060408385031215610cf357600080fd5b6000610b8f8585610b34565b610d088161113f565b82525050565b610d088161114a565b6000610d24602e83611136565b7f457870656374656420616374696f6e207479706520746f20626520576974686481527f726177206f72204465706f736974000000000000000000000000000000000000602082015260400192915050565b6000610d83601e83611136565b7f457870656374656420616d6f756e7420746f206265206e656761746976650000815260200192915050565b6000610dbc604083611136565b7f5768656e207573696e672041737365745265666572656e63652e54617267657481527f2c2065787065637420616374696f6e20746f206265207769746864726177616c602082015260400192915050565b6000610e1b601383611136565b7f4163636f756e74204944206d69736d6174636800000000000000000000000000815260200192915050565b6000610e54601483611136565b7f4578706563746564206f6e65206163636f756e74000000000000000000000000815260200192915050565b6000610e8d603983611136565b7f5768656e207573696e672041737365745265666572656e63652e54617267657481527f2c206578706563742076616c756520746f206265207a65726f00000000000000602082015260400192915050565b6000610eec601e83611136565b7f457870656374656420616d6f756e7420746f20626520706f7369746976650000815260200192915050565b6000610f25602683611136565b7f457870656374656420616d6f756e742064656e6f6d696e6174696f6e20746f2081527f6265205765690000000000000000000000000000000000000000000000000000602082015260400192915050565b6000610f84601383611136565b7f4578706563746564206f6e6520616374696f6e00000000000000000000000000815260200192915050565b610d0881611168565b6020810161028c8284610cff565b60608101610fd58286610cff565b610fe26020830185610cff565b610b686040830184610fb0565b60408101610ffd8285610cff565b6101fb6020830184610fb0565b6020810161028c8284610d0e565b6020808252810161028c81610d17565b6020808252810161028c81610d76565b6020808252810161028c81610daf565b6020808252810161028c81610e0e565b6020808252810161028c81610e47565b6020808252810161028c81610e80565b6020808252810161028c81610edf565b6020808252810161028c81610f18565b6020808252810161028c81610f77565b60405181810167ffffffffffffffff811182821017156110c757600080fd5b604052919050565b600067ffffffffffffffff8211156110e657600080fd5b5060209081020190565b600067ffffffffffffffff82111561110757600080fd5b506020601f919091017fffffffffffffffffffffffffffffffffffffffffffffffffffffffffffffffe0160190565b90815260200190565b600061028c8261114f565b151590565b73ffffffffffffffffffffffffffffffffffffffff1690565b90565b82818337506000910152565b6111808161113f565b811461118b57600080fd5b50565b6111808161114a565b6009811061118b57600080fd5b6002811061118b57600080fd5b6111808161116856fea365627a7a72315820bbf05bbe29e4aae8eaa55e567b9afa9694094c9b65469f6475977c0aab2d4eeb6c6578706572696d656e74616cf564736f6c63430005100040",
  "source": "/*\n\n    Copyright 2020 dYdX Trading Inc.\n\n    Licensed under the Apache License, Version 2.0 (the \"License\");\n    you may not use this file except in compliance with the License.\n    You may obtain a copy of the License at\n\n    http://www.apache.org/licenses/LICENSE-2.0\n\n    Unless required by applicable law or agreed to in writing, software\n    distributed under the License is distributed on an \"AS IS\" BASIS,\n    WITHOUT WARRANTIES OR CONDITIONS OF ANY KIND, either express or implied.\n    See the License for the specific language governing permissions and\n    limitations under the License.\n\n*/\n\npragma solidity 0.5.16;\npragma experimental ABIEncoderV2;\n\nimport { IERC20 } from \"@openzeppelin/contracts/token/ERC20/IERC20.sol\";\nimport { I_Solo } from \"../../external/dydx/I_Solo.sol\";\n\n\n/**\n * @title Test_Solo\n * @author dYdX\n *\n * Interface for calling the Solo margin smart contract.\n */\n/* solium-disable-next-line camelcase */\ncontract Test_Solo is\n  I_Solo\n{\n    // ============ Test Data ============\n\n    mapping(address => bool) internal _GLOBAL_OPERATORS_;\n    mapping(address => mapping(address => bool)) internal _LOCAL_OPERATORS_;\n    mapping(uint256 => address) public _TOKEN_ADDRESSES_;\n\n    // ============ Test Data Setter Functions ============\n\n    function setIsLocalOperator(\n        address owner,\n        address operator,\n        bool approved\n    )\n        external\n        returns (bool)\n    {\n        return _LOCAL_OPERATORS_[owner][operator] = approved;\n    }\n\n    function setIsGlobalOperator(\n        address operator,\n        bool approved\n    )\n        external\n        returns (bool)\n    {\n        return _GLOBAL_OPERATORS_[operator] = approved;\n    }\n\n    function setTokenAddress(\n        uint256 marketId,\n        address tokenAddress\n    )\n        external\n    {\n        _TOKEN_ADDRESSES_[marketId] = tokenAddress;\n    }\n\n    // ============ Getter Functions ============\n\n    /**\n     * Return true if a particular address is approved as an operator for an owner's accounts.\n     * Approved operators can act on the accounts of the owner as if it were the operator's own.\n     *\n     * @param  owner     The owner of the accounts\n     * @param  operator  The possible operator\n     * @return           True if operator is approved for owner's accounts\n     */\n    function getIsLocalOperator(\n        address owner,\n        address operator\n    )\n        external\n        view\n        returns (bool)\n    {\n        return _LOCAL_OPERATORS_[owner][operator];\n    }\n\n    /**\n     * Return true if a particular address is approved as a global operator. Such an address can\n     * act on any account as if it were the operator's own.\n     *\n     * @param  operator  The address to query\n     * @return           True if operator is a global operator\n     */\n    function getIsGlobalOperator(\n        address operator\n    )\n        external\n        view\n        returns (bool)\n    {\n        return _GLOBAL_OPERATORS_[operator];\n    }\n\n    /**\n     * @notice Get the ERC20 token address for a market.\n     *\n     * @param  marketId  The market to query\n     * @return           The token address\n     */\n    function getMarketTokenAddress(\n        uint256 marketId\n    )\n        public\n        view\n        returns (address)\n    {\n        return _TOKEN_ADDRESSES_[marketId];\n    }\n\n    // ============ State-Changing Functions ============\n\n    /**\n     * @notice The main entry-point to Solo that allows users and contracts to manage accounts.\n     *  Takes one or more actions on one or more accounts. The msg.sender must be the owner or\n     *  operator of all accounts except for those being liquidated, vaporized, or traded with.\n     *  One call to operate() is considered a singular \"operation\". Account collateralization is\n     *  ensured only after the completion of the entire operation.\n     *\n     * @param  accounts  A list of all accounts that will be used in this operation. Cannot contain\n     *                   duplicates. In each action, the relevant account will be referred to by its\n     *                   index in the list.\n     * @param  actions   An ordered list of all actions that will be taken in this operation. The\n     *                   actions will be processed in order.\n     */\n    function operate(\n        I_Solo.AccountInfo[] memory accounts,\n        I_Solo.ActionArgs[] memory actions\n    )\n        public // public instead of external to avoid UnimplementedFeatureError\n    {\n        // Expect exactly one account and one action.\n        require(accounts.length == 1, \"Expected one account\");\n        require(actions.length == 1, \"Expected one action\");\n\n        I_Solo.AccountInfo memory account = accounts[0];\n        I_Solo.ActionArgs memory action = actions[0];\n\n        // Get the ERC20 token.\n        IERC20 token = IERC20(getMarketTokenAddress(action.primaryMarketId));\n\n        // Compare account and action parameters.\n        require(account.number == action.accountId, \"Account ID mismatch\");\n\n        // Check amount parameters.\n        I_Solo.AssetAmount memory amount = action.amount;\n        require(\n            amount.denomination == I_Solo.AssetDenomination.Wei,\n            \"Expected amount denomination to be Wei\"\n        );\n        uint256 amountToTransfer;\n        if (amount.ref == I_Solo.AssetReference.Delta) {\n            amountToTransfer = amount.value;\n        } else {\n            require(amount.value == 0, \"When using AssetReference.Target, expect value to be zero\");\n            require(\n                action.actionType == I_Solo.ActionType.Withdraw,\n                \"When using AssetReference.Target, expect action to be withdrawal\"\n            );\n\n            // Assume that the whole token balance belongs to the sender.\n            amountToTransfer = token.balanceOf(address(this));\n        }\n\n        if (action.actionType == I_Solo.ActionType.Withdraw) {\n            require(!amount.sign, \"Expected amount to be negative\");\n\n            // Perform token transfer.\n            token.transfer(action.otherAddress, amountToTransfer);\n        } else if (action.actionType == I_Solo.ActionType.Deposit) {\n            require(amount.sign, \"Expected amount to be positive\");\n\n            // Perform token transfer.\n            token.transferFrom(action.otherAddress, address(this), amountToTransfer);\n        } else {\n            revert(\"Expected action type to be Withdraw or Deposit\");\n        }\n    }\n}\n",
  "sourcePath": "/Users/dennismacpro/Projects/Defi/Ethereum-Solidity-Collection/icarus-protocol/defi-seeder/.tmp/dydx-protocol/perpetual/contracts/test/external/Test_Solo.sol",
  "compiler": {
    "name": "solc",
    "version": "0.5.16+commit.9c3226ce.Linux.g++"
  },
  "schemaVersion": "3.3.4",
  "updatedAt": "2021-04-01T16:42:57.488Z",
  "devdoc": {
    "author": "dYdX * Interface for calling the Solo margin smart contract.",
    "methods": {
      "getIsGlobalOperator(address)": {
        "params": {
          "operator": "The address to query"
        },
        "return": "True if operator is a global operator"
      },
      "getIsLocalOperator(address,address)": {
        "params": {
          "operator": "The possible operator",
          "owner": "The owner of the accounts"
        },
        "return": "True if operator is approved for owner's accounts"
      },
      "getMarketTokenAddress(uint256)": {
        "params": {
          "marketId": "The market to query"
        },
        "return": "The token address"
      },
      "operate((address,uint256)[],(uint8,uint256,(bool,uint8,uint8,uint256),uint256,uint256,address,uint256,bytes)[])": {
        "params": {
          "accounts": "A list of all accounts that will be used in this operation. Cannot contain                  duplicates. In each action, the relevant account will be referred to by its                  index in the list.",
          "actions": "An ordered list of all actions that will be taken in this operation. The                  actions will be processed in order."
        }
      }
    },
    "title": "Test_Solo"
  },
  "userdoc": {
    "methods": {
      "getIsGlobalOperator(address)": {
        "notice": "Return true if a particular address is approved as a global operator. Such an address can act on any account as if it were the operator's own."
      },
      "getIsLocalOperator(address,address)": {
        "notice": "Return true if a particular address is approved as an operator for an owner's accounts. Approved operators can act on the accounts of the owner as if it were the operator's own."
      },
      "getMarketTokenAddress(uint256)": {
        "notice": "Get the ERC20 token address for a market."
      },
      "operate((address,uint256)[],(uint8,uint256,(bool,uint8,uint8,uint256),uint256,uint256,address,uint256,bytes)[])": {
        "notice": "The main entry-point to Solo that allows users and contracts to manage accounts. Takes one or more actions on one or more accounts. The msg.sender must be the owner or operator of all accounts except for those being liquidated, vaporized, or traded with. One call to operate() is considered a singular \"operation\". Account collateralization is ensured only after the completion of the entire operation."
      }
    }
  }
}