{
  "contractName": "Test_ExchangeWrapper",
  "abi": [
    {
      "constant": true,
      "inputs": [],
      "name": "EXCHANGE_ADDRESS",
      "outputs": [
        {
          "internalType": "address",
          "name": "",
          "type": "address"
        }
      ],
      "payable": false,
      "stateMutability": "view",
      "type": "function"
    },
    {
      "constant": true,
      "inputs": [],
      "name": "_MAKER_AMOUNT_",
      "outputs": [
        {
          "internalType": "uint256",
          "name": "",
          "type": "uint256"
        }
      ],
      "payable": false,
      "stateMutability": "view",
      "type": "function"
    },
    {
      "constant": true,
      "inputs": [],
      "name": "_TAKER_AMOUNT_",
      "outputs": [
        {
          "internalType": "uint256",
          "name": "",
          "type": "uint256"
        }
      ],
      "payable": false,
      "stateMutability": "view",
      "type": "function"
    },
    {
      "constant": false,
      "inputs": [
        {
          "internalType": "uint256",
          "name": "makerAmount",
          "type": "uint256"
        }
      ],
      "name": "setMakerAmount",
      "outputs": [],
      "payable": false,
      "stateMutability": "nonpayable",
      "type": "function"
    },
    {
      "constant": false,
      "inputs": [
        {
          "internalType": "uint256",
          "name": "takerAmount",
          "type": "uint256"
        }
      ],
      "name": "setTakerAmount",
      "outputs": [],
      "payable": false,
      "stateMutability": "nonpayable",
      "type": "function"
    },
    {
      "constant": true,
      "inputs": [
        {
          "internalType": "address",
          "name": "",
          "type": "address"
        },
        {
          "internalType": "address",
          "name": "",
          "type": "address"
        },
        {
          "internalType": "uint256",
          "name": "",
          "type": "uint256"
        },
        {
          "internalType": "bytes",
          "name": "",
          "type": "bytes"
        }
      ],
      "name": "getExchangeCost",
      "outputs": [
        {
          "internalType": "uint256",
          "name": "",
          "type": "uint256"
        }
      ],
      "payable": false,
      "stateMutability": "view",
      "type": "function"
    },
    {
      "constant": false,
      "inputs": [
        {
          "internalType": "address",
          "name": "",
          "type": "address"
        },
        {
          "internalType": "address",
          "name": "receiver",
          "type": "address"
        },
        {
          "internalType": "address",
          "name": "makerToken",
          "type": "address"
        },
        {
          "internalType": "address",
          "name": "takerToken",
          "type": "address"
        },
        {
          "internalType": "uint256",
          "name": "requestedFillAmount",
          "type": "uint256"
        },
        {
          "internalType": "bytes",
          "name": "orderData",
          "type": "bytes"
        }
      ],
      "name": "exchange",
      "outputs": [
        {
          "internalType": "uint256",
          "name": "",
          "type": "uint256"
        }
      ],
      "payable": false,
      "stateMutability": "nonpayable",
      "type": "function"
    }
  ],
  "bytecode": "0x608060405234801561001057600080fd5b50610b20806100206000396000f3fe608060405234801561001057600080fd5b506004361061007d5760003560e01c806360aec0f01161005b57806360aec0f0146100c85780637d98ebac146100dd5780638c4d443f146100f0578063cc246d8b146100f85761007d565b806313dfc516146100825780633a8fdd7d146100a05780633ebddc21146100b3575b600080fd5b61008a61010b565b6040516100979190610a15565b60405180910390f35b61008a6100ae3660046106c8565b610111565b6100c66100c1366004610782565b61011d565b005b6100d0610122565b6040516100979190610981565b61008a6100eb366004610623565b610127565b61008a6101e7565b6100c6610106366004610782565b6101ed565b60005481565b60015495945050505050565b600055565b600181565b6000610131610562565b61013d83850185610764565b80519091508514610183576040517f08c379a000000000000000000000000000000000000000000000000000000000815260040161017a906109d5565b60405180910390fd5b6101ab73ffffffffffffffffffffffffffffffffffffffff871660018763ffffffff6101f216565b6000546101d79073ffffffffffffffffffffffffffffffffffffffff8916908a9063ffffffff6102b416565b5050600054979650505050505050565b60015481565b600155565b6040516102af9084907fa9059cbb000000000000000000000000000000000000000000000000000000009061022d90869086906024016109aa565b604080517fffffffffffffffffffffffffffffffffffffffffffffffffffffffffffffffe08184030181529190526020810180517bffffffffffffffffffffffffffffffffffffffffffffffffffffffff167fffffffff00000000000000000000000000000000000000000000000000000000909316929092179091526103d3565b505050565b80158061036257506040517fdd62ed3e00000000000000000000000000000000000000000000000000000000815273ffffffffffffffffffffffffffffffffffffffff84169063dd62ed3e90610310903090869060040161098f565b60206040518083038186803b15801561032857600080fd5b505afa15801561033c573d6000803e3d6000fd5b505050506040513d601f19601f8201168201806040525061036091908101906107a0565b155b610398576040517f08c379a000000000000000000000000000000000000000000000000000000000815260040161017a906109f5565b6040516102af9084907f095ea7b3000000000000000000000000000000000000000000000000000000009061022d90869086906024016109aa565b6103f28273ffffffffffffffffffffffffffffffffffffffff16610526565b610428576040517f08c379a000000000000000000000000000000000000000000000000000000000815260040161017a90610a05565b600060608373ffffffffffffffffffffffffffffffffffffffff1683604051610451919061096e565b6000604051808303816000865af19150503d806000811461048e576040519150601f19603f3d011682016040523d82523d6000602084013e610493565b606091505b5091509150816104cf576040517f08c379a000000000000000000000000000000000000000000000000000000000815260040161017a906109c5565b80511561052057808060200190516104ea9190810190610746565b610520576040517f08c379a000000000000000000000000000000000000000000000000000000000815260040161017a906109e5565b50505050565b6000813f7fc5d2460186f7233c927e7db2dcc703c0e500b653ca82273b7bfad8045d85a47081811480159061055a57508115155b949350505050565b6040518060200160405280600081525090565b803561058081610ab4565b92915050565b805161058081610acb565b60008083601f8401126105a357600080fd5b50813567ffffffffffffffff8111156105bb57600080fd5b6020830191508360018202830111156105d357600080fd5b9250929050565b6000602082840312156105ec57600080fd5b6105f66020610a23565b90506000610604848461060d565b82525092915050565b803561058081610ad4565b805161058081610ad4565b600080600080600080600060c0888a03121561063e57600080fd5b600061064a8a8a610575565b975050602061065b8a828b01610575565b965050604061066c8a828b01610575565b955050606061067d8a828b01610575565b945050608061068e8a828b0161060d565b93505060a088013567ffffffffffffffff8111156106ab57600080fd5b6106b78a828b01610591565b925092505092959891949750929550565b6000806000806000608086880312156106e057600080fd5b60006106ec8888610575565b95505060206106fd88828901610575565b945050604061070e8882890161060d565b935050606086013567ffffffffffffffff81111561072b57600080fd5b61073788828901610591565b92509250509295509295909350565b60006020828403121561075857600080fd5b600061055a8484610586565b60006020828403121561077657600080fd5b600061055a84846105da565b60006020828403121561079457600080fd5b600061055a848461060d565b6000602082840312156107b257600080fd5b600061055a8484610618565b6107c781610a5c565b82525050565b60006107d882610a4a565b6107e28185610a4e565b93506107f2818560208601610a88565b9290920192915050565b6000610809602083610a53565b7f5361666545524332303a206c6f772d6c6576656c2063616c6c206661696c6564815260200192915050565b6000610842601083610a53565b7f616d6f756e74206d6973746d6174636800000000000000000000000000000000815260200192915050565b600061087b602a83610a53565b7f5361666545524332303a204552433230206f7065726174696f6e20646964206e81527f6f74207375636365656400000000000000000000000000000000000000000000602082015260400192915050565b60006108da603683610a53565b7f5361666545524332303a20617070726f76652066726f6d206e6f6e2d7a65726f81527f20746f206e6f6e2d7a65726f20616c6c6f77616e636500000000000000000000602082015260400192915050565b6000610939601f83610a53565b7f5361666545524332303a2063616c6c20746f206e6f6e2d636f6e747261637400815260200192915050565b6107c781610a85565b600061097a82846107cd565b9392505050565b6020810161058082846107be565b6040810161099d82856107be565b61097a60208301846107be565b604081016109b882856107be565b61097a6020830184610965565b60208082528101610580816107fc565b6020808252810161058081610835565b602080825281016105808161086e565b60208082528101610580816108cd565b602080825281016105808161092c565b602081016105808284610965565b60405181810167ffffffffffffffff81118282101715610a4257600080fd5b604052919050565b5190565b919050565b90815260200190565b600061058082610a6c565b151590565b73ffffffffffffffffffffffffffffffffffffffff1690565b90565b60005b83811015610aa3578181015183820152602001610a8b565b838111156105205750506000910152565b610abd81610a5c565b8114610ac857600080fd5b50565b610abd81610a67565b610abd81610a8556fea365627a7a723158207dc543158b33ecdb93205c87bf064d0b95662cd0bc97c87e568dc9359266414e6c6578706572696d656e74616cf564736f6c63430005100040",
  "source": "/*\n\n    Copyright 2020 dYdX Trading Inc.\n\n    Licensed under the Apache License, Version 2.0 (the \"License\");\n    you may not use this file except in compliance with the License.\n    You may obtain a copy of the License at\n\n    http://www.apache.org/licenses/LICENSE-2.0\n\n    Unless required by applicable law or agreed to in writing, software\n    distributed under the License is distributed on an \"AS IS\" BASIS,\n    WITHOUT WARRANTIES OR CONDITIONS OF ANY KIND, either express or implied.\n    See the License for the specific language governing permissions and\n    limitations under the License.\n\n*/\n\npragma solidity 0.5.16;\npragma experimental ABIEncoderV2;\n\nimport { IERC20 } from \"@openzeppelin/contracts/token/ERC20/IERC20.sol\";\nimport { SafeERC20 } from \"@openzeppelin/contracts/token/ERC20/SafeERC20.sol\";\nimport { I_ExchangeWrapper } from \"../../external/I_ExchangeWrapper.sol\";\n\n\n/**\n * @title Test_ExchangeWrapper\n * @author dYdX\n *\n * ExchangeWrapper for testing.\n */\n/* solium-disable-next-line camelcase */\ncontract Test_ExchangeWrapper is\n    I_ExchangeWrapper\n{\n    using SafeERC20 for IERC20;\n\n    // ============ Constants ============\n\n    // Arbitrary address to send tokens to (they are burned).\n    address public constant EXCHANGE_ADDRESS = address(0x1);\n\n    // ============ Structs ============\n\n    struct Order {\n        uint256 amount;\n    }\n\n    // ============ Test Data ============\n\n    uint256 public _MAKER_AMOUNT_;\n    uint256 public _TAKER_AMOUNT_;\n\n    // ============ Test Data Setter Functions ============\n\n    function setMakerAmount(\n        uint256 makerAmount\n    )\n        external\n    {\n        _MAKER_AMOUNT_ = makerAmount;\n    }\n\n    function setTakerAmount(\n        uint256 takerAmount\n    )\n        external\n    {\n        _TAKER_AMOUNT_ = takerAmount;\n    }\n\n    // ============ Getter Functions ============\n\n    function getExchangeCost(\n        address /* makerToken */,\n        address /* takerToken */,\n        uint256 /* desiredMakerToken */,\n        bytes calldata /* orderData */\n    )\n        external\n        view\n        returns (uint256)\n    {\n        return _TAKER_AMOUNT_;\n    }\n\n    // ============ State-Changing Functions ============\n\n    function exchange(\n        address /* tradeOriginator */,\n        address receiver,\n        address makerToken,\n        address takerToken,\n        uint256 requestedFillAmount,\n        bytes calldata orderData\n    )\n        external\n        returns (uint256)\n    {\n        Order memory order = abi.decode(orderData, (Order));\n\n        require(\n            order.amount == requestedFillAmount,\n            \"amount mistmatch\"\n        );\n\n        IERC20(takerToken).safeTransfer(EXCHANGE_ADDRESS, requestedFillAmount);\n        IERC20(makerToken).safeApprove(receiver, _MAKER_AMOUNT_);\n\n        return _MAKER_AMOUNT_;\n    }\n}\n",
  "sourcePath": "/Users/dennismacpro/Projects/Defi/Ethereum-Solidity-Collection/icarus-protocol/defi-seeder/.tmp/dydx-protocol/perpetual/contracts/test/external/Test_ExchangeWrapper.sol",
  "compiler": {
    "name": "solc",
    "version": "0.5.16+commit.9c3226ce.Linux.g++"
  },
  "schemaVersion": "3.3.4",
  "updatedAt": "2021-04-01T16:42:57.485Z",
  "devdoc": {
    "author": "dYdX * ExchangeWrapper for testing.",
    "methods": {},
    "title": "Test_ExchangeWrapper"
  },
  "userdoc": {
    "methods": {}
  }
}