{
  "contractName": "Test_P1Oracle",
  "abi": [
    {
      "constant": true,
      "inputs": [],
      "name": "_PRICE_",
      "outputs": [
        {
          "internalType": "uint256",
          "name": "",
          "type": "uint256"
        }
      ],
      "payable": false,
      "stateMutability": "view",
      "type": "function"
    },
    {
      "constant": true,
      "inputs": [],
      "name": "getPrice",
      "outputs": [
        {
          "internalType": "uint256",
          "name": "",
          "type": "uint256"
        }
      ],
      "payable": false,
      "stateMutability": "view",
      "type": "function"
    },
    {
      "constant": false,
      "inputs": [
        {
          "internalType": "uint256",
          "name": "newPrice",
          "type": "uint256"
        }
      ],
      "name": "setPrice",
      "outputs": [],
      "payable": false,
      "stateMutability": "nonpayable",
      "type": "function"
    }
  ],
  "bytecode": "0x60806040526000805534801561001457600080fd5b50610128806100246000396000f3fe6080604052348015600f57600080fd5b5060043610603c5760003560e01c806391b7f5ed14604157806398d5fdca1460525780639f5cf46a14606c575b600080fd5b6050604c3660046092565b6072565b005b60586077565b6040516063919060c2565b60405180910390f35b6058607d565b600055565b60005490565b60005481565b8035608c8160d1565b92915050565b60006020828403121560a357600080fd5b600060ad84846083565b949350505050565b60bc8160ce565b82525050565b60208101608c828460b5565b90565b60d88160ce565b811460e257600080fd5b5056fea365627a7a7231582087a93c325f40138746c57ca0da6345bd09ed2c77bfdad92e6b9149dc8d2c801e6c6578706572696d656e74616cf564736f6c63430005100040",
  "source": "/*\n\n    Copyright 2020 dYdX Trading Inc.\n\n    Licensed under the Apache License, Version 2.0 (the \"License\");\n    you may not use this file except in compliance with the License.\n    You may obtain a copy of the License at\n\n    http://www.apache.org/licenses/LICENSE-2.0\n\n    Unless required by applicable law or agreed to in writing, software\n    distributed under the License is distributed on an \"AS IS\" BASIS,\n    WITHOUT WARRANTIES OR CONDITIONS OF ANY KIND, either express or implied.\n    See the License for the specific language governing permissions and\n    limitations under the License.\n\n*/\n\npragma solidity 0.5.16;\npragma experimental ABIEncoderV2;\n\nimport { I_P1Oracle } from \"../../protocol/v1/intf/I_P1Oracle.sol\";\n\n\n/**\n * @title Test_P1Oracle\n * @author dYdX\n *\n * @notice I_P1Oracle implementation for testing.\n */\n/* solium-disable-next-line camelcase */\ncontract Test_P1Oracle is\n    I_P1Oracle\n{\n    uint256 public _PRICE_ = 0;\n\n    function getPrice()\n        external\n        view\n        returns (uint256)\n    {\n        return _PRICE_;\n    }\n\n    function setPrice(\n        uint256 newPrice\n    )\n        external\n    {\n        _PRICE_ = newPrice;\n    }\n}\n",
  "sourcePath": "/Users/dennismacpro/Projects/Defi/Ethereum-Solidity-Collection/icarus-protocol/defi-seeder/.tmp/dydx-protocol/perpetual/contracts/test/v1/Test_P1Oracle.sol",
  "compiler": {
    "name": "solc",
    "version": "0.5.16+commit.9c3226ce.Linux.g++"
  },
  "schemaVersion": "3.3.4",
  "updatedAt": "2021-04-01T16:42:57.492Z",
  "devdoc": {
    "author": "dYdX",
    "methods": {},
    "title": "Test_P1Oracle"
  },
  "userdoc": {
    "methods": {},
    "notice": "I_P1Oracle implementation for testing."
  }
}