{
  "contractName": "Test_P1Funder",
  "abi": [
    {
      "constant": true,
      "inputs": [],
      "name": "_FUNDING_",
      "outputs": [
        {
          "internalType": "uint256",
          "name": "",
          "type": "uint256"
        }
      ],
      "payable": false,
      "stateMutability": "view",
      "type": "function"
    },
    {
      "constant": true,
      "inputs": [],
      "name": "_FUNDING_IS_POSITIVE_",
      "outputs": [
        {
          "internalType": "bool",
          "name": "",
          "type": "bool"
        }
      ],
      "payable": false,
      "stateMutability": "view",
      "type": "function"
    },
    {
      "constant": true,
      "inputs": [
        {
          "internalType": "uint256",
          "name": "",
          "type": "uint256"
        }
      ],
      "name": "getFunding",
      "outputs": [
        {
          "internalType": "bool",
          "name": "",
          "type": "bool"
        },
        {
          "internalType": "uint256",
          "name": "",
          "type": "uint256"
        }
      ],
      "payable": false,
      "stateMutability": "view",
      "type": "function"
    },
    {
      "constant": false,
      "inputs": [
        {
          "internalType": "bool",
          "name": "isPositive",
          "type": "bool"
        },
        {
          "internalType": "uint256",
          "name": "newFunding",
          "type": "uint256"
        }
      ],
      "name": "setFunding",
      "outputs": [],
      "payable": false,
      "stateMutability": "nonpayable",
      "type": "function"
    }
  ],
  "bytecode": "0x60806040526000805460ff1916600190811782555534801561002057600080fd5b5061024a806100306000396000f3fe608060405234801561001057600080fd5b506004361061004c5760003560e01c80634993cc3b14610051578063910fb0731461006f578063e41a054f14610084578063ebed4bd414610099575b600080fd5b6100596100ba565b60405161006691906101d1565b60405180910390f35b6100776100c0565b60405161006691906101a1565b610097610092366004610129565b6100c9565b005b6100ac6100a7366004610163565b6100fe565b6040516100669291906101af565b60015481565b60005460ff1681565b600080547fffffffffffffffffffffffffffffffffffffffffffffffffffffffffffffff001692151592909217909155600155565b5060005460015460ff90911691565b8035610118816101e7565b92915050565b8035610118816101fe565b6000806040838503121561013c57600080fd5b6000610148858561010d565b92505060206101598582860161011e565b9150509250929050565b60006020828403121561017557600080fd5b6000610181848461011e565b949350505050565b610192816101df565b82525050565b610192816101e4565b602081016101188284610189565b604081016101bd8285610189565b6101ca6020830184610198565b9392505050565b602081016101188284610198565b151590565b90565b6101f0816101df565b81146101fb57600080fd5b50565b6101f0816101e456fea365627a7a72315820d717fc014c95623d645c3b375934e34689ba33332a25127b657df2c43a4a1ba76c6578706572696d656e74616cf564736f6c63430005100040",
  "source": "/*\n\n    Copyright 2020 dYdX Trading Inc.\n\n    Licensed under the Apache License, Version 2.0 (the \"License\");\n    you may not use this file except in compliance with the License.\n    You may obtain a copy of the License at\n\n    http://www.apache.org/licenses/LICENSE-2.0\n\n    Unless required by applicable law or agreed to in writing, software\n    distributed under the License is distributed on an \"AS IS\" BASIS,\n    WITHOUT WARRANTIES OR CONDITIONS OF ANY KIND, either express or implied.\n    See the License for the specific language governing permissions and\n    limitations under the License.\n\n*/\n\npragma solidity 0.5.16;\npragma experimental ABIEncoderV2;\n\nimport { I_P1Funder } from \"../../protocol/v1/intf/I_P1Funder.sol\";\n\n\n/**\n * @title Test_P1Funder\n * @author dYdX\n *\n * @notice I_P1Funder implementation for testing.\n */\n/* solium-disable-next-line camelcase */\ncontract Test_P1Funder is\n    I_P1Funder\n{\n    bool public _FUNDING_IS_POSITIVE_ = true;\n    uint256 public _FUNDING_ = 0;\n\n    function getFunding(\n        uint256 // timeDelta\n    )\n        external\n        view\n        returns (bool, uint256)\n    {\n        return (_FUNDING_IS_POSITIVE_, _FUNDING_);\n    }\n\n    function setFunding(\n        bool isPositive,\n        uint256 newFunding\n    )\n        external\n    {\n        _FUNDING_IS_POSITIVE_ = isPositive;\n        _FUNDING_ = newFunding;\n    }\n}\n",
  "sourcePath": "/Users/dennismacpro/Projects/Defi/Ethereum-Solidity-Collection/icarus-protocol/defi-seeder/.tmp/dydx-protocol/perpetual/contracts/test/v1/Test_P1Funder.sol",
  "compiler": {
    "name": "solc",
    "version": "0.5.16+commit.9c3226ce.Linux.g++"
  },
  "schemaVersion": "3.3.4",
  "updatedAt": "2021-04-01T16:42:57.491Z",
  "devdoc": {
    "author": "dYdX",
    "methods": {},
    "title": "Test_P1Funder"
  },
  "userdoc": {
    "methods": {},
    "notice": "I_P1Funder implementation for testing."
  }
}