{
  "contractName": "Test_P1Monolith",
  "abi": [
    {
      "constant": true,
      "inputs": [],
      "name": "TRADER_FLAG_RESULT_2",
      "outputs": [
        {
          "internalType": "bytes32",
          "name": "",
          "type": "bytes32"
        }
      ],
      "payable": false,
      "stateMutability": "view",
      "type": "function"
    },
    {
      "constant": true,
      "inputs": [],
      "name": "_FUNDING_",
      "outputs": [
        {
          "internalType": "uint256",
          "name": "",
          "type": "uint256"
        }
      ],
      "payable": false,
      "stateMutability": "view",
      "type": "function"
    },
    {
      "constant": true,
      "inputs": [],
      "name": "_FUNDING_IS_POSITIVE_",
      "outputs": [
        {
          "internalType": "bool",
          "name": "",
          "type": "bool"
        }
      ],
      "payable": false,
      "stateMutability": "view",
      "type": "function"
    },
    {
      "constant": true,
      "inputs": [],
      "name": "_PRICE_",
      "outputs": [
        {
          "internalType": "uint256",
          "name": "",
          "type": "uint256"
        }
      ],
      "payable": false,
      "stateMutability": "view",
      "type": "function"
    },
    {
      "constant": true,
      "inputs": [],
      "name": "_TRADE_RESULT_",
      "outputs": [
        {
          "internalType": "uint256",
          "name": "marginAmount",
          "type": "uint256"
        },
        {
          "internalType": "uint256",
          "name": "positionAmount",
          "type": "uint256"
        },
        {
          "internalType": "bool",
          "name": "isBuy",
          "type": "bool"
        },
        {
          "internalType": "bytes32",
          "name": "traderFlags",
          "type": "bytes32"
        }
      ],
      "payable": false,
      "stateMutability": "view",
      "type": "function"
    },
    {
      "constant": true,
      "inputs": [],
      "name": "_TRADE_RESULT_2_",
      "outputs": [
        {
          "internalType": "uint256",
          "name": "marginAmount",
          "type": "uint256"
        },
        {
          "internalType": "uint256",
          "name": "positionAmount",
          "type": "uint256"
        },
        {
          "internalType": "bool",
          "name": "isBuy",
          "type": "bool"
        },
        {
          "internalType": "bytes32",
          "name": "traderFlags",
          "type": "bytes32"
        }
      ],
      "payable": false,
      "stateMutability": "view",
      "type": "function"
    },
    {
      "constant": true,
      "inputs": [
        {
          "internalType": "uint256",
          "name": "",
          "type": "uint256"
        }
      ],
      "name": "getFunding",
      "outputs": [
        {
          "internalType": "bool",
          "name": "",
          "type": "bool"
        },
        {
          "internalType": "uint256",
          "name": "",
          "type": "uint256"
        }
      ],
      "payable": false,
      "stateMutability": "view",
      "type": "function"
    },
    {
      "constant": true,
      "inputs": [],
      "name": "getPrice",
      "outputs": [
        {
          "internalType": "uint256",
          "name": "",
          "type": "uint256"
        }
      ],
      "payable": false,
      "stateMutability": "view",
      "type": "function"
    },
    {
      "constant": false,
      "inputs": [
        {
          "internalType": "bool",
          "name": "isPositive",
          "type": "bool"
        },
        {
          "internalType": "uint256",
          "name": "newFunding",
          "type": "uint256"
        }
      ],
      "name": "setFunding",
      "outputs": [],
      "payable": false,
      "stateMutability": "nonpayable",
      "type": "function"
    },
    {
      "constant": false,
      "inputs": [
        {
          "internalType": "uint256",
          "name": "newPrice",
          "type": "uint256"
        }
      ],
      "name": "setPrice",
      "outputs": [],
      "payable": false,
      "stateMutability": "nonpayable",
      "type": "function"
    },
    {
      "constant": false,
      "inputs": [
        {
          "internalType": "uint256",
          "name": "marginAmount",
          "type": "uint256"
        },
        {
          "internalType": "uint256",
          "name": "positionAmount",
          "type": "uint256"
        },
        {
          "internalType": "bool",
          "name": "isBuy",
          "type": "bool"
        },
        {
          "internalType": "bytes32",
          "name": "traderFlags",
          "type": "bytes32"
        }
      ],
      "name": "setSecondTradeResult",
      "outputs": [],
      "payable": false,
      "stateMutability": "nonpayable",
      "type": "function"
    },
    {
      "constant": false,
      "inputs": [
        {
          "internalType": "uint256",
          "name": "marginAmount",
          "type": "uint256"
        },
        {
          "internalType": "uint256",
          "name": "positionAmount",
          "type": "uint256"
        },
        {
          "internalType": "bool",
          "name": "isBuy",
          "type": "bool"
        },
        {
          "internalType": "bytes32",
          "name": "traderFlags",
          "type": "bytes32"
        }
      ],
      "name": "setTradeResult",
      "outputs": [],
      "payable": false,
      "stateMutability": "nonpayable",
      "type": "function"
    },
    {
      "constant": false,
      "inputs": [
        {
          "internalType": "address",
          "name": "",
          "type": "address"
        },
        {
          "internalType": "address",
          "name": "",
          "type": "address"
        },
        {
          "internalType": "address",
          "name": "",
          "type": "address"
        },
        {
          "internalType": "uint256",
          "name": "",
          "type": "uint256"
        },
        {
          "internalType": "bytes",
          "name": "",
          "type": "bytes"
        },
        {
          "internalType": "bytes32",
          "name": "traderFlags",
          "type": "bytes32"
        }
      ],
      "name": "trade",
      "outputs": [
        {
          "components": [
            {
              "internalType": "uint256",
              "name": "marginAmount",
              "type": "uint256"
            },
            {
              "internalType": "uint256",
              "name": "positionAmount",
              "type": "uint256"
            },
            {
              "internalType": "bool",
              "name": "isBuy",
              "type": "bool"
            },
            {
              "internalType": "bytes32",
              "name": "traderFlags",
              "type": "bytes32"
            }
          ],
          "internalType": "struct P1Types.TradeResult",
          "name": "",
          "type": "tuple"
        }
      ],
      "payable": false,
      "stateMutability": "nonpayable",
      "type": "function"
    }
  ],
  "bytecode": "0x60806040526000805460ff19166001908117825581905560025534801561002557600080fd5b50610778806100356000396000f3fe608060405234801561001057600080fd5b50600436106100df5760003560e01c806391b7f5ed1161008c5780639f5cf46a116100665780639f5cf46a1461018f578063e41a054f14610197578063e53adbb2146101aa578063ebed4bd4146101bd576100df565b806391b7f5ed14610154578063970c2ba11461016757806398d5fdca14610187576100df565b80636d2c6021116100bd5780636d2c60211461012f57806375092a3014610137578063910fb0731461013f576100df565b8063495f9bff146100e45780634993cc3b1461010557806363a3d85f1461011a575b600080fd5b6100ec6101de565b6040516100fc94939291906106a2565b60405180910390f35b61010d6101f3565b6040516100fc9190610686565b61012d61012836600461058d565b6101f9565b005b61010d61025a565b6100ec61027e565b610147610293565b6040516100fc9190610656565b61012d610162366004610567565b61029c565b61017a610175366004610488565b6102a1565b6040516100fc9190610694565b61010d610340565b61010d610346565b61012d6101a536600461052d565b61034c565b61012d6101b836600461058d565b610381565b6101d06101cb366004610567565b6103e2565b6040516100fc929190610664565b60035460045460055460065460ff9091169084565b60015481565b60408051608081018252858152602081018590529215159083018190526060909201819052600793909355600891909155600980547fffffffffffffffffffffffffffffffffffffffffffffffffffffffffffffff00169091179055600a55565b7fffffffffffffffffffffffffffffffffffffffffffffffffffffffffffffffff81565b600754600854600954600a5460ff9091169084565b60005460ff1681565b600255565b6102a96103f1565b7fffffffffffffffffffffffffffffffffffffffffffffffffffffffffffffffff8214156103055750604080516080810182526007548152600854602082015260095460ff16151591810191909152600a546060820152610335565b50604080516080810182526003548152600454602082015260055460ff1615159181019190915260065460608201525b979650505050505050565b60025490565b60025481565b600080547fffffffffffffffffffffffffffffffffffffffffffffffffffffffffffffff001692151592909217909155600155565b60408051608081018252858152602081018590529215159083018190526060909201819052600393909355600491909155600580547fffffffffffffffffffffffffffffffffffffffffffffffffffffffffffffff00169091179055600655565b5060005460015460ff90911691565b60408051608081018252600080825260208201819052918101829052606081019190915290565b80356104238161070c565b92915050565b803561042381610723565b80356104238161072c565b60008083601f84011261045157600080fd5b50813567ffffffffffffffff81111561046957600080fd5b60208301915083600182028301111561048157600080fd5b9250929050565b600080600080600080600060c0888a0312156104a357600080fd5b60006104af8a8a610418565b97505060206104c08a828b01610418565b96505060406104d18a828b01610418565b95505060606104e28a828b01610434565b945050608088013567ffffffffffffffff8111156104ff57600080fd5b61050b8a828b0161043f565b935093505060a061051e8a828b01610434565b91505092959891949750929550565b6000806040838503121561054057600080fd5b600061054c8585610429565b925050602061055d85828601610434565b9150509250929050565b60006020828403121561057957600080fd5b60006105858484610434565b949350505050565b600080600080608085870312156105a357600080fd5b60006105af8787610434565b94505060206105c087828801610434565b93505060406105d187828801610429565b92505060606105e287828801610434565b91505092959194509250565b6105f7816106eb565b82525050565b6105f7816106f0565b8051608083019061061784826105fd565b50602082015161062a60208501826105fd565b50604082015161063d60408501826105ee565b50606082015161065060608501826105fd565b50505050565b6020810161042382846105ee565b6040810161067282856105ee565b61067f60208301846105fd565b9392505050565b6020810161042382846105fd565b608081016104238284610606565b608081016106b082876105fd565b6106bd60208301866105fd565b6106ca60408301856105ee565b6106d760608301846105fd565b95945050505050565b6000610423826106f3565b151590565b90565b73ffffffffffffffffffffffffffffffffffffffff1690565b610715816106e0565b811461072057600080fd5b50565b610715816106eb565b610715816106f056fea365627a7a72315820cc273644075a9ebc44bc10e68408f9612fa5af1fdc2de1de15d0047b223f17696c6578706572696d656e74616cf564736f6c63430005100040",
  "source": "/*\n\n    Copyright 2020 dYdX Trading Inc.\n\n    Licensed under the Apache License, Version 2.0 (the \"License\");\n    you may not use this file except in compliance with the License.\n    You may obtain a copy of the License at\n\n    http://www.apache.org/licenses/LICENSE-2.0\n\n    Unless required by applicable law or agreed to in writing, software\n    distributed under the License is distributed on an \"AS IS\" BASIS,\n    WITHOUT WARRANTIES OR CONDITIONS OF ANY KIND, either express or implied.\n    See the License for the specific language governing permissions and\n    limitations under the License.\n\n*/\n\npragma solidity 0.5.16;\npragma experimental ABIEncoderV2;\n\nimport { Test_P1Funder } from \"./Test_P1Funder.sol\";\nimport { Test_P1Oracle } from \"./Test_P1Oracle.sol\";\nimport { Test_P1Trader } from \"./Test_P1Trader.sol\";\n\n\n/**\n * @title Test_P1Monolith\n * @author dYdX\n *\n * @notice A second contract for testing the funder, oracle, and trader.\n */\n/* solium-disable-next-line camelcase, no-empty-blocks */\ncontract Test_P1Monolith is\n    Test_P1Funder,\n    Test_P1Oracle,\n    Test_P1Trader\n{}\n",
  "sourcePath": "/Users/dennismacpro/Projects/Defi/Ethereum-Solidity-Collection/icarus-protocol/defi-seeder/.tmp/dydx-protocol/perpetual/contracts/test/v1/Test_P1Monolith.sol",
  "compiler": {
    "name": "solc",
    "version": "0.5.16+commit.9c3226ce.Linux.g++"
  },
  "schemaVersion": "3.3.4",
  "updatedAt": "2021-04-01T16:42:57.492Z",
  "devdoc": {
    "author": "dYdX",
    "methods": {},
    "title": "Test_P1Monolith"
  },
  "userdoc": {
    "methods": {
      "setSecondTradeResult(uint256,uint256,bool,bytes32)": {
        "notice": "Sets a second trade result which can be triggered by the trader flags of the first trade."
      }
    },
    "notice": "A second contract for testing the funder, oracle, and trader."
  }
}