{
  "contractName": "Test_ChainlinkAggregator",
  "abi": [
    {
      "constant": true,
      "inputs": [],
      "name": "_ANSWER_",
      "outputs": [
        {
          "internalType": "int256",
          "name": "",
          "type": "int256"
        }
      ],
      "payable": false,
      "stateMutability": "view",
      "type": "function"
    },
    {
      "constant": false,
      "inputs": [
        {
          "internalType": "int256",
          "name": "newAnswer",
          "type": "int256"
        }
      ],
      "name": "setAnswer",
      "outputs": [],
      "payable": false,
      "stateMutability": "nonpayable",
      "type": "function"
    },
    {
      "constant": true,
      "inputs": [],
      "name": "latestAnswer",
      "outputs": [
        {
          "internalType": "int256",
          "name": "",
          "type": "int256"
        }
      ],
      "payable": false,
      "stateMutability": "view",
      "type": "function"
    }
  ],
  "bytecode": "0x60806040526000805534801561001457600080fd5b50610128806100246000396000f3fe6080604052348015600f57600080fd5b5060043610603c5760003560e01c80633ad12a2214604157806350d25bcd14605b57806399213cd8146061575b600080fd5b60476072565b6040516052919060c2565b60405180910390f35b60476078565b6070606c3660046092565b607e565b005b60005481565b60005490565b600055565b8035608c8160d1565b92915050565b60006020828403121560a357600080fd5b600060ad84846083565b949350505050565b60bc8160ce565b82525050565b60208101608c828460b5565b90565b60d88160ce565b811460e257600080fd5b5056fea365627a7a723158205d3646068f650e000aef87a3860995c1d072adce89112251c289dff8d1c4b3866c6578706572696d656e74616cf564736f6c63430005100040",
  "source": "/*\n\n    Copyright 2020 dYdX Trading Inc.\n\n    Licensed under the Apache License, Version 2.0 (the \"License\");\n    you may not use this file except in compliance with the License.\n    You may obtain a copy of the License at\n\n    http://www.apache.org/licenses/LICENSE-2.0\n\n    Unless required by applicable law or agreed to in writing, software\n    distributed under the License is distributed on an \"AS IS\" BASIS,\n    WITHOUT WARRANTIES OR CONDITIONS OF ANY KIND, either express or implied.\n    See the License for the specific language governing permissions and\n    limitations under the License.\n\n*/\n\npragma solidity 0.5.16;\npragma experimental ABIEncoderV2;\n\nimport { I_Aggregator } from \"../../external/chainlink/I_Aggregator.sol\";\n\n\n/**\n * @title Test_ChainlinkAggregator\n * @author dYdX\n *\n * Chainlink Aggregator for testing\n */\n/* solium-disable-next-line camelcase */\ncontract Test_ChainlinkAggregator is\n    I_Aggregator\n{\n    int256 public _ANSWER_ = 0;\n\n    // ============ Test Data Setter Functions ============\n\n    function setAnswer(\n        int256 newAnswer\n    )\n        external\n    {\n        _ANSWER_ = newAnswer;\n    }\n\n    // ============ Getter Functions ============\n\n    function latestAnswer()\n        external\n        view\n        returns (int256)\n    {\n        return _ANSWER_;\n    }\n}\n",
  "sourcePath": "/Users/dennismacpro/Projects/Defi/Ethereum-Solidity-Collection/icarus-protocol/defi-seeder/.tmp/dydx-protocol/perpetual/contracts/test/external/Test_ChainlinkAggregator.sol",
  "compiler": {
    "name": "solc",
    "version": "0.5.16+commit.9c3226ce.Linux.g++"
  },
  "schemaVersion": "3.3.4",
  "updatedAt": "2021-04-01T16:42:57.484Z",
  "devdoc": {
    "author": "dYdX * Chainlink Aggregator for testing",
    "methods": {},
    "title": "Test_ChainlinkAggregator"
  },
  "userdoc": {
    "methods": {}
  }
}