{
  "contractName": "Test_MakerOracle",
  "abi": [
    {
      "constant": true,
      "inputs": [],
      "name": "_PRICE_",
      "outputs": [
        {
          "internalType": "uint256",
          "name": "",
          "type": "uint256"
        }
      ],
      "payable": false,
      "stateMutability": "view",
      "type": "function"
    },
    {
      "constant": true,
      "inputs": [],
      "name": "_VALID_",
      "outputs": [
        {
          "internalType": "bool",
          "name": "",
          "type": "bool"
        }
      ],
      "payable": false,
      "stateMutability": "view",
      "type": "function"
    },
    {
      "constant": true,
      "inputs": [],
      "name": "age",
      "outputs": [
        {
          "internalType": "uint32",
          "name": "",
          "type": "uint32"
        }
      ],
      "payable": false,
      "stateMutability": "view",
      "type": "function"
    },
    {
      "constant": true,
      "inputs": [],
      "name": "bar",
      "outputs": [
        {
          "internalType": "uint256",
          "name": "",
          "type": "uint256"
        }
      ],
      "payable": false,
      "stateMutability": "view",
      "type": "function"
    },
    {
      "constant": true,
      "inputs": [
        {
          "internalType": "address",
          "name": "",
          "type": "address"
        }
      ],
      "name": "bud",
      "outputs": [
        {
          "internalType": "uint256",
          "name": "",
          "type": "uint256"
        }
      ],
      "payable": false,
      "stateMutability": "view",
      "type": "function"
    },
    {
      "constant": true,
      "inputs": [
        {
          "internalType": "address",
          "name": "",
          "type": "address"
        }
      ],
      "name": "orcl",
      "outputs": [
        {
          "internalType": "uint256",
          "name": "",
          "type": "uint256"
        }
      ],
      "payable": false,
      "stateMutability": "view",
      "type": "function"
    },
    {
      "constant": true,
      "inputs": [
        {
          "internalType": "uint8",
          "name": "",
          "type": "uint8"
        }
      ],
      "name": "slot",
      "outputs": [
        {
          "internalType": "address",
          "name": "",
          "type": "address"
        }
      ],
      "payable": false,
      "stateMutability": "view",
      "type": "function"
    },
    {
      "constant": false,
      "inputs": [
        {
          "internalType": "uint256",
          "name": "newBar",
          "type": "uint256"
        }
      ],
      "name": "setBar",
      "outputs": [],
      "payable": false,
      "stateMutability": "nonpayable",
      "type": "function"
    },
    {
      "constant": false,
      "inputs": [
        {
          "internalType": "uint256",
          "name": "newAge",
          "type": "uint256"
        }
      ],
      "name": "setAge",
      "outputs": [],
      "payable": false,
      "stateMutability": "nonpayable",
      "type": "function"
    },
    {
      "constant": false,
      "inputs": [
        {
          "internalType": "uint256",
          "name": "newPrice",
          "type": "uint256"
        }
      ],
      "name": "setPrice",
      "outputs": [],
      "payable": false,
      "stateMutability": "nonpayable",
      "type": "function"
    },
    {
      "constant": false,
      "inputs": [
        {
          "internalType": "bool",
          "name": "valid",
          "type": "bool"
        }
      ],
      "name": "setValidity",
      "outputs": [],
      "payable": false,
      "stateMutability": "nonpayable",
      "type": "function"
    },
    {
      "constant": true,
      "inputs": [],
      "name": "read",
      "outputs": [
        {
          "internalType": "bytes32",
          "name": "",
          "type": "bytes32"
        }
      ],
      "payable": false,
      "stateMutability": "view",
      "type": "function"
    },
    {
      "constant": true,
      "inputs": [],
      "name": "peek",
      "outputs": [
        {
          "internalType": "bytes32",
          "name": "",
          "type": "bytes32"
        },
        {
          "internalType": "bool",
          "name": "",
          "type": "bool"
        }
      ],
      "payable": false,
      "stateMutability": "view",
      "type": "function"
    },
    {
      "constant": false,
      "inputs": [
        {
          "internalType": "uint256[]",
          "name": "",
          "type": "uint256[]"
        },
        {
          "internalType": "uint256[]",
          "name": "",
          "type": "uint256[]"
        },
        {
          "internalType": "uint8[]",
          "name": "",
          "type": "uint8[]"
        },
        {
          "internalType": "bytes32[]",
          "name": "",
          "type": "bytes32[]"
        },
        {
          "internalType": "bytes32[]",
          "name": "",
          "type": "bytes32[]"
        }
      ],
      "name": "poke",
      "outputs": [],
      "payable": false,
      "stateMutability": "nonpayable",
      "type": "function"
    },
    {
      "constant": false,
      "inputs": [
        {
          "internalType": "address[]",
          "name": "signers",
          "type": "address[]"
        }
      ],
      "name": "lift",
      "outputs": [],
      "payable": false,
      "stateMutability": "nonpayable",
      "type": "function"
    },
    {
      "constant": false,
      "inputs": [
        {
          "internalType": "address[]",
          "name": "signers",
          "type": "address[]"
        }
      ],
      "name": "drop",
      "outputs": [],
      "payable": false,
      "stateMutability": "nonpayable",
      "type": "function"
    },
    {
      "constant": false,
      "inputs": [
        {
          "internalType": "address[]",
          "name": "readers",
          "type": "address[]"
        }
      ],
      "name": "kiss",
      "outputs": [],
      "payable": false,
      "stateMutability": "nonpayable",
      "type": "function"
    },
    {
      "constant": false,
      "inputs": [
        {
          "internalType": "address",
          "name": "reader",
          "type": "address"
        }
      ],
      "name": "kiss",
      "outputs": [],
      "payable": false,
      "stateMutability": "nonpayable",
      "type": "function"
    },
    {
      "constant": false,
      "inputs": [
        {
          "internalType": "address[]",
          "name": "readers",
          "type": "address[]"
        }
      ],
      "name": "diss",
      "outputs": [],
      "payable": false,
      "stateMutability": "nonpayable",
      "type": "function"
    },
    {
      "constant": false,
      "inputs": [
        {
          "internalType": "address",
          "name": "reader",
          "type": "address"
        }
      ],
      "name": "diss",
      "outputs": [],
      "payable": false,
      "stateMutability": "nonpayable",
      "type": "function"
    }
  ],
  "bytecode": "0x608060405260016000818155815463ffffffff19164263ffffffff161782556005556006805460ff1916909117905534801561003a57600080fd5b50610a568061004a6000396000f3fe608060405234801561001057600080fd5b506004361061016c5760003560e01c806389bbb8b2116100cd5780639f5cf46a11610081578063d5dcf12711610066578063d5dcf127146102ca578063f29c29c4146102dd578063febb0f7e146102f05761016c565b80639f5cf46a146102af578063b8a35a01146102b75761016c565b80638ef5eaf0116100b25780638ef5eaf01461027657806391b7f5ed14610289578063943181061461029c5761016c565b806389bbb8b2146102435780638d0e5a9a146102565761016c565b80634fce7a2a1161012457806359e02dd71161010957806359e02dd71461020557806365c4ce7a1461021b5780636f0fb3011461022e5761016c565b80634fce7a2a146101ea57806357de26a4146101fd5761016c565b8063262a9dff11610155578063262a9dff146101af578063352d3fba146101c457806346d4577d146101d75761016c565b8063020b2e32146101715780631b25b65f1461019a575b600080fd5b61018461017f36600461070c565b6102f8565b604051610191919061094f565b60405180910390f35b6101ad6101a8366004610732565b61030a565b005b6101b7610370565b604051610191919061098f565b6101ad6101d2366004610894565b61037c565b6101ad6101e5366004610732565b610381565b6101846101f836600461070c565b6103e2565b6101846103f4565b61020d610443565b60405161019192919061095d565b6101ad61022936600461070c565b610450565b610236610477565b6040516101919190610941565b6101ad610251366004610774565b610480565b6102696102643660046108b2565b61048c565b6040516101919190610933565b6101ad610284366004610732565b6104b4565b6101ad610297366004610894565b61054c565b6101ad6102aa366004610732565b610551565b6101846105f3565b6101ad6102c5366004610876565b6105f9565b6101ad6102d8366004610894565b61062a565b6101ad6102eb36600461070c565b610661565b61018461068b565b60026020526000908152604090205481565b60005b8181101561036b5760016003600085858581811061032757fe5b905060200201602061033c919081019061070c565b73ffffffffffffffffffffffffffffffffffffffff16815260208101919091526040016000205560010161030d565b505050565b60015463ffffffff1681565b600055565b60005b8181101561036b5760006003600085858581811061039e57fe5b90506020020160206103b3919081019061070c565b73ffffffffffffffffffffffffffffffffffffffff168152602081019190915260400160002055600101610384565b60036020526000908152604090205481565b60065460009060ff1661043c576040517f08c379a00000000000000000000000000000000000000000000000000000000081526004016104339061097f565b60405180910390fd5b5060055490565b60055460065460ff169091565b73ffffffffffffffffffffffffffffffffffffffff16600090815260036020526040812055565b60065460ff1681565b50505050505050505050565b60046020526000908152604090205473ffffffffffffffffffffffffffffffffffffffff1681565b60005b8181101561036b5760008383838181106104cd57fe5b90506020020160206104e2919081019061070c565b73ffffffffffffffffffffffffffffffffffffffff8116600090815260026020908152604080832083905560989390931c60ff168252600490522080547fffffffffffffffffffffffff0000000000000000000000000000000000000000169055506001016104b7565b600555565b60005b8181101561036b57600083838381811061056a57fe5b905060200201602061057f919081019061070c565b73ffffffffffffffffffffffffffffffffffffffff8116600081815260026020908152604080832060019081905560989590951c60ff1683526004909152902080547fffffffffffffffffffffffff0000000000000000000000000000000000000000169091179055919091019050610554565b60055481565b600680547fffffffffffffffffffffffffffffffffffffffffffffffffffffffffffffff0016911515919091179055565b600180547fffffffffffffffffffffffffffffffffffffffffffffffffffffffff000000001663ffffffff92909216919091179055565b73ffffffffffffffffffffffffffffffffffffffff16600090815260036020526040902060019055565b60005481565b803561069c816109e1565b92915050565b60008083601f8401126106b457600080fd5b50813567ffffffffffffffff8111156106cc57600080fd5b6020830191508360208202830111156106e457600080fd5b9250929050565b803561069c816109f8565b803561069c81610a01565b803561069c81610a0a565b60006020828403121561071e57600080fd5b600061072a8484610691565b949350505050565b6000806020838503121561074557600080fd5b823567ffffffffffffffff81111561075c57600080fd5b610768858286016106a2565b92509250509250929050565b60008060008060008060008060008060a08b8d03121561079357600080fd5b8a3567ffffffffffffffff8111156107aa57600080fd5b6107b68d828e016106a2565b9a509a505060208b013567ffffffffffffffff8111156107d557600080fd5b6107e18d828e016106a2565b985098505060408b013567ffffffffffffffff81111561080057600080fd5b61080c8d828e016106a2565b965096505060608b013567ffffffffffffffff81111561082b57600080fd5b6108378d828e016106a2565b945094505060808b013567ffffffffffffffff81111561085657600080fd5b6108628d828e016106a2565b92509250509295989b9194979a5092959850565b60006020828403121561088857600080fd5b600061072a84846106eb565b6000602082840312156108a657600080fd5b600061072a84846106f6565b6000602082840312156108c457600080fd5b600061072a8484610701565b6108d9816109a6565b82525050565b6108d9816109b1565b6108d9816109b6565b60006108fe60198361099d565b7f4d656469616e2f696e76616c69642d70726963652d6665656400000000000000815260200192915050565b6108d9816109d2565b6020810161069c82846108d0565b6020810161069c82846108df565b6020810161069c82846108e8565b6040810161096b82856108e8565b61097860208301846108df565b9392505050565b6020808252810161069c816108f1565b6020810161069c828461092a565b90815260200190565b600061069c826109b9565b151590565b90565b73ffffffffffffffffffffffffffffffffffffffff1690565b63ffffffff1690565b60ff1690565b6109ea816109a6565b81146109f557600080fd5b50565b6109ea816109b1565b6109ea816109b6565b6109ea816109db56fea365627a7a723158200f9cb6e61dc881f909aa4fd5f6863bfdc72810dc8ac6d6d5fb5966574f78cc8c6c6578706572696d656e74616cf564736f6c63430005100040",
  "source": "/*\n\n    Copyright 2020 dYdX Trading Inc.\n\n    Licensed under the Apache License, Version 2.0 (the \"License\");\n    you may not use this file except in compliance with the License.\n    You may obtain a copy of the License at\n\n    http://www.apache.org/licenses/LICENSE-2.0\n\n    Unless required by applicable law or agreed to in writing, software\n    distributed under the License is distributed on an \"AS IS\" BASIS,\n    WITHOUT WARRANTIES OR CONDITIONS OF ANY KIND, either express or implied.\n    See the License for the specific language governing permissions and\n    limitations under the License.\n\n*/\n\npragma solidity 0.5.16;\npragma experimental ABIEncoderV2;\n\nimport { I_MakerOracle } from \"../../external/maker/I_MakerOracle.sol\";\n\n\n/**\n * @title Test_MakerOracle\n * @author dYdX\n *\n * MakerOracle for testing\n */\n/* solium-disable-next-line camelcase */\ncontract Test_MakerOracle is\n    I_MakerOracle\n{\n    uint256 public bar = 1;\n    uint32 public age = uint32(block.timestamp);\n    mapping (address => uint256) public orcl;\n    mapping (address => uint256) public bud;\n    mapping (uint8 => address) public slot;\n    uint256 public _PRICE_ = 0;\n    bool public _VALID_ = true;\n\n    // ============ Set Functions ============\n\n    function setBar(\n        uint256 newBar\n    )\n        external\n    {\n        bar = newBar;\n    }\n\n    function setAge(\n        uint256 newAge\n    )\n        external\n    {\n        age = uint32(newAge);\n    }\n\n    function setPrice(\n        uint256 newPrice\n    )\n        external\n    {\n        _PRICE_ = newPrice;\n    }\n\n    function setValidity(\n        bool valid\n    )\n        external\n    {\n        _VALID_ = valid;\n    }\n\n    // ============ Getter Functions ============\n\n    function read()\n        external\n        view\n        returns (bytes32)\n    {\n        require(\n            _VALID_,\n            \"Median/invalid-price-feed\"\n        );\n        return bytes32(_PRICE_);\n    }\n\n    function peek()\n        external\n        view\n        returns (bytes32, bool)\n    {\n        return (bytes32(_PRICE_), _VALID_);\n    }\n\n    // ============ State-Changing Functions ============\n\n    function poke(\n        uint256[] calldata,\n        uint256[] calldata,\n        uint8[] calldata,\n        bytes32[] calldata,\n        bytes32[] calldata\n    )\n        external\n    { /* solium-disable-line no-empty-blocks */ }\n\n    function lift(\n        address[] calldata signers\n    )\n        external\n    {\n        for (uint i = 0; i < signers.length; i++) {\n            address signer = signers[i];\n            uint8 signerId = uint8(uint256(signer) >> 152);\n            orcl[signer] = 1;\n            slot[signerId] = signer;\n        }\n    }\n\n    function drop(\n        address[] calldata signers\n    )\n        external\n    {\n        for (uint i = 0; i < signers.length; i++) {\n            address signer = signers[i];\n            uint8 signerId = uint8(uint256(signer) >> 152);\n            orcl[signer] = 0;\n            slot[signerId] = address(0);\n        }\n    }\n\n    function kiss(\n        address reader\n    )\n        external\n    {\n        bud[reader] = 1;\n    }\n\n    function diss(\n        address reader\n    )\n        external\n    {\n        bud[reader] = 0;\n    }\n\n    function kiss(\n        address[] calldata readers\n    )\n        external\n    {\n        for (uint256 i = 0; i < readers.length; i++) {\n            bud[readers[i]] = 1;\n        }\n    }\n\n    function diss(\n        address[] calldata readers\n    )\n        external\n    {\n        for (uint256 i = 0; i < readers.length; i++) {\n            bud[readers[i]] = 0;\n        }\n    }\n}\n",
  "sourcePath": "/Users/dennismacpro/Projects/Defi/Ethereum-Solidity-Collection/icarus-protocol/defi-seeder/.tmp/dydx-protocol/perpetual/contracts/test/external/Test_MakerOracle.sol",
  "compiler": {
    "name": "solc",
    "version": "0.5.16+commit.9c3226ce.Linux.g++"
  },
  "schemaVersion": "3.3.4",
  "updatedAt": "2021-04-01T16:42:57.486Z",
  "devdoc": {
    "author": "dYdX * MakerOracle for testing",
    "methods": {},
    "title": "Test_MakerOracle"
  },
  "userdoc": {
    "methods": {}
  }
}