{
  "_format": "hh-sol-artifact-1",
  "contractName": "DebtCache",
  "sourceName": "contracts/DebtCache.sol",
  "abi": [
    {
      "inputs": [
        {
          "internalType": "address",
          "name": "_owner",
          "type": "address"
        },
        {
          "internalType": "address",
          "name": "_resolver",
          "type": "address"
        }
      ],
      "payable": false,
      "stateMutability": "nonpayable",
      "type": "constructor"
    },
    {
      "anonymous": false,
      "inputs": [
        {
          "indexed": false,
          "internalType": "bytes32",
          "name": "name",
          "type": "bytes32"
        },
        {
          "indexed": false,
          "internalType": "address",
          "name": "destination",
          "type": "address"
        }
      ],
      "name": "CacheUpdated",
      "type": "event"
    },
    {
      "anonymous": false,
      "inputs": [
        {
          "indexed": false,
          "internalType": "uint256",
          "name": "timestamp",
          "type": "uint256"
        }
      ],
      "name": "DebtCacheSnapshotTaken",
      "type": "event"
    },
    {
      "anonymous": false,
      "inputs": [
        {
          "indexed": false,
          "internalType": "uint256",
          "name": "cachedDebt",
          "type": "uint256"
        }
      ],
      "name": "DebtCacheUpdated",
      "type": "event"
    },
    {
      "anonymous": false,
      "inputs": [
        {
          "indexed": true,
          "internalType": "bool",
          "name": "isInvalid",
          "type": "bool"
        }
      ],
      "name": "DebtCacheValidityChanged",
      "type": "event"
    },
    {
      "anonymous": false,
      "inputs": [
        {
          "indexed": false,
          "internalType": "address",
          "name": "oldOwner",
          "type": "address"
        },
        {
          "indexed": false,
          "internalType": "address",
          "name": "newOwner",
          "type": "address"
        }
      ],
      "name": "OwnerChanged",
      "type": "event"
    },
    {
      "anonymous": false,
      "inputs": [
        {
          "indexed": false,
          "internalType": "address",
          "name": "newOwner",
          "type": "address"
        }
      ],
      "name": "OwnerNominated",
      "type": "event"
    },
    {
      "constant": false,
      "inputs": [],
      "name": "acceptOwnership",
      "outputs": [],
      "payable": false,
      "stateMutability": "nonpayable",
      "type": "function"
    },
    {
      "constant": true,
      "inputs": [],
      "name": "cacheInfo",
      "outputs": [
        {
          "internalType": "uint256",
          "name": "debt",
          "type": "uint256"
        },
        {
          "internalType": "uint256",
          "name": "timestamp",
          "type": "uint256"
        },
        {
          "internalType": "bool",
          "name": "isInvalid",
          "type": "bool"
        },
        {
          "internalType": "bool",
          "name": "isStale",
          "type": "bool"
        }
      ],
      "payable": false,
      "stateMutability": "view",
      "type": "function"
    },
    {
      "constant": true,
      "inputs": [],
      "name": "cacheInvalid",
      "outputs": [
        {
          "internalType": "bool",
          "name": "",
          "type": "bool"
        }
      ],
      "payable": false,
      "stateMutability": "view",
      "type": "function"
    },
    {
      "constant": true,
      "inputs": [],
      "name": "cacheStale",
      "outputs": [
        {
          "internalType": "bool",
          "name": "",
          "type": "bool"
        }
      ],
      "payable": false,
      "stateMutability": "view",
      "type": "function"
    },
    {
      "constant": true,
      "inputs": [],
      "name": "cacheTimestamp",
      "outputs": [
        {
          "internalType": "uint256",
          "name": "",
          "type": "uint256"
        }
      ],
      "payable": false,
      "stateMutability": "view",
      "type": "function"
    },
    {
      "constant": true,
      "inputs": [],
      "name": "cachedDebt",
      "outputs": [
        {
          "internalType": "uint256",
          "name": "",
          "type": "uint256"
        }
      ],
      "payable": false,
      "stateMutability": "view",
      "type": "function"
    },
    {
      "constant": true,
      "inputs": [
        {
          "internalType": "bytes32",
          "name": "currencyKey",
          "type": "bytes32"
        }
      ],
      "name": "cachedSynthDebt",
      "outputs": [
        {
          "internalType": "uint256",
          "name": "",
          "type": "uint256"
        }
      ],
      "payable": false,
      "stateMutability": "view",
      "type": "function"
    },
    {
      "constant": true,
      "inputs": [
        {
          "internalType": "bytes32[]",
          "name": "currencyKeys",
          "type": "bytes32[]"
        }
      ],
      "name": "cachedSynthDebts",
      "outputs": [
        {
          "internalType": "uint256[]",
          "name": "snxIssuedDebts",
          "type": "uint256[]"
        }
      ],
      "payable": false,
      "stateMutability": "view",
      "type": "function"
    },
    {
      "constant": true,
      "inputs": [],
      "name": "currentDebt",
      "outputs": [
        {
          "internalType": "uint256",
          "name": "debt",
          "type": "uint256"
        },
        {
          "internalType": "bool",
          "name": "anyRateIsInvalid",
          "type": "bool"
        }
      ],
      "payable": false,
      "stateMutability": "view",
      "type": "function"
    },
    {
      "constant": true,
      "inputs": [
        {
          "internalType": "bytes32[]",
          "name": "currencyKeys",
          "type": "bytes32[]"
        }
      ],
      "name": "currentSynthDebts",
      "outputs": [
        {
          "internalType": "uint256[]",
          "name": "debtValues",
          "type": "uint256[]"
        },
        {
          "internalType": "bool",
          "name": "anyRateIsInvalid",
          "type": "bool"
        }
      ],
      "payable": false,
      "stateMutability": "view",
      "type": "function"
    },
    {
      "constant": true,
      "inputs": [],
      "name": "debtSnapshotStaleTime",
      "outputs": [
        {
          "internalType": "uint256",
          "name": "",
          "type": "uint256"
        }
      ],
      "payable": false,
      "stateMutability": "view",
      "type": "function"
    },
    {
      "constant": true,
      "inputs": [],
      "name": "isResolverCached",
      "outputs": [
        {
          "internalType": "bool",
          "name": "",
          "type": "bool"
        }
      ],
      "payable": false,
      "stateMutability": "view",
      "type": "function"
    },
    {
      "constant": false,
      "inputs": [
        {
          "internalType": "address",
          "name": "_owner",
          "type": "address"
        }
      ],
      "name": "nominateNewOwner",
      "outputs": [],
      "payable": false,
      "stateMutability": "nonpayable",
      "type": "function"
    },
    {
      "constant": true,
      "inputs": [],
      "name": "nominatedOwner",
      "outputs": [
        {
          "internalType": "address",
          "name": "",
          "type": "address"
        }
      ],
      "payable": false,
      "stateMutability": "view",
      "type": "function"
    },
    {
      "constant": true,
      "inputs": [],
      "name": "owner",
      "outputs": [
        {
          "internalType": "address",
          "name": "",
          "type": "address"
        }
      ],
      "payable": false,
      "stateMutability": "view",
      "type": "function"
    },
    {
      "constant": false,
      "inputs": [
        {
          "internalType": "bytes32",
          "name": "currencyKey",
          "type": "bytes32"
        }
      ],
      "name": "purgeCachedSynthDebt",
      "outputs": [],
      "payable": false,
      "stateMutability": "nonpayable",
      "type": "function"
    },
    {
      "constant": false,
      "inputs": [],
      "name": "rebuildCache",
      "outputs": [],
      "payable": false,
      "stateMutability": "nonpayable",
      "type": "function"
    },
    {
      "constant": true,
      "inputs": [],
      "name": "resolver",
      "outputs": [
        {
          "internalType": "contract AddressResolver",
          "name": "",
          "type": "address"
        }
      ],
      "payable": false,
      "stateMutability": "view",
      "type": "function"
    },
    {
      "constant": true,
      "inputs": [],
      "name": "resolverAddressesRequired",
      "outputs": [
        {
          "internalType": "bytes32[]",
          "name": "addresses",
          "type": "bytes32[]"
        }
      ],
      "payable": false,
      "stateMutability": "view",
      "type": "function"
    },
    {
      "constant": false,
      "inputs": [],
      "name": "takeDebtSnapshot",
      "outputs": [],
      "payable": false,
      "stateMutability": "nonpayable",
      "type": "function"
    },
    {
      "constant": false,
      "inputs": [
        {
          "internalType": "bytes32",
          "name": "currencyKey",
          "type": "bytes32"
        },
        {
          "internalType": "uint256",
          "name": "currencyRate",
          "type": "uint256"
        }
      ],
      "name": "updateCachedSynthDebtWithRate",
      "outputs": [],
      "payable": false,
      "stateMutability": "nonpayable",
      "type": "function"
    },
    {
      "constant": false,
      "inputs": [
        {
          "internalType": "bytes32[]",
          "name": "currencyKeys",
          "type": "bytes32[]"
        }
      ],
      "name": "updateCachedSynthDebts",
      "outputs": [],
      "payable": false,
      "stateMutability": "nonpayable",
      "type": "function"
    },
    {
      "constant": false,
      "inputs": [
        {
          "internalType": "bytes32[]",
          "name": "currencyKeys",
          "type": "bytes32[]"
        },
        {
          "internalType": "uint256[]",
          "name": "currencyRates",
          "type": "uint256[]"
        }
      ],
      "name": "updateCachedSynthDebtsWithRates",
      "outputs": [],
      "payable": false,
      "stateMutability": "nonpayable",
      "type": "function"
    },
    {
      "constant": false,
      "inputs": [
        {
          "internalType": "bool",
          "name": "currentlyInvalid",
          "type": "bool"
        }
      ],
      "name": "updateDebtCacheValidity",
      "outputs": [],
      "payable": false,
      "stateMutability": "nonpayable",
      "type": "function"
    }
  ],
  "bytecode": "0x60806040526001600760006101000a81548160ff02191690831515021790555034801561002b57600080fd5b506040516134543803806134548339818101604052604081101561004e57600080fd5b8101908080519060200190929190805190602001909291905050508181808083600073ffffffffffffffffffffffffffffffffffffffff168173ffffffffffffffffffffffffffffffffffffffff161415610111576040517f08c379a00000000000000000000000000000000000000000000000000000000081526004018080602001828103825260198152602001807f4f776e657220616464726573732063616e6e6f7420626520300000000000000081525060200191505060405180910390fd5b806000806101000a81548173ffffffffffffffffffffffffffffffffffffffff021916908373ffffffffffffffffffffffffffffffffffffffff1602179055507fb532073b38c83145e3e5135377a08bf9aab55bc0fd7c1179cd4fb995d2a5159c600082604051808373ffffffffffffffffffffffffffffffffffffffff1673ffffffffffffffffffffffffffffffffffffffff1681526020018273ffffffffffffffffffffffffffffffffffffffff1673ffffffffffffffffffffffffffffffffffffffff1681526020019250505060405180910390a15080600260006101000a81548173ffffffffffffffffffffffffffffffffffffffff021916908373ffffffffffffffffffffffffffffffffffffffff160217905550505050505050613214806102406000396000f3fe608060405234801561001057600080fd5b50600436106101585760003560e01c806379ba5097116100c3578063b13cd7851161007c578063b13cd7851461061d578063cda218c7146106eb578063d0fffafd14610764578063d685743a14610782578063e3476cd4146107ba578063fc524773146107c457610158565b806379ba5097146104fc578063899ffef4146105065780638da5cb5b146105655780638dd5bfbc146105af578063a5f27edb146105dd578063af5355d8146105ff57610158565b80632af64bd3116101155780632af64bd3146103495780633a900a2e1461036b57806353a47bb7146103a65780636bf7c435146103f057806374185360146104c9578063759076e5146104d357610158565b806304bd11e51461015d57806304f3bcec1461018d57806305393262146101d75780630fb38465146101f55780631627540c1461023757806317b38db41461027b575b600080fd5b61018b6004803603602081101561017357600080fd5b810190808035151590602001909291905050506107e6565b005b6101956107fa565b604051808273ffffffffffffffffffffffffffffffffffffffff1673ffffffffffffffffffffffffffffffffffffffff16815260200191505060405180910390f35b6101df610820565b6040518082815260200191505060405180910390f35b6102216004803603602081101561020b57600080fd5b810190808035906020019092919050505061082a565b6040518082815260200191505060405180910390f35b6102796004803603602081101561024d57600080fd5b81019080803573ffffffffffffffffffffffffffffffffffffffff169060200190929190505050610847565b005b6103476004803603604081101561029157600080fd5b81019080803590602001906401000000008111156102ae57600080fd5b8201836020820111156102c057600080fd5b803590602001918460208302840111640100000000831117156102e257600080fd5b90919293919293908035906020019064010000000081111561030357600080fd5b82018360208201111561031557600080fd5b8035906020019184602083028401116401000000008311171561033757600080fd5b90919293919293905050506108f6565b005b610351610992565b604051808215151515815260200191505060405180910390f35b610373610b6a565b60405180858152602001848152602001831515151581526020018215151515815260200194505050505060405180910390f35b6103ae610ba3565b604051808273ffffffffffffffffffffffffffffffffffffffff1673ffffffffffffffffffffffffffffffffffffffff16815260200191505060405180910390f35b6104676004803603602081101561040657600080fd5b810190808035906020019064010000000081111561042357600080fd5b82018360208201111561043557600080fd5b8035906020019184602083028401116401000000008311171561045757600080fd5b9091929391929390505050610bc9565b604051808060200183151515158152602001828103825284818151815260200191508051906020019060200280838360005b838110156104b4578082015181840152602081019050610499565b50505050905001935050505060405180910390f35b6104d1610c22565b005b6104db610e8b565b60405180838152602001821515151581526020019250505060405180910390f35b610504610e9e565b005b61050e6110c4565b6040518080602001828103825283818151815260200191508051906020019060200280838360005b83811015610551578082015181840152602081019050610536565b505050509050019250505060405180910390f35b61056d6112ad565b604051808273ffffffffffffffffffffffffffffffffffffffff1673ffffffffffffffffffffffffffffffffffffffff16815260200191505060405180910390f35b6105db600480360360208110156105c557600080fd5b81019080803590602001909291905050506112d2565b005b6105e5611428565b604051808215151515815260200191505060405180910390f35b61060761143f565b6040518082815260200191505060405180910390f35b6106946004803603602081101561063357600080fd5b810190808035906020019064010000000081111561065057600080fd5b82018360208201111561066257600080fd5b8035906020019184602083028401116401000000008311171561068457600080fd5b909192939192939050505061144e565b6040518080602001828103825283818151815260200191508051906020019060200280838360005b838110156106d75780820151818401526020810190506106bc565b505050509050019250505060405180910390f35b6107626004803603602081101561070157600080fd5b810190808035906020019064010000000081111561071e57600080fd5b82018360208201111561073057600080fd5b8035906020019184602083028401116401000000008311171561075257600080fd5b90919293919293905050506114a2565b005b61076c61166d565b6040518082815260200191505060405180910390f35b6107b86004803603604081101561079857600080fd5b810190808035906020019092919080359060200190929190505050611677565b005b6107c261172f565b005b6107cc611a1c565b604051808215151515815260200191505060405180910390f35b6107ee611a2e565b6107f781611ad8565b50565b600260009054906101000a900473ffffffffffffffffffffffffffffffffffffffff1681565b6000600454905090565b600060056000838152602001908152602001600020549050919050565b61084f611b3f565b80600160006101000a81548173ffffffffffffffffffffffffffffffffffffffff021916908373ffffffffffffffffffffffffffffffffffffffff1602179055507f906a1c6bd7e3091ea86693dd029a831c19049ce77f1dce2ce0bab1cacbabce2281604051808273ffffffffffffffffffffffffffffffffffffffff1673ffffffffffffffffffffffffffffffffffffffff16815260200191505060405180910390a150565b6108fe611be6565b61098c848480806020026020016040519081016040528093929190818152602001838360200280828437600081840152601f19601f82011690508083019250505050505050838380806020026020016040519081016040528093929190818152602001838360200280828437600081840152601f19601f820116905080830192505050505050506000611cb0565b50505050565b6000606061099e6110c4565b905060008090505b8151811015610b605760008282815181106109bd57fe5b602002602001015190506003600082815260200190815260200160002060009054906101000a900473ffffffffffffffffffffffffffffffffffffffff1673ffffffffffffffffffffffffffffffffffffffff16600260009054906101000a900473ffffffffffffffffffffffffffffffffffffffff1673ffffffffffffffffffffffffffffffffffffffff166321f8a721836040518263ffffffff1660e01b81526004018082815260200191505060206040518083038186803b158015610a8457600080fd5b505afa158015610a98573d6000803e3d6000fd5b505050506040513d6020811015610aae57600080fd5b810190808051906020019092919050505073ffffffffffffffffffffffffffffffffffffffff16141580610b415750600073ffffffffffffffffffffffffffffffffffffffff166003600083815260200190815260200160002060009054906101000a900473ffffffffffffffffffffffffffffffffffffffff1673ffffffffffffffffffffffffffffffffffffffff16145b15610b525760009350505050610b67565b5080806001019150506109a6565b5060019150505b90565b6000806000806000600654905060045481600760009054906101000a900460ff16610b9484611ec7565b94509450945094505090919293565b600160009054906101000a900473ffffffffffffffffffffffffffffffffffffffff1681565b60606000610c17848480806020026020016040519081016040528093929190818152602001838360200280828437600081840152601f19601f82011690508083019250505050505050611ee7565b915091509250929050565b6060610c2c6110c4565b905060008090505b8151811015610e87576000828281518110610c4b57fe5b602002602001015190506000600260009054906101000a900473ffffffffffffffffffffffffffffffffffffffff1673ffffffffffffffffffffffffffffffffffffffff1663dacb2d01838460405160200180807f5265736f6c766572206d697373696e67207461726765743a20000000000000008152506019018281526020019150506040516020818303038152906040526040518363ffffffff1660e01b81526004018083815260200180602001828103825283818151815260200191508051906020019080838360005b83811015610d33578082015181840152602081019050610d18565b50505050905090810190601f168015610d605780820380516001836020036101000a031916815260200191505b50935050505060206040518083038186803b158015610d7e57600080fd5b505afa158015610d92573d6000803e3d6000fd5b505050506040513d6020811015610da857600080fd5b81019080805190602001909291905050509050806003600084815260200190815260200160002060006101000a81548173ffffffffffffffffffffffffffffffffffffffff021916908373ffffffffffffffffffffffffffffffffffffffff1602179055507f88a93678a3692f6789d9546fc621bf7234b101ddb7d4fe479455112831b8aa688282604051808381526020018273ffffffffffffffffffffffffffffffffffffffff1673ffffffffffffffffffffffffffffffffffffffff1681526020019250505060405180910390a150508080600101915050610c34565b5050565b600080610e96612084565b915091509091565b600160009054906101000a900473ffffffffffffffffffffffffffffffffffffffff1673ffffffffffffffffffffffffffffffffffffffff163373ffffffffffffffffffffffffffffffffffffffff1614610f44576040517f08c379a00000000000000000000000000000000000000000000000000000000081526004018080602001828103825260358152602001806131176035913960400191505060405180910390fd5b7fb532073b38c83145e3e5135377a08bf9aab55bc0fd7c1179cd4fb995d2a5159c6000809054906101000a900473ffffffffffffffffffffffffffffffffffffffff16600160009054906101000a900473ffffffffffffffffffffffffffffffffffffffff16604051808373ffffffffffffffffffffffffffffffffffffffff1673ffffffffffffffffffffffffffffffffffffffff1681526020018273ffffffffffffffffffffffffffffffffffffffff1673ffffffffffffffffffffffffffffffffffffffff1681526020019250505060405180910390a1600160009054906101000a900473ffffffffffffffffffffffffffffffffffffffff166000806101000a81548173ffffffffffffffffffffffffffffffffffffffff021916908373ffffffffffffffffffffffffffffffffffffffff1602179055506000600160006101000a81548173ffffffffffffffffffffffffffffffffffffffff021916908373ffffffffffffffffffffffffffffffffffffffff160217905550565b6060806110cf6122c9565b9050606060076040519080825280602002602001820160405280156111035781602001602082028038833980820191505090505b5090507f49737375657200000000000000000000000000000000000000000000000000008160008151811061113457fe5b6020026020010181815250507f45786368616e67657200000000000000000000000000000000000000000000008160018151811061116e57fe5b6020026020010181815250507f45786368616e6765526174657300000000000000000000000000000000000000816002815181106111a857fe5b6020026020010181815250507f53797374656d5374617475730000000000000000000000000000000000000000816003815181106111e257fe5b6020026020010181815250507f4574686572436f6c6c61746572616c00000000000000000000000000000000008160048151811061121c57fe5b6020026020010181815250507f4574686572436f6c6c61746572616c73555344000000000000000000000000008160058151811061125657fe5b6020026020010181815250507f436f6c6c61746572616c4d616e616765720000000000000000000000000000008160068151811061129057fe5b6020026020010181815250506112a6828261233b565b9250505090565b6000809054906101000a900473ffffffffffffffffffffffffffffffffffffffff1681565b6112da611b3f565b600073ffffffffffffffffffffffffffffffffffffffff166112fa61240e565b73ffffffffffffffffffffffffffffffffffffffff166332608039836040518263ffffffff1660e01b81526004018082815260200191505060206040518083038186803b15801561134a57600080fd5b505afa15801561135e573d6000803e3d6000fd5b505050506040513d602081101561137457600080fd5b810190808051906020019092919050505073ffffffffffffffffffffffffffffffffffffffff161461140e576040517f08c379a000000000000000000000000000000000000000000000000000000000815260040180806020018281038252600c8152602001807f53796e746820657869737473000000000000000000000000000000000000000081525060200191505060405180910390fd5b600560008281526020019081526020016000206000905550565b6000600760009054906101000a900460ff16905090565b600061144961243e565b905090565b606061149a838380806020026020016040519081016040528093929190818152602001838360200280828437600081840152601f19601f82011690508083019250505050505050612520565b905092915050565b6114aa6125c1565b606060006114b661267d565b73ffffffffffffffffffffffffffffffffffffffff1663c8e5bbd585856040518363ffffffff1660e01b815260040180806020018281038252848482818152602001925060200280828437600081840152601f19601f820116905080830192505050935050505060006040518083038186803b15801561153557600080fd5b505afa158015611549573d6000803e3d6000fd5b505050506040513d6000823e3d601f19601f82011682018060405250604081101561157357600080fd5b810190808051604051939291908464010000000082111561159357600080fd5b838201915060208201858111156115a957600080fd5b82518660208202830111640100000000821117156115c657600080fd5b8083526020830192505050908051906020019060200280838360005b838110156115fd5780820151818401526020810190506115e2565b505050509050016040526020018051906020019092919050505091509150611667848480806020026020016040519081016040528093929190818152602001838360200280828437600081840152601f19601f820116905080830192505050505050508383611cb0565b50505050565b6000600654905090565b61167f611a2e565b606060016040519080825280602002602001820160405280156116b15781602001602082028038833980820191505090505b50905082816000815181106116c257fe5b602002602001018181525050606060016040519080825280602002602001820160405280156117005781602001602082028038833980820191505090505b509050828160008151811061171157fe5b60200260200101818152505061172982826000611cb0565b50505050565b6117376125c1565b606061174161240e565b73ffffffffffffffffffffffffffffffffffffffff166372cb051f6040518163ffffffff1660e01b815260040160006040518083038186803b15801561178657600080fd5b505afa15801561179a573d6000803e3d6000fd5b505050506040513d6000823e3d601f19601f8201168201806040525060208110156117c457600080fd5b81019080805160405193929190846401000000008211156117e457600080fd5b838201915060208201858111156117fa57600080fd5b825186602082028301116401000000008211171561181757600080fd5b8083526020830192505050908051906020019060200280838360005b8381101561184e578082015181840152602081019050611833565b5050505090500160405250505090506060600061186a83611ee7565b9150915060006118786126ad565b73ffffffffffffffffffffffffffffffffffffffff1663ad79a8586040518163ffffffff1660e01b8152600401604080518083038186803b1580156118bc57600080fd5b505afa1580156118d0573d6000803e3d6000fd5b505050506040513d60408110156118e657600080fd5b8101908080519060200190929190805190602001909291905050505090506000835190506000805b8281101561197c57600086828151811061192457fe5b6020026020010151905061194181846126dd90919063ffffffff16565b925080600560008a858151811061195457fe5b602002602001015181526020019081526020016000208190555050808060010191505061190e565b50611990838261276590919063ffffffff16565b600481905550426006819055507f294a7c394e53042c7d754779562747d93b41db019dd4b970dd9b531db71be599816040518082815260200191505060405180910390a17fc481e742c89630d4b1a5ed3a0fc624c1c41ed463bd00ac26a7e93c71e932126f426040518082815260200191505060405180910390a1611a1484611ad8565b505050505050565b6000611a29600654611ec7565b905090565b611a3661240e565b73ffffffffffffffffffffffffffffffffffffffff163373ffffffffffffffffffffffffffffffffffffffff1614611ad6576040517f08c379a00000000000000000000000000000000000000000000000000000000081526004018080602001828103825260148152602001807f53656e646572206973206e6f742049737375657200000000000000000000000081525060200191505060405180910390fd5b565b801515600760009054906101000a900460ff16151514611b3c5780600760006101000a81548160ff0219169083151502179055508015157f8eebec690c34bbf0fe0d5b93e442beaf16bdaf99052569581de2dcb3e31a53a760405160405180910390a25b50565b6000809054906101000a900473ffffffffffffffffffffffffffffffffffffffff1673ffffffffffffffffffffffffffffffffffffffff163373ffffffffffffffffffffffffffffffffffffffff1614611be4576040517f08c379a000000000000000000000000000000000000000000000000000000000815260040180806020018281038252602f81526020018061316d602f913960400191505060405180910390fd5b565b611bee61240e565b73ffffffffffffffffffffffffffffffffffffffff163373ffffffffffffffffffffffffffffffffffffffff161480611c595750611c2a6127ee565b73ffffffffffffffffffffffffffffffffffffffff163373ffffffffffffffffffffffffffffffffffffffff16145b611cae576040517f08c379a000000000000000000000000000000000000000000000000000000000815260040180806020018281038252602181526020018061314c6021913960400191505060405180910390fd5b565b60008351905082518114611d2c576040517f08c379a000000000000000000000000000000000000000000000000000000000815260040180806020018281038252601a8152602001807f496e707574206172726179206c656e677468732064696666657200000000000081525060200191505060405180910390fd5b6000806060611d3b878761281e565b905060008090505b84811015611ddf576000888281518110611d5957fe5b602002602001015190506000838381518110611d7157fe5b60200260200101519050611da16005600084815260200190815260200160002054876126dd90919063ffffffff16565b9550611db681866126dd90919063ffffffff16565b945080600560008481526020019081526020016000208190555050508080600101915050611d43565b50818314611eae576000600454905080841115611e47576040517f08c379a00000000000000000000000000000000000000000000000000000000081526004018080602001828103825260238152602001806131bd6023913960400191505060405180910390fd5b611e6c83611e5e868461276590919063ffffffff16565b6126dd90919063ffffffff16565b9050806004819055507f294a7c394e53042c7d754779562747d93b41db019dd4b970dd9b531db71be599816040518082815260200191505060405180910390a1505b8415611ebe57611ebd85611ad8565b5b50505050505050565b6000814203611ed461243e565b1080611ee05750600082145b9050919050565b6060600060606000611ef761267d565b73ffffffffffffffffffffffffffffffffffffffff1663c8e5bbd5866040518263ffffffff1660e01b81526004018080602001828103825283818151815260200191508051906020019060200280838360005b83811015611f65578082015181840152602081019050611f4a565b505050509050019250505060006040518083038186803b158015611f8857600080fd5b505afa158015611f9c573d6000803e3d6000fd5b505050506040513d6000823e3d601f19601f820116820180604052506040811015611fc657600080fd5b8101908080516040519392919084640100000000821115611fe657600080fd5b83820191506020820185811115611ffc57600080fd5b825186602082028301116401000000008211171561201957600080fd5b8083526020830192505050908051906020019060200280838360005b83811015612050578082015181840152602081019050612035565b505050509050016040526020018051906020019092919050505091509150612078858361281e565b81935093505050915091565b600080606060006121b561209661240e565b73ffffffffffffffffffffffffffffffffffffffff166372cb051f6040518163ffffffff1660e01b815260040160006040518083038186803b1580156120db57600080fd5b505afa1580156120ef573d6000803e3d6000fd5b505050506040513d6000823e3d601f19601f82011682018060405250602081101561211957600080fd5b810190808051604051939291908464010000000082111561213957600080fd5b8382019150602082018581111561214f57600080fd5b825186602082028301116401000000008211171561216c57600080fd5b8083526020830192505050908051906020019060200280838360005b838110156121a3578082015181840152602081019050612188565b50505050905001604052505050611ee7565b915091506000825190506000805b82811015612200576121f18582815181106121da57fe5b6020026020010151836126dd90919063ffffffff16565b915080806001019150506121c3565b5060008061220c6126ad565b73ffffffffffffffffffffffffffffffffffffffff1663ad79a8586040518163ffffffff1660e01b8152600401604080518083038186803b15801561225057600080fd5b505afa158015612264573d6000803e3d6000fd5b505050506040513d604081101561227a57600080fd5b810190808051906020019092919080519060200190929190505050915091506122ac828461276590919063ffffffff16565b925084806122b75750805b94508285975097505050505050509091565b606060016040519080825280602002602001820160405280156122fb5781602001602082028038833980820191505090505b5090507f466c657869626c6553746f7261676500000000000000000000000000000000008160008151811061232c57fe5b60200260200101818152505090565b606081518351016040519080825280602002602001820160405280156123705781602001602082028038833980820191505090505b50905060008090505b83518110156123bb5783818151811061238e57fe5b60200260200101518282815181106123a257fe5b6020026020010181815250508080600101915050612379565b5060008090505b8251811015612407578281815181106123d757fe5b60200260200101518282865101815181106123ee57fe5b60200260200101818152505080806001019150506123c2565b5092915050565b60006124397f4973737565720000000000000000000000000000000000000000000000000000612df9565b905090565b6000612448612f5b565b73ffffffffffffffffffffffffffffffffffffffff166323257c2b7f53797374656d53657474696e67730000000000000000000000000000000000007f64656274536e617073686f745374616c6554696d6500000000000000000000006040518363ffffffff1660e01b8152600401808381526020018281526020019250505060206040518083038186803b1580156124e057600080fd5b505afa1580156124f4573d6000803e3d6000fd5b505050506040513d602081101561250a57600080fd5b8101908080519060200190929190505050905090565b60606000825190506060816040519080825280602002602001820160405280156125595781602001602082028038833980820191505090505b50905060008090505b828110156125b6576005600086838151811061257a57fe5b602002602001015181526020019081526020016000205482828151811061259d57fe5b6020026020010181815250508080600101915050612562565b508092505050919050565b6000809054906101000a900473ffffffffffffffffffffffffffffffffffffffff1673ffffffffffffffffffffffffffffffffffffffff163373ffffffffffffffffffffffffffffffffffffffff161461267b5761261d612f8b565b73ffffffffffffffffffffffffffffffffffffffff1663086dabd16040518163ffffffff1660e01b815260040160006040518083038186803b15801561266257600080fd5b505afa158015612676573d6000803e3d6000fd5b505050505b565b60006126a87f45786368616e6765526174657300000000000000000000000000000000000000612df9565b905090565b60006126d87f436f6c6c61746572616c4d616e61676572000000000000000000000000000000612df9565b905090565b60008082840190508381101561275b576040517f08c379a000000000000000000000000000000000000000000000000000000000815260040180806020018281038252601b8152602001807f536166654d6174683a206164646974696f6e206f766572666c6f77000000000081525060200191505060405180910390fd5b8091505092915050565b6000828211156127dd576040517f08c379a000000000000000000000000000000000000000000000000000000000815260040180806020018281038252601e8152602001807f536166654d6174683a207375627472616374696f6e206f766572666c6f77000081525060200191505060405180910390fd5b600082840390508091505092915050565b60006128197f45786368616e6765720000000000000000000000000000000000000000000000612df9565b905090565b60606000835190506060816040519080825280602002602001820160405280156128575781602001602082028038833980820191505090505b509050606061286461240e565b73ffffffffffffffffffffffffffffffffffffffff16633b6afe40876040518263ffffffff1660e01b81526004018080602001828103825283818151815260200191508051906020019060200280838360005b838110156128d25780820151818401526020810190506128b7565b505050509050019250505060006040518083038186803b1580156128f557600080fd5b505afa158015612909573d6000803e3d6000fd5b505050506040513d6000823e3d601f19601f82011682018060405250602081101561293357600080fd5b810190808051604051939291908464010000000082111561295357600080fd5b8382019150602082018581111561296957600080fd5b825186602082028301116401000000008211171561298657600080fd5b8083526020830192505050908051906020019060200280838360005b838110156129bd5780820151818401526020810190506129a2565b50505050905001604052505050905060008090505b83811015612dec5760008782815181106129e857fe5b602002602001015190506000838381518110612a0057fe5b60200260200101519050600073ffffffffffffffffffffffffffffffffffffffff168173ffffffffffffffffffffffffffffffffffffffff161415612aad576040517f08c379a00000000000000000000000000000000000000000000000000000000081526004018080602001828103825260148152602001807f53796e746820646f6573206e6f7420657869737400000000000000000000000081525060200191505060405180910390fd5b60008173ffffffffffffffffffffffffffffffffffffffff166318160ddd6040518163ffffffff1660e01b815260040160206040518083038186803b158015612af557600080fd5b505afa158015612b09573d6000803e3d6000fd5b505050506040513d6020811015612b1f57600080fd5b81019080805190602001909291905050509050612b3a6126ad565b73ffffffffffffffffffffffffffffffffffffffff16638471db13846040518263ffffffff1660e01b81526004018082815260200191505060206040518083038186803b158015612b8a57600080fd5b505afa158015612b9e573d6000803e3d6000fd5b505050506040513d6020811015612bb457600080fd5b810190808051906020019092919050505015612c8a576000612bd46126ad565b73ffffffffffffffffffffffffffffffffffffffff1663d2f00475856040518263ffffffff1660e01b81526004018082815260200191505060206040518083038186803b158015612c2457600080fd5b505afa158015612c38573d6000803e3d6000fd5b505050506040513d6020811015612c4e57600080fd5b8101908080519060200190929190505050905081811115612c725760009150612c88565b612c85818361276590919063ffffffff16565b91505b505b60007f7355534400000000000000000000000000000000000000000000000000000000841490508080612cdc57507f734554480000000000000000000000000000000000000000000000000000000084145b15612d9d57600081612cf557612cf0612fbb565b612cfe565b612cfd612feb565b5b905060008173ffffffffffffffffffffffffffffffffffffffff1663ee5f3f5c6040518163ffffffff1660e01b815260040160206040518083038186803b158015612d4857600080fd5b505afa158015612d5c573d6000803e3d6000fd5b505050506040513d6020811015612d7257600080fd5b81019080805190602001909291905050509050612d98818561276590919063ffffffff16565b935050505b612dc38a8681518110612dac57fe5b60200260200101518361301b90919063ffffffff16565b878681518110612dcf57fe5b6020026020010181815250505050505080806001019150506129d2565b5081935050505092915050565b6000806003600084815260200190815260200160002060009054906101000a900473ffffffffffffffffffffffffffffffffffffffff169050600073ffffffffffffffffffffffffffffffffffffffff168173ffffffffffffffffffffffffffffffffffffffff1614158360405160200180807f4d697373696e6720616464726573733a2000000000000000000000000000000081525060110182815260200191505060405160208183030381529060405290612f51576040517f08c379a00000000000000000000000000000000000000000000000000000000081526004018080602001828103825283818151815260200191508051906020019080838360005b83811015612f16578082015181840152602081019050612efb565b50505050905090810190601f168015612f435780820380516001836020036101000a031916815260200191505b509250505060405180910390fd5b5080915050919050565b6000612f867f466c657869626c6553746f726167650000000000000000000000000000000000612df9565b905090565b6000612fb67f53797374656d5374617475730000000000000000000000000000000000000000612df9565b905090565b6000612fe67f4574686572436f6c6c61746572616c0000000000000000000000000000000000612df9565b905090565b60006130167f4574686572436f6c6c61746572616c7355534400000000000000000000000000612df9565b905090565b600061302f8383601260ff16600a0a613037565b905092915050565b600080600a838161304457fe5b04613058858761309090919063ffffffff16565b8161305f57fe5b0490506005600a828161306e57fe5b061061307b57600a810190505b600a818161308557fe5b049150509392505050565b6000808314156130a35760009050613110565b60008284029050828482816130b457fe5b041461310b576040517f08c379a000000000000000000000000000000000000000000000000000000000815260040180806020018281038252602181526020018061319c6021913960400191505060405180910390fd5b809150505b9291505056fe596f75206d757374206265206e6f6d696e61746564206265666f726520796f752063616e20616363657074206f776e65727368697053656e646572206973206e6f7420497373756572206f722045786368616e6765724f6e6c792074686520636f6e7472616374206f776e6572206d617920706572666f726d207468697320616374696f6e536166654d6174683a206d756c7469706c69636174696f6e206f766572666c6f774361636865642073796e74682073756d206578636565647320746f74616c2064656274a265627a7a723158201393faf7fcdc797bdde39aedcbb5babd8e176b58263a917f0df67df93249959e64736f6c63430005100032",
  "linkReferences": {},
  "deployedLinkReferences": {}
}