{
  "contractName": "DHedgeTokenV2Example",
  "abi": [
    {
      "anonymous": false,
      "inputs": [
        {
          "indexed": true,
          "internalType": "address",
          "name": "owner",
          "type": "address"
        },
        {
          "indexed": true,
          "internalType": "address",
          "name": "spender",
          "type": "address"
        },
        {
          "indexed": false,
          "internalType": "uint256",
          "name": "value",
          "type": "uint256"
        }
      ],
      "name": "Approval",
      "type": "event"
    },
    {
      "anonymous": false,
      "inputs": [
        {
          "indexed": true,
          "internalType": "address",
          "name": "from",
          "type": "address"
        },
        {
          "indexed": true,
          "internalType": "address",
          "name": "to",
          "type": "address"
        },
        {
          "indexed": false,
          "internalType": "uint256",
          "name": "value",
          "type": "uint256"
        }
      ],
      "name": "Transfer",
      "type": "event"
    },
    {
      "inputs": [
        {
          "internalType": "address",
          "name": "initialAccount",
          "type": "address"
        }
      ],
      "name": "__DHedgeTokenV1_init",
      "outputs": [],
      "stateMutability": "nonpayable",
      "type": "function"
    },
    {
      "inputs": [
        {
          "internalType": "address",
          "name": "owner",
          "type": "address"
        },
        {
          "internalType": "address",
          "name": "spender",
          "type": "address"
        }
      ],
      "name": "allowance",
      "outputs": [
        {
          "internalType": "uint256",
          "name": "",
          "type": "uint256"
        }
      ],
      "stateMutability": "view",
      "type": "function"
    },
    {
      "inputs": [
        {
          "internalType": "address",
          "name": "spender",
          "type": "address"
        },
        {
          "internalType": "uint256",
          "name": "amount",
          "type": "uint256"
        }
      ],
      "name": "approve",
      "outputs": [
        {
          "internalType": "bool",
          "name": "",
          "type": "bool"
        }
      ],
      "stateMutability": "nonpayable",
      "type": "function"
    },
    {
      "inputs": [
        {
          "internalType": "address",
          "name": "account",
          "type": "address"
        }
      ],
      "name": "balanceOf",
      "outputs": [
        {
          "internalType": "uint256",
          "name": "",
          "type": "uint256"
        }
      ],
      "stateMutability": "view",
      "type": "function"
    },
    {
      "inputs": [
        {
          "internalType": "uint256",
          "name": "amount",
          "type": "uint256"
        }
      ],
      "name": "burn",
      "outputs": [],
      "stateMutability": "nonpayable",
      "type": "function"
    },
    {
      "inputs": [
        {
          "internalType": "address",
          "name": "account",
          "type": "address"
        },
        {
          "internalType": "uint256",
          "name": "amount",
          "type": "uint256"
        }
      ],
      "name": "burnFrom",
      "outputs": [],
      "stateMutability": "nonpayable",
      "type": "function"
    },
    {
      "inputs": [],
      "name": "decimals",
      "outputs": [
        {
          "internalType": "uint8",
          "name": "",
          "type": "uint8"
        }
      ],
      "stateMutability": "view",
      "type": "function"
    },
    {
      "inputs": [
        {
          "internalType": "address",
          "name": "spender",
          "type": "address"
        },
        {
          "internalType": "uint256",
          "name": "subtractedValue",
          "type": "uint256"
        }
      ],
      "name": "decreaseAllowance",
      "outputs": [
        {
          "internalType": "bool",
          "name": "",
          "type": "bool"
        }
      ],
      "stateMutability": "nonpayable",
      "type": "function"
    },
    {
      "inputs": [
        {
          "internalType": "address",
          "name": "spender",
          "type": "address"
        },
        {
          "internalType": "uint256",
          "name": "addedValue",
          "type": "uint256"
        }
      ],
      "name": "increaseAllowance",
      "outputs": [
        {
          "internalType": "bool",
          "name": "",
          "type": "bool"
        }
      ],
      "stateMutability": "nonpayable",
      "type": "function"
    },
    {
      "inputs": [],
      "name": "name",
      "outputs": [
        {
          "internalType": "string",
          "name": "",
          "type": "string"
        }
      ],
      "stateMutability": "view",
      "type": "function"
    },
    {
      "inputs": [],
      "name": "symbol",
      "outputs": [
        {
          "internalType": "string",
          "name": "",
          "type": "string"
        }
      ],
      "stateMutability": "view",
      "type": "function"
    },
    {
      "inputs": [],
      "name": "totalSupply",
      "outputs": [
        {
          "internalType": "uint256",
          "name": "",
          "type": "uint256"
        }
      ],
      "stateMutability": "view",
      "type": "function"
    },
    {
      "inputs": [
        {
          "internalType": "address",
          "name": "recipient",
          "type": "address"
        },
        {
          "internalType": "uint256",
          "name": "amount",
          "type": "uint256"
        }
      ],
      "name": "transfer",
      "outputs": [
        {
          "internalType": "bool",
          "name": "",
          "type": "bool"
        }
      ],
      "stateMutability": "nonpayable",
      "type": "function"
    },
    {
      "inputs": [
        {
          "internalType": "address",
          "name": "sender",
          "type": "address"
        },
        {
          "internalType": "address",
          "name": "recipient",
          "type": "address"
        },
        {
          "internalType": "uint256",
          "name": "amount",
          "type": "uint256"
        }
      ],
      "name": "transferFrom",
      "outputs": [
        {
          "internalType": "bool",
          "name": "",
          "type": "bool"
        }
      ],
      "stateMutability": "nonpayable",
      "type": "function"
    },
    {
      "inputs": [],
      "name": "version",
      "outputs": [
        {
          "internalType": "uint256",
          "name": "",
          "type": "uint256"
        }
      ],
      "stateMutability": "view",
      "type": "function"
    },
    {
      "inputs": [],
      "name": "__DHedgeTokenV2Example_init",
      "outputs": [],
      "stateMutability": "nonpayable",
      "type": "function"
    },
    {
      "inputs": [],
      "name": "brandNewFunction",
      "outputs": [
        {
          "internalType": "string",
          "name": "",
          "type": "string"
        }
      ],
      "stateMutability": "pure",
      "type": "function"
    },
    {
      "inputs": [],
      "name": "brandNewPayableFunction",
      "outputs": [],
      "stateMutability": "payable",
      "type": "function"
    },
    {
      "inputs": [],
      "name": "receivedEther",
      "outputs": [
        {
          "internalType": "uint256",
          "name": "",
          "type": "uint256"
        }
      ],
      "stateMutability": "view",
      "type": "function"
    }
  ],
  "bytecode": "0x608060405234801561001057600080fd5b506113de806100206000396000f3fe6080604052600436106101145760003560e01c806354fd4d50116100a0578063a9059cbb11610064578063a9059cbb146103f4578063b3de2ecb1461042d578063cd53e45514610442578063d6ce93f714610457578063dd62ed3e1461046c57610114565b806354fd4d501461032557806370a082311461033a57806379cc67901461036d57806395d89b41146103a6578063a457c2d7146103bb57610114565b806323b872dd116100e757806323b872dd14610221578063313ce5671461026457806331a2f0221461028f57806339509351146102c257806342966c68146102fb57610114565b806306fdde0314610119578063095ea7b3146101a35780631598cf1c146101f057806318160ddd146101fa575b600080fd5b34801561012557600080fd5b5061012e6104a7565b6040805160208082528351818301528351919283929083019185019080838360005b83811015610168578181015183820152602001610150565b50505050905090810190601f1680156101955780820380516001836020036101000a031916815260200191505b509250505060405180910390f35b3480156101af57600080fd5b506101dc600480360360408110156101c657600080fd5b506001600160a01b03813516906020013561053e565b604080519115158252519081900360200190f35b6101f861055b565b005b34801561020657600080fd5b5061020f610565565b60408051918252519081900360200190f35b34801561022d57600080fd5b506101dc6004803603606081101561024457600080fd5b506001600160a01b0381358116916020810135909116906040013561056b565b34801561027057600080fd5b506102796105f8565b6040805160ff9092168252519081900360200190f35b34801561029b57600080fd5b506101f8600480360360208110156102b257600080fd5b50356001600160a01b0316610601565b3480156102ce57600080fd5b506101dc600480360360408110156102e557600080fd5b506001600160a01b038135169060200135610716565b34801561030757600080fd5b506101f86004803603602081101561031e57600080fd5b503561076a565b34801561033157600080fd5b5061020f61077e565b34801561034657600080fd5b5061020f6004803603602081101561035d57600080fd5b50356001600160a01b0316610784565b34801561037957600080fd5b506101f86004803603604081101561039057600080fd5b506001600160a01b03813516906020013561079f565b3480156103b257600080fd5b5061012e6107ff565b3480156103c757600080fd5b506101dc600480360360408110156103de57600080fd5b506001600160a01b038135169060200135610860565b34801561040057600080fd5b506101dc6004803603604081101561041757600080fd5b506001600160a01b0381351690602001356108ce565b34801561043957600080fd5b506101f86108e2565b34801561044e57600080fd5b5061020f61092e565b34801561046357600080fd5b5061012e610934565b34801561047857600080fd5b5061020f6004803603604081101561048f57600080fd5b506001600160a01b0381358116916020013516610953565b60688054604080516020601f60026000196101006001881615020190951694909404938401819004810282018101909252828152606093909290918301828280156105335780601f1061050857610100808354040283529160200191610533565b820191906000526020600020905b81548152906001019060200180831161051657829003601f168201915b505050505090505b90565b600061055261054b61097e565b8484610982565b50600192915050565b60fd805434019055565b60675490565b6000610578848484610a6e565b6105ee8461058461097e565b6105e98560405180606001604052806028815260200161127a602891396001600160a01b038a166000908152606660205260408120906105c261097e565b6001600160a01b03168152602081019190915260400160002054919063ffffffff610bd716565b610982565b5060019392505050565b606a5460ff1690565b600054610100900460ff168061061a575061061a610c6e565b80610628575060005460ff16155b6106635760405162461bcd60e51b815260040180806020018281038252602e8152602001806112c8602e913960400191505060405180910390fd5b600054610100900460ff1615801561068e576000805460ff1961ff0019909116610100171660011790555b610696610c74565b6106e36040518060400160405280601081526020016f322432b233b2902220a7902a37b5b2b760811b8152506040518060400160405280600381526020016211121560ea1b815250610d15565b6106eb610c74565b610700826a52b7d2dcc80cd2e4000000610ded565b8015610712576000805461ff00191690555b5050565b600061055261072361097e565b846105e9856066600061073461097e565b6001600160a01b03908116825260208083019390935260409182016000908120918c16815292529020549063ffffffff610e9f16565b61077b61077561097e565b82610f00565b50565b60c95481565b6001600160a01b031660009081526065602052604090205490565b60006107dc826040518060600160405280602481526020016112f6602491396107cf866107ca61097e565b610953565b919063ffffffff610bd716565b90506107f0836107ea61097e565b83610982565b6107fa8383610f00565b505050565b60698054604080516020601f60026000196101006001881615020190951694909404938401819004810282018101909252828152606093909290918301828280156105335780601f1061050857610100808354040283529160200191610533565b600061055261086d61097e565b846105e985604051806060016040528060258152602001611384602591396066600061089761097e565b6001600160a01b03908116825260208083019390935260409182016000908120918d1681529252902054919063ffffffff610bd716565b60006105526108db61097e565b8484610a6e565b60fc5460ff16156109245760405162461bcd60e51b81526004018080602001828103825260268152602001806112a26026913960400191505060405180910390fd5b61092c611008565b565b60fd5490565b60408051808201909152600581526448656c6c6f60d81b602082015290565b6001600160a01b03918216600090815260666020908152604080832093909416825291909152205490565b3390565b6001600160a01b0383166109c75760405162461bcd60e51b81526004018080602001828103825260248152602001806113606024913960400191505060405180910390fd5b6001600160a01b038216610a0c5760405162461bcd60e51b81526004018080602001828103825260228152602001806112326022913960400191505060405180910390fd5b6001600160a01b03808416600081815260666020908152604080832094871680845294825291829020859055815185815291517f8c5be1e5ebec7d5bd14f71427d1e84f3dd0314c0f7b2291e5b200ac8c7c3b9259281900390910190a3505050565b6001600160a01b038316610ab35760405162461bcd60e51b815260040180806020018281038252602581526020018061133b6025913960400191505060405180910390fd5b6001600160a01b038216610af85760405162461bcd60e51b81526004018080602001828103825260238152602001806111ed6023913960400191505060405180910390fd5b610b038383836107fa565b610b4681604051806060016040528060268152602001611254602691396001600160a01b038616600090815260656020526040902054919063ffffffff610bd716565b6001600160a01b038085166000908152606560205260408082209390935590841681522054610b7b908263ffffffff610e9f16565b6001600160a01b0380841660008181526065602090815260409182902094909455805185815290519193928716927fddf252ad1be2c89b69c2b068fc378daa952ba7f163c4a11628f55a4df523b3ef92918290030190a3505050565b60008184841115610c665760405162461bcd60e51b81526004018080602001828103825283818151815260200191508051906020019080838360005b83811015610c2b578181015183820152602001610c13565b50505050905090810190601f168015610c585780820380516001836020036101000a031916815260200191505b509250505060405180910390fd5b505050900390565b303b1590565b600054610100900460ff1680610c8d5750610c8d610c6e565b80610c9b575060005460ff16155b610cd65760405162461bcd60e51b815260040180806020018281038252602e8152602001806112c8602e913960400191505060405180910390fd5b600054610100900460ff16158015610d01576000805460ff1961ff0019909116610100171660011790555b801561077b576000805461ff001916905550565b600054610100900460ff1680610d2e5750610d2e610c6e565b80610d3c575060005460ff16155b610d775760405162461bcd60e51b815260040180806020018281038252602e8152602001806112c8602e913960400191505060405180910390fd5b600054610100900460ff16158015610da2576000805460ff1961ff0019909116610100171660011790555b8251610db5906068906020860190611154565b508151610dc9906069906020850190611154565b50606a805460ff1916601217905580156107fa576000805461ff0019169055505050565b600054610100900460ff1680610e065750610e06610c6e565b80610e14575060005460ff16155b610e4f5760405162461bcd60e51b815260040180806020018281038252602e8152602001806112c8602e913960400191505060405180910390fd5b600054610100900460ff16158015610e7a576000805460ff1961ff0019909116610100171660011790555b600160c955610e898383611014565b80156107fa576000805461ff0019169055505050565b600082820183811015610ef9576040805162461bcd60e51b815260206004820152601b60248201527f536166654d6174683a206164646974696f6e206f766572666c6f770000000000604482015290519081900360640190fd5b9392505050565b6001600160a01b038216610f455760405162461bcd60e51b815260040180806020018281038252602181526020018061131a6021913960400191505060405180910390fd5b610f51826000836107fa565b610f9481604051806060016040528060228152602001611210602291396001600160a01b038516600090815260656020526040902054919063ffffffff610bd716565b6001600160a01b038316600090815260656020526040902055606754610fc0908263ffffffff61111216565b6067556040805182815290516000916001600160a01b038516917fddf252ad1be2c89b69c2b068fc378daa952ba7f163c4a11628f55a4df523b3ef9181900360200190a35050565b600260c955600060fd55565b6001600160a01b03821661106f576040805162461bcd60e51b815260206004820152601f60248201527f45524332303a206d696e7420746f20746865207a65726f206164647265737300604482015290519081900360640190fd5b61107b600083836107fa565b60675461108e908263ffffffff610e9f16565b6067556001600160a01b0382166000908152606560205260409020546110ba908263ffffffff610e9f16565b6001600160a01b03831660008181526065602090815260408083209490945583518581529351929391927fddf252ad1be2c89b69c2b068fc378daa952ba7f163c4a11628f55a4df523b3ef9281900390910190a35050565b6000610ef983836040518060400160405280601e81526020017f536166654d6174683a207375627472616374696f6e206f766572666c6f770000815250610bd7565b828054600181600116156101000203166002900490600052602060002090601f016020900481019282601f1061119557805160ff19168380011785556111c2565b828001600101855582156111c2579182015b828111156111c25782518255916020019190600101906111a7565b506111ce9291506111d2565b5090565b61053b91905b808211156111ce57600081556001016111d856fe45524332303a207472616e7366657220746f20746865207a65726f206164647265737345524332303a206275726e20616d6f756e7420657863656564732062616c616e636545524332303a20617070726f766520746f20746865207a65726f206164647265737345524332303a207472616e7366657220616d6f756e7420657863656564732062616c616e636545524332303a207472616e7366657220616d6f756e74206578636565647320616c6c6f77616e6365444865646765546f6b656e56324578616d706c653a20616c7265616479207570677261646564436f6e747261637420696e7374616e63652068617320616c7265616479206265656e20696e697469616c697a656445524332303a206275726e20616d6f756e74206578636565647320616c6c6f77616e636545524332303a206275726e2066726f6d20746865207a65726f206164647265737345524332303a207472616e736665722066726f6d20746865207a65726f206164647265737345524332303a20617070726f76652066726f6d20746865207a65726f206164647265737345524332303a2064656372656173656420616c6c6f77616e63652062656c6f77207a65726fa26469706673582212209a84a5595f54887b147ad7eae6b558f20131f5fd8b93e66c1808d139e3824ddc64736f6c63430006020033",
  "source": "pragma solidity ^0.6.0;\n\nimport \"./DHedgeTokenV1.sol\";\n\n// dHEDGE DAO - https://dhedge.org\n//\n// MIT License\n// ===========\n//\n// Copyright (c) 2020 dHEDGE DAO\n//\n// Permission is hereby granted, free of charge, to any person obtaining a copy\n// of this software and associated documentation files (the \"Software\"), to deal\n// in the Software without restriction, including without limitation the rights\n// to use, copy, modify, merge, publish, distribute, sublicense, and/or sell\n// copies of the Software, and to permit persons to whom the Software is\n// furnished to do so, subject to the following conditions:\n//\n// The above copyright notice and this permission notice shall be included in all\n// copies or substantial portions of the Software.\n//\n// THE SOFTWARE IS PROVIDED \"AS IS\", WITHOUT WARRANTY OF ANY KIND, EXPRESS OR\n// IMPLIED, INCLUDING BUT NOT LIMITED TO THE WARRANTIES OF MERCHANTABILITY,\n// FITNESS FOR A PARTICULAR PURPOSE AND NONINFRINGEMENT. IN NO EVENT SHALL THE\n// AUTHORS OR COPYRIGHT HOLDERS BE LIABLE FOR ANY CLAIM, DAMAGES OR OTHER\n// LIABILITY, WHETHER IN AN ACTION OF CONTRACT, TORT OR OTHERWISE, ARISING FROM,\n// OUT OF OR IN CONNECTION WITH THE SOFTWARE OR THE USE OR OTHER DEALINGS IN THE\n//\n\ncontract DHedgeTokenV2Example is DHedgeTokenV1 {\n    bool private _upgradedToV2;\n    uint256 internal _receivedEther;\n\n    function __DHedgeTokenV2Example_init() public {\n        require(!_upgradedToV2, \"DHedgeTokenV2Example: already upgraded\");\n        __DHedgeTokenV2Example_init_unchained();\n    }\n\n    function __DHedgeTokenV2Example_init_unchained() internal {\n        version = 2;\n        _receivedEther = 0;\n    }\n\n    function brandNewFunction() public pure returns (string memory) {\n        return \"Hello\";\n    }\n\n    //can receive ether\n    function brandNewPayableFunction() public payable {\n        _receivedEther += msg.value;\n    }\n\n    function receivedEther() public view returns (uint256) {\n        return _receivedEther;\n    }\n}\n",
  "sourcePath": "/Users/dennismacpro/Projects/Defi/Ethereum-Solidity-Collection/icarus-protocol/defi-seeder/.tmp/dhedge/dhedge-token-solidity/contracts/DHedgeTokenV2Example.sol",
  "compiler": {
    "name": "solc",
    "version": "0.6.2+commit.bacdbe57.Emscripten.clang"
  },
  "schemaVersion": "3.3.4",
  "updatedAt": "2021-04-01T19:21:51.825Z",
  "devdoc": {
    "methods": {
      "allowance(address,address)": {
        "details": "See {IERC20-allowance}."
      },
      "approve(address,uint256)": {
        "details": "See {IERC20-approve}.     * Requirements:     * - `spender` cannot be the zero address."
      },
      "balanceOf(address)": {
        "details": "See {IERC20-balanceOf}."
      },
      "burn(uint256)": {
        "details": "Destroys `amount` tokens from the caller.     * See {ERC20-_burn}."
      },
      "burnFrom(address,uint256)": {
        "details": "Destroys `amount` tokens from `account`, deducting from the caller's allowance.     * See {ERC20-_burn} and {ERC20-allowance}.     * Requirements:     * - the caller must have allowance for ``accounts``'s tokens of at least `amount`."
      },
      "decimals()": {
        "details": "Returns the number of decimals used to get its user representation. For example, if `decimals` equals `2`, a balance of `505` tokens should be displayed to a user as `5,05` (`505 / 10 ** 2`).     * Tokens usually opt for a value of 18, imitating the relationship between Ether and Wei. This is the value {ERC20} uses, unless {_setupDecimals} is called.     * NOTE: This information is only used for _display_ purposes: it in no way affects any of the arithmetic of the contract, including {IERC20-balanceOf} and {IERC20-transfer}."
      },
      "decreaseAllowance(address,uint256)": {
        "details": "Atomically decreases the allowance granted to `spender` by the caller.     * This is an alternative to {approve} that can be used as a mitigation for problems described in {IERC20-approve}.     * Emits an {Approval} event indicating the updated allowance.     * Requirements:     * - `spender` cannot be the zero address. - `spender` must have allowance for the caller of at least `subtractedValue`."
      },
      "increaseAllowance(address,uint256)": {
        "details": "Atomically increases the allowance granted to `spender` by the caller.     * This is an alternative to {approve} that can be used as a mitigation for problems described in {IERC20-approve}.     * Emits an {Approval} event indicating the updated allowance.     * Requirements:     * - `spender` cannot be the zero address."
      },
      "name()": {
        "details": "Returns the name of the token."
      },
      "symbol()": {
        "details": "Returns the symbol of the token, usually a shorter version of the name."
      },
      "totalSupply()": {
        "details": "See {IERC20-totalSupply}."
      },
      "transfer(address,uint256)": {
        "details": "See {IERC20-transfer}.     * Requirements:     * - `recipient` cannot be the zero address. - the caller must have a balance of at least `amount`."
      },
      "transferFrom(address,address,uint256)": {
        "details": "See {IERC20-transferFrom}.     * Emits an {Approval} event indicating the updated allowance. This is not required by the EIP. See the note at the beginning of {ERC20};     * Requirements: - `sender` and `recipient` cannot be the zero address. - `sender` must have a balance of at least `amount`. - the caller must have allowance for ``sender``'s tokens of at least `amount`."
      }
    }
  },
  "userdoc": {
    "methods": {}
  }
}