{
  "contractName": "DHedgeTokenV1",
  "abi": [
    {
      "anonymous": false,
      "inputs": [
        {
          "indexed": true,
          "internalType": "address",
          "name": "owner",
          "type": "address"
        },
        {
          "indexed": true,
          "internalType": "address",
          "name": "spender",
          "type": "address"
        },
        {
          "indexed": false,
          "internalType": "uint256",
          "name": "value",
          "type": "uint256"
        }
      ],
      "name": "Approval",
      "type": "event"
    },
    {
      "anonymous": false,
      "inputs": [
        {
          "indexed": true,
          "internalType": "address",
          "name": "from",
          "type": "address"
        },
        {
          "indexed": true,
          "internalType": "address",
          "name": "to",
          "type": "address"
        },
        {
          "indexed": false,
          "internalType": "uint256",
          "name": "value",
          "type": "uint256"
        }
      ],
      "name": "Transfer",
      "type": "event"
    },
    {
      "inputs": [
        {
          "internalType": "address",
          "name": "owner",
          "type": "address"
        },
        {
          "internalType": "address",
          "name": "spender",
          "type": "address"
        }
      ],
      "name": "allowance",
      "outputs": [
        {
          "internalType": "uint256",
          "name": "",
          "type": "uint256"
        }
      ],
      "stateMutability": "view",
      "type": "function"
    },
    {
      "inputs": [
        {
          "internalType": "address",
          "name": "spender",
          "type": "address"
        },
        {
          "internalType": "uint256",
          "name": "amount",
          "type": "uint256"
        }
      ],
      "name": "approve",
      "outputs": [
        {
          "internalType": "bool",
          "name": "",
          "type": "bool"
        }
      ],
      "stateMutability": "nonpayable",
      "type": "function"
    },
    {
      "inputs": [
        {
          "internalType": "address",
          "name": "account",
          "type": "address"
        }
      ],
      "name": "balanceOf",
      "outputs": [
        {
          "internalType": "uint256",
          "name": "",
          "type": "uint256"
        }
      ],
      "stateMutability": "view",
      "type": "function"
    },
    {
      "inputs": [
        {
          "internalType": "uint256",
          "name": "amount",
          "type": "uint256"
        }
      ],
      "name": "burn",
      "outputs": [],
      "stateMutability": "nonpayable",
      "type": "function"
    },
    {
      "inputs": [
        {
          "internalType": "address",
          "name": "account",
          "type": "address"
        },
        {
          "internalType": "uint256",
          "name": "amount",
          "type": "uint256"
        }
      ],
      "name": "burnFrom",
      "outputs": [],
      "stateMutability": "nonpayable",
      "type": "function"
    },
    {
      "inputs": [],
      "name": "decimals",
      "outputs": [
        {
          "internalType": "uint8",
          "name": "",
          "type": "uint8"
        }
      ],
      "stateMutability": "view",
      "type": "function"
    },
    {
      "inputs": [
        {
          "internalType": "address",
          "name": "spender",
          "type": "address"
        },
        {
          "internalType": "uint256",
          "name": "subtractedValue",
          "type": "uint256"
        }
      ],
      "name": "decreaseAllowance",
      "outputs": [
        {
          "internalType": "bool",
          "name": "",
          "type": "bool"
        }
      ],
      "stateMutability": "nonpayable",
      "type": "function"
    },
    {
      "inputs": [
        {
          "internalType": "address",
          "name": "spender",
          "type": "address"
        },
        {
          "internalType": "uint256",
          "name": "addedValue",
          "type": "uint256"
        }
      ],
      "name": "increaseAllowance",
      "outputs": [
        {
          "internalType": "bool",
          "name": "",
          "type": "bool"
        }
      ],
      "stateMutability": "nonpayable",
      "type": "function"
    },
    {
      "inputs": [],
      "name": "name",
      "outputs": [
        {
          "internalType": "string",
          "name": "",
          "type": "string"
        }
      ],
      "stateMutability": "view",
      "type": "function"
    },
    {
      "inputs": [],
      "name": "symbol",
      "outputs": [
        {
          "internalType": "string",
          "name": "",
          "type": "string"
        }
      ],
      "stateMutability": "view",
      "type": "function"
    },
    {
      "inputs": [],
      "name": "totalSupply",
      "outputs": [
        {
          "internalType": "uint256",
          "name": "",
          "type": "uint256"
        }
      ],
      "stateMutability": "view",
      "type": "function"
    },
    {
      "inputs": [
        {
          "internalType": "address",
          "name": "recipient",
          "type": "address"
        },
        {
          "internalType": "uint256",
          "name": "amount",
          "type": "uint256"
        }
      ],
      "name": "transfer",
      "outputs": [
        {
          "internalType": "bool",
          "name": "",
          "type": "bool"
        }
      ],
      "stateMutability": "nonpayable",
      "type": "function"
    },
    {
      "inputs": [
        {
          "internalType": "address",
          "name": "sender",
          "type": "address"
        },
        {
          "internalType": "address",
          "name": "recipient",
          "type": "address"
        },
        {
          "internalType": "uint256",
          "name": "amount",
          "type": "uint256"
        }
      ],
      "name": "transferFrom",
      "outputs": [
        {
          "internalType": "bool",
          "name": "",
          "type": "bool"
        }
      ],
      "stateMutability": "nonpayable",
      "type": "function"
    },
    {
      "inputs": [],
      "name": "version",
      "outputs": [
        {
          "internalType": "uint256",
          "name": "",
          "type": "uint256"
        }
      ],
      "stateMutability": "view",
      "type": "function"
    },
    {
      "inputs": [
        {
          "internalType": "address",
          "name": "initialAccount",
          "type": "address"
        }
      ],
      "name": "__DHedgeTokenV1_init",
      "outputs": [],
      "stateMutability": "nonpayable",
      "type": "function"
    }
  ],
  "bytecode": "0x608060405234801561001057600080fd5b50611208806100206000396000f3fe608060405234801561001057600080fd5b50600436106100f55760003560e01c806342966c681161009757806395d89b411161006657806395d89b41146102f0578063a457c2d7146102f8578063a9059cbb14610324578063dd62ed3e14610350576100f5565b806342966c681461027957806354fd4d501461029657806370a082311461029e57806379cc6790146102c4576100f5565b806323b872dd116100d357806323b872dd146101d1578063313ce5671461020757806331a2f02214610225578063395093511461024d576100f5565b806306fdde03146100fa578063095ea7b31461017757806318160ddd146101b7575b600080fd5b61010261037e565b6040805160208082528351818301528351919283929083019185019080838360005b8381101561013c578181015183820152602001610124565b50505050905090810190601f1680156101695780820380516001836020036101000a031916815260200191505b509250505060405180910390f35b6101a36004803603604081101561018d57600080fd5b506001600160a01b038135169060200135610415565b604080519115158252519081900360200190f35b6101bf610432565b60408051918252519081900360200190f35b6101a3600480360360608110156101e757600080fd5b506001600160a01b03813581169160208101359091169060400135610438565b61020f6104c5565b6040805160ff9092168252519081900360200190f35b61024b6004803603602081101561023b57600080fd5b50356001600160a01b03166104ce565b005b6101a36004803603604081101561026357600080fd5b506001600160a01b0381351690602001356105e3565b61024b6004803603602081101561028f57600080fd5b5035610637565b6101bf61064b565b6101bf600480360360208110156102b457600080fd5b50356001600160a01b0316610651565b61024b600480360360408110156102da57600080fd5b506001600160a01b03813516906020013561066c565b6101026106cc565b6101a36004803603604081101561030e57600080fd5b506001600160a01b03813516906020013561072d565b6101a36004803603604081101561033a57600080fd5b506001600160a01b03813516906020013561079b565b6101bf6004803603604081101561036657600080fd5b506001600160a01b03813581169160200135166107af565b60688054604080516020601f600260001961010060018816150201909516949094049384018190048102820181019092528281526060939092909183018282801561040a5780601f106103df5761010080835404028352916020019161040a565b820191906000526020600020905b8154815290600101906020018083116103ed57829003601f168201915b505050505090505b90565b60006104296104226107da565b84846107de565b50600192915050565b60675490565b60006104458484846108ca565b6104bb846104516107da565b6104b6856040518060600160405280602881526020016110ca602891396001600160a01b038a1660009081526066602052604081209061048f6107da565b6001600160a01b03168152602081019190915260400160002054919063ffffffff610a3316565b6107de565b5060019392505050565b606a5460ff1690565b600054610100900460ff16806104e757506104e7610aca565b806104f5575060005460ff16155b6105305760405162461bcd60e51b815260040180806020018281038252602e8152602001806110f2602e913960400191505060405180910390fd5b600054610100900460ff1615801561055b576000805460ff1961ff0019909116610100171660011790555b610563610ad0565b6105b06040518060400160405280601081526020016f322432b233b2902220a7902a37b5b2b760811b8152506040518060400160405280600381526020016211121560ea1b815250610b71565b6105b8610ad0565b6105cd826a52b7d2dcc80cd2e4000000610c49565b80156105df576000805461ff00191690555b5050565b60006104296105f06107da565b846104b685606660006106016107da565b6001600160a01b03908116825260208083019390935260409182016000908120918c16815292529020549063ffffffff610cfb16565b6106486106426107da565b82610d5c565b50565b60c95481565b6001600160a01b031660009081526065602052604090205490565b60006106a9826040518060600160405280602481526020016111206024913961069c866106976107da565b6107af565b919063ffffffff610a3316565b90506106bd836106b76107da565b836107de565b6106c78383610d5c565b505050565b60698054604080516020601f600260001961010060018816150201909516949094049384018190048102820181019092528281526060939092909183018282801561040a5780601f106103df5761010080835404028352916020019161040a565b600061042961073a6107da565b846104b6856040518060600160405280602581526020016111ae60259139606660006107646107da565b6001600160a01b03908116825260208083019390935260409182016000908120918d1681529252902054919063ffffffff610a3316565b60006104296107a86107da565b84846108ca565b6001600160a01b03918216600090815260666020908152604080832093909416825291909152205490565b3390565b6001600160a01b0383166108235760405162461bcd60e51b815260040180806020018281038252602481526020018061118a6024913960400191505060405180910390fd5b6001600160a01b0382166108685760405162461bcd60e51b81526004018080602001828103825260228152602001806110826022913960400191505060405180910390fd5b6001600160a01b03808416600081815260666020908152604080832094871680845294825291829020859055815185815291517f8c5be1e5ebec7d5bd14f71427d1e84f3dd0314c0f7b2291e5b200ac8c7c3b9259281900390910190a3505050565b6001600160a01b03831661090f5760405162461bcd60e51b81526004018080602001828103825260258152602001806111656025913960400191505060405180910390fd5b6001600160a01b0382166109545760405162461bcd60e51b815260040180806020018281038252602381526020018061103d6023913960400191505060405180910390fd5b61095f8383836106c7565b6109a2816040518060600160405280602681526020016110a4602691396001600160a01b038616600090815260656020526040902054919063ffffffff610a3316565b6001600160a01b0380851660009081526065602052604080822093909355908416815220546109d7908263ffffffff610cfb16565b6001600160a01b0380841660008181526065602090815260409182902094909455805185815290519193928716927fddf252ad1be2c89b69c2b068fc378daa952ba7f163c4a11628f55a4df523b3ef92918290030190a3505050565b60008184841115610ac25760405162461bcd60e51b81526004018080602001828103825283818151815260200191508051906020019080838360005b83811015610a87578181015183820152602001610a6f565b50505050905090810190601f168015610ab45780820380516001836020036101000a031916815260200191505b509250505060405180910390fd5b505050900390565b303b1590565b600054610100900460ff1680610ae95750610ae9610aca565b80610af7575060005460ff16155b610b325760405162461bcd60e51b815260040180806020018281038252602e8152602001806110f2602e913960400191505060405180910390fd5b600054610100900460ff16158015610b5d576000805460ff1961ff0019909116610100171660011790555b8015610648576000805461ff001916905550565b600054610100900460ff1680610b8a5750610b8a610aca565b80610b98575060005460ff16155b610bd35760405162461bcd60e51b815260040180806020018281038252602e8152602001806110f2602e913960400191505060405180910390fd5b600054610100900460ff16158015610bfe576000805460ff1961ff0019909116610100171660011790555b8251610c11906068906020860190610fa4565b508151610c25906069906020850190610fa4565b50606a805460ff1916601217905580156106c7576000805461ff0019169055505050565b600054610100900460ff1680610c625750610c62610aca565b80610c70575060005460ff16155b610cab5760405162461bcd60e51b815260040180806020018281038252602e8152602001806110f2602e913960400191505060405180910390fd5b600054610100900460ff16158015610cd6576000805460ff1961ff0019909116610100171660011790555b600160c955610ce58383610e64565b80156106c7576000805461ff0019169055505050565b600082820183811015610d55576040805162461bcd60e51b815260206004820152601b60248201527f536166654d6174683a206164646974696f6e206f766572666c6f770000000000604482015290519081900360640190fd5b9392505050565b6001600160a01b038216610da15760405162461bcd60e51b81526004018080602001828103825260218152602001806111446021913960400191505060405180910390fd5b610dad826000836106c7565b610df081604051806060016040528060228152602001611060602291396001600160a01b038516600090815260656020526040902054919063ffffffff610a3316565b6001600160a01b038316600090815260656020526040902055606754610e1c908263ffffffff610f6216565b6067556040805182815290516000916001600160a01b038516917fddf252ad1be2c89b69c2b068fc378daa952ba7f163c4a11628f55a4df523b3ef9181900360200190a35050565b6001600160a01b038216610ebf576040805162461bcd60e51b815260206004820152601f60248201527f45524332303a206d696e7420746f20746865207a65726f206164647265737300604482015290519081900360640190fd5b610ecb600083836106c7565b606754610ede908263ffffffff610cfb16565b6067556001600160a01b038216600090815260656020526040902054610f0a908263ffffffff610cfb16565b6001600160a01b03831660008181526065602090815260408083209490945583518581529351929391927fddf252ad1be2c89b69c2b068fc378daa952ba7f163c4a11628f55a4df523b3ef9281900390910190a35050565b6000610d5583836040518060400160405280601e81526020017f536166654d6174683a207375627472616374696f6e206f766572666c6f770000815250610a33565b828054600181600116156101000203166002900490600052602060002090601f016020900481019282601f10610fe557805160ff1916838001178555611012565b82800160010185558215611012579182015b82811115611012578251825591602001919060010190610ff7565b5061101e929150611022565b5090565b61041291905b8082111561101e576000815560010161102856fe45524332303a207472616e7366657220746f20746865207a65726f206164647265737345524332303a206275726e20616d6f756e7420657863656564732062616c616e636545524332303a20617070726f766520746f20746865207a65726f206164647265737345524332303a207472616e7366657220616d6f756e7420657863656564732062616c616e636545524332303a207472616e7366657220616d6f756e74206578636565647320616c6c6f77616e6365436f6e747261637420696e7374616e63652068617320616c7265616479206265656e20696e697469616c697a656445524332303a206275726e20616d6f756e74206578636565647320616c6c6f77616e636545524332303a206275726e2066726f6d20746865207a65726f206164647265737345524332303a207472616e736665722066726f6d20746865207a65726f206164647265737345524332303a20617070726f76652066726f6d20746865207a65726f206164647265737345524332303a2064656372656173656420616c6c6f77616e63652062656c6f77207a65726fa2646970667358221220d3533d24b209e18bcd104ed9eb4528bb0ae4e1de12653129e7a2208795a0b9ec64736f6c63430006020033",
  "source": "pragma solidity ^0.6.0;\n\nimport \"@openzeppelin/contracts-ethereum-package/contracts/token/ERC20/ERC20Burnable.sol\";\nimport \"@openzeppelin/contracts-ethereum-package/contracts/Initializable.sol\";\n\n// dHEDGE DAO - https://dhedge.org\n//\n// MIT License\n// ===========\n//\n// Copyright (c) 2020 dHEDGE DAO\n//\n// Permission is hereby granted, free of charge, to any person obtaining a copy\n// of this software and associated documentation files (the \"Software\"), to deal\n// in the Software without restriction, including without limitation the rights\n// to use, copy, modify, merge, publish, distribute, sublicense, and/or sell\n// copies of the Software, and to permit persons to whom the Software is\n// furnished to do so, subject to the following conditions:\n//\n// The above copyright notice and this permission notice shall be included in all\n// copies or substantial portions of the Software.\n//\n// THE SOFTWARE IS PROVIDED \"AS IS\", WITHOUT WARRANTY OF ANY KIND, EXPRESS OR\n// IMPLIED, INCLUDING BUT NOT LIMITED TO THE WARRANTIES OF MERCHANTABILITY,\n// FITNESS FOR A PARTICULAR PURPOSE AND NONINFRINGEMENT. IN NO EVENT SHALL THE\n// AUTHORS OR COPYRIGHT HOLDERS BE LIABLE FOR ANY CLAIM, DAMAGES OR OTHER\n// LIABILITY, WHETHER IN AN ACTION OF CONTRACT, TORT OR OTHERWISE, ARISING FROM,\n// OUT OF OR IN CONNECTION WITH THE SOFTWARE OR THE USE OR OTHER DEALINGS IN THE\n//\n// ---------------------------------------------------------------------\n// dHedge DAO ERC20 Token\n//\n// Symbol         : DHT\n// Name           : dHedge DAO Token\n// Decimals       : 18\n// Total supply   : 100,000,000\n// Version        : 1\n//\n// Notes          : This token is upgradable using CALLDELEGATE pattern (courtesy of https://openzeppelin.org/).\n//                  It should NOT be accessed directly but through the proxy contract address using this contract's ABI.\n// ---------------------------------------------------------------------\n\ncontract DHedgeTokenV1 is Initializable, ERC20BurnableUpgradeSafe {\n    uint256 public version;\n\n    function __DHedgeTokenV1_init(address initialAccount) public initializer {\n        __Context_init_unchained();\n        __ERC20_init_unchained(\"dHedge DAO Token\", \"DHT\");\n        __ERC20Burnable_init_unchained();\n        __DHedgeTokenV1_init_unchained(initialAccount, 100000000 * (10**18));\n    }\n\n    function __DHedgeTokenV1_init_unchained(\n        address initialAccount,\n        uint256 initialBalance\n    ) internal initializer {\n        version = 1;\n\n        _mint(initialAccount, initialBalance);\n    }\n\n    uint256[50] private __gap;\n}\n",
  "sourcePath": "/Users/dennismacpro/Projects/Defi/Ethereum-Solidity-Collection/icarus-protocol/defi-seeder/.tmp/dhedge/dhedge-token-solidity/contracts/DHedgeTokenV1.sol",
  "compiler": {
    "name": "solc",
    "version": "0.6.2+commit.bacdbe57.Emscripten.clang"
  },
  "schemaVersion": "3.3.4",
  "updatedAt": "2021-04-01T19:21:51.824Z",
  "devdoc": {
    "methods": {
      "allowance(address,address)": {
        "details": "See {IERC20-allowance}."
      },
      "approve(address,uint256)": {
        "details": "See {IERC20-approve}.     * Requirements:     * - `spender` cannot be the zero address."
      },
      "balanceOf(address)": {
        "details": "See {IERC20-balanceOf}."
      },
      "burn(uint256)": {
        "details": "Destroys `amount` tokens from the caller.     * See {ERC20-_burn}."
      },
      "burnFrom(address,uint256)": {
        "details": "Destroys `amount` tokens from `account`, deducting from the caller's allowance.     * See {ERC20-_burn} and {ERC20-allowance}.     * Requirements:     * - the caller must have allowance for ``accounts``'s tokens of at least `amount`."
      },
      "decimals()": {
        "details": "Returns the number of decimals used to get its user representation. For example, if `decimals` equals `2`, a balance of `505` tokens should be displayed to a user as `5,05` (`505 / 10 ** 2`).     * Tokens usually opt for a value of 18, imitating the relationship between Ether and Wei. This is the value {ERC20} uses, unless {_setupDecimals} is called.     * NOTE: This information is only used for _display_ purposes: it in no way affects any of the arithmetic of the contract, including {IERC20-balanceOf} and {IERC20-transfer}."
      },
      "decreaseAllowance(address,uint256)": {
        "details": "Atomically decreases the allowance granted to `spender` by the caller.     * This is an alternative to {approve} that can be used as a mitigation for problems described in {IERC20-approve}.     * Emits an {Approval} event indicating the updated allowance.     * Requirements:     * - `spender` cannot be the zero address. - `spender` must have allowance for the caller of at least `subtractedValue`."
      },
      "increaseAllowance(address,uint256)": {
        "details": "Atomically increases the allowance granted to `spender` by the caller.     * This is an alternative to {approve} that can be used as a mitigation for problems described in {IERC20-approve}.     * Emits an {Approval} event indicating the updated allowance.     * Requirements:     * - `spender` cannot be the zero address."
      },
      "name()": {
        "details": "Returns the name of the token."
      },
      "symbol()": {
        "details": "Returns the symbol of the token, usually a shorter version of the name."
      },
      "totalSupply()": {
        "details": "See {IERC20-totalSupply}."
      },
      "transfer(address,uint256)": {
        "details": "See {IERC20-transfer}.     * Requirements:     * - `recipient` cannot be the zero address. - the caller must have a balance of at least `amount`."
      },
      "transferFrom(address,address,uint256)": {
        "details": "See {IERC20-transferFrom}.     * Emits an {Approval} event indicating the updated allowance. This is not required by the EIP. See the note at the beginning of {ERC20};     * Requirements: - `sender` and `recipient` cannot be the zero address. - `sender` must have a balance of at least `amount`. - the caller must have allowance for ``sender``'s tokens of at least `amount`."
      }
    }
  },
  "userdoc": {
    "methods": {}
  }
}