{
	"schemaVersion": "2.0.0",
	"contractName": "LinkToken",
	"compilerOutput": {
		"abi": [
			{
				"constant": true,
				"inputs": [],
				"name": "name",
				"outputs": [
					{
						"name": "",
						"type": "string"
					}
				],
				"payable": false,
				"stateMutability": "view",
				"type": "function"
			},
			{
				"constant": false,
				"inputs": [
					{
						"name": "_spender",
						"type": "address"
					},
					{
						"name": "_value",
						"type": "uint256"
					}
				],
				"name": "approve",
				"outputs": [
					{
						"name": "",
						"type": "bool"
					}
				],
				"payable": false,
				"stateMutability": "nonpayable",
				"type": "function"
			},
			{
				"constant": true,
				"inputs": [],
				"name": "totalSupply",
				"outputs": [
					{
						"name": "",
						"type": "uint256"
					}
				],
				"payable": false,
				"stateMutability": "view",
				"type": "function"
			},
			{
				"constant": false,
				"inputs": [
					{
						"name": "_from",
						"type": "address"
					},
					{
						"name": "_to",
						"type": "address"
					},
					{
						"name": "_value",
						"type": "uint256"
					}
				],
				"name": "transferFrom",
				"outputs": [
					{
						"name": "",
						"type": "bool"
					}
				],
				"payable": false,
				"stateMutability": "nonpayable",
				"type": "function"
			},
			{
				"constant": true,
				"inputs": [],
				"name": "decimals",
				"outputs": [
					{
						"name": "",
						"type": "uint8"
					}
				],
				"payable": false,
				"stateMutability": "view",
				"type": "function"
			},
			{
				"constant": false,
				"inputs": [
					{
						"name": "_to",
						"type": "address"
					},
					{
						"name": "_value",
						"type": "uint256"
					},
					{
						"name": "_data",
						"type": "bytes"
					}
				],
				"name": "transferAndCall",
				"outputs": [
					{
						"name": "success",
						"type": "bool"
					}
				],
				"payable": false,
				"stateMutability": "nonpayable",
				"type": "function"
			},
			{
				"constant": false,
				"inputs": [
					{
						"name": "_spender",
						"type": "address"
					},
					{
						"name": "_subtractedValue",
						"type": "uint256"
					}
				],
				"name": "decreaseApproval",
				"outputs": [
					{
						"name": "success",
						"type": "bool"
					}
				],
				"payable": false,
				"stateMutability": "nonpayable",
				"type": "function"
			},
			{
				"constant": true,
				"inputs": [
					{
						"name": "_owner",
						"type": "address"
					}
				],
				"name": "balanceOf",
				"outputs": [
					{
						"name": "balance",
						"type": "uint256"
					}
				],
				"payable": false,
				"stateMutability": "view",
				"type": "function"
			},
			{
				"constant": true,
				"inputs": [],
				"name": "symbol",
				"outputs": [
					{
						"name": "",
						"type": "string"
					}
				],
				"payable": false,
				"stateMutability": "view",
				"type": "function"
			},
			{
				"constant": false,
				"inputs": [
					{
						"name": "_to",
						"type": "address"
					},
					{
						"name": "_value",
						"type": "uint256"
					}
				],
				"name": "transfer",
				"outputs": [
					{
						"name": "success",
						"type": "bool"
					}
				],
				"payable": false,
				"stateMutability": "nonpayable",
				"type": "function"
			},
			{
				"constant": false,
				"inputs": [
					{
						"name": "_spender",
						"type": "address"
					},
					{
						"name": "_addedValue",
						"type": "uint256"
					}
				],
				"name": "increaseApproval",
				"outputs": [
					{
						"name": "success",
						"type": "bool"
					}
				],
				"payable": false,
				"stateMutability": "nonpayable",
				"type": "function"
			},
			{
				"constant": true,
				"inputs": [
					{
						"name": "_owner",
						"type": "address"
					},
					{
						"name": "_spender",
						"type": "address"
					}
				],
				"name": "allowance",
				"outputs": [
					{
						"name": "remaining",
						"type": "uint256"
					}
				],
				"payable": false,
				"stateMutability": "view",
				"type": "function"
			},
			{
				"inputs": [],
				"payable": false,
				"stateMutability": "nonpayable",
				"type": "constructor"
			},
			{
				"anonymous": false,
				"inputs": [
					{
						"indexed": true,
						"name": "from",
						"type": "address"
					},
					{
						"indexed": true,
						"name": "to",
						"type": "address"
					},
					{
						"indexed": false,
						"name": "value",
						"type": "uint256"
					},
					{
						"indexed": false,
						"name": "data",
						"type": "bytes"
					}
				],
				"name": "Transfer",
				"type": "event"
			},
			{
				"anonymous": false,
				"inputs": [
					{
						"indexed": true,
						"name": "owner",
						"type": "address"
					},
					{
						"indexed": true,
						"name": "spender",
						"type": "address"
					},
					{
						"indexed": false,
						"name": "value",
						"type": "uint256"
					}
				],
				"name": "Approval",
				"type": "event"
			}
		],
		"devdoc": {
			"methods": {
				"allowance(address,address)": {
					"details": "Function to check the amount of tokens that an owner allowed to a spender.",
					"params": {
						"_owner": "address The address which owns the funds.",
						"_spender": "address The address which will spend the funds."
					},
					"return": "A uint256 specifying the amount of tokens still available for the spender."
				},
				"approve(address,uint256)": {
					"details": "Approve the passed address to spend the specified amount of tokens on behalf of msg.sender.",
					"params": {
						"_spender": "The address which will spend the funds.",
						"_value": "The amount of tokens to be spent."
					}
				},
				"balanceOf(address)": {
					"details": "Gets the balance of the specified address.",
					"params": {
						"_owner": "The address to query the the balance of. "
					},
					"return": "An uint256 representing the amount owned by the passed address."
				},
				"transfer(address,uint256)": {
					"details": "transfer token to a specified address.",
					"params": {
						"_to": "The address to transfer to.",
						"_value": "The amount to be transferred."
					}
				},
				"transferAndCall(address,uint256,bytes)": {
					"details": "transfer token to a specified address with additional data if the recipient is a contract.",
					"params": {
						"_data": "The extra data to be passed to the receiving contract.",
						"_to": "The address to transfer to.",
						"_value": "The amount to be transferred."
					}
				},
				"transferFrom(address,address,uint256)": {
					"details": "Transfer tokens from one address to another",
					"params": {
						"_from": "address The address which you want to send tokens from",
						"_to": "address The address which you want to transfer to",
						"_value": "uint256 the amount of tokens to be transferred"
					}
				}
			}
		},
		"evm": {
			"assembly": "    /* \"/Users/dennismacpro/Projects/Defi/Ethereum-Solidity-Collection/icarus-protocol/defi-seeder/.tmp/chain-link/LinkToken/contracts/v0.4/LinkToken.sol\":97:2181  contract LinkToken is linkStandardToken, ERC677Token {... */\n  mstore(0x40, 0x60)\n    /* \"/Users/dennismacpro/Projects/Defi/Ethereum-Solidity-Collection/icarus-protocol/defi-seeder/.tmp/chain-link/LinkToken/contracts/v0.4/LinkToken.sol\":333:412  function LinkToken()... */\n  jumpi(tag_1, iszero(callvalue))\n  0x0\n  dup1\n  revert\ntag_1:\ntag_2:\n  sub(exp(0x2, 0xa0), 0x1)\n    /* \"/Users/dennismacpro/Projects/Defi/Ethereum-Solidity-Collection/icarus-protocol/defi-seeder/.tmp/chain-link/LinkToken/contracts/v0.4/LinkToken.sol\":382:392  msg.sender */\n  caller\n    /* \"/Users/dennismacpro/Projects/Defi/Ethereum-Solidity-Collection/icarus-protocol/defi-seeder/.tmp/chain-link/LinkToken/contracts/v0.4/LinkToken.sol\":373:393  balances[msg.sender] */\n  and\n  0x0\n  swap1\n  dup2\n  mstore\n    /* \"/Users/dennismacpro/Projects/Defi/Ethereum-Solidity-Collection/icarus-protocol/defi-seeder/.tmp/chain-link/LinkToken/contracts/v0.4/LinkToken.sol\":373:381  balances */\n  0x1\n    /* \"/Users/dennismacpro/Projects/Defi/Ethereum-Solidity-Collection/icarus-protocol/defi-seeder/.tmp/chain-link/LinkToken/contracts/v0.4/LinkToken.sol\":373:393  balances[msg.sender] */\n  0x20\n  mstore\n  0x40\n  swap1\n  keccak256\n    /* \"/Users/dennismacpro/Projects/Defi/Ethereum-Solidity-Collection/icarus-protocol/defi-seeder/.tmp/chain-link/LinkToken/contracts/v0.4/LinkToken.sol\":190:196  10**27 */\n  0x33b2e3c9fd0803ce8000000\n    /* \"/Users/dennismacpro/Projects/Defi/Ethereum-Solidity-Collection/icarus-protocol/defi-seeder/.tmp/chain-link/LinkToken/contracts/v0.4/LinkToken.sol\":373:407  balances[msg.sender] = totalSupply */\n  swap1\n  sstore\n    /* \"/Users/dennismacpro/Projects/Defi/Ethereum-Solidity-Collection/icarus-protocol/defi-seeder/.tmp/chain-link/LinkToken/contracts/v0.4/LinkToken.sol\":333:412  function LinkToken()... */\ntag_3:\n    /* \"/Users/dennismacpro/Projects/Defi/Ethereum-Solidity-Collection/icarus-protocol/defi-seeder/.tmp/chain-link/LinkToken/contracts/v0.4/LinkToken.sol\":97:2181  contract LinkToken is linkStandardToken, ERC677Token {... */\ntag_4:\n  dataSize(sub_0)\n  dup1\n  dataOffset(sub_0)\n  0x0\n  codecopy\n  0x0\n  return\nstop\n\nsub_0: assembly {\n        /* \"/Users/dennismacpro/Projects/Defi/Ethereum-Solidity-Collection/icarus-protocol/defi-seeder/.tmp/chain-link/LinkToken/contracts/v0.4/LinkToken.sol\":97:2181  contract LinkToken is linkStandardToken, ERC677Token {... */\n      mstore(0x40, 0x60)\n      jumpi(tag_1, iszero(calldatasize))\n      and(div(calldataload(0x0), 0x100000000000000000000000000000000000000000000000000000000), 0xffffffff)\n      0x6fdde03\n      dup2\n      eq\n      tag_2\n      jumpi\n      dup1\n      0x95ea7b3\n      eq\n      tag_3\n      jumpi\n      dup1\n      0x18160ddd\n      eq\n      tag_4\n      jumpi\n      dup1\n      0x23b872dd\n      eq\n      tag_5\n      jumpi\n      dup1\n      0x313ce567\n      eq\n      tag_6\n      jumpi\n      dup1\n      0x4000aea0\n      eq\n      tag_7\n      jumpi\n      dup1\n      0x66188463\n      eq\n      tag_8\n      jumpi\n      dup1\n      0x70a08231\n      eq\n      tag_9\n      jumpi\n      dup1\n      0x95d89b41\n      eq\n      tag_10\n      jumpi\n      dup1\n      0xa9059cbb\n      eq\n      tag_11\n      jumpi\n      dup1\n      0xd73dd623\n      eq\n      tag_12\n      jumpi\n      dup1\n      0xdd62ed3e\n      eq\n      tag_13\n      jumpi\n    tag_1:\n      0x0\n      dup1\n      revert\n        /* \"/Users/dennismacpro/Projects/Defi/Ethereum-Solidity-Collection/icarus-protocol/defi-seeder/.tmp/chain-link/LinkToken/contracts/v0.4/LinkToken.sol\":200:247  string public constant name = 'ChainLink Token' */\n    tag_2:\n      jumpi(tag_14, iszero(callvalue))\n      0x0\n      dup1\n      revert\n    tag_14:\n      tag_15\n      jump(tag_16)\n    tag_15:\n      mload(0x40)\n      0x20\n      dup1\n      dup3\n      mstore\n      dup2\n      swap1\n      dup2\n      add\n      dup4\n      dup2\n      dup2\n      mload\n      dup2\n      mstore\n      0x20\n      add\n      swap2\n      pop\n      dup1\n      mload\n      swap1\n      0x20\n      add\n      swap1\n      dup1\n      dup4\n      dup4\n        /* \"--CODEGEN--\":23:24   */\n      0x0\n        /* \"--CODEGEN--\":8:108   */\n    tag_17:\n        /* \"--CODEGEN--\":33:36   */\n      dup4\n        /* \"--CODEGEN--\":30:31   */\n      dup2\n        /* \"--CODEGEN--\":27:29   */\n      lt\n        /* \"--CODEGEN--\":8:108   */\n      iszero\n      tag_18\n      jumpi\n        /* \"--CODEGEN--\":99:100   */\n      dup1\n        /* \"--CODEGEN--\":94:97   */\n      dup3\n        /* \"--CODEGEN--\":90:93   */\n      add\n        /* \"--CODEGEN--\":84:89   */\n      mload\n        /* \"--CODEGEN--\":80:81   */\n      dup2\n        /* \"--CODEGEN--\":75:78   */\n      dup5\n        /* \"--CODEGEN--\":71:74   */\n      add\n        /* \"--CODEGEN--\":64:70   */\n      mstore\n        /* \"--CODEGEN--\":8:108   */\n    tag_19:\n        /* \"--CODEGEN--\":52:54   */\n      0x20\n        /* \"--CODEGEN--\":45:48   */\n      add\n        /* \"--CODEGEN--\":8:108   */\n      jump(tag_17)\n    tag_18:\n        /* \"--CODEGEN--\":12:26   */\n      pop\n        /* \"--CODEGEN--\":3:112   */\n      pop\n      pop\n      pop\n      swap1\n      pop\n      swap1\n      dup2\n      add\n      swap1\n      0x1f\n      and\n      dup1\n      iszero\n      tag_20\n      jumpi\n      dup1\n      dup3\n      sub\n      dup1\n      mload\n      0x1\n      dup4\n      0x20\n      sub\n      0x100\n      exp\n      sub\n      not\n      and\n      dup2\n      mstore\n      0x20\n      add\n      swap2\n      pop\n    tag_20:\n      pop\n      swap3\n      pop\n      pop\n      pop\n      mload(0x40)\n      dup1\n      swap2\n      sub\n      swap1\n      return\n        /* \"/Users/dennismacpro/Projects/Defi/Ethereum-Solidity-Collection/icarus-protocol/defi-seeder/.tmp/chain-link/LinkToken/contracts/v0.4/LinkToken.sol\":1416:1578  function approve(address _spender, uint256 _value)... */\n    tag_3:\n      jumpi(tag_21, iszero(callvalue))\n      0x0\n      dup1\n      revert\n    tag_21:\n      tag_22\n      and(calldataload(0x4), sub(exp(0x2, 0xa0), 0x1))\n      calldataload(0x24)\n      jump(tag_23)\n    tag_22:\n      mload(0x40)\n      swap1\n      iszero\n      iszero\n      dup2\n      mstore\n      0x20\n      add\n      mload(0x40)\n      dup1\n      swap2\n      sub\n      swap1\n      return\n        /* \"/Users/dennismacpro/Projects/Defi/Ethereum-Solidity-Collection/icarus-protocol/defi-seeder/.tmp/chain-link/LinkToken/contracts/v0.4/LinkToken.sol\":155:196  uint public constant totalSupply = 10**27 */\n    tag_4:\n      jumpi(tag_24, iszero(callvalue))\n      0x0\n      dup1\n      revert\n    tag_24:\n      tag_25\n      jump(tag_26)\n    tag_25:\n      mload(0x40)\n      swap1\n      dup2\n      mstore\n      0x20\n      add\n      mload(0x40)\n      dup1\n      swap2\n      sub\n      swap1\n      return\n        /* \"/Users/dennismacpro/Projects/Defi/Ethereum-Solidity-Collection/icarus-protocol/defi-seeder/.tmp/chain-link/LinkToken/contracts/v0.4/LinkToken.sol\":1853:2031  function transferFrom(address _from, address _to, uint256 _value)... */\n    tag_5:\n      jumpi(tag_27, iszero(callvalue))\n      0x0\n      dup1\n      revert\n    tag_27:\n      tag_22\n      sub(exp(0x2, 0xa0), 0x1)\n      calldataload(0x4)\n      dup2\n      and\n      swap1\n      calldataload(0x24)\n      and\n      calldataload(0x44)\n      jump(tag_29)\n    tag_28:\n      mload(0x40)\n      swap1\n      iszero\n      iszero\n      dup2\n      mstore\n      0x20\n      add\n      mload(0x40)\n      dup1\n      swap2\n      sub\n      swap1\n      return\n        /* \"/Users/dennismacpro/Projects/Defi/Ethereum-Solidity-Collection/icarus-protocol/defi-seeder/.tmp/chain-link/LinkToken/contracts/v0.4/LinkToken.sol\":251:286  uint8 public constant decimals = 18 */\n    tag_6:\n      jumpi(tag_30, iszero(callvalue))\n      0x0\n      dup1\n      revert\n    tag_30:\n      tag_31\n      jump(tag_32)\n    tag_31:\n      mload(0x40)\n      0xff\n      swap1\n      swap2\n      and\n      dup2\n      mstore\n      0x20\n      add\n      mload(0x40)\n      dup1\n      swap2\n      sub\n      swap1\n      return\n        /* \"/Users/dennismacpro/Projects/Defi/Ethereum-Solidity-Collection/icarus-protocol/defi-seeder/.tmp/chain-link/LinkToken/contracts/v0.4/LinkToken.sol\":690:877  function transferAndCall(address _to, uint _value, bytes _data)... */\n    tag_7:\n      jumpi(tag_33, iszero(callvalue))\n      0x0\n      dup1\n      revert\n    tag_33:\n      tag_22\n      0x4\n      dup1\n      calldataload\n      sub(exp(0x2, 0xa0), 0x1)\n      and\n      swap1\n      0x24\n      dup1\n      calldataload\n      swap2\n      swap1\n      0x64\n      swap1\n      calldataload(0x44)\n      swap1\n      dup2\n      add\n      swap1\n      dup4\n      add\n      calldataload\n      dup1\n      0x20\n      0x1f\n      dup3\n      add\n      dup2\n      swap1\n      div\n      dup2\n      mul\n      add\n      mload(0x40)\n      swap1\n      dup2\n      add\n      0x40\n      mstore\n      dup2\n      dup2\n      mstore\n      swap3\n      swap2\n      swap1\n      0x20\n      dup5\n      add\n      dup4\n      dup4\n      dup1\n      dup3\n      dup5\n      calldatacopy\n      pop\n      swap5\n      swap7\n      pop\n      tag_35\n      swap6\n      pop\n      pop\n      pop\n      pop\n      pop\n      pop\n      jump\n    tag_34:\n      mload(0x40)\n      swap1\n      iszero\n      iszero\n      dup2\n      mstore\n      0x20\n      add\n      mload(0x40)\n      dup1\n      swap2\n      sub\n      swap1\n      return\n        /* \"/Users/dennismacpro/Projects/Defi/Ethereum-Solidity-Collection/icarus-protocol/defi-seeder/.tmp/chain-link/LinkToken/contracts/v0.4/token/linkStandardToken.sol\":2609:3014  function decreaseApproval (address _spender, uint _subtractedValue) ... */\n    tag_8:\n      jumpi(tag_36, iszero(callvalue))\n      0x0\n      dup1\n      revert\n    tag_36:\n      tag_22\n      and(calldataload(0x4), sub(exp(0x2, 0xa0), 0x1))\n      calldataload(0x24)\n      jump(tag_38)\n    tag_37:\n      mload(0x40)\n      swap1\n      iszero\n      iszero\n      dup2\n      mstore\n      0x20\n      add\n      mload(0x40)\n      dup1\n      swap2\n      sub\n      swap1\n      return\n        /* \"/Users/dennismacpro/Projects/Defi/Ethereum-Solidity-Collection/icarus-protocol/defi-seeder/.tmp/chain-link/LinkToken/contracts/v0.4/token/linkBasicToken.sol\":892:996  function balanceOf(address _owner) constant returns (uint256 balance) {... */\n    tag_9:\n      jumpi(tag_39, iszero(callvalue))\n      0x0\n      dup1\n      revert\n    tag_39:\n      tag_25\n      and(calldataload(0x4), sub(exp(0x2, 0xa0), 0x1))\n      jump(tag_41)\n    tag_40:\n      mload(0x40)\n      swap1\n      dup2\n      mstore\n      0x20\n      add\n      mload(0x40)\n      dup1\n      swap2\n      sub\n      swap1\n      return\n        /* \"/Users/dennismacpro/Projects/Defi/Ethereum-Solidity-Collection/icarus-protocol/defi-seeder/.tmp/chain-link/LinkToken/contracts/v0.4/LinkToken.sol\":290:328  string public constant symbol = 'LINK' */\n    tag_10:\n      jumpi(tag_42, iszero(callvalue))\n      0x0\n      dup1\n      revert\n    tag_42:\n      tag_15\n      jump(tag_44)\n    tag_43:\n      mload(0x40)\n      0x20\n      dup1\n      dup3\n      mstore\n      dup2\n      swap1\n      dup2\n      add\n      dup4\n      dup2\n      dup2\n      mload\n      dup2\n      mstore\n      0x20\n      add\n      swap2\n      pop\n      dup1\n      mload\n      swap1\n      0x20\n      add\n      swap1\n      dup1\n      dup4\n      dup4\n        /* \"--CODEGEN--\":23:24   */\n      0x0\n        /* \"--CODEGEN--\":8:108   */\n    tag_45:\n        /* \"--CODEGEN--\":33:36   */\n      dup4\n        /* \"--CODEGEN--\":30:31   */\n      dup2\n        /* \"--CODEGEN--\":27:29   */\n      lt\n        /* \"--CODEGEN--\":8:108   */\n      iszero\n      tag_18\n      jumpi\n        /* \"--CODEGEN--\":99:100   */\n      dup1\n        /* \"--CODEGEN--\":94:97   */\n      dup3\n        /* \"--CODEGEN--\":90:93   */\n      add\n        /* \"--CODEGEN--\":84:89   */\n      mload\n        /* \"--CODEGEN--\":80:81   */\n      dup2\n        /* \"--CODEGEN--\":75:78   */\n      dup5\n        /* \"--CODEGEN--\":71:74   */\n      add\n        /* \"--CODEGEN--\":64:70   */\n      mstore\n        /* \"--CODEGEN--\":8:108   */\n    tag_47:\n        /* \"--CODEGEN--\":52:54   */\n      0x20\n        /* \"--CODEGEN--\":45:48   */\n      add\n        /* \"--CODEGEN--\":8:108   */\n      jump(tag_17)\n    tag_46:\n        /* \"--CODEGEN--\":12:26   */\n      pop\n        /* \"--CODEGEN--\":3:112   */\n      pop\n      pop\n      pop\n      swap1\n      pop\n      swap1\n      dup2\n      add\n      swap1\n      0x1f\n      and\n      dup1\n      iszero\n      tag_20\n      jumpi\n      dup1\n      dup3\n      sub\n      dup1\n      mload\n      0x1\n      dup4\n      0x20\n      sub\n      0x100\n      exp\n      sub\n      not\n      and\n      dup2\n      mstore\n      0x20\n      add\n      swap2\n      pop\n    tag_48:\n      pop\n      swap3\n      pop\n      pop\n      pop\n      mload(0x40)\n      dup1\n      swap2\n      sub\n      swap1\n      return\n        /* \"/Users/dennismacpro/Projects/Defi/Ethereum-Solidity-Collection/icarus-protocol/defi-seeder/.tmp/chain-link/LinkToken/contracts/v0.4/LinkToken.sol\":1031:1184  function transfer(address _to, uint _value)... */\n    tag_11:\n      jumpi(tag_49, iszero(callvalue))\n      0x0\n      dup1\n      revert\n    tag_49:\n      tag_22\n      and(calldataload(0x4), sub(exp(0x2, 0xa0), 0x1))\n      calldataload(0x24)\n      jump(tag_51)\n    tag_50:\n      mload(0x40)\n      swap1\n      iszero\n      iszero\n      dup2\n      mstore\n      0x20\n      add\n      mload(0x40)\n      dup1\n      swap2\n      sub\n      swap1\n      return\n        /* \"/Users/dennismacpro/Projects/Defi/Ethereum-Solidity-Collection/icarus-protocol/defi-seeder/.tmp/chain-link/LinkToken/contracts/v0.4/token/linkStandardToken.sol\":2341:2605  function increaseApproval (address _spender, uint _addedValue) ... */\n    tag_12:\n      jumpi(tag_52, iszero(callvalue))\n      0x0\n      dup1\n      revert\n    tag_52:\n      tag_22\n      and(calldataload(0x4), sub(exp(0x2, 0xa0), 0x1))\n      calldataload(0x24)\n      jump(tag_54)\n    tag_53:\n      mload(0x40)\n      swap1\n      iszero\n      iszero\n      dup2\n      mstore\n      0x20\n      add\n      mload(0x40)\n      dup1\n      swap2\n      sub\n      swap1\n      return\n        /* \"/Users/dennismacpro/Projects/Defi/Ethereum-Solidity-Collection/icarus-protocol/defi-seeder/.tmp/chain-link/LinkToken/contracts/v0.4/token/linkStandardToken.sol\":1964:2097  function allowance(address _owner, address _spender) constant returns (uint256 remaining) {... */\n    tag_13:\n      jumpi(tag_55, iszero(callvalue))\n      0x0\n      dup1\n      revert\n    tag_55:\n      tag_25\n      sub(exp(0x2, 0xa0), 0x1)\n      calldataload(0x4)\n      dup2\n      and\n      swap1\n      calldataload(0x24)\n      and\n      jump(tag_57)\n    tag_56:\n      mload(0x40)\n      swap1\n      dup2\n      mstore\n      0x20\n      add\n      mload(0x40)\n      dup1\n      swap2\n      sub\n      swap1\n      return\n        /* \"/Users/dennismacpro/Projects/Defi/Ethereum-Solidity-Collection/icarus-protocol/defi-seeder/.tmp/chain-link/LinkToken/contracts/v0.4/LinkToken.sol\":200:247  string public constant name = 'ChainLink Token' */\n    tag_16:\n      0x40\n      dup1\n      mload\n      swap1\n      dup2\n      add\n      0x40\n      mstore\n      0xf\n      dup2\n      mstore\n      0x436861696e4c696e6b20546f6b656e0000000000000000000000000000000000\n      0x20\n      dup3\n      add\n      mstore\n      dup2\n      jump\t// out\n        /* \"/Users/dennismacpro/Projects/Defi/Ethereum-Solidity-Collection/icarus-protocol/defi-seeder/.tmp/chain-link/LinkToken/contracts/v0.4/LinkToken.sol\":1416:1578  function approve(address _spender, uint256 _value)... */\n    tag_23:\n        /* \"/Users/dennismacpro/Projects/Defi/Ethereum-Solidity-Collection/icarus-protocol/defi-seeder/.tmp/chain-link/LinkToken/contracts/v0.4/LinkToken.sol\":1520:1524  bool */\n      0x0\n        /* \"/Users/dennismacpro/Projects/Defi/Ethereum-Solidity-Collection/icarus-protocol/defi-seeder/.tmp/chain-link/LinkToken/contracts/v0.4/LinkToken.sol\":1497:1505  _spender */\n      dup3\n      sub(exp(0x2, 0xa0), 0x1)\n        /* \"/Users/dennismacpro/Projects/Defi/Ethereum-Solidity-Collection/icarus-protocol/defi-seeder/.tmp/chain-link/LinkToken/contracts/v0.4/LinkToken.sol\":2110:2134  _recipient != address(0) */\n      dup2\n      and\n      iszero\n      dup1\n      iszero\n      swap1\n        /* \"/Users/dennismacpro/Projects/Defi/Ethereum-Solidity-Collection/icarus-protocol/defi-seeder/.tmp/chain-link/LinkToken/contracts/v0.4/LinkToken.sol\":2110:2165  _recipient != address(0) && _recipient != address(this) */\n      tag_59\n      jumpi\n      pop\n        /* \"/Users/dennismacpro/Projects/Defi/Ethereum-Solidity-Collection/icarus-protocol/defi-seeder/.tmp/chain-link/LinkToken/contracts/v0.4/LinkToken.sol\":2160:2164  this */\n      address\n      sub(exp(0x2, 0xa0), 0x1)\n        /* \"/Users/dennismacpro/Projects/Defi/Ethereum-Solidity-Collection/icarus-protocol/defi-seeder/.tmp/chain-link/LinkToken/contracts/v0.4/LinkToken.sol\":2138:2165  _recipient != address(this) */\n      and\n        /* \"/Users/dennismacpro/Projects/Defi/Ethereum-Solidity-Collection/icarus-protocol/defi-seeder/.tmp/chain-link/LinkToken/contracts/v0.4/LinkToken.sol\":2138:2148  _recipient */\n      dup2\n      sub(exp(0x2, 0xa0), 0x1)\n        /* \"/Users/dennismacpro/Projects/Defi/Ethereum-Solidity-Collection/icarus-protocol/defi-seeder/.tmp/chain-link/LinkToken/contracts/v0.4/LinkToken.sol\":2138:2165  _recipient != address(this) */\n      and\n      eq\n      iszero\n        /* \"/Users/dennismacpro/Projects/Defi/Ethereum-Solidity-Collection/icarus-protocol/defi-seeder/.tmp/chain-link/LinkToken/contracts/v0.4/LinkToken.sol\":2110:2165  _recipient != address(0) && _recipient != address(this) */\n    tag_59:\n        /* \"/Users/dennismacpro/Projects/Defi/Ethereum-Solidity-Collection/icarus-protocol/defi-seeder/.tmp/chain-link/LinkToken/contracts/v0.4/LinkToken.sol\":2102:2166  require(_recipient != address(0) && _recipient != address(this)) */\n      iszero\n      iszero\n      tag_60\n      jumpi\n      0x0\n      dup1\n      revert\n    tag_60:\n        /* \"/Users/dennismacpro/Projects/Defi/Ethereum-Solidity-Collection/icarus-protocol/defi-seeder/.tmp/chain-link/LinkToken/contracts/v0.4/LinkToken.sol\":1541:1573  super.approve(_spender,  _value) */\n      tag_62\n        /* \"/Users/dennismacpro/Projects/Defi/Ethereum-Solidity-Collection/icarus-protocol/defi-seeder/.tmp/chain-link/LinkToken/contracts/v0.4/LinkToken.sol\":1555:1563  _spender */\n      dup5\n        /* \"/Users/dennismacpro/Projects/Defi/Ethereum-Solidity-Collection/icarus-protocol/defi-seeder/.tmp/chain-link/LinkToken/contracts/v0.4/LinkToken.sol\":1566:1572  _value */\n      dup5\n        /* \"/Users/dennismacpro/Projects/Defi/Ethereum-Solidity-Collection/icarus-protocol/defi-seeder/.tmp/chain-link/LinkToken/contracts/v0.4/LinkToken.sol\":1541:1554  super.approve */\n      tag_63\n        /* \"/Users/dennismacpro/Projects/Defi/Ethereum-Solidity-Collection/icarus-protocol/defi-seeder/.tmp/chain-link/LinkToken/contracts/v0.4/LinkToken.sol\":1541:1573  super.approve(_spender,  _value) */\n      jump\t// in\n    tag_62:\n        /* \"/Users/dennismacpro/Projects/Defi/Ethereum-Solidity-Collection/icarus-protocol/defi-seeder/.tmp/chain-link/LinkToken/contracts/v0.4/LinkToken.sol\":1534:1573  return super.approve(_spender,  _value) */\n      swap2\n      pop\n        /* \"/Users/dennismacpro/Projects/Defi/Ethereum-Solidity-Collection/icarus-protocol/defi-seeder/.tmp/chain-link/LinkToken/contracts/v0.4/LinkToken.sol\":2172:2173  _ */\n    tag_61:\n        /* \"/Users/dennismacpro/Projects/Defi/Ethereum-Solidity-Collection/icarus-protocol/defi-seeder/.tmp/chain-link/LinkToken/contracts/v0.4/LinkToken.sol\":1416:1578  function approve(address _spender, uint256 _value)... */\n    tag_58:\n      pop\n      swap3\n      swap2\n      pop\n      pop\n      jump\t// out\n        /* \"/Users/dennismacpro/Projects/Defi/Ethereum-Solidity-Collection/icarus-protocol/defi-seeder/.tmp/chain-link/LinkToken/contracts/v0.4/LinkToken.sol\":155:196  uint public constant totalSupply = 10**27 */\n    tag_26:\n        /* \"/Users/dennismacpro/Projects/Defi/Ethereum-Solidity-Collection/icarus-protocol/defi-seeder/.tmp/chain-link/LinkToken/contracts/v0.4/LinkToken.sol\":190:196  10**27 */\n      0x33b2e3c9fd0803ce8000000\n        /* \"/Users/dennismacpro/Projects/Defi/Ethereum-Solidity-Collection/icarus-protocol/defi-seeder/.tmp/chain-link/LinkToken/contracts/v0.4/LinkToken.sol\":155:196  uint public constant totalSupply = 10**27 */\n      dup2\n      jump\t// out\n        /* \"/Users/dennismacpro/Projects/Defi/Ethereum-Solidity-Collection/icarus-protocol/defi-seeder/.tmp/chain-link/LinkToken/contracts/v0.4/LinkToken.sol\":1853:2031  function transferFrom(address _from, address _to, uint256 _value)... */\n    tag_29:\n        /* \"/Users/dennismacpro/Projects/Defi/Ethereum-Solidity-Collection/icarus-protocol/defi-seeder/.tmp/chain-link/LinkToken/contracts/v0.4/LinkToken.sol\":1967:1971  bool */\n      0x0\n        /* \"/Users/dennismacpro/Projects/Defi/Ethereum-Solidity-Collection/icarus-protocol/defi-seeder/.tmp/chain-link/LinkToken/contracts/v0.4/LinkToken.sol\":1949:1952  _to */\n      dup3\n      sub(exp(0x2, 0xa0), 0x1)\n        /* \"/Users/dennismacpro/Projects/Defi/Ethereum-Solidity-Collection/icarus-protocol/defi-seeder/.tmp/chain-link/LinkToken/contracts/v0.4/LinkToken.sol\":2110:2134  _recipient != address(0) */\n      dup2\n      and\n      iszero\n      dup1\n      iszero\n      swap1\n        /* \"/Users/dennismacpro/Projects/Defi/Ethereum-Solidity-Collection/icarus-protocol/defi-seeder/.tmp/chain-link/LinkToken/contracts/v0.4/LinkToken.sol\":2110:2165  _recipient != address(0) && _recipient != address(this) */\n      tag_65\n      jumpi\n      pop\n        /* \"/Users/dennismacpro/Projects/Defi/Ethereum-Solidity-Collection/icarus-protocol/defi-seeder/.tmp/chain-link/LinkToken/contracts/v0.4/LinkToken.sol\":2160:2164  this */\n      address\n      sub(exp(0x2, 0xa0), 0x1)\n        /* \"/Users/dennismacpro/Projects/Defi/Ethereum-Solidity-Collection/icarus-protocol/defi-seeder/.tmp/chain-link/LinkToken/contracts/v0.4/LinkToken.sol\":2138:2165  _recipient != address(this) */\n      and\n        /* \"/Users/dennismacpro/Projects/Defi/Ethereum-Solidity-Collection/icarus-protocol/defi-seeder/.tmp/chain-link/LinkToken/contracts/v0.4/LinkToken.sol\":2138:2148  _recipient */\n      dup2\n      sub(exp(0x2, 0xa0), 0x1)\n        /* \"/Users/dennismacpro/Projects/Defi/Ethereum-Solidity-Collection/icarus-protocol/defi-seeder/.tmp/chain-link/LinkToken/contracts/v0.4/LinkToken.sol\":2138:2165  _recipient != address(this) */\n      and\n      eq\n      iszero\n        /* \"/Users/dennismacpro/Projects/Defi/Ethereum-Solidity-Collection/icarus-protocol/defi-seeder/.tmp/chain-link/LinkToken/contracts/v0.4/LinkToken.sol\":2110:2165  _recipient != address(0) && _recipient != address(this) */\n    tag_65:\n        /* \"/Users/dennismacpro/Projects/Defi/Ethereum-Solidity-Collection/icarus-protocol/defi-seeder/.tmp/chain-link/LinkToken/contracts/v0.4/LinkToken.sol\":2102:2166  require(_recipient != address(0) && _recipient != address(this)) */\n      iszero\n      iszero\n      tag_66\n      jumpi\n      0x0\n      dup1\n      revert\n    tag_66:\n        /* \"/Users/dennismacpro/Projects/Defi/Ethereum-Solidity-Collection/icarus-protocol/defi-seeder/.tmp/chain-link/LinkToken/contracts/v0.4/LinkToken.sol\":1988:2026  super.transferFrom(_from, _to, _value) */\n      tag_68\n        /* \"/Users/dennismacpro/Projects/Defi/Ethereum-Solidity-Collection/icarus-protocol/defi-seeder/.tmp/chain-link/LinkToken/contracts/v0.4/LinkToken.sol\":2007:2012  _from */\n      dup6\n        /* \"/Users/dennismacpro/Projects/Defi/Ethereum-Solidity-Collection/icarus-protocol/defi-seeder/.tmp/chain-link/LinkToken/contracts/v0.4/LinkToken.sol\":2014:2017  _to */\n      dup6\n        /* \"/Users/dennismacpro/Projects/Defi/Ethereum-Solidity-Collection/icarus-protocol/defi-seeder/.tmp/chain-link/LinkToken/contracts/v0.4/LinkToken.sol\":2019:2025  _value */\n      dup6\n        /* \"/Users/dennismacpro/Projects/Defi/Ethereum-Solidity-Collection/icarus-protocol/defi-seeder/.tmp/chain-link/LinkToken/contracts/v0.4/LinkToken.sol\":1988:2006  super.transferFrom */\n      tag_69\n        /* \"/Users/dennismacpro/Projects/Defi/Ethereum-Solidity-Collection/icarus-protocol/defi-seeder/.tmp/chain-link/LinkToken/contracts/v0.4/LinkToken.sol\":1988:2026  super.transferFrom(_from, _to, _value) */\n      jump\t// in\n    tag_68:\n        /* \"/Users/dennismacpro/Projects/Defi/Ethereum-Solidity-Collection/icarus-protocol/defi-seeder/.tmp/chain-link/LinkToken/contracts/v0.4/LinkToken.sol\":1981:2026  return super.transferFrom(_from, _to, _value) */\n      swap2\n      pop\n        /* \"/Users/dennismacpro/Projects/Defi/Ethereum-Solidity-Collection/icarus-protocol/defi-seeder/.tmp/chain-link/LinkToken/contracts/v0.4/LinkToken.sol\":2172:2173  _ */\n    tag_67:\n        /* \"/Users/dennismacpro/Projects/Defi/Ethereum-Solidity-Collection/icarus-protocol/defi-seeder/.tmp/chain-link/LinkToken/contracts/v0.4/LinkToken.sol\":1853:2031  function transferFrom(address _from, address _to, uint256 _value)... */\n    tag_64:\n      pop\n      swap4\n      swap3\n      pop\n      pop\n      pop\n      jump\t// out\n        /* \"/Users/dennismacpro/Projects/Defi/Ethereum-Solidity-Collection/icarus-protocol/defi-seeder/.tmp/chain-link/LinkToken/contracts/v0.4/LinkToken.sol\":251:286  uint8 public constant decimals = 18 */\n    tag_32:\n        /* \"/Users/dennismacpro/Projects/Defi/Ethereum-Solidity-Collection/icarus-protocol/defi-seeder/.tmp/chain-link/LinkToken/contracts/v0.4/LinkToken.sol\":284:286  18 */\n      0x12\n        /* \"/Users/dennismacpro/Projects/Defi/Ethereum-Solidity-Collection/icarus-protocol/defi-seeder/.tmp/chain-link/LinkToken/contracts/v0.4/LinkToken.sol\":251:286  uint8 public constant decimals = 18 */\n      dup2\n      jump\t// out\n        /* \"/Users/dennismacpro/Projects/Defi/Ethereum-Solidity-Collection/icarus-protocol/defi-seeder/.tmp/chain-link/LinkToken/contracts/v0.4/LinkToken.sol\":690:877  function transferAndCall(address _to, uint _value, bytes _data)... */\n    tag_35:\n        /* \"/Users/dennismacpro/Projects/Defi/Ethereum-Solidity-Collection/icarus-protocol/defi-seeder/.tmp/chain-link/LinkToken/contracts/v0.4/LinkToken.sol\":802:814  bool success */\n      0x0\n        /* \"/Users/dennismacpro/Projects/Defi/Ethereum-Solidity-Collection/icarus-protocol/defi-seeder/.tmp/chain-link/LinkToken/contracts/v0.4/LinkToken.sol\":784:787  _to */\n      dup4\n      sub(exp(0x2, 0xa0), 0x1)\n        /* \"/Users/dennismacpro/Projects/Defi/Ethereum-Solidity-Collection/icarus-protocol/defi-seeder/.tmp/chain-link/LinkToken/contracts/v0.4/LinkToken.sol\":2110:2134  _recipient != address(0) */\n      dup2\n      and\n      iszero\n      dup1\n      iszero\n      swap1\n        /* \"/Users/dennismacpro/Projects/Defi/Ethereum-Solidity-Collection/icarus-protocol/defi-seeder/.tmp/chain-link/LinkToken/contracts/v0.4/LinkToken.sol\":2110:2165  _recipient != address(0) && _recipient != address(this) */\n      tag_71\n      jumpi\n      pop\n        /* \"/Users/dennismacpro/Projects/Defi/Ethereum-Solidity-Collection/icarus-protocol/defi-seeder/.tmp/chain-link/LinkToken/contracts/v0.4/LinkToken.sol\":2160:2164  this */\n      address\n      sub(exp(0x2, 0xa0), 0x1)\n        /* \"/Users/dennismacpro/Projects/Defi/Ethereum-Solidity-Collection/icarus-protocol/defi-seeder/.tmp/chain-link/LinkToken/contracts/v0.4/LinkToken.sol\":2138:2165  _recipient != address(this) */\n      and\n        /* \"/Users/dennismacpro/Projects/Defi/Ethereum-Solidity-Collection/icarus-protocol/defi-seeder/.tmp/chain-link/LinkToken/contracts/v0.4/LinkToken.sol\":2138:2148  _recipient */\n      dup2\n      sub(exp(0x2, 0xa0), 0x1)\n        /* \"/Users/dennismacpro/Projects/Defi/Ethereum-Solidity-Collection/icarus-protocol/defi-seeder/.tmp/chain-link/LinkToken/contracts/v0.4/LinkToken.sol\":2138:2165  _recipient != address(this) */\n      and\n      eq\n      iszero\n        /* \"/Users/dennismacpro/Projects/Defi/Ethereum-Solidity-Collection/icarus-protocol/defi-seeder/.tmp/chain-link/LinkToken/contracts/v0.4/LinkToken.sol\":2110:2165  _recipient != address(0) && _recipient != address(this) */\n    tag_71:\n        /* \"/Users/dennismacpro/Projects/Defi/Ethereum-Solidity-Collection/icarus-protocol/defi-seeder/.tmp/chain-link/LinkToken/contracts/v0.4/LinkToken.sol\":2102:2166  require(_recipient != address(0) && _recipient != address(this)) */\n      iszero\n      iszero\n      tag_72\n      jumpi\n      0x0\n      dup1\n      revert\n    tag_72:\n        /* \"/Users/dennismacpro/Projects/Defi/Ethereum-Solidity-Collection/icarus-protocol/defi-seeder/.tmp/chain-link/LinkToken/contracts/v0.4/LinkToken.sol\":831:872  super.transferAndCall(_to, _value, _data) */\n      tag_68\n        /* \"/Users/dennismacpro/Projects/Defi/Ethereum-Solidity-Collection/icarus-protocol/defi-seeder/.tmp/chain-link/LinkToken/contracts/v0.4/LinkToken.sol\":853:856  _to */\n      dup6\n        /* \"/Users/dennismacpro/Projects/Defi/Ethereum-Solidity-Collection/icarus-protocol/defi-seeder/.tmp/chain-link/LinkToken/contracts/v0.4/LinkToken.sol\":858:864  _value */\n      dup6\n        /* \"/Users/dennismacpro/Projects/Defi/Ethereum-Solidity-Collection/icarus-protocol/defi-seeder/.tmp/chain-link/LinkToken/contracts/v0.4/LinkToken.sol\":866:871  _data */\n      dup6\n        /* \"/Users/dennismacpro/Projects/Defi/Ethereum-Solidity-Collection/icarus-protocol/defi-seeder/.tmp/chain-link/LinkToken/contracts/v0.4/LinkToken.sol\":831:852  super.transferAndCall */\n      tag_75\n        /* \"/Users/dennismacpro/Projects/Defi/Ethereum-Solidity-Collection/icarus-protocol/defi-seeder/.tmp/chain-link/LinkToken/contracts/v0.4/LinkToken.sol\":831:872  super.transferAndCall(_to, _value, _data) */\n      jump\t// in\n    tag_74:\n        /* \"/Users/dennismacpro/Projects/Defi/Ethereum-Solidity-Collection/icarus-protocol/defi-seeder/.tmp/chain-link/LinkToken/contracts/v0.4/LinkToken.sol\":824:872  return super.transferAndCall(_to, _value, _data) */\n      swap2\n      pop\n        /* \"/Users/dennismacpro/Projects/Defi/Ethereum-Solidity-Collection/icarus-protocol/defi-seeder/.tmp/chain-link/LinkToken/contracts/v0.4/LinkToken.sol\":2172:2173  _ */\n    tag_73:\n        /* \"/Users/dennismacpro/Projects/Defi/Ethereum-Solidity-Collection/icarus-protocol/defi-seeder/.tmp/chain-link/LinkToken/contracts/v0.4/LinkToken.sol\":690:877  function transferAndCall(address _to, uint _value, bytes _data)... */\n    tag_70:\n      pop\n      swap4\n      swap3\n      pop\n      pop\n      pop\n      jump\t// out\n        /* \"/Users/dennismacpro/Projects/Defi/Ethereum-Solidity-Collection/icarus-protocol/defi-seeder/.tmp/chain-link/LinkToken/contracts/v0.4/token/linkStandardToken.sol\":2609:3014  function decreaseApproval (address _spender, uint _subtractedValue) ... */\n    tag_38:\n      sub(exp(0x2, 0xa0), 0x1)\n        /* \"/Users/dennismacpro/Projects/Defi/Ethereum-Solidity-Collection/icarus-protocol/defi-seeder/.tmp/chain-link/LinkToken/contracts/v0.4/token/linkStandardToken.sol\":2735:2745  msg.sender */\n      caller\n        /* \"/Users/dennismacpro/Projects/Defi/Ethereum-Solidity-Collection/icarus-protocol/defi-seeder/.tmp/chain-link/LinkToken/contracts/v0.4/token/linkStandardToken.sol\":2727:2746  allowed[msg.sender] */\n      dup2\n      and\n        /* \"/Users/dennismacpro/Projects/Defi/Ethereum-Solidity-Collection/icarus-protocol/defi-seeder/.tmp/chain-link/LinkToken/contracts/v0.4/token/linkStandardToken.sol\":2691:2703  bool success */\n      0x0\n        /* \"/Users/dennismacpro/Projects/Defi/Ethereum-Solidity-Collection/icarus-protocol/defi-seeder/.tmp/chain-link/LinkToken/contracts/v0.4/token/linkStandardToken.sol\":2727:2746  allowed[msg.sender] */\n      swap1\n      dup2\n      mstore\n        /* \"/Users/dennismacpro/Projects/Defi/Ethereum-Solidity-Collection/icarus-protocol/defi-seeder/.tmp/chain-link/LinkToken/contracts/v0.4/token/linkStandardToken.sol\":2727:2734  allowed */\n      0x2\n        /* \"/Users/dennismacpro/Projects/Defi/Ethereum-Solidity-Collection/icarus-protocol/defi-seeder/.tmp/chain-link/LinkToken/contracts/v0.4/token/linkStandardToken.sol\":2727:2746  allowed[msg.sender] */\n      0x20\n      swap1\n      dup2\n      mstore\n      0x40\n      dup1\n      dup4\n      keccak256\n        /* \"/Users/dennismacpro/Projects/Defi/Ethereum-Solidity-Collection/icarus-protocol/defi-seeder/.tmp/chain-link/LinkToken/contracts/v0.4/token/linkStandardToken.sol\":2727:2756  allowed[msg.sender][_spender] */\n      swap4\n      dup7\n      and\n      dup4\n      mstore\n      swap3\n      swap1\n      mstore\n      swap1\n      dup2\n      keccak256\n      sload\n        /* \"/Users/dennismacpro/Projects/Defi/Ethereum-Solidity-Collection/icarus-protocol/defi-seeder/.tmp/chain-link/LinkToken/contracts/v0.4/token/linkStandardToken.sol\":2766:2793  _subtractedValue > oldValue */\n      dup1\n      dup4\n      gt\n        /* \"/Users/dennismacpro/Projects/Defi/Ethereum-Solidity-Collection/icarus-protocol/defi-seeder/.tmp/chain-link/LinkToken/contracts/v0.4/token/linkStandardToken.sol\":2762:2926  if (_subtractedValue > oldValue) {... */\n      iszero\n      tag_77\n      jumpi\n      sub(exp(0x2, 0xa0), 0x1)\n        /* \"/Users/dennismacpro/Projects/Defi/Ethereum-Solidity-Collection/icarus-protocol/defi-seeder/.tmp/chain-link/LinkToken/contracts/v0.4/token/linkStandardToken.sol\":2811:2821  msg.sender */\n      caller\n        /* \"/Users/dennismacpro/Projects/Defi/Ethereum-Solidity-Collection/icarus-protocol/defi-seeder/.tmp/chain-link/LinkToken/contracts/v0.4/token/linkStandardToken.sol\":2803:2822  allowed[msg.sender] */\n      dup2\n      and\n        /* \"/Users/dennismacpro/Projects/Defi/Ethereum-Solidity-Collection/icarus-protocol/defi-seeder/.tmp/chain-link/LinkToken/contracts/v0.4/token/linkStandardToken.sol\":2835:2836  0 */\n      0x0\n        /* \"/Users/dennismacpro/Projects/Defi/Ethereum-Solidity-Collection/icarus-protocol/defi-seeder/.tmp/chain-link/LinkToken/contracts/v0.4/token/linkStandardToken.sol\":2803:2822  allowed[msg.sender] */\n      swap1\n      dup2\n      mstore\n        /* \"/Users/dennismacpro/Projects/Defi/Ethereum-Solidity-Collection/icarus-protocol/defi-seeder/.tmp/chain-link/LinkToken/contracts/v0.4/token/linkStandardToken.sol\":2803:2810  allowed */\n      0x2\n        /* \"/Users/dennismacpro/Projects/Defi/Ethereum-Solidity-Collection/icarus-protocol/defi-seeder/.tmp/chain-link/LinkToken/contracts/v0.4/token/linkStandardToken.sol\":2803:2822  allowed[msg.sender] */\n      0x20\n      swap1\n      dup2\n      mstore\n      0x40\n      dup1\n      dup4\n      keccak256\n        /* \"/Users/dennismacpro/Projects/Defi/Ethereum-Solidity-Collection/icarus-protocol/defi-seeder/.tmp/chain-link/LinkToken/contracts/v0.4/token/linkStandardToken.sol\":2803:2832  allowed[msg.sender][_spender] */\n      swap4\n      dup9\n      and\n      dup4\n      mstore\n      swap3\n      swap1\n      mstore\n      swap1\n      dup2\n      keccak256\n        /* \"/Users/dennismacpro/Projects/Defi/Ethereum-Solidity-Collection/icarus-protocol/defi-seeder/.tmp/chain-link/LinkToken/contracts/v0.4/token/linkStandardToken.sol\":2803:2836  allowed[msg.sender][_spender] = 0 */\n      sstore\n        /* \"/Users/dennismacpro/Projects/Defi/Ethereum-Solidity-Collection/icarus-protocol/defi-seeder/.tmp/chain-link/LinkToken/contracts/v0.4/token/linkStandardToken.sol\":2762:2926  if (_subtractedValue > oldValue) {... */\n      jump(tag_78)\n    tag_77:\n        /* \"/Users/dennismacpro/Projects/Defi/Ethereum-Solidity-Collection/icarus-protocol/defi-seeder/.tmp/chain-link/LinkToken/contracts/v0.4/token/linkStandardToken.sol\":2889:2919  oldValue.sub(_subtractedValue) */\n      tag_79\n        /* \"/Users/dennismacpro/Projects/Defi/Ethereum-Solidity-Collection/icarus-protocol/defi-seeder/.tmp/chain-link/LinkToken/contracts/v0.4/token/linkStandardToken.sol\":2889:2897  oldValue */\n      dup2\n        /* \"/Users/dennismacpro/Projects/Defi/Ethereum-Solidity-Collection/icarus-protocol/defi-seeder/.tmp/chain-link/LinkToken/contracts/v0.4/token/linkStandardToken.sol\":2902:2918  _subtractedValue */\n      dup5\n        /* \"/Users/dennismacpro/Projects/Defi/Ethereum-Solidity-Collection/icarus-protocol/defi-seeder/.tmp/chain-link/LinkToken/contracts/v0.4/token/linkStandardToken.sol\":2889:2919  oldValue.sub(_subtractedValue) */\n      0xffffffff\n        /* \"/Users/dennismacpro/Projects/Defi/Ethereum-Solidity-Collection/icarus-protocol/defi-seeder/.tmp/chain-link/LinkToken/contracts/v0.4/token/linkStandardToken.sol\":2889:2901  oldValue.sub */\n      tag_80\n        /* \"/Users/dennismacpro/Projects/Defi/Ethereum-Solidity-Collection/icarus-protocol/defi-seeder/.tmp/chain-link/LinkToken/contracts/v0.4/token/linkStandardToken.sol\":2889:2919  oldValue.sub(_subtractedValue) */\n      and\n      jump\t// in\n    tag_79:\n      sub(exp(0x2, 0xa0), 0x1)\n        /* \"/Users/dennismacpro/Projects/Defi/Ethereum-Solidity-Collection/icarus-protocol/defi-seeder/.tmp/chain-link/LinkToken/contracts/v0.4/token/linkStandardToken.sol\":2865:2875  msg.sender */\n      caller\n        /* \"/Users/dennismacpro/Projects/Defi/Ethereum-Solidity-Collection/icarus-protocol/defi-seeder/.tmp/chain-link/LinkToken/contracts/v0.4/token/linkStandardToken.sol\":2857:2876  allowed[msg.sender] */\n      dup2\n      and\n      0x0\n      swap1\n      dup2\n      mstore\n        /* \"/Users/dennismacpro/Projects/Defi/Ethereum-Solidity-Collection/icarus-protocol/defi-seeder/.tmp/chain-link/LinkToken/contracts/v0.4/token/linkStandardToken.sol\":2857:2864  allowed */\n      0x2\n        /* \"/Users/dennismacpro/Projects/Defi/Ethereum-Solidity-Collection/icarus-protocol/defi-seeder/.tmp/chain-link/LinkToken/contracts/v0.4/token/linkStandardToken.sol\":2857:2876  allowed[msg.sender] */\n      0x20\n      swap1\n      dup2\n      mstore\n      0x40\n      dup1\n      dup4\n      keccak256\n        /* \"/Users/dennismacpro/Projects/Defi/Ethereum-Solidity-Collection/icarus-protocol/defi-seeder/.tmp/chain-link/LinkToken/contracts/v0.4/token/linkStandardToken.sol\":2857:2886  allowed[msg.sender][_spender] */\n      swap4\n      dup10\n      and\n      dup4\n      mstore\n      swap3\n      swap1\n      mstore\n      keccak256\n        /* \"/Users/dennismacpro/Projects/Defi/Ethereum-Solidity-Collection/icarus-protocol/defi-seeder/.tmp/chain-link/LinkToken/contracts/v0.4/token/linkStandardToken.sol\":2857:2919  allowed[msg.sender][_spender] = oldValue.sub(_subtractedValue) */\n      sstore\n        /* \"/Users/dennismacpro/Projects/Defi/Ethereum-Solidity-Collection/icarus-protocol/defi-seeder/.tmp/chain-link/LinkToken/contracts/v0.4/token/linkStandardToken.sol\":2762:2926  if (_subtractedValue > oldValue) {... */\n    tag_78:\n      sub(exp(0x2, 0xa0), 0x1)\n        /* \"/Users/dennismacpro/Projects/Defi/Ethereum-Solidity-Collection/icarus-protocol/defi-seeder/.tmp/chain-link/LinkToken/contracts/v0.4/token/linkStandardToken.sol\":2940:2950  msg.sender */\n      caller\n        /* \"/Users/dennismacpro/Projects/Defi/Ethereum-Solidity-Collection/icarus-protocol/defi-seeder/.tmp/chain-link/LinkToken/contracts/v0.4/token/linkStandardToken.sol\":2931:2992  Approval(msg.sender, _spender, allowed[msg.sender][_spender]) */\n      dup2\n      and\n        /* \"/Users/dennismacpro/Projects/Defi/Ethereum-Solidity-Collection/icarus-protocol/defi-seeder/.tmp/chain-link/LinkToken/contracts/v0.4/token/linkStandardToken.sol\":2962:2981  allowed[msg.sender] */\n      0x0\n      dup2\n      dup2\n      mstore\n        /* \"/Users/dennismacpro/Projects/Defi/Ethereum-Solidity-Collection/icarus-protocol/defi-seeder/.tmp/chain-link/LinkToken/contracts/v0.4/token/linkStandardToken.sol\":2962:2969  allowed */\n      0x2\n        /* \"/Users/dennismacpro/Projects/Defi/Ethereum-Solidity-Collection/icarus-protocol/defi-seeder/.tmp/chain-link/LinkToken/contracts/v0.4/token/linkStandardToken.sol\":2962:2981  allowed[msg.sender] */\n      0x20\n      swap1\n      dup2\n      mstore\n      0x40\n      dup1\n      dup4\n      keccak256\n        /* \"/Users/dennismacpro/Projects/Defi/Ethereum-Solidity-Collection/icarus-protocol/defi-seeder/.tmp/chain-link/LinkToken/contracts/v0.4/token/linkStandardToken.sol\":2931:2992  Approval(msg.sender, _spender, allowed[msg.sender][_spender]) */\n      swap5\n      dup10\n      and\n        /* \"/Users/dennismacpro/Projects/Defi/Ethereum-Solidity-Collection/icarus-protocol/defi-seeder/.tmp/chain-link/LinkToken/contracts/v0.4/token/linkStandardToken.sol\":2962:2991  allowed[msg.sender][_spender] */\n      dup1\n      dup5\n      mstore\n      swap5\n      swap1\n      swap2\n      mstore\n      swap1\n      dup2\n      swap1\n      keccak256\n      sload\n        /* \"/Users/dennismacpro/Projects/Defi/Ethereum-Solidity-Collection/icarus-protocol/defi-seeder/.tmp/chain-link/LinkToken/contracts/v0.4/token/linkStandardToken.sol\":2931:2992  Approval(msg.sender, _spender, allowed[msg.sender][_spender]) */\n      0x8c5be1e5ebec7d5bd14f71427d1e84f3dd0314c0f7b2291e5b200ac8c7c3b925\n      swap2\n      mload\n      swap1\n      dup2\n      mstore\n      0x20\n      add\n      mload(0x40)\n      dup1\n      swap2\n      sub\n      swap1\n      log3\n        /* \"/Users/dennismacpro/Projects/Defi/Ethereum-Solidity-Collection/icarus-protocol/defi-seeder/.tmp/chain-link/LinkToken/contracts/v0.4/token/linkStandardToken.sol\":3005:3009  true */\n      0x1\n        /* \"/Users/dennismacpro/Projects/Defi/Ethereum-Solidity-Collection/icarus-protocol/defi-seeder/.tmp/chain-link/LinkToken/contracts/v0.4/token/linkStandardToken.sol\":2998:3009  return true */\n      swap2\n      pop\n        /* \"/Users/dennismacpro/Projects/Defi/Ethereum-Solidity-Collection/icarus-protocol/defi-seeder/.tmp/chain-link/LinkToken/contracts/v0.4/token/linkStandardToken.sol\":2609:3014  function decreaseApproval (address _spender, uint _subtractedValue) ... */\n    tag_76:\n      pop\n      swap3\n      swap2\n      pop\n      pop\n      jump\t// out\n        /* \"/Users/dennismacpro/Projects/Defi/Ethereum-Solidity-Collection/icarus-protocol/defi-seeder/.tmp/chain-link/LinkToken/contracts/v0.4/token/linkBasicToken.sol\":892:996  function balanceOf(address _owner) constant returns (uint256 balance) {... */\n    tag_41:\n      sub(exp(0x2, 0xa0), 0x1)\n        /* \"/Users/dennismacpro/Projects/Defi/Ethereum-Solidity-Collection/icarus-protocol/defi-seeder/.tmp/chain-link/LinkToken/contracts/v0.4/token/linkBasicToken.sol\":975:991  balances[_owner] */\n      dup2\n      and\n        /* \"/Users/dennismacpro/Projects/Defi/Ethereum-Solidity-Collection/icarus-protocol/defi-seeder/.tmp/chain-link/LinkToken/contracts/v0.4/token/linkBasicToken.sol\":945:960  uint256 balance */\n      0x0\n        /* \"/Users/dennismacpro/Projects/Defi/Ethereum-Solidity-Collection/icarus-protocol/defi-seeder/.tmp/chain-link/LinkToken/contracts/v0.4/token/linkBasicToken.sol\":975:991  balances[_owner] */\n      swap1\n      dup2\n      mstore\n        /* \"/Users/dennismacpro/Projects/Defi/Ethereum-Solidity-Collection/icarus-protocol/defi-seeder/.tmp/chain-link/LinkToken/contracts/v0.4/token/linkBasicToken.sol\":975:983  balances */\n      0x1\n        /* \"/Users/dennismacpro/Projects/Defi/Ethereum-Solidity-Collection/icarus-protocol/defi-seeder/.tmp/chain-link/LinkToken/contracts/v0.4/token/linkBasicToken.sol\":975:991  balances[_owner] */\n      0x20\n      mstore\n      0x40\n      swap1\n      keccak256\n      sload\n        /* \"/Users/dennismacpro/Projects/Defi/Ethereum-Solidity-Collection/icarus-protocol/defi-seeder/.tmp/chain-link/LinkToken/contracts/v0.4/token/linkBasicToken.sol\":892:996  function balanceOf(address _owner) constant returns (uint256 balance) {... */\n    tag_81:\n      swap2\n      swap1\n      pop\n      jump\t// out\n        /* \"/Users/dennismacpro/Projects/Defi/Ethereum-Solidity-Collection/icarus-protocol/defi-seeder/.tmp/chain-link/LinkToken/contracts/v0.4/LinkToken.sol\":290:328  string public constant symbol = 'LINK' */\n    tag_44:\n      0x40\n      dup1\n      mload\n      swap1\n      dup2\n      add\n      0x40\n      mstore\n      0x4\n      dup2\n      mstore\n      0x4c494e4b00000000000000000000000000000000000000000000000000000000\n      0x20\n      dup3\n      add\n      mstore\n      dup2\n      jump\t// out\n        /* \"/Users/dennismacpro/Projects/Defi/Ethereum-Solidity-Collection/icarus-protocol/defi-seeder/.tmp/chain-link/LinkToken/contracts/v0.4/LinkToken.sol\":1031:1184  function transfer(address _to, uint _value)... */\n    tag_51:\n        /* \"/Users/dennismacpro/Projects/Defi/Ethereum-Solidity-Collection/icarus-protocol/defi-seeder/.tmp/chain-link/LinkToken/contracts/v0.4/LinkToken.sol\":1123:1135  bool success */\n      0x0\n        /* \"/Users/dennismacpro/Projects/Defi/Ethereum-Solidity-Collection/icarus-protocol/defi-seeder/.tmp/chain-link/LinkToken/contracts/v0.4/LinkToken.sol\":1105:1108  _to */\n      dup3\n      sub(exp(0x2, 0xa0), 0x1)\n        /* \"/Users/dennismacpro/Projects/Defi/Ethereum-Solidity-Collection/icarus-protocol/defi-seeder/.tmp/chain-link/LinkToken/contracts/v0.4/LinkToken.sol\":2110:2134  _recipient != address(0) */\n      dup2\n      and\n      iszero\n      dup1\n      iszero\n      swap1\n        /* \"/Users/dennismacpro/Projects/Defi/Ethereum-Solidity-Collection/icarus-protocol/defi-seeder/.tmp/chain-link/LinkToken/contracts/v0.4/LinkToken.sol\":2110:2165  _recipient != address(0) && _recipient != address(this) */\n      tag_83\n      jumpi\n      pop\n        /* \"/Users/dennismacpro/Projects/Defi/Ethereum-Solidity-Collection/icarus-protocol/defi-seeder/.tmp/chain-link/LinkToken/contracts/v0.4/LinkToken.sol\":2160:2164  this */\n      address\n      sub(exp(0x2, 0xa0), 0x1)\n        /* \"/Users/dennismacpro/Projects/Defi/Ethereum-Solidity-Collection/icarus-protocol/defi-seeder/.tmp/chain-link/LinkToken/contracts/v0.4/LinkToken.sol\":2138:2165  _recipient != address(this) */\n      and\n        /* \"/Users/dennismacpro/Projects/Defi/Ethereum-Solidity-Collection/icarus-protocol/defi-seeder/.tmp/chain-link/LinkToken/contracts/v0.4/LinkToken.sol\":2138:2148  _recipient */\n      dup2\n      sub(exp(0x2, 0xa0), 0x1)\n        /* \"/Users/dennismacpro/Projects/Defi/Ethereum-Solidity-Collection/icarus-protocol/defi-seeder/.tmp/chain-link/LinkToken/contracts/v0.4/LinkToken.sol\":2138:2165  _recipient != address(this) */\n      and\n      eq\n      iszero\n        /* \"/Users/dennismacpro/Projects/Defi/Ethereum-Solidity-Collection/icarus-protocol/defi-seeder/.tmp/chain-link/LinkToken/contracts/v0.4/LinkToken.sol\":2110:2165  _recipient != address(0) && _recipient != address(this) */\n    tag_83:\n        /* \"/Users/dennismacpro/Projects/Defi/Ethereum-Solidity-Collection/icarus-protocol/defi-seeder/.tmp/chain-link/LinkToken/contracts/v0.4/LinkToken.sol\":2102:2166  require(_recipient != address(0) && _recipient != address(this)) */\n      iszero\n      iszero\n      tag_84\n      jumpi\n      0x0\n      dup1\n      revert\n    tag_84:\n        /* \"/Users/dennismacpro/Projects/Defi/Ethereum-Solidity-Collection/icarus-protocol/defi-seeder/.tmp/chain-link/LinkToken/contracts/v0.4/LinkToken.sol\":1152:1179  super.transfer(_to, _value) */\n      tag_62\n        /* \"/Users/dennismacpro/Projects/Defi/Ethereum-Solidity-Collection/icarus-protocol/defi-seeder/.tmp/chain-link/LinkToken/contracts/v0.4/LinkToken.sol\":1167:1170  _to */\n      dup5\n        /* \"/Users/dennismacpro/Projects/Defi/Ethereum-Solidity-Collection/icarus-protocol/defi-seeder/.tmp/chain-link/LinkToken/contracts/v0.4/LinkToken.sol\":1172:1178  _value */\n      dup5\n        /* \"/Users/dennismacpro/Projects/Defi/Ethereum-Solidity-Collection/icarus-protocol/defi-seeder/.tmp/chain-link/LinkToken/contracts/v0.4/LinkToken.sol\":1152:1166  super.transfer */\n      tag_87\n        /* \"/Users/dennismacpro/Projects/Defi/Ethereum-Solidity-Collection/icarus-protocol/defi-seeder/.tmp/chain-link/LinkToken/contracts/v0.4/LinkToken.sol\":1152:1179  super.transfer(_to, _value) */\n      jump\t// in\n    tag_86:\n        /* \"/Users/dennismacpro/Projects/Defi/Ethereum-Solidity-Collection/icarus-protocol/defi-seeder/.tmp/chain-link/LinkToken/contracts/v0.4/LinkToken.sol\":1145:1179  return super.transfer(_to, _value) */\n      swap2\n      pop\n        /* \"/Users/dennismacpro/Projects/Defi/Ethereum-Solidity-Collection/icarus-protocol/defi-seeder/.tmp/chain-link/LinkToken/contracts/v0.4/LinkToken.sol\":2172:2173  _ */\n    tag_85:\n        /* \"/Users/dennismacpro/Projects/Defi/Ethereum-Solidity-Collection/icarus-protocol/defi-seeder/.tmp/chain-link/LinkToken/contracts/v0.4/LinkToken.sol\":1031:1184  function transfer(address _to, uint _value)... */\n    tag_82:\n      pop\n      swap3\n      swap2\n      pop\n      pop\n      jump\t// out\n        /* \"/Users/dennismacpro/Projects/Defi/Ethereum-Solidity-Collection/icarus-protocol/defi-seeder/.tmp/chain-link/LinkToken/contracts/v0.4/token/linkStandardToken.sol\":2341:2605  function increaseApproval (address _spender, uint _addedValue) ... */\n    tag_54:\n      sub(exp(0x2, 0xa0), 0x1)\n        /* \"/Users/dennismacpro/Projects/Defi/Ethereum-Solidity-Collection/icarus-protocol/defi-seeder/.tmp/chain-link/LinkToken/contracts/v0.4/token/linkStandardToken.sol\":2478:2488  msg.sender */\n      caller\n        /* \"/Users/dennismacpro/Projects/Defi/Ethereum-Solidity-Collection/icarus-protocol/defi-seeder/.tmp/chain-link/LinkToken/contracts/v0.4/token/linkStandardToken.sol\":2470:2489  allowed[msg.sender] */\n      dup2\n      and\n        /* \"/Users/dennismacpro/Projects/Defi/Ethereum-Solidity-Collection/icarus-protocol/defi-seeder/.tmp/chain-link/LinkToken/contracts/v0.4/token/linkStandardToken.sol\":2418:2430  bool success */\n      0x0\n        /* \"/Users/dennismacpro/Projects/Defi/Ethereum-Solidity-Collection/icarus-protocol/defi-seeder/.tmp/chain-link/LinkToken/contracts/v0.4/token/linkStandardToken.sol\":2470:2489  allowed[msg.sender] */\n      swap1\n      dup2\n      mstore\n        /* \"/Users/dennismacpro/Projects/Defi/Ethereum-Solidity-Collection/icarus-protocol/defi-seeder/.tmp/chain-link/LinkToken/contracts/v0.4/token/linkStandardToken.sol\":2470:2477  allowed */\n      0x2\n        /* \"/Users/dennismacpro/Projects/Defi/Ethereum-Solidity-Collection/icarus-protocol/defi-seeder/.tmp/chain-link/LinkToken/contracts/v0.4/token/linkStandardToken.sol\":2470:2489  allowed[msg.sender] */\n      0x20\n      swap1\n      dup2\n      mstore\n      0x40\n      dup1\n      dup4\n      keccak256\n        /* \"/Users/dennismacpro/Projects/Defi/Ethereum-Solidity-Collection/icarus-protocol/defi-seeder/.tmp/chain-link/LinkToken/contracts/v0.4/token/linkStandardToken.sol\":2470:2499  allowed[msg.sender][_spender] */\n      swap4\n      dup7\n      and\n      dup4\n      mstore\n      swap3\n      swap1\n      mstore\n      swap1\n      dup2\n      keccak256\n      sload\n        /* \"/Users/dennismacpro/Projects/Defi/Ethereum-Solidity-Collection/icarus-protocol/defi-seeder/.tmp/chain-link/LinkToken/contracts/v0.4/token/linkStandardToken.sol\":2470:2516  allowed[msg.sender][_spender].add(_addedValue) */\n      tag_89\n      swap1\n        /* \"/Users/dennismacpro/Projects/Defi/Ethereum-Solidity-Collection/icarus-protocol/defi-seeder/.tmp/chain-link/LinkToken/contracts/v0.4/token/linkStandardToken.sol\":2504:2515  _addedValue */\n      dup4\n        /* \"/Users/dennismacpro/Projects/Defi/Ethereum-Solidity-Collection/icarus-protocol/defi-seeder/.tmp/chain-link/LinkToken/contracts/v0.4/token/linkStandardToken.sol\":2470:2516  allowed[msg.sender][_spender].add(_addedValue) */\n      0xffffffff\n        /* \"/Users/dennismacpro/Projects/Defi/Ethereum-Solidity-Collection/icarus-protocol/defi-seeder/.tmp/chain-link/LinkToken/contracts/v0.4/token/linkStandardToken.sol\":2470:2503  allowed[msg.sender][_spender].add */\n      tag_90\n        /* \"/Users/dennismacpro/Projects/Defi/Ethereum-Solidity-Collection/icarus-protocol/defi-seeder/.tmp/chain-link/LinkToken/contracts/v0.4/token/linkStandardToken.sol\":2470:2516  allowed[msg.sender][_spender].add(_addedValue) */\n      and\n      jump\t// in\n    tag_89:\n      sub(exp(0x2, 0xa0), 0x1)\n        /* \"/Users/dennismacpro/Projects/Defi/Ethereum-Solidity-Collection/icarus-protocol/defi-seeder/.tmp/chain-link/LinkToken/contracts/v0.4/token/linkStandardToken.sol\":2446:2456  msg.sender */\n      caller\n        /* \"/Users/dennismacpro/Projects/Defi/Ethereum-Solidity-Collection/icarus-protocol/defi-seeder/.tmp/chain-link/LinkToken/contracts/v0.4/token/linkStandardToken.sol\":2438:2457  allowed[msg.sender] */\n      dup2\n      and\n      0x0\n      dup2\n      dup2\n      mstore\n        /* \"/Users/dennismacpro/Projects/Defi/Ethereum-Solidity-Collection/icarus-protocol/defi-seeder/.tmp/chain-link/LinkToken/contracts/v0.4/token/linkStandardToken.sol\":2438:2445  allowed */\n      0x2\n        /* \"/Users/dennismacpro/Projects/Defi/Ethereum-Solidity-Collection/icarus-protocol/defi-seeder/.tmp/chain-link/LinkToken/contracts/v0.4/token/linkStandardToken.sol\":2438:2457  allowed[msg.sender] */\n      0x20\n      swap1\n      dup2\n      mstore\n      0x40\n      dup1\n      dup4\n      keccak256\n        /* \"/Users/dennismacpro/Projects/Defi/Ethereum-Solidity-Collection/icarus-protocol/defi-seeder/.tmp/chain-link/LinkToken/contracts/v0.4/token/linkStandardToken.sol\":2438:2467  allowed[msg.sender][_spender] */\n      swap5\n      dup10\n      and\n      dup1\n      dup5\n      mstore\n      swap5\n      swap1\n      swap2\n      mstore\n      swap1\n      dup2\n      swap1\n      keccak256\n        /* \"/Users/dennismacpro/Projects/Defi/Ethereum-Solidity-Collection/icarus-protocol/defi-seeder/.tmp/chain-link/LinkToken/contracts/v0.4/token/linkStandardToken.sol\":2438:2516  allowed[msg.sender][_spender] = allowed[msg.sender][_spender].add(_addedValue) */\n      dup5\n      swap1\n      sstore\n        /* \"/Users/dennismacpro/Projects/Defi/Ethereum-Solidity-Collection/icarus-protocol/defi-seeder/.tmp/chain-link/LinkToken/contracts/v0.4/token/linkStandardToken.sol\":2438:2467  allowed[msg.sender][_spender] */\n      swap2\n      swap3\n        /* \"/Users/dennismacpro/Projects/Defi/Ethereum-Solidity-Collection/icarus-protocol/defi-seeder/.tmp/chain-link/LinkToken/contracts/v0.4/token/linkStandardToken.sol\":2438:2457  allowed[msg.sender] */\n      swap1\n      swap2\n        /* \"/Users/dennismacpro/Projects/Defi/Ethereum-Solidity-Collection/icarus-protocol/defi-seeder/.tmp/chain-link/LinkToken/contracts/v0.4/token/linkStandardToken.sol\":2522:2583  Approval(msg.sender, _spender, allowed[msg.sender][_spender]) */\n      0x8c5be1e5ebec7d5bd14f71427d1e84f3dd0314c0f7b2291e5b200ac8c7c3b925\n      swap2\n        /* \"/Users/dennismacpro/Projects/Defi/Ethereum-Solidity-Collection/icarus-protocol/defi-seeder/.tmp/chain-link/LinkToken/contracts/v0.4/token/linkStandardToken.sol\":2438:2516  allowed[msg.sender][_spender] = allowed[msg.sender][_spender].add(_addedValue) */\n      swap1\n        /* \"/Users/dennismacpro/Projects/Defi/Ethereum-Solidity-Collection/icarus-protocol/defi-seeder/.tmp/chain-link/LinkToken/contracts/v0.4/token/linkStandardToken.sol\":2522:2583  Approval(msg.sender, _spender, allowed[msg.sender][_spender]) */\n      mload\n      swap1\n      dup2\n      mstore\n      0x20\n      add\n      mload(0x40)\n      dup1\n      swap2\n      sub\n      swap1\n      log3\n      pop\n        /* \"/Users/dennismacpro/Projects/Defi/Ethereum-Solidity-Collection/icarus-protocol/defi-seeder/.tmp/chain-link/LinkToken/contracts/v0.4/token/linkStandardToken.sol\":2596:2600  true */\n      0x1\n        /* \"/Users/dennismacpro/Projects/Defi/Ethereum-Solidity-Collection/icarus-protocol/defi-seeder/.tmp/chain-link/LinkToken/contracts/v0.4/token/linkStandardToken.sol\":2341:2605  function increaseApproval (address _spender, uint _addedValue) ... */\n    tag_88:\n      swap3\n      swap2\n      pop\n      pop\n      jump\t// out\n        /* \"/Users/dennismacpro/Projects/Defi/Ethereum-Solidity-Collection/icarus-protocol/defi-seeder/.tmp/chain-link/LinkToken/contracts/v0.4/token/linkStandardToken.sol\":1964:2097  function allowance(address _owner, address _spender) constant returns (uint256 remaining) {... */\n    tag_57:\n      sub(exp(0x2, 0xa0), 0x1)\n        /* \"/Users/dennismacpro/Projects/Defi/Ethereum-Solidity-Collection/icarus-protocol/defi-seeder/.tmp/chain-link/LinkToken/contracts/v0.4/token/linkStandardToken.sol\":2067:2082  allowed[_owner] */\n      dup1\n      dup4\n      and\n        /* \"/Users/dennismacpro/Projects/Defi/Ethereum-Solidity-Collection/icarus-protocol/defi-seeder/.tmp/chain-link/LinkToken/contracts/v0.4/token/linkStandardToken.sol\":2035:2052  uint256 remaining */\n      0x0\n        /* \"/Users/dennismacpro/Projects/Defi/Ethereum-Solidity-Collection/icarus-protocol/defi-seeder/.tmp/chain-link/LinkToken/contracts/v0.4/token/linkStandardToken.sol\":2067:2082  allowed[_owner] */\n      swap1\n      dup2\n      mstore\n        /* \"/Users/dennismacpro/Projects/Defi/Ethereum-Solidity-Collection/icarus-protocol/defi-seeder/.tmp/chain-link/LinkToken/contracts/v0.4/token/linkStandardToken.sol\":2067:2074  allowed */\n      0x2\n        /* \"/Users/dennismacpro/Projects/Defi/Ethereum-Solidity-Collection/icarus-protocol/defi-seeder/.tmp/chain-link/LinkToken/contracts/v0.4/token/linkStandardToken.sol\":2067:2082  allowed[_owner] */\n      0x20\n      swap1\n      dup2\n      mstore\n      0x40\n      dup1\n      dup4\n      keccak256\n        /* \"/Users/dennismacpro/Projects/Defi/Ethereum-Solidity-Collection/icarus-protocol/defi-seeder/.tmp/chain-link/LinkToken/contracts/v0.4/token/linkStandardToken.sol\":2067:2092  allowed[_owner][_spender] */\n      swap4\n      dup6\n      and\n      dup4\n      mstore\n      swap3\n      swap1\n      mstore\n      keccak256\n      sload\n        /* \"/Users/dennismacpro/Projects/Defi/Ethereum-Solidity-Collection/icarus-protocol/defi-seeder/.tmp/chain-link/LinkToken/contracts/v0.4/token/linkStandardToken.sol\":1964:2097  function allowance(address _owner, address _spender) constant returns (uint256 remaining) {... */\n    tag_91:\n      swap3\n      swap2\n      pop\n      pop\n      jump\t// out\n        /* \"/Users/dennismacpro/Projects/Defi/Ethereum-Solidity-Collection/icarus-protocol/defi-seeder/.tmp/chain-link/LinkToken/contracts/v0.4/token/linkStandardToken.sol\":1469:1645  function approve(address _spender, uint256 _value) returns (bool) {... */\n    tag_63:\n      sub(exp(0x2, 0xa0), 0x1)\n        /* \"/Users/dennismacpro/Projects/Defi/Ethereum-Solidity-Collection/icarus-protocol/defi-seeder/.tmp/chain-link/LinkToken/contracts/v0.4/token/linkStandardToken.sol\":1549:1559  msg.sender */\n      caller\n        /* \"/Users/dennismacpro/Projects/Defi/Ethereum-Solidity-Collection/icarus-protocol/defi-seeder/.tmp/chain-link/LinkToken/contracts/v0.4/token/linkStandardToken.sol\":1541:1560  allowed[msg.sender] */\n      dup2\n      and\n        /* \"/Users/dennismacpro/Projects/Defi/Ethereum-Solidity-Collection/icarus-protocol/defi-seeder/.tmp/chain-link/LinkToken/contracts/v0.4/token/linkStandardToken.sol\":1529:1533  bool */\n      0x0\n        /* \"/Users/dennismacpro/Projects/Defi/Ethereum-Solidity-Collection/icarus-protocol/defi-seeder/.tmp/chain-link/LinkToken/contracts/v0.4/token/linkStandardToken.sol\":1541:1560  allowed[msg.sender] */\n      dup2\n      dup2\n      mstore\n        /* \"/Users/dennismacpro/Projects/Defi/Ethereum-Solidity-Collection/icarus-protocol/defi-seeder/.tmp/chain-link/LinkToken/contracts/v0.4/token/linkStandardToken.sol\":1541:1548  allowed */\n      0x2\n        /* \"/Users/dennismacpro/Projects/Defi/Ethereum-Solidity-Collection/icarus-protocol/defi-seeder/.tmp/chain-link/LinkToken/contracts/v0.4/token/linkStandardToken.sol\":1541:1560  allowed[msg.sender] */\n      0x20\n      swap1\n      dup2\n      mstore\n      0x40\n      dup1\n      dup4\n      keccak256\n        /* \"/Users/dennismacpro/Projects/Defi/Ethereum-Solidity-Collection/icarus-protocol/defi-seeder/.tmp/chain-link/LinkToken/contracts/v0.4/token/linkStandardToken.sol\":1541:1570  allowed[msg.sender][_spender] */\n      swap5\n      dup8\n      and\n      dup1\n      dup5\n      mstore\n      swap5\n      swap1\n      swap2\n      mstore\n      dup1\n      dup3\n      keccak256\n        /* \"/Users/dennismacpro/Projects/Defi/Ethereum-Solidity-Collection/icarus-protocol/defi-seeder/.tmp/chain-link/LinkToken/contracts/v0.4/token/linkStandardToken.sol\":1541:1579  allowed[msg.sender][_spender] = _value */\n      dup6\n      swap1\n      sstore\n        /* \"/Users/dennismacpro/Projects/Defi/Ethereum-Solidity-Collection/icarus-protocol/defi-seeder/.tmp/chain-link/LinkToken/contracts/v0.4/token/linkStandardToken.sol\":1529:1533  bool */\n      swap1\n      swap3\n        /* \"/Users/dennismacpro/Projects/Defi/Ethereum-Solidity-Collection/icarus-protocol/defi-seeder/.tmp/chain-link/LinkToken/contracts/v0.4/token/linkStandardToken.sol\":1541:1570  allowed[msg.sender][_spender] */\n      swap2\n        /* \"/Users/dennismacpro/Projects/Defi/Ethereum-Solidity-Collection/icarus-protocol/defi-seeder/.tmp/chain-link/LinkToken/contracts/v0.4/token/linkStandardToken.sol\":1541:1560  allowed[msg.sender] */\n      swap1\n        /* \"/Users/dennismacpro/Projects/Defi/Ethereum-Solidity-Collection/icarus-protocol/defi-seeder/.tmp/chain-link/LinkToken/contracts/v0.4/token/linkStandardToken.sol\":1585:1623  Approval(msg.sender, _spender, _value) */\n      0x8c5be1e5ebec7d5bd14f71427d1e84f3dd0314c0f7b2291e5b200ac8c7c3b925\n      swap1\n        /* \"/Users/dennismacpro/Projects/Defi/Ethereum-Solidity-Collection/icarus-protocol/defi-seeder/.tmp/chain-link/LinkToken/contracts/v0.4/token/linkStandardToken.sol\":1573:1579  _value */\n      dup6\n      swap1\n        /* \"/Users/dennismacpro/Projects/Defi/Ethereum-Solidity-Collection/icarus-protocol/defi-seeder/.tmp/chain-link/LinkToken/contracts/v0.4/token/linkStandardToken.sol\":1585:1623  Approval(msg.sender, _spender, _value) */\n      mload\n      swap1\n      dup2\n      mstore\n      0x20\n      add\n      mload(0x40)\n      dup1\n      swap2\n      sub\n      swap1\n      log3\n      pop\n        /* \"/Users/dennismacpro/Projects/Defi/Ethereum-Solidity-Collection/icarus-protocol/defi-seeder/.tmp/chain-link/LinkToken/contracts/v0.4/token/linkStandardToken.sol\":1636:1640  true */\n      0x1\n        /* \"/Users/dennismacpro/Projects/Defi/Ethereum-Solidity-Collection/icarus-protocol/defi-seeder/.tmp/chain-link/LinkToken/contracts/v0.4/token/linkStandardToken.sol\":1469:1645  function approve(address _spender, uint256 _value) returns (bool) {... */\n    tag_92:\n      swap3\n      swap2\n      pop\n      pop\n      jump\t// out\n        /* \"/Users/dennismacpro/Projects/Defi/Ethereum-Solidity-Collection/icarus-protocol/defi-seeder/.tmp/chain-link/LinkToken/contracts/v0.4/token/linkStandardToken.sol\":748:1237  function transferFrom(address _from, address _to, uint256 _value) returns (bool) {... */\n    tag_69:\n      sub(exp(0x2, 0xa0), 0x1)\n        /* \"/Users/dennismacpro/Projects/Defi/Ethereum-Solidity-Collection/icarus-protocol/defi-seeder/.tmp/chain-link/LinkToken/contracts/v0.4/token/linkStandardToken.sol\":852:866  allowed[_from] */\n      dup1\n      dup5\n      and\n        /* \"/Users/dennismacpro/Projects/Defi/Ethereum-Solidity-Collection/icarus-protocol/defi-seeder/.tmp/chain-link/LinkToken/contracts/v0.4/token/linkStandardToken.sol\":823:827  bool */\n      0x0\n        /* \"/Users/dennismacpro/Projects/Defi/Ethereum-Solidity-Collection/icarus-protocol/defi-seeder/.tmp/chain-link/LinkToken/contracts/v0.4/token/linkStandardToken.sol\":852:866  allowed[_from] */\n      dup2\n      dup2\n      mstore\n        /* \"/Users/dennismacpro/Projects/Defi/Ethereum-Solidity-Collection/icarus-protocol/defi-seeder/.tmp/chain-link/LinkToken/contracts/v0.4/token/linkStandardToken.sol\":852:859  allowed */\n      0x2\n        /* \"/Users/dennismacpro/Projects/Defi/Ethereum-Solidity-Collection/icarus-protocol/defi-seeder/.tmp/chain-link/LinkToken/contracts/v0.4/token/linkStandardToken.sol\":852:866  allowed[_from] */\n      0x20\n      swap1\n      dup2\n      mstore\n      0x40\n      dup1\n      dup4\n      keccak256\n        /* \"/Users/dennismacpro/Projects/Defi/Ethereum-Solidity-Collection/icarus-protocol/defi-seeder/.tmp/chain-link/LinkToken/contracts/v0.4/token/linkStandardToken.sol\":867:877  msg.sender */\n      caller\n        /* \"/Users/dennismacpro/Projects/Defi/Ethereum-Solidity-Collection/icarus-protocol/defi-seeder/.tmp/chain-link/LinkToken/contracts/v0.4/token/linkStandardToken.sol\":852:878  allowed[_from][msg.sender] */\n      swap1\n      swap6\n      and\n      dup4\n      mstore\n      swap4\n      dup2\n      mstore\n      dup4\n      dup3\n      keccak256\n      sload\n        /* \"/Users/dennismacpro/Projects/Defi/Ethereum-Solidity-Collection/icarus-protocol/defi-seeder/.tmp/chain-link/LinkToken/contracts/v0.4/token/linkStandardToken.sol\":1050:1065  balances[_from] */\n      swap3\n      dup3\n      mstore\n        /* \"/Users/dennismacpro/Projects/Defi/Ethereum-Solidity-Collection/icarus-protocol/defi-seeder/.tmp/chain-link/LinkToken/contracts/v0.4/token/linkStandardToken.sol\":1050:1058  balances */\n      0x1\n        /* \"/Users/dennismacpro/Projects/Defi/Ethereum-Solidity-Collection/icarus-protocol/defi-seeder/.tmp/chain-link/LinkToken/contracts/v0.4/token/linkStandardToken.sol\":1050:1065  balances[_from] */\n      swap1\n      mstore\n      swap2\n      dup3\n      keccak256\n      sload\n        /* \"/Users/dennismacpro/Projects/Defi/Ethereum-Solidity-Collection/icarus-protocol/defi-seeder/.tmp/chain-link/LinkToken/contracts/v0.4/token/linkStandardToken.sol\":1050:1077  balances[_from].sub(_value) */\n      tag_94\n      swap1\n        /* \"/Users/dennismacpro/Projects/Defi/Ethereum-Solidity-Collection/icarus-protocol/defi-seeder/.tmp/chain-link/LinkToken/contracts/v0.4/token/linkStandardToken.sol\":1070:1076  _value */\n      dup5\n        /* \"/Users/dennismacpro/Projects/Defi/Ethereum-Solidity-Collection/icarus-protocol/defi-seeder/.tmp/chain-link/LinkToken/contracts/v0.4/token/linkStandardToken.sol\":1050:1077  balances[_from].sub(_value) */\n      0xffffffff\n        /* \"/Users/dennismacpro/Projects/Defi/Ethereum-Solidity-Collection/icarus-protocol/defi-seeder/.tmp/chain-link/LinkToken/contracts/v0.4/token/linkStandardToken.sol\":1050:1069  balances[_from].sub */\n      tag_80\n        /* \"/Users/dennismacpro/Projects/Defi/Ethereum-Solidity-Collection/icarus-protocol/defi-seeder/.tmp/chain-link/LinkToken/contracts/v0.4/token/linkStandardToken.sol\":1050:1077  balances[_from].sub(_value) */\n      and\n      jump\t// in\n    tag_94:\n      sub(exp(0x2, 0xa0), 0x1)\n        /* \"/Users/dennismacpro/Projects/Defi/Ethereum-Solidity-Collection/icarus-protocol/defi-seeder/.tmp/chain-link/LinkToken/contracts/v0.4/token/linkStandardToken.sol\":1032:1047  balances[_from] */\n      dup1\n      dup8\n      and\n      0x0\n      swap1\n      dup2\n      mstore\n        /* \"/Users/dennismacpro/Projects/Defi/Ethereum-Solidity-Collection/icarus-protocol/defi-seeder/.tmp/chain-link/LinkToken/contracts/v0.4/token/linkStandardToken.sol\":1032:1040  balances */\n      0x1\n        /* \"/Users/dennismacpro/Projects/Defi/Ethereum-Solidity-Collection/icarus-protocol/defi-seeder/.tmp/chain-link/LinkToken/contracts/v0.4/token/linkStandardToken.sol\":1032:1047  balances[_from] */\n      0x20\n      mstore\n      0x40\n      dup1\n      dup3\n      keccak256\n        /* \"/Users/dennismacpro/Projects/Defi/Ethereum-Solidity-Collection/icarus-protocol/defi-seeder/.tmp/chain-link/LinkToken/contracts/v0.4/token/linkStandardToken.sol\":1032:1077  balances[_from] = balances[_from].sub(_value) */\n      swap4\n      swap1\n      swap4\n      sstore\n        /* \"/Users/dennismacpro/Projects/Defi/Ethereum-Solidity-Collection/icarus-protocol/defi-seeder/.tmp/chain-link/LinkToken/contracts/v0.4/token/linkStandardToken.sol\":1099:1112  balances[_to] */\n      swap1\n      dup7\n      and\n      dup2\n      mstore\n      keccak256\n      sload\n        /* \"/Users/dennismacpro/Projects/Defi/Ethereum-Solidity-Collection/icarus-protocol/defi-seeder/.tmp/chain-link/LinkToken/contracts/v0.4/token/linkStandardToken.sol\":1099:1124  balances[_to].add(_value) */\n      tag_95\n      swap1\n        /* \"/Users/dennismacpro/Projects/Defi/Ethereum-Solidity-Collection/icarus-protocol/defi-seeder/.tmp/chain-link/LinkToken/contracts/v0.4/token/linkStandardToken.sol\":1117:1123  _value */\n      dup5\n        /* \"/Users/dennismacpro/Projects/Defi/Ethereum-Solidity-Collection/icarus-protocol/defi-seeder/.tmp/chain-link/LinkToken/contracts/v0.4/token/linkStandardToken.sol\":1099:1124  balances[_to].add(_value) */\n      0xffffffff\n        /* \"/Users/dennismacpro/Projects/Defi/Ethereum-Solidity-Collection/icarus-protocol/defi-seeder/.tmp/chain-link/LinkToken/contracts/v0.4/token/linkStandardToken.sol\":1099:1116  balances[_to].add */\n      tag_90\n        /* \"/Users/dennismacpro/Projects/Defi/Ethereum-Solidity-Collection/icarus-protocol/defi-seeder/.tmp/chain-link/LinkToken/contracts/v0.4/token/linkStandardToken.sol\":1099:1124  balances[_to].add(_value) */\n      and\n      jump\t// in\n    tag_95:\n      sub(exp(0x2, 0xa0), 0x1)\n        /* \"/Users/dennismacpro/Projects/Defi/Ethereum-Solidity-Collection/icarus-protocol/defi-seeder/.tmp/chain-link/LinkToken/contracts/v0.4/token/linkStandardToken.sol\":1083:1096  balances[_to] */\n      dup6\n      and\n      0x0\n      swap1\n      dup2\n      mstore\n        /* \"/Users/dennismacpro/Projects/Defi/Ethereum-Solidity-Collection/icarus-protocol/defi-seeder/.tmp/chain-link/LinkToken/contracts/v0.4/token/linkStandardToken.sol\":1083:1091  balances */\n      0x1\n        /* \"/Users/dennismacpro/Projects/Defi/Ethereum-Solidity-Collection/icarus-protocol/defi-seeder/.tmp/chain-link/LinkToken/contracts/v0.4/token/linkStandardToken.sol\":1083:1096  balances[_to] */\n      0x20\n      mstore\n      0x40\n      swap1\n      keccak256\n        /* \"/Users/dennismacpro/Projects/Defi/Ethereum-Solidity-Collection/icarus-protocol/defi-seeder/.tmp/chain-link/LinkToken/contracts/v0.4/token/linkStandardToken.sol\":1083:1124  balances[_to] = balances[_to].add(_value) */\n      sstore\n        /* \"/Users/dennismacpro/Projects/Defi/Ethereum-Solidity-Collection/icarus-protocol/defi-seeder/.tmp/chain-link/LinkToken/contracts/v0.4/token/linkStandardToken.sol\":1159:1181  _allowance.sub(_value) */\n      tag_96\n        /* \"/Users/dennismacpro/Projects/Defi/Ethereum-Solidity-Collection/icarus-protocol/defi-seeder/.tmp/chain-link/LinkToken/contracts/v0.4/token/linkStandardToken.sol\":1159:1169  _allowance */\n      dup2\n        /* \"/Users/dennismacpro/Projects/Defi/Ethereum-Solidity-Collection/icarus-protocol/defi-seeder/.tmp/chain-link/LinkToken/contracts/v0.4/token/linkStandardToken.sol\":1174:1180  _value */\n      dup5\n        /* \"/Users/dennismacpro/Projects/Defi/Ethereum-Solidity-Collection/icarus-protocol/defi-seeder/.tmp/chain-link/LinkToken/contracts/v0.4/token/linkStandardToken.sol\":1159:1181  _allowance.sub(_value) */\n      0xffffffff\n        /* \"/Users/dennismacpro/Projects/Defi/Ethereum-Solidity-Collection/icarus-protocol/defi-seeder/.tmp/chain-link/LinkToken/contracts/v0.4/token/linkStandardToken.sol\":1159:1173  _allowance.sub */\n      tag_80\n        /* \"/Users/dennismacpro/Projects/Defi/Ethereum-Solidity-Collection/icarus-protocol/defi-seeder/.tmp/chain-link/LinkToken/contracts/v0.4/token/linkStandardToken.sol\":1159:1181  _allowance.sub(_value) */\n      and\n      jump\t// in\n    tag_96:\n      sub(exp(0x2, 0xa0), 0x1)\n        /* \"/Users/dennismacpro/Projects/Defi/Ethereum-Solidity-Collection/icarus-protocol/defi-seeder/.tmp/chain-link/LinkToken/contracts/v0.4/token/linkStandardToken.sol\":1130:1144  allowed[_from] */\n      dup1\n      dup8\n      and\n      0x0\n      dup2\n      dup2\n      mstore\n        /* \"/Users/dennismacpro/Projects/Defi/Ethereum-Solidity-Collection/icarus-protocol/defi-seeder/.tmp/chain-link/LinkToken/contracts/v0.4/token/linkStandardToken.sol\":1130:1137  allowed */\n      0x2\n        /* \"/Users/dennismacpro/Projects/Defi/Ethereum-Solidity-Collection/icarus-protocol/defi-seeder/.tmp/chain-link/LinkToken/contracts/v0.4/token/linkStandardToken.sol\":1130:1144  allowed[_from] */\n      0x20\n      swap1\n      dup2\n      mstore\n      0x40\n      dup1\n      dup4\n      keccak256\n        /* \"/Users/dennismacpro/Projects/Defi/Ethereum-Solidity-Collection/icarus-protocol/defi-seeder/.tmp/chain-link/LinkToken/contracts/v0.4/token/linkStandardToken.sol\":1145:1155  msg.sender */\n      caller\n        /* \"/Users/dennismacpro/Projects/Defi/Ethereum-Solidity-Collection/icarus-protocol/defi-seeder/.tmp/chain-link/LinkToken/contracts/v0.4/token/linkStandardToken.sol\":1130:1156  allowed[_from][msg.sender] */\n      dup7\n      and\n      dup5\n      mstore\n      swap1\n      swap2\n      mstore\n      swap1\n      dup2\n      swap1\n      keccak256\n        /* \"/Users/dennismacpro/Projects/Defi/Ethereum-Solidity-Collection/icarus-protocol/defi-seeder/.tmp/chain-link/LinkToken/contracts/v0.4/token/linkStandardToken.sol\":1130:1181  allowed[_from][msg.sender] = _allowance.sub(_value) */\n      swap4\n      swap1\n      swap4\n      sstore\n        /* \"/Users/dennismacpro/Projects/Defi/Ethereum-Solidity-Collection/icarus-protocol/defi-seeder/.tmp/chain-link/LinkToken/contracts/v0.4/token/linkStandardToken.sol\":1187:1215  Transfer(_from, _to, _value) */\n      swap1\n      dup7\n      and\n      swap2\n      0xddf252ad1be2c89b69c2b068fc378daa952ba7f163c4a11628f55a4df523b3ef\n      swap1\n        /* \"/Users/dennismacpro/Projects/Defi/Ethereum-Solidity-Collection/icarus-protocol/defi-seeder/.tmp/chain-link/LinkToken/contracts/v0.4/token/linkStandardToken.sol\":1208:1214  _value */\n      dup7\n      swap1\n        /* \"/Users/dennismacpro/Projects/Defi/Ethereum-Solidity-Collection/icarus-protocol/defi-seeder/.tmp/chain-link/LinkToken/contracts/v0.4/token/linkStandardToken.sol\":1187:1215  Transfer(_from, _to, _value) */\n      mload\n      swap1\n      dup2\n      mstore\n      0x20\n      add\n      mload(0x40)\n      dup1\n      swap2\n      sub\n      swap1\n      log3\n        /* \"/Users/dennismacpro/Projects/Defi/Ethereum-Solidity-Collection/icarus-protocol/defi-seeder/.tmp/chain-link/LinkToken/contracts/v0.4/token/linkStandardToken.sol\":1228:1232  true */\n      0x1\n        /* \"/Users/dennismacpro/Projects/Defi/Ethereum-Solidity-Collection/icarus-protocol/defi-seeder/.tmp/chain-link/LinkToken/contracts/v0.4/token/linkStandardToken.sol\":1221:1232  return true */\n      swap2\n      pop\n        /* \"/Users/dennismacpro/Projects/Defi/Ethereum-Solidity-Collection/icarus-protocol/defi-seeder/.tmp/chain-link/LinkToken/contracts/v0.4/token/linkStandardToken.sol\":748:1237  function transferFrom(address _from, address _to, uint256 _value) returns (bool) {... */\n    tag_93:\n      pop\n      swap4\n      swap3\n      pop\n      pop\n      pop\n      jump\t// out\n        /* \"/Users/dennismacpro/Projects/Defi/Ethereum-Solidity-Collection/icarus-protocol/defi-seeder/.tmp/chain-link/LinkToken/contracts/v0.4/ERC677Token.sol\":403:685  function transferAndCall(address _to, uint _value, bytes _data)... */\n    tag_75:\n        /* \"/Users/dennismacpro/Projects/Defi/Ethereum-Solidity-Collection/icarus-protocol/defi-seeder/.tmp/chain-link/LinkToken/contracts/v0.4/ERC677Token.sol\":491:503  bool success */\n      0x0\n        /* \"/Users/dennismacpro/Projects/Defi/Ethereum-Solidity-Collection/icarus-protocol/defi-seeder/.tmp/chain-link/LinkToken/contracts/v0.4/ERC677Token.sol\":513:540  super.transfer(_to, _value) */\n      tag_98\n        /* \"/Users/dennismacpro/Projects/Defi/Ethereum-Solidity-Collection/icarus-protocol/defi-seeder/.tmp/chain-link/LinkToken/contracts/v0.4/ERC677Token.sol\":528:531  _to */\n      dup5\n        /* \"/Users/dennismacpro/Projects/Defi/Ethereum-Solidity-Collection/icarus-protocol/defi-seeder/.tmp/chain-link/LinkToken/contracts/v0.4/ERC677Token.sol\":533:539  _value */\n      dup5\n        /* \"/Users/dennismacpro/Projects/Defi/Ethereum-Solidity-Collection/icarus-protocol/defi-seeder/.tmp/chain-link/LinkToken/contracts/v0.4/ERC677Token.sol\":513:527  super.transfer */\n      tag_87\n        /* \"/Users/dennismacpro/Projects/Defi/Ethereum-Solidity-Collection/icarus-protocol/defi-seeder/.tmp/chain-link/LinkToken/contracts/v0.4/ERC677Token.sol\":513:540  super.transfer(_to, _value) */\n      jump\t// in\n    tag_98:\n      pop\n        /* \"/Users/dennismacpro/Projects/Defi/Ethereum-Solidity-Collection/icarus-protocol/defi-seeder/.tmp/chain-link/LinkToken/contracts/v0.4/ERC677Token.sol\":567:570  _to */\n      dup4\n      sub(exp(0x2, 0xa0), 0x1)\n        /* \"/Users/dennismacpro/Projects/Defi/Ethereum-Solidity-Collection/icarus-protocol/defi-seeder/.tmp/chain-link/LinkToken/contracts/v0.4/ERC677Token.sol\":546:586  Transfer(msg.sender, _to, _value, _data) */\n      and\n        /* \"/Users/dennismacpro/Projects/Defi/Ethereum-Solidity-Collection/icarus-protocol/defi-seeder/.tmp/chain-link/LinkToken/contracts/v0.4/ERC677Token.sol\":555:565  msg.sender */\n      caller\n      sub(exp(0x2, 0xa0), 0x1)\n        /* \"/Users/dennismacpro/Projects/Defi/Ethereum-Solidity-Collection/icarus-protocol/defi-seeder/.tmp/chain-link/LinkToken/contracts/v0.4/ERC677Token.sol\":546:586  Transfer(msg.sender, _to, _value, _data) */\n      and\n      0xe19260aff97b920c7df27010903aeb9c8d2be5d310a2c67824cf3f15396e4c16\n        /* \"/Users/dennismacpro/Projects/Defi/Ethereum-Solidity-Collection/icarus-protocol/defi-seeder/.tmp/chain-link/LinkToken/contracts/v0.4/ERC677Token.sol\":572:578  _value */\n      dup6\n        /* \"/Users/dennismacpro/Projects/Defi/Ethereum-Solidity-Collection/icarus-protocol/defi-seeder/.tmp/chain-link/LinkToken/contracts/v0.4/ERC677Token.sol\":580:585  _data */\n      dup6\n        /* \"/Users/dennismacpro/Projects/Defi/Ethereum-Solidity-Collection/icarus-protocol/defi-seeder/.tmp/chain-link/LinkToken/contracts/v0.4/ERC677Token.sol\":546:586  Transfer(msg.sender, _to, _value, _data) */\n      mload(0x40)\n      dup3\n      dup2\n      mstore\n      0x40\n      0x20\n      dup3\n      add\n      dup2\n      dup2\n      mstore\n      swap1\n      dup3\n      add\n      dup4\n      dup2\n      dup2\n      mload\n      dup2\n      mstore\n      0x20\n      add\n      swap2\n      pop\n      dup1\n      mload\n      swap1\n      0x20\n      add\n      swap1\n      dup1\n      dup4\n      dup4\n        /* \"--CODEGEN--\":23:24   */\n      0x0\n        /* \"--CODEGEN--\":8:108   */\n    tag_99:\n        /* \"--CODEGEN--\":33:36   */\n      dup4\n        /* \"--CODEGEN--\":30:31   */\n      dup2\n        /* \"--CODEGEN--\":27:29   */\n      lt\n        /* \"--CODEGEN--\":8:108   */\n      iszero\n      tag_100\n      jumpi\n        /* \"--CODEGEN--\":99:100   */\n      dup1\n        /* \"--CODEGEN--\":94:97   */\n      dup3\n        /* \"--CODEGEN--\":90:93   */\n      add\n        /* \"--CODEGEN--\":84:89   */\n      mload\n        /* \"--CODEGEN--\":80:81   */\n      dup2\n        /* \"--CODEGEN--\":75:78   */\n      dup5\n        /* \"--CODEGEN--\":71:74   */\n      add\n        /* \"--CODEGEN--\":64:70   */\n      mstore\n        /* \"--CODEGEN--\":8:108   */\n    tag_101:\n        /* \"--CODEGEN--\":52:54   */\n      0x20\n        /* \"--CODEGEN--\":45:48   */\n      add\n        /* \"--CODEGEN--\":8:108   */\n      jump(tag_99)\n    tag_100:\n        /* \"--CODEGEN--\":12:26   */\n      pop\n        /* \"--CODEGEN--\":3:112   */\n      pop\n      pop\n      pop\n      swap1\n      pop\n      swap1\n      dup2\n      add\n      swap1\n      0x1f\n      and\n      dup1\n      iszero\n      tag_102\n      jumpi\n      dup1\n      dup3\n      sub\n      dup1\n      mload\n      0x1\n      dup4\n      0x20\n      sub\n      0x100\n      exp\n      sub\n      not\n      and\n      dup2\n      mstore\n      0x20\n      add\n      swap2\n      pop\n    tag_102:\n      pop\n      swap4\n      pop\n      pop\n      pop\n      pop\n      mload(0x40)\n      dup1\n      swap2\n      sub\n      swap1\n      log3\n        /* \"/Users/dennismacpro/Projects/Defi/Ethereum-Solidity-Collection/icarus-protocol/defi-seeder/.tmp/chain-link/LinkToken/contracts/v0.4/ERC677Token.sol\":596:611  isContract(_to) */\n      tag_103\n        /* \"/Users/dennismacpro/Projects/Defi/Ethereum-Solidity-Collection/icarus-protocol/defi-seeder/.tmp/chain-link/LinkToken/contracts/v0.4/ERC677Token.sol\":607:610  _to */\n      dup5\n        /* \"/Users/dennismacpro/Projects/Defi/Ethereum-Solidity-Collection/icarus-protocol/defi-seeder/.tmp/chain-link/LinkToken/contracts/v0.4/ERC677Token.sol\":596:606  isContract */\n      tag_104\n        /* \"/Users/dennismacpro/Projects/Defi/Ethereum-Solidity-Collection/icarus-protocol/defi-seeder/.tmp/chain-link/LinkToken/contracts/v0.4/ERC677Token.sol\":596:611  isContract(_to) */\n      jump\t// in\n    tag_103:\n        /* \"/Users/dennismacpro/Projects/Defi/Ethereum-Solidity-Collection/icarus-protocol/defi-seeder/.tmp/chain-link/LinkToken/contracts/v0.4/ERC677Token.sol\":592:664  if (isContract(_to)) {... */\n      iszero\n      tag_106\n      jumpi\n        /* \"/Users/dennismacpro/Projects/Defi/Ethereum-Solidity-Collection/icarus-protocol/defi-seeder/.tmp/chain-link/LinkToken/contracts/v0.4/ERC677Token.sol\":621:657  contractFallback(_to, _value, _data) */\n      tag_106\n        /* \"/Users/dennismacpro/Projects/Defi/Ethereum-Solidity-Collection/icarus-protocol/defi-seeder/.tmp/chain-link/LinkToken/contracts/v0.4/ERC677Token.sol\":638:641  _to */\n      dup5\n        /* \"/Users/dennismacpro/Projects/Defi/Ethereum-Solidity-Collection/icarus-protocol/defi-seeder/.tmp/chain-link/LinkToken/contracts/v0.4/ERC677Token.sol\":643:649  _value */\n      dup5\n        /* \"/Users/dennismacpro/Projects/Defi/Ethereum-Solidity-Collection/icarus-protocol/defi-seeder/.tmp/chain-link/LinkToken/contracts/v0.4/ERC677Token.sol\":651:656  _data */\n      dup5\n        /* \"/Users/dennismacpro/Projects/Defi/Ethereum-Solidity-Collection/icarus-protocol/defi-seeder/.tmp/chain-link/LinkToken/contracts/v0.4/ERC677Token.sol\":621:637  contractFallback */\n      tag_107\n        /* \"/Users/dennismacpro/Projects/Defi/Ethereum-Solidity-Collection/icarus-protocol/defi-seeder/.tmp/chain-link/LinkToken/contracts/v0.4/ERC677Token.sol\":621:657  contractFallback(_to, _value, _data) */\n      jump\t// in\n    tag_106:\n        /* \"/Users/dennismacpro/Projects/Defi/Ethereum-Solidity-Collection/icarus-protocol/defi-seeder/.tmp/chain-link/LinkToken/contracts/v0.4/ERC677Token.sol\":592:664  if (isContract(_to)) {... */\n    tag_105:\n      pop\n        /* \"/Users/dennismacpro/Projects/Defi/Ethereum-Solidity-Collection/icarus-protocol/defi-seeder/.tmp/chain-link/LinkToken/contracts/v0.4/ERC677Token.sol\":676:680  true */\n      0x1\n        /* \"/Users/dennismacpro/Projects/Defi/Ethereum-Solidity-Collection/icarus-protocol/defi-seeder/.tmp/chain-link/LinkToken/contracts/v0.4/ERC677Token.sol\":403:685  function transferAndCall(address _to, uint _value, bytes _data)... */\n    tag_97:\n      swap4\n      swap3\n      pop\n      pop\n      pop\n      jump\t// out\n        /* \"/Users/dennismacpro/Projects/Defi/Ethereum-Solidity-Collection/icarus-protocol/defi-seeder/.tmp/chain-link/LinkToken/contracts/v0.4/math/linkSafeMath.sol\":566:680  function sub(uint256 a, uint256 b) internal constant returns (uint256) {... */\n    tag_80:\n        /* \"/Users/dennismacpro/Projects/Defi/Ethereum-Solidity-Collection/icarus-protocol/defi-seeder/.tmp/chain-link/LinkToken/contracts/v0.4/math/linkSafeMath.sol\":628:635  uint256 */\n      0x0\n        /* \"/Users/dennismacpro/Projects/Defi/Ethereum-Solidity-Collection/icarus-protocol/defi-seeder/.tmp/chain-link/LinkToken/contracts/v0.4/math/linkSafeMath.sol\":650:656  b <= a */\n      dup3\n      dup3\n      gt\n      iszero\n        /* \"/Users/dennismacpro/Projects/Defi/Ethereum-Solidity-Collection/icarus-protocol/defi-seeder/.tmp/chain-link/LinkToken/contracts/v0.4/math/linkSafeMath.sol\":643:657  assert(b <= a) */\n      tag_109\n      jumpi\n      invalid\n    tag_109:\n      pop\n        /* \"/Users/dennismacpro/Projects/Defi/Ethereum-Solidity-Collection/icarus-protocol/defi-seeder/.tmp/chain-link/LinkToken/contracts/v0.4/math/linkSafeMath.sol\":670:675  a - b */\n      dup1\n      dup3\n      sub\n        /* \"/Users/dennismacpro/Projects/Defi/Ethereum-Solidity-Collection/icarus-protocol/defi-seeder/.tmp/chain-link/LinkToken/contracts/v0.4/math/linkSafeMath.sol\":566:680  function sub(uint256 a, uint256 b) internal constant returns (uint256) {... */\n    tag_108:\n      swap3\n      swap2\n      pop\n      pop\n      jump\t// out\n        /* \"/Users/dennismacpro/Projects/Defi/Ethereum-Solidity-Collection/icarus-protocol/defi-seeder/.tmp/chain-link/LinkToken/contracts/v0.4/token/linkBasicToken.sol\":458:689  function transfer(address _to, uint256 _value) returns (bool) {... */\n    tag_87:\n      sub(exp(0x2, 0xa0), 0x1)\n        /* \"/Users/dennismacpro/Projects/Defi/Ethereum-Solidity-Collection/icarus-protocol/defi-seeder/.tmp/chain-link/LinkToken/contracts/v0.4/token/linkBasicToken.sol\":558:568  msg.sender */\n      caller\n        /* \"/Users/dennismacpro/Projects/Defi/Ethereum-Solidity-Collection/icarus-protocol/defi-seeder/.tmp/chain-link/LinkToken/contracts/v0.4/token/linkBasicToken.sol\":549:569  balances[msg.sender] */\n      and\n        /* \"/Users/dennismacpro/Projects/Defi/Ethereum-Solidity-Collection/icarus-protocol/defi-seeder/.tmp/chain-link/LinkToken/contracts/v0.4/token/linkBasicToken.sol\":514:518  bool */\n      0x0\n        /* \"/Users/dennismacpro/Projects/Defi/Ethereum-Solidity-Collection/icarus-protocol/defi-seeder/.tmp/chain-link/LinkToken/contracts/v0.4/token/linkBasicToken.sol\":549:569  balances[msg.sender] */\n      swap1\n      dup2\n      mstore\n        /* \"/Users/dennismacpro/Projects/Defi/Ethereum-Solidity-Collection/icarus-protocol/defi-seeder/.tmp/chain-link/LinkToken/contracts/v0.4/token/linkBasicToken.sol\":549:557  balances */\n      0x1\n        /* \"/Users/dennismacpro/Projects/Defi/Ethereum-Solidity-Collection/icarus-protocol/defi-seeder/.tmp/chain-link/LinkToken/contracts/v0.4/token/linkBasicToken.sol\":549:569  balances[msg.sender] */\n      0x20\n      mstore\n      0x40\n      dup2\n      keccak256\n      sload\n        /* \"/Users/dennismacpro/Projects/Defi/Ethereum-Solidity-Collection/icarus-protocol/defi-seeder/.tmp/chain-link/LinkToken/contracts/v0.4/token/linkBasicToken.sol\":549:581  balances[msg.sender].sub(_value) */\n      tag_111\n      swap1\n        /* \"/Users/dennismacpro/Projects/Defi/Ethereum-Solidity-Collection/icarus-protocol/defi-seeder/.tmp/chain-link/LinkToken/contracts/v0.4/token/linkBasicToken.sol\":574:580  _value */\n      dup4\n        /* \"/Users/dennismacpro/Projects/Defi/Ethereum-Solidity-Collection/icarus-protocol/defi-seeder/.tmp/chain-link/LinkToken/contracts/v0.4/token/linkBasicToken.sol\":549:581  balances[msg.sender].sub(_value) */\n      0xffffffff\n        /* \"/Users/dennismacpro/Projects/Defi/Ethereum-Solidity-Collection/icarus-protocol/defi-seeder/.tmp/chain-link/LinkToken/contracts/v0.4/token/linkBasicToken.sol\":549:573  balances[msg.sender].sub */\n      tag_80\n        /* \"/Users/dennismacpro/Projects/Defi/Ethereum-Solidity-Collection/icarus-protocol/defi-seeder/.tmp/chain-link/LinkToken/contracts/v0.4/token/linkBasicToken.sol\":549:581  balances[msg.sender].sub(_value) */\n      and\n      jump\t// in\n    tag_111:\n      sub(exp(0x2, 0xa0), 0x1)\n        /* \"/Users/dennismacpro/Projects/Defi/Ethereum-Solidity-Collection/icarus-protocol/defi-seeder/.tmp/chain-link/LinkToken/contracts/v0.4/token/linkBasicToken.sol\":535:545  msg.sender */\n      caller\n        /* \"/Users/dennismacpro/Projects/Defi/Ethereum-Solidity-Collection/icarus-protocol/defi-seeder/.tmp/chain-link/LinkToken/contracts/v0.4/token/linkBasicToken.sol\":526:546  balances[msg.sender] */\n      dup2\n      and\n      0x0\n      swap1\n      dup2\n      mstore\n        /* \"/Users/dennismacpro/Projects/Defi/Ethereum-Solidity-Collection/icarus-protocol/defi-seeder/.tmp/chain-link/LinkToken/contracts/v0.4/token/linkBasicToken.sol\":526:534  balances */\n      0x1\n        /* \"/Users/dennismacpro/Projects/Defi/Ethereum-Solidity-Collection/icarus-protocol/defi-seeder/.tmp/chain-link/LinkToken/contracts/v0.4/token/linkBasicToken.sol\":526:546  balances[msg.sender] */\n      0x20\n      mstore\n      0x40\n      dup1\n      dup3\n      keccak256\n        /* \"/Users/dennismacpro/Projects/Defi/Ethereum-Solidity-Collection/icarus-protocol/defi-seeder/.tmp/chain-link/LinkToken/contracts/v0.4/token/linkBasicToken.sol\":526:581  balances[msg.sender] = balances[msg.sender].sub(_value) */\n      swap4\n      swap1\n      swap4\n      sstore\n        /* \"/Users/dennismacpro/Projects/Defi/Ethereum-Solidity-Collection/icarus-protocol/defi-seeder/.tmp/chain-link/LinkToken/contracts/v0.4/token/linkBasicToken.sol\":603:616  balances[_to] */\n      swap1\n      dup6\n      and\n      dup2\n      mstore\n      keccak256\n      sload\n        /* \"/Users/dennismacpro/Projects/Defi/Ethereum-Solidity-Collection/icarus-protocol/defi-seeder/.tmp/chain-link/LinkToken/contracts/v0.4/token/linkBasicToken.sol\":603:628  balances[_to].add(_value) */\n      tag_112\n      swap1\n        /* \"/Users/dennismacpro/Projects/Defi/Ethereum-Solidity-Collection/icarus-protocol/defi-seeder/.tmp/chain-link/LinkToken/contracts/v0.4/token/linkBasicToken.sol\":621:627  _value */\n      dup4\n        /* \"/Users/dennismacpro/Projects/Defi/Ethereum-Solidity-Collection/icarus-protocol/defi-seeder/.tmp/chain-link/LinkToken/contracts/v0.4/token/linkBasicToken.sol\":603:628  balances[_to].add(_value) */\n      0xffffffff\n        /* \"/Users/dennismacpro/Projects/Defi/Ethereum-Solidity-Collection/icarus-protocol/defi-seeder/.tmp/chain-link/LinkToken/contracts/v0.4/token/linkBasicToken.sol\":603:620  balances[_to].add */\n      tag_90\n        /* \"/Users/dennismacpro/Projects/Defi/Ethereum-Solidity-Collection/icarus-protocol/defi-seeder/.tmp/chain-link/LinkToken/contracts/v0.4/token/linkBasicToken.sol\":603:628  balances[_to].add(_value) */\n      and\n      jump\t// in\n    tag_112:\n      sub(exp(0x2, 0xa0), 0x1)\n        /* \"/Users/dennismacpro/Projects/Defi/Ethereum-Solidity-Collection/icarus-protocol/defi-seeder/.tmp/chain-link/LinkToken/contracts/v0.4/token/linkBasicToken.sol\":587:600  balances[_to] */\n      dup1\n      dup6\n      and\n      0x0\n      dup2\n      dup2\n      mstore\n        /* \"/Users/dennismacpro/Projects/Defi/Ethereum-Solidity-Collection/icarus-protocol/defi-seeder/.tmp/chain-link/LinkToken/contracts/v0.4/token/linkBasicToken.sol\":587:595  balances */\n      0x1\n        /* \"/Users/dennismacpro/Projects/Defi/Ethereum-Solidity-Collection/icarus-protocol/defi-seeder/.tmp/chain-link/LinkToken/contracts/v0.4/token/linkBasicToken.sol\":587:600  balances[_to] */\n      0x20\n      mstore\n      0x40\n      swap1\n      dup2\n      swap1\n      keccak256\n        /* \"/Users/dennismacpro/Projects/Defi/Ethereum-Solidity-Collection/icarus-protocol/defi-seeder/.tmp/chain-link/LinkToken/contracts/v0.4/token/linkBasicToken.sol\":587:628  balances[_to] = balances[_to].add(_value) */\n      swap4\n      swap1\n      swap4\n      sstore\n        /* \"/Users/dennismacpro/Projects/Defi/Ethereum-Solidity-Collection/icarus-protocol/defi-seeder/.tmp/chain-link/LinkToken/contracts/v0.4/token/linkBasicToken.sol\":587:600  balances[_to] */\n      swap2\n        /* \"/Users/dennismacpro/Projects/Defi/Ethereum-Solidity-Collection/icarus-protocol/defi-seeder/.tmp/chain-link/LinkToken/contracts/v0.4/token/linkBasicToken.sol\":643:653  msg.sender */\n      caller\n        /* \"/Users/dennismacpro/Projects/Defi/Ethereum-Solidity-Collection/icarus-protocol/defi-seeder/.tmp/chain-link/LinkToken/contracts/v0.4/token/linkBasicToken.sol\":634:667  Transfer(msg.sender, _to, _value) */\n      swap1\n      swap2\n      and\n      swap1\n      0xddf252ad1be2c89b69c2b068fc378daa952ba7f163c4a11628f55a4df523b3ef\n      swap1\n        /* \"/Users/dennismacpro/Projects/Defi/Ethereum-Solidity-Collection/icarus-protocol/defi-seeder/.tmp/chain-link/LinkToken/contracts/v0.4/token/linkBasicToken.sol\":660:666  _value */\n      dup6\n      swap1\n        /* \"/Users/dennismacpro/Projects/Defi/Ethereum-Solidity-Collection/icarus-protocol/defi-seeder/.tmp/chain-link/LinkToken/contracts/v0.4/token/linkBasicToken.sol\":634:667  Transfer(msg.sender, _to, _value) */\n      mload\n      swap1\n      dup2\n      mstore\n      0x20\n      add\n      mload(0x40)\n      dup1\n      swap2\n      sub\n      swap1\n      log3\n      pop\n        /* \"/Users/dennismacpro/Projects/Defi/Ethereum-Solidity-Collection/icarus-protocol/defi-seeder/.tmp/chain-link/LinkToken/contracts/v0.4/token/linkBasicToken.sol\":680:684  true */\n      0x1\n        /* \"/Users/dennismacpro/Projects/Defi/Ethereum-Solidity-Collection/icarus-protocol/defi-seeder/.tmp/chain-link/LinkToken/contracts/v0.4/token/linkBasicToken.sol\":458:689  function transfer(address _to, uint256 _value) returns (bool) {... */\n    tag_110:\n      swap3\n      swap2\n      pop\n      pop\n      jump\t// out\n        /* \"/Users/dennismacpro/Projects/Defi/Ethereum-Solidity-Collection/icarus-protocol/defi-seeder/.tmp/chain-link/LinkToken/contracts/v0.4/math/linkSafeMath.sol\":684:817  function add(uint256 a, uint256 b) internal constant returns (uint256) {... */\n    tag_90:\n        /* \"/Users/dennismacpro/Projects/Defi/Ethereum-Solidity-Collection/icarus-protocol/defi-seeder/.tmp/chain-link/LinkToken/contracts/v0.4/math/linkSafeMath.sol\":746:753  uint256 */\n      0x0\n        /* \"/Users/dennismacpro/Projects/Defi/Ethereum-Solidity-Collection/icarus-protocol/defi-seeder/.tmp/chain-link/LinkToken/contracts/v0.4/math/linkSafeMath.sol\":773:778  a + b */\n      dup3\n      dup3\n      add\n        /* \"/Users/dennismacpro/Projects/Defi/Ethereum-Solidity-Collection/icarus-protocol/defi-seeder/.tmp/chain-link/LinkToken/contracts/v0.4/math/linkSafeMath.sol\":791:797  c >= a */\n      dup4\n      dup2\n      lt\n      iszero\n        /* \"/Users/dennismacpro/Projects/Defi/Ethereum-Solidity-Collection/icarus-protocol/defi-seeder/.tmp/chain-link/LinkToken/contracts/v0.4/math/linkSafeMath.sol\":784:798  assert(c >= a) */\n      tag_114\n      jumpi\n      invalid\n    tag_114:\n        /* \"/Users/dennismacpro/Projects/Defi/Ethereum-Solidity-Collection/icarus-protocol/defi-seeder/.tmp/chain-link/LinkToken/contracts/v0.4/math/linkSafeMath.sol\":811:812  c */\n      dup1\n        /* \"/Users/dennismacpro/Projects/Defi/Ethereum-Solidity-Collection/icarus-protocol/defi-seeder/.tmp/chain-link/LinkToken/contracts/v0.4/math/linkSafeMath.sol\":804:812  return c */\n      swap2\n      pop\n        /* \"/Users/dennismacpro/Projects/Defi/Ethereum-Solidity-Collection/icarus-protocol/defi-seeder/.tmp/chain-link/LinkToken/contracts/v0.4/math/linkSafeMath.sol\":684:817  function add(uint256 a, uint256 b) internal constant returns (uint256) {... */\n    tag_113:\n      pop\n      swap3\n      swap2\n      pop\n      pop\n      jump\t// out\n        /* \"/Users/dennismacpro/Projects/Defi/Ethereum-Solidity-Collection/icarus-protocol/defi-seeder/.tmp/chain-link/LinkToken/contracts/v0.4/ERC677Token.sol\":900:1067  function isContract(address _addr)... */\n    tag_104:\n        /* \"/Users/dennismacpro/Projects/Defi/Ethereum-Solidity-Collection/icarus-protocol/defi-seeder/.tmp/chain-link/LinkToken/contracts/v0.4/ERC677Token.sol\":960:972  bool hasCode */\n      0x0\n        /* \"/Users/dennismacpro/Projects/Defi/Ethereum-Solidity-Collection/icarus-protocol/defi-seeder/.tmp/chain-link/LinkToken/contracts/v0.4/ERC677Token.sol\":1020:1031  extcodesize */\n      dup2\n      extcodesize\n        /* \"/Users/dennismacpro/Projects/Defi/Ethereum-Solidity-Collection/icarus-protocol/defi-seeder/.tmp/chain-link/LinkToken/contracts/v0.4/ERC677Token.sol\":1052:1062  length > 0 */\n      swap1\n      dup2\n      gt\n      swap1\n        /* \"/Users/dennismacpro/Projects/Defi/Ethereum-Solidity-Collection/icarus-protocol/defi-seeder/.tmp/chain-link/LinkToken/contracts/v0.4/ERC677Token.sol\":900:1067  function isContract(address _addr)... */\n    tag_115:\n      pop\n      swap2\n      swap1\n      pop\n      jump\t// out\n        /* \"/Users/dennismacpro/Projects/Defi/Ethereum-Solidity-Collection/icarus-protocol/defi-seeder/.tmp/chain-link/LinkToken/contracts/v0.4/ERC677Token.sol\":704:896  function contractFallback(address _to, uint _value, bytes _data)... */\n    tag_107:\n        /* \"/Users/dennismacpro/Projects/Defi/Ethereum-Solidity-Collection/icarus-protocol/defi-seeder/.tmp/chain-link/LinkToken/contracts/v0.4/ERC677Token.sol\":830:833  _to */\n      dup3\n      sub(exp(0x2, 0xa0), 0x1)\n        /* \"/Users/dennismacpro/Projects/Defi/Ethereum-Solidity-Collection/icarus-protocol/defi-seeder/.tmp/chain-link/LinkToken/contracts/v0.4/ERC677Token.sol\":840:864  receiver.onTokenTransfer */\n      dup2\n      and\n      0xa4c0ed36\n        /* \"/Users/dennismacpro/Projects/Defi/Ethereum-Solidity-Collection/icarus-protocol/defi-seeder/.tmp/chain-link/LinkToken/contracts/v0.4/ERC677Token.sol\":865:875  msg.sender */\n      caller\n        /* \"/Users/dennismacpro/Projects/Defi/Ethereum-Solidity-Collection/icarus-protocol/defi-seeder/.tmp/chain-link/LinkToken/contracts/v0.4/ERC677Token.sol\":877:883  _value */\n      dup6\n        /* \"/Users/dennismacpro/Projects/Defi/Ethereum-Solidity-Collection/icarus-protocol/defi-seeder/.tmp/chain-link/LinkToken/contracts/v0.4/ERC677Token.sol\":885:890  _data */\n      dup6\n        /* \"/Users/dennismacpro/Projects/Defi/Ethereum-Solidity-Collection/icarus-protocol/defi-seeder/.tmp/chain-link/LinkToken/contracts/v0.4/ERC677Token.sol\":840:891  receiver.onTokenTransfer(msg.sender, _value, _data) */\n      mload(0x40)\n      dup5\n      0xffffffff\n      and\n      0x100000000000000000000000000000000000000000000000000000000\n      mul\n      dup2\n      mstore\n      0x4\n      add\n      dup1\n      dup5\n      sub(exp(0x2, 0xa0), 0x1)\n      and\n      sub(exp(0x2, 0xa0), 0x1)\n      and\n      dup2\n      mstore\n      0x20\n      add\n      dup4\n      dup2\n      mstore\n      0x20\n      add\n      dup1\n      0x20\n      add\n      dup3\n      dup2\n      sub\n      dup3\n      mstore\n      dup4\n      dup2\n      dup2\n      mload\n      dup2\n      mstore\n      0x20\n      add\n      swap2\n      pop\n      dup1\n      mload\n      swap1\n      0x20\n      add\n      swap1\n      dup1\n      dup4\n      dup4\n        /* \"--CODEGEN--\":23:24   */\n      0x0\n        /* \"--CODEGEN--\":8:108   */\n    tag_117:\n        /* \"--CODEGEN--\":33:36   */\n      dup4\n        /* \"--CODEGEN--\":30:31   */\n      dup2\n        /* \"--CODEGEN--\":27:29   */\n      lt\n        /* \"--CODEGEN--\":8:108   */\n      iszero\n      tag_118\n      jumpi\n        /* \"--CODEGEN--\":99:100   */\n      dup1\n        /* \"--CODEGEN--\":94:97   */\n      dup3\n        /* \"--CODEGEN--\":90:93   */\n      add\n        /* \"--CODEGEN--\":84:89   */\n      mload\n        /* \"--CODEGEN--\":80:81   */\n      dup2\n        /* \"--CODEGEN--\":75:78   */\n      dup5\n        /* \"--CODEGEN--\":71:74   */\n      add\n        /* \"--CODEGEN--\":64:70   */\n      mstore\n        /* \"--CODEGEN--\":8:108   */\n    tag_119:\n        /* \"--CODEGEN--\":52:54   */\n      0x20\n        /* \"--CODEGEN--\":45:48   */\n      add\n        /* \"--CODEGEN--\":8:108   */\n      jump(tag_117)\n    tag_118:\n        /* \"--CODEGEN--\":12:26   */\n      pop\n        /* \"--CODEGEN--\":3:112   */\n      pop\n      pop\n      pop\n      swap1\n      pop\n      swap1\n      dup2\n      add\n      swap1\n      0x1f\n      and\n      dup1\n      iszero\n      tag_120\n      jumpi\n      dup1\n      dup3\n      sub\n      dup1\n      mload\n      0x1\n      dup4\n      0x20\n      sub\n      0x100\n      exp\n      sub\n      not\n      and\n      dup2\n      mstore\n      0x20\n      add\n      swap2\n      pop\n    tag_120:\n      pop\n      swap5\n      pop\n      pop\n      pop\n      pop\n      pop\n      0x0\n      mload(0x40)\n      dup1\n      dup4\n      sub\n      dup2\n      0x0\n      dup8\n      dup1\n      extcodesize\n      iszero\n      iszero\n      tag_121\n      jumpi\n      0x0\n      dup1\n      revert\n    tag_121:\n      sub(gas, 0x2c6)\n      call\n      iszero\n      iszero\n      tag_122\n      jumpi\n      0x0\n      dup1\n      revert\n    tag_122:\n      pop\n      pop\n      pop\n        /* \"/Users/dennismacpro/Projects/Defi/Ethereum-Solidity-Collection/icarus-protocol/defi-seeder/.tmp/chain-link/LinkToken/contracts/v0.4/ERC677Token.sol\":704:896  function contractFallback(address _to, uint _value, bytes _data)... */\n    tag_116:\n      pop\n      pop\n      pop\n      pop\n      jump\t// out\n\n    auxdata: 0xa165627a7a723058208f7615c3b27bbc62770dc23a97687f25e1c4b4284dc8b40b7f153bd201e30c920029\n}\n",
			"bytecode": {
				"linkReferences": {},
				"object": "0x6060604052341561000f57600080fd5b5b600160a060020a03331660009081526001602052604090206b033b2e3c9fd0803ce800000090555b5b610c51806100486000396000f300606060405236156100b75763ffffffff7c010000000000000000000000000000000000000000000000000000000060003504166306fdde0381146100bc578063095ea7b31461014757806318160ddd1461017d57806323b872dd146101a2578063313ce567146101de5780634000aea014610207578063661884631461028057806370a08231146102b657806395d89b41146102e7578063a9059cbb14610372578063d73dd623146103a8578063dd62ed3e146103de575b600080fd5b34156100c757600080fd5b6100cf610415565b60405160208082528190810183818151815260200191508051906020019080838360005b8381101561010c5780820151818401525b6020016100f3565b50505050905090810190601f1680156101395780820380516001836020036101000a031916815260200191505b509250505060405180910390f35b341561015257600080fd5b610169600160a060020a036004351660243561044c565b604051901515815260200160405180910390f35b341561018857600080fd5b610190610499565b60405190815260200160405180910390f35b34156101ad57600080fd5b610169600160a060020a03600435811690602435166044356104a9565b604051901515815260200160405180910390f35b34156101e957600080fd5b6101f16104f8565b60405160ff909116815260200160405180910390f35b341561021257600080fd5b61016960048035600160a060020a03169060248035919060649060443590810190830135806020601f820181900481020160405190810160405281815292919060208401838380828437509496506104fd95505050505050565b604051901515815260200160405180910390f35b341561028b57600080fd5b610169600160a060020a036004351660243561054c565b604051901515815260200160405180910390f35b34156102c157600080fd5b610190600160a060020a0360043516610648565b60405190815260200160405180910390f35b34156102f257600080fd5b6100cf610667565b60405160208082528190810183818151815260200191508051906020019080838360005b8381101561010c5780820151818401525b6020016100f3565b50505050905090810190601f1680156101395780820380516001836020036101000a031916815260200191505b509250505060405180910390f35b341561037d57600080fd5b610169600160a060020a036004351660243561069e565b604051901515815260200160405180910390f35b34156103b357600080fd5b610169600160a060020a03600435166024356106eb565b604051901515815260200160405180910390f35b34156103e957600080fd5b610190600160a060020a0360043581169060243516610790565b60405190815260200160405180910390f35b60408051908101604052600f81527f436861696e4c696e6b20546f6b656e0000000000000000000000000000000000602082015281565b600082600160a060020a03811615801590610479575030600160a060020a031681600160a060020a031614155b151561048457600080fd5b61048e84846107bd565b91505b5b5092915050565b6b033b2e3c9fd0803ce800000081565b600082600160a060020a038116158015906104d6575030600160a060020a031681600160a060020a031614155b15156104e157600080fd5b6104ec85858561082a565b91505b5b509392505050565b601281565b600083600160a060020a0381161580159061052a575030600160a060020a031681600160a060020a031614155b151561053557600080fd5b6104ec85858561093c565b91505b5b509392505050565b600160a060020a033381166000908152600260209081526040808320938616835292905290812054808311156105a957600160a060020a0333811660009081526002602090815260408083209388168352929052908120556105e0565b6105b9818463ffffffff610a2316565b600160a060020a033381166000908152600260209081526040808320938916835292905220555b600160a060020a0333811660008181526002602090815260408083209489168084529490915290819020547f8c5be1e5ebec7d5bd14f71427d1e84f3dd0314c0f7b2291e5b200ac8c7c3b925915190815260200160405180910390a3600191505b5092915050565b600160a060020a0381166000908152600160205260409020545b919050565b60408051908101604052600481527f4c494e4b00000000000000000000000000000000000000000000000000000000602082015281565b600082600160a060020a038116158015906106cb575030600160a060020a031681600160a060020a031614155b15156106d657600080fd5b61048e8484610a3a565b91505b5b5092915050565b600160a060020a033381166000908152600260209081526040808320938616835292905290812054610723908363ffffffff610afa16565b600160a060020a0333811660008181526002602090815260408083209489168084529490915290819020849055919290917f8c5be1e5ebec7d5bd14f71427d1e84f3dd0314c0f7b2291e5b200ac8c7c3b92591905190815260200160405180910390a35060015b92915050565b600160a060020a038083166000908152600260209081526040808320938516835292905220545b92915050565b600160a060020a03338116600081815260026020908152604080832094871680845294909152808220859055909291907f8c5be1e5ebec7d5bd14f71427d1e84f3dd0314c0f7b2291e5b200ac8c7c3b9259085905190815260200160405180910390a35060015b92915050565b600160a060020a03808416600081815260026020908152604080832033909516835293815283822054928252600190529182205461086e908463ffffffff610a2316565b600160a060020a0380871660009081526001602052604080822093909355908616815220546108a3908463ffffffff610afa16565b600160a060020a0385166000908152600160205260409020556108cc818463ffffffff610a2316565b600160a060020a03808716600081815260026020908152604080832033861684529091529081902093909355908616917fddf252ad1be2c89b69c2b068fc378daa952ba7f163c4a11628f55a4df523b3ef9086905190815260200160405180910390a3600191505b509392505050565b60006109488484610a3a565b5083600160a060020a031633600160a060020a03167fe19260aff97b920c7df27010903aeb9c8d2be5d310a2c67824cf3f15396e4c16858560405182815260406020820181815290820183818151815260200191508051906020019080838360005b838110156109c35780820151818401525b6020016109aa565b50505050905090810190601f1680156109f05780820380516001836020036101000a031916815260200191505b50935050505060405180910390a3610a0784610b14565b15610a1757610a17848484610b23565b5b5060015b9392505050565b600082821115610a2f57fe5b508082035b92915050565b600160a060020a033316600090815260016020526040812054610a63908363ffffffff610a2316565b600160a060020a033381166000908152600160205260408082209390935590851681522054610a98908363ffffffff610afa16565b600160a060020a0380851660008181526001602052604090819020939093559133909116907fddf252ad1be2c89b69c2b068fc378daa952ba7f163c4a11628f55a4df523b3ef9085905190815260200160405180910390a35060015b92915050565b600082820183811015610b0957fe5b8091505b5092915050565b6000813b908111905b50919050565b82600160a060020a03811663a4c0ed363385856040518463ffffffff167c01000000000000000000000000000000000000000000000000000000000281526004018084600160a060020a0316600160a060020a0316815260200183815260200180602001828103825283818151815260200191508051906020019080838360005b83811015610bbd5780820151818401525b602001610ba4565b50505050905090810190601f168015610bea5780820380516001836020036101000a031916815260200191505b50945050505050600060405180830381600087803b1515610c0a57600080fd5b6102c65a03f11515610c1b57600080fd5b5050505b505050505600a165627a7a723058208f7615c3b27bbc62770dc23a97687f25e1c4b4284dc8b40b7f153bd201e30c920029",
				"opcodes": "PUSH1 0x60 PUSH1 0x40 MSTORE CALLVALUE ISZERO PUSH2 0xF JUMPI PUSH1 0x0 DUP1 REVERT JUMPDEST JUMPDEST PUSH1 0x1 PUSH1 0xA0 PUSH1 0x2 EXP SUB CALLER AND PUSH1 0x0 SWAP1 DUP2 MSTORE PUSH1 0x1 PUSH1 0x20 MSTORE PUSH1 0x40 SWAP1 KECCAK256 PUSH12 0x33B2E3C9FD0803CE8000000 SWAP1 SSTORE JUMPDEST JUMPDEST PUSH2 0xC51 DUP1 PUSH2 0x48 PUSH1 0x0 CODECOPY PUSH1 0x0 RETURN STOP PUSH1 0x60 PUSH1 0x40 MSTORE CALLDATASIZE ISZERO PUSH2 0xB7 JUMPI PUSH4 0xFFFFFFFF PUSH29 0x100000000000000000000000000000000000000000000000000000000 PUSH1 0x0 CALLDATALOAD DIV AND PUSH4 0x6FDDE03 DUP2 EQ PUSH2 0xBC JUMPI DUP1 PUSH4 0x95EA7B3 EQ PUSH2 0x147 JUMPI DUP1 PUSH4 0x18160DDD EQ PUSH2 0x17D JUMPI DUP1 PUSH4 0x23B872DD EQ PUSH2 0x1A2 JUMPI DUP1 PUSH4 0x313CE567 EQ PUSH2 0x1DE JUMPI DUP1 PUSH4 0x4000AEA0 EQ PUSH2 0x207 JUMPI DUP1 PUSH4 0x66188463 EQ PUSH2 0x280 JUMPI DUP1 PUSH4 0x70A08231 EQ PUSH2 0x2B6 JUMPI DUP1 PUSH4 0x95D89B41 EQ PUSH2 0x2E7 JUMPI DUP1 PUSH4 0xA9059CBB EQ PUSH2 0x372 JUMPI DUP1 PUSH4 0xD73DD623 EQ PUSH2 0x3A8 JUMPI DUP1 PUSH4 0xDD62ED3E EQ PUSH2 0x3DE JUMPI JUMPDEST PUSH1 0x0 DUP1 REVERT JUMPDEST CALLVALUE ISZERO PUSH2 0xC7 JUMPI PUSH1 0x0 DUP1 REVERT JUMPDEST PUSH2 0xCF PUSH2 0x415 JUMP JUMPDEST PUSH1 0x40 MLOAD PUSH1 0x20 DUP1 DUP3 MSTORE DUP2 SWAP1 DUP2 ADD DUP4 DUP2 DUP2 MLOAD DUP2 MSTORE PUSH1 0x20 ADD SWAP2 POP DUP1 MLOAD SWAP1 PUSH1 0x20 ADD SWAP1 DUP1 DUP4 DUP4 PUSH1 0x0 JUMPDEST DUP4 DUP2 LT ISZERO PUSH2 0x10C JUMPI DUP1 DUP3 ADD MLOAD DUP2 DUP5 ADD MSTORE JUMPDEST PUSH1 0x20 ADD PUSH2 0xF3 JUMP JUMPDEST POP POP POP POP SWAP1 POP SWAP1 DUP2 ADD SWAP1 PUSH1 0x1F AND DUP1 ISZERO PUSH2 0x139 JUMPI DUP1 DUP3 SUB DUP1 MLOAD PUSH1 0x1 DUP4 PUSH1 0x20 SUB PUSH2 0x100 EXP SUB NOT AND DUP2 MSTORE PUSH1 0x20 ADD SWAP2 POP JUMPDEST POP SWAP3 POP POP POP PUSH1 0x40 MLOAD DUP1 SWAP2 SUB SWAP1 RETURN JUMPDEST CALLVALUE ISZERO PUSH2 0x152 JUMPI PUSH1 0x0 DUP1 REVERT JUMPDEST PUSH2 0x169 PUSH1 0x1 PUSH1 0xA0 PUSH1 0x2 EXP SUB PUSH1 0x4 CALLDATALOAD AND PUSH1 0x24 CALLDATALOAD PUSH2 0x44C JUMP JUMPDEST PUSH1 0x40 MLOAD SWAP1 ISZERO ISZERO DUP2 MSTORE PUSH1 0x20 ADD PUSH1 0x40 MLOAD DUP1 SWAP2 SUB SWAP1 RETURN JUMPDEST CALLVALUE ISZERO PUSH2 0x188 JUMPI PUSH1 0x0 DUP1 REVERT JUMPDEST PUSH2 0x190 PUSH2 0x499 JUMP JUMPDEST PUSH1 0x40 MLOAD SWAP1 DUP2 MSTORE PUSH1 0x20 ADD PUSH1 0x40 MLOAD DUP1 SWAP2 SUB SWAP1 RETURN JUMPDEST CALLVALUE ISZERO PUSH2 0x1AD JUMPI PUSH1 0x0 DUP1 REVERT JUMPDEST PUSH2 0x169 PUSH1 0x1 PUSH1 0xA0 PUSH1 0x2 EXP SUB PUSH1 0x4 CALLDATALOAD DUP2 AND SWAP1 PUSH1 0x24 CALLDATALOAD AND PUSH1 0x44 CALLDATALOAD PUSH2 0x4A9 JUMP JUMPDEST PUSH1 0x40 MLOAD SWAP1 ISZERO ISZERO DUP2 MSTORE PUSH1 0x20 ADD PUSH1 0x40 MLOAD DUP1 SWAP2 SUB SWAP1 RETURN JUMPDEST CALLVALUE ISZERO PUSH2 0x1E9 JUMPI PUSH1 0x0 DUP1 REVERT JUMPDEST PUSH2 0x1F1 PUSH2 0x4F8 JUMP JUMPDEST PUSH1 0x40 MLOAD PUSH1 0xFF SWAP1 SWAP2 AND DUP2 MSTORE PUSH1 0x20 ADD PUSH1 0x40 MLOAD DUP1 SWAP2 SUB SWAP1 RETURN JUMPDEST CALLVALUE ISZERO PUSH2 0x212 JUMPI PUSH1 0x0 DUP1 REVERT JUMPDEST PUSH2 0x169 PUSH1 0x4 DUP1 CALLDATALOAD PUSH1 0x1 PUSH1 0xA0 PUSH1 0x2 EXP SUB AND SWAP1 PUSH1 0x24 DUP1 CALLDATALOAD SWAP2 SWAP1 PUSH1 0x64 SWAP1 PUSH1 0x44 CALLDATALOAD SWAP1 DUP2 ADD SWAP1 DUP4 ADD CALLDATALOAD DUP1 PUSH1 0x20 PUSH1 0x1F DUP3 ADD DUP2 SWAP1 DIV DUP2 MUL ADD PUSH1 0x40 MLOAD SWAP1 DUP2 ADD PUSH1 0x40 MSTORE DUP2 DUP2 MSTORE SWAP3 SWAP2 SWAP1 PUSH1 0x20 DUP5 ADD DUP4 DUP4 DUP1 DUP3 DUP5 CALLDATACOPY POP SWAP5 SWAP7 POP PUSH2 0x4FD SWAP6 POP POP POP POP POP POP JUMP JUMPDEST PUSH1 0x40 MLOAD SWAP1 ISZERO ISZERO DUP2 MSTORE PUSH1 0x20 ADD PUSH1 0x40 MLOAD DUP1 SWAP2 SUB SWAP1 RETURN JUMPDEST CALLVALUE ISZERO PUSH2 0x28B JUMPI PUSH1 0x0 DUP1 REVERT JUMPDEST PUSH2 0x169 PUSH1 0x1 PUSH1 0xA0 PUSH1 0x2 EXP SUB PUSH1 0x4 CALLDATALOAD AND PUSH1 0x24 CALLDATALOAD PUSH2 0x54C JUMP JUMPDEST PUSH1 0x40 MLOAD SWAP1 ISZERO ISZERO DUP2 MSTORE PUSH1 0x20 ADD PUSH1 0x40 MLOAD DUP1 SWAP2 SUB SWAP1 RETURN JUMPDEST CALLVALUE ISZERO PUSH2 0x2C1 JUMPI PUSH1 0x0 DUP1 REVERT JUMPDEST PUSH2 0x190 PUSH1 0x1 PUSH1 0xA0 PUSH1 0x2 EXP SUB PUSH1 0x4 CALLDATALOAD AND PUSH2 0x648 JUMP JUMPDEST PUSH1 0x40 MLOAD SWAP1 DUP2 MSTORE PUSH1 0x20 ADD PUSH1 0x40 MLOAD DUP1 SWAP2 SUB SWAP1 RETURN JUMPDEST CALLVALUE ISZERO PUSH2 0x2F2 JUMPI PUSH1 0x0 DUP1 REVERT JUMPDEST PUSH2 0xCF PUSH2 0x667 JUMP JUMPDEST PUSH1 0x40 MLOAD PUSH1 0x20 DUP1 DUP3 MSTORE DUP2 SWAP1 DUP2 ADD DUP4 DUP2 DUP2 MLOAD DUP2 MSTORE PUSH1 0x20 ADD SWAP2 POP DUP1 MLOAD SWAP1 PUSH1 0x20 ADD SWAP1 DUP1 DUP4 DUP4 PUSH1 0x0 JUMPDEST DUP4 DUP2 LT ISZERO PUSH2 0x10C JUMPI DUP1 DUP3 ADD MLOAD DUP2 DUP5 ADD MSTORE JUMPDEST PUSH1 0x20 ADD PUSH2 0xF3 JUMP JUMPDEST POP POP POP POP SWAP1 POP SWAP1 DUP2 ADD SWAP1 PUSH1 0x1F AND DUP1 ISZERO PUSH2 0x139 JUMPI DUP1 DUP3 SUB DUP1 MLOAD PUSH1 0x1 DUP4 PUSH1 0x20 SUB PUSH2 0x100 EXP SUB NOT AND DUP2 MSTORE PUSH1 0x20 ADD SWAP2 POP JUMPDEST POP SWAP3 POP POP POP PUSH1 0x40 MLOAD DUP1 SWAP2 SUB SWAP1 RETURN JUMPDEST CALLVALUE ISZERO PUSH2 0x37D JUMPI PUSH1 0x0 DUP1 REVERT JUMPDEST PUSH2 0x169 PUSH1 0x1 PUSH1 0xA0 PUSH1 0x2 EXP SUB PUSH1 0x4 CALLDATALOAD AND PUSH1 0x24 CALLDATALOAD PUSH2 0x69E JUMP JUMPDEST PUSH1 0x40 MLOAD SWAP1 ISZERO ISZERO DUP2 MSTORE PUSH1 0x20 ADD PUSH1 0x40 MLOAD DUP1 SWAP2 SUB SWAP1 RETURN JUMPDEST CALLVALUE ISZERO PUSH2 0x3B3 JUMPI PUSH1 0x0 DUP1 REVERT JUMPDEST PUSH2 0x169 PUSH1 0x1 PUSH1 0xA0 PUSH1 0x2 EXP SUB PUSH1 0x4 CALLDATALOAD AND PUSH1 0x24 CALLDATALOAD PUSH2 0x6EB JUMP JUMPDEST PUSH1 0x40 MLOAD SWAP1 ISZERO ISZERO DUP2 MSTORE PUSH1 0x20 ADD PUSH1 0x40 MLOAD DUP1 SWAP2 SUB SWAP1 RETURN JUMPDEST CALLVALUE ISZERO PUSH2 0x3E9 JUMPI PUSH1 0x0 DUP1 REVERT JUMPDEST PUSH2 0x190 PUSH1 0x1 PUSH1 0xA0 PUSH1 0x2 EXP SUB PUSH1 0x4 CALLDATALOAD DUP2 AND SWAP1 PUSH1 0x24 CALLDATALOAD AND PUSH2 0x790 JUMP JUMPDEST PUSH1 0x40 MLOAD SWAP1 DUP2 MSTORE PUSH1 0x20 ADD PUSH1 0x40 MLOAD DUP1 SWAP2 SUB SWAP1 RETURN JUMPDEST PUSH1 0x40 DUP1 MLOAD SWAP1 DUP2 ADD PUSH1 0x40 MSTORE PUSH1 0xF DUP2 MSTORE PUSH32 0x436861696E4C696E6B20546F6B656E0000000000000000000000000000000000 PUSH1 0x20 DUP3 ADD MSTORE DUP2 JUMP JUMPDEST PUSH1 0x0 DUP3 PUSH1 0x1 PUSH1 0xA0 PUSH1 0x2 EXP SUB DUP2 AND ISZERO DUP1 ISZERO SWAP1 PUSH2 0x479 JUMPI POP ADDRESS PUSH1 0x1 PUSH1 0xA0 PUSH1 0x2 EXP SUB AND DUP2 PUSH1 0x1 PUSH1 0xA0 PUSH1 0x2 EXP SUB AND EQ ISZERO JUMPDEST ISZERO ISZERO PUSH2 0x484 JUMPI PUSH1 0x0 DUP1 REVERT JUMPDEST PUSH2 0x48E DUP5 DUP5 PUSH2 0x7BD JUMP JUMPDEST SWAP2 POP JUMPDEST JUMPDEST POP SWAP3 SWAP2 POP POP JUMP JUMPDEST PUSH12 0x33B2E3C9FD0803CE8000000 DUP2 JUMP JUMPDEST PUSH1 0x0 DUP3 PUSH1 0x1 PUSH1 0xA0 PUSH1 0x2 EXP SUB DUP2 AND ISZERO DUP1 ISZERO SWAP1 PUSH2 0x4D6 JUMPI POP ADDRESS PUSH1 0x1 PUSH1 0xA0 PUSH1 0x2 EXP SUB AND DUP2 PUSH1 0x1 PUSH1 0xA0 PUSH1 0x2 EXP SUB AND EQ ISZERO JUMPDEST ISZERO ISZERO PUSH2 0x4E1 JUMPI PUSH1 0x0 DUP1 REVERT JUMPDEST PUSH2 0x4EC DUP6 DUP6 DUP6 PUSH2 0x82A JUMP JUMPDEST SWAP2 POP JUMPDEST JUMPDEST POP SWAP4 SWAP3 POP POP POP JUMP JUMPDEST PUSH1 0x12 DUP2 JUMP JUMPDEST PUSH1 0x0 DUP4 PUSH1 0x1 PUSH1 0xA0 PUSH1 0x2 EXP SUB DUP2 AND ISZERO DUP1 ISZERO SWAP1 PUSH2 0x52A JUMPI POP ADDRESS PUSH1 0x1 PUSH1 0xA0 PUSH1 0x2 EXP SUB AND DUP2 PUSH1 0x1 PUSH1 0xA0 PUSH1 0x2 EXP SUB AND EQ ISZERO JUMPDEST ISZERO ISZERO PUSH2 0x535 JUMPI PUSH1 0x0 DUP1 REVERT JUMPDEST PUSH2 0x4EC DUP6 DUP6 DUP6 PUSH2 0x93C JUMP JUMPDEST SWAP2 POP JUMPDEST JUMPDEST POP SWAP4 SWAP3 POP POP POP JUMP JUMPDEST PUSH1 0x1 PUSH1 0xA0 PUSH1 0x2 EXP SUB CALLER DUP2 AND PUSH1 0x0 SWAP1 DUP2 MSTORE PUSH1 0x2 PUSH1 0x20 SWAP1 DUP2 MSTORE PUSH1 0x40 DUP1 DUP4 KECCAK256 SWAP4 DUP7 AND DUP4 MSTORE SWAP3 SWAP1 MSTORE SWAP1 DUP2 KECCAK256 SLOAD DUP1 DUP4 GT ISZERO PUSH2 0x5A9 JUMPI PUSH1 0x1 PUSH1 0xA0 PUSH1 0x2 EXP SUB CALLER DUP2 AND PUSH1 0x0 SWAP1 DUP2 MSTORE PUSH1 0x2 PUSH1 0x20 SWAP1 DUP2 MSTORE PUSH1 0x40 DUP1 DUP4 KECCAK256 SWAP4 DUP9 AND DUP4 MSTORE SWAP3 SWAP1 MSTORE SWAP1 DUP2 KECCAK256 SSTORE PUSH2 0x5E0 JUMP JUMPDEST PUSH2 0x5B9 DUP2 DUP5 PUSH4 0xFFFFFFFF PUSH2 0xA23 AND JUMP JUMPDEST PUSH1 0x1 PUSH1 0xA0 PUSH1 0x2 EXP SUB CALLER DUP2 AND PUSH1 0x0 SWAP1 DUP2 MSTORE PUSH1 0x2 PUSH1 0x20 SWAP1 DUP2 MSTORE PUSH1 0x40 DUP1 DUP4 KECCAK256 SWAP4 DUP10 AND DUP4 MSTORE SWAP3 SWAP1 MSTORE KECCAK256 SSTORE JUMPDEST PUSH1 0x1 PUSH1 0xA0 PUSH1 0x2 EXP SUB CALLER DUP2 AND PUSH1 0x0 DUP2 DUP2 MSTORE PUSH1 0x2 PUSH1 0x20 SWAP1 DUP2 MSTORE PUSH1 0x40 DUP1 DUP4 KECCAK256 SWAP5 DUP10 AND DUP1 DUP5 MSTORE SWAP5 SWAP1 SWAP2 MSTORE SWAP1 DUP2 SWAP1 KECCAK256 SLOAD PUSH32 0x8C5BE1E5EBEC7D5BD14F71427D1E84F3DD0314C0F7B2291E5B200AC8C7C3B925 SWAP2 MLOAD SWAP1 DUP2 MSTORE PUSH1 0x20 ADD PUSH1 0x40 MLOAD DUP1 SWAP2 SUB SWAP1 LOG3 PUSH1 0x1 SWAP2 POP JUMPDEST POP SWAP3 SWAP2 POP POP JUMP JUMPDEST PUSH1 0x1 PUSH1 0xA0 PUSH1 0x2 EXP SUB DUP2 AND PUSH1 0x0 SWAP1 DUP2 MSTORE PUSH1 0x1 PUSH1 0x20 MSTORE PUSH1 0x40 SWAP1 KECCAK256 SLOAD JUMPDEST SWAP2 SWAP1 POP JUMP JUMPDEST PUSH1 0x40 DUP1 MLOAD SWAP1 DUP2 ADD PUSH1 0x40 MSTORE PUSH1 0x4 DUP2 MSTORE PUSH32 0x4C494E4B00000000000000000000000000000000000000000000000000000000 PUSH1 0x20 DUP3 ADD MSTORE DUP2 JUMP JUMPDEST PUSH1 0x0 DUP3 PUSH1 0x1 PUSH1 0xA0 PUSH1 0x2 EXP SUB DUP2 AND ISZERO DUP1 ISZERO SWAP1 PUSH2 0x6CB JUMPI POP ADDRESS PUSH1 0x1 PUSH1 0xA0 PUSH1 0x2 EXP SUB AND DUP2 PUSH1 0x1 PUSH1 0xA0 PUSH1 0x2 EXP SUB AND EQ ISZERO JUMPDEST ISZERO ISZERO PUSH2 0x6D6 JUMPI PUSH1 0x0 DUP1 REVERT JUMPDEST PUSH2 0x48E DUP5 DUP5 PUSH2 0xA3A JUMP JUMPDEST SWAP2 POP JUMPDEST JUMPDEST POP SWAP3 SWAP2 POP POP JUMP JUMPDEST PUSH1 0x1 PUSH1 0xA0 PUSH1 0x2 EXP SUB CALLER DUP2 AND PUSH1 0x0 SWAP1 DUP2 MSTORE PUSH1 0x2 PUSH1 0x20 SWAP1 DUP2 MSTORE PUSH1 0x40 DUP1 DUP4 KECCAK256 SWAP4 DUP7 AND DUP4 MSTORE SWAP3 SWAP1 MSTORE SWAP1 DUP2 KECCAK256 SLOAD PUSH2 0x723 SWAP1 DUP4 PUSH4 0xFFFFFFFF PUSH2 0xAFA AND JUMP JUMPDEST PUSH1 0x1 PUSH1 0xA0 PUSH1 0x2 EXP SUB CALLER DUP2 AND PUSH1 0x0 DUP2 DUP2 MSTORE PUSH1 0x2 PUSH1 0x20 SWAP1 DUP2 MSTORE PUSH1 0x40 DUP1 DUP4 KECCAK256 SWAP5 DUP10 AND DUP1 DUP5 MSTORE SWAP5 SWAP1 SWAP2 MSTORE SWAP1 DUP2 SWAP1 KECCAK256 DUP5 SWAP1 SSTORE SWAP2 SWAP3 SWAP1 SWAP2 PUSH32 0x8C5BE1E5EBEC7D5BD14F71427D1E84F3DD0314C0F7B2291E5B200AC8C7C3B925 SWAP2 SWAP1 MLOAD SWAP1 DUP2 MSTORE PUSH1 0x20 ADD PUSH1 0x40 MLOAD DUP1 SWAP2 SUB SWAP1 LOG3 POP PUSH1 0x1 JUMPDEST SWAP3 SWAP2 POP POP JUMP JUMPDEST PUSH1 0x1 PUSH1 0xA0 PUSH1 0x2 EXP SUB DUP1 DUP4 AND PUSH1 0x0 SWAP1 DUP2 MSTORE PUSH1 0x2 PUSH1 0x20 SWAP1 DUP2 MSTORE PUSH1 0x40 DUP1 DUP4 KECCAK256 SWAP4 DUP6 AND DUP4 MSTORE SWAP3 SWAP1 MSTORE KECCAK256 SLOAD JUMPDEST SWAP3 SWAP2 POP POP JUMP JUMPDEST PUSH1 0x1 PUSH1 0xA0 PUSH1 0x2 EXP SUB CALLER DUP2 AND PUSH1 0x0 DUP2 DUP2 MSTORE PUSH1 0x2 PUSH1 0x20 SWAP1 DUP2 MSTORE PUSH1 0x40 DUP1 DUP4 KECCAK256 SWAP5 DUP8 AND DUP1 DUP5 MSTORE SWAP5 SWAP1 SWAP2 MSTORE DUP1 DUP3 KECCAK256 DUP6 SWAP1 SSTORE SWAP1 SWAP3 SWAP2 SWAP1 PUSH32 0x8C5BE1E5EBEC7D5BD14F71427D1E84F3DD0314C0F7B2291E5B200AC8C7C3B925 SWAP1 DUP6 SWAP1 MLOAD SWAP1 DUP2 MSTORE PUSH1 0x20 ADD PUSH1 0x40 MLOAD DUP1 SWAP2 SUB SWAP1 LOG3 POP PUSH1 0x1 JUMPDEST SWAP3 SWAP2 POP POP JUMP JUMPDEST PUSH1 0x1 PUSH1 0xA0 PUSH1 0x2 EXP SUB DUP1 DUP5 AND PUSH1 0x0 DUP2 DUP2 MSTORE PUSH1 0x2 PUSH1 0x20 SWAP1 DUP2 MSTORE PUSH1 0x40 DUP1 DUP4 KECCAK256 CALLER SWAP1 SWAP6 AND DUP4 MSTORE SWAP4 DUP2 MSTORE DUP4 DUP3 KECCAK256 SLOAD SWAP3 DUP3 MSTORE PUSH1 0x1 SWAP1 MSTORE SWAP2 DUP3 KECCAK256 SLOAD PUSH2 0x86E SWAP1 DUP5 PUSH4 0xFFFFFFFF PUSH2 0xA23 AND JUMP JUMPDEST PUSH1 0x1 PUSH1 0xA0 PUSH1 0x2 EXP SUB DUP1 DUP8 AND PUSH1 0x0 SWAP1 DUP2 MSTORE PUSH1 0x1 PUSH1 0x20 MSTORE PUSH1 0x40 DUP1 DUP3 KECCAK256 SWAP4 SWAP1 SWAP4 SSTORE SWAP1 DUP7 AND DUP2 MSTORE KECCAK256 SLOAD PUSH2 0x8A3 SWAP1 DUP5 PUSH4 0xFFFFFFFF PUSH2 0xAFA AND JUMP JUMPDEST PUSH1 0x1 PUSH1 0xA0 PUSH1 0x2 EXP SUB DUP6 AND PUSH1 0x0 SWAP1 DUP2 MSTORE PUSH1 0x1 PUSH1 0x20 MSTORE PUSH1 0x40 SWAP1 KECCAK256 SSTORE PUSH2 0x8CC DUP2 DUP5 PUSH4 0xFFFFFFFF PUSH2 0xA23 AND JUMP JUMPDEST PUSH1 0x1 PUSH1 0xA0 PUSH1 0x2 EXP SUB DUP1 DUP8 AND PUSH1 0x0 DUP2 DUP2 MSTORE PUSH1 0x2 PUSH1 0x20 SWAP1 DUP2 MSTORE PUSH1 0x40 DUP1 DUP4 KECCAK256 CALLER DUP7 AND DUP5 MSTORE SWAP1 SWAP2 MSTORE SWAP1 DUP2 SWAP1 KECCAK256 SWAP4 SWAP1 SWAP4 SSTORE SWAP1 DUP7 AND SWAP2 PUSH32 0xDDF252AD1BE2C89B69C2B068FC378DAA952BA7F163C4A11628F55A4DF523B3EF SWAP1 DUP7 SWAP1 MLOAD SWAP1 DUP2 MSTORE PUSH1 0x20 ADD PUSH1 0x40 MLOAD DUP1 SWAP2 SUB SWAP1 LOG3 PUSH1 0x1 SWAP2 POP JUMPDEST POP SWAP4 SWAP3 POP POP POP JUMP JUMPDEST PUSH1 0x0 PUSH2 0x948 DUP5 DUP5 PUSH2 0xA3A JUMP JUMPDEST POP DUP4 PUSH1 0x1 PUSH1 0xA0 PUSH1 0x2 EXP SUB AND CALLER PUSH1 0x1 PUSH1 0xA0 PUSH1 0x2 EXP SUB AND PUSH32 0xE19260AFF97B920C7DF27010903AEB9C8D2BE5D310A2C67824CF3F15396E4C16 DUP6 DUP6 PUSH1 0x40 MLOAD DUP3 DUP2 MSTORE PUSH1 0x40 PUSH1 0x20 DUP3 ADD DUP2 DUP2 MSTORE SWAP1 DUP3 ADD DUP4 DUP2 DUP2 MLOAD DUP2 MSTORE PUSH1 0x20 ADD SWAP2 POP DUP1 MLOAD SWAP1 PUSH1 0x20 ADD SWAP1 DUP1 DUP4 DUP4 PUSH1 0x0 JUMPDEST DUP4 DUP2 LT ISZERO PUSH2 0x9C3 JUMPI DUP1 DUP3 ADD MLOAD DUP2 DUP5 ADD MSTORE JUMPDEST PUSH1 0x20 ADD PUSH2 0x9AA JUMP JUMPDEST POP POP POP POP SWAP1 POP SWAP1 DUP2 ADD SWAP1 PUSH1 0x1F AND DUP1 ISZERO PUSH2 0x9F0 JUMPI DUP1 DUP3 SUB DUP1 MLOAD PUSH1 0x1 DUP4 PUSH1 0x20 SUB PUSH2 0x100 EXP SUB NOT AND DUP2 MSTORE PUSH1 0x20 ADD SWAP2 POP JUMPDEST POP SWAP4 POP POP POP POP PUSH1 0x40 MLOAD DUP1 SWAP2 SUB SWAP1 LOG3 PUSH2 0xA07 DUP5 PUSH2 0xB14 JUMP JUMPDEST ISZERO PUSH2 0xA17 JUMPI PUSH2 0xA17 DUP5 DUP5 DUP5 PUSH2 0xB23 JUMP JUMPDEST JUMPDEST POP PUSH1 0x1 JUMPDEST SWAP4 SWAP3 POP POP POP JUMP JUMPDEST PUSH1 0x0 DUP3 DUP3 GT ISZERO PUSH2 0xA2F JUMPI INVALID JUMPDEST POP DUP1 DUP3 SUB JUMPDEST SWAP3 SWAP2 POP POP JUMP JUMPDEST PUSH1 0x1 PUSH1 0xA0 PUSH1 0x2 EXP SUB CALLER AND PUSH1 0x0 SWAP1 DUP2 MSTORE PUSH1 0x1 PUSH1 0x20 MSTORE PUSH1 0x40 DUP2 KECCAK256 SLOAD PUSH2 0xA63 SWAP1 DUP4 PUSH4 0xFFFFFFFF PUSH2 0xA23 AND JUMP JUMPDEST PUSH1 0x1 PUSH1 0xA0 PUSH1 0x2 EXP SUB CALLER DUP2 AND PUSH1 0x0 SWAP1 DUP2 MSTORE PUSH1 0x1 PUSH1 0x20 MSTORE PUSH1 0x40 DUP1 DUP3 KECCAK256 SWAP4 SWAP1 SWAP4 SSTORE SWAP1 DUP6 AND DUP2 MSTORE KECCAK256 SLOAD PUSH2 0xA98 SWAP1 DUP4 PUSH4 0xFFFFFFFF PUSH2 0xAFA AND JUMP JUMPDEST PUSH1 0x1 PUSH1 0xA0 PUSH1 0x2 EXP SUB DUP1 DUP6 AND PUSH1 0x0 DUP2 DUP2 MSTORE PUSH1 0x1 PUSH1 0x20 MSTORE PUSH1 0x40 SWAP1 DUP2 SWAP1 KECCAK256 SWAP4 SWAP1 SWAP4 SSTORE SWAP2 CALLER SWAP1 SWAP2 AND SWAP1 PUSH32 0xDDF252AD1BE2C89B69C2B068FC378DAA952BA7F163C4A11628F55A4DF523B3EF SWAP1 DUP6 SWAP1 MLOAD SWAP1 DUP2 MSTORE PUSH1 0x20 ADD PUSH1 0x40 MLOAD DUP1 SWAP2 SUB SWAP1 LOG3 POP PUSH1 0x1 JUMPDEST SWAP3 SWAP2 POP POP JUMP JUMPDEST PUSH1 0x0 DUP3 DUP3 ADD DUP4 DUP2 LT ISZERO PUSH2 0xB09 JUMPI INVALID JUMPDEST DUP1 SWAP2 POP JUMPDEST POP SWAP3 SWAP2 POP POP JUMP JUMPDEST PUSH1 0x0 DUP2 EXTCODESIZE SWAP1 DUP2 GT SWAP1 JUMPDEST POP SWAP2 SWAP1 POP JUMP JUMPDEST DUP3 PUSH1 0x1 PUSH1 0xA0 PUSH1 0x2 EXP SUB DUP2 AND PUSH4 0xA4C0ED36 CALLER DUP6 DUP6 PUSH1 0x40 MLOAD DUP5 PUSH4 0xFFFFFFFF AND PUSH29 0x100000000000000000000000000000000000000000000000000000000 MUL DUP2 MSTORE PUSH1 0x4 ADD DUP1 DUP5 PUSH1 0x1 PUSH1 0xA0 PUSH1 0x2 EXP SUB AND PUSH1 0x1 PUSH1 0xA0 PUSH1 0x2 EXP SUB AND DUP2 MSTORE PUSH1 0x20 ADD DUP4 DUP2 MSTORE PUSH1 0x20 ADD DUP1 PUSH1 0x20 ADD DUP3 DUP2 SUB DUP3 MSTORE DUP4 DUP2 DUP2 MLOAD DUP2 MSTORE PUSH1 0x20 ADD SWAP2 POP DUP1 MLOAD SWAP1 PUSH1 0x20 ADD SWAP1 DUP1 DUP4 DUP4 PUSH1 0x0 JUMPDEST DUP4 DUP2 LT ISZERO PUSH2 0xBBD JUMPI DUP1 DUP3 ADD MLOAD DUP2 DUP5 ADD MSTORE JUMPDEST PUSH1 0x20 ADD PUSH2 0xBA4 JUMP JUMPDEST POP POP POP POP SWAP1 POP SWAP1 DUP2 ADD SWAP1 PUSH1 0x1F AND DUP1 ISZERO PUSH2 0xBEA JUMPI DUP1 DUP3 SUB DUP1 MLOAD PUSH1 0x1 DUP4 PUSH1 0x20 SUB PUSH2 0x100 EXP SUB NOT AND DUP2 MSTORE PUSH1 0x20 ADD SWAP2 POP JUMPDEST POP SWAP5 POP POP POP POP POP PUSH1 0x0 PUSH1 0x40 MLOAD DUP1 DUP4 SUB DUP2 PUSH1 0x0 DUP8 DUP1 EXTCODESIZE ISZERO ISZERO PUSH2 0xC0A JUMPI PUSH1 0x0 DUP1 REVERT JUMPDEST PUSH2 0x2C6 GAS SUB CALL ISZERO ISZERO PUSH2 0xC1B JUMPI PUSH1 0x0 DUP1 REVERT JUMPDEST POP POP POP JUMPDEST POP POP POP POP JUMP STOP LOG1 PUSH6 0x627A7A723058 KECCAK256 DUP16 PUSH23 0x15C3B27BBC62770DC23A97687F25E1C4B4284DC8B40B7F ISZERO EXTCODESIZE 0xd2 ADD 0xe3 0xc SWAP3 STOP 0x29 "
			},
			"gasEstimates": {
				"creation": {
					"codeDepositCost": "630600",
					"executionCost": "20814",
					"totalCost": "651414"
				},
				"external": {
					"allowance(address,address)": "938",
					"approve(address,uint256)": "22695",
					"balanceOf(address)": "755",
					"decimals()": "267",
					"decreaseApproval(address,uint256)": "infinite",
					"increaseApproval(address,uint256)": "infinite",
					"name()": "infinite",
					"symbol()": "infinite",
					"totalSupply()": "214",
					"transfer(address,uint256)": "infinite",
					"transferAndCall(address,uint256,bytes)": "infinite",
					"transferFrom(address,address,uint256)": "infinite"
				}
			},
			"methodIdentifiers": {
				"allowance(address,address)": "dd62ed3e",
				"approve(address,uint256)": "095ea7b3",
				"balanceOf(address)": "70a08231",
				"decimals()": "313ce567",
				"decreaseApproval(address,uint256)": "66188463",
				"increaseApproval(address,uint256)": "d73dd623",
				"name()": "06fdde03",
				"symbol()": "95d89b41",
				"totalSupply()": "18160ddd",
				"transfer(address,uint256)": "a9059cbb",
				"transferAndCall(address,uint256,bytes)": "4000aea0",
				"transferFrom(address,address,uint256)": "23b872dd"
			}
		},
		"userdoc": {
			"methods": {}
		}
	},
	"sourceTreeHashHex": "0xe617b4f33c1d0e9e926f7e1dc380273d0c6d6af56cb9775745f3ab412271fae1",
	"compiler": {
		"name": "solc",
		"version": "0.4.16+commit.d7661dd9",
		"settings": {
			"remappings": [],
			"optimizer": {
				"runs": 200,
				"enabled": true
			},
			"outputSelection": {
				"*": {
					"*": [
						"abi",
						"devdoc",
						"userdoc",
						"evm.bytecode.object",
						"evm.bytecode.sourceMap",
						"evm.deployedBytecode.object",
						"evm.deployedBytecode.sourceMap",
						"evm.methodIdentifiers",
						"metadata"
					]
				}
			}
		}
	},
	"chains": {}
}