{
  "_format": "hh-sol-artifact-1",
  "contractName": "TestableDebtCache",
  "sourceName": "contracts/test-helpers/TestableDebtCache.sol",
  "abi": [
    {
      "inputs": [
        {
          "internalType": "address",
          "name": "_owner",
          "type": "address"
        },
        {
          "internalType": "address",
          "name": "_resolver",
          "type": "address"
        }
      ],
      "payable": false,
      "stateMutability": "nonpayable",
      "type": "constructor"
    },
    {
      "anonymous": false,
      "inputs": [
        {
          "indexed": false,
          "internalType": "bytes32",
          "name": "name",
          "type": "bytes32"
        },
        {
          "indexed": false,
          "internalType": "address",
          "name": "destination",
          "type": "address"
        }
      ],
      "name": "CacheUpdated",
      "type": "event"
    },
    {
      "anonymous": false,
      "inputs": [
        {
          "indexed": false,
          "internalType": "uint256",
          "name": "timestamp",
          "type": "uint256"
        }
      ],
      "name": "DebtCacheSnapshotTaken",
      "type": "event"
    },
    {
      "anonymous": false,
      "inputs": [
        {
          "indexed": false,
          "internalType": "uint256",
          "name": "cachedDebt",
          "type": "uint256"
        }
      ],
      "name": "DebtCacheUpdated",
      "type": "event"
    },
    {
      "anonymous": false,
      "inputs": [
        {
          "indexed": true,
          "internalType": "bool",
          "name": "isInvalid",
          "type": "bool"
        }
      ],
      "name": "DebtCacheValidityChanged",
      "type": "event"
    },
    {
      "anonymous": false,
      "inputs": [
        {
          "indexed": false,
          "internalType": "address",
          "name": "oldOwner",
          "type": "address"
        },
        {
          "indexed": false,
          "internalType": "address",
          "name": "newOwner",
          "type": "address"
        }
      ],
      "name": "OwnerChanged",
      "type": "event"
    },
    {
      "anonymous": false,
      "inputs": [
        {
          "indexed": false,
          "internalType": "address",
          "name": "newOwner",
          "type": "address"
        }
      ],
      "name": "OwnerNominated",
      "type": "event"
    },
    {
      "constant": false,
      "inputs": [],
      "name": "acceptOwnership",
      "outputs": [],
      "payable": false,
      "stateMutability": "nonpayable",
      "type": "function"
    },
    {
      "constant": true,
      "inputs": [],
      "name": "cacheInfo",
      "outputs": [
        {
          "internalType": "uint256",
          "name": "debt",
          "type": "uint256"
        },
        {
          "internalType": "uint256",
          "name": "timestamp",
          "type": "uint256"
        },
        {
          "internalType": "bool",
          "name": "isInvalid",
          "type": "bool"
        },
        {
          "internalType": "bool",
          "name": "isStale",
          "type": "bool"
        }
      ],
      "payable": false,
      "stateMutability": "view",
      "type": "function"
    },
    {
      "constant": true,
      "inputs": [],
      "name": "cacheInvalid",
      "outputs": [
        {
          "internalType": "bool",
          "name": "",
          "type": "bool"
        }
      ],
      "payable": false,
      "stateMutability": "view",
      "type": "function"
    },
    {
      "constant": true,
      "inputs": [],
      "name": "cacheStale",
      "outputs": [
        {
          "internalType": "bool",
          "name": "",
          "type": "bool"
        }
      ],
      "payable": false,
      "stateMutability": "view",
      "type": "function"
    },
    {
      "constant": true,
      "inputs": [],
      "name": "cacheTimestamp",
      "outputs": [
        {
          "internalType": "uint256",
          "name": "",
          "type": "uint256"
        }
      ],
      "payable": false,
      "stateMutability": "view",
      "type": "function"
    },
    {
      "constant": true,
      "inputs": [],
      "name": "cachedDebt",
      "outputs": [
        {
          "internalType": "uint256",
          "name": "",
          "type": "uint256"
        }
      ],
      "payable": false,
      "stateMutability": "view",
      "type": "function"
    },
    {
      "constant": true,
      "inputs": [
        {
          "internalType": "bytes32",
          "name": "currencyKey",
          "type": "bytes32"
        }
      ],
      "name": "cachedSynthDebt",
      "outputs": [
        {
          "internalType": "uint256",
          "name": "",
          "type": "uint256"
        }
      ],
      "payable": false,
      "stateMutability": "view",
      "type": "function"
    },
    {
      "constant": true,
      "inputs": [
        {
          "internalType": "bytes32[]",
          "name": "currencyKeys",
          "type": "bytes32[]"
        }
      ],
      "name": "cachedSynthDebts",
      "outputs": [
        {
          "internalType": "uint256[]",
          "name": "snxIssuedDebts",
          "type": "uint256[]"
        }
      ],
      "payable": false,
      "stateMutability": "view",
      "type": "function"
    },
    {
      "constant": true,
      "inputs": [],
      "name": "currentDebt",
      "outputs": [
        {
          "internalType": "uint256",
          "name": "debt",
          "type": "uint256"
        },
        {
          "internalType": "bool",
          "name": "anyRateIsInvalid",
          "type": "bool"
        }
      ],
      "payable": false,
      "stateMutability": "view",
      "type": "function"
    },
    {
      "constant": true,
      "inputs": [
        {
          "internalType": "bytes32[]",
          "name": "currencyKeys",
          "type": "bytes32[]"
        }
      ],
      "name": "currentSynthDebts",
      "outputs": [
        {
          "internalType": "uint256[]",
          "name": "debtValues",
          "type": "uint256[]"
        },
        {
          "internalType": "bool",
          "name": "anyRateIsInvalid",
          "type": "bool"
        }
      ],
      "payable": false,
      "stateMutability": "view",
      "type": "function"
    },
    {
      "constant": true,
      "inputs": [],
      "name": "debtSnapshotStaleTime",
      "outputs": [
        {
          "internalType": "uint256",
          "name": "",
          "type": "uint256"
        }
      ],
      "payable": false,
      "stateMutability": "view",
      "type": "function"
    },
    {
      "constant": true,
      "inputs": [],
      "name": "isResolverCached",
      "outputs": [
        {
          "internalType": "bool",
          "name": "",
          "type": "bool"
        }
      ],
      "payable": false,
      "stateMutability": "view",
      "type": "function"
    },
    {
      "constant": false,
      "inputs": [
        {
          "internalType": "address",
          "name": "_owner",
          "type": "address"
        }
      ],
      "name": "nominateNewOwner",
      "outputs": [],
      "payable": false,
      "stateMutability": "nonpayable",
      "type": "function"
    },
    {
      "constant": true,
      "inputs": [],
      "name": "nominatedOwner",
      "outputs": [
        {
          "internalType": "address",
          "name": "",
          "type": "address"
        }
      ],
      "payable": false,
      "stateMutability": "view",
      "type": "function"
    },
    {
      "constant": true,
      "inputs": [],
      "name": "owner",
      "outputs": [
        {
          "internalType": "address",
          "name": "",
          "type": "address"
        }
      ],
      "payable": false,
      "stateMutability": "view",
      "type": "function"
    },
    {
      "constant": false,
      "inputs": [
        {
          "internalType": "bytes32",
          "name": "currencyKey",
          "type": "bytes32"
        }
      ],
      "name": "purgeCachedSynthDebt",
      "outputs": [],
      "payable": false,
      "stateMutability": "nonpayable",
      "type": "function"
    },
    {
      "constant": false,
      "inputs": [],
      "name": "rebuildCache",
      "outputs": [],
      "payable": false,
      "stateMutability": "nonpayable",
      "type": "function"
    },
    {
      "constant": true,
      "inputs": [],
      "name": "resolver",
      "outputs": [
        {
          "internalType": "contract AddressResolver",
          "name": "",
          "type": "address"
        }
      ],
      "payable": false,
      "stateMutability": "view",
      "type": "function"
    },
    {
      "constant": true,
      "inputs": [],
      "name": "resolverAddressesRequired",
      "outputs": [
        {
          "internalType": "bytes32[]",
          "name": "addresses",
          "type": "bytes32[]"
        }
      ],
      "payable": false,
      "stateMutability": "view",
      "type": "function"
    },
    {
      "constant": false,
      "inputs": [
        {
          "internalType": "bytes32",
          "name": "currencyKey",
          "type": "bytes32"
        },
        {
          "internalType": "uint256",
          "name": "debt",
          "type": "uint256"
        }
      ],
      "name": "setCachedSynthDebt",
      "outputs": [],
      "payable": false,
      "stateMutability": "nonpayable",
      "type": "function"
    },
    {
      "constant": false,
      "inputs": [],
      "name": "takeDebtSnapshot",
      "outputs": [],
      "payable": false,
      "stateMutability": "nonpayable",
      "type": "function"
    },
    {
      "constant": false,
      "inputs": [
        {
          "internalType": "bytes32",
          "name": "currencyKey",
          "type": "bytes32"
        },
        {
          "internalType": "uint256",
          "name": "currencyRate",
          "type": "uint256"
        }
      ],
      "name": "updateCachedSynthDebtWithRate",
      "outputs": [],
      "payable": false,
      "stateMutability": "nonpayable",
      "type": "function"
    },
    {
      "constant": false,
      "inputs": [
        {
          "internalType": "bytes32[]",
          "name": "currencyKeys",
          "type": "bytes32[]"
        }
      ],
      "name": "updateCachedSynthDebts",
      "outputs": [],
      "payable": false,
      "stateMutability": "nonpayable",
      "type": "function"
    },
    {
      "constant": false,
      "inputs": [
        {
          "internalType": "bytes32[]",
          "name": "currencyKeys",
          "type": "bytes32[]"
        },
        {
          "internalType": "uint256[]",
          "name": "currencyRates",
          "type": "uint256[]"
        }
      ],
      "name": "updateCachedSynthDebtsWithRates",
      "outputs": [],
      "payable": false,
      "stateMutability": "nonpayable",
      "type": "function"
    },
    {
      "constant": false,
      "inputs": [
        {
          "internalType": "bool",
          "name": "currentlyInvalid",
          "type": "bool"
        }
      ],
      "name": "updateDebtCacheValidity",
      "outputs": [],
      "payable": false,
      "stateMutability": "nonpayable",
      "type": "function"
    }
  ],
  "bytecode": "0x60806040526001600760006101000a81548160ff02191690831515021790555034801561002b57600080fd5b506040516134c73803806134c78339818101604052604081101561004e57600080fd5b81019080805190602001909291908051906020019092919050505081818181808083600073ffffffffffffffffffffffffffffffffffffffff168173ffffffffffffffffffffffffffffffffffffffff161415610113576040517f08c379a00000000000000000000000000000000000000000000000000000000081526004018080602001828103825260198152602001807f4f776e657220616464726573732063616e6e6f7420626520300000000000000081525060200191505060405180910390fd5b806000806101000a81548173ffffffffffffffffffffffffffffffffffffffff021916908373ffffffffffffffffffffffffffffffffffffffff1602179055507fb532073b38c83145e3e5135377a08bf9aab55bc0fd7c1179cd4fb995d2a5159c600082604051808373ffffffffffffffffffffffffffffffffffffffff1673ffffffffffffffffffffffffffffffffffffffff1681526020018273ffffffffffffffffffffffffffffffffffffffff1673ffffffffffffffffffffffffffffffffffffffff1681526020019250505060405180910390a15080600260006101000a81548173ffffffffffffffffffffffffffffffffffffffff021916908373ffffffffffffffffffffffffffffffffffffffff1602179055505050505050505050613283806102446000396000f3fe608060405234801561001057600080fd5b50600436106101735760003560e01c8063759076e5116100de578063af5355d811610097578063d0fffafd11610071578063d0fffafd146107b7578063d685743a146107d5578063e3476cd41461080d578063fc5247731461081757610173565b8063af5355d814610652578063b13cd78514610670578063cda218c71461073e57610173565b8063759076e51461052657806379ba50971461054f578063899ffef4146105595780638da5cb5b146105b85780638dd5bfbc14610602578063a5f27edb1461063057610173565b80631b4724df116101305780631b4724df146103645780632af64bd31461039c5780633a900a2e146103be57806353a47bb7146103f95780636bf7c43514610443578063741853601461051c57610173565b806304bd11e51461017857806304f3bcec146101a857806305393262146101f25780630fb38465146102105780631627540c1461025257806317b38db414610296575b600080fd5b6101a66004803603602081101561018e57600080fd5b81019080803515159060200190929190505050610839565b005b6101b061084d565b604051808273ffffffffffffffffffffffffffffffffffffffff1673ffffffffffffffffffffffffffffffffffffffff16815260200191505060405180910390f35b6101fa610873565b6040518082815260200191505060405180910390f35b61023c6004803603602081101561022657600080fd5b810190808035906020019092919050505061087d565b6040518082815260200191505060405180910390f35b6102946004803603602081101561026857600080fd5b81019080803573ffffffffffffffffffffffffffffffffffffffff16906020019092919050505061089a565b005b610362600480360360408110156102ac57600080fd5b81019080803590602001906401000000008111156102c957600080fd5b8201836020820111156102db57600080fd5b803590602001918460208302840111640100000000831117156102fd57600080fd5b90919293919293908035906020019064010000000081111561031e57600080fd5b82018360208201111561033057600080fd5b8035906020019184602083028401116401000000008311171561035257600080fd5b9091929391929390505050610949565b005b61039a6004803603604081101561037a57600080fd5b8101908080359060200190929190803590602001909291905050506109e5565b005b6103a4610a01565b604051808215151515815260200191505060405180910390f35b6103c6610bd9565b60405180858152602001848152602001831515151581526020018215151515815260200194505050505060405180910390f35b610401610c12565b604051808273ffffffffffffffffffffffffffffffffffffffff1673ffffffffffffffffffffffffffffffffffffffff16815260200191505060405180910390f35b6104ba6004803603602081101561045957600080fd5b810190808035906020019064010000000081111561047657600080fd5b82018360208201111561048857600080fd5b803590602001918460208302840111640100000000831117156104aa57600080fd5b9091929391929390505050610c38565b604051808060200183151515158152602001828103825284818151815260200191508051906020019060200280838360005b838110156105075780820151818401526020810190506104ec565b50505050905001935050505060405180910390f35b610524610c91565b005b61052e610efa565b60405180838152602001821515151581526020019250505060405180910390f35b610557610f0d565b005b610561611133565b6040518080602001828103825283818151815260200191508051906020019060200280838360005b838110156105a4578082015181840152602081019050610589565b505050509050019250505060405180910390f35b6105c061131c565b604051808273ffffffffffffffffffffffffffffffffffffffff1673ffffffffffffffffffffffffffffffffffffffff16815260200191505060405180910390f35b61062e6004803603602081101561061857600080fd5b8101908080359060200190929190505050611341565b005b610638611497565b604051808215151515815260200191505060405180910390f35b61065a6114ae565b6040518082815260200191505060405180910390f35b6106e76004803603602081101561068657600080fd5b81019080803590602001906401000000008111156106a357600080fd5b8201836020820111156106b557600080fd5b803590602001918460208302840111640100000000831117156106d757600080fd5b90919293919293905050506114bd565b6040518080602001828103825283818151815260200191508051906020019060200280838360005b8381101561072a57808201518184015260208101905061070f565b505050509050019250505060405180910390f35b6107b56004803603602081101561075457600080fd5b810190808035906020019064010000000081111561077157600080fd5b82018360208201111561078357600080fd5b803590602001918460208302840111640100000000831117156107a557600080fd5b9091929391929390505050611511565b005b6107bf6116dc565b6040518082815260200191505060405180910390f35b61080b600480360360408110156107eb57600080fd5b8101908080359060200190929190803590602001909291905050506116e6565b005b61081561179e565b005b61081f611a8b565b604051808215151515815260200191505060405180910390f35b610841611a9d565b61084a81611b47565b50565b600260009054906101000a900473ffffffffffffffffffffffffffffffffffffffff1681565b6000600454905090565b600060056000838152602001908152602001600020549050919050565b6108a2611bae565b80600160006101000a81548173ffffffffffffffffffffffffffffffffffffffff021916908373ffffffffffffffffffffffffffffffffffffffff1602179055507f906a1c6bd7e3091ea86693dd029a831c19049ce77f1dce2ce0bab1cacbabce2281604051808273ffffffffffffffffffffffffffffffffffffffff1673ffffffffffffffffffffffffffffffffffffffff16815260200191505060405180910390a150565b610951611c55565b6109df848480806020026020016040519081016040528093929190818152602001838360200280828437600081840152601f19601f82011690508083019250505050505050838380806020026020016040519081016040528093929190818152602001838360200280828437600081840152601f19601f820116905080830192505050505050506000611d1f565b50505050565b8060056000848152602001908152602001600020819055505050565b60006060610a0d611133565b905060008090505b8151811015610bcf576000828281518110610a2c57fe5b602002602001015190506003600082815260200190815260200160002060009054906101000a900473ffffffffffffffffffffffffffffffffffffffff1673ffffffffffffffffffffffffffffffffffffffff16600260009054906101000a900473ffffffffffffffffffffffffffffffffffffffff1673ffffffffffffffffffffffffffffffffffffffff166321f8a721836040518263ffffffff1660e01b81526004018082815260200191505060206040518083038186803b158015610af357600080fd5b505afa158015610b07573d6000803e3d6000fd5b505050506040513d6020811015610b1d57600080fd5b810190808051906020019092919050505073ffffffffffffffffffffffffffffffffffffffff16141580610bb05750600073ffffffffffffffffffffffffffffffffffffffff166003600083815260200190815260200160002060009054906101000a900473ffffffffffffffffffffffffffffffffffffffff1673ffffffffffffffffffffffffffffffffffffffff16145b15610bc15760009350505050610bd6565b508080600101915050610a15565b5060019150505b90565b6000806000806000600654905060045481600760009054906101000a900460ff16610c0384611f36565b94509450945094505090919293565b600160009054906101000a900473ffffffffffffffffffffffffffffffffffffffff1681565b60606000610c86848480806020026020016040519081016040528093929190818152602001838360200280828437600081840152601f19601f82011690508083019250505050505050611f56565b915091509250929050565b6060610c9b611133565b905060008090505b8151811015610ef6576000828281518110610cba57fe5b602002602001015190506000600260009054906101000a900473ffffffffffffffffffffffffffffffffffffffff1673ffffffffffffffffffffffffffffffffffffffff1663dacb2d01838460405160200180807f5265736f6c766572206d697373696e67207461726765743a20000000000000008152506019018281526020019150506040516020818303038152906040526040518363ffffffff1660e01b81526004018083815260200180602001828103825283818151815260200191508051906020019080838360005b83811015610da2578082015181840152602081019050610d87565b50505050905090810190601f168015610dcf5780820380516001836020036101000a031916815260200191505b50935050505060206040518083038186803b158015610ded57600080fd5b505afa158015610e01573d6000803e3d6000fd5b505050506040513d6020811015610e1757600080fd5b81019080805190602001909291905050509050806003600084815260200190815260200160002060006101000a81548173ffffffffffffffffffffffffffffffffffffffff021916908373ffffffffffffffffffffffffffffffffffffffff1602179055507f88a93678a3692f6789d9546fc621bf7234b101ddb7d4fe479455112831b8aa688282604051808381526020018273ffffffffffffffffffffffffffffffffffffffff1673ffffffffffffffffffffffffffffffffffffffff1681526020019250505060405180910390a150508080600101915050610ca3565b5050565b600080610f056120f3565b915091509091565b600160009054906101000a900473ffffffffffffffffffffffffffffffffffffffff1673ffffffffffffffffffffffffffffffffffffffff163373ffffffffffffffffffffffffffffffffffffffff1614610fb3576040517f08c379a00000000000000000000000000000000000000000000000000000000081526004018080602001828103825260358152602001806131866035913960400191505060405180910390fd5b7fb532073b38c83145e3e5135377a08bf9aab55bc0fd7c1179cd4fb995d2a5159c6000809054906101000a900473ffffffffffffffffffffffffffffffffffffffff16600160009054906101000a900473ffffffffffffffffffffffffffffffffffffffff16604051808373ffffffffffffffffffffffffffffffffffffffff1673ffffffffffffffffffffffffffffffffffffffff1681526020018273ffffffffffffffffffffffffffffffffffffffff1673ffffffffffffffffffffffffffffffffffffffff1681526020019250505060405180910390a1600160009054906101000a900473ffffffffffffffffffffffffffffffffffffffff166000806101000a81548173ffffffffffffffffffffffffffffffffffffffff021916908373ffffffffffffffffffffffffffffffffffffffff1602179055506000600160006101000a81548173ffffffffffffffffffffffffffffffffffffffff021916908373ffffffffffffffffffffffffffffffffffffffff160217905550565b60608061113e612338565b9050606060076040519080825280602002602001820160405280156111725781602001602082028038833980820191505090505b5090507f4973737565720000000000000000000000000000000000000000000000000000816000815181106111a357fe5b6020026020010181815250507f45786368616e6765720000000000000000000000000000000000000000000000816001815181106111dd57fe5b6020026020010181815250507f45786368616e67655261746573000000000000000000000000000000000000008160028151811061121757fe5b6020026020010181815250507f53797374656d53746174757300000000000000000000000000000000000000008160038151811061125157fe5b6020026020010181815250507f4574686572436f6c6c61746572616c00000000000000000000000000000000008160048151811061128b57fe5b6020026020010181815250507f4574686572436f6c6c61746572616c7355534400000000000000000000000000816005815181106112c557fe5b6020026020010181815250507f436f6c6c61746572616c4d616e61676572000000000000000000000000000000816006815181106112ff57fe5b60200260200101818152505061131582826123aa565b9250505090565b6000809054906101000a900473ffffffffffffffffffffffffffffffffffffffff1681565b611349611bae565b600073ffffffffffffffffffffffffffffffffffffffff1661136961247d565b73ffffffffffffffffffffffffffffffffffffffff166332608039836040518263ffffffff1660e01b81526004018082815260200191505060206040518083038186803b1580156113b957600080fd5b505afa1580156113cd573d6000803e3d6000fd5b505050506040513d60208110156113e357600080fd5b810190808051906020019092919050505073ffffffffffffffffffffffffffffffffffffffff161461147d576040517f08c379a000000000000000000000000000000000000000000000000000000000815260040180806020018281038252600c8152602001807f53796e746820657869737473000000000000000000000000000000000000000081525060200191505060405180910390fd5b600560008281526020019081526020016000206000905550565b6000600760009054906101000a900460ff16905090565b60006114b86124ad565b905090565b6060611509838380806020026020016040519081016040528093929190818152602001838360200280828437600081840152601f19601f8201169050808301925050505050505061258f565b905092915050565b611519612630565b606060006115256126ec565b73ffffffffffffffffffffffffffffffffffffffff1663c8e5bbd585856040518363ffffffff1660e01b815260040180806020018281038252848482818152602001925060200280828437600081840152601f19601f820116905080830192505050935050505060006040518083038186803b1580156115a457600080fd5b505afa1580156115b8573d6000803e3d6000fd5b505050506040513d6000823e3d601f19601f8201168201806040525060408110156115e257600080fd5b810190808051604051939291908464010000000082111561160257600080fd5b8382019150602082018581111561161857600080fd5b825186602082028301116401000000008211171561163557600080fd5b8083526020830192505050908051906020019060200280838360005b8381101561166c578082015181840152602081019050611651565b5050505090500160405260200180519060200190929190505050915091506116d6848480806020026020016040519081016040528093929190818152602001838360200280828437600081840152601f19601f820116905080830192505050505050508383611d1f565b50505050565b6000600654905090565b6116ee611a9d565b606060016040519080825280602002602001820160405280156117205781602001602082028038833980820191505090505b509050828160008151811061173157fe5b6020026020010181815250506060600160405190808252806020026020018201604052801561176f5781602001602082028038833980820191505090505b509050828160008151811061178057fe5b60200260200101818152505061179882826000611d1f565b50505050565b6117a6612630565b60606117b061247d565b73ffffffffffffffffffffffffffffffffffffffff166372cb051f6040518163ffffffff1660e01b815260040160006040518083038186803b1580156117f557600080fd5b505afa158015611809573d6000803e3d6000fd5b505050506040513d6000823e3d601f19601f82011682018060405250602081101561183357600080fd5b810190808051604051939291908464010000000082111561185357600080fd5b8382019150602082018581111561186957600080fd5b825186602082028301116401000000008211171561188657600080fd5b8083526020830192505050908051906020019060200280838360005b838110156118bd5780820151818401526020810190506118a2565b505050509050016040525050509050606060006118d983611f56565b9150915060006118e761271c565b73ffffffffffffffffffffffffffffffffffffffff1663ad79a8586040518163ffffffff1660e01b8152600401604080518083038186803b15801561192b57600080fd5b505afa15801561193f573d6000803e3d6000fd5b505050506040513d604081101561195557600080fd5b8101908080519060200190929190805190602001909291905050505090506000835190506000805b828110156119eb57600086828151811061199357fe5b602002602001015190506119b0818461274c90919063ffffffff16565b925080600560008a85815181106119c357fe5b602002602001015181526020019081526020016000208190555050808060010191505061197d565b506119ff83826127d490919063ffffffff16565b600481905550426006819055507f294a7c394e53042c7d754779562747d93b41db019dd4b970dd9b531db71be599816040518082815260200191505060405180910390a17fc481e742c89630d4b1a5ed3a0fc624c1c41ed463bd00ac26a7e93c71e932126f426040518082815260200191505060405180910390a1611a8384611b47565b505050505050565b6000611a98600654611f36565b905090565b611aa561247d565b73ffffffffffffffffffffffffffffffffffffffff163373ffffffffffffffffffffffffffffffffffffffff1614611b45576040517f08c379a00000000000000000000000000000000000000000000000000000000081526004018080602001828103825260148152602001807f53656e646572206973206e6f742049737375657200000000000000000000000081525060200191505060405180910390fd5b565b801515600760009054906101000a900460ff16151514611bab5780600760006101000a81548160ff0219169083151502179055508015157f8eebec690c34bbf0fe0d5b93e442beaf16bdaf99052569581de2dcb3e31a53a760405160405180910390a25b50565b6000809054906101000a900473ffffffffffffffffffffffffffffffffffffffff1673ffffffffffffffffffffffffffffffffffffffff163373ffffffffffffffffffffffffffffffffffffffff1614611c53576040517f08c379a000000000000000000000000000000000000000000000000000000000815260040180806020018281038252602f8152602001806131dc602f913960400191505060405180910390fd5b565b611c5d61247d565b73ffffffffffffffffffffffffffffffffffffffff163373ffffffffffffffffffffffffffffffffffffffff161480611cc85750611c9961285d565b73ffffffffffffffffffffffffffffffffffffffff163373ffffffffffffffffffffffffffffffffffffffff16145b611d1d576040517f08c379a00000000000000000000000000000000000000000000000000000000081526004018080602001828103825260218152602001806131bb6021913960400191505060405180910390fd5b565b60008351905082518114611d9b576040517f08c379a000000000000000000000000000000000000000000000000000000000815260040180806020018281038252601a8152602001807f496e707574206172726179206c656e677468732064696666657200000000000081525060200191505060405180910390fd5b6000806060611daa878761288d565b905060008090505b84811015611e4e576000888281518110611dc857fe5b602002602001015190506000838381518110611de057fe5b60200260200101519050611e1060056000848152602001908152602001600020548761274c90919063ffffffff16565b9550611e25818661274c90919063ffffffff16565b945080600560008481526020019081526020016000208190555050508080600101915050611db2565b50818314611f1d576000600454905080841115611eb6576040517f08c379a000000000000000000000000000000000000000000000000000000000815260040180806020018281038252602381526020018061322c6023913960400191505060405180910390fd5b611edb83611ecd86846127d490919063ffffffff16565b61274c90919063ffffffff16565b9050806004819055507f294a7c394e53042c7d754779562747d93b41db019dd4b970dd9b531db71be599816040518082815260200191505060405180910390a1505b8415611f2d57611f2c85611b47565b5b50505050505050565b6000814203611f436124ad565b1080611f4f5750600082145b9050919050565b6060600060606000611f666126ec565b73ffffffffffffffffffffffffffffffffffffffff1663c8e5bbd5866040518263ffffffff1660e01b81526004018080602001828103825283818151815260200191508051906020019060200280838360005b83811015611fd4578082015181840152602081019050611fb9565b505050509050019250505060006040518083038186803b158015611ff757600080fd5b505afa15801561200b573d6000803e3d6000fd5b505050506040513d6000823e3d601f19601f82011682018060405250604081101561203557600080fd5b810190808051604051939291908464010000000082111561205557600080fd5b8382019150602082018581111561206b57600080fd5b825186602082028301116401000000008211171561208857600080fd5b8083526020830192505050908051906020019060200280838360005b838110156120bf5780820151818401526020810190506120a4565b5050505090500160405260200180519060200190929190505050915091506120e7858361288d565b81935093505050915091565b6000806060600061222461210561247d565b73ffffffffffffffffffffffffffffffffffffffff166372cb051f6040518163ffffffff1660e01b815260040160006040518083038186803b15801561214a57600080fd5b505afa15801561215e573d6000803e3d6000fd5b505050506040513d6000823e3d601f19601f82011682018060405250602081101561218857600080fd5b81019080805160405193929190846401000000008211156121a857600080fd5b838201915060208201858111156121be57600080fd5b82518660208202830111640100000000821117156121db57600080fd5b8083526020830192505050908051906020019060200280838360005b838110156122125780820151818401526020810190506121f7565b50505050905001604052505050611f56565b915091506000825190506000805b8281101561226f5761226085828151811061224957fe5b60200260200101518361274c90919063ffffffff16565b91508080600101915050612232565b5060008061227b61271c565b73ffffffffffffffffffffffffffffffffffffffff1663ad79a8586040518163ffffffff1660e01b8152600401604080518083038186803b1580156122bf57600080fd5b505afa1580156122d3573d6000803e3d6000fd5b505050506040513d60408110156122e957600080fd5b8101908080519060200190929190805190602001909291905050509150915061231b82846127d490919063ffffffff16565b925084806123265750805b94508285975097505050505050509091565b6060600160405190808252806020026020018201604052801561236a5781602001602082028038833980820191505090505b5090507f466c657869626c6553746f7261676500000000000000000000000000000000008160008151811061239b57fe5b60200260200101818152505090565b606081518351016040519080825280602002602001820160405280156123df5781602001602082028038833980820191505090505b50905060008090505b835181101561242a578381815181106123fd57fe5b602002602001015182828151811061241157fe5b60200260200101818152505080806001019150506123e8565b5060008090505b82518110156124765782818151811061244657fe5b602002602001015182828651018151811061245d57fe5b6020026020010181815250508080600101915050612431565b5092915050565b60006124a87f4973737565720000000000000000000000000000000000000000000000000000612e68565b905090565b60006124b7612fca565b73ffffffffffffffffffffffffffffffffffffffff166323257c2b7f53797374656d53657474696e67730000000000000000000000000000000000007f64656274536e617073686f745374616c6554696d6500000000000000000000006040518363ffffffff1660e01b8152600401808381526020018281526020019250505060206040518083038186803b15801561254f57600080fd5b505afa158015612563573d6000803e3d6000fd5b505050506040513d602081101561257957600080fd5b8101908080519060200190929190505050905090565b60606000825190506060816040519080825280602002602001820160405280156125c85781602001602082028038833980820191505090505b50905060008090505b8281101561262557600560008683815181106125e957fe5b602002602001015181526020019081526020016000205482828151811061260c57fe5b60200260200101818152505080806001019150506125d1565b508092505050919050565b6000809054906101000a900473ffffffffffffffffffffffffffffffffffffffff1673ffffffffffffffffffffffffffffffffffffffff163373ffffffffffffffffffffffffffffffffffffffff16146126ea5761268c612ffa565b73ffffffffffffffffffffffffffffffffffffffff1663086dabd16040518163ffffffff1660e01b815260040160006040518083038186803b1580156126d157600080fd5b505afa1580156126e5573d6000803e3d6000fd5b505050505b565b60006127177f45786368616e6765526174657300000000000000000000000000000000000000612e68565b905090565b60006127477f436f6c6c61746572616c4d616e61676572000000000000000000000000000000612e68565b905090565b6000808284019050838110156127ca576040517f08c379a000000000000000000000000000000000000000000000000000000000815260040180806020018281038252601b8152602001807f536166654d6174683a206164646974696f6e206f766572666c6f77000000000081525060200191505060405180910390fd5b8091505092915050565b60008282111561284c576040517f08c379a000000000000000000000000000000000000000000000000000000000815260040180806020018281038252601e8152602001807f536166654d6174683a207375627472616374696f6e206f766572666c6f77000081525060200191505060405180910390fd5b600082840390508091505092915050565b60006128887f45786368616e6765720000000000000000000000000000000000000000000000612e68565b905090565b60606000835190506060816040519080825280602002602001820160405280156128c65781602001602082028038833980820191505090505b50905060606128d361247d565b73ffffffffffffffffffffffffffffffffffffffff16633b6afe40876040518263ffffffff1660e01b81526004018080602001828103825283818151815260200191508051906020019060200280838360005b83811015612941578082015181840152602081019050612926565b505050509050019250505060006040518083038186803b15801561296457600080fd5b505afa158015612978573d6000803e3d6000fd5b505050506040513d6000823e3d601f19601f8201168201806040525060208110156129a257600080fd5b81019080805160405193929190846401000000008211156129c257600080fd5b838201915060208201858111156129d857600080fd5b82518660208202830111640100000000821117156129f557600080fd5b8083526020830192505050908051906020019060200280838360005b83811015612a2c578082015181840152602081019050612a11565b50505050905001604052505050905060008090505b83811015612e5b576000878281518110612a5757fe5b602002602001015190506000838381518110612a6f57fe5b60200260200101519050600073ffffffffffffffffffffffffffffffffffffffff168173ffffffffffffffffffffffffffffffffffffffff161415612b1c576040517f08c379a00000000000000000000000000000000000000000000000000000000081526004018080602001828103825260148152602001807f53796e746820646f6573206e6f7420657869737400000000000000000000000081525060200191505060405180910390fd5b60008173ffffffffffffffffffffffffffffffffffffffff166318160ddd6040518163ffffffff1660e01b815260040160206040518083038186803b158015612b6457600080fd5b505afa158015612b78573d6000803e3d6000fd5b505050506040513d6020811015612b8e57600080fd5b81019080805190602001909291905050509050612ba961271c565b73ffffffffffffffffffffffffffffffffffffffff16638471db13846040518263ffffffff1660e01b81526004018082815260200191505060206040518083038186803b158015612bf957600080fd5b505afa158015612c0d573d6000803e3d6000fd5b505050506040513d6020811015612c2357600080fd5b810190808051906020019092919050505015612cf9576000612c4361271c565b73ffffffffffffffffffffffffffffffffffffffff1663d2f00475856040518263ffffffff1660e01b81526004018082815260200191505060206040518083038186803b158015612c9357600080fd5b505afa158015612ca7573d6000803e3d6000fd5b505050506040513d6020811015612cbd57600080fd5b8101908080519060200190929190505050905081811115612ce15760009150612cf7565b612cf481836127d490919063ffffffff16565b91505b505b60007f7355534400000000000000000000000000000000000000000000000000000000841490508080612d4b57507f734554480000000000000000000000000000000000000000000000000000000084145b15612e0c57600081612d6457612d5f61302a565b612d6d565b612d6c61305a565b5b905060008173ffffffffffffffffffffffffffffffffffffffff1663ee5f3f5c6040518163ffffffff1660e01b815260040160206040518083038186803b158015612db757600080fd5b505afa158015612dcb573d6000803e3d6000fd5b505050506040513d6020811015612de157600080fd5b81019080805190602001909291905050509050612e0781856127d490919063ffffffff16565b935050505b612e328a8681518110612e1b57fe5b60200260200101518361308a90919063ffffffff16565b878681518110612e3e57fe5b602002602001018181525050505050508080600101915050612a41565b5081935050505092915050565b6000806003600084815260200190815260200160002060009054906101000a900473ffffffffffffffffffffffffffffffffffffffff169050600073ffffffffffffffffffffffffffffffffffffffff168173ffffffffffffffffffffffffffffffffffffffff1614158360405160200180807f4d697373696e6720616464726573733a2000000000000000000000000000000081525060110182815260200191505060405160208183030381529060405290612fc0576040517f08c379a00000000000000000000000000000000000000000000000000000000081526004018080602001828103825283818151815260200191508051906020019080838360005b83811015612f85578082015181840152602081019050612f6a565b50505050905090810190601f168015612fb25780820380516001836020036101000a031916815260200191505b509250505060405180910390fd5b5080915050919050565b6000612ff57f466c657869626c6553746f726167650000000000000000000000000000000000612e68565b905090565b60006130257f53797374656d5374617475730000000000000000000000000000000000000000612e68565b905090565b60006130557f4574686572436f6c6c61746572616c0000000000000000000000000000000000612e68565b905090565b60006130857f4574686572436f6c6c61746572616c7355534400000000000000000000000000612e68565b905090565b600061309e8383601260ff16600a0a6130a6565b905092915050565b600080600a83816130b357fe5b046130c785876130ff90919063ffffffff16565b816130ce57fe5b0490506005600a82816130dd57fe5b06106130ea57600a810190505b600a81816130f457fe5b049150509392505050565b600080831415613112576000905061317f565b600082840290508284828161312357fe5b041461317a576040517f08c379a000000000000000000000000000000000000000000000000000000000815260040180806020018281038252602181526020018061320b6021913960400191505060405180910390fd5b809150505b9291505056fe596f75206d757374206265206e6f6d696e61746564206265666f726520796f752063616e20616363657074206f776e65727368697053656e646572206973206e6f7420497373756572206f722045786368616e6765724f6e6c792074686520636f6e7472616374206f776e6572206d617920706572666f726d207468697320616374696f6e536166654d6174683a206d756c7469706c69636174696f6e206f766572666c6f774361636865642073796e74682073756d206578636565647320746f74616c2064656274a265627a7a72315820dffd7a3cb46e0583449ea76b3be53b203e3bd14e790373dccbaef123f51de96964736f6c63430005100032",
  "linkReferences": {},
  "deployedLinkReferences": {}
}