{
  "_format": "hh-sol-artifact-1",
  "contractName": "BinaryOptionMarketFactory",
  "sourceName": "contracts/BinaryOptionMarketFactory.sol",
  "abi": [
    {
      "inputs": [
        {
          "internalType": "address",
          "name": "_owner",
          "type": "address"
        },
        {
          "internalType": "address",
          "name": "_resolver",
          "type": "address"
        }
      ],
      "payable": false,
      "stateMutability": "nonpayable",
      "type": "constructor"
    },
    {
      "anonymous": false,
      "inputs": [
        {
          "indexed": false,
          "internalType": "bytes32",
          "name": "name",
          "type": "bytes32"
        },
        {
          "indexed": false,
          "internalType": "address",
          "name": "destination",
          "type": "address"
        }
      ],
      "name": "CacheUpdated",
      "type": "event"
    },
    {
      "anonymous": false,
      "inputs": [
        {
          "indexed": false,
          "internalType": "address",
          "name": "oldOwner",
          "type": "address"
        },
        {
          "indexed": false,
          "internalType": "address",
          "name": "newOwner",
          "type": "address"
        }
      ],
      "name": "OwnerChanged",
      "type": "event"
    },
    {
      "anonymous": false,
      "inputs": [
        {
          "indexed": false,
          "internalType": "address",
          "name": "newOwner",
          "type": "address"
        }
      ],
      "name": "OwnerNominated",
      "type": "event"
    },
    {
      "constant": false,
      "inputs": [],
      "name": "acceptOwnership",
      "outputs": [],
      "payable": false,
      "stateMutability": "nonpayable",
      "type": "function"
    },
    {
      "constant": false,
      "inputs": [
        {
          "internalType": "address",
          "name": "creator",
          "type": "address"
        },
        {
          "internalType": "uint256[2]",
          "name": "creatorLimits",
          "type": "uint256[2]"
        },
        {
          "internalType": "bytes32",
          "name": "oracleKey",
          "type": "bytes32"
        },
        {
          "internalType": "uint256",
          "name": "strikePrice",
          "type": "uint256"
        },
        {
          "internalType": "bool",
          "name": "refundsEnabled",
          "type": "bool"
        },
        {
          "internalType": "uint256[3]",
          "name": "times",
          "type": "uint256[3]"
        },
        {
          "internalType": "uint256[2]",
          "name": "bids",
          "type": "uint256[2]"
        },
        {
          "internalType": "uint256[3]",
          "name": "fees",
          "type": "uint256[3]"
        }
      ],
      "name": "createMarket",
      "outputs": [
        {
          "internalType": "contract BinaryOptionMarket",
          "name": "",
          "type": "address"
        }
      ],
      "payable": false,
      "stateMutability": "nonpayable",
      "type": "function"
    },
    {
      "constant": true,
      "inputs": [],
      "name": "isResolverCached",
      "outputs": [
        {
          "internalType": "bool",
          "name": "",
          "type": "bool"
        }
      ],
      "payable": false,
      "stateMutability": "view",
      "type": "function"
    },
    {
      "constant": false,
      "inputs": [
        {
          "internalType": "address",
          "name": "_owner",
          "type": "address"
        }
      ],
      "name": "nominateNewOwner",
      "outputs": [],
      "payable": false,
      "stateMutability": "nonpayable",
      "type": "function"
    },
    {
      "constant": true,
      "inputs": [],
      "name": "nominatedOwner",
      "outputs": [
        {
          "internalType": "address",
          "name": "",
          "type": "address"
        }
      ],
      "payable": false,
      "stateMutability": "view",
      "type": "function"
    },
    {
      "constant": true,
      "inputs": [],
      "name": "owner",
      "outputs": [
        {
          "internalType": "address",
          "name": "",
          "type": "address"
        }
      ],
      "payable": false,
      "stateMutability": "view",
      "type": "function"
    },
    {
      "constant": false,
      "inputs": [],
      "name": "rebuildCache",
      "outputs": [],
      "payable": false,
      "stateMutability": "nonpayable",
      "type": "function"
    },
    {
      "constant": true,
      "inputs": [],
      "name": "resolver",
      "outputs": [
        {
          "internalType": "contract AddressResolver",
          "name": "",
          "type": "address"
        }
      ],
      "payable": false,
      "stateMutability": "view",
      "type": "function"
    },
    {
      "constant": true,
      "inputs": [],
      "name": "resolverAddressesRequired",
      "outputs": [
        {
          "internalType": "bytes32[]",
          "name": "addresses",
          "type": "bytes32[]"
        }
      ],
      "payable": false,
      "stateMutability": "view",
      "type": "function"
    }
  ],
  "bytecode": "0x608060405234801561001057600080fd5b50604051618d70380380618d708339818101604052604081101561003357600080fd5b8101908080519060200190929190805190602001909291905050508082600073ffffffffffffffffffffffffffffffffffffffff168173ffffffffffffffffffffffffffffffffffffffff1614156100f3576040517f08c379a00000000000000000000000000000000000000000000000000000000081526004018080602001828103825260198152602001807f4f776e657220616464726573732063616e6e6f7420626520300000000000000081525060200191505060405180910390fd5b806000806101000a81548173ffffffffffffffffffffffffffffffffffffffff021916908373ffffffffffffffffffffffffffffffffffffffff1602179055507fb532073b38c83145e3e5135377a08bf9aab55bc0fd7c1179cd4fb995d2a5159c600082604051808373ffffffffffffffffffffffffffffffffffffffff1673ffffffffffffffffffffffffffffffffffffffff1681526020018273ffffffffffffffffffffffffffffffffffffffff1673ffffffffffffffffffffffffffffffffffffffff1681526020019250505060405180910390a15080600260006101000a81548173ffffffffffffffffffffffffffffffffffffffff021916908373ffffffffffffffffffffffffffffffffffffffff160217905550505050618b518061021f6000396000f3fe60806040523480156200001157600080fd5b5060043610620000a05760003560e01c806353a47bb7116200006f57806353a47bb7146200022c57806374185360146200027857806379ba50971462000284578063899ffef414620002905780638da5cb5b14620002f357620000a0565b806304f3bcec14620000a5578063130efa5014620000f15780631627540c14620001c15780632af64bd31462000208575b600080fd5b620000af6200033f565b604051808273ffffffffffffffffffffffffffffffffffffffff1673ffffffffffffffffffffffffffffffffffffffff16815260200191505060405180910390f35b6200017f60048036036101c08110156200010a57600080fd5b81019080803573ffffffffffffffffffffffffffffffffffffffff16906020019092919080604001909192919290803590602001909291908035906020019092919080351515906020019092919080606001909192919290806040019091929192908060600190919291929050505062000365565b604051808273ffffffffffffffffffffffffffffffffffffffff1673ffffffffffffffffffffffffffffffffffffffff16815260200191505060405180910390f35b6200020660048036036020811015620001d957600080fd5b81019080803573ffffffffffffffffffffffffffffffffffffffff169060200190929190505050620005ba565b005b620002126200066b565b604051808215151515815260200191505060405180910390f35b620002366200084e565b604051808273ffffffffffffffffffffffffffffffffffffffff1673ffffffffffffffffffffffffffffffffffffffff16815260200191505060405180910390f35b6200028262000874565b005b6200028e62000ae8565b005b6200029a62000d10565b6040518080602001828103825283818151815260200191508051906020019060200280838360005b83811015620002df578082015181840152602081019050620002c2565b505050509050019250505060405180910390f35b620002fd62000d84565b604051808273ffffffffffffffffffffffffffffffffffffffff1673ffffffffffffffffffffffffffffffffffffffff16815260200191505060405180910390f35b600260009054906101000a900473ffffffffffffffffffffffffffffffffffffffff1681565b6000806200037262000da9565b90503373ffffffffffffffffffffffffffffffffffffffff168173ffffffffffffffffffffffffffffffffffffffff161462000416576040517f08c379a000000000000000000000000000000000000000000000000000000000815260040180806020018281038252601e8152602001807f4f6e6c79207065726d697474656420627920746865206d616e616765722e000081525060200191505060405180910390fd5b808a600260009054906101000a900473ffffffffffffffffffffffffffffffffffffffff168b8b8b8b8b8b8b604051620004509062000fea565b808b73ffffffffffffffffffffffffffffffffffffffff1673ffffffffffffffffffffffffffffffffffffffff1681526020018a73ffffffffffffffffffffffffffffffffffffffff1673ffffffffffffffffffffffffffffffffffffffff1681526020018973ffffffffffffffffffffffffffffffffffffffff1673ffffffffffffffffffffffffffffffffffffffff16815260200188600260200280828437600081840152601f19601f8201169050808301925050508781526020018681526020018515151515815260200184600360200280828437600081840152601f19601f82011690508083019250505083600260200280828437600081840152601f19601f82011690508083019250505082600360200280828437600081840152601f19601f8201169050808301925050509a5050505050505050505050604051809103906000f080158015620005aa573d6000803e3d6000fd5b5091505098975050505050505050565b620005c462000ddb565b80600160006101000a81548173ffffffffffffffffffffffffffffffffffffffff021916908373ffffffffffffffffffffffffffffffffffffffff1602179055507f906a1c6bd7e3091ea86693dd029a831c19049ce77f1dce2ce0bab1cacbabce2281604051808273ffffffffffffffffffffffffffffffffffffffff1673ffffffffffffffffffffffffffffffffffffffff16815260200191505060405180910390a150565b600060606200067962000d10565b905060008090505b8151811015620008445760008282815181106200069a57fe5b602002602001015190506003600082815260200190815260200160002060009054906101000a900473ffffffffffffffffffffffffffffffffffffffff1673ffffffffffffffffffffffffffffffffffffffff16600260009054906101000a900473ffffffffffffffffffffffffffffffffffffffff1673ffffffffffffffffffffffffffffffffffffffff166321f8a721836040518263ffffffff1660e01b81526004018082815260200191505060206040518083038186803b1580156200076257600080fd5b505afa15801562000777573d6000803e3d6000fd5b505050506040513d60208110156200078e57600080fd5b810190808051906020019092919050505073ffffffffffffffffffffffffffffffffffffffff16141580620008225750600073ffffffffffffffffffffffffffffffffffffffff166003600083815260200190815260200160002060009054906101000a900473ffffffffffffffffffffffffffffffffffffffff1673ffffffffffffffffffffffffffffffffffffffff16145b156200083557600093505050506200084b565b50808060010191505062000681565b5060019150505b90565b600160009054906101000a900473ffffffffffffffffffffffffffffffffffffffff1681565b60606200088062000d10565b905060008090505b815181101562000ae4576000828281518110620008a157fe5b602002602001015190506000600260009054906101000a900473ffffffffffffffffffffffffffffffffffffffff1673ffffffffffffffffffffffffffffffffffffffff1663dacb2d01838460405160200180807f5265736f6c766572206d697373696e67207461726765743a20000000000000008152506019018281526020019150506040516020818303038152906040526040518363ffffffff1660e01b81526004018083815260200180602001828103825283818151815260200191508051906020019080838360005b838110156200098b5780820151818401526020810190506200096e565b50505050905090810190601f168015620009b95780820380516001836020036101000a031916815260200191505b50935050505060206040518083038186803b158015620009d857600080fd5b505afa158015620009ed573d6000803e3d6000fd5b505050506040513d602081101562000a0457600080fd5b81019080805190602001909291905050509050806003600084815260200190815260200160002060006101000a81548173ffffffffffffffffffffffffffffffffffffffff021916908373ffffffffffffffffffffffffffffffffffffffff1602179055507f88a93678a3692f6789d9546fc621bf7234b101ddb7d4fe479455112831b8aa688282604051808381526020018273ffffffffffffffffffffffffffffffffffffffff1673ffffffffffffffffffffffffffffffffffffffff1681526020019250505060405180910390a15050808060010191505062000888565b5050565b600160009054906101000a900473ffffffffffffffffffffffffffffffffffffffff1673ffffffffffffffffffffffffffffffffffffffff163373ffffffffffffffffffffffffffffffffffffffff161462000b90576040517f08c379a000000000000000000000000000000000000000000000000000000000815260040180806020018281038252603581526020018062008ab96035913960400191505060405180910390fd5b7fb532073b38c83145e3e5135377a08bf9aab55bc0fd7c1179cd4fb995d2a5159c6000809054906101000a900473ffffffffffffffffffffffffffffffffffffffff16600160009054906101000a900473ffffffffffffffffffffffffffffffffffffffff16604051808373ffffffffffffffffffffffffffffffffffffffff1673ffffffffffffffffffffffffffffffffffffffff1681526020018273ffffffffffffffffffffffffffffffffffffffff1673ffffffffffffffffffffffffffffffffffffffff1681526020019250505060405180910390a1600160009054906101000a900473ffffffffffffffffffffffffffffffffffffffff166000806101000a81548173ffffffffffffffffffffffffffffffffffffffff021916908373ffffffffffffffffffffffffffffffffffffffff1602179055506000600160006101000a81548173ffffffffffffffffffffffffffffffffffffffff021916908373ffffffffffffffffffffffffffffffffffffffff160217905550565b6060600160405190808252806020026020018201604052801562000d435781602001602082028038833980820191505090505b5090507f42696e6172794f7074696f6e4d61726b65744d616e61676572000000000000008160008151811062000d7557fe5b60200260200101818152505090565b6000809054906101000a900473ffffffffffffffffffffffffffffffffffffffff1681565b600062000dd67f42696e6172794f7074696f6e4d61726b65744d616e616765720000000000000062000e84565b905090565b6000809054906101000a900473ffffffffffffffffffffffffffffffffffffffff1673ffffffffffffffffffffffffffffffffffffffff163373ffffffffffffffffffffffffffffffffffffffff161462000e82576040517f08c379a000000000000000000000000000000000000000000000000000000000815260040180806020018281038252602f81526020018062008aee602f913960400191505060405180910390fd5b565b6000806003600084815260200190815260200160002060009054906101000a900473ffffffffffffffffffffffffffffffffffffffff169050600073ffffffffffffffffffffffffffffffffffffffff168173ffffffffffffffffffffffffffffffffffffffff1614158360405160200180807f4d697373696e6720616464726573733a200000000000000000000000000000008152506011018281526020019150506040516020818303038152906040529062000fe0576040517f08c379a00000000000000000000000000000000000000000000000000000000081526004018080602001828103825283818151815260200191508051906020019080838360005b8381101562000fa457808201518184015260208101905062000f87565b50505050905090810190601f16801562000fd25780820380516001836020036101000a031916815260200191505b509250505060405180910390fd5b5080915050919050565b617ac08062000ff98339019056fe60806040523480156200001157600080fd5b5060405162007ac038038062007ac083398181016040526102008110156200003857600080fd5b8101908080519060200190929190805190602001909291908051906020019092919091908260400180519060200190929190805190602001909291908051906020019092919091908260600191908260400191905050878a600073ffffffffffffffffffffffffffffffffffffffff168173ffffffffffffffffffffffffffffffffffffffff16141562000134576040517f08c379a00000000000000000000000000000000000000000000000000000000081526004018080602001828103825260198152602001807f4f776e657220616464726573732063616e6e6f7420626520300000000000000081525060200191505060405180910390fd5b806000806101000a81548173ffffffffffffffffffffffffffffffffffffffff021916908373ffffffffffffffffffffffffffffffffffffffff1602179055507fb532073b38c83145e3e5135377a08bf9aab55bc0fd7c1179cd4fb995d2a5159c600082604051808373ffffffffffffffffffffffffffffffffffffffff1673ffffffffffffffffffffffffffffffffffffffff1681526020018273ffffffffffffffffffffffffffffffffffffffff1673ffffffffffffffffffffffffffffffffffffffff1681526020019250505060405180910390a15080600260006101000a81548173ffffffffffffffffffffffffffffffffffffffff021916908373ffffffffffffffffffffffffffffffffffffffff1602179055505088601460006101000a81548173ffffffffffffffffffffffffffffffffffffffff021916908373ffffffffffffffffffffffffffffffffffffffff160217905550604051806040016040528088600060028110620002a957fe5b6020020151815260200188600160028110620002c157fe5b60200201518152506011600082015181600001556020820151816001015590505060405180606001604052808781526020018681526020016000815250600b6000820151816000015560208201518160010155604082015181600201559050506040518060600160405280846000600381106200033a57fe5b60200201518152602001846001600381106200035257fe5b60200201518152602001846002600381106200036a57fe5b6020020151815250600860008201518160000155602082015181600101556040820151816002015590505083601460156101000a81548160ff02191690831515021790555060008083600060028110620003c057fe5b602002015184600160028110620003d357fe5b602002015191509150620003ee82826200079a60201b60201c565b8a73ffffffffffffffffffffffffffffffffffffffff167f70bd4a33bf447720d717d08f3affb5aecfe4d2ebb8e3dd94539f5313e2447643600084604051808360018111156200043a57fe5b60ff1681526020018281526020019250505060405180910390a28a73ffffffffffffffffffffffffffffffffffffffff167f70bd4a33bf447720d717d08f3affb5aecfe4d2ebb8e3dd94539f5313e244764360018360405180836001811115620004a057fe5b60ff1681526020018281526020019250505060405180910390a26000620004d68284620008fa60201b620034441790919060201c565b90508060138190555060008085600060038110620004f057fe5b6020020151866001600381106200050357fe5b6020020151915091506040518060600160405280838152602001828152602001876002600381106200053157fe5b6020020151815250600e600082015181600001556020820151816001015560408201518160020155905050620006106200057a8284620008fa60201b620034441790919060201c565b73__$b8d33eeb36ac0d1e81cd70156e0043e778$__63907af6c06040518163ffffffff1660e01b815260040160206040518083038186803b158015620005bf57600080fd5b505af4158015620005d4573d6000803e3d6000fd5b505050506040513d6020811015620005eb57600080fd5b81019080805190602001909291905050506200098360201b620044a81790919060201c565b6015819055506200062985858562000a0d60201b60201c565b8d85604051620006399062000e34565b808373ffffffffffffffffffffffffffffffffffffffff1673ffffffffffffffffffffffffffffffffffffffff16815260200182815260200192505050604051809103906000f08015801562000693573d6000803e3d6000fd5b50600460000160006101000a81548173ffffffffffffffffffffffffffffffffffffffff021916908373ffffffffffffffffffffffffffffffffffffffff1602179055508d84604051620006e79062000e34565b808373ffffffffffffffffffffffffffffffffffffffff1673ffffffffffffffffffffffffffffffffffffffff16815260200182815260200192505050604051809103906000f08015801562000741573d6000803e3d6000fd5b50600460010160006101000a81548173ffffffffffffffffffffffffffffffffffffffff021916908373ffffffffffffffffffffffffffffffffffffffff16021790555050505050505050505050505050505062000e42565b6000620007b68284620008fa60201b620034441790919060201c565b905080601160000154111562000834576040517f08c379a00000000000000000000000000000000000000000000000000000000081526004018080602001828103825260148152602001807f496e73756666696369656e74206361706974616c00000000000000000000000081525060200191505060405180910390fd5b6000601160010154905062000858828562000a9b60201b62004b0b1790919060201c565b81111580156200088157506200087d828462000a9b60201b62004b0b1790919060201c565b8111155b620008f4576040517f08c379a000000000000000000000000000000000000000000000000000000000815260040180806020018281038252600f8152602001807f4269647320746f6f20736b65776564000000000000000000000000000000000081525060200191505060405180910390fd5b50505050565b60008082840190508381101562000979576040517f08c379a000000000000000000000000000000000000000000000000000000000815260040180806020018281038252601b8152602001807f536166654d6174683a206164646974696f6e206f766572666c6f77000000000081525060200191505060405180910390fd5b8091505092915050565b600082821115620009fc576040517f08c379a000000000000000000000000000000000000000000000000000000000815260040180806020018281038252601e8152602001807f536166654d6174683a207375627472616374696f6e206f766572666c6f77000081525060200191505060405180910390fd5b600082840390508091505092915050565b60008062000a2385858562000adf60201b60201c565b91509150604051806040016040528083815260200182815250600660008201518160000155602082015181600101559050507f6546f60f34df611fa42503098acc39d5ab88bc73febe64b3cc14e5a92e3a66a78282604051808381526020018281526020019250505060405180910390a15050505050565b600062000ad78262000ac3601260ff16600a0a8662000bbe60201b62004b9c1790919060201c565b62000c4960201b62004c221790919060201c565b905092915050565b6000806000851415801562000af5575060008414155b62000b68576040517f08c379a00000000000000000000000000000000000000000000000000000000081526004018080602001828103825260148152602001807f42696473206d757374206265206e6f6e7a65726f00000000000000000000000081525060200191505060405180910390fd5b600062000b7b8462000cda60201b60201c565b905062000b97818762000d1b60201b6200483d1790919060201c565b62000bb1828762000d1b60201b6200483d1790919060201c565b9250925050935093915050565b60008083141562000bd3576000905062000c43565b600082840290508284828162000be557fe5b041462000c3e576040517f08c379a000000000000000000000000000000000000000000000000000000000815260040180806020018281038252602181526020018062007a9f6021913960400191505060405180910390fd5b809150505b92915050565b600080821162000cc1576040517f08c379a000000000000000000000000000000000000000000000000000000000815260040180806020018281038252601a8152602001807f536166654d6174683a206469766973696f6e206279207a65726f00000000000081525060200191505060405180910390fd5b600082848162000ccd57fe5b0490508091505092915050565b60006014809054906101000a900460ff1662000d125762000d0c6015548362000d3f60201b620034281790919060201c565b62000d14565b815b9050919050565b600062000d378383601260ff16600a0a62000d6360201b60201c565b905092915050565b600062000d5b8383601260ff16600a0a62000dcf60201b60201c565b905092915050565b60008062000d9c8462000d88600a86028862000bbe60201b62004b9c1790919060201c565b62000c4960201b62004c221790919060201c565b90506005600a828162000dab57fe5b061062000db957600a810190505b600a818162000dc457fe5b049150509392505050565b600080600a838162000ddd57fe5b0462000df8858762000bbe60201b62004b9c1790919060201c565b8162000e0057fe5b0490506005600a828162000e1057fe5b061062000e1e57600a810190505b600a818162000e2957fe5b049150509392505050565b611ea48062005bfb83390190565b614da98062000e526000396000f3fe608060405234801561001057600080fd5b50600436106102485760003560e01c8063851492581161013b578063be5af9fe116100b8578063d3419bf31161007c578063d3419bf314610954578063dbea363814610979578063e4cfbdbd146109b4578063eef49ee314610a1c578063fd087ee514610a3a57610248565b8063be5af9fe1461087c578063c588f526146108a1578063c7a5bdc8146108c6578063c8db233e146108eb578063d068cdc51461092f57610248565b80639af1d35a116100ff5780639af1d35a146107875780639e3b34bf146107b3578063ac3791e3146107df578063b1c9fe6e14610801578063b634bfbc1461082d57610248565b8063851492581461066f578063899ffef41461068d5780638b034136146106ec5780638da5cb5b1461071157806398508ecd1461075b57610248565b80633dae89eb116101c957806353a47bb71161018d57806353a47bb7146105865780636392a51f146105d0578063653721471461062f578063741853601461065b57806379ba50971461066557610248565b80633dae89eb1461047a5780633f6fa6551461049f578063408e82af146104c15780634c33fe9414610520578063532f11791461056457610248565b806327745bae1161021057806327745bae146103c05780632810e1d6146103ca57806329e77b5d146103d45780632af64bd3146104335780633d7a783b1461045557610248565b806302d05d3f1461024d57806304f3bcec146102975780631069143a146102e15780631627540c1461035e5780632115e303146103a2575b600080fd5b610255610a9c565b604051808273ffffffffffffffffffffffffffffffffffffffff1673ffffffffffffffffffffffffffffffffffffffff16815260200191505060405180910390f35b61029f610ac2565b604051808273ffffffffffffffffffffffffffffffffffffffff1673ffffffffffffffffffffffffffffffffffffffff16815260200191505060405180910390f35b6102e9610ae8565b604051808373ffffffffffffffffffffffffffffffffffffffff1673ffffffffffffffffffffffffffffffffffffffff1681526020018273ffffffffffffffffffffffffffffffffffffffff1673ffffffffffffffffffffffffffffffffffffffff1681526020019250505060405180910390f35b6103a06004803603602081101561037457600080fd5b81019080803573ffffffffffffffffffffffffffffffffffffffff169060200190929190505050610b3a565b005b6103aa610be9565b6040518082815260200191505060405180910390f35b6103c8610bfb565b005b6103d2610c6a565b005b610416600480360360208110156103ea57600080fd5b81019080803573ffffffffffffffffffffffffffffffffffffffff16906020019092919050505061119d565b604051808381526020018281526020019250505060405180910390f35b61043b6111b2565b604051808215151515815260200191505060405180910390f35b61045d61138a565b604051808381526020018281526020019250505060405180910390f35b6104826114e1565b604051808381526020018281526020019250505060405180910390f35b6104a76114f4565b604051808215151515815260200191505060405180910390f35b610503600480360360208110156104d757600080fd5b81019080803573ffffffffffffffffffffffffffffffffffffffff169060200190929190505050611506565b604051808381526020018281526020019250505060405180910390f35b6105626004803603602081101561053657600080fd5b81019080803573ffffffffffffffffffffffffffffffffffffffff16906020019092919050505061151b565b005b61056c611675565b604051808215151515815260200191505060405180910390f35b61058e611688565b604051808273ffffffffffffffffffffffffffffffffffffffff1673ffffffffffffffffffffffffffffffffffffffff16815260200191505060405180910390f35b610612600480360360208110156105e657600080fd5b81019080803573ffffffffffffffffffffffffffffffffffffffff1690602001909291905050506116ae565b604051808381526020018281526020019250505060405180910390f35b6106376116c3565b6040518082600181111561064757fe5b60ff16815260200191505060405180910390f35b6106636116d2565b005b61066d61193b565b005b610677611b61565b6040518082815260200191505060405180910390f35b610695611faf565b6040518080602001828103825283818151815260200191508051906020019060200280838360005b838110156106d85780820151818401526020810190506106bd565b505050509050019250505060405180910390f35b6106f46120cf565b604051808381526020018281526020019250505060405180910390f35b6107196120e2565b604051808273ffffffffffffffffffffffffffffffffffffffff1673ffffffffffffffffffffffffffffffffffffffff16815260200191505060405180910390f35b610763612107565b60405180848152602001838152602001828152602001935050505060405180910390f35b61078f61211f565b60405180848152602001838152602001828152602001935050505060405180910390f35b6107bb612137565b60405180848152602001838152602001828152602001935050505060405180910390f35b6107e761214f565b604051808215151515815260200191505060405180910390f35b610809612194565b6040518082600381111561081957fe5b60ff16815260200191505060405180910390f35b6108666004803603604081101561084357600080fd5b81019080803560ff169060200190929190803590602001909291905050506121dd565b6040518082815260200191505060405180910390f35b610884612666565b604051808381526020018281526020019250505060405180910390f35b6108a9612678565b604051808381526020018281526020019250505060405180910390f35b6108ce612826565b604051808381526020018281526020019250505060405180910390f35b61092d6004803603602081101561090157600080fd5b81019080803573ffffffffffffffffffffffffffffffffffffffff169060200190929190505050612839565b005b6109376128c7565b604051808381526020018281526020019250505060405180910390f35b61095c612a1e565b604051808381526020018281526020019250505060405180910390f35b6109b26004803603604081101561098f57600080fd5b81019080803560ff16906020019092919080359060200190929190505050612a30565b005b610a06600480360360808110156109ca57600080fd5b81019080803560ff169060200190929190803560ff16906020019092919080359060200190929190803515159060200190929190505050612cf1565b6040518082815260200191505060405180910390f35b610a24612f3b565b6040518082815260200191505060405180910390f35b610a7f60048036036060811015610a5057600080fd5b81019080803560ff16906020019092919080359060200190929190803515159060200190929190505050612f41565b604051808381526020018281526020019250505060405180910390f35b601460009054906101000a900473ffffffffffffffffffffffffffffffffffffffff1681565b600260009054906101000a900473ffffffffffffffffffffffffffffffffffffffff1681565b60048060000160009054906101000a900473ffffffffffffffffffffffffffffffffffffffff16908060010160009054906101000a900473ffffffffffffffffffffffffffffffffffffffff16905082565b610b42613088565b80600160006101000a81548173ffffffffffffffffffffffffffffffffffffffff021916908373ffffffffffffffffffffffffffffffffffffffff1602179055507f906a1c6bd7e3091ea86693dd029a831c19049ce77f1dce2ce0bab1cacbabce2281604051808273ffffffffffffffffffffffffffffffffffffffff1673ffffffffffffffffffffffffffffffffffffffff16815260200191505060405180910390a150565b6000610bf660135461312f565b905090565b610c03613167565b73ffffffffffffffffffffffffffffffffffffffff1663086dabd16040518163ffffffff1660e01b815260040160006040518083038186803b158015610c4857600080fd5b505afa158015610c5c573d6000803e3d6000fd5b50505050610c68613197565b565b610c72613088565b610c7a613277565b610cec576040517f08c379a000000000000000000000000000000000000000000000000000000000815260040180806020018281038252600e8152602001807f4e6f7420796574206d617475726500000000000000000000000000000000000081525060200191505060405180910390fd5b610cf4613167565b73ffffffffffffffffffffffffffffffffffffffff1663086dabd16040518163ffffffff1660e01b815260040160006040518083038186803b158015610d3957600080fd5b505afa158015610d4d573d6000803e3d6000fd5b50505050610d59613197565b6014809054906101000a900460ff1615610ddb576040517f08c379a00000000000000000000000000000000000000000000000000000000081526004018080602001828103825260178152602001807f4d61726b657420616c7265616479207265736f6c76656400000000000000000081525060200191505060405180910390fd5b600080610de6613286565b91509150610df381613332565b610e65576040517f08c379a000000000000000000000000000000000000000000000000000000000815260040180806020018281038252600e8152602001807f5072696365206973207374616c6500000000000000000000000000000000000081525060200191505060405180910390fd5b81600b6002018190555060016014806101000a81548160ff0219169083151502179055506000610e936133f8565b9050600060135490506000610eb6600e600001548361342890919063ffffffff16565b90506000610ed2600e600101548461342890919063ffffffff16565b9050610eef610eea838361344490919063ffffffff16565b6134cc565b508373ffffffffffffffffffffffffffffffffffffffff1663a9059cbb610f14613563565b73ffffffffffffffffffffffffffffffffffffffff1663eb1edd616040518163ffffffff1660e01b815260040160206040518083038186803b158015610f5957600080fd5b505afa158015610f6d573d6000803e3d6000fd5b505050506040513d6020811015610f8357600080fd5b8101908080519060200190929190505050846040518363ffffffff1660e01b8152600401808373ffffffffffffffffffffffffffffffffffffffff1673ffffffffffffffffffffffffffffffffffffffff16815260200182815260200192505050602060405180830381600087803b158015610ffe57600080fd5b505af1158015611012573d6000803e3d6000fd5b505050506040513d602081101561102857600080fd5b8101908080519060200190929190505050508373ffffffffffffffffffffffffffffffffffffffff1663a9059cbb601460009054906101000a900473ffffffffffffffffffffffffffffffffffffffff16836040518363ffffffff1660e01b8152600401808373ffffffffffffffffffffffffffffffffffffffff1673ffffffffffffffffffffffffffffffffffffffff16815260200182815260200192505050602060405180830381600087803b1580156110e357600080fd5b505af11580156110f7573d6000803e3d6000fd5b505050506040513d602081101561110d57600080fd5b8101908080519060200190929190505050507f5528b7e06f48a519cf814c4e5293ee2737c3f5c28d93e30cca112ac649fdd235611148613593565b878760135486866040518087600181111561115f57fe5b60ff168152602001868152602001858152602001848152602001838152602001828152602001965050505050505060405180910390a1505050505050565b6000806111a9836135e2565b91509150915091565b600060606111be611faf565b905060008090505b81518110156113805760008282815181106111dd57fe5b602002602001015190506003600082815260200190815260200160002060009054906101000a900473ffffffffffffffffffffffffffffffffffffffff1673ffffffffffffffffffffffffffffffffffffffff16600260009054906101000a900473ffffffffffffffffffffffffffffffffffffffff1673ffffffffffffffffffffffffffffffffffffffff166321f8a721836040518263ffffffff1660e01b81526004018082815260200191505060206040518083038186803b1580156112a457600080fd5b505afa1580156112b8573d6000803e3d6000fd5b505050506040513d60208110156112ce57600080fd5b810190808051906020019092919050505073ffffffffffffffffffffffffffffffffffffffff161415806113615750600073ffffffffffffffffffffffffffffffffffffffff166003600083815260200190815260200160002060009054906101000a900473ffffffffffffffffffffffffffffffffffffffff1673ffffffffffffffffffffffffffffffffffffffff16145b156113725760009350505050611387565b5080806001019150506111c6565b5060019150505b90565b600080600460000160009054906101000a900473ffffffffffffffffffffffffffffffffffffffff1673ffffffffffffffffffffffffffffffffffffffff1663d6ff02e26040518163ffffffff1660e01b815260040160206040518083038186803b1580156113f857600080fd5b505afa15801561140c573d6000803e3d6000fd5b505050506040513d602081101561142257600080fd5b8101908080519060200190929190505050600460010160009054906101000a900473ffffffffffffffffffffffffffffffffffffffff1673ffffffffffffffffffffffffffffffffffffffff1663d6ff02e26040518163ffffffff1660e01b815260040160206040518083038186803b15801561149e57600080fd5b505afa1580156114b2573d6000803e3d6000fd5b505050506040513d60208110156114c857600080fd5b8101908080519060200190929190505050915091509091565b6000806114ec6137a8565b915091509091565b6014809054906101000a900460ff1681565b60008061151283613be8565b91509150915091565b611523613088565b61152b613dae565b1561159e576040517f08c379a00000000000000000000000000000000000000000000000000000000081526004018080602001828103825260108152602001807f42696464696e6720696e6163746976650000000000000000000000000000000081525060200191505060405180910390fd5b6000806115a9613dbd565b915091506000806115db601460009054906101000a900473ffffffffffffffffffffffffffffffffffffffff166135e2565b91509150600082851480156115ef57508184145b905080611664576040517f08c379a000000000000000000000000000000000000000000000000000000000815260040180806020018281038252600f8152602001807f4e6f742063616e63656c6c61626c65000000000000000000000000000000000081525060200191505060405180910390fd5b61166d86613f14565b505050505050565b601460159054906101000a900460ff1681565b600160009054906101000a900473ffffffffffffffffffffffffffffffffffffffff1681565b6000806116ba83614253565b91509150915091565b60006116cd613593565b905090565b60606116dc611faf565b905060008090505b81518110156119375760008282815181106116fb57fe5b602002602001015190506000600260009054906101000a900473ffffffffffffffffffffffffffffffffffffffff1673ffffffffffffffffffffffffffffffffffffffff1663dacb2d01838460405160200180807f5265736f6c766572206d697373696e67207461726765743a20000000000000008152506019018281526020019150506040516020818303038152906040526040518363ffffffff1660e01b81526004018083815260200180602001828103825283818151815260200191508051906020019080838360005b838110156117e35780820151818401526020810190506117c8565b50505050905090810190601f1680156118105780820380516001836020036101000a031916815260200191505b50935050505060206040518083038186803b15801561182e57600080fd5b505afa158015611842573d6000803e3d6000fd5b505050506040513d602081101561185857600080fd5b81019080805190602001909291905050509050806003600084815260200190815260200160002060006101000a81548173ffffffffffffffffffffffffffffffffffffffff021916908373ffffffffffffffffffffffffffffffffffffffff1602179055507f88a93678a3692f6789d9546fc621bf7234b101ddb7d4fe479455112831b8aa688282604051808381526020018273ffffffffffffffffffffffffffffffffffffffff1673ffffffffffffffffffffffffffffffffffffffff1681526020019250505060405180910390a1505080806001019150506116e4565b5050565b600160009054906101000a900473ffffffffffffffffffffffffffffffffffffffff1673ffffffffffffffffffffffffffffffffffffffff163373ffffffffffffffffffffffffffffffffffffffff16146119e1576040517f08c379a0000000000000000000000000000000000000000000000000000000008152600401808060200182810382526035815260200180614cb46035913960400191505060405180910390fd5b7fb532073b38c83145e3e5135377a08bf9aab55bc0fd7c1179cd4fb995d2a5159c6000809054906101000a900473ffffffffffffffffffffffffffffffffffffffff16600160009054906101000a900473ffffffffffffffffffffffffffffffffffffffff16604051808373ffffffffffffffffffffffffffffffffffffffff1673ffffffffffffffffffffffffffffffffffffffff1681526020018273ffffffffffffffffffffffffffffffffffffffff1673ffffffffffffffffffffffffffffffffffffffff1681526020019250505060405180910390a1600160009054906101000a900473ffffffffffffffffffffffffffffffffffffffff166000806101000a81548173ffffffffffffffffffffffffffffffffffffffff021916908373ffffffffffffffffffffffffffffffffffffffff1602179055506000600160006101000a81548173ffffffffffffffffffffffffffffffffffffffff021916908373ffffffffffffffffffffffffffffffffffffffff160217905550565b60006014809054906101000a900460ff16611c1557611b7e614419565b73ffffffffffffffffffffffffffffffffffffffff16637859f410306040518263ffffffff1660e01b8152600401808273ffffffffffffffffffffffffffffffffffffffff1673ffffffffffffffffffffffffffffffffffffffff168152602001915050600060405180830381600087803b158015611bfc57600080fd5b505af1158015611c10573d6000803e3d6000fd5b505050505b600080611c2133613be8565b91509150600082141580611c36575060008114155b15611c4657611c436137a8565b50505b600080611c5233614253565b91509150600082141580611c67575060008114155b611cd9576040517f08c379a00000000000000000000000000000000000000000000000000000000081526004018080602001828103825260138152602001807f4e6f7468696e6720746f2065786572636973650000000000000000000000000081525060200191505060405180910390fd5b60008214611d9e57600460000160009054906101000a900473ffffffffffffffffffffffffffffffffffffffff1673ffffffffffffffffffffffffffffffffffffffff16631b15982a336040518263ffffffff1660e01b8152600401808273ffffffffffffffffffffffffffffffffffffffff1673ffffffffffffffffffffffffffffffffffffffff168152602001915050600060405180830381600087803b158015611d8557600080fd5b505af1158015611d99573d6000803e3d6000fd5b505050505b60008114611e6357600460010160009054906101000a900473ffffffffffffffffffffffffffffffffffffffff1673ffffffffffffffffffffffffffffffffffffffff16631b15982a336040518263ffffffff1660e01b8152600401808273ffffffffffffffffffffffffffffffffffffffff1673ffffffffffffffffffffffffffffffffffffffff168152602001915050600060405180830381600087803b158015611e4a57600080fd5b505af1158015611e5e573d6000803e3d6000fd5b505050505b6000611e77611e70613593565b8484614442565b90503373ffffffffffffffffffffffffffffffffffffffff167fd82b6f69d7477fb41cd83d936de94990cee2fa1a309feeee90101fc0513b6a43826040518082815260200191505060405180910390a260008114611fa457611ed8816134cc565b50611ee16133f8565b73ffffffffffffffffffffffffffffffffffffffff1663a9059cbb33836040518363ffffffff1660e01b8152600401808373ffffffffffffffffffffffffffffffffffffffff1673ffffffffffffffffffffffffffffffffffffffff16815260200182815260200192505050602060405180830381600087803b158015611f6757600080fd5b505af1158015611f7b573d6000803e3d6000fd5b505050506040513d6020811015611f9157600080fd5b8101908080519060200190929190505050505b809550505050505090565b60606004604051908082528060200260200182016040528015611fe15781602001602082028038833980820191505090505b5090507f53797374656d53746174757300000000000000000000000000000000000000008160008151811061201257fe5b6020026020010181815250507f45786368616e67655261746573000000000000000000000000000000000000008160018151811061204c57fe5b6020026020010181815250507f53796e74687355534400000000000000000000000000000000000000000000008160028151811061208657fe5b6020026020010181815250507f466565506f6f6c00000000000000000000000000000000000000000000000000816003815181106120c057fe5b60200260200101818152505090565b6000806120da613dbd565b915091509091565b6000809054906101000a900473ffffffffffffffffffffffffffffffffffffffff1681565b600b8060000154908060010154908060020154905083565b600e8060000154908060010154908060020154905083565b60088060000154908060010154908060020154905083565b60008061215a613286565b9150506014809054906101000a900460ff1615801561217d575061217c613277565b5b801561218e575061218d81613332565b5b91505090565b600061219e613dae565b6121ab57600090506121da565b6121b3613277565b6121c057600190506121da565b6121c8614475565b6121d557600290506121da565b600390505b90565b60006121e7613dae565b1561225a576040517f08c379a00000000000000000000000000000000000000000000000000000000081526004018080602001828103825260108152602001807f42696464696e6720696e6163746976650000000000000000000000000000000081525060200191505060405180910390fd5b601460159054906101000a900460ff166122dc576040517f08c379a00000000000000000000000000000000000000000000000000000000081526004018080602001828103825260108152602001807f526566756e64732064697361626c65640000000000000000000000000000000081525060200191505060405180910390fd5b60008214156122ee5760009050612660565b601460009054906101000a900473ffffffffffffffffffffffffffffffffffffffff1673ffffffffffffffffffffffffffffffffffffffff163373ffffffffffffffffffffffffffffffffffffffff16141561239c57600080612350336135e2565b9150915060018081111561236057fe5b85600181111561236c57fe5b141561237d57808280925081935050505b61239961239385846144a890919063ffffffff16565b82614531565b50505b612444612435600e6002015473__$b8d33eeb36ac0d1e81cd70156e0043e778$__63907af6c06040518163ffffffff1660e01b815260040160206040518083038186803b1580156123ec57600080fd5b505af4158015612400573d6000803e3d6000fd5b505050506040513d602081101561241657600080fd5b81019080805190602001909291905050506144a890919063ffffffff16565b8361342890919063ffffffff16565b905061244f83614679565b73ffffffffffffffffffffffffffffffffffffffff1663410085df33846040518363ffffffff1660e01b8152600401808373ffffffffffffffffffffffffffffffffffffffff1673ffffffffffffffffffffffffffffffffffffffff16815260200182815260200192505050600060405180830381600087803b1580156124d557600080fd5b505af11580156124e9573d6000803e3d6000fd5b505050503373ffffffffffffffffffffffffffffffffffffffff167f9bd0a8ca6625e01a9cee5e86eec7813a8234b41f1ca0c9f15a008d1e1d00ee5f848361253a85876144a890919063ffffffff16565b6040518084600181111561254a57fe5b60ff168152602001838152602001828152602001935050505060405180910390a26000612576826134cc565b90506125806133f8565b73ffffffffffffffffffffffffffffffffffffffff1663a9059cbb33846040518363ffffffff1660e01b8152600401808373ffffffffffffffffffffffffffffffffffffffff1673ffffffffffffffffffffffffffffffffffffffff16815260200182815260200192505050602060405180830381600087803b15801561260657600080fd5b505af115801561261a573d6000803e3d6000fd5b505050506040513d602081101561263057600080fd5b81019080805190602001909291905050505060008061264d613dbd565b9150915061265c8282856146f4565b5050505b92915050565b60118060000154908060010154905082565b600080600090506014809054906101000a900460ff1615806126d457503373ffffffffffffffffffffffffffffffffffffffff166126bc6126b7613593565b614679565b73ffffffffffffffffffffffffffffffffffffffff16145b156126e7576126e460135461312f565b90505b600460000160009054906101000a900473ffffffffffffffffffffffffffffffffffffffff1673ffffffffffffffffffffffffffffffffffffffff163373ffffffffffffffffffffffffffffffffffffffff16141561274d576006600001549150612822565b600460010160009054906101000a900473ffffffffffffffffffffffffffffffffffffffff1673ffffffffffffffffffffffffffffffffffffffff163373ffffffffffffffffffffffffffffffffffffffff1614156127b3576006600101549150612821565b6040517f08c379a00000000000000000000000000000000000000000000000000000000081526004018080602001828103825260178152602001807f53656e646572206973206e6f7420616e206f7074696f6e00000000000000000081525060200191505060405180910390fd5b5b9091565b600080612831613286565b915091509091565b612841613088565b612849614475565b6128bb576040517f08c379a000000000000000000000000000000000000000000000000000000000815260040180806020018281038252601b8152602001807f556e65787069726564206f7074696f6e732072656d61696e696e67000000000081525060200191505060405180910390fd5b6128c481613f14565b50565b600080600460000160009054906101000a900473ffffffffffffffffffffffffffffffffffffffff1673ffffffffffffffffffffffffffffffffffffffff166318160ddd6040518163ffffffff1660e01b815260040160206040518083038186803b15801561293557600080fd5b505afa158015612949573d6000803e3d6000fd5b505050506040513d602081101561295f57600080fd5b8101908080519060200190929190505050600460010160009054906101000a900473ffffffffffffffffffffffffffffffffffffffff1673ffffffffffffffffffffffffffffffffffffffff166318160ddd6040518163ffffffff1660e01b815260040160206040518083038186803b1580156129db57600080fd5b505afa1580156129ef573d6000803e3d6000fd5b505050506040513d6020811015612a0557600080fd5b8101908080519060200190929190505050915091509091565b60068060000154908060010154905082565b612a38613dae565b15612aab576040517f08c379a00000000000000000000000000000000000000000000000000000000081526004018080602001828103825260108152602001807f42696464696e6720696e6163746976650000000000000000000000000000000081525060200191505060405180910390fd5b6000811415612ab957612ced565b612ac282614679565b73ffffffffffffffffffffffffffffffffffffffff166359d667a533836040518363ffffffff1660e01b8152600401808373ffffffffffffffffffffffffffffffffffffffff1673ffffffffffffffffffffffffffffffffffffffff16815260200182815260200192505050600060405180830381600087803b158015612b4857600080fd5b505af1158015612b5c573d6000803e3d6000fd5b505050503373ffffffffffffffffffffffffffffffffffffffff167f70bd4a33bf447720d717d08f3affb5aecfe4d2ebb8e3dd94539f5313e2447643838360405180836001811115612baa57fe5b60ff1681526020018281526020019250505060405180910390a26000612bcf8261477a565b9050612bd96133f8565b73ffffffffffffffffffffffffffffffffffffffff166323b872dd3330856040518463ffffffff1660e01b8152600401808473ffffffffffffffffffffffffffffffffffffffff1673ffffffffffffffffffffffffffffffffffffffff1681526020018373ffffffffffffffffffffffffffffffffffffffff1673ffffffffffffffffffffffffffffffffffffffff1681526020018281526020019350505050602060405180830381600087803b158015612c9357600080fd5b505af1158015612ca7573d6000803e3d6000fd5b505050506040513d6020811015612cbd57600080fd5b810190808051906020019092919050505050600080612cda613dbd565b91509150612ce98282856146f4565b5050505b5050565b600080612d096015548561342890919063ffffffff16565b90506000612d1686614679565b73ffffffffffffffffffffffffffffffffffffffff16638b0341366040518163ffffffff1660e01b815260040160206040518083038186803b158015612d5b57600080fd5b505afa158015612d6f573d6000803e3d6000fd5b505050506040513d6020811015612d8557600080fd5b8101908080519060200190929190505050905060006013549050600073__$b8d33eeb36ac0d1e81cd70156e0043e778$__63907af6c06040518163ffffffff1660e01b815260040160206040518083038186803b158015612de557600080fd5b505af4158015612df9573d6000803e3d6000fd5b505050506040513d6020811015612e0f57600080fd5b810190808051906020019092919050505090506000612e3c600e60020154836144a890919063ffffffff16565b9050886001811115612e4a57fe5b8a6001811115612e5657fe5b1415612ed4576000612e71868561342890919063ffffffff16565b90508715612e995784818096508192505050612e96828761342890919063ffffffff16565b95505b612ec7612eaf87856144a890919063ffffffff16565b612eb98388614811565b61483d90919063ffffffff16565b9650505050505050612f33565b6000612ee9868661483d90919063ffffffff16565b90508715612efc57838180955081925050505b6000612f088286614811565b905088612f155780612f29565b612f28838261483d90919063ffffffff16565b5b9750505050505050505b949350505050565b60135481565b600080600080612f4f613dbd565b91509150614cb185612f6357613444612f67565b6144a85b905060006001811115612f7657fe5b886001811115612f8257fe5b1415612f9d57612f9683888363ffffffff16565b9250612fae565b612fab82888363ffffffff16565b91505b851561305f5761305c61304d600e6002015473__$b8d33eeb36ac0d1e81cd70156e0043e778$__63907af6c06040518163ffffffff1660e01b815260040160206040518083038186803b15801561300457600080fd5b505af4158015613018573d6000803e3d6000fd5b505050506040513d602081101561302e57600080fd5b81019080805190602001909291905050506144a890919063ffffffff16565b8861342890919063ffffffff16565b96505b61307983836130746013548b8663ffffffff16565b614859565b94509450505050935093915050565b6000809054906101000a900473ffffffffffffffffffffffffffffffffffffffff1673ffffffffffffffffffffffffffffffffffffffff163373ffffffffffffffffffffffffffffffffffffffff161461312d576040517f08c379a000000000000000000000000000000000000000000000000000000000815260040180806020018281038252602f815260200180614ce9602f913960400191505060405180910390fd5b565b60006014809054906101000a900460ff1661315e576131596015548361342890919063ffffffff16565b613160565b815b9050919050565b60006131927f53797374656d5374617475730000000000000000000000000000000000000000614920565b905090565b61319f614419565b73ffffffffffffffffffffffffffffffffffffffff16635c975abb6040518163ffffffff1660e01b815260040160206040518083038186803b1580156131e457600080fd5b505afa1580156131f8573d6000803e3d6000fd5b505050506040513d602081101561320e57600080fd5b810190808051906020019092919050505015613275576040517f08c379a000000000000000000000000000000000000000000000000000000000815260040180806020018281038252603c815260200180614d39603c913960400191505060405180910390fd5b565b60004260086001015410905090565b600080613291614a82565b73ffffffffffffffffffffffffffffffffffffffff16634308a94f600b600001546040518263ffffffff1660e01b815260040180828152602001915050604080518083038186803b1580156132e557600080fd5b505afa1580156132f9573d6000803e3d6000fd5b505050506040513d604081101561330f57600080fd5b810190808051906020019092919080519060200190929190505050915091509091565b60008061333d614419565b73ffffffffffffffffffffffffffffffffffffffff16634a41d89d6040518163ffffffff1660e01b815260040160606040518083038186803b15801561338257600080fd5b505afa158015613396573d6000803e3d6000fd5b505050506040513d60608110156133ac57600080fd5b8101908080519060200190929190805190602001909291908051906020019092919050505050509050826133ee826008600101546144a890919063ffffffff16565b1115915050919050565b60006134237f53796e7468735553440000000000000000000000000000000000000000000000614920565b905090565b600061343c8383601260ff16600a0a614ab2565b905092915050565b6000808284019050838110156134c2576040517f08c379a000000000000000000000000000000000000000000000000000000000815260040180806020018281038252601b8152602001807f536166654d6174683a206164646974696f6e206f766572666c6f77000000000081525060200191505060405180910390fd5b8091505092915050565b60006134e3826013546144a890919063ffffffff16565b9050806013819055506134f4614419565b73ffffffffffffffffffffffffffffffffffffffff16636b3a0984836040518263ffffffff1660e01b815260040180828152602001915050600060405180830381600087803b15801561354657600080fd5b505af115801561355a573d6000803e3d6000fd5b50505050919050565b600061358e7f466565506f6f6c00000000000000000000000000000000000000000000000000614920565b905090565b6000806014809054906101000a900460ff16156135b757600b6002015490506135c5565b6135bf613286565b50809150505b80600b6001015411156135d95760016135dc565b60005b91505090565b600080600460000160009054906101000a900473ffffffffffffffffffffffffffffffffffffffff1673ffffffffffffffffffffffffffffffffffffffff16638dc30b70846040518263ffffffff1660e01b8152600401808273ffffffffffffffffffffffffffffffffffffffff1673ffffffffffffffffffffffffffffffffffffffff16815260200191505060206040518083038186803b15801561368757600080fd5b505afa15801561369b573d6000803e3d6000fd5b505050506040513d60208110156136b157600080fd5b8101908080519060200190929190505050600460010160009054906101000a900473ffffffffffffffffffffffffffffffffffffffff1673ffffffffffffffffffffffffffffffffffffffff16638dc30b70856040518263ffffffff1660e01b8152600401808273ffffffffffffffffffffffffffffffffffffffff1673ffffffffffffffffffffffffffffffffffffffff16815260200191505060206040518083038186803b15801561376457600080fd5b505afa158015613778573d6000803e3d6000fd5b505050506040513d602081101561378e57600080fd5b810190808051906020019092919050505091509150915091565b6000806137b3613167565b73ffffffffffffffffffffffffffffffffffffffff1663086dabd16040518163ffffffff1660e01b815260040160006040518083038186803b1580156137f857600080fd5b505afa15801561380c573d6000803e3d6000fd5b50505050613818613197565b613820613dae565b613892576040517f08c379a00000000000000000000000000000000000000000000000000000000081526004018080602001828103825260128152602001807f42696464696e6720696e636f6d706c657465000000000000000000000000000081525060200191505060405180910390fd5b600061389f60135461312f565b905060006138ab613593565b905060006014809054906101000a900460ff1690506000808215806138e65750600060018111156138d857fe5b8460018111156138e457fe5b145b156139e257600460000160009054906101000a900473ffffffffffffffffffffffffffffffffffffffff1673ffffffffffffffffffffffffffffffffffffffff16632bc43fd933600660000154886040518463ffffffff1660e01b8152600401808473ffffffffffffffffffffffffffffffffffffffff1673ffffffffffffffffffffffffffffffffffffffff1681526020018381526020018281526020019350505050602060405180830381600087803b1580156139a457600080fd5b505af11580156139b8573d6000803e3d6000fd5b505050506040513d60208110156139ce57600080fd5b810190808051906020019092919050505091505b821580613a0457506001808111156139f657fe5b846001811115613a0257fe5b145b15613b0057600460010160009054906101000a900473ffffffffffffffffffffffffffffffffffffffff1673ffffffffffffffffffffffffffffffffffffffff16632bc43fd933600660010154886040518463ffffffff1660e01b8152600401808473ffffffffffffffffffffffffffffffffffffffff1673ffffffffffffffffffffffffffffffffffffffff1681526020018381526020018281526020019350505050602060405180830381600087803b158015613ac257600080fd5b505af1158015613ad6573d6000803e3d6000fd5b505050506040513d6020811015613aec57600080fd5b810190808051906020019092919050505090505b600082141580613b11575060008114155b613b83576040517f08c379a00000000000000000000000000000000000000000000000000000000081526004018080602001828103825260108152602001807f4e6f7468696e6720746f20636c61696d0000000000000000000000000000000081525060200191505060405180910390fd5b3373ffffffffffffffffffffffffffffffffffffffff167fbbe753caa9bb201dbd1740ee3d61c6d2adf5fa89f30233d732281ae5db6a03d48383604051808381526020018281526020019250505060405180910390a281819650965050505050509091565b600080600460000160009054906101000a900473ffffffffffffffffffffffffffffffffffffffff1673ffffffffffffffffffffffffffffffffffffffff16639c3ee244846040518263ffffffff1660e01b8152600401808273ffffffffffffffffffffffffffffffffffffffff1673ffffffffffffffffffffffffffffffffffffffff16815260200191505060206040518083038186803b158015613c8d57600080fd5b505afa158015613ca1573d6000803e3d6000fd5b505050506040513d6020811015613cb757600080fd5b8101908080519060200190929190505050600460010160009054906101000a900473ffffffffffffffffffffffffffffffffffffffff1673ffffffffffffffffffffffffffffffffffffffff16639c3ee244856040518263ffffffff1660e01b8152600401808273ffffffffffffffffffffffffffffffffffffffff1673ffffffffffffffffffffffffffffffffffffffff16815260200191505060206040518083038186803b158015613d6a57600080fd5b505afa158015613d7e573d6000803e3d6000fd5b505050506040513d6020811015613d9457600080fd5b810190808051906020019092919050505091509150915091565b60004260086000015410905090565b600080600460000160009054906101000a900473ffffffffffffffffffffffffffffffffffffffff1673ffffffffffffffffffffffffffffffffffffffff16638b0341366040518163ffffffff1660e01b815260040160206040518083038186803b158015613e2b57600080fd5b505afa158015613e3f573d6000803e3d6000fd5b505050506040513d6020811015613e5557600080fd5b8101908080519060200190929190505050600460010160009054906101000a900473ffffffffffffffffffffffffffffffffffffffff1673ffffffffffffffffffffffffffffffffffffffff16638b0341366040518163ffffffff1660e01b815260040160206040518083038186803b158015613ed157600080fd5b505afa158015613ee5573d6000803e3d6000fd5b505050506040513d6020811015613efb57600080fd5b8101908080519060200190929190505050915091509091565b6000601354905060008114613f2e57613f2c816134cc565b505b6000613f386133f8565b905060008173ffffffffffffffffffffffffffffffffffffffff166370a08231306040518263ffffffff1660e01b8152600401808273ffffffffffffffffffffffffffffffffffffffff1673ffffffffffffffffffffffffffffffffffffffff16815260200191505060206040518083038186803b158015613fb957600080fd5b505afa158015613fcd573d6000803e3d6000fd5b505050506040513d6020811015613fe357600080fd5b81019080805190602001909291905050509050600081146140c2578173ffffffffffffffffffffffffffffffffffffffff1663a9059cbb85836040518363ffffffff1660e01b8152600401808373ffffffffffffffffffffffffffffffffffffffff1673ffffffffffffffffffffffffffffffffffffffff16815260200182815260200192505050602060405180830381600087803b15801561408557600080fd5b505af1158015614099573d6000803e3d6000fd5b505050506040513d60208110156140af57600080fd5b8101908080519060200190929190505050505b600460000160009054906101000a900473ffffffffffffffffffffffffffffffffffffffff1673ffffffffffffffffffffffffffffffffffffffff1663c8db233e856040518263ffffffff1660e01b8152600401808273ffffffffffffffffffffffffffffffffffffffff1673ffffffffffffffffffffffffffffffffffffffff168152602001915050600060405180830381600087803b15801561416657600080fd5b505af115801561417a573d6000803e3d6000fd5b50505050600460010160009054906101000a900473ffffffffffffffffffffffffffffffffffffffff1673ffffffffffffffffffffffffffffffffffffffff1663c8db233e856040518263ffffffff1660e01b8152600401808273ffffffffffffffffffffffffffffffffffffffff1673ffffffffffffffffffffffffffffffffffffffff168152602001915050600060405180830381600087803b15801561422257600080fd5b505af1158015614236573d6000803e3d6000fd5b505050508373ffffffffffffffffffffffffffffffffffffffff16ff5b600080600460000160009054906101000a900473ffffffffffffffffffffffffffffffffffffffff1673ffffffffffffffffffffffffffffffffffffffff166370a08231846040518263ffffffff1660e01b8152600401808273ffffffffffffffffffffffffffffffffffffffff1673ffffffffffffffffffffffffffffffffffffffff16815260200191505060206040518083038186803b1580156142f857600080fd5b505afa15801561430c573d6000803e3d6000fd5b505050506040513d602081101561432257600080fd5b8101908080519060200190929190505050600460010160009054906101000a900473ffffffffffffffffffffffffffffffffffffffff1673ffffffffffffffffffffffffffffffffffffffff166370a08231856040518263ffffffff1660e01b8152600401808273ffffffffffffffffffffffffffffffffffffffff1673ffffffffffffffffffffffffffffffffffffffff16815260200191505060206040518083038186803b1580156143d557600080fd5b505afa1580156143e9573d6000803e3d6000fd5b505050506040513d60208110156143ff57600080fd5b810190808051906020019092919050505091509150915091565b60008060009054906101000a900473ffffffffffffffffffffffffffffffffffffffff16905090565b600080600181111561445057fe5b84600181111561445c57fe5b141561446a5782905061446e565b8190505b9392505050565b60006014809054906101000a900460ff1680156144a357504260086002015410806144a257506000601354145b5b905090565b600082821115614520576040517f08c379a000000000000000000000000000000000000000000000000000000000815260040180806020018281038252601e8152602001807f536166654d6174683a207375627472616374696f6e206f766572666c6f77000081525060200191505060405180910390fd5b600082840390508091505092915050565b6000614546828461344490919063ffffffff16565b90508060116000015411156145c3576040517f08c379a00000000000000000000000000000000000000000000000000000000081526004018080602001828103825260148152602001807f496e73756666696369656e74206361706974616c00000000000000000000000081525060200191505060405180910390fd5b600060116001015490506145e08285614b0b90919063ffffffff16565b811115801561460157506145fd8284614b0b90919063ffffffff16565b8111155b614673576040517f08c379a000000000000000000000000000000000000000000000000000000000815260040180806020018281038252600f8152602001807f4269647320746f6f20736b65776564000000000000000000000000000000000081525060200191505060405180910390fd5b50505050565b600080600181111561468757fe5b82600181111561469357fe5b14156146c657600460000160009054906101000a900473ffffffffffffffffffffffffffffffffffffffff1690506146ef565b600460010160009054906101000a900473ffffffffffffffffffffffffffffffffffffffff1690505b919050565b600080614702858585614859565b91509150604051806040016040528083815260200182815250600660008201518160000155602082015181600101559050507f6546f60f34df611fa42503098acc39d5ab88bc73febe64b3cc14e5a92e3a66a78282604051808381526020018281526020019250505060405180910390a15050505050565b60006147918260135461344490919063ffffffff16565b9050806013819055506147a2614419565b73ffffffffffffffffffffffffffffffffffffffff1663aeab5849836040518263ffffffff1660e01b815260040180828152602001915050600060405180830381600087803b1580156147f457600080fd5b505af1158015614808573d6000803e3d6000fd5b50505050919050565b60008183106148325761482d82846144a890919063ffffffff16565b614835565b60005b905092915050565b60006148518383601260ff16600a0a614b41565b905092915050565b6000806000851415801561486e575060008414155b6148e0576040517f08c379a00000000000000000000000000000000000000000000000000000000081526004018080602001828103825260148152602001807f42696473206d757374206265206e6f6e7a65726f00000000000000000000000081525060200191505060405180910390fd5b60006148eb8461312f565b9050614900818761483d90919063ffffffff16565b614913828761483d90919063ffffffff16565b9250925050935093915050565b6000806003600084815260200190815260200160002060009054906101000a900473ffffffffffffffffffffffffffffffffffffffff169050600073ffffffffffffffffffffffffffffffffffffffff168173ffffffffffffffffffffffffffffffffffffffff1614158360405160200180807f4d697373696e6720616464726573733a2000000000000000000000000000000081525060110182815260200191505060405160208183030381529060405290614a78576040517f08c379a00000000000000000000000000000000000000000000000000000000081526004018080602001828103825283818151815260200191508051906020019080838360005b83811015614a3d578082015181840152602081019050614a22565b50505050905090810190601f168015614a6a5780820380516001836020036101000a031916815260200191505b509250505060405180910390fd5b5080915050919050565b6000614aad7f45786368616e6765526174657300000000000000000000000000000000000000614920565b905090565b600080600a8381614abf57fe5b04614ad38587614b9c90919063ffffffff16565b81614ada57fe5b0490506005600a8281614ae957fe5b0610614af657600a810190505b600a8181614b0057fe5b049150509392505050565b6000614b3982614b2b601260ff16600a0a86614b9c90919063ffffffff16565b614c2290919063ffffffff16565b905092915050565b600080614b6c84614b5e600a860288614b9c90919063ffffffff16565b614c2290919063ffffffff16565b90506005600a8281614b7a57fe5b0610614b8757600a810190505b600a8181614b9157fe5b049150509392505050565b600080831415614baf5760009050614c1c565b6000828402905082848281614bc057fe5b0414614c17576040517f08c379a0000000000000000000000000000000000000000000000000000000008152600401808060200182810382526021815260200180614d186021913960400191505060405180910390fd5b809150505b92915050565b6000808211614c99576040517f08c379a000000000000000000000000000000000000000000000000000000000815260040180806020018281038252601a8152602001807f536166654d6174683a206469766973696f6e206279207a65726f00000000000081525060200191505060405180910390fd5b6000828481614ca457fe5b0490508091505092915050565bfefe596f75206d757374206265206e6f6d696e61746564206265666f726520796f752063616e20616363657074206f776e6572736869704f6e6c792074686520636f6e7472616374206f776e6572206d617920706572666f726d207468697320616374696f6e536166654d6174683a206d756c7469706c69636174696f6e206f766572666c6f775468697320616374696f6e2063616e6e6f7420626520706572666f726d6564207768696c652074686520636f6e747261637420697320706175736564a265627a7a723158209cbc33a9cb2bf363bbf4aee3113e0dfd0b9fbd0b153c8a220ccd1610fa32ea6264736f6c63430005100032608060405234801561001057600080fd5b50604051611ea4380380611ea48339818101604052604081101561003357600080fd5b810190808051906020019092919080519060200190929190505050336000806101000a81548173ffffffffffffffffffffffffffffffffffffffff021916908373ffffffffffffffffffffffffffffffffffffffff16021790555080600160008473ffffffffffffffffffffffffffffffffffffffff1673ffffffffffffffffffffffffffffffffffffffff16815260200190815260200160002081905550806002819055505050611dba806100ea6000396000f3fe608060405234801561001057600080fd5b50600436106101215760003560e01c806370a08231116100ad5780639c3ee244116100715780639c3ee244146105be578063a9059cbb14610616578063c8db233e1461067c578063d6ff02e2146106c0578063dd62ed3e146106de57610121565b806370a082311461042357806380f556051461047b5780638b034136146104c55780638dc30b70146104e357806395d89b411461053b57610121565b806323b872dd116100f457806323b872dd146102715780632bc43fd9146102f7578063313ce56714610363578063410085df1461038757806359d667a5146103d557610121565b806306fdde0314610126578063095ea7b3146101a957806318160ddd1461020f5780631b15982a1461022d575b600080fd5b61012e610756565b6040518080602001828103825283818151815260200191508051906020019080838360005b8381101561016e578082015181840152602081019050610153565b50505050905090810190601f16801561019b5780820380516001836020036101000a031916815260200191505b509250505060405180910390f35b6101f5600480360360408110156101bf57600080fd5b81019080803573ffffffffffffffffffffffffffffffffffffffff1690602001909291908035906020019092919050505061078f565b604051808215151515815260200191505060405180910390f35b6102176108ba565b6040518082815260200191505060405180910390f35b61026f6004803603602081101561024357600080fd5b81019080803573ffffffffffffffffffffffffffffffffffffffff1690602001909291905050506108c0565b005b6102dd6004803603606081101561028757600080fd5b81019080803573ffffffffffffffffffffffffffffffffffffffff169060200190929190803573ffffffffffffffffffffffffffffffffffffffff16906020019092919080359060200190929190505050610aee565b604051808215151515815260200191505060405180910390f35b61034d6004803603606081101561030d57600080fd5b81019080803573ffffffffffffffffffffffffffffffffffffffff1690602001909291908035906020019092919080359060200190929190505050610c8e565b6040518082815260200191505060405180910390f35b61036b610f8a565b604051808260ff1660ff16815260200191505060405180910390f35b6103d36004803603604081101561039d57600080fd5b81019080803573ffffffffffffffffffffffffffffffffffffffff16906020019092919080359060200190929190505050610f8f565b005b610421600480360360408110156103eb57600080fd5b81019080803573ffffffffffffffffffffffffffffffffffffffff1690602001909291908035906020019092919050505061110d565b005b6104656004803603602081101561043957600080fd5b81019080803573ffffffffffffffffffffffffffffffffffffffff16906020019092919050505061128b565b6040518082815260200191505060405180910390f35b6104836112a3565b604051808273ffffffffffffffffffffffffffffffffffffffff1673ffffffffffffffffffffffffffffffffffffffff16815260200191505060405180910390f35b6104cd6112c8565b6040518082815260200191505060405180910390f35b610525600480360360208110156104f957600080fd5b81019080803573ffffffffffffffffffffffffffffffffffffffff1690602001909291905050506112ce565b6040518082815260200191505060405180910390f35b6105436112e6565b6040518080602001828103825283818151815260200191508051906020019080838360005b83811015610583578082015181840152602081019050610568565b50505050905090810190601f1680156105b05780820380516001836020036101000a031916815260200191505b509250505060405180910390f35b610600600480360360208110156105d457600080fd5b81019080803573ffffffffffffffffffffffffffffffffffffffff16906020019092919050505061131f565b6040518082815260200191505060405180910390f35b6106626004803603604081101561062c57600080fd5b81019080803573ffffffffffffffffffffffffffffffffffffffff16906020019092919080359060200190929190505050611426565b604051808215151515815260200191505060405180910390f35b6106be6004803603602081101561069257600080fd5b81019080803573ffffffffffffffffffffffffffffffffffffffff16906020019092919050505061143b565b005b6106c8611516565b6040518082815260200191505060405180910390f35b610740600480360360408110156106f457600080fd5b81019080803573ffffffffffffffffffffffffffffffffffffffff169060200190929190803573ffffffffffffffffffffffffffffffffffffffff1690602001909291905050506115d6565b6040518082815260200191505060405180910390f35b6040518060400160405280601181526020017f534e582042696e617279204f7074696f6e00000000000000000000000000000081525081565b60008073ffffffffffffffffffffffffffffffffffffffff168373ffffffffffffffffffffffffffffffffffffffff1614156107ca57600080fd5b81600560003373ffffffffffffffffffffffffffffffffffffffff1673ffffffffffffffffffffffffffffffffffffffff16815260200190815260200160002060008573ffffffffffffffffffffffffffffffffffffffff1673ffffffffffffffffffffffffffffffffffffffff168152602001908152602001600020819055508273ffffffffffffffffffffffffffffffffffffffff163373ffffffffffffffffffffffffffffffffffffffff167f8c5be1e5ebec7d5bd14f71427d1e84f3dd0314c0f7b2291e5b200ac8c7c3b925846040518082815260200191505060405180910390a36001905092915050565b60045481565b6000809054906101000a900473ffffffffffffffffffffffffffffffffffffffff1673ffffffffffffffffffffffffffffffffffffffff163373ffffffffffffffffffffffffffffffffffffffff1614610982576040517f08c379a00000000000000000000000000000000000000000000000000000000081526004018080602001828103825260138152602001807f4f6e6c79206d61726b657420616c6c6f7765640000000000000000000000000081525060200191505060405180910390fd5b6000600360008373ffffffffffffffffffffffffffffffffffffffff1673ffffffffffffffffffffffffffffffffffffffff16815260200190815260200160002054905060008114156109d55750610aeb565b6000600360008473ffffffffffffffffffffffffffffffffffffffff1673ffffffffffffffffffffffffffffffffffffffff16815260200190815260200160002081905550610a2f816004546115fb90919063ffffffff16565b600481905550600073ffffffffffffffffffffffffffffffffffffffff168273ffffffffffffffffffffffffffffffffffffffff167fddf252ad1be2c89b69c2b068fc378daa952ba7f163c4a11628f55a4df523b3ef836040518082815260200191505060405180910390a38173ffffffffffffffffffffffffffffffffffffffff167f696de425f79f4a40bc6d2122ca50507f0efbeabbff86a84871b7196ab8ea8df7826040518082815260200191505060405180910390a2505b50565b600080600560008673ffffffffffffffffffffffffffffffffffffffff1673ffffffffffffffffffffffffffffffffffffffff16815260200190815260200160002060003373ffffffffffffffffffffffffffffffffffffffff1673ffffffffffffffffffffffffffffffffffffffff16815260200190815260200160002054905080831115610be6576040517f08c379a00000000000000000000000000000000000000000000000000000000081526004018080602001828103825260168152602001807f496e73756666696369656e7420616c6c6f77616e63650000000000000000000081525060200191505060405180910390fd5b610bf983826115fb90919063ffffffff16565b600560008773ffffffffffffffffffffffffffffffffffffffff1673ffffffffffffffffffffffffffffffffffffffff16815260200190815260200160002060003373ffffffffffffffffffffffffffffffffffffffff1673ffffffffffffffffffffffffffffffffffffffff16815260200190815260200160002081905550610c84858585611684565b9150509392505050565b60008060009054906101000a900473ffffffffffffffffffffffffffffffffffffffff1673ffffffffffffffffffffffffffffffffffffffff163373ffffffffffffffffffffffffffffffffffffffff1614610d52576040517f08c379a00000000000000000000000000000000000000000000000000000000081526004018080602001828103825260138152602001807f4f6e6c79206d61726b657420616c6c6f7765640000000000000000000000000081525060200191505060405180910390fd5b6000600160008673ffffffffffffffffffffffffffffffffffffffff1673ffffffffffffffffffffffffffffffffffffffff1681526020019081526020016000205490506000610da38286866119f6565b90506000811415610db957600092505050610f83565b610dce826002546115fb90919063ffffffff16565b6002819055506000600160008873ffffffffffffffffffffffffffffffffffffffff1673ffffffffffffffffffffffffffffffffffffffff16815260200190815260200160002081905550610e2e81600454611aca90919063ffffffff16565b600481905550610e8681600360008973ffffffffffffffffffffffffffffffffffffffff1673ffffffffffffffffffffffffffffffffffffffff16815260200190815260200160002054611aca90919063ffffffff16565b600360008873ffffffffffffffffffffffffffffffffffffffff1673ffffffffffffffffffffffffffffffffffffffff168152602001908152602001600020819055508573ffffffffffffffffffffffffffffffffffffffff16600073ffffffffffffffffffffffffffffffffffffffff167fddf252ad1be2c89b69c2b068fc378daa952ba7f163c4a11628f55a4df523b3ef836040518082815260200191505060405180910390a38573ffffffffffffffffffffffffffffffffffffffff167fa59f12e354e8cd10bb74c559844c2dd69a5458e31fe56c7594c62ca57480509a826040518082815260200191505060405180910390a280925050505b9392505050565b601281565b6000809054906101000a900473ffffffffffffffffffffffffffffffffffffffff1673ffffffffffffffffffffffffffffffffffffffff163373ffffffffffffffffffffffffffffffffffffffff1614611051576040517f08c379a00000000000000000000000000000000000000000000000000000000081526004018080602001828103825260138152602001807f4f6e6c79206d61726b657420616c6c6f7765640000000000000000000000000081525060200191505060405180910390fd5b6110ab6110a682600160008673ffffffffffffffffffffffffffffffffffffffff1673ffffffffffffffffffffffffffffffffffffffff168152602001908152602001600020546115fb90919063ffffffff16565b611b52565b600160008473ffffffffffffffffffffffffffffffffffffffff1673ffffffffffffffffffffffffffffffffffffffff16815260200190815260200160002081905550611103816002546115fb90919063ffffffff16565b6002819055505050565b6000809054906101000a900473ffffffffffffffffffffffffffffffffffffffff1673ffffffffffffffffffffffffffffffffffffffff163373ffffffffffffffffffffffffffffffffffffffff16146111cf576040517f08c379a00000000000000000000000000000000000000000000000000000000081526004018080602001828103825260138152602001807f4f6e6c79206d61726b657420616c6c6f7765640000000000000000000000000081525060200191505060405180910390fd5b61122961122482600160008673ffffffffffffffffffffffffffffffffffffffff1673ffffffffffffffffffffffffffffffffffffffff16815260200190815260200160002054611aca90919063ffffffff16565b611b52565b600160008473ffffffffffffffffffffffffffffffffffffffff1673ffffffffffffffffffffffffffffffffffffffff1681526020019081526020016000208190555061128181600254611aca90919063ffffffff16565b6002819055505050565b60036020528060005260406000206000915090505481565b6000809054906101000a900473ffffffffffffffffffffffffffffffffffffffff1681565b60025481565b60016020528060005260406000206000915090505481565b6040518060400160405280600481526020017f734f50540000000000000000000000000000000000000000000000000000000081525081565b60008060008060009054906101000a900473ffffffffffffffffffffffffffffffffffffffff1673ffffffffffffffffffffffffffffffffffffffff1663c588f5266040518163ffffffff1660e01b8152600401604080518083038186803b15801561138a57600080fd5b505afa15801561139e573d6000803e3d6000fd5b505050506040513d60408110156113b457600080fd5b8101908080519060200190929190805190602001909291905050509150915061141d600160008673ffffffffffffffffffffffffffffffffffffffff1673ffffffffffffffffffffffffffffffffffffffff1681526020019081526020016000205483836119f6565b92505050919050565b6000611433338484611684565b905092915050565b6000809054906101000a900473ffffffffffffffffffffffffffffffffffffffff1673ffffffffffffffffffffffffffffffffffffffff163373ffffffffffffffffffffffffffffffffffffffff16146114fd576040517f08c379a00000000000000000000000000000000000000000000000000000000081526004018080602001828103825260138152602001807f4f6e6c79206d61726b657420616c6c6f7765640000000000000000000000000081525060200191505060405180910390fd5b8073ffffffffffffffffffffffffffffffffffffffff16ff5b6000806000809054906101000a900473ffffffffffffffffffffffffffffffffffffffff1673ffffffffffffffffffffffffffffffffffffffff1663c588f5266040518163ffffffff1660e01b8152600401604080518083038186803b15801561157f57600080fd5b505afa158015611593573d6000803e3d6000fd5b505050506040513d60408110156115a957600080fd5b8101908080519060200190929190805190602001909291905050509150506115d081611be4565b91505090565b6005602052816000526040600020602052806000526040600020600091509150505481565b600082821115611673576040517f08c379a000000000000000000000000000000000000000000000000000000000815260040180806020018281038252601e8152602001807f536166654d6174683a207375627472616374696f6e206f766572666c6f77000081525060200191505060405180910390fd5b600082840390508091505092915050565b60008060009054906101000a900473ffffffffffffffffffffffffffffffffffffffff1673ffffffffffffffffffffffffffffffffffffffff166327745bae6040518163ffffffff1660e01b815260040160006040518083038186803b1580156116ed57600080fd5b505afa158015611701573d6000803e3d6000fd5b50505050600073ffffffffffffffffffffffffffffffffffffffff168373ffffffffffffffffffffffffffffffffffffffff161415801561176e57503073ffffffffffffffffffffffffffffffffffffffff168373ffffffffffffffffffffffffffffffffffffffff1614155b6117e0576040517f08c379a000000000000000000000000000000000000000000000000000000000815260040180806020018281038252600f8152602001807f496e76616c69642061646472657373000000000000000000000000000000000081525060200191505060405180910390fd5b6000600360008673ffffffffffffffffffffffffffffffffffffffff1673ffffffffffffffffffffffffffffffffffffffff1681526020019081526020016000205490508083111561189a576040517f08c379a00000000000000000000000000000000000000000000000000000000081526004018080602001828103825260148152602001807f496e73756666696369656e742062616c616e636500000000000000000000000081525060200191505060405180910390fd5b6118ad83826115fb90919063ffffffff16565b600360008773ffffffffffffffffffffffffffffffffffffffff1673ffffffffffffffffffffffffffffffffffffffff1681526020019081526020016000208190555061194283600360008773ffffffffffffffffffffffffffffffffffffffff1673ffffffffffffffffffffffffffffffffffffffff16815260200190815260200160002054611aca90919063ffffffff16565b600360008673ffffffffffffffffffffffffffffffffffffffff1673ffffffffffffffffffffffffffffffffffffffff168152602001908152602001600020819055508373ffffffffffffffffffffffffffffffffffffffff168573ffffffffffffffffffffffffffffffffffffffff167fddf252ad1be2c89b69c2b068fc378daa952ba7f163c4a11628f55a4df523b3ef856040518082815260200191505060405180910390a360019150509392505050565b600080611a0c8486611c1990919063ffffffff16565b90506000611a1984611be4565b905060025486148015611a2d575060008614155b80611a385750600081145b15611a47578092505050611ac3565b80821115611abd576040517f08c379a00000000000000000000000000000000000000000000000000000000081526004018080602001828103825260128152602001807f737570706c79203c20636c61696d61626c65000000000000000000000000000081525060200191505060405180910390fd5b81925050505b9392505050565b600080828401905083811015611b48576040517f08c379a000000000000000000000000000000000000000000000000000000000815260040180806020018281038252601b8152602001807f536166654d6174683a206164646974696f6e206f766572666c6f77000000000081525060200191505060405180910390fd5b8091505092915050565b6000662386f26fc1000082101580611b6a5750600082145b611bdc576040517f08c379a000000000000000000000000000000000000000000000000000000000815260040180806020018281038252600f8152602001807f42616c616e6365203c2024302e3031000000000000000000000000000000000081525060200191505060405180910390fd5b819050919050565b6000806004549050808311611bfd576000915050611c14565b611c1081846115fb90919063ffffffff16565b9150505b919050565b6000611c4782611c39601260ff16600a0a86611c4f90919063ffffffff16565b611cd590919063ffffffff16565b905092915050565b600080831415611c625760009050611ccf565b6000828402905082848281611c7357fe5b0414611cca576040517f08c379a0000000000000000000000000000000000000000000000000000000008152600401808060200182810382526021815260200180611d656021913960400191505060405180910390fd5b809150505b92915050565b6000808211611d4c576040517f08c379a000000000000000000000000000000000000000000000000000000000815260040180806020018281038252601a8152602001807f536166654d6174683a206469766973696f6e206279207a65726f00000000000081525060200191505060405180910390fd5b6000828481611d5757fe5b049050809150509291505056fe536166654d6174683a206d756c7469706c69636174696f6e206f766572666c6f77a265627a7a72315820c003d0275e4f20f4122dedaa148f114b0f0214bf85b592b1279241b1691ac72e64736f6c63430005100032536166654d6174683a206d756c7469706c69636174696f6e206f766572666c6f77596f75206d757374206265206e6f6d696e61746564206265666f726520796f752063616e20616363657074206f776e6572736869704f6e6c792074686520636f6e7472616374206f776e6572206d617920706572666f726d207468697320616374696f6ea265627a7a7231582089819bff1cfc8e8d06a62b455ec2162da28973329158e86c742fa1437c4e0ce364736f6c63430005100032",
  "linkReferences": {
    "contracts/SafeDecimalMath.sol": {
      "SafeDecimalMath": [
        {
          "length": 20,
          "start": 6036
        },
        {
          "length": 20,
          "start": 17428
        },
        {
          "length": 20,
          "start": 19981
        },
        {
          "length": 20,
          "start": 20524
        }
      ]
    }
  },
  "deployedLinkReferences": {
    "contracts/SafeDecimalMath.sol": {
      "SafeDecimalMath": [
        {
          "length": 20,
          "start": 5493
        },
        {
          "length": 20,
          "start": 16885
        },
        {
          "length": 20,
          "start": 19438
        },
        {
          "length": 20,
          "start": 19981
        }
      ]
    }
  }
}