{
  "_format": "hh-sol-artifact-1",
  "contractName": "FeePool",
  "sourceName": "contracts/FeePool.sol",
  "abi": [
    {
      "inputs": [
        {
          "internalType": "address payable",
          "name": "_proxy",
          "type": "address"
        },
        {
          "internalType": "address",
          "name": "_owner",
          "type": "address"
        },
        {
          "internalType": "address",
          "name": "_resolver",
          "type": "address"
        }
      ],
      "payable": false,
      "stateMutability": "nonpayable",
      "type": "constructor"
    },
    {
      "anonymous": false,
      "inputs": [
        {
          "indexed": false,
          "internalType": "bytes32",
          "name": "name",
          "type": "bytes32"
        },
        {
          "indexed": false,
          "internalType": "address",
          "name": "destination",
          "type": "address"
        }
      ],
      "name": "CacheUpdated",
      "type": "event"
    },
    {
      "anonymous": false,
      "inputs": [
        {
          "indexed": false,
          "internalType": "uint256",
          "name": "feePeriodId",
          "type": "uint256"
        }
      ],
      "name": "FeePeriodClosed",
      "type": "event"
    },
    {
      "anonymous": false,
      "inputs": [
        {
          "indexed": false,
          "internalType": "address",
          "name": "account",
          "type": "address"
        },
        {
          "indexed": false,
          "internalType": "uint256",
          "name": "sUSDAmount",
          "type": "uint256"
        },
        {
          "indexed": false,
          "internalType": "uint256",
          "name": "snxRewards",
          "type": "uint256"
        }
      ],
      "name": "FeesClaimed",
      "type": "event"
    },
    {
      "anonymous": false,
      "inputs": [
        {
          "indexed": true,
          "internalType": "address",
          "name": "account",
          "type": "address"
        },
        {
          "indexed": false,
          "internalType": "uint256",
          "name": "debtRatio",
          "type": "uint256"
        },
        {
          "indexed": false,
          "internalType": "uint256",
          "name": "debtEntryIndex",
          "type": "uint256"
        },
        {
          "indexed": false,
          "internalType": "uint256",
          "name": "feePeriodStartingDebtIndex",
          "type": "uint256"
        }
      ],
      "name": "IssuanceDebtRatioEntry",
      "type": "event"
    },
    {
      "anonymous": false,
      "inputs": [
        {
          "indexed": false,
          "internalType": "address",
          "name": "oldOwner",
          "type": "address"
        },
        {
          "indexed": false,
          "internalType": "address",
          "name": "newOwner",
          "type": "address"
        }
      ],
      "name": "OwnerChanged",
      "type": "event"
    },
    {
      "anonymous": false,
      "inputs": [
        {
          "indexed": false,
          "internalType": "address",
          "name": "newOwner",
          "type": "address"
        }
      ],
      "name": "OwnerNominated",
      "type": "event"
    },
    {
      "anonymous": false,
      "inputs": [
        {
          "indexed": false,
          "internalType": "address",
          "name": "proxyAddress",
          "type": "address"
        }
      ],
      "name": "ProxyUpdated",
      "type": "event"
    },
    {
      "constant": true,
      "inputs": [],
      "name": "FEE_ADDRESS",
      "outputs": [
        {
          "internalType": "address",
          "name": "",
          "type": "address"
        }
      ],
      "payable": false,
      "stateMutability": "view",
      "type": "function"
    },
    {
      "constant": true,
      "inputs": [],
      "name": "FEE_PERIOD_LENGTH",
      "outputs": [
        {
          "internalType": "uint8",
          "name": "",
          "type": "uint8"
        }
      ],
      "payable": false,
      "stateMutability": "view",
      "type": "function"
    },
    {
      "constant": false,
      "inputs": [],
      "name": "acceptOwnership",
      "outputs": [],
      "payable": false,
      "stateMutability": "nonpayable",
      "type": "function"
    },
    {
      "constant": false,
      "inputs": [
        {
          "internalType": "address",
          "name": "account",
          "type": "address"
        },
        {
          "internalType": "uint256",
          "name": "debtRatio",
          "type": "uint256"
        },
        {
          "internalType": "uint256",
          "name": "debtEntryIndex",
          "type": "uint256"
        }
      ],
      "name": "appendAccountIssuanceRecord",
      "outputs": [],
      "payable": false,
      "stateMutability": "nonpayable",
      "type": "function"
    },
    {
      "constant": false,
      "inputs": [],
      "name": "claimFees",
      "outputs": [
        {
          "internalType": "bool",
          "name": "",
          "type": "bool"
        }
      ],
      "payable": false,
      "stateMutability": "nonpayable",
      "type": "function"
    },
    {
      "constant": false,
      "inputs": [
        {
          "internalType": "address",
          "name": "claimingForAddress",
          "type": "address"
        }
      ],
      "name": "claimOnBehalf",
      "outputs": [
        {
          "internalType": "bool",
          "name": "",
          "type": "bool"
        }
      ],
      "payable": false,
      "stateMutability": "nonpayable",
      "type": "function"
    },
    {
      "constant": false,
      "inputs": [],
      "name": "closeCurrentFeePeriod",
      "outputs": [],
      "payable": false,
      "stateMutability": "nonpayable",
      "type": "function"
    },
    {
      "constant": true,
      "inputs": [
        {
          "internalType": "address",
          "name": "account",
          "type": "address"
        },
        {
          "internalType": "uint256",
          "name": "period",
          "type": "uint256"
        }
      ],
      "name": "effectiveDebtRatioForPeriod",
      "outputs": [
        {
          "internalType": "uint256",
          "name": "",
          "type": "uint256"
        }
      ],
      "payable": false,
      "stateMutability": "view",
      "type": "function"
    },
    {
      "constant": true,
      "inputs": [],
      "name": "feePeriodDuration",
      "outputs": [
        {
          "internalType": "uint256",
          "name": "",
          "type": "uint256"
        }
      ],
      "payable": false,
      "stateMutability": "view",
      "type": "function"
    },
    {
      "constant": true,
      "inputs": [
        {
          "internalType": "address",
          "name": "account",
          "type": "address"
        }
      ],
      "name": "feesAvailable",
      "outputs": [
        {
          "internalType": "uint256",
          "name": "",
          "type": "uint256"
        },
        {
          "internalType": "uint256",
          "name": "",
          "type": "uint256"
        }
      ],
      "payable": false,
      "stateMutability": "view",
      "type": "function"
    },
    {
      "constant": true,
      "inputs": [
        {
          "internalType": "address",
          "name": "account",
          "type": "address"
        }
      ],
      "name": "feesByPeriod",
      "outputs": [
        {
          "internalType": "uint256[2][2]",
          "name": "results",
          "type": "uint256[2][2]"
        }
      ],
      "payable": false,
      "stateMutability": "view",
      "type": "function"
    },
    {
      "constant": true,
      "inputs": [
        {
          "internalType": "address",
          "name": "_claimingAddress",
          "type": "address"
        }
      ],
      "name": "getLastFeeWithdrawal",
      "outputs": [
        {
          "internalType": "uint256",
          "name": "",
          "type": "uint256"
        }
      ],
      "payable": false,
      "stateMutability": "view",
      "type": "function"
    },
    {
      "constant": true,
      "inputs": [],
      "name": "getPenaltyThresholdRatio",
      "outputs": [
        {
          "internalType": "uint256",
          "name": "",
          "type": "uint256"
        }
      ],
      "payable": false,
      "stateMutability": "view",
      "type": "function"
    },
    {
      "constant": false,
      "inputs": [
        {
          "internalType": "uint256",
          "name": "feePeriodIndex",
          "type": "uint256"
        },
        {
          "internalType": "uint256",
          "name": "feePeriodId",
          "type": "uint256"
        },
        {
          "internalType": "uint256",
          "name": "startingDebtIndex",
          "type": "uint256"
        },
        {
          "internalType": "uint256",
          "name": "startTime",
          "type": "uint256"
        },
        {
          "internalType": "uint256",
          "name": "feesToDistribute",
          "type": "uint256"
        },
        {
          "internalType": "uint256",
          "name": "feesClaimed",
          "type": "uint256"
        },
        {
          "internalType": "uint256",
          "name": "rewardsToDistribute",
          "type": "uint256"
        },
        {
          "internalType": "uint256",
          "name": "rewardsClaimed",
          "type": "uint256"
        }
      ],
      "name": "importFeePeriod",
      "outputs": [],
      "payable": false,
      "stateMutability": "nonpayable",
      "type": "function"
    },
    {
      "constant": true,
      "inputs": [],
      "name": "integrationProxy",
      "outputs": [
        {
          "internalType": "contract Proxy",
          "name": "",
          "type": "address"
        }
      ],
      "payable": false,
      "stateMutability": "view",
      "type": "function"
    },
    {
      "constant": true,
      "inputs": [
        {
          "internalType": "address",
          "name": "account",
          "type": "address"
        }
      ],
      "name": "isFeesClaimable",
      "outputs": [
        {
          "internalType": "bool",
          "name": "feesClaimable",
          "type": "bool"
        }
      ],
      "payable": false,
      "stateMutability": "view",
      "type": "function"
    },
    {
      "constant": true,
      "inputs": [],
      "name": "isResolverCached",
      "outputs": [
        {
          "internalType": "bool",
          "name": "",
          "type": "bool"
        }
      ],
      "payable": false,
      "stateMutability": "view",
      "type": "function"
    },
    {
      "constant": true,
      "inputs": [],
      "name": "issuanceRatio",
      "outputs": [
        {
          "internalType": "uint256",
          "name": "",
          "type": "uint256"
        }
      ],
      "payable": false,
      "stateMutability": "view",
      "type": "function"
    },
    {
      "constant": true,
      "inputs": [],
      "name": "messageSender",
      "outputs": [
        {
          "internalType": "address",
          "name": "",
          "type": "address"
        }
      ],
      "payable": false,
      "stateMutability": "view",
      "type": "function"
    },
    {
      "constant": false,
      "inputs": [
        {
          "internalType": "address",
          "name": "_owner",
          "type": "address"
        }
      ],
      "name": "nominateNewOwner",
      "outputs": [],
      "payable": false,
      "stateMutability": "nonpayable",
      "type": "function"
    },
    {
      "constant": true,
      "inputs": [],
      "name": "nominatedOwner",
      "outputs": [
        {
          "internalType": "address",
          "name": "",
          "type": "address"
        }
      ],
      "payable": false,
      "stateMutability": "view",
      "type": "function"
    },
    {
      "constant": true,
      "inputs": [],
      "name": "owner",
      "outputs": [
        {
          "internalType": "address",
          "name": "",
          "type": "address"
        }
      ],
      "payable": false,
      "stateMutability": "view",
      "type": "function"
    },
    {
      "constant": true,
      "inputs": [],
      "name": "proxy",
      "outputs": [
        {
          "internalType": "contract Proxy",
          "name": "",
          "type": "address"
        }
      ],
      "payable": false,
      "stateMutability": "view",
      "type": "function"
    },
    {
      "constant": false,
      "inputs": [],
      "name": "rebuildCache",
      "outputs": [],
      "payable": false,
      "stateMutability": "nonpayable",
      "type": "function"
    },
    {
      "constant": true,
      "inputs": [
        {
          "internalType": "uint256",
          "name": "index",
          "type": "uint256"
        }
      ],
      "name": "recentFeePeriods",
      "outputs": [
        {
          "internalType": "uint64",
          "name": "feePeriodId",
          "type": "uint64"
        },
        {
          "internalType": "uint64",
          "name": "startingDebtIndex",
          "type": "uint64"
        },
        {
          "internalType": "uint64",
          "name": "startTime",
          "type": "uint64"
        },
        {
          "internalType": "uint256",
          "name": "feesToDistribute",
          "type": "uint256"
        },
        {
          "internalType": "uint256",
          "name": "feesClaimed",
          "type": "uint256"
        },
        {
          "internalType": "uint256",
          "name": "rewardsToDistribute",
          "type": "uint256"
        },
        {
          "internalType": "uint256",
          "name": "rewardsClaimed",
          "type": "uint256"
        }
      ],
      "payable": false,
      "stateMutability": "view",
      "type": "function"
    },
    {
      "constant": false,
      "inputs": [
        {
          "internalType": "uint256",
          "name": "amount",
          "type": "uint256"
        }
      ],
      "name": "recordFeePaid",
      "outputs": [],
      "payable": false,
      "stateMutability": "nonpayable",
      "type": "function"
    },
    {
      "constant": true,
      "inputs": [],
      "name": "resolver",
      "outputs": [
        {
          "internalType": "contract AddressResolver",
          "name": "",
          "type": "address"
        }
      ],
      "payable": false,
      "stateMutability": "view",
      "type": "function"
    },
    {
      "constant": true,
      "inputs": [],
      "name": "resolverAddressesRequired",
      "outputs": [
        {
          "internalType": "bytes32[]",
          "name": "addresses",
          "type": "bytes32[]"
        }
      ],
      "payable": false,
      "stateMutability": "view",
      "type": "function"
    },
    {
      "constant": false,
      "inputs": [
        {
          "internalType": "address payable",
          "name": "_integrationProxy",
          "type": "address"
        }
      ],
      "name": "setIntegrationProxy",
      "outputs": [],
      "payable": false,
      "stateMutability": "nonpayable",
      "type": "function"
    },
    {
      "constant": false,
      "inputs": [
        {
          "internalType": "address",
          "name": "sender",
          "type": "address"
        }
      ],
      "name": "setMessageSender",
      "outputs": [],
      "payable": false,
      "stateMutability": "nonpayable",
      "type": "function"
    },
    {
      "constant": false,
      "inputs": [
        {
          "internalType": "address payable",
          "name": "_proxy",
          "type": "address"
        }
      ],
      "name": "setProxy",
      "outputs": [],
      "payable": false,
      "stateMutability": "nonpayable",
      "type": "function"
    },
    {
      "constant": false,
      "inputs": [
        {
          "internalType": "uint256",
          "name": "amount",
          "type": "uint256"
        }
      ],
      "name": "setRewardsToDistribute",
      "outputs": [],
      "payable": false,
      "stateMutability": "nonpayable",
      "type": "function"
    },
    {
      "constant": true,
      "inputs": [],
      "name": "setupExpiryTime",
      "outputs": [
        {
          "internalType": "uint256",
          "name": "",
          "type": "uint256"
        }
      ],
      "payable": false,
      "stateMutability": "view",
      "type": "function"
    },
    {
      "constant": true,
      "inputs": [],
      "name": "targetThreshold",
      "outputs": [
        {
          "internalType": "uint256",
          "name": "",
          "type": "uint256"
        }
      ],
      "payable": false,
      "stateMutability": "view",
      "type": "function"
    },
    {
      "constant": true,
      "inputs": [],
      "name": "totalFeesAvailable",
      "outputs": [
        {
          "internalType": "uint256",
          "name": "",
          "type": "uint256"
        }
      ],
      "payable": false,
      "stateMutability": "view",
      "type": "function"
    },
    {
      "constant": true,
      "inputs": [],
      "name": "totalRewardsAvailable",
      "outputs": [
        {
          "internalType": "uint256",
          "name": "",
          "type": "uint256"
        }
      ],
      "payable": false,
      "stateMutability": "view",
      "type": "function"
    }
  ],
  "bytecode": "0x60806040527f73555344000000000000000000000000000000000000000000000000000000006008553480156200003557600080fd5b5060405162005c0038038062005c00833981810160405260608110156200005b57600080fd5b810190808051906020019092919080519060200190929190805190602001909291905050508080621baf808585600073ffffffffffffffffffffffffffffffffffffffff168173ffffffffffffffffffffffffffffffffffffffff1614156200012c576040517f08c379a00000000000000000000000000000000000000000000000000000000081526004018080602001828103825260198152602001807f4f776e657220616464726573732063616e6e6f7420626520300000000000000081525060200191505060405180910390fd5b806000806101000a81548173ffffffffffffffffffffffffffffffffffffffff021916908373ffffffffffffffffffffffffffffffffffffffff1602179055507fb532073b38c83145e3e5135377a08bf9aab55bc0fd7c1179cd4fb995d2a5159c600082604051808373ffffffffffffffffffffffffffffffffffffffff1673ffffffffffffffffffffffffffffffffffffffff1681526020018273ffffffffffffffffffffffffffffffffffffffff1673ffffffffffffffffffffffffffffffffffffffff1681526020019250505060405180910390a150600073ffffffffffffffffffffffffffffffffffffffff166000809054906101000a900473ffffffffffffffffffffffffffffffffffffffff1673ffffffffffffffffffffffffffffffffffffffff161415620002ca576040517f08c379a00000000000000000000000000000000000000000000000000000000081526004018080602001828103825260118152602001807f4f776e6572206d7573742062652073657400000000000000000000000000000081525060200191505060405180910390fd5b80600260006101000a81548173ffffffffffffffffffffffffffffffffffffffff021916908373ffffffffffffffffffffffffffffffffffffffff1602179055507ffc80377ca9c49cc11ae6982f390a42db976d5530af7c43889264b13fbbd7c57e81604051808273ffffffffffffffffffffffffffffffffffffffff1673ffffffffffffffffffffffffffffffffffffffff16815260200191505060405180910390a1508042016005819055505080600660006101000a81548173ffffffffffffffffffffffffffffffffffffffff021916908373ffffffffffffffffffffffffffffffffffffffff16021790555050506001620003d060006200043e60201b60201c565b60000160006101000a81548167ffffffffffffffff021916908367ffffffffffffffff160217905550426200040c60006200043e60201b60201c565b60000160106101000a81548167ffffffffffffffff021916908367ffffffffffffffff1602179055505050506200046b565b60006009600260ff168360135401816200045457fe5b06600281106200046057fe5b600502019050919050565b615785806200047b6000396000f3fe608060405234801561001057600080fd5b506004361061021c5760003560e01c80637418536011610125578063b410a034116100ad578063d67bdd251161007c578063d67bdd2514610a09578063e0e6393d14610a53578063eb1edd6114610a71578063ec55688914610abb578063fd1f498d14610b055761021c565b8063b410a03414610961578063bc67f8321461097f578063cff2ddad146109c3578063d294f093146109e75761021c565b80638da5cb5b116100f45780638da5cb5b146107f657806397107d6d146108405780639cbdaeb614610884578063ac834193146108ce578063b10090b8146108ec5761021c565b8063741853601461072b57806379ba509714610735578063866452741461073f578063899ffef4146107975761021c565b806333140016116101a857806353a47bb71161017757806353a47bb7146105ed578063569249d01461063757806359a2f19f146106555780636466f45e146106b15780636de813f11461070d5761021c565b8063331400161461047a5780633ebc457a1461051d5780633fcd22401461052757806346ba2d90146105cf5761021c565b8063131b0ae7116101ef578063131b0ae7146103845780631627540c146103c857806322425fa41461040c57806322bf55ef1461042a5780632af64bd3146104585761021c565b806304f3bcec1461022157806307ea50cd1461026b5780630813071c146102c35780630de5861514610325575b600080fd5b610229610b33565b604051808273ffffffffffffffffffffffffffffffffffffffff1673ffffffffffffffffffffffffffffffffffffffff16815260200191505060405180910390f35b6102ad6004803603602081101561028157600080fd5b81019080803573ffffffffffffffffffffffffffffffffffffffff169060200190929190505050610b59565b6040518082815260200191505060405180910390f35b61030f600480360360408110156102d957600080fd5b81019080803573ffffffffffffffffffffffffffffffffffffffff16906020019092919080359060200190929190505050610c72565b6040518082815260200191505060405180910390f35b6103676004803603602081101561033b57600080fd5b81019080803573ffffffffffffffffffffffffffffffffffffffff169060200190929190505050610ed9565b604051808381526020018281526020019250505060405180910390f35b6103c66004803603602081101561039a57600080fd5b81019080803573ffffffffffffffffffffffffffffffffffffffff169060200190929190505050610f94565b005b61040a600480360360208110156103de57600080fd5b81019080803573ffffffffffffffffffffffffffffffffffffffff169060200190929190505050610fe0565b005b61041461108f565b6040518082815260200191505060405180910390f35b6104566004803603602081101561044057600080fd5b810190808035906020019092919050505061109e565b005b610460611361565b604051808215151515815260200191505060405180910390f35b6104bc6004803603602081101561049057600080fd5b81019080803573ffffffffffffffffffffffffffffffffffffffff169060200190929190505050611539565b604051808260026000925b8184101561050d5782846020020151600260200280838360005b838110156104fc5780820151818401526020810190506104e1565b5050505090500192600101926104c7565b9250505091505060405180910390f35b6105256118b3565b005b6105536004803603602081101561053d57600080fd5b8101908080359060200190929190505050611d5c565b604051808867ffffffffffffffff1667ffffffffffffffff1681526020018767ffffffffffffffff1667ffffffffffffffff1681526020018667ffffffffffffffff1667ffffffffffffffff16815260200185815260200184815260200183815260200182815260200197505050505050505060405180910390f35b6105d7611e80565b6040518082815260200191505060405180910390f35b6105f5611e86565b604051808273ffffffffffffffffffffffffffffffffffffffff1673ffffffffffffffffffffffffffffffffffffffff16815260200191505060405180910390f35b61063f611eac565b6040518082815260200191505060405180910390f35b6106976004803603602081101561066b57600080fd5b81019080803573ffffffffffffffffffffffffffffffffffffffff169060200190929190505050611f1d565b604051808215151515815260200191505060405180910390f35b6106f3600480360360208110156106c757600080fd5b81019080803573ffffffffffffffffffffffffffffffffffffffff169060200190929190505050611f32565b604051808215151515815260200191505060405180910390f35b610715612138565b6040518082815260200191505060405180910390f35b6107336121a9565b005b61073d612412565b005b6107956004803603606081101561075557600080fd5b81019080803573ffffffffffffffffffffffffffffffffffffffff1690602001909291908035906020019092919080359060200190929190505050612638565b005b61079f612846565b6040518080602001828103825283818151815260200191508051906020019060200280838360005b838110156107e25780820151818401526020810190506107c7565b505050509050019250505060405180910390f35b6107fe612b51565b604051808273ffffffffffffffffffffffffffffffffffffffff1673ffffffffffffffffffffffffffffffffffffffff16815260200191505060405180910390f35b6108826004803603602081101561085657600080fd5b81019080803573ffffffffffffffffffffffffffffffffffffffff169060200190929190505050612b76565b005b61088c612c25565b604051808273ffffffffffffffffffffffffffffffffffffffff1673ffffffffffffffffffffffffffffffffffffffff16815260200191505060405180910390f35b6108d6612c4b565b6040518082815260200191505060405180910390f35b61095f600480360361010081101561090357600080fd5b810190808035906020019092919080359060200190929190803590602001909291908035906020019092919080359060200190929190803590602001909291908035906020019092919080359060200190929190505050612d03565b005b610969612fb0565b6040518082815260200191505060405180910390f35b6109c16004803603602081101561099557600080fd5b81019080803573ffffffffffffffffffffffffffffffffffffffff169060200190929190505050612fbf565b005b6109cb61300b565b604051808260ff1660ff16815260200191505060405180910390f35b6109ef613010565b604051808215151515815260200191505060405180910390f35b610a116130af565b604051808273ffffffffffffffffffffffffffffffffffffffff1673ffffffffffffffffffffffffffffffffffffffff16815260200191505060405180910390f35b610a5b6130d5565b6040518082815260200191505060405180910390f35b610a796130e4565b604051808273ffffffffffffffffffffffffffffffffffffffff1673ffffffffffffffffffffffffffffffffffffffff16815260200191505060405180910390f35b610ac36130fc565b604051808273ffffffffffffffffffffffffffffffffffffffff1673ffffffffffffffffffffffffffffffffffffffff16815260200191505060405180910390f35b610b3160048036036020811015610b1b57600080fd5b8101908080359060200190929190505050613122565b005b600660009054906101000a900473ffffffffffffffffffffffffffffffffffffffff1681565b6000610b6361325c565b73ffffffffffffffffffffffffffffffffffffffff1663bdc963d87f6c6173745f6665655f7769746864726177616c0000000000000000000000000084604051602001808381526020018273ffffffffffffffffffffffffffffffffffffffff1673ffffffffffffffffffffffffffffffffffffffff1660601b815260140192505050604051602081830303815290604052805190602001206040518263ffffffff1660e01b81526004018082815260200191505060206040518083038186803b158015610c3057600080fd5b505afa158015610c44573d6000803e3d6000fd5b505050506040513d6020811015610c5a57600080fd5b81019080805190602001909291905050509050919050565b600080821415610cea576040517f08c379a00000000000000000000000000000000000000000000000000000000081526004018080602001828103825260208152602001807f43757272656e7420706572696f64206973206e6f7420636c6f7365642079657481525060200191505060405180910390fd5b600260ff168210610d63576040517f08c379a000000000000000000000000000000000000000000000000000000000815260040180806020018281038252601d8152602001807f4578636565647320746865204645455f504552494f445f4c454e47544800000081525060200191505060405180910390fd5b6000610d716001840361328c565b60000160089054906101000a900467ffffffffffffffff1667ffffffffffffffff161415610da25760009050610ed3565b6000610de56001610db56001860361328c565b60000160089054906101000a900467ffffffffffffffff1667ffffffffffffffff166132b790919063ffffffff16565b9050600080610df2613340565b73ffffffffffffffffffffffffffffffffffffffff1663d29c000a87856040518363ffffffff1660e01b8152600401808373ffffffffffffffffffffffffffffffffffffffff1673ffffffffffffffffffffffffffffffffffffffff16815260200182815260200192505050604080518083038186803b158015610e7557600080fd5b505afa158015610e89573d6000803e3d6000fd5b505050506040513d6040811015610e9f57600080fd5b8101908080519060200190929190805190602001909291905050508092508193505050610ecd838383613370565b93505050505b92915050565b600080610ee461555d565b610eed84611539565b9050600080905060008090506000600190505b600260ff16811015610f8557610f40848260028110610f1b57fe5b6020020151600060028110610f2c57fe5b6020020151846134c890919063ffffffff16565b9250610f76848260028110610f5157fe5b6020020151600160028110610f6257fe5b6020020151836134c890919063ffffffff16565b91508080600101915050610f00565b50818194509450505050915091565b610f9c613550565b80600360006101000a81548173ffffffffffffffffffffffffffffffffffffffff021916908373ffffffffffffffffffffffffffffffffffffffff16021790555050565b610fe8613550565b80600160006101000a81548173ffffffffffffffffffffffffffffffffffffffff021916908373ffffffffffffffffffffffffffffffffffffffff1602179055507f906a1c6bd7e3091ea86693dd029a831c19049ce77f1dce2ce0bab1cacbabce2281604051808273ffffffffffffffffffffffffffffffffffffffff1673ffffffffffffffffffffffffffffffffffffffff16815260200191505060405180910390a150565b60006110996135f7565b905090565b60006110a86136d9565b73ffffffffffffffffffffffffffffffffffffffff163373ffffffffffffffffffffffffffffffffffffffff1614905060008060001b6110e6613709565b73ffffffffffffffffffffffffffffffffffffffff166316b2213f336040518263ffffffff1660e01b8152600401808273ffffffffffffffffffffffffffffffffffffffff1673ffffffffffffffffffffffffffffffffffffffff16815260200191505060206040518083038186803b15801561116257600080fd5b505afa158015611176573d6000803e3d6000fd5b505050506040513d602081101561118c57600080fd5b81019080805190602001909291905050501415905060006111ab613739565b73ffffffffffffffffffffffffffffffffffffffff163373ffffffffffffffffffffffffffffffffffffffff1614905060006111e5613769565b73ffffffffffffffffffffffffffffffffffffffff1663b38988f7336040518263ffffffff1660e01b8152600401808273ffffffffffffffffffffffffffffffffffffffff1673ffffffffffffffffffffffffffffffffffffffff16815260200191505060206040518083038186803b15801561126157600080fd5b505afa158015611275573d6000803e3d6000fd5b505050506040513d602081101561128b57600080fd5b8101908080519060200190929190505050905083806112a75750825b806112af5750815b806112b75750805b611329576040517f08c379a00000000000000000000000000000000000000000000000000000000081526004018080602001828103825260178152602001807f4f6e6c7920496e7465726e616c20436f6e74726163747300000000000000000081525060200191505060405180910390fd5b61134985611337600061328c565b600101546134c890919063ffffffff16565b611353600061328c565b600101819055505050505050565b6000606061136d612846565b905060008090505b815181101561152f57600082828151811061138c57fe5b602002602001015190506007600082815260200190815260200160002060009054906101000a900473ffffffffffffffffffffffffffffffffffffffff1673ffffffffffffffffffffffffffffffffffffffff16600660009054906101000a900473ffffffffffffffffffffffffffffffffffffffff1673ffffffffffffffffffffffffffffffffffffffff166321f8a721836040518263ffffffff1660e01b81526004018082815260200191505060206040518083038186803b15801561145357600080fd5b505afa158015611467573d6000803e3d6000fd5b505050506040513d602081101561147d57600080fd5b810190808051906020019092919050505073ffffffffffffffffffffffffffffffffffffffff161415806115105750600073ffffffffffffffffffffffffffffffffffffffff166007600083815260200190815260200160002060009054906101000a900473ffffffffffffffffffffffffffffffffffffffff1673ffffffffffffffffffffffffffffffffffffffff16145b156115215760009350505050611536565b508080600101915050611375565b5060019150505b90565b61154161555d565b600080600061154e613340565b90508073ffffffffffffffffffffffffffffffffffffffff1663b326f84e8660006040518363ffffffff1660e01b8152600401808373ffffffffffffffffffffffffffffffffffffffff1673ffffffffffffffffffffffffffffffffffffffff16815260200182815260200192505050604080518083038186803b1580156115d557600080fd5b505afa1580156115e9573d6000803e3d6000fd5b505050506040513d60408110156115ff57600080fd5b81019080805190602001909291908051906020019092919050505080935081945050506000821480156116325750600083145b1561164b5761163f61555d565b809450505050506118ae565b60008061165a60008686613799565b8092508193505050818660006002811061167057fe5b602002015160006002811061168157fe5b602002018181525050808660006002811061169857fe5b60200201516001600281106116a957fe5b60200201818152505060006116bd88610b59565b90506000600160020360ff1690505b60008111156118a657600060018203905060006116e88261328c565b60000160089054906101000a900467ffffffffffffffff1667ffffffffffffffff16905060008111801561174557506117208361328c565b60000160009054906101000a900467ffffffffffffffff1667ffffffffffffffff1684105b156118965760006117606001836132b790919063ffffffff16565b90508773ffffffffffffffffffffffffffffffffffffffff1663d29c000a8d836040518363ffffffff1660e01b8152600401808373ffffffffffffffffffffffffffffffffffffffff1673ffffffffffffffffffffffffffffffffffffffff16815260200182815260200192505050604080518083038186803b1580156117e657600080fd5b505afa1580156117fa573d6000803e3d6000fd5b505050506040513d604081101561181057600080fd5b810190808051906020019092919080519060200190929190505050809a50819b50505061183e848b8b613799565b8097508198505050868b856002811061185357fe5b602002015160006002811061186457fe5b602002018181525050858b856002811061187a57fe5b602002015160016002811061188b57fe5b602002018181525050505b50508080600190039150506116cc565b505050505050505b919050565b6118bb613881565b73ffffffffffffffffffffffffffffffffffffffff16637c3125416040518163ffffffff1660e01b815260040160006040518083038186803b15801561190057600080fd5b505afa158015611914573d6000803e3d6000fd5b5050505060006119226135f7565b11611995576040517f08c379a000000000000000000000000000000000000000000000000000000000815260040180806020018281038252601b8152602001807f46656520506572696f64204475726174696f6e206e6f7420736574000000000081525060200191505060405180910390fd5b61199d6135f7565b42036119a9600061328c565b60000160109054906101000a900467ffffffffffffffff1667ffffffffffffffff161115611a3f576040517f08c379a000000000000000000000000000000000000000000000000000000000815260040180806020018281038252601d8152602001807f546f6f206561726c7920746f20636c6f73652066656520706572696f6400000081525060200191505060405180910390fd5b6000611a506002800360ff1661328c565b90506000611a64600160020360ff1661328c565b9050611a978260010154611a89836002015484600101546132b790919063ffffffff16565b6134c890919063ffffffff16565b611aa66002800360ff1661328c565b60010181905550611ade8260030154611ad0836004015484600301546132b790919063ffffffff16565b6134c890919063ffffffff16565b611aed6002800360ff1661328c565b60030181905550611b36600260ff16611b286001611b1a600260ff166013546134c890919063ffffffff16565b6132b790919063ffffffff16565b6138b190919063ffffffff16565b601381905550600960135460028110611b4b57fe5b60050201600080820160006101000a81549067ffffffffffffffff02191690556000820160086101000a81549067ffffffffffffffff02191690556000820160106101000a81549067ffffffffffffffff021916905560018201600090556002820160009055600382016000905560048201600090555050611c026001611bd2600161328c565b60000160009054906101000a900467ffffffffffffffff1667ffffffffffffffff166134c890919063ffffffff16565b611c0c600061328c565b60000160006101000a81548167ffffffffffffffff021916908367ffffffffffffffff160217905550611c3d61393b565b73ffffffffffffffffffffffffffffffffffffffff1663cd92eba96040518163ffffffff1660e01b815260040160206040518083038186803b158015611c8257600080fd5b505afa158015611c96573d6000803e3d6000fd5b505050506040513d6020811015611cac57600080fd5b8101908080519060200190929190505050611cc7600061328c565b60000160086101000a81548167ffffffffffffffff021916908367ffffffffffffffff16021790555042611cfb600061328c565b60000160106101000a81548167ffffffffffffffff021916908367ffffffffffffffff160217905550611d58611d31600161328c565b60000160009054906101000a900467ffffffffffffffff1667ffffffffffffffff1661396b565b5050565b6000806000806000806000611d6f61558a565b611d788961328c565b6040518060e00160405290816000820160009054906101000a900467ffffffffffffffff1667ffffffffffffffff1667ffffffffffffffff1681526020016000820160089054906101000a900467ffffffffffffffff1667ffffffffffffffff1667ffffffffffffffff1681526020016000820160109054906101000a900467ffffffffffffffff1667ffffffffffffffff1667ffffffffffffffff1681526020016001820154815260200160028201548152602001600382015481526020016004820154815250509050806000015181602001518260400151836060015184608001518560a001518660c00151975097509750975097509750975050919395979092949650565b60055481565b600160009054906101000a900473ffffffffffffffffffffffffffffffffffffffff1681565b600080600090506000600190505b600260ff16811015611f1557611ee5611ed28261328c565b60010154836134c890919063ffffffff16565b9150611f06611ef38261328c565b60020154836132b790919063ffffffff16565b91508080600101915050611eba565b508091505090565b6000611f2882613ae8565b5080915050919050565b6000611f3c613881565b73ffffffffffffffffffffffffffffffffffffffff16637c3125416040518163ffffffff1660e01b815260040160006040518083038186803b158015611f8157600080fd5b505afa158015611f95573d6000803e3d6000fd5b50505050611fa1613cb4565b611fa9613e03565b73ffffffffffffffffffffffffffffffffffffffff166321f4ae5783600460009054906101000a900473ffffffffffffffffffffffffffffffffffffffff166040518363ffffffff1660e01b8152600401808373ffffffffffffffffffffffffffffffffffffffff1673ffffffffffffffffffffffffffffffffffffffff1681526020018273ffffffffffffffffffffffffffffffffffffffff1673ffffffffffffffffffffffffffffffffffffffff1681526020019250505060206040518083038186803b15801561207b57600080fd5b505afa15801561208f573d6000803e3d6000fd5b505050506040513d60208110156120a557600080fd5b8101908080519060200190929190505050612128576040517f08c379a000000000000000000000000000000000000000000000000000000000815260040180806020018281038252601f8152602001807f4e6f7420617070726f76656420746f20636c61696d206f6e20626568616c660081525060200191505060405180910390fd5b61213182613e33565b9050919050565b600080600090506000600190505b600260ff168110156121a15761217161215e8261328c565b60030154836134c890919063ffffffff16565b915061219261217f8261328c565b60040154836132b790919063ffffffff16565b91508080600101915050612146565b508091505090565b60606121b3612846565b905060008090505b815181101561240e5760008282815181106121d257fe5b602002602001015190506000600660009054906101000a900473ffffffffffffffffffffffffffffffffffffffff1673ffffffffffffffffffffffffffffffffffffffff1663dacb2d01838460405160200180807f5265736f6c766572206d697373696e67207461726765743a20000000000000008152506019018281526020019150506040516020818303038152906040526040518363ffffffff1660e01b81526004018083815260200180602001828103825283818151815260200191508051906020019080838360005b838110156122ba57808201518184015260208101905061229f565b50505050905090810190601f1680156122e75780820380516001836020036101000a031916815260200191505b50935050505060206040518083038186803b15801561230557600080fd5b505afa158015612319573d6000803e3d6000fd5b505050506040513d602081101561232f57600080fd5b81019080805190602001909291905050509050806007600084815260200190815260200160002060006101000a81548173ffffffffffffffffffffffffffffffffffffffff021916908373ffffffffffffffffffffffffffffffffffffffff1602179055507f88a93678a3692f6789d9546fc621bf7234b101ddb7d4fe479455112831b8aa688282604051808381526020018273ffffffffffffffffffffffffffffffffffffffff1673ffffffffffffffffffffffffffffffffffffffff1681526020019250505060405180910390a1505080806001019150506121bb565b5050565b600160009054906101000a900473ffffffffffffffffffffffffffffffffffffffff1673ffffffffffffffffffffffffffffffffffffffff163373ffffffffffffffffffffffffffffffffffffffff16146124b8576040517f08c379a00000000000000000000000000000000000000000000000000000000081526004018080602001828103825260358152602001806156086035913960400191505060405180910390fd5b7fb532073b38c83145e3e5135377a08bf9aab55bc0fd7c1179cd4fb995d2a5159c6000809054906101000a900473ffffffffffffffffffffffffffffffffffffffff16600160009054906101000a900473ffffffffffffffffffffffffffffffffffffffff16604051808373ffffffffffffffffffffffffffffffffffffffff1673ffffffffffffffffffffffffffffffffffffffff1681526020018273ffffffffffffffffffffffffffffffffffffffff1673ffffffffffffffffffffffffffffffffffffffff1681526020019250505060405180910390a1600160009054906101000a900473ffffffffffffffffffffffffffffffffffffffff166000806101000a81548173ffffffffffffffffffffffffffffffffffffffff021916908373ffffffffffffffffffffffffffffffffffffffff1602179055506000600160006101000a81548173ffffffffffffffffffffffffffffffffffffffff021916908373ffffffffffffffffffffffffffffffffffffffff160217905550565b6000612642613709565b73ffffffffffffffffffffffffffffffffffffffff163373ffffffffffffffffffffffffffffffffffffffff16149050600061267c61393b565b73ffffffffffffffffffffffffffffffffffffffff163373ffffffffffffffffffffffffffffffffffffffff1614905081806126b55750805b612727576040517f08c379a000000000000000000000000000000000000000000000000000000000815260040180806020018281038252601e8152602001807f49737375657220616e642053796e7468657469785374617465206f6e6c79000081525060200191505060405180910390fd5b61272f613340565b73ffffffffffffffffffffffffffffffffffffffff166394e1a448868686612757600061328c565b60000160089054906101000a900467ffffffffffffffff166040518563ffffffff1660e01b8152600401808573ffffffffffffffffffffffffffffffffffffffff1673ffffffffffffffffffffffffffffffffffffffff1681526020018481526020018381526020018267ffffffffffffffff168152602001945050505050600060405180830381600087803b1580156127f057600080fd5b505af1158015612804573d6000803e3d6000fd5b5050505061283f858585612818600061328c565b60000160089054906101000a900467ffffffffffffffff1667ffffffffffffffff1661403b565b5050505050565b6060806128516141c3565b90506060600c6040519080825280602002602001820160405280156128855781602001602082028038833980820191505090505b5090507f53797374656d5374617475730000000000000000000000000000000000000000816000815181106128b657fe5b6020026020010181815250507f53796e7468657469780000000000000000000000000000000000000000000000816001815181106128f057fe5b6020026020010181815250507f466565506f6f6c537461746500000000000000000000000000000000000000008160028151811061292a57fe5b6020026020010181815250507f466565506f6f6c457465726e616c53746f7261676500000000000000000000008160038151811061296457fe5b6020026020010181815250507f45786368616e67657200000000000000000000000000000000000000000000008160048151811061299e57fe5b6020026020010181815250507f4973737565720000000000000000000000000000000000000000000000000000816005815181106129d857fe5b6020026020010181815250507f53796e746865746978537461746500000000000000000000000000000000000081600681518110612a1257fe5b6020026020010181815250507f526577617264457363726f77563200000000000000000000000000000000000081600781518110612a4c57fe5b6020026020010181815250507f44656c6567617465417070726f76616c7300000000000000000000000000000081600881518110612a8657fe5b6020026020010181815250507f4574686572436f6c6c61746572616c735553440000000000000000000000000081600981518110612ac057fe5b6020026020010181815250507f52657761726473446973747269627574696f6e0000000000000000000000000081600a81518110612afa57fe5b6020026020010181815250507f436f6c6c61746572616c4d616e6167657200000000000000000000000000000081600b81518110612b3457fe5b602002602001018181525050612b4a8282614235565b9250505090565b6000809054906101000a900473ffffffffffffffffffffffffffffffffffffffff1681565b612b7e613550565b80600260006101000a81548173ffffffffffffffffffffffffffffffffffffffff021916908373ffffffffffffffffffffffffffffffffffffffff1602179055507ffc80377ca9c49cc11ae6982f390a42db976d5530af7c43889264b13fbbd7c57e81604051808273ffffffffffffffffffffffffffffffffffffffff1673ffffffffffffffffffffffffffffffffffffffff16815260200191505060405180910390a150565b600360009054906101000a900473ffffffffffffffffffffffffffffffffffffffff1681565b6000612cfe612ce8612c5b614308565b73__$b8d33eeb36ac0d1e81cd70156e0043e778$__63907af6c06040518163ffffffff1660e01b815260040160206040518083038186803b158015612c9f57600080fd5b505af4158015612cb3573d6000803e3d6000fd5b505050506040513d6020811015612cc957600080fd5b81019080805190602001909291905050506134c890919063ffffffff16565b612cf06143ea565b6144cc90919063ffffffff16565b905090565b612d0b6144f9565b6005544210612d65576040517f08c379a00000000000000000000000000000000000000000000000000000000081526004018080602001828103825260298152602001806157286029913960400191505060405180910390fd5b612d6d61393b565b73ffffffffffffffffffffffffffffffffffffffff1663cd92eba96040518163ffffffff1660e01b815260040160206040518083038186803b158015612db257600080fd5b505afa158015612dc6573d6000803e3d6000fd5b505050506040513d6020811015612ddc57600080fd5b8101908080519060200190929190505050861115612e62576040517f08c379a00000000000000000000000000000000000000000000000000000000081526004018080602001828103825260168152602001807f43616e6e6f7420696d706f72742062616420646174610000000000000000000081525060200191505060405180910390fd5b6040518060e001604052808867ffffffffffffffff1681526020018767ffffffffffffffff1681526020018667ffffffffffffffff168152602001858152602001848152602001838152602001828152506009612ee0600260ff16612ed28c6013546134c890919063ffffffff16565b6138b190919063ffffffff16565b60028110612eea57fe5b6005020160008201518160000160006101000a81548167ffffffffffffffff021916908367ffffffffffffffff16021790555060208201518160000160086101000a81548167ffffffffffffffff021916908367ffffffffffffffff16021790555060408201518160000160106101000a81548167ffffffffffffffff021916908367ffffffffffffffff160217905550606082015181600101556080820151816002015560a0820151816003015560c082015181600401559050505050505050505050565b6000612fba6143ea565b905090565b612fc761472c565b80600460006101000a81548173ffffffffffffffffffffffffffffffffffffffff021916908373ffffffffffffffffffffffffffffffffffffffff16021790555050565b600281565b600061301a613881565b73ffffffffffffffffffffffffffffffffffffffff16637c3125416040518163ffffffff1660e01b815260040160006040518083038186803b15801561305f57600080fd5b505afa158015613073573d6000803e3d6000fd5b5050505061307f613cb4565b6130aa600460009054906101000a900473ffffffffffffffffffffffffffffffffffffffff16613e33565b905090565b600460009054906101000a900473ffffffffffffffffffffffffffffffffffffffff1681565b60006130df614308565b905090565b73feefeefeefeefeefeefeefeefeefeefeefeefeef81565b600260009054906101000a900473ffffffffffffffffffffffffffffffffffffffff1681565b600061312c614849565b90508073ffffffffffffffffffffffffffffffffffffffff16600460009054906101000a900473ffffffffffffffffffffffffffffffffffffffff1673ffffffffffffffffffffffffffffffffffffffff1614806131b557508073ffffffffffffffffffffffffffffffffffffffff163373ffffffffffffffffffffffffffffffffffffffff16145b613227576040517f08c379a000000000000000000000000000000000000000000000000000000000815260040180806020018281038252601e8152602001807f43616c6c6572206973206e6f742072657761726473417574686f72697479000081525060200191505060405180910390fd5b61324782613235600061328c565b600301546134c890919063ffffffff16565b613251600061328c565b600301819055505050565b60006132877f466565506f6f6c457465726e616c53746f726167650000000000000000000000614879565b905090565b60006009600260ff168360135401816132a157fe5b06600281106132ac57fe5b600502019050919050565b60008282111561332f576040517f08c379a000000000000000000000000000000000000000000000000000000000815260040180806020018281038252601e8152602001807f536166654d6174683a207375627472616374696f6e206f766572666c6f77000081525060200191505060405180910390fd5b600082840390508091505092915050565b600061336b7f466565506f6f6c53746174650000000000000000000000000000000000000000614879565b905090565b60008061337b61393b565b905060006134ba856134ac8473ffffffffffffffffffffffffffffffffffffffff166308d95cd5886040518263ffffffff1660e01b81526004018082815260200191505060206040518083038186803b1580156133d757600080fd5b505afa1580156133eb573d6000803e3d6000fd5b505050506040513d602081101561340157600080fd5b81019080805190602001909291905050508573ffffffffffffffffffffffffffffffffffffffff166308d95cd58b6040518263ffffffff1660e01b81526004018082815260200191505060206040518083038186803b15801561346357600080fd5b505afa158015613477573d6000803e3d6000fd5b505050506040513d602081101561348d57600080fd5b81019080805190602001909291905050506149db90919063ffffffff16565b6149f790919063ffffffff16565b905080925050509392505050565b600080828401905083811015613546576040517f08c379a000000000000000000000000000000000000000000000000000000000815260040180806020018281038252601b8152602001807f536166654d6174683a206164646974696f6e206f766572666c6f77000000000081525060200191505060405180910390fd5b8091505092915050565b6000809054906101000a900473ffffffffffffffffffffffffffffffffffffffff1673ffffffffffffffffffffffffffffffffffffffff163373ffffffffffffffffffffffffffffffffffffffff16146135f5576040517f08c379a000000000000000000000000000000000000000000000000000000000815260040180806020018281038252602f8152602001806156d8602f913960400191505060405180910390fd5b565b6000613601614a13565b73ffffffffffffffffffffffffffffffffffffffff166323257c2b7f53797374656d53657474696e67730000000000000000000000000000000000007f666565506572696f644475726174696f6e0000000000000000000000000000006040518363ffffffff1660e01b8152600401808381526020018281526020019250505060206040518083038186803b15801561369957600080fd5b505afa1580156136ad573d6000803e3d6000fd5b505050506040513d60208110156136c357600080fd5b8101908080519060200190929190505050905090565b60006137047f45786368616e6765720000000000000000000000000000000000000000000000614879565b905090565b60006137347f4973737565720000000000000000000000000000000000000000000000000000614879565b905090565b60006137647f4574686572436f6c6c61746572616c7355534400000000000000000000000000614879565b905090565b60006137947f436f6c6c61746572616c4d616e61676572000000000000000000000000000000614879565b905090565b60008060008414156137b75760008081915080905091509150613879565b6000849050600086111561381957600061380860016137d860018a0361328c565b60000160089054906101000a900467ffffffffffffffff1667ffffffffffffffff166132b790919063ffffffff16565b9050613815818787613370565b9150505b600061383a826138288961328c565b600101546144cc90919063ffffffff16565b9050600061385d8361384b8a61328c565b600301546144cc90919063ffffffff16565b905061386882614a43565b61387182614a43565b945094505050505b935093915050565b60006138ac7f53797374656d5374617475730000000000000000000000000000000000000000614879565b905090565b600080821415613929576040517f08c379a00000000000000000000000000000000000000000000000000000000081526004018080602001828103825260188152602001807f536166654d6174683a206d6f64756c6f206279207a65726f000000000000000081525060200191505060405180910390fd5b81838161393257fe5b06905092915050565b60006139667f53796e7468657469785374617465000000000000000000000000000000000000614879565b905090565b600260009054906101000a900473ffffffffffffffffffffffffffffffffffffffff1673ffffffffffffffffffffffffffffffffffffffff1663907dff978260405160200180828152602001915050604051602081830303815290604052600160405180807f466565506572696f64436c6f7365642875696e743235362900000000000000008152506018019050604051809103902060008060006040518763ffffffff1660e01b815260040180806020018781526020018681526020018560001b81526020018460001b81526020018360001b8152602001828103825288818151815260200191508051906020019080838360005b83811015613a7c578082015181840152602081019050613a61565b50505050905090810190601f168015613aa95780820380516001836020036101000a031916815260200191505b50975050505050505050600060405180830381600087803b158015613acd57600080fd5b505af1158015613ae1573d6000803e3d6000fd5b5050505050565b600080600080613af6613709565b73ffffffffffffffffffffffffffffffffffffffff1663ae3bbbbb866040518263ffffffff1660e01b8152600401808273ffffffffffffffffffffffffffffffffffffffff1673ffffffffffffffffffffffffffffffffffffffff168152602001915050604080518083038186803b158015613b7157600080fd5b505afa158015613b85573d6000803e3d6000fd5b505050506040513d6040811015613b9b57600080fd5b810190808051906020019092919080519060200190929190505050915091506000613bc46143ea565b905080831015613bdd5760018294509450505050613caf565b6000613c89613c7a613bed614308565b73__$b8d33eeb36ac0d1e81cd70156e0043e778$__63907af6c06040518163ffffffff1660e01b815260040160206040518083038186803b158015613c3157600080fd5b505af4158015613c45573d6000803e3d6000fd5b505050506040513d6020811015613c5b57600080fd5b81019080805190602001909291905050506134c890919063ffffffff16565b836144cc90919063ffffffff16565b905080841115613ca3576000839550955050505050613caf565b60018395509550505050505b915091565b600260009054906101000a900473ffffffffffffffffffffffffffffffffffffffff1673ffffffffffffffffffffffffffffffffffffffff163373ffffffffffffffffffffffffffffffffffffffff1614158015613d605750600360009054906101000a900473ffffffffffffffffffffffffffffffffffffffff1673ffffffffffffffffffffffffffffffffffffffff163373ffffffffffffffffffffffffffffffffffffffff1614155b8015613dba57503373ffffffffffffffffffffffffffffffffffffffff16600460009054906101000a900473ffffffffffffffffffffffffffffffffffffffff1673ffffffffffffffffffffffffffffffffffffffff1614155b15613e015733600460006101000a81548173ffffffffffffffffffffffffffffffffffffffff021916908373ffffffffffffffffffffffffffffffffffffffff1602179055505b565b6000613e2e7f44656c6567617465417070726f76616c73000000000000000000000000000000614879565b905090565b600080600090506000809050600080600080613e4e88613ae8565b9150915081613ec5576040517f08c379a000000000000000000000000000000000000000000000000000000000815260040180806020018281038252601f8152602001807f432d526174696f2062656c6f772070656e616c7479207468726573686f6c640081525060200191505060405180910390fd5b8015613f39576040517f08c379a000000000000000000000000000000000000000000000000000000000815260040180806020018281038252601e8152602001807f412073796e7468206f7220534e58207261746520697320696e76616c6964000081525060200191505060405180910390fd5b613f4288610ed9565b80945081955050506000841180613f595750600083115b613fae576040517f08c379a00000000000000000000000000000000000000000000000000000000081526004018080602001828103825260408152602001806156986040913960400191505060405180910390fd5b613fe388613fbc600161328c565b60000160009054906101000a900467ffffffffffffffff1667ffffffffffffffff16614a92565b600084111561400257613ff584614b8d565b94506140018886614c99565b5b60008311156140215761401483614f41565b95506140208887615052565b5b61402c8886886151c6565b60019650505050505050919050565b600260009054906101000a900473ffffffffffffffffffffffffffffffffffffffff1673ffffffffffffffffffffffffffffffffffffffff1663907dff978484846040516020018084815260200183815260200182815260200193505050506040516020818303038152906040526002604051808061566160379139603701905060405180910390208873ffffffffffffffffffffffffffffffffffffffff1660001b6000806040518763ffffffff1660e01b815260040180806020018781526020018681526020018581526020018460001b81526020018360001b8152602001828103825288818151815260200191508051906020019080838360005b83811015614154578082015181840152602081019050614139565b50505050905090810190601f1680156141815780820380516001836020036101000a031916815260200191505b50975050505050505050600060405180830381600087803b1580156141a557600080fd5b505af11580156141b9573d6000803e3d6000fd5b5050505050505050565b606060016040519080825280602002602001820160405280156141f55781602001602082028038833980820191505090505b5090507f466c657869626c6553746f7261676500000000000000000000000000000000008160008151811061422657fe5b60200260200101818152505090565b6060815183510160405190808252806020026020018201604052801561426a5781602001602082028038833980820191505090505b50905060008090505b83518110156142b55783818151811061428857fe5b602002602001015182828151811061429c57fe5b6020026020010181815250508080600101915050614273565b5060008090505b8251811015614301578281815181106142d157fe5b60200260200101518282865101815181106142e857fe5b60200260200101818152505080806001019150506142bc565b5092915050565b6000614312614a13565b73ffffffffffffffffffffffffffffffffffffffff166323257c2b7f53797374656d53657474696e67730000000000000000000000000000000000007f7461726765745468726573686f6c6400000000000000000000000000000000006040518363ffffffff1660e01b8152600401808381526020018281526020019250505060206040518083038186803b1580156143aa57600080fd5b505afa1580156143be573d6000803e3d6000fd5b505050506040513d60208110156143d457600080fd5b8101908080519060200190929190505050905090565b60006143f4614a13565b73ffffffffffffffffffffffffffffffffffffffff166323257c2b7f53797374656d53657474696e67730000000000000000000000000000000000007f69737375616e6365526174696f000000000000000000000000000000000000006040518363ffffffff1660e01b8152600401808381526020018281526020019250505060206040518083038186803b15801561448c57600080fd5b505afa1580156144a0573d6000803e3d6000fd5b505050506040513d60208110156144b657600080fd5b8101908080519060200190929190505050905090565b6000601260ff16600a0a6144e9838561536490919063ffffffff16565b816144f057fe5b04905092915050565b600260009054906101000a900473ffffffffffffffffffffffffffffffffffffffff1673ffffffffffffffffffffffffffffffffffffffff163373ffffffffffffffffffffffffffffffffffffffff16141580156145a55750600360009054906101000a900473ffffffffffffffffffffffffffffffffffffffff1673ffffffffffffffffffffffffffffffffffffffff163373ffffffffffffffffffffffffffffffffffffffff1614155b80156145ff57503373ffffffffffffffffffffffffffffffffffffffff16600460009054906101000a900473ffffffffffffffffffffffffffffffffffffffff1673ffffffffffffffffffffffffffffffffffffffff1614155b156146465733600460006101000a81548173ffffffffffffffffffffffffffffffffffffffff021916908373ffffffffffffffffffffffffffffffffffffffff1602179055505b6000809054906101000a900473ffffffffffffffffffffffffffffffffffffffff1673ffffffffffffffffffffffffffffffffffffffff16600460009054906101000a900473ffffffffffffffffffffffffffffffffffffffff1673ffffffffffffffffffffffffffffffffffffffff161461472a576040517f08c379a00000000000000000000000000000000000000000000000000000000081526004018080602001828103825260138152602001807f4f776e6572206f6e6c792066756e6374696f6e0000000000000000000000000081525060200191505060405180910390fd5b565b600260009054906101000a900473ffffffffffffffffffffffffffffffffffffffff1673ffffffffffffffffffffffffffffffffffffffff163373ffffffffffffffffffffffffffffffffffffffff1614806147d55750600360009054906101000a900473ffffffffffffffffffffffffffffffffffffffff1673ffffffffffffffffffffffffffffffffffffffff163373ffffffffffffffffffffffffffffffffffffffff16145b614847576040517f08c379a00000000000000000000000000000000000000000000000000000000081526004018080602001828103825260178152602001807f4f6e6c79207468652070726f78792063616e2063616c6c00000000000000000081525060200191505060405180910390fd5b565b60006148747f52657761726473446973747269627574696f6e00000000000000000000000000614879565b905090565b6000806007600084815260200190815260200160002060009054906101000a900473ffffffffffffffffffffffffffffffffffffffff169050600073ffffffffffffffffffffffffffffffffffffffff168173ffffffffffffffffffffffffffffffffffffffff1614158360405160200180807f4d697373696e6720616464726573733a20000000000000000000000000000000815250601101828152602001915050604051602081830303815290604052906149d1576040517f08c379a00000000000000000000000000000000000000000000000000000000081526004018080602001828103825283818151815260200191508051906020019080838360005b8381101561499657808201518184015260208101905061497b565b50505050905090810190601f1680156149c35780820380516001836020036101000a031916815260200191505b509250505060405180910390fd5b5080915050919050565b60006149ef8383601b60ff16600a0a6153ea565b905092915050565b6000614a0b8383601b60ff16600a0a615445565b905092915050565b6000614a3e7f466c657869626c6553746f726167650000000000000000000000000000000000614879565b905090565b600080600a6012601b0360ff16600a0a81614a5a57fe5b048381614a6357fe5b0490506005600a8281614a7257fe5b0610614a7f57600a810190505b600a8181614a8957fe5b04915050919050565b614a9a61325c565b73ffffffffffffffffffffffffffffffffffffffff16633562fd207f6c6173745f6665655f7769746864726177616c0000000000000000000000000084604051602001808381526020018273ffffffffffffffffffffffffffffffffffffffff1673ffffffffffffffffffffffffffffffffffffffff1660601b81526014019250505060405160208183030381529060405280519060200120836040518363ffffffff1660e01b81526004018083815260200182815260200192505050600060405180830381600087803b158015614b7157600080fd5b505af1158015614b85573d6000803e3d6000fd5b505050505050565b600080829050600080600160020360ff1690505b600260ff16811015614c8d576000614bb88261328c565b6002015490506000614bdf82614bcd8561328c565b600101546132b790919063ffffffff16565b90506000811115614c7d576000858210614bf95785614bfb565b815b9050614c1081846134c890919063ffffffff16565b614c198561328c565b60020181905550614c3381876132b790919063ffffffff16565b9550614c4881866134c890919063ffffffff16565b94506000861415614c6157849650505050505050614c94565b600084148015614c715750600086115b15614c7b57600095505b505b5050808060019003915050614ba1565b5080925050505b919050565b8173feefeefeefeefeefeefeefeefeefeefeefeefeef73ffffffffffffffffffffffffffffffffffffffff168173ffffffffffffffffffffffffffffffffffffffff161415614d50576040517f08c379a00000000000000000000000000000000000000000000000000000000081526004018080602001828103825260178152602001807f4665652061646472657373206e6f7420616c6c6f77656400000000000000000081525060200191505060405180910390fd5b6000614d5a613709565b73ffffffffffffffffffffffffffffffffffffffff1663326080396008546040518263ffffffff1660e01b81526004018082815260200191505060206040518083038186803b158015614dac57600080fd5b505afa158015614dc0573d6000803e3d6000fd5b505050506040513d6020811015614dd657600080fd5b810190808051906020019092919050505090508073ffffffffffffffffffffffffffffffffffffffff16639dc29fac73feefeefeefeefeefeefeefeefeefeefeefeefeef856040518363ffffffff1660e01b8152600401808373ffffffffffffffffffffffffffffffffffffffff1673ffffffffffffffffffffffffffffffffffffffff16815260200182815260200192505050600060405180830381600087803b158015614e8457600080fd5b505af1158015614e98573d6000803e3d6000fd5b505050508073ffffffffffffffffffffffffffffffffffffffff1663867904b485856040518363ffffffff1660e01b8152600401808373ffffffffffffffffffffffffffffffffffffffff1673ffffffffffffffffffffffffffffffffffffffff16815260200182815260200192505050600060405180830381600087803b158015614f2357600080fd5b505af1158015614f37573d6000803e3d6000fd5b5050505050505050565b600080829050600080600160020360ff1690505b600260ff16811015615046576000614f8e614f6f8361328c565b60040154614f7c8461328c565b600301546132b790919063ffffffff16565b90506000811115615037576000848210614fa85784614faa565b815b9050614fcb81614fb98561328c565b600401546134c890919063ffffffff16565b614fd48461328c565b60040181905550614fee81866132b790919063ffffffff16565b945061500381856134c890919063ffffffff16565b9350600085141561501b57839550505050505061504d565b60008314801561502b5750600085115b1561503557600094505b505b50808060019003915050614f55565b5080925050505b919050565b8173feefeefeefeefeefeefeefeefeefeefeefeefeef73ffffffffffffffffffffffffffffffffffffffff168173ffffffffffffffffffffffffffffffffffffffff161415615109576040517f08c379a00000000000000000000000000000000000000000000000000000000081526004018080602001828103825260178152602001807f4665652061646472657373206e6f7420616c6c6f77656400000000000000000081525060200191505060405180910390fd5b60006301dfe200905061511a61549e565b73ffffffffffffffffffffffffffffffffffffffff16631bb47b448585846040518463ffffffff1660e01b8152600401808473ffffffffffffffffffffffffffffffffffffffff1673ffffffffffffffffffffffffffffffffffffffff1681526020018381526020018281526020019350505050600060405180830381600087803b1580156151a857600080fd5b505af11580156151bc573d6000803e3d6000fd5b5050505050505050565b600260009054906101000a900473ffffffffffffffffffffffffffffffffffffffff1673ffffffffffffffffffffffffffffffffffffffff1663907dff97848484604051602001808473ffffffffffffffffffffffffffffffffffffffff1673ffffffffffffffffffffffffffffffffffffffff16815260200183815260200182815260200193505050506040516020818303038152906040526001604051808061563d602491396024019050604051809103902060008060006040518763ffffffff1660e01b815260040180806020018781526020018681526020018560001b81526020018460001b81526020018360001b8152602001828103825288818151815260200191508051906020019080838360005b838110156152f65780820151818401526020810190506152db565b50505050905090810190601f1680156153235780820380516001836020036101000a031916815260200191505b50975050505050505050600060405180830381600087803b15801561534757600080fd5b505af115801561535b573d6000803e3d6000fd5b50505050505050565b60008083141561537757600090506153e4565b600082840290508284828161538857fe5b04146153df576040517f08c379a00000000000000000000000000000000000000000000000000000000081526004018080602001828103825260218152602001806157076021913960400191505060405180910390fd5b809150505b92915050565b60008061541584615407600a86028861536490919063ffffffff16565b6154ce90919063ffffffff16565b90506005600a828161542357fe5b061061543057600a810190505b600a818161543a57fe5b049150509392505050565b600080600a838161545257fe5b04615466858761536490919063ffffffff16565b8161546d57fe5b0490506005600a828161547c57fe5b061061548957600a810190505b600a818161549357fe5b049150509392505050565b60006154c97f526577617264457363726f775632000000000000000000000000000000000000614879565b905090565b6000808211615545576040517f08c379a000000000000000000000000000000000000000000000000000000000815260040180806020018281038252601a8152602001807f536166654d6174683a206469766973696f6e206279207a65726f00000000000081525060200191505060405180910390fd5b600082848161555057fe5b0490508091505092915050565b60405180604001604052806002905b6155746155e5565b81526020019060019003908161556c5790505090565b6040518060e00160405280600067ffffffffffffffff168152602001600067ffffffffffffffff168152602001600067ffffffffffffffff168152602001600081526020016000815260200160008152602001600081525090565b604051806040016040528060029060208202803883398082019150509050509056fe596f75206d757374206265206e6f6d696e61746564206265666f726520796f752063616e20616363657074206f776e65727368697046656573436c61696d656428616464726573732c75696e743235362c75696e743235362949737375616e636544656274526174696f456e74727928616464726573732c75696e743235362c75696e743235362c75696e74323536294e6f2066656573206f72207265776172647320617661696c61626c6520666f7220706572696f642c206f72206665657320616c726561647920636c61696d65644f6e6c792074686520636f6e7472616374206f776e6572206d617920706572666f726d207468697320616374696f6e536166654d6174683a206d756c7469706c69636174696f6e206f766572666c6f7743616e206f6e6c7920706572666f726d207468697320616374696f6e20647572696e67207365747570a265627a7a723158207f7dac005e1332c6ff5373a2049b536a4b099c0081b446c6b187c49021979e0664736f6c63430005100032",
  "linkReferences": {
    "contracts/SafeDecimalMath.sol": {
      "SafeDecimalMath": [
        {
          "length": 20,
          "start": 12504
        },
        {
          "length": 20,
          "start": 16490
        }
      ]
    }
  },
  "deployedLinkReferences": {
    "contracts/SafeDecimalMath.sol": {
      "SafeDecimalMath": [
        {
          "length": 20,
          "start": 11357
        },
        {
          "length": 20,
          "start": 15343
        }
      ]
    }
  }
}