{
  "_format": "hh-sol-artifact-1",
  "contractName": "ShortingRewards",
  "sourceName": "contracts/ShortingRewards.sol",
  "abi": [
    {
      "inputs": [
        {
          "internalType": "address",
          "name": "_owner",
          "type": "address"
        },
        {
          "internalType": "address",
          "name": "_resolver",
          "type": "address"
        },
        {
          "internalType": "address",
          "name": "_rewardsDistribution",
          "type": "address"
        },
        {
          "internalType": "address",
          "name": "_rewardsToken",
          "type": "address"
        }
      ],
      "payable": false,
      "stateMutability": "nonpayable",
      "type": "constructor"
    },
    {
      "anonymous": false,
      "inputs": [
        {
          "indexed": false,
          "internalType": "bytes32",
          "name": "name",
          "type": "bytes32"
        },
        {
          "indexed": false,
          "internalType": "address",
          "name": "destination",
          "type": "address"
        }
      ],
      "name": "CacheUpdated",
      "type": "event"
    },
    {
      "anonymous": false,
      "inputs": [
        {
          "indexed": true,
          "internalType": "address",
          "name": "user",
          "type": "address"
        },
        {
          "indexed": false,
          "internalType": "uint256",
          "name": "amount",
          "type": "uint256"
        }
      ],
      "name": "Enrol",
      "type": "event"
    },
    {
      "anonymous": false,
      "inputs": [
        {
          "indexed": false,
          "internalType": "address",
          "name": "oldOwner",
          "type": "address"
        },
        {
          "indexed": false,
          "internalType": "address",
          "name": "newOwner",
          "type": "address"
        }
      ],
      "name": "OwnerChanged",
      "type": "event"
    },
    {
      "anonymous": false,
      "inputs": [
        {
          "indexed": false,
          "internalType": "address",
          "name": "newOwner",
          "type": "address"
        }
      ],
      "name": "OwnerNominated",
      "type": "event"
    },
    {
      "anonymous": false,
      "inputs": [
        {
          "indexed": false,
          "internalType": "bool",
          "name": "isPaused",
          "type": "bool"
        }
      ],
      "name": "PauseChanged",
      "type": "event"
    },
    {
      "anonymous": false,
      "inputs": [
        {
          "indexed": false,
          "internalType": "uint256",
          "name": "reward",
          "type": "uint256"
        }
      ],
      "name": "RewardAdded",
      "type": "event"
    },
    {
      "anonymous": false,
      "inputs": [
        {
          "indexed": true,
          "internalType": "address",
          "name": "user",
          "type": "address"
        },
        {
          "indexed": false,
          "internalType": "uint256",
          "name": "reward",
          "type": "uint256"
        }
      ],
      "name": "RewardPaid",
      "type": "event"
    },
    {
      "anonymous": false,
      "inputs": [
        {
          "indexed": false,
          "internalType": "uint256",
          "name": "newDuration",
          "type": "uint256"
        }
      ],
      "name": "RewardsDurationUpdated",
      "type": "event"
    },
    {
      "anonymous": false,
      "inputs": [
        {
          "indexed": true,
          "internalType": "address",
          "name": "user",
          "type": "address"
        },
        {
          "indexed": false,
          "internalType": "uint256",
          "name": "amount",
          "type": "uint256"
        }
      ],
      "name": "Withdrawn",
      "type": "event"
    },
    {
      "constant": false,
      "inputs": [],
      "name": "acceptOwnership",
      "outputs": [],
      "payable": false,
      "stateMutability": "nonpayable",
      "type": "function"
    },
    {
      "constant": true,
      "inputs": [
        {
          "internalType": "address",
          "name": "account",
          "type": "address"
        }
      ],
      "name": "balanceOf",
      "outputs": [
        {
          "internalType": "uint256",
          "name": "",
          "type": "uint256"
        }
      ],
      "payable": false,
      "stateMutability": "view",
      "type": "function"
    },
    {
      "constant": true,
      "inputs": [
        {
          "internalType": "address",
          "name": "account",
          "type": "address"
        }
      ],
      "name": "earned",
      "outputs": [
        {
          "internalType": "uint256",
          "name": "",
          "type": "uint256"
        }
      ],
      "payable": false,
      "stateMutability": "view",
      "type": "function"
    },
    {
      "constant": false,
      "inputs": [
        {
          "internalType": "address",
          "name": "account",
          "type": "address"
        },
        {
          "internalType": "uint256",
          "name": "amount",
          "type": "uint256"
        }
      ],
      "name": "enrol",
      "outputs": [],
      "payable": false,
      "stateMutability": "nonpayable",
      "type": "function"
    },
    {
      "constant": false,
      "inputs": [
        {
          "internalType": "address",
          "name": "account",
          "type": "address"
        }
      ],
      "name": "getReward",
      "outputs": [],
      "payable": false,
      "stateMutability": "nonpayable",
      "type": "function"
    },
    {
      "constant": true,
      "inputs": [],
      "name": "getRewardForDuration",
      "outputs": [
        {
          "internalType": "uint256",
          "name": "",
          "type": "uint256"
        }
      ],
      "payable": false,
      "stateMutability": "view",
      "type": "function"
    },
    {
      "constant": true,
      "inputs": [],
      "name": "isResolverCached",
      "outputs": [
        {
          "internalType": "bool",
          "name": "",
          "type": "bool"
        }
      ],
      "payable": false,
      "stateMutability": "view",
      "type": "function"
    },
    {
      "constant": true,
      "inputs": [],
      "name": "lastPauseTime",
      "outputs": [
        {
          "internalType": "uint256",
          "name": "",
          "type": "uint256"
        }
      ],
      "payable": false,
      "stateMutability": "view",
      "type": "function"
    },
    {
      "constant": true,
      "inputs": [],
      "name": "lastTimeRewardApplicable",
      "outputs": [
        {
          "internalType": "uint256",
          "name": "",
          "type": "uint256"
        }
      ],
      "payable": false,
      "stateMutability": "view",
      "type": "function"
    },
    {
      "constant": true,
      "inputs": [],
      "name": "lastUpdateTime",
      "outputs": [
        {
          "internalType": "uint256",
          "name": "",
          "type": "uint256"
        }
      ],
      "payable": false,
      "stateMutability": "view",
      "type": "function"
    },
    {
      "constant": false,
      "inputs": [
        {
          "internalType": "address",
          "name": "_owner",
          "type": "address"
        }
      ],
      "name": "nominateNewOwner",
      "outputs": [],
      "payable": false,
      "stateMutability": "nonpayable",
      "type": "function"
    },
    {
      "constant": true,
      "inputs": [],
      "name": "nominatedOwner",
      "outputs": [
        {
          "internalType": "address",
          "name": "",
          "type": "address"
        }
      ],
      "payable": false,
      "stateMutability": "view",
      "type": "function"
    },
    {
      "constant": false,
      "inputs": [
        {
          "internalType": "uint256",
          "name": "reward",
          "type": "uint256"
        }
      ],
      "name": "notifyRewardAmount",
      "outputs": [],
      "payable": false,
      "stateMutability": "nonpayable",
      "type": "function"
    },
    {
      "constant": true,
      "inputs": [],
      "name": "owner",
      "outputs": [
        {
          "internalType": "address",
          "name": "",
          "type": "address"
        }
      ],
      "payable": false,
      "stateMutability": "view",
      "type": "function"
    },
    {
      "constant": true,
      "inputs": [],
      "name": "paused",
      "outputs": [
        {
          "internalType": "bool",
          "name": "",
          "type": "bool"
        }
      ],
      "payable": false,
      "stateMutability": "view",
      "type": "function"
    },
    {
      "constant": true,
      "inputs": [],
      "name": "periodFinish",
      "outputs": [
        {
          "internalType": "uint256",
          "name": "",
          "type": "uint256"
        }
      ],
      "payable": false,
      "stateMutability": "view",
      "type": "function"
    },
    {
      "constant": false,
      "inputs": [],
      "name": "rebuildCache",
      "outputs": [],
      "payable": false,
      "stateMutability": "nonpayable",
      "type": "function"
    },
    {
      "constant": true,
      "inputs": [],
      "name": "resolver",
      "outputs": [
        {
          "internalType": "contract AddressResolver",
          "name": "",
          "type": "address"
        }
      ],
      "payable": false,
      "stateMutability": "view",
      "type": "function"
    },
    {
      "constant": true,
      "inputs": [],
      "name": "resolverAddressesRequired",
      "outputs": [
        {
          "internalType": "bytes32[]",
          "name": "addresses",
          "type": "bytes32[]"
        }
      ],
      "payable": false,
      "stateMutability": "view",
      "type": "function"
    },
    {
      "constant": true,
      "inputs": [],
      "name": "rewardPerToken",
      "outputs": [
        {
          "internalType": "uint256",
          "name": "",
          "type": "uint256"
        }
      ],
      "payable": false,
      "stateMutability": "view",
      "type": "function"
    },
    {
      "constant": true,
      "inputs": [],
      "name": "rewardPerTokenStored",
      "outputs": [
        {
          "internalType": "uint256",
          "name": "",
          "type": "uint256"
        }
      ],
      "payable": false,
      "stateMutability": "view",
      "type": "function"
    },
    {
      "constant": true,
      "inputs": [],
      "name": "rewardRate",
      "outputs": [
        {
          "internalType": "uint256",
          "name": "",
          "type": "uint256"
        }
      ],
      "payable": false,
      "stateMutability": "view",
      "type": "function"
    },
    {
      "constant": true,
      "inputs": [
        {
          "internalType": "address",
          "name": "",
          "type": "address"
        }
      ],
      "name": "rewards",
      "outputs": [
        {
          "internalType": "uint256",
          "name": "",
          "type": "uint256"
        }
      ],
      "payable": false,
      "stateMutability": "view",
      "type": "function"
    },
    {
      "constant": true,
      "inputs": [],
      "name": "rewardsDistribution",
      "outputs": [
        {
          "internalType": "address",
          "name": "",
          "type": "address"
        }
      ],
      "payable": false,
      "stateMutability": "view",
      "type": "function"
    },
    {
      "constant": true,
      "inputs": [],
      "name": "rewardsDuration",
      "outputs": [
        {
          "internalType": "uint256",
          "name": "",
          "type": "uint256"
        }
      ],
      "payable": false,
      "stateMutability": "view",
      "type": "function"
    },
    {
      "constant": true,
      "inputs": [],
      "name": "rewardsToken",
      "outputs": [
        {
          "internalType": "contract IERC20",
          "name": "",
          "type": "address"
        }
      ],
      "payable": false,
      "stateMutability": "view",
      "type": "function"
    },
    {
      "constant": false,
      "inputs": [
        {
          "internalType": "bool",
          "name": "_paused",
          "type": "bool"
        }
      ],
      "name": "setPaused",
      "outputs": [],
      "payable": false,
      "stateMutability": "nonpayable",
      "type": "function"
    },
    {
      "constant": false,
      "inputs": [
        {
          "internalType": "address",
          "name": "_rewardsDistribution",
          "type": "address"
        }
      ],
      "name": "setRewardsDistribution",
      "outputs": [],
      "payable": false,
      "stateMutability": "nonpayable",
      "type": "function"
    },
    {
      "constant": false,
      "inputs": [
        {
          "internalType": "uint256",
          "name": "_rewardsDuration",
          "type": "uint256"
        }
      ],
      "name": "setRewardsDuration",
      "outputs": [],
      "payable": false,
      "stateMutability": "nonpayable",
      "type": "function"
    },
    {
      "constant": true,
      "inputs": [],
      "name": "totalSupply",
      "outputs": [
        {
          "internalType": "uint256",
          "name": "",
          "type": "uint256"
        }
      ],
      "payable": false,
      "stateMutability": "view",
      "type": "function"
    },
    {
      "constant": true,
      "inputs": [
        {
          "internalType": "address",
          "name": "",
          "type": "address"
        }
      ],
      "name": "userRewardPerTokenPaid",
      "outputs": [
        {
          "internalType": "uint256",
          "name": "",
          "type": "uint256"
        }
      ],
      "payable": false,
      "stateMutability": "view",
      "type": "function"
    },
    {
      "constant": false,
      "inputs": [
        {
          "internalType": "address",
          "name": "account",
          "type": "address"
        },
        {
          "internalType": "uint256",
          "name": "amount",
          "type": "uint256"
        }
      ],
      "name": "withdraw",
      "outputs": [],
      "payable": false,
      "stateMutability": "nonpayable",
      "type": "function"
    }
  ],
  "bytecode": "0x60806040526000600855600060095562093a80600a553480156200002257600080fd5b506040516200368f3803806200368f8339818101604052620000489190810190620002bb565b8284600073ffffffffffffffffffffffffffffffffffffffff168173ffffffffffffffffffffffffffffffffffffffff161415620000bd576040517f08c379a0000000000000000000000000000000000000000000000000000000008152600401620000b4906200041c565b60405180910390fd5b806000806101000a81548173ffffffffffffffffffffffffffffffffffffffff021916908373ffffffffffffffffffffffffffffffffffffffff1602179055507fb532073b38c83145e3e5135377a08bf9aab55bc0fd7c1179cd4fb995d2a5159c60008260405162000131929190620003cd565b60405180910390a1506001600381905550600073ffffffffffffffffffffffffffffffffffffffff166000809054906101000a900473ffffffffffffffffffffffffffffffffffffffff1673ffffffffffffffffffffffffffffffffffffffff161415620001d6576040517f08c379a0000000000000000000000000000000000000000000000000000000008152600401620001cd90620003fa565b60405180910390fd5b80600560016101000a81548173ffffffffffffffffffffffffffffffffffffffff021916908373ffffffffffffffffffffffffffffffffffffffff1602179055505080600760006101000a81548173ffffffffffffffffffffffffffffffffffffffff021916908373ffffffffffffffffffffffffffffffffffffffff16021790555081600260006101000a81548173ffffffffffffffffffffffffffffffffffffffff021916908373ffffffffffffffffffffffffffffffffffffffff16021790555050505050620004d9565b600081519050620002b581620004bf565b92915050565b60008060008060808587031215620002d257600080fd5b6000620002e287828801620002a4565b9450506020620002f587828801620002a4565b93505060406200030887828801620002a4565b92505060606200031b87828801620002a4565b91505092959194509250565b620003328162000483565b82525050565b62000343816200044f565b82525050565b6000620003586011836200043e565b91507f4f776e6572206d757374206265207365740000000000000000000000000000006000830152602082019050919050565b60006200039a6019836200043e565b91507f4f776e657220616464726573732063616e6e6f742062652030000000000000006000830152602082019050919050565b6000604082019050620003e4600083018562000327565b620003f3602083018462000338565b9392505050565b60006020820190508181036000830152620004158162000349565b9050919050565b6000602082019050818103600083015262000437816200038b565b9050919050565b600082825260208201905092915050565b60006200045c8262000463565b9050919050565b600073ffffffffffffffffffffffffffffffffffffffff82169050919050565b6000620004908262000497565b9050919050565b6000620004a482620004ab565b9050919050565b6000620004b88262000463565b9050919050565b620004ca816200044f565b8114620004d657600080fd5b50565b6131a680620004e96000396000f3fe608060405234801561001057600080fd5b50600436106101ef5760003560e01c806379ba50971161010f578063c8f33c91116100a2578063db454a5111610071578063db454a5114610550578063df136d651461056c578063ebe2b12b1461058a578063f3fef3a3146105a8576101ef565b8063c8f33c91146104da578063cc1a378f146104f8578063cd3daf9d14610514578063d1af0c7d14610532576101ef565b80638b876347116100de5780638b876347146104525780638da5cb5b1461048257806391b4ded9146104a0578063c00007b0146104be576101ef565b806379ba5097146103ee5780637b0a47ee146103f857806380faa57d14610416578063899ffef414610434576101ef565b80632af64bd31161018757806353a47bb71161015657806353a47bb7146103785780635c975abb1461039657806370a08231146103b457806374185360146103e4576101ef565b80632af64bd314610302578063386a9525146103205780633c6b16ab1461033e5780633fc6df6e1461035a576101ef565b806316c38b3c116101c357806316c38b3c1461028e57806318160ddd146102aa57806319762143146102c85780631c1f78eb146102e4576101ef565b80628cc262146101f457806304f3bcec146102245780630700037d146102425780631627540c14610272575b600080fd5b61020e6004803603610209919081019061232a565b6105c4565b60405161021b9190612fa5565b60405180910390f35b61022c6106e2565b6040516102399190612d2d565b60405180910390f35b61025c6004803603610257919081019061232a565b610708565b6040516102699190612fa5565b60405180910390f35b61028c6004803603610287919081019061232a565b610720565b005b6102a860048036036102a391908101906123b8565b6107a3565b005b6102b261084c565b6040516102bf9190612fa5565b60405180910390f35b6102e260048036036102dd919081019061232a565b610856565b005b6102ec6108a2565b6040516102f99190612fa5565b60405180910390f35b61030a6108c0565b6040516103179190612c9e565b60405180910390f35b610328610a95565b6040516103359190612fa5565b60405180910390f35b6103586004803603610353919081019061240a565b610a9b565b005b610362610e01565b60405161036f9190612c0f565b60405180910390f35b610380610e27565b60405161038d9190612c0f565b60405180910390f35b61039e610e4d565b6040516103ab9190612c9e565b60405180910390f35b6103ce60048036036103c9919081019061232a565b610e60565b6040516103db9190612fa5565b60405180910390f35b6103ec610ea9565b005b6103f661104a565b005b6104006111fc565b60405161040d9190612fa5565b60405180910390f35b61041e611202565b60405161042b9190612fa5565b60405180910390f35b61043c611215565b6040516104499190612c7c565b60405180910390f35b61046c6004803603610467919081019061232a565b611287565b6040516104799190612fa5565b60405180910390f35b61048a61129f565b6040516104979190612c0f565b60405180910390f35b6104a86112c4565b6040516104b59190612fa5565b60405180910390f35b6104d860048036036104d3919081019061232a565b6112ca565b005b6104e26115b9565b6040516104ef9190612fa5565b60405180910390f35b610512600480360361050d919081019061240a565b6115bf565b005b61051c61164e565b6040516105299190612fa5565b60405180910390f35b61053a6116dc565b6040516105479190612d48565b60405180910390f35b61056a6004803603610565919081019061237c565b611702565b005b610574611a54565b6040516105819190612fa5565b60405180910390f35b610592611a5a565b60405161059f9190612fa5565b60405180910390f35b6105c260048036036105bd919081019061237c565b611a60565b005b60006106db600e60008473ffffffffffffffffffffffffffffffffffffffff1673ffffffffffffffffffffffffffffffffffffffff168152602001908152602001600020546106cd670de0b6b3a76400006106bf610671600d60008973ffffffffffffffffffffffffffffffffffffffff1673ffffffffffffffffffffffffffffffffffffffff1681526020019081526020016000205461066361164e565b611d6290919063ffffffff16565b601060008973ffffffffffffffffffffffffffffffffffffffff1673ffffffffffffffffffffffffffffffffffffffff16815260200190815260200160002054611db890919063ffffffff16565b611e2890919063ffffffff16565b611e8490919063ffffffff16565b9050919050565b600560019054906101000a900473ffffffffffffffffffffffffffffffffffffffff1681565b600e6020528060005260406000206000915090505481565b610728611ed9565b80600160006101000a81548173ffffffffffffffffffffffffffffffffffffffff021916908373ffffffffffffffffffffffffffffffffffffffff1602179055507f906a1c6bd7e3091ea86693dd029a831c19049ce77f1dce2ce0bab1cacbabce22816040516107989190612c0f565b60405180910390a150565b6107ab611ed9565b600560009054906101000a900460ff16151581151514156107cb57610849565b80600560006101000a81548160ff021916908315150217905550600560009054906101000a900460ff161561080257426004819055505b7f8fb6c181ee25a520cf3dd6565006ef91229fcfe5a989566c2a3b8c115570cec5600560009054906101000a900460ff166040516108409190612c9e565b60405180910390a15b50565b6000600f54905090565b61085e611ed9565b80600260006101000a81548173ffffffffffffffffffffffffffffffffffffffff021916908373ffffffffffffffffffffffffffffffffffffffff16021790555050565b60006108bb600a54600954611db890919063ffffffff16565b905090565b600060606108cc611215565b905060008090505b8151811015610a8b5760008282815181106108eb57fe5b602002602001015190506006600082815260200190815260200160002060009054906101000a900473ffffffffffffffffffffffffffffffffffffffff1673ffffffffffffffffffffffffffffffffffffffff16600560019054906101000a900473ffffffffffffffffffffffffffffffffffffffff1673ffffffffffffffffffffffffffffffffffffffff166321f8a721836040518263ffffffff1660e01b815260040161099a9190612cb9565b60206040518083038186803b1580156109b257600080fd5b505afa1580156109c6573d6000803e3d6000fd5b505050506040513d601f19601f820116820180604052506109ea9190810190612353565b73ffffffffffffffffffffffffffffffffffffffff16141580610a6c5750600073ffffffffffffffffffffffffffffffffffffffff166006600083815260200190815260200160002060009054906101000a900473ffffffffffffffffffffffffffffffffffffffff1673ffffffffffffffffffffffffffffffffffffffff16145b15610a7d5760009350505050610a92565b5080806001019150506108d4565b5060019150505b90565b600a5481565b600260009054906101000a900473ffffffffffffffffffffffffffffffffffffffff1673ffffffffffffffffffffffffffffffffffffffff163373ffffffffffffffffffffffffffffffffffffffff1614610b2b576040517f08c379a0000000000000000000000000000000000000000000000000000000008152600401610b2290612f05565b60405180910390fd5b6000610b3561164e565b600c81905550610b43611202565b600b81905550600073ffffffffffffffffffffffffffffffffffffffff168173ffffffffffffffffffffffffffffffffffffffff1614610c1057610b86816105c4565b600e60008373ffffffffffffffffffffffffffffffffffffffff1673ffffffffffffffffffffffffffffffffffffffff16815260200190815260200160002081905550600c54600d60008373ffffffffffffffffffffffffffffffffffffffff1673ffffffffffffffffffffffffffffffffffffffff168152602001908152602001600020819055505b6008544210610c3957610c2e600a5483611e2890919063ffffffff16565b600981905550610c9b565b6000610c5042600854611d6290919063ffffffff16565b90506000610c6960095483611db890919063ffffffff16565b9050610c92600a54610c848387611e8490919063ffffffff16565b611e2890919063ffffffff16565b60098190555050505b6000600760009054906101000a900473ffffffffffffffffffffffffffffffffffffffff1673ffffffffffffffffffffffffffffffffffffffff166370a08231306040518263ffffffff1660e01b8152600401610cf89190612c0f565b60206040518083038186803b158015610d1057600080fd5b505afa158015610d24573d6000803e3d6000fd5b505050506040513d601f19601f82011682018060405250610d489190810190612433565b9050610d5f600a5482611e2890919063ffffffff16565b6009541115610da3576040517f08c379a0000000000000000000000000000000000000000000000000000000008152600401610d9a90612ec5565b60405180910390fd5b42600b81905550610dbf600a5442611e8490919063ffffffff16565b6008819055507fde88a922e0d3b88b24e9623efeb464919c6bf9f66857a65e2bfcf2ce87a9433d83604051610df49190612fa5565b60405180910390a1505050565b600260009054906101000a900473ffffffffffffffffffffffffffffffffffffffff1681565b600160009054906101000a900473ffffffffffffffffffffffffffffffffffffffff1681565b600560009054906101000a900460ff1681565b6000601060008373ffffffffffffffffffffffffffffffffffffffff1673ffffffffffffffffffffffffffffffffffffffff168152602001908152602001600020549050919050565b6060610eb3611215565b905060008090505b8151811015611046576000828281518110610ed257fe5b602002602001015190506000600560019054906101000a900473ffffffffffffffffffffffffffffffffffffffff1673ffffffffffffffffffffffffffffffffffffffff1663dacb2d018384604051602001610f2e9190612be9565b6040516020818303038152906040526040518363ffffffff1660e01b8152600401610f5a929190612cfd565b60206040518083038186803b158015610f7257600080fd5b505afa158015610f86573d6000803e3d6000fd5b505050506040513d601f19601f82011682018060405250610faa9190810190612353565b9050806006600084815260200190815260200160002060006101000a81548173ffffffffffffffffffffffffffffffffffffffff021916908373ffffffffffffffffffffffffffffffffffffffff1602179055507f88a93678a3692f6789d9546fc621bf7234b101ddb7d4fe479455112831b8aa68828260405161102f929190612cd4565b60405180910390a150508080600101915050610ebb565b5050565b600160009054906101000a900473ffffffffffffffffffffffffffffffffffffffff1673ffffffffffffffffffffffffffffffffffffffff163373ffffffffffffffffffffffffffffffffffffffff16146110da576040517f08c379a00000000000000000000000000000000000000000000000000000000081526004016110d190612da5565b60405180910390fd5b7fb532073b38c83145e3e5135377a08bf9aab55bc0fd7c1179cd4fb995d2a5159c6000809054906101000a900473ffffffffffffffffffffffffffffffffffffffff16600160009054906101000a900473ffffffffffffffffffffffffffffffffffffffff1660405161114e929190612c2a565b60405180910390a1600160009054906101000a900473ffffffffffffffffffffffffffffffffffffffff166000806101000a81548173ffffffffffffffffffffffffffffffffffffffff021916908373ffffffffffffffffffffffffffffffffffffffff1602179055506000600160006101000a81548173ffffffffffffffffffffffffffffffffffffffff021916908373ffffffffffffffffffffffffffffffffffffffff160217905550565b60095481565b600061121042600854611f6a565b905090565b606060016040519080825280602002602001820160405280156112475781602001602082028038833980820191505090505b5090507f436f6c6c61746572616c53686f727400000000000000000000000000000000008160008151811061127857fe5b60200260200101818152505090565b600d6020528060005260406000206000915090505481565b6000809054906101000a900473ffffffffffffffffffffffffffffffffffffffff1681565b60045481565b60006112d4611f83565b73ffffffffffffffffffffffffffffffffffffffff163373ffffffffffffffffffffffffffffffffffffffff1614905080611344576040517f08c379a000000000000000000000000000000000000000000000000000000000815260040161133b90612f85565b60405180910390fd5b6001600360008282540192505081905550600060035490508261136561164e565b600c81905550611373611202565b600b81905550600073ffffffffffffffffffffffffffffffffffffffff168173ffffffffffffffffffffffffffffffffffffffff1614611440576113b6816105c4565b600e60008373ffffffffffffffffffffffffffffffffffffffff1673ffffffffffffffffffffffffffffffffffffffff16815260200190815260200160002081905550600c54600d60008373ffffffffffffffffffffffffffffffffffffffff1673ffffffffffffffffffffffffffffffffffffffff168152602001908152602001600020819055505b6000600e60008673ffffffffffffffffffffffffffffffffffffffff1673ffffffffffffffffffffffffffffffffffffffff168152602001908152602001600020549050600081111561156e576000600e60008773ffffffffffffffffffffffffffffffffffffffff1673ffffffffffffffffffffffffffffffffffffffff1681526020019081526020016000208190555061151f8582600760009054906101000a900473ffffffffffffffffffffffffffffffffffffffff1673ffffffffffffffffffffffffffffffffffffffff16611fb39092919063ffffffff16565b8473ffffffffffffffffffffffffffffffffffffffff167fe2403640ba68fed3a2f88b7557551d1993f84b99bb10ff833f0cf8db0c5e0486826040516115659190612fa5565b60405180910390a25b505060035481146115b4576040517f08c379a00000000000000000000000000000000000000000000000000000000081526004016115ab90612f45565b60405180910390fd5b505050565b600b5481565b6115c7611ed9565b600854421161160b576040517f08c379a000000000000000000000000000000000000000000000000000000000815260040161160290612d85565b60405180910390fd5b80600a819055507ffb46ca5a5e06d4540d6387b930a7c978bce0db5f449ec6b3f5d07c6e1d44f2d3600a546040516116439190612fa5565b60405180910390a150565b600080600f54141561166457600c5490506116d9565b6116d66116c5600f546116b7670de0b6b3a76400006116a960095461169b600b5461168d611202565b611d6290919063ffffffff16565b611db890919063ffffffff16565b611db890919063ffffffff16565b611e2890919063ffffffff16565b600c54611e8490919063ffffffff16565b90505b90565b600760009054906101000a900473ffffffffffffffffffffffffffffffffffffffff1681565b600061170c611f83565b73ffffffffffffffffffffffffffffffffffffffff163373ffffffffffffffffffffffffffffffffffffffff161490508061177c576040517f08c379a000000000000000000000000000000000000000000000000000000000815260040161177390612f85565b60405180910390fd5b600160036000828254019250508190555060006003549050600560009054906101000a900460ff16156117e4576040517f08c379a00000000000000000000000000000000000000000000000000000000081526004016117db90612ee5565b60405180910390fd5b836117ed61164e565b600c819055506117fb611202565b600b81905550600073ffffffffffffffffffffffffffffffffffffffff168173ffffffffffffffffffffffffffffffffffffffff16146118c85761183e816105c4565b600e60008373ffffffffffffffffffffffffffffffffffffffff1673ffffffffffffffffffffffffffffffffffffffff16815260200190815260200160002081905550600c54600d60008373ffffffffffffffffffffffffffffffffffffffff1673ffffffffffffffffffffffffffffffffffffffff168152602001908152602001600020819055505b6000841161190b576040517f08c379a000000000000000000000000000000000000000000000000000000000815260040161190290612dc5565b60405180910390fd5b61192084600f54611e8490919063ffffffff16565b600f8190555061197884601060008873ffffffffffffffffffffffffffffffffffffffff1673ffffffffffffffffffffffffffffffffffffffff16815260200190815260200160002054611e8490919063ffffffff16565b601060008773ffffffffffffffffffffffffffffffffffffffff1673ffffffffffffffffffffffffffffffffffffffff168152602001908152602001600020819055508473ffffffffffffffffffffffffffffffffffffffff167fc3d87d134210f5b3ee2418004c5f887bf335f79829d32e72ba5f282baccc859185604051611a019190612fa5565b60405180910390a2506003548114611a4e576040517f08c379a0000000000000000000000000000000000000000000000000000000008152600401611a4590612f45565b60405180910390fd5b50505050565b600c5481565b60085481565b6000611a6a611f83565b73ffffffffffffffffffffffffffffffffffffffff163373ffffffffffffffffffffffffffffffffffffffff1614905080611ada576040517f08c379a0000000000000000000000000000000000000000000000000000000008152600401611ad190612f85565b60405180910390fd5b60016003600082825401925050819055506000600354905083611afb61164e565b600c81905550611b09611202565b600b81905550600073ffffffffffffffffffffffffffffffffffffffff168173ffffffffffffffffffffffffffffffffffffffff1614611bd657611b4c816105c4565b600e60008373ffffffffffffffffffffffffffffffffffffffff1673ffffffffffffffffffffffffffffffffffffffff16815260200190815260200160002081905550600c54600d60008373ffffffffffffffffffffffffffffffffffffffff1673ffffffffffffffffffffffffffffffffffffffff168152602001908152602001600020819055505b60008411611c19576040517f08c379a0000000000000000000000000000000000000000000000000000000008152600401611c1090612e85565b60405180910390fd5b611c2e84600f54611d6290919063ffffffff16565b600f81905550611c8684601060008873ffffffffffffffffffffffffffffffffffffffff1673ffffffffffffffffffffffffffffffffffffffff16815260200190815260200160002054611d6290919063ffffffff16565b601060008773ffffffffffffffffffffffffffffffffffffffff1673ffffffffffffffffffffffffffffffffffffffff168152602001908152602001600020819055508473ffffffffffffffffffffffffffffffffffffffff167f7084f5476618d8e60b11ef0d7d3f06914655adb8793e28ff7f018d4c76d505d585604051611d0f9190612fa5565b60405180910390a2506003548114611d5c576040517f08c379a0000000000000000000000000000000000000000000000000000000008152600401611d5390612f45565b60405180910390fd5b50505050565b600082821115611da7576040517f08c379a0000000000000000000000000000000000000000000000000000000008152600401611d9e90612e25565b60405180910390fd5b600082840390508091505092915050565b600080831415611dcb5760009050611e22565b6000828402905082848281611ddc57fe5b0414611e1d576040517f08c379a0000000000000000000000000000000000000000000000000000000008152600401611e1490612ea5565b60405180910390fd5b809150505b92915050565b6000808211611e6c576040517f08c379a0000000000000000000000000000000000000000000000000000000008152600401611e6390612e45565b60405180910390fd5b6000828481611e7757fe5b0490508091505092915050565b600080828401905083811015611ecf576040517f08c379a0000000000000000000000000000000000000000000000000000000008152600401611ec690612de5565b60405180910390fd5b8091505092915050565b6000809054906101000a900473ffffffffffffffffffffffffffffffffffffffff1673ffffffffffffffffffffffffffffffffffffffff163373ffffffffffffffffffffffffffffffffffffffff1614611f68576040517f08c379a0000000000000000000000000000000000000000000000000000000008152600401611f5f90612e65565b60405180910390fd5b565b6000818310611f795781611f7b565b825b905092915050565b6000611fae7f436f6c6c61746572616c53686f72740000000000000000000000000000000000612052565b905090565b61204d838473ffffffffffffffffffffffffffffffffffffffff1663a9059cbb905060e01b8484604051602401611feb929190612c53565b604051602081830303815290604052907bffffffffffffffffffffffffffffffffffffffffffffffffffffffff19166020820180517bffffffffffffffffffffffffffffffffffffffffffffffffffffffff8381831617835250505050612127565b505050565b6000806006600084815260200190815260200160002060009054906101000a900473ffffffffffffffffffffffffffffffffffffffff169050600073ffffffffffffffffffffffffffffffffffffffff168173ffffffffffffffffffffffffffffffffffffffff161415836040516020016120cd9190612bc3565b6040516020818303038152906040529061211d576040517f08c379a00000000000000000000000000000000000000000000000000000000081526004016121149190612d63565b60405180910390fd5b5080915050919050565b6121468273ffffffffffffffffffffffffffffffffffffffff16612299565b612185576040517f08c379a000000000000000000000000000000000000000000000000000000000815260040161217c90612f65565b60405180910390fd5b600060608373ffffffffffffffffffffffffffffffffffffffff16836040516121ae9190612bac565b6000604051808303816000865af19150503d80600081146121eb576040519150601f19603f3d011682016040523d82523d6000602084013e6121f0565b606091505b509150915081612235576040517f08c379a000000000000000000000000000000000000000000000000000000000815260040161222c90612e05565b60405180910390fd5b600081511115612293578080602001905161225391908101906123e1565b612292576040517f08c379a000000000000000000000000000000000000000000000000000000000815260040161228990612f25565b60405180910390fd5b5b50505050565b600080823b905060008111915050919050565b6000813590506122bb8161311e565b92915050565b6000815190506122d08161311e565b92915050565b6000813590506122e581613135565b92915050565b6000815190506122fa81613135565b92915050565b60008135905061230f8161314c565b92915050565b6000815190506123248161314c565b92915050565b60006020828403121561233c57600080fd5b600061234a848285016122ac565b91505092915050565b60006020828403121561236557600080fd5b6000612373848285016122c1565b91505092915050565b6000806040838503121561238f57600080fd5b600061239d858286016122ac565b92505060206123ae85828601612300565b9150509250929050565b6000602082840312156123ca57600080fd5b60006123d8848285016122d6565b91505092915050565b6000602082840312156123f357600080fd5b6000612401848285016122eb565b91505092915050565b60006020828403121561241c57600080fd5b600061242a84828501612300565b91505092915050565b60006020828403121561244557600080fd5b600061245384828501612315565b91505092915050565b600061246883836124f0565b60208301905092915050565b61247d81613036565b82525050565b600061248e82612fd0565b6124988185612ffe565b93506124a383612fc0565b8060005b838110156124d45781516124bb888261245c565b97506124c683612ff1565b9250506001810190506124a7565b5085935050505092915050565b6124ea81613048565b82525050565b6124f981613054565b82525050565b61250881613054565b82525050565b61251f61251a82613054565b613103565b82525050565b600061253082612fdb565b61253a818561300f565b935061254a8185602086016130d0565b80840191505092915050565b61255f81613088565b82525050565b61256e816130ac565b82525050565b600061257f82612fe6565b612589818561301a565b93506125998185602086016130d0565b6125a28161310d565b840191505092915050565b60006125ba60588361301a565b91507f50726576696f7573207265776172647320706572696f64206d7573742062652060008301527f636f6d706c657465206265666f7265206368616e67696e67207468652064757260208301527f6174696f6e20666f7220746865206e657720706572696f6400000000000000006040830152606082019050919050565b600061264660358361301a565b91507f596f75206d757374206265206e6f6d696e61746564206265666f726520796f7560008301527f2063616e20616363657074206f776e65727368697000000000000000000000006020830152604082019050919050565b60006126ac600e8361301a565b91507f43616e6e6f74207374616b6520300000000000000000000000000000000000006000830152602082019050919050565b60006126ec601b8361301a565b91507f536166654d6174683a206164646974696f6e206f766572666c6f7700000000006000830152602082019050919050565b600061272c60208361301a565b91507f5361666545524332303a206c6f772d6c6576656c2063616c6c206661696c65646000830152602082019050919050565b600061276c601e8361301a565b91507f536166654d6174683a207375627472616374696f6e206f766572666c6f7700006000830152602082019050919050565b60006127ac601a8361301a565b91507f536166654d6174683a206469766973696f6e206279207a65726f0000000000006000830152602082019050919050565b60006127ec60118361302b565b91507f4d697373696e6720616464726573733a200000000000000000000000000000006000830152601182019050919050565b600061282c602f8361301a565b91507f4f6e6c792074686520636f6e7472616374206f776e6572206d6179207065726660008301527f6f726d207468697320616374696f6e00000000000000000000000000000000006020830152604082019050919050565b600061289260118361301a565b91507f43616e6e6f7420776974686472617720300000000000000000000000000000006000830152602082019050919050565b60006128d260218361301a565b91507f536166654d6174683a206d756c7469706c69636174696f6e206f766572666c6f60008301527f77000000000000000000000000000000000000000000000000000000000000006020830152604082019050919050565b600061293860188361301a565b91507f50726f76696465642072657761726420746f6f206869676800000000000000006000830152602082019050919050565b6000612978603c8361301a565b91507f5468697320616374696f6e2063616e6e6f7420626520706572666f726d65642060008301527f7768696c652074686520636f6e747261637420697320706175736564000000006020830152604082019050919050565b60006129de60198361302b565b91507f5265736f6c766572206d697373696e67207461726765743a20000000000000006000830152601982019050919050565b6000612a1e602a8361301a565b91507f43616c6c6572206973206e6f742052657761726473446973747269627574696f60008301527f6e20636f6e7472616374000000000000000000000000000000000000000000006020830152604082019050919050565b6000612a84602a8361301a565b91507f5361666545524332303a204552433230206f7065726174696f6e20646964206e60008301527f6f742073756363656564000000000000000000000000000000000000000000006020830152604082019050919050565b6000612aea601f8361301a565b91507f5265656e7472616e637947756172643a207265656e7472616e742063616c6c006000830152602082019050919050565b6000612b2a601f8361301a565b91507f5361666545524332303a2063616c6c20746f206e6f6e2d636f6e7472616374006000830152602082019050919050565b6000612b6a60138361301a565b91507f4f6e6c792053686f727420436f6e7472616374000000000000000000000000006000830152602082019050919050565b612ba68161307e565b82525050565b6000612bb88284612525565b915081905092915050565b6000612bce826127df565b9150612bda828461250e565b60208201915081905092915050565b6000612bf4826129d1565b9150612c00828461250e565b60208201915081905092915050565b6000602082019050612c246000830184612474565b92915050565b6000604082019050612c3f6000830185612474565b612c4c6020830184612474565b9392505050565b6000604082019050612c686000830185612474565b612c756020830184612b9d565b9392505050565b60006020820190508181036000830152612c968184612483565b905092915050565b6000602082019050612cb360008301846124e1565b92915050565b6000602082019050612cce60008301846124ff565b92915050565b6000604082019050612ce960008301856124ff565b612cf66020830184612474565b9392505050565b6000604082019050612d1260008301856124ff565b8181036020830152612d248184612574565b90509392505050565b6000602082019050612d426000830184612556565b92915050565b6000602082019050612d5d6000830184612565565b92915050565b60006020820190508181036000830152612d7d8184612574565b905092915050565b60006020820190508181036000830152612d9e816125ad565b9050919050565b60006020820190508181036000830152612dbe81612639565b9050919050565b60006020820190508181036000830152612dde8161269f565b9050919050565b60006020820190508181036000830152612dfe816126df565b9050919050565b60006020820190508181036000830152612e1e8161271f565b9050919050565b60006020820190508181036000830152612e3e8161275f565b9050919050565b60006020820190508181036000830152612e5e8161279f565b9050919050565b60006020820190508181036000830152612e7e8161281f565b9050919050565b60006020820190508181036000830152612e9e81612885565b9050919050565b60006020820190508181036000830152612ebe816128c5565b9050919050565b60006020820190508181036000830152612ede8161292b565b9050919050565b60006020820190508181036000830152612efe8161296b565b9050919050565b60006020820190508181036000830152612f1e81612a11565b9050919050565b60006020820190508181036000830152612f3e81612a77565b9050919050565b60006020820190508181036000830152612f5e81612add565b9050919050565b60006020820190508181036000830152612f7e81612b1d565b9050919050565b60006020820190508181036000830152612f9e81612b5d565b9050919050565b6000602082019050612fba6000830184612b9d565b92915050565b6000819050602082019050919050565b600081519050919050565b600081519050919050565b600081519050919050565b6000602082019050919050565b600082825260208201905092915050565b600081905092915050565b600082825260208201905092915050565b600081905092915050565b60006130418261305e565b9050919050565b60008115159050919050565b6000819050919050565b600073ffffffffffffffffffffffffffffffffffffffff82169050919050565b6000819050919050565b60006130938261309a565b9050919050565b60006130a58261305e565b9050919050565b60006130b7826130be565b9050919050565b60006130c98261305e565b9050919050565b60005b838110156130ee5780820151818401526020810190506130d3565b838111156130fd576000848401525b50505050565b6000819050919050565b6000601f19601f8301169050919050565b61312781613036565b811461313257600080fd5b50565b61313e81613048565b811461314957600080fd5b50565b6131558161307e565b811461316057600080fd5b5056fea365627a7a7231582068bfb2bb54f473ce7755252b43c86361ffdc2eeb23e7e4c81f693b1f816bb4eb6c6578706572696d656e74616cf564736f6c63430005100040",
  "linkReferences": {},
  "deployedLinkReferences": {}
}