{
  "_format": "hh-sol-artifact-1",
  "contractName": "BaseDebtCache",
  "sourceName": "contracts/BaseDebtCache.sol",
  "abi": [
    {
      "inputs": [
        {
          "internalType": "address",
          "name": "_owner",
          "type": "address"
        },
        {
          "internalType": "address",
          "name": "_resolver",
          "type": "address"
        }
      ],
      "payable": false,
      "stateMutability": "nonpayable",
      "type": "constructor"
    },
    {
      "anonymous": false,
      "inputs": [
        {
          "indexed": false,
          "internalType": "bytes32",
          "name": "name",
          "type": "bytes32"
        },
        {
          "indexed": false,
          "internalType": "address",
          "name": "destination",
          "type": "address"
        }
      ],
      "name": "CacheUpdated",
      "type": "event"
    },
    {
      "anonymous": false,
      "inputs": [
        {
          "indexed": false,
          "internalType": "address",
          "name": "oldOwner",
          "type": "address"
        },
        {
          "indexed": false,
          "internalType": "address",
          "name": "newOwner",
          "type": "address"
        }
      ],
      "name": "OwnerChanged",
      "type": "event"
    },
    {
      "anonymous": false,
      "inputs": [
        {
          "indexed": false,
          "internalType": "address",
          "name": "newOwner",
          "type": "address"
        }
      ],
      "name": "OwnerNominated",
      "type": "event"
    },
    {
      "constant": false,
      "inputs": [],
      "name": "acceptOwnership",
      "outputs": [],
      "payable": false,
      "stateMutability": "nonpayable",
      "type": "function"
    },
    {
      "constant": true,
      "inputs": [],
      "name": "cacheInfo",
      "outputs": [
        {
          "internalType": "uint256",
          "name": "debt",
          "type": "uint256"
        },
        {
          "internalType": "uint256",
          "name": "timestamp",
          "type": "uint256"
        },
        {
          "internalType": "bool",
          "name": "isInvalid",
          "type": "bool"
        },
        {
          "internalType": "bool",
          "name": "isStale",
          "type": "bool"
        }
      ],
      "payable": false,
      "stateMutability": "view",
      "type": "function"
    },
    {
      "constant": true,
      "inputs": [],
      "name": "cacheInvalid",
      "outputs": [
        {
          "internalType": "bool",
          "name": "",
          "type": "bool"
        }
      ],
      "payable": false,
      "stateMutability": "view",
      "type": "function"
    },
    {
      "constant": true,
      "inputs": [],
      "name": "cacheStale",
      "outputs": [
        {
          "internalType": "bool",
          "name": "",
          "type": "bool"
        }
      ],
      "payable": false,
      "stateMutability": "view",
      "type": "function"
    },
    {
      "constant": true,
      "inputs": [],
      "name": "cacheTimestamp",
      "outputs": [
        {
          "internalType": "uint256",
          "name": "",
          "type": "uint256"
        }
      ],
      "payable": false,
      "stateMutability": "view",
      "type": "function"
    },
    {
      "constant": true,
      "inputs": [],
      "name": "cachedDebt",
      "outputs": [
        {
          "internalType": "uint256",
          "name": "",
          "type": "uint256"
        }
      ],
      "payable": false,
      "stateMutability": "view",
      "type": "function"
    },
    {
      "constant": true,
      "inputs": [
        {
          "internalType": "bytes32",
          "name": "currencyKey",
          "type": "bytes32"
        }
      ],
      "name": "cachedSynthDebt",
      "outputs": [
        {
          "internalType": "uint256",
          "name": "",
          "type": "uint256"
        }
      ],
      "payable": false,
      "stateMutability": "view",
      "type": "function"
    },
    {
      "constant": true,
      "inputs": [
        {
          "internalType": "bytes32[]",
          "name": "currencyKeys",
          "type": "bytes32[]"
        }
      ],
      "name": "cachedSynthDebts",
      "outputs": [
        {
          "internalType": "uint256[]",
          "name": "snxIssuedDebts",
          "type": "uint256[]"
        }
      ],
      "payable": false,
      "stateMutability": "view",
      "type": "function"
    },
    {
      "constant": true,
      "inputs": [],
      "name": "currentDebt",
      "outputs": [
        {
          "internalType": "uint256",
          "name": "debt",
          "type": "uint256"
        },
        {
          "internalType": "bool",
          "name": "anyRateIsInvalid",
          "type": "bool"
        }
      ],
      "payable": false,
      "stateMutability": "view",
      "type": "function"
    },
    {
      "constant": true,
      "inputs": [
        {
          "internalType": "bytes32[]",
          "name": "currencyKeys",
          "type": "bytes32[]"
        }
      ],
      "name": "currentSynthDebts",
      "outputs": [
        {
          "internalType": "uint256[]",
          "name": "debtValues",
          "type": "uint256[]"
        },
        {
          "internalType": "bool",
          "name": "anyRateIsInvalid",
          "type": "bool"
        }
      ],
      "payable": false,
      "stateMutability": "view",
      "type": "function"
    },
    {
      "constant": true,
      "inputs": [],
      "name": "debtSnapshotStaleTime",
      "outputs": [
        {
          "internalType": "uint256",
          "name": "",
          "type": "uint256"
        }
      ],
      "payable": false,
      "stateMutability": "view",
      "type": "function"
    },
    {
      "constant": true,
      "inputs": [],
      "name": "isResolverCached",
      "outputs": [
        {
          "internalType": "bool",
          "name": "",
          "type": "bool"
        }
      ],
      "payable": false,
      "stateMutability": "view",
      "type": "function"
    },
    {
      "constant": false,
      "inputs": [
        {
          "internalType": "address",
          "name": "_owner",
          "type": "address"
        }
      ],
      "name": "nominateNewOwner",
      "outputs": [],
      "payable": false,
      "stateMutability": "nonpayable",
      "type": "function"
    },
    {
      "constant": true,
      "inputs": [],
      "name": "nominatedOwner",
      "outputs": [
        {
          "internalType": "address",
          "name": "",
          "type": "address"
        }
      ],
      "payable": false,
      "stateMutability": "view",
      "type": "function"
    },
    {
      "constant": true,
      "inputs": [],
      "name": "owner",
      "outputs": [
        {
          "internalType": "address",
          "name": "",
          "type": "address"
        }
      ],
      "payable": false,
      "stateMutability": "view",
      "type": "function"
    },
    {
      "constant": false,
      "inputs": [
        {
          "internalType": "bytes32",
          "name": "currencyKey",
          "type": "bytes32"
        }
      ],
      "name": "purgeCachedSynthDebt",
      "outputs": [],
      "payable": false,
      "stateMutability": "nonpayable",
      "type": "function"
    },
    {
      "constant": false,
      "inputs": [],
      "name": "rebuildCache",
      "outputs": [],
      "payable": false,
      "stateMutability": "nonpayable",
      "type": "function"
    },
    {
      "constant": true,
      "inputs": [],
      "name": "resolver",
      "outputs": [
        {
          "internalType": "contract AddressResolver",
          "name": "",
          "type": "address"
        }
      ],
      "payable": false,
      "stateMutability": "view",
      "type": "function"
    },
    {
      "constant": true,
      "inputs": [],
      "name": "resolverAddressesRequired",
      "outputs": [
        {
          "internalType": "bytes32[]",
          "name": "addresses",
          "type": "bytes32[]"
        }
      ],
      "payable": false,
      "stateMutability": "view",
      "type": "function"
    },
    {
      "constant": false,
      "inputs": [],
      "name": "takeDebtSnapshot",
      "outputs": [],
      "payable": false,
      "stateMutability": "nonpayable",
      "type": "function"
    },
    {
      "constant": false,
      "inputs": [
        {
          "internalType": "bytes32",
          "name": "currencyKey",
          "type": "bytes32"
        },
        {
          "internalType": "uint256",
          "name": "currencyRate",
          "type": "uint256"
        }
      ],
      "name": "updateCachedSynthDebtWithRate",
      "outputs": [],
      "payable": false,
      "stateMutability": "nonpayable",
      "type": "function"
    },
    {
      "constant": false,
      "inputs": [
        {
          "internalType": "bytes32[]",
          "name": "currencyKeys",
          "type": "bytes32[]"
        }
      ],
      "name": "updateCachedSynthDebts",
      "outputs": [],
      "payable": false,
      "stateMutability": "nonpayable",
      "type": "function"
    },
    {
      "constant": false,
      "inputs": [
        {
          "internalType": "bytes32[]",
          "name": "currencyKeys",
          "type": "bytes32[]"
        },
        {
          "internalType": "uint256[]",
          "name": "currencyRates",
          "type": "uint256[]"
        }
      ],
      "name": "updateCachedSynthDebtsWithRates",
      "outputs": [],
      "payable": false,
      "stateMutability": "nonpayable",
      "type": "function"
    },
    {
      "constant": false,
      "inputs": [
        {
          "internalType": "bool",
          "name": "currentlyInvalid",
          "type": "bool"
        }
      ],
      "name": "updateDebtCacheValidity",
      "outputs": [],
      "payable": false,
      "stateMutability": "nonpayable",
      "type": "function"
    }
  ],
  "bytecode": "0x60806040526001600760006101000a81548160ff02191690831515021790555034801561002b57600080fd5b5060405161279e38038061279e8339818101604052604081101561004e57600080fd5b810190808051906020019092919080519060200190929190505050808083600073ffffffffffffffffffffffffffffffffffffffff168173ffffffffffffffffffffffffffffffffffffffff16141561010f576040517f08c379a00000000000000000000000000000000000000000000000000000000081526004018080602001828103825260198152602001807f4f776e657220616464726573732063616e6e6f7420626520300000000000000081525060200191505060405180910390fd5b806000806101000a81548173ffffffffffffffffffffffffffffffffffffffff021916908373ffffffffffffffffffffffffffffffffffffffff1602179055507fb532073b38c83145e3e5135377a08bf9aab55bc0fd7c1179cd4fb995d2a5159c600082604051808373ffffffffffffffffffffffffffffffffffffffff1673ffffffffffffffffffffffffffffffffffffffff1681526020018273ffffffffffffffffffffffffffffffffffffffff1673ffffffffffffffffffffffffffffffffffffffff1681526020019250505060405180910390a15080600260006101000a81548173ffffffffffffffffffffffffffffffffffffffff021916908373ffffffffffffffffffffffffffffffffffffffff160217905550505050506125628061023c6000396000f3fe608060405234801561001057600080fd5b50600436106101585760003560e01c806379ba5097116100c3578063b13cd7851161007c578063b13cd7851461061d578063cda218c7146106eb578063d0fffafd14610764578063d685743a14610782578063e3476cd4146107ba578063fc524773146107c457610158565b806379ba5097146104fc578063899ffef4146105065780638da5cb5b146105655780638dd5bfbc146105af578063a5f27edb146105dd578063af5355d8146105ff57610158565b80632af64bd3116101155780632af64bd3146103495780633a900a2e1461036b57806353a47bb7146103a65780636bf7c435146103f057806374185360146104c9578063759076e5146104d357610158565b806304bd11e51461015d57806304f3bcec1461018d57806305393262146101d75780630fb38465146101f55780631627540c1461023757806317b38db41461027b575b600080fd5b61018b6004803603602081101561017357600080fd5b810190808035151590602001909291905050506107e6565b005b6101956107e9565b604051808273ffffffffffffffffffffffffffffffffffffffff1673ffffffffffffffffffffffffffffffffffffffff16815260200191505060405180910390f35b6101df61080f565b6040518082815260200191505060405180910390f35b6102216004803603602081101561020b57600080fd5b8101908080359060200190929190505050610819565b6040518082815260200191505060405180910390f35b6102796004803603602081101561024d57600080fd5b81019080803573ffffffffffffffffffffffffffffffffffffffff169060200190929190505050610836565b005b6103476004803603604081101561029157600080fd5b81019080803590602001906401000000008111156102ae57600080fd5b8201836020820111156102c057600080fd5b803590602001918460208302840111640100000000831117156102e257600080fd5b90919293919293908035906020019064010000000081111561030357600080fd5b82018360208201111561031557600080fd5b8035906020019184602083028401116401000000008311171561033757600080fd5b90919293919293905050506108e5565b005b6103516108eb565b604051808215151515815260200191505060405180910390f35b610373610ac3565b60405180858152602001848152602001831515151581526020018215151515815260200194505050505060405180910390f35b6103ae610afc565b604051808273ffffffffffffffffffffffffffffffffffffffff1673ffffffffffffffffffffffffffffffffffffffff16815260200191505060405180910390f35b6104676004803603602081101561040657600080fd5b810190808035906020019064010000000081111561042357600080fd5b82018360208201111561043557600080fd5b8035906020019184602083028401116401000000008311171561045757600080fd5b9091929391929390505050610b22565b604051808060200183151515158152602001828103825284818151815260200191508051906020019060200280838360005b838110156104b4578082015181840152602081019050610499565b50505050905001935050505060405180910390f35b6104d1610b7b565b005b6104db610de4565b60405180838152602001821515151581526020019250505060405180910390f35b610504610df7565b005b61050e61101d565b6040518080602001828103825283818151815260200191508051906020019060200280838360005b83811015610551578082015181840152602081019050610536565b505050509050019250505060405180910390f35b61056d611206565b604051808273ffffffffffffffffffffffffffffffffffffffff1673ffffffffffffffffffffffffffffffffffffffff16815260200191505060405180910390f35b6105db600480360360208110156105c557600080fd5b810190808035906020019092919050505061122b565b005b6105e561122e565b604051808215151515815260200191505060405180910390f35b610607611245565b6040518082815260200191505060405180910390f35b6106946004803603602081101561063357600080fd5b810190808035906020019064010000000081111561065057600080fd5b82018360208201111561066257600080fd5b8035906020019184602083028401116401000000008311171561068457600080fd5b9091929391929390505050611254565b6040518080602001828103825283818151815260200191508051906020019060200280838360005b838110156106d75780820151818401526020810190506106bc565b505050509050019250505060405180910390f35b6107626004803603602081101561070157600080fd5b810190808035906020019064010000000081111561071e57600080fd5b82018360208201111561073057600080fd5b8035906020019184602083028401116401000000008311171561075257600080fd5b90919293919293905050506112a8565b005b61076c6112ac565b6040518082815260200191505060405180910390f35b6107b86004803603604081101561079857600080fd5b8101908080359060200190929190803590602001909291905050506112b6565b005b6107c26112ba565b005b6107cc6112bc565b604051808215151515815260200191505060405180910390f35b50565b600260009054906101000a900473ffffffffffffffffffffffffffffffffffffffff1681565b6000600454905090565b600060056000838152602001908152602001600020549050919050565b61083e6112ce565b80600160006101000a81548173ffffffffffffffffffffffffffffffffffffffff021916908373ffffffffffffffffffffffffffffffffffffffff1602179055507f906a1c6bd7e3091ea86693dd029a831c19049ce77f1dce2ce0bab1cacbabce2281604051808273ffffffffffffffffffffffffffffffffffffffff1673ffffffffffffffffffffffffffffffffffffffff16815260200191505060405180910390a150565b50505050565b600060606108f761101d565b905060008090505b8151811015610ab957600082828151811061091657fe5b602002602001015190506003600082815260200190815260200160002060009054906101000a900473ffffffffffffffffffffffffffffffffffffffff1673ffffffffffffffffffffffffffffffffffffffff16600260009054906101000a900473ffffffffffffffffffffffffffffffffffffffff1673ffffffffffffffffffffffffffffffffffffffff166321f8a721836040518263ffffffff1660e01b81526004018082815260200191505060206040518083038186803b1580156109dd57600080fd5b505afa1580156109f1573d6000803e3d6000fd5b505050506040513d6020811015610a0757600080fd5b810190808051906020019092919050505073ffffffffffffffffffffffffffffffffffffffff16141580610a9a5750600073ffffffffffffffffffffffffffffffffffffffff166003600083815260200190815260200160002060009054906101000a900473ffffffffffffffffffffffffffffffffffffffff1673ffffffffffffffffffffffffffffffffffffffff16145b15610aab5760009350505050610ac0565b5080806001019150506108ff565b5060019150505b90565b6000806000806000600654905060045481600760009054906101000a900460ff16610aed84611375565b94509450945094505090919293565b600160009054906101000a900473ffffffffffffffffffffffffffffffffffffffff1681565b60606000610b70848480806020026020016040519081016040528093929190818152602001838360200280828437600081840152601f19601f82011690508083019250505050505050611395565b915091509250929050565b6060610b8561101d565b905060008090505b8151811015610de0576000828281518110610ba457fe5b602002602001015190506000600260009054906101000a900473ffffffffffffffffffffffffffffffffffffffff1673ffffffffffffffffffffffffffffffffffffffff1663dacb2d01838460405160200180807f5265736f6c766572206d697373696e67207461726765743a20000000000000008152506019018281526020019150506040516020818303038152906040526040518363ffffffff1660e01b81526004018083815260200180602001828103825283818151815260200191508051906020019080838360005b83811015610c8c578082015181840152602081019050610c71565b50505050905090810190601f168015610cb95780820380516001836020036101000a031916815260200191505b50935050505060206040518083038186803b158015610cd757600080fd5b505afa158015610ceb573d6000803e3d6000fd5b505050506040513d6020811015610d0157600080fd5b81019080805190602001909291905050509050806003600084815260200190815260200160002060006101000a81548173ffffffffffffffffffffffffffffffffffffffff021916908373ffffffffffffffffffffffffffffffffffffffff1602179055507f88a93678a3692f6789d9546fc621bf7234b101ddb7d4fe479455112831b8aa688282604051808381526020018273ffffffffffffffffffffffffffffffffffffffff1673ffffffffffffffffffffffffffffffffffffffff1681526020019250505060405180910390a150508080600101915050610b8d565b5050565b600080610def611532565b915091509091565b600160009054906101000a900473ffffffffffffffffffffffffffffffffffffffff1673ffffffffffffffffffffffffffffffffffffffff163373ffffffffffffffffffffffffffffffffffffffff1614610e9d576040517f08c379a00000000000000000000000000000000000000000000000000000000081526004018080602001828103825260358152602001806124a96035913960400191505060405180910390fd5b7fb532073b38c83145e3e5135377a08bf9aab55bc0fd7c1179cd4fb995d2a5159c6000809054906101000a900473ffffffffffffffffffffffffffffffffffffffff16600160009054906101000a900473ffffffffffffffffffffffffffffffffffffffff16604051808373ffffffffffffffffffffffffffffffffffffffff1673ffffffffffffffffffffffffffffffffffffffff1681526020018273ffffffffffffffffffffffffffffffffffffffff1673ffffffffffffffffffffffffffffffffffffffff1681526020019250505060405180910390a1600160009054906101000a900473ffffffffffffffffffffffffffffffffffffffff166000806101000a81548173ffffffffffffffffffffffffffffffffffffffff021916908373ffffffffffffffffffffffffffffffffffffffff1602179055506000600160006101000a81548173ffffffffffffffffffffffffffffffffffffffff021916908373ffffffffffffffffffffffffffffffffffffffff160217905550565b606080611028611777565b90506060600760405190808252806020026020018201604052801561105c5781602001602082028038833980820191505090505b5090507f49737375657200000000000000000000000000000000000000000000000000008160008151811061108d57fe5b6020026020010181815250507f45786368616e6765720000000000000000000000000000000000000000000000816001815181106110c757fe5b6020026020010181815250507f45786368616e67655261746573000000000000000000000000000000000000008160028151811061110157fe5b6020026020010181815250507f53797374656d53746174757300000000000000000000000000000000000000008160038151811061113b57fe5b6020026020010181815250507f4574686572436f6c6c61746572616c00000000000000000000000000000000008160048151811061117557fe5b6020026020010181815250507f4574686572436f6c6c61746572616c7355534400000000000000000000000000816005815181106111af57fe5b6020026020010181815250507f436f6c6c61746572616c4d616e61676572000000000000000000000000000000816006815181106111e957fe5b6020026020010181815250506111ff82826117e9565b9250505090565b6000809054906101000a900473ffffffffffffffffffffffffffffffffffffffff1681565b50565b6000600760009054906101000a900460ff16905090565b600061124f6118bc565b905090565b60606112a0838380806020026020016040519081016040528093929190818152602001838360200280828437600081840152601f19601f8201169050808301925050505050505061199e565b905092915050565b5050565b6000600654905090565b5050565b565b60006112c9600654611375565b905090565b6000809054906101000a900473ffffffffffffffffffffffffffffffffffffffff1673ffffffffffffffffffffffffffffffffffffffff163373ffffffffffffffffffffffffffffffffffffffff1614611373576040517f08c379a000000000000000000000000000000000000000000000000000000000815260040180806020018281038252602f8152602001806124de602f913960400191505060405180910390fd5b565b60008142036113826118bc565b108061138e5750600082145b9050919050565b60606000606060006113a5611a3f565b73ffffffffffffffffffffffffffffffffffffffff1663c8e5bbd5866040518263ffffffff1660e01b81526004018080602001828103825283818151815260200191508051906020019060200280838360005b838110156114135780820151818401526020810190506113f8565b505050509050019250505060006040518083038186803b15801561143657600080fd5b505afa15801561144a573d6000803e3d6000fd5b505050506040513d6000823e3d601f19601f82011682018060405250604081101561147457600080fd5b810190808051604051939291908464010000000082111561149457600080fd5b838201915060208201858111156114aa57600080fd5b82518660208202830111640100000000821117156114c757600080fd5b8083526020830192505050908051906020019060200280838360005b838110156114fe5780820151818401526020810190506114e3565b5050505090500160405260200180519060200190929190505050915091506115268583611a6f565b81935093505050915091565b6000806060600061166361154461204a565b73ffffffffffffffffffffffffffffffffffffffff166372cb051f6040518163ffffffff1660e01b815260040160006040518083038186803b15801561158957600080fd5b505afa15801561159d573d6000803e3d6000fd5b505050506040513d6000823e3d601f19601f8201168201806040525060208110156115c757600080fd5b81019080805160405193929190846401000000008211156115e757600080fd5b838201915060208201858111156115fd57600080fd5b825186602082028301116401000000008211171561161a57600080fd5b8083526020830192505050908051906020019060200280838360005b83811015611651578082015181840152602081019050611636565b50505050905001604052505050611395565b915091506000825190506000805b828110156116ae5761169f85828151811061168857fe5b60200260200101518361207a90919063ffffffff16565b91508080600101915050611671565b506000806116ba612102565b73ffffffffffffffffffffffffffffffffffffffff1663ad79a8586040518163ffffffff1660e01b8152600401604080518083038186803b1580156116fe57600080fd5b505afa158015611712573d6000803e3d6000fd5b505050506040513d604081101561172857600080fd5b8101908080519060200190929190805190602001909291905050509150915061175a828461213290919063ffffffff16565b925084806117655750805b94508285975097505050505050509091565b606060016040519080825280602002602001820160405280156117a95781602001602082028038833980820191505090505b5090507f466c657869626c6553746f726167650000000000000000000000000000000000816000815181106117da57fe5b60200260200101818152505090565b6060815183510160405190808252806020026020018201604052801561181e5781602001602082028038833980820191505090505b50905060008090505b83518110156118695783818151811061183c57fe5b602002602001015182828151811061185057fe5b6020026020010181815250508080600101915050611827565b5060008090505b82518110156118b55782818151811061188557fe5b602002602001015182828651018151811061189c57fe5b6020026020010181815250508080600101915050611870565b5092915050565b60006118c66121bb565b73ffffffffffffffffffffffffffffffffffffffff166323257c2b7f53797374656d53657474696e67730000000000000000000000000000000000007f64656274536e617073686f745374616c6554696d6500000000000000000000006040518363ffffffff1660e01b8152600401808381526020018281526020019250505060206040518083038186803b15801561195e57600080fd5b505afa158015611972573d6000803e3d6000fd5b505050506040513d602081101561198857600080fd5b8101908080519060200190929190505050905090565b60606000825190506060816040519080825280602002602001820160405280156119d75781602001602082028038833980820191505090505b50905060008090505b82811015611a3457600560008683815181106119f857fe5b6020026020010151815260200190815260200160002054828281518110611a1b57fe5b60200260200101818152505080806001019150506119e0565b508092505050919050565b6000611a6a7f45786368616e67655261746573000000000000000000000000000000000000006121eb565b905090565b6060600083519050606081604051908082528060200260200182016040528015611aa85781602001602082028038833980820191505090505b5090506060611ab561204a565b73ffffffffffffffffffffffffffffffffffffffff16633b6afe40876040518263ffffffff1660e01b81526004018080602001828103825283818151815260200191508051906020019060200280838360005b83811015611b23578082015181840152602081019050611b08565b505050509050019250505060006040518083038186803b158015611b4657600080fd5b505afa158015611b5a573d6000803e3d6000fd5b505050506040513d6000823e3d601f19601f820116820180604052506020811015611b8457600080fd5b8101908080516040519392919084640100000000821115611ba457600080fd5b83820191506020820185811115611bba57600080fd5b8251866020820283011164010000000082111715611bd757600080fd5b8083526020830192505050908051906020019060200280838360005b83811015611c0e578082015181840152602081019050611bf3565b50505050905001604052505050905060008090505b8381101561203d576000878281518110611c3957fe5b602002602001015190506000838381518110611c5157fe5b60200260200101519050600073ffffffffffffffffffffffffffffffffffffffff168173ffffffffffffffffffffffffffffffffffffffff161415611cfe576040517f08c379a00000000000000000000000000000000000000000000000000000000081526004018080602001828103825260148152602001807f53796e746820646f6573206e6f7420657869737400000000000000000000000081525060200191505060405180910390fd5b60008173ffffffffffffffffffffffffffffffffffffffff166318160ddd6040518163ffffffff1660e01b815260040160206040518083038186803b158015611d4657600080fd5b505afa158015611d5a573d6000803e3d6000fd5b505050506040513d6020811015611d7057600080fd5b81019080805190602001909291905050509050611d8b612102565b73ffffffffffffffffffffffffffffffffffffffff16638471db13846040518263ffffffff1660e01b81526004018082815260200191505060206040518083038186803b158015611ddb57600080fd5b505afa158015611def573d6000803e3d6000fd5b505050506040513d6020811015611e0557600080fd5b810190808051906020019092919050505015611edb576000611e25612102565b73ffffffffffffffffffffffffffffffffffffffff1663d2f00475856040518263ffffffff1660e01b81526004018082815260200191505060206040518083038186803b158015611e7557600080fd5b505afa158015611e89573d6000803e3d6000fd5b505050506040513d6020811015611e9f57600080fd5b8101908080519060200190929190505050905081811115611ec35760009150611ed9565b611ed6818361213290919063ffffffff16565b91505b505b60007f7355534400000000000000000000000000000000000000000000000000000000841490508080611f2d57507f734554480000000000000000000000000000000000000000000000000000000084145b15611fee57600081611f4657611f4161234d565b611f4f565b611f4e61237d565b5b905060008173ffffffffffffffffffffffffffffffffffffffff1663ee5f3f5c6040518163ffffffff1660e01b815260040160206040518083038186803b158015611f9957600080fd5b505afa158015611fad573d6000803e3d6000fd5b505050506040513d6020811015611fc357600080fd5b81019080805190602001909291905050509050611fe9818561213290919063ffffffff16565b935050505b6120148a8681518110611ffd57fe5b6020026020010151836123ad90919063ffffffff16565b87868151811061202057fe5b602002602001018181525050505050508080600101915050611c23565b5081935050505092915050565b60006120757f49737375657200000000000000000000000000000000000000000000000000006121eb565b905090565b6000808284019050838110156120f8576040517f08c379a000000000000000000000000000000000000000000000000000000000815260040180806020018281038252601b8152602001807f536166654d6174683a206164646974696f6e206f766572666c6f77000000000081525060200191505060405180910390fd5b8091505092915050565b600061212d7f436f6c6c61746572616c4d616e616765720000000000000000000000000000006121eb565b905090565b6000828211156121aa576040517f08c379a000000000000000000000000000000000000000000000000000000000815260040180806020018281038252601e8152602001807f536166654d6174683a207375627472616374696f6e206f766572666c6f77000081525060200191505060405180910390fd5b600082840390508091505092915050565b60006121e67f466c657869626c6553746f7261676500000000000000000000000000000000006121eb565b905090565b6000806003600084815260200190815260200160002060009054906101000a900473ffffffffffffffffffffffffffffffffffffffff169050600073ffffffffffffffffffffffffffffffffffffffff168173ffffffffffffffffffffffffffffffffffffffff1614158360405160200180807f4d697373696e6720616464726573733a2000000000000000000000000000000081525060110182815260200191505060405160208183030381529060405290612343576040517f08c379a00000000000000000000000000000000000000000000000000000000081526004018080602001828103825283818151815260200191508051906020019080838360005b838110156123085780820151818401526020810190506122ed565b50505050905090810190601f1680156123355780820380516001836020036101000a031916815260200191505b509250505060405180910390fd5b5080915050919050565b60006123787f4574686572436f6c6c61746572616c00000000000000000000000000000000006121eb565b905090565b60006123a87f4574686572436f6c6c61746572616c73555344000000000000000000000000006121eb565b905090565b60006123c18383601260ff16600a0a6123c9565b905092915050565b600080600a83816123d657fe5b046123ea858761242290919063ffffffff16565b816123f157fe5b0490506005600a828161240057fe5b061061240d57600a810190505b600a818161241757fe5b049150509392505050565b60008083141561243557600090506124a2565b600082840290508284828161244657fe5b041461249d576040517f08c379a000000000000000000000000000000000000000000000000000000000815260040180806020018281038252602181526020018061250d6021913960400191505060405180910390fd5b809150505b9291505056fe596f75206d757374206265206e6f6d696e61746564206265666f726520796f752063616e20616363657074206f776e6572736869704f6e6c792074686520636f6e7472616374206f776e6572206d617920706572666f726d207468697320616374696f6e536166654d6174683a206d756c7469706c69636174696f6e206f766572666c6f77a265627a7a72315820217192763213deaa50657a9fb6c4a729c55d8f23f0b0b510f0089407a7352ce864736f6c63430005100032",
  "linkReferences": {},
  "deployedLinkReferences": {}
}