{
  "_format": "hh-sol-artifact-1",
  "contractName": "PublicSafeDecimalMath",
  "sourceName": "contracts/test-helpers/PublicSafeDecimalMath.sol",
  "abi": [
    {
      "constant": true,
      "inputs": [
        {
          "internalType": "uint256",
          "name": "i",
          "type": "uint256"
        }
      ],
      "name": "decimalToPreciseDecimal",
      "outputs": [
        {
          "internalType": "uint256",
          "name": "",
          "type": "uint256"
        }
      ],
      "payable": false,
      "stateMutability": "pure",
      "type": "function"
    },
    {
      "constant": true,
      "inputs": [
        {
          "internalType": "uint256",
          "name": "x",
          "type": "uint256"
        },
        {
          "internalType": "uint256",
          "name": "y",
          "type": "uint256"
        }
      ],
      "name": "divideDecimal",
      "outputs": [
        {
          "internalType": "uint256",
          "name": "",
          "type": "uint256"
        }
      ],
      "payable": false,
      "stateMutability": "pure",
      "type": "function"
    },
    {
      "constant": true,
      "inputs": [
        {
          "internalType": "uint256",
          "name": "x",
          "type": "uint256"
        },
        {
          "internalType": "uint256",
          "name": "y",
          "type": "uint256"
        }
      ],
      "name": "divideDecimalRound",
      "outputs": [
        {
          "internalType": "uint256",
          "name": "",
          "type": "uint256"
        }
      ],
      "payable": false,
      "stateMutability": "pure",
      "type": "function"
    },
    {
      "constant": true,
      "inputs": [
        {
          "internalType": "uint256",
          "name": "x",
          "type": "uint256"
        },
        {
          "internalType": "uint256",
          "name": "y",
          "type": "uint256"
        }
      ],
      "name": "divideDecimalRoundPrecise",
      "outputs": [
        {
          "internalType": "uint256",
          "name": "",
          "type": "uint256"
        }
      ],
      "payable": false,
      "stateMutability": "pure",
      "type": "function"
    },
    {
      "constant": true,
      "inputs": [
        {
          "internalType": "uint256",
          "name": "x",
          "type": "uint256"
        },
        {
          "internalType": "uint256",
          "name": "y",
          "type": "uint256"
        }
      ],
      "name": "multiplyDecimal",
      "outputs": [
        {
          "internalType": "uint256",
          "name": "",
          "type": "uint256"
        }
      ],
      "payable": false,
      "stateMutability": "pure",
      "type": "function"
    },
    {
      "constant": true,
      "inputs": [
        {
          "internalType": "uint256",
          "name": "x",
          "type": "uint256"
        },
        {
          "internalType": "uint256",
          "name": "y",
          "type": "uint256"
        }
      ],
      "name": "multiplyDecimalRound",
      "outputs": [
        {
          "internalType": "uint256",
          "name": "",
          "type": "uint256"
        }
      ],
      "payable": false,
      "stateMutability": "pure",
      "type": "function"
    },
    {
      "constant": true,
      "inputs": [
        {
          "internalType": "uint256",
          "name": "x",
          "type": "uint256"
        },
        {
          "internalType": "uint256",
          "name": "y",
          "type": "uint256"
        }
      ],
      "name": "multiplyDecimalRoundPrecise",
      "outputs": [
        {
          "internalType": "uint256",
          "name": "",
          "type": "uint256"
        }
      ],
      "payable": false,
      "stateMutability": "pure",
      "type": "function"
    },
    {
      "constant": true,
      "inputs": [
        {
          "internalType": "uint256",
          "name": "i",
          "type": "uint256"
        }
      ],
      "name": "preciseDecimalToDecimal",
      "outputs": [
        {
          "internalType": "uint256",
          "name": "",
          "type": "uint256"
        }
      ],
      "payable": false,
      "stateMutability": "pure",
      "type": "function"
    },
    {
      "constant": true,
      "inputs": [],
      "name": "preciseUnit",
      "outputs": [
        {
          "internalType": "uint256",
          "name": "",
          "type": "uint256"
        }
      ],
      "payable": false,
      "stateMutability": "pure",
      "type": "function"
    },
    {
      "constant": true,
      "inputs": [],
      "name": "unit",
      "outputs": [
        {
          "internalType": "uint256",
          "name": "",
          "type": "uint256"
        }
      ],
      "payable": false,
      "stateMutability": "pure",
      "type": "function"
    }
  ],
  "bytecode": "0x608060405234801561001057600080fd5b50610870806100206000396000f3fe608060405234801561001057600080fd5b506004361061009e5760003560e01c8063bd79a42a11610066578063bd79a42a146101e7578063d1abdab814610229578063d5e5e6e614610275578063e4187d0214610293578063f63a5d22146102df5761009e565b80630fa53db8146100a35780631c933e2f146100ef578063338824791461013b57806353cb26c614610187578063907af6c0146101c9575b600080fd5b6100d9600480360360408110156100b957600080fd5b81019080803590602001909291908035906020019092919050505061032b565b6040518082815260200191505060405180910390f35b6101256004803603604081101561010557600080fd5b810190808035906020019092919080359060200190929190505050610348565b6040518082815260200191505060405180910390f35b6101716004803603604081101561015157600080fd5b810190808035906020019092919080359060200190929190505050610365565b6040518082815260200191505060405180910390f35b6101b36004803603602081101561019d57600080fd5b8101908080359060200190929190505050610382565b6040518082815260200191505060405180910390f35b6101d1610394565b6040518082815260200191505060405180910390f35b610213600480360360208110156101fd57600080fd5b810190808035906020019092919050505061041a565b6040518082815260200191505060405180910390f35b61025f6004803603604081101561023f57600080fd5b81019080803590602001909291908035906020019092919050505061042c565b6040518082815260200191505060405180910390f35b61027d610449565b6040518082815260200191505060405180910390f35b6102c9600480360360408110156102a957600080fd5b8101908080359060200190929190803590602001909291905050506104cf565b6040518082815260200191505060405180910390f35b610315600480360360408110156102f557600080fd5b8101908080359060200190929190803590602001909291905050506104ec565b6040518082815260200191505060405180910390f35b6000610340828461050990919063ffffffff16565b905092915050565b600061035d828461052590919063ffffffff16565b905092915050565b600061037a828461054190919063ffffffff16565b905092915050565b600061038d8261055d565b9050919050565b600073__$b8d33eeb36ac0d1e81cd70156e0043e778$__63907af6c06040518163ffffffff1660e01b815260040160206040518083038186803b1580156103da57600080fd5b505af41580156103ee573d6000803e3d6000fd5b505050506040513d602081101561040457600080fd5b8101908080519060200190929190505050905090565b6000610425826105ac565b9050919050565b600061044182846105d290919063ffffffff16565b905092915050565b600073__$b8d33eeb36ac0d1e81cd70156e0043e778$__63d5e5e6e66040518163ffffffff1660e01b815260040160206040518083038186803b15801561048f57600080fd5b505af41580156104a3573d6000803e3d6000fd5b505050506040513d60208110156104b957600080fd5b8101908080519060200190929190505050905090565b60006104e4828461060890919063ffffffff16565b905092915050565b6000610501828461063590919063ffffffff16565b905092915050565b600061051d8383601260ff16600a0a610651565b905092915050565b60006105398383601b60ff16600a0a6106ac565b905092915050565b60006105558383601260ff16600a0a6106ac565b905092915050565b600080600a6012601b0360ff16600a0a8161057457fe5b04838161057d57fe5b0490506005600a828161058c57fe5b061061059957600a810190505b600a81816105a357fe5b04915050919050565b60006105cb6012601b0360ff16600a0a8361070590919063ffffffff16565b9050919050565b6000610600826105f2601260ff16600a0a8661070590919063ffffffff16565b61078b90919063ffffffff16565b905092915050565b6000601260ff16600a0a610625838561070590919063ffffffff16565b8161062c57fe5b04905092915050565b60006106498383601b60ff16600a0a610651565b905092915050565b60008061067c8461066e600a86028861070590919063ffffffff16565b61078b90919063ffffffff16565b90506005600a828161068a57fe5b061061069757600a810190505b600a81816106a157fe5b049150509392505050565b600080600a83816106b957fe5b046106cd858761070590919063ffffffff16565b816106d457fe5b0490506005600a82816106e357fe5b06106106f057600a810190505b600a81816106fa57fe5b049150509392505050565b6000808314156107185760009050610785565b600082840290508284828161072957fe5b0414610780576040517f08c379a000000000000000000000000000000000000000000000000000000000815260040180806020018281038252602181526020018061081b6021913960400191505060405180910390fd5b809150505b92915050565b6000808211610802576040517f08c379a000000000000000000000000000000000000000000000000000000000815260040180806020018281038252601a8152602001807f536166654d6174683a206469766973696f6e206279207a65726f00000000000081525060200191505060405180910390fd5b600082848161080d57fe5b049050809150509291505056fe536166654d6174683a206d756c7469706c69636174696f6e206f766572666c6f77a265627a7a72315820c2ec73733e9dc8d129cef574e956f1a36235a8e7225bfc59079f6e99098b2a4d64736f6c63430005100032",
  "linkReferences": {
    "contracts/SafeDecimalMath.sol": {
      "SafeDecimalMath": [
        {
          "length": 20,
          "start": 952
        },
        {
          "length": 20,
          "start": 1133
        }
      ]
    }
  },
  "deployedLinkReferences": {
    "contracts/SafeDecimalMath.sol": {
      "SafeDecimalMath": [
        {
          "length": 20,
          "start": 920
        },
        {
          "length": 20,
          "start": 1101
        }
      ]
    }
  }
}