{
  "_format": "hh-sol-artifact-1",
  "contractName": "TestableBinaryOptionMarket",
  "sourceName": "contracts/test-helpers/TestableBinaryOptionMarket.sol",
  "abi": [
    {
      "inputs": [
        {
          "internalType": "address",
          "name": "_owner",
          "type": "address"
        },
        {
          "internalType": "address",
          "name": "_creator",
          "type": "address"
        },
        {
          "internalType": "address",
          "name": "_resolver",
          "type": "address"
        },
        {
          "internalType": "uint256[2]",
          "name": "_creatorLimits",
          "type": "uint256[2]"
        },
        {
          "internalType": "bytes32",
          "name": "_oracleKey",
          "type": "bytes32"
        },
        {
          "internalType": "uint256",
          "name": "_strikePrice",
          "type": "uint256"
        },
        {
          "internalType": "bool",
          "name": "_refundsEnabled",
          "type": "bool"
        },
        {
          "internalType": "uint256[3]",
          "name": "_times",
          "type": "uint256[3]"
        },
        {
          "internalType": "uint256[2]",
          "name": "_bids",
          "type": "uint256[2]"
        },
        {
          "internalType": "uint256[3]",
          "name": "_fees",
          "type": "uint256[3]"
        }
      ],
      "payable": false,
      "stateMutability": "nonpayable",
      "type": "constructor"
    },
    {
      "anonymous": false,
      "inputs": [
        {
          "indexed": false,
          "internalType": "enum IBinaryOptionMarket.Side",
          "name": "side",
          "type": "uint8"
        },
        {
          "indexed": true,
          "internalType": "address",
          "name": "account",
          "type": "address"
        },
        {
          "indexed": false,
          "internalType": "uint256",
          "name": "value",
          "type": "uint256"
        }
      ],
      "name": "Bid",
      "type": "event"
    },
    {
      "anonymous": false,
      "inputs": [
        {
          "indexed": false,
          "internalType": "bytes32",
          "name": "name",
          "type": "bytes32"
        },
        {
          "indexed": false,
          "internalType": "address",
          "name": "destination",
          "type": "address"
        }
      ],
      "name": "CacheUpdated",
      "type": "event"
    },
    {
      "anonymous": false,
      "inputs": [
        {
          "indexed": false,
          "internalType": "enum IBinaryOptionMarket.Side",
          "name": "result",
          "type": "uint8"
        },
        {
          "indexed": false,
          "internalType": "uint256",
          "name": "oraclePrice",
          "type": "uint256"
        },
        {
          "indexed": false,
          "internalType": "uint256",
          "name": "oracleTimestamp",
          "type": "uint256"
        },
        {
          "indexed": false,
          "internalType": "uint256",
          "name": "deposited",
          "type": "uint256"
        },
        {
          "indexed": false,
          "internalType": "uint256",
          "name": "poolFees",
          "type": "uint256"
        },
        {
          "indexed": false,
          "internalType": "uint256",
          "name": "creatorFees",
          "type": "uint256"
        }
      ],
      "name": "MarketResolved",
      "type": "event"
    },
    {
      "anonymous": false,
      "inputs": [
        {
          "indexed": true,
          "internalType": "address",
          "name": "account",
          "type": "address"
        },
        {
          "indexed": false,
          "internalType": "uint256",
          "name": "longOptions",
          "type": "uint256"
        },
        {
          "indexed": false,
          "internalType": "uint256",
          "name": "shortOptions",
          "type": "uint256"
        }
      ],
      "name": "OptionsClaimed",
      "type": "event"
    },
    {
      "anonymous": false,
      "inputs": [
        {
          "indexed": true,
          "internalType": "address",
          "name": "account",
          "type": "address"
        },
        {
          "indexed": false,
          "internalType": "uint256",
          "name": "value",
          "type": "uint256"
        }
      ],
      "name": "OptionsExercised",
      "type": "event"
    },
    {
      "anonymous": false,
      "inputs": [
        {
          "indexed": false,
          "internalType": "address",
          "name": "oldOwner",
          "type": "address"
        },
        {
          "indexed": false,
          "internalType": "address",
          "name": "newOwner",
          "type": "address"
        }
      ],
      "name": "OwnerChanged",
      "type": "event"
    },
    {
      "anonymous": false,
      "inputs": [
        {
          "indexed": false,
          "internalType": "address",
          "name": "newOwner",
          "type": "address"
        }
      ],
      "name": "OwnerNominated",
      "type": "event"
    },
    {
      "anonymous": false,
      "inputs": [
        {
          "indexed": false,
          "internalType": "uint256",
          "name": "longPrice",
          "type": "uint256"
        },
        {
          "indexed": false,
          "internalType": "uint256",
          "name": "shortPrice",
          "type": "uint256"
        }
      ],
      "name": "PricesUpdated",
      "type": "event"
    },
    {
      "anonymous": false,
      "inputs": [
        {
          "indexed": false,
          "internalType": "enum IBinaryOptionMarket.Side",
          "name": "side",
          "type": "uint8"
        },
        {
          "indexed": true,
          "internalType": "address",
          "name": "account",
          "type": "address"
        },
        {
          "indexed": false,
          "internalType": "uint256",
          "name": "value",
          "type": "uint256"
        },
        {
          "indexed": false,
          "internalType": "uint256",
          "name": "fee",
          "type": "uint256"
        }
      ],
      "name": "Refund",
      "type": "event"
    },
    {
      "constant": false,
      "inputs": [],
      "name": "acceptOwnership",
      "outputs": [],
      "payable": false,
      "stateMutability": "nonpayable",
      "type": "function"
    },
    {
      "constant": true,
      "inputs": [
        {
          "internalType": "address",
          "name": "account",
          "type": "address"
        }
      ],
      "name": "balancesOf",
      "outputs": [
        {
          "internalType": "uint256",
          "name": "long",
          "type": "uint256"
        },
        {
          "internalType": "uint256",
          "name": "short",
          "type": "uint256"
        }
      ],
      "payable": false,
      "stateMutability": "view",
      "type": "function"
    },
    {
      "constant": false,
      "inputs": [
        {
          "internalType": "enum IBinaryOptionMarket.Side",
          "name": "side",
          "type": "uint8"
        },
        {
          "internalType": "uint256",
          "name": "value",
          "type": "uint256"
        }
      ],
      "name": "bid",
      "outputs": [],
      "payable": false,
      "stateMutability": "nonpayable",
      "type": "function"
    },
    {
      "constant": true,
      "inputs": [
        {
          "internalType": "enum IBinaryOptionMarket.Side",
          "name": "bidSide",
          "type": "uint8"
        },
        {
          "internalType": "enum IBinaryOptionMarket.Side",
          "name": "priceSide",
          "type": "uint8"
        },
        {
          "internalType": "uint256",
          "name": "price",
          "type": "uint256"
        },
        {
          "internalType": "bool",
          "name": "refund",
          "type": "bool"
        }
      ],
      "name": "bidOrRefundForPrice",
      "outputs": [
        {
          "internalType": "uint256",
          "name": "",
          "type": "uint256"
        }
      ],
      "payable": false,
      "stateMutability": "view",
      "type": "function"
    },
    {
      "constant": true,
      "inputs": [
        {
          "internalType": "address",
          "name": "account",
          "type": "address"
        }
      ],
      "name": "bidsOf",
      "outputs": [
        {
          "internalType": "uint256",
          "name": "long",
          "type": "uint256"
        },
        {
          "internalType": "uint256",
          "name": "short",
          "type": "uint256"
        }
      ],
      "payable": false,
      "stateMutability": "view",
      "type": "function"
    },
    {
      "constant": true,
      "inputs": [],
      "name": "canResolve",
      "outputs": [
        {
          "internalType": "bool",
          "name": "",
          "type": "bool"
        }
      ],
      "payable": false,
      "stateMutability": "view",
      "type": "function"
    },
    {
      "constant": false,
      "inputs": [
        {
          "internalType": "address payable",
          "name": "beneficiary",
          "type": "address"
        }
      ],
      "name": "cancel",
      "outputs": [],
      "payable": false,
      "stateMutability": "nonpayable",
      "type": "function"
    },
    {
      "constant": false,
      "inputs": [],
      "name": "claimOptions",
      "outputs": [
        {
          "internalType": "uint256",
          "name": "longClaimed",
          "type": "uint256"
        },
        {
          "internalType": "uint256",
          "name": "shortClaimed",
          "type": "uint256"
        }
      ],
      "payable": false,
      "stateMutability": "nonpayable",
      "type": "function"
    },
    {
      "constant": true,
      "inputs": [
        {
          "internalType": "address",
          "name": "account",
          "type": "address"
        }
      ],
      "name": "claimableBalancesOf",
      "outputs": [
        {
          "internalType": "uint256",
          "name": "long",
          "type": "uint256"
        },
        {
          "internalType": "uint256",
          "name": "short",
          "type": "uint256"
        }
      ],
      "payable": false,
      "stateMutability": "view",
      "type": "function"
    },
    {
      "constant": true,
      "inputs": [],
      "name": "creator",
      "outputs": [
        {
          "internalType": "address",
          "name": "",
          "type": "address"
        }
      ],
      "payable": false,
      "stateMutability": "view",
      "type": "function"
    },
    {
      "constant": true,
      "inputs": [],
      "name": "creatorLimits",
      "outputs": [
        {
          "internalType": "uint256",
          "name": "capitalRequirement",
          "type": "uint256"
        },
        {
          "internalType": "uint256",
          "name": "skewLimit",
          "type": "uint256"
        }
      ],
      "payable": false,
      "stateMutability": "view",
      "type": "function"
    },
    {
      "constant": true,
      "inputs": [],
      "name": "deposited",
      "outputs": [
        {
          "internalType": "uint256",
          "name": "",
          "type": "uint256"
        }
      ],
      "payable": false,
      "stateMutability": "view",
      "type": "function"
    },
    {
      "constant": true,
      "inputs": [],
      "name": "exercisableDeposits",
      "outputs": [
        {
          "internalType": "uint256",
          "name": "",
          "type": "uint256"
        }
      ],
      "payable": false,
      "stateMutability": "view",
      "type": "function"
    },
    {
      "constant": false,
      "inputs": [],
      "name": "exerciseOptions",
      "outputs": [
        {
          "internalType": "uint256",
          "name": "",
          "type": "uint256"
        }
      ],
      "payable": false,
      "stateMutability": "nonpayable",
      "type": "function"
    },
    {
      "constant": false,
      "inputs": [
        {
          "internalType": "address payable",
          "name": "beneficiary",
          "type": "address"
        }
      ],
      "name": "expire",
      "outputs": [],
      "payable": false,
      "stateMutability": "nonpayable",
      "type": "function"
    },
    {
      "constant": true,
      "inputs": [],
      "name": "fees",
      "outputs": [
        {
          "internalType": "uint256",
          "name": "poolFee",
          "type": "uint256"
        },
        {
          "internalType": "uint256",
          "name": "creatorFee",
          "type": "uint256"
        },
        {
          "internalType": "uint256",
          "name": "refundFee",
          "type": "uint256"
        }
      ],
      "payable": false,
      "stateMutability": "view",
      "type": "function"
    },
    {
      "constant": false,
      "inputs": [
        {
          "internalType": "address",
          "name": "account",
          "type": "address"
        }
      ],
      "name": "forceClaim",
      "outputs": [],
      "payable": false,
      "stateMutability": "nonpayable",
      "type": "function"
    },
    {
      "constant": true,
      "inputs": [],
      "name": "isResolverCached",
      "outputs": [
        {
          "internalType": "bool",
          "name": "",
          "type": "bool"
        }
      ],
      "payable": false,
      "stateMutability": "view",
      "type": "function"
    },
    {
      "constant": false,
      "inputs": [
        {
          "internalType": "address",
          "name": "_owner",
          "type": "address"
        }
      ],
      "name": "nominateNewOwner",
      "outputs": [],
      "payable": false,
      "stateMutability": "nonpayable",
      "type": "function"
    },
    {
      "constant": true,
      "inputs": [],
      "name": "nominatedOwner",
      "outputs": [
        {
          "internalType": "address",
          "name": "",
          "type": "address"
        }
      ],
      "payable": false,
      "stateMutability": "view",
      "type": "function"
    },
    {
      "constant": true,
      "inputs": [],
      "name": "options",
      "outputs": [
        {
          "internalType": "contract BinaryOption",
          "name": "long",
          "type": "address"
        },
        {
          "internalType": "contract BinaryOption",
          "name": "short",
          "type": "address"
        }
      ],
      "payable": false,
      "stateMutability": "view",
      "type": "function"
    },
    {
      "constant": true,
      "inputs": [],
      "name": "oracleDetails",
      "outputs": [
        {
          "internalType": "bytes32",
          "name": "key",
          "type": "bytes32"
        },
        {
          "internalType": "uint256",
          "name": "strikePrice",
          "type": "uint256"
        },
        {
          "internalType": "uint256",
          "name": "finalPrice",
          "type": "uint256"
        }
      ],
      "payable": false,
      "stateMutability": "view",
      "type": "function"
    },
    {
      "constant": true,
      "inputs": [],
      "name": "oraclePriceAndTimestamp",
      "outputs": [
        {
          "internalType": "uint256",
          "name": "price",
          "type": "uint256"
        },
        {
          "internalType": "uint256",
          "name": "updatedAt",
          "type": "uint256"
        }
      ],
      "payable": false,
      "stateMutability": "view",
      "type": "function"
    },
    {
      "constant": true,
      "inputs": [],
      "name": "owner",
      "outputs": [
        {
          "internalType": "address",
          "name": "",
          "type": "address"
        }
      ],
      "payable": false,
      "stateMutability": "view",
      "type": "function"
    },
    {
      "constant": true,
      "inputs": [],
      "name": "phase",
      "outputs": [
        {
          "internalType": "enum IBinaryOptionMarket.Phase",
          "name": "",
          "type": "uint8"
        }
      ],
      "payable": false,
      "stateMutability": "view",
      "type": "function"
    },
    {
      "constant": true,
      "inputs": [],
      "name": "prices",
      "outputs": [
        {
          "internalType": "uint256",
          "name": "long",
          "type": "uint256"
        },
        {
          "internalType": "uint256",
          "name": "short",
          "type": "uint256"
        }
      ],
      "payable": false,
      "stateMutability": "view",
      "type": "function"
    },
    {
      "constant": true,
      "inputs": [
        {
          "internalType": "enum IBinaryOptionMarket.Side",
          "name": "side",
          "type": "uint8"
        },
        {
          "internalType": "uint256",
          "name": "value",
          "type": "uint256"
        },
        {
          "internalType": "bool",
          "name": "refund",
          "type": "bool"
        }
      ],
      "name": "pricesAfterBidOrRefund",
      "outputs": [
        {
          "internalType": "uint256",
          "name": "long",
          "type": "uint256"
        },
        {
          "internalType": "uint256",
          "name": "short",
          "type": "uint256"
        }
      ],
      "payable": false,
      "stateMutability": "view",
      "type": "function"
    },
    {
      "constant": false,
      "inputs": [],
      "name": "rebuildCache",
      "outputs": [],
      "payable": false,
      "stateMutability": "nonpayable",
      "type": "function"
    },
    {
      "constant": false,
      "inputs": [
        {
          "internalType": "enum IBinaryOptionMarket.Side",
          "name": "side",
          "type": "uint8"
        },
        {
          "internalType": "uint256",
          "name": "value",
          "type": "uint256"
        }
      ],
      "name": "refund",
      "outputs": [
        {
          "internalType": "uint256",
          "name": "refundMinusFee",
          "type": "uint256"
        }
      ],
      "payable": false,
      "stateMutability": "nonpayable",
      "type": "function"
    },
    {
      "constant": true,
      "inputs": [],
      "name": "refundsEnabled",
      "outputs": [
        {
          "internalType": "bool",
          "name": "",
          "type": "bool"
        }
      ],
      "payable": false,
      "stateMutability": "view",
      "type": "function"
    },
    {
      "constant": true,
      "inputs": [],
      "name": "requireActiveAndUnpaused",
      "outputs": [],
      "payable": false,
      "stateMutability": "view",
      "type": "function"
    },
    {
      "constant": false,
      "inputs": [],
      "name": "resolve",
      "outputs": [],
      "payable": false,
      "stateMutability": "nonpayable",
      "type": "function"
    },
    {
      "constant": true,
      "inputs": [],
      "name": "resolved",
      "outputs": [
        {
          "internalType": "bool",
          "name": "",
          "type": "bool"
        }
      ],
      "payable": false,
      "stateMutability": "view",
      "type": "function"
    },
    {
      "constant": true,
      "inputs": [],
      "name": "resolver",
      "outputs": [
        {
          "internalType": "contract AddressResolver",
          "name": "",
          "type": "address"
        }
      ],
      "payable": false,
      "stateMutability": "view",
      "type": "function"
    },
    {
      "constant": true,
      "inputs": [],
      "name": "resolverAddressesRequired",
      "outputs": [
        {
          "internalType": "bytes32[]",
          "name": "addresses",
          "type": "bytes32[]"
        }
      ],
      "payable": false,
      "stateMutability": "view",
      "type": "function"
    },
    {
      "constant": true,
      "inputs": [],
      "name": "result",
      "outputs": [
        {
          "internalType": "enum IBinaryOptionMarket.Side",
          "name": "",
          "type": "uint8"
        }
      ],
      "payable": false,
      "stateMutability": "view",
      "type": "function"
    },
    {
      "constant": true,
      "inputs": [],
      "name": "senderPriceAndExercisableDeposits",
      "outputs": [
        {
          "internalType": "uint256",
          "name": "price",
          "type": "uint256"
        },
        {
          "internalType": "uint256",
          "name": "exercisable",
          "type": "uint256"
        }
      ],
      "payable": false,
      "stateMutability": "view",
      "type": "function"
    },
    {
      "constant": false,
      "inputs": [
        {
          "internalType": "address",
          "name": "_manager",
          "type": "address"
        }
      ],
      "name": "setManager",
      "outputs": [],
      "payable": false,
      "stateMutability": "nonpayable",
      "type": "function"
    },
    {
      "constant": true,
      "inputs": [],
      "name": "times",
      "outputs": [
        {
          "internalType": "uint256",
          "name": "biddingEnd",
          "type": "uint256"
        },
        {
          "internalType": "uint256",
          "name": "maturity",
          "type": "uint256"
        },
        {
          "internalType": "uint256",
          "name": "expiry",
          "type": "uint256"
        }
      ],
      "payable": false,
      "stateMutability": "view",
      "type": "function"
    },
    {
      "constant": true,
      "inputs": [],
      "name": "totalBids",
      "outputs": [
        {
          "internalType": "uint256",
          "name": "long",
          "type": "uint256"
        },
        {
          "internalType": "uint256",
          "name": "short",
          "type": "uint256"
        }
      ],
      "payable": false,
      "stateMutability": "view",
      "type": "function"
    },
    {
      "constant": true,
      "inputs": [],
      "name": "totalClaimableSupplies",
      "outputs": [
        {
          "internalType": "uint256",
          "name": "long",
          "type": "uint256"
        },
        {
          "internalType": "uint256",
          "name": "short",
          "type": "uint256"
        }
      ],
      "payable": false,
      "stateMutability": "view",
      "type": "function"
    },
    {
      "constant": true,
      "inputs": [],
      "name": "totalSupplies",
      "outputs": [
        {
          "internalType": "uint256",
          "name": "long",
          "type": "uint256"
        },
        {
          "internalType": "uint256",
          "name": "short",
          "type": "uint256"
        }
      ],
      "payable": false,
      "stateMutability": "view",
      "type": "function"
    },
    {
      "constant": false,
      "inputs": [
        {
          "internalType": "uint256",
          "name": "longBids",
          "type": "uint256"
        },
        {
          "internalType": "uint256",
          "name": "shortBids",
          "type": "uint256"
        },
        {
          "internalType": "uint256",
          "name": "totalDebt",
          "type": "uint256"
        }
      ],
      "name": "updatePrices",
      "outputs": [],
      "payable": false,
      "stateMutability": "nonpayable",
      "type": "function"
    }
  ],
  "bytecode": "0x60806040523480156200001157600080fd5b5060405162007e1338038062007e1383398181016040526102008110156200003857600080fd5b810190808051906020019092919080519060200190929190805190602001909291909190826040018051906020019092919080519060200190929190805190602001909291909190826060019190826040019190505089898989898989898989878a600073ffffffffffffffffffffffffffffffffffffffff168173ffffffffffffffffffffffffffffffffffffffff1614156200013e576040517f08c379a00000000000000000000000000000000000000000000000000000000081526004018080602001828103825260198152602001807f4f776e657220616464726573732063616e6e6f7420626520300000000000000081525060200191505060405180910390fd5b806000806101000a81548173ffffffffffffffffffffffffffffffffffffffff021916908373ffffffffffffffffffffffffffffffffffffffff1602179055507fb532073b38c83145e3e5135377a08bf9aab55bc0fd7c1179cd4fb995d2a5159c600082604051808373ffffffffffffffffffffffffffffffffffffffff1673ffffffffffffffffffffffffffffffffffffffff1681526020018273ffffffffffffffffffffffffffffffffffffffff1673ffffffffffffffffffffffffffffffffffffffff1681526020019250505060405180910390a15080600260006101000a81548173ffffffffffffffffffffffffffffffffffffffff021916908373ffffffffffffffffffffffffffffffffffffffff1602179055505088601460006101000a81548173ffffffffffffffffffffffffffffffffffffffff021916908373ffffffffffffffffffffffffffffffffffffffff160217905550604051806040016040528088600060028110620002b357fe5b6020020151815260200188600160028110620002cb57fe5b60200201518152506011600082015181600001556020820151816001015590505060405180606001604052808781526020018681526020016000815250600b6000820151816000015560208201518160010155604082015181600201559050506040518060600160405280846000600381106200034457fe5b60200201518152602001846001600381106200035c57fe5b60200201518152602001846002600381106200037457fe5b6020020151815250600860008201518160000155602082015181600101556040820151816002015590505083601460156101000a81548160ff02191690831515021790555060008083600060028110620003ca57fe5b602002015184600160028110620003dd57fe5b602002015191509150620003f88282620007ae60201b60201c565b8a73ffffffffffffffffffffffffffffffffffffffff167f70bd4a33bf447720d717d08f3affb5aecfe4d2ebb8e3dd94539f5313e2447643600084604051808360018111156200044457fe5b60ff1681526020018281526020019250505060405180910390a28a73ffffffffffffffffffffffffffffffffffffffff167f70bd4a33bf447720d717d08f3affb5aecfe4d2ebb8e3dd94539f5313e244764360018360405180836001811115620004aa57fe5b60ff1681526020018281526020019250505060405180910390a26000620004e082846200090e60201b620037831790919060201c565b90508060138190555060008085600060038110620004fa57fe5b6020020151866001600381106200050d57fe5b6020020151915091506040518060600160405280838152602001828152602001876002600381106200053b57fe5b6020020151815250600e6000820151816000015560208201518160010155604082015181600201559050506200061a6200058482846200090e60201b620037831790919060201c565b73__$b8d33eeb36ac0d1e81cd70156e0043e778$__63907af6c06040518163ffffffff1660e01b815260040160206040518083038186803b158015620005c957600080fd5b505af4158015620005de573d6000803e3d6000fd5b505050506040513d6020811015620005f557600080fd5b81019080805190602001909291905050506200099760201b6200486d1790919060201c565b6015819055506200063385858562000a2160201b60201c565b8d85604051620006439062000e48565b808373ffffffffffffffffffffffffffffffffffffffff1673ffffffffffffffffffffffffffffffffffffffff16815260200182815260200192505050604051809103906000f0801580156200069d573d6000803e3d6000fd5b50600460000160006101000a81548173ffffffffffffffffffffffffffffffffffffffff021916908373ffffffffffffffffffffffffffffffffffffffff1602179055508d84604051620006f19062000e48565b808373ffffffffffffffffffffffffffffffffffffffff1673ffffffffffffffffffffffffffffffffffffffff16815260200182815260200192505050604051809103906000f0801580156200074b573d6000803e3d6000fd5b50600460010160006101000a81548173ffffffffffffffffffffffffffffffffffffffff021916908373ffffffffffffffffffffffffffffffffffffffff1602179055505050505050505050505050505050505050505050505050505062000e56565b6000620007ca82846200090e60201b620037831790919060201c565b905080601160000154111562000848576040517f08c379a00000000000000000000000000000000000000000000000000000000081526004018080602001828103825260148152602001807f496e73756666696369656e74206361706974616c00000000000000000000000081525060200191505060405180910390fd5b600060116001015490506200086c828562000aaf60201b62004e4a1790919060201c565b811115801562000895575062000891828462000aaf60201b62004e4a1790919060201c565b8111155b62000908576040517f08c379a000000000000000000000000000000000000000000000000000000000815260040180806020018281038252600f8152602001807f4269647320746f6f20736b65776564000000000000000000000000000000000081525060200191505060405180910390fd5b50505050565b6000808284019050838110156200098d576040517f08c379a000000000000000000000000000000000000000000000000000000000815260040180806020018281038252601b8152602001807f536166654d6174683a206164646974696f6e206f766572666c6f77000000000081525060200191505060405180910390fd5b8091505092915050565b60008282111562000a10576040517f08c379a000000000000000000000000000000000000000000000000000000000815260040180806020018281038252601e8152602001807f536166654d6174683a207375627472616374696f6e206f766572666c6f77000081525060200191505060405180910390fd5b600082840390508091505092915050565b60008062000a3785858562000af360201b60201c565b91509150604051806040016040528083815260200182815250600660008201518160000155602082015181600101559050507f6546f60f34df611fa42503098acc39d5ab88bc73febe64b3cc14e5a92e3a66a78282604051808381526020018281526020019250505060405180910390a15050505050565b600062000aeb8262000ad7601260ff16600a0a8662000bd260201b62004edb1790919060201c565b62000c5d60201b62004f611790919060201c565b905092915050565b6000806000851415801562000b09575060008414155b62000b7c576040517f08c379a00000000000000000000000000000000000000000000000000000000081526004018080602001828103825260148152602001807f42696473206d757374206265206e6f6e7a65726f00000000000000000000000081525060200191505060405180910390fd5b600062000b8f8462000cee60201b60201c565b905062000bab818762000d2f60201b62004b7c1790919060201c565b62000bc5828762000d2f60201b62004b7c1790919060201c565b9250925050935093915050565b60008083141562000be7576000905062000c57565b600082840290508284828162000bf957fe5b041462000c52576040517f08c379a000000000000000000000000000000000000000000000000000000000815260040180806020018281038252602181526020018062007df26021913960400191505060405180910390fd5b809150505b92915050565b600080821162000cd5576040517f08c379a000000000000000000000000000000000000000000000000000000000815260040180806020018281038252601a8152602001807f536166654d6174683a206469766973696f6e206279207a65726f00000000000081525060200191505060405180910390fd5b600082848162000ce157fe5b0490508091505092915050565b60006014809054906101000a900460ff1662000d265762000d206015548362000d5360201b620037671790919060201c565b62000d28565b815b9050919050565b600062000d4b8383601260ff16600a0a62000d7760201b60201c565b905092915050565b600062000d6f8383601260ff16600a0a62000de360201b60201c565b905092915050565b60008062000db08462000d9c600a86028862000bd260201b62004edb1790919060201c565b62000c5d60201b62004f611790919060201c565b90506005600a828162000dbf57fe5b061062000dcd57600a810190505b600a818162000dd857fe5b049150509392505050565b600080600a838162000df157fe5b0462000e0c858762000bd260201b62004edb1790919060201c565b8162000e1457fe5b0490506005600a828162000e2457fe5b061062000e3257600a810190505b600a818162000e3d57fe5b049150509392505050565b611ea48062005f4e83390190565b6150e88062000e666000396000f3fe608060405234801561001057600080fd5b50600436106102695760003560e01c806379ba509711610151578063be5af9fe116100c3578063d0ebdbe711610087578063d0ebdbe7146109fb578063d3419bf314610a3f578063dbea363814610a64578063e4cfbdbd14610a9f578063eef49ee314610b07578063fd087ee514610b2557610269565b8063be5af9fe14610923578063c588f52614610948578063c7a5bdc81461096d578063c8db233e14610992578063d068cdc5146109d657610269565b806398508ecd1161011557806398508ecd146108025780639af1d35a1461082e5780639e3b34bf1461085a578063ac3791e314610886578063b1c9fe6e146108a8578063b634bfbc146108d457610269565b806379ba50971461070c5780638514925814610716578063899ffef4146107345780638b034136146107935780638da5cb5b146107b857610269565b80633d7a783b116101ea5780634c33fe94116101ae5780634c33fe94146105c7578063532f11791461060b57806353a47bb71461062d5780636392a51f1461067757806365372147146106d6578063741853601461070257610269565b80633d7a783b146104ba5780633dae89eb146104df5780633ed620a4146105045780633f6fa65514610546578063408e82af1461056857610269565b80632115e303116102315780632115e3031461040757806327745bae146104255780632810e1d61461042f57806329e77b5d146104395780632af64bd31461049857610269565b806302d05d3f1461026e57806304f3bcec146102b85780631069143a1461030257806312160c251461037f5780631627540c146103c3575b600080fd5b610276610b87565b604051808273ffffffffffffffffffffffffffffffffffffffff1673ffffffffffffffffffffffffffffffffffffffff16815260200191505060405180910390f35b6102c0610bad565b604051808273ffffffffffffffffffffffffffffffffffffffff1673ffffffffffffffffffffffffffffffffffffffff16815260200191505060405180910390f35b61030a610bd3565b604051808373ffffffffffffffffffffffffffffffffffffffff1673ffffffffffffffffffffffffffffffffffffffff1681526020018273ffffffffffffffffffffffffffffffffffffffff1673ffffffffffffffffffffffffffffffffffffffff1681526020019250505060405180910390f35b6103c16004803603602081101561039557600080fd5b81019080803573ffffffffffffffffffffffffffffffffffffffff169060200190929190505050610c25565b005b610405600480360360208110156103d957600080fd5b81019080803573ffffffffffffffffffffffffffffffffffffffff169060200190929190505050610e26565b005b61040f610ed5565b6040518082815260200191505060405180910390f35b61042d610ee7565b005b610437610f56565b005b61047b6004803603602081101561044f57600080fd5b81019080803573ffffffffffffffffffffffffffffffffffffffff169060200190929190505050611489565b604051808381526020018281526020019250505060405180910390f35b6104a061149e565b604051808215151515815260200191505060405180910390f35b6104c2611676565b604051808381526020018281526020019250505060405180910390f35b6104e76117cd565b604051808381526020018281526020019250505060405180910390f35b6105446004803603606081101561051a57600080fd5b810190808035906020019092919080359060200190929190803590602001909291905050506117e0565b005b61054e6117f0565b604051808215151515815260200191505060405180910390f35b6105aa6004803603602081101561057e57600080fd5b81019080803573ffffffffffffffffffffffffffffffffffffffff169060200190929190505050611802565b604051808381526020018281526020019250505060405180910390f35b610609600480360360208110156105dd57600080fd5b81019080803573ffffffffffffffffffffffffffffffffffffffff169060200190929190505050611817565b005b610613611971565b604051808215151515815260200191505060405180910390f35b610635611984565b604051808273ffffffffffffffffffffffffffffffffffffffff1673ffffffffffffffffffffffffffffffffffffffff16815260200191505060405180910390f35b6106b96004803603602081101561068d57600080fd5b81019080803573ffffffffffffffffffffffffffffffffffffffff1690602001909291905050506119aa565b604051808381526020018281526020019250505060405180910390f35b6106de6119bf565b604051808260018111156106ee57fe5b60ff16815260200191505060405180910390f35b61070a6119ce565b005b610714611c37565b005b61071e611e5d565b6040518082815260200191505060405180910390f35b61073c6122ab565b6040518080602001828103825283818151815260200191508051906020019060200280838360005b8381101561077f578082015181840152602081019050610764565b505050509050019250505060405180910390f35b61079b6123cb565b604051808381526020018281526020019250505060405180910390f35b6107c06123de565b604051808273ffffffffffffffffffffffffffffffffffffffff1673ffffffffffffffffffffffffffffffffffffffff16815260200191505060405180910390f35b61080a612403565b60405180848152602001838152602001828152602001935050505060405180910390f35b61083661241b565b60405180848152602001838152602001828152602001935050505060405180910390f35b610862612433565b60405180848152602001838152602001828152602001935050505060405180910390f35b61088e61244b565b604051808215151515815260200191505060405180910390f35b6108b0612490565b604051808260038111156108c057fe5b60ff16815260200191505060405180910390f35b61090d600480360360408110156108ea57600080fd5b81019080803560ff169060200190929190803590602001909291905050506124d9565b6040518082815260200191505060405180910390f35b61092b612962565b604051808381526020018281526020019250505060405180910390f35b610950612974565b604051808381526020018281526020019250505060405180910390f35b610975612b22565b604051808381526020018281526020019250505060405180910390f35b6109d4600480360360208110156109a857600080fd5b81019080803573ffffffffffffffffffffffffffffffffffffffff169060200190929190505050612b35565b005b6109de612bc3565b604051808381526020018281526020019250505060405180910390f35b610a3d60048036036020811015610a1157600080fd5b81019080803573ffffffffffffffffffffffffffffffffffffffff169060200190929190505050612d1a565b005b610a47612d5d565b604051808381526020018281526020019250505060405180910390f35b610a9d60048036036040811015610a7a57600080fd5b81019080803560ff16906020019092919080359060200190929190505050612d6f565b005b610af160048036036080811015610ab557600080fd5b81019080803560ff169060200190929190803560ff16906020019092919080359060200190929190803515159060200190929190505050613030565b6040518082815260200191505060405180910390f35b610b0f61327a565b6040518082815260200191505060405180910390f35b610b6a60048036036060811015610b3b57600080fd5b81019080803560ff16906020019092919080359060200190929190803515159060200190929190505050613280565b604051808381526020018281526020019250505060405180910390f35b601460009054906101000a900473ffffffffffffffffffffffffffffffffffffffff1681565b600260009054906101000a900473ffffffffffffffffffffffffffffffffffffffff1681565b60048060000160009054906101000a900473ffffffffffffffffffffffffffffffffffffffff16908060010160009054906101000a900473ffffffffffffffffffffffffffffffffffffffff16905082565b600460000160009054906101000a900473ffffffffffffffffffffffffffffffffffffffff1673ffffffffffffffffffffffffffffffffffffffff16632bc43fd982600660000154610c786013546133c7565b6040518463ffffffff1660e01b8152600401808473ffffffffffffffffffffffffffffffffffffffff1673ffffffffffffffffffffffffffffffffffffffff1681526020018381526020018281526020019350505050602060405180830381600087803b158015610ce857600080fd5b505af1158015610cfc573d6000803e3d6000fd5b505050506040513d6020811015610d1257600080fd5b810190808051906020019092919050505050600460010160009054906101000a900473ffffffffffffffffffffffffffffffffffffffff1673ffffffffffffffffffffffffffffffffffffffff16632bc43fd982600660010154610d776013546133c7565b6040518463ffffffff1660e01b8152600401808473ffffffffffffffffffffffffffffffffffffffff1673ffffffffffffffffffffffffffffffffffffffff1681526020018381526020018281526020019350505050602060405180830381600087803b158015610de757600080fd5b505af1158015610dfb573d6000803e3d6000fd5b505050506040513d6020811015610e1157600080fd5b81019080805190602001909291905050505050565b610e2e6133ff565b80600160006101000a81548173ffffffffffffffffffffffffffffffffffffffff021916908373ffffffffffffffffffffffffffffffffffffffff1602179055507f906a1c6bd7e3091ea86693dd029a831c19049ce77f1dce2ce0bab1cacbabce2281604051808273ffffffffffffffffffffffffffffffffffffffff1673ffffffffffffffffffffffffffffffffffffffff16815260200191505060405180910390a150565b6000610ee26013546133c7565b905090565b610eef6134a6565b73ffffffffffffffffffffffffffffffffffffffff1663086dabd16040518163ffffffff1660e01b815260040160006040518083038186803b158015610f3457600080fd5b505afa158015610f48573d6000803e3d6000fd5b50505050610f546134d6565b565b610f5e6133ff565b610f666135b6565b610fd8576040517f08c379a000000000000000000000000000000000000000000000000000000000815260040180806020018281038252600e8152602001807f4e6f7420796574206d617475726500000000000000000000000000000000000081525060200191505060405180910390fd5b610fe06134a6565b73ffffffffffffffffffffffffffffffffffffffff1663086dabd16040518163ffffffff1660e01b815260040160006040518083038186803b15801561102557600080fd5b505afa158015611039573d6000803e3d6000fd5b505050506110456134d6565b6014809054906101000a900460ff16156110c7576040517f08c379a00000000000000000000000000000000000000000000000000000000081526004018080602001828103825260178152602001807f4d61726b657420616c7265616479207265736f6c76656400000000000000000081525060200191505060405180910390fd5b6000806110d26135c5565b915091506110df81613671565b611151576040517f08c379a000000000000000000000000000000000000000000000000000000000815260040180806020018281038252600e8152602001807f5072696365206973207374616c6500000000000000000000000000000000000081525060200191505060405180910390fd5b81600b6002018190555060016014806101000a81548160ff021916908315150217905550600061117f613737565b90506000601354905060006111a2600e600001548361376790919063ffffffff16565b905060006111be600e600101548461376790919063ffffffff16565b90506111db6111d6838361378390919063ffffffff16565b61380b565b508373ffffffffffffffffffffffffffffffffffffffff1663a9059cbb6112006138a2565b73ffffffffffffffffffffffffffffffffffffffff1663eb1edd616040518163ffffffff1660e01b815260040160206040518083038186803b15801561124557600080fd5b505afa158015611259573d6000803e3d6000fd5b505050506040513d602081101561126f57600080fd5b8101908080519060200190929190505050846040518363ffffffff1660e01b8152600401808373ffffffffffffffffffffffffffffffffffffffff1673ffffffffffffffffffffffffffffffffffffffff16815260200182815260200192505050602060405180830381600087803b1580156112ea57600080fd5b505af11580156112fe573d6000803e3d6000fd5b505050506040513d602081101561131457600080fd5b8101908080519060200190929190505050508373ffffffffffffffffffffffffffffffffffffffff1663a9059cbb601460009054906101000a900473ffffffffffffffffffffffffffffffffffffffff16836040518363ffffffff1660e01b8152600401808373ffffffffffffffffffffffffffffffffffffffff1673ffffffffffffffffffffffffffffffffffffffff16815260200182815260200192505050602060405180830381600087803b1580156113cf57600080fd5b505af11580156113e3573d6000803e3d6000fd5b505050506040513d60208110156113f957600080fd5b8101908080519060200190929190505050507f5528b7e06f48a519cf814c4e5293ee2737c3f5c28d93e30cca112ac649fdd2356114346138d2565b878760135486866040518087600181111561144b57fe5b60ff168152602001868152602001858152602001848152602001838152602001828152602001965050505050505060405180910390a1505050505050565b60008061149583613921565b91509150915091565b600060606114aa6122ab565b905060008090505b815181101561166c5760008282815181106114c957fe5b602002602001015190506003600082815260200190815260200160002060009054906101000a900473ffffffffffffffffffffffffffffffffffffffff1673ffffffffffffffffffffffffffffffffffffffff16600260009054906101000a900473ffffffffffffffffffffffffffffffffffffffff1673ffffffffffffffffffffffffffffffffffffffff166321f8a721836040518263ffffffff1660e01b81526004018082815260200191505060206040518083038186803b15801561159057600080fd5b505afa1580156115a4573d6000803e3d6000fd5b505050506040513d60208110156115ba57600080fd5b810190808051906020019092919050505073ffffffffffffffffffffffffffffffffffffffff1614158061164d5750600073ffffffffffffffffffffffffffffffffffffffff166003600083815260200190815260200160002060009054906101000a900473ffffffffffffffffffffffffffffffffffffffff1673ffffffffffffffffffffffffffffffffffffffff16145b1561165e5760009350505050611673565b5080806001019150506114b2565b5060019150505b90565b600080600460000160009054906101000a900473ffffffffffffffffffffffffffffffffffffffff1673ffffffffffffffffffffffffffffffffffffffff1663d6ff02e26040518163ffffffff1660e01b815260040160206040518083038186803b1580156116e457600080fd5b505afa1580156116f8573d6000803e3d6000fd5b505050506040513d602081101561170e57600080fd5b8101908080519060200190929190505050600460010160009054906101000a900473ffffffffffffffffffffffffffffffffffffffff1673ffffffffffffffffffffffffffffffffffffffff1663d6ff02e26040518163ffffffff1660e01b815260040160206040518083038186803b15801561178a57600080fd5b505afa15801561179e573d6000803e3d6000fd5b505050506040513d60208110156117b457600080fd5b8101908080519060200190929190505050915091509091565b6000806117d8613ae7565b915091509091565b6117eb838383613f27565b505050565b6014809054906101000a900460ff1681565b60008061180e83613fad565b91509150915091565b61181f6133ff565b611827614173565b1561189a576040517f08c379a00000000000000000000000000000000000000000000000000000000081526004018080602001828103825260108152602001807f42696464696e6720696e6163746976650000000000000000000000000000000081525060200191505060405180910390fd5b6000806118a5614182565b915091506000806118d7601460009054906101000a900473ffffffffffffffffffffffffffffffffffffffff16613921565b91509150600082851480156118eb57508184145b905080611960576040517f08c379a000000000000000000000000000000000000000000000000000000000815260040180806020018281038252600f8152602001807f4e6f742063616e63656c6c61626c65000000000000000000000000000000000081525060200191505060405180910390fd5b611969866142d9565b505050505050565b601460159054906101000a900460ff1681565b600160009054906101000a900473ffffffffffffffffffffffffffffffffffffffff1681565b6000806119b683614618565b91509150915091565b60006119c96138d2565b905090565b60606119d86122ab565b905060008090505b8151811015611c335760008282815181106119f757fe5b602002602001015190506000600260009054906101000a900473ffffffffffffffffffffffffffffffffffffffff1673ffffffffffffffffffffffffffffffffffffffff1663dacb2d01838460405160200180807f5265736f6c766572206d697373696e67207461726765743a20000000000000008152506019018281526020019150506040516020818303038152906040526040518363ffffffff1660e01b81526004018083815260200180602001828103825283818151815260200191508051906020019080838360005b83811015611adf578082015181840152602081019050611ac4565b50505050905090810190601f168015611b0c5780820380516001836020036101000a031916815260200191505b50935050505060206040518083038186803b158015611b2a57600080fd5b505afa158015611b3e573d6000803e3d6000fd5b505050506040513d6020811015611b5457600080fd5b81019080805190602001909291905050509050806003600084815260200190815260200160002060006101000a81548173ffffffffffffffffffffffffffffffffffffffff021916908373ffffffffffffffffffffffffffffffffffffffff1602179055507f88a93678a3692f6789d9546fc621bf7234b101ddb7d4fe479455112831b8aa688282604051808381526020018273ffffffffffffffffffffffffffffffffffffffff1673ffffffffffffffffffffffffffffffffffffffff1681526020019250505060405180910390a1505080806001019150506119e0565b5050565b600160009054906101000a900473ffffffffffffffffffffffffffffffffffffffff1673ffffffffffffffffffffffffffffffffffffffff163373ffffffffffffffffffffffffffffffffffffffff1614611cdd576040517f08c379a0000000000000000000000000000000000000000000000000000000008152600401808060200182810382526035815260200180614ff36035913960400191505060405180910390fd5b7fb532073b38c83145e3e5135377a08bf9aab55bc0fd7c1179cd4fb995d2a5159c6000809054906101000a900473ffffffffffffffffffffffffffffffffffffffff16600160009054906101000a900473ffffffffffffffffffffffffffffffffffffffff16604051808373ffffffffffffffffffffffffffffffffffffffff1673ffffffffffffffffffffffffffffffffffffffff1681526020018273ffffffffffffffffffffffffffffffffffffffff1673ffffffffffffffffffffffffffffffffffffffff1681526020019250505060405180910390a1600160009054906101000a900473ffffffffffffffffffffffffffffffffffffffff166000806101000a81548173ffffffffffffffffffffffffffffffffffffffff021916908373ffffffffffffffffffffffffffffffffffffffff1602179055506000600160006101000a81548173ffffffffffffffffffffffffffffffffffffffff021916908373ffffffffffffffffffffffffffffffffffffffff160217905550565b60006014809054906101000a900460ff16611f1157611e7a6147de565b73ffffffffffffffffffffffffffffffffffffffff16637859f410306040518263ffffffff1660e01b8152600401808273ffffffffffffffffffffffffffffffffffffffff1673ffffffffffffffffffffffffffffffffffffffff168152602001915050600060405180830381600087803b158015611ef857600080fd5b505af1158015611f0c573d6000803e3d6000fd5b505050505b600080611f1d33613fad565b91509150600082141580611f32575060008114155b15611f4257611f3f613ae7565b50505b600080611f4e33614618565b91509150600082141580611f63575060008114155b611fd5576040517f08c379a00000000000000000000000000000000000000000000000000000000081526004018080602001828103825260138152602001807f4e6f7468696e6720746f2065786572636973650000000000000000000000000081525060200191505060405180910390fd5b6000821461209a57600460000160009054906101000a900473ffffffffffffffffffffffffffffffffffffffff1673ffffffffffffffffffffffffffffffffffffffff16631b15982a336040518263ffffffff1660e01b8152600401808273ffffffffffffffffffffffffffffffffffffffff1673ffffffffffffffffffffffffffffffffffffffff168152602001915050600060405180830381600087803b15801561208157600080fd5b505af1158015612095573d6000803e3d6000fd5b505050505b6000811461215f57600460010160009054906101000a900473ffffffffffffffffffffffffffffffffffffffff1673ffffffffffffffffffffffffffffffffffffffff16631b15982a336040518263ffffffff1660e01b8152600401808273ffffffffffffffffffffffffffffffffffffffff1673ffffffffffffffffffffffffffffffffffffffff168152602001915050600060405180830381600087803b15801561214657600080fd5b505af115801561215a573d6000803e3d6000fd5b505050505b600061217361216c6138d2565b8484614807565b90503373ffffffffffffffffffffffffffffffffffffffff167fd82b6f69d7477fb41cd83d936de94990cee2fa1a309feeee90101fc0513b6a43826040518082815260200191505060405180910390a2600081146122a0576121d48161380b565b506121dd613737565b73ffffffffffffffffffffffffffffffffffffffff1663a9059cbb33836040518363ffffffff1660e01b8152600401808373ffffffffffffffffffffffffffffffffffffffff1673ffffffffffffffffffffffffffffffffffffffff16815260200182815260200192505050602060405180830381600087803b15801561226357600080fd5b505af1158015612277573d6000803e3d6000fd5b505050506040513d602081101561228d57600080fd5b8101908080519060200190929190505050505b809550505050505090565b606060046040519080825280602002602001820160405280156122dd5781602001602082028038833980820191505090505b5090507f53797374656d53746174757300000000000000000000000000000000000000008160008151811061230e57fe5b6020026020010181815250507f45786368616e67655261746573000000000000000000000000000000000000008160018151811061234857fe5b6020026020010181815250507f53796e74687355534400000000000000000000000000000000000000000000008160028151811061238257fe5b6020026020010181815250507f466565506f6f6c00000000000000000000000000000000000000000000000000816003815181106123bc57fe5b60200260200101818152505090565b6000806123d6614182565b915091509091565b6000809054906101000a900473ffffffffffffffffffffffffffffffffffffffff1681565b600b8060000154908060010154908060020154905083565b600e8060000154908060010154908060020154905083565b60088060000154908060010154908060020154905083565b6000806124566135c5565b9150506014809054906101000a900460ff1615801561247957506124786135b6565b5b801561248a575061248981613671565b5b91505090565b600061249a614173565b6124a757600090506124d6565b6124af6135b6565b6124bc57600190506124d6565b6124c461483a565b6124d157600290506124d6565b600390505b90565b60006124e3614173565b15612556576040517f08c379a00000000000000000000000000000000000000000000000000000000081526004018080602001828103825260108152602001807f42696464696e6720696e6163746976650000000000000000000000000000000081525060200191505060405180910390fd5b601460159054906101000a900460ff166125d8576040517f08c379a00000000000000000000000000000000000000000000000000000000081526004018080602001828103825260108152602001807f526566756e64732064697361626c65640000000000000000000000000000000081525060200191505060405180910390fd5b60008214156125ea576000905061295c565b601460009054906101000a900473ffffffffffffffffffffffffffffffffffffffff1673ffffffffffffffffffffffffffffffffffffffff163373ffffffffffffffffffffffffffffffffffffffff1614156126985760008061264c33613921565b9150915060018081111561265c57fe5b85600181111561266857fe5b141561267957808280925081935050505b61269561268f858461486d90919063ffffffff16565b826148f6565b50505b612740612731600e6002015473__$b8d33eeb36ac0d1e81cd70156e0043e778$__63907af6c06040518163ffffffff1660e01b815260040160206040518083038186803b1580156126e857600080fd5b505af41580156126fc573d6000803e3d6000fd5b505050506040513d602081101561271257600080fd5b810190808051906020019092919050505061486d90919063ffffffff16565b8361376790919063ffffffff16565b905061274b83614a3e565b73ffffffffffffffffffffffffffffffffffffffff1663410085df33846040518363ffffffff1660e01b8152600401808373ffffffffffffffffffffffffffffffffffffffff1673ffffffffffffffffffffffffffffffffffffffff16815260200182815260200192505050600060405180830381600087803b1580156127d157600080fd5b505af11580156127e5573d6000803e3d6000fd5b505050503373ffffffffffffffffffffffffffffffffffffffff167f9bd0a8ca6625e01a9cee5e86eec7813a8234b41f1ca0c9f15a008d1e1d00ee5f8483612836858761486d90919063ffffffff16565b6040518084600181111561284657fe5b60ff168152602001838152602001828152602001935050505060405180910390a260006128728261380b565b905061287c613737565b73ffffffffffffffffffffffffffffffffffffffff1663a9059cbb33846040518363ffffffff1660e01b8152600401808373ffffffffffffffffffffffffffffffffffffffff1673ffffffffffffffffffffffffffffffffffffffff16815260200182815260200192505050602060405180830381600087803b15801561290257600080fd5b505af1158015612916573d6000803e3d6000fd5b505050506040513d602081101561292c57600080fd5b810190808051906020019092919050505050600080612949614182565b91509150612958828285613f27565b5050505b92915050565b60118060000154908060010154905082565b600080600090506014809054906101000a900460ff1615806129d057503373ffffffffffffffffffffffffffffffffffffffff166129b86129b36138d2565b614a3e565b73ffffffffffffffffffffffffffffffffffffffff16145b156129e3576129e06013546133c7565b90505b600460000160009054906101000a900473ffffffffffffffffffffffffffffffffffffffff1673ffffffffffffffffffffffffffffffffffffffff163373ffffffffffffffffffffffffffffffffffffffff161415612a49576006600001549150612b1e565b600460010160009054906101000a900473ffffffffffffffffffffffffffffffffffffffff1673ffffffffffffffffffffffffffffffffffffffff163373ffffffffffffffffffffffffffffffffffffffff161415612aaf576006600101549150612b1d565b6040517f08c379a00000000000000000000000000000000000000000000000000000000081526004018080602001828103825260178152602001807f53656e646572206973206e6f7420616e206f7074696f6e00000000000000000081525060200191505060405180910390fd5b5b9091565b600080612b2d6135c5565b915091509091565b612b3d6133ff565b612b4561483a565b612bb7576040517f08c379a000000000000000000000000000000000000000000000000000000000815260040180806020018281038252601b8152602001807f556e65787069726564206f7074696f6e732072656d61696e696e67000000000081525060200191505060405180910390fd5b612bc0816142d9565b50565b600080600460000160009054906101000a900473ffffffffffffffffffffffffffffffffffffffff1673ffffffffffffffffffffffffffffffffffffffff166318160ddd6040518163ffffffff1660e01b815260040160206040518083038186803b158015612c3157600080fd5b505afa158015612c45573d6000803e3d6000fd5b505050506040513d6020811015612c5b57600080fd5b8101908080519060200190929190505050600460010160009054906101000a900473ffffffffffffffffffffffffffffffffffffffff1673ffffffffffffffffffffffffffffffffffffffff166318160ddd6040518163ffffffff1660e01b815260040160206040518083038186803b158015612cd757600080fd5b505afa158015612ceb573d6000803e3d6000fd5b505050506040513d6020811015612d0157600080fd5b8101908080519060200190929190505050915091509091565b806000806101000a81548173ffffffffffffffffffffffffffffffffffffffff021916908373ffffffffffffffffffffffffffffffffffffffff16021790555050565b60068060000154908060010154905082565b612d77614173565b15612dea576040517f08c379a00000000000000000000000000000000000000000000000000000000081526004018080602001828103825260108152602001807f42696464696e6720696e6163746976650000000000000000000000000000000081525060200191505060405180910390fd5b6000811415612df85761302c565b612e0182614a3e565b73ffffffffffffffffffffffffffffffffffffffff166359d667a533836040518363ffffffff1660e01b8152600401808373ffffffffffffffffffffffffffffffffffffffff1673ffffffffffffffffffffffffffffffffffffffff16815260200182815260200192505050600060405180830381600087803b158015612e8757600080fd5b505af1158015612e9b573d6000803e3d6000fd5b505050503373ffffffffffffffffffffffffffffffffffffffff167f70bd4a33bf447720d717d08f3affb5aecfe4d2ebb8e3dd94539f5313e2447643838360405180836001811115612ee957fe5b60ff1681526020018281526020019250505060405180910390a26000612f0e82614ab9565b9050612f18613737565b73ffffffffffffffffffffffffffffffffffffffff166323b872dd3330856040518463ffffffff1660e01b8152600401808473ffffffffffffffffffffffffffffffffffffffff1673ffffffffffffffffffffffffffffffffffffffff1681526020018373ffffffffffffffffffffffffffffffffffffffff1673ffffffffffffffffffffffffffffffffffffffff1681526020018281526020019350505050602060405180830381600087803b158015612fd257600080fd5b505af1158015612fe6573d6000803e3d6000fd5b505050506040513d6020811015612ffc57600080fd5b810190808051906020019092919050505050600080613019614182565b91509150613028828285613f27565b5050505b5050565b6000806130486015548561376790919063ffffffff16565b9050600061305586614a3e565b73ffffffffffffffffffffffffffffffffffffffff16638b0341366040518163ffffffff1660e01b815260040160206040518083038186803b15801561309a57600080fd5b505afa1580156130ae573d6000803e3d6000fd5b505050506040513d60208110156130c457600080fd5b8101908080519060200190929190505050905060006013549050600073__$b8d33eeb36ac0d1e81cd70156e0043e778$__63907af6c06040518163ffffffff1660e01b815260040160206040518083038186803b15801561312457600080fd5b505af4158015613138573d6000803e3d6000fd5b505050506040513d602081101561314e57600080fd5b81019080805190602001909291905050509050600061317b600e600201548361486d90919063ffffffff16565b905088600181111561318957fe5b8a600181111561319557fe5b14156132135760006131b0868561376790919063ffffffff16565b905087156131d857848180965081925050506131d5828761376790919063ffffffff16565b95505b6132066131ee878561486d90919063ffffffff16565b6131f88388614b50565b614b7c90919063ffffffff16565b9650505050505050613272565b60006132288686614b7c90919063ffffffff16565b9050871561323b57838180955081925050505b60006132478286614b50565b9050886132545780613268565b6132678382614b7c90919063ffffffff16565b5b9750505050505050505b949350505050565b60135481565b60008060008061328e614182565b91509150614ff0856132a2576137836132a6565b61486d5b9050600060018111156132b557fe5b8860018111156132c157fe5b14156132dc576132d583888363ffffffff16565b92506132ed565b6132ea82888363ffffffff16565b91505b851561339e5761339b61338c600e6002015473__$b8d33eeb36ac0d1e81cd70156e0043e778$__63907af6c06040518163ffffffff1660e01b815260040160206040518083038186803b15801561334357600080fd5b505af4158015613357573d6000803e3d6000fd5b505050506040513d602081101561336d57600080fd5b810190808051906020019092919050505061486d90919063ffffffff16565b8861376790919063ffffffff16565b96505b6133b883836133b36013548b8663ffffffff16565b614b98565b94509450505050935093915050565b60006014809054906101000a900460ff166133f6576133f16015548361376790919063ffffffff16565b6133f8565b815b9050919050565b6000809054906101000a900473ffffffffffffffffffffffffffffffffffffffff1673ffffffffffffffffffffffffffffffffffffffff163373ffffffffffffffffffffffffffffffffffffffff16146134a4576040517f08c379a000000000000000000000000000000000000000000000000000000000815260040180806020018281038252602f815260200180615028602f913960400191505060405180910390fd5b565b60006134d17f53797374656d5374617475730000000000000000000000000000000000000000614c5f565b905090565b6134de6147de565b73ffffffffffffffffffffffffffffffffffffffff16635c975abb6040518163ffffffff1660e01b815260040160206040518083038186803b15801561352357600080fd5b505afa158015613537573d6000803e3d6000fd5b505050506040513d602081101561354d57600080fd5b8101908080519060200190929190505050156135b4576040517f08c379a000000000000000000000000000000000000000000000000000000000815260040180806020018281038252603c815260200180615078603c913960400191505060405180910390fd5b565b60004260086001015410905090565b6000806135d0614dc1565b73ffffffffffffffffffffffffffffffffffffffff16634308a94f600b600001546040518263ffffffff1660e01b815260040180828152602001915050604080518083038186803b15801561362457600080fd5b505afa158015613638573d6000803e3d6000fd5b505050506040513d604081101561364e57600080fd5b810190808051906020019092919080519060200190929190505050915091509091565b60008061367c6147de565b73ffffffffffffffffffffffffffffffffffffffff16634a41d89d6040518163ffffffff1660e01b815260040160606040518083038186803b1580156136c157600080fd5b505afa1580156136d5573d6000803e3d6000fd5b505050506040513d60608110156136eb57600080fd5b81019080805190602001909291908051906020019092919080519060200190929190505050505090508261372d8260086001015461486d90919063ffffffff16565b1115915050919050565b60006137627f53796e7468735553440000000000000000000000000000000000000000000000614c5f565b905090565b600061377b8383601260ff16600a0a614df1565b905092915050565b600080828401905083811015613801576040517f08c379a000000000000000000000000000000000000000000000000000000000815260040180806020018281038252601b8152602001807f536166654d6174683a206164646974696f6e206f766572666c6f77000000000081525060200191505060405180910390fd5b8091505092915050565b60006138228260135461486d90919063ffffffff16565b9050806013819055506138336147de565b73ffffffffffffffffffffffffffffffffffffffff16636b3a0984836040518263ffffffff1660e01b815260040180828152602001915050600060405180830381600087803b15801561388557600080fd5b505af1158015613899573d6000803e3d6000fd5b50505050919050565b60006138cd7f466565506f6f6c00000000000000000000000000000000000000000000000000614c5f565b905090565b6000806014809054906101000a900460ff16156138f657600b600201549050613904565b6138fe6135c5565b50809150505b80600b60010154111561391857600161391b565b60005b91505090565b600080600460000160009054906101000a900473ffffffffffffffffffffffffffffffffffffffff1673ffffffffffffffffffffffffffffffffffffffff16638dc30b70846040518263ffffffff1660e01b8152600401808273ffffffffffffffffffffffffffffffffffffffff1673ffffffffffffffffffffffffffffffffffffffff16815260200191505060206040518083038186803b1580156139c657600080fd5b505afa1580156139da573d6000803e3d6000fd5b505050506040513d60208110156139f057600080fd5b8101908080519060200190929190505050600460010160009054906101000a900473ffffffffffffffffffffffffffffffffffffffff1673ffffffffffffffffffffffffffffffffffffffff16638dc30b70856040518263ffffffff1660e01b8152600401808273ffffffffffffffffffffffffffffffffffffffff1673ffffffffffffffffffffffffffffffffffffffff16815260200191505060206040518083038186803b158015613aa357600080fd5b505afa158015613ab7573d6000803e3d6000fd5b505050506040513d6020811015613acd57600080fd5b810190808051906020019092919050505091509150915091565b600080613af26134a6565b73ffffffffffffffffffffffffffffffffffffffff1663086dabd16040518163ffffffff1660e01b815260040160006040518083038186803b158015613b3757600080fd5b505afa158015613b4b573d6000803e3d6000fd5b50505050613b576134d6565b613b5f614173565b613bd1576040517f08c379a00000000000000000000000000000000000000000000000000000000081526004018080602001828103825260128152602001807f42696464696e6720696e636f6d706c657465000000000000000000000000000081525060200191505060405180910390fd5b6000613bde6013546133c7565b90506000613bea6138d2565b905060006014809054906101000a900460ff169050600080821580613c25575060006001811115613c1757fe5b846001811115613c2357fe5b145b15613d2157600460000160009054906101000a900473ffffffffffffffffffffffffffffffffffffffff1673ffffffffffffffffffffffffffffffffffffffff16632bc43fd933600660000154886040518463ffffffff1660e01b8152600401808473ffffffffffffffffffffffffffffffffffffffff1673ffffffffffffffffffffffffffffffffffffffff1681526020018381526020018281526020019350505050602060405180830381600087803b158015613ce357600080fd5b505af1158015613cf7573d6000803e3d6000fd5b505050506040513d6020811015613d0d57600080fd5b810190808051906020019092919050505091505b821580613d435750600180811115613d3557fe5b846001811115613d4157fe5b145b15613e3f57600460010160009054906101000a900473ffffffffffffffffffffffffffffffffffffffff1673ffffffffffffffffffffffffffffffffffffffff16632bc43fd933600660010154886040518463ffffffff1660e01b8152600401808473ffffffffffffffffffffffffffffffffffffffff1673ffffffffffffffffffffffffffffffffffffffff1681526020018381526020018281526020019350505050602060405180830381600087803b158015613e0157600080fd5b505af1158015613e15573d6000803e3d6000fd5b505050506040513d6020811015613e2b57600080fd5b810190808051906020019092919050505090505b600082141580613e50575060008114155b613ec2576040517f08c379a00000000000000000000000000000000000000000000000000000000081526004018080602001828103825260108152602001807f4e6f7468696e6720746f20636c61696d0000000000000000000000000000000081525060200191505060405180910390fd5b3373ffffffffffffffffffffffffffffffffffffffff167fbbe753caa9bb201dbd1740ee3d61c6d2adf5fa89f30233d732281ae5db6a03d48383604051808381526020018281526020019250505060405180910390a281819650965050505050509091565b600080613f35858585614b98565b91509150604051806040016040528083815260200182815250600660008201518160000155602082015181600101559050507f6546f60f34df611fa42503098acc39d5ab88bc73febe64b3cc14e5a92e3a66a78282604051808381526020018281526020019250505060405180910390a15050505050565b600080600460000160009054906101000a900473ffffffffffffffffffffffffffffffffffffffff1673ffffffffffffffffffffffffffffffffffffffff16639c3ee244846040518263ffffffff1660e01b8152600401808273ffffffffffffffffffffffffffffffffffffffff1673ffffffffffffffffffffffffffffffffffffffff16815260200191505060206040518083038186803b15801561405257600080fd5b505afa158015614066573d6000803e3d6000fd5b505050506040513d602081101561407c57600080fd5b8101908080519060200190929190505050600460010160009054906101000a900473ffffffffffffffffffffffffffffffffffffffff1673ffffffffffffffffffffffffffffffffffffffff16639c3ee244856040518263ffffffff1660e01b8152600401808273ffffffffffffffffffffffffffffffffffffffff1673ffffffffffffffffffffffffffffffffffffffff16815260200191505060206040518083038186803b15801561412f57600080fd5b505afa158015614143573d6000803e3d6000fd5b505050506040513d602081101561415957600080fd5b810190808051906020019092919050505091509150915091565b60004260086000015410905090565b600080600460000160009054906101000a900473ffffffffffffffffffffffffffffffffffffffff1673ffffffffffffffffffffffffffffffffffffffff16638b0341366040518163ffffffff1660e01b815260040160206040518083038186803b1580156141f057600080fd5b505afa158015614204573d6000803e3d6000fd5b505050506040513d602081101561421a57600080fd5b8101908080519060200190929190505050600460010160009054906101000a900473ffffffffffffffffffffffffffffffffffffffff1673ffffffffffffffffffffffffffffffffffffffff16638b0341366040518163ffffffff1660e01b815260040160206040518083038186803b15801561429657600080fd5b505afa1580156142aa573d6000803e3d6000fd5b505050506040513d60208110156142c057600080fd5b8101908080519060200190929190505050915091509091565b60006013549050600081146142f3576142f18161380b565b505b60006142fd613737565b905060008173ffffffffffffffffffffffffffffffffffffffff166370a08231306040518263ffffffff1660e01b8152600401808273ffffffffffffffffffffffffffffffffffffffff1673ffffffffffffffffffffffffffffffffffffffff16815260200191505060206040518083038186803b15801561437e57600080fd5b505afa158015614392573d6000803e3d6000fd5b505050506040513d60208110156143a857600080fd5b8101908080519060200190929190505050905060008114614487578173ffffffffffffffffffffffffffffffffffffffff1663a9059cbb85836040518363ffffffff1660e01b8152600401808373ffffffffffffffffffffffffffffffffffffffff1673ffffffffffffffffffffffffffffffffffffffff16815260200182815260200192505050602060405180830381600087803b15801561444a57600080fd5b505af115801561445e573d6000803e3d6000fd5b505050506040513d602081101561447457600080fd5b8101908080519060200190929190505050505b600460000160009054906101000a900473ffffffffffffffffffffffffffffffffffffffff1673ffffffffffffffffffffffffffffffffffffffff1663c8db233e856040518263ffffffff1660e01b8152600401808273ffffffffffffffffffffffffffffffffffffffff1673ffffffffffffffffffffffffffffffffffffffff168152602001915050600060405180830381600087803b15801561452b57600080fd5b505af115801561453f573d6000803e3d6000fd5b50505050600460010160009054906101000a900473ffffffffffffffffffffffffffffffffffffffff1673ffffffffffffffffffffffffffffffffffffffff1663c8db233e856040518263ffffffff1660e01b8152600401808273ffffffffffffffffffffffffffffffffffffffff1673ffffffffffffffffffffffffffffffffffffffff168152602001915050600060405180830381600087803b1580156145e757600080fd5b505af11580156145fb573d6000803e3d6000fd5b505050508373ffffffffffffffffffffffffffffffffffffffff16ff5b600080600460000160009054906101000a900473ffffffffffffffffffffffffffffffffffffffff1673ffffffffffffffffffffffffffffffffffffffff166370a08231846040518263ffffffff1660e01b8152600401808273ffffffffffffffffffffffffffffffffffffffff1673ffffffffffffffffffffffffffffffffffffffff16815260200191505060206040518083038186803b1580156146bd57600080fd5b505afa1580156146d1573d6000803e3d6000fd5b505050506040513d60208110156146e757600080fd5b8101908080519060200190929190505050600460010160009054906101000a900473ffffffffffffffffffffffffffffffffffffffff1673ffffffffffffffffffffffffffffffffffffffff166370a08231856040518263ffffffff1660e01b8152600401808273ffffffffffffffffffffffffffffffffffffffff1673ffffffffffffffffffffffffffffffffffffffff16815260200191505060206040518083038186803b15801561479a57600080fd5b505afa1580156147ae573d6000803e3d6000fd5b505050506040513d60208110156147c457600080fd5b810190808051906020019092919050505091509150915091565b60008060009054906101000a900473ffffffffffffffffffffffffffffffffffffffff16905090565b600080600181111561481557fe5b84600181111561482157fe5b141561482f57829050614833565b8190505b9392505050565b60006014809054906101000a900460ff168015614868575042600860020154108061486757506000601354145b5b905090565b6000828211156148e5576040517f08c379a000000000000000000000000000000000000000000000000000000000815260040180806020018281038252601e8152602001807f536166654d6174683a207375627472616374696f6e206f766572666c6f77000081525060200191505060405180910390fd5b600082840390508091505092915050565b600061490b828461378390919063ffffffff16565b9050806011600001541115614988576040517f08c379a00000000000000000000000000000000000000000000000000000000081526004018080602001828103825260148152602001807f496e73756666696369656e74206361706974616c00000000000000000000000081525060200191505060405180910390fd5b600060116001015490506149a58285614e4a90919063ffffffff16565b81111580156149c657506149c28284614e4a90919063ffffffff16565b8111155b614a38576040517f08c379a000000000000000000000000000000000000000000000000000000000815260040180806020018281038252600f8152602001807f4269647320746f6f20736b65776564000000000000000000000000000000000081525060200191505060405180910390fd5b50505050565b6000806001811115614a4c57fe5b826001811115614a5857fe5b1415614a8b57600460000160009054906101000a900473ffffffffffffffffffffffffffffffffffffffff169050614ab4565b600460010160009054906101000a900473ffffffffffffffffffffffffffffffffffffffff1690505b919050565b6000614ad08260135461378390919063ffffffff16565b905080601381905550614ae16147de565b73ffffffffffffffffffffffffffffffffffffffff1663aeab5849836040518263ffffffff1660e01b815260040180828152602001915050600060405180830381600087803b158015614b3357600080fd5b505af1158015614b47573d6000803e3d6000fd5b50505050919050565b6000818310614b7157614b6c828461486d90919063ffffffff16565b614b74565b60005b905092915050565b6000614b908383601260ff16600a0a614e80565b905092915050565b60008060008514158015614bad575060008414155b614c1f576040517f08c379a00000000000000000000000000000000000000000000000000000000081526004018080602001828103825260148152602001807f42696473206d757374206265206e6f6e7a65726f00000000000000000000000081525060200191505060405180910390fd5b6000614c2a846133c7565b9050614c3f8187614b7c90919063ffffffff16565b614c528287614b7c90919063ffffffff16565b9250925050935093915050565b6000806003600084815260200190815260200160002060009054906101000a900473ffffffffffffffffffffffffffffffffffffffff169050600073ffffffffffffffffffffffffffffffffffffffff168173ffffffffffffffffffffffffffffffffffffffff1614158360405160200180807f4d697373696e6720616464726573733a2000000000000000000000000000000081525060110182815260200191505060405160208183030381529060405290614db7576040517f08c379a00000000000000000000000000000000000000000000000000000000081526004018080602001828103825283818151815260200191508051906020019080838360005b83811015614d7c578082015181840152602081019050614d61565b50505050905090810190601f168015614da95780820380516001836020036101000a031916815260200191505b509250505060405180910390fd5b5080915050919050565b6000614dec7f45786368616e6765526174657300000000000000000000000000000000000000614c5f565b905090565b600080600a8381614dfe57fe5b04614e128587614edb90919063ffffffff16565b81614e1957fe5b0490506005600a8281614e2857fe5b0610614e3557600a810190505b600a8181614e3f57fe5b049150509392505050565b6000614e7882614e6a601260ff16600a0a86614edb90919063ffffffff16565b614f6190919063ffffffff16565b905092915050565b600080614eab84614e9d600a860288614edb90919063ffffffff16565b614f6190919063ffffffff16565b90506005600a8281614eb957fe5b0610614ec657600a810190505b600a8181614ed057fe5b049150509392505050565b600080831415614eee5760009050614f5b565b6000828402905082848281614eff57fe5b0414614f56576040517f08c379a00000000000000000000000000000000000000000000000000000000081526004018080602001828103825260218152602001806150576021913960400191505060405180910390fd5b809150505b92915050565b6000808211614fd8576040517f08c379a000000000000000000000000000000000000000000000000000000000815260040180806020018281038252601a8152602001807f536166654d6174683a206469766973696f6e206279207a65726f00000000000081525060200191505060405180910390fd5b6000828481614fe357fe5b0490508091505092915050565bfefe596f75206d757374206265206e6f6d696e61746564206265666f726520796f752063616e20616363657074206f776e6572736869704f6e6c792074686520636f6e7472616374206f776e6572206d617920706572666f726d207468697320616374696f6e536166654d6174683a206d756c7469706c69636174696f6e206f766572666c6f775468697320616374696f6e2063616e6e6f7420626520706572666f726d6564207768696c652074686520636f6e747261637420697320706175736564a265627a7a72315820ba01683f46e3c12b2825f6fd3ce616436ad5978e982d31194007b5a0503bf4c164736f6c63430005100032608060405234801561001057600080fd5b50604051611ea4380380611ea48339818101604052604081101561003357600080fd5b810190808051906020019092919080519060200190929190505050336000806101000a81548173ffffffffffffffffffffffffffffffffffffffff021916908373ffffffffffffffffffffffffffffffffffffffff16021790555080600160008473ffffffffffffffffffffffffffffffffffffffff1673ffffffffffffffffffffffffffffffffffffffff16815260200190815260200160002081905550806002819055505050611dba806100ea6000396000f3fe608060405234801561001057600080fd5b50600436106101215760003560e01c806370a08231116100ad5780639c3ee244116100715780639c3ee244146105be578063a9059cbb14610616578063c8db233e1461067c578063d6ff02e2146106c0578063dd62ed3e146106de57610121565b806370a082311461042357806380f556051461047b5780638b034136146104c55780638dc30b70146104e357806395d89b411461053b57610121565b806323b872dd116100f457806323b872dd146102715780632bc43fd9146102f7578063313ce56714610363578063410085df1461038757806359d667a5146103d557610121565b806306fdde0314610126578063095ea7b3146101a957806318160ddd1461020f5780631b15982a1461022d575b600080fd5b61012e610756565b6040518080602001828103825283818151815260200191508051906020019080838360005b8381101561016e578082015181840152602081019050610153565b50505050905090810190601f16801561019b5780820380516001836020036101000a031916815260200191505b509250505060405180910390f35b6101f5600480360360408110156101bf57600080fd5b81019080803573ffffffffffffffffffffffffffffffffffffffff1690602001909291908035906020019092919050505061078f565b604051808215151515815260200191505060405180910390f35b6102176108ba565b6040518082815260200191505060405180910390f35b61026f6004803603602081101561024357600080fd5b81019080803573ffffffffffffffffffffffffffffffffffffffff1690602001909291905050506108c0565b005b6102dd6004803603606081101561028757600080fd5b81019080803573ffffffffffffffffffffffffffffffffffffffff169060200190929190803573ffffffffffffffffffffffffffffffffffffffff16906020019092919080359060200190929190505050610aee565b604051808215151515815260200191505060405180910390f35b61034d6004803603606081101561030d57600080fd5b81019080803573ffffffffffffffffffffffffffffffffffffffff1690602001909291908035906020019092919080359060200190929190505050610c8e565b6040518082815260200191505060405180910390f35b61036b610f8a565b604051808260ff1660ff16815260200191505060405180910390f35b6103d36004803603604081101561039d57600080fd5b81019080803573ffffffffffffffffffffffffffffffffffffffff16906020019092919080359060200190929190505050610f8f565b005b610421600480360360408110156103eb57600080fd5b81019080803573ffffffffffffffffffffffffffffffffffffffff1690602001909291908035906020019092919050505061110d565b005b6104656004803603602081101561043957600080fd5b81019080803573ffffffffffffffffffffffffffffffffffffffff16906020019092919050505061128b565b6040518082815260200191505060405180910390f35b6104836112a3565b604051808273ffffffffffffffffffffffffffffffffffffffff1673ffffffffffffffffffffffffffffffffffffffff16815260200191505060405180910390f35b6104cd6112c8565b6040518082815260200191505060405180910390f35b610525600480360360208110156104f957600080fd5b81019080803573ffffffffffffffffffffffffffffffffffffffff1690602001909291905050506112ce565b6040518082815260200191505060405180910390f35b6105436112e6565b6040518080602001828103825283818151815260200191508051906020019080838360005b83811015610583578082015181840152602081019050610568565b50505050905090810190601f1680156105b05780820380516001836020036101000a031916815260200191505b509250505060405180910390f35b610600600480360360208110156105d457600080fd5b81019080803573ffffffffffffffffffffffffffffffffffffffff16906020019092919050505061131f565b6040518082815260200191505060405180910390f35b6106626004803603604081101561062c57600080fd5b81019080803573ffffffffffffffffffffffffffffffffffffffff16906020019092919080359060200190929190505050611426565b604051808215151515815260200191505060405180910390f35b6106be6004803603602081101561069257600080fd5b81019080803573ffffffffffffffffffffffffffffffffffffffff16906020019092919050505061143b565b005b6106c8611516565b6040518082815260200191505060405180910390f35b610740600480360360408110156106f457600080fd5b81019080803573ffffffffffffffffffffffffffffffffffffffff169060200190929190803573ffffffffffffffffffffffffffffffffffffffff1690602001909291905050506115d6565b6040518082815260200191505060405180910390f35b6040518060400160405280601181526020017f534e582042696e617279204f7074696f6e00000000000000000000000000000081525081565b60008073ffffffffffffffffffffffffffffffffffffffff168373ffffffffffffffffffffffffffffffffffffffff1614156107ca57600080fd5b81600560003373ffffffffffffffffffffffffffffffffffffffff1673ffffffffffffffffffffffffffffffffffffffff16815260200190815260200160002060008573ffffffffffffffffffffffffffffffffffffffff1673ffffffffffffffffffffffffffffffffffffffff168152602001908152602001600020819055508273ffffffffffffffffffffffffffffffffffffffff163373ffffffffffffffffffffffffffffffffffffffff167f8c5be1e5ebec7d5bd14f71427d1e84f3dd0314c0f7b2291e5b200ac8c7c3b925846040518082815260200191505060405180910390a36001905092915050565b60045481565b6000809054906101000a900473ffffffffffffffffffffffffffffffffffffffff1673ffffffffffffffffffffffffffffffffffffffff163373ffffffffffffffffffffffffffffffffffffffff1614610982576040517f08c379a00000000000000000000000000000000000000000000000000000000081526004018080602001828103825260138152602001807f4f6e6c79206d61726b657420616c6c6f7765640000000000000000000000000081525060200191505060405180910390fd5b6000600360008373ffffffffffffffffffffffffffffffffffffffff1673ffffffffffffffffffffffffffffffffffffffff16815260200190815260200160002054905060008114156109d55750610aeb565b6000600360008473ffffffffffffffffffffffffffffffffffffffff1673ffffffffffffffffffffffffffffffffffffffff16815260200190815260200160002081905550610a2f816004546115fb90919063ffffffff16565b600481905550600073ffffffffffffffffffffffffffffffffffffffff168273ffffffffffffffffffffffffffffffffffffffff167fddf252ad1be2c89b69c2b068fc378daa952ba7f163c4a11628f55a4df523b3ef836040518082815260200191505060405180910390a38173ffffffffffffffffffffffffffffffffffffffff167f696de425f79f4a40bc6d2122ca50507f0efbeabbff86a84871b7196ab8ea8df7826040518082815260200191505060405180910390a2505b50565b600080600560008673ffffffffffffffffffffffffffffffffffffffff1673ffffffffffffffffffffffffffffffffffffffff16815260200190815260200160002060003373ffffffffffffffffffffffffffffffffffffffff1673ffffffffffffffffffffffffffffffffffffffff16815260200190815260200160002054905080831115610be6576040517f08c379a00000000000000000000000000000000000000000000000000000000081526004018080602001828103825260168152602001807f496e73756666696369656e7420616c6c6f77616e63650000000000000000000081525060200191505060405180910390fd5b610bf983826115fb90919063ffffffff16565b600560008773ffffffffffffffffffffffffffffffffffffffff1673ffffffffffffffffffffffffffffffffffffffff16815260200190815260200160002060003373ffffffffffffffffffffffffffffffffffffffff1673ffffffffffffffffffffffffffffffffffffffff16815260200190815260200160002081905550610c84858585611684565b9150509392505050565b60008060009054906101000a900473ffffffffffffffffffffffffffffffffffffffff1673ffffffffffffffffffffffffffffffffffffffff163373ffffffffffffffffffffffffffffffffffffffff1614610d52576040517f08c379a00000000000000000000000000000000000000000000000000000000081526004018080602001828103825260138152602001807f4f6e6c79206d61726b657420616c6c6f7765640000000000000000000000000081525060200191505060405180910390fd5b6000600160008673ffffffffffffffffffffffffffffffffffffffff1673ffffffffffffffffffffffffffffffffffffffff1681526020019081526020016000205490506000610da38286866119f6565b90506000811415610db957600092505050610f83565b610dce826002546115fb90919063ffffffff16565b6002819055506000600160008873ffffffffffffffffffffffffffffffffffffffff1673ffffffffffffffffffffffffffffffffffffffff16815260200190815260200160002081905550610e2e81600454611aca90919063ffffffff16565b600481905550610e8681600360008973ffffffffffffffffffffffffffffffffffffffff1673ffffffffffffffffffffffffffffffffffffffff16815260200190815260200160002054611aca90919063ffffffff16565b600360008873ffffffffffffffffffffffffffffffffffffffff1673ffffffffffffffffffffffffffffffffffffffff168152602001908152602001600020819055508573ffffffffffffffffffffffffffffffffffffffff16600073ffffffffffffffffffffffffffffffffffffffff167fddf252ad1be2c89b69c2b068fc378daa952ba7f163c4a11628f55a4df523b3ef836040518082815260200191505060405180910390a38573ffffffffffffffffffffffffffffffffffffffff167fa59f12e354e8cd10bb74c559844c2dd69a5458e31fe56c7594c62ca57480509a826040518082815260200191505060405180910390a280925050505b9392505050565b601281565b6000809054906101000a900473ffffffffffffffffffffffffffffffffffffffff1673ffffffffffffffffffffffffffffffffffffffff163373ffffffffffffffffffffffffffffffffffffffff1614611051576040517f08c379a00000000000000000000000000000000000000000000000000000000081526004018080602001828103825260138152602001807f4f6e6c79206d61726b657420616c6c6f7765640000000000000000000000000081525060200191505060405180910390fd5b6110ab6110a682600160008673ffffffffffffffffffffffffffffffffffffffff1673ffffffffffffffffffffffffffffffffffffffff168152602001908152602001600020546115fb90919063ffffffff16565b611b52565b600160008473ffffffffffffffffffffffffffffffffffffffff1673ffffffffffffffffffffffffffffffffffffffff16815260200190815260200160002081905550611103816002546115fb90919063ffffffff16565b6002819055505050565b6000809054906101000a900473ffffffffffffffffffffffffffffffffffffffff1673ffffffffffffffffffffffffffffffffffffffff163373ffffffffffffffffffffffffffffffffffffffff16146111cf576040517f08c379a00000000000000000000000000000000000000000000000000000000081526004018080602001828103825260138152602001807f4f6e6c79206d61726b657420616c6c6f7765640000000000000000000000000081525060200191505060405180910390fd5b61122961122482600160008673ffffffffffffffffffffffffffffffffffffffff1673ffffffffffffffffffffffffffffffffffffffff16815260200190815260200160002054611aca90919063ffffffff16565b611b52565b600160008473ffffffffffffffffffffffffffffffffffffffff1673ffffffffffffffffffffffffffffffffffffffff1681526020019081526020016000208190555061128181600254611aca90919063ffffffff16565b6002819055505050565b60036020528060005260406000206000915090505481565b6000809054906101000a900473ffffffffffffffffffffffffffffffffffffffff1681565b60025481565b60016020528060005260406000206000915090505481565b6040518060400160405280600481526020017f734f50540000000000000000000000000000000000000000000000000000000081525081565b60008060008060009054906101000a900473ffffffffffffffffffffffffffffffffffffffff1673ffffffffffffffffffffffffffffffffffffffff1663c588f5266040518163ffffffff1660e01b8152600401604080518083038186803b15801561138a57600080fd5b505afa15801561139e573d6000803e3d6000fd5b505050506040513d60408110156113b457600080fd5b8101908080519060200190929190805190602001909291905050509150915061141d600160008673ffffffffffffffffffffffffffffffffffffffff1673ffffffffffffffffffffffffffffffffffffffff1681526020019081526020016000205483836119f6565b92505050919050565b6000611433338484611684565b905092915050565b6000809054906101000a900473ffffffffffffffffffffffffffffffffffffffff1673ffffffffffffffffffffffffffffffffffffffff163373ffffffffffffffffffffffffffffffffffffffff16146114fd576040517f08c379a00000000000000000000000000000000000000000000000000000000081526004018080602001828103825260138152602001807f4f6e6c79206d61726b657420616c6c6f7765640000000000000000000000000081525060200191505060405180910390fd5b8073ffffffffffffffffffffffffffffffffffffffff16ff5b6000806000809054906101000a900473ffffffffffffffffffffffffffffffffffffffff1673ffffffffffffffffffffffffffffffffffffffff1663c588f5266040518163ffffffff1660e01b8152600401604080518083038186803b15801561157f57600080fd5b505afa158015611593573d6000803e3d6000fd5b505050506040513d60408110156115a957600080fd5b8101908080519060200190929190805190602001909291905050509150506115d081611be4565b91505090565b6005602052816000526040600020602052806000526040600020600091509150505481565b600082821115611673576040517f08c379a000000000000000000000000000000000000000000000000000000000815260040180806020018281038252601e8152602001807f536166654d6174683a207375627472616374696f6e206f766572666c6f77000081525060200191505060405180910390fd5b600082840390508091505092915050565b60008060009054906101000a900473ffffffffffffffffffffffffffffffffffffffff1673ffffffffffffffffffffffffffffffffffffffff166327745bae6040518163ffffffff1660e01b815260040160006040518083038186803b1580156116ed57600080fd5b505afa158015611701573d6000803e3d6000fd5b50505050600073ffffffffffffffffffffffffffffffffffffffff168373ffffffffffffffffffffffffffffffffffffffff161415801561176e57503073ffffffffffffffffffffffffffffffffffffffff168373ffffffffffffffffffffffffffffffffffffffff1614155b6117e0576040517f08c379a000000000000000000000000000000000000000000000000000000000815260040180806020018281038252600f8152602001807f496e76616c69642061646472657373000000000000000000000000000000000081525060200191505060405180910390fd5b6000600360008673ffffffffffffffffffffffffffffffffffffffff1673ffffffffffffffffffffffffffffffffffffffff1681526020019081526020016000205490508083111561189a576040517f08c379a00000000000000000000000000000000000000000000000000000000081526004018080602001828103825260148152602001807f496e73756666696369656e742062616c616e636500000000000000000000000081525060200191505060405180910390fd5b6118ad83826115fb90919063ffffffff16565b600360008773ffffffffffffffffffffffffffffffffffffffff1673ffffffffffffffffffffffffffffffffffffffff1681526020019081526020016000208190555061194283600360008773ffffffffffffffffffffffffffffffffffffffff1673ffffffffffffffffffffffffffffffffffffffff16815260200190815260200160002054611aca90919063ffffffff16565b600360008673ffffffffffffffffffffffffffffffffffffffff1673ffffffffffffffffffffffffffffffffffffffff168152602001908152602001600020819055508373ffffffffffffffffffffffffffffffffffffffff168573ffffffffffffffffffffffffffffffffffffffff167fddf252ad1be2c89b69c2b068fc378daa952ba7f163c4a11628f55a4df523b3ef856040518082815260200191505060405180910390a360019150509392505050565b600080611a0c8486611c1990919063ffffffff16565b90506000611a1984611be4565b905060025486148015611a2d575060008614155b80611a385750600081145b15611a47578092505050611ac3565b80821115611abd576040517f08c379a00000000000000000000000000000000000000000000000000000000081526004018080602001828103825260128152602001807f737570706c79203c20636c61696d61626c65000000000000000000000000000081525060200191505060405180910390fd5b81925050505b9392505050565b600080828401905083811015611b48576040517f08c379a000000000000000000000000000000000000000000000000000000000815260040180806020018281038252601b8152602001807f536166654d6174683a206164646974696f6e206f766572666c6f77000000000081525060200191505060405180910390fd5b8091505092915050565b6000662386f26fc1000082101580611b6a5750600082145b611bdc576040517f08c379a000000000000000000000000000000000000000000000000000000000815260040180806020018281038252600f8152602001807f42616c616e6365203c2024302e3031000000000000000000000000000000000081525060200191505060405180910390fd5b819050919050565b6000806004549050808311611bfd576000915050611c14565b611c1081846115fb90919063ffffffff16565b9150505b919050565b6000611c4782611c39601260ff16600a0a86611c4f90919063ffffffff16565b611cd590919063ffffffff16565b905092915050565b600080831415611c625760009050611ccf565b6000828402905082848281611c7357fe5b0414611cca576040517f08c379a0000000000000000000000000000000000000000000000000000000008152600401808060200182810382526021815260200180611d656021913960400191505060405180910390fd5b809150505b92915050565b6000808211611d4c576040517f08c379a000000000000000000000000000000000000000000000000000000000815260040180806020018281038252601a8152602001807f536166654d6174683a206469766973696f6e206279207a65726f00000000000081525060200191505060405180910390fd5b6000828481611d5757fe5b049050809150509291505056fe536166654d6174683a206d756c7469706c69636174696f6e206f766572666c6f77a265627a7a72315820c003d0275e4f20f4122dedaa148f114b0f0214bf85b592b1279241b1691ac72e64736f6c63430005100032536166654d6174683a206d756c7469706c69636174696f6e206f766572666c6f77",
  "linkReferences": {
    "contracts/SafeDecimalMath.sol": {
      "SafeDecimalMath": [
        {
          "length": 20,
          "start": 1414
        },
        {
          "length": 20,
          "start": 13580
        },
        {
          "length": 20,
          "start": 16200
        },
        {
          "length": 20,
          "start": 16743
        }
      ]
    }
  },
  "deployedLinkReferences": {
    "contracts/SafeDecimalMath.sol": {
      "SafeDecimalMath": [
        {
          "length": 20,
          "start": 9894
        },
        {
          "length": 20,
          "start": 12514
        },
        {
          "length": 20,
          "start": 13057
        }
      ]
    }
  }
}