{
  "_format": "hh-sol-artifact-1",
  "contractName": "Depot",
  "sourceName": "contracts/Depot.sol",
  "abi": [
    {
      "inputs": [
        {
          "internalType": "address",
          "name": "_owner",
          "type": "address"
        },
        {
          "internalType": "address payable",
          "name": "_fundsWallet",
          "type": "address"
        },
        {
          "internalType": "address",
          "name": "_resolver",
          "type": "address"
        }
      ],
      "payable": false,
      "stateMutability": "nonpayable",
      "type": "constructor"
    },
    {
      "anonymous": false,
      "inputs": [
        {
          "indexed": false,
          "internalType": "bytes32",
          "name": "name",
          "type": "bytes32"
        },
        {
          "indexed": false,
          "internalType": "address",
          "name": "destination",
          "type": "address"
        }
      ],
      "name": "CacheUpdated",
      "type": "event"
    },
    {
      "anonymous": false,
      "inputs": [
        {
          "indexed": true,
          "internalType": "address",
          "name": "fromAddress",
          "type": "address"
        },
        {
          "indexed": true,
          "internalType": "address",
          "name": "toAddress",
          "type": "address"
        },
        {
          "indexed": false,
          "internalType": "uint256",
          "name": "fromETHAmount",
          "type": "uint256"
        },
        {
          "indexed": false,
          "internalType": "uint256",
          "name": "toAmount",
          "type": "uint256"
        },
        {
          "indexed": true,
          "internalType": "uint256",
          "name": "depositIndex",
          "type": "uint256"
        }
      ],
      "name": "ClearedDeposit",
      "type": "event"
    },
    {
      "anonymous": false,
      "inputs": [
        {
          "indexed": false,
          "internalType": "string",
          "name": "fromCurrency",
          "type": "string"
        },
        {
          "indexed": false,
          "internalType": "uint256",
          "name": "fromAmount",
          "type": "uint256"
        },
        {
          "indexed": false,
          "internalType": "string",
          "name": "toCurrency",
          "type": "string"
        },
        {
          "indexed": false,
          "internalType": "uint256",
          "name": "toAmount",
          "type": "uint256"
        }
      ],
      "name": "Exchange",
      "type": "event"
    },
    {
      "anonymous": false,
      "inputs": [
        {
          "indexed": false,
          "internalType": "address",
          "name": "newFundsWallet",
          "type": "address"
        }
      ],
      "name": "FundsWalletUpdated",
      "type": "event"
    },
    {
      "anonymous": false,
      "inputs": [
        {
          "indexed": false,
          "internalType": "uint256",
          "name": "amount",
          "type": "uint256"
        }
      ],
      "name": "MaxEthPurchaseUpdated",
      "type": "event"
    },
    {
      "anonymous": false,
      "inputs": [
        {
          "indexed": false,
          "internalType": "uint256",
          "name": "amount",
          "type": "uint256"
        }
      ],
      "name": "MinimumDepositAmountUpdated",
      "type": "event"
    },
    {
      "anonymous": false,
      "inputs": [
        {
          "indexed": true,
          "internalType": "address",
          "name": "receiver",
          "type": "address"
        },
        {
          "indexed": false,
          "internalType": "uint256",
          "name": "amount",
          "type": "uint256"
        }
      ],
      "name": "NonPayableContract",
      "type": "event"
    },
    {
      "anonymous": false,
      "inputs": [
        {
          "indexed": false,
          "internalType": "address",
          "name": "oldOwner",
          "type": "address"
        },
        {
          "indexed": false,
          "internalType": "address",
          "name": "newOwner",
          "type": "address"
        }
      ],
      "name": "OwnerChanged",
      "type": "event"
    },
    {
      "anonymous": false,
      "inputs": [
        {
          "indexed": false,
          "internalType": "address",
          "name": "newOwner",
          "type": "address"
        }
      ],
      "name": "OwnerNominated",
      "type": "event"
    },
    {
      "anonymous": false,
      "inputs": [
        {
          "indexed": false,
          "internalType": "bool",
          "name": "isPaused",
          "type": "bool"
        }
      ],
      "name": "PauseChanged",
      "type": "event"
    },
    {
      "anonymous": false,
      "inputs": [
        {
          "indexed": true,
          "internalType": "address",
          "name": "user",
          "type": "address"
        },
        {
          "indexed": false,
          "internalType": "uint256",
          "name": "amount",
          "type": "uint256"
        },
        {
          "indexed": true,
          "internalType": "uint256",
          "name": "depositIndex",
          "type": "uint256"
        }
      ],
      "name": "SynthDeposit",
      "type": "event"
    },
    {
      "anonymous": false,
      "inputs": [
        {
          "indexed": false,
          "internalType": "address",
          "name": "user",
          "type": "address"
        },
        {
          "indexed": false,
          "internalType": "uint256",
          "name": "amount",
          "type": "uint256"
        },
        {
          "indexed": false,
          "internalType": "uint256",
          "name": "minimum",
          "type": "uint256"
        }
      ],
      "name": "SynthDepositNotAccepted",
      "type": "event"
    },
    {
      "anonymous": false,
      "inputs": [
        {
          "indexed": true,
          "internalType": "address",
          "name": "user",
          "type": "address"
        },
        {
          "indexed": false,
          "internalType": "uint256",
          "name": "amount",
          "type": "uint256"
        },
        {
          "indexed": true,
          "internalType": "uint256",
          "name": "depositIndex",
          "type": "uint256"
        }
      ],
      "name": "SynthDepositRemoved",
      "type": "event"
    },
    {
      "anonymous": false,
      "inputs": [
        {
          "indexed": false,
          "internalType": "address",
          "name": "user",
          "type": "address"
        },
        {
          "indexed": false,
          "internalType": "uint256",
          "name": "amount",
          "type": "uint256"
        }
      ],
      "name": "SynthWithdrawal",
      "type": "event"
    },
    {
      "payable": true,
      "stateMutability": "payable",
      "type": "fallback"
    },
    {
      "constant": false,
      "inputs": [],
      "name": "acceptOwnership",
      "outputs": [],
      "payable": false,
      "stateMutability": "nonpayable",
      "type": "function"
    },
    {
      "constant": true,
      "inputs": [],
      "name": "depositEndIndex",
      "outputs": [
        {
          "internalType": "uint256",
          "name": "",
          "type": "uint256"
        }
      ],
      "payable": false,
      "stateMutability": "view",
      "type": "function"
    },
    {
      "constant": true,
      "inputs": [],
      "name": "depositStartIndex",
      "outputs": [
        {
          "internalType": "uint256",
          "name": "",
          "type": "uint256"
        }
      ],
      "payable": false,
      "stateMutability": "view",
      "type": "function"
    },
    {
      "constant": false,
      "inputs": [
        {
          "internalType": "uint256",
          "name": "amount",
          "type": "uint256"
        }
      ],
      "name": "depositSynths",
      "outputs": [],
      "payable": false,
      "stateMutability": "nonpayable",
      "type": "function"
    },
    {
      "constant": true,
      "inputs": [
        {
          "internalType": "uint256",
          "name": "",
          "type": "uint256"
        }
      ],
      "name": "deposits",
      "outputs": [
        {
          "internalType": "address payable",
          "name": "user",
          "type": "address"
        },
        {
          "internalType": "uint256",
          "name": "amount",
          "type": "uint256"
        }
      ],
      "payable": false,
      "stateMutability": "view",
      "type": "function"
    },
    {
      "constant": false,
      "inputs": [],
      "name": "exchangeEtherForSNX",
      "outputs": [
        {
          "internalType": "uint256",
          "name": "",
          "type": "uint256"
        }
      ],
      "payable": true,
      "stateMutability": "payable",
      "type": "function"
    },
    {
      "constant": false,
      "inputs": [
        {
          "internalType": "uint256",
          "name": "guaranteedEtherRate",
          "type": "uint256"
        },
        {
          "internalType": "uint256",
          "name": "guaranteedSynthetixRate",
          "type": "uint256"
        }
      ],
      "name": "exchangeEtherForSNXAtRate",
      "outputs": [
        {
          "internalType": "uint256",
          "name": "",
          "type": "uint256"
        }
      ],
      "payable": true,
      "stateMutability": "payable",
      "type": "function"
    },
    {
      "constant": false,
      "inputs": [],
      "name": "exchangeEtherForSynths",
      "outputs": [
        {
          "internalType": "uint256",
          "name": "",
          "type": "uint256"
        }
      ],
      "payable": true,
      "stateMutability": "payable",
      "type": "function"
    },
    {
      "constant": false,
      "inputs": [
        {
          "internalType": "uint256",
          "name": "guaranteedRate",
          "type": "uint256"
        }
      ],
      "name": "exchangeEtherForSynthsAtRate",
      "outputs": [
        {
          "internalType": "uint256",
          "name": "",
          "type": "uint256"
        }
      ],
      "payable": true,
      "stateMutability": "payable",
      "type": "function"
    },
    {
      "constant": false,
      "inputs": [
        {
          "internalType": "uint256",
          "name": "synthAmount",
          "type": "uint256"
        }
      ],
      "name": "exchangeSynthsForSNX",
      "outputs": [
        {
          "internalType": "uint256",
          "name": "",
          "type": "uint256"
        }
      ],
      "payable": false,
      "stateMutability": "nonpayable",
      "type": "function"
    },
    {
      "constant": false,
      "inputs": [
        {
          "internalType": "uint256",
          "name": "synthAmount",
          "type": "uint256"
        },
        {
          "internalType": "uint256",
          "name": "guaranteedRate",
          "type": "uint256"
        }
      ],
      "name": "exchangeSynthsForSNXAtRate",
      "outputs": [
        {
          "internalType": "uint256",
          "name": "",
          "type": "uint256"
        }
      ],
      "payable": false,
      "stateMutability": "nonpayable",
      "type": "function"
    },
    {
      "constant": true,
      "inputs": [],
      "name": "fundsWallet",
      "outputs": [
        {
          "internalType": "address payable",
          "name": "",
          "type": "address"
        }
      ],
      "payable": false,
      "stateMutability": "view",
      "type": "function"
    },
    {
      "constant": true,
      "inputs": [],
      "name": "isResolverCached",
      "outputs": [
        {
          "internalType": "bool",
          "name": "",
          "type": "bool"
        }
      ],
      "payable": false,
      "stateMutability": "view",
      "type": "function"
    },
    {
      "constant": true,
      "inputs": [],
      "name": "lastPauseTime",
      "outputs": [
        {
          "internalType": "uint256",
          "name": "",
          "type": "uint256"
        }
      ],
      "payable": false,
      "stateMutability": "view",
      "type": "function"
    },
    {
      "constant": true,
      "inputs": [],
      "name": "maxEthPurchase",
      "outputs": [
        {
          "internalType": "uint256",
          "name": "",
          "type": "uint256"
        }
      ],
      "payable": false,
      "stateMutability": "view",
      "type": "function"
    },
    {
      "constant": true,
      "inputs": [],
      "name": "minimumDepositAmount",
      "outputs": [
        {
          "internalType": "uint256",
          "name": "",
          "type": "uint256"
        }
      ],
      "payable": false,
      "stateMutability": "view",
      "type": "function"
    },
    {
      "constant": false,
      "inputs": [
        {
          "internalType": "address",
          "name": "_owner",
          "type": "address"
        }
      ],
      "name": "nominateNewOwner",
      "outputs": [],
      "payable": false,
      "stateMutability": "nonpayable",
      "type": "function"
    },
    {
      "constant": true,
      "inputs": [],
      "name": "nominatedOwner",
      "outputs": [
        {
          "internalType": "address",
          "name": "",
          "type": "address"
        }
      ],
      "payable": false,
      "stateMutability": "view",
      "type": "function"
    },
    {
      "constant": true,
      "inputs": [],
      "name": "owner",
      "outputs": [
        {
          "internalType": "address",
          "name": "",
          "type": "address"
        }
      ],
      "payable": false,
      "stateMutability": "view",
      "type": "function"
    },
    {
      "constant": true,
      "inputs": [],
      "name": "paused",
      "outputs": [
        {
          "internalType": "bool",
          "name": "",
          "type": "bool"
        }
      ],
      "payable": false,
      "stateMutability": "view",
      "type": "function"
    },
    {
      "constant": false,
      "inputs": [],
      "name": "rebuildCache",
      "outputs": [],
      "payable": false,
      "stateMutability": "nonpayable",
      "type": "function"
    },
    {
      "constant": true,
      "inputs": [],
      "name": "resolver",
      "outputs": [
        {
          "internalType": "contract AddressResolver",
          "name": "",
          "type": "address"
        }
      ],
      "payable": false,
      "stateMutability": "view",
      "type": "function"
    },
    {
      "constant": true,
      "inputs": [],
      "name": "resolverAddressesRequired",
      "outputs": [
        {
          "internalType": "bytes32[]",
          "name": "addresses",
          "type": "bytes32[]"
        }
      ],
      "payable": false,
      "stateMutability": "view",
      "type": "function"
    },
    {
      "constant": false,
      "inputs": [
        {
          "internalType": "address payable",
          "name": "_fundsWallet",
          "type": "address"
        }
      ],
      "name": "setFundsWallet",
      "outputs": [],
      "payable": false,
      "stateMutability": "nonpayable",
      "type": "function"
    },
    {
      "constant": false,
      "inputs": [
        {
          "internalType": "uint256",
          "name": "_maxEthPurchase",
          "type": "uint256"
        }
      ],
      "name": "setMaxEthPurchase",
      "outputs": [],
      "payable": false,
      "stateMutability": "nonpayable",
      "type": "function"
    },
    {
      "constant": false,
      "inputs": [
        {
          "internalType": "uint256",
          "name": "_amount",
          "type": "uint256"
        }
      ],
      "name": "setMinimumDepositAmount",
      "outputs": [],
      "payable": false,
      "stateMutability": "nonpayable",
      "type": "function"
    },
    {
      "constant": false,
      "inputs": [
        {
          "internalType": "bool",
          "name": "_paused",
          "type": "bool"
        }
      ],
      "name": "setPaused",
      "outputs": [],
      "payable": false,
      "stateMutability": "nonpayable",
      "type": "function"
    },
    {
      "constant": true,
      "inputs": [
        {
          "internalType": "address",
          "name": "",
          "type": "address"
        }
      ],
      "name": "smallDeposits",
      "outputs": [
        {
          "internalType": "uint256",
          "name": "",
          "type": "uint256"
        }
      ],
      "payable": false,
      "stateMutability": "view",
      "type": "function"
    },
    {
      "constant": true,
      "inputs": [
        {
          "internalType": "uint256",
          "name": "amount",
          "type": "uint256"
        }
      ],
      "name": "synthetixReceivedForEther",
      "outputs": [
        {
          "internalType": "uint256",
          "name": "",
          "type": "uint256"
        }
      ],
      "payable": false,
      "stateMutability": "view",
      "type": "function"
    },
    {
      "constant": true,
      "inputs": [
        {
          "internalType": "uint256",
          "name": "amount",
          "type": "uint256"
        }
      ],
      "name": "synthetixReceivedForSynths",
      "outputs": [
        {
          "internalType": "uint256",
          "name": "",
          "type": "uint256"
        }
      ],
      "payable": false,
      "stateMutability": "view",
      "type": "function"
    },
    {
      "constant": true,
      "inputs": [
        {
          "internalType": "uint256",
          "name": "amount",
          "type": "uint256"
        }
      ],
      "name": "synthsReceivedForEther",
      "outputs": [
        {
          "internalType": "uint256",
          "name": "",
          "type": "uint256"
        }
      ],
      "payable": false,
      "stateMutability": "view",
      "type": "function"
    },
    {
      "constant": true,
      "inputs": [],
      "name": "totalSellableDeposits",
      "outputs": [
        {
          "internalType": "uint256",
          "name": "",
          "type": "uint256"
        }
      ],
      "payable": false,
      "stateMutability": "view",
      "type": "function"
    },
    {
      "constant": false,
      "inputs": [],
      "name": "withdrawMyDepositedSynths",
      "outputs": [],
      "payable": false,
      "stateMutability": "nonpayable",
      "type": "function"
    },
    {
      "constant": false,
      "inputs": [
        {
          "internalType": "uint256",
          "name": "amount",
          "type": "uint256"
        }
      ],
      "name": "withdrawSynthetix",
      "outputs": [],
      "payable": false,
      "stateMutability": "nonpayable",
      "type": "function"
    }
  ],
  "bytecode": "0x608060405273__$b8d33eeb36ac0d1e81cd70156e0043e778$__63907af6c06040518163ffffffff1660e01b815260040160206040518083038186803b1580156200004957600080fd5b505af41580156200005e573d6000803e3d6000fd5b505050506040513d60208110156200007557600080fd5b8101908080519060200190929190505050603202600c5573__$b8d33eeb36ac0d1e81cd70156e0043e778$__63907af6c06040518163ffffffff1660e01b815260040160206040518083038186803b158015620000d157600080fd5b505af4158015620000e6573d6000803e3d6000fd5b505050506040513d6020811015620000fd57600080fd5b81019080805190602001909291905050506101f402600d553480156200012257600080fd5b5060405162004ff138038062004ff1833981810160405260608110156200014857600080fd5b810190808051906020019092919080519060200190929190805190602001909291905050508083600073ffffffffffffffffffffffffffffffffffffffff168173ffffffffffffffffffffffffffffffffffffffff16141562000213576040517f08c379a00000000000000000000000000000000000000000000000000000000081526004018080602001828103825260198152602001807f4f776e657220616464726573732063616e6e6f7420626520300000000000000081525060200191505060405180910390fd5b806000806101000a81548173ffffffffffffffffffffffffffffffffffffffff021916908373ffffffffffffffffffffffffffffffffffffffff1602179055507fb532073b38c83145e3e5135377a08bf9aab55bc0fd7c1179cd4fb995d2a5159c600082604051808373ffffffffffffffffffffffffffffffffffffffff1673ffffffffffffffffffffffffffffffffffffffff1681526020018273ffffffffffffffffffffffffffffffffffffffff1673ffffffffffffffffffffffffffffffffffffffff1681526020019250505060405180910390a150600073ffffffffffffffffffffffffffffffffffffffff166000809054906101000a900473ffffffffffffffffffffffffffffffffffffffff1673ffffffffffffffffffffffffffffffffffffffff161415620003b1576040517f08c379a00000000000000000000000000000000000000000000000000000000081526004018080602001828103825260118152602001807f4f776e6572206d7573742062652073657400000000000000000000000000000081525060200191505060405180910390fd5b600160048190555080600560006101000a81548173ffffffffffffffffffffffffffffffffffffffff021916908373ffffffffffffffffffffffffffffffffffffffff1602179055505081600760006101000a81548173ffffffffffffffffffffffffffffffffffffffff021916908373ffffffffffffffffffffffffffffffffffffffff160217905550505050614ba2806200044f6000396000f3fe6080604052600436106101f95760003560e01c806381b797dc1161010d578063b0c2cb96116100a0578063c8d889f21161006f578063c8d889f214610b61578063dc8fa6c214610bb0578063e6d76a7614610beb578063f852d39314610c26578063fd12167f14610c75576101f9565b8063b0c2cb9614610a3d578063b1338cc414610a96578063bb7df17214610ac1578063c6abb7c714610afc576101f9565b80639342c0eb116100dc5780639342c0eb146108e5578063a3d8829b14610931578063aab483d614610980578063b02c43d0146109bb576101f9565b806381b797dc146107e0578063899ffef4146107f75780638da5cb5b1461086357806391b4ded9146108ba576101f9565b80632194f3a2116101905780635c975abb1161015f5780635c975abb1461070757806364e39b87146107365780636d5ab4a91461078757806374185360146107b257806379ba5097146107c9576101f9565b80632194f3a2146105ff5780632af64bd3146106565780634d0387fb1461068557806353a47bb7146106b0576101f9565b80630c928f05116101cc5780630c928f05146105045780631627540c1461055357806316c38b3c146105a45780631f930115146105e1576101f9565b8063022794381461042257806304f3bcec14610440578063080c279a146104975780630c928bc2146104c2575b6001600460008282540192505081905550600060045490507f455448000000000000000000000000000000000000000000000000000000000061023a610ca0565b73ffffffffffffffffffffffffffffffffffffffff16632528f0fe826040518263ffffffff1660e01b81526004018082815260200191505060206040518083038186803b15801561028a57600080fd5b505afa15801561029e573d6000803e3d6000fd5b505050506040513d60208110156102b457600080fd5b810190808051906020019092919050505015610338576040517f08c379a000000000000000000000000000000000000000000000000000000000815260040180806020018281038252601b8152602001807f5261746520696e76616c6964206f72206e6f7420612073796e7468000000000081525060200191505060405180910390fd5b600360009054906101000a900460ff161561039e576040517f08c379a000000000000000000000000000000000000000000000000000000000815260040180806020018281038252603c815260200180614b0d603c913960400191505060405180910390fd5b6103a6610cd0565b5050600454811461041f576040517f08c379a000000000000000000000000000000000000000000000000000000000815260040180806020018281038252601f8152602001807f5265656e7472616e637947756172643a207265656e7472616e742063616c6c0081525060200191505060405180910390fd5b50005b61042a611893565b6040518082815260200191505060405180910390f35b34801561044c57600080fd5b50610455611b58565b604051808273ffffffffffffffffffffffffffffffffffffffff1673ffffffffffffffffffffffffffffffffffffffff16815260200191505060405180910390f35b3480156104a357600080fd5b506104ac611b7e565b6040518082815260200191505060405180910390f35b6104ee600480360360208110156104d857600080fd5b8101908080359060200190929190505050611b84565b6040518082815260200191505060405180910390f35b34801561051057600080fd5b5061053d6004803603602081101561052757600080fd5b8101908080359060200190929190505050611e2d565b6040518082815260200191505060405180910390f35b34801561055f57600080fd5b506105a26004803603602081101561057657600080fd5b81019080803573ffffffffffffffffffffffffffffffffffffffff169060200190929190505050611efb565b005b3480156105b057600080fd5b506105df600480360360208110156105c757600080fd5b81019080803515159060200190929190505050611faa565b005b6105e9612057565b6040518082815260200191505060405180910390f35b34801561060b57600080fd5b50610614612284565b604051808273ffffffffffffffffffffffffffffffffffffffff1673ffffffffffffffffffffffffffffffffffffffff16815260200191505060405180910390f35b34801561066257600080fd5b5061066b6122aa565b604051808215151515815260200191505060405180910390f35b34801561069157600080fd5b5061069a612482565b6040518082815260200191505060405180910390f35b3480156106bc57600080fd5b506106c5612488565b604051808273ffffffffffffffffffffffffffffffffffffffff1673ffffffffffffffffffffffffffffffffffffffff16815260200191505060405180910390f35b34801561071357600080fd5b5061071c6124ae565b604051808215151515815260200191505060405180910390f35b34801561074257600080fd5b506107856004803603602081101561075957600080fd5b81019080803573ffffffffffffffffffffffffffffffffffffffff1690602001909291905050506124c1565b005b34801561079357600080fd5b5061079c612592565b6040518082815260200191505060405180910390f35b3480156107be57600080fd5b506107c7612598565b005b3480156107d557600080fd5b506107de612801565b005b3480156107ec57600080fd5b506107f5612a27565b005b34801561080357600080fd5b5061080c612e08565b6040518080602001828103825283818151815260200191508051906020019060200280838360005b8381101561084f578082015181840152602081019050610834565b505050509050019250505060405180910390f35b34801561086f57600080fd5b50610878612eee565b604051808273ffffffffffffffffffffffffffffffffffffffff1673ffffffffffffffffffffffffffffffffffffffff16815260200191505060405180910390f35b3480156108c657600080fd5b506108cf612f13565b6040518082815260200191505060405180910390f35b61091b600480360360408110156108fb57600080fd5b810190808035906020019092919080359060200190929190505050612f19565b6040518082815260200191505060405180910390f35b34801561093d57600080fd5b5061096a6004803603602081101561095457600080fd5b81019080803590602001909291905050506133f5565b6040518082815260200191505060405180910390f35b34801561098c57600080fd5b506109b9600480360360208110156109a357600080fd5b81019080803590602001909291905050506134c3565b005b3480156109c757600080fd5b506109f4600480360360208110156109de57600080fd5b81019080803590602001909291905050506135e4565b604051808373ffffffffffffffffffffffffffffffffffffffff1673ffffffffffffffffffffffffffffffffffffffff1681526020018281526020019250505060405180910390f35b348015610a4957600080fd5b50610a8060048036036040811015610a6057600080fd5b810190808035906020019092919080359060200190929190505050613628565b6040518082815260200191505060405180910390f35b348015610aa257600080fd5b50610aab6138d3565b6040518082815260200191505060405180910390f35b348015610acd57600080fd5b50610afa60048036036020811015610ae457600080fd5b81019080803590602001909291905050506138d9565b005b348015610b0857600080fd5b50610b4b60048036036020811015610b1f57600080fd5b81019080803573ffffffffffffffffffffffffffffffffffffffff169060200190929190505050613924565b6040518082815260200191505060405180910390f35b348015610b6d57600080fd5b50610b9a60048036036020811015610b8457600080fd5b810190808035906020019092919050505061393c565b6040518082815260200191505060405180910390f35b348015610bbc57600080fd5b50610be960048036036020811015610bd357600080fd5b8101908080359060200190929190505050613a17565b005b348015610bf757600080fd5b50610c2460048036036020811015610c0e57600080fd5b8101908080359060200190929190505050613d4e565b005b348015610c3257600080fd5b50610c5f60048036036020811015610c4957600080fd5b8101908080359060200190929190505050613e44565b6040518082815260200191505060405180910390f35b348015610c8157600080fd5b50610c8a613fe4565b6040518082815260200191505060405180910390f35b6000610ccb7f45786368616e6765526174657300000000000000000000000000000000000000613fea565b905090565b6000600d54341115610d2d576040517f08c379a0000000000000000000000000000000000000000000000000000000008152600401808060200182810382526025815260200180614ab86025913960400191505060405180910390fd5b600080610df5610d3b610ca0565b73ffffffffffffffffffffffffffffffffffffffff1663ac82f6087f45544800000000000000000000000000000000000000000000000000000000006040518263ffffffff1660e01b81526004018082815260200191505060206040518083038186803b158015610dab57600080fd5b505afa158015610dbf573d6000803e3d6000fd5b505050506040513d6020811015610dd557600080fd5b81019080805190602001909291905050503461414c90919063ffffffff16565b90506000819050600060095490505b600082118015610e155750600a5481105b156116a157610e22614987565b600860008381526020019081526020016000206040518060400160405290816000820160009054906101000a900473ffffffffffffffffffffffffffffffffffffffff1673ffffffffffffffffffffffffffffffffffffffff1673ffffffffffffffffffffffffffffffffffffffff1681526020016001820154815250509050600073ffffffffffffffffffffffffffffffffffffffff16816000015173ffffffffffffffffffffffffffffffffffffffff161415610efc57610ef1600160095461417990919063ffffffff16565b600981905550611693565b82816020015111156112df576000610f2184836020015161420190919063ffffffff16565b90506040518060400160405280836000015173ffffffffffffffffffffffffffffffffffffffff168152602001828152506008600085815260200190815260200160002060008201518160000160006101000a81548173ffffffffffffffffffffffffffffffffffffffff021916908373ffffffffffffffffffffffffffffffffffffffff16021790555060208201518160010155905050610fce84600b5461420190919063ffffffff16565b600b81905550611099610fdf610ca0565b73ffffffffffffffffffffffffffffffffffffffff1663ac82f6087f45544800000000000000000000000000000000000000000000000000000000006040518263ffffffff1660e01b81526004018082815260200191505060206040518083038186803b15801561104f57600080fd5b505afa158015611063573d6000803e3d6000fd5b505050506040513d602081101561107957600080fd5b81019080805190602001909291905050508561428a90919063ffffffff16565b9550816000015173ffffffffffffffffffffffffffffffffffffffff166108fc879081150290604051600060405180830381858888f1935050505061119857600760009054906101000a900473ffffffffffffffffffffffffffffffffffffffff1673ffffffffffffffffffffffffffffffffffffffff166108fc879081150290604051600060405180830381858888f19350505050158015611140573d6000803e3d6000fd5b50816000015173ffffffffffffffffffffffffffffffffffffffff167ff2435d3901399daa085f8b58d2409fff9b83ce4ca97c1f144b532f5a08b1c96c876040518082815260200191505060405180910390a261120b565b82826000015173ffffffffffffffffffffffffffffffffffffffff163373ffffffffffffffffffffffffffffffffffffffff167f6d957e9e816107f67cb7118461e3c259e96896f80223c9af2972596c2fdd401c8988604051808381526020018281526020019250505060405180910390a45b6112136142c0565b73ffffffffffffffffffffffffffffffffffffffff1663a9059cbb33866040518363ffffffff1660e01b8152600401808373ffffffffffffffffffffffffffffffffffffffff1673ffffffffffffffffffffffffffffffffffffffff16815260200182815260200192505050602060405180830381600087803b15801561129957600080fd5b505af11580156112ad573d6000803e3d6000fd5b505050506040513d60208110156112c357600080fd5b8101908080519060200190929190505050506000935050611692565b828160200151116116915760086000838152602001908152602001600020600080820160006101000a81549073ffffffffffffffffffffffffffffffffffffffff021916905560018201600090555050611345600160095461417990919063ffffffff16565b6009819055506113648160200151600b5461420190919063ffffffff16565b600b81905550611433611375610ca0565b73ffffffffffffffffffffffffffffffffffffffff1663ac82f6087f45544800000000000000000000000000000000000000000000000000000000006040518263ffffffff1660e01b81526004018082815260200191505060206040518083038186803b1580156113e557600080fd5b505afa1580156113f9573d6000803e3d6000fd5b505050506040513d602081101561140f57600080fd5b8101908080519060200190929190505050826020015161428a90919063ffffffff16565b9450806000015173ffffffffffffffffffffffffffffffffffffffff166108fc869081150290604051600060405180830381858888f1935050505061153257600760009054906101000a900473ffffffffffffffffffffffffffffffffffffffff1673ffffffffffffffffffffffffffffffffffffffff166108fc869081150290604051600060405180830381858888f193505050501580156114da573d6000803e3d6000fd5b50806000015173ffffffffffffffffffffffffffffffffffffffff167ff2435d3901399daa085f8b58d2409fff9b83ce4ca97c1f144b532f5a08b1c96c866040518082815260200191505060405180910390a26115a9565b81816000015173ffffffffffffffffffffffffffffffffffffffff163373ffffffffffffffffffffffffffffffffffffffff167f6d957e9e816107f67cb7118461e3c259e96896f80223c9af2972596c2fdd401c888560200151604051808381526020018281526020019250505060405180910390a45b6115b16142c0565b73ffffffffffffffffffffffffffffffffffffffff1663a9059cbb3383602001516040518363ffffffff1660e01b8152600401808373ffffffffffffffffffffffffffffffffffffffff1673ffffffffffffffffffffffffffffffffffffffff16815260200182815260200192505050602060405180830381600087803b15801561163b57600080fd5b505af115801561164f573d6000803e3d6000fd5b505050506040513d602081101561166557600080fd5b81019080805190602001909291905050505061168e81602001518461420190919063ffffffff16565b92505b5b5b508080600101915050610e04565b5060008111156117b7573373ffffffffffffffffffffffffffffffffffffffff166108fc61178a6116d0610ca0565b73ffffffffffffffffffffffffffffffffffffffff1663ac82f6087f45544800000000000000000000000000000000000000000000000000000000006040518263ffffffff1660e01b81526004018082815260200191505060206040518083038186803b15801561174057600080fd5b505afa158015611754573d6000803e3d6000fd5b505050506040513d602081101561176a57600080fd5b81019080805190602001909291905050508461428a90919063ffffffff16565b9081150290604051600060405180830381858888f193505050501580156117b5573d6000803e3d6000fd5b505b60006117cc828461420190919063ffffffff16565b90506000811115611889577fdb1741ffc6844b04a9284bb6337fb0ccfe543a493ef0ac8e725242201e93d4bd3482604051808060200184815260200180602001848152602001838103835260038152602001807f4554480000000000000000000000000000000000000000000000000000000000815250602001838103825260048152602001807f735553440000000000000000000000000000000000000000000000000000000081525060200194505050505060405180910390a15b8094505050505090565b60007f534e5800000000000000000000000000000000000000000000000000000000006118be610ca0565b73ffffffffffffffffffffffffffffffffffffffff16632528f0fe826040518263ffffffff1660e01b81526004018082815260200191505060206040518083038186803b15801561190e57600080fd5b505afa158015611922573d6000803e3d6000fd5b505050506040513d602081101561193857600080fd5b8101908080519060200190929190505050156119bc576040517f08c379a000000000000000000000000000000000000000000000000000000000815260040180806020018281038252601b8152602001807f5261746520696e76616c6964206f72206e6f7420612073796e7468000000000081525060200191505060405180910390fd5b7f45544800000000000000000000000000000000000000000000000000000000006119e5610ca0565b73ffffffffffffffffffffffffffffffffffffffff16632528f0fe826040518263ffffffff1660e01b81526004018082815260200191505060206040518083038186803b158015611a3557600080fd5b505afa158015611a49573d6000803e3d6000fd5b505050506040513d6020811015611a5f57600080fd5b810190808051906020019092919050505015611ae3576040517f08c379a000000000000000000000000000000000000000000000000000000000815260040180806020018281038252601b8152602001807f5261746520696e76616c6964206f72206e6f7420612073796e7468000000000081525060200191505060405180910390fd5b600360009054906101000a900460ff1615611b49576040517f08c379a000000000000000000000000000000000000000000000000000000000815260040180806020018281038252603c815260200180614b0d603c913960400191505060405180910390fd5b611b516142f0565b9250505090565b600560009054906101000a900473ffffffffffffffffffffffffffffffffffffffff1681565b600c5481565b60007f4554480000000000000000000000000000000000000000000000000000000000611baf610ca0565b73ffffffffffffffffffffffffffffffffffffffff16632528f0fe826040518263ffffffff1660e01b81526004018082815260200191505060206040518083038186803b158015611bff57600080fd5b505afa158015611c13573d6000803e3d6000fd5b505050506040513d6020811015611c2957600080fd5b810190808051906020019092919050505015611cad576040517f08c379a000000000000000000000000000000000000000000000000000000000815260040180806020018281038252601b8152602001807f5261746520696e76616c6964206f72206e6f7420612073796e7468000000000081525060200191505060405180910390fd5b600360009054906101000a900460ff1615611d13576040517f08c379a000000000000000000000000000000000000000000000000000000000815260040180806020018281038252603c815260200180614b0d603c913960400191505060405180910390fd5b611d1b610ca0565b73ffffffffffffffffffffffffffffffffffffffff1663ac82f6087f45544800000000000000000000000000000000000000000000000000000000006040518263ffffffff1660e01b81526004018082815260200191505060206040518083038186803b158015611d8b57600080fd5b505afa158015611d9f573d6000803e3d6000fd5b505050506040513d6020811015611db557600080fd5b81019080805190602001909291905050508314611e1d576040517f08c379a0000000000000000000000000000000000000000000000000000000008152600401808060200182810382526025815260200180614b496025913960400191505060405180910390fd5b611e25610cd0565b915050919050565b6000611ef4611e3a610ca0565b73ffffffffffffffffffffffffffffffffffffffff1663ac82f6087f45544800000000000000000000000000000000000000000000000000000000006040518263ffffffff1660e01b81526004018082815260200191505060206040518083038186803b158015611eaa57600080fd5b505afa158015611ebe573d6000803e3d6000fd5b505050506040513d6020811015611ed457600080fd5b81019080805190602001909291905050508361414c90919063ffffffff16565b9050919050565b611f036144e9565b80600160006101000a81548173ffffffffffffffffffffffffffffffffffffffff021916908373ffffffffffffffffffffffffffffffffffffffff1602179055507f906a1c6bd7e3091ea86693dd029a831c19049ce77f1dce2ce0bab1cacbabce2281604051808273ffffffffffffffffffffffffffffffffffffffff1673ffffffffffffffffffffffffffffffffffffffff16815260200191505060405180910390a150565b611fb26144e9565b600360009054906101000a900460ff1615158115151415611fd257612054565b80600360006101000a81548160ff021916908315150217905550600360009054906101000a900460ff161561200957426002819055505b7f8fb6c181ee25a520cf3dd6565006ef91229fcfe5a989566c2a3b8c115570cec5600360009054906101000a900460ff16604051808215151515815260200191505060405180910390a15b50565b60006001600460008282540192505081905550600060045490507f455448000000000000000000000000000000000000000000000000000000000061209a610ca0565b73ffffffffffffffffffffffffffffffffffffffff16632528f0fe826040518263ffffffff1660e01b81526004018082815260200191505060206040518083038186803b1580156120ea57600080fd5b505afa1580156120fe573d6000803e3d6000fd5b505050506040513d602081101561211457600080fd5b810190808051906020019092919050505015612198576040517f08c379a000000000000000000000000000000000000000000000000000000000815260040180806020018281038252601b8152602001807f5261746520696e76616c6964206f72206e6f7420612073796e7468000000000081525060200191505060405180910390fd5b600360009054906101000a900460ff16156121fe576040517f08c379a000000000000000000000000000000000000000000000000000000000815260040180806020018281038252603c815260200180614b0d603c913960400191505060405180910390fd5b612206610cd0565b9250506004548114612280576040517f08c379a000000000000000000000000000000000000000000000000000000000815260040180806020018281038252601f8152602001807f5265656e7472616e637947756172643a207265656e7472616e742063616c6c0081525060200191505060405180910390fd5b5090565b600760009054906101000a900473ffffffffffffffffffffffffffffffffffffffff1681565b600060606122b6612e08565b905060008090505b81518110156124785760008282815181106122d557fe5b602002602001015190506006600082815260200190815260200160002060009054906101000a900473ffffffffffffffffffffffffffffffffffffffff1673ffffffffffffffffffffffffffffffffffffffff16600560009054906101000a900473ffffffffffffffffffffffffffffffffffffffff1673ffffffffffffffffffffffffffffffffffffffff166321f8a721836040518263ffffffff1660e01b81526004018082815260200191505060206040518083038186803b15801561239c57600080fd5b505afa1580156123b0573d6000803e3d6000fd5b505050506040513d60208110156123c657600080fd5b810190808051906020019092919050505073ffffffffffffffffffffffffffffffffffffffff161415806124595750600073ffffffffffffffffffffffffffffffffffffffff166006600083815260200190815260200160002060009054906101000a900473ffffffffffffffffffffffffffffffffffffffff1673ffffffffffffffffffffffffffffffffffffffff16145b1561246a576000935050505061247f565b5080806001019150506122be565b5060019150505b90565b600b5481565b600160009054906101000a900473ffffffffffffffffffffffffffffffffffffffff1681565b600360009054906101000a900460ff1681565b6124c96144e9565b80600760006101000a81548173ffffffffffffffffffffffffffffffffffffffff021916908373ffffffffffffffffffffffffffffffffffffffff1602179055507f4deb077bf9c4bc824cc2c989e01a5e53b0a4ecc44c5039d46abc9ffc88f8a050600760009054906101000a900473ffffffffffffffffffffffffffffffffffffffff16604051808273ffffffffffffffffffffffffffffffffffffffff1673ffffffffffffffffffffffffffffffffffffffff16815260200191505060405180910390a150565b60095481565b60606125a2612e08565b905060008090505b81518110156127fd5760008282815181106125c157fe5b602002602001015190506000600560009054906101000a900473ffffffffffffffffffffffffffffffffffffffff1673ffffffffffffffffffffffffffffffffffffffff1663dacb2d01838460405160200180807f5265736f6c766572206d697373696e67207461726765743a20000000000000008152506019018281526020019150506040516020818303038152906040526040518363ffffffff1660e01b81526004018083815260200180602001828103825283818151815260200191508051906020019080838360005b838110156126a957808201518184015260208101905061268e565b50505050905090810190601f1680156126d65780820380516001836020036101000a031916815260200191505b50935050505060206040518083038186803b1580156126f457600080fd5b505afa158015612708573d6000803e3d6000fd5b505050506040513d602081101561271e57600080fd5b81019080805190602001909291905050509050806006600084815260200190815260200160002060006101000a81548173ffffffffffffffffffffffffffffffffffffffff021916908373ffffffffffffffffffffffffffffffffffffffff1602179055507f88a93678a3692f6789d9546fc621bf7234b101ddb7d4fe479455112831b8aa688282604051808381526020018273ffffffffffffffffffffffffffffffffffffffff1673ffffffffffffffffffffffffffffffffffffffff1681526020019250505060405180910390a1505080806001019150506125aa565b5050565b600160009054906101000a900473ffffffffffffffffffffffffffffffffffffffff1673ffffffffffffffffffffffffffffffffffffffff163373ffffffffffffffffffffffffffffffffffffffff16146128a7576040517f08c379a00000000000000000000000000000000000000000000000000000000081526004018080602001828103825260358152602001806149e36035913960400191505060405180910390fd5b7fb532073b38c83145e3e5135377a08bf9aab55bc0fd7c1179cd4fb995d2a5159c6000809054906101000a900473ffffffffffffffffffffffffffffffffffffffff16600160009054906101000a900473ffffffffffffffffffffffffffffffffffffffff16604051808373ffffffffffffffffffffffffffffffffffffffff1673ffffffffffffffffffffffffffffffffffffffff1681526020018273ffffffffffffffffffffffffffffffffffffffff1673ffffffffffffffffffffffffffffffffffffffff1681526020019250505060405180910390a1600160009054906101000a900473ffffffffffffffffffffffffffffffffffffffff166000806101000a81548173ffffffffffffffffffffffffffffffffffffffff021916908373ffffffffffffffffffffffffffffffffffffffff1602179055506000600160006101000a81548173ffffffffffffffffffffffffffffffffffffffff021916908373ffffffffffffffffffffffffffffffffffffffff160217905550565b6000809050600060095490505b600a54811015612bc257612a46614987565b600860008381526020019081526020016000206040518060400160405290816000820160009054906101000a900473ffffffffffffffffffffffffffffffffffffffff1673ffffffffffffffffffffffffffffffffffffffff1673ffffffffffffffffffffffffffffffffffffffff16815260200160018201548152505090503373ffffffffffffffffffffffffffffffffffffffff16816000015173ffffffffffffffffffffffffffffffffffffffff161415612bb457612b1581602001518461417990919063ffffffff16565b925060086000838152602001908152602001600020600080820160006101000a81549073ffffffffffffffffffffffffffffffffffffffff02191690556001820160009055505081816000015173ffffffffffffffffffffffffffffffffffffffff167f3aa2b18eace5e5727a4ab525921b9b0a1ca1afdb0f96b599e3ab2d76cb5e7f7283602001516040518082815260200191505060405180910390a35b508080600101915050612a34565b50612bd881600b5461420190919063ffffffff16565b600b81905550612c30600e60003373ffffffffffffffffffffffffffffffffffffffff1673ffffffffffffffffffffffffffffffffffffffff168152602001908152602001600020548261417990919063ffffffff16565b90506000600e60003373ffffffffffffffffffffffffffffffffffffffff1673ffffffffffffffffffffffffffffffffffffffff1681526020019081526020016000208190555060008111612cd0576040517f08c379a0000000000000000000000000000000000000000000000000000000008152600401808060200182810382526021815260200180614a476021913960400191505060405180910390fd5b612cd86142c0565b73ffffffffffffffffffffffffffffffffffffffff1663a9059cbb33836040518363ffffffff1660e01b8152600401808373ffffffffffffffffffffffffffffffffffffffff1673ffffffffffffffffffffffffffffffffffffffff16815260200182815260200192505050602060405180830381600087803b158015612d5e57600080fd5b505af1158015612d72573d6000803e3d6000fd5b505050506040513d6020811015612d8857600080fd5b8101908080519060200190929190505050507faf6ec623f558c7b3527ff6c9c09432c7d81a3d38bd2e1eaaee2efe7aac23c28b3382604051808373ffffffffffffffffffffffffffffffffffffffff1673ffffffffffffffffffffffffffffffffffffffff1681526020018281526020019250505060405180910390a150565b60606003604051908082528060200260200182016040528015612e3a5781602001602082028038833980820191505090505b5090507f53796e746873555344000000000000000000000000000000000000000000000081600081518110612e6b57fe5b6020026020010181815250507f45786368616e676552617465730000000000000000000000000000000000000081600181518110612ea557fe5b6020026020010181815250507f53796e746865746978000000000000000000000000000000000000000000000081600281518110612edf57fe5b60200260200101818152505090565b6000809054906101000a900473ffffffffffffffffffffffffffffffffffffffff1681565b60025481565b60007f534e580000000000000000000000000000000000000000000000000000000000612f44610ca0565b73ffffffffffffffffffffffffffffffffffffffff16632528f0fe826040518263ffffffff1660e01b81526004018082815260200191505060206040518083038186803b158015612f9457600080fd5b505afa158015612fa8573d6000803e3d6000fd5b505050506040513d6020811015612fbe57600080fd5b810190808051906020019092919050505015613042576040517f08c379a000000000000000000000000000000000000000000000000000000000815260040180806020018281038252601b8152602001807f5261746520696e76616c6964206f72206e6f7420612073796e7468000000000081525060200191505060405180910390fd5b7f455448000000000000000000000000000000000000000000000000000000000061306b610ca0565b73ffffffffffffffffffffffffffffffffffffffff16632528f0fe826040518263ffffffff1660e01b81526004018082815260200191505060206040518083038186803b1580156130bb57600080fd5b505afa1580156130cf573d6000803e3d6000fd5b505050506040513d60208110156130e557600080fd5b810190808051906020019092919050505015613169576040517f08c379a000000000000000000000000000000000000000000000000000000000815260040180806020018281038252601b8152602001807f5261746520696e76616c6964206f72206e6f7420612073796e7468000000000081525060200191505060405180910390fd5b600360009054906101000a900460ff16156131cf576040517f08c379a000000000000000000000000000000000000000000000000000000000815260040180806020018281038252603c815260200180614b0d603c913960400191505060405180910390fd5b6131d7610ca0565b73ffffffffffffffffffffffffffffffffffffffff1663ac82f6087f45544800000000000000000000000000000000000000000000000000000000006040518263ffffffff1660e01b81526004018082815260200191505060206040518083038186803b15801561324757600080fd5b505afa15801561325b573d6000803e3d6000fd5b505050506040513d602081101561327157600080fd5b810190808051906020019092919050505085146132d9576040517f08c379a000000000000000000000000000000000000000000000000000000000815260040180806020018281038252602b8152602001806149b8602b913960400191505060405180910390fd5b6132e1610ca0565b73ffffffffffffffffffffffffffffffffffffffff1663ac82f6087f534e5800000000000000000000000000000000000000000000000000000000006040518263ffffffff1660e01b81526004018082815260200191505060206040518083038186803b15801561335157600080fd5b505afa158015613365573d6000803e3d6000fd5b505050506040513d602081101561337b57600080fd5b810190808051906020019092919050505084146133e3576040517f08c379a000000000000000000000000000000000000000000000000000000000815260040180806020018281038252602f815260200180614a18602f913960400191505060405180910390fd5b6133eb6142f0565b9250505092915050565b60006134bc613402610ca0565b73ffffffffffffffffffffffffffffffffffffffff1663ac82f6087f534e5800000000000000000000000000000000000000000000000000000000006040518263ffffffff1660e01b81526004018082815260200191505060206040518083038186803b15801561347257600080fd5b505afa158015613486573d6000803e3d6000fd5b505050506040513d602081101561349c57600080fd5b81019080805190602001909291905050508361428a90919063ffffffff16565b9050919050565b6134cb6144e9565b73__$b8d33eeb36ac0d1e81cd70156e0043e778$__63907af6c06040518163ffffffff1660e01b815260040160206040518083038186803b15801561350f57600080fd5b505af4158015613523573d6000803e3d6000fd5b505050506040513d602081101561353957600080fd5b810190808051906020019092919050505081116135a1576040517f08c379a0000000000000000000000000000000000000000000000000000000008152600401808060200182810382526030815260200180614add6030913960400191505060405180910390fd5b80600c819055507fa39eacd162ee82c70b2b030a1bc8fe89adcccc61122fad4821a8772dbcc54267600c546040518082815260200191505060405180910390a150565b60086020528060005260406000206000915090508060000160009054906101000a900473ffffffffffffffffffffffffffffffffffffffff16908060010154905082565b60007f534e580000000000000000000000000000000000000000000000000000000000613653610ca0565b73ffffffffffffffffffffffffffffffffffffffff16632528f0fe826040518263ffffffff1660e01b81526004018082815260200191505060206040518083038186803b1580156136a357600080fd5b505afa1580156136b7573d6000803e3d6000fd5b505050506040513d60208110156136cd57600080fd5b810190808051906020019092919050505015613751576040517f08c379a000000000000000000000000000000000000000000000000000000000815260040180806020018281038252601b8152602001807f5261746520696e76616c6964206f72206e6f7420612073796e7468000000000081525060200191505060405180910390fd5b600360009054906101000a900460ff16156137b7576040517f08c379a000000000000000000000000000000000000000000000000000000000815260040180806020018281038252603c815260200180614b0d603c913960400191505060405180910390fd5b6137bf610ca0565b73ffffffffffffffffffffffffffffffffffffffff1663ac82f6087f534e5800000000000000000000000000000000000000000000000000000000006040518263ffffffff1660e01b81526004018082815260200191505060206040518083038186803b15801561382f57600080fd5b505afa158015613843573d6000803e3d6000fd5b505050506040513d602081101561385957600080fd5b810190808051906020019092919050505083146138c1576040517f08c379a0000000000000000000000000000000000000000000000000000000008152600401808060200182810382526025815260200180614b496025913960400191505060405180910390fd5b6138ca84614590565b91505092915050565b600d5481565b6138e16144e9565b80600d819055507fdc2be810a133e01cb21a41082f15b2863d96f9fe79d1f84d7e2d5b810c5c8243600d546040518082815260200191505060405180910390a150565b600e6020528060005260406000206000915090505481565b600080613a0461394a610ca0565b73ffffffffffffffffffffffffffffffffffffffff1663ac82f6087f45544800000000000000000000000000000000000000000000000000000000006040518263ffffffff1660e01b81526004018082815260200191505060206040518083038186803b1580156139ba57600080fd5b505afa1580156139ce573d6000803e3d6000fd5b505050506040513d60208110156139e457600080fd5b81019080805190602001909291905050508461414c90919063ffffffff16565b9050613a0f816133f5565b915050919050565b613a1f6142c0565b73ffffffffffffffffffffffffffffffffffffffff166323b872dd3330846040518463ffffffff1660e01b8152600401808473ffffffffffffffffffffffffffffffffffffffff1673ffffffffffffffffffffffffffffffffffffffff1681526020018373ffffffffffffffffffffffffffffffffffffffff1673ffffffffffffffffffffffffffffffffffffffff1681526020018281526020019350505050602060405180830381600087803b158015613ad957600080fd5b505af1158015613aed573d6000803e3d6000fd5b505050506040513d6020811015613b0357600080fd5b810190808051906020019092919050505050600c54811015613c2e57613b7181600e60003373ffffffffffffffffffffffffffffffffffffffff1673ffffffffffffffffffffffffffffffffffffffff1681526020019081526020016000205461417990919063ffffffff16565b600e60003373ffffffffffffffffffffffffffffffffffffffff1673ffffffffffffffffffffffffffffffffffffffff168152602001908152602001600020819055507fbc3a12638d840d60760c64b39c73985a6498cf6eb8176f124995b0e07236cbd23382600c54604051808473ffffffffffffffffffffffffffffffffffffffff1673ffffffffffffffffffffffffffffffffffffffff168152602001838152602001828152602001935050505060405180910390a1613d4b565b60405180604001604052803373ffffffffffffffffffffffffffffffffffffffff1681526020018281525060086000600a54815260200190815260200160002060008201518160000160006101000a81548173ffffffffffffffffffffffffffffffffffffffff021916908373ffffffffffffffffffffffffffffffffffffffff16021790555060208201518160010155905050600a543373ffffffffffffffffffffffffffffffffffffffff167fd9acabe6e09d178728ba5c366661c5be0621b4770f216305b059ec175b37e0b4836040518082815260200191505060405180910390a3613d296001600a5461417990919063ffffffff16565b600a81905550613d4481600b5461417990919063ffffffff16565b600b819055505b50565b613d566144e9565b613d5e614842565b73ffffffffffffffffffffffffffffffffffffffff1663a9059cbb6000809054906101000a900473ffffffffffffffffffffffffffffffffffffffff16836040518363ffffffff1660e01b8152600401808373ffffffffffffffffffffffffffffffffffffffff1673ffffffffffffffffffffffffffffffffffffffff16815260200182815260200192505050602060405180830381600087803b158015613e0557600080fd5b505af1158015613e19573d6000803e3d6000fd5b505050506040513d6020811015613e2f57600080fd5b81019080805190602001909291905050505050565b60007f534e580000000000000000000000000000000000000000000000000000000000613e6f610ca0565b73ffffffffffffffffffffffffffffffffffffffff16632528f0fe826040518263ffffffff1660e01b81526004018082815260200191505060206040518083038186803b158015613ebf57600080fd5b505afa158015613ed3573d6000803e3d6000fd5b505050506040513d6020811015613ee957600080fd5b810190808051906020019092919050505015613f6d576040517f08c379a000000000000000000000000000000000000000000000000000000000815260040180806020018281038252601b8152602001807f5261746520696e76616c6964206f72206e6f7420612073796e7468000000000081525060200191505060405180910390fd5b600360009054906101000a900460ff1615613fd3576040517f08c379a000000000000000000000000000000000000000000000000000000000815260040180806020018281038252603c815260200180614b0d603c913960400191505060405180910390fd5b613fdc83614590565b915050919050565b600a5481565b6000806006600084815260200190815260200160002060009054906101000a900473ffffffffffffffffffffffffffffffffffffffff169050600073ffffffffffffffffffffffffffffffffffffffff168173ffffffffffffffffffffffffffffffffffffffff1614158360405160200180807f4d697373696e6720616464726573733a2000000000000000000000000000000081525060110182815260200191505060405160208183030381529060405290614142576040517f08c379a00000000000000000000000000000000000000000000000000000000081526004018080602001828103825283818151815260200191508051906020019080838360005b838110156141075780820151818401526020810190506140ec565b50505050905090810190601f1680156141345780820380516001836020036101000a031916815260200191505b509250505060405180910390fd5b5080915050919050565b6000601260ff16600a0a614169838561487290919063ffffffff16565b8161417057fe5b04905092915050565b6000808284019050838110156141f7576040517f08c379a000000000000000000000000000000000000000000000000000000000815260040180806020018281038252601b8152602001807f536166654d6174683a206164646974696f6e206f766572666c6f77000000000081525060200191505060405180910390fd5b8091505092915050565b600082821115614279576040517f08c379a000000000000000000000000000000000000000000000000000000000815260040180806020018281038252601e8152602001807f536166654d6174683a207375627472616374696f6e206f766572666c6f77000081525060200191505060405180910390fd5b600082840390508091505092915050565b60006142b8826142aa601260ff16600a0a8661487290919063ffffffff16565b6148f890919063ffffffff16565b905092915050565b60006142eb7f53796e7468735553440000000000000000000000000000000000000000000000613fea565b905090565b6000806142fc3461393c565b9050600760009054906101000a900473ffffffffffffffffffffffffffffffffffffffff1673ffffffffffffffffffffffffffffffffffffffff166108fc349081150290604051600060405180830381858888f19350505050158015614366573d6000803e3d6000fd5b5061436f614842565b73ffffffffffffffffffffffffffffffffffffffff1663a9059cbb33836040518363ffffffff1660e01b8152600401808373ffffffffffffffffffffffffffffffffffffffff1673ffffffffffffffffffffffffffffffffffffffff16815260200182815260200192505050602060405180830381600087803b1580156143f557600080fd5b505af1158015614409573d6000803e3d6000fd5b505050506040513d602081101561441f57600080fd5b8101908080519060200190929190505050507fdb1741ffc6844b04a9284bb6337fb0ccfe543a493ef0ac8e725242201e93d4bd3482604051808060200184815260200180602001848152602001838103835260038152602001807f4554480000000000000000000000000000000000000000000000000000000000815250602001838103825260038152602001807f534e58000000000000000000000000000000000000000000000000000000000081525060200194505050505060405180910390a18091505090565b6000809054906101000a900473ffffffffffffffffffffffffffffffffffffffff1673ffffffffffffffffffffffffffffffffffffffff163373ffffffffffffffffffffffffffffffffffffffff161461458e576040517f08c379a000000000000000000000000000000000000000000000000000000000815260040180806020018281038252602f815260200180614a68602f913960400191505060405180910390fd5b565b60008061459c836133f5565b90506145a66142c0565b73ffffffffffffffffffffffffffffffffffffffff166323b872dd33600760009054906101000a900473ffffffffffffffffffffffffffffffffffffffff16866040518463ffffffff1660e01b8152600401808473ffffffffffffffffffffffffffffffffffffffff1673ffffffffffffffffffffffffffffffffffffffff1681526020018373ffffffffffffffffffffffffffffffffffffffff1673ffffffffffffffffffffffffffffffffffffffff1681526020018281526020019350505050602060405180830381600087803b15801561468257600080fd5b505af1158015614696573d6000803e3d6000fd5b505050506040513d60208110156146ac57600080fd5b8101908080519060200190929190505050506146c6614842565b73ffffffffffffffffffffffffffffffffffffffff1663a9059cbb33836040518363ffffffff1660e01b8152600401808373ffffffffffffffffffffffffffffffffffffffff1673ffffffffffffffffffffffffffffffffffffffff16815260200182815260200192505050602060405180830381600087803b15801561474c57600080fd5b505af1158015614760573d6000803e3d6000fd5b505050506040513d602081101561477657600080fd5b8101908080519060200190929190505050507fdb1741ffc6844b04a9284bb6337fb0ccfe543a493ef0ac8e725242201e93d4bd8382604051808060200184815260200180602001848152602001838103835260048152602001807f7355534400000000000000000000000000000000000000000000000000000000815250602001838103825260038152602001807f534e58000000000000000000000000000000000000000000000000000000000081525060200194505050505060405180910390a180915050919050565b600061486d7f53796e7468657469780000000000000000000000000000000000000000000000613fea565b905090565b60008083141561488557600090506148f2565b600082840290508284828161489657fe5b04146148ed576040517f08c379a0000000000000000000000000000000000000000000000000000000008152600401808060200182810382526021815260200180614a976021913960400191505060405180910390fd5b809150505b92915050565b600080821161496f576040517f08c379a000000000000000000000000000000000000000000000000000000000815260040180806020018281038252601a8152602001807f536166654d6174683a206469766973696f6e206279207a65726f00000000000081525060200191505060405180910390fd5b600082848161497a57fe5b0490508091505092915050565b6040518060400160405280600073ffffffffffffffffffffffffffffffffffffffff16815260200160008152509056fe47756172616e74656564206574686572207261746520776f756c64206e6f74206265207265636569766564596f75206d757374206265206e6f6d696e61746564206265666f726520796f752063616e20616363657074206f776e65727368697047756172616e746565642073796e746865746978207261746520776f756c64206e6f74206265207265636569766564596f752068617665206e6f206465706f7369747320746f2077697468647261772e4f6e6c792074686520636f6e7472616374206f776e6572206d617920706572666f726d207468697320616374696f6e536166654d6174683a206d756c7469706c69636174696f6e206f766572666c6f7745544820616d6f756e742061626f7665206d61784574685075726368617365206c696d69744d696e696d756d206465706f73697420616d6f756e74206d7573742062652067726561746572207468616e20554e49545468697320616374696f6e2063616e6e6f7420626520706572666f726d6564207768696c652074686520636f6e74726163742069732070617573656447756172616e74656564207261746520776f756c64206e6f74206265207265636569766564a265627a7a72315820833040503ac15590c99a6749d1ed643ccc22a7ab8f76544228d090163744120764736f6c63430005100032",
  "linkReferences": {
    "contracts/SafeDecimalMath.sol": {
      "SafeDecimalMath": [
        {
          "length": 20,
          "start": 6
        },
        {
          "length": 20,
          "start": 142
        },
        {
          "length": 20,
          "start": 14620
        }
      ]
    }
  },
  "deployedLinkReferences": {
    "contracts/SafeDecimalMath.sol": {
      "SafeDecimalMath": [
        {
          "length": 20,
          "start": 13517
        }
      ]
    }
  }
}