{
  "_format": "hh-sol-artifact-1",
  "contractName": "MockExchanger",
  "sourceName": "contracts/test-helpers/MockExchanger.sol",
  "abi": [
    {
      "inputs": [
        {
          "internalType": "contract ISynthetix",
          "name": "_synthetix",
          "type": "address"
        }
      ],
      "payable": false,
      "stateMutability": "nonpayable",
      "type": "constructor"
    },
    {
      "constant": true,
      "inputs": [
        {
          "internalType": "address",
          "name": "",
          "type": "address"
        },
        {
          "internalType": "bytes32",
          "name": "",
          "type": "bytes32"
        }
      ],
      "name": "hasWaitingPeriodOrSettlementOwing",
      "outputs": [
        {
          "internalType": "bool",
          "name": "",
          "type": "bool"
        }
      ],
      "payable": false,
      "stateMutability": "view",
      "type": "function"
    },
    {
      "constant": true,
      "inputs": [
        {
          "internalType": "address",
          "name": "",
          "type": "address"
        },
        {
          "internalType": "bytes32",
          "name": "",
          "type": "bytes32"
        }
      ],
      "name": "maxSecsLeftInWaitingPeriod",
      "outputs": [
        {
          "internalType": "uint256",
          "name": "",
          "type": "uint256"
        }
      ],
      "payable": false,
      "stateMutability": "view",
      "type": "function"
    },
    {
      "constant": false,
      "inputs": [
        {
          "internalType": "uint256",
          "name": "_maxSecsLeft",
          "type": "uint256"
        }
      ],
      "name": "setMaxSecsLeft",
      "outputs": [],
      "payable": false,
      "stateMutability": "nonpayable",
      "type": "function"
    },
    {
      "constant": false,
      "inputs": [
        {
          "internalType": "uint256",
          "name": "_numEntries",
          "type": "uint256"
        }
      ],
      "name": "setNumEntries",
      "outputs": [],
      "payable": false,
      "stateMutability": "nonpayable",
      "type": "function"
    },
    {
      "constant": false,
      "inputs": [
        {
          "internalType": "uint256",
          "name": "_reclaimAmount",
          "type": "uint256"
        }
      ],
      "name": "setReclaim",
      "outputs": [],
      "payable": false,
      "stateMutability": "nonpayable",
      "type": "function"
    },
    {
      "constant": false,
      "inputs": [
        {
          "internalType": "uint256",
          "name": "_refundAmount",
          "type": "uint256"
        }
      ],
      "name": "setRefund",
      "outputs": [],
      "payable": false,
      "stateMutability": "nonpayable",
      "type": "function"
    },
    {
      "constant": false,
      "inputs": [
        {
          "internalType": "address",
          "name": "from",
          "type": "address"
        },
        {
          "internalType": "bytes32",
          "name": "currencyKey",
          "type": "bytes32"
        }
      ],
      "name": "settle",
      "outputs": [
        {
          "internalType": "uint256",
          "name": "reclaimed",
          "type": "uint256"
        },
        {
          "internalType": "uint256",
          "name": "refunded",
          "type": "uint256"
        },
        {
          "internalType": "uint256",
          "name": "numEntriesSettled",
          "type": "uint256"
        }
      ],
      "payable": false,
      "stateMutability": "nonpayable",
      "type": "function"
    },
    {
      "constant": true,
      "inputs": [
        {
          "internalType": "address",
          "name": "",
          "type": "address"
        },
        {
          "internalType": "bytes32",
          "name": "",
          "type": "bytes32"
        }
      ],
      "name": "settlementOwing",
      "outputs": [
        {
          "internalType": "uint256",
          "name": "",
          "type": "uint256"
        },
        {
          "internalType": "uint256",
          "name": "",
          "type": "uint256"
        },
        {
          "internalType": "uint256",
          "name": "",
          "type": "uint256"
        }
      ],
      "payable": false,
      "stateMutability": "view",
      "type": "function"
    },
    {
      "constant": true,
      "inputs": [],
      "name": "synthetix",
      "outputs": [
        {
          "internalType": "contract ISynthetix",
          "name": "",
          "type": "address"
        }
      ],
      "payable": false,
      "stateMutability": "view",
      "type": "function"
    }
  ],
  "bytecode": "0x608060405234801561001057600080fd5b506040516107973803806107978339818101604052602081101561003357600080fd5b810190808051906020019092919050505080600460006101000a81548173ffffffffffffffffffffffffffffffffffffffff021916908373ffffffffffffffffffffffffffffffffffffffff16021790555050610702806100956000396000f3fe608060405234801561001057600080fd5b50600436106100935760003560e01c80636e0a6176116100665780636e0a617614610208578063759b522514610236578063bf9e3ed714610280578063d6f32e06146102ae578063f69b45fc1461031457610093565b8063059c29ec146100985780630cc9df5c146100fa57806319d5c665146101285780631b16802c14610198575b600080fd5b6100e4600480360360408110156100ae57600080fd5b81019080803573ffffffffffffffffffffffffffffffffffffffff16906020019092919080359060200190929190505050610342565b6040518082815260200191505060405180910390f35b6101266004803603602081101561011057600080fd5b810190808035906020019092919050505061034f565b005b6101746004803603604081101561013e57600080fd5b81019080803573ffffffffffffffffffffffffffffffffffffffff16906020019092919080359060200190929190505050610359565b60405180848152602001838152602001828152602001935050505060405180910390f35b6101e4600480360360408110156101ae57600080fd5b81019080803573ffffffffffffffffffffffffffffffffffffffff16906020019092919080359060200190929190505050610373565b60405180848152602001838152602001828152602001935050505060405180910390f35b6102346004803603602081101561021e57600080fd5b8101908080359060200190929190505050610649565b005b61023e610653565b604051808273ffffffffffffffffffffffffffffffffffffffff1673ffffffffffffffffffffffffffffffffffffffff16815260200191505060405180910390f35b6102ac6004803603602081101561029657600080fd5b8101908080359060200190929190505050610679565b005b6102fa600480360360408110156102c457600080fd5b81019080803573ffffffffffffffffffffffffffffffffffffffff16906020019092919080359060200190929190505050610683565b604051808215151515815260200191505060405180910390f35b6103406004803603602081101561032a57600080fd5b81019080803590602001909291905050506106c3565b005b6000600354905092915050565b8060018190555050565b600080600080546001546002549250925092509250925092565b60008060008060005411156104d157600460009054906101000a900473ffffffffffffffffffffffffffffffffffffffff1673ffffffffffffffffffffffffffffffffffffffff166332608039856040518263ffffffff1660e01b81526004018082815260200191505060206040518083038186803b1580156103f557600080fd5b505afa158015610409573d6000803e3d6000fd5b505050506040513d602081101561041f57600080fd5b810190808051906020019092919050505073ffffffffffffffffffffffffffffffffffffffff16639dc29fac866000546040518363ffffffff1660e01b8152600401808373ffffffffffffffffffffffffffffffffffffffff1673ffffffffffffffffffffffffffffffffffffffff16815260200182815260200192505050600060405180830381600087803b1580156104b857600080fd5b505af11580156104cc573d6000803e3d6000fd5b505050505b6000600154111561062b57600460009054906101000a900473ffffffffffffffffffffffffffffffffffffffff1673ffffffffffffffffffffffffffffffffffffffff166332608039856040518263ffffffff1660e01b81526004018082815260200191505060206040518083038186803b15801561054f57600080fd5b505afa158015610563573d6000803e3d6000fd5b505050506040513d602081101561057957600080fd5b810190808051906020019092919050505073ffffffffffffffffffffffffffffffffffffffff1663867904b4866001546040518363ffffffff1660e01b8152600401808373ffffffffffffffffffffffffffffffffffffffff1673ffffffffffffffffffffffffffffffffffffffff16815260200182815260200192505050600060405180830381600087803b15801561061257600080fd5b505af1158015610626573d6000803e3d6000fd5b505050505b60006003819055506000546001546002549250925092509250925092565b8060028190555050565b600460009054906101000a900473ffffffffffffffffffffffffffffffffffffffff1681565b8060008190555050565b600080600354111561069857600190506106bd565b6000805411806106aa57506000600154115b156106b857600190506106bd565b600090505b92915050565b806003819055505056fea265627a7a7231582092e1309fae9a42242ea76c9beec2185b546d79c078fb4c874aecb59c9d39c1d964736f6c63430005100032",
  "linkReferences": {},
  "deployedLinkReferences": {}
}