{
  "_format": "hh-sol-artifact-1",
  "contractName": "Collateral",
  "sourceName": "contracts/Collateral.sol",
  "abi": [
    {
      "inputs": [
        {
          "internalType": "contract CollateralState",
          "name": "_state",
          "type": "address"
        },
        {
          "internalType": "address",
          "name": "_owner",
          "type": "address"
        },
        {
          "internalType": "address",
          "name": "_manager",
          "type": "address"
        },
        {
          "internalType": "address",
          "name": "_resolver",
          "type": "address"
        },
        {
          "internalType": "bytes32",
          "name": "_collateralKey",
          "type": "bytes32"
        },
        {
          "internalType": "uint256",
          "name": "_minCratio",
          "type": "uint256"
        },
        {
          "internalType": "uint256",
          "name": "_minCollateral",
          "type": "uint256"
        }
      ],
      "payable": false,
      "stateMutability": "nonpayable",
      "type": "constructor"
    },
    {
      "anonymous": false,
      "inputs": [
        {
          "indexed": false,
          "internalType": "bytes32",
          "name": "name",
          "type": "bytes32"
        },
        {
          "indexed": false,
          "internalType": "address",
          "name": "destination",
          "type": "address"
        }
      ],
      "name": "CacheUpdated",
      "type": "event"
    },
    {
      "anonymous": false,
      "inputs": [
        {
          "indexed": false,
          "internalType": "bool",
          "name": "canOpenLoans",
          "type": "bool"
        }
      ],
      "name": "CanOpenLoansUpdated",
      "type": "event"
    },
    {
      "anonymous": false,
      "inputs": [
        {
          "indexed": true,
          "internalType": "address",
          "name": "account",
          "type": "address"
        },
        {
          "indexed": false,
          "internalType": "uint256",
          "name": "id",
          "type": "uint256"
        },
        {
          "indexed": false,
          "internalType": "uint256",
          "name": "amountDeposited",
          "type": "uint256"
        },
        {
          "indexed": false,
          "internalType": "uint256",
          "name": "collateralAfter",
          "type": "uint256"
        }
      ],
      "name": "CollateralDeposited",
      "type": "event"
    },
    {
      "anonymous": false,
      "inputs": [
        {
          "indexed": true,
          "internalType": "address",
          "name": "account",
          "type": "address"
        },
        {
          "indexed": false,
          "internalType": "uint256",
          "name": "id",
          "type": "uint256"
        },
        {
          "indexed": false,
          "internalType": "uint256",
          "name": "amountWithdrawn",
          "type": "uint256"
        },
        {
          "indexed": false,
          "internalType": "uint256",
          "name": "collateralAfter",
          "type": "uint256"
        }
      ],
      "name": "CollateralWithdrawn",
      "type": "event"
    },
    {
      "anonymous": false,
      "inputs": [
        {
          "indexed": false,
          "internalType": "uint256",
          "name": "interactionDelay",
          "type": "uint256"
        }
      ],
      "name": "InteractionDelayUpdated",
      "type": "event"
    },
    {
      "anonymous": false,
      "inputs": [
        {
          "indexed": false,
          "internalType": "uint256",
          "name": "issueFeeRate",
          "type": "uint256"
        }
      ],
      "name": "IssueFeeRateUpdated",
      "type": "event"
    },
    {
      "anonymous": false,
      "inputs": [
        {
          "indexed": true,
          "internalType": "address",
          "name": "account",
          "type": "address"
        },
        {
          "indexed": false,
          "internalType": "uint256",
          "name": "id",
          "type": "uint256"
        }
      ],
      "name": "LoanClosed",
      "type": "event"
    },
    {
      "anonymous": false,
      "inputs": [
        {
          "indexed": true,
          "internalType": "address",
          "name": "account",
          "type": "address"
        },
        {
          "indexed": false,
          "internalType": "uint256",
          "name": "id",
          "type": "uint256"
        },
        {
          "indexed": true,
          "internalType": "address",
          "name": "liquidator",
          "type": "address"
        },
        {
          "indexed": false,
          "internalType": "uint256",
          "name": "amountLiquidated",
          "type": "uint256"
        },
        {
          "indexed": false,
          "internalType": "uint256",
          "name": "collateralLiquidated",
          "type": "uint256"
        }
      ],
      "name": "LoanClosedByLiquidation",
      "type": "event"
    },
    {
      "anonymous": false,
      "inputs": [
        {
          "indexed": true,
          "internalType": "address",
          "name": "account",
          "type": "address"
        },
        {
          "indexed": false,
          "internalType": "uint256",
          "name": "id",
          "type": "uint256"
        },
        {
          "indexed": false,
          "internalType": "uint256",
          "name": "amount",
          "type": "uint256"
        },
        {
          "indexed": false,
          "internalType": "uint256",
          "name": "collateral",
          "type": "uint256"
        },
        {
          "indexed": false,
          "internalType": "bytes32",
          "name": "currency",
          "type": "bytes32"
        },
        {
          "indexed": false,
          "internalType": "uint256",
          "name": "issuanceFee",
          "type": "uint256"
        }
      ],
      "name": "LoanCreated",
      "type": "event"
    },
    {
      "anonymous": false,
      "inputs": [
        {
          "indexed": true,
          "internalType": "address",
          "name": "account",
          "type": "address"
        },
        {
          "indexed": false,
          "internalType": "uint256",
          "name": "id",
          "type": "uint256"
        },
        {
          "indexed": false,
          "internalType": "uint256",
          "name": "amount",
          "type": "uint256"
        }
      ],
      "name": "LoanDrawnDown",
      "type": "event"
    },
    {
      "anonymous": false,
      "inputs": [
        {
          "indexed": true,
          "internalType": "address",
          "name": "account",
          "type": "address"
        },
        {
          "indexed": false,
          "internalType": "uint256",
          "name": "id",
          "type": "uint256"
        },
        {
          "indexed": false,
          "internalType": "address",
          "name": "liquidator",
          "type": "address"
        },
        {
          "indexed": false,
          "internalType": "uint256",
          "name": "amountLiquidated",
          "type": "uint256"
        },
        {
          "indexed": false,
          "internalType": "uint256",
          "name": "collateralLiquidated",
          "type": "uint256"
        }
      ],
      "name": "LoanPartiallyLiquidated",
      "type": "event"
    },
    {
      "anonymous": false,
      "inputs": [
        {
          "indexed": true,
          "internalType": "address",
          "name": "account",
          "type": "address"
        },
        {
          "indexed": true,
          "internalType": "address",
          "name": "repayer",
          "type": "address"
        },
        {
          "indexed": false,
          "internalType": "uint256",
          "name": "id",
          "type": "uint256"
        },
        {
          "indexed": false,
          "internalType": "uint256",
          "name": "amountRepaid",
          "type": "uint256"
        },
        {
          "indexed": false,
          "internalType": "uint256",
          "name": "amountAfter",
          "type": "uint256"
        }
      ],
      "name": "LoanRepaymentMade",
      "type": "event"
    },
    {
      "anonymous": false,
      "inputs": [
        {
          "indexed": false,
          "internalType": "address",
          "name": "manager",
          "type": "address"
        }
      ],
      "name": "ManagerUpdated",
      "type": "event"
    },
    {
      "anonymous": false,
      "inputs": [
        {
          "indexed": false,
          "internalType": "uint256",
          "name": "maxLoansPerAccount",
          "type": "uint256"
        }
      ],
      "name": "MaxLoansPerAccountUpdated",
      "type": "event"
    },
    {
      "anonymous": false,
      "inputs": [
        {
          "indexed": false,
          "internalType": "uint256",
          "name": "minCollateral",
          "type": "uint256"
        }
      ],
      "name": "MinCollateralUpdated",
      "type": "event"
    },
    {
      "anonymous": false,
      "inputs": [
        {
          "indexed": false,
          "internalType": "uint256",
          "name": "minCratio",
          "type": "uint256"
        }
      ],
      "name": "MinCratioRatioUpdated",
      "type": "event"
    },
    {
      "anonymous": false,
      "inputs": [
        {
          "indexed": false,
          "internalType": "address",
          "name": "oldOwner",
          "type": "address"
        },
        {
          "indexed": false,
          "internalType": "address",
          "name": "newOwner",
          "type": "address"
        }
      ],
      "name": "OwnerChanged",
      "type": "event"
    },
    {
      "anonymous": false,
      "inputs": [
        {
          "indexed": false,
          "internalType": "address",
          "name": "newOwner",
          "type": "address"
        }
      ],
      "name": "OwnerNominated",
      "type": "event"
    },
    {
      "constant": false,
      "inputs": [],
      "name": "acceptOwnership",
      "outputs": [],
      "payable": false,
      "stateMutability": "nonpayable",
      "type": "function"
    },
    {
      "constant": false,
      "inputs": [
        {
          "internalType": "address",
          "name": "rewardsContract",
          "type": "address"
        },
        {
          "internalType": "bytes32",
          "name": "synth",
          "type": "bytes32"
        }
      ],
      "name": "addRewardsContracts",
      "outputs": [],
      "payable": false,
      "stateMutability": "nonpayable",
      "type": "function"
    },
    {
      "constant": false,
      "inputs": [
        {
          "internalType": "bytes32[]",
          "name": "_synthNamesInResolver",
          "type": "bytes32[]"
        },
        {
          "internalType": "bytes32[]",
          "name": "_synthKeys",
          "type": "bytes32[]"
        }
      ],
      "name": "addSynths",
      "outputs": [],
      "payable": false,
      "stateMutability": "nonpayable",
      "type": "function"
    },
    {
      "constant": true,
      "inputs": [
        {
          "internalType": "bytes32[]",
          "name": "_synthNamesInResolver",
          "type": "bytes32[]"
        },
        {
          "internalType": "bytes32[]",
          "name": "_synthKeys",
          "type": "bytes32[]"
        }
      ],
      "name": "areSynthsAndCurrenciesSet",
      "outputs": [
        {
          "internalType": "bool",
          "name": "",
          "type": "bool"
        }
      ],
      "payable": false,
      "stateMutability": "view",
      "type": "function"
    },
    {
      "constant": true,
      "inputs": [],
      "name": "canOpenLoans",
      "outputs": [
        {
          "internalType": "bool",
          "name": "",
          "type": "bool"
        }
      ],
      "payable": false,
      "stateMutability": "view",
      "type": "function"
    },
    {
      "constant": true,
      "inputs": [],
      "name": "collateralKey",
      "outputs": [
        {
          "internalType": "bytes32",
          "name": "",
          "type": "bytes32"
        }
      ],
      "payable": false,
      "stateMutability": "view",
      "type": "function"
    },
    {
      "constant": true,
      "inputs": [
        {
          "components": [
            {
              "internalType": "uint256",
              "name": "id",
              "type": "uint256"
            },
            {
              "internalType": "address payable",
              "name": "account",
              "type": "address"
            },
            {
              "internalType": "uint256",
              "name": "collateral",
              "type": "uint256"
            },
            {
              "internalType": "bytes32",
              "name": "currency",
              "type": "bytes32"
            },
            {
              "internalType": "uint256",
              "name": "amount",
              "type": "uint256"
            },
            {
              "internalType": "bool",
              "name": "short",
              "type": "bool"
            },
            {
              "internalType": "uint256",
              "name": "accruedInterest",
              "type": "uint256"
            },
            {
              "internalType": "uint256",
              "name": "interestIndex",
              "type": "uint256"
            },
            {
              "internalType": "uint256",
              "name": "lastInteraction",
              "type": "uint256"
            }
          ],
          "internalType": "struct ICollateralLoan.Loan",
          "name": "loan",
          "type": "tuple"
        }
      ],
      "name": "collateralRatio",
      "outputs": [
        {
          "internalType": "uint256",
          "name": "cratio",
          "type": "uint256"
        }
      ],
      "payable": false,
      "stateMutability": "view",
      "type": "function"
    },
    {
      "constant": true,
      "inputs": [
        {
          "internalType": "bytes32",
          "name": "currency",
          "type": "bytes32"
        },
        {
          "internalType": "uint256",
          "name": "amount",
          "type": "uint256"
        }
      ],
      "name": "collateralRedeemed",
      "outputs": [
        {
          "internalType": "uint256",
          "name": "collateral",
          "type": "uint256"
        }
      ],
      "payable": false,
      "stateMutability": "view",
      "type": "function"
    },
    {
      "constant": true,
      "inputs": [],
      "name": "interactionDelay",
      "outputs": [
        {
          "internalType": "uint256",
          "name": "",
          "type": "uint256"
        }
      ],
      "payable": false,
      "stateMutability": "view",
      "type": "function"
    },
    {
      "constant": true,
      "inputs": [],
      "name": "isResolverCached",
      "outputs": [
        {
          "internalType": "bool",
          "name": "",
          "type": "bool"
        }
      ],
      "payable": false,
      "stateMutability": "view",
      "type": "function"
    },
    {
      "constant": true,
      "inputs": [],
      "name": "issueFeeRate",
      "outputs": [
        {
          "internalType": "uint256",
          "name": "",
          "type": "uint256"
        }
      ],
      "payable": false,
      "stateMutability": "view",
      "type": "function"
    },
    {
      "constant": true,
      "inputs": [
        {
          "components": [
            {
              "internalType": "uint256",
              "name": "id",
              "type": "uint256"
            },
            {
              "internalType": "address payable",
              "name": "account",
              "type": "address"
            },
            {
              "internalType": "uint256",
              "name": "collateral",
              "type": "uint256"
            },
            {
              "internalType": "bytes32",
              "name": "currency",
              "type": "bytes32"
            },
            {
              "internalType": "uint256",
              "name": "amount",
              "type": "uint256"
            },
            {
              "internalType": "bool",
              "name": "short",
              "type": "bool"
            },
            {
              "internalType": "uint256",
              "name": "accruedInterest",
              "type": "uint256"
            },
            {
              "internalType": "uint256",
              "name": "interestIndex",
              "type": "uint256"
            },
            {
              "internalType": "uint256",
              "name": "lastInteraction",
              "type": "uint256"
            }
          ],
          "internalType": "struct ICollateralLoan.Loan",
          "name": "loan",
          "type": "tuple"
        }
      ],
      "name": "liquidationAmount",
      "outputs": [
        {
          "internalType": "uint256",
          "name": "amount",
          "type": "uint256"
        }
      ],
      "payable": false,
      "stateMutability": "view",
      "type": "function"
    },
    {
      "constant": true,
      "inputs": [],
      "name": "manager",
      "outputs": [
        {
          "internalType": "address",
          "name": "",
          "type": "address"
        }
      ],
      "payable": false,
      "stateMutability": "view",
      "type": "function"
    },
    {
      "constant": true,
      "inputs": [
        {
          "internalType": "uint256",
          "name": "amount",
          "type": "uint256"
        },
        {
          "internalType": "bytes32",
          "name": "currency",
          "type": "bytes32"
        }
      ],
      "name": "maxLoan",
      "outputs": [
        {
          "internalType": "uint256",
          "name": "max",
          "type": "uint256"
        }
      ],
      "payable": false,
      "stateMutability": "view",
      "type": "function"
    },
    {
      "constant": true,
      "inputs": [],
      "name": "maxLoansPerAccount",
      "outputs": [
        {
          "internalType": "uint256",
          "name": "",
          "type": "uint256"
        }
      ],
      "payable": false,
      "stateMutability": "view",
      "type": "function"
    },
    {
      "constant": true,
      "inputs": [],
      "name": "minCollateral",
      "outputs": [
        {
          "internalType": "uint256",
          "name": "",
          "type": "uint256"
        }
      ],
      "payable": false,
      "stateMutability": "view",
      "type": "function"
    },
    {
      "constant": true,
      "inputs": [],
      "name": "minCratio",
      "outputs": [
        {
          "internalType": "uint256",
          "name": "",
          "type": "uint256"
        }
      ],
      "payable": false,
      "stateMutability": "view",
      "type": "function"
    },
    {
      "constant": false,
      "inputs": [
        {
          "internalType": "address",
          "name": "_owner",
          "type": "address"
        }
      ],
      "name": "nominateNewOwner",
      "outputs": [],
      "payable": false,
      "stateMutability": "nonpayable",
      "type": "function"
    },
    {
      "constant": true,
      "inputs": [],
      "name": "nominatedOwner",
      "outputs": [
        {
          "internalType": "address",
          "name": "",
          "type": "address"
        }
      ],
      "payable": false,
      "stateMutability": "view",
      "type": "function"
    },
    {
      "constant": true,
      "inputs": [],
      "name": "owner",
      "outputs": [
        {
          "internalType": "address",
          "name": "",
          "type": "address"
        }
      ],
      "payable": false,
      "stateMutability": "view",
      "type": "function"
    },
    {
      "constant": false,
      "inputs": [],
      "name": "rebuildCache",
      "outputs": [],
      "payable": false,
      "stateMutability": "nonpayable",
      "type": "function"
    },
    {
      "constant": true,
      "inputs": [],
      "name": "resolver",
      "outputs": [
        {
          "internalType": "contract AddressResolver",
          "name": "",
          "type": "address"
        }
      ],
      "payable": false,
      "stateMutability": "view",
      "type": "function"
    },
    {
      "constant": true,
      "inputs": [],
      "name": "resolverAddressesRequired",
      "outputs": [
        {
          "internalType": "bytes32[]",
          "name": "addresses",
          "type": "bytes32[]"
        }
      ],
      "payable": false,
      "stateMutability": "view",
      "type": "function"
    },
    {
      "constant": false,
      "inputs": [
        {
          "internalType": "bool",
          "name": "_canOpenLoans",
          "type": "bool"
        }
      ],
      "name": "setCanOpenLoans",
      "outputs": [],
      "payable": false,
      "stateMutability": "nonpayable",
      "type": "function"
    },
    {
      "constant": false,
      "inputs": [
        {
          "internalType": "uint256",
          "name": "_interactionDelay",
          "type": "uint256"
        }
      ],
      "name": "setInteractionDelay",
      "outputs": [],
      "payable": false,
      "stateMutability": "nonpayable",
      "type": "function"
    },
    {
      "constant": false,
      "inputs": [
        {
          "internalType": "uint256",
          "name": "_issueFeeRate",
          "type": "uint256"
        }
      ],
      "name": "setIssueFeeRate",
      "outputs": [],
      "payable": false,
      "stateMutability": "nonpayable",
      "type": "function"
    },
    {
      "constant": false,
      "inputs": [
        {
          "internalType": "address",
          "name": "_newManager",
          "type": "address"
        }
      ],
      "name": "setManager",
      "outputs": [],
      "payable": false,
      "stateMutability": "nonpayable",
      "type": "function"
    },
    {
      "constant": false,
      "inputs": [
        {
          "internalType": "uint256",
          "name": "_minCratio",
          "type": "uint256"
        }
      ],
      "name": "setMinCratio",
      "outputs": [],
      "payable": false,
      "stateMutability": "nonpayable",
      "type": "function"
    },
    {
      "constant": true,
      "inputs": [
        {
          "internalType": "bytes32",
          "name": "",
          "type": "bytes32"
        }
      ],
      "name": "shortingRewards",
      "outputs": [
        {
          "internalType": "address",
          "name": "",
          "type": "address"
        }
      ],
      "payable": false,
      "stateMutability": "view",
      "type": "function"
    },
    {
      "constant": true,
      "inputs": [],
      "name": "state",
      "outputs": [
        {
          "internalType": "contract CollateralState",
          "name": "",
          "type": "address"
        }
      ],
      "payable": false,
      "stateMutability": "view",
      "type": "function"
    },
    {
      "constant": true,
      "inputs": [
        {
          "internalType": "uint256",
          "name": "",
          "type": "uint256"
        }
      ],
      "name": "synths",
      "outputs": [
        {
          "internalType": "bytes32",
          "name": "",
          "type": "bytes32"
        }
      ],
      "payable": false,
      "stateMutability": "view",
      "type": "function"
    },
    {
      "constant": true,
      "inputs": [
        {
          "internalType": "bytes32",
          "name": "",
          "type": "bytes32"
        }
      ],
      "name": "synthsByKey",
      "outputs": [
        {
          "internalType": "bytes32",
          "name": "",
          "type": "bytes32"
        }
      ],
      "payable": false,
      "stateMutability": "view",
      "type": "function"
    }
  ],
  "bytecode": "0x60806040526032600d5561012c600e556001600f60006101000a81548160ff0219169083151502179055503480156200003757600080fd5b506040516200354c3803806200354c83398181016040526200005d919081019062000293565b838087600073ffffffffffffffffffffffffffffffffffffffff168173ffffffffffffffffffffffffffffffffffffffff161415620000d3576040517f08c379a0000000000000000000000000000000000000000000000000000000008152600401620000ca90620003d1565b60405180910390fd5b806000806101000a81548173ffffffffffffffffffffffffffffffffffffffff021916908373ffffffffffffffffffffffffffffffffffffffff1602179055507fb532073b38c83145e3e5135377a08bf9aab55bc0fd7c1179cd4fb995d2a5159c60008260405162000147929190620003a4565b60405180910390a15080600260006101000a81548173ffffffffffffffffffffffffffffffffffffffff021916908373ffffffffffffffffffffffffffffffffffffffff160217905550505084600660006101000a81548173ffffffffffffffffffffffffffffffffffffffff021916908373ffffffffffffffffffffffffffffffffffffffff16021790555086600560006101000a81548173ffffffffffffffffffffffffffffffffffffffff021916908373ffffffffffffffffffffffffffffffffffffffff1602179055508260048190555081600a8190555080600b819055505050505050505062000504565b60008151905062000248816200049c565b92915050565b6000815190506200025f81620004b6565b92915050565b6000815190506200027681620004d0565b92915050565b6000815190506200028d81620004ea565b92915050565b600080600080600080600060e0888a031215620002af57600080fd5b6000620002bf8a828b0162000265565b9750506020620002d28a828b0162000237565b9650506040620002e58a828b0162000237565b9550506060620002f88a828b0162000237565b94505060806200030b8a828b016200024e565b93505060a06200031e8a828b016200027c565b92505060c0620003318a828b016200027c565b91505092959891949750929550565b6200034b8162000460565b82525050565b6200035c8162000404565b82525050565b600062000371601983620003f3565b91507f4f776e657220616464726573732063616e6e6f742062652030000000000000006000830152602082019050919050565b6000604082019050620003bb600083018562000340565b620003ca602083018462000351565b9392505050565b60006020820190508181036000830152620003ec8162000362565b9050919050565b600082825260208201905092915050565b6000620004118262000436565b9050919050565b6000819050919050565b60006200042f8262000404565b9050919050565b600073ffffffffffffffffffffffffffffffffffffffff82169050919050565b6000819050919050565b60006200046d8262000474565b9050919050565b6000620004818262000488565b9050919050565b6000620004958262000436565b9050919050565b620004a78162000404565b8114620004b357600080fd5b50565b620004c18162000418565b8114620004cd57600080fd5b50565b620004db8162000422565b8114620004e757600080fd5b50565b620004f58162000456565b81146200050157600080fd5b50565b61303880620005146000396000f3fe608060405234801561001057600080fd5b50600436106101f05760003560e01c8063741853601161010f578063b562a1ab116100a2578063dac8cf6811610071578063dac8cf681461055f578063de81eda91461058f578063e74337c6146105bf578063eb8e3b65146105ef576101f0565b8063b562a1ab146104e9578063ba2de9bc14610507578063c19d93fb14610525578063d0ebdbe714610543576101f0565b80638da5cb5b116100de5780638da5cb5b1461047557806390abb4d914610493578063925ead11146104af578063a76cdfa5146104cd576101f0565b8063741853601461041357806379ba50971461041d5780637e13235514610427578063899ffef414610457576101f0565b8063361e2086116101875780634c17ace4116101565780634c17ace41461038d57806353a47bb7146103a95780635eb2ad01146103c757806372e18b6a146103e3576101f0565b8063361e20861461030357806338245377146103215780634065b81b14610351578063481c6a751461036f576101f0565b80631627540c116101c35780631627540c1461027d57806323d60e2e146102995780632af64bd3146102b557806330edd961146102d3576101f0565b806304f3bcec146101f55780630a153c97146102135780630cdd1c651461024357806315aaf4dd1461025f575b600080fd5b6101fd61060d565b60405161020a9190612c68565b60405180910390f35b61022d60048036036102289190810190612572565b610633565b60405161023a9190612de0565b60405180910390f35b61025d600480360361025891908101906125d8565b610781565b005b610267610889565b6040516102749190612de0565b60405180910390f35b6102976004803603610292919081019061241d565b61088f565b005b6102b360048036036102ae91908101906124ab565b610912565b005b6102bd6109fd565b6040516102ca9190612b79565b60405180910390f35b6102ed60048036036102e891908101906125d8565b610bd2565b6040516102fa9190612b94565b60405180910390f35b61030b610bf3565b6040516103189190612de0565b60405180910390f35b61033b60048036036103369190810190612549565b610bf9565b6040516103489190612b94565b60405180910390f35b610359610c11565b6040516103669190612b79565b60405180910390f35b610377610c24565b6040516103849190612b13565b60405180910390f35b6103a760048036036103a291908101906125d8565b610c4a565b005b6103b1610d57565b6040516103be9190612b13565b60405180910390f35b6103e160048036036103dc919081019061246f565b610d7d565b005b6103fd60048036036103f891908101906124ab565b610ddb565b60405161040a9190612b79565b60405180910390f35b61041b610eb0565b005b610425611051565b005b610441600480360361043c919081019061262a565b611203565b60405161044e9190612de0565b60405180910390f35b61045f6112bc565b60405161046c9190612b57565b60405180910390f35b61047d611490565b60405161048a9190612b13565b60405180910390f35b6104ad60048036036104a89190810190612520565b6114b5565b005b6104b7611520565b6040516104c49190612de0565b60405180910390f35b6104e760048036036104e291908101906125d8565b611526565b005b6104f1611571565b6040516104fe9190612b94565b60405180910390f35b61050f611577565b60405161051c9190612de0565b60405180910390f35b61052d61157d565b60405161053a9190612c83565b60405180910390f35b61055d6004803603610558919081019061241d565b6115a3565b005b610579600480360361057491908101906125ae565b611648565b6040516105869190612de0565b60405180910390f35b6105a960048036036105a49190810190612549565b6117f9565b6040516105b69190612b13565b60405180910390f35b6105d960048036036105d491908101906125ae565b61182c565b6040516105e69190612de0565b60405180910390f35b6105f7611b92565b6040516106049190612de0565b60405180910390f35b600260009054906101000a900473ffffffffffffffffffffffffffffffffffffffff1681565b60008061063e611b98565b9050610648611c71565b73ffffffffffffffffffffffffffffffffffffffff1663654a60ac85856004546040518463ffffffff1660e01b815260040161068693929190612c31565b60206040518083038186803b15801561069e57600080fd5b505afa1580156106b2573d6000803e3d6000fd5b505050506040513d601f19601f820116820180604052506106d69190810190612601565b91506107786107698273__$b8d33eeb36ac0d1e81cd70156e0043e778$__63907af6c06040518163ffffffff1660e01b815260040160206040518083038186803b15801561072357600080fd5b505af4158015610737573d6000803e3d6000fd5b505050506040513d601f19601f8201168201806040525061075b9190810190612601565b611ca190919063ffffffff16565b83611cf690919063ffffffff16565b91505092915050565b610789611d23565b73__$b8d33eeb36ac0d1e81cd70156e0043e778$__63907af6c06040518163ffffffff1660e01b815260040160206040518083038186803b1580156107cd57600080fd5b505af41580156107e1573d6000803e3d6000fd5b505050506040513d601f19601f820116820180604052506108059190810190612601565b8111610846576040517f08c379a000000000000000000000000000000000000000000000000000000000815260040161083d90612ce0565b60405180910390fd5b80600a819055507f813a44586e8ecb9390b2568dbe810e193087f80e415c8845340ef06d4cbb42a5600a5460405161087e9190612de0565b60405180910390a150565b600e5481565b610897611d23565b80600160006101000a81548173ffffffffffffffffffffffffffffffffffffffff021916908373ffffffffffffffffffffffffffffffffffffffff1602179055507f906a1c6bd7e3091ea86693dd029a831c19049ce77f1dce2ce0bab1cacbabce22816040516109079190612b13565b60405180910390a150565b61091a611d23565b818190508484905014610962576040517f08c379a000000000000000000000000000000000000000000000000000000000815260040161095990612cc0565b60405180910390fd5b60008090505b848490508110156109ee57600085858381811061098157fe5b905060200201359050600781908060018154018082558091505090600182039060005260206000200160009091929091909150555080600860008686868181106109c757fe5b90506020020135815260200190815260200160002081905550508080600101915050610968565b506109f7610eb0565b50505050565b60006060610a096112bc565b905060008090505b8151811015610bc8576000828281518110610a2857fe5b602002602001015190506003600082815260200190815260200160002060009054906101000a900473ffffffffffffffffffffffffffffffffffffffff1673ffffffffffffffffffffffffffffffffffffffff16600260009054906101000a900473ffffffffffffffffffffffffffffffffffffffff1673ffffffffffffffffffffffffffffffffffffffff166321f8a721836040518263ffffffff1660e01b8152600401610ad79190612b94565b60206040518083038186803b158015610aef57600080fd5b505afa158015610b03573d6000803e3d6000fd5b505050506040513d601f19601f82011682018060405250610b279190810190612446565b73ffffffffffffffffffffffffffffffffffffffff16141580610ba95750600073ffffffffffffffffffffffffffffffffffffffff166003600083815260200190815260200160002060009054906101000a900473ffffffffffffffffffffffffffffffffffffffff1673ffffffffffffffffffffffffffffffffffffffff16145b15610bba5760009350505050610bcf565b508080600101915050610a11565b5060019150505b90565b60078181548110610bdf57fe5b906000526020600020016000915090505481565b600c5481565b60086020528060005260406000206000915090505481565b600f60009054906101000a900460ff1681565b600660009054906101000a900473ffffffffffffffffffffffffffffffffffffffff1681565b610c52611d23565b610e1073__$b8d33eeb36ac0d1e81cd70156e0043e778$__63907af6c06040518163ffffffff1660e01b815260040160206040518083038186803b158015610c9957600080fd5b505af4158015610cad573d6000803e3d6000fd5b505050506040513d601f19601f82011682018060405250610cd19190810190612601565b02811115610d14576040517f08c379a0000000000000000000000000000000000000000000000000000000008152600401610d0b90612d80565b60405180910390fd5b80600e819055507f4d71c92b0a9dc236066597b95637bb04d58cd135e9165aee13eb68e3199c2361600e54604051610d4c9190612de0565b60405180910390a150565b600160009054906101000a900473ffffffffffffffffffffffffffffffffffffffff1681565b610d85611d23565b816009600083815260200190815260200160002060006101000a81548173ffffffffffffffffffffffffffffffffffffffff021916908373ffffffffffffffffffffffffffffffffffffffff1602179055505050565b60008484905060078054905014610df55760009050610ea8565b60008090505b85859050811015610ea2576000868683818110610e1457fe5b9050602002013590508060078381548110610e2b57fe5b906000526020600020015414610e4657600092505050610ea8565b60078281548110610e5357fe5b906000526020600020015460086000878786818110610e6e57fe5b9050602002013581526020019081526020016000205414610e9457600092505050610ea8565b508080600101915050610dfb565b50600190505b949350505050565b6060610eba6112bc565b905060008090505b815181101561104d576000828281518110610ed957fe5b602002602001015190506000600260009054906101000a900473ffffffffffffffffffffffffffffffffffffffff1673ffffffffffffffffffffffffffffffffffffffff1663dacb2d018384604051602001610f359190612aed565b6040516020818303038152906040526040518363ffffffff1660e01b8152600401610f61929190612c01565b60206040518083038186803b158015610f7957600080fd5b505afa158015610f8d573d6000803e3d6000fd5b505050506040513d601f19601f82011682018060405250610fb19190810190612446565b9050806003600084815260200190815260200160002060006101000a81548173ffffffffffffffffffffffffffffffffffffffff021916908373ffffffffffffffffffffffffffffffffffffffff1602179055507f88a93678a3692f6789d9546fc621bf7234b101ddb7d4fe479455112831b8aa688282604051611036929190612baf565b60405180910390a150508080600101915050610ec2565b5050565b600160009054906101000a900473ffffffffffffffffffffffffffffffffffffffff1673ffffffffffffffffffffffffffffffffffffffff163373ffffffffffffffffffffffffffffffffffffffff16146110e1576040517f08c379a00000000000000000000000000000000000000000000000000000000081526004016110d890612d00565b60405180910390fd5b7fb532073b38c83145e3e5135377a08bf9aab55bc0fd7c1179cd4fb995d2a5159c6000809054906101000a900473ffffffffffffffffffffffffffffffffffffffff16600160009054906101000a900473ffffffffffffffffffffffffffffffffffffffff16604051611155929190612b2e565b60405180910390a1600160009054906101000a900473ffffffffffffffffffffffffffffffffffffffff166000806101000a81548173ffffffffffffffffffffffffffffffffffffffff021916908373ffffffffffffffffffffffffffffffffffffffff1602179055506000600160006101000a81548173ffffffffffffffffffffffffffffffffffffffff021916908373ffffffffffffffffffffffffffffffffffffffff160217905550565b60006112b4611210611c71565b73ffffffffffffffffffffffffffffffffffffffff1663654a60ac60045486866040518463ffffffff1660e01b815260040161124e93929190612c31565b60206040518083038186803b15801561126657600080fd5b505afa15801561127a573d6000803e3d6000fd5b505050506040513d601f19601f8201168201806040525061129e9190810190612601565b6112a6611db4565b611cf690919063ffffffff16565b905092915050565b6060806112c7611e4b565b9050606060056040519080825280602002602001820160405280156112fb5781602001602082028038833980820191505090505b5090507f466565506f6f6c000000000000000000000000000000000000000000000000008160008151811061132c57fe5b6020026020010181815250507f45786368616e67655261746573000000000000000000000000000000000000008160018151811061136657fe5b6020026020010181815250507f45786368616e6765720000000000000000000000000000000000000000000000816002815181106113a057fe5b6020026020010181815250507f53797374656d5374617475730000000000000000000000000000000000000000816003815181106113da57fe5b6020026020010181815250507f53796e74687355534400000000000000000000000000000000000000000000008160048151811061141457fe5b602002602001018181525050606061142c8383611ebd565b905061148881600780548060200260200160405190810160405280929190818152602001828054801561147e57602002820191906000526020600020905b81548152602001906001019080831161146a575b5050505050611ebd565b935050505090565b6000809054906101000a900473ffffffffffffffffffffffffffffffffffffffff1681565b6114bd611d23565b80600f60006101000a81548160ff0219169083151502179055507f261991749e1b2436706a31bde8bf184bb37fe21e303709b78d3b881afacadaa2600f60009054906101000a900460ff166040516115159190612b79565b60405180910390a150565b600a5481565b61152e611d23565b80600c819055507fe7bd72551c54d568cd97b00dc52d2787b5c5d4f0070d3582c1e8ba25141f799c600c546040516115669190612de0565b60405180910390a150565b60045481565b600b5481565b600560009054906101000a900473ffffffffffffffffffffffffffffffffffffffff1681565b6115ab611d23565b80600660006101000a81548173ffffffffffffffffffffffffffffffffffffffff021916908373ffffffffffffffffffffffffffffffffffffffff1602179055507f2c1c11af44aa5608f1dca38c00275c30ea091e02417d36e70e9a1538689c433d600660009054906101000a900473ffffffffffffffffffffffffffffffffffffffff1660405161163d9190612b13565b60405180910390a150565b600080611653611c71565b73ffffffffffffffffffffffffffffffffffffffff1663654a60ac60045485604001517f73555344000000000000000000000000000000000000000000000000000000006040518463ffffffff1660e01b81526004016116b593929190612c31565b60206040518083038186803b1580156116cd57600080fd5b505afa1580156116e1573d6000803e3d6000fd5b505050506040513d601f19601f820116820180604052506117059190810190612601565b90506000611711611c71565b73ffffffffffffffffffffffffffffffffffffffff1663654a60ac856060015161174c8760c001518860800151611ca190919063ffffffff16565b7f73555344000000000000000000000000000000000000000000000000000000006040518463ffffffff1660e01b815260040161178b93929190612c31565b60206040518083038186803b1580156117a357600080fd5b505afa1580156117b7573d6000803e3d6000fd5b505050506040513d601f19601f820116820180604052506117db9190810190612601565b90506117f08183611f9090919063ffffffff16565b92505050919050565b60096020528060005260406000206000915054906101000a900473ffffffffffffffffffffffffffffffffffffffff1681565b600080611837611b98565b90506000611843611c71565b73ffffffffffffffffffffffffffffffffffffffff1663654a60ac856060015161187e8760c001518860800151611ca190919063ffffffff16565b7f73555344000000000000000000000000000000000000000000000000000000006040518463ffffffff1660e01b81526004016118bd93929190612c31565b60206040518083038186803b1580156118d557600080fd5b505afa1580156118e9573d6000803e3d6000fd5b505050506040513d601f19601f8201168201806040525061190d9190810190612601565b90506000611919611c71565b73ffffffffffffffffffffffffffffffffffffffff1663654a60ac60045487604001517f73555344000000000000000000000000000000000000000000000000000000006040518463ffffffff1660e01b815260040161197b93929190612c31565b60206040518083038186803b15801561199357600080fd5b505afa1580156119a7573d6000803e3d6000fd5b505050506040513d601f19601f820116820180604052506119cb9190810190612601565b9050600073__$b8d33eeb36ac0d1e81cd70156e0043e778$__63907af6c06040518163ffffffff1660e01b815260040160206040518083038186803b158015611a1357600080fd5b505af4158015611a27573d6000803e3d6000fd5b505050506040513d601f19601f82011682018060405250611a4b9190810190612601565b90506000611a76611a67600a5485611f9090919063ffffffff16565b85611fc690919063ffffffff16565b90506000611ab3611aa4600a54611a968987611ca190919063ffffffff16565b611f9090919063ffffffff16565b84611fc690919063ffffffff16565b90506000611aca8284611f9090919063ffffffff16565b9050611ad4611c71565b73ffffffffffffffffffffffffffffffffffffffff1663654a60ac7f7355534400000000000000000000000000000000000000000000000000000000838c606001516040518463ffffffff1660e01b8152600401611b3493929190612c31565b60206040518083038186803b158015611b4c57600080fd5b505afa158015611b60573d6000803e3d6000fd5b505050506040513d601f19601f82011682018060405250611b849190810190612601565b975050505050505050919050565b600d5481565b6000611ba261201c565b73ffffffffffffffffffffffffffffffffffffffff166323257c2b7f53797374656d53657474696e67730000000000000000000000000000000000007f6c69717569646174696f6e50656e616c747900000000000000000000000000006040518363ffffffff1660e01b8152600401611c1c929190612bd8565b60206040518083038186803b158015611c3457600080fd5b505afa158015611c48573d6000803e3d6000fd5b505050506040513d601f19601f82011682018060405250611c6c9190810190612601565b905090565b6000611c9c7f45786368616e676552617465730000000000000000000000000000000000000061204c565b905090565b600080828401905083811015611cec576040517f08c379a0000000000000000000000000000000000000000000000000000000008152600401611ce390612d20565b60405180910390fd5b8091505092915050565b6000601260ff16600a0a611d13838561212190919063ffffffff16565b81611d1a57fe5b04905092915050565b6000809054906101000a900473ffffffffffffffffffffffffffffffffffffffff1673ffffffffffffffffffffffffffffffffffffffff163373ffffffffffffffffffffffffffffffffffffffff1614611db2576040517f08c379a0000000000000000000000000000000000000000000000000000000008152600401611da990612da0565b60405180910390fd5b565b6000611e46600a5473__$b8d33eeb36ac0d1e81cd70156e0043e778$__63907af6c06040518163ffffffff1660e01b815260040160206040518083038186803b158015611e0057600080fd5b505af4158015611e14573d6000803e3d6000fd5b505050506040513d601f19601f82011682018060405250611e389190810190612601565b61219190919063ffffffff16565b905090565b60606001604051908082528060200260200182016040528015611e7d5781602001602082028038833980820191505090505b5090507f466c657869626c6553746f72616765000000000000000000000000000000000081600081518110611eae57fe5b60200260200101818152505090565b60608151835101604051908082528060200260200182016040528015611ef25781602001602082028038833980820191505090505b50905060008090505b8351811015611f3d57838181518110611f1057fe5b6020026020010151828281518110611f2457fe5b6020026020010181815250508080600101915050611efb565b5060008090505b8251811015611f8957828181518110611f5957fe5b6020026020010151828286510181518110611f7057fe5b6020026020010181815250508080600101915050611f44565b5092915050565b6000611fbe82611fb0601260ff16600a0a8661212190919063ffffffff16565b6121ad90919063ffffffff16565b905092915050565b60008282111561200b576040517f08c379a000000000000000000000000000000000000000000000000000000000815260040161200290612d40565b60405180910390fd5b600082840390508091505092915050565b60006120477f466c657869626c6553746f72616765000000000000000000000000000000000061204c565b905090565b6000806003600084815260200190815260200160002060009054906101000a900473ffffffffffffffffffffffffffffffffffffffff169050600073ffffffffffffffffffffffffffffffffffffffff168173ffffffffffffffffffffffffffffffffffffffff161415836040516020016120c79190612ac7565b60405160208183030381529060405290612117576040517f08c379a000000000000000000000000000000000000000000000000000000000815260040161210e9190612c9e565b60405180910390fd5b5080915050919050565b600080831415612134576000905061218b565b600082840290508284828161214557fe5b0414612186576040517f08c379a000000000000000000000000000000000000000000000000000000000815260040161217d90612dc0565b60405180910390fd5b809150505b92915050565b60006121a58383601260ff16600a0a612209565b905092915050565b60008082116121f1576040517f08c379a00000000000000000000000000000000000000000000000000000000081526004016121e890612d60565b60405180910390fd5b60008284816121fc57fe5b0490508091505092915050565b60008061223484612226600a86028861212190919063ffffffff16565b6121ad90919063ffffffff16565b90506005600a828161224257fe5b061061224f57600a810190505b600a818161225957fe5b049150509392505050565b60008135905061227381612f82565b92915050565b60008151905061228881612f82565b92915050565b60008135905061229d81612f99565b92915050565b60008083601f8401126122b557600080fd5b8235905067ffffffffffffffff8111156122ce57600080fd5b6020830191508360208202830111156122e657600080fd5b9250929050565b6000813590506122fc81612fb0565b92915050565b60008135905061231181612fc7565b92915050565b6000610120828403121561232a57600080fd5b612335610120612dfb565b90506000612345848285016123f3565b60008301525060206123598482850161228e565b602083015250604061236d848285016123f3565b604083015250606061238184828501612302565b6060830152506080612395848285016123f3565b60808301525060a06123a9848285016122ed565b60a08301525060c06123bd848285016123f3565b60c08301525060e06123d1848285016123f3565b60e0830152506101006123e6848285016123f3565b6101008301525092915050565b60008135905061240281612fde565b92915050565b60008151905061241781612fde565b92915050565b60006020828403121561242f57600080fd5b600061243d84828501612264565b91505092915050565b60006020828403121561245857600080fd5b600061246684828501612279565b91505092915050565b6000806040838503121561248257600080fd5b600061249085828601612264565b92505060206124a185828601612302565b9150509250929050565b600080600080604085870312156124c157600080fd5b600085013567ffffffffffffffff8111156124db57600080fd5b6124e7878288016122a3565b9450945050602085013567ffffffffffffffff81111561250657600080fd5b612512878288016122a3565b925092505092959194509250565b60006020828403121561253257600080fd5b6000612540848285016122ed565b91505092915050565b60006020828403121561255b57600080fd5b600061256984828501612302565b91505092915050565b6000806040838503121561258557600080fd5b600061259385828601612302565b92505060206125a4858286016123f3565b9150509250929050565b600061012082840312156125c157600080fd5b60006125cf84828501612317565b91505092915050565b6000602082840312156125ea57600080fd5b60006125f8848285016123f3565b91505092915050565b60006020828403121561261357600080fd5b600061262184828501612408565b91505092915050565b6000806040838503121561263d57600080fd5b600061264b858286016123f3565b925050602061265c85828601612302565b9150509250929050565b600061267283836126fa565b60208301905092915050565b61268781612e88565b82525050565b600061269882612e38565b6126a28185612e5b565b93506126ad83612e28565b8060005b838110156126de5781516126c58882612666565b97506126d083612e4e565b9250506001810190506126b1565b5085935050505092915050565b6126f481612eac565b82525050565b61270381612eb8565b82525050565b61271281612eb8565b82525050565b61272961272482612eb8565b612f67565b82525050565b61273881612eec565b82525050565b61274781612f10565b82525050565b600061275882612e43565b6127628185612e6c565b9350612772818560208601612f34565b61277b81612f71565b840191505092915050565b6000612793601b83612e6c565b91507f496e707574206172726179206c656e677468206d69736d6174636800000000006000830152602082019050919050565b60006127d3601683612e6c565b91507f4d7573742062652067726561746572207468616e2031000000000000000000006000830152602082019050919050565b6000612813603583612e6c565b91507f596f75206d757374206265206e6f6d696e61746564206265666f726520796f7560008301527f2063616e20616363657074206f776e65727368697000000000000000000000006020830152604082019050919050565b6000612879601b83612e6c565b91507f536166654d6174683a206164646974696f6e206f766572666c6f7700000000006000830152602082019050919050565b60006128b9601e83612e6c565b91507f536166654d6174683a207375627472616374696f6e206f766572666c6f7700006000830152602082019050919050565b60006128f9601a83612e6c565b91507f536166654d6174683a206469766973696f6e206279207a65726f0000000000006000830152602082019050919050565b6000612939601183612e7d565b91507f4d697373696e6720616464726573733a200000000000000000000000000000006000830152601182019050919050565b6000612979600a83612e6c565b91507f4d6178203120686f7572000000000000000000000000000000000000000000006000830152602082019050919050565b60006129b9602f83612e6c565b91507f4f6e6c792074686520636f6e7472616374206f776e6572206d6179207065726660008301527f6f726d207468697320616374696f6e00000000000000000000000000000000006020830152604082019050919050565b6000612a1f602183612e6c565b91507f536166654d6174683a206d756c7469706c69636174696f6e206f766572666c6f60008301527f77000000000000000000000000000000000000000000000000000000000000006020830152604082019050919050565b6000612a85601983612e7d565b91507f5265736f6c766572206d697373696e67207461726765743a20000000000000006000830152601982019050919050565b612ac181612ee2565b82525050565b6000612ad28261292c565b9150612ade8284612718565b60208201915081905092915050565b6000612af882612a78565b9150612b048284612718565b60208201915081905092915050565b6000602082019050612b28600083018461267e565b92915050565b6000604082019050612b43600083018561267e565b612b50602083018461267e565b9392505050565b60006020820190508181036000830152612b71818461268d565b905092915050565b6000602082019050612b8e60008301846126eb565b92915050565b6000602082019050612ba96000830184612709565b92915050565b6000604082019050612bc46000830185612709565b612bd1602083018461267e565b9392505050565b6000604082019050612bed6000830185612709565b612bfa6020830184612709565b9392505050565b6000604082019050612c166000830185612709565b8181036020830152612c28818461274d565b90509392505050565b6000606082019050612c466000830186612709565b612c536020830185612ab8565b612c606040830184612709565b949350505050565b6000602082019050612c7d600083018461272f565b92915050565b6000602082019050612c98600083018461273e565b92915050565b60006020820190508181036000830152612cb8818461274d565b905092915050565b60006020820190508181036000830152612cd981612786565b9050919050565b60006020820190508181036000830152612cf9816127c6565b9050919050565b60006020820190508181036000830152612d1981612806565b9050919050565b60006020820190508181036000830152612d398161286c565b9050919050565b60006020820190508181036000830152612d59816128ac565b9050919050565b60006020820190508181036000830152612d79816128ec565b9050919050565b60006020820190508181036000830152612d998161296c565b9050919050565b60006020820190508181036000830152612db9816129ac565b9050919050565b60006020820190508181036000830152612dd981612a12565b9050919050565b6000602082019050612df56000830184612ab8565b92915050565b6000604051905081810181811067ffffffffffffffff82111715612e1e57600080fd5b8060405250919050565b6000819050602082019050919050565b600081519050919050565b600081519050919050565b6000602082019050919050565b600082825260208201905092915050565b600082825260208201905092915050565b600081905092915050565b6000612e9382612ec2565b9050919050565b6000612ea582612ec2565b9050919050565b60008115159050919050565b6000819050919050565b600073ffffffffffffffffffffffffffffffffffffffff82169050919050565b6000819050919050565b6000612ef782612efe565b9050919050565b6000612f0982612ec2565b9050919050565b6000612f1b82612f22565b9050919050565b6000612f2d82612ec2565b9050919050565b60005b83811015612f52578082015181840152602081019050612f37565b83811115612f61576000848401525b50505050565b6000819050919050565b6000601f19601f8301169050919050565b612f8b81612e88565b8114612f9657600080fd5b50565b612fa281612e9a565b8114612fad57600080fd5b50565b612fb981612eac565b8114612fc457600080fd5b50565b612fd081612eb8565b8114612fdb57600080fd5b50565b612fe781612ee2565b8114612ff257600080fd5b5056fea365627a7a72315820d14fb119751428a65b14e04b082846b8dc929956d3d542ea8338b6e5136f038b6c6578706572696d656e74616cf564736f6c63430005100040",
  "linkReferences": {
    "contracts/SafeDecimalMath.sol": {
      "SafeDecimalMath": [
        {
          "length": 20,
          "start": 3061
        },
        {
          "length": 20,
          "start": 3231
        },
        {
          "length": 20,
          "start": 4459
        },
        {
          "length": 20,
          "start": 7909
        },
        {
          "length": 20,
          "start": 8914
        }
      ]
    }
  },
  "deployedLinkReferences": {
    "contracts/SafeDecimalMath.sol": {
      "SafeDecimalMath": [
        {
          "length": 20,
          "start": 1761
        },
        {
          "length": 20,
          "start": 1931
        },
        {
          "length": 20,
          "start": 3159
        },
        {
          "length": 20,
          "start": 6609
        },
        {
          "length": 20,
          "start": 7614
        }
      ]
    }
  }
}