{
  "_format": "hh-sol-artifact-1",
  "contractName": "CollateralShort",
  "sourceName": "contracts/CollateralShort.sol",
  "abi": [
    {
      "inputs": [
        {
          "internalType": "contract CollateralState",
          "name": "_state",
          "type": "address"
        },
        {
          "internalType": "address",
          "name": "_owner",
          "type": "address"
        },
        {
          "internalType": "address",
          "name": "_manager",
          "type": "address"
        },
        {
          "internalType": "address",
          "name": "_resolver",
          "type": "address"
        },
        {
          "internalType": "bytes32",
          "name": "_collateralKey",
          "type": "bytes32"
        },
        {
          "internalType": "uint256",
          "name": "_minCratio",
          "type": "uint256"
        },
        {
          "internalType": "uint256",
          "name": "_minCollateral",
          "type": "uint256"
        }
      ],
      "payable": false,
      "stateMutability": "nonpayable",
      "type": "constructor"
    },
    {
      "anonymous": false,
      "inputs": [
        {
          "indexed": false,
          "internalType": "bytes32",
          "name": "name",
          "type": "bytes32"
        },
        {
          "indexed": false,
          "internalType": "address",
          "name": "destination",
          "type": "address"
        }
      ],
      "name": "CacheUpdated",
      "type": "event"
    },
    {
      "anonymous": false,
      "inputs": [
        {
          "indexed": false,
          "internalType": "bool",
          "name": "canOpenLoans",
          "type": "bool"
        }
      ],
      "name": "CanOpenLoansUpdated",
      "type": "event"
    },
    {
      "anonymous": false,
      "inputs": [
        {
          "indexed": true,
          "internalType": "address",
          "name": "account",
          "type": "address"
        },
        {
          "indexed": false,
          "internalType": "uint256",
          "name": "id",
          "type": "uint256"
        },
        {
          "indexed": false,
          "internalType": "uint256",
          "name": "amountDeposited",
          "type": "uint256"
        },
        {
          "indexed": false,
          "internalType": "uint256",
          "name": "collateralAfter",
          "type": "uint256"
        }
      ],
      "name": "CollateralDeposited",
      "type": "event"
    },
    {
      "anonymous": false,
      "inputs": [
        {
          "indexed": true,
          "internalType": "address",
          "name": "account",
          "type": "address"
        },
        {
          "indexed": false,
          "internalType": "uint256",
          "name": "id",
          "type": "uint256"
        },
        {
          "indexed": false,
          "internalType": "uint256",
          "name": "amountWithdrawn",
          "type": "uint256"
        },
        {
          "indexed": false,
          "internalType": "uint256",
          "name": "collateralAfter",
          "type": "uint256"
        }
      ],
      "name": "CollateralWithdrawn",
      "type": "event"
    },
    {
      "anonymous": false,
      "inputs": [
        {
          "indexed": false,
          "internalType": "uint256",
          "name": "interactionDelay",
          "type": "uint256"
        }
      ],
      "name": "InteractionDelayUpdated",
      "type": "event"
    },
    {
      "anonymous": false,
      "inputs": [
        {
          "indexed": false,
          "internalType": "uint256",
          "name": "issueFeeRate",
          "type": "uint256"
        }
      ],
      "name": "IssueFeeRateUpdated",
      "type": "event"
    },
    {
      "anonymous": false,
      "inputs": [
        {
          "indexed": true,
          "internalType": "address",
          "name": "account",
          "type": "address"
        },
        {
          "indexed": false,
          "internalType": "uint256",
          "name": "id",
          "type": "uint256"
        }
      ],
      "name": "LoanClosed",
      "type": "event"
    },
    {
      "anonymous": false,
      "inputs": [
        {
          "indexed": true,
          "internalType": "address",
          "name": "account",
          "type": "address"
        },
        {
          "indexed": false,
          "internalType": "uint256",
          "name": "id",
          "type": "uint256"
        },
        {
          "indexed": true,
          "internalType": "address",
          "name": "liquidator",
          "type": "address"
        },
        {
          "indexed": false,
          "internalType": "uint256",
          "name": "amountLiquidated",
          "type": "uint256"
        },
        {
          "indexed": false,
          "internalType": "uint256",
          "name": "collateralLiquidated",
          "type": "uint256"
        }
      ],
      "name": "LoanClosedByLiquidation",
      "type": "event"
    },
    {
      "anonymous": false,
      "inputs": [
        {
          "indexed": true,
          "internalType": "address",
          "name": "account",
          "type": "address"
        },
        {
          "indexed": false,
          "internalType": "uint256",
          "name": "id",
          "type": "uint256"
        },
        {
          "indexed": false,
          "internalType": "uint256",
          "name": "amount",
          "type": "uint256"
        },
        {
          "indexed": false,
          "internalType": "uint256",
          "name": "collateral",
          "type": "uint256"
        },
        {
          "indexed": false,
          "internalType": "bytes32",
          "name": "currency",
          "type": "bytes32"
        },
        {
          "indexed": false,
          "internalType": "uint256",
          "name": "issuanceFee",
          "type": "uint256"
        }
      ],
      "name": "LoanCreated",
      "type": "event"
    },
    {
      "anonymous": false,
      "inputs": [
        {
          "indexed": true,
          "internalType": "address",
          "name": "account",
          "type": "address"
        },
        {
          "indexed": false,
          "internalType": "uint256",
          "name": "id",
          "type": "uint256"
        },
        {
          "indexed": false,
          "internalType": "uint256",
          "name": "amount",
          "type": "uint256"
        }
      ],
      "name": "LoanDrawnDown",
      "type": "event"
    },
    {
      "anonymous": false,
      "inputs": [
        {
          "indexed": true,
          "internalType": "address",
          "name": "account",
          "type": "address"
        },
        {
          "indexed": false,
          "internalType": "uint256",
          "name": "id",
          "type": "uint256"
        },
        {
          "indexed": false,
          "internalType": "address",
          "name": "liquidator",
          "type": "address"
        },
        {
          "indexed": false,
          "internalType": "uint256",
          "name": "amountLiquidated",
          "type": "uint256"
        },
        {
          "indexed": false,
          "internalType": "uint256",
          "name": "collateralLiquidated",
          "type": "uint256"
        }
      ],
      "name": "LoanPartiallyLiquidated",
      "type": "event"
    },
    {
      "anonymous": false,
      "inputs": [
        {
          "indexed": true,
          "internalType": "address",
          "name": "account",
          "type": "address"
        },
        {
          "indexed": true,
          "internalType": "address",
          "name": "repayer",
          "type": "address"
        },
        {
          "indexed": false,
          "internalType": "uint256",
          "name": "id",
          "type": "uint256"
        },
        {
          "indexed": false,
          "internalType": "uint256",
          "name": "amountRepaid",
          "type": "uint256"
        },
        {
          "indexed": false,
          "internalType": "uint256",
          "name": "amountAfter",
          "type": "uint256"
        }
      ],
      "name": "LoanRepaymentMade",
      "type": "event"
    },
    {
      "anonymous": false,
      "inputs": [
        {
          "indexed": false,
          "internalType": "address",
          "name": "manager",
          "type": "address"
        }
      ],
      "name": "ManagerUpdated",
      "type": "event"
    },
    {
      "anonymous": false,
      "inputs": [
        {
          "indexed": false,
          "internalType": "uint256",
          "name": "maxLoansPerAccount",
          "type": "uint256"
        }
      ],
      "name": "MaxLoansPerAccountUpdated",
      "type": "event"
    },
    {
      "anonymous": false,
      "inputs": [
        {
          "indexed": false,
          "internalType": "uint256",
          "name": "minCollateral",
          "type": "uint256"
        }
      ],
      "name": "MinCollateralUpdated",
      "type": "event"
    },
    {
      "anonymous": false,
      "inputs": [
        {
          "indexed": false,
          "internalType": "uint256",
          "name": "minCratio",
          "type": "uint256"
        }
      ],
      "name": "MinCratioRatioUpdated",
      "type": "event"
    },
    {
      "anonymous": false,
      "inputs": [
        {
          "indexed": false,
          "internalType": "address",
          "name": "oldOwner",
          "type": "address"
        },
        {
          "indexed": false,
          "internalType": "address",
          "name": "newOwner",
          "type": "address"
        }
      ],
      "name": "OwnerChanged",
      "type": "event"
    },
    {
      "anonymous": false,
      "inputs": [
        {
          "indexed": false,
          "internalType": "address",
          "name": "newOwner",
          "type": "address"
        }
      ],
      "name": "OwnerNominated",
      "type": "event"
    },
    {
      "constant": false,
      "inputs": [],
      "name": "acceptOwnership",
      "outputs": [],
      "payable": false,
      "stateMutability": "nonpayable",
      "type": "function"
    },
    {
      "constant": false,
      "inputs": [
        {
          "internalType": "address",
          "name": "rewardsContract",
          "type": "address"
        },
        {
          "internalType": "bytes32",
          "name": "synth",
          "type": "bytes32"
        }
      ],
      "name": "addRewardsContracts",
      "outputs": [],
      "payable": false,
      "stateMutability": "nonpayable",
      "type": "function"
    },
    {
      "constant": false,
      "inputs": [
        {
          "internalType": "bytes32[]",
          "name": "_synthNamesInResolver",
          "type": "bytes32[]"
        },
        {
          "internalType": "bytes32[]",
          "name": "_synthKeys",
          "type": "bytes32[]"
        }
      ],
      "name": "addSynths",
      "outputs": [],
      "payable": false,
      "stateMutability": "nonpayable",
      "type": "function"
    },
    {
      "constant": true,
      "inputs": [
        {
          "internalType": "bytes32[]",
          "name": "_synthNamesInResolver",
          "type": "bytes32[]"
        },
        {
          "internalType": "bytes32[]",
          "name": "_synthKeys",
          "type": "bytes32[]"
        }
      ],
      "name": "areSynthsAndCurrenciesSet",
      "outputs": [
        {
          "internalType": "bool",
          "name": "",
          "type": "bool"
        }
      ],
      "payable": false,
      "stateMutability": "view",
      "type": "function"
    },
    {
      "constant": true,
      "inputs": [],
      "name": "canOpenLoans",
      "outputs": [
        {
          "internalType": "bool",
          "name": "",
          "type": "bool"
        }
      ],
      "payable": false,
      "stateMutability": "view",
      "type": "function"
    },
    {
      "constant": false,
      "inputs": [
        {
          "internalType": "uint256",
          "name": "id",
          "type": "uint256"
        }
      ],
      "name": "close",
      "outputs": [],
      "payable": false,
      "stateMutability": "nonpayable",
      "type": "function"
    },
    {
      "constant": true,
      "inputs": [],
      "name": "collateralKey",
      "outputs": [
        {
          "internalType": "bytes32",
          "name": "",
          "type": "bytes32"
        }
      ],
      "payable": false,
      "stateMutability": "view",
      "type": "function"
    },
    {
      "constant": true,
      "inputs": [
        {
          "components": [
            {
              "internalType": "uint256",
              "name": "id",
              "type": "uint256"
            },
            {
              "internalType": "address payable",
              "name": "account",
              "type": "address"
            },
            {
              "internalType": "uint256",
              "name": "collateral",
              "type": "uint256"
            },
            {
              "internalType": "bytes32",
              "name": "currency",
              "type": "bytes32"
            },
            {
              "internalType": "uint256",
              "name": "amount",
              "type": "uint256"
            },
            {
              "internalType": "bool",
              "name": "short",
              "type": "bool"
            },
            {
              "internalType": "uint256",
              "name": "accruedInterest",
              "type": "uint256"
            },
            {
              "internalType": "uint256",
              "name": "interestIndex",
              "type": "uint256"
            },
            {
              "internalType": "uint256",
              "name": "lastInteraction",
              "type": "uint256"
            }
          ],
          "internalType": "struct ICollateralLoan.Loan",
          "name": "loan",
          "type": "tuple"
        }
      ],
      "name": "collateralRatio",
      "outputs": [
        {
          "internalType": "uint256",
          "name": "cratio",
          "type": "uint256"
        }
      ],
      "payable": false,
      "stateMutability": "view",
      "type": "function"
    },
    {
      "constant": true,
      "inputs": [
        {
          "internalType": "bytes32",
          "name": "currency",
          "type": "bytes32"
        },
        {
          "internalType": "uint256",
          "name": "amount",
          "type": "uint256"
        }
      ],
      "name": "collateralRedeemed",
      "outputs": [
        {
          "internalType": "uint256",
          "name": "collateral",
          "type": "uint256"
        }
      ],
      "payable": false,
      "stateMutability": "view",
      "type": "function"
    },
    {
      "constant": false,
      "inputs": [
        {
          "internalType": "address",
          "name": "borrower",
          "type": "address"
        },
        {
          "internalType": "uint256",
          "name": "id",
          "type": "uint256"
        },
        {
          "internalType": "uint256",
          "name": "amount",
          "type": "uint256"
        }
      ],
      "name": "deposit",
      "outputs": [],
      "payable": false,
      "stateMutability": "nonpayable",
      "type": "function"
    },
    {
      "constant": false,
      "inputs": [
        {
          "internalType": "uint256",
          "name": "id",
          "type": "uint256"
        },
        {
          "internalType": "uint256",
          "name": "amount",
          "type": "uint256"
        }
      ],
      "name": "draw",
      "outputs": [],
      "payable": false,
      "stateMutability": "nonpayable",
      "type": "function"
    },
    {
      "constant": false,
      "inputs": [
        {
          "internalType": "bytes32",
          "name": "currency",
          "type": "bytes32"
        },
        {
          "internalType": "address",
          "name": "account",
          "type": "address"
        }
      ],
      "name": "getReward",
      "outputs": [],
      "payable": false,
      "stateMutability": "nonpayable",
      "type": "function"
    },
    {
      "constant": true,
      "inputs": [],
      "name": "interactionDelay",
      "outputs": [
        {
          "internalType": "uint256",
          "name": "",
          "type": "uint256"
        }
      ],
      "payable": false,
      "stateMutability": "view",
      "type": "function"
    },
    {
      "constant": true,
      "inputs": [],
      "name": "isResolverCached",
      "outputs": [
        {
          "internalType": "bool",
          "name": "",
          "type": "bool"
        }
      ],
      "payable": false,
      "stateMutability": "view",
      "type": "function"
    },
    {
      "constant": true,
      "inputs": [],
      "name": "issueFeeRate",
      "outputs": [
        {
          "internalType": "uint256",
          "name": "",
          "type": "uint256"
        }
      ],
      "payable": false,
      "stateMutability": "view",
      "type": "function"
    },
    {
      "constant": false,
      "inputs": [
        {
          "internalType": "address",
          "name": "borrower",
          "type": "address"
        },
        {
          "internalType": "uint256",
          "name": "id",
          "type": "uint256"
        },
        {
          "internalType": "uint256",
          "name": "amount",
          "type": "uint256"
        }
      ],
      "name": "liquidate",
      "outputs": [],
      "payable": false,
      "stateMutability": "nonpayable",
      "type": "function"
    },
    {
      "constant": true,
      "inputs": [
        {
          "components": [
            {
              "internalType": "uint256",
              "name": "id",
              "type": "uint256"
            },
            {
              "internalType": "address payable",
              "name": "account",
              "type": "address"
            },
            {
              "internalType": "uint256",
              "name": "collateral",
              "type": "uint256"
            },
            {
              "internalType": "bytes32",
              "name": "currency",
              "type": "bytes32"
            },
            {
              "internalType": "uint256",
              "name": "amount",
              "type": "uint256"
            },
            {
              "internalType": "bool",
              "name": "short",
              "type": "bool"
            },
            {
              "internalType": "uint256",
              "name": "accruedInterest",
              "type": "uint256"
            },
            {
              "internalType": "uint256",
              "name": "interestIndex",
              "type": "uint256"
            },
            {
              "internalType": "uint256",
              "name": "lastInteraction",
              "type": "uint256"
            }
          ],
          "internalType": "struct ICollateralLoan.Loan",
          "name": "loan",
          "type": "tuple"
        }
      ],
      "name": "liquidationAmount",
      "outputs": [
        {
          "internalType": "uint256",
          "name": "amount",
          "type": "uint256"
        }
      ],
      "payable": false,
      "stateMutability": "view",
      "type": "function"
    },
    {
      "constant": true,
      "inputs": [],
      "name": "manager",
      "outputs": [
        {
          "internalType": "address",
          "name": "",
          "type": "address"
        }
      ],
      "payable": false,
      "stateMutability": "view",
      "type": "function"
    },
    {
      "constant": true,
      "inputs": [
        {
          "internalType": "uint256",
          "name": "amount",
          "type": "uint256"
        },
        {
          "internalType": "bytes32",
          "name": "currency",
          "type": "bytes32"
        }
      ],
      "name": "maxLoan",
      "outputs": [
        {
          "internalType": "uint256",
          "name": "max",
          "type": "uint256"
        }
      ],
      "payable": false,
      "stateMutability": "view",
      "type": "function"
    },
    {
      "constant": true,
      "inputs": [],
      "name": "maxLoansPerAccount",
      "outputs": [
        {
          "internalType": "uint256",
          "name": "",
          "type": "uint256"
        }
      ],
      "payable": false,
      "stateMutability": "view",
      "type": "function"
    },
    {
      "constant": true,
      "inputs": [],
      "name": "minCollateral",
      "outputs": [
        {
          "internalType": "uint256",
          "name": "",
          "type": "uint256"
        }
      ],
      "payable": false,
      "stateMutability": "view",
      "type": "function"
    },
    {
      "constant": true,
      "inputs": [],
      "name": "minCratio",
      "outputs": [
        {
          "internalType": "uint256",
          "name": "",
          "type": "uint256"
        }
      ],
      "payable": false,
      "stateMutability": "view",
      "type": "function"
    },
    {
      "constant": false,
      "inputs": [
        {
          "internalType": "address",
          "name": "_owner",
          "type": "address"
        }
      ],
      "name": "nominateNewOwner",
      "outputs": [],
      "payable": false,
      "stateMutability": "nonpayable",
      "type": "function"
    },
    {
      "constant": true,
      "inputs": [],
      "name": "nominatedOwner",
      "outputs": [
        {
          "internalType": "address",
          "name": "",
          "type": "address"
        }
      ],
      "payable": false,
      "stateMutability": "view",
      "type": "function"
    },
    {
      "constant": false,
      "inputs": [
        {
          "internalType": "uint256",
          "name": "collateral",
          "type": "uint256"
        },
        {
          "internalType": "uint256",
          "name": "amount",
          "type": "uint256"
        },
        {
          "internalType": "bytes32",
          "name": "currency",
          "type": "bytes32"
        }
      ],
      "name": "open",
      "outputs": [],
      "payable": false,
      "stateMutability": "nonpayable",
      "type": "function"
    },
    {
      "constant": true,
      "inputs": [],
      "name": "owner",
      "outputs": [
        {
          "internalType": "address",
          "name": "",
          "type": "address"
        }
      ],
      "payable": false,
      "stateMutability": "view",
      "type": "function"
    },
    {
      "constant": false,
      "inputs": [],
      "name": "rebuildCache",
      "outputs": [],
      "payable": false,
      "stateMutability": "nonpayable",
      "type": "function"
    },
    {
      "constant": false,
      "inputs": [
        {
          "internalType": "address",
          "name": "borrower",
          "type": "address"
        },
        {
          "internalType": "uint256",
          "name": "id",
          "type": "uint256"
        },
        {
          "internalType": "uint256",
          "name": "amount",
          "type": "uint256"
        }
      ],
      "name": "repay",
      "outputs": [],
      "payable": false,
      "stateMutability": "nonpayable",
      "type": "function"
    },
    {
      "constant": true,
      "inputs": [],
      "name": "resolver",
      "outputs": [
        {
          "internalType": "contract AddressResolver",
          "name": "",
          "type": "address"
        }
      ],
      "payable": false,
      "stateMutability": "view",
      "type": "function"
    },
    {
      "constant": true,
      "inputs": [],
      "name": "resolverAddressesRequired",
      "outputs": [
        {
          "internalType": "bytes32[]",
          "name": "addresses",
          "type": "bytes32[]"
        }
      ],
      "payable": false,
      "stateMutability": "view",
      "type": "function"
    },
    {
      "constant": false,
      "inputs": [
        {
          "internalType": "bool",
          "name": "_canOpenLoans",
          "type": "bool"
        }
      ],
      "name": "setCanOpenLoans",
      "outputs": [],
      "payable": false,
      "stateMutability": "nonpayable",
      "type": "function"
    },
    {
      "constant": false,
      "inputs": [
        {
          "internalType": "uint256",
          "name": "_interactionDelay",
          "type": "uint256"
        }
      ],
      "name": "setInteractionDelay",
      "outputs": [],
      "payable": false,
      "stateMutability": "nonpayable",
      "type": "function"
    },
    {
      "constant": false,
      "inputs": [
        {
          "internalType": "uint256",
          "name": "_issueFeeRate",
          "type": "uint256"
        }
      ],
      "name": "setIssueFeeRate",
      "outputs": [],
      "payable": false,
      "stateMutability": "nonpayable",
      "type": "function"
    },
    {
      "constant": false,
      "inputs": [
        {
          "internalType": "address",
          "name": "_newManager",
          "type": "address"
        }
      ],
      "name": "setManager",
      "outputs": [],
      "payable": false,
      "stateMutability": "nonpayable",
      "type": "function"
    },
    {
      "constant": false,
      "inputs": [
        {
          "internalType": "uint256",
          "name": "_minCratio",
          "type": "uint256"
        }
      ],
      "name": "setMinCratio",
      "outputs": [],
      "payable": false,
      "stateMutability": "nonpayable",
      "type": "function"
    },
    {
      "constant": true,
      "inputs": [
        {
          "internalType": "bytes32",
          "name": "",
          "type": "bytes32"
        }
      ],
      "name": "shortingRewards",
      "outputs": [
        {
          "internalType": "address",
          "name": "",
          "type": "address"
        }
      ],
      "payable": false,
      "stateMutability": "view",
      "type": "function"
    },
    {
      "constant": true,
      "inputs": [],
      "name": "state",
      "outputs": [
        {
          "internalType": "contract CollateralState",
          "name": "",
          "type": "address"
        }
      ],
      "payable": false,
      "stateMutability": "view",
      "type": "function"
    },
    {
      "constant": true,
      "inputs": [
        {
          "internalType": "uint256",
          "name": "",
          "type": "uint256"
        }
      ],
      "name": "synths",
      "outputs": [
        {
          "internalType": "bytes32",
          "name": "",
          "type": "bytes32"
        }
      ],
      "payable": false,
      "stateMutability": "view",
      "type": "function"
    },
    {
      "constant": true,
      "inputs": [
        {
          "internalType": "bytes32",
          "name": "",
          "type": "bytes32"
        }
      ],
      "name": "synthsByKey",
      "outputs": [
        {
          "internalType": "bytes32",
          "name": "",
          "type": "bytes32"
        }
      ],
      "payable": false,
      "stateMutability": "view",
      "type": "function"
    },
    {
      "constant": false,
      "inputs": [
        {
          "internalType": "uint256",
          "name": "id",
          "type": "uint256"
        },
        {
          "internalType": "uint256",
          "name": "amount",
          "type": "uint256"
        }
      ],
      "name": "withdraw",
      "outputs": [],
      "payable": false,
      "stateMutability": "nonpayable",
      "type": "function"
    }
  ],
  "bytecode": "0x60806040526032600d5561012c600e556001600f60006101000a81548160ff0219169083151502179055503480156200003757600080fd5b50604051620083fb380380620083fb83398181016040526200005d9190810190620002a1565b86868686868686838087600073ffffffffffffffffffffffffffffffffffffffff168173ffffffffffffffffffffffffffffffffffffffff161415620000da576040517f08c379a0000000000000000000000000000000000000000000000000000000008152600401620000d190620003df565b60405180910390fd5b806000806101000a81548173ffffffffffffffffffffffffffffffffffffffff021916908373ffffffffffffffffffffffffffffffffffffffff1602179055507fb532073b38c83145e3e5135377a08bf9aab55bc0fd7c1179cd4fb995d2a5159c6000826040516200014e929190620003b2565b60405180910390a15080600260006101000a81548173ffffffffffffffffffffffffffffffffffffffff021916908373ffffffffffffffffffffffffffffffffffffffff160217905550505084600660006101000a81548173ffffffffffffffffffffffffffffffffffffffff021916908373ffffffffffffffffffffffffffffffffffffffff16021790555086600560006101000a81548173ffffffffffffffffffffffffffffffffffffffff021916908373ffffffffffffffffffffffffffffffffffffffff1602179055508260048190555081600a8190555080600b81905550505050505050505050505050505062000512565b6000815190506200025681620004aa565b92915050565b6000815190506200026d81620004c4565b92915050565b6000815190506200028481620004de565b92915050565b6000815190506200029b81620004f8565b92915050565b600080600080600080600060e0888a031215620002bd57600080fd5b6000620002cd8a828b0162000273565b9750506020620002e08a828b0162000245565b9650506040620002f38a828b0162000245565b9550506060620003068a828b0162000245565b9450506080620003198a828b016200025c565b93505060a06200032c8a828b016200028a565b92505060c06200033f8a828b016200028a565b91505092959891949750929550565b62000359816200046e565b82525050565b6200036a8162000412565b82525050565b60006200037f60198362000401565b91507f4f776e657220616464726573732063616e6e6f742062652030000000000000006000830152602082019050919050565b6000604082019050620003c960008301856200034e565b620003d860208301846200035f565b9392505050565b60006020820190508181036000830152620003fa8162000370565b9050919050565b600082825260208201905092915050565b60006200041f8262000444565b9050919050565b6000819050919050565b60006200043d8262000412565b9050919050565b600073ffffffffffffffffffffffffffffffffffffffff82169050919050565b6000819050919050565b60006200047b8262000482565b9050919050565b60006200048f8262000496565b9050919050565b6000620004a38262000444565b9050919050565b620004b58162000412565b8114620004c157600080fd5b50565b620004cf8162000426565b8114620004db57600080fd5b50565b620004e98162000430565b8114620004f557600080fd5b50565b620005038162000464565b81146200050f57600080fd5b50565b617ed980620005226000396000f3fe608060405234801561001057600080fd5b50600436106102485760003560e01c806372e18b6a1161013b578063b562a1ab116100b8578063dac8cf681161007c578063dac8cf681461067b578063de81eda9146106ab578063e74337c6146106db578063eb8e3b651461070b578063f93451ed1461072957610248565b8063b562a1ab146105e9578063ba2de9bc14610607578063c19d93fb14610625578063d0ebdbe714610643578063d2b8035a1461065f57610248565b80638cd2e0c7116100ff5780638cd2e0c7146105595780638da5cb5b1461057557806390abb4d914610593578063925ead11146105af578063a76cdfa5146105cd57610248565b806372e18b6a146104c757806374185360146104f757806379ba5097146105015780637e1323551461050b578063899ffef41461053b57610248565b806330edd961116101c9578063481c6a751161018d578063481c6a75146104375780634c17ace41461045557806353a47bb71461047157806356dc04a11461048f5780635eb2ad01146104ab57610248565b806330edd9611461037f578063361e2086146103af57806338245377146103cd5780634065b81b146103fd578063441a3e701461041b57610248565b80630efe6a8b116102105780630efe6a8b146102ef57806315aaf4dd1461030b5780631627540c1461032957806323d60e2e146103455780632af64bd31461036157610248565b806304f3bcec1461024d5780630710285c1461026b5780630a153c97146102875780630aebeb4e146102b75780630cdd1c65146102d3575b600080fd5b610255610745565b6040516102629190617716565b60405180910390f35b610285600480360361028091908101906165da565b61076b565b005b6102a1600480360361029c9190810190616791565b610815565b6040516102ae9190617b2a565b60405180910390f35b6102d160048036036102cc9190810190616821565b610963565b005b6102ed60048036036102e89190810190616821565b610a0a565b005b610309600480360361030491908101906165da565b610b12565b005b610313610c8d565b6040516103209190617b2a565b60405180910390f35b610343600480360361033e919081019061654c565b610c93565b005b61035f600480360361035a9190810190616629565b610d16565b005b610369610e01565b60405161037691906175fe565b60405180910390f35b61039960048036036103949190810190616821565b610fd6565b6040516103a69190617619565b60405180910390f35b6103b7610ff7565b6040516103c49190617b2a565b60405180910390f35b6103e760048036036103e2919081019061672c565b610ffd565b6040516103f49190617619565b60405180910390f35b610405611015565b60405161041291906175fe565b60405180910390f35b610435600480360361043091908101906168eb565b611028565b005b61043f6110d0565b60405161044c9190617479565b60405180910390f35b61046f600480360361046a9190810190616821565b6110f6565b005b610479611203565b6040516104869190617479565b60405180910390f35b6104a960048036036104a49190810190616755565b611229565b005b6104c560048036036104c0919081019061659e565b611333565b005b6104e160048036036104dc9190810190616629565b611391565b6040516104ee91906175fe565b60405180910390f35b6104ff611466565b005b610509611607565b005b610525600480360361052091908101906168af565b6117b9565b6040516105329190617b2a565b60405180910390f35b610543611872565b60405161055091906175dc565b60405180910390f35b610573600480360361056e91908101906165da565b611a46565b005b61057d611a57565b60405161058a9190617479565b60405180910390f35b6105ad60048036036105a8919081019061669e565b611a7c565b005b6105b7611ae7565b6040516105c49190617b2a565b60405180910390f35b6105e760048036036105e29190810190616821565b611aed565b005b6105f1611b38565b6040516105fe9190617619565b60405180910390f35b61060f611b3e565b60405161061c9190617b2a565b60405180910390f35b61062d611b44565b60405161063a9190617731565b60405180910390f35b61065d6004803603610658919081019061654c565b611b6a565b005b610679600480360361067491908101906168eb565b611c0f565b005b610695600480360361069091908101906167cd565b611c1d565b6040516106a29190617b2a565b60405180910390f35b6106c560048036036106c0919081019061672c565b611dce565b6040516106d29190617479565b60405180910390f35b6106f560048036036106f091908101906167cd565b611e01565b6040516107029190617b2a565b60405180910390f35b610713612167565b6040516107209190617b2a565b60405180910390f35b610743600480360361073e9190810190616927565b61216d565b005b600260009054906101000a900473ffffffffffffffffffffffffffffffffffffffff1681565b60006107788484846122eb565b90506107826127b6565b73ffffffffffffffffffffffffffffffffffffffff1663a9059cbb33836040518363ffffffff1660e01b81526004016107bc929190617538565b602060405180830381600087803b1580156107d657600080fd5b505af11580156107ea573d6000803e3d6000fd5b505050506040513d601f19601f8201168201806040525061080e91908101906166c7565b5050505050565b6000806108206127e6565b905061082a6128bf565b73ffffffffffffffffffffffffffffffffffffffff1663654a60ac85856004546040518463ffffffff1660e01b8152600401610868939291906176df565b60206040518083038186803b15801561088057600080fd5b505afa158015610894573d6000803e3d6000fd5b505050506040513d601f19601f820116820180604052506108b8919081019061684a565b915061095a61094b8273__$b8d33eeb36ac0d1e81cd70156e0043e778$__63907af6c06040518163ffffffff1660e01b815260040160206040518083038186803b15801561090557600080fd5b505af4158015610919573d6000803e3d6000fd5b505050506040513d601f19601f8201168201806040525061093d919081019061684a565b6128ef90919063ffffffff16565b8361294490919063ffffffff16565b91505092915050565b600061096f3383612971565b90506109796127b6565b73ffffffffffffffffffffffffffffffffffffffff1663a9059cbb33836040518363ffffffff1660e01b81526004016109b3929190617538565b602060405180830381600087803b1580156109cd57600080fd5b505af11580156109e1573d6000803e3d6000fd5b505050506040513d601f19601f82011682018060405250610a0591908101906166c7565b505050565b610a12612f8f565b73__$b8d33eeb36ac0d1e81cd70156e0043e778$__63907af6c06040518163ffffffff1660e01b815260040160206040518083038186803b158015610a5657600080fd5b505af4158015610a6a573d6000803e3d6000fd5b505050506040513d601f19601f82011682018060405250610a8e919081019061684a565b8111610acf576040517f08c379a0000000000000000000000000000000000000000000000000000000008152600401610ac69061778e565b60405180910390fd5b80600a819055507f813a44586e8ecb9390b2568dbe810e193087f80e415c8845340ef06d4cbb42a5600a54604051610b079190617b2a565b60405180910390a150565b610b1a6127b6565b73ffffffffffffffffffffffffffffffffffffffff1663dd62ed3e33306040518363ffffffff1660e01b8152600401610b549291906174af565b60206040518083038186803b158015610b6c57600080fd5b505afa158015610b80573d6000803e3d6000fd5b505050506040513d601f19601f82011682018060405250610ba4919081019061684a565b811115610be6576040517f08c379a0000000000000000000000000000000000000000000000000000000008152600401610bdd9061780e565b60405180910390fd5b610bee6127b6565b73ffffffffffffffffffffffffffffffffffffffff166323b872dd3330846040518463ffffffff1660e01b8152600401610c2a939291906174d8565b602060405180830381600087803b158015610c4457600080fd5b505af1158015610c58573d6000803e3d6000fd5b505050506040513d601f19601f82011682018060405250610c7c91908101906166c7565b50610c88838383613020565b505050565b600e5481565b610c9b612f8f565b80600160006101000a81548173ffffffffffffffffffffffffffffffffffffffff021916908373ffffffffffffffffffffffffffffffffffffffff1602179055507f906a1c6bd7e3091ea86693dd029a831c19049ce77f1dce2ce0bab1cacbabce2281604051610d0b9190617479565b60405180910390a150565b610d1e612f8f565b818190508484905014610d66576040517f08c379a0000000000000000000000000000000000000000000000000000000008152600401610d5d9061776e565b60405180910390fd5b60008090505b84849050811015610df2576000858583818110610d8557fe5b90506020020135905060078190806001815401808255809150509060018203906000526020600020016000909192909190915055508060086000868686818110610dcb57fe5b90506020020135815260200190815260200160002081905550508080600101915050610d6c565b50610dfb611466565b50505050565b60006060610e0d611872565b905060008090505b8151811015610fcc576000828281518110610e2c57fe5b602002602001015190506003600082815260200190815260200160002060009054906101000a900473ffffffffffffffffffffffffffffffffffffffff1673ffffffffffffffffffffffffffffffffffffffff16600260009054906101000a900473ffffffffffffffffffffffffffffffffffffffff1673ffffffffffffffffffffffffffffffffffffffff166321f8a721836040518263ffffffff1660e01b8152600401610edb9190617619565b60206040518083038186803b158015610ef357600080fd5b505afa158015610f07573d6000803e3d6000fd5b505050506040513d601f19601f82011682018060405250610f2b9190810190616575565b73ffffffffffffffffffffffffffffffffffffffff16141580610fad5750600073ffffffffffffffffffffffffffffffffffffffff166003600083815260200190815260200160002060009054906101000a900473ffffffffffffffffffffffffffffffffffffffff1673ffffffffffffffffffffffffffffffffffffffff16145b15610fbe5760009350505050610fd3565b508080600101915050610e15565b5060019150505b90565b60078181548110610fe357fe5b906000526020600020016000915090505481565b600c5481565b60086020528060005260406000206000915090505481565b600f60009054906101000a900460ff1681565b600061103483836132b0565b905061103e6127b6565b73ffffffffffffffffffffffffffffffffffffffff1663a9059cbb33836040518363ffffffff1660e01b8152600401611078929190617538565b602060405180830381600087803b15801561109257600080fd5b505af11580156110a6573d6000803e3d6000fd5b505050506040513d601f19601f820116820180604052506110ca91908101906166c7565b50505050565b600660009054906101000a900473ffffffffffffffffffffffffffffffffffffffff1681565b6110fe612f8f565b610e1073__$b8d33eeb36ac0d1e81cd70156e0043e778$__63907af6c06040518163ffffffff1660e01b815260040160206040518083038186803b15801561114557600080fd5b505af4158015611159573d6000803e3d6000fd5b505050506040513d601f19601f8201168201806040525061117d919081019061684a565b028111156111c0576040517f08c379a00000000000000000000000000000000000000000000000000000000081526004016111b7906179ae565b60405180910390fd5b80600e819055507f4d71c92b0a9dc236066597b95637bb04d58cd135e9165aee13eb68e3199c2361600e546040516111f89190617b2a565b60405180910390a150565b600160009054906101000a900473ffffffffffffffffffffffffffffffffffffffff1681565b600073ffffffffffffffffffffffffffffffffffffffff166009600084815260200190815260200160002060009054906101000a900473ffffffffffffffffffffffffffffffffffffffff1673ffffffffffffffffffffffffffffffffffffffff161461132f576009600083815260200190815260200160002060009054906101000a900473ffffffffffffffffffffffffffffffffffffffff1673ffffffffffffffffffffffffffffffffffffffff1663c00007b0826040518263ffffffff1660e01b81526004016112fc9190617479565b600060405180830381600087803b15801561131657600080fd5b505af115801561132a573d6000803e3d6000fd5b505050505b5050565b61133b612f8f565b816009600083815260200190815260200160002060006101000a81548173ffffffffffffffffffffffffffffffffffffffff021916908373ffffffffffffffffffffffffffffffffffffffff1602179055505050565b600084849050600780549050146113ab576000905061145e565b60008090505b858590508110156114585760008686838181106113ca57fe5b90506020020135905080600783815481106113e157fe5b9060005260206000200154146113fc5760009250505061145e565b6007828154811061140957fe5b90600052602060002001546008600087878681811061142457fe5b905060200201358152602001908152602001600020541461144a5760009250505061145e565b5080806001019150506113b1565b50600190505b949350505050565b6060611470611872565b905060008090505b815181101561160357600082828151811061148f57fe5b602002602001015190506000600260009054906101000a900473ffffffffffffffffffffffffffffffffffffffff1673ffffffffffffffffffffffffffffffffffffffff1663dacb2d0183846040516020016114eb9190617453565b6040516020818303038152906040526040518363ffffffff1660e01b8152600401611517929190617686565b60206040518083038186803b15801561152f57600080fd5b505afa158015611543573d6000803e3d6000fd5b505050506040513d601f19601f820116820180604052506115679190810190616575565b9050806003600084815260200190815260200160002060006101000a81548173ffffffffffffffffffffffffffffffffffffffff021916908373ffffffffffffffffffffffffffffffffffffffff1602179055507f88a93678a3692f6789d9546fc621bf7234b101ddb7d4fe479455112831b8aa6882826040516115ec929190617634565b60405180910390a150508080600101915050611478565b5050565b600160009054906101000a900473ffffffffffffffffffffffffffffffffffffffff1673ffffffffffffffffffffffffffffffffffffffff163373ffffffffffffffffffffffffffffffffffffffff1614611697576040517f08c379a000000000000000000000000000000000000000000000000000000000815260040161168e906177ee565b60405180910390fd5b7fb532073b38c83145e3e5135377a08bf9aab55bc0fd7c1179cd4fb995d2a5159c6000809054906101000a900473ffffffffffffffffffffffffffffffffffffffff16600160009054906101000a900473ffffffffffffffffffffffffffffffffffffffff1660405161170b929190617561565b60405180910390a1600160009054906101000a900473ffffffffffffffffffffffffffffffffffffffff166000806101000a81548173ffffffffffffffffffffffffffffffffffffffff021916908373ffffffffffffffffffffffffffffffffffffffff1602179055506000600160006101000a81548173ffffffffffffffffffffffffffffffffffffffff021916908373ffffffffffffffffffffffffffffffffffffffff160217905550565b600061186a6117c66128bf565b73ffffffffffffffffffffffffffffffffffffffff1663654a60ac60045486866040518463ffffffff1660e01b8152600401611804939291906176df565b60206040518083038186803b15801561181c57600080fd5b505afa158015611830573d6000803e3d6000fd5b505050506040513d601f19601f82011682018060405250611854919081019061684a565b61185c61354f565b61294490919063ffffffff16565b905092915050565b60608061187d6135e6565b9050606060056040519080825280602002602001820160405280156118b15781602001602082028038833980820191505090505b5090507f466565506f6f6c00000000000000000000000000000000000000000000000000816000815181106118e257fe5b6020026020010181815250507f45786368616e67655261746573000000000000000000000000000000000000008160018151811061191c57fe5b6020026020010181815250507f45786368616e67657200000000000000000000000000000000000000000000008160028151811061195657fe5b6020026020010181815250507f53797374656d53746174757300000000000000000000000000000000000000008160038151811061199057fe5b6020026020010181815250507f53796e7468735553440000000000000000000000000000000000000000000000816004815181106119ca57fe5b60200260200101818152505060606119e28383613658565b9050611a3e816007805480602002602001604051908101604052809291908181526020018280548015611a3457602002820191906000526020600020905b815481526020019060010190808311611a20575b5050505050613658565b935050505090565b611a528333848461372b565b505050565b6000809054906101000a900473ffffffffffffffffffffffffffffffffffffffff1681565b611a84612f8f565b80600f60006101000a81548160ff0219169083151502179055507f261991749e1b2436706a31bde8bf184bb37fe21e303709b78d3b881afacadaa2600f60009054906101000a900460ff16604051611adc91906175fe565b60405180910390a150565b600a5481565b611af5612f8f565b80600c819055507fe7bd72551c54d568cd97b00dc52d2787b5c5d4f0070d3582c1e8ba25141f799c600c54604051611b2d9190617b2a565b60405180910390a150565b60045481565b600b5481565b600560009054906101000a900473ffffffffffffffffffffffffffffffffffffffff1681565b611b72612f8f565b80600660006101000a81548173ffffffffffffffffffffffffffffffffffffffff021916908373ffffffffffffffffffffffffffffffffffffffff1602179055507f2c1c11af44aa5608f1dca38c00275c30ea091e02417d36e70e9a1538689c433d600660009054906101000a900473ffffffffffffffffffffffffffffffffffffffff16604051611c049190617479565b60405180910390a150565b611c198282613b30565b5050565b600080611c286128bf565b73ffffffffffffffffffffffffffffffffffffffff1663654a60ac60045485604001517f73555344000000000000000000000000000000000000000000000000000000006040518463ffffffff1660e01b8152600401611c8a939291906176df565b60206040518083038186803b158015611ca257600080fd5b505afa158015611cb6573d6000803e3d6000fd5b505050506040513d601f19601f82011682018060405250611cda919081019061684a565b90506000611ce66128bf565b73ffffffffffffffffffffffffffffffffffffffff1663654a60ac8560600151611d218760c0015188608001516128ef90919063ffffffff16565b7f73555344000000000000000000000000000000000000000000000000000000006040518463ffffffff1660e01b8152600401611d60939291906176df565b60206040518083038186803b158015611d7857600080fd5b505afa158015611d8c573d6000803e3d6000fd5b505050506040513d601f19601f82011682018060405250611db0919081019061684a565b9050611dc581836141c990919063ffffffff16565b92505050919050565b60096020528060005260406000206000915054906101000a900473ffffffffffffffffffffffffffffffffffffffff1681565b600080611e0c6127e6565b90506000611e186128bf565b73ffffffffffffffffffffffffffffffffffffffff1663654a60ac8560600151611e538760c0015188608001516128ef90919063ffffffff16565b7f73555344000000000000000000000000000000000000000000000000000000006040518463ffffffff1660e01b8152600401611e92939291906176df565b60206040518083038186803b158015611eaa57600080fd5b505afa158015611ebe573d6000803e3d6000fd5b505050506040513d601f19601f82011682018060405250611ee2919081019061684a565b90506000611eee6128bf565b73ffffffffffffffffffffffffffffffffffffffff1663654a60ac60045487604001517f73555344000000000000000000000000000000000000000000000000000000006040518463ffffffff1660e01b8152600401611f50939291906176df565b60206040518083038186803b158015611f6857600080fd5b505afa158015611f7c573d6000803e3d6000fd5b505050506040513d601f19601f82011682018060405250611fa0919081019061684a565b9050600073__$b8d33eeb36ac0d1e81cd70156e0043e778$__63907af6c06040518163ffffffff1660e01b815260040160206040518083038186803b158015611fe857600080fd5b505af4158015611ffc573d6000803e3d6000fd5b505050506040513d601f19601f82011682018060405250612020919081019061684a565b9050600061204b61203c600a54856141c990919063ffffffff16565b856141ff90919063ffffffff16565b90506000612088612079600a5461206b89876128ef90919063ffffffff16565b6141c990919063ffffffff16565b846141ff90919063ffffffff16565b9050600061209f82846141c990919063ffffffff16565b90506120a96128bf565b73ffffffffffffffffffffffffffffffffffffffff1663654a60ac7f7355534400000000000000000000000000000000000000000000000000000000838c606001516040518463ffffffff1660e01b8152600401612109939291906176df565b60206040518083038186803b15801561212157600080fd5b505afa158015612135573d6000803e3d6000fd5b505050506040513d601f19601f82011682018060405250612159919081019061684a565b975050505050505050919050565b600d5481565b6121756127b6565b73ffffffffffffffffffffffffffffffffffffffff1663dd62ed3e33306040518363ffffffff1660e01b81526004016121af9291906174af565b60206040518083038186803b1580156121c757600080fd5b505afa1580156121db573d6000803e3d6000fd5b505050506040513d601f19601f820116820180604052506121ff919081019061684a565b831115612241576040517f08c379a00000000000000000000000000000000000000000000000000000000081526004016122389061780e565b60405180910390fd5b61224e8383836001614255565b506122576127b6565b73ffffffffffffffffffffffffffffffffffffffff166323b872dd3330866040518463ffffffff1660e01b8152600401612293939291906174d8565b602060405180830381600087803b1580156122ad57600080fd5b505af11580156122c1573d6000803e3d6000fd5b505050506040513d601f19601f820116820180604052506122e591908101906166c7565b50505050565b60006122f5614c69565b6122fd614d3d565b73ffffffffffffffffffffffffffffffffffffffff16637c3125416040518163ffffffff1660e01b815260040160006040518083038186803b15801561234257600080fd5b505afa158015612356573d6000803e3d6000fd5b505050506000821161239d576040517f08c379a00000000000000000000000000000000000000000000000000000000081526004016123949061784e565b60405180910390fd5b6123a5616211565b600560009054906101000a900473ffffffffffffffffffffffffffffffffffffffff1673ffffffffffffffffffffffffffffffffffffffff1663a1c5158686866040518363ffffffff1660e01b81526004016124029291906175b3565b6101206040518083038186803b15801561241b57600080fd5b505afa15801561242f573d6000803e3d6000fd5b505050506040513d601f19601f8201168201806040525061245391908101906167f7565b905061245e81614d6d565b61246781614e13565b9050612478338260600151856153b5565b600a5461248482611c1d565b106124c4576040517f08c379a00000000000000000000000000000000000000000000000000000000081526004016124bb906178ae565b60405180910390fd5b60006124cf82611e01565b905060008482106124e057846124e2565b815b905060006125018460c0015185608001516128ef90919063ffffffff16565b9050808210612520576125158833866154a0565b9450505050506127af565b61252a848361599a565b935061253a846060015183610815565b94506125538585604001516141ff90919063ffffffff16565b846040018181525050428461010001818152505061256f615c62565b73ffffffffffffffffffffffffffffffffffffffff1663d6f32e063386606001516040518363ffffffff1660e01b81526004016125ad92919061750f565b60206040518083038186803b1580156125c557600080fd5b505afa1580156125d9573d6000803e3d6000fd5b505050506040513d601f19601f820116820180604052506125fd91908101906166c7565b1561263d576040517f08c379a000000000000000000000000000000000000000000000000000000000815260040161263490617aee565b60405180910390fd5b61265d600860008660600151815260200190815260200160002054615c92565b73ffffffffffffffffffffffffffffffffffffffff16639dc29fac33846040518363ffffffff1660e01b8152600401612697929190617538565b600060405180830381600087803b1580156126b157600080fd5b505af11580156126c5573d6000803e3d6000fd5b50505050600560009054906101000a900473ffffffffffffffffffffffffffffffffffffffff1673ffffffffffffffffffffffffffffffffffffffff166344dce41c856040518263ffffffff1660e01b81526004016127249190617b0e565b600060405180830381600087803b15801561273e57600080fd5b505af1158015612752573d6000803e3d6000fd5b505050508773ffffffffffffffffffffffffffffffffffffffff167fb6e43890aeea54fbe6c0ed628e78172a0ff30bbcb1d70d8b130b12c366bac4c5883385896040516127a29493929190617b45565b60405180910390a2505050505b9392505050565b60006127e17f53796e7468735553440000000000000000000000000000000000000000000000615ca4565b905090565b60006127f0615d79565b73ffffffffffffffffffffffffffffffffffffffff166323257c2b7f53797374656d53657474696e67730000000000000000000000000000000000007f6c69717569646174696f6e50656e616c747900000000000000000000000000006040518363ffffffff1660e01b815260040161286a92919061765d565b60206040518083038186803b15801561288257600080fd5b505afa158015612896573d6000803e3d6000fd5b505050506040513d601f19601f820116820180604052506128ba919081019061684a565b905090565b60006128ea7f45786368616e6765526174657300000000000000000000000000000000000000615ca4565b905090565b60008082840190508381101561293a576040517f08c379a00000000000000000000000000000000000000000000000000000000081526004016129319061786e565b60405180910390fd5b8091505092915050565b6000601260ff16600a0a6129618385615da990919063ffffffff16565b8161296857fe5b04905092915050565b600061297b614c69565b612983614d3d565b73ffffffffffffffffffffffffffffffffffffffff16637c3125416040518163ffffffff1660e01b815260040160006040518083038186803b1580156129c857600080fd5b505afa1580156129dc573d6000803e3d6000fd5b505050506129e8616211565b600560009054906101000a900473ffffffffffffffffffffffffffffffffffffffff1673ffffffffffffffffffffffffffffffffffffffff1663a1c5158685856040518363ffffffff1660e01b8152600401612a459291906175b3565b6101206040518083038186803b158015612a5e57600080fd5b505afa158015612a72573d6000803e3d6000fd5b505050506040513d601f19601f82011682018060405250612a9691908101906167f7565b9050612aa181614d6d565b612aaa81614e13565b90506000612ac98260c0015183608001516128ef90919063ffffffff16565b9050612ade82602001518360600151836153b5565b612ae6615c62565b73ffffffffffffffffffffffffffffffffffffffff1663d6f32e068684606001516040518363ffffffff1660e01b8152600401612b2492919061758a565b60206040518083038186803b158015612b3c57600080fd5b505afa158015612b50573d6000803e3d6000fd5b505050506040513d601f19601f82011682018060405250612b7491908101906166c7565b15612bb4576040517f08c379a0000000000000000000000000000000000000000000000000000000008152600401612bab9061790e565b60405180910390fd5b612bd4600860008460600151815260200190815260200160002054615c92565b73ffffffffffffffffffffffffffffffffffffffff16639dc29fac86836040518363ffffffff1660e01b8152600401612c0e9291906175b3565b600060405180830381600087803b158015612c2857600080fd5b505af1158015612c3c573d6000803e3d6000fd5b505050508160a0015115612ddf57612c52615e19565b73ffffffffffffffffffffffffffffffffffffffff16635246f2b9836060015184608001516040518363ffffffff1660e01b8152600401612c949291906176b6565b600060405180830381600087803b158015612cae57600080fd5b505af1158015612cc2573d6000803e3d6000fd5b50505050600073ffffffffffffffffffffffffffffffffffffffff16600960008460600151815260200190815260200160002060009054906101000a900473ffffffffffffffffffffffffffffffffffffffff1673ffffffffffffffffffffffffffffffffffffffff1614612dda57600960008360600151815260200190815260200160002060009054906101000a900473ffffffffffffffffffffffffffffffffffffffff1673ffffffffffffffffffffffffffffffffffffffff1663f3fef3a38684608001516040518363ffffffff1660e01b8152600401612da79291906175b3565b600060405180830381600087803b158015612dc157600080fd5b505af1158015612dd5573d6000803e3d6000fd5b505050505b612e5c565b612de7615e19565b73ffffffffffffffffffffffffffffffffffffffff1663e50a31b3836060015184608001516040518363ffffffff1660e01b8152600401612e299291906176b6565b600060405180830381600087803b158015612e4357600080fd5b505af1158015612e57573d6000803e3d6000fd5b505050505b81604001519250612e758260c001518360600151615e43565b6000826080018181525050600082604001818152505060008260c001818152505060008260e00181815250504282610100018181525050600560009054906101000a900473ffffffffffffffffffffffffffffffffffffffff1673ffffffffffffffffffffffffffffffffffffffff166344dce41c836040518263ffffffff1660e01b8152600401612f079190617b0e565b600060405180830381600087803b158015612f2157600080fd5b505af1158015612f35573d6000803e3d6000fd5b505050508473ffffffffffffffffffffffffffffffffffffffff167fcab22a4e95d29d40da2ace3f6ec72b49954a9bc7b2584f8fd47bf7f357a3ed6f85604051612f7f9190617b2a565b60405180910390a2505092915050565b6000809054906101000a900473ffffffffffffffffffffffffffffffffffffffff1673ffffffffffffffffffffffffffffffffffffffff163373ffffffffffffffffffffffffffffffffffffffff161461301e576040517f08c379a000000000000000000000000000000000000000000000000000000000815260040161301590617a0e565b60405180910390fd5b565b613028614c69565b613030614d3d565b73ffffffffffffffffffffffffffffffffffffffff16637c3125416040518163ffffffff1660e01b815260040160006040518083038186803b15801561307557600080fd5b505afa158015613089573d6000803e3d6000fd5b50505050600081116130d0576040517f08c379a00000000000000000000000000000000000000000000000000000000081526004016130c790617a8e565b60405180910390fd5b6130d8616211565b600560009054906101000a900473ffffffffffffffffffffffffffffffffffffffff1673ffffffffffffffffffffffffffffffffffffffff1663a1c5158685856040518363ffffffff1660e01b81526004016131359291906175b3565b6101206040518083038186803b15801561314e57600080fd5b505afa158015613162573d6000803e3d6000fd5b505050506040513d601f19601f8201168201806040525061318691908101906167f7565b905061319181614d6d565b61319a81614e13565b90506131b38282604001516128ef90919063ffffffff16565b8160400181815250504281610100018181525050600560009054906101000a900473ffffffffffffffffffffffffffffffffffffffff1673ffffffffffffffffffffffffffffffffffffffff166344dce41c826040518263ffffffff1660e01b81526004016132229190617b0e565b600060405180830381600087803b15801561323c57600080fd5b505af1158015613250573d6000803e3d6000fd5b505050508373ffffffffffffffffffffffffffffffffffffffff167f0b1992dffc262be88559dcaf96464e9d661d8bfca7e82f2bb73e31932a82187c848484604001516040516132a293929190617bdc565b60405180910390a250505050565b60006132ba614c69565b6132c2614d3d565b73ffffffffffffffffffffffffffffffffffffffff16637c3125416040518163ffffffff1660e01b815260040160006040518083038186803b15801561330757600080fd5b505afa15801561331b573d6000803e3d6000fd5b50505050613327616211565b600560009054906101000a900473ffffffffffffffffffffffffffffffffffffffff1673ffffffffffffffffffffffffffffffffffffffff1663a1c5158633866040518363ffffffff1660e01b8152600401613384929190617538565b6101206040518083038186803b15801561339d57600080fd5b505afa1580156133b1573d6000803e3d6000fd5b505050506040513d601f19601f820116820180604052506133d591908101906167f7565b90506133e081614d6d565b6133e981614e13565b90506134028382604001516141ff90919063ffffffff16565b8160400181815250504281610100018181525050600a5461342282611c1d565b11613462576040517f08c379a0000000000000000000000000000000000000000000000000000000008152600401613459906177ae565b60405180910390fd5b600560009054906101000a900473ffffffffffffffffffffffffffffffffffffffff1673ffffffffffffffffffffffffffffffffffffffff166344dce41c826040518263ffffffff1660e01b81526004016134bd9190617b0e565b600060405180830381600087803b1580156134d757600080fd5b505af11580156134eb573d6000803e3d6000fd5b505050508291503373ffffffffffffffffffffffffffffffffffffffff167ffae26280bca25d80f1501a9e363c73d3845e651c9aaae54f1fc09a9dcd5f33038585846040015160405161354093929190617bdc565b60405180910390a25092915050565b60006135e1600a5473__$b8d33eeb36ac0d1e81cd70156e0043e778$__63907af6c06040518163ffffffff1660e01b815260040160206040518083038186803b15801561359b57600080fd5b505af41580156135af573d6000803e3d6000fd5b505050506040513d601f19601f820116820180604052506135d3919081019061684a565b61609990919063ffffffff16565b905090565b606060016040519080825280602002602001820160405280156136185781602001602082028038833980820191505090505b5090507f466c657869626c6553746f7261676500000000000000000000000000000000008160008151811061364957fe5b60200260200101818152505090565b6060815183510160405190808252806020026020018201604052801561368d5781602001602082028038833980820191505090505b50905060008090505b83518110156136d8578381815181106136ab57fe5b60200260200101518282815181106136bf57fe5b6020026020010181815250508080600101915050613696565b5060008090505b8251811015613724578281815181106136f457fe5b602002602001015182828651018151811061370b57fe5b60200260200101818152505080806001019150506136df565b5092915050565b613733614c69565b61373b614d3d565b73ffffffffffffffffffffffffffffffffffffffff16637c3125416040518163ffffffff1660e01b815260040160006040518083038186803b15801561378057600080fd5b505afa158015613794573d6000803e3d6000fd5b50505050600081116137db576040517f08c379a00000000000000000000000000000000000000000000000000000000081526004016137d29061784e565b60405180910390fd5b6137e3616211565b600560009054906101000a900473ffffffffffffffffffffffffffffffffffffffff1673ffffffffffffffffffffffffffffffffffffffff1663a1c5158686856040518363ffffffff1660e01b81526004016138409291906175b3565b6101206040518083038186803b15801561385957600080fd5b505afa15801561386d573d6000803e3d6000fd5b505050506040513d601f19601f8201168201806040525061389191908101906167f7565b905061389c81614d6d565b6138a581614e13565b90506138b6848260600151846153b5565b6138c0818361599a565b905042816101000181815250506138d5615c62565b73ffffffffffffffffffffffffffffffffffffffff1663d6f32e068583606001516040518363ffffffff1660e01b815260040161391392919061758a565b60206040518083038186803b15801561392b57600080fd5b505afa15801561393f573d6000803e3d6000fd5b505050506040513d601f19601f8201168201806040525061396391908101906166c7565b156139a3576040517f08c379a000000000000000000000000000000000000000000000000000000000815260040161399a90617aee565b60405180910390fd5b6139c3600860008360600151815260200190815260200160002054615c92565b73ffffffffffffffffffffffffffffffffffffffff16639dc29fac85846040518363ffffffff1660e01b81526004016139fd9291906175b3565b600060405180830381600087803b158015613a1757600080fd5b505af1158015613a2b573d6000803e3d6000fd5b50505050600560009054906101000a900473ffffffffffffffffffffffffffffffffffffffff1673ffffffffffffffffffffffffffffffffffffffff166344dce41c826040518263ffffffff1660e01b8152600401613a8a9190617b0e565b600060405180830381600087803b158015613aa457600080fd5b505af1158015613ab8573d6000803e3d6000fd5b505050508373ffffffffffffffffffffffffffffffffffffffff168573ffffffffffffffffffffffffffffffffffffffff167fdf10512219e869922340b1b24b21d7d79bf71f411a6391cc7c3ef5dd2fe89e7f85858560800151604051613b2193929190617bdc565b60405180910390a35050505050565b613b38614c69565b613b40614d3d565b73ffffffffffffffffffffffffffffffffffffffff16637c3125416040518163ffffffff1660e01b815260040160006040518083038186803b158015613b8557600080fd5b505afa158015613b99573d6000803e3d6000fd5b50505050613ba5616211565b600560009054906101000a900473ffffffffffffffffffffffffffffffffffffffff1673ffffffffffffffffffffffffffffffffffffffff1663a1c5158633856040518363ffffffff1660e01b8152600401613c02929190617538565b6101206040518083038186803b158015613c1b57600080fd5b505afa158015613c2f573d6000803e3d6000fd5b505050506040513d601f19601f82011682018060405250613c5391908101906167f7565b9050613c5e81614d6d565b613c6781614e13565b9050613c808282608001516128ef90919063ffffffff16565b816080018181525050600a54613c9582611c1d565b11613cd5576040517f08c379a0000000000000000000000000000000000000000000000000000000008152600401613ccc906177ce565b60405180910390fd5b6000613cec600c54846160b590919063ffffffff16565b90506000613d0382856141ff90919063ffffffff16565b90508260a0015115613fc757613d17615e19565b73ffffffffffffffffffffffffffffffffffffffff1663e31f27c18460600151866040518363ffffffff1660e01b8152600401613d559291906176b6565b600060405180830381600087803b158015613d6f57600080fd5b505af1158015613d83573d6000803e3d6000fd5b50505050613d8f6127b6565b73ffffffffffffffffffffffffffffffffffffffff1663867904b433613db36128bf565b73ffffffffffffffffffffffffffffffffffffffff1663654a60ac8760600151867f73555344000000000000000000000000000000000000000000000000000000006040518463ffffffff1660e01b8152600401613e13939291906176df565b60206040518083038186803b158015613e2b57600080fd5b505afa158015613e3f573d6000803e3d6000fd5b505050506040513d601f19601f82011682018060405250613e63919081019061684a565b6040518363ffffffff1660e01b8152600401613e80929190617538565b600060405180830381600087803b158015613e9a57600080fd5b505af1158015613eae573d6000803e3d6000fd5b50505050600073ffffffffffffffffffffffffffffffffffffffff16600960008560600151815260200190815260200160002060009054906101000a900473ffffffffffffffffffffffffffffffffffffffff1673ffffffffffffffffffffffffffffffffffffffff1614613fc257600960008460600151815260200190815260200160002060009054906101000a900473ffffffffffffffffffffffffffffffffffffffff1673ffffffffffffffffffffffffffffffffffffffff1663db454a5133866040518363ffffffff1660e01b8152600401613f8f929190617538565b600060405180830381600087803b158015613fa957600080fd5b505af1158015613fbd573d6000803e3d6000fd5b505050505b6140cc565b613fcf615e19565b73ffffffffffffffffffffffffffffffffffffffff1663eb94bbde8460600151866040518363ffffffff1660e01b815260040161400d9291906176b6565b600060405180830381600087803b15801561402757600080fd5b505af115801561403b573d6000803e3d6000fd5b5050505061405f600860008560600151815260200190815260200160002054615c92565b73ffffffffffffffffffffffffffffffffffffffff1663867904b433836040518363ffffffff1660e01b8152600401614099929190617538565b600060405180830381600087803b1580156140b357600080fd5b505af11580156140c7573d6000803e3d6000fd5b505050505b6140da828460600151615e43565b4283610100018181525050600560009054906101000a900473ffffffffffffffffffffffffffffffffffffffff1673ffffffffffffffffffffffffffffffffffffffff166344dce41c846040518263ffffffff1660e01b81526004016141409190617b0e565b600060405180830381600087803b15801561415a57600080fd5b505af115801561416e573d6000803e3d6000fd5b505050503373ffffffffffffffffffffffffffffffffffffffff167f5754fe57f36ac0f121901d7555aba517e6608590429d86a81c662cf35831065486866040516141ba929190617bb3565b60405180910390a25050505050565b60006141f7826141e9601260ff16600a0a86615da990919063ffffffff16565b6160d190919063ffffffff16565b905092915050565b600082821115614244576040517f08c379a000000000000000000000000000000000000000000000000000000000815260040161423b9061792e565b60405180910390fd5b600082840390508091505092915050565b600061425f614c69565b614267614d3d565b73ffffffffffffffffffffffffffffffffffffffff16637c3125416040518163ffffffff1660e01b815260040160006040518083038186803b1580156142ac57600080fd5b505afa1580156142c0573d6000803e3d6000fd5b50505050600f60009054906101000a900460ff16614313576040517f08c379a000000000000000000000000000000000000000000000000000000000815260040161430a9061798e565b60405180910390fd5b6000801b60086000858152602001908152602001600020541161436b576040517f08c379a000000000000000000000000000000000000000000000000000000000815260040161436290617a2e565b60405180910390fd5b6143736128bf565b73ffffffffffffffffffffffffffffffffffffffff16632528f0fe846040518263ffffffff1660e01b81526004016143ab9190617619565b60206040518083038186803b1580156143c357600080fd5b505afa1580156143d7573d6000803e3d6000fd5b505050506040513d601f19601f820116820180604052506143fb91908101906166c7565b1561443b576040517f08c379a0000000000000000000000000000000000000000000000000000000008152600401614432906178ee565b60405180910390fd5b600b54851015614480576040517f08c379a0000000000000000000000000000000000000000000000000000000008152600401614477906178ce565b60405180910390fd5b600d54600560009054906101000a900473ffffffffffffffffffffffffffffffffffffffff1673ffffffffffffffffffffffffffffffffffffffff1663e0b6adbc336040518263ffffffff1660e01b81526004016144de9190617494565b60206040518083038186803b1580156144f657600080fd5b505afa15801561450a573d6000803e3d6000fd5b505050506040513d601f19601f8201168201806040525061452e919081019061684a565b1061456e576040517f08c379a00000000000000000000000000000000000000000000000000000000081526004016145659061788e565b60405180910390fd5b600080614579615e19565b73ffffffffffffffffffffffffffffffffffffffff1663b4d6cb4087876040518363ffffffff1660e01b81526004016145b3929190617b8a565b604080518083038186803b1580156145ca57600080fd5b505afa1580156145de573d6000803e3d6000fd5b505050506040513d601f19601f8201168201806040525061460291908101906166f0565b91509150818015614611575080155b614650576040517f08c379a000000000000000000000000000000000000000000000000000000000815260040161464790617aae565b60405180910390fd5b61465a87866117b9565b86111561469c576040517f08c379a0000000000000000000000000000000000000000000000000000000008152600401614693906179ee565b60405180910390fd5b60006146b3600c54886160b590919063ffffffff16565b905060006146ca82896141ff90919063ffffffff16565b90506146d4615e19565b73ffffffffffffffffffffffffffffffffffffffff1663b3b467326040518163ffffffff1660e01b8152600401602060405180830381600087803b15801561471b57600080fd5b505af115801561472f573d6000803e3d6000fd5b505050506040513d601f19601f82011682018060405250614753919081019061684a565b945061475d616211565b6040518061012001604052808781526020013373ffffffffffffffffffffffffffffffffffffffff1681526020018b81526020018981526020018a8152602001881515815260200160008152602001600081526020014281525090506147c281614e13565b9050600560009054906101000a900473ffffffffffffffffffffffffffffffffffffffff1673ffffffffffffffffffffffffffffffffffffffff16635c331204826040518263ffffffff1660e01b815260040161481f9190617b0e565b600060405180830381600087803b15801561483957600080fd5b505af115801561484d573d6000803e3d6000fd5b5050505061485b8389615e43565b8615614b09576148696127b6565b73ffffffffffffffffffffffffffffffffffffffff1663867904b43361488d6128bf565b73ffffffffffffffffffffffffffffffffffffffff1663654a60ac8c877f73555344000000000000000000000000000000000000000000000000000000006040518463ffffffff1660e01b81526004016148e9939291906176df565b60206040518083038186803b15801561490157600080fd5b505afa158015614915573d6000803e3d6000fd5b505050506040513d601f19601f82011682018060405250614939919081019061684a565b6040518363ffffffff1660e01b8152600401614956929190617538565b600060405180830381600087803b15801561497057600080fd5b505af1158015614984573d6000803e3d6000fd5b50505050614990615e19565b73ffffffffffffffffffffffffffffffffffffffff1663e31f27c1898b6040518363ffffffff1660e01b81526004016149ca9291906176b6565b600060405180830381600087803b1580156149e457600080fd5b505af11580156149f8573d6000803e3d6000fd5b50505050600073ffffffffffffffffffffffffffffffffffffffff16600960008a815260200190815260200160002060009054906101000a900473ffffffffffffffffffffffffffffffffffffffff1673ffffffffffffffffffffffffffffffffffffffff1614614b04576009600089815260200190815260200160002060009054906101000a900473ffffffffffffffffffffffffffffffffffffffff1673ffffffffffffffffffffffffffffffffffffffff1663db454a51338b6040518363ffffffff1660e01b8152600401614ad1929190617538565b600060405180830381600087803b158015614aeb57600080fd5b505af1158015614aff573d6000803e3d6000fd5b505050505b614c06565b614b25600860008a815260200190815260200160002054615c92565b73ffffffffffffffffffffffffffffffffffffffff1663867904b433846040518363ffffffff1660e01b8152600401614b5f929190617538565b600060405180830381600087803b158015614b7957600080fd5b505af1158015614b8d573d6000803e3d6000fd5b50505050614b99615e19565b73ffffffffffffffffffffffffffffffffffffffff1663eb94bbde898b6040518363ffffffff1660e01b8152600401614bd39291906176b6565b600060405180830381600087803b158015614bed57600080fd5b505af1158015614c01573d6000803e3d6000fd5b505050505b3373ffffffffffffffffffffffffffffffffffffffff167f604952b18be5fed608cbdd28101dc57bd667055c9678ec6d44fb1d8e4c7c172a878b8d8c88604051614c54959493929190617c13565b60405180910390a25050505050949350505050565b614c716128bf565b73ffffffffffffffffffffffffffffffffffffffff16632528f0fe6004546040518263ffffffff1660e01b8152600401614cab9190617619565b60206040518083038186803b158015614cc357600080fd5b505afa158015614cd7573d6000803e3d6000fd5b505050506040513d601f19601f82011682018060405250614cfb91908101906166c7565b15614d3b576040517f08c379a0000000000000000000000000000000000000000000000000000000008152600401614d32906179ce565b60405180910390fd5b565b6000614d687f53797374656d5374617475730000000000000000000000000000000000000000615ca4565b905090565b60008160e0015111614db4576040517f08c379a0000000000000000000000000000000000000000000000000000000008152600401614dab90617ace565b60405180910390fd5b42614dcf600e548361010001516128ef90919063ffffffff16565b1115614e10576040517f08c379a0000000000000000000000000000000000000000000000000000000008152600401614e079061782e565b60405180910390fd5b50565b614e1b616211565b8190506000806000808560a00151614ec657614e35615e19565b73ffffffffffffffffffffffffffffffffffffffff166303f048b08760e001516040518263ffffffff1660e01b8152600401614e719190617b2a565b60806040518083038186803b158015614e8957600080fd5b505afa158015614e9d573d6000803e3d6000fd5b505050506040513d601f19601f82011682018060405250614ec19190810190616976565b614f61565b614ece615e19565b73ffffffffffffffffffffffffffffffffffffffff1663af07aa9d87606001518860e001516040518363ffffffff1660e01b8152600401614f109291906176b6565b60806040518083038186803b158015614f2857600080fd5b505afa158015614f3c573d6000803e3d6000fd5b505050506040513d601f19601f82011682018060405250614f609190810190616976565b5b93509350935093506000808760a00151614ffe57614f7d615e19565b73ffffffffffffffffffffffffffffffffffffffff1663ba1c5e806040518163ffffffff1660e01b8152600401604080518083038186803b158015614fc157600080fd5b505afa158015614fd5573d6000803e3d6000fd5b505050506040513d601f19601f82011682018060405250614ff99190810190616873565b6150a5565b615006615e19565b73ffffffffffffffffffffffffffffffffffffffff1663ee81f790600860008b606001518152602001908152602001600020546040518263ffffffff1660e01b81526004016150559190617619565b604080518083038186803b15801561506c57600080fd5b505afa158015615080573d6000803e3d6000fd5b505050506040513d601f19601f820116820180604052506150a49190810190616873565b5b9150915080156150ea576040517f08c379a00000000000000000000000000000000000000000000000000000000081526004016150e19061796e565b60405180910390fd5b600061518c73__$b8d33eeb36ac0d1e81cd70156e0043e778$__63907af6c06040518163ffffffff1660e01b815260040160206040518083038186803b15801561513357600080fd5b505af4158015615147573d6000803e3d6000fd5b505050506040513d601f19601f8201168201806040525061516b919081019061684a565b61517e87426141ff90919063ffffffff16565b615da990919063ffffffff16565b905060006151b56151a6838661294490919063ffffffff16565b886128ef90919063ffffffff16565b90506000808b60e00151146151f2576151ed6151da8a846141ff90919063ffffffff16565b8c6080015161294490919063ffffffff16565b6151f5565b60005b90508a60a0015161527757615208615e19565b73ffffffffffffffffffffffffffffffffffffffff1663f53037b6836040518263ffffffff1660e01b81526004016152409190617b2a565b600060405180830381600087803b15801561525a57600080fd5b505af115801561526e573d6000803e3d6000fd5b505050506152f0565b61527f615e19565b73ffffffffffffffffffffffffffffffffffffffff1663246206398c60600151846040518363ffffffff1660e01b81526004016152bd9291906176b6565b600060405180830381600087803b1580156152d757600080fd5b505af11580156152eb573d6000803e3d6000fd5b505050505b615307818c60c001516128ef90919063ffffffff16565b8a60c0018181525050858a60e0018181525050600560009054906101000a900473ffffffffffffffffffffffffffffffffffffffff1673ffffffffffffffffffffffffffffffffffffffff166344dce41c8b6040518263ffffffff1660e01b81526004016153759190617b0e565b600060405180830381600087803b15801561538f57600080fd5b505af11580156153a3573d6000803e3d6000fd5b50505050505050505050505050919050565b806153d26008600085815260200190815260200160002054615c92565b73ffffffffffffffffffffffffffffffffffffffff166370a08231856040518263ffffffff1660e01b815260040161540a9190617479565b60206040518083038186803b15801561542257600080fd5b505afa158015615436573d6000803e3d6000fd5b505050506040513d601f19601f8201168201806040525061545a919081019061684a565b101561549b576040517f08c379a000000000000000000000000000000000000000000000000000000000815260040161549290617a6e565b60405180910390fd5b505050565b6000806154be8360c0015184608001516128ef90919063ffffffff16565b9050600083608001519050836040015192506154d8615c62565b73ffffffffffffffffffffffffffffffffffffffff1663d6f32e068686606001516040518363ffffffff1660e01b815260040161551692919061758a565b60206040518083038186803b15801561552e57600080fd5b505afa158015615542573d6000803e3d6000fd5b505050506040513d601f19601f8201168201806040525061556691908101906166c7565b156155a6576040517f08c379a000000000000000000000000000000000000000000000000000000000815260040161559d90617aee565b60405180910390fd5b6155c6600860008660600151815260200190815260200160002054615c92565b73ffffffffffffffffffffffffffffffffffffffff16639dc29fac86846040518363ffffffff1660e01b81526004016156009291906175b3565b600060405180830381600087803b15801561561a57600080fd5b505af115801561562e573d6000803e3d6000fd5b505050508360a00151156157d157615644615e19565b73ffffffffffffffffffffffffffffffffffffffff16635246f2b9856060015186608001516040518363ffffffff1660e01b81526004016156869291906176b6565b600060405180830381600087803b1580156156a057600080fd5b505af11580156156b4573d6000803e3d6000fd5b50505050600073ffffffffffffffffffffffffffffffffffffffff16600960008660600151815260200190815260200160002060009054906101000a900473ffffffffffffffffffffffffffffffffffffffff1673ffffffffffffffffffffffffffffffffffffffff16146157cc57600960008560600151815260200190815260200160002060009054906101000a900473ffffffffffffffffffffffffffffffffffffffff1673ffffffffffffffffffffffffffffffffffffffff1663f3fef3a38786608001516040518363ffffffff1660e01b81526004016157999291906175b3565b600060405180830381600087803b1580156157b357600080fd5b505af11580156157c7573d6000803e3d6000fd5b505050505b61584e565b6157d9615e19565b73ffffffffffffffffffffffffffffffffffffffff1663e50a31b3856060015186608001516040518363ffffffff1660e01b815260040161581b9291906176b6565b600060405180830381600087803b15801561583557600080fd5b505af1158015615849573d6000803e3d6000fd5b505050505b6158608460c001518560600151615e43565b6000846080018181525050600084604001818152505060008460c001818152505060008460e00181815250504284610100018181525050600560009054906101000a900473ffffffffffffffffffffffffffffffffffffffff1673ffffffffffffffffffffffffffffffffffffffff166344dce41c856040518263ffffffff1660e01b81526004016158f29190617b0e565b600060405180830381600087803b15801561590c57600080fd5b505af1158015615920573d6000803e3d6000fd5b505050508473ffffffffffffffffffffffffffffffffffffffff168673ffffffffffffffffffffffffffffffffffffffff167f697721ed1b9d4866cb1aaa0692f62bb3abc1b01c2dafeaad053ffd4532aa7dbb8660000151848760405161598993929190617bdc565b60405180910390a350509392505050565b6159a2616211565b8290506000821180156159b9575060008360c00151115b15615a1e5760008360c0015183116159d157826159d7565b8360c001515b90506159f0818560c001516141ff90919063ffffffff16565b8260c0018181525050615a0c81846141ff90919063ffffffff16565b9250615a1c818560600151615e43565b505b6000821115615c5c57615a3e8284608001516141ff90919063ffffffff16565b8160800181815250508060a0015115615be257615a59615e19565b73ffffffffffffffffffffffffffffffffffffffff16635246f2b98260600151846040518363ffffffff1660e01b8152600401615a979291906176b6565b600060405180830381600087803b158015615ab157600080fd5b505af1158015615ac5573d6000803e3d6000fd5b50505050600073ffffffffffffffffffffffffffffffffffffffff16600960008360600151815260200190815260200160002060009054906101000a900473ffffffffffffffffffffffffffffffffffffffff1673ffffffffffffffffffffffffffffffffffffffff1614615bdd57600960008260600151815260200190815260200160002060009054906101000a900473ffffffffffffffffffffffffffffffffffffffff1673ffffffffffffffffffffffffffffffffffffffff1663f3fef3a38260200151846040518363ffffffff1660e01b8152600401615baa929190617538565b600060405180830381600087803b158015615bc457600080fd5b505af1158015615bd8573d6000803e3d6000fd5b505050505b615c5b565b615bea615e19565b73ffffffffffffffffffffffffffffffffffffffff1663e50a31b38260600151846040518363ffffffff1660e01b8152600401615c289291906176b6565b600060405180830381600087803b158015615c4257600080fd5b505af1158015615c56573d6000803e3d6000fd5b505050505b5b92915050565b6000615c8d7f45786368616e6765720000000000000000000000000000000000000000000000615ca4565b905090565b6000615c9d82615ca4565b9050919050565b6000806003600084815260200190815260200160002060009054906101000a900473ffffffffffffffffffffffffffffffffffffffff169050600073ffffffffffffffffffffffffffffffffffffffff168173ffffffffffffffffffffffffffffffffffffffff16141583604051602001615d1f919061742d565b60405160208183030381529060405290615d6f576040517f08c379a0000000000000000000000000000000000000000000000000000000008152600401615d66919061774c565b60405180910390fd5b5080915050919050565b6000615da47f466c657869626c6553746f726167650000000000000000000000000000000000615ca4565b905090565b600080831415615dbc5760009050615e13565b6000828402905082848281615dcd57fe5b0414615e0e576040517f08c379a0000000000000000000000000000000000000000000000000000000008152600401615e0590617a4e565b60405180910390fd5b809150505b92915050565b6000600660009054906101000a900473ffffffffffffffffffffffffffffffffffffffff16905090565b6000821115616095577f73555344000000000000000000000000000000000000000000000000000000008114615f2a57615e7b6128bf565b73ffffffffffffffffffffffffffffffffffffffff1663654a60ac82847f73555344000000000000000000000000000000000000000000000000000000006040518463ffffffff1660e01b8152600401615ed7939291906176df565b60206040518083038186803b158015615eef57600080fd5b505afa158015615f03573d6000803e3d6000fd5b505050506040513d601f19601f82011682018060405250615f27919081019061684a565b91505b615f326127b6565b73ffffffffffffffffffffffffffffffffffffffff1663867904b4615f5561612d565b73ffffffffffffffffffffffffffffffffffffffff1663eb1edd616040518163ffffffff1660e01b815260040160206040518083038186803b158015615f9a57600080fd5b505afa158015615fae573d6000803e3d6000fd5b505050506040513d601f19601f82011682018060405250615fd29190810190616575565b846040518363ffffffff1660e01b8152600401615ff09291906175b3565b600060405180830381600087803b15801561600a57600080fd5b505af115801561601e573d6000803e3d6000fd5b5050505061602a61612d565b73ffffffffffffffffffffffffffffffffffffffff166322bf55ef836040518263ffffffff1660e01b81526004016160629190617b2a565b600060405180830381600087803b15801561607c57600080fd5b505af1158015616090573d6000803e3d6000fd5b505050505b5050565b60006160ad8383601260ff16600a0a61615d565b905092915050565b60006160c98383601260ff16600a0a6161b8565b905092915050565b6000808211616115576040517f08c379a000000000000000000000000000000000000000000000000000000000815260040161610c9061794e565b60405180910390fd5b600082848161612057fe5b0490508091505092915050565b60006161587f466565506f6f6c00000000000000000000000000000000000000000000000000615ca4565b905090565b6000806161888461617a600a860288615da990919063ffffffff16565b6160d190919063ffffffff16565b90506005600a828161619657fe5b06106161a357600a810190505b600a81816161ad57fe5b049150509392505050565b600080600a83816161c557fe5b046161d98587615da990919063ffffffff16565b816161e057fe5b0490506005600a82816161ef57fe5b06106161fc57600a810190505b600a818161620657fe5b049150509392505050565b60405180610120016040528060008152602001600073ffffffffffffffffffffffffffffffffffffffff1681526020016000815260200160008019168152602001600081526020016000151581526020016000815260200160008152602001600081525090565b60008135905061628781617e23565b92915050565b60008151905061629c81617e23565b92915050565b6000813590506162b181617e3a565b92915050565b6000815190506162c681617e3a565b92915050565b60008083601f8401126162de57600080fd5b8235905067ffffffffffffffff8111156162f757600080fd5b60208301915083602082028301111561630f57600080fd5b9250929050565b60008135905061632581617e51565b92915050565b60008151905061633a81617e51565b92915050565b60008135905061634f81617e68565b92915050565b60008151905061636481617e68565b92915050565b6000610120828403121561637d57600080fd5b616388610120617c66565b9050600061639884828501616522565b60008301525060206163ac848285016162a2565b60208301525060406163c084828501616522565b60408301525060606163d484828501616340565b60608301525060806163e884828501616522565b60808301525060a06163fc84828501616316565b60a08301525060c061641084828501616522565b60c08301525060e061642484828501616522565b60e08301525061010061643984828501616522565b6101008301525092915050565b6000610120828403121561645957600080fd5b616464610120617c66565b9050600061647484828501616537565b6000830152506020616488848285016162b7565b602083015250604061649c84828501616537565b60408301525060606164b084828501616355565b60608301525060806164c484828501616537565b60808301525060a06164d88482850161632b565b60a08301525060c06164ec84828501616537565b60c08301525060e061650084828501616537565b60e08301525061010061651584828501616537565b6101008301525092915050565b60008135905061653181617e7f565b92915050565b60008151905061654681617e7f565b92915050565b60006020828403121561655e57600080fd5b600061656c84828501616278565b91505092915050565b60006020828403121561658757600080fd5b60006165958482850161628d565b91505092915050565b600080604083850312156165b157600080fd5b60006165bf85828601616278565b92505060206165d085828601616340565b9150509250929050565b6000806000606084860312156165ef57600080fd5b60006165fd86828701616278565b935050602061660e86828701616522565b925050604061661f86828701616522565b9150509250925092565b6000806000806040858703121561663f57600080fd5b600085013567ffffffffffffffff81111561665957600080fd5b616665878288016162cc565b9450945050602085013567ffffffffffffffff81111561668457600080fd5b616690878288016162cc565b925092505092959194509250565b6000602082840312156166b057600080fd5b60006166be84828501616316565b91505092915050565b6000602082840312156166d957600080fd5b60006166e78482850161632b565b91505092915050565b6000806040838503121561670357600080fd5b60006167118582860161632b565b92505060206167228582860161632b565b9150509250929050565b60006020828403121561673e57600080fd5b600061674c84828501616340565b91505092915050565b6000806040838503121561676857600080fd5b600061677685828601616340565b925050602061678785828601616278565b9150509250929050565b600080604083850312156167a457600080fd5b60006167b285828601616340565b92505060206167c385828601616522565b9150509250929050565b600061012082840312156167e057600080fd5b60006167ee8482850161636a565b91505092915050565b6000610120828403121561680a57600080fd5b600061681884828501616446565b91505092915050565b60006020828403121561683357600080fd5b600061684184828501616522565b91505092915050565b60006020828403121561685c57600080fd5b600061686a84828501616537565b91505092915050565b6000806040838503121561688657600080fd5b600061689485828601616537565b92505060206168a58582860161632b565b9150509250929050565b600080604083850312156168c257600080fd5b60006168d085828601616522565b92505060206168e185828601616340565b9150509250929050565b600080604083850312156168fe57600080fd5b600061690c85828601616522565b925050602061691d85828601616522565b9150509250929050565b60008060006060848603121561693c57600080fd5b600061694a86828701616522565b935050602061695b86828701616522565b925050604061696c86828701616340565b9150509250925092565b6000806000806080858703121561698c57600080fd5b600061699a87828801616537565b94505060206169ab87828801616537565b93505060406169bc87828801616537565b92505060606169cd87828801616537565b91505092959194509250565b60006169e58383616a9a565b60208301905092915050565b6169fa81617d57565b82525050565b616a0981617d05565b82525050565b616a1881617cf3565b82525050565b6000616a2982617ca3565b616a338185617cc6565b9350616a3e83617c93565b8060005b83811015616a6f578151616a5688826169d9565b9750616a6183617cb9565b925050600181019050616a42565b5085935050505092915050565b616a8581617d17565b82525050565b616a9481617d17565b82525050565b616aa381617d23565b82525050565b616ab281617d23565b82525050565b616ac9616ac482617d23565b617e08565b82525050565b616ad881617d69565b82525050565b616ae781617d8d565b82525050565b6000616af882617cae565b616b028185617cd7565b9350616b12818560208601617dd5565b616b1b81617e12565b840191505092915050565b6000616b33601b83617cd7565b91507f496e707574206172726179206c656e677468206d69736d6174636800000000006000830152602082019050919050565b6000616b73601683617cd7565b91507f4d7573742062652067726561746572207468616e2031000000000000000000006000830152602082019050919050565b6000616bb3600e83617cd7565b91507f43726174696f20746f6f206c6f770000000000000000000000000000000000006000830152602082019050919050565b6000616bf3601583617cd7565b91507f43616e6e6f7420647261772074686973206d75636800000000000000000000006000830152602082019050919050565b6000616c33603583617cd7565b91507f596f75206d757374206265206e6f6d696e61746564206265666f726520796f7560008301527f2063616e20616363657074206f776e65727368697000000000000000000000006020830152604082019050919050565b6000616c99601983617cd7565b91507f416c6c6f77616e6365206e6f74206869676820656e6f756768000000000000006000830152602082019050919050565b6000616cd9601d83617cd7565b91507f4c6f616e20726563656e746c7920696e746572616374656420776974680000006000830152602082019050919050565b6000616d19601e83617cd7565b91507f5061796d656e74206d7573742062652067726561746572207468616e203000006000830152602082019050919050565b6000616d59601b83617cd7565b91507f536166654d6174683a206164646974696f6e206f766572666c6f7700000000006000830152602082019050919050565b6000616d99601283617cd7565b91507f4d6178206c6f616e7320657863656564656400000000000000000000000000006000830152602082019050919050565b6000616dd9601e83617cd7565b91507f43726174696f2061626f7665206c69717569646174696f6e20726174696f00006000830152602082019050919050565b6000616e19601d83617cd7565b91507f4e6f7420656e6f75676820636f6c6c61746572616c20746f206f70656e0000006000830152602082019050919050565b6000616e59601883617cd7565b91507f43757272656e6379207261746520697320696e76616c696400000000000000006000830152602082019050919050565b6000616e99602083617cd7565b91507f57616974696e672073656373206f7220736574746c656d656e74206f77696e676000830152602082019050919050565b6000616ed9601e83617cd7565b91507f536166654d6174683a207375627472616374696f6e206f766572666c6f7700006000830152602082019050919050565b6000616f19601a83617cd7565b91507f536166654d6174683a206469766973696f6e206279207a65726f0000000000006000830152602082019050919050565b6000616f59601183617ce8565b91507f4d697373696e6720616464726573733a200000000000000000000000000000006000830152601182019050919050565b6000616f99601183617cd7565b91507f52617465732061726520696e76616c69640000000000000000000000000000006000830152602082019050919050565b6000616fd9601383617cd7565b91507f4f70656e696e672069732064697361626c6564000000000000000000000000006000830152602082019050919050565b6000617019600a83617cd7565b91507f4d6178203120686f7572000000000000000000000000000000000000000000006000830152602082019050919050565b6000617059601a83617cd7565b91507f436f6c6c61746572616c207261746520697320696e76616c69640000000000006000830152602082019050919050565b6000617099601b83617cd7565b91507f45786365656473206d617820626f72726f77696e6720706f77657200000000006000830152602082019050919050565b60006170d9602f83617cd7565b91507f4f6e6c792074686520636f6e7472616374206f776e6572206d6179207065726660008301527f6f726d207468697320616374696f6e00000000000000000000000000000000006020830152604082019050919050565b600061713f601f83617cd7565b91507f4e6f7420616c6c6f77656420746f20697373756520746869732073796e7468006000830152602082019050919050565b600061717f602183617cd7565b91507f536166654d6174683a206d756c7469706c69636174696f6e206f766572666c6f60008301527f77000000000000000000000000000000000000000000000000000000000000006020830152604082019050919050565b60006171e5601883617cd7565b91507f4e6f7420656e6f7567682073796e74682062616c616e636500000000000000006000830152602082019050919050565b6000617225601e83617cd7565b91507f4465706f736974206d7573742062652067726561746572207468616e203000006000830152602082019050919050565b6000617265601a83617cd7565b91507f44656274206c696d6974206f7220696e76616c696420726174650000000000006000830152602082019050919050565b60006172a5601983617ce8565b91507f5265736f6c766572206d697373696e67207461726765743a20000000000000006000830152601982019050919050565b60006172e5601383617cd7565b91507f4c6f616e20646f6573206e6f74206578697374000000000000000000000000006000830152602082019050919050565b6000617325601b83617cd7565b91507f57616974696e67206f7220736574746c656d656e74206f77696e6700000000006000830152602082019050919050565b6101208201600082015161736f600085018261740f565b5060208201516173826020850182616a00565b506040820151617395604085018261740f565b5060608201516173a86060850182616a9a565b5060808201516173bb608085018261740f565b5060a08201516173ce60a0850182616a7c565b5060c08201516173e160c085018261740f565b5060e08201516173f460e085018261740f565b5061010082015161740961010085018261740f565b50505050565b61741881617d4d565b82525050565b61742781617d4d565b82525050565b600061743882616f4c565b91506174448284616ab8565b60208201915081905092915050565b600061745e82617298565b915061746a8284616ab8565b60208201915081905092915050565b600060208201905061748e6000830184616a0f565b92915050565b60006020820190506174a960008301846169f1565b92915050565b60006040820190506174c460008301856169f1565b6174d16020830184616a0f565b9392505050565b60006060820190506174ed60008301866169f1565b6174fa6020830185616a0f565b617507604083018461741e565b949350505050565b600060408201905061752460008301856169f1565b6175316020830184616aa9565b9392505050565b600060408201905061754d60008301856169f1565b61755a602083018461741e565b9392505050565b60006040820190506175766000830185616a0f565b6175836020830184616a0f565b9392505050565b600060408201905061759f6000830185616a0f565b6175ac6020830184616aa9565b9392505050565b60006040820190506175c86000830185616a0f565b6175d5602083018461741e565b9392505050565b600060208201905081810360008301526175f68184616a1e565b905092915050565b60006020820190506176136000830184616a8b565b92915050565b600060208201905061762e6000830184616aa9565b92915050565b60006040820190506176496000830185616aa9565b6176566020830184616a0f565b9392505050565b60006040820190506176726000830185616aa9565b61767f6020830184616aa9565b9392505050565b600060408201905061769b6000830185616aa9565b81810360208301526176ad8184616aed565b90509392505050565b60006040820190506176cb6000830185616aa9565b6176d8602083018461741e565b9392505050565b60006060820190506176f46000830186616aa9565b617701602083018561741e565b61770e6040830184616aa9565b949350505050565b600060208201905061772b6000830184616acf565b92915050565b60006020820190506177466000830184616ade565b92915050565b600060208201905081810360008301526177668184616aed565b905092915050565b6000602082019050818103600083015261778781616b26565b9050919050565b600060208201905081810360008301526177a781616b66565b9050919050565b600060208201905081810360008301526177c781616ba6565b9050919050565b600060208201905081810360008301526177e781616be6565b9050919050565b6000602082019050818103600083015261780781616c26565b9050919050565b6000602082019050818103600083015261782781616c8c565b9050919050565b6000602082019050818103600083015261784781616ccc565b9050919050565b6000602082019050818103600083015261786781616d0c565b9050919050565b6000602082019050818103600083015261788781616d4c565b9050919050565b600060208201905081810360008301526178a781616d8c565b9050919050565b600060208201905081810360008301526178c781616dcc565b9050919050565b600060208201905081810360008301526178e781616e0c565b9050919050565b6000602082019050818103600083015261790781616e4c565b9050919050565b6000602082019050818103600083015261792781616e8c565b9050919050565b6000602082019050818103600083015261794781616ecc565b9050919050565b6000602082019050818103600083015261796781616f0c565b9050919050565b6000602082019050818103600083015261798781616f8c565b9050919050565b600060208201905081810360008301526179a781616fcc565b9050919050565b600060208201905081810360008301526179c78161700c565b9050919050565b600060208201905081810360008301526179e78161704c565b9050919050565b60006020820190508181036000830152617a078161708c565b9050919050565b60006020820190508181036000830152617a27816170cc565b9050919050565b60006020820190508181036000830152617a4781617132565b9050919050565b60006020820190508181036000830152617a6781617172565b9050919050565b60006020820190508181036000830152617a87816171d8565b9050919050565b60006020820190508181036000830152617aa781617218565b9050919050565b60006020820190508181036000830152617ac781617258565b9050919050565b60006020820190508181036000830152617ae7816172d8565b9050919050565b60006020820190508181036000830152617b0781617318565b9050919050565b600061012082019050617b246000830184617358565b92915050565b6000602082019050617b3f600083018461741e565b92915050565b6000608082019050617b5a600083018761741e565b617b6760208301866169f1565b617b74604083018561741e565b617b81606083018461741e565b95945050505050565b6000604082019050617b9f600083018561741e565b617bac6020830184616aa9565b9392505050565b6000604082019050617bc8600083018561741e565b617bd5602083018461741e565b9392505050565b6000606082019050617bf1600083018661741e565b617bfe602083018561741e565b617c0b604083018461741e565b949350505050565b600060a082019050617c28600083018861741e565b617c35602083018761741e565b617c42604083018661741e565b617c4f6060830185616aa9565b617c5c608083018461741e565b9695505050505050565b6000604051905081810181811067ffffffffffffffff82111715617c8957600080fd5b8060405250919050565b6000819050602082019050919050565b600081519050919050565b600081519050919050565b6000602082019050919050565b600082825260208201905092915050565b600082825260208201905092915050565b600081905092915050565b6000617cfe82617d2d565b9050919050565b6000617d1082617d2d565b9050919050565b60008115159050919050565b6000819050919050565b600073ffffffffffffffffffffffffffffffffffffffff82169050919050565b6000819050919050565b6000617d6282617db1565b9050919050565b6000617d7482617d7b565b9050919050565b6000617d8682617d2d565b9050919050565b6000617d9882617d9f565b9050919050565b6000617daa82617d2d565b9050919050565b6000617dbc82617dc3565b9050919050565b6000617dce82617d2d565b9050919050565b60005b83811015617df3578082015181840152602081019050617dd8565b83811115617e02576000848401525b50505050565b6000819050919050565b6000601f19601f8301169050919050565b617e2c81617cf3565b8114617e3757600080fd5b50565b617e4381617d05565b8114617e4e57600080fd5b50565b617e5a81617d17565b8114617e6557600080fd5b50565b617e7181617d23565b8114617e7c57600080fd5b50565b617e8881617d4d565b8114617e9357600080fd5b5056fea365627a7a72315820fa51e281b2162b9371d165cbefec6564f4ab6a2de1ec67a85c0961832859dd716c6578706572696d656e74616cf564736f6c63430005100040",
  "linkReferences": {
    "contracts/SafeDecimalMath.sol": {
      "SafeDecimalMath": [
        {
          "length": 20,
          "start": 3557
        },
        {
          "length": 20,
          "start": 3894
        },
        {
          "length": 20,
          "start": 5669
        },
        {
          "length": 20,
          "start": 9416
        },
        {
          "length": 20,
          "start": 14971
        },
        {
          "length": 20,
          "start": 22035
        }
      ]
    }
  },
  "deployedLinkReferences": {
    "contracts/SafeDecimalMath.sol": {
      "SafeDecimalMath": [
        {
          "length": 20,
          "start": 2243
        },
        {
          "length": 20,
          "start": 2580
        },
        {
          "length": 20,
          "start": 4355
        },
        {
          "length": 20,
          "start": 8102
        },
        {
          "length": 20,
          "start": 13657
        },
        {
          "length": 20,
          "start": 20721
        }
      ]
    }
  }
}