{
  "contractName": "BancorX",
  "abi": [
    {
      "inputs": [
        {
          "internalType": "uint256",
          "name": "_maxLockLimit",
          "type": "uint256"
        },
        {
          "internalType": "uint256",
          "name": "_maxReleaseLimit",
          "type": "uint256"
        },
        {
          "internalType": "uint256",
          "name": "_minLimit",
          "type": "uint256"
        },
        {
          "internalType": "uint256",
          "name": "_limitIncPerBlock",
          "type": "uint256"
        },
        {
          "internalType": "uint8",
          "name": "_minRequiredReports",
          "type": "uint8"
        },
        {
          "internalType": "contract IContractRegistry",
          "name": "_registry",
          "type": "address"
        },
        {
          "internalType": "contract IERC20",
          "name": "_token",
          "type": "address"
        }
      ],
      "stateMutability": "nonpayable",
      "type": "constructor"
    },
    {
      "anonymous": false,
      "inputs": [
        {
          "indexed": true,
          "internalType": "address",
          "name": "_prevOwner",
          "type": "address"
        },
        {
          "indexed": true,
          "internalType": "address",
          "name": "_newOwner",
          "type": "address"
        }
      ],
      "name": "OwnerUpdate",
      "type": "event"
    },
    {
      "anonymous": false,
      "inputs": [
        {
          "indexed": true,
          "internalType": "address",
          "name": "_from",
          "type": "address"
        },
        {
          "indexed": false,
          "internalType": "uint256",
          "name": "_amount",
          "type": "uint256"
        }
      ],
      "name": "TokensLock",
      "type": "event"
    },
    {
      "anonymous": false,
      "inputs": [
        {
          "indexed": true,
          "internalType": "address",
          "name": "_to",
          "type": "address"
        },
        {
          "indexed": false,
          "internalType": "uint256",
          "name": "_amount",
          "type": "uint256"
        }
      ],
      "name": "TokensRelease",
      "type": "event"
    },
    {
      "anonymous": false,
      "inputs": [
        {
          "indexed": true,
          "internalType": "address",
          "name": "_reporter",
          "type": "address"
        },
        {
          "indexed": false,
          "internalType": "bytes32",
          "name": "_fromBlockchain",
          "type": "bytes32"
        },
        {
          "indexed": false,
          "internalType": "uint256",
          "name": "_txId",
          "type": "uint256"
        },
        {
          "indexed": false,
          "internalType": "address",
          "name": "_to",
          "type": "address"
        },
        {
          "indexed": false,
          "internalType": "uint256",
          "name": "_amount",
          "type": "uint256"
        },
        {
          "indexed": false,
          "internalType": "uint256",
          "name": "_xTransferId",
          "type": "uint256"
        }
      ],
      "name": "TxReport",
      "type": "event"
    },
    {
      "anonymous": false,
      "inputs": [
        {
          "indexed": true,
          "internalType": "address",
          "name": "_from",
          "type": "address"
        },
        {
          "indexed": false,
          "internalType": "bytes32",
          "name": "_toBlockchain",
          "type": "bytes32"
        },
        {
          "indexed": true,
          "internalType": "bytes32",
          "name": "_to",
          "type": "bytes32"
        },
        {
          "indexed": false,
          "internalType": "uint256",
          "name": "_amount",
          "type": "uint256"
        },
        {
          "indexed": false,
          "internalType": "uint256",
          "name": "_id",
          "type": "uint256"
        }
      ],
      "name": "XTransfer",
      "type": "event"
    },
    {
      "anonymous": false,
      "inputs": [
        {
          "indexed": false,
          "internalType": "address",
          "name": "_to",
          "type": "address"
        },
        {
          "indexed": false,
          "internalType": "uint256",
          "name": "_id",
          "type": "uint256"
        }
      ],
      "name": "XTransferComplete",
      "type": "event"
    },
    {
      "inputs": [],
      "name": "acceptOwnership",
      "outputs": [],
      "stateMutability": "nonpayable",
      "type": "function"
    },
    {
      "inputs": [],
      "name": "limitIncPerBlock",
      "outputs": [
        {
          "internalType": "uint256",
          "name": "",
          "type": "uint256"
        }
      ],
      "stateMutability": "view",
      "type": "function"
    },
    {
      "inputs": [],
      "name": "maxLockLimit",
      "outputs": [
        {
          "internalType": "uint256",
          "name": "",
          "type": "uint256"
        }
      ],
      "stateMutability": "view",
      "type": "function"
    },
    {
      "inputs": [],
      "name": "maxReleaseLimit",
      "outputs": [
        {
          "internalType": "uint256",
          "name": "",
          "type": "uint256"
        }
      ],
      "stateMutability": "view",
      "type": "function"
    },
    {
      "inputs": [],
      "name": "minLimit",
      "outputs": [
        {
          "internalType": "uint256",
          "name": "",
          "type": "uint256"
        }
      ],
      "stateMutability": "view",
      "type": "function"
    },
    {
      "inputs": [],
      "name": "minRequiredReports",
      "outputs": [
        {
          "internalType": "uint8",
          "name": "",
          "type": "uint8"
        }
      ],
      "stateMutability": "view",
      "type": "function"
    },
    {
      "inputs": [],
      "name": "newOwner",
      "outputs": [
        {
          "internalType": "address",
          "name": "",
          "type": "address"
        }
      ],
      "stateMutability": "view",
      "type": "function"
    },
    {
      "inputs": [],
      "name": "onlyOwnerCanUpdateRegistry",
      "outputs": [
        {
          "internalType": "bool",
          "name": "",
          "type": "bool"
        }
      ],
      "stateMutability": "view",
      "type": "function"
    },
    {
      "inputs": [],
      "name": "owner",
      "outputs": [
        {
          "internalType": "address",
          "name": "",
          "type": "address"
        }
      ],
      "stateMutability": "view",
      "type": "function"
    },
    {
      "inputs": [],
      "name": "prevLockBlockNumber",
      "outputs": [
        {
          "internalType": "uint256",
          "name": "",
          "type": "uint256"
        }
      ],
      "stateMutability": "view",
      "type": "function"
    },
    {
      "inputs": [],
      "name": "prevLockLimit",
      "outputs": [
        {
          "internalType": "uint256",
          "name": "",
          "type": "uint256"
        }
      ],
      "stateMutability": "view",
      "type": "function"
    },
    {
      "inputs": [],
      "name": "prevRegistry",
      "outputs": [
        {
          "internalType": "contract IContractRegistry",
          "name": "",
          "type": "address"
        }
      ],
      "stateMutability": "view",
      "type": "function"
    },
    {
      "inputs": [],
      "name": "prevReleaseBlockNumber",
      "outputs": [
        {
          "internalType": "uint256",
          "name": "",
          "type": "uint256"
        }
      ],
      "stateMutability": "view",
      "type": "function"
    },
    {
      "inputs": [],
      "name": "prevReleaseLimit",
      "outputs": [
        {
          "internalType": "uint256",
          "name": "",
          "type": "uint256"
        }
      ],
      "stateMutability": "view",
      "type": "function"
    },
    {
      "inputs": [],
      "name": "registry",
      "outputs": [
        {
          "internalType": "contract IContractRegistry",
          "name": "",
          "type": "address"
        }
      ],
      "stateMutability": "view",
      "type": "function"
    },
    {
      "inputs": [
        {
          "internalType": "uint256",
          "name": "",
          "type": "uint256"
        },
        {
          "internalType": "address",
          "name": "",
          "type": "address"
        }
      ],
      "name": "reportedTxs",
      "outputs": [
        {
          "internalType": "bool",
          "name": "",
          "type": "bool"
        }
      ],
      "stateMutability": "view",
      "type": "function"
    },
    {
      "inputs": [
        {
          "internalType": "address",
          "name": "",
          "type": "address"
        }
      ],
      "name": "reporters",
      "outputs": [
        {
          "internalType": "bool",
          "name": "",
          "type": "bool"
        }
      ],
      "stateMutability": "view",
      "type": "function"
    },
    {
      "inputs": [],
      "name": "reportingEnabled",
      "outputs": [
        {
          "internalType": "bool",
          "name": "",
          "type": "bool"
        }
      ],
      "stateMutability": "view",
      "type": "function"
    },
    {
      "inputs": [],
      "name": "restoreRegistry",
      "outputs": [],
      "stateMutability": "nonpayable",
      "type": "function"
    },
    {
      "inputs": [
        {
          "internalType": "bool",
          "name": "_onlyOwnerCanUpdateRegistry",
          "type": "bool"
        }
      ],
      "name": "restrictRegistryUpdate",
      "outputs": [],
      "stateMutability": "nonpayable",
      "type": "function"
    },
    {
      "inputs": [],
      "name": "token",
      "outputs": [
        {
          "internalType": "contract IERC20",
          "name": "",
          "type": "address"
        }
      ],
      "stateMutability": "view",
      "type": "function"
    },
    {
      "inputs": [
        {
          "internalType": "uint256",
          "name": "",
          "type": "uint256"
        }
      ],
      "name": "transactionIds",
      "outputs": [
        {
          "internalType": "uint256",
          "name": "",
          "type": "uint256"
        }
      ],
      "stateMutability": "view",
      "type": "function"
    },
    {
      "inputs": [
        {
          "internalType": "uint256",
          "name": "",
          "type": "uint256"
        }
      ],
      "name": "transactions",
      "outputs": [
        {
          "internalType": "uint256",
          "name": "amount",
          "type": "uint256"
        },
        {
          "internalType": "bytes32",
          "name": "fromBlockchain",
          "type": "bytes32"
        },
        {
          "internalType": "address",
          "name": "to",
          "type": "address"
        },
        {
          "internalType": "uint8",
          "name": "numOfReports",
          "type": "uint8"
        },
        {
          "internalType": "bool",
          "name": "completed",
          "type": "bool"
        }
      ],
      "stateMutability": "view",
      "type": "function"
    },
    {
      "inputs": [
        {
          "internalType": "address",
          "name": "_newOwner",
          "type": "address"
        }
      ],
      "name": "transferOwnership",
      "outputs": [],
      "stateMutability": "nonpayable",
      "type": "function"
    },
    {
      "inputs": [],
      "name": "updateRegistry",
      "outputs": [],
      "stateMutability": "nonpayable",
      "type": "function"
    },
    {
      "inputs": [],
      "name": "version",
      "outputs": [
        {
          "internalType": "uint16",
          "name": "",
          "type": "uint16"
        }
      ],
      "stateMutability": "view",
      "type": "function"
    },
    {
      "inputs": [
        {
          "internalType": "contract IERC20",
          "name": "_token",
          "type": "address"
        },
        {
          "internalType": "address",
          "name": "_to",
          "type": "address"
        },
        {
          "internalType": "uint256",
          "name": "_amount",
          "type": "uint256"
        }
      ],
      "name": "withdrawTokens",
      "outputs": [],
      "stateMutability": "nonpayable",
      "type": "function"
    },
    {
      "inputs": [],
      "name": "xTransfersEnabled",
      "outputs": [
        {
          "internalType": "bool",
          "name": "",
          "type": "bool"
        }
      ],
      "stateMutability": "view",
      "type": "function"
    },
    {
      "inputs": [
        {
          "internalType": "uint256",
          "name": "_maxLockLimit",
          "type": "uint256"
        }
      ],
      "name": "setMaxLockLimit",
      "outputs": [],
      "stateMutability": "nonpayable",
      "type": "function"
    },
    {
      "inputs": [
        {
          "internalType": "uint256",
          "name": "_maxReleaseLimit",
          "type": "uint256"
        }
      ],
      "name": "setMaxReleaseLimit",
      "outputs": [],
      "stateMutability": "nonpayable",
      "type": "function"
    },
    {
      "inputs": [
        {
          "internalType": "uint256",
          "name": "_minLimit",
          "type": "uint256"
        }
      ],
      "name": "setMinLimit",
      "outputs": [],
      "stateMutability": "nonpayable",
      "type": "function"
    },
    {
      "inputs": [
        {
          "internalType": "uint256",
          "name": "_limitIncPerBlock",
          "type": "uint256"
        }
      ],
      "name": "setLimitIncPerBlock",
      "outputs": [],
      "stateMutability": "nonpayable",
      "type": "function"
    },
    {
      "inputs": [
        {
          "internalType": "uint8",
          "name": "_minRequiredReports",
          "type": "uint8"
        }
      ],
      "name": "setMinRequiredReports",
      "outputs": [],
      "stateMutability": "nonpayable",
      "type": "function"
    },
    {
      "inputs": [
        {
          "internalType": "address",
          "name": "_reporter",
          "type": "address"
        },
        {
          "internalType": "bool",
          "name": "_active",
          "type": "bool"
        }
      ],
      "name": "setReporter",
      "outputs": [],
      "stateMutability": "nonpayable",
      "type": "function"
    },
    {
      "inputs": [
        {
          "internalType": "bool",
          "name": "_enable",
          "type": "bool"
        }
      ],
      "name": "enableXTransfers",
      "outputs": [],
      "stateMutability": "nonpayable",
      "type": "function"
    },
    {
      "inputs": [
        {
          "internalType": "bool",
          "name": "_enable",
          "type": "bool"
        }
      ],
      "name": "enableReporting",
      "outputs": [],
      "stateMutability": "nonpayable",
      "type": "function"
    },
    {
      "inputs": [
        {
          "internalType": "address[]",
          "name": "_reporters",
          "type": "address[]"
        }
      ],
      "name": "upgrade",
      "outputs": [],
      "stateMutability": "nonpayable",
      "type": "function"
    },
    {
      "inputs": [
        {
          "internalType": "bytes32",
          "name": "_toBlockchain",
          "type": "bytes32"
        },
        {
          "internalType": "bytes32",
          "name": "_to",
          "type": "bytes32"
        },
        {
          "internalType": "uint256",
          "name": "_amount",
          "type": "uint256"
        },
        {
          "internalType": "uint256",
          "name": "_id",
          "type": "uint256"
        }
      ],
      "name": "xTransfer",
      "outputs": [],
      "stateMutability": "nonpayable",
      "type": "function"
    },
    {
      "inputs": [
        {
          "internalType": "bytes32",
          "name": "_toBlockchain",
          "type": "bytes32"
        },
        {
          "internalType": "bytes32",
          "name": "_to",
          "type": "bytes32"
        },
        {
          "internalType": "uint256",
          "name": "_amount",
          "type": "uint256"
        }
      ],
      "name": "xTransfer",
      "outputs": [],
      "stateMutability": "nonpayable",
      "type": "function"
    },
    {
      "inputs": [
        {
          "internalType": "bytes32",
          "name": "_fromBlockchain",
          "type": "bytes32"
        },
        {
          "internalType": "uint256",
          "name": "_txId",
          "type": "uint256"
        },
        {
          "internalType": "address",
          "name": "_to",
          "type": "address"
        },
        {
          "internalType": "uint256",
          "name": "_amount",
          "type": "uint256"
        },
        {
          "internalType": "uint256",
          "name": "_xTransferId",
          "type": "uint256"
        }
      ],
      "name": "reportTx",
      "outputs": [],
      "stateMutability": "nonpayable",
      "type": "function"
    },
    {
      "inputs": [
        {
          "internalType": "uint256",
          "name": "_xTransferId",
          "type": "uint256"
        },
        {
          "internalType": "address",
          "name": "_for",
          "type": "address"
        }
      ],
      "name": "getXTransferAmount",
      "outputs": [
        {
          "internalType": "uint256",
          "name": "",
          "type": "uint256"
        }
      ],
      "stateMutability": "view",
      "type": "function"
    },
    {
      "inputs": [],
      "name": "getCurrentLockLimit",
      "outputs": [
        {
          "internalType": "uint256",
          "name": "",
          "type": "uint256"
        }
      ],
      "stateMutability": "view",
      "type": "function"
    },
    {
      "inputs": [],
      "name": "getCurrentReleaseLimit",
      "outputs": [
        {
          "internalType": "uint256",
          "name": "",
          "type": "uint256"
        }
      ],
      "stateMutability": "view",
      "type": "function"
    }
  ],
  "bytecode": "0x6080604052600c805460ff60b01b1960ff60a81b19909116600160a81b1716600160b01b1790553480156200003357600080fd5b50604051620021a9380380620021a9833981810160405260e08110156200005957600080fd5b508051602082015160408301516060840151608085015160a086015160c090960151600080546001600160a01b0319163317905594959394929391929091908180620000a581620001f6565b50600280546001600160a01b039092166001600160a01b031992831681179091556003805490921617905586620000dc8162000255565b86620000e88162000255565b86620000f48162000255565b86620001008162000255565b60ff87166200010f8162000255565b856200011b81620001f6565b8662000127816200029c565b8d8c111580156200013857508c8c11155b6200018a576040805162461bcd60e51b815260206004820152601560248201527f4552525f494e56414c49445f4d494e5f4c494d49540000000000000000000000604482015290519081900360640190fd5b50505060048b905550505060058790555060069490945550600991909155600c805460079590955560089390935543600a819055600b556001600160a01b0390911661010002610100600160a81b031960ff90921660ff199094169390931716919091179055620002fb565b6001600160a01b03811662000252576040805162461bcd60e51b815260206004820152601360248201527f4552525f494e56414c49445f4144445245535300000000000000000000000000604482015290519081900360640190fd5b50565b6000811162000252576040805162461bcd60e51b815260206004820152600e60248201526d4552525f5a45524f5f56414c554560901b604482015290519081900360640190fd5b6001600160a01b03811630141562000252576040805162461bcd60e51b815260206004820152601360248201527f4552525f414444524553535f49535f53454c4600000000000000000000000000604482015290519081900360640190fd5b611e9e806200030b6000396000f3fe608060405234801561001057600080fd5b50600436106102695760003560e01c80637b10399911610151578063b4a176d3116100c3578063e36f8dc511610087578063e36f8dc5146106c1578063ed1d73a6146106de578063f2fde38b146106fd578063f7385f7614610723578063fbb246921461072b578063fc0c546a1461073357610269565b8063b4a176d314610648578063bf28ece414610650578063ca27e0111461066d578063d4ee1d901461068b578063e1bb51331461069357610269565b80639ace38c2116101155780639ace38c214610566578063a50c326c146105bb578063a5c670ca146105d8578063a8c36a90146105f7578063aafd6b76146105ff578063af2b96181461062b57610269565b80637b103999146105025780637b15879c1461050a5780638544c52d1461052a5780638da5cb5b146105565780639390701c1461055e57610269565b806349282538116101ea5780635e35359e116101ae5780635e35359e1461043d57806361cd756e146104735780636dc6a01b146104975780636ec6d4a6146104d557806372f43d19146104f257806379ba5097146104fa57610269565b806349282538146103dd57806349d10b64146104065780634b3e475c1461040e57806352e94ce31461041657806354fd4d501461041e57610269565b80631e04a593116102315780631e04a5931461035c5780631fd8088d146103645780632cc1cd9e1461036c5780632fe8a6ad146103a6578063427c0374146103ae57610269565b80630183592b1461026e578063024c7ec71461031357806316c76c2714610332578063199674391461034c5780631aff29eb14610354575b600080fd5b6103116004803603602081101561028457600080fd5b81019060208101813564010000000081111561029f57600080fd5b8201836020820111156102b157600080fd5b803590602001918460208302840111640100000000831117156102d357600080fd5b91908080602002602001604051908101604052809392919081815260200183836020028082843760009201919091525092955061073b945050505050565b005b6103116004803603602081101561032957600080fd5b5035151561081a565b61033a610840565b60408051918252519081900360200190f35b61033a610846565b61033a610892565b61033a610898565b61033a6108d8565b6103926004803603602081101561038257600080fd5b50356001600160a01b03166108de565b604080519115158252519081900360200190f35b6103926108f3565b610311600480360360808110156103c457600080fd5b5080359060208101359060408101359060600135610903565b610311600480360360608110156103f357600080fd5b50803590602081013590604001356109d5565b610311610aa6565b61033a610cae565b61033a610cb4565b610426610cba565b6040805161ffff9092168252519081900360200190f35b6103116004803603606081101561045357600080fd5b506001600160a01b03813581169160208101359091169060400135610cbf565b61047b610d01565b604080516001600160a01b039092168252519081900360200190f35b610311600480360360a08110156104ad57600080fd5b508035906020810135906001600160a01b036040820135169060608101359060800135610d10565b610311600480360360208110156104eb57600080fd5b50356110ce565b61033a611143565b610311611149565b61047b611200565b6103116004803603602081101561052057600080fd5b503560ff1661120f565b6103926004803603604081101561054057600080fd5b50803590602001356001600160a01b031661123b565b61047b61125b565b61039261126a565b6105836004803603602081101561057c57600080fd5b503561127a565b6040805195865260208601949094526001600160a01b039092168484015260ff16606084015215156080830152519081900360a00190f35b610311600480360360208110156105d157600080fd5b50356112ba565b610311600480360360208110156105ee57600080fd5b503515156112d2565b61033a6112f8565b61033a6004803603604081101561061557600080fd5b50803590602001356001600160a01b03166112fe565b6103116004803603602081101561064157600080fd5b50356113c7565b6103116113df565b6103116004803603602081101561066657600080fd5b503561140b565b610675611423565b6040805160ff9092168252519081900360200190f35b61047b61142c565b610311600480360360408110156106a957600080fd5b506001600160a01b038135169060200135151561143b565b61033a600480360360208110156106d757600080fd5b503561146e565b610311600480360360208110156106f457600080fd5b50351515611480565b6103116004803603602081101561071357600080fd5b50356001600160a01b03166114a6565b61033a611524565b61039261152a565b61047b61153a565b61074361154e565b60006107606e2130b731b7b92c2ab833b930b232b960891b6115a3565b905061076b816114a6565b6040805163151a1cb360e21b81526004818101818152602483019384528551604484015285516001600160a01b0386169463546872cc948893926064909101906020808601910280838360005b838110156107d05781810151838201526020016107b8565b505050509050019350505050600060405180830381600087803b1580156107f657600080fd5b505af115801561080a573d6000803e3d6000fd5b50505050610816611149565b5050565b61082261154e565b60038054911515600160a01b0260ff60a01b19909216919091179055565b60075481565b60008061087661086d600954610867600a544361162190919063ffffffff16565b9061167e565b600754906116de565b905060045481111561088c57505060045461088f565b90505b90565b600a5481565b6000806108c26108b9600954610867600b544361162190919063ffffffff16565b600854906116de565b905060055481111561088c57505060055461088f565b60065481565b60106020526000908152604090205460ff1681565b600354600160a01b900460ff1681565b61090b611738565b6000610915610846565b905060065483101580156109295750808311155b610970576040805162461bcd60e51b815260206004820152601360248201527208aa4a4be829a9eaa9ca8bea89e9ebe90928e9606b1b604482015290519081900360640190fd5b61097983611785565b6109838184611621565b60075543600a5560408051868152602081018590528082018490529051859133917f4780f3edc9124597ede658e04ed3d8887b58c86943b2a805dc961cf512570b629181900360600190a35050505050565b6109dd611738565b60006109e7610846565b905060065482101580156109fb5750808211155b610a42576040805162461bcd60e51b815260206004820152601360248201527208aa4a4be829a9eaa9ca8bea89e9ebe90928e9606b1b604482015290519081900360640190fd5b610a4b82611785565b610a558183611621565b60075543600a5560408051858152602081018490526000818301529051849133917f4780f3edc9124597ede658e04ed3d8887b58c86943b2a805dc961cf512570b629181900360600190a350505050565b6000546001600160a01b0316331480610ac95750600354600160a01b900460ff16155b610b0e576040805162461bcd60e51b815260206004820152601160248201527011549497d050d0d154d4d7d11153925151607a1b604482015290519081900360640190fd5b6000610b2c6f436f6e7472616374526567697374727960801b6115a3565b6002549091506001600160a01b03808316911614801590610b5557506001600160a01b03811615155b610b9d576040805162461bcd60e51b81526020600482015260146024820152734552525f494e56414c49445f524547495354525960601b604482015290519081900360640190fd5b60006001600160a01b0316816001600160a01b031663bb34534c6f436f6e7472616374526567697374727960801b6040518263ffffffff1660e01b81526004018082815260200191505060206040518083038186803b158015610bff57600080fd5b505afa158015610c13573d6000803e3d6000fd5b505050506040513d6020811015610c2957600080fd5b50516001600160a01b03161415610c7e576040805162461bcd60e51b81526020600482015260146024820152734552525f494e56414c49445f524547495354525960601b604482015290519081900360640190fd5b60028054600380546001600160a01b038084166001600160a01b0319928316179092559091169216919091179055565b600b5481565b60055481565b600481565b610cc761154e565b82610cd1816117db565b82610cdb816117db565b83610ce58161182f565b610cf96001600160a01b0387168686611883565b505050505050565b6003546001600160a01b031681565b610d186118da565b610d20611932565b82610d2a816117db565b82610d348161197f565b6000868152600f6020908152604080832033845290915290205460ff1615610d9a576040805162461bcd60e51b815260206004820152601460248201527311549497d053149150511657d4915413d495115160621b604482015290519081900360640190fd5b6000868152600f602090815260408083203384528252808320805460ff19166001179055888352600d90915290206002810154600160a01b900460ff16610e78576002810180546001600160a01b0319166001600160a01b038816179055848155600181018890558315610e73576000848152600e602052604090205415610e61576040805162461bcd60e51b81526020600482015260156024820152744552525f54585f414c52454144595f45584953545360581b604482015290519081900360640190fd5b6000848152600e602052604090208790555b610f49565b60028101546001600160a01b038781169116148015610e975750805485145b8015610ea65750878160010154145b610ee9576040805162461bcd60e51b815260206004820152600f60248201526e08aa4a4bea8b0be9a92a69a82a8869608b1b604482015290519081900360640190fd5b8315610f49576000848152600e60205260409020548714610f49576040805162461bcd60e51b81526020600482015260156024820152744552525f54585f414c52454144595f45584953545360581b604482015290519081900360640190fd5b600281018054600160ff600160a01b808404821692909201160260ff60a01b1990911617905560408051898152602081018990526001600160a01b038816818301526060810187905260808101869052905133917f5e77831e701760f7f4a1e61a8e9834d773b52c45d91ba9006b7d2afb7a144739919081900360a00190a2600c54600282015460ff918216600160a01b909104909116106110c4576000878152600d6020526040902060020154600160a81b900460ff1615611053576040805162461bcd60e51b815260206004820152601860248201527f4552525f54585f414c52454144595f434f4d504c455445440000000000000000604482015290519081900360640190fd5b6000878152600d6020908152604091829020600201805460ff60a81b1916600160a81b17905581516001600160a01b038916815290810186905281517fd87906b7fce534fc5e6dde30064e777d92d0aaf3a28c72315de8ef2e4134dfef929181900390910190a16110c486866119c5565b5050505050505050565b6110d661154e565b806110e08161197f565b60045482111580156110f457506005548211155b61113d576040805162461bcd60e51b815260206004820152601560248201527411549497d253959053125117d3525397d312535255605a1b604482015290519081900360640190fd5b50600655565b60095481565b6001546001600160a01b0316331461119c576040805162461bcd60e51b815260206004820152601160248201527011549497d050d0d154d4d7d11153925151607a1b604482015290519081900360640190fd5b600154600080546040516001600160a01b0393841693909116917f343765429aea5a34b3ff6a3785a98a5abb2597aca87bfbb58632c173d585373a91a360018054600080546001600160a01b03199081166001600160a01b03841617909155169055565b6002546001600160a01b031681565b61121761154e565b8060ff166112248161197f565b50600c805460ff191660ff92909216919091179055565b600f60209081526000928352604080842090915290825290205460ff1681565b6000546001600160a01b031681565b600c54600160b01b900460ff1681565b600d602052600090815260409020805460018201546002909201549091906001600160a01b0381169060ff600160a01b8204811691600160a81b90041685565b6112c261154e565b806112cc8161197f565b50600955565b6112da61154e565b600c8054911515600160a81b0260ff60a81b19909216919091179055565b60045481565b6000611308611dc9565b506000838152600e60209081526040808320548352600d825291829020825160a08101845281548152600182015492810192909252600201546001600160a01b0380821693830184905260ff600160a01b830481166060850152600160a81b909204909116151560808301529091908416146113bd576040805162461bcd60e51b815260206004820152600f60248201526e08aa4a4bea8b0be9a92a69a82a8869608b1b604482015290519081900360640190fd5b5190505b92915050565b6113cf61154e565b806113d98161197f565b50600455565b6113e761154e565b600354600280546001600160a01b0319166001600160a01b03909216919091179055565b61141361154e565b8061141d8161197f565b50600555565b600c5460ff1681565b6001546001600160a01b031681565b61144361154e565b6001600160a01b03919091166000908152601060205260409020805460ff1916911515919091179055565b600e6020526000908152604090205481565b61148861154e565b600c8054911515600160b01b0260ff60b01b19909216919091179055565b6114ae61154e565b6000546001600160a01b0382811691161415611502576040805162461bcd60e51b815260206004820152600e60248201526d22a9292fa9a0a6a2afa7aba722a960911b604482015290519081900360640190fd5b600180546001600160a01b0319166001600160a01b0392909216919091179055565b60085481565b600c54600160a81b900460ff1681565b600c5461010090046001600160a01b031681565b6000546001600160a01b031633146115a1576040805162461bcd60e51b815260206004820152601160248201527011549497d050d0d154d4d7d11153925151607a1b604482015290519081900360640190fd5b565b60025460408051632ecd14d360e21b81526004810184905290516000926001600160a01b03169163bb34534c916024808301926020929190829003018186803b1580156115ef57600080fd5b505afa158015611603573d6000803e3d6000fd5b505050506040513d602081101561161957600080fd5b505192915050565b600082821115611678576040805162461bcd60e51b815260206004820152601e60248201527f536166654d6174683a207375627472616374696f6e206f766572666c6f770000604482015290519081900360640190fd5b50900390565b60008261168d575060006113c1565b8282028284828161169a57fe5b04146116d75760405162461bcd60e51b8152600401808060200182810382526021815260200180611e1e6021913960400191505060405180910390fd5b9392505050565b6000828201838110156116d7576040805162461bcd60e51b815260206004820152601b60248201527f536166654d6174683a206164646974696f6e206f766572666c6f770000000000604482015290519081900360640190fd5b600c54600160a81b900460ff166115a1576040805162461bcd60e51b815260206004820152600c60248201526b11549497d11254d05093115160a21b604482015290519081900360640190fd5b600c546117a29061010090046001600160a01b0316333084611a9b565b60408051828152905133917ff5d7535a395393675f56d066384113754ca9cf4abd37298469934e2e9c2ec902919081900360200190a250565b6001600160a01b03811661182c576040805162461bcd60e51b81526020600482015260136024820152724552525f494e56414c49445f4144445245535360681b604482015290519081900360640190fd5b50565b6001600160a01b03811630141561182c576040805162461bcd60e51b815260206004820152601360248201527222a9292fa0a2222922a9a9afa4a9afa9a2a62360691b604482015290519081900360640190fd5b604080516001600160a01b038416602482015260448082018490528251808303909101815260649091019091526020810180516001600160e01b031663a9059cbb60e01b1790526118d5908490611afb565b505050565b3360009081526010602052604090205460ff166115a1576040805162461bcd60e51b815260206004820152601160248201527011549497d050d0d154d4d7d11153925151607a1b604482015290519081900360640190fd5b600c54600160b01b900460ff166115a1576040805162461bcd60e51b815260206004820152600c60248201526b11549497d11254d05093115160a21b604482015290519081900360640190fd5b6000811161182c576040805162461bcd60e51b815260206004820152600e60248201526d4552525f5a45524f5f56414c554560901b604482015290519081900360640190fd5b60006119cf610898565b905060065482101580156119e35750808211155b611a2a576040805162461bcd60e51b815260206004820152601360248201527208aa4a4be829a9eaa9ca8bea89e9ebe90928e9606b1b604482015290519081900360640190fd5b611a348183611621565b60085543600b55600c54611a579061010090046001600160a01b03168484611883565b6040805183815290516001600160a01b038516917fbfdc1f3c02b4715077e0be4a262f967d53d4d0fcd76c6987fa2ad6e2257d7c8f919081900360200190a2505050565b604080516001600160a01b0380861660248301528416604482015260648082018490528251808303909101815260849091019091526020810180516001600160e01b03166323b872dd60e01b179052611af5908590611afb565b50505050565b6060611b50826040518060400160405280602081526020017f5361666545524332303a206c6f772d6c6576656c2063616c6c206661696c6564815250856001600160a01b0316611bac9092919063ffffffff16565b8051909150156118d557808060200190516020811015611b6f57600080fd5b50516118d55760405162461bcd60e51b815260040180806020018281038252602a815260200180611e3f602a913960400191505060405180910390fd5b6060611bbb8484600085611bc3565b949350505050565b606082471015611c045760405162461bcd60e51b8152600401808060200182810382526026815260200180611df86026913960400191505060405180910390fd5b611c0d85611d1f565b611c5e576040805162461bcd60e51b815260206004820152601d60248201527f416464726573733a2063616c6c20746f206e6f6e2d636f6e7472616374000000604482015290519081900360640190fd5b60006060866001600160a01b031685876040518082805190602001908083835b60208310611c9d5780518252601f199092019160209182019101611c7e565b6001836020036101000a03801982511681845116808217855250505050505090500191505060006040518083038185875af1925050503d8060008114611cff576040519150601f19603f3d011682016040523d82523d6000602084013e611d04565b606091505b5091509150611d14828286611d25565b979650505050505050565b3b151590565b60608315611d345750816116d7565b825115611d445782518084602001fd5b8160405162461bcd60e51b81526004018080602001828103825283818151815260200191508051906020019080838360005b83811015611d8e578181015183820152602001611d76565b50505050905090810190601f168015611dbb5780820380516001836020036101000a031916815260200191505b509250505060405180910390fd5b6040805160a0810182526000808252602082018190529181018290526060810182905260808101919091529056fe416464726573733a20696e73756666696369656e742062616c616e636520666f722063616c6c536166654d6174683a206d756c7469706c69636174696f6e206f766572666c6f775361666545524332303a204552433230206f7065726174696f6e20646964206e6f742073756363656564a264697066735822122072414f61c1748f6f4281cf9fc6455d7d14afca53234d4dbf36abfd9dd7c1e11964736f6c634300060c0033",
  "immutableReferences": {},
  "source": "// SPDX-License-Identifier: SEE LICENSE IN LICENSE\npragma solidity 0.6.12;\n\nimport \"@openzeppelin/contracts/math/SafeMath.sol\";\nimport \"@openzeppelin/contracts/token/ERC20/SafeERC20.sol\";\n\nimport \"./interfaces/IBancorXUpgrader.sol\";\nimport \"./interfaces/IBancorX.sol\";\nimport \"../utility/ContractRegistryClient.sol\";\nimport \"../utility/TokenHolder.sol\";\n\n/**\n * @dev This contract allows cross chain token transfers.\n *\n * There are two processes that take place in the contract -\n * - Initiate a cross chain transfer to a target blockchain (locks tokens from the caller account on Ethereum)\n * - Report a cross chain transfer initiated on a source blockchain (releases tokens to an account on Ethereum)\n *\n * Reporting cross chain transfers works similar to standard multisig contracts, meaning that multiple\n * callers are required to report a transfer before tokens are released to the target account.\n */\ncontract BancorX is IBancorX, TokenHolder, ContractRegistryClient {\n    using SafeMath for uint256;\n    using SafeERC20 for IERC20;\n\n    // represents a transaction on another blockchain where tokens were destroyed/locked\n    struct Transaction {\n        uint256 amount;\n        bytes32 fromBlockchain;\n        address to;\n        uint8 numOfReports;\n        bool completed;\n    }\n\n    uint16 public constant version = 4;\n\n    uint256 public maxLockLimit; // the maximum amount of tokens that can be locked in one transaction\n    uint256 public maxReleaseLimit; // the maximum amount of tokens that can be released in one transaction\n    uint256 public minLimit; // the minimum amount of tokens that can be transferred in one transaction\n    uint256 public prevLockLimit; // the lock limit *after* the last transaction\n    uint256 public prevReleaseLimit; // the release limit *after* the last transaction\n    uint256 public limitIncPerBlock; // how much the limit increases per block\n    uint256 public prevLockBlockNumber; // the block number of the last lock transaction\n    uint256 public prevReleaseBlockNumber; // the block number of the last release transaction\n    uint8 public minRequiredReports; // minimum number of required reports to release tokens\n\n    IERC20 public override token; // erc20 token\n\n    bool public xTransfersEnabled = true; // true if x transfers are enabled, false if not\n    bool public reportingEnabled = true; // true if reporting is enabled, false if not\n\n    // txId -> Transaction\n    mapping(uint256 => Transaction) public transactions;\n\n    // xTransferId -> txId\n    mapping(uint256 => uint256) public transactionIds;\n\n    // txId -> reporter -> true if reporter already reported txId\n    mapping(uint256 => mapping(address => bool)) public reportedTxs;\n\n    // address -> true if address is reporter\n    mapping(address => bool) public reporters;\n\n    /**\n     * @dev triggered when tokens are locked in smart contract\n     *\n     * @param _from    wallet address that the tokens are locked from\n     * @param _amount  amount locked\n     */\n    event TokensLock(address indexed _from, uint256 _amount);\n\n    /**\n     * @dev triggered when tokens are released by the smart contract\n     *\n     * @param _to      wallet address that the tokens are released to\n     * @param _amount  amount released\n     */\n    event TokensRelease(address indexed _to, uint256 _amount);\n\n    /**\n     * @dev triggered when xTransfer is successfully called\n     *\n     * @param _from            wallet address that initiated the xtransfer\n     * @param _toBlockchain    target blockchain\n     * @param _to              target wallet\n     * @param _amount          transfer amount\n     * @param _id              xtransfer id\n     */\n    event XTransfer(address indexed _from, bytes32 _toBlockchain, bytes32 indexed _to, uint256 _amount, uint256 _id);\n\n    /**\n     * @dev triggered when report is successfully submitted\n     *\n     * @param _reporter        reporter wallet\n     * @param _fromBlockchain  source blockchain\n     * @param _txId            tx id on the source blockchain\n     * @param _to              target wallet\n     * @param _amount          transfer amount\n     * @param _xTransferId     xtransfer id\n     */\n    event TxReport(\n        address indexed _reporter,\n        bytes32 _fromBlockchain,\n        uint256 _txId,\n        address _to,\n        uint256 _amount,\n        uint256 _xTransferId\n    );\n\n    /**\n     * @dev triggered when final report is successfully submitted\n     *\n     * @param _to  target wallet\n     * @param _id  xtransfer id\n     */\n    event XTransferComplete(address _to, uint256 _id);\n\n    /**\n     * @dev initializes a new BancorX instance\n     *\n     * @param _maxLockLimit          maximum amount of tokens that can be locked in one transaction\n     * @param _maxReleaseLimit       maximum amount of tokens that can be released in one transaction\n     * @param _minLimit              minimum amount of tokens that can be transferred in one transaction\n     * @param _limitIncPerBlock      how much the limit increases per block\n     * @param _minRequiredReports    minimum number of reporters to report transaction before tokens can be released\n     * @param _registry              address of contract registry\n     * @param _token                 erc20 token\n     */\n    constructor(\n        uint256 _maxLockLimit,\n        uint256 _maxReleaseLimit,\n        uint256 _minLimit,\n        uint256 _limitIncPerBlock,\n        uint8 _minRequiredReports,\n        IContractRegistry _registry,\n        IERC20 _token\n    )\n        public\n        ContractRegistryClient(_registry)\n        greaterThanZero(_maxLockLimit)\n        greaterThanZero(_maxReleaseLimit)\n        greaterThanZero(_minLimit)\n        greaterThanZero(_limitIncPerBlock)\n        greaterThanZero(_minRequiredReports)\n        validAddress(address(_token))\n        notThis(address(_token))\n    {\n        // validate input\n        require(_minLimit <= _maxLockLimit && _minLimit <= _maxReleaseLimit, \"ERR_INVALID_MIN_LIMIT\");\n\n        // the maximum limits, minimum limit, and limit increase per block\n        maxLockLimit = _maxLockLimit;\n        maxReleaseLimit = _maxReleaseLimit;\n        minLimit = _minLimit;\n        limitIncPerBlock = _limitIncPerBlock;\n        minRequiredReports = _minRequiredReports;\n\n        // previous limit is _maxLimit, and previous block number is current block number\n        prevLockLimit = _maxLockLimit;\n        prevReleaseLimit = _maxReleaseLimit;\n        prevLockBlockNumber = block.number;\n        prevReleaseBlockNumber = block.number;\n\n        token = _token;\n    }\n\n    // validates that the caller is a reporter\n    modifier reporterOnly {\n        _reporterOnly();\n        _;\n    }\n\n    // error message binary size optimization\n    function _reporterOnly() internal view {\n        require(reporters[msg.sender], \"ERR_ACCESS_DENIED\");\n    }\n\n    // allows execution only when x transfers are enabled\n    modifier xTransfersAllowed {\n        _xTransfersAllowed();\n        _;\n    }\n\n    // error message binary size optimization\n    function _xTransfersAllowed() internal view {\n        require(xTransfersEnabled, \"ERR_DISABLED\");\n    }\n\n    // allows execution only when reporting is enabled\n    modifier reportingAllowed {\n        _reportingAllowed();\n        _;\n    }\n\n    // error message binary size optimization\n    function _reportingAllowed() internal view {\n        require(reportingEnabled, \"ERR_DISABLED\");\n    }\n\n    /**\n     * @dev setter\n     *\n     * @param _maxLockLimit    new maxLockLimit\n     */\n    function setMaxLockLimit(uint256 _maxLockLimit) public ownerOnly greaterThanZero(_maxLockLimit) {\n        maxLockLimit = _maxLockLimit;\n    }\n\n    /**\n     * @dev setter\n     *\n     * @param _maxReleaseLimit    new maxReleaseLimit\n     */\n    function setMaxReleaseLimit(uint256 _maxReleaseLimit) public ownerOnly greaterThanZero(_maxReleaseLimit) {\n        maxReleaseLimit = _maxReleaseLimit;\n    }\n\n    /**\n     * @dev setter\n     *\n     * @param _minLimit    new minLimit\n     */\n    function setMinLimit(uint256 _minLimit) public ownerOnly greaterThanZero(_minLimit) {\n        // validate input\n        require(_minLimit <= maxLockLimit && _minLimit <= maxReleaseLimit, \"ERR_INVALID_MIN_LIMIT\");\n\n        minLimit = _minLimit;\n    }\n\n    /**\n     * @dev setter\n     *\n     * @param _limitIncPerBlock    new limitIncPerBlock\n     */\n    function setLimitIncPerBlock(uint256 _limitIncPerBlock) public ownerOnly greaterThanZero(_limitIncPerBlock) {\n        limitIncPerBlock = _limitIncPerBlock;\n    }\n\n    /**\n     * @dev setter\n     *\n     * @param _minRequiredReports    new minRequiredReports\n     */\n    function setMinRequiredReports(uint8 _minRequiredReports) public ownerOnly greaterThanZero(_minRequiredReports) {\n        minRequiredReports = _minRequiredReports;\n    }\n\n    /**\n     * @dev allows the owner to set/remove reporters\n     *\n     * @param _reporter    reporter whos status is to be set\n     * @param _active      true if the reporter is approved, false otherwise\n     */\n    function setReporter(address _reporter, bool _active) public ownerOnly {\n        reporters[_reporter] = _active;\n    }\n\n    /**\n     * @dev allows the owner enable/disable the xTransfer method\n     *\n     * @param _enable     true to enable, false to disable\n     */\n    function enableXTransfers(bool _enable) public ownerOnly {\n        xTransfersEnabled = _enable;\n    }\n\n    /**\n     * @dev allows the owner enable/disable the reportTransaction method\n     *\n     * @param _enable     true to enable, false to disable\n     */\n    function enableReporting(bool _enable) public ownerOnly {\n        reportingEnabled = _enable;\n    }\n\n    /**\n     * @dev upgrades the contract to the latest version\n     * can only be called by the owner\n     * note that the owner needs to call acceptOwnership on the new contract after the upgrade\n     *\n     * @param _reporters    new list of reporters\n     */\n    function upgrade(address[] memory _reporters) public ownerOnly {\n        IBancorXUpgrader bancorXUpgrader = IBancorXUpgrader(addressOf(BANCOR_X_UPGRADER));\n\n        transferOwnership(address(bancorXUpgrader));\n        bancorXUpgrader.upgrade(version, _reporters);\n        acceptOwnership();\n    }\n\n    /**\n     * @dev claims tokens from msg.sender to be converted to tokens on another blockchain\n     *\n     * @param _toBlockchain    blockchain on which tokens will be issued\n     * @param _to              address to send the tokens to\n     * @param _amount          the amount of tokens to transfer\n     */\n    function xTransfer(\n        bytes32 _toBlockchain,\n        bytes32 _to,\n        uint256 _amount\n    ) public xTransfersAllowed {\n        // get the current lock limit\n        uint256 currentLockLimit = getCurrentLockLimit();\n\n        // verify lock limit\n        require(_amount >= minLimit && _amount <= currentLockLimit, \"ERR_AMOUNT_TOO_HIGH\");\n\n        lockTokens(_amount);\n\n        // set the previous lock limit and block number\n        prevLockLimit = currentLockLimit.sub(_amount);\n        prevLockBlockNumber = block.number;\n\n        // emit XTransfer event with id of 0\n        emit XTransfer(msg.sender, _toBlockchain, _to, _amount, 0);\n    }\n\n    /**\n     * @dev claims tokens from msg.sender to be converted to tokens on another blockchain\n     *\n     * @param _toBlockchain    blockchain on which tokens will be issued\n     * @param _to              address to send the tokens to\n     * @param _amount          the amount of tokens to transfer\n     * @param _id              pre-determined unique (if non zero) id which refers to this transaction\n     */\n    function xTransfer(\n        bytes32 _toBlockchain,\n        bytes32 _to,\n        uint256 _amount,\n        uint256 _id\n    ) public override xTransfersAllowed {\n        // get the current lock limit\n        uint256 currentLockLimit = getCurrentLockLimit();\n\n        // require that; minLimit <= _amount <= currentLockLimit\n        require(_amount >= minLimit && _amount <= currentLockLimit, \"ERR_AMOUNT_TOO_HIGH\");\n\n        lockTokens(_amount);\n\n        // set the previous lock limit and block number\n        prevLockLimit = currentLockLimit.sub(_amount);\n        prevLockBlockNumber = block.number;\n\n        // emit XTransfer event\n        emit XTransfer(msg.sender, _toBlockchain, _to, _amount, _id);\n    }\n\n    /**\n     * @dev allows reporter to report transaction which occured on another blockchain\n     *\n     * @param _fromBlockchain  blockchain in which tokens were destroyed\n     * @param _txId            transactionId of transaction thats being reported\n     * @param _to              address to receive tokens\n     * @param _amount          amount of tokens destroyed on another blockchain\n     * @param _xTransferId     unique (if non zero) pre-determined id (unlike _txId which is determined after the transactions been mined)\n     */\n    function reportTx(\n        bytes32 _fromBlockchain,\n        uint256 _txId,\n        address _to,\n        uint256 _amount,\n        uint256 _xTransferId\n    ) public reporterOnly reportingAllowed validAddress(_to) greaterThanZero(_amount) {\n        // require that the transaction has not been reported yet by the reporter\n        require(!reportedTxs[_txId][msg.sender], \"ERR_ALREADY_REPORTED\");\n\n        // set reported as true\n        reportedTxs[_txId][msg.sender] = true;\n\n        Transaction storage txn = transactions[_txId];\n\n        // If the caller is the first reporter, set the transaction details\n        if (txn.numOfReports == 0) {\n            txn.to = _to;\n            txn.amount = _amount;\n            txn.fromBlockchain = _fromBlockchain;\n\n            if (_xTransferId != 0) {\n                // verify uniqueness of xTransfer id to prevent overwriting\n                require(transactionIds[_xTransferId] == 0, \"ERR_TX_ALREADY_EXISTS\");\n                transactionIds[_xTransferId] = _txId;\n            }\n        } else {\n            // otherwise, verify transaction details\n            require(txn.to == _to && txn.amount == _amount && txn.fromBlockchain == _fromBlockchain, \"ERR_TX_MISMATCH\");\n\n            if (_xTransferId != 0) require(transactionIds[_xTransferId] == _txId, \"ERR_TX_ALREADY_EXISTS\");\n        }\n\n        // increment the number of reports\n        txn.numOfReports++;\n\n        emit TxReport(msg.sender, _fromBlockchain, _txId, _to, _amount, _xTransferId);\n\n        // if theres enough reports, try to release tokens\n        if (txn.numOfReports >= minRequiredReports) {\n            require(!transactions[_txId].completed, \"ERR_TX_ALREADY_COMPLETED\");\n\n            // set the transaction as completed\n            transactions[_txId].completed = true;\n\n            emit XTransferComplete(_to, _xTransferId);\n\n            releaseTokens(_to, _amount);\n        }\n    }\n\n    /**\n     * @dev gets x transfer amount by xTransferId (not txId)\n     *\n     * @param _xTransferId    unique (if non zero) pre-determined id (unlike _txId which is determined after the transactions been broadcasted)\n     * @param _for            address corresponding to xTransferId\n     *\n     * @return amount that was sent in xTransfer corresponding to _xTransferId\n     */\n    function getXTransferAmount(uint256 _xTransferId, address _for) public view override returns (uint256) {\n        // xTransferId -> txId -> Transaction\n        Transaction memory transaction = transactions[transactionIds[_xTransferId]];\n\n        // verify that the xTransferId is for _for\n        require(transaction.to == _for, \"ERR_TX_MISMATCH\");\n\n        return transaction.amount;\n    }\n\n    /**\n     * @dev method for calculating current lock limit\n     *\n     * @return the current maximum limit of tokens that can be locked\n     */\n    function getCurrentLockLimit() public view returns (uint256) {\n        // prevLockLimit + ((currBlockNumber - prevLockBlockNumber) * limitIncPerBlock)\n        uint256 currentLockLimit = prevLockLimit.add(((block.number).sub(prevLockBlockNumber)).mul(limitIncPerBlock));\n        if (currentLockLimit > maxLockLimit) return maxLockLimit;\n        return currentLockLimit;\n    }\n\n    /**\n     * @dev method for calculating current release limit\n     *\n     * @return the current maximum limit of tokens that can be released\n     */\n    function getCurrentReleaseLimit() public view returns (uint256) {\n        // prevReleaseLimit + ((currBlockNumber - prevReleaseBlockNumber) * limitIncPerBlock)\n        uint256 currentReleaseLimit =\n            prevReleaseLimit.add(((block.number).sub(prevReleaseBlockNumber)).mul(limitIncPerBlock));\n        if (currentReleaseLimit > maxReleaseLimit) return maxReleaseLimit;\n        return currentReleaseLimit;\n    }\n\n    /**\n     * @dev claims and locks tokens from msg.sender to be converted to tokens on another blockchain\n     *\n     * @param _amount  the amount of tokens to lock\n     */\n    function lockTokens(uint256 _amount) private {\n        token.safeTransferFrom(msg.sender, address(this), _amount);\n\n        emit TokensLock(msg.sender, _amount);\n    }\n\n    /**\n     * @dev private method to release tokens held by the contract\n     *\n     * @param _to      the address to release tokens to\n     * @param _amount  the amount of tokens to release\n     */\n    function releaseTokens(address _to, uint256 _amount) private {\n        // get the current release limit\n        uint256 currentReleaseLimit = getCurrentReleaseLimit();\n\n        require(_amount >= minLimit && _amount <= currentReleaseLimit, \"ERR_AMOUNT_TOO_HIGH\");\n\n        // update the previous release limit and block number\n        prevReleaseLimit = currentReleaseLimit.sub(_amount);\n        prevReleaseBlockNumber = block.number;\n\n        // no need to require, reverts on failure\n        token.safeTransfer(_to, _amount);\n\n        emit TokensRelease(_to, _amount);\n    }\n}\n",
  "sourcePath": "/Users/dennismacpro/Projects/Defi/Ethereum-Solidity-Collection/icarus-protocol/defi-seeder/.tmp/bancor/contracts-solidity/solidity/contracts/bancorx/BancorX.sol",
  "compiler": {
    "name": "solc",
    "version": "0.6.12+commit.27d51765.Emscripten.clang"
  },
  "schemaVersion": "3.3.3",
  "updatedAt": "2021-04-01T18:17:51.838Z",
  "devdoc": {
    "details": "This contract allows cross chain token transfers. There are two processes that take place in the contract - - Initiate a cross chain transfer to a target blockchain (locks tokens from the caller account on Ethereum) - Report a cross chain transfer initiated on a source blockchain (releases tokens to an account on Ethereum) Reporting cross chain transfers works similar to standard multisig contracts, meaning that multiple callers are required to report a transfer before tokens are released to the target account.",
    "events": {
      "TokensLock(address,uint256)": {
        "details": "triggered when tokens are locked in smart contract",
        "params": {
          "_amount": "amount locked",
          "_from": "wallet address that the tokens are locked from"
        }
      },
      "TokensRelease(address,uint256)": {
        "details": "triggered when tokens are released by the smart contract",
        "params": {
          "_amount": "amount released",
          "_to": "wallet address that the tokens are released to"
        }
      },
      "TxReport(address,bytes32,uint256,address,uint256,uint256)": {
        "details": "triggered when report is successfully submitted",
        "params": {
          "_amount": "transfer amount",
          "_fromBlockchain": "source blockchain",
          "_reporter": "reporter wallet",
          "_to": "target wallet",
          "_txId": "tx id on the source blockchain",
          "_xTransferId": "xtransfer id"
        }
      },
      "XTransfer(address,bytes32,bytes32,uint256,uint256)": {
        "details": "triggered when xTransfer is successfully called",
        "params": {
          "_amount": "transfer amount",
          "_from": "wallet address that initiated the xtransfer",
          "_id": "xtransfer id",
          "_to": "target wallet",
          "_toBlockchain": "target blockchain"
        }
      },
      "XTransferComplete(address,uint256)": {
        "details": "triggered when final report is successfully submitted",
        "params": {
          "_id": "xtransfer id",
          "_to": "target wallet"
        }
      }
    },
    "kind": "dev",
    "methods": {
      "acceptOwnership()": {
        "details": "used by a new owner to accept an ownership transfer"
      },
      "constructor": {
        "details": "initializes a new BancorX instance",
        "params": {
          "_limitIncPerBlock": "how much the limit increases per block",
          "_maxLockLimit": "maximum amount of tokens that can be locked in one transaction",
          "_maxReleaseLimit": "maximum amount of tokens that can be released in one transaction",
          "_minLimit": "minimum amount of tokens that can be transferred in one transaction",
          "_minRequiredReports": "minimum number of reporters to report transaction before tokens can be released",
          "_registry": "address of contract registry",
          "_token": "erc20 token"
        }
      },
      "enableReporting(bool)": {
        "details": "allows the owner enable/disable the reportTransaction method",
        "params": {
          "_enable": "true to enable, false to disable"
        }
      },
      "enableXTransfers(bool)": {
        "details": "allows the owner enable/disable the xTransfer method",
        "params": {
          "_enable": "true to enable, false to disable"
        }
      },
      "getCurrentLockLimit()": {
        "details": "method for calculating current lock limit",
        "returns": {
          "_0": "the current maximum limit of tokens that can be locked"
        }
      },
      "getCurrentReleaseLimit()": {
        "details": "method for calculating current release limit",
        "returns": {
          "_0": "the current maximum limit of tokens that can be released"
        }
      },
      "getXTransferAmount(uint256,address)": {
        "details": "gets x transfer amount by xTransferId (not txId)",
        "params": {
          "_for": "address corresponding to xTransferId",
          "_xTransferId": "unique (if non zero) pre-determined id (unlike _txId which is determined after the transactions been broadcasted)"
        },
        "returns": {
          "_0": "amount that was sent in xTransfer corresponding to _xTransferId"
        }
      },
      "reportTx(bytes32,uint256,address,uint256,uint256)": {
        "details": "allows reporter to report transaction which occured on another blockchain",
        "params": {
          "_amount": "amount of tokens destroyed on another blockchain",
          "_fromBlockchain": "blockchain in which tokens were destroyed",
          "_to": "address to receive tokens",
          "_txId": "transactionId of transaction thats being reported",
          "_xTransferId": "unique (if non zero) pre-determined id (unlike _txId which is determined after the transactions been mined)"
        }
      },
      "restoreRegistry()": {
        "details": "restores the previous contract-registry"
      },
      "restrictRegistryUpdate(bool)": {
        "details": "restricts the permission to update the contract-registry",
        "params": {
          "_onlyOwnerCanUpdateRegistry": "indicates whether or not permission is restricted to owner only"
        }
      },
      "setLimitIncPerBlock(uint256)": {
        "details": "setter",
        "params": {
          "_limitIncPerBlock": "new limitIncPerBlock"
        }
      },
      "setMaxLockLimit(uint256)": {
        "details": "setter",
        "params": {
          "_maxLockLimit": "new maxLockLimit"
        }
      },
      "setMaxReleaseLimit(uint256)": {
        "details": "setter",
        "params": {
          "_maxReleaseLimit": "new maxReleaseLimit"
        }
      },
      "setMinLimit(uint256)": {
        "details": "setter",
        "params": {
          "_minLimit": "new minLimit"
        }
      },
      "setMinRequiredReports(uint8)": {
        "details": "setter",
        "params": {
          "_minRequiredReports": "new minRequiredReports"
        }
      },
      "setReporter(address,bool)": {
        "details": "allows the owner to set/remove reporters",
        "params": {
          "_active": "true if the reporter is approved, false otherwise",
          "_reporter": "reporter whos status is to be set"
        }
      },
      "transferOwnership(address)": {
        "details": "allows transferring the contract ownership the new owner still needs to accept the transfer can only be called by the contract owner",
        "params": {
          "_newOwner": "new contract owner"
        }
      },
      "updateRegistry()": {
        "details": "updates to the new contract-registry"
      },
      "upgrade(address[])": {
        "details": "upgrades the contract to the latest version can only be called by the owner note that the owner needs to call acceptOwnership on the new contract after the upgrade",
        "params": {
          "_reporters": "new list of reporters"
        }
      },
      "withdrawTokens(address,address,uint256)": {
        "details": "withdraws tokens held by the contract and sends them to an account can only be called by the owner",
        "params": {
          "_amount": "amount to withdraw",
          "_to": "account to receive the new amount",
          "_token": "ERC20 token contract address"
        }
      },
      "xTransfer(bytes32,bytes32,uint256)": {
        "details": "claims tokens from msg.sender to be converted to tokens on another blockchain",
        "params": {
          "_amount": "the amount of tokens to transfer",
          "_to": "address to send the tokens to",
          "_toBlockchain": "blockchain on which tokens will be issued"
        }
      },
      "xTransfer(bytes32,bytes32,uint256,uint256)": {
        "details": "claims tokens from msg.sender to be converted to tokens on another blockchain",
        "params": {
          "_amount": "the amount of tokens to transfer",
          "_id": "pre-determined unique (if non zero) id which refers to this transaction",
          "_to": "address to send the tokens to",
          "_toBlockchain": "blockchain on which tokens will be issued"
        }
      }
    },
    "version": 1
  },
  "userdoc": {
    "kind": "user",
    "methods": {},
    "version": 1
  }
}