{
  "contractName": "CheckpointStore",
  "abi": [
    {
      "inputs": [],
      "stateMutability": "nonpayable",
      "type": "constructor"
    },
    {
      "anonymous": false,
      "inputs": [
        {
          "indexed": true,
          "internalType": "address",
          "name": "_address",
          "type": "address"
        },
        {
          "indexed": false,
          "internalType": "uint256",
          "name": "_time",
          "type": "uint256"
        }
      ],
      "name": "CheckpointUpdated",
      "type": "event"
    },
    {
      "anonymous": false,
      "inputs": [
        {
          "indexed": true,
          "internalType": "bytes32",
          "name": "role",
          "type": "bytes32"
        },
        {
          "indexed": true,
          "internalType": "bytes32",
          "name": "previousAdminRole",
          "type": "bytes32"
        },
        {
          "indexed": true,
          "internalType": "bytes32",
          "name": "newAdminRole",
          "type": "bytes32"
        }
      ],
      "name": "RoleAdminChanged",
      "type": "event"
    },
    {
      "anonymous": false,
      "inputs": [
        {
          "indexed": true,
          "internalType": "bytes32",
          "name": "role",
          "type": "bytes32"
        },
        {
          "indexed": true,
          "internalType": "address",
          "name": "account",
          "type": "address"
        },
        {
          "indexed": true,
          "internalType": "address",
          "name": "sender",
          "type": "address"
        }
      ],
      "name": "RoleGranted",
      "type": "event"
    },
    {
      "anonymous": false,
      "inputs": [
        {
          "indexed": true,
          "internalType": "bytes32",
          "name": "role",
          "type": "bytes32"
        },
        {
          "indexed": true,
          "internalType": "address",
          "name": "account",
          "type": "address"
        },
        {
          "indexed": true,
          "internalType": "address",
          "name": "sender",
          "type": "address"
        }
      ],
      "name": "RoleRevoked",
      "type": "event"
    },
    {
      "inputs": [],
      "name": "DEFAULT_ADMIN_ROLE",
      "outputs": [
        {
          "internalType": "bytes32",
          "name": "",
          "type": "bytes32"
        }
      ],
      "stateMutability": "view",
      "type": "function"
    },
    {
      "inputs": [],
      "name": "ROLE_OWNER",
      "outputs": [
        {
          "internalType": "bytes32",
          "name": "",
          "type": "bytes32"
        }
      ],
      "stateMutability": "view",
      "type": "function"
    },
    {
      "inputs": [],
      "name": "ROLE_SEEDER",
      "outputs": [
        {
          "internalType": "bytes32",
          "name": "",
          "type": "bytes32"
        }
      ],
      "stateMutability": "view",
      "type": "function"
    },
    {
      "inputs": [
        {
          "internalType": "bytes32",
          "name": "role",
          "type": "bytes32"
        }
      ],
      "name": "getRoleAdmin",
      "outputs": [
        {
          "internalType": "bytes32",
          "name": "",
          "type": "bytes32"
        }
      ],
      "stateMutability": "view",
      "type": "function"
    },
    {
      "inputs": [
        {
          "internalType": "bytes32",
          "name": "role",
          "type": "bytes32"
        },
        {
          "internalType": "uint256",
          "name": "index",
          "type": "uint256"
        }
      ],
      "name": "getRoleMember",
      "outputs": [
        {
          "internalType": "address",
          "name": "",
          "type": "address"
        }
      ],
      "stateMutability": "view",
      "type": "function"
    },
    {
      "inputs": [
        {
          "internalType": "bytes32",
          "name": "role",
          "type": "bytes32"
        }
      ],
      "name": "getRoleMemberCount",
      "outputs": [
        {
          "internalType": "uint256",
          "name": "",
          "type": "uint256"
        }
      ],
      "stateMutability": "view",
      "type": "function"
    },
    {
      "inputs": [
        {
          "internalType": "bytes32",
          "name": "role",
          "type": "bytes32"
        },
        {
          "internalType": "address",
          "name": "account",
          "type": "address"
        }
      ],
      "name": "grantRole",
      "outputs": [],
      "stateMutability": "nonpayable",
      "type": "function"
    },
    {
      "inputs": [
        {
          "internalType": "bytes32",
          "name": "role",
          "type": "bytes32"
        },
        {
          "internalType": "address",
          "name": "account",
          "type": "address"
        }
      ],
      "name": "hasRole",
      "outputs": [
        {
          "internalType": "bool",
          "name": "",
          "type": "bool"
        }
      ],
      "stateMutability": "view",
      "type": "function"
    },
    {
      "inputs": [
        {
          "internalType": "bytes32",
          "name": "role",
          "type": "bytes32"
        },
        {
          "internalType": "address",
          "name": "account",
          "type": "address"
        }
      ],
      "name": "renounceRole",
      "outputs": [],
      "stateMutability": "nonpayable",
      "type": "function"
    },
    {
      "inputs": [
        {
          "internalType": "bytes32",
          "name": "role",
          "type": "bytes32"
        },
        {
          "internalType": "address",
          "name": "account",
          "type": "address"
        }
      ],
      "name": "revokeRole",
      "outputs": [],
      "stateMutability": "nonpayable",
      "type": "function"
    },
    {
      "inputs": [
        {
          "internalType": "address",
          "name": "_address",
          "type": "address"
        },
        {
          "internalType": "uint256",
          "name": "_time",
          "type": "uint256"
        }
      ],
      "name": "addPastCheckpoint",
      "outputs": [],
      "stateMutability": "nonpayable",
      "type": "function"
    },
    {
      "inputs": [
        {
          "internalType": "address[]",
          "name": "_addresses",
          "type": "address[]"
        },
        {
          "internalType": "uint256[]",
          "name": "_times",
          "type": "uint256[]"
        }
      ],
      "name": "addPastCheckpoints",
      "outputs": [],
      "stateMutability": "nonpayable",
      "type": "function"
    },
    {
      "inputs": [
        {
          "internalType": "address",
          "name": "_address",
          "type": "address"
        }
      ],
      "name": "checkpoint",
      "outputs": [
        {
          "internalType": "uint256",
          "name": "",
          "type": "uint256"
        }
      ],
      "stateMutability": "view",
      "type": "function"
    },
    {
      "inputs": [
        {
          "internalType": "address",
          "name": "_address",
          "type": "address"
        }
      ],
      "name": "addCheckpoint",
      "outputs": [],
      "stateMutability": "nonpayable",
      "type": "function"
    }
  ],
  "bytecode": "0x60806040523480156200001157600080fd5b506200002d60008051602062000eff8339815191528062000089565b620000687fd040da8733f282f8b56d042e742cba64aa94b6398cd5a45974e40912f9b3b33f60008051602062000eff83398151915262000089565b6200008360008051602062000eff83398151915233620000db565b620001ef565b600082815260208190526040808220600201549051839285917fbd79b86ffe0ab8e8776151514217cd7cacd52c909f66475c3af44e129f0b00ff9190a460009182526020829052604090912060020155565b620000e78282620000eb565b5050565b600082815260208181526040909120620001109183906200085362000164821b17901c565b15620000e7576200012062000184565b6001600160a01b0316816001600160a01b0316837f2f8788117e7eff1d82e926ec794901d17c78024a50270940304540a733656f0d60405160405180910390a45050565b60006200017b836001600160a01b03841662000188565b90505b92915050565b3390565b6000620001968383620001d7565b620001ce575081546001818101845560008481526020808220909301849055845484825282860190935260409020919091556200017e565b5060006200017e565b60009081526001919091016020526040902054151590565b610d0080620001ff6000396000f3fe608060405234801561001057600080fd5b50600436106100ea5760003560e01c806391d148541161008c578063a972985e11610066578063a972985e14610261578063bcb81bfc14610287578063ca15c87314610349578063d547741f14610366576100ea565b806391d14854146101ed578063a217fddf1461022d578063a3699b3714610235576100ea565b806336568abe116100c857806336568abe146101725780636b639ced1461019e5780638ad682af146101a65780639010d07c146101ae576100ea565b80631d092adf146100ef578063248a9ca3146101175780632f2ff15d14610146575b600080fd5b6101156004803603602081101561010557600080fd5b50356001600160a01b0316610392565b005b6101346004803603602081101561012d57600080fd5b5035610420565b60408051918252519081900360200190f35b6101156004803603604081101561015c57600080fd5b50803590602001356001600160a01b0316610435565b6101156004803603604081101561018857600080fd5b50803590602001356001600160a01b031661049d565b6101346104fe565b610134610522565b6101d1600480360360408110156101c457600080fd5b5080359060200135610546565b604080516001600160a01b039092168252519081900360200190f35b6102196004803603604081101561020357600080fd5b50803590602001356001600160a01b0316610567565b604080519115158252519081900360200190f35b61013461057f565b6101156004803603604081101561024b57600080fd5b506001600160a01b038135169060200135610584565b6101346004803603602081101561027757600080fd5b50356001600160a01b031661065a565b6101156004803603604081101561029d57600080fd5b8101906020810181356401000000008111156102b857600080fd5b8201836020820111156102ca57600080fd5b803590602001918460208302840111640100000000831117156102ec57600080fd5b91939092909160208101903564010000000081111561030a57600080fd5b82018360208201111561031c57600080fd5b8035906020019184602083028401116401000000008311171561033e57600080fd5b509092509050610675565b6101346004803603602081101561035f57600080fd5b50356107e3565b6101156004803603604081101561037c57600080fd5b50803590602001356001600160a01b03166107fa565b8061039c81610868565b6103c67f9f4e1c871d5fdd0aee1cd182666698a4492b24c6832aac230d07b11046af5a8933610567565b61040b576040805162461bcd60e51b815260206004820152601160248201527011549497d050d0d154d4d7d11153925151607a1b604482015290519081900360640190fd5b61041c826104176108bc565b6108c0565b5050565b60009081526020819052604090206002015490565b60008281526020819052604090206002015461045890610453610973565b610567565b6104935760405162461bcd60e51b815260040180806020018281038252602f815260200180610c3d602f913960400191505060405180910390fd5b61041c8282610977565b6104a5610973565b6001600160a01b0316816001600160a01b0316146104f45760405162461bcd60e51b815260040180806020018281038252602f815260200180610c9c602f913960400191505060405180910390fd5b61041c82826109e0565b7fd040da8733f282f8b56d042e742cba64aa94b6398cd5a45974e40912f9b3b33f81565b7f9f4e1c871d5fdd0aee1cd182666698a4492b24c6832aac230d07b11046af5a8981565b600082815260208190526040812061055e9083610a49565b90505b92915050565b600082815260208190526040812061055e9083610a55565b600081565b8161058e81610868565b6105b87fd040da8733f282f8b56d042e742cba64aa94b6398cd5a45974e40912f9b3b33f33610567565b6105fd576040805162461bcd60e51b815260206004820152601160248201527011549497d050d0d154d4d7d11153925151607a1b604482015290519081900360640190fd5b6106056108bc565b821061064b576040805162461bcd60e51b815260206004820152601060248201526f4552525f494e56414c49445f54494d4560801b604482015290519081900360640190fd5b61065583836108c0565b505050565b6001600160a01b031660009081526001602052604090205490565b61069f7fd040da8733f282f8b56d042e742cba64aa94b6398cd5a45974e40912f9b3b33f33610567565b6106e4576040805162461bcd60e51b815260206004820152601160248201527011549497d050d0d154d4d7d11153925151607a1b604482015290519081900360640190fd5b8281811461072e576040805162461bcd60e51b815260206004820152601260248201527108aa4a4be929cac82989288be988a9c8ea8960731b604482015290519081900360640190fd5b60005b818110156107db57600086868381811061074757fe5b905060200201356001600160a01b03169050600085858481811061076757fe5b90506020020135905061077982610868565b6107816108bc565b81106107c7576040805162461bcd60e51b815260206004820152601060248201526f4552525f494e56414c49445f54494d4560801b604482015290519081900360640190fd5b6107d182826108c0565b5050600101610731565b505050505050565b600081815260208190526040812061056190610a6a565b60008281526020819052604090206002015461081890610453610973565b6104f45760405162461bcd60e51b8152600401808060200182810382526030815260200180610c6c6030913960400191505060405180910390fd5b600061055e836001600160a01b038416610a75565b6001600160a01b0381166108b9576040805162461bcd60e51b81526020600482015260136024820152724552525f494e56414c49445f4144445245535360681b604482015290519081900360640190fd5b50565b4290565b6001600160a01b03821660009081526001602052604090205481101561091f576040805162461bcd60e51b815260206004820152600f60248201526e22a9292faba927a723afa7a92222a960891b604482015290519081900360640190fd5b6001600160a01b038216600081815260016020908152604091829020849055815184815291517f6eb3d2afd129515b81e7e76f1cd8eef506c90c811bed42bda361e9bebd93be259281900390910190a25050565b3390565b600082815260208190526040902061098f9082610853565b1561041c5761099c610973565b6001600160a01b0316816001600160a01b0316837f2f8788117e7eff1d82e926ec794901d17c78024a50270940304540a733656f0d60405160405180910390a45050565b60008281526020819052604090206109f89082610abf565b1561041c57610a05610973565b6001600160a01b0316816001600160a01b0316837ff6391f5c32d9c69d2a47ea670b442974b53935d1edc7fd64eb21e047a839171b60405160405180910390a45050565b600061055e8383610ad4565b600061055e836001600160a01b038416610b38565b600061056182610b50565b6000610a818383610b38565b610ab757508154600181810184556000848152602080822090930184905584548482528286019093526040902091909155610561565b506000610561565b600061055e836001600160a01b038416610b54565b81546000908210610b165760405162461bcd60e51b8152600401808060200182810382526022815260200180610c1b6022913960400191505060405180910390fd5b826000018281548110610b2557fe5b9060005260206000200154905092915050565b60009081526001919091016020526040902054151590565b5490565b60008181526001830160205260408120548015610c105783546000198083019190810190600090879083908110610b8757fe5b9060005260206000200154905080876000018481548110610ba457fe5b600091825260208083209091019290925582815260018981019092526040902090840190558654879080610bd457fe5b60019003818190600052602060002001600090559055866001016000878152602001908152602001600020600090556001945050505050610561565b600091505061056156fe456e756d657261626c655365743a20696e646578206f7574206f6620626f756e6473416363657373436f6e74726f6c3a2073656e646572206d75737420626520616e2061646d696e20746f206772616e74416363657373436f6e74726f6c3a2073656e646572206d75737420626520616e2061646d696e20746f207265766f6b65416363657373436f6e74726f6c3a2063616e206f6e6c792072656e6f756e636520726f6c657320666f722073656c66a2646970667358221220c4cd9224bb01b81ec40ace42d42f2cdb64b6dc666f8d98bc86c984f43b7fc39164736f6c634300060c00339f4e1c871d5fdd0aee1cd182666698a4492b24c6832aac230d07b11046af5a89",
  "immutableReferences": {},
  "source": "// SPDX-License-Identifier: SEE LICENSE IN LICENSE\npragma solidity 0.6.12;\n\nimport \"@openzeppelin/contracts/access/AccessControl.sol\";\n\nimport \"./interfaces/ICheckpointStore.sol\";\n\nimport \"../utility/Utils.sol\";\nimport \"../utility/Time.sol\";\n\n/**\n * @dev Time store contract\n */\ncontract CheckpointStore is ICheckpointStore, AccessControl, Utils, Time {\n    mapping(address => uint256) private data;\n\n    // the owner role is used to add values to the store, but it can't update them\n    bytes32 public constant ROLE_OWNER = keccak256(\"ROLE_OWNER\");\n\n    // the seeder roles is used to seed the store with past values\n    bytes32 public constant ROLE_SEEDER = keccak256(\"ROLE_SEEDER\");\n\n    /**\n     * @dev triggered when a new data point is being added\n     *\n     * @param _address the address we're collecting the data for\n     * @param _time the checkpoint\n     */\n    event CheckpointUpdated(address indexed _address, uint256 _time);\n\n    constructor() public {\n        // set up administrative roles.\n        _setRoleAdmin(ROLE_OWNER, ROLE_OWNER);\n        _setRoleAdmin(ROLE_SEEDER, ROLE_OWNER);\n\n        // allow the deployer to initially govern the contract.\n        _setupRole(ROLE_OWNER, msg.sender);\n    }\n\n    /**\n     * @dev adds a new data point to the store\n     * can only be called by an owner\n     *\n     * @param _address the address we're collecting the data for\n     */\n    function addCheckpoint(address _address) external override validAddress(_address) {\n        require(hasRole(ROLE_OWNER, msg.sender), \"ERR_ACCESS_DENIED\");\n\n        addCheckpoint(_address, time());\n    }\n\n    /**\n     * @dev adds a past checkpoint to the store\n     * can only be called by a seeder\n     *\n     * @param _address the address we're collecting the data for\n     * @param _time the checkpoint\n     */\n    function addPastCheckpoint(address _address, uint256 _time) external override validAddress(_address) {\n        require(hasRole(ROLE_SEEDER, msg.sender), \"ERR_ACCESS_DENIED\");\n        require(_time < time(), \"ERR_INVALID_TIME\");\n\n        addCheckpoint(_address, _time);\n    }\n\n    /**\n     * @dev adds past checkpoints to the store\n     * can only be called by a seeder\n     *\n     * @param _addresses the addresses we're collecting the data for\n     * @param _times the checkpoints\n     */\n    function addPastCheckpoints(address[] calldata _addresses, uint256[] calldata _times) external override {\n        require(hasRole(ROLE_SEEDER, msg.sender), \"ERR_ACCESS_DENIED\");\n\n        uint256 length = _addresses.length;\n        require(length == _times.length, \"ERR_INVALID_LENGTH\");\n\n        for (uint256 i = 0; i < length; i++) {\n            address addr = _addresses[i];\n            uint256 t = _times[i];\n\n            _validAddress(addr);\n            require(t < time(), \"ERR_INVALID_TIME\");\n\n            addCheckpoint(addr, t);\n        }\n    }\n\n    /**\n     * @dev returns the store value for a specific address\n     *\n     * @param _address the address we're collecting the data for\n     *\n     * @return the checkpoint\n     */\n    function checkpoint(address _address) external view override returns (uint256) {\n        return data[_address];\n    }\n\n    /**\n     * @dev adds a new checkpoint\n     * can only be called by a seeder\n     *\n     * @param _address the address we're collecting the data for\n     * @param _time the checkpoint\n     */\n    function addCheckpoint(address _address, uint256 _time) private {\n        require(data[_address] <= _time, \"ERR_WRONG_ORDER\");\n\n        data[_address] = _time;\n\n        emit CheckpointUpdated(_address, _time);\n    }\n}\n",
  "sourcePath": "/Users/dennismacpro/Projects/Defi/Ethereum-Solidity-Collection/icarus-protocol/defi-seeder/.tmp/bancor/contracts-solidity/solidity/contracts/utility/CheckpointStore.sol",
  "compiler": {
    "name": "solc",
    "version": "0.6.12+commit.27d51765.Emscripten.clang"
  },
  "schemaVersion": "3.3.3",
  "updatedAt": "2021-04-01T18:17:52.171Z",
  "devdoc": {
    "details": "Time store contract",
    "events": {
      "CheckpointUpdated(address,uint256)": {
        "details": "triggered when a new data point is being added",
        "params": {
          "_address": "the address we're collecting the data for",
          "_time": "the checkpoint"
        }
      }
    },
    "kind": "dev",
    "methods": {
      "addCheckpoint(address)": {
        "details": "adds a new data point to the store can only be called by an owner",
        "params": {
          "_address": "the address we're collecting the data for"
        }
      },
      "addPastCheckpoint(address,uint256)": {
        "details": "adds a past checkpoint to the store can only be called by a seeder",
        "params": {
          "_address": "the address we're collecting the data for",
          "_time": "the checkpoint"
        }
      },
      "addPastCheckpoints(address[],uint256[])": {
        "details": "adds past checkpoints to the store can only be called by a seeder",
        "params": {
          "_addresses": "the addresses we're collecting the data for",
          "_times": "the checkpoints"
        }
      },
      "checkpoint(address)": {
        "details": "returns the store value for a specific address",
        "params": {
          "_address": "the address we're collecting the data for"
        },
        "returns": {
          "_0": "the checkpoint"
        }
      },
      "getRoleAdmin(bytes32)": {
        "details": "Returns the admin role that controls `role`. See {grantRole} and {revokeRole}. To change a role's admin, use {_setRoleAdmin}."
      },
      "getRoleMember(bytes32,uint256)": {
        "details": "Returns one of the accounts that have `role`. `index` must be a value between 0 and {getRoleMemberCount}, non-inclusive. Role bearers are not sorted in any particular way, and their ordering may change at any point. WARNING: When using {getRoleMember} and {getRoleMemberCount}, make sure you perform all queries on the same block. See the following https://forum.openzeppelin.com/t/iterating-over-elements-on-enumerableset-in-openzeppelin-contracts/2296[forum post] for more information."
      },
      "getRoleMemberCount(bytes32)": {
        "details": "Returns the number of accounts that have `role`. Can be used together with {getRoleMember} to enumerate all bearers of a role."
      },
      "grantRole(bytes32,address)": {
        "details": "Grants `role` to `account`. If `account` had not been already granted `role`, emits a {RoleGranted} event. Requirements: - the caller must have ``role``'s admin role."
      },
      "hasRole(bytes32,address)": {
        "details": "Returns `true` if `account` has been granted `role`."
      },
      "renounceRole(bytes32,address)": {
        "details": "Revokes `role` from the calling account. Roles are often managed via {grantRole} and {revokeRole}: this function's purpose is to provide a mechanism for accounts to lose their privileges if they are compromised (such as when a trusted device is misplaced). If the calling account had been granted `role`, emits a {RoleRevoked} event. Requirements: - the caller must be `account`."
      },
      "revokeRole(bytes32,address)": {
        "details": "Revokes `role` from `account`. If `account` had been granted `role`, emits a {RoleRevoked} event. Requirements: - the caller must have ``role``'s admin role."
      }
    },
    "version": 1
  },
  "userdoc": {
    "kind": "user",
    "methods": {},
    "version": 1
  }
}