{
  "contractName": "ConverterFactory",
  "abi": [
    {
      "anonymous": false,
      "inputs": [
        {
          "indexed": true,
          "internalType": "uint16",
          "name": "_type",
          "type": "uint16"
        },
        {
          "indexed": true,
          "internalType": "contract IConverter",
          "name": "_converter",
          "type": "address"
        },
        {
          "indexed": true,
          "internalType": "address",
          "name": "_owner",
          "type": "address"
        }
      ],
      "name": "NewConverter",
      "type": "event"
    },
    {
      "anonymous": false,
      "inputs": [
        {
          "indexed": true,
          "internalType": "address",
          "name": "_prevOwner",
          "type": "address"
        },
        {
          "indexed": true,
          "internalType": "address",
          "name": "_newOwner",
          "type": "address"
        }
      ],
      "name": "OwnerUpdate",
      "type": "event"
    },
    {
      "inputs": [],
      "name": "acceptOwnership",
      "outputs": [],
      "stateMutability": "nonpayable",
      "type": "function"
    },
    {
      "inputs": [
        {
          "internalType": "uint16",
          "name": "",
          "type": "uint16"
        }
      ],
      "name": "anchorFactories",
      "outputs": [
        {
          "internalType": "contract ITypedConverterAnchorFactory",
          "name": "",
          "type": "address"
        }
      ],
      "stateMutability": "view",
      "type": "function"
    },
    {
      "inputs": [
        {
          "internalType": "uint16",
          "name": "",
          "type": "uint16"
        }
      ],
      "name": "converterFactories",
      "outputs": [
        {
          "internalType": "contract ITypedConverterFactory",
          "name": "",
          "type": "address"
        }
      ],
      "stateMutability": "view",
      "type": "function"
    },
    {
      "inputs": [
        {
          "internalType": "uint16",
          "name": "",
          "type": "uint16"
        }
      ],
      "name": "customFactories",
      "outputs": [
        {
          "internalType": "contract ITypedConverterCustomFactory",
          "name": "",
          "type": "address"
        }
      ],
      "stateMutability": "view",
      "type": "function"
    },
    {
      "inputs": [],
      "name": "newOwner",
      "outputs": [
        {
          "internalType": "address",
          "name": "",
          "type": "address"
        }
      ],
      "stateMutability": "view",
      "type": "function"
    },
    {
      "inputs": [],
      "name": "owner",
      "outputs": [
        {
          "internalType": "address",
          "name": "",
          "type": "address"
        }
      ],
      "stateMutability": "view",
      "type": "function"
    },
    {
      "inputs": [
        {
          "internalType": "address",
          "name": "_newOwner",
          "type": "address"
        }
      ],
      "name": "transferOwnership",
      "outputs": [],
      "stateMutability": "nonpayable",
      "type": "function"
    },
    {
      "inputs": [
        {
          "internalType": "contract ITypedConverterFactory",
          "name": "_factory",
          "type": "address"
        }
      ],
      "name": "registerTypedConverterFactory",
      "outputs": [],
      "stateMutability": "nonpayable",
      "type": "function"
    },
    {
      "inputs": [
        {
          "internalType": "contract ITypedConverterAnchorFactory",
          "name": "_factory",
          "type": "address"
        }
      ],
      "name": "registerTypedConverterAnchorFactory",
      "outputs": [],
      "stateMutability": "nonpayable",
      "type": "function"
    },
    {
      "inputs": [
        {
          "internalType": "contract ITypedConverterCustomFactory",
          "name": "_factory",
          "type": "address"
        }
      ],
      "name": "registerTypedConverterCustomFactory",
      "outputs": [],
      "stateMutability": "nonpayable",
      "type": "function"
    },
    {
      "inputs": [
        {
          "internalType": "uint16",
          "name": "_converterType",
          "type": "uint16"
        },
        {
          "internalType": "string",
          "name": "_name",
          "type": "string"
        },
        {
          "internalType": "string",
          "name": "_symbol",
          "type": "string"
        },
        {
          "internalType": "uint8",
          "name": "_decimals",
          "type": "uint8"
        }
      ],
      "name": "createAnchor",
      "outputs": [
        {
          "internalType": "contract IConverterAnchor",
          "name": "",
          "type": "address"
        }
      ],
      "stateMutability": "nonpayable",
      "type": "function"
    },
    {
      "inputs": [
        {
          "internalType": "uint16",
          "name": "_type",
          "type": "uint16"
        },
        {
          "internalType": "contract IConverterAnchor",
          "name": "_anchor",
          "type": "address"
        },
        {
          "internalType": "contract IContractRegistry",
          "name": "_registry",
          "type": "address"
        },
        {
          "internalType": "uint32",
          "name": "_maxConversionFee",
          "type": "uint32"
        }
      ],
      "name": "createConverter",
      "outputs": [
        {
          "internalType": "contract IConverter",
          "name": "",
          "type": "address"
        }
      ],
      "stateMutability": "nonpayable",
      "type": "function"
    }
  ],
  "bytecode": "0x608060405234801561001057600080fd5b50600080546001600160a01b03191633179055611fca806100326000396000f3fe60806040523480156200001157600080fd5b5060043610620000c45760003560e01c80638cac5e29116200007b5780638cac5e2914620002f25780638da5cb5b146200031b578063c977aed21462000325578063d4ee1d901462000349578063e54b93ef1462000353578063f2fde38b146200037c57620000c4565b806312b4c6c114620000c957806315f64b6a14620000f45780632e9ab7b3146200015a578063327779a714620002a05780633a8fc52014620002c457806379ba509714620002e8575b600080fd5b620000f260048036036020811015620000e157600080fd5b50356001600160a01b0316620003a5565b005b6200013e600480360360808110156200010c57600080fd5b50803561ffff169060208101356001600160a01b03908116916040810135909116906060013563ffffffff1662000451565b604080516001600160a01b039092168252519081900360200190f35b6200013e600480360360808110156200017257600080fd5b61ffff82351691908101906040810160208201356401000000008111156200019957600080fd5b820183602082011115620001ac57600080fd5b80359060200191846001830284011164010000000083111715620001cf57600080fd5b91908080601f01602080910402602001604051908101604052809392919081815260200183838082843760009201919091525092959493602081019350359150506401000000008111156200022357600080fd5b8201836020820111156200023657600080fd5b803590602001918460018302840111640100000000831117156200025957600080fd5b91908080601f0160208091040260200160405190810160405280939291908181526020018383808284376000920191909152509295505050903560ff169150620005f69050565b6200013e60048036036020811015620002b857600080fd5b503561ffff166200094c565b6200013e60048036036020811015620002dc57600080fd5b503561ffff1662000967565b620000f262000982565b620000f2600480360360208110156200030a57600080fd5b50356001600160a01b031662000a3a565b6200013e62000a83565b6200013e600480360360208110156200033d57600080fd5b503561ffff1662000a92565b6200013e62000aad565b620000f2600480360360208110156200036b57600080fd5b50356001600160a01b031662000abc565b620000f2600480360360208110156200039457600080fd5b50356001600160a01b031662000b05565b620003af62000b86565b8060026000836001600160a01b0316633e8ff43f6040518163ffffffff1660e01b815260040160206040518083038186803b158015620003ee57600080fd5b505afa15801562000403573d6000803e3d6000fd5b505050506040513d60208110156200041a57600080fd5b505161ffff168152602081019190915260400160002080546001600160a01b0319166001600160a01b039290921691909117905550565b61ffff84166000908152600260209081526040808320548151630228272b60e31b81526001600160a01b038881166004830152878116602483015263ffffffff8716604483015292518594939092169263114139589260648084019382900301818787803b158015620004c357600080fd5b505af1158015620004d8573d6000803e3d6000fd5b505050506040513d6020811015620004ef57600080fd5b5051604080516379ba509760e01b815290519192506001600160a01b038316916379ba50979160048082019260009290919082900301818387803b1580156200053757600080fd5b505af11580156200054c573d6000803e3d6000fd5b50506040805163f2fde38b60e01b815233600482015290516001600160a01b038516935063f2fde38b9250602480830192600092919082900301818387803b1580156200059857600080fd5b505af1158015620005ad573d6000803e3d6000fd5b50506040513392506001600160a01b038416915061ffff8916907fbb340bcea68d239ac719bc5cf8c9a1716df04ad3babb8d1e562aa44d19fea3a390600090a495945050505050565b61ffff841660009081526003602052604081205481906001600160a01b03168062000731578585856040516200062c9062000bdc565b60ff82166040820152606080825284519082015283518190602080830191608084019188019080838360005b838110156200067257818101518382015260200162000658565b50505050905090810190601f168015620006a05780820380516001836020036101000a031916815260200191505b50838103825285518152855160209182019187019080838360005b83811015620006d5578181015183820152602001620006bb565b50505050905090810190601f168015620007035780820380516001836020036101000a031916815260200191505b5095505050505050604051809103906000f08015801562000728573d6000803e3d6000fd5b509150620008e0565b806001600160a01b031663a9fd4a2a8787876040518463ffffffff1660e01b81526004018080602001806020018460ff168152602001838103835286818151815260200191508051906020019080838360005b838110156200079e57818101518382015260200162000784565b50505050905090810190601f168015620007cc5780820380516001836020036101000a031916815260200191505b50838103825285518152855160209182019187019080838360005b8381101562000801578181015183820152602001620007e7565b50505050905090810190601f1680156200082f5780820380516001836020036101000a031916815260200191505b5095505050505050602060405180830381600087803b1580156200085257600080fd5b505af115801562000867573d6000803e3d6000fd5b505050506040513d60208110156200087e57600080fd5b5051604080516379ba509760e01b815290519193506001600160a01b038416916379ba50979160048082019260009290919082900301818387803b158015620008c657600080fd5b505af1158015620008db573d6000803e3d6000fd5b505050505b6040805163f2fde38b60e01b815233600482015290516001600160a01b0384169163f2fde38b91602480830192600092919082900301818387803b1580156200092857600080fd5b505af11580156200093d573d6000803e3d6000fd5b50939998505050505050505050565b6002602052600090815260409020546001600160a01b031681565b6003602052600090815260409020546001600160a01b031681565b6001546001600160a01b03163314620009d6576040805162461bcd60e51b815260206004820152601160248201527011549497d050d0d154d4d7d11153925151607a1b604482015290519081900360640190fd5b600154600080546040516001600160a01b0393841693909116917f343765429aea5a34b3ff6a3785a98a5abb2597aca87bfbb58632c173d585373a91a360018054600080546001600160a01b03199081166001600160a01b03841617909155169055565b62000a4462000b86565b8060046000836001600160a01b0316633e8ff43f6040518163ffffffff1660e01b815260040160206040518083038186803b158015620003ee57600080fd5b6000546001600160a01b031681565b6004602052600090815260409020546001600160a01b031681565b6001546001600160a01b031681565b62000ac662000b86565b8060036000836001600160a01b0316633e8ff43f6040518163ffffffff1660e01b815260040160206040518083038186803b158015620003ee57600080fd5b62000b0f62000b86565b6000546001600160a01b038281169116141562000b64576040805162461bcd60e51b815260206004820152600e60248201526d22a9292fa9a0a6a2afa7aba722a960911b604482015290519081900360640190fd5b600180546001600160a01b0319166001600160a01b0392909216919091179055565b6000546001600160a01b0316331462000bda576040805162461bcd60e51b815260206004820152601160248201527011549497d050d0d154d4d7d11153925151607a1b604482015290519081900360640190fd5b565b6113aa8062000beb8339019056fe60a06040523480156200001157600080fd5b50604051620013aa380380620013aa833981810160405260608110156200003757600080fd5b81019080805160405193929190846401000000008211156200005857600080fd5b9083019060208201858111156200006e57600080fd5b82516401000000008111828201881017156200008957600080fd5b82525081516020918201929091019080838360005b83811015620000b85781810151838201526020016200009e565b50505050905090810190601f168015620000e65780820380516001836020036101000a031916815260200191505b50604052602001805160405193929190846401000000008211156200010a57600080fd5b9083019060208201858111156200012057600080fd5b82516401000000008111828201881017156200013b57600080fd5b82525081516020918201929091019080838360005b838110156200016a57818101518382015260200162000150565b50505050905090810190601f168015620001985780820380516001836020036101000a031916815260200191505b5060405260209081015185519093508592508491620001bd9160039185019062000227565b508051620001d390600490602084019062000227565b505060058054601260ff1990911617610100600160a81b03191661010033021790555060f81b7fff000000000000000000000000000000000000000000000000000000000000001660805250620002c39050565b828054600181600116156101000203166002900490600052602060002090601f016020900481019282601f106200026a57805160ff19168380011785556200029a565b828001600101855582156200029a579182015b828111156200029a5782518255916020019190600101906200027d565b50620002a8929150620002ac565b5090565b5b80821115620002a85760008155600101620002ad565b60805160f81c6110c9620002e16000398061051152506110c96000f3fe608060405234801561001057600080fd5b506004361061010b5760003560e01c8063867904b4116100a2578063a457c2d711610071578063a457c2d71461031b578063a9059cbb14610347578063d4ee1d9014610373578063dd62ed3e1461037b578063f2fde38b146103a95761010b565b8063867904b4146102975780638da5cb5b146102c357806395d89b41146102e7578063a24835d1146102ef5761010b565b8063313ce567116100de578063313ce5671461021d578063395093511461023b57806370a082311461026757806379ba50971461028d5761010b565b806306fdde0314610110578063095ea7b31461018d57806318160ddd146101cd57806323b872dd146101e7575b600080fd5b6101186103cf565b6040805160208082528351818301528351919283929083019185019080838360005b8381101561015257818101518382015260200161013a565b50505050905090810190601f16801561017f5780820380516001836020036101000a031916815260200191505b509250505060405180910390f35b6101b9600480360360408110156101a357600080fd5b506001600160a01b038135169060200135610465565b604080519115158252519081900360200190f35b6101d5610482565b60408051918252519081900360200190f35b6101b9600480360360608110156101fd57600080fd5b506001600160a01b03813581169160208101359091169060400135610488565b61022561050f565b6040805160ff9092168252519081900360200190f35b6101b96004803603604081101561025157600080fd5b506001600160a01b038135169060200135610533565b6101d56004803603602081101561027d57600080fd5b50356001600160a01b0316610581565b61029561059c565b005b610295600480360360408110156102ad57600080fd5b506001600160a01b038135169060200135610666565b6102cb6106c5565b604080516001600160a01b039092168252519081900360200190f35b6101186106d9565b6102956004803603604081101561030557600080fd5b506001600160a01b03813516906020013561073a565b6101b96004803603604081101561033157600080fd5b506001600160a01b038135169060200135610783565b6101b96004803603604081101561035d57600080fd5b506001600160a01b0381351690602001356107eb565b6102cb6107ff565b6101d56004803603604081101561039157600080fd5b506001600160a01b038135811691602001351661080e565b610295600480360360208110156103bf57600080fd5b50356001600160a01b0316610839565b60038054604080516020601f600260001961010060018816150201909516949094049384018190048102820181019092528281526060939092909183018282801561045b5780601f106104305761010080835404028352916020019161045b565b820191906000526020600020905b81548152906001019060200180831161043e57829003601f168201915b5050505050905090565b60006104796104726108bc565b84846108c0565b50600192915050565b60025490565b60006104958484846109ac565b610505846104a16108bc565b61050085604051806060016040528060288152602001610fdd602891396001600160a01b038a166000908152600160205260408120906104df6108bc565b6001600160a01b031681526020810191909152604001600020549190610b07565b6108c0565b5060019392505050565b7f000000000000000000000000000000000000000000000000000000000000000090565b60006104796105406108bc565b8461050085600160006105516108bc565b6001600160a01b03908116825260208083019390935260409182016000908120918c168152925290205490610b9e565b6001600160a01b031660009081526020819052604090205490565b6006546001600160a01b031633146105ef576040805162461bcd60e51b815260206004820152601160248201527011549497d050d0d154d4d7d11153925151607a1b604482015290519081900360640190fd5b6006546005546040516001600160a01b0392831692610100909204909116907f343765429aea5a34b3ff6a3785a98a5abb2597aca87bfbb58632c173d585373a90600090a36006805460058054610100600160a81b0319166101006001600160a01b038416021790556001600160a01b0319169055565b61066e610bff565b8161067881610c59565b8261068281610cad565b61068c8484610d01565b6040805184815290517f9386c90217c323f58030f9dadcbc938f807a940f4ff41cd4cead9562f5da7dc39181900360200190a150505050565b60055461010090046001600160a01b031681565b60048054604080516020601f600260001961010060018816150201909516949094049384018190048102820181019092528281526060939092909183018282801561045b5780601f106104305761010080835404028352916020019161045b565b610742610bff565b61074c8282610df1565b6040805182815290517f9a1b418bc061a5d80270261562e6986a35d995f8051145f277be16103abd34539181900360200190a15050565b60006104796107906108bc565b846105008560405180606001604052806025815260200161106f60259139600160006107ba6108bc565b6001600160a01b03908116825260208083019390935260409182016000908120918d16815292529020549190610b07565b60006104796107f86108bc565b84846109ac565b6006546001600160a01b031681565b6001600160a01b03918216600090815260016020908152604080832093909416825291909152205490565b610841610bff565b6005546001600160a01b0382811661010090920416141561089a576040805162461bcd60e51b815260206004820152600e60248201526d22a9292fa9a0a6a2afa7aba722a960911b604482015290519081900360640190fd5b600680546001600160a01b0319166001600160a01b0392909216919091179055565b3390565b6001600160a01b0383166109055760405162461bcd60e51b815260040180806020018281038252602481526020018061104b6024913960400191505060405180910390fd5b6001600160a01b03821661094a5760405162461bcd60e51b8152600401808060200182810382526022815260200180610f956022913960400191505060405180910390fd5b6001600160a01b03808416600081815260016020908152604080832094871680845294825291829020859055815185815291517f8c5be1e5ebec7d5bd14f71427d1e84f3dd0314c0f7b2291e5b200ac8c7c3b9259281900390910190a3505050565b6001600160a01b0383166109f15760405162461bcd60e51b81526004018080602001828103825260258152602001806110266025913960400191505060405180910390fd5b6001600160a01b038216610a365760405162461bcd60e51b8152600401808060200182810382526023815260200180610f506023913960400191505060405180910390fd5b610a41838383610eed565b610a7e81604051806060016040528060268152602001610fb7602691396001600160a01b0386166000908152602081905260409020549190610b07565b6001600160a01b038085166000908152602081905260408082209390935590841681522054610aad9082610b9e565b6001600160a01b038084166000818152602081815260409182902094909455805185815290519193928716927fddf252ad1be2c89b69c2b068fc378daa952ba7f163c4a11628f55a4df523b3ef92918290030190a3505050565b60008184841115610b965760405162461bcd60e51b81526004018080602001828103825283818151815260200191508051906020019080838360005b83811015610b5b578181015183820152602001610b43565b50505050905090810190601f168015610b885780820380516001836020036101000a031916815260200191505b509250505060405180910390fd5b505050900390565b600082820183811015610bf8576040805162461bcd60e51b815260206004820152601b60248201527f536166654d6174683a206164646974696f6e206f766572666c6f770000000000604482015290519081900360640190fd5b9392505050565b60055461010090046001600160a01b03163314610c57576040805162461bcd60e51b815260206004820152601160248201527011549497d050d0d154d4d7d11153925151607a1b604482015290519081900360640190fd5b565b6001600160a01b038116610caa576040805162461bcd60e51b81526020600482015260136024820152724552525f494e56414c49445f4144445245535360681b604482015290519081900360640190fd5b50565b6001600160a01b038116301415610caa576040805162461bcd60e51b815260206004820152601360248201527222a9292fa0a2222922a9a9afa4a9afa9a2a62360691b604482015290519081900360640190fd5b6001600160a01b038216610d5c576040805162461bcd60e51b815260206004820152601f60248201527f45524332303a206d696e7420746f20746865207a65726f206164647265737300604482015290519081900360640190fd5b610d6860008383610eed565b600254610d759082610b9e565b6002556001600160a01b038216600090815260208190526040902054610d9b9082610b9e565b6001600160a01b0383166000818152602081815260408083209490945583518581529351929391927fddf252ad1be2c89b69c2b068fc378daa952ba7f163c4a11628f55a4df523b3ef9281900390910190a35050565b6001600160a01b038216610e365760405162461bcd60e51b81526004018080602001828103825260218152602001806110056021913960400191505060405180910390fd5b610e4282600083610eed565b610e7f81604051806060016040528060228152602001610f73602291396001600160a01b0385166000908152602081905260409020549190610b07565b6001600160a01b038316600090815260208190526040902055600254610ea59082610ef2565b6002556040805182815290516000916001600160a01b038516917fddf252ad1be2c89b69c2b068fc378daa952ba7f163c4a11628f55a4df523b3ef9181900360200190a35050565b505050565b600082821115610f49576040805162461bcd60e51b815260206004820152601e60248201527f536166654d6174683a207375627472616374696f6e206f766572666c6f770000604482015290519081900360640190fd5b5090039056fe45524332303a207472616e7366657220746f20746865207a65726f206164647265737345524332303a206275726e20616d6f756e7420657863656564732062616c616e636545524332303a20617070726f766520746f20746865207a65726f206164647265737345524332303a207472616e7366657220616d6f756e7420657863656564732062616c616e636545524332303a207472616e7366657220616d6f756e74206578636565647320616c6c6f77616e636545524332303a206275726e2066726f6d20746865207a65726f206164647265737345524332303a207472616e736665722066726f6d20746865207a65726f206164647265737345524332303a20617070726f76652066726f6d20746865207a65726f206164647265737345524332303a2064656372656173656420616c6c6f77616e63652062656c6f77207a65726fa2646970667358221220ef9496cac46f41b497353922bba2f8ecb27fa0180db2cd6b1dd55b8619e432cc64736f6c634300060c0033a2646970667358221220a46f2122eef040fd6caf7668708af02d9dcd8e70480fcdd274a84b75d1c92afa64736f6c634300060c0033",
  "immutableReferences": {},
  "source": "// SPDX-License-Identifier: SEE LICENSE IN LICENSE\npragma solidity 0.6.12;\nimport \"./interfaces/IConverter.sol\";\nimport \"./interfaces/IConverterFactory.sol\";\nimport \"./interfaces/ITypedConverterFactory.sol\";\nimport \"./interfaces/ITypedConverterAnchorFactory.sol\";\nimport \"./interfaces/ITypedConverterCustomFactory.sol\";\nimport \"../utility/Owned.sol\";\nimport \"../utility/interfaces/IContractRegistry.sol\";\nimport \"../token/DSToken.sol\";\n\n/*\n    Converter Factory\n*/\ncontract ConverterFactory is IConverterFactory, Owned {\n    /**\n     * @dev triggered when a new converter is created\n     *\n     * @param _type        converter type, see ConverterBase contract main doc\n     * @param _converter   new converter address\n     * @param _owner       converter owner address\n     */\n    event NewConverter(uint16 indexed _type, IConverter indexed _converter, address indexed _owner);\n\n    mapping(uint16 => ITypedConverterFactory) public converterFactories;\n    mapping(uint16 => ITypedConverterAnchorFactory) public anchorFactories;\n    mapping(uint16 => ITypedConverterCustomFactory) public override customFactories;\n\n    /**\n     * @dev initializes the factory with a specific typed converter factory\n     * can only be called by the owner\n     *\n     * @param _factory typed converter factory\n     */\n    function registerTypedConverterFactory(ITypedConverterFactory _factory) public ownerOnly {\n        converterFactories[_factory.converterType()] = _factory;\n    }\n\n    /**\n     * @dev initializes the factory with a specific typed converter anchor factory\n     * can only be called by the owner\n     *\n     * @param _factory typed converter anchor factory\n     */\n    function registerTypedConverterAnchorFactory(ITypedConverterAnchorFactory _factory) public ownerOnly {\n        anchorFactories[_factory.converterType()] = _factory;\n    }\n\n    /**\n     * @dev initializes the factory with a specific typed converter custom factory\n     * can only be called by the owner\n     *\n     * @param _factory typed converter custom factory\n     */\n    function registerTypedConverterCustomFactory(ITypedConverterCustomFactory _factory) public ownerOnly {\n        customFactories[_factory.converterType()] = _factory;\n    }\n\n    /**\n     * @dev creates a new converter anchor with the given arguments and transfers\n     * the ownership to the caller\n     *\n     * @param _converterType   converter type, see ConverterBase contract main doc\n     * @param _name            name\n     * @param _symbol          symbol\n     * @param _decimals        decimals\n     *\n     * @return new converter anchor\n     */\n    function createAnchor(\n        uint16 _converterType,\n        string memory _name,\n        string memory _symbol,\n        uint8 _decimals\n    ) public virtual override returns (IConverterAnchor) {\n        IConverterAnchor anchor;\n        ITypedConverterAnchorFactory factory = anchorFactories[_converterType];\n\n        if (address(factory) == address(0)) {\n            // create default anchor (DSToken)\n            anchor = new DSToken(_name, _symbol, _decimals);\n        } else {\n            // create custom anchor\n            anchor = factory.createAnchor(_name, _symbol, _decimals);\n            anchor.acceptOwnership();\n        }\n\n        anchor.transferOwnership(msg.sender);\n        return anchor;\n    }\n\n    /**\n     * @dev creates a new converter with the given arguments and transfers\n     * the ownership to the caller\n     *\n     * @param _type              converter type, see ConverterBase contract main doc\n     * @param _anchor            anchor governed by the converter\n     * @param _registry          address of a contract registry contract\n     * @param _maxConversionFee  maximum conversion fee, represented in ppm\n     *\n     * @return new converter\n     */\n    function createConverter(\n        uint16 _type,\n        IConverterAnchor _anchor,\n        IContractRegistry _registry,\n        uint32 _maxConversionFee\n    ) public virtual override returns (IConverter) {\n        IConverter converter = converterFactories[_type].createConverter(_anchor, _registry, _maxConversionFee);\n        converter.acceptOwnership();\n        converter.transferOwnership(msg.sender);\n\n        emit NewConverter(_type, converter, msg.sender);\n        return converter;\n    }\n}\n",
  "sourcePath": "/Users/dennismacpro/Projects/Defi/Ethereum-Solidity-Collection/icarus-protocol/defi-seeder/.tmp/bancor/contracts-solidity/solidity/contracts/converter/ConverterFactory.sol",
  "compiler": {
    "name": "solc",
    "version": "0.6.12+commit.27d51765.Emscripten.clang"
  },
  "schemaVersion": "3.3.3",
  "updatedAt": "2021-04-01T18:17:51.915Z",
  "devdoc": {
    "events": {
      "NewConverter(uint16,address,address)": {
        "details": "triggered when a new converter is created",
        "params": {
          "_converter": "new converter address",
          "_owner": "converter owner address",
          "_type": "converter type, see ConverterBase contract main doc"
        }
      }
    },
    "kind": "dev",
    "methods": {
      "acceptOwnership()": {
        "details": "used by a new owner to accept an ownership transfer"
      },
      "createAnchor(uint16,string,string,uint8)": {
        "details": "creates a new converter anchor with the given arguments and transfers the ownership to the caller",
        "params": {
          "_converterType": "converter type, see ConverterBase contract main doc",
          "_decimals": "decimals",
          "_name": "name",
          "_symbol": "symbol"
        },
        "returns": {
          "_0": "new converter anchor"
        }
      },
      "createConverter(uint16,address,address,uint32)": {
        "details": "creates a new converter with the given arguments and transfers the ownership to the caller",
        "params": {
          "_anchor": "anchor governed by the converter",
          "_maxConversionFee": "maximum conversion fee, represented in ppm",
          "_registry": "address of a contract registry contract",
          "_type": "converter type, see ConverterBase contract main doc"
        },
        "returns": {
          "_0": "new converter"
        }
      },
      "registerTypedConverterAnchorFactory(address)": {
        "details": "initializes the factory with a specific typed converter anchor factory can only be called by the owner",
        "params": {
          "_factory": "typed converter anchor factory"
        }
      },
      "registerTypedConverterCustomFactory(address)": {
        "details": "initializes the factory with a specific typed converter custom factory can only be called by the owner",
        "params": {
          "_factory": "typed converter custom factory"
        }
      },
      "registerTypedConverterFactory(address)": {
        "details": "initializes the factory with a specific typed converter factory can only be called by the owner",
        "params": {
          "_factory": "typed converter factory"
        }
      },
      "transferOwnership(address)": {
        "details": "allows transferring the contract ownership the new owner still needs to accept the transfer can only be called by the contract owner",
        "params": {
          "_newOwner": "new contract owner"
        }
      }
    },
    "version": 1
  },
  "userdoc": {
    "kind": "user",
    "methods": {},
    "version": 1
  }
}