{
  "contractName": "ConversionPathFinder",
  "abi": [
    {
      "inputs": [
        {
          "internalType": "contract IContractRegistry",
          "name": "_registry",
          "type": "address"
        }
      ],
      "stateMutability": "nonpayable",
      "type": "constructor"
    },
    {
      "anonymous": false,
      "inputs": [
        {
          "indexed": true,
          "internalType": "address",
          "name": "_prevOwner",
          "type": "address"
        },
        {
          "indexed": true,
          "internalType": "address",
          "name": "_newOwner",
          "type": "address"
        }
      ],
      "name": "OwnerUpdate",
      "type": "event"
    },
    {
      "inputs": [],
      "name": "acceptOwnership",
      "outputs": [],
      "stateMutability": "nonpayable",
      "type": "function"
    },
    {
      "inputs": [],
      "name": "anchorToken",
      "outputs": [
        {
          "internalType": "contract IERC20",
          "name": "",
          "type": "address"
        }
      ],
      "stateMutability": "view",
      "type": "function"
    },
    {
      "inputs": [],
      "name": "newOwner",
      "outputs": [
        {
          "internalType": "address",
          "name": "",
          "type": "address"
        }
      ],
      "stateMutability": "view",
      "type": "function"
    },
    {
      "inputs": [],
      "name": "onlyOwnerCanUpdateRegistry",
      "outputs": [
        {
          "internalType": "bool",
          "name": "",
          "type": "bool"
        }
      ],
      "stateMutability": "view",
      "type": "function"
    },
    {
      "inputs": [],
      "name": "owner",
      "outputs": [
        {
          "internalType": "address",
          "name": "",
          "type": "address"
        }
      ],
      "stateMutability": "view",
      "type": "function"
    },
    {
      "inputs": [],
      "name": "prevRegistry",
      "outputs": [
        {
          "internalType": "contract IContractRegistry",
          "name": "",
          "type": "address"
        }
      ],
      "stateMutability": "view",
      "type": "function"
    },
    {
      "inputs": [],
      "name": "registry",
      "outputs": [
        {
          "internalType": "contract IContractRegistry",
          "name": "",
          "type": "address"
        }
      ],
      "stateMutability": "view",
      "type": "function"
    },
    {
      "inputs": [],
      "name": "restoreRegistry",
      "outputs": [],
      "stateMutability": "nonpayable",
      "type": "function"
    },
    {
      "inputs": [
        {
          "internalType": "bool",
          "name": "_onlyOwnerCanUpdateRegistry",
          "type": "bool"
        }
      ],
      "name": "restrictRegistryUpdate",
      "outputs": [],
      "stateMutability": "nonpayable",
      "type": "function"
    },
    {
      "inputs": [
        {
          "internalType": "address",
          "name": "_newOwner",
          "type": "address"
        }
      ],
      "name": "transferOwnership",
      "outputs": [],
      "stateMutability": "nonpayable",
      "type": "function"
    },
    {
      "inputs": [],
      "name": "updateRegistry",
      "outputs": [],
      "stateMutability": "nonpayable",
      "type": "function"
    },
    {
      "inputs": [
        {
          "internalType": "contract IERC20",
          "name": "_anchorToken",
          "type": "address"
        }
      ],
      "name": "setAnchorToken",
      "outputs": [],
      "stateMutability": "nonpayable",
      "type": "function"
    },
    {
      "inputs": [
        {
          "internalType": "contract IERC20",
          "name": "_sourceToken",
          "type": "address"
        },
        {
          "internalType": "contract IERC20",
          "name": "_targetToken",
          "type": "address"
        }
      ],
      "name": "findPath",
      "outputs": [
        {
          "internalType": "address[]",
          "name": "",
          "type": "address[]"
        }
      ],
      "stateMutability": "view",
      "type": "function"
    }
  ],
  "bytecode": "0x608060405234801561001057600080fd5b506040516110a73803806110a78339818101604052602081101561003357600080fd5b5051600080546001600160a01b03191633179055808061005281610083565b50600280546001600160a01b039092166001600160a01b0319928316811790915560038054909216179055506100e1565b6001600160a01b0381166100de576040805162461bcd60e51b815260206004820152601360248201527f4552525f494e56414c49445f4144445245535300000000000000000000000000604482015290519081900360640190fd5b50565b610fb7806100f06000396000f3fe608060405234801561001057600080fd5b50600436106100cf5760003560e01c80637b1039991161008c578063b4a176d311610066578063b4a176d3146101f9578063d4ee1d9014610201578063e1c4c96614610209578063f2fde38b14610211576100cf565b80637b1039991461016b5780638da5cb5b14610173578063a1c421cd1461017b576100cf565b8063024c7ec7146100d45780632f167f05146100f55780632fe8a6ad1461011b57806349d10b641461013757806361cd756e1461013f57806379ba509714610163575b600080fd5b6100f3600480360360208110156100ea57600080fd5b50351515610237565b005b6100f36004803603602081101561010b57600080fd5b50356001600160a01b031661025d565b610123610287565b604080519115158252519081900360200190f35b6100f3610297565b61014761049f565b604080516001600160a01b039092168252519081900360200190f35b6100f36104ae565b610147610565565b610147610574565b6101a96004803603604081101561019157600080fd5b506001600160a01b0381358116916020013516610583565b60408051602080825283518183015283519192839290830191858101910280838360005b838110156101e55781810151838201526020016101cd565b505050509050019250505060405180910390f35b6100f36105e4565b610147610610565b61014761061f565b6100f36004803603602081101561022757600080fd5b50356001600160a01b031661062e565b61023f6106ac565b60038054911515600160a01b0260ff60a01b19909216919091179055565b6102656106ac565b600480546001600160a01b0319166001600160a01b0392909216919091179055565b600354600160a01b900460ff1681565b6000546001600160a01b03163314806102ba5750600354600160a01b900460ff16155b6102ff576040805162461bcd60e51b815260206004820152601160248201527011549497d050d0d154d4d7d11153925151607a1b604482015290519081900360640190fd5b600061031d6f436f6e7472616374526567697374727960801b610701565b6002549091506001600160a01b0380831691161480159061034657506001600160a01b03811615155b61038e576040805162461bcd60e51b81526020600482015260146024820152734552525f494e56414c49445f524547495354525960601b604482015290519081900360640190fd5b60006001600160a01b0316816001600160a01b031663bb34534c6f436f6e7472616374526567697374727960801b6040518263ffffffff1660e01b81526004018082815260200191505060206040518083038186803b1580156103f057600080fd5b505afa158015610404573d6000803e3d6000fd5b505050506040513d602081101561041a57600080fd5b50516001600160a01b0316141561046f576040805162461bcd60e51b81526020600482015260146024820152734552525f494e56414c49445f524547495354525960601b604482015290519081900360640190fd5b60028054600380546001600160a01b038084166001600160a01b0319928316179092559091169216919091179055565b6003546001600160a01b031681565b6001546001600160a01b03163314610501576040805162461bcd60e51b815260206004820152601160248201527011549497d050d0d154d4d7d11153925151607a1b604482015290519081900360640190fd5b600154600080546040516001600160a01b0393841693909116917f343765429aea5a34b3ff6a3785a98a5abb2597aca87bfbb58632c173d585373a91a360018054600080546001600160a01b03199081166001600160a01b03841617909155169055565b6002546001600160a01b031681565b6000546001600160a01b031681565b606060006105b07f42616e636f72436f6e7665727465725265676973747279000000000000000000610701565b905060606105be858361077f565b905060606105cc858461077f565b90506105d88282610b55565b93505050505b92915050565b6105ec6106ac565b600354600280546001600160a01b0319166001600160a01b03909216919091179055565b6001546001600160a01b031681565b6004546001600160a01b031681565b6106366106ac565b6000546001600160a01b038281169116141561068a576040805162461bcd60e51b815260206004820152600e60248201526d22a9292fa9a0a6a2afa7aba722a960911b604482015290519081900360640190fd5b600180546001600160a01b0319166001600160a01b0392909216919091179055565b6000546001600160a01b031633146106ff576040805162461bcd60e51b815260206004820152601160248201527011549497d050d0d154d4d7d11153925151607a1b604482015290519081900360640190fd5b565b60025460408051632ecd14d360e21b81526004810184905290516000926001600160a01b03169163bb34534c916024808301926020929190829003018186803b15801561074d57600080fd5b505afa158015610761573d6000803e3d6000fd5b505050506040513d602081101561077757600080fd5b505192915050565b6004546060906001600160a01b03848116911614156107a8576107a183610da7565b90506105de565b6060826001600160a01b031663d8cced2a856040518263ffffffff1660e01b815260040180826001600160a01b0316815260200191505060206040518083038186803b1580156107f757600080fd5b505afa15801561080b573d6000803e3d6000fd5b505050506040513d602081101561082157600080fd5b5051156108385761083184610da7565b9050610951565b826001600160a01b03166311839064856040518263ffffffff1660e01b815260040180826001600160a01b0316815260200191505060006040518083038186803b15801561088557600080fd5b505afa158015610899573d6000803e3d6000fd5b505050506040513d6000823e601f3d908101601f1916820160405260208110156108c257600080fd5b81019080805160405193929190846401000000008211156108e257600080fd5b9083019060208201858111156108f757600080fd5b825186602082028301116401000000008211171561091457600080fd5b82525081516020918201928201910280838360005b83811015610941578181015183820152602001610929565b5050505090500160405250505090505b60005b8151811015610b3957600082828151811061096b57fe5b60200260200101516001600160a01b0316638da5cb5b6040518163ffffffff1660e01b815260040160206040518083038186803b1580156109ab57600080fd5b505afa1580156109bf573d6000803e3d6000fd5b505050506040513d60208110156109d557600080fd5b5051604080516371f52bf360e01b815290519192506000916001600160a01b038416916371f52bf3916004808301926020929190829003018186803b158015610a1d57600080fd5b505afa158015610a31573d6000803e3d6000fd5b505050506040513d6020811015610a4757600080fd5b505161ffff16905060005b81811015610b2e576000836001600160a01b03166319b64015836040518263ffffffff1660e01b81526004018082815260200191505060206040518083038186803b158015610aa057600080fd5b505afa158015610ab4573d6000803e3d6000fd5b505050506040513d6020811015610aca57600080fd5b505190506001600160a01b03808216908a1614610b25576060610aed828a61077f565b805190915015610b2357610b158a888881518110610b0757fe5b602002602001015183610df9565b9750505050505050506105de565b505b50600101610a52565b505050600101610954565b5060408051600080825260208201909252905b50949350505050565b606060008351118015610b69575060008251115b15610d8d57825182515b600082118015610b835750600081115b8015610bcc5750836001820381518110610b9957fe5b60200260200101516001600160a01b0316856001840381518110610bb957fe5b60200260200101516001600160a01b0316145b15610bde576000199182019101610b73565b606081830160010167ffffffffffffffff81118015610bfc57600080fd5b50604051908082528060200260200182016040528015610c26578160200160208202803683370190505b50905060005b838111610c7357868181518110610c3f57fe5b6020026020010151828281518110610c5357fe5b6001600160a01b0390921660209283029190910190910152600101610c2c565b50815b8015610cc357856001820381518110610c8b57fe5b6020026020010151828284510381518110610ca257fe5b6001600160a01b039092166020928302919091019091015260001901610c76565b506000805b8251811015610d7757600281015b60028206845103811015610d3057838181518110610cf057fe5b60200260200101516001600160a01b0316848381518110610d0d57fe5b60200260200101516001600160a01b03161415610d28578091505b600201610cd6565b50828181518110610d3d57fe5b6020026020010151838380600101945081518110610d5757fe5b6001600160a01b0390921660209283029190910190910152600101610cc8565b50610d828282610eef565b9450505050506105de565b60408051600080825260208201909252905b509392505050565b604080516001808252818301909252606091829190602080830190803683370190505090508281600081518110610dda57fe5b6001600160a01b03909216602092830291909101909101529050919050565b606080825160020167ffffffffffffffff81118015610e1757600080fd5b50604051908082528060200260200182016040528015610e41578160200160208202803683370190505b5090508481600081518110610e5257fe5b60200260200101906001600160a01b031690816001600160a01b0316815250508381600181518110610e8057fe5b60200260200101906001600160a01b031690816001600160a01b03168152505060005b8351811015610b4c57838181518110610eb857fe5b6020026020010151828260020181518110610ecf57fe5b6001600160a01b0390921660209283029190910190910152600101610ea3565b6060808267ffffffffffffffff81118015610f0957600080fd5b50604051908082528060200260200182016040528015610f33578160200160208202803683370190505b50905060005b83811015610d9f57848181518110610f4d57fe5b6020026020010151828281518110610f6157fe5b6001600160a01b0390921660209283029190910190910152600101610f3956fea2646970667358221220bf83dc32df02c088feda2093f28482fedd5d166f6a843fb11509a1251f618f3864736f6c634300060c0033",
  "immutableReferences": {},
  "source": "// SPDX-License-Identifier: SEE LICENSE IN LICENSE\npragma solidity 0.6.12;\nimport \"./IConversionPathFinder.sol\";\nimport \"./utility/ContractRegistryClient.sol\";\nimport \"./converter/interfaces/IConverter.sol\";\nimport \"./converter/interfaces/IConverterAnchor.sol\";\nimport \"./converter/interfaces/IConverterRegistry.sol\";\n\n/**\n * @dev This contract allows generating a conversion path between any token pair in the Bancor Network.\n * The path can then be used in various functions in the BancorNetwork contract.\n *\n * See the BancorNetwork contract for conversion path format.\n */\ncontract ConversionPathFinder is IConversionPathFinder, ContractRegistryClient {\n    IERC20 public anchorToken;\n\n    /**\n     * @dev initializes a new ConversionPathFinder instance\n     *\n     * @param _registry address of a contract registry contract\n     */\n    constructor(IContractRegistry _registry) public ContractRegistryClient(_registry) {}\n\n    /**\n     * @dev updates the anchor token\n     *\n     * @param _anchorToken address of the anchor token\n     */\n    function setAnchorToken(IERC20 _anchorToken) public ownerOnly {\n        anchorToken = _anchorToken;\n    }\n\n    /**\n     * @dev generates a conversion path between a given pair of tokens in the Bancor Network\n     *\n     * @param _sourceToken address of the source token\n     * @param _targetToken address of the target token\n     *\n     * @return a path from the source token to the target token\n     */\n    function findPath(IERC20 _sourceToken, IERC20 _targetToken) external view override returns (address[] memory) {\n        IConverterRegistry converterRegistry = IConverterRegistry(addressOf(CONVERTER_REGISTRY));\n        address[] memory sourcePath = getPath(_sourceToken, converterRegistry);\n        address[] memory targetPath = getPath(_targetToken, converterRegistry);\n        return getShortestPath(sourcePath, targetPath);\n    }\n\n    /**\n     * @dev generates a conversion path between a given token and the anchor token\n     *\n     * @param _token               address of the token\n     * @param _converterRegistry   address of the converter registry\n     *\n     * @return a path from the input token to the anchor token\n     */\n    function getPath(IERC20 _token, IConverterRegistry _converterRegistry) private view returns (address[] memory) {\n        if (_token == anchorToken) return getInitialArray(address(_token));\n\n        address[] memory anchors;\n        if (_converterRegistry.isAnchor(address(_token))) anchors = getInitialArray(address(_token));\n        else anchors = _converterRegistry.getConvertibleTokenAnchors(_token);\n\n        for (uint256 n = 0; n < anchors.length; n++) {\n            IConverter converter = IConverter(payable(IConverterAnchor(anchors[n]).owner()));\n            uint256 connectorTokenCount = converter.connectorTokenCount();\n            for (uint256 i = 0; i < connectorTokenCount; i++) {\n                IERC20 connectorToken = converter.connectorTokens(i);\n                if (connectorToken != _token) {\n                    address[] memory path = getPath(connectorToken, _converterRegistry);\n                    if (path.length > 0) return getExtendedArray(address(_token), anchors[n], path);\n                }\n            }\n        }\n\n        return new address[](0);\n    }\n\n    /**\n     * @dev merges two paths with a common suffix into one\n     *\n     * @param _sourcePath address of the source path\n     * @param _targetPath address of the target path\n     *\n     * @return merged path\n     */\n    function getShortestPath(address[] memory _sourcePath, address[] memory _targetPath)\n        private\n        pure\n        returns (address[] memory)\n    {\n        if (_sourcePath.length > 0 && _targetPath.length > 0) {\n            uint256 i = _sourcePath.length;\n            uint256 j = _targetPath.length;\n            while (i > 0 && j > 0 && _sourcePath[i - 1] == _targetPath[j - 1]) {\n                i--;\n                j--;\n            }\n\n            address[] memory path = new address[](i + j + 1);\n            for (uint256 m = 0; m <= i; m++) path[m] = _sourcePath[m];\n            for (uint256 n = j; n > 0; n--) path[path.length - n] = _targetPath[n - 1];\n\n            uint256 length = 0;\n            for (uint256 p = 0; p < path.length; p += 1) {\n                for (uint256 q = p + 2; q < path.length - (p % 2); q += 2) {\n                    if (path[p] == path[q]) p = q;\n                }\n                path[length++] = path[p];\n            }\n\n            return getPartialArray(path, length);\n        }\n\n        return new address[](0);\n    }\n\n    /**\n     * @dev creates a new array containing a single item\n     *\n     * @param _item item\n     *\n     * @return initial array\n     */\n    function getInitialArray(address _item) private pure returns (address[] memory) {\n        address[] memory array = new address[](1);\n        array[0] = _item;\n        return array;\n    }\n\n    /**\n     * @dev prepends two items to the beginning of an array\n     *\n     * @param _item0 first item\n     * @param _item1 second item\n     * @param _array initial array\n     *\n     * @return extended array\n     */\n    function getExtendedArray(\n        address _item0,\n        address _item1,\n        address[] memory _array\n    ) private pure returns (address[] memory) {\n        address[] memory array = new address[](2 + _array.length);\n        array[0] = _item0;\n        array[1] = _item1;\n        for (uint256 i = 0; i < _array.length; i++) array[2 + i] = _array[i];\n        return array;\n    }\n\n    /**\n     * @dev extracts the prefix of a given array\n     *\n     * @param _array given array\n     * @param _length prefix length\n     *\n     * @return partial array\n     */\n    function getPartialArray(address[] memory _array, uint256 _length) private pure returns (address[] memory) {\n        address[] memory array = new address[](_length);\n        for (uint256 i = 0; i < _length; i++) array[i] = _array[i];\n        return array;\n    }\n}\n",
  "sourcePath": "/Users/dennismacpro/Projects/Defi/Ethereum-Solidity-Collection/icarus-protocol/defi-seeder/.tmp/bancor/contracts-solidity/solidity/contracts/ConversionPathFinder.sol",
  "compiler": {
    "name": "solc",
    "version": "0.6.12+commit.27d51765.Emscripten.clang"
  },
  "schemaVersion": "3.3.3",
  "updatedAt": "2021-04-01T18:17:51.832Z",
  "devdoc": {
    "details": "This contract allows generating a conversion path between any token pair in the Bancor Network. The path can then be used in various functions in the BancorNetwork contract. See the BancorNetwork contract for conversion path format.",
    "kind": "dev",
    "methods": {
      "acceptOwnership()": {
        "details": "used by a new owner to accept an ownership transfer"
      },
      "constructor": {
        "details": "initializes a new ConversionPathFinder instance",
        "params": {
          "_registry": "address of a contract registry contract"
        }
      },
      "findPath(address,address)": {
        "details": "generates a conversion path between a given pair of tokens in the Bancor Network",
        "params": {
          "_sourceToken": "address of the source token",
          "_targetToken": "address of the target token"
        },
        "returns": {
          "_0": "a path from the source token to the target token"
        }
      },
      "restoreRegistry()": {
        "details": "restores the previous contract-registry"
      },
      "restrictRegistryUpdate(bool)": {
        "details": "restricts the permission to update the contract-registry",
        "params": {
          "_onlyOwnerCanUpdateRegistry": "indicates whether or not permission is restricted to owner only"
        }
      },
      "setAnchorToken(address)": {
        "details": "updates the anchor token",
        "params": {
          "_anchorToken": "address of the anchor token"
        }
      },
      "transferOwnership(address)": {
        "details": "allows transferring the contract ownership the new owner still needs to accept the transfer can only be called by the contract owner",
        "params": {
          "_newOwner": "new contract owner"
        }
      },
      "updateRegistry()": {
        "details": "updates to the new contract-registry"
      }
    },
    "version": 1
  },
  "userdoc": {
    "kind": "user",
    "methods": {},
    "version": 1
  }
}