{
  "contractName": "ConverterUpgrader",
  "abi": [
    {
      "inputs": [
        {
          "internalType": "contract IContractRegistry",
          "name": "_registry",
          "type": "address"
        }
      ],
      "stateMutability": "nonpayable",
      "type": "constructor"
    },
    {
      "anonymous": false,
      "inputs": [
        {
          "indexed": true,
          "internalType": "contract IConverter",
          "name": "_converter",
          "type": "address"
        },
        {
          "indexed": true,
          "internalType": "address",
          "name": "_owner",
          "type": "address"
        }
      ],
      "name": "ConverterOwned",
      "type": "event"
    },
    {
      "anonymous": false,
      "inputs": [
        {
          "indexed": true,
          "internalType": "address",
          "name": "_oldConverter",
          "type": "address"
        },
        {
          "indexed": true,
          "internalType": "address",
          "name": "_newConverter",
          "type": "address"
        }
      ],
      "name": "ConverterUpgrade",
      "type": "event"
    },
    {
      "anonymous": false,
      "inputs": [
        {
          "indexed": true,
          "internalType": "address",
          "name": "_prevOwner",
          "type": "address"
        },
        {
          "indexed": true,
          "internalType": "address",
          "name": "_newOwner",
          "type": "address"
        }
      ],
      "name": "OwnerUpdate",
      "type": "event"
    },
    {
      "inputs": [],
      "name": "acceptOwnership",
      "outputs": [],
      "stateMutability": "nonpayable",
      "type": "function"
    },
    {
      "inputs": [],
      "name": "newOwner",
      "outputs": [
        {
          "internalType": "address",
          "name": "",
          "type": "address"
        }
      ],
      "stateMutability": "view",
      "type": "function"
    },
    {
      "inputs": [],
      "name": "onlyOwnerCanUpdateRegistry",
      "outputs": [
        {
          "internalType": "bool",
          "name": "",
          "type": "bool"
        }
      ],
      "stateMutability": "view",
      "type": "function"
    },
    {
      "inputs": [],
      "name": "owner",
      "outputs": [
        {
          "internalType": "address",
          "name": "",
          "type": "address"
        }
      ],
      "stateMutability": "view",
      "type": "function"
    },
    {
      "inputs": [],
      "name": "prevRegistry",
      "outputs": [
        {
          "internalType": "contract IContractRegistry",
          "name": "",
          "type": "address"
        }
      ],
      "stateMutability": "view",
      "type": "function"
    },
    {
      "inputs": [],
      "name": "registry",
      "outputs": [
        {
          "internalType": "contract IContractRegistry",
          "name": "",
          "type": "address"
        }
      ],
      "stateMutability": "view",
      "type": "function"
    },
    {
      "inputs": [],
      "name": "restoreRegistry",
      "outputs": [],
      "stateMutability": "nonpayable",
      "type": "function"
    },
    {
      "inputs": [
        {
          "internalType": "bool",
          "name": "_onlyOwnerCanUpdateRegistry",
          "type": "bool"
        }
      ],
      "name": "restrictRegistryUpdate",
      "outputs": [],
      "stateMutability": "nonpayable",
      "type": "function"
    },
    {
      "inputs": [
        {
          "internalType": "address",
          "name": "_newOwner",
          "type": "address"
        }
      ],
      "name": "transferOwnership",
      "outputs": [],
      "stateMutability": "nonpayable",
      "type": "function"
    },
    {
      "inputs": [],
      "name": "updateRegistry",
      "outputs": [],
      "stateMutability": "nonpayable",
      "type": "function"
    },
    {
      "inputs": [
        {
          "internalType": "uint16",
          "name": "_version",
          "type": "uint16"
        }
      ],
      "name": "upgrade",
      "outputs": [],
      "stateMutability": "nonpayable",
      "type": "function"
    },
    {
      "inputs": [
        {
          "internalType": "bytes32",
          "name": "_version",
          "type": "bytes32"
        }
      ],
      "name": "upgrade",
      "outputs": [],
      "stateMutability": "nonpayable",
      "type": "function"
    },
    {
      "inputs": [
        {
          "internalType": "contract IConverter",
          "name": "_converter",
          "type": "address"
        },
        {
          "internalType": "bytes32",
          "name": "_version",
          "type": "bytes32"
        }
      ],
      "name": "upgradeOld",
      "outputs": [],
      "stateMutability": "nonpayable",
      "type": "function"
    }
  ],
  "bytecode": "0x608060405234801561001057600080fd5b506040516118313803806118318339818101604052602081101561003357600080fd5b5051600080546001600160a01b03191633179055808061005281610083565b50600280546001600160a01b039092166001600160a01b0319928316811790915560038054909216179055506100e1565b6001600160a01b0381166100de576040805162461bcd60e51b815260206004820152601360248201527f4552525f494e56414c49445f4144445245535300000000000000000000000000604482015290519081900360640190fd5b50565b611741806100f06000396000f3fe608060405234801561001057600080fd5b50600436106100cf5760003560e01c80638da5cb5b1161008c578063bc444e1311610066578063bc444e131461017e578063d4ee1d901461019b578063f2cfed87146101a3578063f2fde38b146101cf576100cf565b80638da5cb5b1461014d57806390f58c9614610155578063b4a176d314610176576100cf565b8063024c7ec7146100d45780632fe8a6ad146100f557806349d10b641461011157806361cd756e1461011957806379ba50971461013d5780637b10399914610145575b600080fd5b6100f3600480360360208110156100ea57600080fd5b503515156101f5565b005b6100fd61021b565b604080519115158252519081900360200190f35b6100f361022b565b610121610433565b604080516001600160a01b039092168252519081900360200190f35b6100f3610442565b6101216104f9565b610121610508565b6100f36004803603602081101561016b57600080fd5b503561ffff16610517565b6100f3610528565b6100f36004803603602081101561019457600080fd5b5035610554565b61012161055e565b6100f3600480360360408110156101b957600080fd5b506001600160a01b03813516906020013561056d565b6100f3600480360360208110156101e557600080fd5b50356001600160a01b03166108c2565b6101fd610940565b60038054911515600160a01b0260ff60a01b19909216919091179055565b600354600160a01b900460ff1681565b6000546001600160a01b031633148061024e5750600354600160a01b900460ff16155b610293576040805162461bcd60e51b815260206004820152601160248201527011549497d050d0d154d4d7d11153925151607a1b604482015290519081900360640190fd5b60006102b16f436f6e7472616374526567697374727960801b610995565b6002549091506001600160a01b038083169116148015906102da57506001600160a01b03811615155b610322576040805162461bcd60e51b81526020600482015260146024820152734552525f494e56414c49445f524547495354525960601b604482015290519081900360640190fd5b60006001600160a01b0316816001600160a01b031663bb34534c6f436f6e7472616374526567697374727960801b6040518263ffffffff1660e01b81526004018082815260200191505060206040518083038186803b15801561038457600080fd5b505afa158015610398573d6000803e3d6000fd5b505050506040513d60208110156103ae57600080fd5b50516001600160a01b03161415610403576040805162461bcd60e51b81526020600482015260146024820152734552525f494e56414c49445f524547495354525960601b604482015290519081900360640190fd5b60028054600380546001600160a01b038084166001600160a01b0319928316179092559091169216919091179055565b6003546001600160a01b031681565b6001546001600160a01b03163314610495576040805162461bcd60e51b815260206004820152601160248201527011549497d050d0d154d4d7d11153925151607a1b604482015290519081900360640190fd5b600154600080546040516001600160a01b0393841693909116917f343765429aea5a34b3ff6a3785a98a5abb2597aca87bfbb58632c173d585373a91a360018054600080546001600160a01b03199081166001600160a01b03841617909155169055565b6002546001600160a01b031681565b6000546001600160a01b031681565b6105253361ffff831661056d565b50565b610530610940565b600354600280546001600160a01b0319166001600160a01b03909216919091179055565b610525338261056d565b6001546001600160a01b031681565b60008290506000816001600160a01b0316638da5cb5b6040518163ffffffff1660e01b815260040160206040518083038186803b1580156105ad57600080fd5b505afa1580156105c1573d6000803e3d6000fd5b505050506040513d60208110156105d757600080fd5b505190506105e482610a15565b60006105ef83610aa1565b90506105fb8382610fd5565b6106058382611277565b61060f838261134c565b6000836001600160a01b031663fc0c546a6040518163ffffffff1660e01b815260040160206040518083038186803b15801561064a57600080fd5b505afa15801561065e573d6000803e3d6000fd5b505050506040513d602081101561067457600080fd5b505160408051638da5cb5b60e01b815290519192506001600160a01b038087169290841691638da5cb5b916004808301926020929190829003018186803b1580156106be57600080fd5b505afa1580156106d2573d6000803e3d6000fd5b505050506040513d60208110156106e857600080fd5b50516001600160a01b031614156107b457836001600160a01b03166321e6b53d836040518263ffffffff1660e01b815260040180826001600160a01b03168152602001915050600060405180830381600087803b15801561074857600080fd5b505af115801561075c573d6000803e3d6000fd5b50505050816001600160a01b031663cdc91c696040518163ffffffff1660e01b8152600401600060405180830381600087803b15801561079b57600080fd5b505af11580156107af573d6000803e3d6000fd5b505050505b836001600160a01b031663f2fde38b846040518263ffffffff1660e01b815260040180826001600160a01b03168152602001915050600060405180830381600087803b15801561080357600080fd5b505af1158015610817573d6000803e3d6000fd5b50505050816001600160a01b031663f2fde38b846040518263ffffffff1660e01b815260040180826001600160a01b03168152602001915050600060405180830381600087803b15801561086a57600080fd5b505af115801561087e573d6000803e3d6000fd5b50506040516001600160a01b038086169350871691507f522b846327aea07106ec4d64ae4b6d6dea47689884dab650fd3a1f2e1d6a270190600090a3505050505050565b6108ca610940565b6000546001600160a01b038281169116141561091e576040805162461bcd60e51b815260206004820152600e60248201526d22a9292fa9a0a6a2afa7aba722a960911b604482015290519081900360640190fd5b600180546001600160a01b0319166001600160a01b0392909216919091179055565b6000546001600160a01b03163314610993576040805162461bcd60e51b815260206004820152601160248201527011549497d050d0d154d4d7d11153925151607a1b604482015290519081900360640190fd5b565b60025460408051632ecd14d360e21b81526004810184905290516000926001600160a01b03169163bb34534c916024808301926020929190829003018186803b1580156109e157600080fd5b505afa1580156109f5573d6000803e3d6000fd5b505050506040513d6020811015610a0b57600080fd5b505190505b919050565b806001600160a01b03166379ba50976040518163ffffffff1660e01b8152600401600060405180830381600087803b158015610a5057600080fd5b505af1158015610a64573d6000803e3d6000fd5b50506040513092506001600160a01b03841691507ff764604894fa993d4370a9cb28b81c11deb1aafdb2909156173ae3833dad807590600090a350565b600080826001600160a01b031663fc0c546a6040518163ffffffff1660e01b815260040160206040518083038186803b158015610add57600080fd5b505afa158015610af1573d6000803e3d6000fd5b505050506040513d6020811015610b0757600080fd5b5051604080516394c275ad60e01b815290519192506000916001600160a01b038616916394c275ad916004808301926020929190829003018186803b158015610b4f57600080fd5b505afa158015610b63573d6000803e3d6000fd5b505050506040513d6020811015610b7957600080fd5b5051604080516371f52bf360e01b815290519192506000916001600160a01b038716916371f52bf3916004808301926020929190829003018186803b158015610bc157600080fd5b505afa158015610bd5573d6000803e3d6000fd5b505050506040513d6020811015610beb57600080fd5b505190506000610bfa866115f4565b15610c6b57856001600160a01b0316633e8ff43f6040518163ffffffff1660e01b815260040160206040518083038186803b158015610c3857600080fd5b505afa158015610c4c573d6000803e3d6000fd5b505050506040513d6020811015610c6257600080fd5b50519050610c7c565b60018261ffff161115610c7c575060015b8061ffff166001148015610c9457508161ffff166002145b15610eb0576000866001600160a01b0316630e53aae9886001600160a01b03166319b6401560006040518263ffffffff1660e01b81526004018082815260200191505060206040518083038186803b158015610cef57600080fd5b505afa158015610d03573d6000803e3d6000fd5b505050506040513d6020811015610d1957600080fd5b5051604080516001600160e01b031960e085901b1681526001600160a01b0390921660048301525160248083019260a0929190829003018186803b158015610d6057600080fd5b505afa158015610d74573d6000803e3d6000fd5b505050506040513d60a0811015610d8a57600080fd5b50602090810151604080516319b6401560e01b81526001600482015290519193506000926001600160a01b038b1692630e53aae99284926319b6401592602480840193829003018186803b158015610de157600080fd5b505afa158015610df5573d6000803e3d6000fd5b505050506040513d6020811015610e0b57600080fd5b5051604080516001600160e01b031960e085901b1681526001600160a01b0390921660048301525160248083019260a0929190829003018186803b158015610e5257600080fd5b505afa158015610e66573d6000803e3d6000fd5b505050506040513d60a0811015610e7c57600080fd5b5060200151905063ffffffff82166207a120148015610ea3575063ffffffff81166207a120145b15610ead57600392505b50505b6000610ece6f436f6e766572746572466163746f727960801b610995565b60025460408051630afb25b560e11b815261ffff861660048201526001600160a01b038981166024830152928316604482015263ffffffff881660648201529051929350600092918416916315f64b6a9160848082019260209290919082900301818787803b158015610f4057600080fd5b505af1158015610f54573d6000803e3d6000fd5b505050506040513d6020811015610f6a57600080fd5b5051604080516379ba509760e01b815290519192506001600160a01b038316916379ba50979160048082019260009290919082900301818387803b158015610fb157600080fd5b505af1158015610fc5573d6000803e3d6000fd5b50929a9950505050505050505050565b6000826001600160a01b03166371f52bf36040518163ffffffff1660e01b815260040160206040518083038186803b15801561101057600080fd5b505afa158015611024573d6000803e3d6000fd5b505050506040513d602081101561103a57600080fd5b5051905060005b8161ffff168161ffff161015611271576000846001600160a01b03166319b64015836040518263ffffffff1660e01b8152600401808261ffff16815260200191505060206040518083038186803b15801561109b57600080fd5b505afa1580156110af573d6000803e3d6000fd5b505050506040513d60208110156110c557600080fd5b505160408051630e53aae960e01b81526001600160a01b038084166004830152915192935060009291881691630e53aae99160248082019260a092909190829003018186803b15801561111757600080fd5b505afa15801561112b573d6000803e3d6000fd5b505050506040513d60a081101561114157600080fd5b506020015190506001600160a01b03821673eeeeeeeeeeeeeeeeeeeeeeeeeeeeeeeeeeeeeeee14156111f15760408051631a9274b160e21b815273eeeeeeeeeeeeeeeeeeeeeeeeeeeeeeeeeeeeeeee600482015263ffffffff8316602482015290516001600160a01b03871691636a49d2c491604480830192600092919082900301818387803b1580156111d457600080fd5b505af11580156111e8573d6000803e3d6000fd5b50505050611267565b846001600160a01b0316636a49d2c483836040518363ffffffff1660e01b815260040180836001600160a01b031681526020018263ffffffff16815260200192505050600060405180830381600087803b15801561124e57600080fd5b505af1158015611262573d6000803e3d6000fd5b505050505b5050600101611041565b50505050565b6000826001600160a01b031663579cd3ca6040518163ffffffff1660e01b815260040160206040518083038186803b1580156112b257600080fd5b505afa1580156112c6573d6000803e3d6000fd5b505050506040513d60208110156112dc57600080fd5b50516040805163ecbca55d60e01b815263ffffffff8316600482015290519192506001600160a01b0384169163ecbca55d9160248082019260009290919082900301818387803b15801561132f57600080fd5b505af1158015611343573d6000803e3d6000fd5b50505050505050565b600080836001600160a01b03166371f52bf36040518163ffffffff1660e01b815260040160206040518083038186803b15801561138857600080fd5b505afa15801561139c573d6000803e3d6000fd5b505050506040513d60208110156113b257600080fd5b5051905060005b8161ffff168161ffff1610156115ed576000856001600160a01b03166319b64015836040518263ffffffff1660e01b8152600401808261ffff16815260200191505060206040518083038186803b15801561141357600080fd5b505afa158015611427573d6000803e3d6000fd5b505050506040513d602081101561143d57600080fd5b505190506001600160a01b03811673eeeeeeeeeeeeeeeeeeeeeeeeeeeeeeeeeeeeeeee14156114e3576001600160a01b03861631156114de57856001600160a01b031663690d8320866040518263ffffffff1660e01b815260040180826001600160a01b03168152602001915050600060405180830381600087803b1580156114c557600080fd5b505af11580156114d9573d6000803e3d6000fd5b505050505b6115e4565b604080516370a0823160e01b81526001600160a01b038881166004830152915183928316916370a08231916024808301926020929190829003018186803b15801561152d57600080fd5b505afa158015611541573d6000803e3d6000fd5b505050506040513d602081101561155757600080fd5b5051945084156115e257866001600160a01b0316635e35359e8288886040518463ffffffff1660e01b815260040180846001600160a01b03168152602001836001600160a01b031681526020018281526020019350505050600060405180830381600087803b1580156115c957600080fd5b505af11580156115dd573d6000803e3d6000fd5b505050505b505b506001016113b9565b5050505050565b60408051600481526024810182526020810180516001600160e01b031663349814a760e21b1781529151815160009384926060926001600160a01b03881692610fa0928792909182918083835b602083106116605780518252601f199092019160209182019101611641565b6001836020036101000a0380198251168184511680821785525050505050509050019150506000604051808303818686fa925050503d80600081146116c1576040519150601f19603f3d011682016040523d82523d6000602084013e6116c6565b606091505b50915091508180156116d9575080516020145b15611700578080602001905160208110156116f357600080fd5b50519350610a1092505050565b50600094935050505056fea26469706673582212207e335795888ff1d96f7237daa24d4b7eb15bcec0c26b0211bbf2c34371f46ecf64736f6c634300060c0033",
  "immutableReferences": {},
  "source": "// SPDX-License-Identifier: SEE LICENSE IN LICENSE\r\npragma solidity 0.6.12;\r\nimport \"./interfaces/IConverter.sol\";\r\nimport \"./interfaces/IConverterUpgrader.sol\";\r\nimport \"./interfaces/IConverterFactory.sol\";\r\nimport \"../utility/ContractRegistryClient.sol\";\r\n\r\n/**\r\n * @dev This contract contract allows upgrading an older converter contract (0.4 and up)\r\n * to the latest version.\r\n * To begin the upgrade process, simply execute the 'upgrade' function.\r\n * At the end of the process, the ownership of the newly upgraded converter will be transferred\r\n * back to the original owner and the original owner will need to execute the 'acceptOwnership' function.\r\n *\r\n * The address of the new converter is available in the ConverterUpgrade event.\r\n *\r\n * Note that for older converters that don't yet have the 'upgrade' function, ownership should first\r\n * be transferred manually to the ConverterUpgrader contract using the 'transferOwnership' function\r\n * and then the upgrader 'upgrade' function should be executed directly.\r\n */\r\ncontract ConverterUpgrader is IConverterUpgrader, ContractRegistryClient {\r\n    uint32 private constant PPM_RESOLUTION = 1000000;\r\n    IERC20 private constant ETH_RESERVE_ADDRESS = IERC20(0xEeeeeEeeeEeEeeEeEeEeeEEEeeeeEeeeeeeeEEeE);\r\n\r\n    /**\r\n     * @dev triggered when the contract accept a converter ownership\r\n     *\r\n     * @param _converter   converter address\r\n     * @param _owner       new owner - local upgrader address\r\n     */\r\n    event ConverterOwned(IConverter indexed _converter, address indexed _owner);\r\n\r\n    /**\r\n     * @dev triggered when the upgrading process is done\r\n     *\r\n     * @param _oldConverter    old converter address\r\n     * @param _newConverter    new converter address\r\n     */\r\n    event ConverterUpgrade(address indexed _oldConverter, address indexed _newConverter);\r\n\r\n    /**\r\n     * @dev initializes a new ConverterUpgrader instance\r\n     *\r\n     * @param _registry    address of a contract registry contract\r\n     */\r\n    constructor(IContractRegistry _registry) public ContractRegistryClient(_registry) {}\r\n\r\n    /**\r\n     * @dev upgrades an old converter to the latest version\r\n     * will throw if ownership wasn't transferred to the upgrader before calling this function.\r\n     * ownership of the new converter will be transferred back to the original owner.\r\n     * fires the ConverterUpgrade event upon success.\r\n     * can only be called by a converter\r\n     *\r\n     * @param _version old converter version\r\n     */\r\n    function upgrade(bytes32 _version) public override {\r\n        upgradeOld(IConverter(msg.sender), _version);\r\n    }\r\n\r\n    /**\r\n     * @dev upgrades an old converter to the latest version\r\n     * will throw if ownership wasn't transferred to the upgrader before calling this function.\r\n     * ownership of the new converter will be transferred back to the original owner.\r\n     * fires the ConverterUpgrade event upon success.\r\n     * can only be called by a converter\r\n     *\r\n     * @param _version old converter version\r\n     */\r\n    function upgrade(uint16 _version) public override {\r\n        upgradeOld(IConverter(msg.sender), bytes32(uint256(_version)));\r\n    }\r\n\r\n    /**\r\n     * @dev upgrades an old converter to the latest version\r\n     * will throw if ownership wasn't transferred to the upgrader before calling this function.\r\n     * ownership of the new converter will be transferred back to the original owner.\r\n     * fires the ConverterUpgrade event upon success.\r\n     *\r\n     * @param _converter   old converter contract address\r\n     * @param _version     old converter version\r\n     */\r\n    function upgradeOld(IConverter _converter, bytes32 _version) public {\r\n        _version; // suppress compilation warning\r\n        IConverter converter = IConverter(_converter);\r\n        address prevOwner = converter.owner();\r\n        acceptConverterOwnership(converter);\r\n        IConverter newConverter = createConverter(converter);\r\n        copyReserves(converter, newConverter);\r\n        copyConversionFee(converter, newConverter);\r\n        transferReserveBalances(converter, newConverter);\r\n        IConverterAnchor anchor = converter.token();\r\n\r\n        if (anchor.owner() == address(converter)) {\r\n            converter.transferTokenOwnership(address(newConverter));\r\n            newConverter.acceptAnchorOwnership();\r\n        }\r\n\r\n        converter.transferOwnership(prevOwner);\r\n        newConverter.transferOwnership(prevOwner);\r\n\r\n        emit ConverterUpgrade(address(converter), address(newConverter));\r\n    }\r\n\r\n    /**\r\n     * @dev the first step when upgrading a converter is to transfer the ownership to the local contract.\r\n     * the upgrader contract then needs to accept the ownership transfer before initiating\r\n     * the upgrade process.\r\n     * fires the ConverterOwned event upon success\r\n     *\r\n     * @param _oldConverter       converter to accept ownership of\r\n     */\r\n    function acceptConverterOwnership(IConverter _oldConverter) private {\r\n        _oldConverter.acceptOwnership();\r\n        emit ConverterOwned(_oldConverter, address(this));\r\n    }\r\n\r\n    /**\r\n     * @dev creates a new converter with same basic data as the original old converter\r\n     * the newly created converter will have no reserves at this step.\r\n     *\r\n     * @param _oldConverter    old converter contract address\r\n     *\r\n     * @return the new converter  new converter contract address\r\n     */\r\n    function createConverter(IConverter _oldConverter) private returns (IConverter) {\r\n        IConverterAnchor anchor = _oldConverter.token();\r\n        uint32 maxConversionFee = _oldConverter.maxConversionFee();\r\n        uint16 reserveTokenCount = _oldConverter.connectorTokenCount();\r\n\r\n        // determine new converter type\r\n        uint16 newType = 0;\r\n        // new converter - get the type from the converter itself\r\n        if (isV28OrHigherConverter(_oldConverter)) {\r\n            newType = _oldConverter.converterType();\r\n        } else if (reserveTokenCount > 1) {\r\n            // old converter - if it has 1 reserve token, the type is a liquid token, otherwise the type liquidity pool\r\n            newType = 1;\r\n        }\r\n\r\n        if (newType == 1 && reserveTokenCount == 2) {\r\n            (, uint32 weight0, , , ) = _oldConverter.connectors(_oldConverter.connectorTokens(0));\r\n            (, uint32 weight1, , , ) = _oldConverter.connectors(_oldConverter.connectorTokens(1));\r\n            if (weight0 == PPM_RESOLUTION / 2 && weight1 == PPM_RESOLUTION / 2) {\r\n                newType = 3;\r\n            }\r\n        }\r\n\r\n        IConverterFactory converterFactory = IConverterFactory(addressOf(CONVERTER_FACTORY));\r\n        IConverter converter = converterFactory.createConverter(newType, anchor, registry, maxConversionFee);\r\n\r\n        converter.acceptOwnership();\r\n        return converter;\r\n    }\r\n\r\n    /**\r\n     * @dev copies the reserves from the old converter to the new one.\r\n     * note that this will not work for an unlimited number of reserves due to block gas limit constraints.\r\n     *\r\n     * @param _oldConverter    old converter contract address\r\n     * @param _newConverter    new converter contract address\r\n     */\r\n    function copyReserves(IConverter _oldConverter, IConverter _newConverter) private {\r\n        uint16 reserveTokenCount = _oldConverter.connectorTokenCount();\r\n\r\n        for (uint16 i = 0; i < reserveTokenCount; i++) {\r\n            IERC20 reserveAddress = _oldConverter.connectorTokens(i);\r\n            (, uint32 weight, , , ) = _oldConverter.connectors(reserveAddress);\r\n\r\n            // Ether reserve\r\n            if (reserveAddress == ETH_RESERVE_ADDRESS) {\r\n                _newConverter.addReserve(ETH_RESERVE_ADDRESS, weight);\r\n            }\r\n            // ERC20 reserve token\r\n            else {\r\n                _newConverter.addReserve(reserveAddress, weight);\r\n            }\r\n        }\r\n    }\r\n\r\n    /**\r\n     * @dev copies the conversion fee from the old converter to the new one\r\n     *\r\n     * @param _oldConverter    old converter contract address\r\n     * @param _newConverter    new converter contract address\r\n     */\r\n    function copyConversionFee(IConverter _oldConverter, IConverter _newConverter) private {\r\n        uint32 conversionFee = _oldConverter.conversionFee();\r\n        _newConverter.setConversionFee(conversionFee);\r\n    }\r\n\r\n    /**\r\n     * @dev transfers the balance of each reserve in the old converter to the new one.\r\n     * note that the function assumes that the new converter already has the exact same number of\r\n     * also, this will not work for an unlimited number of reserves due to block gas limit constraints.\r\n     *\r\n     * @param _oldConverter    old converter contract address\r\n     * @param _newConverter    new converter contract address\r\n     */\r\n    function transferReserveBalances(IConverter _oldConverter, IConverter _newConverter) private {\r\n        uint256 reserveBalance;\r\n        uint16 reserveTokenCount = _oldConverter.connectorTokenCount();\r\n\r\n        for (uint16 i = 0; i < reserveTokenCount; i++) {\r\n            IERC20 reserveAddress = _oldConverter.connectorTokens(i);\r\n            // Ether reserve\r\n            if (reserveAddress == ETH_RESERVE_ADDRESS) {\r\n                if (address(_oldConverter).balance > 0) {\r\n                    _oldConverter.withdrawETH(address(_newConverter));\r\n                }\r\n            }\r\n            // ERC20 reserve token\r\n            else {\r\n                IERC20 connector = reserveAddress;\r\n                reserveBalance = connector.balanceOf(address(_oldConverter));\r\n                if (reserveBalance > 0) {\r\n                    _oldConverter.withdrawTokens(connector, address(_newConverter), reserveBalance);\r\n                }\r\n            }\r\n        }\r\n    }\r\n\r\n    bytes4 private constant IS_V28_OR_HIGHER_FUNC_SELECTOR = bytes4(keccak256(\"isV28OrHigher()\"));\r\n\r\n    // using a static call to identify converter version\r\n    // can't rely on the version number since the function had a different signature in older converters\r\n    function isV28OrHigherConverter(IConverter _converter) internal view returns (bool) {\r\n        bytes memory data = abi.encodeWithSelector(IS_V28_OR_HIGHER_FUNC_SELECTOR);\r\n        (bool success, bytes memory returnData) = address(_converter).staticcall{ gas: 4000 }(data);\r\n\r\n        if (success && returnData.length == 32) {\r\n            return abi.decode(returnData, (bool));\r\n        }\r\n\r\n        return false;\r\n    }\r\n}\r\n",
  "sourcePath": "/Users/dennismacpro/Projects/Defi/Ethereum-Solidity-Collection/icarus-protocol/defi-seeder/.tmp/bancor/contracts-solidity/solidity/contracts/converter/ConverterUpgrader.sol",
  "compiler": {
    "name": "solc",
    "version": "0.6.12+commit.27d51765.Emscripten.clang"
  },
  "schemaVersion": "3.3.3",
  "updatedAt": "2021-04-01T18:17:51.962Z",
  "devdoc": {
    "details": "This contract contract allows upgrading an older converter contract (0.4 and up) to the latest version. To begin the upgrade process, simply execute the 'upgrade' function. At the end of the process, the ownership of the newly upgraded converter will be transferred back to the original owner and the original owner will need to execute the 'acceptOwnership' function. The address of the new converter is available in the ConverterUpgrade event. Note that for older converters that don't yet have the 'upgrade' function, ownership should first be transferred manually to the ConverterUpgrader contract using the 'transferOwnership' function and then the upgrader 'upgrade' function should be executed directly.",
    "events": {
      "ConverterOwned(address,address)": {
        "details": "triggered when the contract accept a converter ownership",
        "params": {
          "_converter": "converter address",
          "_owner": "new owner - local upgrader address"
        }
      },
      "ConverterUpgrade(address,address)": {
        "details": "triggered when the upgrading process is done",
        "params": {
          "_newConverter": "new converter address",
          "_oldConverter": "old converter address"
        }
      }
    },
    "kind": "dev",
    "methods": {
      "acceptOwnership()": {
        "details": "used by a new owner to accept an ownership transfer"
      },
      "constructor": {
        "details": "initializes a new ConverterUpgrader instance",
        "params": {
          "_registry": "address of a contract registry contract"
        }
      },
      "restoreRegistry()": {
        "details": "restores the previous contract-registry"
      },
      "restrictRegistryUpdate(bool)": {
        "details": "restricts the permission to update the contract-registry",
        "params": {
          "_onlyOwnerCanUpdateRegistry": "indicates whether or not permission is restricted to owner only"
        }
      },
      "transferOwnership(address)": {
        "details": "allows transferring the contract ownership the new owner still needs to accept the transfer can only be called by the contract owner",
        "params": {
          "_newOwner": "new contract owner"
        }
      },
      "updateRegistry()": {
        "details": "updates to the new contract-registry"
      },
      "upgrade(bytes32)": {
        "details": "upgrades an old converter to the latest version will throw if ownership wasn't transferred to the upgrader before calling this function. ownership of the new converter will be transferred back to the original owner. fires the ConverterUpgrade event upon success. can only be called by a converter",
        "params": {
          "_version": "old converter version"
        }
      },
      "upgrade(uint16)": {
        "details": "upgrades an old converter to the latest version will throw if ownership wasn't transferred to the upgrader before calling this function. ownership of the new converter will be transferred back to the original owner. fires the ConverterUpgrade event upon success. can only be called by a converter",
        "params": {
          "_version": "old converter version"
        }
      },
      "upgradeOld(address,bytes32)": {
        "details": "upgrades an old converter to the latest version will throw if ownership wasn't transferred to the upgrader before calling this function. ownership of the new converter will be transferred back to the original owner. fires the ConverterUpgrade event upon success.",
        "params": {
          "_converter": "old converter contract address",
          "_version": "old converter version"
        }
      }
    },
    "version": 1
  },
  "userdoc": {
    "kind": "user",
    "methods": {},
    "version": 1
  }
}