{
  "contractName": "ConverterRegistry",
  "abi": [
    {
      "inputs": [
        {
          "internalType": "contract IContractRegistry",
          "name": "_registry",
          "type": "address"
        }
      ],
      "stateMutability": "nonpayable",
      "type": "constructor"
    },
    {
      "anonymous": false,
      "inputs": [
        {
          "indexed": true,
          "internalType": "contract IConverterAnchor",
          "name": "_anchor",
          "type": "address"
        }
      ],
      "name": "ConverterAnchorAdded",
      "type": "event"
    },
    {
      "anonymous": false,
      "inputs": [
        {
          "indexed": true,
          "internalType": "contract IConverterAnchor",
          "name": "_anchor",
          "type": "address"
        }
      ],
      "name": "ConverterAnchorRemoved",
      "type": "event"
    },
    {
      "anonymous": false,
      "inputs": [
        {
          "indexed": true,
          "internalType": "contract IERC20",
          "name": "_convertibleToken",
          "type": "address"
        },
        {
          "indexed": true,
          "internalType": "contract IConverterAnchor",
          "name": "_smartToken",
          "type": "address"
        }
      ],
      "name": "ConvertibleTokenAdded",
      "type": "event"
    },
    {
      "anonymous": false,
      "inputs": [
        {
          "indexed": true,
          "internalType": "contract IERC20",
          "name": "_convertibleToken",
          "type": "address"
        },
        {
          "indexed": true,
          "internalType": "contract IConverterAnchor",
          "name": "_smartToken",
          "type": "address"
        }
      ],
      "name": "ConvertibleTokenRemoved",
      "type": "event"
    },
    {
      "anonymous": false,
      "inputs": [
        {
          "indexed": true,
          "internalType": "contract IConverterAnchor",
          "name": "_liquidityPool",
          "type": "address"
        }
      ],
      "name": "LiquidityPoolAdded",
      "type": "event"
    },
    {
      "anonymous": false,
      "inputs": [
        {
          "indexed": true,
          "internalType": "contract IConverterAnchor",
          "name": "_liquidityPool",
          "type": "address"
        }
      ],
      "name": "LiquidityPoolRemoved",
      "type": "event"
    },
    {
      "anonymous": false,
      "inputs": [
        {
          "indexed": true,
          "internalType": "address",
          "name": "_prevOwner",
          "type": "address"
        },
        {
          "indexed": true,
          "internalType": "address",
          "name": "_newOwner",
          "type": "address"
        }
      ],
      "name": "OwnerUpdate",
      "type": "event"
    },
    {
      "anonymous": false,
      "inputs": [
        {
          "indexed": true,
          "internalType": "contract IConverterAnchor",
          "name": "_smartToken",
          "type": "address"
        }
      ],
      "name": "SmartTokenAdded",
      "type": "event"
    },
    {
      "anonymous": false,
      "inputs": [
        {
          "indexed": true,
          "internalType": "contract IConverterAnchor",
          "name": "_smartToken",
          "type": "address"
        }
      ],
      "name": "SmartTokenRemoved",
      "type": "event"
    },
    {
      "inputs": [],
      "name": "acceptOwnership",
      "outputs": [],
      "stateMutability": "nonpayable",
      "type": "function"
    },
    {
      "inputs": [],
      "name": "newOwner",
      "outputs": [
        {
          "internalType": "address",
          "name": "",
          "type": "address"
        }
      ],
      "stateMutability": "view",
      "type": "function"
    },
    {
      "inputs": [],
      "name": "onlyOwnerCanUpdateRegistry",
      "outputs": [
        {
          "internalType": "bool",
          "name": "",
          "type": "bool"
        }
      ],
      "stateMutability": "view",
      "type": "function"
    },
    {
      "inputs": [],
      "name": "owner",
      "outputs": [
        {
          "internalType": "address",
          "name": "",
          "type": "address"
        }
      ],
      "stateMutability": "view",
      "type": "function"
    },
    {
      "inputs": [],
      "name": "prevRegistry",
      "outputs": [
        {
          "internalType": "contract IContractRegistry",
          "name": "",
          "type": "address"
        }
      ],
      "stateMutability": "view",
      "type": "function"
    },
    {
      "inputs": [],
      "name": "registry",
      "outputs": [
        {
          "internalType": "contract IContractRegistry",
          "name": "",
          "type": "address"
        }
      ],
      "stateMutability": "view",
      "type": "function"
    },
    {
      "inputs": [],
      "name": "restoreRegistry",
      "outputs": [],
      "stateMutability": "nonpayable",
      "type": "function"
    },
    {
      "inputs": [
        {
          "internalType": "bool",
          "name": "_onlyOwnerCanUpdateRegistry",
          "type": "bool"
        }
      ],
      "name": "restrictRegistryUpdate",
      "outputs": [],
      "stateMutability": "nonpayable",
      "type": "function"
    },
    {
      "inputs": [
        {
          "internalType": "address",
          "name": "_newOwner",
          "type": "address"
        }
      ],
      "name": "transferOwnership",
      "outputs": [],
      "stateMutability": "nonpayable",
      "type": "function"
    },
    {
      "inputs": [],
      "name": "updateRegistry",
      "outputs": [],
      "stateMutability": "nonpayable",
      "type": "function"
    },
    {
      "inputs": [
        {
          "internalType": "uint16",
          "name": "_type",
          "type": "uint16"
        },
        {
          "internalType": "string",
          "name": "_name",
          "type": "string"
        },
        {
          "internalType": "string",
          "name": "_symbol",
          "type": "string"
        },
        {
          "internalType": "uint8",
          "name": "_decimals",
          "type": "uint8"
        },
        {
          "internalType": "uint32",
          "name": "_maxConversionFee",
          "type": "uint32"
        },
        {
          "internalType": "contract IERC20[]",
          "name": "_reserveTokens",
          "type": "address[]"
        },
        {
          "internalType": "uint32[]",
          "name": "_reserveWeights",
          "type": "uint32[]"
        }
      ],
      "name": "newConverter",
      "outputs": [
        {
          "internalType": "contract IConverter",
          "name": "",
          "type": "address"
        }
      ],
      "stateMutability": "nonpayable",
      "type": "function"
    },
    {
      "inputs": [
        {
          "internalType": "contract IConverter",
          "name": "_converter",
          "type": "address"
        }
      ],
      "name": "addConverter",
      "outputs": [],
      "stateMutability": "nonpayable",
      "type": "function"
    },
    {
      "inputs": [
        {
          "internalType": "contract IConverter",
          "name": "_converter",
          "type": "address"
        }
      ],
      "name": "removeConverter",
      "outputs": [],
      "stateMutability": "nonpayable",
      "type": "function"
    },
    {
      "inputs": [],
      "name": "getAnchorCount",
      "outputs": [
        {
          "internalType": "uint256",
          "name": "",
          "type": "uint256"
        }
      ],
      "stateMutability": "view",
      "type": "function"
    },
    {
      "inputs": [],
      "name": "getAnchors",
      "outputs": [
        {
          "internalType": "address[]",
          "name": "",
          "type": "address[]"
        }
      ],
      "stateMutability": "view",
      "type": "function"
    },
    {
      "inputs": [
        {
          "internalType": "uint256",
          "name": "_index",
          "type": "uint256"
        }
      ],
      "name": "getAnchor",
      "outputs": [
        {
          "internalType": "contract IConverterAnchor",
          "name": "",
          "type": "address"
        }
      ],
      "stateMutability": "view",
      "type": "function"
    },
    {
      "inputs": [
        {
          "internalType": "address",
          "name": "_value",
          "type": "address"
        }
      ],
      "name": "isAnchor",
      "outputs": [
        {
          "internalType": "bool",
          "name": "",
          "type": "bool"
        }
      ],
      "stateMutability": "view",
      "type": "function"
    },
    {
      "inputs": [],
      "name": "getLiquidityPoolCount",
      "outputs": [
        {
          "internalType": "uint256",
          "name": "",
          "type": "uint256"
        }
      ],
      "stateMutability": "view",
      "type": "function"
    },
    {
      "inputs": [],
      "name": "getLiquidityPools",
      "outputs": [
        {
          "internalType": "address[]",
          "name": "",
          "type": "address[]"
        }
      ],
      "stateMutability": "view",
      "type": "function"
    },
    {
      "inputs": [
        {
          "internalType": "uint256",
          "name": "_index",
          "type": "uint256"
        }
      ],
      "name": "getLiquidityPool",
      "outputs": [
        {
          "internalType": "contract IConverterAnchor",
          "name": "",
          "type": "address"
        }
      ],
      "stateMutability": "view",
      "type": "function"
    },
    {
      "inputs": [
        {
          "internalType": "address",
          "name": "_value",
          "type": "address"
        }
      ],
      "name": "isLiquidityPool",
      "outputs": [
        {
          "internalType": "bool",
          "name": "",
          "type": "bool"
        }
      ],
      "stateMutability": "view",
      "type": "function"
    },
    {
      "inputs": [],
      "name": "getConvertibleTokenCount",
      "outputs": [
        {
          "internalType": "uint256",
          "name": "",
          "type": "uint256"
        }
      ],
      "stateMutability": "view",
      "type": "function"
    },
    {
      "inputs": [],
      "name": "getConvertibleTokens",
      "outputs": [
        {
          "internalType": "address[]",
          "name": "",
          "type": "address[]"
        }
      ],
      "stateMutability": "view",
      "type": "function"
    },
    {
      "inputs": [
        {
          "internalType": "uint256",
          "name": "_index",
          "type": "uint256"
        }
      ],
      "name": "getConvertibleToken",
      "outputs": [
        {
          "internalType": "contract IERC20",
          "name": "",
          "type": "address"
        }
      ],
      "stateMutability": "view",
      "type": "function"
    },
    {
      "inputs": [
        {
          "internalType": "address",
          "name": "_value",
          "type": "address"
        }
      ],
      "name": "isConvertibleToken",
      "outputs": [
        {
          "internalType": "bool",
          "name": "",
          "type": "bool"
        }
      ],
      "stateMutability": "view",
      "type": "function"
    },
    {
      "inputs": [
        {
          "internalType": "contract IERC20",
          "name": "_convertibleToken",
          "type": "address"
        }
      ],
      "name": "getConvertibleTokenAnchorCount",
      "outputs": [
        {
          "internalType": "uint256",
          "name": "",
          "type": "uint256"
        }
      ],
      "stateMutability": "view",
      "type": "function"
    },
    {
      "inputs": [
        {
          "internalType": "contract IERC20",
          "name": "_convertibleToken",
          "type": "address"
        }
      ],
      "name": "getConvertibleTokenAnchors",
      "outputs": [
        {
          "internalType": "address[]",
          "name": "",
          "type": "address[]"
        }
      ],
      "stateMutability": "view",
      "type": "function"
    },
    {
      "inputs": [
        {
          "internalType": "contract IERC20",
          "name": "_convertibleToken",
          "type": "address"
        },
        {
          "internalType": "uint256",
          "name": "_index",
          "type": "uint256"
        }
      ],
      "name": "getConvertibleTokenAnchor",
      "outputs": [
        {
          "internalType": "contract IConverterAnchor",
          "name": "",
          "type": "address"
        }
      ],
      "stateMutability": "view",
      "type": "function"
    },
    {
      "inputs": [
        {
          "internalType": "contract IERC20",
          "name": "_convertibleToken",
          "type": "address"
        },
        {
          "internalType": "address",
          "name": "_value",
          "type": "address"
        }
      ],
      "name": "isConvertibleTokenAnchor",
      "outputs": [
        {
          "internalType": "bool",
          "name": "",
          "type": "bool"
        }
      ],
      "stateMutability": "view",
      "type": "function"
    },
    {
      "inputs": [
        {
          "internalType": "address[]",
          "name": "_anchors",
          "type": "address[]"
        }
      ],
      "name": "getConvertersByAnchors",
      "outputs": [
        {
          "internalType": "contract IConverter[]",
          "name": "",
          "type": "address[]"
        }
      ],
      "stateMutability": "view",
      "type": "function"
    },
    {
      "inputs": [
        {
          "internalType": "contract IConverter",
          "name": "_converter",
          "type": "address"
        }
      ],
      "name": "isConverterValid",
      "outputs": [
        {
          "internalType": "bool",
          "name": "",
          "type": "bool"
        }
      ],
      "stateMutability": "view",
      "type": "function"
    },
    {
      "inputs": [
        {
          "internalType": "contract IConverter",
          "name": "_converter",
          "type": "address"
        }
      ],
      "name": "isSimilarLiquidityPoolRegistered",
      "outputs": [
        {
          "internalType": "bool",
          "name": "",
          "type": "bool"
        }
      ],
      "stateMutability": "view",
      "type": "function"
    },
    {
      "inputs": [
        {
          "internalType": "uint16",
          "name": "_type",
          "type": "uint16"
        },
        {
          "internalType": "contract IERC20[]",
          "name": "_reserveTokens",
          "type": "address[]"
        },
        {
          "internalType": "uint32[]",
          "name": "_reserveWeights",
          "type": "uint32[]"
        }
      ],
      "name": "getLiquidityPoolByConfig",
      "outputs": [
        {
          "internalType": "contract IConverterAnchor",
          "name": "",
          "type": "address"
        }
      ],
      "stateMutability": "view",
      "type": "function"
    },
    {
      "inputs": [],
      "name": "getSmartTokenCount",
      "outputs": [
        {
          "internalType": "uint256",
          "name": "",
          "type": "uint256"
        }
      ],
      "stateMutability": "view",
      "type": "function"
    },
    {
      "inputs": [],
      "name": "getSmartTokens",
      "outputs": [
        {
          "internalType": "address[]",
          "name": "",
          "type": "address[]"
        }
      ],
      "stateMutability": "view",
      "type": "function"
    },
    {
      "inputs": [
        {
          "internalType": "uint256",
          "name": "_index",
          "type": "uint256"
        }
      ],
      "name": "getSmartToken",
      "outputs": [
        {
          "internalType": "contract IConverterAnchor",
          "name": "",
          "type": "address"
        }
      ],
      "stateMutability": "view",
      "type": "function"
    },
    {
      "inputs": [
        {
          "internalType": "address",
          "name": "_value",
          "type": "address"
        }
      ],
      "name": "isSmartToken",
      "outputs": [
        {
          "internalType": "bool",
          "name": "",
          "type": "bool"
        }
      ],
      "stateMutability": "view",
      "type": "function"
    },
    {
      "inputs": [
        {
          "internalType": "contract IERC20",
          "name": "_convertibleToken",
          "type": "address"
        }
      ],
      "name": "getConvertibleTokenSmartTokenCount",
      "outputs": [
        {
          "internalType": "uint256",
          "name": "",
          "type": "uint256"
        }
      ],
      "stateMutability": "view",
      "type": "function"
    },
    {
      "inputs": [
        {
          "internalType": "contract IERC20",
          "name": "_convertibleToken",
          "type": "address"
        }
      ],
      "name": "getConvertibleTokenSmartTokens",
      "outputs": [
        {
          "internalType": "address[]",
          "name": "",
          "type": "address[]"
        }
      ],
      "stateMutability": "view",
      "type": "function"
    },
    {
      "inputs": [
        {
          "internalType": "contract IERC20",
          "name": "_convertibleToken",
          "type": "address"
        },
        {
          "internalType": "uint256",
          "name": "_index",
          "type": "uint256"
        }
      ],
      "name": "getConvertibleTokenSmartToken",
      "outputs": [
        {
          "internalType": "contract IConverterAnchor",
          "name": "",
          "type": "address"
        }
      ],
      "stateMutability": "view",
      "type": "function"
    },
    {
      "inputs": [
        {
          "internalType": "contract IERC20",
          "name": "_convertibleToken",
          "type": "address"
        },
        {
          "internalType": "address",
          "name": "_value",
          "type": "address"
        }
      ],
      "name": "isConvertibleTokenSmartToken",
      "outputs": [
        {
          "internalType": "bool",
          "name": "",
          "type": "bool"
        }
      ],
      "stateMutability": "view",
      "type": "function"
    },
    {
      "inputs": [
        {
          "internalType": "address[]",
          "name": "_smartTokens",
          "type": "address[]"
        }
      ],
      "name": "getConvertersBySmartTokens",
      "outputs": [
        {
          "internalType": "contract IConverter[]",
          "name": "",
          "type": "address[]"
        }
      ],
      "stateMutability": "view",
      "type": "function"
    },
    {
      "inputs": [
        {
          "internalType": "contract IERC20[]",
          "name": "_reserveTokens",
          "type": "address[]"
        },
        {
          "internalType": "uint32[]",
          "name": "_reserveWeights",
          "type": "uint32[]"
        }
      ],
      "name": "getLiquidityPoolByReserveConfig",
      "outputs": [
        {
          "internalType": "contract IConverterAnchor",
          "name": "",
          "type": "address"
        }
      ],
      "stateMutability": "view",
      "type": "function"
    }
  ],
  "bytecode": "0x60806040523480156200001157600080fd5b506040516200339438038062003394833981810160405260208110156200003757600080fd5b5051600080546001600160a01b03191633179055808062000058816200008a565b50600280546001600160a01b039092166001600160a01b031992831681179091556003805490921617905550620000e9565b6001600160a01b038116620000e6576040805162461bcd60e51b815260206004820152601360248201527f4552525f494e56414c49445f4144445245535300000000000000000000000000604482015290519081900360640190fd5b50565b61329b80620000f96000396000f3fe608060405234801561001057600080fd5b50600436106102695760003560e01c80637b10399911610151578063b4c4197a116100c3578063d8cced2a11610087578063d8cced2a14610bef578063e571049b14610c15578063e85455d714610c1d578063effb3c6e14610c43578063f2fde38b14610c4b578063f4fb86c014610c7157610269565b8063b4c4197a14610a62578063c22b82f014610a90578063d3182bed14610bb3578063d4ee1d9014610bbb578063d6c4b5b214610bc357610269565b8063954254f511610115578063954254f5146109ae5780639e76a007146109d4578063a109d214146109fa578063a43d5e9414610a17578063a74498aa14610a3d578063b4a176d314610a5a57610269565b80637b103999146109535780637f45c4c31461095b578063865cf194146109635780638da5cb5b146109805780638f1d0e1a1461098857610269565b80634c7df18f116101ea57806361cd756e116101ae57806361cd756e146108df57806369be4784146108e75780636ce1c4dc146108ef578063725b87861461091557806379ba5097146109435780637a5f0ffd1461094b57610269565b80634c7df18f146105a05780635a0a6618146105bd5780635f1b50fe1461080a578063603f51e414610812578063610c0b051461083e57610269565b80632fe8a6ad116102315780632fe8a6ad146104f85780633ab8857c146105145780634123ef601461053a57806349c5f32b1461056057806349d10b641461059857610269565b8063024c7ec71461026e57806304ceaf411461028f57806311839064146102e75780631d3fccd51461030d5780631f8e262014610457575b600080fd5b61028d6004803603602081101561028457600080fd5b50351515610c97565b005b610297610cbd565b60408051602080825283518183015283519192839290830191858101910280838360005b838110156102d35781810151838201526020016102bb565b505050509050019250505060405180910390f35b610297600480360360208110156102fd57600080fd5b50356001600160a01b0316610ccc565b61043b6004803603606081101561032357600080fd5b61ffff8235169190810190604081016020820135600160201b81111561034857600080fd5b82018360208201111561035a57600080fd5b803590602001918460208302840111600160201b8311171561037b57600080fd5b9190808060200260200160405190810160405280939291908181526020018383602002808284376000920191909152509295949360208101935035915050600160201b8111156103ca57600080fd5b8201836020820111156103dc57600080fd5b803590602001918460208302840111600160201b831117156103fd57600080fd5b919080806020026020016040519081016040528093929190818152602001838360200280828437600092019190915250929550610dff945050505050565b604080516001600160a01b039092168252519081900360200190f35b6102976004803603602081101561046d57600080fd5b810190602081018135600160201b81111561048757600080fd5b82018360208201111561049957600080fd5b803590602001918460208302840111600160201b831117156104ba57600080fd5b919080806020026020016040519081016040528093929190818152602001838360200280828437600092019190915250929550610ee6945050505050565b610500610ef7565b604080519115158252519081900360200190f35b6105006004803603602081101561052a57600080fd5b50356001600160a01b0316610f07565b6105006004803603602081101561055057600080fd5b50356001600160a01b0316610f9e565b6105866004803603602081101561057657600080fd5b50356001600160a01b0316610fa9565b60408051918252519081900360200190f35b61028d61100e565b61043b600480360360208110156105b657600080fd5b5035611216565b61043b600480360360e08110156105d357600080fd5b61ffff8235169190810190604081016020820135600160201b8111156105f857600080fd5b82018360208201111561060a57600080fd5b803590602001918460018302840111600160201b8311171561062b57600080fd5b91908080601f0160208091040260200160405190810160405280939291908181526020018383808284376000920191909152509295949360208101935035915050600160201b81111561067d57600080fd5b82018360208201111561068f57600080fd5b803590602001918460018302840111600160201b831117156106b057600080fd5b91908080601f016020809104026020016040519081016040528093929190818152602001838380828437600092019190915250929560ff8535169563ffffffff60208701351695919450925060608101915060400135600160201b81111561071757600080fd5b82018360208201111561072957600080fd5b803590602001918460208302840111600160201b8311171561074a57600080fd5b9190808060200260200160405190810160405280939291908181526020018383602002808284376000920191909152509295949360208101935035915050600160201b81111561079957600080fd5b8201836020820111156107ab57600080fd5b803590602001918460208302840111600160201b831117156107cc57600080fd5b919080806020026020016040519081016040528093929190818152602001838360200280828437600092019190915250929550611272945050505050565b6102976117e9565b61043b6004803603604081101561082857600080fd5b506001600160a01b038135169060200135611906565b6102976004803603602081101561085457600080fd5b810190602081018135600160201b81111561086e57600080fd5b82018360208201111561088057600080fd5b803590602001918460208302840111600160201b831117156108a157600080fd5b9190808060200260200160405190810160405280939291908181526020018383602002808284376000920191909152509295506119a6945050505050565b61043b611aa7565b610586611ab6565b61028d6004803603602081101561090557600080fd5b50356001600160a01b0316611b38565b6105006004803603604081101561092b57600080fd5b506001600160a01b0381358116916020013516611b9e565b61028d611baa565b610586611c61565b61043b611cb2565b610297611cc1565b61043b6004803603602081101561097957600080fd5b5035611d12565b61043b611d6e565b6105006004803603602081101561099e57600080fd5b50356001600160a01b0316611d7d565b610500600480360360208110156109c457600080fd5b50356001600160a01b0316611f86565b61028d600480360360208110156109ea57600080fd5b50356001600160a01b0316612075565b61043b60048036036020811015610a1057600080fd5b50356120e2565b61058660048036036020811015610a2d57600080fd5b50356001600160a01b03166120ed565b61043b60048036036020811015610a5357600080fd5b50356120f8565b61028d612154565b61050060048036036040811015610a7857600080fd5b506001600160a01b0381358116916020013516612180565b61043b60048036036040811015610aa657600080fd5b810190602081018135600160201b811115610ac057600080fd5b820183602082011115610ad257600080fd5b803590602001918460208302840111600160201b83111715610af357600080fd5b9190808060200260200160405190810160405280939291908181526020018383602002808284376000920191909152509295949360208101935035915050600160201b811115610b4257600080fd5b820183602082011115610b5457600080fd5b803590602001918460208302840111600160201b83111715610b7557600080fd5b9190808060200260200160405190810160405280939291908181526020018383602002808284376000920191909152509295506121f6945050505050565b610586612218565b61043b612269565b61043b60048036036040811015610bd957600080fd5b506001600160a01b038135169060200135612278565b61050060048036036020811015610c0557600080fd5b50356001600160a01b0316612284565b6105866122e9565b61050060048036036020811015610c3357600080fd5b50356001600160a01b03166122f3565b610297612358565b61028d60048036036020811015610c6157600080fd5b50356001600160a01b03166123a9565b61029760048036036020811015610c8757600080fd5b50356001600160a01b0316612427565b610c9f612432565b60038054911515600160a01b0260ff60a01b19909216919091179055565b6060610cc7612358565b905090565b6060610ce5600080516020613246833981519152612487565b6001600160a01b031663f4fb86c0836040518263ffffffff1660e01b815260040180826001600160a01b0316815260200191505060006040518083038186803b158015610d3157600080fd5b505afa158015610d45573d6000803e3d6000fd5b505050506040513d6000823e601f3d908101601f191682016040526020811015610d6e57600080fd5b8101908080516040519392919084600160201b821115610d8d57600080fd5b908301906020820185811115610da257600080fd5b82518660208202830111600160201b82111715610dbe57600080fd5b82525081516020918201928201910280838360005b83811015610deb578181015183820152602001610dd3565b505050509050016040525050509050919050565b600081518351148015610e13575060018351115b15610edb576060610e23846124d3565b905060005b8151811015610ed8576000828281518110610e3f57fe5b602002602001015190506000816001600160a01b0316638da5cb5b6040518163ffffffff1660e01b815260040160206040518083038186803b158015610e8457600080fd5b505afa158015610e98573d6000803e3d6000fd5b505050506040513d6020811015610eae57600080fd5b50519050610ebe81898989612769565b15610ece57509250610edf915050565b5050600101610e28565b50505b5060005b9392505050565b6060610ef1826119a6565b92915050565b600354600160a01b900460ff1681565b6000610f20600080516020613246833981519152612487565b6001600160a01b0316633ab8857c836040518263ffffffff1660e01b815260040180826001600160a01b0316815260200191505060206040518083038186803b158015610f6c57600080fd5b505afa158015610f80573d6000803e3d6000fd5b505050506040513d6020811015610f9657600080fd5b505192915050565b6000610ef182612284565b6000610fc2600080516020613246833981519152612487565b6001600160a01b031663a43d5e94836040518263ffffffff1660e01b815260040180826001600160a01b0316815260200191505060206040518083038186803b158015610f6c57600080fd5b6000546001600160a01b03163314806110315750600354600160a01b900460ff16155b611076576040805162461bcd60e51b815260206004820152601160248201527011549497d050d0d154d4d7d11153925151607a1b604482015290519081900360640190fd5b60006110946f436f6e7472616374526567697374727960801b612487565b6002549091506001600160a01b038083169116148015906110bd57506001600160a01b03811615155b611105576040805162461bcd60e51b81526020600482015260146024820152734552525f494e56414c49445f524547495354525960601b604482015290519081900360640190fd5b60006001600160a01b0316816001600160a01b031663bb34534c6f436f6e7472616374526567697374727960801b6040518263ffffffff1660e01b81526004018082815260200191505060206040518083038186803b15801561116757600080fd5b505afa15801561117b573d6000803e3d6000fd5b505050506040513d602081101561119157600080fd5b50516001600160a01b031614156111e6576040805162461bcd60e51b81526020600482015260146024820152734552525f494e56414c49445f524547495354525960601b604482015290519081900360640190fd5b60028054600380546001600160a01b038084166001600160a01b0319928316179092559091169216919091179055565b600061122f600080516020613246833981519152612487565b6001600160a01b031663a109d214836040518263ffffffff1660e01b81526004018082815260200191505060206040518083038186803b158015610f6c57600080fd5b815181516000919081146112c4576040805162461bcd60e51b81526020600482015260146024820152734552525f494e56414c49445f524553455256455360601b604482015290519081900360640190fd5b8861ffff1660011480156112dc57506112dc8361287b565b156112e657600398505b60006112f38a8686610dff565b6001600160a01b031614611343576040805162461bcd60e51b81526020600482015260126024820152714552525f414c52454144595f45584953545360701b604482015290519081900360640190fd5b60006113616f436f6e766572746572466163746f727960801b612487565b90506000816001600160a01b0316632e9ab7b38c8c8c8c6040518563ffffffff1660e01b8152600401808561ffff16815260200180602001806020018460ff168152602001838103835286818151815260200191508051906020019080838360005b838110156113db5781810151838201526020016113c3565b50505050905090810190601f1680156114085780820380516001836020036101000a031916815260200191505b50838103825285518152855160209182019187019080838360005b8381101561143b578181015183820152602001611423565b50505050905090810190601f1680156114685780820380516001836020036101000a031916815260200191505b509650505050505050602060405180830381600087803b15801561148b57600080fd5b505af115801561149f573d6000803e3d6000fd5b505050506040513d60208110156114b557600080fd5b505160025460408051630afb25b560e11b815261ffff8f1660048201526001600160a01b038085166024830152928316604482015263ffffffff8b1660648201529051929350600092918516916315f64b6a9160848082019260209290919082900301818787803b15801561152957600080fd5b505af115801561153d573d6000803e3d6000fd5b505050506040513d602081101561155357600080fd5b5051604080516379ba509760e01b815290519192506001600160a01b038416916379ba50979160048082019260009290919082900301818387803b15801561159a57600080fd5b505af11580156115ae573d6000803e3d6000fd5b50505050806001600160a01b03166379ba50976040518163ffffffff1660e01b8152600401600060405180830381600087803b1580156115ed57600080fd5b505af1158015611601573d6000803e3d6000fd5b5050505060005b848110156116b757816001600160a01b0316636a49d2c489838151811061162b57fe5b602002602001015189848151811061163f57fe5b60200260200101516040518363ffffffff1660e01b815260040180836001600160a01b031681526020018263ffffffff16815260200192505050600060405180830381600087803b15801561169357600080fd5b505af11580156116a7573d6000803e3d6000fd5b5050600190920191506116089050565b50816001600160a01b031663f2fde38b826040518263ffffffff1660e01b815260040180826001600160a01b03168152602001915050600060405180830381600087803b15801561170757600080fd5b505af115801561171b573d6000803e3d6000fd5b50505050806001600160a01b031663cdc91c696040518163ffffffff1660e01b8152600401600060405180830381600087803b15801561175a57600080fd5b505af115801561176e573d6000803e3d6000fd5b50506040805163f2fde38b60e01b815233600482015290516001600160a01b038516935063f2fde38b9250602480830192600092919082900301818387803b1580156117b957600080fd5b505af11580156117cd573d6000803e3d6000fd5b505050506117da816128dc565b9b9a5050505050505050505050565b6060611802600080516020613246833981519152612487565b6001600160a01b0316635f1b50fe6040518163ffffffff1660e01b815260040160006040518083038186803b15801561183a57600080fd5b505afa15801561184e573d6000803e3d6000fd5b505050506040513d6000823e601f3d908101601f19168201604052602081101561187757600080fd5b8101908080516040519392919084600160201b82111561189657600080fd5b9083019060208201858111156118ab57600080fd5b82518660208202830111600160201b821117156118c757600080fd5b82525081516020918201928201910280838360005b838110156118f45781810151838201526020016118dc565b50505050905001604052505050905090565b600061191f600080516020613246833981519152612487565b6001600160a01b031663d6c4b5b284846040518363ffffffff1660e01b815260040180836001600160a01b031681526020018281526020019250505060206040518083038186803b15801561197357600080fd5b505afa158015611987573d6000803e3d6000fd5b505050506040513d602081101561199d57600080fd5b50519392505050565b606080825167ffffffffffffffff811180156119c157600080fd5b506040519080825280602002602001820160405280156119eb578160200160208202803683370190505b50905060005b8351811015611aa057838181518110611a0657fe5b60200260200101516001600160a01b0316638da5cb5b6040518163ffffffff1660e01b815260040160206040518083038186803b158015611a4657600080fd5b505afa158015611a5a573d6000803e3d6000fd5b505050506040513d6020811015611a7057600080fd5b50518251839083908110611a8057fe5b6001600160a01b03909216602092830291909101909101526001016119f1565b5092915050565b6003546001600160a01b031681565b6000611acf600080516020613246833981519152612487565b6001600160a01b03166369be47846040518163ffffffff1660e01b815260040160206040518083038186803b158015611b0757600080fd5b505afa158015611b1b573d6000803e3d6000fd5b505050506040513d6020811015611b3157600080fd5b5051905090565b611b40612432565b611b4981611f86565b611b92576040805162461bcd60e51b815260206004820152601560248201527422a9292fa4a72b20a624a22fa1a7a72b22a92a22a960591b604482015290519081900360640190fd5b611b9b816128dc565b50565b6000610edf8383612180565b6001546001600160a01b03163314611bfd576040805162461bcd60e51b815260206004820152601160248201527011549497d050d0d154d4d7d11153925151607a1b604482015290519081900360640190fd5b600154600080546040516001600160a01b0393841693909116917f343765429aea5a34b3ff6a3785a98a5abb2597aca87bfbb58632c173d585373a91a360018054600080546001600160a01b03199081166001600160a01b03841617909155169055565b6000611c7a600080516020613246833981519152612487565b6001600160a01b0316637a5f0ffd6040518163ffffffff1660e01b815260040160206040518083038186803b158015611b0757600080fd5b6002546001600160a01b031681565b6060611cda600080516020613246833981519152612487565b6001600160a01b0316637f45c4c36040518163ffffffff1660e01b815260040160006040518083038186803b15801561183a57600080fd5b6000611d2b600080516020613246833981519152612487565b6001600160a01b031663865cf194836040518263ffffffff1660e01b81526004018082815260200191505060206040518083038186803b158015610f6c57600080fd5b6000546001600160a01b031681565b600080826001600160a01b03166371f52bf36040518163ffffffff1660e01b815260040160206040518083038186803b158015611db957600080fd5b505afa158015611dcd573d6000803e3d6000fd5b505050506040513d6020811015611de357600080fd5b505161ffff16905060608167ffffffffffffffff81118015611e0457600080fd5b50604051908082528060200260200182016040528015611e2e578160200160208202803683370190505b50905060608267ffffffffffffffff81118015611e4a57600080fd5b50604051908082528060200260200182016040528015611e74578160200160208202803683370190505b50905060005b83811015611f5b576000866001600160a01b03166319b64015836040518263ffffffff1660e01b81526004018082815260200191505060206040518083038186803b158015611ec857600080fd5b505afa158015611edc573d6000803e3d6000fd5b505050506040513d6020811015611ef257600080fd5b505184519091508190859084908110611f0757fe5b60200260200101906001600160a01b031690816001600160a01b031681525050611f318782612a97565b838381518110611f3d57fe5b63ffffffff9092166020928302919091019091015250600101611e7a565b506000611f72611f6b8786612b1e565b8484610dff565b6001600160a01b0316141595945050505050565b6000816001600160a01b0316826001600160a01b031663fc0c546a6040518163ffffffff1660e01b815260040160206040518083038186803b158015611fcb57600080fd5b505afa158015611fdf573d6000803e3d6000fd5b505050506040513d6020811015611ff557600080fd5b505160408051638da5cb5b60e01b815290516001600160a01b0390921691638da5cb5b91600480820192602092909190829003018186803b15801561203957600080fd5b505afa15801561204d573d6000803e3d6000fd5b505050506040513d602081101561206357600080fd5b50516001600160a01b03161492915050565b6000546001600160a01b0316331480612094575061209281611f86565b155b6120d9576040805162461bcd60e51b815260206004820152601160248201527011549497d050d0d154d4d7d11153925151607a1b604482015290519081900360640190fd5b611b9b81612c43565b6000610ef182611216565b6000610ef182610fa9565b6000612111600080516020613246833981519152612487565b6001600160a01b031663a74498aa836040518263ffffffff1660e01b81526004018082815260200191505060206040518083038186803b158015610f6c57600080fd5b61215c612432565b600354600280546001600160a01b0319166001600160a01b03909216919091179055565b6000612199600080516020613246833981519152612487565b6001600160a01b031663725b878684846040518363ffffffff1660e01b815260040180836001600160a01b03168152602001826001600160a01b031681526020019250505060206040518083038186803b15801561197357600080fd5b6000610edf600184511161220b57600061220e565b60015b60ff168484610dff565b6000612231600080516020613246833981519152612487565b6001600160a01b031663e571049b6040518163ffffffff1660e01b815260040160206040518083038186803b158015611b0757600080fd5b6001546001600160a01b031681565b6000610edf8383611906565b600061229d600080516020613246833981519152612487565b6001600160a01b0316634123ef60836040518263ffffffff1660e01b815260040180826001600160a01b0316815260200191505060206040518083038186803b158015610f6c57600080fd5b6000610cc7612218565b600061230c600080516020613246833981519152612487565b6001600160a01b031663e85455d7836040518263ffffffff1660e01b815260040180826001600160a01b0316815260200191505060206040518083038186803b158015610f6c57600080fd5b6060612371600080516020613246833981519152612487565b6001600160a01b03166304ceaf416040518163ffffffff1660e01b815260040160006040518083038186803b15801561183a57600080fd5b6123b1612432565b6000546001600160a01b0382811691161415612405576040805162461bcd60e51b815260206004820152600e60248201526d22a9292fa9a0a6a2afa7aba722a960911b604482015290519081900360640190fd5b600180546001600160a01b0319166001600160a01b0392909216919091179055565b6060610ef182610ccc565b6000546001600160a01b03163314612485576040805162461bcd60e51b815260206004820152601160248201527011549497d050d0d154d4d7d11153925151607a1b604482015290519081900360640190fd5b565b60025460408051632ecd14d360e21b81526004810184905290516000926001600160a01b03169163bb34534c916024808301926020929190829003018186803b158015610f6c57600080fd5b606060006124ee600080516020613246833981519152612487565b90506000816001600160a01b031663a43d5e948560008151811061250e57fe5b60200260200101516040518263ffffffff1660e01b815260040180826001600160a01b0316815260200191505060206040518083038186803b15801561255357600080fd5b505afa158015612567573d6000803e3d6000fd5b505050506040513d602081101561257d57600080fd5b50519050600060015b8551811015612637576000846001600160a01b031663a43d5e948884815181106125ac57fe5b60200260200101516040518263ffffffff1660e01b815260040180826001600160a01b0316815260200191505060206040518083038186803b1580156125f157600080fd5b505afa158015612605573d6000803e3d6000fd5b505050506040513d602081101561261b57600080fd5b505190508084111561262e578093508192505b50600101612586565b50826001600160a01b031663f4fb86c086838151811061265357fe5b60200260200101516040518263ffffffff1660e01b815260040180826001600160a01b0316815260200191505060006040518083038186803b15801561269857600080fd5b505afa1580156126ac573d6000803e3d6000fd5b505050506040513d6000823e601f3d908101601f1916820160405260208110156126d557600080fd5b8101908080516040519392919084600160201b8211156126f457600080fd5b90830190602082018581111561270957600080fd5b82518660208202830111600160201b8211171561272557600080fd5b82525081516020918201928201910280838360005b8381101561275257818101518382015260200161273a565b505050509050016040525050509350505050919050565b600080856001600160a01b03166371f52bf36040518163ffffffff1660e01b815260040160206040518083038186803b1580156127a557600080fd5b505afa1580156127b9573d6000803e3d6000fd5b505050506040513d60208110156127cf57600080fd5b505161ffff1690506127e18682612b1e565b61ffff168561ffff16146127f9576000915050612873565b8084511461280b576000915050612873565b60005b845181101561286c576128348786838151811061282757fe5b6020026020010151612a97565b63ffffffff1684828151811061284657fe5b602002602001015163ffffffff161461286457600092505050612873565b60010161280e565b5060019150505b949350505050565b6000815160021480156128ab575081516207a12090839060009061289b57fe5b602002602001015163ffffffff16145b8015610ef1575081516207a12090839060019081106128c657fe5b602002602001015163ffffffff16149050919050565b60006128f5600080516020613246833981519152612487565b90506000826001600160a01b031663fc0c546a6040518163ffffffff1660e01b815260040160206040518083038186803b15801561293257600080fd5b505afa158015612946573d6000803e3d6000fd5b505050506040513d602081101561295c57600080fd5b5051604080516371f52bf360e01b815290519192506000916001600160a01b038616916371f52bf3916004808301926020929190829003018186803b1580156129a457600080fd5b505afa1580156129b8573d6000803e3d6000fd5b505050506040513d60208110156129ce57600080fd5b505161ffff1690506129e08383612df7565b60018111156129f8576129f38383612eca565b612a03565b612a03838384612f69565b60005b81811015612a9057612a8884866001600160a01b03166319b64015846040518263ffffffff1660e01b81526004018082815260200191505060206040518083038186803b158015612a5657600080fd5b505afa158015612a6a573d6000803e3d6000fd5b505050506040513d6020811015612a8057600080fd5b505185612f69565b600101612a06565b5050505050565b600080836001600160a01b0316630e53aae9846040518263ffffffff1660e01b815260040180826001600160a01b0316815260200191505060a06040518083038186803b158015612ae757600080fd5b505afa158015612afb573d6000803e3d6000fd5b505050506040513d60a0811015612b1157600080fd5b5060200151949350505050565b60408051600481526024810182526020810180516001600160e01b0316633e8ff43f60e01b1781529151815160009384936060936001600160a01b03891693919290918291908083835b60208310612b875780518252601f199092019160209182019101612b68565b6001836020036101000a038019825116818451168082178552505050505050905001915050600060405180830381855afa9150503d8060008114612be7576040519150601f19603f3d011682016040523d82523d6000602084013e612bec565b606091505b5091509150818015612bff575080516020145b15612c2557808060200190516020811015612c1957600080fd5b50519250610ef1915050565b60018411612c34576000612c37565b60015b60ff1695945050505050565b6000612c5c600080516020613246833981519152612487565b90506000826001600160a01b031663fc0c546a6040518163ffffffff1660e01b815260040160206040518083038186803b158015612c9957600080fd5b505afa158015612cad573d6000803e3d6000fd5b505050506040513d6020811015612cc357600080fd5b5051604080516371f52bf360e01b815290519192506000916001600160a01b038616916371f52bf3916004808301926020929190829003018186803b158015612d0b57600080fd5b505afa158015612d1f573d6000803e3d6000fd5b505050506040513d6020811015612d3557600080fd5b505161ffff169050612d47838361301e565b6001811115612d5f57612d5a83836130f1565b612d6a565b612d6a838384613190565b60005b81811015612a9057612def84866001600160a01b03166319b64015846040518263ffffffff1660e01b81526004018082815260200191505060206040518083038186803b158015612dbd57600080fd5b505afa158015612dd1573d6000803e3d6000fd5b505050506040513d6020811015612de757600080fd5b505185613190565b600101612d6d565b816001600160a01b0316638de6c3eb826040518263ffffffff1660e01b815260040180826001600160a01b03168152602001915050600060405180830381600087803b158015612e4657600080fd5b505af1158015612e5a573d6000803e3d6000fd5b50506040516001600160a01b03841692507fc0a6d303d67b7ed9fa0abae1c48878df32acc0e7ca4334c7dad2bceeee5956fd9150600090a26040516001600160a01b038216907f88881feecdf61136ac4bdb1f681f2f3746a82910263d21ffea94750d2a78c0ab90600090a25050565b816001600160a01b031663ee6a934c826040518263ffffffff1660e01b815260040180826001600160a01b03168152602001915050600060405180830381600087803b158015612f1957600080fd5b505af1158015612f2d573d6000803e3d6000fd5b50506040516001600160a01b03841692507fb893f883ef734b712208a877459424ee509832c57e0461fb1ac99ed4d42f2d899150600090a25050565b826001600160a01b03166336900c1183836040518363ffffffff1660e01b815260040180836001600160a01b03168152602001826001600160a01b0316815260200192505050600060405180830381600087803b158015612fc957600080fd5b505af1158015612fdd573d6000803e3d6000fd5b50506040516001600160a01b038085169350851691507ff2e7cf6d6ed3f77039511409a43d4fa5108f09ab71d72b014380364c910233a590600090a3505050565b816001600160a01b031663ceb9838c826040518263ffffffff1660e01b815260040180826001600160a01b03168152602001915050600060405180830381600087803b15801561306d57600080fd5b505af1158015613081573d6000803e3d6000fd5b50506040516001600160a01b03841692507fbfdf1baaa7e4871111360083540f067050014f651c9e4610a2a4a4bdf8bfab5d9150600090a26040516001600160a01b038216907f2aff63790c7da80d1c50ede92d23bc841c384837735c92c184331f3d7b91e5bf90600090a25050565b816001600160a01b031663ae22107f826040518263ffffffff1660e01b815260040180826001600160a01b03168152602001915050600060405180830381600087803b15801561314057600080fd5b505af1158015613154573d6000803e3d6000fd5b50506040516001600160a01b03841692507f59c3fbcae88f30e9b0e35c132a7f68c53231dffa4722f197c7ecb0ee013eee609150600090a25050565b826001600160a01b031663fba8f03183836040518363ffffffff1660e01b815260040180836001600160a01b03168152602001826001600160a01b0316815260200192505050600060405180830381600087803b1580156131f057600080fd5b505af1158015613204573d6000803e3d6000fd5b50506040516001600160a01b038085169350851691507f9430ad6ff45d6c3e126c7711bf0036bd9bc6b202fa19628abd88e59cf43ced4390600090a350505056fe42616e636f72436f6e7665727465725265676973747279446174610000000000a264697066735822122002763b094dac20f49099befb709a8b7253996ef1e860a2cd361af806815e417164736f6c634300060c0033",
  "immutableReferences": {},
  "source": "// SPDX-License-Identifier: SEE LICENSE IN LICENSE\npragma solidity 0.6.12;\n\nimport \"../utility/ContractRegistryClient.sol\";\nimport \"./interfaces/IConverter.sol\";\nimport \"./interfaces/IConverterFactory.sol\";\nimport \"./interfaces/IConverterRegistry.sol\";\nimport \"./interfaces/IConverterRegistryData.sol\";\nimport \"../token/interfaces/IDSToken.sol\";\n\n/**\n * @dev This contract maintains a list of all active converters in the Bancor Network.\n *\n * Since converters can be upgraded and thus their address can change, the registry actually keeps\n * converter anchors internally and not the converters themselves.\n * The active converter for each anchor can be easily accessed by querying the anchor's owner.\n *\n * The registry exposes 3 different lists that can be accessed and iterated, based on the use-case of the caller:\n * - Anchors - can be used to get all the latest / historical data in the network\n * - Liquidity pools - can be used to get all liquidity pools for funding, liquidation etc.\n * - Convertible tokens - can be used to get all tokens that can be converted in the network (excluding pool\n *   tokens), and for each one - all anchors that hold it in their reserves\n *\n *\n * The contract fires events whenever one of the primitives is added to or removed from the registry\n *\n * The contract is upgradable.\n */\ncontract ConverterRegistry is IConverterRegistry, ContractRegistryClient {\n    uint32 private constant PPM_RESOLUTION = 1000000;\n\n    /**\n     * @dev triggered when a converter anchor is added to the registry\n     *\n     * @param _anchor anchor token\n     */\n    event ConverterAnchorAdded(IConverterAnchor indexed _anchor);\n\n    /**\n     * @dev triggered when a converter anchor is removed from the registry\n     *\n     * @param _anchor anchor token\n     */\n    event ConverterAnchorRemoved(IConverterAnchor indexed _anchor);\n\n    /**\n     * @dev triggered when a liquidity pool is added to the registry\n     *\n     * @param _liquidityPool liquidity pool\n     */\n    event LiquidityPoolAdded(IConverterAnchor indexed _liquidityPool);\n\n    /**\n     * @dev triggered when a liquidity pool is removed from the registry\n     *\n     * @param _liquidityPool liquidity pool\n     */\n    event LiquidityPoolRemoved(IConverterAnchor indexed _liquidityPool);\n\n    /**\n     * @dev triggered when a convertible token is added to the registry\n     *\n     * @param _convertibleToken convertible token\n     * @param _smartToken associated anchor token\n     */\n    event ConvertibleTokenAdded(IERC20 indexed _convertibleToken, IConverterAnchor indexed _smartToken);\n\n    /**\n     * @dev triggered when a convertible token is removed from the registry\n     *\n     * @param _convertibleToken convertible token\n     * @param _smartToken associated anchor token\n     */\n    event ConvertibleTokenRemoved(IERC20 indexed _convertibleToken, IConverterAnchor indexed _smartToken);\n\n    /**\n     * @dev deprecated, backward compatibility, use `ConverterAnchorAdded`\n     */\n    event SmartTokenAdded(IConverterAnchor indexed _smartToken);\n\n    /**\n     * @dev deprecated, backward compatibility, use `ConverterAnchorRemoved`\n     */\n    event SmartTokenRemoved(IConverterAnchor indexed _smartToken);\n\n    /**\n     * @dev initializes a new ConverterRegistry instance\n     *\n     * @param _registry address of a contract registry contract\n     */\n    constructor(IContractRegistry _registry) public ContractRegistryClient(_registry) {}\n\n    /**\n     * @dev creates a zero supply liquid token / empty liquidity pool and adds its converter to the registry\n     *\n     * @param _type                converter type, see ConverterBase contract main doc\n     * @param _name                token / pool name\n     * @param _symbol              token / pool symbol\n     * @param _decimals            token / pool decimals\n     * @param _maxConversionFee    maximum conversion-fee\n     * @param _reserveTokens       reserve tokens\n     * @param _reserveWeights      reserve weights\n     *\n     * @return new converter\n     */\n    function newConverter(\n        uint16 _type,\n        string memory _name,\n        string memory _symbol,\n        uint8 _decimals,\n        uint32 _maxConversionFee,\n        IERC20[] memory _reserveTokens,\n        uint32[] memory _reserveWeights\n    ) public virtual returns (IConverter) {\n        uint256 length = _reserveTokens.length;\n        require(length == _reserveWeights.length, \"ERR_INVALID_RESERVES\");\n\n        // for standard pools, change type 1 to type 3\n        if (_type == 1 && isStandardPool(_reserveWeights)) {\n            _type = 3;\n        }\n\n        require(\n            getLiquidityPoolByConfig(_type, _reserveTokens, _reserveWeights) == IConverterAnchor(0),\n            \"ERR_ALREADY_EXISTS\"\n        );\n\n        IConverterFactory factory = IConverterFactory(addressOf(CONVERTER_FACTORY));\n        IConverterAnchor anchor = IConverterAnchor(factory.createAnchor(_type, _name, _symbol, _decimals));\n        IConverter converter = IConverter(factory.createConverter(_type, anchor, registry, _maxConversionFee));\n\n        anchor.acceptOwnership();\n        converter.acceptOwnership();\n\n        for (uint256 i = 0; i < length; i++) converter.addReserve(_reserveTokens[i], _reserveWeights[i]);\n\n        anchor.transferOwnership(address(converter));\n        converter.acceptAnchorOwnership();\n        converter.transferOwnership(msg.sender);\n\n        addConverterInternal(converter);\n        return converter;\n    }\n\n    /**\n     * @dev adds an existing converter to the registry\n     * can only be called by the owner\n     *\n     * @param _converter converter\n     */\n    function addConverter(IConverter _converter) public ownerOnly {\n        require(isConverterValid(_converter), \"ERR_INVALID_CONVERTER\");\n        addConverterInternal(_converter);\n    }\n\n    /**\n     * @dev removes a converter from the registry\n     * anyone can remove an existing converter from the registry, as long as the converter is invalid\n     * note that the owner can also remove valid converters\n     *\n     * @param _converter converter\n     */\n    function removeConverter(IConverter _converter) public {\n        require(msg.sender == owner || !isConverterValid(_converter), \"ERR_ACCESS_DENIED\");\n        removeConverterInternal(_converter);\n    }\n\n    /**\n     * @dev returns the number of converter anchors in the registry\n     *\n     * @return number of anchors\n     */\n    function getAnchorCount() public view override returns (uint256) {\n        return IConverterRegistryData(addressOf(CONVERTER_REGISTRY_DATA)).getSmartTokenCount();\n    }\n\n    /**\n     * @dev returns the list of converter anchors in the registry\n     *\n     * @return list of anchors\n     */\n    function getAnchors() public view override returns (address[] memory) {\n        return IConverterRegistryData(addressOf(CONVERTER_REGISTRY_DATA)).getSmartTokens();\n    }\n\n    /**\n     * @dev returns the converter anchor at a given index\n     *\n     * @param _index index\n     * @return anchor at the given index\n     */\n    function getAnchor(uint256 _index) public view override returns (IConverterAnchor) {\n        return IConverterRegistryData(addressOf(CONVERTER_REGISTRY_DATA)).getSmartToken(_index);\n    }\n\n    /**\n     * @dev checks whether or not a given value is a converter anchor\n     *\n     * @param _value value\n     * @return true if the given value is an anchor, false if not\n     */\n    function isAnchor(address _value) public view override returns (bool) {\n        return IConverterRegistryData(addressOf(CONVERTER_REGISTRY_DATA)).isSmartToken(_value);\n    }\n\n    /**\n     * @dev returns the number of liquidity pools in the registry\n     *\n     * @return number of liquidity pools\n     */\n    function getLiquidityPoolCount() public view override returns (uint256) {\n        return IConverterRegistryData(addressOf(CONVERTER_REGISTRY_DATA)).getLiquidityPoolCount();\n    }\n\n    /**\n     * @dev returns the list of liquidity pools in the registry\n     *\n     * @return list of liquidity pools\n     */\n    function getLiquidityPools() public view override returns (address[] memory) {\n        return IConverterRegistryData(addressOf(CONVERTER_REGISTRY_DATA)).getLiquidityPools();\n    }\n\n    /**\n     * @dev returns the liquidity pool at a given index\n     *\n     * @param _index index\n     * @return liquidity pool at the given index\n     */\n    function getLiquidityPool(uint256 _index) public view override returns (IConverterAnchor) {\n        return IConverterRegistryData(addressOf(CONVERTER_REGISTRY_DATA)).getLiquidityPool(_index);\n    }\n\n    /**\n     * @dev checks whether or not a given value is a liquidity pool\n     *\n     * @param _value value\n     * @return true if the given value is a liquidity pool, false if not\n     */\n    function isLiquidityPool(address _value) public view override returns (bool) {\n        return IConverterRegistryData(addressOf(CONVERTER_REGISTRY_DATA)).isLiquidityPool(_value);\n    }\n\n    /**\n     * @dev returns the number of convertible tokens in the registry\n     *\n     * @return number of convertible tokens\n     */\n    function getConvertibleTokenCount() public view override returns (uint256) {\n        return IConverterRegistryData(addressOf(CONVERTER_REGISTRY_DATA)).getConvertibleTokenCount();\n    }\n\n    /**\n     * @dev returns the list of convertible tokens in the registry\n     *\n     * @return list of convertible tokens\n     */\n    function getConvertibleTokens() public view override returns (address[] memory) {\n        return IConverterRegistryData(addressOf(CONVERTER_REGISTRY_DATA)).getConvertibleTokens();\n    }\n\n    /**\n     * @dev returns the convertible token at a given index\n     *\n     * @param _index index\n     * @return convertible token at the given index\n     */\n    function getConvertibleToken(uint256 _index) public view override returns (IERC20) {\n        return IConverterRegistryData(addressOf(CONVERTER_REGISTRY_DATA)).getConvertibleToken(_index);\n    }\n\n    /**\n     * @dev checks whether or not a given value is a convertible token\n     *\n     * @param _value value\n     * @return true if the given value is a convertible token, false if not\n     */\n    function isConvertibleToken(address _value) public view override returns (bool) {\n        return IConverterRegistryData(addressOf(CONVERTER_REGISTRY_DATA)).isConvertibleToken(_value);\n    }\n\n    /**\n     * @dev returns the number of converter anchors associated with a given convertible token\n     *\n     * @param _convertibleToken convertible token\n     * @return number of anchors associated with the given convertible token\n     */\n    function getConvertibleTokenAnchorCount(IERC20 _convertibleToken) public view override returns (uint256) {\n        return\n            IConverterRegistryData(addressOf(CONVERTER_REGISTRY_DATA)).getConvertibleTokenSmartTokenCount(\n                _convertibleToken\n            );\n    }\n\n    /**\n     * @dev returns the list of aoncerter anchors associated with a given convertible token\n     *\n     * @param _convertibleToken convertible token\n     * @return list of anchors associated with the given convertible token\n     */\n    function getConvertibleTokenAnchors(IERC20 _convertibleToken) public view override returns (address[] memory) {\n        return\n            IConverterRegistryData(addressOf(CONVERTER_REGISTRY_DATA)).getConvertibleTokenSmartTokens(\n                _convertibleToken\n            );\n    }\n\n    /**\n     * @dev returns the converter anchor associated with a given convertible token at a given index\n     *\n     * @param _index index\n     * @return anchor associated with the given convertible token at the given index\n     */\n    function getConvertibleTokenAnchor(IERC20 _convertibleToken, uint256 _index)\n        public\n        view\n        override\n        returns (IConverterAnchor)\n    {\n        return\n            IConverterRegistryData(addressOf(CONVERTER_REGISTRY_DATA)).getConvertibleTokenSmartToken(\n                _convertibleToken,\n                _index\n            );\n    }\n\n    /**\n     * @dev checks whether or not a given value is a converter anchor of a given convertible token\n     *\n     * @param _convertibleToken convertible token\n     * @param _value value\n     * @return true if the given value is an anchor of the given convertible token, false if not\n     */\n    function isConvertibleTokenAnchor(IERC20 _convertibleToken, address _value) public view override returns (bool) {\n        return\n            IConverterRegistryData(addressOf(CONVERTER_REGISTRY_DATA)).isConvertibleTokenSmartToken(\n                _convertibleToken,\n                _value\n            );\n    }\n\n    /**\n     * @dev returns a list of converters for a given list of anchors\n     * this is a utility function that can be used to reduce the number of calls to the contract\n     *\n     * @param _anchors list of converter anchors\n     * @return list of converters\n     */\n    function getConvertersByAnchors(address[] memory _anchors) public view returns (IConverter[] memory) {\n        IConverter[] memory converters = new IConverter[](_anchors.length);\n\n        for (uint256 i = 0; i < _anchors.length; i++)\n            converters[i] = IConverter(payable(IConverterAnchor(_anchors[i]).owner()));\n\n        return converters;\n    }\n\n    /**\n     * @dev checks whether or not a given converter is valid\n     *\n     * @param _converter converter\n     * @return true if the given converter is valid, false if not\n     */\n    function isConverterValid(IConverter _converter) public view returns (bool) {\n        // verify that the converter is active\n        return _converter.token().owner() == address(_converter);\n    }\n\n    /**\n     * @dev checks if a liquidity pool with given configuration is already registered\n     *\n     * @param _converter converter with specific configuration\n     * @return if a liquidity pool with the same configuration is already registered\n     */\n    function isSimilarLiquidityPoolRegistered(IConverter _converter) public view returns (bool) {\n        uint256 reserveTokenCount = _converter.connectorTokenCount();\n        IERC20[] memory reserveTokens = new IERC20[](reserveTokenCount);\n        uint32[] memory reserveWeights = new uint32[](reserveTokenCount);\n\n        // get the reserve-configuration of the converter\n        for (uint256 i = 0; i < reserveTokenCount; i++) {\n            IERC20 reserveToken = _converter.connectorTokens(i);\n            reserveTokens[i] = reserveToken;\n            reserveWeights[i] = getReserveWeight(_converter, reserveToken);\n        }\n\n        // return if a liquidity pool with the same configuration is already registered\n        return\n            getLiquidityPoolByConfig(getConverterType(_converter, reserveTokenCount), reserveTokens, reserveWeights) !=\n            IConverterAnchor(0);\n    }\n\n    /**\n     * @dev searches for a liquidity pool with specific configuration\n     *\n     * @param _type            converter type, see ConverterBase contract main doc\n     * @param _reserveTokens   reserve tokens\n     * @param _reserveWeights  reserve weights\n     * @return the liquidity pool, or zero if no such liquidity pool exists\n     */\n    function getLiquidityPoolByConfig(\n        uint16 _type,\n        IERC20[] memory _reserveTokens,\n        uint32[] memory _reserveWeights\n    ) public view returns (IConverterAnchor) {\n        // verify that the input parameters represent a valid liquidity pool\n        if (_reserveTokens.length == _reserveWeights.length && _reserveTokens.length > 1) {\n            // get the anchors of the least frequent token (optimization)\n            address[] memory convertibleTokenAnchors = getLeastFrequentTokenAnchors(_reserveTokens);\n            // search for a converter with the same configuration\n            for (uint256 i = 0; i < convertibleTokenAnchors.length; i++) {\n                IConverterAnchor anchor = IConverterAnchor(convertibleTokenAnchors[i]);\n                IConverter converter = IConverter(payable(anchor.owner()));\n                if (isConverterReserveConfigEqual(converter, _type, _reserveTokens, _reserveWeights)) return anchor;\n            }\n        }\n\n        return IConverterAnchor(0);\n    }\n\n    /**\n     * @dev adds a converter anchor to the registry\n     *\n     * @param _anchor converter anchor\n     */\n    function addAnchor(IConverterRegistryData _converterRegistryData, IConverterAnchor _anchor) internal {\n        _converterRegistryData.addSmartToken(_anchor);\n        emit ConverterAnchorAdded(_anchor);\n        emit SmartTokenAdded(_anchor);\n    }\n\n    /**\n     * @dev removes a converter anchor from the registry\n     *\n     * @param _anchor converter anchor\n     */\n    function removeAnchor(IConverterRegistryData _converterRegistryData, IConverterAnchor _anchor) internal {\n        _converterRegistryData.removeSmartToken(_anchor);\n        emit ConverterAnchorRemoved(_anchor);\n        emit SmartTokenRemoved(_anchor);\n    }\n\n    /**\n     * @dev adds a liquidity pool to the registry\n     *\n     * @param _liquidityPoolAnchor liquidity pool converter anchor\n     */\n    function addLiquidityPool(IConverterRegistryData _converterRegistryData, IConverterAnchor _liquidityPoolAnchor)\n        internal\n    {\n        _converterRegistryData.addLiquidityPool(_liquidityPoolAnchor);\n        emit LiquidityPoolAdded(_liquidityPoolAnchor);\n    }\n\n    /**\n     * @dev removes a liquidity pool from the registry\n     *\n     * @param _liquidityPoolAnchor liquidity pool converter anchor\n     */\n    function removeLiquidityPool(IConverterRegistryData _converterRegistryData, IConverterAnchor _liquidityPoolAnchor)\n        internal\n    {\n        _converterRegistryData.removeLiquidityPool(_liquidityPoolAnchor);\n        emit LiquidityPoolRemoved(_liquidityPoolAnchor);\n    }\n\n    /**\n     * @dev adds a convertible token to the registry\n     *\n     * @param _convertibleToken    convertible token\n     * @param _anchor              associated converter anchor\n     */\n    function addConvertibleToken(\n        IConverterRegistryData _converterRegistryData,\n        IERC20 _convertibleToken,\n        IConverterAnchor _anchor\n    ) internal {\n        _converterRegistryData.addConvertibleToken(_convertibleToken, _anchor);\n        emit ConvertibleTokenAdded(_convertibleToken, _anchor);\n    }\n\n    /**\n     * @dev removes a convertible token from the registry\n     *\n     * @param _convertibleToken    convertible token\n     * @param _anchor              associated converter anchor\n     */\n    function removeConvertibleToken(\n        IConverterRegistryData _converterRegistryData,\n        IERC20 _convertibleToken,\n        IConverterAnchor _anchor\n    ) internal {\n        _converterRegistryData.removeConvertibleToken(_convertibleToken, _anchor);\n        emit ConvertibleTokenRemoved(_convertibleToken, _anchor);\n    }\n\n    /**\n     * @dev checks whether or not a given configuration depicts a standard pool\n     *\n     * @param _reserveWeights  reserve weights\n     *\n     * @return true if the given configuration depicts a standard pool, false otherwise\n     */\n    function isStandardPool(uint32[] memory _reserveWeights) internal view virtual returns (bool) {\n        this; // silent state mutability warning without generating additional bytecode\n        return\n            _reserveWeights.length == 2 &&\n            _reserveWeights[0] == PPM_RESOLUTION / 2 &&\n            _reserveWeights[1] == PPM_RESOLUTION / 2;\n    }\n\n    function addConverterInternal(IConverter _converter) private {\n        IConverterRegistryData converterRegistryData = IConverterRegistryData(addressOf(CONVERTER_REGISTRY_DATA));\n        IConverterAnchor anchor = IConverter(_converter).token();\n        uint256 reserveTokenCount = _converter.connectorTokenCount();\n\n        // add the converter anchor\n        addAnchor(converterRegistryData, anchor);\n        if (reserveTokenCount > 1) addLiquidityPool(converterRegistryData, anchor);\n        else addConvertibleToken(converterRegistryData, IDSToken(address(anchor)), anchor);\n\n        // add all reserve tokens\n        for (uint256 i = 0; i < reserveTokenCount; i++)\n            addConvertibleToken(converterRegistryData, _converter.connectorTokens(i), anchor);\n    }\n\n    function removeConverterInternal(IConverter _converter) private {\n        IConverterRegistryData converterRegistryData = IConverterRegistryData(addressOf(CONVERTER_REGISTRY_DATA));\n        IConverterAnchor anchor = IConverter(_converter).token();\n        uint256 reserveTokenCount = _converter.connectorTokenCount();\n\n        // remove the converter anchor\n        removeAnchor(converterRegistryData, anchor);\n        if (reserveTokenCount > 1) removeLiquidityPool(converterRegistryData, anchor);\n        else removeConvertibleToken(converterRegistryData, IDSToken(address(anchor)), anchor);\n\n        // remove all reserve tokens\n        for (uint256 i = 0; i < reserveTokenCount; i++)\n            removeConvertibleToken(converterRegistryData, _converter.connectorTokens(i), anchor);\n    }\n\n    function getLeastFrequentTokenAnchors(IERC20[] memory _reserveTokens) private view returns (address[] memory) {\n        IConverterRegistryData converterRegistryData = IConverterRegistryData(addressOf(CONVERTER_REGISTRY_DATA));\n        uint256 minAnchorCount = converterRegistryData.getConvertibleTokenSmartTokenCount(_reserveTokens[0]);\n        uint256 index = 0;\n\n        // find the reserve token which has the smallest number of converter anchors\n        for (uint256 i = 1; i < _reserveTokens.length; i++) {\n            uint256 convertibleTokenAnchorCount =\n                converterRegistryData.getConvertibleTokenSmartTokenCount(_reserveTokens[i]);\n            if (minAnchorCount > convertibleTokenAnchorCount) {\n                minAnchorCount = convertibleTokenAnchorCount;\n                index = i;\n            }\n        }\n\n        return converterRegistryData.getConvertibleTokenSmartTokens(_reserveTokens[index]);\n    }\n\n    function isConverterReserveConfigEqual(\n        IConverter _converter,\n        uint16 _type,\n        IERC20[] memory _reserveTokens,\n        uint32[] memory _reserveWeights\n    ) private view returns (bool) {\n        uint256 reserveTokenCount = _converter.connectorTokenCount();\n\n        if (_type != getConverterType(_converter, reserveTokenCount)) return false;\n\n        if (_reserveTokens.length != reserveTokenCount) return false;\n\n        for (uint256 i = 0; i < _reserveTokens.length; i++) {\n            if (_reserveWeights[i] != getReserveWeight(_converter, _reserveTokens[i])) return false;\n        }\n\n        return true;\n    }\n\n    // utility to get the reserve weight (including from older converters that don't support the new getReserveWeight function)\n    function getReserveWeight(IConverter _converter, IERC20 _reserveToken) private view returns (uint32) {\n        (, uint32 weight, , , ) = _converter.connectors(_reserveToken);\n        return weight;\n    }\n\n    bytes4 private constant CONVERTER_TYPE_FUNC_SELECTOR = bytes4(keccak256(\"converterType()\"));\n\n    // utility to get the converter type (including from older converters that don't support the new converterType function)\n    function getConverterType(IConverter _converter, uint256 _reserveTokenCount) private view returns (uint16) {\n        (bool success, bytes memory returnData) =\n            address(_converter).staticcall(abi.encodeWithSelector(CONVERTER_TYPE_FUNC_SELECTOR));\n        if (success && returnData.length == 32) return abi.decode(returnData, (uint16));\n        return _reserveTokenCount > 1 ? 1 : 0;\n    }\n\n    /**\n     * @dev deprecated, backward compatibility, use `getAnchorCount`\n     */\n    function getSmartTokenCount() public view returns (uint256) {\n        return getAnchorCount();\n    }\n\n    /**\n     * @dev deprecated, backward compatibility, use `getAnchors`\n     */\n    function getSmartTokens() public view returns (address[] memory) {\n        return getAnchors();\n    }\n\n    /**\n     * @dev deprecated, backward compatibility, use `getAnchor`\n     */\n    function getSmartToken(uint256 _index) public view returns (IConverterAnchor) {\n        return getAnchor(_index);\n    }\n\n    /**\n     * @dev deprecated, backward compatibility, use `isAnchor`\n     */\n    function isSmartToken(address _value) public view returns (bool) {\n        return isAnchor(_value);\n    }\n\n    /**\n     * @dev deprecated, backward compatibility, use `getConvertibleTokenAnchorCount`\n     */\n    function getConvertibleTokenSmartTokenCount(IERC20 _convertibleToken) public view returns (uint256) {\n        return getConvertibleTokenAnchorCount(_convertibleToken);\n    }\n\n    /**\n     * @dev deprecated, backward compatibility, use `getConvertibleTokenAnchors`\n     */\n    function getConvertibleTokenSmartTokens(IERC20 _convertibleToken) public view returns (address[] memory) {\n        return getConvertibleTokenAnchors(_convertibleToken);\n    }\n\n    /**\n     * @dev deprecated, backward compatibility, use `getConvertibleTokenAnchor`\n     */\n    function getConvertibleTokenSmartToken(IERC20 _convertibleToken, uint256 _index)\n        public\n        view\n        returns (IConverterAnchor)\n    {\n        return getConvertibleTokenAnchor(_convertibleToken, _index);\n    }\n\n    /**\n     * @dev deprecated, backward compatibility, use `isConvertibleTokenAnchor`\n     */\n    function isConvertibleTokenSmartToken(IERC20 _convertibleToken, address _value) public view returns (bool) {\n        return isConvertibleTokenAnchor(_convertibleToken, _value);\n    }\n\n    /**\n     * @dev deprecated, backward compatibility, use `getConvertersByAnchors`\n     */\n    function getConvertersBySmartTokens(address[] memory _smartTokens) public view returns (IConverter[] memory) {\n        return getConvertersByAnchors(_smartTokens);\n    }\n\n    /**\n     * @dev deprecated, backward compatibility, use `getLiquidityPoolByConfig`\n     */\n    function getLiquidityPoolByReserveConfig(IERC20[] memory _reserveTokens, uint32[] memory _reserveWeights)\n        public\n        view\n        returns (IConverterAnchor)\n    {\n        return getLiquidityPoolByConfig(_reserveTokens.length > 1 ? 1 : 0, _reserveTokens, _reserveWeights);\n    }\n}\n",
  "sourcePath": "/Users/dennismacpro/Projects/Defi/Ethereum-Solidity-Collection/icarus-protocol/defi-seeder/.tmp/bancor/contracts-solidity/solidity/contracts/converter/ConverterRegistry.sol",
  "compiler": {
    "name": "solc",
    "version": "0.6.12+commit.27d51765.Emscripten.clang"
  },
  "schemaVersion": "3.3.3",
  "updatedAt": "2021-04-01T18:17:51.933Z",
  "devdoc": {
    "details": "This contract maintains a list of all active converters in the Bancor Network. Since converters can be upgraded and thus their address can change, the registry actually keeps converter anchors internally and not the converters themselves. The active converter for each anchor can be easily accessed by querying the anchor's owner. The registry exposes 3 different lists that can be accessed and iterated, based on the use-case of the caller: - Anchors - can be used to get all the latest / historical data in the network - Liquidity pools - can be used to get all liquidity pools for funding, liquidation etc. - Convertible tokens - can be used to get all tokens that can be converted in the network (excluding pool   tokens), and for each one - all anchors that hold it in their reserves The contract fires events whenever one of the primitives is added to or removed from the registry The contract is upgradable.",
    "events": {
      "ConverterAnchorAdded(address)": {
        "details": "triggered when a converter anchor is added to the registry",
        "params": {
          "_anchor": "anchor token"
        }
      },
      "ConverterAnchorRemoved(address)": {
        "details": "triggered when a converter anchor is removed from the registry",
        "params": {
          "_anchor": "anchor token"
        }
      },
      "ConvertibleTokenAdded(address,address)": {
        "details": "triggered when a convertible token is added to the registry",
        "params": {
          "_convertibleToken": "convertible token",
          "_smartToken": "associated anchor token"
        }
      },
      "ConvertibleTokenRemoved(address,address)": {
        "details": "triggered when a convertible token is removed from the registry",
        "params": {
          "_convertibleToken": "convertible token",
          "_smartToken": "associated anchor token"
        }
      },
      "LiquidityPoolAdded(address)": {
        "details": "triggered when a liquidity pool is added to the registry",
        "params": {
          "_liquidityPool": "liquidity pool"
        }
      },
      "LiquidityPoolRemoved(address)": {
        "details": "triggered when a liquidity pool is removed from the registry",
        "params": {
          "_liquidityPool": "liquidity pool"
        }
      },
      "SmartTokenAdded(address)": {
        "details": "deprecated, backward compatibility, use `ConverterAnchorAdded`"
      },
      "SmartTokenRemoved(address)": {
        "details": "deprecated, backward compatibility, use `ConverterAnchorRemoved`"
      }
    },
    "kind": "dev",
    "methods": {
      "acceptOwnership()": {
        "details": "used by a new owner to accept an ownership transfer"
      },
      "addConverter(address)": {
        "details": "adds an existing converter to the registry can only be called by the owner",
        "params": {
          "_converter": "converter"
        }
      },
      "constructor": {
        "details": "initializes a new ConverterRegistry instance",
        "params": {
          "_registry": "address of a contract registry contract"
        }
      },
      "getAnchor(uint256)": {
        "details": "returns the converter anchor at a given index",
        "params": {
          "_index": "index"
        },
        "returns": {
          "_0": "anchor at the given index"
        }
      },
      "getAnchorCount()": {
        "details": "returns the number of converter anchors in the registry",
        "returns": {
          "_0": "number of anchors"
        }
      },
      "getAnchors()": {
        "details": "returns the list of converter anchors in the registry",
        "returns": {
          "_0": "list of anchors"
        }
      },
      "getConvertersByAnchors(address[])": {
        "details": "returns a list of converters for a given list of anchors this is a utility function that can be used to reduce the number of calls to the contract",
        "params": {
          "_anchors": "list of converter anchors"
        },
        "returns": {
          "_0": "list of converters"
        }
      },
      "getConvertersBySmartTokens(address[])": {
        "details": "deprecated, backward compatibility, use `getConvertersByAnchors`"
      },
      "getConvertibleToken(uint256)": {
        "details": "returns the convertible token at a given index",
        "params": {
          "_index": "index"
        },
        "returns": {
          "_0": "convertible token at the given index"
        }
      },
      "getConvertibleTokenAnchor(address,uint256)": {
        "details": "returns the converter anchor associated with a given convertible token at a given index",
        "params": {
          "_index": "index"
        },
        "returns": {
          "_0": "anchor associated with the given convertible token at the given index"
        }
      },
      "getConvertibleTokenAnchorCount(address)": {
        "details": "returns the number of converter anchors associated with a given convertible token",
        "params": {
          "_convertibleToken": "convertible token"
        },
        "returns": {
          "_0": "number of anchors associated with the given convertible token"
        }
      },
      "getConvertibleTokenAnchors(address)": {
        "details": "returns the list of aoncerter anchors associated with a given convertible token",
        "params": {
          "_convertibleToken": "convertible token"
        },
        "returns": {
          "_0": "list of anchors associated with the given convertible token"
        }
      },
      "getConvertibleTokenCount()": {
        "details": "returns the number of convertible tokens in the registry",
        "returns": {
          "_0": "number of convertible tokens"
        }
      },
      "getConvertibleTokenSmartToken(address,uint256)": {
        "details": "deprecated, backward compatibility, use `getConvertibleTokenAnchor`"
      },
      "getConvertibleTokenSmartTokenCount(address)": {
        "details": "deprecated, backward compatibility, use `getConvertibleTokenAnchorCount`"
      },
      "getConvertibleTokenSmartTokens(address)": {
        "details": "deprecated, backward compatibility, use `getConvertibleTokenAnchors`"
      },
      "getConvertibleTokens()": {
        "details": "returns the list of convertible tokens in the registry",
        "returns": {
          "_0": "list of convertible tokens"
        }
      },
      "getLiquidityPool(uint256)": {
        "details": "returns the liquidity pool at a given index",
        "params": {
          "_index": "index"
        },
        "returns": {
          "_0": "liquidity pool at the given index"
        }
      },
      "getLiquidityPoolByConfig(uint16,address[],uint32[])": {
        "details": "searches for a liquidity pool with specific configuration",
        "params": {
          "_reserveTokens": "reserve tokens",
          "_reserveWeights": "reserve weights",
          "_type": "converter type, see ConverterBase contract main doc"
        },
        "returns": {
          "_0": "the liquidity pool, or zero if no such liquidity pool exists"
        }
      },
      "getLiquidityPoolByReserveConfig(address[],uint32[])": {
        "details": "deprecated, backward compatibility, use `getLiquidityPoolByConfig`"
      },
      "getLiquidityPoolCount()": {
        "details": "returns the number of liquidity pools in the registry",
        "returns": {
          "_0": "number of liquidity pools"
        }
      },
      "getLiquidityPools()": {
        "details": "returns the list of liquidity pools in the registry",
        "returns": {
          "_0": "list of liquidity pools"
        }
      },
      "getSmartToken(uint256)": {
        "details": "deprecated, backward compatibility, use `getAnchor`"
      },
      "getSmartTokenCount()": {
        "details": "deprecated, backward compatibility, use `getAnchorCount`"
      },
      "getSmartTokens()": {
        "details": "deprecated, backward compatibility, use `getAnchors`"
      },
      "isAnchor(address)": {
        "details": "checks whether or not a given value is a converter anchor",
        "params": {
          "_value": "value"
        },
        "returns": {
          "_0": "true if the given value is an anchor, false if not"
        }
      },
      "isConverterValid(address)": {
        "details": "checks whether or not a given converter is valid",
        "params": {
          "_converter": "converter"
        },
        "returns": {
          "_0": "true if the given converter is valid, false if not"
        }
      },
      "isConvertibleToken(address)": {
        "details": "checks whether or not a given value is a convertible token",
        "params": {
          "_value": "value"
        },
        "returns": {
          "_0": "true if the given value is a convertible token, false if not"
        }
      },
      "isConvertibleTokenAnchor(address,address)": {
        "details": "checks whether or not a given value is a converter anchor of a given convertible token",
        "params": {
          "_convertibleToken": "convertible token",
          "_value": "value"
        },
        "returns": {
          "_0": "true if the given value is an anchor of the given convertible token, false if not"
        }
      },
      "isConvertibleTokenSmartToken(address,address)": {
        "details": "deprecated, backward compatibility, use `isConvertibleTokenAnchor`"
      },
      "isLiquidityPool(address)": {
        "details": "checks whether or not a given value is a liquidity pool",
        "params": {
          "_value": "value"
        },
        "returns": {
          "_0": "true if the given value is a liquidity pool, false if not"
        }
      },
      "isSimilarLiquidityPoolRegistered(address)": {
        "details": "checks if a liquidity pool with given configuration is already registered",
        "params": {
          "_converter": "converter with specific configuration"
        },
        "returns": {
          "_0": "if a liquidity pool with the same configuration is already registered"
        }
      },
      "isSmartToken(address)": {
        "details": "deprecated, backward compatibility, use `isAnchor`"
      },
      "newConverter(uint16,string,string,uint8,uint32,address[],uint32[])": {
        "details": "creates a zero supply liquid token / empty liquidity pool and adds its converter to the registry",
        "params": {
          "_decimals": "token / pool decimals",
          "_maxConversionFee": "maximum conversion-fee",
          "_name": "token / pool name",
          "_reserveTokens": "reserve tokens",
          "_reserveWeights": "reserve weights",
          "_symbol": "token / pool symbol",
          "_type": "converter type, see ConverterBase contract main doc"
        },
        "returns": {
          "_0": "new converter"
        }
      },
      "removeConverter(address)": {
        "details": "removes a converter from the registry anyone can remove an existing converter from the registry, as long as the converter is invalid note that the owner can also remove valid converters",
        "params": {
          "_converter": "converter"
        }
      },
      "restoreRegistry()": {
        "details": "restores the previous contract-registry"
      },
      "restrictRegistryUpdate(bool)": {
        "details": "restricts the permission to update the contract-registry",
        "params": {
          "_onlyOwnerCanUpdateRegistry": "indicates whether or not permission is restricted to owner only"
        }
      },
      "transferOwnership(address)": {
        "details": "allows transferring the contract ownership the new owner still needs to accept the transfer can only be called by the contract owner",
        "params": {
          "_newOwner": "new contract owner"
        }
      },
      "updateRegistry()": {
        "details": "updates to the new contract-registry"
      }
    },
    "version": 1
  },
  "userdoc": {
    "kind": "user",
    "methods": {},
    "version": 1
  }
}