{
  "contractName": "ConverterRegistryData",
  "abi": [
    {
      "inputs": [
        {
          "internalType": "contract IContractRegistry",
          "name": "_registry",
          "type": "address"
        }
      ],
      "stateMutability": "nonpayable",
      "type": "constructor"
    },
    {
      "anonymous": false,
      "inputs": [
        {
          "indexed": true,
          "internalType": "address",
          "name": "_prevOwner",
          "type": "address"
        },
        {
          "indexed": true,
          "internalType": "address",
          "name": "_newOwner",
          "type": "address"
        }
      ],
      "name": "OwnerUpdate",
      "type": "event"
    },
    {
      "inputs": [],
      "name": "acceptOwnership",
      "outputs": [],
      "stateMutability": "nonpayable",
      "type": "function"
    },
    {
      "inputs": [],
      "name": "newOwner",
      "outputs": [
        {
          "internalType": "address",
          "name": "",
          "type": "address"
        }
      ],
      "stateMutability": "view",
      "type": "function"
    },
    {
      "inputs": [],
      "name": "onlyOwnerCanUpdateRegistry",
      "outputs": [
        {
          "internalType": "bool",
          "name": "",
          "type": "bool"
        }
      ],
      "stateMutability": "view",
      "type": "function"
    },
    {
      "inputs": [],
      "name": "owner",
      "outputs": [
        {
          "internalType": "address",
          "name": "",
          "type": "address"
        }
      ],
      "stateMutability": "view",
      "type": "function"
    },
    {
      "inputs": [],
      "name": "prevRegistry",
      "outputs": [
        {
          "internalType": "contract IContractRegistry",
          "name": "",
          "type": "address"
        }
      ],
      "stateMutability": "view",
      "type": "function"
    },
    {
      "inputs": [],
      "name": "registry",
      "outputs": [
        {
          "internalType": "contract IContractRegistry",
          "name": "",
          "type": "address"
        }
      ],
      "stateMutability": "view",
      "type": "function"
    },
    {
      "inputs": [],
      "name": "restoreRegistry",
      "outputs": [],
      "stateMutability": "nonpayable",
      "type": "function"
    },
    {
      "inputs": [
        {
          "internalType": "bool",
          "name": "_onlyOwnerCanUpdateRegistry",
          "type": "bool"
        }
      ],
      "name": "restrictRegistryUpdate",
      "outputs": [],
      "stateMutability": "nonpayable",
      "type": "function"
    },
    {
      "inputs": [
        {
          "internalType": "address",
          "name": "_newOwner",
          "type": "address"
        }
      ],
      "name": "transferOwnership",
      "outputs": [],
      "stateMutability": "nonpayable",
      "type": "function"
    },
    {
      "inputs": [],
      "name": "updateRegistry",
      "outputs": [],
      "stateMutability": "nonpayable",
      "type": "function"
    },
    {
      "inputs": [
        {
          "internalType": "contract IConverterAnchor",
          "name": "_anchor",
          "type": "address"
        }
      ],
      "name": "addSmartToken",
      "outputs": [],
      "stateMutability": "nonpayable",
      "type": "function"
    },
    {
      "inputs": [
        {
          "internalType": "contract IConverterAnchor",
          "name": "_anchor",
          "type": "address"
        }
      ],
      "name": "removeSmartToken",
      "outputs": [],
      "stateMutability": "nonpayable",
      "type": "function"
    },
    {
      "inputs": [
        {
          "internalType": "contract IConverterAnchor",
          "name": "_liquidityPoolAnchor",
          "type": "address"
        }
      ],
      "name": "addLiquidityPool",
      "outputs": [],
      "stateMutability": "nonpayable",
      "type": "function"
    },
    {
      "inputs": [
        {
          "internalType": "contract IConverterAnchor",
          "name": "_liquidityPoolAnchor",
          "type": "address"
        }
      ],
      "name": "removeLiquidityPool",
      "outputs": [],
      "stateMutability": "nonpayable",
      "type": "function"
    },
    {
      "inputs": [
        {
          "internalType": "contract IERC20",
          "name": "_convertibleToken",
          "type": "address"
        },
        {
          "internalType": "contract IConverterAnchor",
          "name": "_anchor",
          "type": "address"
        }
      ],
      "name": "addConvertibleToken",
      "outputs": [],
      "stateMutability": "nonpayable",
      "type": "function"
    },
    {
      "inputs": [
        {
          "internalType": "contract IERC20",
          "name": "_convertibleToken",
          "type": "address"
        },
        {
          "internalType": "contract IConverterAnchor",
          "name": "_anchor",
          "type": "address"
        }
      ],
      "name": "removeConvertibleToken",
      "outputs": [],
      "stateMutability": "nonpayable",
      "type": "function"
    },
    {
      "inputs": [],
      "name": "getSmartTokenCount",
      "outputs": [
        {
          "internalType": "uint256",
          "name": "",
          "type": "uint256"
        }
      ],
      "stateMutability": "view",
      "type": "function"
    },
    {
      "inputs": [],
      "name": "getSmartTokens",
      "outputs": [
        {
          "internalType": "address[]",
          "name": "",
          "type": "address[]"
        }
      ],
      "stateMutability": "view",
      "type": "function"
    },
    {
      "inputs": [
        {
          "internalType": "uint256",
          "name": "_index",
          "type": "uint256"
        }
      ],
      "name": "getSmartToken",
      "outputs": [
        {
          "internalType": "contract IConverterAnchor",
          "name": "",
          "type": "address"
        }
      ],
      "stateMutability": "view",
      "type": "function"
    },
    {
      "inputs": [
        {
          "internalType": "address",
          "name": "_value",
          "type": "address"
        }
      ],
      "name": "isSmartToken",
      "outputs": [
        {
          "internalType": "bool",
          "name": "",
          "type": "bool"
        }
      ],
      "stateMutability": "view",
      "type": "function"
    },
    {
      "inputs": [],
      "name": "getLiquidityPoolCount",
      "outputs": [
        {
          "internalType": "uint256",
          "name": "",
          "type": "uint256"
        }
      ],
      "stateMutability": "view",
      "type": "function"
    },
    {
      "inputs": [],
      "name": "getLiquidityPools",
      "outputs": [
        {
          "internalType": "address[]",
          "name": "",
          "type": "address[]"
        }
      ],
      "stateMutability": "view",
      "type": "function"
    },
    {
      "inputs": [
        {
          "internalType": "uint256",
          "name": "_index",
          "type": "uint256"
        }
      ],
      "name": "getLiquidityPool",
      "outputs": [
        {
          "internalType": "contract IConverterAnchor",
          "name": "",
          "type": "address"
        }
      ],
      "stateMutability": "view",
      "type": "function"
    },
    {
      "inputs": [
        {
          "internalType": "address",
          "name": "_value",
          "type": "address"
        }
      ],
      "name": "isLiquidityPool",
      "outputs": [
        {
          "internalType": "bool",
          "name": "",
          "type": "bool"
        }
      ],
      "stateMutability": "view",
      "type": "function"
    },
    {
      "inputs": [],
      "name": "getConvertibleTokenCount",
      "outputs": [
        {
          "internalType": "uint256",
          "name": "",
          "type": "uint256"
        }
      ],
      "stateMutability": "view",
      "type": "function"
    },
    {
      "inputs": [],
      "name": "getConvertibleTokens",
      "outputs": [
        {
          "internalType": "address[]",
          "name": "",
          "type": "address[]"
        }
      ],
      "stateMutability": "view",
      "type": "function"
    },
    {
      "inputs": [
        {
          "internalType": "uint256",
          "name": "_index",
          "type": "uint256"
        }
      ],
      "name": "getConvertibleToken",
      "outputs": [
        {
          "internalType": "contract IERC20",
          "name": "",
          "type": "address"
        }
      ],
      "stateMutability": "view",
      "type": "function"
    },
    {
      "inputs": [
        {
          "internalType": "address",
          "name": "_value",
          "type": "address"
        }
      ],
      "name": "isConvertibleToken",
      "outputs": [
        {
          "internalType": "bool",
          "name": "",
          "type": "bool"
        }
      ],
      "stateMutability": "view",
      "type": "function"
    },
    {
      "inputs": [
        {
          "internalType": "contract IERC20",
          "name": "_convertibleToken",
          "type": "address"
        }
      ],
      "name": "getConvertibleTokenSmartTokenCount",
      "outputs": [
        {
          "internalType": "uint256",
          "name": "",
          "type": "uint256"
        }
      ],
      "stateMutability": "view",
      "type": "function"
    },
    {
      "inputs": [
        {
          "internalType": "contract IERC20",
          "name": "_convertibleToken",
          "type": "address"
        }
      ],
      "name": "getConvertibleTokenSmartTokens",
      "outputs": [
        {
          "internalType": "address[]",
          "name": "",
          "type": "address[]"
        }
      ],
      "stateMutability": "view",
      "type": "function"
    },
    {
      "inputs": [
        {
          "internalType": "contract IERC20",
          "name": "_convertibleToken",
          "type": "address"
        },
        {
          "internalType": "uint256",
          "name": "_index",
          "type": "uint256"
        }
      ],
      "name": "getConvertibleTokenSmartToken",
      "outputs": [
        {
          "internalType": "contract IConverterAnchor",
          "name": "",
          "type": "address"
        }
      ],
      "stateMutability": "view",
      "type": "function"
    },
    {
      "inputs": [
        {
          "internalType": "contract IERC20",
          "name": "_convertibleToken",
          "type": "address"
        },
        {
          "internalType": "address",
          "name": "_value",
          "type": "address"
        }
      ],
      "name": "isConvertibleTokenSmartToken",
      "outputs": [
        {
          "internalType": "bool",
          "name": "",
          "type": "bool"
        }
      ],
      "stateMutability": "view",
      "type": "function"
    }
  ],
  "bytecode": "0x608060405234801561001057600080fd5b506040516113c43803806113c48339818101604052602081101561003357600080fd5b5051600080546001600160a01b03191633179055808061005281610083565b50600280546001600160a01b039092166001600160a01b0319928316811790915560038054909216179055506100e1565b6001600160a01b0381166100de576040805162461bcd60e51b815260206004820152601360248201527f4552525f494e56414c49445f4144445245535300000000000000000000000000604482015290519081900360640190fd5b50565b6112d4806100f06000396000f3fe608060405234801561001057600080fd5b50600436106101f05760003560e01c80638da5cb5b1161010f578063d4ee1d90116100a2578063ee6a934c11610071578063ee6a934c14610501578063f2fde38b14610527578063f4fb86c01461054d578063fba8f03114610573576101f0565b8063d4ee1d901461049f578063d6c4b5b2146104a7578063e571049b146104d3578063e85455d7146104db576101f0565b8063a74498aa116100de578063a74498aa1461042e578063ae22107f1461044b578063b4a176d314610471578063ceb9838c14610479576101f0565b80638da5cb5b146103bd5780638de6c3eb146103c5578063a109d214146103eb578063a43d5e9414610408576101f0565b806361cd756e116101875780637a5f0ffd116101565780637a5f0ffd146103885780637b103999146103905780637f45c4c314610398578063865cf194146103a0576101f0565b806361cd756e1461031457806369be478414610338578063725b87861461035257806379ba509714610380576101f0565b80633ab8857c116101c35780633ab8857c146102b85780634123ef60146102de57806349d10b64146103045780635f1b50fe1461030c576101f0565b8063024c7ec7146101f557806304ceaf41146102165780632fe8a6ad1461026e57806336900c111461028a575b600080fd5b6102146004803603602081101561020b57600080fd5b503515156105a1565b005b61021e6105c7565b60408051602080825283518183015283519192839290830191858101910280838360005b8381101561025a578181015183820152602001610242565b505050509050019250505060405180910390f35b61027661062c565b604080519115158252519081900360200190f35b610214600480360360408110156102a057600080fd5b506001600160a01b038135811691602001351661063c565b610276600480360360208110156102ce57600080fd5b50356001600160a01b03166106d7565b610276600480360360208110156102f457600080fd5b50356001600160a01b03166106f7565b610214610715565b61021e61091d565b61031c610980565b604080516001600160a01b039092168252519081900360200190f35b61034061098f565b60408051918252519081900360200190f35b6102766004803603604081101561036857600080fd5b506001600160a01b0381358116916020013516610995565b6102146109c7565b610340610a7e565b61031c610a84565b61021e610a93565b61031c600480360360208110156103b657600080fd5b5035610af6565b61031c610b23565b610214600480360360208110156103db57600080fd5b50356001600160a01b0316610b32565b61031c6004803603602081101561040157600080fd5b5035610b59565b6103406004803603602081101561041e57600080fd5b50356001600160a01b0316610b6b565b61031c6004803603602081101561044457600080fd5b5035610b89565b6102146004803603602081101561046157600080fd5b50356001600160a01b0316610b9b565b610214610bbe565b6102146004803603602081101561048f57600080fd5b50356001600160a01b0316610bea565b61031c610c0d565b61031c600480360360408110156104bd57600080fd5b506001600160a01b038135169060200135610c1c565b610340610c5f565b610276600480360360208110156104f157600080fd5b50356001600160a01b0316610c65565b6102146004803603602081101561051757600080fd5b50356001600160a01b0316610c83565b6102146004803603602081101561053d57600080fd5b50356001600160a01b0316610ca6565b61021e6004803603602081101561056357600080fd5b50356001600160a01b0316610d24565b6102146004803603604081101561058957600080fd5b506001600160a01b0381358116916020013516610d9d565b6105a9610ec3565b60038054911515600160a01b0260ff60a01b19909216919091179055565b6060600460000180548060200260200160405190810160405280929190818152602001828054801561062257602002820191906000526020600020905b81546001600160a01b03168152600190910190602001808311610604575b5050505050905090565b600354600160a01b900460ff1681565b60008051602061127f83398151915261065481610f18565b6001600160a01b038316600090815260096020526040902060018101546106c457600880548083556001810182556000919091527ff3f7a9fe364faab93b216da50a3214154f22a0a2b415b23a84c8169e8b636ee30180546001600160a01b0319166001600160a01b0386161790555b6106d18160010184610f7d565b50505050565b6001600160a01b0316600090815260096020526040902060010154151590565b6001600160a01b031660009081526005602052604090205460ff1690565b6000546001600160a01b03163314806107385750600354600160a01b900460ff16155b61077d576040805162461bcd60e51b815260206004820152601160248201527011549497d050d0d154d4d7d11153925151607a1b604482015290519081900360640190fd5b600061079b6f436f6e7472616374526567697374727960801b611032565b6002549091506001600160a01b038083169116148015906107c457506001600160a01b03811615155b61080c576040805162461bcd60e51b81526020600482015260146024820152734552525f494e56414c49445f524547495354525960601b604482015290519081900360640190fd5b60006001600160a01b0316816001600160a01b031663bb34534c6f436f6e7472616374526567697374727960801b6040518263ffffffff1660e01b81526004018082815260200191505060206040518083038186803b15801561086e57600080fd5b505afa158015610882573d6000803e3d6000fd5b505050506040513d602081101561089857600080fd5b50516001600160a01b031614156108ed576040805162461bcd60e51b81526020600482015260146024820152734552525f494e56414c49445f524547495354525960601b604482015290519081900360640190fd5b60028054600380546001600160a01b038084166001600160a01b0319928316179092559091169216919091179055565b60606008600001805480602002602001604051908101604052809291908181526020018280548015610622576020028201919060005260206000209081546001600160a01b03168152600190910190602001808311610604575050505050905090565b6003546001600160a01b031681565b60085490565b6001600160a01b0391821660009081526009602090815260408083209390941682526002909201909152205460ff1690565b6001546001600160a01b03163314610a1a576040805162461bcd60e51b815260206004820152601160248201527011549497d050d0d154d4d7d11153925151607a1b604482015290519081900360640190fd5b600154600080546040516001600160a01b0393841693909116917f343765429aea5a34b3ff6a3785a98a5abb2597aca87bfbb58632c173d585373a91a360018054600080546001600160a01b03199081166001600160a01b03841617909155169055565b60065490565b6002546001600160a01b031681565b60606006600001805480602002602001604051908101604052809291908181526020018280548015610622576020028201919060005260206000209081546001600160a01b03168152600190910190602001808311610604575050505050905090565b600060086000018281548110610b0857fe5b6000918252602090912001546001600160a01b031692915050565b6000546001600160a01b031681565b60008051602061127f833981519152610b4a81610f18565b610b55600483610f7d565b5050565b600060046000018281548110610b0857fe5b6001600160a01b031660009081526009602052604090206001015490565b600060066000018281548110610b0857fe5b60008051602061127f833981519152610bb381610f18565b610b556006836110b0565b610bc6610ec3565b600354600280546001600160a01b0319166001600160a01b03909216919091179055565b60008051602061127f833981519152610c0281610f18565b610b556004836110b0565b6001546001600160a01b031681565b6001600160a01b0382166000908152600960205260408120600101805483908110610c4357fe5b6000918252602090912001546001600160a01b03169392505050565b60045490565b6001600160a01b031660009081526007602052604090205460ff1690565b60008051602061127f833981519152610c9b81610f18565b610b55600683610f7d565b610cae610ec3565b6000546001600160a01b0382811691161415610d02576040805162461bcd60e51b815260206004820152600e60248201526d22a9292fa9a0a6a2afa7aba722a960911b604482015290519081900360640190fd5b600180546001600160a01b0319166001600160a01b0392909216919091179055565b6001600160a01b038116600090815260096020908152604091829020600101805483518184028101840190945280845260609392830182828015610d9157602002820191906000526020600020905b81546001600160a01b03168152600190910190602001808311610d73575b50505050509050919050565b60008051602061127f833981519152610db581610f18565b6001600160a01b0383166000908152600960205260409020610dda60018201846110b0565b60018101546106d15760088054600091906000198101908110610df957fe5b600091825260208083209091015484546001600160a01b039091168084526009909252604090922082905560088054919350839290918110610e3757fe5b600091825260209091200180546001600160a01b0319166001600160a01b03929092169190911790556008805480610e6b57fe5b60008281526020808220830160001990810180546001600160a01b03191690559092019092556001600160a01b03871682526009905260408120818155906001820181610eb8828261124c565b505050505050505050565b6000546001600160a01b03163314610f16576040805162461bcd60e51b815260206004820152601160248201527011549497d050d0d154d4d7d11153925151607a1b604482015290519081900360640190fd5b565b610f2181611032565b6001600160a01b0316336001600160a01b031614610f7a576040805162461bcd60e51b815260206004820152601160248201527011549497d050d0d154d4d7d11153925151607a1b604482015290519081900360640190fd5b50565b80610f87816111fb565b6001600160a01b03821660009081526001840160205260409020805460ff1615610feb576040805162461bcd60e51b815260206004820152601060248201526f4552525f494e56414c49445f4954454d60801b604482015290519081900360640190fd5b835460018281018290558082018655600095865260209095200180546001600160a01b0319166001600160a01b03949094169390931790925550805460ff19169091179055565b60025460408051632ecd14d360e21b81526004810184905290516000926001600160a01b03169163bb34534c916024808301926020929190829003018186803b15801561107e57600080fd5b505afa158015611092573d6000803e3d6000fd5b505050506040513d60208110156110a857600080fd5b505192915050565b806110ba816111fb565b6001600160a01b03821660009081526001840160205260409020805460ff1661111d576040805162461bcd60e51b815260206004820152601060248201526f4552525f494e56414c49445f4954454d60801b604482015290519081900360640190fd5b83546000908590600019810190811061113257fe5b60009182526020808320909101546001858101546001600160a01b039092168085528982019093526040909320909201829055865490925082918791811061117657fe5b600091825260209091200180546001600160a01b0319166001600160a01b039290921691909117905584548590806111aa57fe5b60008281526020808220830160001990810180546001600160a01b03191690559092019092556001600160a01b039590951681526001958601909452505060408220805460ff191681559092015550565b6001600160a01b038116610f7a576040805162461bcd60e51b81526020600482015260136024820152724552525f494e56414c49445f4144445245535360681b604482015290519081900360640190fd5b5080546000825590600052602060002090810190610f7a91905b8082111561127a5760008155600101611266565b509056fe42616e636f72436f6e7665727465725265676973747279000000000000000000a26469706673582212200508f9cac08310f1ca56a567e01c9cccc3d9362b84696da96a67da8995b9222464736f6c634300060c0033",
  "immutableReferences": {},
  "source": "// SPDX-License-Identifier: SEE LICENSE IN LICENSE\npragma solidity 0.6.12;\nimport \"../utility/ContractRegistryClient.sol\";\nimport \"./interfaces/IConverterRegistryData.sol\";\n\n/**\n * @dev This contract is an integral part of the converter registry,\n * and it serves as the database contract that holds all registry data.\n *\n * The registry is separated into two different contracts for upgradeability - the data contract\n * is harder to upgrade as it requires migrating all registry data into a new contract, while\n * the registry contract itself can be easily upgraded.\n *\n * For that same reason, the data contract is simple and contains no logic beyond the basic data\n * access utilities that it exposes.\n */\ncontract ConverterRegistryData is IConverterRegistryData, ContractRegistryClient {\n    struct Item {\n        bool valid;\n        uint256 index;\n    }\n\n    struct Items {\n        address[] array;\n        mapping(address => Item) table;\n    }\n\n    struct List {\n        uint256 index;\n        Items items;\n    }\n\n    struct Lists {\n        address[] array;\n        mapping(address => List) table;\n    }\n\n    Items private anchors;\n    Items private liquidityPools;\n    Lists private convertibleTokens;\n\n    /**\n     * @dev initializes a new ConverterRegistryData instance\n     *\n     * @param _registry address of a contract registry contract\n     */\n    constructor(IContractRegistry _registry) public ContractRegistryClient(_registry) {}\n\n    /**\n     * @dev adds an anchor\n     *\n     * @param _anchor anchor\n     */\n    function addSmartToken(IConverterAnchor _anchor) external override only(CONVERTER_REGISTRY) {\n        addItem(anchors, address(_anchor));\n    }\n\n    /**\n     * @dev removes an anchor\n     *\n     * @param _anchor anchor\n     */\n    function removeSmartToken(IConverterAnchor _anchor) external override only(CONVERTER_REGISTRY) {\n        removeItem(anchors, address(_anchor));\n    }\n\n    /**\n     * @dev adds a liquidity pool\n     *\n     * @param _liquidityPoolAnchor liquidity pool\n     */\n    function addLiquidityPool(IConverterAnchor _liquidityPoolAnchor) external override only(CONVERTER_REGISTRY) {\n        addItem(liquidityPools, address(_liquidityPoolAnchor));\n    }\n\n    /**\n     * @dev removes a liquidity pool\n     *\n     * @param _liquidityPoolAnchor liquidity pool\n     */\n    function removeLiquidityPool(IConverterAnchor _liquidityPoolAnchor) external override only(CONVERTER_REGISTRY) {\n        removeItem(liquidityPools, address(_liquidityPoolAnchor));\n    }\n\n    /**\n     * @dev adds a convertible token\n     *\n     * @param _convertibleToken    convertible token\n     * @param _anchor              associated anchor\n     */\n    function addConvertibleToken(IERC20 _convertibleToken, IConverterAnchor _anchor)\n        external\n        override\n        only(CONVERTER_REGISTRY)\n    {\n        List storage list = convertibleTokens.table[address(_convertibleToken)];\n        if (list.items.array.length == 0) {\n            list.index = convertibleTokens.array.length;\n            convertibleTokens.array.push(address(_convertibleToken));\n        }\n        addItem(list.items, address(_anchor));\n    }\n\n    /**\n     * @dev removes a convertible token\n     *\n     * @param _convertibleToken    convertible token\n     * @param _anchor              associated anchor\n     */\n    function removeConvertibleToken(IERC20 _convertibleToken, IConverterAnchor _anchor)\n        external\n        override\n        only(CONVERTER_REGISTRY)\n    {\n        List storage list = convertibleTokens.table[address(_convertibleToken)];\n        removeItem(list.items, address(_anchor));\n        if (list.items.array.length == 0) {\n            address lastConvertibleToken = convertibleTokens.array[convertibleTokens.array.length - 1];\n            convertibleTokens.table[lastConvertibleToken].index = list.index;\n            convertibleTokens.array[list.index] = lastConvertibleToken;\n            convertibleTokens.array.pop();\n            delete convertibleTokens.table[address(_convertibleToken)];\n        }\n    }\n\n    /**\n     * @dev returns the number of anchors\n     *\n     * @return number of anchors\n     */\n    function getSmartTokenCount() external view override returns (uint256) {\n        return anchors.array.length;\n    }\n\n    /**\n     * @dev returns the list of anchors\n     *\n     * @return list of anchors\n     */\n    function getSmartTokens() external view override returns (address[] memory) {\n        return anchors.array;\n    }\n\n    /**\n     * @dev returns the anchor at a given index\n     *\n     * @param _index index\n     * @return anchor at the given index\n     */\n    function getSmartToken(uint256 _index) external view override returns (IConverterAnchor) {\n        return IConverterAnchor(anchors.array[_index]);\n    }\n\n    /**\n     * @dev checks whether or not a given value is an anchor\n     *\n     * @param _value value\n     * @return true if the given value is an anchor, false if not\n     */\n    function isSmartToken(address _value) external view override returns (bool) {\n        return anchors.table[_value].valid;\n    }\n\n    /**\n     * @dev returns the number of liquidity pools\n     *\n     * @return number of liquidity pools\n     */\n    function getLiquidityPoolCount() external view override returns (uint256) {\n        return liquidityPools.array.length;\n    }\n\n    /**\n     * @dev returns the list of liquidity pools\n     *\n     * @return list of liquidity pools\n     */\n    function getLiquidityPools() external view override returns (address[] memory) {\n        return liquidityPools.array;\n    }\n\n    /**\n     * @dev returns the liquidity pool at a given index\n     *\n     * @param _index index\n     * @return liquidity pool at the given index\n     */\n    function getLiquidityPool(uint256 _index) external view override returns (IConverterAnchor) {\n        return IConverterAnchor(liquidityPools.array[_index]);\n    }\n\n    /**\n     * @dev checks whether or not a given value is a liquidity pool\n     *\n     * @param _value value\n     * @return true if the given value is a liquidity pool, false if not\n     */\n    function isLiquidityPool(address _value) external view override returns (bool) {\n        return liquidityPools.table[_value].valid;\n    }\n\n    /**\n     * @dev returns the number of convertible tokens\n     *\n     * @return number of convertible tokens\n     */\n    function getConvertibleTokenCount() external view override returns (uint256) {\n        return convertibleTokens.array.length;\n    }\n\n    /**\n     * @dev returns the list of convertible tokens\n     *\n     * @return list of convertible tokens\n     */\n    function getConvertibleTokens() external view override returns (address[] memory) {\n        return convertibleTokens.array;\n    }\n\n    /**\n     * @dev returns the convertible token at a given index\n     *\n     * @param _index index\n     * @return convertible token at the given index\n     */\n    function getConvertibleToken(uint256 _index) external view override returns (IERC20) {\n        return IERC20(convertibleTokens.array[_index]);\n    }\n\n    /**\n     * @dev checks whether or not a given value is a convertible token\n     *\n     * @param _value value\n     * @return true if the given value is a convertible token, false if not\n     */\n    function isConvertibleToken(address _value) external view override returns (bool) {\n        return convertibleTokens.table[_value].items.array.length > 0;\n    }\n\n    /**\n     * @dev returns the number of anchors associated with a given convertible token\n     *\n     * @param _convertibleToken convertible token\n     * @return number of anchors\n     */\n    function getConvertibleTokenSmartTokenCount(IERC20 _convertibleToken) external view override returns (uint256) {\n        return convertibleTokens.table[address(_convertibleToken)].items.array.length;\n    }\n\n    /**\n     * @dev returns the list of anchors associated with a given convertible token\n     *\n     * @param _convertibleToken convertible token\n     * @return list of anchors\n     */\n    function getConvertibleTokenSmartTokens(IERC20 _convertibleToken)\n        external\n        view\n        override\n        returns (address[] memory)\n    {\n        return convertibleTokens.table[address(_convertibleToken)].items.array;\n    }\n\n    /**\n     * @dev returns the anchor associated with a given convertible token at a given index\n     *\n     * @param _index index\n     * @return anchor\n     */\n    function getConvertibleTokenSmartToken(IERC20 _convertibleToken, uint256 _index)\n        external\n        view\n        override\n        returns (IConverterAnchor)\n    {\n        return IConverterAnchor(convertibleTokens.table[address(_convertibleToken)].items.array[_index]);\n    }\n\n    /**\n     * @dev checks whether or not a given value is an anchor of a given convertible token\n     *\n     * @param _convertibleToken convertible token\n     * @param _value value\n     * @return true if the given value is an anchor of the given convertible token, false it not\n     */\n    function isConvertibleTokenSmartToken(IERC20 _convertibleToken, address _value)\n        external\n        view\n        override\n        returns (bool)\n    {\n        return convertibleTokens.table[address(_convertibleToken)].items.table[_value].valid;\n    }\n\n    /**\n     * @dev adds an item to a list of items\n     *\n     * @param _items list of items\n     * @param _value item's value\n     */\n    function addItem(Items storage _items, address _value) internal validAddress(_value) {\n        Item storage item = _items.table[_value];\n        require(!item.valid, \"ERR_INVALID_ITEM\");\n\n        item.index = _items.array.length;\n        _items.array.push(_value);\n        item.valid = true;\n    }\n\n    /**\n     * @dev removes an item from a list of items\n     *\n     * @param _items list of items\n     * @param _value item's value\n     */\n    function removeItem(Items storage _items, address _value) internal validAddress(_value) {\n        Item storage item = _items.table[_value];\n        require(item.valid, \"ERR_INVALID_ITEM\");\n\n        address lastValue = _items.array[_items.array.length - 1];\n        _items.table[lastValue].index = item.index;\n        _items.array[item.index] = lastValue;\n        _items.array.pop();\n        delete _items.table[_value];\n    }\n}\n",
  "sourcePath": "/Users/dennismacpro/Projects/Defi/Ethereum-Solidity-Collection/icarus-protocol/defi-seeder/.tmp/bancor/contracts-solidity/solidity/contracts/converter/ConverterRegistryData.sol",
  "compiler": {
    "name": "solc",
    "version": "0.6.12+commit.27d51765.Emscripten.clang"
  },
  "schemaVersion": "3.3.3",
  "updatedAt": "2021-04-01T18:17:51.956Z",
  "devdoc": {
    "details": "This contract is an integral part of the converter registry, and it serves as the database contract that holds all registry data. The registry is separated into two different contracts for upgradeability - the data contract is harder to upgrade as it requires migrating all registry data into a new contract, while the registry contract itself can be easily upgraded. For that same reason, the data contract is simple and contains no logic beyond the basic data access utilities that it exposes.",
    "kind": "dev",
    "methods": {
      "acceptOwnership()": {
        "details": "used by a new owner to accept an ownership transfer"
      },
      "addConvertibleToken(address,address)": {
        "details": "adds a convertible token",
        "params": {
          "_anchor": "associated anchor",
          "_convertibleToken": "convertible token"
        }
      },
      "addLiquidityPool(address)": {
        "details": "adds a liquidity pool",
        "params": {
          "_liquidityPoolAnchor": "liquidity pool"
        }
      },
      "addSmartToken(address)": {
        "details": "adds an anchor",
        "params": {
          "_anchor": "anchor"
        }
      },
      "constructor": {
        "details": "initializes a new ConverterRegistryData instance",
        "params": {
          "_registry": "address of a contract registry contract"
        }
      },
      "getConvertibleToken(uint256)": {
        "details": "returns the convertible token at a given index",
        "params": {
          "_index": "index"
        },
        "returns": {
          "_0": "convertible token at the given index"
        }
      },
      "getConvertibleTokenCount()": {
        "details": "returns the number of convertible tokens",
        "returns": {
          "_0": "number of convertible tokens"
        }
      },
      "getConvertibleTokenSmartToken(address,uint256)": {
        "details": "returns the anchor associated with a given convertible token at a given index",
        "params": {
          "_index": "index"
        },
        "returns": {
          "_0": "anchor"
        }
      },
      "getConvertibleTokenSmartTokenCount(address)": {
        "details": "returns the number of anchors associated with a given convertible token",
        "params": {
          "_convertibleToken": "convertible token"
        },
        "returns": {
          "_0": "number of anchors"
        }
      },
      "getConvertibleTokenSmartTokens(address)": {
        "details": "returns the list of anchors associated with a given convertible token",
        "params": {
          "_convertibleToken": "convertible token"
        },
        "returns": {
          "_0": "list of anchors"
        }
      },
      "getConvertibleTokens()": {
        "details": "returns the list of convertible tokens",
        "returns": {
          "_0": "list of convertible tokens"
        }
      },
      "getLiquidityPool(uint256)": {
        "details": "returns the liquidity pool at a given index",
        "params": {
          "_index": "index"
        },
        "returns": {
          "_0": "liquidity pool at the given index"
        }
      },
      "getLiquidityPoolCount()": {
        "details": "returns the number of liquidity pools",
        "returns": {
          "_0": "number of liquidity pools"
        }
      },
      "getLiquidityPools()": {
        "details": "returns the list of liquidity pools",
        "returns": {
          "_0": "list of liquidity pools"
        }
      },
      "getSmartToken(uint256)": {
        "details": "returns the anchor at a given index",
        "params": {
          "_index": "index"
        },
        "returns": {
          "_0": "anchor at the given index"
        }
      },
      "getSmartTokenCount()": {
        "details": "returns the number of anchors",
        "returns": {
          "_0": "number of anchors"
        }
      },
      "getSmartTokens()": {
        "details": "returns the list of anchors",
        "returns": {
          "_0": "list of anchors"
        }
      },
      "isConvertibleToken(address)": {
        "details": "checks whether or not a given value is a convertible token",
        "params": {
          "_value": "value"
        },
        "returns": {
          "_0": "true if the given value is a convertible token, false if not"
        }
      },
      "isConvertibleTokenSmartToken(address,address)": {
        "details": "checks whether or not a given value is an anchor of a given convertible token",
        "params": {
          "_convertibleToken": "convertible token",
          "_value": "value"
        },
        "returns": {
          "_0": "true if the given value is an anchor of the given convertible token, false it not"
        }
      },
      "isLiquidityPool(address)": {
        "details": "checks whether or not a given value is a liquidity pool",
        "params": {
          "_value": "value"
        },
        "returns": {
          "_0": "true if the given value is a liquidity pool, false if not"
        }
      },
      "isSmartToken(address)": {
        "details": "checks whether or not a given value is an anchor",
        "params": {
          "_value": "value"
        },
        "returns": {
          "_0": "true if the given value is an anchor, false if not"
        }
      },
      "removeConvertibleToken(address,address)": {
        "details": "removes a convertible token",
        "params": {
          "_anchor": "associated anchor",
          "_convertibleToken": "convertible token"
        }
      },
      "removeLiquidityPool(address)": {
        "details": "removes a liquidity pool",
        "params": {
          "_liquidityPoolAnchor": "liquidity pool"
        }
      },
      "removeSmartToken(address)": {
        "details": "removes an anchor",
        "params": {
          "_anchor": "anchor"
        }
      },
      "restoreRegistry()": {
        "details": "restores the previous contract-registry"
      },
      "restrictRegistryUpdate(bool)": {
        "details": "restricts the permission to update the contract-registry",
        "params": {
          "_onlyOwnerCanUpdateRegistry": "indicates whether or not permission is restricted to owner only"
        }
      },
      "transferOwnership(address)": {
        "details": "allows transferring the contract ownership the new owner still needs to accept the transfer can only be called by the contract owner",
        "params": {
          "_newOwner": "new contract owner"
        }
      },
      "updateRegistry()": {
        "details": "updates to the new contract-registry"
      }
    },
    "version": 1
  },
  "userdoc": {
    "kind": "user",
    "methods": {},
    "version": 1
  }
}