{
  "contractName": "ConverterV28OrHigherWithFallback",
  "abi": [
    {
      "stateMutability": "payable",
      "type": "receive"
    },
    {
      "inputs": [],
      "name": "isV28OrHigher",
      "outputs": [
        {
          "internalType": "bool",
          "name": "",
          "type": "bool"
        }
      ],
      "stateMutability": "pure",
      "type": "function"
    }
  ],
  "bytecode": "0x6080604052348015600f57600080fd5b50608e8061001e6000396000f3fe608060405260043610601f5760003560e01c8063d260529c14602d576028565b36602857600080fd5b600080fd5b348015603857600080fd5b50603f6053565b604080519115158252519081900360200190f35b60019056fea2646970667358221220afa74bd2b476089137ee6d1bc92cf2b6eb9becacf30906d6a73009c27f6f40c664736f6c634300060c0033",
  "immutableReferences": {},
  "source": "// SPDX-License-Identifier: SEE LICENSE IN LICENSE\npragma solidity 0.6.12;\nimport \"../BancorNetwork.sol\";\n\ncontract OldConverter {\n    uint256 private amount;\n\n    constructor(uint256 _amount) public {\n        amount = _amount;\n    }\n\n    function getReturn(\n        IERC20 _sourceToken,\n        IERC20 _targetToken,\n        uint256 _amount\n    ) external view returns (uint256) {\n        _sourceToken;\n        _targetToken;\n        _amount;\n        return (amount);\n    }\n}\n\ncontract NewConverter {\n    uint256 private amount;\n    uint256 private fee;\n\n    constructor(uint256 _amount, uint256 _fee) public {\n        amount = _amount;\n        fee = _fee;\n    }\n\n    function getReturn(\n        IERC20 _sourceToken,\n        IERC20 _targetToken,\n        uint256 _amount\n    ) external view returns (uint256, uint256) {\n        _sourceToken;\n        _targetToken;\n        _amount;\n        return (amount, fee);\n    }\n}\n\ncontract ConverterV27OrLowerWithoutFallback {}\n\ncontract ConverterV27OrLowerWithFallback {\n    receive() external payable {}\n}\n\ncontract ConverterV28OrHigherWithoutFallback {\n    function isV28OrHigher() public pure returns (bool) {\n        return true;\n    }\n}\n\ncontract ConverterV28OrHigherWithFallback {\n    function isV28OrHigher() public pure returns (bool) {\n        return true;\n    }\n\n    receive() external payable {\n        revert();\n    }\n}\n\ncontract TestBancorNetwork is BancorNetwork {\n    OldConverter private oldConverter;\n    NewConverter private newConverter;\n\n    constructor(uint256 _amount, uint256 _fee) public BancorNetwork(IContractRegistry(address(1))) {\n        oldConverter = new OldConverter(_amount);\n        newConverter = new NewConverter(_amount, _fee);\n    }\n\n    function isV28OrHigherConverterExternal(IConverter _converter) external view returns (bool) {\n        return super.isV28OrHigherConverter(_converter);\n    }\n\n    function getReturnOld() external view returns (uint256, uint256) {\n        return getReturn(IConverter(payable(address(oldConverter))), IERC20(0), IERC20(0), uint256(0));\n    }\n\n    function getReturnNew() external view returns (uint256, uint256) {\n        return getReturn(IConverter(payable(address(newConverter))), IERC20(0), IERC20(0), uint256(0));\n    }\n}\n",
  "sourcePath": "/Users/dennismacpro/Projects/Defi/Ethereum-Solidity-Collection/icarus-protocol/defi-seeder/.tmp/bancor/contracts-solidity/solidity/contracts/helpers/TestBancorNetwork.sol",
  "compiler": {
    "name": "solc",
    "version": "0.6.12+commit.27d51765.Emscripten.clang"
  },
  "schemaVersion": "3.3.3",
  "updatedAt": "2021-04-01T18:17:52.037Z",
  "devdoc": {
    "kind": "dev",
    "methods": {},
    "version": 1
  },
  "userdoc": {
    "kind": "user",
    "methods": {},
    "version": 1
  }
}