{
  "contractName": "EtherToken",
  "abi": [
    {
      "inputs": [
        {
          "internalType": "string",
          "name": "_name",
          "type": "string"
        },
        {
          "internalType": "string",
          "name": "_symbol",
          "type": "string"
        }
      ],
      "stateMutability": "nonpayable",
      "type": "constructor"
    },
    {
      "anonymous": false,
      "inputs": [
        {
          "indexed": true,
          "internalType": "address",
          "name": "owner",
          "type": "address"
        },
        {
          "indexed": true,
          "internalType": "address",
          "name": "spender",
          "type": "address"
        },
        {
          "indexed": false,
          "internalType": "uint256",
          "name": "value",
          "type": "uint256"
        }
      ],
      "name": "Approval",
      "type": "event"
    },
    {
      "anonymous": false,
      "inputs": [
        {
          "indexed": false,
          "internalType": "uint256",
          "name": "_amount",
          "type": "uint256"
        }
      ],
      "name": "Destruction",
      "type": "event"
    },
    {
      "anonymous": false,
      "inputs": [
        {
          "indexed": false,
          "internalType": "uint256",
          "name": "_amount",
          "type": "uint256"
        }
      ],
      "name": "Issuance",
      "type": "event"
    },
    {
      "anonymous": false,
      "inputs": [
        {
          "indexed": true,
          "internalType": "address",
          "name": "from",
          "type": "address"
        },
        {
          "indexed": true,
          "internalType": "address",
          "name": "to",
          "type": "address"
        },
        {
          "indexed": false,
          "internalType": "uint256",
          "name": "value",
          "type": "uint256"
        }
      ],
      "name": "Transfer",
      "type": "event"
    },
    {
      "inputs": [
        {
          "internalType": "address",
          "name": "owner",
          "type": "address"
        },
        {
          "internalType": "address",
          "name": "spender",
          "type": "address"
        }
      ],
      "name": "allowance",
      "outputs": [
        {
          "internalType": "uint256",
          "name": "",
          "type": "uint256"
        }
      ],
      "stateMutability": "view",
      "type": "function"
    },
    {
      "inputs": [
        {
          "internalType": "address",
          "name": "spender",
          "type": "address"
        },
        {
          "internalType": "uint256",
          "name": "amount",
          "type": "uint256"
        }
      ],
      "name": "approve",
      "outputs": [
        {
          "internalType": "bool",
          "name": "",
          "type": "bool"
        }
      ],
      "stateMutability": "nonpayable",
      "type": "function"
    },
    {
      "inputs": [
        {
          "internalType": "address",
          "name": "account",
          "type": "address"
        }
      ],
      "name": "balanceOf",
      "outputs": [
        {
          "internalType": "uint256",
          "name": "",
          "type": "uint256"
        }
      ],
      "stateMutability": "view",
      "type": "function"
    },
    {
      "inputs": [],
      "name": "decimals",
      "outputs": [
        {
          "internalType": "uint8",
          "name": "",
          "type": "uint8"
        }
      ],
      "stateMutability": "view",
      "type": "function"
    },
    {
      "inputs": [
        {
          "internalType": "address",
          "name": "spender",
          "type": "address"
        },
        {
          "internalType": "uint256",
          "name": "subtractedValue",
          "type": "uint256"
        }
      ],
      "name": "decreaseAllowance",
      "outputs": [
        {
          "internalType": "bool",
          "name": "",
          "type": "bool"
        }
      ],
      "stateMutability": "nonpayable",
      "type": "function"
    },
    {
      "inputs": [
        {
          "internalType": "address",
          "name": "spender",
          "type": "address"
        },
        {
          "internalType": "uint256",
          "name": "addedValue",
          "type": "uint256"
        }
      ],
      "name": "increaseAllowance",
      "outputs": [
        {
          "internalType": "bool",
          "name": "",
          "type": "bool"
        }
      ],
      "stateMutability": "nonpayable",
      "type": "function"
    },
    {
      "inputs": [],
      "name": "name",
      "outputs": [
        {
          "internalType": "string",
          "name": "",
          "type": "string"
        }
      ],
      "stateMutability": "view",
      "type": "function"
    },
    {
      "inputs": [],
      "name": "symbol",
      "outputs": [
        {
          "internalType": "string",
          "name": "",
          "type": "string"
        }
      ],
      "stateMutability": "view",
      "type": "function"
    },
    {
      "inputs": [],
      "name": "totalSupply",
      "outputs": [
        {
          "internalType": "uint256",
          "name": "",
          "type": "uint256"
        }
      ],
      "stateMutability": "view",
      "type": "function"
    },
    {
      "stateMutability": "payable",
      "type": "receive"
    },
    {
      "inputs": [],
      "name": "deposit",
      "outputs": [],
      "stateMutability": "payable",
      "type": "function"
    },
    {
      "inputs": [
        {
          "internalType": "uint256",
          "name": "_amount",
          "type": "uint256"
        }
      ],
      "name": "withdraw",
      "outputs": [],
      "stateMutability": "nonpayable",
      "type": "function"
    },
    {
      "inputs": [
        {
          "internalType": "address",
          "name": "_to",
          "type": "address"
        }
      ],
      "name": "depositTo",
      "outputs": [],
      "stateMutability": "payable",
      "type": "function"
    },
    {
      "inputs": [
        {
          "internalType": "address payable",
          "name": "_to",
          "type": "address"
        },
        {
          "internalType": "uint256",
          "name": "_amount",
          "type": "uint256"
        }
      ],
      "name": "withdrawTo",
      "outputs": [],
      "stateMutability": "nonpayable",
      "type": "function"
    },
    {
      "inputs": [
        {
          "internalType": "address",
          "name": "_to",
          "type": "address"
        },
        {
          "internalType": "uint256",
          "name": "_value",
          "type": "uint256"
        }
      ],
      "name": "transfer",
      "outputs": [
        {
          "internalType": "bool",
          "name": "",
          "type": "bool"
        }
      ],
      "stateMutability": "nonpayable",
      "type": "function"
    },
    {
      "inputs": [
        {
          "internalType": "address",
          "name": "_from",
          "type": "address"
        },
        {
          "internalType": "address",
          "name": "_to",
          "type": "address"
        },
        {
          "internalType": "uint256",
          "name": "_value",
          "type": "uint256"
        }
      ],
      "name": "transferFrom",
      "outputs": [
        {
          "internalType": "bool",
          "name": "",
          "type": "bool"
        }
      ],
      "stateMutability": "nonpayable",
      "type": "function"
    }
  ],
  "bytecode": "0x60806040523480156200001157600080fd5b506040516200121038038062001210833981810160405260408110156200003757600080fd5b81019080805160405193929190846401000000008211156200005857600080fd5b9083019060208201858111156200006e57600080fd5b82516401000000008111828201881017156200008957600080fd5b82525081516020918201929091019080838360005b83811015620000b85781810151838201526020016200009e565b50505050905090810190601f168015620000e65780820380516001836020036101000a031916815260200191505b50604052602001805160405193929190846401000000008211156200010a57600080fd5b9083019060208201858111156200012057600080fd5b82516401000000008111828201881017156200013b57600080fd5b82525081516020918201929091019080838360005b838110156200016a57818101518382015260200162000150565b50505050905090810190601f168015620001985780820380516001836020036101000a031916815260200191505b50604052505082518391508290620001b8906003906020850190620001e7565b508051620001ce906004906020840190620001e7565b50506005805460ff191660121790555062000283915050565b828054600181600116156101000203166002900490600052602060002090601f016020900481019282601f106200022a57805160ff19168380011785556200025a565b828001600101855582156200025a579182015b828111156200025a5782518255916020019190600101906200023d565b50620002689291506200026c565b5090565b5b808211156200026857600081556001016200026d565b610f7d80620002936000396000f3fe6080604052600436106100ec5760003560e01c8063395093511161008a578063a9059cbb11610059578063a9059cbb14610389578063b760faf9146103c2578063d0e30db0146103e8578063dd62ed3e146103f0576100fb565b806339509351146102cf57806370a082311461030857806395d89b411461033b578063a457c2d714610350576100fb565b8063205c2878116100c6578063205c2878146101fe57806323b872dd146102375780632e1a7d4d1461027a578063313ce567146102a4576100fb565b806306fdde0314610100578063095ea7b31461018a57806318160ddd146101d7576100fb565b366100fb576100f961042b565b005b600080fd5b34801561010c57600080fd5b5061011561043d565b6040805160208082528351818301528351919283929083019185019080838360005b8381101561014f578181015183820152602001610137565b50505050905090810190601f16801561017c5780820380516001836020036101000a031916815260200191505b509250505060405180910390f35b34801561019657600080fd5b506101c3600480360360408110156101ad57600080fd5b506001600160a01b0381351690602001356104d3565b604080519115158252519081900360200190f35b3480156101e357600080fd5b506101ec6104f0565b60408051918252519081900360200190f35b34801561020a57600080fd5b506100f96004803603604081101561022157600080fd5b506001600160a01b0381351690602001356104f6565b34801561024357600080fd5b506101c36004803603606081101561025a57600080fd5b506001600160a01b03813581169160208101359091169060400135610580565b34801561028657600080fd5b506100f96004803603602081101561029d57600080fd5b50356105a0565b3480156102b057600080fd5b506102b96105b4565b6040805160ff9092168252519081900360200190f35b3480156102db57600080fd5b506101c3600480360360408110156102f257600080fd5b506001600160a01b0381351690602001356105bd565b34801561031457600080fd5b506101ec6004803603602081101561032b57600080fd5b50356001600160a01b0316610610565b34801561034757600080fd5b5061011561062b565b34801561035c57600080fd5b506101c36004803603604081101561037357600080fd5b506001600160a01b03813516906020013561068c565b34801561039557600080fd5b506101c3600480360360408110156103ac57600080fd5b506001600160a01b0381351690602001356106f4565b6100f9600480360360208110156103d857600080fd5b50356001600160a01b0316610712565b6100f961042b565b3480156103fc57600080fd5b506101ec6004803603604081101561041357600080fd5b506001600160a01b038135811691602001351661075d565b61043b610436610788565b610712565b565b60038054604080516020601f60026000196101006001881615020190951694909404938401819004810282018101909252828152606093909290918301828280156104c95780601f1061049e576101008083540402835291602001916104c9565b820191906000526020600020905b8154815290600101906020018083116104ac57829003601f168201915b5050505050905090565b60006104e76104e0610788565b848461078c565b50600192915050565b60025490565b8161050081610878565b61051161050b610788565b836108cc565b6040516001600160a01b0384169083156108fc029084906000818181858888f19350505050158015610547573d6000803e3d6000fd5b506040805183815290517f9a1b418bc061a5d80270261562e6986a35d995f8051145f277be16103abd34539181900360200190a1505050565b60008261058c81610878565b6105978585856109c8565b95945050505050565b6105b16105ab610788565b826104f6565b50565b60055460ff1690565b60006104e76105ca610788565b8461060b85600160006105db610788565b6001600160a01b03908116825260208083019390935260409182016000908120918c168152925290205490610a4a565b61078c565b6001600160a01b031660009081526020819052604090205490565b60048054604080516020601f60026000196101006001881615020190951694909404938401819004810282018101909252828152606093909290918301828280156104c95780601f1061049e576101008083540402835291602001916104c9565b60006104e7610699610788565b8461060b85604051806060016040528060258152602001610f2360259139600160006106c3610788565b6001600160a01b03908116825260208083019390935260409182016000908120918d16815292529020549190610aab565b60008261070081610878565b61070a8484610b42565b949350505050565b8061071c81610878565b6107268234610b56565b6040805134815290517f9386c90217c323f58030f9dadcbc938f807a940f4ff41cd4cead9562f5da7dc39181900360200190a15050565b6001600160a01b03918216600090815260016020908152604080832093909416825291909152205490565b3390565b6001600160a01b0383166107d15760405162461bcd60e51b8152600401808060200182810382526024815260200180610eff6024913960400191505060405180910390fd5b6001600160a01b0382166108165760405162461bcd60e51b8152600401808060200182810382526022815260200180610e496022913960400191505060405180910390fd5b6001600160a01b03808416600081815260016020908152604080832094871680845294825291829020859055815185815291517f8c5be1e5ebec7d5bd14f71427d1e84f3dd0314c0f7b2291e5b200ac8c7c3b9259281900390910190a3505050565b6001600160a01b0381163014156105b1576040805162461bcd60e51b815260206004820152601360248201527222a9292fa0a2222922a9a9afa4a9afa9a2a62360691b604482015290519081900360640190fd5b6001600160a01b0382166109115760405162461bcd60e51b8152600401808060200182810382526021815260200180610eb96021913960400191505060405180910390fd5b61091d82600083610c46565b61095a81604051806060016040528060228152602001610e27602291396001600160a01b0385166000908152602081905260409020549190610aab565b6001600160a01b0383166000908152602081905260409020556002546109809082610c4b565b6002556040805182815290516000916001600160a01b038516917fddf252ad1be2c89b69c2b068fc378daa952ba7f163c4a11628f55a4df523b3ef9181900360200190a35050565b60006109d5848484610ca8565b610a40846109e1610788565b61060b85604051806060016040528060288152602001610e91602891396001600160a01b038a16600090815260016020526040812090610a1f610788565b6001600160a01b031681526020810191909152604001600020549190610aab565b5060019392505050565b600082820183811015610aa4576040805162461bcd60e51b815260206004820152601b60248201527f536166654d6174683a206164646974696f6e206f766572666c6f770000000000604482015290519081900360640190fd5b9392505050565b60008184841115610b3a5760405162461bcd60e51b81526004018080602001828103825283818151815260200191508051906020019080838360005b83811015610aff578181015183820152602001610ae7565b50505050905090810190601f168015610b2c5780820380516001836020036101000a031916815260200191505b509250505060405180910390fd5b505050900390565b60006104e7610b4f610788565b8484610ca8565b6001600160a01b038216610bb1576040805162461bcd60e51b815260206004820152601f60248201527f45524332303a206d696e7420746f20746865207a65726f206164647265737300604482015290519081900360640190fd5b610bbd60008383610c46565b600254610bca9082610a4a565b6002556001600160a01b038216600090815260208190526040902054610bf09082610a4a565b6001600160a01b0383166000818152602081815260408083209490945583518581529351929391927fddf252ad1be2c89b69c2b068fc378daa952ba7f163c4a11628f55a4df523b3ef9281900390910190a35050565b505050565b600082821115610ca2576040805162461bcd60e51b815260206004820152601e60248201527f536166654d6174683a207375627472616374696f6e206f766572666c6f770000604482015290519081900360640190fd5b50900390565b6001600160a01b038316610ced5760405162461bcd60e51b8152600401808060200182810382526025815260200180610eda6025913960400191505060405180910390fd5b6001600160a01b038216610d325760405162461bcd60e51b8152600401808060200182810382526023815260200180610e046023913960400191505060405180910390fd5b610d3d838383610c46565b610d7a81604051806060016040528060268152602001610e6b602691396001600160a01b0386166000908152602081905260409020549190610aab565b6001600160a01b038085166000908152602081905260408082209390935590841681522054610da99082610a4a565b6001600160a01b038084166000818152602081815260409182902094909455805185815290519193928716927fddf252ad1be2c89b69c2b068fc378daa952ba7f163c4a11628f55a4df523b3ef92918290030190a350505056fe45524332303a207472616e7366657220746f20746865207a65726f206164647265737345524332303a206275726e20616d6f756e7420657863656564732062616c616e636545524332303a20617070726f766520746f20746865207a65726f206164647265737345524332303a207472616e7366657220616d6f756e7420657863656564732062616c616e636545524332303a207472616e7366657220616d6f756e74206578636565647320616c6c6f77616e636545524332303a206275726e2066726f6d20746865207a65726f206164647265737345524332303a207472616e736665722066726f6d20746865207a65726f206164647265737345524332303a20617070726f76652066726f6d20746865207a65726f206164647265737345524332303a2064656372656173656420616c6c6f77616e63652062656c6f77207a65726fa26469706673582212203f4042c2da4caaf5082978be4fe30201b6a7865efb07a330c1874e2ea43bc48364736f6c634300060c0033",
  "immutableReferences": {},
  "source": "// SPDX-License-Identifier: SEE LICENSE IN LICENSE\npragma solidity 0.6.12;\n\nimport \"@openzeppelin/contracts/math/SafeMath.sol\";\nimport \"@openzeppelin/contracts/token/ERC20/ERC20.sol\";\n\nimport \"./interfaces/IEtherToken.sol\";\nimport \"../utility/Utils.sol\";\n\n/**\n * @dev Ether tokenization contract\n */\ncontract EtherToken is IEtherToken, ERC20, Utils {\n    using SafeMath for uint256;\n\n    /**\n     * @dev triggered when the total supply is increased\n     *\n     * @param _amount  amount that gets added to the supply\n     */\n    event Issuance(uint256 _amount);\n\n    /**\n     * @dev triggered when the total supply is decreased\n     *\n     * @param _amount  amount that gets removed from the supply\n     */\n    event Destruction(uint256 _amount);\n\n    /**\n     * @dev initializes a new EtherToken instance\n     *\n     * @param _name        token name\n     * @param _symbol      token symbol\n     */\n    constructor(string memory _name, string memory _symbol) public ERC20(_name, _symbol) {}\n\n    /**\n     * @dev deposit ether on behalf of the sender\n     */\n    function deposit() public payable override {\n        depositTo(_msgSender());\n    }\n\n    /**\n     * @dev withdraw ether to the sender's account\n     *\n     * @param _amount  amount of ether to withdraw\n     */\n    function withdraw(uint256 _amount) public override {\n        withdrawTo(_msgSender(), _amount);\n    }\n\n    /**\n     * @dev deposit ether to be entitled for a given account\n     *\n     * @param _to      account to be entitled for the ether\n     */\n    function depositTo(address _to) public payable override notThis(_to) {\n        _mint(_to, msg.value);\n\n        emit Issuance(msg.value);\n    }\n\n    /**\n     * @dev withdraw ether entitled by the sender to a given account\n     *\n     * @param _to      account to receive the ether\n     * @param _amount  amount of ether to withdraw\n     */\n    function withdrawTo(address payable _to, uint256 _amount) public override notThis(_to) {\n        _burn(_msgSender(), _amount);\n\n        _to.transfer(_amount); // send the amount to the target account\n\n        emit Destruction(_amount);\n    }\n\n    // ERC20 standard method overrides with some extra protection\n\n    /**\n     * @dev send coins\n     * throws on any error rather then return a false flag to minimize user errors\n     *\n     * @param _to      target address\n     * @param _value   transfer amount\n     *\n     * @return true if the transfer was successful, false if it wasn't\n     */\n    function transfer(address _to, uint256 _value) public override(IERC20, ERC20) notThis(_to) returns (bool) {\n        return super.transfer(_to, _value);\n    }\n\n    /**\n     * @dev an account/contract attempts to get the coins\n     * throws on any error rather then return a false flag to minimize user errors\n     *\n     * @param _from    source address\n     * @param _to      target address\n     * @param _value   transfer amount\n     *\n     * @return true if the transfer was successful, false if it wasn't\n     */\n    function transferFrom(\n        address _from,\n        address _to,\n        uint256 _value\n    ) public override(IERC20, ERC20) notThis(_to) returns (bool) {\n        return super.transferFrom(_from, _to, _value);\n    }\n\n    /**\n     * @dev deposit ether in the account\n     */\n    receive() external payable {\n        deposit();\n    }\n}\n",
  "sourcePath": "/Users/dennismacpro/Projects/Defi/Ethereum-Solidity-Collection/icarus-protocol/defi-seeder/.tmp/bancor/contracts-solidity/solidity/contracts/token/EtherToken.sol",
  "compiler": {
    "name": "solc",
    "version": "0.6.12+commit.27d51765.Emscripten.clang"
  },
  "schemaVersion": "3.3.3",
  "updatedAt": "2021-04-01T18:17:52.169Z",
  "devdoc": {
    "details": "Ether tokenization contract",
    "events": {
      "Destruction(uint256)": {
        "details": "triggered when the total supply is decreased",
        "params": {
          "_amount": "amount that gets removed from the supply"
        }
      },
      "Issuance(uint256)": {
        "details": "triggered when the total supply is increased",
        "params": {
          "_amount": "amount that gets added to the supply"
        }
      }
    },
    "kind": "dev",
    "methods": {
      "allowance(address,address)": {
        "details": "See {IERC20-allowance}."
      },
      "approve(address,uint256)": {
        "details": "See {IERC20-approve}. Requirements: - `spender` cannot be the zero address."
      },
      "balanceOf(address)": {
        "details": "See {IERC20-balanceOf}."
      },
      "constructor": {
        "details": "initializes a new EtherToken instance",
        "params": {
          "_name": "token name",
          "_symbol": "token symbol"
        }
      },
      "decimals()": {
        "details": "Returns the number of decimals used to get its user representation. For example, if `decimals` equals `2`, a balance of `505` tokens should be displayed to a user as `5,05` (`505 / 10 ** 2`). Tokens usually opt for a value of 18, imitating the relationship between Ether and Wei. This is the value {ERC20} uses, unless {_setupDecimals} is called. NOTE: This information is only used for _display_ purposes: it in no way affects any of the arithmetic of the contract, including {IERC20-balanceOf} and {IERC20-transfer}."
      },
      "decreaseAllowance(address,uint256)": {
        "details": "Atomically decreases the allowance granted to `spender` by the caller. This is an alternative to {approve} that can be used as a mitigation for problems described in {IERC20-approve}. Emits an {Approval} event indicating the updated allowance. Requirements: - `spender` cannot be the zero address. - `spender` must have allowance for the caller of at least `subtractedValue`."
      },
      "deposit()": {
        "details": "deposit ether on behalf of the sender"
      },
      "depositTo(address)": {
        "details": "deposit ether to be entitled for a given account",
        "params": {
          "_to": "account to be entitled for the ether"
        }
      },
      "increaseAllowance(address,uint256)": {
        "details": "Atomically increases the allowance granted to `spender` by the caller. This is an alternative to {approve} that can be used as a mitigation for problems described in {IERC20-approve}. Emits an {Approval} event indicating the updated allowance. Requirements: - `spender` cannot be the zero address."
      },
      "name()": {
        "details": "Returns the name of the token."
      },
      "symbol()": {
        "details": "Returns the symbol of the token, usually a shorter version of the name."
      },
      "totalSupply()": {
        "details": "See {IERC20-totalSupply}."
      },
      "transfer(address,uint256)": {
        "details": "send coins throws on any error rather then return a false flag to minimize user errors",
        "params": {
          "_to": "target address",
          "_value": "transfer amount"
        },
        "returns": {
          "_0": "true if the transfer was successful, false if it wasn't"
        }
      },
      "transferFrom(address,address,uint256)": {
        "details": "an account/contract attempts to get the coins throws on any error rather then return a false flag to minimize user errors",
        "params": {
          "_from": "source address",
          "_to": "target address",
          "_value": "transfer amount"
        },
        "returns": {
          "_0": "true if the transfer was successful, false if it wasn't"
        }
      },
      "withdraw(uint256)": {
        "details": "withdraw ether to the sender's account",
        "params": {
          "_amount": "amount of ether to withdraw"
        }
      },
      "withdrawTo(address,uint256)": {
        "details": "withdraw ether entitled by the sender to a given account",
        "params": {
          "_amount": "amount of ether to withdraw",
          "_to": "account to receive the ether"
        }
      }
    },
    "version": 1
  },
  "userdoc": {
    "kind": "user",
    "methods": {},
    "version": 1
  }
}