{
  "contractName": "FixedRatePoolConverter",
  "abi": [
    {
      "inputs": [
        {
          "internalType": "contract IConverterAnchor",
          "name": "_anchor",
          "type": "address"
        },
        {
          "internalType": "contract IContractRegistry",
          "name": "_registry",
          "type": "address"
        },
        {
          "internalType": "uint32",
          "name": "_maxConversionFee",
          "type": "uint32"
        }
      ],
      "stateMutability": "nonpayable",
      "type": "constructor"
    },
    {
      "anonymous": false,
      "inputs": [
        {
          "indexed": true,
          "internalType": "uint16",
          "name": "_type",
          "type": "uint16"
        },
        {
          "indexed": true,
          "internalType": "contract IConverterAnchor",
          "name": "_anchor",
          "type": "address"
        },
        {
          "indexed": true,
          "internalType": "bool",
          "name": "_activated",
          "type": "bool"
        }
      ],
      "name": "Activation",
      "type": "event"
    },
    {
      "anonymous": false,
      "inputs": [
        {
          "indexed": true,
          "internalType": "contract IERC20",
          "name": "_fromToken",
          "type": "address"
        },
        {
          "indexed": true,
          "internalType": "contract IERC20",
          "name": "_toToken",
          "type": "address"
        },
        {
          "indexed": true,
          "internalType": "address",
          "name": "_trader",
          "type": "address"
        },
        {
          "indexed": false,
          "internalType": "uint256",
          "name": "_amount",
          "type": "uint256"
        },
        {
          "indexed": false,
          "internalType": "uint256",
          "name": "_return",
          "type": "uint256"
        },
        {
          "indexed": false,
          "internalType": "int256",
          "name": "_conversionFee",
          "type": "int256"
        }
      ],
      "name": "Conversion",
      "type": "event"
    },
    {
      "anonymous": false,
      "inputs": [
        {
          "indexed": false,
          "internalType": "uint32",
          "name": "_prevFee",
          "type": "uint32"
        },
        {
          "indexed": false,
          "internalType": "uint32",
          "name": "_newFee",
          "type": "uint32"
        }
      ],
      "name": "ConversionFeeUpdate",
      "type": "event"
    },
    {
      "anonymous": false,
      "inputs": [
        {
          "indexed": true,
          "internalType": "address",
          "name": "_provider",
          "type": "address"
        },
        {
          "indexed": true,
          "internalType": "contract IERC20",
          "name": "_reserveToken",
          "type": "address"
        },
        {
          "indexed": false,
          "internalType": "uint256",
          "name": "_amount",
          "type": "uint256"
        },
        {
          "indexed": false,
          "internalType": "uint256",
          "name": "_newBalance",
          "type": "uint256"
        },
        {
          "indexed": false,
          "internalType": "uint256",
          "name": "_newSupply",
          "type": "uint256"
        }
      ],
      "name": "LiquidityAdded",
      "type": "event"
    },
    {
      "anonymous": false,
      "inputs": [
        {
          "indexed": true,
          "internalType": "address",
          "name": "_provider",
          "type": "address"
        },
        {
          "indexed": true,
          "internalType": "contract IERC20",
          "name": "_reserveToken",
          "type": "address"
        },
        {
          "indexed": false,
          "internalType": "uint256",
          "name": "_amount",
          "type": "uint256"
        },
        {
          "indexed": false,
          "internalType": "uint256",
          "name": "_newBalance",
          "type": "uint256"
        },
        {
          "indexed": false,
          "internalType": "uint256",
          "name": "_newSupply",
          "type": "uint256"
        }
      ],
      "name": "LiquidityRemoved",
      "type": "event"
    },
    {
      "anonymous": false,
      "inputs": [
        {
          "indexed": true,
          "internalType": "address",
          "name": "_prevOwner",
          "type": "address"
        },
        {
          "indexed": true,
          "internalType": "address",
          "name": "_newOwner",
          "type": "address"
        }
      ],
      "name": "OwnerUpdate",
      "type": "event"
    },
    {
      "anonymous": false,
      "inputs": [
        {
          "indexed": true,
          "internalType": "contract IERC20",
          "name": "_token1",
          "type": "address"
        },
        {
          "indexed": true,
          "internalType": "contract IERC20",
          "name": "_token2",
          "type": "address"
        },
        {
          "indexed": false,
          "internalType": "uint256",
          "name": "_rateN",
          "type": "uint256"
        },
        {
          "indexed": false,
          "internalType": "uint256",
          "name": "_rateD",
          "type": "uint256"
        }
      ],
      "name": "TokenRateUpdate",
      "type": "event"
    },
    {
      "inputs": [],
      "name": "acceptAnchorOwnership",
      "outputs": [],
      "stateMutability": "nonpayable",
      "type": "function"
    },
    {
      "inputs": [],
      "name": "acceptOwnership",
      "outputs": [],
      "stateMutability": "nonpayable",
      "type": "function"
    },
    {
      "inputs": [],
      "name": "acceptTokenOwnership",
      "outputs": [],
      "stateMutability": "nonpayable",
      "type": "function"
    },
    {
      "inputs": [
        {
          "internalType": "uint256",
          "name": "_reserve1Amount",
          "type": "uint256"
        },
        {
          "internalType": "uint256",
          "name": "_reserve2Amount",
          "type": "uint256"
        },
        {
          "internalType": "uint256",
          "name": "_minReturn",
          "type": "uint256"
        }
      ],
      "name": "addLiquidity",
      "outputs": [
        {
          "internalType": "uint256",
          "name": "",
          "type": "uint256"
        }
      ],
      "stateMutability": "payable",
      "type": "function"
    },
    {
      "inputs": [
        {
          "internalType": "contract IERC20[]",
          "name": "_reserveTokens",
          "type": "address[]"
        },
        {
          "internalType": "uint256[]",
          "name": "_reserveAmounts",
          "type": "uint256[]"
        },
        {
          "internalType": "uint256",
          "name": "_minReturn",
          "type": "uint256"
        }
      ],
      "name": "addLiquidity",
      "outputs": [
        {
          "internalType": "uint256",
          "name": "",
          "type": "uint256"
        }
      ],
      "stateMutability": "payable",
      "type": "function"
    },
    {
      "inputs": [
        {
          "internalType": "contract IERC20[]",
          "name": "_reserveTokens",
          "type": "address[]"
        },
        {
          "internalType": "uint256",
          "name": "_reserveTokenIndex",
          "type": "uint256"
        },
        {
          "internalType": "uint256",
          "name": "_reserveAmount",
          "type": "uint256"
        }
      ],
      "name": "addLiquidityCost",
      "outputs": [
        {
          "internalType": "uint256[]",
          "name": "",
          "type": "uint256[]"
        }
      ],
      "stateMutability": "view",
      "type": "function"
    },
    {
      "inputs": [
        {
          "internalType": "contract IERC20",
          "name": "_reserveToken",
          "type": "address"
        },
        {
          "internalType": "uint256",
          "name": "_reserveAmount",
          "type": "uint256"
        }
      ],
      "name": "addLiquidityReturn",
      "outputs": [
        {
          "internalType": "uint256",
          "name": "",
          "type": "uint256"
        }
      ],
      "stateMutability": "view",
      "type": "function"
    },
    {
      "inputs": [
        {
          "internalType": "contract IERC20",
          "name": "_token",
          "type": "address"
        },
        {
          "internalType": "uint32",
          "name": "_weight",
          "type": "uint32"
        }
      ],
      "name": "addReserve",
      "outputs": [],
      "stateMutability": "nonpayable",
      "type": "function"
    },
    {
      "inputs": [],
      "name": "anchor",
      "outputs": [
        {
          "internalType": "contract IConverterAnchor",
          "name": "",
          "type": "address"
        }
      ],
      "stateMutability": "view",
      "type": "function"
    },
    {
      "inputs": [],
      "name": "averageRateInfo",
      "outputs": [
        {
          "internalType": "uint256",
          "name": "",
          "type": "uint256"
        }
      ],
      "stateMutability": "view",
      "type": "function"
    },
    {
      "inputs": [],
      "name": "connectorTokenCount",
      "outputs": [
        {
          "internalType": "uint16",
          "name": "",
          "type": "uint16"
        }
      ],
      "stateMutability": "view",
      "type": "function"
    },
    {
      "inputs": [
        {
          "internalType": "uint256",
          "name": "_index",
          "type": "uint256"
        }
      ],
      "name": "connectorTokens",
      "outputs": [
        {
          "internalType": "contract IERC20",
          "name": "",
          "type": "address"
        }
      ],
      "stateMutability": "view",
      "type": "function"
    },
    {
      "inputs": [
        {
          "internalType": "contract IERC20",
          "name": "_address",
          "type": "address"
        }
      ],
      "name": "connectors",
      "outputs": [
        {
          "internalType": "uint256",
          "name": "",
          "type": "uint256"
        },
        {
          "internalType": "uint32",
          "name": "",
          "type": "uint32"
        },
        {
          "internalType": "bool",
          "name": "",
          "type": "bool"
        },
        {
          "internalType": "bool",
          "name": "",
          "type": "bool"
        },
        {
          "internalType": "bool",
          "name": "",
          "type": "bool"
        }
      ],
      "stateMutability": "view",
      "type": "function"
    },
    {
      "inputs": [],
      "name": "conversionFee",
      "outputs": [
        {
          "internalType": "uint32",
          "name": "",
          "type": "uint32"
        }
      ],
      "stateMutability": "view",
      "type": "function"
    },
    {
      "inputs": [
        {
          "internalType": "contract IERC20",
          "name": "_sourceToken",
          "type": "address"
        },
        {
          "internalType": "contract IERC20",
          "name": "_targetToken",
          "type": "address"
        },
        {
          "internalType": "uint256",
          "name": "_amount",
          "type": "uint256"
        },
        {
          "internalType": "address",
          "name": "_trader",
          "type": "address"
        },
        {
          "internalType": "address payable",
          "name": "_beneficiary",
          "type": "address"
        }
      ],
      "name": "convert",
      "outputs": [
        {
          "internalType": "uint256",
          "name": "",
          "type": "uint256"
        }
      ],
      "stateMutability": "payable",
      "type": "function"
    },
    {
      "inputs": [
        {
          "internalType": "contract IERC20",
          "name": "_connectorToken",
          "type": "address"
        }
      ],
      "name": "getConnectorBalance",
      "outputs": [
        {
          "internalType": "uint256",
          "name": "",
          "type": "uint256"
        }
      ],
      "stateMutability": "view",
      "type": "function"
    },
    {
      "inputs": [
        {
          "internalType": "contract IERC20",
          "name": "_sourceToken",
          "type": "address"
        },
        {
          "internalType": "contract IERC20",
          "name": "_targetToken",
          "type": "address"
        },
        {
          "internalType": "uint256",
          "name": "_amount",
          "type": "uint256"
        }
      ],
      "name": "getReturn",
      "outputs": [
        {
          "internalType": "uint256",
          "name": "",
          "type": "uint256"
        },
        {
          "internalType": "uint256",
          "name": "",
          "type": "uint256"
        }
      ],
      "stateMutability": "view",
      "type": "function"
    },
    {
      "inputs": [],
      "name": "isActive",
      "outputs": [
        {
          "internalType": "bool",
          "name": "",
          "type": "bool"
        }
      ],
      "stateMutability": "view",
      "type": "function"
    },
    {
      "inputs": [],
      "name": "isV28OrHigher",
      "outputs": [
        {
          "internalType": "bool",
          "name": "",
          "type": "bool"
        }
      ],
      "stateMutability": "pure",
      "type": "function"
    },
    {
      "inputs": [],
      "name": "maxConversionFee",
      "outputs": [
        {
          "internalType": "uint32",
          "name": "",
          "type": "uint32"
        }
      ],
      "stateMutability": "view",
      "type": "function"
    },
    {
      "inputs": [],
      "name": "newOwner",
      "outputs": [
        {
          "internalType": "address",
          "name": "",
          "type": "address"
        }
      ],
      "stateMutability": "view",
      "type": "function"
    },
    {
      "inputs": [],
      "name": "onlyOwnerCanUpdateRegistry",
      "outputs": [
        {
          "internalType": "bool",
          "name": "",
          "type": "bool"
        }
      ],
      "stateMutability": "view",
      "type": "function"
    },
    {
      "inputs": [],
      "name": "owner",
      "outputs": [
        {
          "internalType": "address",
          "name": "",
          "type": "address"
        }
      ],
      "stateMutability": "view",
      "type": "function"
    },
    {
      "inputs": [],
      "name": "prevRegistry",
      "outputs": [
        {
          "internalType": "contract IContractRegistry",
          "name": "",
          "type": "address"
        }
      ],
      "stateMutability": "view",
      "type": "function"
    },
    {
      "inputs": [
        {
          "internalType": "contract IERC20",
          "name": "_token",
          "type": "address"
        }
      ],
      "name": "recentAverageRate",
      "outputs": [
        {
          "internalType": "uint256",
          "name": "",
          "type": "uint256"
        },
        {
          "internalType": "uint256",
          "name": "",
          "type": "uint256"
        }
      ],
      "stateMutability": "view",
      "type": "function"
    },
    {
      "inputs": [],
      "name": "registry",
      "outputs": [
        {
          "internalType": "contract IContractRegistry",
          "name": "",
          "type": "address"
        }
      ],
      "stateMutability": "view",
      "type": "function"
    },
    {
      "inputs": [
        {
          "internalType": "uint256",
          "name": "_amount",
          "type": "uint256"
        },
        {
          "internalType": "uint256",
          "name": "_reserve1MinReturn",
          "type": "uint256"
        },
        {
          "internalType": "uint256",
          "name": "_reserve2MinReturn",
          "type": "uint256"
        }
      ],
      "name": "removeLiquidity",
      "outputs": [
        {
          "internalType": "uint256",
          "name": "",
          "type": "uint256"
        },
        {
          "internalType": "uint256",
          "name": "",
          "type": "uint256"
        }
      ],
      "stateMutability": "nonpayable",
      "type": "function"
    },
    {
      "inputs": [
        {
          "internalType": "uint256",
          "name": "_amount",
          "type": "uint256"
        },
        {
          "internalType": "contract IERC20[]",
          "name": "_reserveTokens",
          "type": "address[]"
        },
        {
          "internalType": "uint256[]",
          "name": "_reserveMinReturnAmounts",
          "type": "uint256[]"
        }
      ],
      "name": "removeLiquidity",
      "outputs": [
        {
          "internalType": "uint256[]",
          "name": "",
          "type": "uint256[]"
        }
      ],
      "stateMutability": "nonpayable",
      "type": "function"
    },
    {
      "inputs": [
        {
          "internalType": "uint256",
          "name": "_amount",
          "type": "uint256"
        },
        {
          "internalType": "contract IERC20[]",
          "name": "_reserveTokens",
          "type": "address[]"
        }
      ],
      "name": "removeLiquidityReturn",
      "outputs": [
        {
          "internalType": "uint256[]",
          "name": "",
          "type": "uint256[]"
        }
      ],
      "stateMutability": "view",
      "type": "function"
    },
    {
      "inputs": [
        {
          "internalType": "contract IERC20",
          "name": "_reserveToken",
          "type": "address"
        }
      ],
      "name": "reserveBalance",
      "outputs": [
        {
          "internalType": "uint256",
          "name": "",
          "type": "uint256"
        }
      ],
      "stateMutability": "view",
      "type": "function"
    },
    {
      "inputs": [],
      "name": "reserveBalances",
      "outputs": [
        {
          "internalType": "uint256",
          "name": "",
          "type": "uint256"
        },
        {
          "internalType": "uint256",
          "name": "",
          "type": "uint256"
        }
      ],
      "stateMutability": "view",
      "type": "function"
    },
    {
      "inputs": [],
      "name": "reserveTokenCount",
      "outputs": [
        {
          "internalType": "uint16",
          "name": "",
          "type": "uint16"
        }
      ],
      "stateMutability": "view",
      "type": "function"
    },
    {
      "inputs": [],
      "name": "reserveTokens",
      "outputs": [
        {
          "internalType": "contract IERC20[]",
          "name": "",
          "type": "address[]"
        }
      ],
      "stateMutability": "view",
      "type": "function"
    },
    {
      "inputs": [
        {
          "internalType": "contract IERC20",
          "name": "_reserveToken",
          "type": "address"
        }
      ],
      "name": "reserveWeight",
      "outputs": [
        {
          "internalType": "uint32",
          "name": "",
          "type": "uint32"
        }
      ],
      "stateMutability": "view",
      "type": "function"
    },
    {
      "inputs": [],
      "name": "restoreRegistry",
      "outputs": [],
      "stateMutability": "nonpayable",
      "type": "function"
    },
    {
      "inputs": [
        {
          "internalType": "bool",
          "name": "_onlyOwnerCanUpdateRegistry",
          "type": "bool"
        }
      ],
      "name": "restrictRegistryUpdate",
      "outputs": [],
      "stateMutability": "nonpayable",
      "type": "function"
    },
    {
      "inputs": [
        {
          "internalType": "uint32",
          "name": "_conversionFee",
          "type": "uint32"
        }
      ],
      "name": "setConversionFee",
      "outputs": [],
      "stateMutability": "nonpayable",
      "type": "function"
    },
    {
      "inputs": [],
      "name": "token",
      "outputs": [
        {
          "internalType": "contract IConverterAnchor",
          "name": "",
          "type": "address"
        }
      ],
      "stateMutability": "view",
      "type": "function"
    },
    {
      "inputs": [
        {
          "internalType": "address",
          "name": "_newOwner",
          "type": "address"
        }
      ],
      "name": "transferAnchorOwnership",
      "outputs": [],
      "stateMutability": "nonpayable",
      "type": "function"
    },
    {
      "inputs": [
        {
          "internalType": "address",
          "name": "_newOwner",
          "type": "address"
        }
      ],
      "name": "transferOwnership",
      "outputs": [],
      "stateMutability": "nonpayable",
      "type": "function"
    },
    {
      "inputs": [
        {
          "internalType": "address",
          "name": "_newOwner",
          "type": "address"
        }
      ],
      "name": "transferTokenOwnership",
      "outputs": [],
      "stateMutability": "nonpayable",
      "type": "function"
    },
    {
      "inputs": [],
      "name": "updateRegistry",
      "outputs": [],
      "stateMutability": "nonpayable",
      "type": "function"
    },
    {
      "inputs": [],
      "name": "upgrade",
      "outputs": [],
      "stateMutability": "nonpayable",
      "type": "function"
    },
    {
      "inputs": [],
      "name": "version",
      "outputs": [
        {
          "internalType": "uint16",
          "name": "",
          "type": "uint16"
        }
      ],
      "stateMutability": "view",
      "type": "function"
    },
    {
      "inputs": [
        {
          "internalType": "address payable",
          "name": "_to",
          "type": "address"
        }
      ],
      "name": "withdrawETH",
      "outputs": [],
      "stateMutability": "nonpayable",
      "type": "function"
    },
    {
      "inputs": [
        {
          "internalType": "contract IERC20",
          "name": "_token",
          "type": "address"
        },
        {
          "internalType": "address",
          "name": "_to",
          "type": "address"
        },
        {
          "internalType": "uint256",
          "name": "_amount",
          "type": "uint256"
        }
      ],
      "name": "withdrawTokens",
      "outputs": [],
      "stateMutability": "nonpayable",
      "type": "function"
    },
    {
      "stateMutability": "payable",
      "type": "receive"
    },
    {
      "inputs": [],
      "name": "converterType",
      "outputs": [
        {
          "internalType": "uint16",
          "name": "",
          "type": "uint16"
        }
      ],
      "stateMutability": "pure",
      "type": "function"
    },
    {
      "inputs": [],
      "name": "rate",
      "outputs": [
        {
          "internalType": "uint256",
          "name": "",
          "type": "uint256"
        },
        {
          "internalType": "uint256",
          "name": "",
          "type": "uint256"
        }
      ],
      "stateMutability": "view",
      "type": "function"
    },
    {
      "inputs": [
        {
          "internalType": "uint256",
          "name": "rateN",
          "type": "uint256"
        },
        {
          "internalType": "uint256",
          "name": "rateD",
          "type": "uint256"
        }
      ],
      "name": "setRate",
      "outputs": [],
      "stateMutability": "nonpayable",
      "type": "function"
    },
    {
      "inputs": [
        {
          "internalType": "contract IERC20",
          "name": "_sourceToken",
          "type": "address"
        },
        {
          "internalType": "contract IERC20",
          "name": "_targetToken",
          "type": "address"
        },
        {
          "internalType": "uint256",
          "name": "_amount",
          "type": "uint256"
        }
      ],
      "name": "targetAmountAndFee",
      "outputs": [
        {
          "internalType": "uint256",
          "name": "",
          "type": "uint256"
        },
        {
          "internalType": "uint256",
          "name": "",
          "type": "uint256"
        }
      ],
      "stateMutability": "view",
      "type": "function"
    },
    {
      "inputs": [
        {
          "internalType": "contract IERC20",
          "name": "_sourceToken",
          "type": "address"
        },
        {
          "internalType": "contract IERC20",
          "name": "_targetToken",
          "type": "address"
        },
        {
          "internalType": "uint256",
          "name": "_amount",
          "type": "uint256"
        }
      ],
      "name": "sourceAmountAndFee",
      "outputs": [
        {
          "internalType": "uint256",
          "name": "",
          "type": "uint256"
        },
        {
          "internalType": "uint256",
          "name": "",
          "type": "uint256"
        }
      ],
      "stateMutability": "view",
      "type": "function"
    }
  ],
  "bytecode": "0x608060405260016004553480156200001657600080fd5b506040516200508238038062005082833981810160405260608110156200003c57600080fd5b5080516020820151604090920151600080546001600160a01b0319163317905590919082828281806200006f81620000fd565b50600280546001600160a01b039092166001600160a01b031992831681179091556003805490921617905582620000a681620000fd565b81620000b2816200015c565b50506008805463ffffffff909216600160a01b0263ffffffff60a01b196001600160a01b039095166001600160a01b031990931692909217939093161790915550620001bb92505050565b6001600160a01b03811662000159576040805162461bcd60e51b815260206004820152601360248201527f4552525f494e56414c49445f4144445245535300000000000000000000000000604482015290519081900360640190fd5b50565b620f424063ffffffff8216111562000159576040805162461bcd60e51b815260206004820152601a60248201527f4552525f494e56414c49445f434f4e56455253494f4e5f464545000000000000604482015290519081900360640190fd5b614eb780620001cb6000396000f3fe6080604052600436106102e85760003560e01c80636a49d2c411610190578063bbcdfdef116100dc578063d895951211610095578063ecbca55d1161006f578063ecbca55d14610e0c578063f0413a1f14610e3c578063f2fde38b14610e51578063fc0c546a14610e8457610308565b8063d895951214610d60578063dc8de37914610d93578063e8dc12ff14610dc657610308565b8063bbcdfdef14610cb4578063cdc91c6914610cf7578063d260529c14610d0c578063d3fb73b414610d21578063d4ee1d9014610d36578063d55ec69714610d4b57610308565b8063857620e1116101495780639b99a8e2116101235780639b99a8e214610b10578063af94b8d814610b25578063b127c0a514610b68578063b4a176d314610c9f57610308565b8063857620e114610ab05780638da5cb5b14610ae657806394c275ad14610afb57610308565b80636a49d2c41461085a57806371f52bf31461089957806379ba5097146108ae5780637b103999146108c35780637d8916bd146108d857806380d9416d146109fd57610308565b806338a5e0161161024f57806354fd4d5011610208578063613e53a7116101e2578063613e53a7146107ca57806361cd756e146107df57806367b6d57c146107f4578063690d83201461082757610308565b806354fd4d501461075d578063579cd3ca146107725780635e35359e1461078757610308565b806338a5e016146106635780633e8ff43f14610678578063422f1043146106a457806346df2ccb146106df57806349d10b641461070f5780634e40c2601461072457610308565b80631f0181bc116102a15780631f0181bc1461059557806321e6b53d146105c857806322f3e2d4146105fb57806327ac36c4146106245780632c4e722e146106395780632fe8a6ad1461064e57610308565b8063024c7ec71461030d5780630e53aae91461033b57806315458837146103a257806319b64015146104a75780631cfab290146104ed5780631e1401f81461053957610308565b3661030857600080516020614e3883398151915261030581610e99565b50005b600080fd5b34801561031957600080fd5b506103396004803603602081101561033057600080fd5b50351515610efc565b005b34801561034757600080fd5b5061036e6004803603602081101561035e57600080fd5b50356001600160a01b0316610f22565b6040805195865263ffffffff9094166020860152911515848401521515606084015215156080830152519081900360a00190f35b3480156103ae57600080fd5b50610457600480360360408110156103c557600080fd5b81359190810190604081016020820135600160201b8111156103e657600080fd5b8201836020820111156103f857600080fd5b803590602001918460208302840111600160201b8311171561041957600080fd5b919080806020026020016040519081016040528093929190818152602001838360200280828437600092019190915250929550610f89945050505050565b60408051602080825283518183015283519192839290830191858101910280838360005b8381101561049357818101518382015260200161047b565b505050509050019250505060405180910390f35b3480156104b357600080fd5b506104d1600480360360208110156104ca57600080fd5b503561101e565b604080516001600160a01b039092168252519081900360200190f35b3480156104f957600080fd5b506105206004803603602081101561051057600080fd5b50356001600160a01b031661104a565b6040805163ffffffff9092168252519081900360200190f35b34801561054557600080fd5b5061057c6004803603606081101561055c57600080fd5b506001600160a01b03813581169160208101359091169060400135611061565b6040805192835260208301919091528051918290030190f35b3480156105a157600080fd5b5061057c600480360360208110156105b857600080fd5b50356001600160a01b031661107c565b3480156105d457600080fd5b50610339600480360360208110156105eb57600080fd5b50356001600160a01b03166110f7565b34801561060757600080fd5b50610610611108565b604080519115158252519081900360200190f35b34801561063057600080fd5b5061045761119d565b34801561064557600080fd5b5061057c6111ff565b34801561065a57600080fd5b5061061061128b565b34801561066f57600080fd5b5061033961129b565b34801561068457600080fd5b5061068d6112ad565b6040805161ffff9092168252519081900360200190f35b6106cd600480360360608110156106ba57600080fd5b50803590602081013590604001356112b2565b60408051918252519081900360200190f35b3480156106eb57600080fd5b506103396004803603604081101561070257600080fd5b508035906020013561137c565b34801561071b57600080fd5b50610339611465565b34801561073057600080fd5b506106cd6004803603604081101561074757600080fd5b506001600160a01b03813516906020013561166d565b34801561076957600080fd5b5061068d61171b565b34801561077e57600080fd5b50610520611720565b34801561079357600080fd5b50610339600480360360608110156107aa57600080fd5b506001600160a01b03813581169160208101359091169060400135611733565b3480156107d657600080fd5b5061057c61181e565b3480156107eb57600080fd5b506104d1611835565b34801561080057600080fd5b506103396004803603602081101561081757600080fd5b50356001600160a01b0316611844565b34801561083357600080fd5b506103396004803603602081101561084a57600080fd5b50356001600160a01b03166118da565b34801561086657600080fd5b506103396004803603604081101561087d57600080fd5b5080356001600160a01b0316906020013563ffffffff166119eb565b3480156108a557600080fd5b5061068d611b53565b3480156108ba57600080fd5b50610339611b62565b3480156108cf57600080fd5b506104d1611c19565b6106cd600480360360608110156108ee57600080fd5b810190602081018135600160201b81111561090857600080fd5b82018360208201111561091a57600080fd5b803590602001918460208302840111600160201b8311171561093b57600080fd5b9190808060200260200160405190810160405280939291908181526020018383602002808284376000920191909152509295949360208101935035915050600160201b81111561098a57600080fd5b82018360208201111561099c57600080fd5b803590602001918460208302840111600160201b831117156109bd57600080fd5b9190808060200260200160405190810160405280939291908181526020018383602002808284376000920191909152509295505091359250611c28915050565b348015610a0957600080fd5b5061045760048036036060811015610a2057600080fd5b810190602081018135600160201b811115610a3a57600080fd5b820183602082011115610a4c57600080fd5b803590602001918460208302840111600160201b83111715610a6d57600080fd5b91908080602002602001604051908101604052809392919081815260200183836020028082843760009201919091525092955050823593505050602001356121a4565b348015610abc57600080fd5b5061057c60048036036060811015610ad357600080fd5b50803590602081013590604001356123a0565b348015610af257600080fd5b506104d161249c565b348015610b0757600080fd5b506105206124ab565b348015610b1c57600080fd5b5061068d6124be565b348015610b3157600080fd5b5061057c60048036036060811015610b4857600080fd5b506001600160a01b038135811691602081013590911690604001356124c4565b348015610b7457600080fd5b5061045760048036036060811015610b8b57600080fd5b81359190810190604081016020820135600160201b811115610bac57600080fd5b820183602082011115610bbe57600080fd5b803590602001918460208302840111600160201b83111715610bdf57600080fd5b9190808060200260200160405190810160405280939291908181526020018383602002808284376000920191909152509295949360208101935035915050600160201b811115610c2e57600080fd5b820183602082011115610c4057600080fd5b803590602001918460208302840111600160201b83111715610c6157600080fd5b9190808060200260200160405190810160405280939291908181526020018383602002808284376000920191909152509295506124dd945050505050565b348015610cab57600080fd5b506103396128aa565b348015610cc057600080fd5b5061057c60048036036060811015610cd757600080fd5b506001600160a01b038135811691602081013590911690604001356128d6565b348015610d0357600080fd5b5061033961293f565b348015610d1857600080fd5b50610610612a5c565b348015610d2d57600080fd5b506104d1612a61565b348015610d4257600080fd5b506104d1612a70565b348015610d5757600080fd5b50610339612a7f565b348015610d6c57600080fd5b506106cd60048036036020811015610d8357600080fd5b50356001600160a01b0316612b67565b348015610d9f57600080fd5b506106cd60048036036020811015610db657600080fd5b50356001600160a01b0316612b6e565b6106cd600480360360a0811015610ddc57600080fd5b506001600160a01b0381358116916020810135821691604082013591606081013582169160809091013516612bd8565b348015610e1857600080fd5b5061033960048036036020811015610e2f57600080fd5b503563ffffffff16612c7e565b348015610e4857600080fd5b506106cd612d60565b348015610e5d57600080fd5b5061033960048036036020811015610e7457600080fd5b50356001600160a01b0316612d66565b348015610e9057600080fd5b506104d1612de4565b6001600160a01b038116600090815260076020526040902054610ef9576040805162461bcd60e51b81526020600482015260136024820152724552525f494e56414c49445f5245534552564560681b604482015290519081900360640190fd5b50565b610f04612df3565b60038054911515600160a01b0260ff60a01b19909216919091179055565b6001600160a01b03811660009081526007602052604081205481908190819081908015610f6c57610f5281612e46565b95506207a12094506000935083925060019150610f809050565b600080600080600095509550955095509550505b91939590929450565b60606000600860009054906101000a90046001600160a01b03166001600160a01b03166318160ddd6040518163ffffffff1660e01b815260040160206040518083038186803b158015610fdb57600080fd5b505afa158015610fef573d6000803e3d6000fd5b505050506040513d602081101561100557600080fd5b50519050611014848483612e54565b9150505b92915050565b60006006828154811061102d57fe5b6000918252602090912001546001600160a01b031690505b919050565b60008161105681610e99565b506207a12092915050565b60008061106f8585856124c4565b915091505b935093915050565b6000808261108981610e99565b6000611096600954612fa6565b905060006110a3826130ca565b905060006110b0836130d9565b905060066000815481106110c057fe5b6000918252602090912001546001600160a01b03888116911614156110eb5790945092506110f19050565b94509250505b50915091565b6110ff612df3565b610ef981611844565b6000306001600160a01b0316600860009054906101000a90046001600160a01b03166001600160a01b0316638da5cb5b6040518163ffffffff1660e01b815260040160206040518083038186803b15801561116257600080fd5b505afa158015611176573d6000803e3d6000fd5b505050506040513d602081101561118c57600080fd5b50516001600160a01b031614905090565b606060068054806020026020016040519081016040528092919081815260200182805480156111f557602002820191906000526020600020905b81546001600160a01b031681526001909101906020018083116111d7575b5050505050905090565b600080606061120c61119d565b9050600a60008260008151811061121f57fe5b60200260200101516001600160a01b03166001600160a01b0316815260200190815260200160002054600a60008360018151811061125957fe5b60200260200101516001600160a01b03166001600160a01b031681526020019081526020016000205492509250509091565b600354600160a01b900460ff1681565b6112a3612df3565b6112ab61293f565b565b600490565b604080516002808252606080830184526000939092919060208301908036833701905050905084816000815181106112e657fe5b602002602001018181525050838160018151811061130057fe5b602002602001018181525050611371600680548060200260200160405190810160405280929190818152602001828054801561136557602002820191906000526020600020905b81546001600160a01b03168152600190910190602001808311611347575b50505050508285611c28565b9150505b9392505050565b611384612df3565b6000821180156113945750600081115b6113d8576040805162461bcd60e51b815260206004820152601060248201526f4552525f494e56414c49445f5241544560801b604482015290519081900360640190fd5b60606113e261119d565b905082600a6000836000815181106113f657fe5b60200260200101516001600160a01b03166001600160a01b031681526020019081526020016000208190555081600a60008360018151811061143457fe5b60200260200101516001600160a01b03166001600160a01b0316815260200190815260200160002081905550505050565b6000546001600160a01b03163314806114885750600354600160a01b900460ff16155b6114cd576040805162461bcd60e51b815260206004820152601160248201527011549497d050d0d154d4d7d11153925151607a1b604482015290519081900360640190fd5b60006114eb6f436f6e7472616374526567697374727960801b6130e5565b6002549091506001600160a01b0380831691161480159061151457506001600160a01b03811615155b61155c576040805162461bcd60e51b81526020600482015260146024820152734552525f494e56414c49445f524547495354525960601b604482015290519081900360640190fd5b60006001600160a01b0316816001600160a01b031663bb34534c6f436f6e7472616374526567697374727960801b6040518263ffffffff1660e01b81526004018082815260200191505060206040518083038186803b1580156115be57600080fd5b505afa1580156115d2573d6000803e3d6000fd5b505050506040513d60208110156115e857600080fd5b50516001600160a01b0316141561163d576040805162461bcd60e51b81526020600482015260146024820152734552525f494e56414c49445f524547495354525960601b604482015290519081900360640190fd5b60028054600380546001600160a01b038084166001600160a01b0319928316179092559091169216919091179055565b600080600860009054906101000a90046001600160a01b03166001600160a01b03166318160ddd6040518163ffffffff1660e01b815260040160206040518083038186803b1580156116be57600080fd5b505afa1580156116d2573d6000803e3d6000fd5b505050506040513d60208110156116e857600080fd5b50516001600160a01b03851660009081526007602052604090205490915061101490829061171590612e46565b85613163565b602d81565b600854600160c01b900463ffffffff1681565b61173b61322b565b6002600455611748612df3565b600061176d762130b731b7b921b7b73b32b93a32b92ab833b930b232b960491b6130e5565b6001600160a01b03851660009081526007602052604090205490915080158061179b5750611799611108565b155b806117b357506000546001600160a01b038381169116145b6117f8576040805162461bcd60e51b815260206004820152601160248201527011549497d050d0d154d4d7d11153925151607a1b604482015290519081900360640190fd5b611803858585613273565b801561181257611812856132ad565b50506001600455505050565b60008061182d60016002613365565b915091509091565b6003546001600160a01b031681565b61184c612df3565b762130b731b7b921b7b73b32b93a32b92ab833b930b232b960491b611870816133ee565b6008546040805163f2fde38b60e01b81526001600160a01b0385811660048301529151919092169163f2fde38b91602480830192600092919082900301818387803b1580156118be57600080fd5b505af11580156118d2573d6000803e3d6000fd5b505050505050565b6118e261322b565b60026004556118ef612df3565b600080516020614e3883398151915261190781610e99565b600061192c762130b731b7b921b7b73b32b93a32b92ab833b930b232b960491b6130e5565b9050611936611108565b158061194f57506000546001600160a01b038281169116145b611994576040805162461bcd60e51b815260206004820152601160248201527011549497d050d0d154d4d7d11153925151607a1b604482015290519081900360640190fd5b6040516001600160a01b038416904780156108fc02916000818181858888f193505050501580156119c9573d6000803e3d6000fd5b506119e1600080516020614e388339815191526132ad565b5050600160045550565b6119f3612df3565b6119fb613450565b81611a0581613497565b82611a0f816134e8565b82611a198161353c565b6008546001600160a01b03868116911614801590611a4d57506001600160a01b038516600090815260076020526040902054155b611a94576040805162461bcd60e51b81526020600482015260136024820152724552525f494e56414c49445f5245534552564560681b604482015290519081900360640190fd5b6002611a9e6124be565b61ffff1610611af0576040805162461bcd60e51b815260206004820152601960248201527811549497d253959053125117d49154d154959157d0d3d55395603a1b604482015290519081900360640190fd5b5050600680546001810182557ff652222313e28459528d920b65115c16c04f3efc82aaedc97be59f3f377c0d3f0180546001600160a01b039095166001600160a01b03199095168517905554600093845260076020526040909320929092555050565b6000611b5d6124be565b905090565b6001546001600160a01b03163314611bb5576040805162461bcd60e51b815260206004820152601160248201527011549497d050d0d154d4d7d11153925151607a1b604482015290519081900360640190fd5b600154600080546040516001600160a01b0393841693909116917f343765429aea5a34b3ff6a3785a98a5abb2597aca87bfbb58632c173d585373a91a360018054600080546001600160a01b03199081166001600160a01b03841617909155169055565b6002546001600160a01b031681565b6000611c3261322b565b6002600455611c3f613599565b611c4a8484846135e1565b5060005b6002811015611cfb57600080516020614e388339815191526001600160a01b0316858281518110611c7b57fe5b60200260200101516001600160a01b03161415611cf35734848281518110611c9f57fe5b602002602001015114611cf3576040805162461bcd60e51b815260206004820152601760248201527608aa4a4be8aa890be829a9eaa9ca8be9a92a69a82a8869604b1b604482015290519081900360640190fd5b600101611c4e565b503415611d8157600080516020614e3883398151915260005260076020527fb2084a3e4595ccf007fb44245853374aaf0de960074375e8e0fb334712e94d0e54611d81576040805162461bcd60e51b81526020600482015260126024820152714552525f4e4f5f4554485f5245534552564560701b604482015290519081900360640190fd5b600854604080516318160ddd60e01b815290516001600160a01b039092169160009183916318160ddd91600480820192602092909190829003018186803b158015611dcb57600080fd5b505afa158015611ddf573d6000803e3d6000fd5b505050506040513d6020811015611df557600080fd5b50519050611e0234613826565b611e0a614db2565b611e12614db2565b611e1a61181e565b602084015282526000611e2b614db2565b84611e7a57611e39896139bb565b915060005b6002811015611e7457898181518110611e5357fe5b6020026020010151828260028110611e6757fe5b6020020152600101611e3e565b50611e8c565b611e868a8a8688613a0d565b90925090505b6000611e988684613b64565b905060005b60028110156120c65760008c8281518110611eb457fe5b602002602001015190506000848360028110611ecc57fe5b6020020151905060008111611f21576040805162461bcd60e51b815260206004820152601660248201527511549497d6915493d7d5105491d15517d05353d5539560521b604482015290519081900360640190fd5b8c8381518110611f2d57fe5b6020026020010151811115611f3e57fe5b6001600160a01b038216600080516020614e3883398151915214611f7657611f716001600160a01b038316333084613bbe565b611fe1565b808d8481518110611f8357fe5b60200260200101511115611fe157336001600160a01b03166108fc828f8681518110611fab57fe5b6020026020010151039081150290604051600060405180830381858888f19350505050158015611fdf573d6000803e3d6000fd5b505b611ffc81898560028110611ff157fe5b602002015190613b64565b87846002811061200857fe5b60200201526001600160a01b038216337f4a1a2a6176e9646d9e3157f7c2ab3c499f18337c0b0828cfb28e0a61de4a11f7838a876002811061204657fe5b602090810291909101516040805193845291830152818101899052519081900360600190a3816001600160a01b03168a6001600160a01b0316600080516020614df783398151915289866002811061209a57fe5b602002015187604051808381526020018281526020019250505060405180910390a35050600101611e9d565b5083516120e09060019060029087835b6020020151613c1e565b8883101561212a576040805162461bcd60e51b81526020600482015260126024820152714552525f52455455524e5f544f4f5f4c4f5760701b604482015290519081900360640190fd5b6040805163219e412d60e21b81523360048201526024810185905290516001600160a01b0389169163867904b491604480830192600092919082900301818387803b15801561217857600080fd5b505af115801561218c573d6000803e3d6000fd5b5050600160045550929b9a5050505050505050505050565b60408051600280825260608083018452928392919060208301908036833750506040805160028082526060808301845294955090925090602083019080368337019050509050600060076000886000815181106121fd57fe5b60200260200101516001600160a01b03166001600160a01b031681526020019081526020016000205490506000600760008960018151811061223b57fe5b60200260200101516001600160a01b03166001600160a01b031681526020019081526020016000205490506122708282613365565b8460008151811061227d57fe5b602002602001018560018151811061229157fe5b60200260200101828152508281525050506000600860009054906101000a90046001600160a01b03166001600160a01b03166318160ddd6040518163ffffffff1660e01b815260040160206040518083038186803b1580156122f257600080fd5b505afa158015612306573d6000803e3d6000fd5b505050506040513d602081101561231c57600080fd5b5051845190915060009061234690839087908c90811061233857fe5b60200260200101518a613163565b905060005b6002811015612391576123728387838151811061236457fe5b602002602001015184613ca2565b87828151811061237e57fe5b602090810291909101015260010161234b565b50949998505050505050505050565b60408051600280825260608083018452600093849391929060208301908036833701905050905084816000815181106123d557fe5b60200260200101818152505083816001815181106123ef57fe5b602002602001018181525050606061246287600680548060200260200160405190810160405280929190818152602001828054801561245757602002820191906000526020600020905b81546001600160a01b03168152600190910190602001808311612439575b5050505050846124dd565b90508060008151811061247157fe5b60200260200101518160018151811061248657fe5b6020026020010151935093505050935093915050565b6000546001600160a01b031681565b600854600160a01b900463ffffffff1681565b60065490565b6000806124cf613599565b61106f858560008087613d71565b60606124e761322b565b60026004556124f4613599565b60006125018484876135e1565b90506000600860009054906101000a90046001600160a01b031690506000816001600160a01b03166318160ddd6040518163ffffffff1660e01b815260040160206040518083038186803b15801561255857600080fd5b505afa15801561256c573d6000803e3d6000fd5b505050506040513d602081101561258257600080fd5b50516040805163a24835d160e01b8152336004820152602481018a905290519192506001600160a01b0384169163a24835d19160448082019260009290919082900301818387803b1580156125d657600080fd5b505af11580156125ea573d6000803e3d6000fd5b505050506125f6613ed7565b60006126028289614061565b90506060612611898985612e54565b905061261b614db2565b612623614db2565b61262b61181e565b6020840152825260005b600281101561281a5760008b828151811061264c57fe5b60200260200101519050600085838151811061266457fe5b602002602001015190508b838151811061267a57fe5b60200260200101518110156126cf576040805162461bcd60e51b815260206004820152601660248201527511549497d6915493d7d5105491d15517d05353d5539560521b604482015290519081900360640190fd5b6126ea818685600281106126df57fe5b602002015190614061565b8484600281106126f657fe5b60200201526001600160a01b038216600080516020614e38833981519152141561274d57604051339082156108fc029083906000818181858888f19350505050158015612747573d6000803e3d6000fd5b50612761565b6127616001600160a01b03831633836140be565b6001600160a01b038216337fbc7d19d505c7ec4db83f3b51f19fb98c4c8a99922e7839d1ee608dfbee29501b8387876002811061279a57fe5b6020908102919091015160408051938452918301528181018c9052519081900360600190a3816001600160a01b0316896001600160a01b0316600080516020614df78339815191528686600281106127ee57fe5b60200201518a604051808381526020018281526020019250505060405180910390a35050600101612635565b50805161282e9060019060029084836120d6565b86156128975760008360008151811061284357fe5b602002602001015190508360018151811061285a57fe5b60200260200101518460008151811061286f57fe5b602002602001018181525050808460018151811061288957fe5b602002602001018181525050505b5050600160045598975050505050505050565b6128b2612df3565b600354600280546001600160a01b0319166001600160a01b03909216919091179055565b6000806128e1613599565b6001600160a01b038086166000908152600a60205260408082205492871682528120549061290e86614110565b905060006129308461292a856129248b87613b64565b9061413f565b90614198565b99919850909650505050505050565b612947612df3565b61294f6124be565b61ffff166002146129a3576040805162461bcd60e51b815260206004820152601960248201527811549497d253959053125117d49154d154959157d0d3d55395603a1b604482015290519081900360640190fd5b600860009054906101000a90046001600160a01b03166001600160a01b03166379ba50976040518163ffffffff1660e01b8152600401600060405180830381600087803b1580156129f357600080fd5b505af1158015612a07573d6000803e3d6000fd5b50505050612a13613ed7565b6008546001906001600160a01b0316612a2a6112ad565b61ffff167f6b08c2e2c9969e55a647a764db9b554d64dc42f1a704da11a6d5b129ad163f2c60405160405180910390a4565b600190565b6008546001600160a01b031681565b6001546001600160a01b031681565b612a87612df3565b6000612aac762130b731b7b921b7b73b32b93a32b92ab833b930b232b960491b6130e5565b6008549091506000906001600160a01b0316612ac66112ad565b61ffff167f6b08c2e2c9969e55a647a764db9b554d64dc42f1a704da11a6d5b129ad163f2c60405160405180910390a4612aff81612d66565b6040805163487ac64b60e11b8152602d600482015290516001600160a01b038316916390f58c9691602480830192600092919082900301818387803b158015612b4757600080fd5b505af1158015612b5b573d6000803e3d6000fd5b50505050610ef9611b62565b6000611018825b6001600160a01b03811660009081526007602052604081205480612bcf576040805162461bcd60e51b81526020600482015260136024820152724552525f494e56414c49445f5245534552564560681b604482015290519081900360640190fd5b61137581612e46565b6000612be261322b565b60026004556c42616e636f724e6574776f726b60981b612c01816133ee565b856001600160a01b0316876001600160a01b03161415612c61576040805162461bcd60e51b815260206004820152601660248201527511549497d4d0535157d4d3d55490d157d5105491d15560521b604482015290519081900360640190fd5b612c6e87878787876141ff565b6001600455979650505050505050565b612c86612df3565b60085463ffffffff600160a01b90910481169082161115612cee576040805162461bcd60e51b815260206004820152601a60248201527f4552525f494e56414c49445f434f4e56455253494f4e5f464545000000000000604482015290519081900360640190fd5b6008546040805163ffffffff600160c01b90930483168152918316602083015280517f81cd2ffb37dd237c0e4e2a3de5265fcf9deb43d3e7801e80db9f1ccfba7ee6009281900390910190a16008805463ffffffff909216600160c01b0263ffffffff60c01b19909216919091179055565b60095481565b612d6e612df3565b6000546001600160a01b0382811691161415612dc2576040805162461bcd60e51b815260206004820152600e60248201526d22a9292fa9a0a6a2afa7aba722a960911b604482015290519081900360640190fd5b600180546001600160a01b0319166001600160a01b0392909216919091179055565b6008546001600160a01b031690565b6000546001600160a01b031633146112ab576040805162461bcd60e51b815260206004820152601160248201527011549497d050d0d154d4d7d11153925151607a1b604482015290519081900360640190fd5b600061101860055483614499565b6040805160028082526060808301845292839291906020830190803683375050604080516002808252606080830184529495509092509060208301908036833701905050905060006007600087600081518110612ead57fe5b60200260200101516001600160a01b03166001600160a01b0316815260200190815260200160002054905060006007600088600181518110612eeb57fe5b60200260200101516001600160a01b03166001600160a01b03168152602001908152602001600020549050612f208282613365565b84600081518110612f2d57fe5b6020026020010185600181518110612f4157fe5b60209081029190910101919091525260005b6002811015612f9957612f7a87858381518110612f6c57fe5b60200260200101518b6144cb565b858281518110612f8657fe5b6020908102919091010152600101612f53565b5092979650505050505050565b600080612fb2836145dc565b90506000612fbf846130ca565b90506000612fcc856130d9565b90506000612fd86145e2565b905083810380612fef578695505050505050611045565b600080612ffa61181e565b915091506102588310158061300d575086155b156130415761302481836001600160701b036145e6565b9250905061303384828461462e565b975050505050505050611045565b600061304d868361413f565b9050600061305b888561413f565b9050600061308161306c848861413f565b61307b846102588a900361413f565b90613b64565b905060006130956102586129248b8961413f565b90506130a982826001600160701b036145e6565b90925090506130b988838361462e565b9d9c50505050505050505050505050565b60701c6001600160701b031690565b6001600160701b031690565b60025460408051632ecd14d360e21b81526004810184905290516000926001600160a01b03169163bb34534c916024808301926020929190829003018186803b15801561313157600080fd5b505afa158015613145573d6000803e3d6000fd5b505050506040513d602081101561315b57600080fd5b505192915050565b60008084116131ae576040805162461bcd60e51b81526020600482015260126024820152714552525f494e56414c49445f535550504c5960701b604482015290519081900360640190fd5b60008311613203576040805162461bcd60e51b815260206004820152601b60248201527f4552525f494e56414c49445f524553455256455f42414c414e43450000000000604482015290519081900360640190fd5b8161321057506000611375565b8261321b838661413f565b8161322257fe5b04949350505050565b6001600454146112ab576040805162461bcd60e51b815260206004820152600e60248201526d4552525f5245454e5452414e435960901b604482015290519081900360640190fd5b61327b612df3565b8261328581613497565b8261328f81613497565b83613299816134e8565b6118d26001600160a01b03871686866140be565b6001600160a01b03811660008181526007602052604081205491600080516020614e388339815191521461335257604080516370a0823160e01b815230600482015290516001600160a01b038516916370a08231916024808301926020929190829003018186803b15801561332157600080fd5b505afa158015613335573d6000803e3d6000fd5b505050506040513d602081101561334b57600080fd5b5051613354565b475b90506133608282614679565b505050565b6000808360011480156133785750826002145b8061338e575083600214801561338e5750826001145b6133d6576040805162461bcd60e51b81526020600482015260146024820152734552525f494e56414c49445f524553455256455360601b604482015290519081900360640190fd5b6133e360055485856146ff565b915091509250929050565b6133f7816130e5565b6001600160a01b0316336001600160a01b031614610ef9576040805162461bcd60e51b815260206004820152601160248201527011549497d050d0d154d4d7d11153925151607a1b604482015290519081900360640190fd5b613458611108565b156112ab576040805162461bcd60e51b815260206004820152600a6024820152694552525f41435449564560b01b604482015290519081900360640190fd5b6001600160a01b038116610ef9576040805162461bcd60e51b81526020600482015260136024820152724552525f494e56414c49445f4144445245535360681b604482015290519081900360640190fd5b6001600160a01b038116301415610ef9576040805162461bcd60e51b815260206004820152601360248201527222a9292fa0a2222922a9a9afa4a9afa9a2a62360691b604482015290519081900360640190fd5b63ffffffff81166207a12014610ef9576040805162461bcd60e51b815260206004820152601a60248201527f4552525f494e56414c49445f524553455256455f574549474854000000000000604482015290519081900360640190fd5b6135a1611108565b6112ab576040805162461bcd60e51b815260206004820152600c60248201526b4552525f494e41435449564560a01b604482015290519081900360640190fd5b60006135ec83614716565b80156135f85750600082115b61363b576040805162461bcd60e51b815260206004820152600f60248201526e11549497d6915493d7d05353d55395608a1b604482015290519081900360640190fd5b6000600760008660008151811061364e57fe5b60200260200101516001600160a01b03166001600160a01b031681526020019081526020016000205490506000600760008760018151811061368c57fe5b60200260200101516001600160a01b03166001600160a01b031681526020019081526020016000205490508160021480156136c75750806001145b156137c3576000866000815181106136db57fe5b60200260200101519050866001815181106136f257fe5b60200260200101518760008151811061370757fe5b60200260200101906001600160a01b031690816001600160a01b031681525050808760018151811061373557fe5b60200260200101906001600160a01b031690816001600160a01b03168152505060008660008151811061376457fe5b602002602001015190508660018151811061377b57fe5b60200260200101518760008151811061379057fe5b60200260200101818152505080876001815181106137aa57fe5b6020026020010181815250506001945050505050611375565b8160011480156137d35750806002145b61381a576040805162461bcd60e51b81526020600482015260136024820152724552525f494e56414c49445f5245534552564560681b604482015290519081900360640190fd5b50600095945050505050565b6000600660008154811061383657fe5b6000918252602082200154600680546001600160a01b03909216935090600190811061385e57fe5b60009182526020822001546001600160a01b0390811692508316600080516020614e388339815191521461390357604080516370a0823160e01b815230600482015290516001600160a01b038516916370a08231916024808301926020929190829003018186803b1580156138d257600080fd5b505afa1580156138e6573d6000803e3d6000fd5b505050506040513d60208110156138fc57600080fd5b5051613907565b8347035b905060006001600160a01b038316600080516020614e38833981519152146139a057604080516370a0823160e01b815230600482015290516001600160a01b038516916370a08231916024808301926020929190829003018186803b15801561396f57600080fd5b505afa158015613983573d6000803e3d6000fd5b505050506040513d602081101561399957600080fd5b50516139a4565b8447035b90506139b4600160028484613c1e565b5050505050565b80516000908190815b818110156139f4576139e88582815181106139db57fe5b6020026020010151614754565b909201916001016139c4565b506001613a018383614776565b03600a0a949350505050565b6000613a17614db2565b6000600a600088600081518110613a2a57fe5b60200260200101516001600160a01b03166001600160a01b031681526020019081526020016000205490506000600a600089600181518110613a6857fe5b60200260200101516001600160a01b03166001600160a01b031681526020019081526020016000205490506000613ad8826129248a600181518110613aa957fe5b602002602001015161307b878d600081518110613ac257fe5b602002602001015161413f90919063ffffffff16565b90506000613afd836129248a6001602002015161307b888d600060200201519061413f565b90506000613b0f8261292a8a8661413f565b9050613b19614db2565b60005b6002811015613b52578b8181518110613b3157fe5b6020026020010151828260028110613b4557fe5b6020020152600101613b1c565b50909b909a5098505050505050505050565b600082820183811015611375576040805162461bcd60e51b815260206004820152601b60248201527f536166654d6174683a206164646974696f6e206f766572666c6f770000000000604482015290519081900360640190fd5b604080516001600160a01b0380861660248301528416604482015260648082018490528251808303909101815260849091019091526020810180516001600160e01b03166323b872dd60e01b179052613c18908590614786565b50505050565b6001600160801b038211158015613c3c57506001600160801b038111155b613c8d576040805162461bcd60e51b815260206004820152601c60248201527f4552525f524553455256455f42414c414e43455f4f564552464c4f5700000000604482015290519081900360640190fd5b613c9982858386614837565b60055550505050565b6000808411613ced576040805162461bcd60e51b81526020600482015260126024820152714552525f494e56414c49445f535550504c5960701b604482015290519081900360640190fd5b60008311613d42576040805162461bcd60e51b815260206004820152601b60248201527f4552525f494e56414c49445f524553455256455f42414c414e43450000000000604482015290519081900360640190fd5b81613d4f57506000611375565b836001613d5c848661413f565b0381613d6457fe5b0460010190509392505050565b6000806060613d7e61119d565b905080600081518110613d8d57fe5b60200260200101516001600160a01b0316886001600160a01b0316148015613dda575080600181518110613dbd57fe5b60200260200101516001600160a01b0316876001600160a01b0316145b80613e3a575080600181518110613ded57fe5b60200260200101516001600160a01b0316886001600160a01b0316148015613e3a575080600081518110613e1d57fe5b60200260200101516001600160a01b0316876001600160a01b0316145b613e82576040805162461bcd60e51b81526020600482015260146024820152734552525f494e56414c49445f524553455256455360601b604482015290519081900360640190fd5b6001600160a01b038089166000908152600a602052604080822054928a16825281205490613eb48261292a898661413f565b90506000613ec182614857565b918290039c919b50909950505050505050505050565b60006006600081548110613ee757fe5b6000918252602082200154600680546001600160a01b039092169350906001908110613f0f57fe5b60009182526020822001546001600160a01b0390811692508316600080516020614e3883398151915214613fb457604080516370a0823160e01b815230600482015290516001600160a01b038516916370a08231916024808301926020929190829003018186803b158015613f8357600080fd5b505afa158015613f97573d6000803e3d6000fd5b505050506040513d6020811015613fad57600080fd5b5051613fb6565b475b905060006001600160a01b038316600080516020614e388339815191521461404f57604080516370a0823160e01b815230600482015290516001600160a01b038516916370a08231916024808301926020929190829003018186803b15801561401e57600080fd5b505afa158015614032573d6000803e3d6000fd5b505050506040513d602081101561404857600080fd5b5051614051565b475b9050613c18600160028484613c1e565b6000828211156140b8576040805162461bcd60e51b815260206004820152601e60248201527f536166654d6174683a207375627472616374696f6e206f766572666c6f770000604482015290519081900360640190fd5b50900390565b604080516001600160a01b038416602482015260448082018490528251808303909101815260649091019091526020810180516001600160e01b031663a9059cbb60e01b179052613360908490614786565b6008546000906110189063ffffffff600160c01b9091048116620f424081900382169161292a91869161413f16565b60008261414e57506000611018565b8282028284828161415b57fe5b04146113755760405162461bcd60e51b8152600401808060200182810382526021815260200180614e176021913960400191505060405180910390fd5b60008082116141ee576040805162461bcd60e51b815260206004820152601a60248201527f536166654d6174683a206469766973696f6e206279207a65726f000000000000604482015290519081900360640190fd5b8183816141f757fe5b049392505050565b600061420961488c565b6001600160a01b0380871660009081526007602052604080822054928816825281205490806142388484613365565b9150915060008061424c8c8c86868e613d71565b91509150816000141561429f576040805162461bcd60e51b815260206004820152601660248201527511549497d6915493d7d5105491d15517d05353d5539560521b604482015290519081900360640190fd5b8282106142a857fe5b60006001600160a01b038d16600080516020614e38833981519152141561431e575047348b14614319576040805162461bcd60e51b815260206004820152601760248201527608aa4a4be8aa890be829a9eaa9ca8be9a92a69a82a8869604b1b604482015290519081900360640190fd5b6143ef565b604080516370a0823160e01b815230600482015290516001600160a01b038f16916370a08231916024808301926020929190829003018186803b15801561436457600080fd5b505afa158015614378573d6000803e3d6000fd5b505050506040513d602081101561438e57600080fd5b50519050341580156143a957508a6143a68287614061565b10155b6143ef576040805162461bcd60e51b815260206004820152601260248201527111549497d253959053125117d05353d5539560721b604482015290519081900360640190fd5b6143fd878783868803613c1e565b6001600160a01b038c16600080516020614e388339815191521415614458576040516001600160a01b038a169084156108fc029085906000818181858888f19350505050158015614452573d6000803e3d6000fd5b5061446c565b61446c6001600160a01b038d168a856140be565b61447a8d8d8c8e87876148ad565b6144888d8d83868803614909565b50909b9a5050505050505050505050565b600081600114806144aa5750816002145b6144b057fe5b50608060001982010282901c6001600160801b031692915050565b6000808411614516576040805162461bcd60e51b81526020600482015260126024820152714552525f494e56414c49445f535550504c5960701b604482015290519081900360640190fd5b6000831161456b576040805162461bcd60e51b815260206004820152601b60248201527f4552525f494e56414c49445f524553455256455f42414c414e43450000000000604482015290519081900360640190fd5b838211156145b5576040805162461bcd60e51b815260206004820152601260248201527111549497d253959053125117d05353d5539560721b604482015290519081900360640190fd5b816145c257506000611375565b838214156145d1575081611375565b8361321b838561413f565b60e01c90565b4290565b6000808484848211806145f857508481115b1561460e57614608828287614a42565b90925090505b80821461461f579092509050611074565b50600196879650945050505050565b600063ffffffff841115801561464b57506001600160701b038311155b801561465e57506001600160701b038211155b61466457fe5b5060e083901b607083901b1781179392505050565b6001600160801b038111156146d5576040805162461bcd60e51b815260206004820152601c60248201527f4552525f524553455256455f42414c414e43455f4f564552464c4f5700000000604482015290519081900360640190fd5b60006146e660055484600303614499565b90506146f782848386600303614837565b600555505050565b60008061470c8585614499565b61106f8685614499565b6000808260008151811061472657fe5b60200260200101511180611018575060008260018151811061474457fe5b6020026020010151119050919050565b600080825b801561476f5760019190910190600a9004614759565b5092915050565b600081600281048401816141f757fe5b60606147db826040518060400160405280602081526020017f5361666545524332303a206c6f772d6c6576656c2063616c6c206661696c6564815250856001600160a01b0316614a7b9092919063ffffffff16565b805190915015613360578080602001905160208110156147fa57600080fd5b50516133605760405162461bcd60e51b815260040180806020018281038252602a815260200180614e58602a913960400191505060405180910390fd5b60006148438383614a92565b61484d8686614a92565b1795945050505050565b600854600090620f42409061487e908490600160c01b900463ffffffff9081169061413f16565b8161488557fe5b0492915050565b600954600061489a82612fa6565b90508082146148a95760098190555b5050565b604080518481526020810184905280820183905290516001600160a01b038087169288821692918a16917f276856b36cbc45526a0ba64f44611557a2a8b68662c5388e9fe6d72e86e1c8cb9181900360600190a4505050505050565b600854604080516318160ddd60e01b815290516001600160a01b039092169160009183916318160ddd91600480820192602092909190829003018186803b15801561495357600080fd5b505afa158015614967573d6000803e3d6000fd5b505050506040513d602081101561497d57600080fd5b5051604080518581526020810187905281519293506001600160a01b0380891693908a1692600080516020614df7833981519152928290030190a3856001600160a01b0316826001600160a01b0316600080516020614df78339815191528684604051808381526020018281526020019250505060405180910390a3846001600160a01b0316826001600160a01b0316600080516020614df78339815191528584604051808381526020018281526020019250505060405180910390a3505050505050565b600080838511614a6057614a57858585614ac7565b91509150611074565b600080614a6e868887614ac7565b9890975095505050505050565b6060614a8a8484600085614b80565b949350505050565b60006001600160801b038311158015614ab557508160011480614ab55750816002145b614abb57fe5b50600019016080021b90565b60008060008360001981614ad757fe5b04905080861115614b10576000816001018781614af057fe5b046001019050808781614aff57fe5b049650808681614b0b57fe5b049550505b848614614b7057858402858701878110614b41576000614b308383614cdc565b955050508385039250611074915050565b6002888803048703821015614b5f5760008694509450505050611074565b600180870394509450505050611074565b5050600290910493849350915050565b606082471015614bc15760405162461bcd60e51b8152600401808060200182810382526026815260200180614dd16026913960400191505060405180910390fd5b614bca85614d08565b614c1b576040805162461bcd60e51b815260206004820152601d60248201527f416464726573733a2063616c6c20746f206e6f6e2d636f6e7472616374000000604482015290519081900360640190fd5b60006060866001600160a01b031685876040518082805190602001908083835b60208310614c5a5780518252601f199092019160209182019101614c3b565b6001836020036101000a03801982511681845116808217855250505050505090500191505060006040518083038185875af1925050503d8060008114614cbc576040519150601f19603f3d011682016040523d82523d6000602084013e614cc1565b606091505b5091509150614cd1828286614d0e565b979650505050505050565b6000600282048203828481614ced57fe5b0681614cf557fe5b04828481614cff57fe5b04019392505050565b3b151590565b60608315614d1d575081611375565b825115614d2d5782518084602001fd5b8160405162461bcd60e51b81526004018080602001828103825283818151815260200191508051906020019080838360005b83811015614d77578181015183820152602001614d5f565b50505050905090810190601f168015614da45780820380516001836020036101000a031916815260200191505b509250505060405180910390fd5b6040518060400160405280600290602082028036833750919291505056fe416464726573733a20696e73756666696369656e742062616c616e636520666f722063616c6c77f29993cf2c084e726f7e802da0719d6a0ade3e204badc7a3ffd57ecb768c24536166654d6174683a206d756c7469706c69636174696f6e206f766572666c6f77000000000000000000000000eeeeeeeeeeeeeeeeeeeeeeeeeeeeeeeeeeeeeeee5361666545524332303a204552433230206f7065726174696f6e20646964206e6f742073756363656564a264697066735822122042d4134683031df793f9435573edd4d3cb6757acf1649358a2a797c699bf090e64736f6c634300060c0033",
  "immutableReferences": {},
  "source": "// SPDX-License-Identifier: SEE LICENSE IN LICENSE\npragma solidity 0.6.12;\n\nimport \"../standard-pool/StandardPoolConverter.sol\";\n\n/**\n * @dev This contract is a specialized version of the converter, which implements\n * a constant conversion-rate (configurable by the owner of the converter).\n */\ncontract FixedRatePoolConverter is StandardPoolConverter {\n    mapping(IERC20 => uint256) private _rate;\n\n    /**\n     * @dev initializes a new FixedRatePoolConverter instance\n     *\n     * @param  _anchor             anchor governed by the converter\n     * @param  _registry           address of a contract registry contract\n     * @param  _maxConversionFee   maximum conversion fee, represented in ppm\n     */\n    constructor(\n        IConverterAnchor _anchor,\n        IContractRegistry _registry,\n        uint32 _maxConversionFee\n    ) public StandardPoolConverter(_anchor, _registry, _maxConversionFee) {}\n\n    /**\n     * @dev returns the converter type\n     *\n     * @return see the converter types in the the main contract doc\n     */\n    function converterType() public pure override returns (uint16) {\n        return 4;\n    }\n\n    /**\n     * @dev returns the worth of the 1st reserve token in units of the 2nd reserve token\n     *\n     * @return the numerator of the rate between the 1st reserve token and the 2nd reserve token\n     * @return the denominator of the rate between the 1st reserve token and the 2nd reserve token\n     */\n    function rate() public view returns (uint256, uint256) {\n        IERC20[] memory _reserveTokens = reserveTokens();\n        return (_rate[_reserveTokens[0]], _rate[_reserveTokens[1]]);\n    }\n\n    /**\n     * @dev sets the worth of the 1st reserve token in units of the 2nd reserve token\n     * can be executed only by the owner of the converter\n     *\n     * @param rateN the numerator of the rate between the 1st reserve token and the 2nd reserve token\n     * @param rateD the denominator of the rate between the 1st reserve token and the 2nd reserve token\n     */\n    function setRate(uint256 rateN, uint256 rateD) public ownerOnly {\n        require(rateN > 0 && rateD > 0, \"ERR_INVALID_RATE\");\n        IERC20[] memory _reserveTokens = reserveTokens();\n        _rate[_reserveTokens[0]] = rateN;\n        _rate[_reserveTokens[1]] = rateD;\n    }\n\n    /**\n     * @dev returns the expected amount and expected fee for converting one reserve to another\n     *\n     * @param _sourceToken address of the source reserve token contract\n     * @param _targetToken address of the target reserve token contract\n     * @param _amount      amount of source reserve tokens converted\n     *\n     * @return expected amount in units of the target reserve token\n     * @return expected fee in units of the target reserve token\n     */\n    function targetAmountAndFee(\n        IERC20 _sourceToken,\n        IERC20 _targetToken,\n        uint256 _amount\n    ) public view override active returns (uint256, uint256) {\n        return targetAmountAndFee(_sourceToken, _targetToken, 0, 0, _amount);\n    }\n\n    /**\n     * @dev returns the expected amount and expected fee for converting one reserve to another\n     *\n     * @param _sourceToken  address of the source reserve token contract\n     * @param _targetToken  address of the target reserve token contract\n     * @param _amount       amount of source reserve tokens converted\n     *\n     * @return expected amount in units of the target reserve token\n     * @return expected fee in units of the target reserve token\n     */\n    function targetAmountAndFee(\n        IERC20 _sourceToken,\n        IERC20 _targetToken,\n        uint256, /* _sourceBalance */\n        uint256, /* _targetBalance */\n        uint256 _amount\n    ) internal view override returns (uint256, uint256) {\n        IERC20[] memory _reserveTokens = reserveTokens();\n        require(\n            (_sourceToken == _reserveTokens[0] && _targetToken == _reserveTokens[1]) ||\n                (_sourceToken == _reserveTokens[1] && _targetToken == _reserveTokens[0]),\n            \"ERR_INVALID_RESERVES\"\n        );\n\n        uint256 rateN = _rate[_sourceToken];\n        uint256 rateD = _rate[_targetToken];\n\n        uint256 amount = _amount.mul(rateN).div(rateD);\n\n        uint256 fee = calculateFee(amount);\n\n        return (amount - fee, fee);\n    }\n\n    /**\n     * @dev returns the required amount and expected fee for converting one reserve to another\n     *\n     * @param _sourceToken address of the source reserve token contract\n     * @param _targetToken address of the target reserve token contract\n     * @param _amount      amount of target reserve tokens desired\n     *\n     * @return required amount in units of the source reserve token\n     * @return expected fee in units of the target reserve token\n     */\n    function sourceAmountAndFee(\n        IERC20 _sourceToken,\n        IERC20 _targetToken,\n        uint256 _amount\n    ) public view override active returns (uint256, uint256) {\n        uint256 rateN = _rate[_sourceToken];\n        uint256 rateD = _rate[_targetToken];\n\n        uint256 fee = calculateFeeInv(_amount);\n\n        uint256 amount = _amount.add(fee).mul(rateD).div(rateN);\n\n        return (amount, fee);\n    }\n\n    /**\n     * @dev get the amount of pool tokens to mint for the caller\n     * and the amount of reserve tokens to transfer from the caller\n     *\n     * @param _reserveTokens    address of each reserve token\n     * @param _reserveAmounts   amount of each reserve token\n     * @param _reserveBalances  balance of each reserve token\n     * @param _totalSupply      total supply of pool tokens\n     *\n     * @return amount of pool tokens to mint for the caller\n     * @return amount of reserve tokens to transfer from the caller\n     */\n    function addLiquidityAmounts(\n        IERC20[] memory _reserveTokens,\n        uint256[] memory _reserveAmounts,\n        uint256[2] memory _reserveBalances,\n        uint256 _totalSupply\n    ) internal view override returns (uint256, uint256[2] memory) {\n        uint256 rateN = _rate[_reserveTokens[0]];\n        uint256 rateD = _rate[_reserveTokens[1]];\n        uint256 n = _reserveAmounts[0].mul(rateN).add(_reserveAmounts[1]).mul(rateD);\n        uint256 d = _reserveBalances[0].mul(rateN).add(_reserveBalances[1]).mul(rateD);\n        uint256 amount = _totalSupply.mul(n).div(d);\n\n        uint256[2] memory reserveAmounts;\n        for (uint256 i = 0; i < 2; i++) {\n            reserveAmounts[i] = _reserveAmounts[i];\n        }\n\n        return (amount, reserveAmounts);\n    }\n\n    /**\n     * @dev checks whether or not at least one reserve amount is larger than zero\n     *\n     * @param _reserveAmounts  array of reserve amounts\n     *\n     * @return true if at least one of the reserve amounts is larger than zero; false otherwise\n     */\n    function validReserveAmounts(uint256[] memory _reserveAmounts) internal pure override returns (bool) {\n        return _reserveAmounts[0] > 0 || _reserveAmounts[1] > 0;\n    }\n}\n",
  "sourcePath": "/Users/dennismacpro/Projects/Defi/Ethereum-Solidity-Collection/icarus-protocol/defi-seeder/.tmp/bancor/contracts-solidity/solidity/contracts/converter/types/fixed-rate-pool/FixedRatePoolConverter.sol",
  "compiler": {
    "name": "solc",
    "version": "0.6.12+commit.27d51765.Emscripten.clang"
  },
  "schemaVersion": "3.3.3",
  "updatedAt": "2021-04-01T18:17:51.975Z",
  "devdoc": {
    "details": "This contract is a specialized version of the converter, which implements a constant conversion-rate (configurable by the owner of the converter).",
    "kind": "dev",
    "methods": {
      "acceptAnchorOwnership()": {
        "details": "accepts ownership of the anchor after an ownership transfer most converters are also activated as soon as they accept the anchor ownership can only be called by the contract owner note that prior to version 28, you should use 'acceptTokenOwnership' instead"
      },
      "acceptOwnership()": {
        "details": "used by a new owner to accept an ownership transfer"
      },
      "acceptTokenOwnership()": {
        "details": "deprecated, backward compatibility"
      },
      "addLiquidity(address[],uint256[],uint256)": {
        "details": "increases the pool's liquidity and mints new shares in the pool to the caller",
        "params": {
          "_minReturn": "token minimum return-amount",
          "_reserveAmounts": "amount of each reserve token",
          "_reserveTokens": "address of each reserve token"
        },
        "returns": {
          "_0": "amount of pool tokens issued"
        }
      },
      "addLiquidity(uint256,uint256,uint256)": {
        "details": "increases the pool's liquidity and mints new shares in the pool to the caller this version receives the two reserve amounts as separate args",
        "params": {
          "_minReturn": "token minimum return-amount",
          "_reserve1Amount": "amount of the first reserve token",
          "_reserve2Amount": "amount of the second reserve token"
        },
        "returns": {
          "_0": "amount of pool tokens issued"
        }
      },
      "addLiquidityCost(address[],uint256,uint256)": {
        "details": "given the amount of one of the reserve tokens to add liquidity of, returns the required amount of each one of the other reserve tokens since an empty pool can be funded with any list of non-zero input amounts, this function assumes that the pool is not empty (has already been funded)",
        "params": {
          "_reserveAmount": "amount of the relevant reserve token",
          "_reserveTokenIndex": "index of the relevant reserve token",
          "_reserveTokens": "address of each reserve token"
        },
        "returns": {
          "_0": "the required amount of each one of the reserve tokens"
        }
      },
      "addLiquidityReturn(address,uint256)": {
        "details": "given the amount of one of the reserve tokens to add liquidity of, returns the amount of pool tokens entitled for it since an empty pool can be funded with any list of non-zero input amounts, this function assumes that the pool is not empty (has already been funded)",
        "params": {
          "_reserveAmount": "amount of the reserve token",
          "_reserveToken": "address of the reserve token"
        },
        "returns": {
          "_0": "the amount of pool tokens entitled"
        }
      },
      "addReserve(address,uint32)": {
        "details": "defines a new reserve token for the converter can only be called by the owner while the converter is inactive",
        "params": {
          "_token": "address of the reserve token",
          "_weight": "reserve weight, represented in ppm, 1-1000000"
        }
      },
      "connectorTokenCount()": {
        "details": "deprecated, backward compatibility"
      },
      "connectorTokens(uint256)": {
        "details": "deprecated, backward compatibility"
      },
      "connectors(address)": {
        "details": "deprecated, backward compatibility"
      },
      "constructor": {
        "details": "initializes a new FixedRatePoolConverter instance",
        "params": {
          "_anchor": "anchor governed by the converter",
          "_maxConversionFee": "maximum conversion fee, represented in ppm",
          "_registry": "address of a contract registry contract"
        }
      },
      "convert(address,address,uint256,address,address)": {
        "details": "converts a specific amount of source tokens to target tokens can only be called by the bancor network contract",
        "params": {
          "_amount": "amount of tokens to convert (in units of the source token)",
          "_beneficiary": "wallet to receive the conversion result",
          "_sourceToken": "source ERC20 token",
          "_targetToken": "target ERC20 token",
          "_trader": "address of the caller who executed the conversion"
        },
        "returns": {
          "_0": "amount of tokens received (in units of the target token)"
        }
      },
      "converterType()": {
        "details": "returns the converter type",
        "returns": {
          "_0": "see the converter types in the the main contract doc"
        }
      },
      "getConnectorBalance(address)": {
        "details": "deprecated, backward compatibility"
      },
      "getReturn(address,address,uint256)": {
        "details": "deprecated, backward compatibility"
      },
      "isActive()": {
        "details": "returns true if the converter is active, false otherwise",
        "returns": {
          "_0": "true if the converter is active, false otherwise"
        }
      },
      "isV28OrHigher()": {
        "details": "checks whether or not the converter version is 28 or higher",
        "returns": {
          "_0": "true, since the converter version is 28 or higher"
        }
      },
      "rate()": {
        "details": "returns the worth of the 1st reserve token in units of the 2nd reserve token",
        "returns": {
          "_0": "the numerator of the rate between the 1st reserve token and the 2nd reserve token",
          "_1": "the denominator of the rate between the 1st reserve token and the 2nd reserve token"
        }
      },
      "recentAverageRate(address)": {
        "details": "returns the recent average rate of 1 `_token` in the other reserve token units",
        "params": {
          "_token": "token to get the rate for"
        },
        "returns": {
          "_0": "recent average rate between the reserves (numerator)",
          "_1": "recent average rate between the reserves (denominator)"
        }
      },
      "removeLiquidity(uint256,address[],uint256[])": {
        "details": "decreases the pool's liquidity and burns the caller's shares in the pool",
        "params": {
          "_amount": "token amount",
          "_reserveMinReturnAmounts": "minimum return-amount of each reserve token",
          "_reserveTokens": "address of each reserve token"
        },
        "returns": {
          "_0": "the amount of each reserve token granted for the given amount of pool tokens"
        }
      },
      "removeLiquidity(uint256,uint256,uint256)": {
        "details": "decreases the pool's liquidity and burns the caller's shares in the pool this version receives the two minimum return amounts as separate args",
        "params": {
          "_amount": "token amount",
          "_reserve1MinReturn": "minimum return for the first reserve token",
          "_reserve2MinReturn": "minimum return for the second reserve token"
        },
        "returns": {
          "_0": "the first reserve amount returned",
          "_1": "the second reserve amount returned"
        }
      },
      "removeLiquidityReturn(uint256,address[])": {
        "details": "returns the amount of each reserve token entitled for a given amount of pool tokens",
        "params": {
          "_amount": "amount of pool tokens",
          "_reserveTokens": "address of each reserve token"
        },
        "returns": {
          "_0": "the amount of each reserve token entitled for the given amount of pool tokens"
        }
      },
      "reserveBalance(address)": {
        "details": "returns the balance of a given reserve token",
        "params": {
          "_reserveToken": "reserve token contract address"
        },
        "returns": {
          "_0": "the balance of the given reserve token"
        }
      },
      "reserveBalances()": {
        "details": "returns the balances of both reserve tokens",
        "returns": {
          "_0": "the balances of both reserve tokens"
        }
      },
      "reserveTokenCount()": {
        "details": "returns the number of reserve tokens note that prior to version 17, you should use 'connectorTokenCount' instead",
        "returns": {
          "_0": "number of reserve tokens"
        }
      },
      "reserveTokens()": {
        "details": "returns the array of reserve tokens",
        "returns": {
          "_0": "array of reserve tokens"
        }
      },
      "reserveWeight(address)": {
        "details": "returns the reserve's weight added in version 28",
        "params": {
          "_reserveToken": "reserve token contract address"
        },
        "returns": {
          "_0": "reserve weight"
        }
      },
      "restoreRegistry()": {
        "details": "restores the previous contract-registry"
      },
      "restrictRegistryUpdate(bool)": {
        "details": "restricts the permission to update the contract-registry",
        "params": {
          "_onlyOwnerCanUpdateRegistry": "indicates whether or not permission is restricted to owner only"
        }
      },
      "setConversionFee(uint32)": {
        "details": "updates the current conversion fee can only be called by the contract owner",
        "params": {
          "_conversionFee": "new conversion fee, represented in ppm"
        }
      },
      "setRate(uint256,uint256)": {
        "details": "sets the worth of the 1st reserve token in units of the 2nd reserve token can be executed only by the owner of the converter",
        "params": {
          "rateD": "the denominator of the rate between the 1st reserve token and the 2nd reserve token",
          "rateN": "the numerator of the rate between the 1st reserve token and the 2nd reserve token"
        }
      },
      "sourceAmountAndFee(address,address,uint256)": {
        "details": "returns the required amount and expected fee for converting one reserve to another",
        "params": {
          "_amount": "amount of target reserve tokens desired",
          "_sourceToken": "address of the source reserve token contract",
          "_targetToken": "address of the target reserve token contract"
        },
        "returns": {
          "_0": "required amount in units of the source reserve token",
          "_1": "expected fee in units of the target reserve token"
        }
      },
      "targetAmountAndFee(address,address,uint256)": {
        "details": "returns the expected amount and expected fee for converting one reserve to another",
        "params": {
          "_amount": "amount of source reserve tokens converted",
          "_sourceToken": "address of the source reserve token contract",
          "_targetToken": "address of the target reserve token contract"
        },
        "returns": {
          "_0": "expected amount in units of the target reserve token",
          "_1": "expected fee in units of the target reserve token"
        }
      },
      "token()": {
        "details": "deprecated since version 28, backward compatibility - use only for earlier versions"
      },
      "transferAnchorOwnership(address)": {
        "details": "transfers the anchor ownership the new owner needs to accept the transfer can only be called by the converter upgrder while the upgrader is the owner note that prior to version 28, you should use 'transferAnchorOwnership' instead",
        "params": {
          "_newOwner": "new token owner"
        }
      },
      "transferOwnership(address)": {
        "details": "allows transferring the contract ownership the new owner still needs to accept the transfer can only be called by the contract owner",
        "params": {
          "_newOwner": "new contract owner"
        }
      },
      "transferTokenOwnership(address)": {
        "details": "deprecated, backward compatibility"
      },
      "updateRegistry()": {
        "details": "updates to the new contract-registry"
      },
      "upgrade()": {
        "details": "upgrades the converter to the latest version can only be called by the owner note that the owner needs to call acceptOwnership on the new converter after the upgrade"
      },
      "withdrawETH(address)": {
        "details": "withdraws ether can only be called by the owner if the converter is inactive or by upgrader contract can only be called after the upgrader contract has accepted the ownership of this contract can only be called if the converter has an ETH reserve",
        "params": {
          "_to": "address to send the ETH to"
        }
      },
      "withdrawTokens(address,address,uint256)": {
        "details": "withdraws tokens held by the converter and sends them to an account can only be called by the owner note that reserve tokens can only be withdrawn by the owner while the converter is inactive unless the owner is the converter upgrader contract",
        "params": {
          "_amount": "amount to withdraw",
          "_to": "account to receive the new amount",
          "_token": "ERC20 token contract address"
        }
      }
    },
    "version": 1
  },
  "userdoc": {
    "kind": "user",
    "methods": {},
    "version": 1
  }
}