{
  "contractName": "LiquidityProtectionStore",
  "abi": [
    {
      "anonymous": false,
      "inputs": [
        {
          "indexed": true,
          "internalType": "address",
          "name": "_provider",
          "type": "address"
        },
        {
          "indexed": false,
          "internalType": "uint256",
          "name": "_amount",
          "type": "uint256"
        },
        {
          "indexed": false,
          "internalType": "uint256",
          "name": "_expirationTime",
          "type": "uint256"
        }
      ],
      "name": "BalanceLocked",
      "type": "event"
    },
    {
      "anonymous": false,
      "inputs": [
        {
          "indexed": true,
          "internalType": "address",
          "name": "_provider",
          "type": "address"
        },
        {
          "indexed": false,
          "internalType": "uint256",
          "name": "_amount",
          "type": "uint256"
        }
      ],
      "name": "BalanceUnlocked",
      "type": "event"
    },
    {
      "anonymous": false,
      "inputs": [
        {
          "indexed": true,
          "internalType": "address",
          "name": "_prevOwner",
          "type": "address"
        },
        {
          "indexed": true,
          "internalType": "address",
          "name": "_newOwner",
          "type": "address"
        }
      ],
      "name": "OwnerUpdate",
      "type": "event"
    },
    {
      "anonymous": false,
      "inputs": [
        {
          "indexed": true,
          "internalType": "address",
          "name": "_provider",
          "type": "address"
        },
        {
          "indexed": true,
          "internalType": "contract IDSToken",
          "name": "_poolToken",
          "type": "address"
        },
        {
          "indexed": true,
          "internalType": "contract IERC20",
          "name": "_reserveToken",
          "type": "address"
        },
        {
          "indexed": false,
          "internalType": "uint256",
          "name": "_poolAmount",
          "type": "uint256"
        },
        {
          "indexed": false,
          "internalType": "uint256",
          "name": "_reserveAmount",
          "type": "uint256"
        }
      ],
      "name": "ProtectionAdded",
      "type": "event"
    },
    {
      "anonymous": false,
      "inputs": [
        {
          "indexed": true,
          "internalType": "address",
          "name": "_provider",
          "type": "address"
        },
        {
          "indexed": true,
          "internalType": "contract IDSToken",
          "name": "_poolToken",
          "type": "address"
        },
        {
          "indexed": true,
          "internalType": "contract IERC20",
          "name": "_reserveToken",
          "type": "address"
        },
        {
          "indexed": false,
          "internalType": "uint256",
          "name": "_poolAmount",
          "type": "uint256"
        },
        {
          "indexed": false,
          "internalType": "uint256",
          "name": "_reserveAmount",
          "type": "uint256"
        }
      ],
      "name": "ProtectionRemoved",
      "type": "event"
    },
    {
      "anonymous": false,
      "inputs": [
        {
          "indexed": true,
          "internalType": "address",
          "name": "_provider",
          "type": "address"
        },
        {
          "indexed": false,
          "internalType": "uint256",
          "name": "_prevPoolAmount",
          "type": "uint256"
        },
        {
          "indexed": false,
          "internalType": "uint256",
          "name": "_prevReserveAmount",
          "type": "uint256"
        },
        {
          "indexed": false,
          "internalType": "uint256",
          "name": "_newPoolAmount",
          "type": "uint256"
        },
        {
          "indexed": false,
          "internalType": "uint256",
          "name": "_newReserveAmount",
          "type": "uint256"
        }
      ],
      "name": "ProtectionUpdated",
      "type": "event"
    },
    {
      "anonymous": false,
      "inputs": [
        {
          "indexed": false,
          "internalType": "contract IERC20",
          "name": "_token",
          "type": "address"
        },
        {
          "indexed": false,
          "internalType": "uint256",
          "name": "_prevAmount",
          "type": "uint256"
        },
        {
          "indexed": false,
          "internalType": "uint256",
          "name": "_newAmount",
          "type": "uint256"
        }
      ],
      "name": "SystemBalanceUpdated",
      "type": "event"
    },
    {
      "inputs": [],
      "name": "acceptOwnership",
      "outputs": [],
      "stateMutability": "nonpayable",
      "type": "function"
    },
    {
      "inputs": [],
      "name": "newOwner",
      "outputs": [
        {
          "internalType": "address",
          "name": "",
          "type": "address"
        }
      ],
      "stateMutability": "view",
      "type": "function"
    },
    {
      "inputs": [],
      "name": "owner",
      "outputs": [
        {
          "internalType": "address",
          "name": "",
          "type": "address"
        }
      ],
      "stateMutability": "view",
      "type": "function"
    },
    {
      "inputs": [
        {
          "internalType": "address",
          "name": "_newOwner",
          "type": "address"
        }
      ],
      "name": "transferOwnership",
      "outputs": [],
      "stateMutability": "nonpayable",
      "type": "function"
    },
    {
      "inputs": [
        {
          "internalType": "contract IERC20",
          "name": "_token",
          "type": "address"
        },
        {
          "internalType": "address",
          "name": "_to",
          "type": "address"
        },
        {
          "internalType": "uint256",
          "name": "_amount",
          "type": "uint256"
        }
      ],
      "name": "withdrawTokens",
      "outputs": [],
      "stateMutability": "nonpayable",
      "type": "function"
    },
    {
      "inputs": [
        {
          "internalType": "address",
          "name": "_provider",
          "type": "address"
        }
      ],
      "name": "protectedLiquidityCount",
      "outputs": [
        {
          "internalType": "uint256",
          "name": "",
          "type": "uint256"
        }
      ],
      "stateMutability": "view",
      "type": "function"
    },
    {
      "inputs": [
        {
          "internalType": "address",
          "name": "_provider",
          "type": "address"
        }
      ],
      "name": "protectedLiquidityIds",
      "outputs": [
        {
          "internalType": "uint256[]",
          "name": "",
          "type": "uint256[]"
        }
      ],
      "stateMutability": "view",
      "type": "function"
    },
    {
      "inputs": [
        {
          "internalType": "address",
          "name": "_provider",
          "type": "address"
        },
        {
          "internalType": "uint256",
          "name": "_index",
          "type": "uint256"
        }
      ],
      "name": "protectedLiquidityId",
      "outputs": [
        {
          "internalType": "uint256",
          "name": "",
          "type": "uint256"
        }
      ],
      "stateMutability": "view",
      "type": "function"
    },
    {
      "inputs": [
        {
          "internalType": "uint256",
          "name": "_id",
          "type": "uint256"
        }
      ],
      "name": "protectedLiquidity",
      "outputs": [
        {
          "internalType": "address",
          "name": "",
          "type": "address"
        },
        {
          "internalType": "contract IDSToken",
          "name": "",
          "type": "address"
        },
        {
          "internalType": "contract IERC20",
          "name": "",
          "type": "address"
        },
        {
          "internalType": "uint256",
          "name": "",
          "type": "uint256"
        },
        {
          "internalType": "uint256",
          "name": "",
          "type": "uint256"
        },
        {
          "internalType": "uint256",
          "name": "",
          "type": "uint256"
        },
        {
          "internalType": "uint256",
          "name": "",
          "type": "uint256"
        },
        {
          "internalType": "uint256",
          "name": "",
          "type": "uint256"
        }
      ],
      "stateMutability": "view",
      "type": "function"
    },
    {
      "inputs": [
        {
          "internalType": "address",
          "name": "_provider",
          "type": "address"
        },
        {
          "internalType": "contract IDSToken",
          "name": "_poolToken",
          "type": "address"
        },
        {
          "internalType": "contract IERC20",
          "name": "_reserveToken",
          "type": "address"
        },
        {
          "internalType": "uint256",
          "name": "_poolAmount",
          "type": "uint256"
        },
        {
          "internalType": "uint256",
          "name": "_reserveAmount",
          "type": "uint256"
        },
        {
          "internalType": "uint256",
          "name": "_reserveRateN",
          "type": "uint256"
        },
        {
          "internalType": "uint256",
          "name": "_reserveRateD",
          "type": "uint256"
        },
        {
          "internalType": "uint256",
          "name": "_timestamp",
          "type": "uint256"
        }
      ],
      "name": "addProtectedLiquidity",
      "outputs": [
        {
          "internalType": "uint256",
          "name": "",
          "type": "uint256"
        }
      ],
      "stateMutability": "nonpayable",
      "type": "function"
    },
    {
      "inputs": [
        {
          "internalType": "uint256",
          "name": "_id",
          "type": "uint256"
        },
        {
          "internalType": "uint256",
          "name": "_newPoolAmount",
          "type": "uint256"
        },
        {
          "internalType": "uint256",
          "name": "_newReserveAmount",
          "type": "uint256"
        }
      ],
      "name": "updateProtectedLiquidityAmounts",
      "outputs": [],
      "stateMutability": "nonpayable",
      "type": "function"
    },
    {
      "inputs": [
        {
          "internalType": "uint256",
          "name": "_id",
          "type": "uint256"
        }
      ],
      "name": "removeProtectedLiquidity",
      "outputs": [],
      "stateMutability": "nonpayable",
      "type": "function"
    },
    {
      "inputs": [
        {
          "internalType": "address",
          "name": "_provider",
          "type": "address"
        }
      ],
      "name": "lockedBalanceCount",
      "outputs": [
        {
          "internalType": "uint256",
          "name": "",
          "type": "uint256"
        }
      ],
      "stateMutability": "view",
      "type": "function"
    },
    {
      "inputs": [
        {
          "internalType": "address",
          "name": "_provider",
          "type": "address"
        },
        {
          "internalType": "uint256",
          "name": "_index",
          "type": "uint256"
        }
      ],
      "name": "lockedBalance",
      "outputs": [
        {
          "internalType": "uint256",
          "name": "",
          "type": "uint256"
        },
        {
          "internalType": "uint256",
          "name": "",
          "type": "uint256"
        }
      ],
      "stateMutability": "view",
      "type": "function"
    },
    {
      "inputs": [
        {
          "internalType": "address",
          "name": "_provider",
          "type": "address"
        },
        {
          "internalType": "uint256",
          "name": "_startIndex",
          "type": "uint256"
        },
        {
          "internalType": "uint256",
          "name": "_endIndex",
          "type": "uint256"
        }
      ],
      "name": "lockedBalanceRange",
      "outputs": [
        {
          "internalType": "uint256[]",
          "name": "",
          "type": "uint256[]"
        },
        {
          "internalType": "uint256[]",
          "name": "",
          "type": "uint256[]"
        }
      ],
      "stateMutability": "view",
      "type": "function"
    },
    {
      "inputs": [
        {
          "internalType": "address",
          "name": "_provider",
          "type": "address"
        },
        {
          "internalType": "uint256",
          "name": "_amount",
          "type": "uint256"
        },
        {
          "internalType": "uint256",
          "name": "_expirationTime",
          "type": "uint256"
        }
      ],
      "name": "addLockedBalance",
      "outputs": [
        {
          "internalType": "uint256",
          "name": "",
          "type": "uint256"
        }
      ],
      "stateMutability": "nonpayable",
      "type": "function"
    },
    {
      "inputs": [
        {
          "internalType": "address",
          "name": "_provider",
          "type": "address"
        },
        {
          "internalType": "uint256",
          "name": "_index",
          "type": "uint256"
        }
      ],
      "name": "removeLockedBalance",
      "outputs": [],
      "stateMutability": "nonpayable",
      "type": "function"
    },
    {
      "inputs": [
        {
          "internalType": "contract IERC20",
          "name": "_token",
          "type": "address"
        }
      ],
      "name": "systemBalance",
      "outputs": [
        {
          "internalType": "uint256",
          "name": "",
          "type": "uint256"
        }
      ],
      "stateMutability": "view",
      "type": "function"
    },
    {
      "inputs": [
        {
          "internalType": "contract IERC20",
          "name": "_token",
          "type": "address"
        },
        {
          "internalType": "uint256",
          "name": "_amount",
          "type": "uint256"
        }
      ],
      "name": "incSystemBalance",
      "outputs": [],
      "stateMutability": "nonpayable",
      "type": "function"
    },
    {
      "inputs": [
        {
          "internalType": "contract IERC20",
          "name": "_token",
          "type": "address"
        },
        {
          "internalType": "uint256",
          "name": "_amount",
          "type": "uint256"
        }
      ],
      "name": "decSystemBalance",
      "outputs": [],
      "stateMutability": "nonpayable",
      "type": "function"
    },
    {
      "inputs": [
        {
          "internalType": "contract IDSToken",
          "name": "_poolToken",
          "type": "address"
        }
      ],
      "name": "totalProtectedPoolAmount",
      "outputs": [
        {
          "internalType": "uint256",
          "name": "",
          "type": "uint256"
        }
      ],
      "stateMutability": "view",
      "type": "function"
    },
    {
      "inputs": [
        {
          "internalType": "contract IDSToken",
          "name": "_poolToken",
          "type": "address"
        },
        {
          "internalType": "contract IERC20",
          "name": "_reserveToken",
          "type": "address"
        }
      ],
      "name": "totalProtectedReserveAmount",
      "outputs": [
        {
          "internalType": "uint256",
          "name": "",
          "type": "uint256"
        }
      ],
      "stateMutability": "view",
      "type": "function"
    }
  ],
  "bytecode": "0x608060405234801561001057600080fd5b50600080546001600160a01b03191633179055611bd7806100326000396000f3fe608060405234801561001057600080fd5b50600436106101425760003560e01c80638da5cb5b116100b8578063d4ee1d901161007c578063d4ee1d90146104a4578063dbae3a5d146104ac578063f2fde38b146104de578063f4206dea14610504578063fb6c03fa146105cf578063fd589e50146105fb57610142565b80638da5cb5b1461038757806390e0661b146103ab57806396ad435b146103d7578063b089cde814610405578063d3d1e7bd1461042e57610142565b80635290ffbb1161010a5780635290ffbb1461024457806357dac2ec146102b15780635e35359e146102d757806361d5f0871461030d5780636f366b711461036257806379ba50971461037f57610142565b806319c6a5e4146101475780632fb4f04a14610175578063332100fa146101ba57806337fc38df146101e65780635121220c1461021e575b600080fd5b6101736004803603604081101561015d57600080fd5b506001600160a01b038135169060200135610621565b005b6101a16004803603604081101561018b57600080fd5b506001600160a01b0381351690602001356106bc565b6040805192835260208301919091528051918290030190f35b610173600480360360408110156101d057600080fd5b506001600160a01b03813516906020013561070a565b61020c600480360360208110156101fc57600080fd5b50356001600160a01b0316610740565b60408051918252519081900360200190f35b61020c6004803603602081101561023457600080fd5b50356001600160a01b031661075b565b6102616004803603602081101561025a57600080fd5b5035610776565b604080516001600160a01b03998a168152978916602089015295909716868601526060860193909352608085019190915260a084015260c083015260e08201929092529051908190036101000190f35b61020c600480360360208110156102c757600080fd5b50356001600160a01b03166107cb565b610173600480360360608110156102ed57600080fd5b506001600160a01b038135811691602081013590911690604001356107e6565b61020c600480360361010081101561032457600080fd5b506001600160a01b03813581169160208101358216916040820135169060608101359060808101359060a08101359060c08101359060e0013561081d565b6101736004803603602081101561037857600080fd5b5035610c24565b610173610e79565b61038f610f30565b604080516001600160a01b039092168252519081900360200190f35b610173600480360360408110156103c157600080fd5b506001600160a01b038135169060200135610f3f565b61020c600480360360408110156103ed57600080fd5b506001600160a01b0381358116916020013516611097565b6101736004803603606081101561041b57600080fd5b50803590602081013590604001356110c2565b6104546004803603602081101561044457600080fd5b50356001600160a01b0316611252565b60408051602080825283518183015283519192839290830191858101910280838360005b83811015610490578181015183820152602001610478565b505050509050019250505060405180910390f35b61038f6112be565b61020c600480360360608110156104c257600080fd5b506001600160a01b0381351690602081013590604001356112cd565b610173600480360360208110156104f457600080fd5b50356001600160a01b03166113b0565b6105366004803603606081101561051a57600080fd5b506001600160a01b03813516906020810135906040013561142e565b604051808060200180602001838103835285818151815260200191508051906020019060200280838360005b8381101561057a578181015183820152602001610562565b50505050905001838103825284818151815260200191508051906020019060200280838360005b838110156105b95781810151838201526020016105a1565b5050505090500194505050505060405180910390f35b61020c600480360360408110156105e557600080fd5b506001600160a01b0381351690602001356115d9565b61020c6004803603602081101561061157600080fd5b50356001600160a01b0316611610565b61062961162b565b8161063381611680565b6001600160a01b0383166000908152600660205260408120549061065782856116d4565b6001600160a01b03861660008181526006602090815260409182902084905581519283528201859052818101839052519192507f407aa06211cf8eec4798e12787e05d8e5ba13eab80aac8df1b59ed5db8520197919081900360600190a15050505050565b6001600160a01b0382166000908152600560205260408120805482918291859081106106e457fe5b906000526020600020906002020190508060000154816001015492509250509250929050565b61071261162b565b8161071c81611680565b6001600160a01b038316600090815260066020526040812054906106578285611731565b6001600160a01b031660009081526005602052604090205490565b6001600160a01b031660009081526006602052604090205490565b6000908152600460208190526040909120805460028201546003830154938301546005840154600685015460078601546008909601546001600160a01b03958616989486169795909516959294919390929190565b6001600160a01b031660009081526003602052604090205490565b6107ee61162b565b816107f881611680565b8261080281611792565b6108166001600160a01b03861685856117e6565b5050505050565b600061082761162b565b6001600160a01b0389161580159061084857506001600160a01b0389163014155b801561085c57506001600160a01b03881615155b801561087157506001600160a01b0388163014155b801561088557506001600160a01b03871615155b801561089a57506001600160a01b0387163014155b6108e1576040805162461bcd60e51b81526020600482015260136024820152724552525f494e56414c49445f4144445245535360681b604482015290519081900360640190fd5b6000861180156108f15750600085115b80156108fd5750600084115b80156109095750600083115b80156109155750600082115b610957576040805162461bcd60e51b815260206004820152600e60248201526d4552525f5a45524f5f56414c554560901b604482015290519081900360640190fd5b6000600360008b6001600160a01b03166001600160a01b0316815260200190815260200160002090506000600254905060016002600082825401925050819055506040518061012001604052808c6001600160a01b03168152602001838054905081526020018b6001600160a01b031681526020018a6001600160a01b03168152602001898152602001888152602001878152602001868152602001858152506004600083815260200190815260200160002060008201518160000160006101000a8154816001600160a01b0302191690836001600160a01b031602179055506020820151816001015560408201518160020160006101000a8154816001600160a01b0302191690836001600160a01b0316021790555060608201518160030160006101000a8154816001600160a01b0302191690836001600160a01b031602179055506080820151816004015560a0820151816005015560c0820151816006015560e08201518160070155610100820151816008015590505081819080600181540180825580915050600190039060005260206000200160009091909190915055610b3188600760008d6001600160a01b03166001600160a01b031681526020019081526020016000205461173190919063ffffffff16565b6001600160a01b03808c1660009081526007602090815260408083209490945560088152838220928d168252919091522054610b6d9088611731565b600860008c6001600160a01b03166001600160a01b0316815260200190815260200160002060008b6001600160a01b03166001600160a01b0316815260200190815260200160002081905550886001600160a01b03168a6001600160a01b03168c6001600160a01b03167f3ad050950cfb9657a985fbfebb84c6e7c799d8c08e4fc412cb84e9bd2e68f8cd8b8b604051808381526020018281526020019250505060405180910390a49a9950505050505050505050565b610c2c61162b565b600081815260046020526040902080546001600160a01b031680610c88576040805162461bcd60e51b815260206004820152600e60248201526d11549497d253959053125117d25160921b604482015290519081900360640190fd5b6001828101546002808501546003808701546004808901546005808b015460008d81526020858152604080832080546001600160a01b031990811682559d81018490559a8b0180548e1690558a89018054909d16909c55948901819055918801829055600688018290556007880182905560089097018190556001600160a01b038a8116825294909252969020805495969383169592909116939180610d2a57fe5b600019810180881015610d82576000838281548110610d4557fe5b9060005260206000200154905080848a81548110610d5f57fe5b600091825260208083209091019290925591825260049052604090206001018890555b82805480610d8c57fe5b6000828152602080822083016000199081018390559092019092556001600160a01b0389168252600790526040902054610dc690866116d4565b6001600160a01b0380891660009081526007602090815260408083209490945560088152838220928a168252919091522054610e0290856116d4565b6001600160a01b0380891660008181526008602090815260408083208c8616808552908352928190209590955584518a81529081018990528451919492938e16927feafbca2ddc06778be021087babbeda29033997e4e461abdc6d5bf30a0f14a02592918290030190a45050505050505050505050565b6001546001600160a01b03163314610ecc576040805162461bcd60e51b815260206004820152601160248201527011549497d050d0d154d4d7d11153925151607a1b604482015290519081900360640190fd5b600154600080546040516001600160a01b0393841693909116917f343765429aea5a34b3ff6a3785a98a5abb2597aca87bfbb58632c173d585373a91a360018054600080546001600160a01b03199081166001600160a01b03841617909155169055565b6000546001600160a01b031681565b610f4761162b565b81610f5181611680565b6001600160a01b03831660009081526005602052604090208054808410610fb3576040805162461bcd60e51b815260206004820152601160248201527008aa4a4be929cac82989288be929c888ab607b1b604482015290519081900360640190fd5b6000828581548110610fc157fe5b6000918252602090912060029091020154905060001982018086101561102657838181548110610fed57fe5b906000526020600020906002020184878154811061100757fe5b6000918252602090912082546002909202019081556001918201549101555b8380548061103057fe5b600082815260208082206002600019909401938402018281556001019190915591556040805184815290516001600160a01b038a16927f43e8fb9d4f009c90c55a3fa108b177b794704d61af7af6f6512db7883f8ed843928290030190a250505050505050565b6001600160a01b03918216600090815260086020908152604080832093909416825291909152205490565b6110ca61162b565b816110d48161183d565b816110de8161183d565b600085815260046020526040902080546001600160a01b03168061113a576040805162461bcd60e51b815260206004820152600e60248201526d11549497d253959053125117d25160921b604482015290519081900360640190fd5b60028201546003830154600484018054600586018054928b90558990556001600160a01b0393841660008181526007602052604090205490949093169290919061119090839061118a908d611731565b906116d4565b6001600160a01b038086166000908152600760209081526040808320949094556008815283822092871682529190915220546111d290829061118a908c611731565b6001600160a01b03808616600090815260086020908152604080832088851684528252918290209390935580518581529283018490528281018d9052606083018c905251908716917f4b40353ab8113f910f903abef8926205420b70265d2a3db18168b0dff00dff0d919081900360800190a25050505050505050505050565b6001600160a01b0381166000908152600360209081526040918290208054835181840281018401909452808452606093928301828280156112b257602002820191906000526020600020905b81548152602001906001019080831161129e575b50505050509050919050565b6001546001600160a01b031681565b60006112d761162b565b836112e181611680565b846112eb81611792565b846112f58161183d565b846112ff8161183d565b6001600160a01b0388166000818152600560209081526040808320815180830183528c81528084018c815282546001818101855593875295859020915160029096029091019485555193019290925581518a815290810189905281517f931ca4971b116a87c466516714a76b130f47bd6627f93d3c351f672f95070365929181900390910190a26001600160a01b038816600090815260056020526040902054600019019450505050509392505050565b6113b861162b565b6000546001600160a01b038281169116141561140c576040805162461bcd60e51b815260206004820152600e60248201526d22a9292fa9a0a6a2afa7aba722a960911b604482015290519081900360640190fd5b600180546001600160a01b0319166001600160a01b0392909216919091179055565b6001600160a01b038316600090815260056020526040902054606090819083111561146f576001600160a01b03851660009081526005602052604090205492505b8383116114b9576040805162461bcd60e51b81526020600482015260136024820152724552525f494e56414c49445f494e444943455360681b604482015290519081900360640190fd5b83830360608167ffffffffffffffff811180156114d557600080fd5b506040519080825280602002602001820160405280156114ff578160200160208202803683370190505b50905060608267ffffffffffffffff8111801561151b57600080fd5b50604051908082528060200260200182016040528015611545578160200160208202803683370190505b50905060005b838110156115cb576001600160a01b038916600090815260056020526040812080548a840190811061157957fe5b90600052602060002090600202019050806000015484838151811061159a57fe5b60200260200101818152505080600101548383815181106115b757fe5b60209081029190910101525060010161154b565b509097909650945050505050565b6001600160a01b03821660009081526003602052604081208054839081106115fd57fe5b9060005260206000200154905092915050565b6001600160a01b031660009081526007602052604090205490565b6000546001600160a01b0316331461167e576040805162461bcd60e51b815260206004820152601160248201527011549497d050d0d154d4d7d11153925151607a1b604482015290519081900360640190fd5b565b6001600160a01b0381166116d1576040805162461bcd60e51b81526020600482015260136024820152724552525f494e56414c49445f4144445245535360681b604482015290519081900360640190fd5b50565b60008282111561172b576040805162461bcd60e51b815260206004820152601e60248201527f536166654d6174683a207375627472616374696f6e206f766572666c6f770000604482015290519081900360640190fd5b50900390565b60008282018381101561178b576040805162461bcd60e51b815260206004820152601b60248201527f536166654d6174683a206164646974696f6e206f766572666c6f770000000000604482015290519081900360640190fd5b9392505050565b6001600160a01b0381163014156116d1576040805162461bcd60e51b815260206004820152601360248201527222a9292fa0a2222922a9a9afa4a9afa9a2a62360691b604482015290519081900360640190fd5b604080516001600160a01b038416602482015260448082018490528251808303909101815260649091019091526020810180516001600160e01b031663a9059cbb60e01b179052611838908490611883565b505050565b600081116116d1576040805162461bcd60e51b815260206004820152600e60248201526d4552525f5a45524f5f56414c554560901b604482015290519081900360640190fd5b60606118d8826040518060400160405280602081526020017f5361666545524332303a206c6f772d6c6576656c2063616c6c206661696c6564815250856001600160a01b03166119349092919063ffffffff16565b805190915015611838578080602001905160208110156118f757600080fd5b50516118385760405162461bcd60e51b815260040180806020018281038252602a815260200180611b78602a913960400191505060405180910390fd5b6060611943848460008561194b565b949350505050565b60608247101561198c5760405162461bcd60e51b8152600401808060200182810382526026815260200180611b526026913960400191505060405180910390fd5b61199585611aa7565b6119e6576040805162461bcd60e51b815260206004820152601d60248201527f416464726573733a2063616c6c20746f206e6f6e2d636f6e7472616374000000604482015290519081900360640190fd5b60006060866001600160a01b031685876040518082805190602001908083835b60208310611a255780518252601f199092019160209182019101611a06565b6001836020036101000a03801982511681845116808217855250505050505090500191505060006040518083038185875af1925050503d8060008114611a87576040519150601f19603f3d011682016040523d82523d6000602084013e611a8c565b606091505b5091509150611a9c828286611aad565b979650505050505050565b3b151590565b60608315611abc57508161178b565b825115611acc5782518084602001fd5b8160405162461bcd60e51b81526004018080602001828103825283818151815260200191508051906020019080838360005b83811015611b16578181015183820152602001611afe565b50505050905090810190601f168015611b435780820380516001836020036101000a031916815260200191505b509250505060405180910390fdfe416464726573733a20696e73756666696369656e742062616c616e636520666f722063616c6c5361666545524332303a204552433230206f7065726174696f6e20646964206e6f742073756363656564a264697066735822122025e654a0140adffc5fe7942b72626047ad30a19b1cee57a1fa10bc281ca35d0864736f6c634300060c0033",
  "immutableReferences": {},
  "source": "// SPDX-License-Identifier: SEE LICENSE IN LICENSE\npragma solidity 0.6.12;\n\nimport \"@openzeppelin/contracts/math/SafeMath.sol\";\nimport \"@openzeppelin/contracts/token/ERC20/SafeERC20.sol\";\n\nimport \"./interfaces/ILiquidityProtectionStore.sol\";\nimport \"../utility/Owned.sol\";\nimport \"../utility/Utils.sol\";\n\n/**\n * @dev This contract serves as the storage of the liquidity protection mechanism.\n *\n * It holds the data and tokens, and it is generally non-upgradable.\n */\ncontract LiquidityProtectionStore is ILiquidityProtectionStore, Owned, Utils {\n    using SafeMath for uint256;\n    using SafeERC20 for IERC20;\n\n    struct ProtectedLiquidity {\n        address provider; // liquidity provider\n        uint256 index; // index in the provider liquidity ids array\n        IDSToken poolToken; // pool token address\n        IERC20 reserveToken; // reserve token address\n        uint256 poolAmount; // pool token amount\n        uint256 reserveAmount; // reserve token amount\n        uint256 reserveRateN; // rate of 1 protected reserve token in units of the other reserve token (numerator)\n        uint256 reserveRateD; // rate of 1 protected reserve token in units of the other reserve token (denominator)\n        uint256 timestamp; // timestamp\n    }\n\n    struct LockedBalance {\n        uint256 amount; // amount of network tokens\n        uint256 expirationTime; // lock expiration time\n    }\n\n    // protected liquidity by provider\n    uint256 private nextProtectedLiquidityId;\n    mapping(address => uint256[]) private protectedLiquidityIdsByProvider;\n    mapping(uint256 => ProtectedLiquidity) private protectedLiquidities;\n\n    // user locked network token balances\n    mapping(address => LockedBalance[]) private lockedBalances;\n\n    // system balances\n    mapping(IERC20 => uint256) private systemBalances;\n\n    // total protected pool supplies / reserve amounts\n    mapping(IDSToken => uint256) private totalProtectedPoolAmounts;\n    mapping(IDSToken => mapping(IERC20 => uint256)) private totalProtectedReserveAmounts;\n\n    /**\n     * @dev triggered when liquidity protection is added\n     *\n     * @param _provider        liquidity provider\n     * @param _poolToken       pool token address\n     * @param _reserveToken    reserve token address\n     * @param _poolAmount      amount of pool tokens\n     * @param _reserveAmount   amount of reserve tokens\n     */\n    event ProtectionAdded(\n        address indexed _provider,\n        IDSToken indexed _poolToken,\n        IERC20 indexed _reserveToken,\n        uint256 _poolAmount,\n        uint256 _reserveAmount\n    );\n\n    /**\n     * @dev triggered when liquidity protection is updated\n     *\n     * @param _provider            liquidity provider\n     * @param _prevPoolAmount      previous amount of pool tokens\n     * @param _prevReserveAmount   previous amount of reserve tokens\n     * @param _newPoolAmount       new amount of pool tokens\n     * @param _newReserveAmount    new amount of reserve tokens\n     */\n    event ProtectionUpdated(\n        address indexed _provider,\n        uint256 _prevPoolAmount,\n        uint256 _prevReserveAmount,\n        uint256 _newPoolAmount,\n        uint256 _newReserveAmount\n    );\n\n    /**\n     * @dev triggered when liquidity protection is removed\n     *\n     * @param _provider        liquidity provider\n     * @param _poolToken       pool token address\n     * @param _reserveToken    reserve token address\n     * @param _poolAmount      amount of pool tokens\n     * @param _reserveAmount   amount of reserve tokens\n     */\n    event ProtectionRemoved(\n        address indexed _provider,\n        IDSToken indexed _poolToken,\n        IERC20 indexed _reserveToken,\n        uint256 _poolAmount,\n        uint256 _reserveAmount\n    );\n\n    /**\n     * @dev triggered when network tokens are locked\n     *\n     * @param _provider        provider of the network tokens\n     * @param _amount          amount of network tokens\n     * @param _expirationTime  lock expiration time\n     */\n    event BalanceLocked(address indexed _provider, uint256 _amount, uint256 _expirationTime);\n\n    /**\n     * @dev triggered when network tokens are unlocked\n     *\n     * @param _provider    provider of the network tokens\n     * @param _amount      amount of network tokens\n     */\n    event BalanceUnlocked(address indexed _provider, uint256 _amount);\n\n    /**\n     * @dev triggered when the system balance for a given token is updated\n     *\n     * @param _token       token address\n     * @param _prevAmount  previous amount\n     * @param _newAmount   new amount\n     */\n    event SystemBalanceUpdated(IERC20 _token, uint256 _prevAmount, uint256 _newAmount);\n\n    /**\n     * @dev withdraws tokens held by the contract\n     * can only be called by the contract owner\n     *\n     * @param _token   token address\n     * @param _to      recipient address\n     * @param _amount  amount to withdraw\n     */\n    function withdrawTokens(\n        IERC20 _token,\n        address _to,\n        uint256 _amount\n    ) external override ownerOnly validAddress(_to) notThis(_to) {\n        _token.safeTransfer(_to, _amount);\n    }\n\n    /**\n     * @dev returns the number of protected liquidities for the given provider\n     *\n     * @param _provider    liquidity provider\n     * @return number of protected liquidities\n     */\n    function protectedLiquidityCount(address _provider) external view returns (uint256) {\n        return protectedLiquidityIdsByProvider[_provider].length;\n    }\n\n    /**\n     * @dev returns the list of protected liquidity ids for the given provider\n     *\n     * @param _provider    liquidity provider\n     * @return protected liquidity ids\n     */\n    function protectedLiquidityIds(address _provider) external view returns (uint256[] memory) {\n        return protectedLiquidityIdsByProvider[_provider];\n    }\n\n    /**\n     * @dev returns the id of a protected liquidity for the given provider at a specific index\n     *\n     * @param _provider    liquidity provider\n     * @param _index       protected liquidity index\n     * @return protected liquidity id\n     */\n    function protectedLiquidityId(address _provider, uint256 _index) external view returns (uint256) {\n        return protectedLiquidityIdsByProvider[_provider][_index];\n    }\n\n    /**\n     * @dev returns an existing protected liquidity details\n     *\n     * @param _id  protected liquidity id\n     *\n     * @return liquidity provider\n     * @return pool token address\n     * @return reserve token address\n     * @return pool token amount\n     * @return reserve token amount\n     * @return rate of 1 protected reserve token in units of the other reserve token (numerator)\n     * @return rate of 1 protected reserve token in units of the other reserve token (denominator)\n     * @return timestamp\n     */\n    function protectedLiquidity(uint256 _id)\n        external\n        view\n        override\n        returns (\n            address,\n            IDSToken,\n            IERC20,\n            uint256,\n            uint256,\n            uint256,\n            uint256,\n            uint256\n        )\n    {\n        ProtectedLiquidity storage liquidity = protectedLiquidities[_id];\n        return (\n            liquidity.provider,\n            liquidity.poolToken,\n            liquidity.reserveToken,\n            liquidity.poolAmount,\n            liquidity.reserveAmount,\n            liquidity.reserveRateN,\n            liquidity.reserveRateD,\n            liquidity.timestamp\n        );\n    }\n\n    /**\n     * @dev adds protected liquidity\n     * can only be called by the contract owner\n     *\n     * @param _provider        liquidity provider\n     * @param _poolToken       pool token address\n     * @param _reserveToken    reserve token address\n     * @param _poolAmount      pool token amount\n     * @param _reserveAmount   reserve token amount\n     * @param _reserveRateN    rate of 1 protected reserve token in units of the other reserve token (numerator)\n     * @param _reserveRateD    rate of 1 protected reserve token in units of the other reserve token (denominator)\n     * @param _timestamp       timestamp\n     * @return new protected liquidity id\n     */\n    function addProtectedLiquidity(\n        address _provider,\n        IDSToken _poolToken,\n        IERC20 _reserveToken,\n        uint256 _poolAmount,\n        uint256 _reserveAmount,\n        uint256 _reserveRateN,\n        uint256 _reserveRateD,\n        uint256 _timestamp\n    ) external override ownerOnly returns (uint256) {\n        // validate input\n        require(\n            _provider != address(0) &&\n                _provider != address(this) &&\n                address(_poolToken) != address(0) &&\n                address(_poolToken) != address(this) &&\n                address(_reserveToken) != address(0) &&\n                address(_reserveToken) != address(this),\n            \"ERR_INVALID_ADDRESS\"\n        );\n        require(\n            _poolAmount > 0 && _reserveAmount > 0 && _reserveRateN > 0 && _reserveRateD > 0 && _timestamp > 0,\n            \"ERR_ZERO_VALUE\"\n        );\n\n        // add the protected liquidity\n        uint256[] storage ids = protectedLiquidityIdsByProvider[_provider];\n        uint256 id = nextProtectedLiquidityId;\n        nextProtectedLiquidityId += 1;\n\n        protectedLiquidities[id] = ProtectedLiquidity({\n            provider: _provider,\n            index: ids.length,\n            poolToken: _poolToken,\n            reserveToken: _reserveToken,\n            poolAmount: _poolAmount,\n            reserveAmount: _reserveAmount,\n            reserveRateN: _reserveRateN,\n            reserveRateD: _reserveRateD,\n            timestamp: _timestamp\n        });\n\n        ids.push(id);\n\n        // update the total amounts\n        totalProtectedPoolAmounts[_poolToken] = totalProtectedPoolAmounts[_poolToken].add(_poolAmount);\n        totalProtectedReserveAmounts[_poolToken][_reserveToken] = totalProtectedReserveAmounts[_poolToken][\n            _reserveToken\n        ]\n            .add(_reserveAmount);\n\n        emit ProtectionAdded(_provider, _poolToken, _reserveToken, _poolAmount, _reserveAmount);\n        return id;\n    }\n\n    /**\n     * @dev updates an existing protected liquidity pool/reserve amounts\n     * can only be called by the contract owner\n     *\n     * @param _id                  protected liquidity id\n     * @param _newPoolAmount       new pool tokens amount\n     * @param _newReserveAmount    new reserve tokens amount\n     */\n    function updateProtectedLiquidityAmounts(\n        uint256 _id,\n        uint256 _newPoolAmount,\n        uint256 _newReserveAmount\n    ) external override ownerOnly greaterThanZero(_newPoolAmount) greaterThanZero(_newReserveAmount) {\n        // update the protected liquidity\n        ProtectedLiquidity storage liquidity = protectedLiquidities[_id];\n\n        // validate input\n        address provider = liquidity.provider;\n        require(provider != address(0), \"ERR_INVALID_ID\");\n\n        IDSToken poolToken = liquidity.poolToken;\n        IERC20 reserveToken = liquidity.reserveToken;\n        uint256 prevPoolAmount = liquidity.poolAmount;\n        uint256 prevReserveAmount = liquidity.reserveAmount;\n        liquidity.poolAmount = _newPoolAmount;\n        liquidity.reserveAmount = _newReserveAmount;\n\n        // update the total amounts\n        totalProtectedPoolAmounts[poolToken] = totalProtectedPoolAmounts[poolToken].add(_newPoolAmount).sub(\n            prevPoolAmount\n        );\n        totalProtectedReserveAmounts[poolToken][reserveToken] = totalProtectedReserveAmounts[poolToken][reserveToken]\n            .add(_newReserveAmount)\n            .sub(prevReserveAmount);\n\n        emit ProtectionUpdated(provider, prevPoolAmount, prevReserveAmount, _newPoolAmount, _newReserveAmount);\n    }\n\n    /**\n     * @dev removes protected liquidity\n     * can only be called by the contract owner\n     *\n     * @param _id  protected liquidity id\n     */\n    function removeProtectedLiquidity(uint256 _id) external override ownerOnly {\n        // remove the protected liquidity\n        ProtectedLiquidity storage liquidity = protectedLiquidities[_id];\n\n        // validate input\n        address provider = liquidity.provider;\n        require(provider != address(0), \"ERR_INVALID_ID\");\n\n        uint256 index = liquidity.index;\n        IDSToken poolToken = liquidity.poolToken;\n        IERC20 reserveToken = liquidity.reserveToken;\n        uint256 poolAmount = liquidity.poolAmount;\n        uint256 reserveAmount = liquidity.reserveAmount;\n        delete protectedLiquidities[_id];\n\n        uint256[] storage ids = protectedLiquidityIdsByProvider[provider];\n        uint256 length = ids.length;\n        assert(length > 0);\n\n        uint256 lastIndex = length - 1;\n        if (index < lastIndex) {\n            uint256 lastId = ids[lastIndex];\n            ids[index] = lastId;\n            protectedLiquidities[lastId].index = index;\n        }\n\n        ids.pop();\n\n        // update the total amounts\n        totalProtectedPoolAmounts[poolToken] = totalProtectedPoolAmounts[poolToken].sub(poolAmount);\n        totalProtectedReserveAmounts[poolToken][reserveToken] = totalProtectedReserveAmounts[poolToken][reserveToken]\n            .sub(reserveAmount);\n\n        emit ProtectionRemoved(provider, poolToken, reserveToken, poolAmount, reserveAmount);\n    }\n\n    /**\n     * @dev returns the number of network token locked balances for a given provider\n     *\n     * @param _provider    locked balances provider\n     * @return the number of network token locked balances\n     */\n    function lockedBalanceCount(address _provider) external view returns (uint256) {\n        return lockedBalances[_provider].length;\n    }\n\n    /**\n     * @dev returns an existing locked network token balance details\n     *\n     * @param _provider    locked balances provider\n     * @param _index       start index\n     * @return amount of network tokens\n     * @return lock expiration time\n     */\n    function lockedBalance(address _provider, uint256 _index) external view override returns (uint256, uint256) {\n        LockedBalance storage balance = lockedBalances[_provider][_index];\n        return (balance.amount, balance.expirationTime);\n    }\n\n    /**\n     * @dev returns a range of locked network token balances for a given provider\n     *\n     * @param _provider    locked balances provider\n     * @param _startIndex  start index\n     * @param _endIndex    end index (exclusive)\n     * @return locked amounts\n     * @return expiration times\n     */\n    function lockedBalanceRange(\n        address _provider,\n        uint256 _startIndex,\n        uint256 _endIndex\n    ) external view override returns (uint256[] memory, uint256[] memory) {\n        // limit the end index by the number of locked balances\n        if (_endIndex > lockedBalances[_provider].length) {\n            _endIndex = lockedBalances[_provider].length;\n        }\n\n        // ensure that the end index is higher than the start index\n        require(_endIndex > _startIndex, \"ERR_INVALID_INDICES\");\n\n        // get the locked balances for the given range and return them\n        uint256 length = _endIndex - _startIndex;\n        uint256[] memory amounts = new uint256[](length);\n        uint256[] memory expirationTimes = new uint256[](length);\n\n        for (uint256 i = 0; i < length; i++) {\n            LockedBalance storage balance = lockedBalances[_provider][_startIndex + i];\n            amounts[i] = balance.amount;\n            expirationTimes[i] = balance.expirationTime;\n        }\n\n        return (amounts, expirationTimes);\n    }\n\n    /**\n     * @dev adds new locked network token balance\n     * can only be called by the contract owner\n     *\n     * @param _provider        liquidity provider\n     * @param _amount          token amount\n     * @param _expirationTime  lock expiration time\n     * @return new locked balance index\n     */\n    function addLockedBalance(\n        address _provider,\n        uint256 _amount,\n        uint256 _expirationTime\n    )\n        external\n        override\n        ownerOnly\n        validAddress(_provider)\n        notThis(_provider)\n        greaterThanZero(_amount)\n        greaterThanZero(_expirationTime)\n        returns (uint256)\n    {\n        lockedBalances[_provider].push(LockedBalance({ amount: _amount, expirationTime: _expirationTime }));\n\n        emit BalanceLocked(_provider, _amount, _expirationTime);\n        return lockedBalances[_provider].length - 1;\n    }\n\n    /**\n     * @dev removes a locked network token balance\n     * can only be called by the contract owner\n     *\n     * @param _provider    liquidity provider\n     * @param _index       index of the locked balance\n     */\n    function removeLockedBalance(address _provider, uint256 _index)\n        external\n        override\n        ownerOnly\n        validAddress(_provider)\n    {\n        LockedBalance[] storage balances = lockedBalances[_provider];\n        uint256 length = balances.length;\n\n        // validate input\n        require(_index < length, \"ERR_INVALID_INDEX\");\n\n        uint256 amount = balances[_index].amount;\n        uint256 lastIndex = length - 1;\n        if (_index < lastIndex) {\n            balances[_index] = balances[lastIndex];\n        }\n\n        balances.pop();\n\n        emit BalanceUnlocked(_provider, amount);\n    }\n\n    /**\n     * @dev returns the system balance for a given token\n     *\n     * @param _token   token address\n     * @return system balance\n     */\n    function systemBalance(IERC20 _token) external view override returns (uint256) {\n        return systemBalances[_token];\n    }\n\n    /**\n     * @dev increases the system balance for a given token\n     * can only be called by the contract owner\n     *\n     * @param _token   token address\n     * @param _amount  token amount\n     */\n    function incSystemBalance(IERC20 _token, uint256 _amount)\n        external\n        override\n        ownerOnly\n        validAddress(address(_token))\n    {\n        uint256 prevAmount = systemBalances[_token];\n        uint256 newAmount = prevAmount.add(_amount);\n        systemBalances[_token] = newAmount;\n\n        emit SystemBalanceUpdated(_token, prevAmount, newAmount);\n    }\n\n    /**\n     * @dev decreases the system balance for a given token\n     * can only be called by the contract owner\n     *\n     * @param _token   token address\n     * @param _amount  token amount\n     */\n    function decSystemBalance(IERC20 _token, uint256 _amount)\n        external\n        override\n        ownerOnly\n        validAddress(address(_token))\n    {\n        uint256 prevAmount = systemBalances[_token];\n        uint256 newAmount = prevAmount.sub(_amount);\n        systemBalances[_token] = newAmount;\n\n        emit SystemBalanceUpdated(_token, prevAmount, newAmount);\n    }\n\n    /**\n     * @dev returns the total protected pool token amount for a given pool\n     *\n     * @param _poolToken   pool token address\n     * @return total protected amount\n     */\n    function totalProtectedPoolAmount(IDSToken _poolToken) external view returns (uint256) {\n        return totalProtectedPoolAmounts[_poolToken];\n    }\n\n    /**\n     * @dev returns the total protected reserve amount for a given pool\n     *\n     * @param _poolToken       pool token address\n     * @param _reserveToken    reserve token address\n     * @return total protected amount\n     */\n    function totalProtectedReserveAmount(IDSToken _poolToken, IERC20 _reserveToken) external view returns (uint256) {\n        return totalProtectedReserveAmounts[_poolToken][_reserveToken];\n    }\n}\n",
  "sourcePath": "/Users/dennismacpro/Projects/Defi/Ethereum-Solidity-Collection/icarus-protocol/defi-seeder/.tmp/bancor/contracts-solidity/solidity/contracts/liquidity-protection/LiquidityProtectionStore.sol",
  "compiler": {
    "name": "solc",
    "version": "0.6.12+commit.27d51765.Emscripten.clang"
  },
  "schemaVersion": "3.3.3",
  "updatedAt": "2021-04-01T18:17:52.153Z",
  "devdoc": {
    "details": "This contract serves as the storage of the liquidity protection mechanism. It holds the data and tokens, and it is generally non-upgradable.",
    "events": {
      "BalanceLocked(address,uint256,uint256)": {
        "details": "triggered when network tokens are locked",
        "params": {
          "_amount": "amount of network tokens",
          "_expirationTime": "lock expiration time",
          "_provider": "provider of the network tokens"
        }
      },
      "BalanceUnlocked(address,uint256)": {
        "details": "triggered when network tokens are unlocked",
        "params": {
          "_amount": "amount of network tokens",
          "_provider": "provider of the network tokens"
        }
      },
      "ProtectionAdded(address,address,address,uint256,uint256)": {
        "details": "triggered when liquidity protection is added",
        "params": {
          "_poolAmount": "amount of pool tokens",
          "_poolToken": "pool token address",
          "_provider": "liquidity provider",
          "_reserveAmount": "amount of reserve tokens",
          "_reserveToken": "reserve token address"
        }
      },
      "ProtectionRemoved(address,address,address,uint256,uint256)": {
        "details": "triggered when liquidity protection is removed",
        "params": {
          "_poolAmount": "amount of pool tokens",
          "_poolToken": "pool token address",
          "_provider": "liquidity provider",
          "_reserveAmount": "amount of reserve tokens",
          "_reserveToken": "reserve token address"
        }
      },
      "ProtectionUpdated(address,uint256,uint256,uint256,uint256)": {
        "details": "triggered when liquidity protection is updated",
        "params": {
          "_newPoolAmount": "new amount of pool tokens",
          "_newReserveAmount": "new amount of reserve tokens",
          "_prevPoolAmount": "previous amount of pool tokens",
          "_prevReserveAmount": "previous amount of reserve tokens",
          "_provider": "liquidity provider"
        }
      },
      "SystemBalanceUpdated(address,uint256,uint256)": {
        "details": "triggered when the system balance for a given token is updated",
        "params": {
          "_newAmount": "new amount",
          "_prevAmount": "previous amount",
          "_token": "token address"
        }
      }
    },
    "kind": "dev",
    "methods": {
      "acceptOwnership()": {
        "details": "used by a new owner to accept an ownership transfer"
      },
      "addLockedBalance(address,uint256,uint256)": {
        "details": "adds new locked network token balance can only be called by the contract owner",
        "params": {
          "_amount": "token amount",
          "_expirationTime": "lock expiration time",
          "_provider": "liquidity provider"
        },
        "returns": {
          "_0": "new locked balance index"
        }
      },
      "addProtectedLiquidity(address,address,address,uint256,uint256,uint256,uint256,uint256)": {
        "details": "adds protected liquidity can only be called by the contract owner",
        "params": {
          "_poolAmount": "pool token amount",
          "_poolToken": "pool token address",
          "_provider": "liquidity provider",
          "_reserveAmount": "reserve token amount",
          "_reserveRateD": "rate of 1 protected reserve token in units of the other reserve token (denominator)",
          "_reserveRateN": "rate of 1 protected reserve token in units of the other reserve token (numerator)",
          "_reserveToken": "reserve token address",
          "_timestamp": "timestamp"
        },
        "returns": {
          "_0": "new protected liquidity id"
        }
      },
      "decSystemBalance(address,uint256)": {
        "details": "decreases the system balance for a given token can only be called by the contract owner",
        "params": {
          "_amount": "token amount",
          "_token": "token address"
        }
      },
      "incSystemBalance(address,uint256)": {
        "details": "increases the system balance for a given token can only be called by the contract owner",
        "params": {
          "_amount": "token amount",
          "_token": "token address"
        }
      },
      "lockedBalance(address,uint256)": {
        "details": "returns an existing locked network token balance details",
        "params": {
          "_index": "start index",
          "_provider": "locked balances provider"
        },
        "returns": {
          "_0": "amount of network tokens",
          "_1": "lock expiration time"
        }
      },
      "lockedBalanceCount(address)": {
        "details": "returns the number of network token locked balances for a given provider",
        "params": {
          "_provider": "locked balances provider"
        },
        "returns": {
          "_0": "the number of network token locked balances"
        }
      },
      "lockedBalanceRange(address,uint256,uint256)": {
        "details": "returns a range of locked network token balances for a given provider",
        "params": {
          "_endIndex": "end index (exclusive)",
          "_provider": "locked balances provider",
          "_startIndex": "start index"
        },
        "returns": {
          "_0": "locked amounts",
          "_1": "expiration times"
        }
      },
      "protectedLiquidity(uint256)": {
        "details": "returns an existing protected liquidity details",
        "params": {
          "_id": "protected liquidity id"
        },
        "returns": {
          "_0": "liquidity provider",
          "_1": "pool token address",
          "_2": "reserve token address",
          "_3": "pool token amount",
          "_4": "reserve token amount",
          "_5": "rate of 1 protected reserve token in units of the other reserve token (numerator)",
          "_6": "rate of 1 protected reserve token in units of the other reserve token (denominator)",
          "_7": "timestamp"
        }
      },
      "protectedLiquidityCount(address)": {
        "details": "returns the number of protected liquidities for the given provider",
        "params": {
          "_provider": "liquidity provider"
        },
        "returns": {
          "_0": "number of protected liquidities"
        }
      },
      "protectedLiquidityId(address,uint256)": {
        "details": "returns the id of a protected liquidity for the given provider at a specific index",
        "params": {
          "_index": "protected liquidity index",
          "_provider": "liquidity provider"
        },
        "returns": {
          "_0": "protected liquidity id"
        }
      },
      "protectedLiquidityIds(address)": {
        "details": "returns the list of protected liquidity ids for the given provider",
        "params": {
          "_provider": "liquidity provider"
        },
        "returns": {
          "_0": "protected liquidity ids"
        }
      },
      "removeLockedBalance(address,uint256)": {
        "details": "removes a locked network token balance can only be called by the contract owner",
        "params": {
          "_index": "index of the locked balance",
          "_provider": "liquidity provider"
        }
      },
      "removeProtectedLiquidity(uint256)": {
        "details": "removes protected liquidity can only be called by the contract owner",
        "params": {
          "_id": "protected liquidity id"
        }
      },
      "systemBalance(address)": {
        "details": "returns the system balance for a given token",
        "params": {
          "_token": "token address"
        },
        "returns": {
          "_0": "system balance"
        }
      },
      "totalProtectedPoolAmount(address)": {
        "details": "returns the total protected pool token amount for a given pool",
        "params": {
          "_poolToken": "pool token address"
        },
        "returns": {
          "_0": "total protected amount"
        }
      },
      "totalProtectedReserveAmount(address,address)": {
        "details": "returns the total protected reserve amount for a given pool",
        "params": {
          "_poolToken": "pool token address",
          "_reserveToken": "reserve token address"
        },
        "returns": {
          "_0": "total protected amount"
        }
      },
      "transferOwnership(address)": {
        "details": "allows transferring the contract ownership the new owner still needs to accept the transfer can only be called by the contract owner",
        "params": {
          "_newOwner": "new contract owner"
        }
      },
      "updateProtectedLiquidityAmounts(uint256,uint256,uint256)": {
        "details": "updates an existing protected liquidity pool/reserve amounts can only be called by the contract owner",
        "params": {
          "_id": "protected liquidity id",
          "_newPoolAmount": "new pool tokens amount",
          "_newReserveAmount": "new reserve tokens amount"
        }
      },
      "withdrawTokens(address,address,uint256)": {
        "details": "withdraws tokens held by the contract can only be called by the contract owner",
        "params": {
          "_amount": "amount to withdraw",
          "_to": "recipient address",
          "_token": "token address"
        }
      }
    },
    "version": 1
  },
  "userdoc": {
    "kind": "user",
    "methods": {},
    "version": 1
  }
}