{
  "contractName": "LiquidityProtectionStats",
  "abi": [
    {
      "inputs": [],
      "stateMutability": "nonpayable",
      "type": "constructor"
    },
    {
      "anonymous": false,
      "inputs": [
        {
          "indexed": true,
          "internalType": "bytes32",
          "name": "role",
          "type": "bytes32"
        },
        {
          "indexed": true,
          "internalType": "bytes32",
          "name": "previousAdminRole",
          "type": "bytes32"
        },
        {
          "indexed": true,
          "internalType": "bytes32",
          "name": "newAdminRole",
          "type": "bytes32"
        }
      ],
      "name": "RoleAdminChanged",
      "type": "event"
    },
    {
      "anonymous": false,
      "inputs": [
        {
          "indexed": true,
          "internalType": "bytes32",
          "name": "role",
          "type": "bytes32"
        },
        {
          "indexed": true,
          "internalType": "address",
          "name": "account",
          "type": "address"
        },
        {
          "indexed": true,
          "internalType": "address",
          "name": "sender",
          "type": "address"
        }
      ],
      "name": "RoleGranted",
      "type": "event"
    },
    {
      "anonymous": false,
      "inputs": [
        {
          "indexed": true,
          "internalType": "bytes32",
          "name": "role",
          "type": "bytes32"
        },
        {
          "indexed": true,
          "internalType": "address",
          "name": "account",
          "type": "address"
        },
        {
          "indexed": true,
          "internalType": "address",
          "name": "sender",
          "type": "address"
        }
      ],
      "name": "RoleRevoked",
      "type": "event"
    },
    {
      "inputs": [],
      "name": "DEFAULT_ADMIN_ROLE",
      "outputs": [
        {
          "internalType": "bytes32",
          "name": "",
          "type": "bytes32"
        }
      ],
      "stateMutability": "view",
      "type": "function"
    },
    {
      "inputs": [],
      "name": "ROLE_OWNER",
      "outputs": [
        {
          "internalType": "bytes32",
          "name": "",
          "type": "bytes32"
        }
      ],
      "stateMutability": "view",
      "type": "function"
    },
    {
      "inputs": [],
      "name": "ROLE_SEEDER",
      "outputs": [
        {
          "internalType": "bytes32",
          "name": "",
          "type": "bytes32"
        }
      ],
      "stateMutability": "view",
      "type": "function"
    },
    {
      "inputs": [],
      "name": "ROLE_SUPERVISOR",
      "outputs": [
        {
          "internalType": "bytes32",
          "name": "",
          "type": "bytes32"
        }
      ],
      "stateMutability": "view",
      "type": "function"
    },
    {
      "inputs": [
        {
          "internalType": "bytes32",
          "name": "role",
          "type": "bytes32"
        }
      ],
      "name": "getRoleAdmin",
      "outputs": [
        {
          "internalType": "bytes32",
          "name": "",
          "type": "bytes32"
        }
      ],
      "stateMutability": "view",
      "type": "function"
    },
    {
      "inputs": [
        {
          "internalType": "bytes32",
          "name": "role",
          "type": "bytes32"
        },
        {
          "internalType": "uint256",
          "name": "index",
          "type": "uint256"
        }
      ],
      "name": "getRoleMember",
      "outputs": [
        {
          "internalType": "address",
          "name": "",
          "type": "address"
        }
      ],
      "stateMutability": "view",
      "type": "function"
    },
    {
      "inputs": [
        {
          "internalType": "bytes32",
          "name": "role",
          "type": "bytes32"
        }
      ],
      "name": "getRoleMemberCount",
      "outputs": [
        {
          "internalType": "uint256",
          "name": "",
          "type": "uint256"
        }
      ],
      "stateMutability": "view",
      "type": "function"
    },
    {
      "inputs": [
        {
          "internalType": "bytes32",
          "name": "role",
          "type": "bytes32"
        },
        {
          "internalType": "address",
          "name": "account",
          "type": "address"
        }
      ],
      "name": "grantRole",
      "outputs": [],
      "stateMutability": "nonpayable",
      "type": "function"
    },
    {
      "inputs": [
        {
          "internalType": "bytes32",
          "name": "role",
          "type": "bytes32"
        },
        {
          "internalType": "address",
          "name": "account",
          "type": "address"
        }
      ],
      "name": "hasRole",
      "outputs": [
        {
          "internalType": "bool",
          "name": "",
          "type": "bool"
        }
      ],
      "stateMutability": "view",
      "type": "function"
    },
    {
      "inputs": [
        {
          "internalType": "bytes32",
          "name": "role",
          "type": "bytes32"
        },
        {
          "internalType": "address",
          "name": "account",
          "type": "address"
        }
      ],
      "name": "renounceRole",
      "outputs": [],
      "stateMutability": "nonpayable",
      "type": "function"
    },
    {
      "inputs": [
        {
          "internalType": "bytes32",
          "name": "role",
          "type": "bytes32"
        },
        {
          "internalType": "address",
          "name": "account",
          "type": "address"
        }
      ],
      "name": "revokeRole",
      "outputs": [],
      "stateMutability": "nonpayable",
      "type": "function"
    },
    {
      "inputs": [
        {
          "internalType": "address",
          "name": "provider",
          "type": "address"
        },
        {
          "internalType": "contract IDSToken",
          "name": "poolToken",
          "type": "address"
        },
        {
          "internalType": "contract IERC20",
          "name": "reserveToken",
          "type": "address"
        },
        {
          "internalType": "uint256",
          "name": "poolAmount",
          "type": "uint256"
        },
        {
          "internalType": "uint256",
          "name": "reserveAmount",
          "type": "uint256"
        }
      ],
      "name": "increaseTotalAmounts",
      "outputs": [],
      "stateMutability": "nonpayable",
      "type": "function"
    },
    {
      "inputs": [
        {
          "internalType": "address",
          "name": "provider",
          "type": "address"
        },
        {
          "internalType": "contract IDSToken",
          "name": "poolToken",
          "type": "address"
        },
        {
          "internalType": "contract IERC20",
          "name": "reserveToken",
          "type": "address"
        },
        {
          "internalType": "uint256",
          "name": "poolAmount",
          "type": "uint256"
        },
        {
          "internalType": "uint256",
          "name": "reserveAmount",
          "type": "uint256"
        }
      ],
      "name": "decreaseTotalAmounts",
      "outputs": [],
      "stateMutability": "nonpayable",
      "type": "function"
    },
    {
      "inputs": [
        {
          "internalType": "address",
          "name": "provider",
          "type": "address"
        },
        {
          "internalType": "contract IDSToken",
          "name": "poolToken",
          "type": "address"
        }
      ],
      "name": "addProviderPool",
      "outputs": [
        {
          "internalType": "bool",
          "name": "",
          "type": "bool"
        }
      ],
      "stateMutability": "nonpayable",
      "type": "function"
    },
    {
      "inputs": [
        {
          "internalType": "address",
          "name": "provider",
          "type": "address"
        },
        {
          "internalType": "contract IDSToken",
          "name": "poolToken",
          "type": "address"
        }
      ],
      "name": "removeProviderPool",
      "outputs": [
        {
          "internalType": "bool",
          "name": "",
          "type": "bool"
        }
      ],
      "stateMutability": "nonpayable",
      "type": "function"
    },
    {
      "inputs": [
        {
          "internalType": "contract IDSToken",
          "name": "poolToken",
          "type": "address"
        }
      ],
      "name": "totalPoolAmount",
      "outputs": [
        {
          "internalType": "uint256",
          "name": "",
          "type": "uint256"
        }
      ],
      "stateMutability": "view",
      "type": "function"
    },
    {
      "inputs": [
        {
          "internalType": "contract IDSToken",
          "name": "poolToken",
          "type": "address"
        },
        {
          "internalType": "contract IERC20",
          "name": "reserveToken",
          "type": "address"
        }
      ],
      "name": "totalReserveAmount",
      "outputs": [
        {
          "internalType": "uint256",
          "name": "",
          "type": "uint256"
        }
      ],
      "stateMutability": "view",
      "type": "function"
    },
    {
      "inputs": [
        {
          "internalType": "address",
          "name": "provider",
          "type": "address"
        },
        {
          "internalType": "contract IDSToken",
          "name": "poolToken",
          "type": "address"
        },
        {
          "internalType": "contract IERC20",
          "name": "reserveToken",
          "type": "address"
        }
      ],
      "name": "totalProviderAmount",
      "outputs": [
        {
          "internalType": "uint256",
          "name": "",
          "type": "uint256"
        }
      ],
      "stateMutability": "view",
      "type": "function"
    },
    {
      "inputs": [
        {
          "internalType": "address",
          "name": "provider",
          "type": "address"
        }
      ],
      "name": "providerPools",
      "outputs": [
        {
          "internalType": "contract IDSToken[]",
          "name": "",
          "type": "address[]"
        }
      ],
      "stateMutability": "view",
      "type": "function"
    },
    {
      "inputs": [
        {
          "internalType": "contract IDSToken[]",
          "name": "poolTokens",
          "type": "address[]"
        },
        {
          "internalType": "uint256[]",
          "name": "poolAmounts",
          "type": "uint256[]"
        }
      ],
      "name": "seedPoolAmounts",
      "outputs": [],
      "stateMutability": "nonpayable",
      "type": "function"
    },
    {
      "inputs": [
        {
          "internalType": "contract IDSToken[]",
          "name": "poolTokens",
          "type": "address[]"
        },
        {
          "internalType": "contract IERC20[]",
          "name": "reserveTokens",
          "type": "address[]"
        },
        {
          "internalType": "uint256[]",
          "name": "reserveAmounts",
          "type": "uint256[]"
        }
      ],
      "name": "seedReserveAmounts",
      "outputs": [],
      "stateMutability": "nonpayable",
      "type": "function"
    },
    {
      "inputs": [
        {
          "internalType": "address[]",
          "name": "providers",
          "type": "address[]"
        },
        {
          "internalType": "contract IDSToken[]",
          "name": "poolTokens",
          "type": "address[]"
        },
        {
          "internalType": "contract IERC20[]",
          "name": "reserveTokens",
          "type": "address[]"
        },
        {
          "internalType": "uint256[]",
          "name": "reserveAmounts",
          "type": "uint256[]"
        }
      ],
      "name": "seedProviderAmounts",
      "outputs": [],
      "stateMutability": "nonpayable",
      "type": "function"
    },
    {
      "inputs": [
        {
          "internalType": "address[]",
          "name": "providers",
          "type": "address[]"
        },
        {
          "internalType": "contract IDSToken[]",
          "name": "poolTokens",
          "type": "address[]"
        }
      ],
      "name": "seedProviderPools",
      "outputs": [],
      "stateMutability": "nonpayable",
      "type": "function"
    }
  ],
  "bytecode": "0x60806040523480156200001157600080fd5b506200002d600080516020620017bc83398151915280620000c4565b620000687fd040da8733f282f8b56d042e742cba64aa94b6398cd5a45974e40912f9b3b33f600080516020620017bc833981519152620000c4565b620000a37f9f4e1c871d5fdd0aee1cd182666698a4492b24c6832aac230d07b11046af5a89600080516020620017bc833981519152620000c4565b620000be600080516020620017bc8339815191523362000116565b6200022a565b600082815260208190526040808220600201549051839285917fbd79b86ffe0ab8e8776151514217cd7cacd52c909f66475c3af44e129f0b00ff9190a460009182526020829052604090912060020155565b62000122828262000126565b5050565b6000828152602081815260409091206200014b918390620010976200019f821b17901c565b1562000122576200015b620001bf565b6001600160a01b0316816001600160a01b0316837f2f8788117e7eff1d82e926ec794901d17c78024a50270940304540a733656f0d60405160405180910390a45050565b6000620001b6836001600160a01b038416620001c3565b90505b92915050565b3390565b6000620001d1838362000212565b6200020957508154600181810184556000848152602080822090930184905584548482528286019093526040902091909155620001b9565b506000620001b9565b60009081526001919091016020526040902054151590565b611582806200023a6000396000f3fe608060405234801561001057600080fd5b506004361061014d5760003560e01c80639010d07c116100c3578063b9571ddb1161007c578063b9571ddb14610624578063ca15c8731461064a578063d547741f14610667578063dd5617ec14610693578063ef7b4c6f14610751578063fd4bc1e61461085f5761014d565b80639010d07c1461035357806391d148541461039257806394713f16146103be57806394f4c6081461051c578063a217fddf146105da578063aa558ef0146105e25761014d565b806336568abe1161011557806336568abe1461022757806342d16abf146102535780634a91787c1461028b5780635408b440146102cd5780636b639ced146103435780638ad682af1461034b5761014d565b80630d80af9b1461015257806322677c521461016c578063248a9ca31461019a57806327396b6d146101b75780632f2ff15d146101fb575b600080fd5b61015a61088d565b60408051918252519081900360200190f35b61015a6004803603604081101561018257600080fd5b506001600160a01b03813581169160200135166108b1565b61015a600480360360208110156101b057600080fd5b50356108de565b6101f9600480360360a08110156101cd57600080fd5b506001600160a01b038135811691602081013582169160408201351690606081013590608001356108f3565b005b6101f96004803603604081101561021157600080fd5b50803590602001356001600160a01b03166109f4565b6101f96004803603604081101561023d57600080fd5b50803590602001356001600160a01b0316610a60565b61015a6004803603606081101561026957600080fd5b506001600160a01b038135811691602081013582169160409091013516610ac1565b6102b9600480360360408110156102a157600080fd5b506001600160a01b0381358116916020013516610af6565b604080519115158252519081900360200190f35b6102f3600480360360208110156102e357600080fd5b50356001600160a01b0316610b38565b60408051602080825283518183015283519192839290830191858101910280838360005b8381101561032f578181015183820152602001610317565b505050509050019250505060405180910390f35b61015a610bee565b61015a610c00565b6103766004803603604081101561036957600080fd5b5080359060200135610c12565b604080516001600160a01b039092168252519081900360200190f35b6102b9600480360360408110156103a857600080fd5b50803590602001356001600160a01b0316610c2a565b6101f9600480360360808110156103d457600080fd5b810190602081018135600160201b8111156103ee57600080fd5b82018360208201111561040057600080fd5b803590602001918460208302840111600160201b8311171561042157600080fd5b919390929091602081019035600160201b81111561043e57600080fd5b82018360208201111561045057600080fd5b803590602001918460208302840111600160201b8311171561047157600080fd5b919390929091602081019035600160201b81111561048e57600080fd5b8201836020820111156104a057600080fd5b803590602001918460208302840111600160201b831117156104c157600080fd5b919390929091602081019035600160201b8111156104de57600080fd5b8201836020820111156104f057600080fd5b803590602001918460208302840111600160201b8311171561051157600080fd5b509092509050610c42565b6101f96004803603604081101561053257600080fd5b810190602081018135600160201b81111561054c57600080fd5b82018360208201111561055e57600080fd5b803590602001918460208302840111600160201b8311171561057f57600080fd5b919390929091602081019035600160201b81111561059c57600080fd5b8201836020820111156105ae57600080fd5b803590602001918460208302840111600160201b831117156105cf57600080fd5b509092509050610d3b565b61015a610ddc565b6101f9600480360360a08110156105f857600080fd5b506001600160a01b03813581169160208101358216916040820135169060608101359060800135610de1565b61015a6004803603602081101561063a57600080fd5b50356001600160a01b0316610eab565b61015a6004803603602081101561066057600080fd5b5035610ec6565b6101f96004803603604081101561067d57600080fd5b50803590602001356001600160a01b0316610edd565b6101f9600480360360408110156106a957600080fd5b810190602081018135600160201b8111156106c357600080fd5b8201836020820111156106d557600080fd5b803590602001918460208302840111600160201b831117156106f657600080fd5b919390929091602081019035600160201b81111561071357600080fd5b82018360208201111561072557600080fd5b803590602001918460208302840111600160201b8311171561074657600080fd5b509092509050610f36565b6101f96004803603606081101561076757600080fd5b810190602081018135600160201b81111561078157600080fd5b82018360208201111561079357600080fd5b803590602001918460208302840111600160201b831117156107b457600080fd5b919390929091602081019035600160201b8111156107d157600080fd5b8201836020820111156107e357600080fd5b803590602001918460208302840111600160201b8311171561080457600080fd5b919390929091602081019035600160201b81111561082157600080fd5b82018360208201111561083357600080fd5b803590602001918460208302840111600160201b8311171561085457600080fd5b509092509050610fa7565b6102b96004803603604081101561087557600080fd5b506001600160a01b0381358116916020013516611060565b7f0c7ade2c7c08453ea605b4a8f3fb0e03e3ffcffbfa41ca8ee543d0fd74cada3881565b6001600160a01b038083166000908152600260209081526040808320938516835292905220545b92915050565b60009081526020819052604090206002015490565b61090a6000805160206114fe8339815191526110ac565b6001600160a01b03841660009081526001602052604090205461092d90836110fe565b6001600160a01b0380861660009081526001602090815260408083209490945560028152838220928716825291909152205461096990826110fe565b6001600160a01b03808616600081815260026020908152604080832089861680855290835281842096909655938a168252600381528382209282529182528281209381529290529020546109bd90826110fe565b6001600160a01b03958616600090815260036020908152604080832097891683529681528682209590971681529390955250502055565b600082815260208190526040902060020154610a1790610a1261115b565b610c2a565b610a525760405162461bcd60e51b815260040180806020018281038252602f81526020018061149f602f913960400191505060405180910390fd5b610a5c828261115f565b5050565b610a6861115b565b6001600160a01b0316816001600160a01b031614610ab75760405162461bcd60e51b815260040180806020018281038252602f81526020018061151e602f913960400191505060405180910390fd5b610a5c82826111c8565b6001600160a01b0392831660009081526003602090815260408083209486168352938152838220929094168152925290205490565b6000610b0f6000805160206114fe8339815191526110ac565b6001600160a01b0383166000908152600460205260409020610b319083611231565b9392505050565b6001600160a01b0381166000908152600460205260408120606091610b5c82611246565b905060608167ffffffffffffffff81118015610b7757600080fd5b50604051908082528060200260200182016040528015610ba1578160200160208202803683370190505b50905060005b82811015610be557610bb98482611251565b828281518110610bc557fe5b6001600160a01b0390921660209283029190910190910152600101610ba7565b50949350505050565b60008051602061145d83398151915281565b6000805160206114fe83398151915281565b6000828152602081905260408120610b319083611251565b6000828152602081905260408120610b31908361125d565b610c5960008051602061145d8339815191526110ac565b8660005b81811015610d2f57838382818110610c7157fe5b90506020020135600360008c8c85818110610c8857fe5b905060200201356001600160a01b03166001600160a01b03166001600160a01b0316815260200190815260200160002060008a8a85818110610cc657fe5b905060200201356001600160a01b03166001600160a01b03166001600160a01b031681526020019081526020016000206000888885818110610d0457fe5b602090810292909201356001600160a01b031683525081019190915260400160002055600101610c5d565b50505050505050505050565b610d5260008051602061145d8339815191526110ac565b8260005b81811015610dd457610dcb848483818110610d6d57fe5b905060200201356001600160a01b031660046000898986818110610d8d57fe5b905060200201356001600160a01b03166001600160a01b03166001600160a01b0316815260200190815260200160002061109790919063ffffffff16565b50600101610d56565b505050505050565b600081565b610df86000805160206114fe8339815191526110ac565b6001600160a01b038416600090815260016020526040902054610e1b9083611272565b6001600160a01b03808616600090815260016020908152604080832094909455600281528382209287168252919091522054610e579082611272565b6001600160a01b03808616600081815260026020908152604080832089861680855290835281842096909655938a168252600381528382209282529182528281209381529290529020546109bd9082611272565b6001600160a01b031660009081526001602052604090205490565b60008181526020819052604081206108d890611246565b600082815260208190526040902060020154610efb90610a1261115b565b610ab75760405162461bcd60e51b81526004018080602001828103825260308152602001806114ce6030913960400191505060405180910390fd5b610f4d60008051602061145d8339815191526110ac565b8260005b81811015610dd457838382818110610f6557fe5b9050602002013560016000888885818110610f7c57fe5b602090810292909201356001600160a01b031683525081019190915260400160002055600101610f51565b610fbe60008051602061145d8339815191526110ac565b8460005b8181101561105657838382818110610fd657fe5b90506020020135600260008a8a85818110610fed57fe5b905060200201356001600160a01b03166001600160a01b03166001600160a01b03168152602001908152602001600020600088888581811061102b57fe5b602090810292909201356001600160a01b031683525081019190915260400160002055600101610fc2565b5050505050505050565b60006110796000805160206114fe8339815191526110ac565b6001600160a01b0383166000908152600460205260409020610b3190835b6000610b31836001600160a01b0384166112cc565b6110b68133610c2a565b6110fb576040805162461bcd60e51b815260206004820152601160248201527011549497d050d0d154d4d7d11153925151607a1b604482015290519081900360640190fd5b50565b600082821115611155576040805162461bcd60e51b815260206004820152601e60248201527f536166654d6174683a207375627472616374696f6e206f766572666c6f770000604482015290519081900360640190fd5b50900390565b3390565b60008281526020819052604090206111779082611097565b15610a5c5761118461115b565b6001600160a01b0316816001600160a01b0316837f2f8788117e7eff1d82e926ec794901d17c78024a50270940304540a733656f0d60405160405180910390a45050565b60008281526020819052604090206111e09082611231565b15610a5c576111ed61115b565b6001600160a01b0316816001600160a01b0316837ff6391f5c32d9c69d2a47ea670b442974b53935d1edc7fd64eb21e047a839171b60405160405180910390a45050565b6000610b31836001600160a01b038416611316565b60006108d8826113dc565b6000610b3183836113e0565b6000610b31836001600160a01b038416611444565b600082820183811015610b31576040805162461bcd60e51b815260206004820152601b60248201527f536166654d6174683a206164646974696f6e206f766572666c6f770000000000604482015290519081900360640190fd5b60006112d88383611444565b61130e575081546001818101845560008481526020808220909301849055845484825282860190935260409020919091556108d8565b5060006108d8565b600081815260018301602052604081205480156113d2578354600019808301919081019060009087908390811061134957fe5b906000526020600020015490508087600001848154811061136657fe5b60009182526020808320909101929092558281526001898101909252604090209084019055865487908061139657fe5b600190038181906000526020600020016000905590558660010160008781526020019081526020016000206000905560019450505050506108d8565b60009150506108d8565b5490565b815460009082106114225760405162461bcd60e51b815260040180806020018281038252602281526020018061147d6022913960400191505060405180910390fd5b82600001828154811061143157fe5b9060005260206000200154905092915050565b6000908152600191909101602052604090205415159056fed040da8733f282f8b56d042e742cba64aa94b6398cd5a45974e40912f9b3b33f456e756d657261626c655365743a20696e646578206f7574206f6620626f756e6473416363657373436f6e74726f6c3a2073656e646572206d75737420626520616e2061646d696e20746f206772616e74416363657373436f6e74726f6c3a2073656e646572206d75737420626520616e2061646d696e20746f207265766f6b659f4e1c871d5fdd0aee1cd182666698a4492b24c6832aac230d07b11046af5a89416363657373436f6e74726f6c3a2063616e206f6e6c792072656e6f756e636520726f6c657320666f722073656c66a26469706673582212200dd8e21c0b14de2c88680b2df5a9b15abb31887361d852e5f6d4aa5ab75d06ad64736f6c634300060c00330c7ade2c7c08453ea605b4a8f3fb0e03e3ffcffbfa41ca8ee543d0fd74cada38",
  "immutableReferences": {},
  "source": "// SPDX-License-Identifier: SEE LICENSE IN LICENSE\npragma solidity 0.6.12;\n\nimport \"@openzeppelin/contracts/access/AccessControl.sol\";\nimport \"@openzeppelin/contracts/utils/EnumerableSet.sol\";\nimport \"@openzeppelin/contracts/math/SafeMath.sol\";\nimport \"@openzeppelin/contracts/token/ERC20/IERC20.sol\";\n\nimport \"./interfaces/ILiquidityProtectionStats.sol\";\nimport \"../token/interfaces/IDSToken.sol\";\n\n/**\n * @dev This contract aggregates the statistics of the liquidity protection mechanism.\n */\ncontract LiquidityProtectionStats is ILiquidityProtectionStats, AccessControl {\n    using EnumerableSet for EnumerableSet.AddressSet;\n    using SafeMath for uint256;\n\n    bytes32 public constant ROLE_SUPERVISOR = keccak256(\"ROLE_SUPERVISOR\");\n    bytes32 public constant ROLE_SEEDER = keccak256(\"ROLE_SEEDER\");\n    bytes32 public constant ROLE_OWNER = keccak256(\"ROLE_OWNER\");\n\n    mapping(IDSToken => uint256) private _totalPoolAmounts;\n    mapping(IDSToken => mapping(IERC20 => uint256)) private _totalReserveAmounts;\n    mapping(address => mapping(IDSToken => mapping(IERC20 => uint256))) private _totalProviderAmounts;\n\n    mapping(address => EnumerableSet.AddressSet) private _providerPools;\n\n    // allows execution only by an owner\n    modifier ownerOnly {\n        _hasRole(ROLE_OWNER);\n        _;\n    }\n\n    // allows execution only by a seeder\n    modifier seederOnly {\n        _hasRole(ROLE_SEEDER);\n        _;\n    }\n\n    // error message binary size optimization\n    function _hasRole(bytes32 role) internal view {\n        require(hasRole(role, msg.sender), \"ERR_ACCESS_DENIED\");\n    }\n\n    constructor() public {\n        // set up administrative roles\n        _setRoleAdmin(ROLE_SUPERVISOR, ROLE_SUPERVISOR);\n        _setRoleAdmin(ROLE_SEEDER, ROLE_SUPERVISOR);\n        _setRoleAdmin(ROLE_OWNER, ROLE_SUPERVISOR);\n\n        // allow the deployer to initially govern the contract\n        _setupRole(ROLE_SUPERVISOR, msg.sender);\n    }\n\n    /**\n     * @dev increases the total amounts\n     * can be executed only by an owner\n     *\n     * @param provider          liquidity provider address\n     * @param poolToken         pool token address\n     * @param reserveToken      reserve token address\n     * @param poolAmount        pool token amount\n     * @param reserveAmount     reserve token amount\n     */\n    function increaseTotalAmounts(\n        address provider,\n        IDSToken poolToken,\n        IERC20 reserveToken,\n        uint256 poolAmount,\n        uint256 reserveAmount\n    ) external override ownerOnly {\n        _totalPoolAmounts[poolToken] = _totalPoolAmounts[poolToken].add(poolAmount);\n        _totalReserveAmounts[poolToken][reserveToken] = _totalReserveAmounts[poolToken][reserveToken].add(\n            reserveAmount\n        );\n        _totalProviderAmounts[provider][poolToken][reserveToken] = _totalProviderAmounts[provider][poolToken][\n            reserveToken\n        ]\n            .add(reserveAmount);\n    }\n\n    /**\n     * @dev decreases the total amounts\n     * can be executed only by an owner\n     *\n     * @param provider          liquidity provider address\n     * @param poolToken         pool token address\n     * @param reserveToken      reserve token address\n     * @param poolAmount        pool token amount\n     * @param reserveAmount     reserve token amount\n     */\n    function decreaseTotalAmounts(\n        address provider,\n        IDSToken poolToken,\n        IERC20 reserveToken,\n        uint256 poolAmount,\n        uint256 reserveAmount\n    ) external override ownerOnly {\n        _totalPoolAmounts[poolToken] = _totalPoolAmounts[poolToken].sub(poolAmount);\n        _totalReserveAmounts[poolToken][reserveToken] = _totalReserveAmounts[poolToken][reserveToken].sub(\n            reserveAmount\n        );\n        _totalProviderAmounts[provider][poolToken][reserveToken] = _totalProviderAmounts[provider][poolToken][\n            reserveToken\n        ]\n            .sub(reserveAmount);\n    }\n\n    /**\n     * @dev adds a pool to the list of pools of a liquidity provider\n     * can be executed only by an owner\n     *\n     * @param provider  liquidity provider address\n     * @param poolToken pool token address\n     */\n    function addProviderPool(address provider, IDSToken poolToken) external override ownerOnly returns (bool) {\n        return _providerPools[provider].add(address(poolToken));\n    }\n\n    /**\n     * @dev removes a pool from the list of pools of a liquidity provider\n     * can be executed only by an owner\n     *\n     * @param provider  liquidity provider address\n     * @param poolToken pool token address\n     */\n    function removeProviderPool(address provider, IDSToken poolToken) external override ownerOnly returns (bool) {\n        return _providerPools[provider].remove(address(poolToken));\n    }\n\n    /**\n     * @dev returns the total amount of protected pool tokens\n     *\n     * @param poolToken pool token address\n     * @return total amount of protected pool tokens\n     */\n    function totalPoolAmount(IDSToken poolToken) external view override returns (uint256) {\n        return _totalPoolAmounts[poolToken];\n    }\n\n    /**\n     * @dev returns the total amount of protected reserve tokens\n     *\n     * @param poolToken     pool token address\n     * @param reserveToken  reserve token address\n     * @return total amount of protected reserve tokens\n     */\n    function totalReserveAmount(IDSToken poolToken, IERC20 reserveToken) external view override returns (uint256) {\n        return _totalReserveAmounts[poolToken][reserveToken];\n    }\n\n    /**\n     * @dev returns the total amount of a liquidity provider's protected reserve tokens\n     *\n     * @param provider      liquidity provider address\n     * @param poolToken     pool token address\n     * @param reserveToken  reserve token address\n     * @return total amount of the liquidity provider's protected reserve tokens\n     */\n    function totalProviderAmount(\n        address provider,\n        IDSToken poolToken,\n        IERC20 reserveToken\n    ) external view override returns (uint256) {\n        return _totalProviderAmounts[provider][poolToken][reserveToken];\n    }\n\n    /**\n     * @dev returns the list of pools of a liquidity provider\n     *\n     * @param provider  liquidity provider address\n     * @return pool tokens\n     */\n    function providerPools(address provider) external view override returns (IDSToken[] memory) {\n        EnumerableSet.AddressSet storage set = _providerPools[provider];\n        uint256 length = set.length();\n        IDSToken[] memory arr = new IDSToken[](length);\n        for (uint256 i = 0; i < length; i++) {\n            arr[i] = IDSToken(set.at(i));\n        }\n        return arr;\n    }\n\n    /**\n     * @dev seeds the total amount of protected pool tokens\n     * can be executed only by a seeder\n     *\n     * @param poolTokens    pool token addresses\n     * @param poolAmounts   pool token amounts\n     */\n    function seedPoolAmounts(IDSToken[] calldata poolTokens, uint256[] calldata poolAmounts) external seederOnly {\n        uint256 length = poolTokens.length;\n        for (uint256 i = 0; i < length; i++) {\n            _totalPoolAmounts[poolTokens[i]] = poolAmounts[i];\n        }\n    }\n\n    /**\n     * @dev seeds the total amount of protected reserve tokens\n     * can be executed only by a seeder\n     *\n     * @param poolTokens        pool token addresses\n     * @param reserveTokens     reserve token addresses\n     * @param reserveAmounts    reserve token amounts\n     */\n    function seedReserveAmounts(\n        IDSToken[] calldata poolTokens,\n        IERC20[] calldata reserveTokens,\n        uint256[] calldata reserveAmounts\n    ) external seederOnly {\n        uint256 length = poolTokens.length;\n        for (uint256 i = 0; i < length; i++) {\n            _totalReserveAmounts[poolTokens[i]][reserveTokens[i]] = reserveAmounts[i];\n        }\n    }\n\n    /**\n     * @dev seeds the total amount of protected reserve tokens per liquidity provider\n     * can be executed only by a seeder\n     *\n     * @param providers         liquidity provider addresses\n     * @param poolTokens        pool token addresses\n     * @param reserveTokens     reserve token addresses\n     * @param reserveAmounts    reserve token amounts\n     */\n    function seedProviderAmounts(\n        address[] calldata providers,\n        IDSToken[] calldata poolTokens,\n        IERC20[] calldata reserveTokens,\n        uint256[] calldata reserveAmounts\n    ) external seederOnly {\n        uint256 length = providers.length;\n        for (uint256 i = 0; i < length; i++) {\n            _totalProviderAmounts[providers[i]][poolTokens[i]][reserveTokens[i]] = reserveAmounts[i];\n        }\n    }\n\n    /**\n     * @dev seeds the list of pools per liquidity provider\n     * can be executed only by a seeder\n     *\n     * @param providers     liquidity provider addresses\n     * @param poolTokens    pool token addresses\n     */\n    function seedProviderPools(address[] calldata providers, IDSToken[] calldata poolTokens) external seederOnly {\n        uint256 length = providers.length;\n        for (uint256 i = 0; i < length; i++) {\n            _providerPools[providers[i]].add(address(poolTokens[i]));\n        }\n    }\n}\n",
  "sourcePath": "/Users/dennismacpro/Projects/Defi/Ethereum-Solidity-Collection/icarus-protocol/defi-seeder/.tmp/bancor/contracts-solidity/solidity/contracts/liquidity-protection/LiquidityProtectionStats.sol",
  "compiler": {
    "name": "solc",
    "version": "0.6.12+commit.27d51765.Emscripten.clang"
  },
  "schemaVersion": "3.3.3",
  "updatedAt": "2021-04-01T18:17:52.148Z",
  "devdoc": {
    "details": "This contract aggregates the statistics of the liquidity protection mechanism.",
    "kind": "dev",
    "methods": {
      "addProviderPool(address,address)": {
        "details": "adds a pool to the list of pools of a liquidity provider can be executed only by an owner",
        "params": {
          "poolToken": "pool token address",
          "provider": "liquidity provider address"
        }
      },
      "decreaseTotalAmounts(address,address,address,uint256,uint256)": {
        "details": "decreases the total amounts can be executed only by an owner",
        "params": {
          "poolAmount": "pool token amount",
          "poolToken": "pool token address",
          "provider": "liquidity provider address",
          "reserveAmount": "reserve token amount",
          "reserveToken": "reserve token address"
        }
      },
      "getRoleAdmin(bytes32)": {
        "details": "Returns the admin role that controls `role`. See {grantRole} and {revokeRole}. To change a role's admin, use {_setRoleAdmin}."
      },
      "getRoleMember(bytes32,uint256)": {
        "details": "Returns one of the accounts that have `role`. `index` must be a value between 0 and {getRoleMemberCount}, non-inclusive. Role bearers are not sorted in any particular way, and their ordering may change at any point. WARNING: When using {getRoleMember} and {getRoleMemberCount}, make sure you perform all queries on the same block. See the following https://forum.openzeppelin.com/t/iterating-over-elements-on-enumerableset-in-openzeppelin-contracts/2296[forum post] for more information."
      },
      "getRoleMemberCount(bytes32)": {
        "details": "Returns the number of accounts that have `role`. Can be used together with {getRoleMember} to enumerate all bearers of a role."
      },
      "grantRole(bytes32,address)": {
        "details": "Grants `role` to `account`. If `account` had not been already granted `role`, emits a {RoleGranted} event. Requirements: - the caller must have ``role``'s admin role."
      },
      "hasRole(bytes32,address)": {
        "details": "Returns `true` if `account` has been granted `role`."
      },
      "increaseTotalAmounts(address,address,address,uint256,uint256)": {
        "details": "increases the total amounts can be executed only by an owner",
        "params": {
          "poolAmount": "pool token amount",
          "poolToken": "pool token address",
          "provider": "liquidity provider address",
          "reserveAmount": "reserve token amount",
          "reserveToken": "reserve token address"
        }
      },
      "providerPools(address)": {
        "details": "returns the list of pools of a liquidity provider",
        "params": {
          "provider": "liquidity provider address"
        },
        "returns": {
          "_0": "pool tokens"
        }
      },
      "removeProviderPool(address,address)": {
        "details": "removes a pool from the list of pools of a liquidity provider can be executed only by an owner",
        "params": {
          "poolToken": "pool token address",
          "provider": "liquidity provider address"
        }
      },
      "renounceRole(bytes32,address)": {
        "details": "Revokes `role` from the calling account. Roles are often managed via {grantRole} and {revokeRole}: this function's purpose is to provide a mechanism for accounts to lose their privileges if they are compromised (such as when a trusted device is misplaced). If the calling account had been granted `role`, emits a {RoleRevoked} event. Requirements: - the caller must be `account`."
      },
      "revokeRole(bytes32,address)": {
        "details": "Revokes `role` from `account`. If `account` had been granted `role`, emits a {RoleRevoked} event. Requirements: - the caller must have ``role``'s admin role."
      },
      "seedPoolAmounts(address[],uint256[])": {
        "details": "seeds the total amount of protected pool tokens can be executed only by a seeder",
        "params": {
          "poolAmounts": "pool token amounts",
          "poolTokens": "pool token addresses"
        }
      },
      "seedProviderAmounts(address[],address[],address[],uint256[])": {
        "details": "seeds the total amount of protected reserve tokens per liquidity provider can be executed only by a seeder",
        "params": {
          "poolTokens": "pool token addresses",
          "providers": "liquidity provider addresses",
          "reserveAmounts": "reserve token amounts",
          "reserveTokens": "reserve token addresses"
        }
      },
      "seedProviderPools(address[],address[])": {
        "details": "seeds the list of pools per liquidity provider can be executed only by a seeder",
        "params": {
          "poolTokens": "pool token addresses",
          "providers": "liquidity provider addresses"
        }
      },
      "seedReserveAmounts(address[],address[],uint256[])": {
        "details": "seeds the total amount of protected reserve tokens can be executed only by a seeder",
        "params": {
          "poolTokens": "pool token addresses",
          "reserveAmounts": "reserve token amounts",
          "reserveTokens": "reserve token addresses"
        }
      },
      "totalPoolAmount(address)": {
        "details": "returns the total amount of protected pool tokens",
        "params": {
          "poolToken": "pool token address"
        },
        "returns": {
          "_0": "total amount of protected pool tokens"
        }
      },
      "totalProviderAmount(address,address,address)": {
        "details": "returns the total amount of a liquidity provider's protected reserve tokens",
        "params": {
          "poolToken": "pool token address",
          "provider": "liquidity provider address",
          "reserveToken": "reserve token address"
        },
        "returns": {
          "_0": "total amount of the liquidity provider's protected reserve tokens"
        }
      },
      "totalReserveAmount(address,address)": {
        "details": "returns the total amount of protected reserve tokens",
        "params": {
          "poolToken": "pool token address",
          "reserveToken": "reserve token address"
        },
        "returns": {
          "_0": "total amount of protected reserve tokens"
        }
      }
    },
    "version": 1
  },
  "userdoc": {
    "kind": "user",
    "methods": {},
    "version": 1
  }
}