{
  "contractName": "LiquidityProtectionSettings",
  "abi": [
    {
      "inputs": [
        {
          "internalType": "contract IERC20",
          "name": "token",
          "type": "address"
        },
        {
          "internalType": "contract IContractRegistry",
          "name": "registry",
          "type": "address"
        }
      ],
      "stateMutability": "nonpayable",
      "type": "constructor"
    },
    {
      "anonymous": false,
      "inputs": [
        {
          "indexed": true,
          "internalType": "contract IConverterAnchor",
          "name": "poolAnchor",
          "type": "address"
        },
        {
          "indexed": true,
          "internalType": "contract IERC20",
          "name": "reserveToken",
          "type": "address"
        },
        {
          "indexed": false,
          "internalType": "bool",
          "name": "disabled",
          "type": "bool"
        }
      ],
      "name": "AddLiquidityDisabled",
      "type": "event"
    },
    {
      "anonymous": false,
      "inputs": [
        {
          "indexed": false,
          "internalType": "uint32",
          "name": "prevAverageRateMaxDeviation",
          "type": "uint32"
        },
        {
          "indexed": false,
          "internalType": "uint32",
          "name": "newAverageRateMaxDeviation",
          "type": "uint32"
        }
      ],
      "name": "AverageRateMaxDeviationUpdated",
      "type": "event"
    },
    {
      "anonymous": false,
      "inputs": [
        {
          "indexed": false,
          "internalType": "uint256",
          "name": "prevDefault",
          "type": "uint256"
        },
        {
          "indexed": false,
          "internalType": "uint256",
          "name": "newDefault",
          "type": "uint256"
        }
      ],
      "name": "DefaultNetworkTokenMintingLimitUpdated",
      "type": "event"
    },
    {
      "anonymous": false,
      "inputs": [
        {
          "indexed": false,
          "internalType": "uint256",
          "name": "prevLockDuration",
          "type": "uint256"
        },
        {
          "indexed": false,
          "internalType": "uint256",
          "name": "newLockDuration",
          "type": "uint256"
        }
      ],
      "name": "LockDurationUpdated",
      "type": "event"
    },
    {
      "anonymous": false,
      "inputs": [
        {
          "indexed": false,
          "internalType": "uint256",
          "name": "prevMinNetworkCompensation",
          "type": "uint256"
        },
        {
          "indexed": false,
          "internalType": "uint256",
          "name": "newMinNetworkCompensation",
          "type": "uint256"
        }
      ],
      "name": "MinNetworkCompensationUpdated",
      "type": "event"
    },
    {
      "anonymous": false,
      "inputs": [
        {
          "indexed": false,
          "internalType": "uint256",
          "name": "prevMin",
          "type": "uint256"
        },
        {
          "indexed": false,
          "internalType": "uint256",
          "name": "newMin",
          "type": "uint256"
        }
      ],
      "name": "MinNetworkTokenLiquidityForMintingUpdated",
      "type": "event"
    },
    {
      "anonymous": false,
      "inputs": [
        {
          "indexed": true,
          "internalType": "contract IConverterAnchor",
          "name": "poolAnchor",
          "type": "address"
        },
        {
          "indexed": false,
          "internalType": "uint256",
          "name": "prevLimit",
          "type": "uint256"
        },
        {
          "indexed": false,
          "internalType": "uint256",
          "name": "newLimit",
          "type": "uint256"
        }
      ],
      "name": "NetworkTokenMintingLimitUpdated",
      "type": "event"
    },
    {
      "anonymous": false,
      "inputs": [
        {
          "indexed": true,
          "internalType": "address",
          "name": "_prevOwner",
          "type": "address"
        },
        {
          "indexed": true,
          "internalType": "address",
          "name": "_newOwner",
          "type": "address"
        }
      ],
      "name": "OwnerUpdate",
      "type": "event"
    },
    {
      "anonymous": false,
      "inputs": [
        {
          "indexed": true,
          "internalType": "contract IConverterAnchor",
          "name": "poolAnchor",
          "type": "address"
        },
        {
          "indexed": false,
          "internalType": "bool",
          "name": "added",
          "type": "bool"
        }
      ],
      "name": "PoolWhitelistUpdated",
      "type": "event"
    },
    {
      "anonymous": false,
      "inputs": [
        {
          "indexed": false,
          "internalType": "uint256",
          "name": "prevMinProtectionDelay",
          "type": "uint256"
        },
        {
          "indexed": false,
          "internalType": "uint256",
          "name": "newMinProtectionDelay",
          "type": "uint256"
        },
        {
          "indexed": false,
          "internalType": "uint256",
          "name": "prevMaxProtectionDelay",
          "type": "uint256"
        },
        {
          "indexed": false,
          "internalType": "uint256",
          "name": "newMaxProtectionDelay",
          "type": "uint256"
        }
      ],
      "name": "ProtectionDelaysUpdated",
      "type": "event"
    },
    {
      "anonymous": false,
      "inputs": [
        {
          "indexed": true,
          "internalType": "bytes32",
          "name": "role",
          "type": "bytes32"
        },
        {
          "indexed": true,
          "internalType": "bytes32",
          "name": "previousAdminRole",
          "type": "bytes32"
        },
        {
          "indexed": true,
          "internalType": "bytes32",
          "name": "newAdminRole",
          "type": "bytes32"
        }
      ],
      "name": "RoleAdminChanged",
      "type": "event"
    },
    {
      "anonymous": false,
      "inputs": [
        {
          "indexed": true,
          "internalType": "bytes32",
          "name": "role",
          "type": "bytes32"
        },
        {
          "indexed": true,
          "internalType": "address",
          "name": "account",
          "type": "address"
        },
        {
          "indexed": true,
          "internalType": "address",
          "name": "sender",
          "type": "address"
        }
      ],
      "name": "RoleGranted",
      "type": "event"
    },
    {
      "anonymous": false,
      "inputs": [
        {
          "indexed": true,
          "internalType": "bytes32",
          "name": "role",
          "type": "bytes32"
        },
        {
          "indexed": true,
          "internalType": "address",
          "name": "account",
          "type": "address"
        },
        {
          "indexed": true,
          "internalType": "address",
          "name": "sender",
          "type": "address"
        }
      ],
      "name": "RoleRevoked",
      "type": "event"
    },
    {
      "anonymous": false,
      "inputs": [
        {
          "indexed": true,
          "internalType": "contract ILiquidityProtectionEventsSubscriber",
          "name": "subscriber",
          "type": "address"
        },
        {
          "indexed": false,
          "internalType": "bool",
          "name": "added",
          "type": "bool"
        }
      ],
      "name": "SubscriberUpdated",
      "type": "event"
    },
    {
      "inputs": [],
      "name": "DEFAULT_ADMIN_ROLE",
      "outputs": [
        {
          "internalType": "bytes32",
          "name": "",
          "type": "bytes32"
        }
      ],
      "stateMutability": "view",
      "type": "function"
    },
    {
      "inputs": [],
      "name": "ROLE_OWNER",
      "outputs": [
        {
          "internalType": "bytes32",
          "name": "",
          "type": "bytes32"
        }
      ],
      "stateMutability": "view",
      "type": "function"
    },
    {
      "inputs": [],
      "name": "acceptOwnership",
      "outputs": [],
      "stateMutability": "nonpayable",
      "type": "function"
    },
    {
      "inputs": [
        {
          "internalType": "bytes32",
          "name": "role",
          "type": "bytes32"
        }
      ],
      "name": "getRoleAdmin",
      "outputs": [
        {
          "internalType": "bytes32",
          "name": "",
          "type": "bytes32"
        }
      ],
      "stateMutability": "view",
      "type": "function"
    },
    {
      "inputs": [
        {
          "internalType": "bytes32",
          "name": "role",
          "type": "bytes32"
        },
        {
          "internalType": "uint256",
          "name": "index",
          "type": "uint256"
        }
      ],
      "name": "getRoleMember",
      "outputs": [
        {
          "internalType": "address",
          "name": "",
          "type": "address"
        }
      ],
      "stateMutability": "view",
      "type": "function"
    },
    {
      "inputs": [
        {
          "internalType": "bytes32",
          "name": "role",
          "type": "bytes32"
        }
      ],
      "name": "getRoleMemberCount",
      "outputs": [
        {
          "internalType": "uint256",
          "name": "",
          "type": "uint256"
        }
      ],
      "stateMutability": "view",
      "type": "function"
    },
    {
      "inputs": [
        {
          "internalType": "bytes32",
          "name": "role",
          "type": "bytes32"
        },
        {
          "internalType": "address",
          "name": "account",
          "type": "address"
        }
      ],
      "name": "grantRole",
      "outputs": [],
      "stateMutability": "nonpayable",
      "type": "function"
    },
    {
      "inputs": [
        {
          "internalType": "bytes32",
          "name": "role",
          "type": "bytes32"
        },
        {
          "internalType": "address",
          "name": "account",
          "type": "address"
        }
      ],
      "name": "hasRole",
      "outputs": [
        {
          "internalType": "bool",
          "name": "",
          "type": "bool"
        }
      ],
      "stateMutability": "view",
      "type": "function"
    },
    {
      "inputs": [],
      "name": "newOwner",
      "outputs": [
        {
          "internalType": "address",
          "name": "",
          "type": "address"
        }
      ],
      "stateMutability": "view",
      "type": "function"
    },
    {
      "inputs": [],
      "name": "onlyOwnerCanUpdateRegistry",
      "outputs": [
        {
          "internalType": "bool",
          "name": "",
          "type": "bool"
        }
      ],
      "stateMutability": "view",
      "type": "function"
    },
    {
      "inputs": [],
      "name": "owner",
      "outputs": [
        {
          "internalType": "address",
          "name": "",
          "type": "address"
        }
      ],
      "stateMutability": "view",
      "type": "function"
    },
    {
      "inputs": [],
      "name": "prevRegistry",
      "outputs": [
        {
          "internalType": "contract IContractRegistry",
          "name": "",
          "type": "address"
        }
      ],
      "stateMutability": "view",
      "type": "function"
    },
    {
      "inputs": [],
      "name": "registry",
      "outputs": [
        {
          "internalType": "contract IContractRegistry",
          "name": "",
          "type": "address"
        }
      ],
      "stateMutability": "view",
      "type": "function"
    },
    {
      "inputs": [
        {
          "internalType": "bytes32",
          "name": "role",
          "type": "bytes32"
        },
        {
          "internalType": "address",
          "name": "account",
          "type": "address"
        }
      ],
      "name": "renounceRole",
      "outputs": [],
      "stateMutability": "nonpayable",
      "type": "function"
    },
    {
      "inputs": [],
      "name": "restoreRegistry",
      "outputs": [],
      "stateMutability": "nonpayable",
      "type": "function"
    },
    {
      "inputs": [
        {
          "internalType": "bool",
          "name": "_onlyOwnerCanUpdateRegistry",
          "type": "bool"
        }
      ],
      "name": "restrictRegistryUpdate",
      "outputs": [],
      "stateMutability": "nonpayable",
      "type": "function"
    },
    {
      "inputs": [
        {
          "internalType": "bytes32",
          "name": "role",
          "type": "bytes32"
        },
        {
          "internalType": "address",
          "name": "account",
          "type": "address"
        }
      ],
      "name": "revokeRole",
      "outputs": [],
      "stateMutability": "nonpayable",
      "type": "function"
    },
    {
      "inputs": [
        {
          "internalType": "address",
          "name": "_newOwner",
          "type": "address"
        }
      ],
      "name": "transferOwnership",
      "outputs": [],
      "stateMutability": "nonpayable",
      "type": "function"
    },
    {
      "inputs": [],
      "name": "updateRegistry",
      "outputs": [],
      "stateMutability": "nonpayable",
      "type": "function"
    },
    {
      "inputs": [],
      "name": "networkToken",
      "outputs": [
        {
          "internalType": "contract IERC20",
          "name": "",
          "type": "address"
        }
      ],
      "stateMutability": "view",
      "type": "function"
    },
    {
      "inputs": [],
      "name": "minNetworkTokenLiquidityForMinting",
      "outputs": [
        {
          "internalType": "uint256",
          "name": "",
          "type": "uint256"
        }
      ],
      "stateMutability": "view",
      "type": "function"
    },
    {
      "inputs": [],
      "name": "defaultNetworkTokenMintingLimit",
      "outputs": [
        {
          "internalType": "uint256",
          "name": "",
          "type": "uint256"
        }
      ],
      "stateMutability": "view",
      "type": "function"
    },
    {
      "inputs": [
        {
          "internalType": "contract IConverterAnchor",
          "name": "poolAnchor",
          "type": "address"
        }
      ],
      "name": "networkTokenMintingLimits",
      "outputs": [
        {
          "internalType": "uint256",
          "name": "",
          "type": "uint256"
        }
      ],
      "stateMutability": "view",
      "type": "function"
    },
    {
      "inputs": [
        {
          "internalType": "contract IConverterAnchor",
          "name": "poolAnchor",
          "type": "address"
        },
        {
          "internalType": "contract IERC20",
          "name": "reserveToken",
          "type": "address"
        }
      ],
      "name": "addLiquidityDisabled",
      "outputs": [
        {
          "internalType": "bool",
          "name": "",
          "type": "bool"
        }
      ],
      "stateMutability": "view",
      "type": "function"
    },
    {
      "inputs": [],
      "name": "minProtectionDelay",
      "outputs": [
        {
          "internalType": "uint256",
          "name": "",
          "type": "uint256"
        }
      ],
      "stateMutability": "view",
      "type": "function"
    },
    {
      "inputs": [],
      "name": "maxProtectionDelay",
      "outputs": [
        {
          "internalType": "uint256",
          "name": "",
          "type": "uint256"
        }
      ],
      "stateMutability": "view",
      "type": "function"
    },
    {
      "inputs": [],
      "name": "minNetworkCompensation",
      "outputs": [
        {
          "internalType": "uint256",
          "name": "",
          "type": "uint256"
        }
      ],
      "stateMutability": "view",
      "type": "function"
    },
    {
      "inputs": [],
      "name": "lockDuration",
      "outputs": [
        {
          "internalType": "uint256",
          "name": "",
          "type": "uint256"
        }
      ],
      "stateMutability": "view",
      "type": "function"
    },
    {
      "inputs": [],
      "name": "averageRateMaxDeviation",
      "outputs": [
        {
          "internalType": "uint32",
          "name": "",
          "type": "uint32"
        }
      ],
      "stateMutability": "view",
      "type": "function"
    },
    {
      "inputs": [
        {
          "internalType": "contract IConverterAnchor",
          "name": "poolAnchor",
          "type": "address"
        }
      ],
      "name": "addPoolToWhitelist",
      "outputs": [],
      "stateMutability": "nonpayable",
      "type": "function"
    },
    {
      "inputs": [
        {
          "internalType": "contract IConverterAnchor",
          "name": "poolAnchor",
          "type": "address"
        }
      ],
      "name": "removePoolFromWhitelist",
      "outputs": [],
      "stateMutability": "nonpayable",
      "type": "function"
    },
    {
      "inputs": [
        {
          "internalType": "contract IConverterAnchor",
          "name": "poolAnchor",
          "type": "address"
        }
      ],
      "name": "isPoolWhitelisted",
      "outputs": [
        {
          "internalType": "bool",
          "name": "",
          "type": "bool"
        }
      ],
      "stateMutability": "view",
      "type": "function"
    },
    {
      "inputs": [],
      "name": "poolWhitelist",
      "outputs": [
        {
          "internalType": "address[]",
          "name": "",
          "type": "address[]"
        }
      ],
      "stateMutability": "view",
      "type": "function"
    },
    {
      "inputs": [
        {
          "internalType": "contract ILiquidityProtectionEventsSubscriber",
          "name": "subscriber",
          "type": "address"
        }
      ],
      "name": "addSubscriber",
      "outputs": [],
      "stateMutability": "nonpayable",
      "type": "function"
    },
    {
      "inputs": [
        {
          "internalType": "contract ILiquidityProtectionEventsSubscriber",
          "name": "subscriber",
          "type": "address"
        }
      ],
      "name": "removeSubscriber",
      "outputs": [],
      "stateMutability": "nonpayable",
      "type": "function"
    },
    {
      "inputs": [],
      "name": "subscribers",
      "outputs": [
        {
          "internalType": "address[]",
          "name": "",
          "type": "address[]"
        }
      ],
      "stateMutability": "view",
      "type": "function"
    },
    {
      "inputs": [
        {
          "internalType": "uint256",
          "name": "amount",
          "type": "uint256"
        }
      ],
      "name": "setMinNetworkTokenLiquidityForMinting",
      "outputs": [],
      "stateMutability": "nonpayable",
      "type": "function"
    },
    {
      "inputs": [
        {
          "internalType": "uint256",
          "name": "amount",
          "type": "uint256"
        }
      ],
      "name": "setDefaultNetworkTokenMintingLimit",
      "outputs": [],
      "stateMutability": "nonpayable",
      "type": "function"
    },
    {
      "inputs": [
        {
          "internalType": "contract IConverterAnchor",
          "name": "poolAnchor",
          "type": "address"
        },
        {
          "internalType": "uint256",
          "name": "amount",
          "type": "uint256"
        }
      ],
      "name": "setNetworkTokenMintingLimit",
      "outputs": [],
      "stateMutability": "nonpayable",
      "type": "function"
    },
    {
      "inputs": [
        {
          "internalType": "uint256",
          "name": "minDelay",
          "type": "uint256"
        },
        {
          "internalType": "uint256",
          "name": "maxDelay",
          "type": "uint256"
        }
      ],
      "name": "setProtectionDelays",
      "outputs": [],
      "stateMutability": "nonpayable",
      "type": "function"
    },
    {
      "inputs": [
        {
          "internalType": "uint256",
          "name": "amount",
          "type": "uint256"
        }
      ],
      "name": "setMinNetworkCompensation",
      "outputs": [],
      "stateMutability": "nonpayable",
      "type": "function"
    },
    {
      "inputs": [
        {
          "internalType": "uint256",
          "name": "duration",
          "type": "uint256"
        }
      ],
      "name": "setLockDuration",
      "outputs": [],
      "stateMutability": "nonpayable",
      "type": "function"
    },
    {
      "inputs": [
        {
          "internalType": "uint32",
          "name": "deviation",
          "type": "uint32"
        }
      ],
      "name": "setAverageRateMaxDeviation",
      "outputs": [],
      "stateMutability": "nonpayable",
      "type": "function"
    },
    {
      "inputs": [
        {
          "internalType": "contract IConverterAnchor",
          "name": "poolAnchor",
          "type": "address"
        },
        {
          "internalType": "contract IERC20",
          "name": "reserveToken",
          "type": "address"
        },
        {
          "internalType": "bool",
          "name": "disable",
          "type": "bool"
        }
      ],
      "name": "disableAddLiquidity",
      "outputs": [],
      "stateMutability": "nonpayable",
      "type": "function"
    },
    {
      "inputs": [
        {
          "internalType": "contract IConverterAnchor",
          "name": "poolAnchor",
          "type": "address"
        }
      ],
      "name": "isPoolSupported",
      "outputs": [
        {
          "internalType": "bool",
          "name": "",
          "type": "bool"
        }
      ],
      "stateMutability": "view",
      "type": "function"
    }
  ],
  "bytecode": "0x60a0604052683635c9adc5dea0000060095569043c33c1937564800000600a5562278d00600d556283d600600e55662386f26fc10000600f55620151806010556011805463ffffffff19166113881790553480156200005d57600080fd5b50604051620022dd380380620022dd833981810160405260408110156200008357600080fd5b508051602090910151600180546001600160a01b031916331790558080620000ab816200013d565b50600380546001600160a01b039092166001600160a01b031992831681179091556004805490921617905581620000e2816200013d565b82620000ee816200019c565b62000109600080516020620022bd83398151915280620001fb565b62000124600080516020620022bd833981519152336200024d565b50505060601b6001600160601b03191660805262000361565b6001600160a01b03811662000199576040805162461bcd60e51b815260206004820152601360248201527f4552525f494e56414c49445f4144445245535300000000000000000000000000604482015290519081900360640190fd5b50565b6001600160a01b03811630141562000199576040805162461bcd60e51b815260206004820152601360248201527f4552525f414444524553535f49535f53454c4600000000000000000000000000604482015290519081900360640190fd5b600082815260208190526040808220600201549051839285917fbd79b86ffe0ab8e8776151514217cd7cacd52c909f66475c3af44e129f0b00ff9190a460009182526020829052604090912060020155565b6200025982826200025d565b5050565b60008281526020818152604090912062000282918390620018c0620002d6821b17901c565b15620002595762000292620002f6565b6001600160a01b0316816001600160a01b0316837f2f8788117e7eff1d82e926ec794901d17c78024a50270940304540a733656f0d60405160405180910390a45050565b6000620002ed836001600160a01b038416620002fa565b90505b92915050565b3390565b600062000308838362000349565b6200034057508154600181810184556000848152602080822090930184905584548482528286019093526040902091909155620002f0565b506000620002f0565b60009081526001919091016020526040902054151590565b60805160601c611f396200038460003980610df852806113435250611f396000f3fe608060405234801561001057600080fd5b506004361061027f5760003560e01c80638da5cb5b1161015c578063b4a176d3116100ce578063d4f6314811610087578063d4f63148146106bf578063d547741f146106e5578063db8ac95a14610711578063ef4396341461072e578063f2fde38b1461074b578063f89ae87e146107715761027f565b8063b4a176d31461065f578063b5768e0e14610667578063b97b55ce1461068a578063ca15c87314610692578063ce3f3adb146106af578063d4ee1d90146106b75761027f565b80639afc6b26116101205780639afc6b26146105805780639e2ce9d2146105a35780639e571a6a146105fb578063a217fddf14610629578063a80c76ff14610631578063ab99c651146106395761027f565b80638da5cb5b146104dd5780639010d07c146104e557806391d1485414610508578063943fd08a1461053457806394555d1a1461055a5761027f565b806336568abe116101f557806361cd756e116101b957806361cd756e14610473578063627c34ad146104975780636ca95a4e146104bd57806379ba5097146104c55780637b103999146104cd5780638ad682af146104d55761027f565b806336568abe146103cd57806343cf828d146103f957806347bfe2e41461043157806349d10b641461044e5780634eb665af146104565761027f565b8063248a9ca311610247578063248a9ca31461031957806324a08868146103365780632b26a982146103575780632c560f89146103915780632f2ff15d146103995780632fe8a6ad146103c55761027f565b8063024c7ec71461028457806304554443146102a557806312588d0e146102bf5780631b26d753146102c757806321efd30a146102ed575b600080fd5b6102a36004803603602081101561029a57600080fd5b50351515610779565b005b6102ad61079f565b60408051918252519081900360200190f35b6102ad6107a5565b6102a3600480360360208110156102dd57600080fd5b50356001600160a01b03166107ab565b6102a36004803603604081101561030357600080fd5b506001600160a01b038135169060200135610868565b6102ad6004803603602081101561032f57600080fd5b50356108ec565b61033e610904565b6040805163ffffffff9092168252519081900360200190f35b61037d6004803603602081101561036d57600080fd5b50356001600160a01b0316610910565b604080519115158252519081900360200190f35b6102ad610923565b6102a3600480360360408110156103af57600080fd5b50803590602001356001600160a01b0316610929565b61037d610995565b6102a3600480360360408110156103e357600080fd5b50803590602001356001600160a01b03166109a5565b6102a36004803603606081101561040f57600080fd5b506001600160a01b038135811691602081013590911690604001351515610a06565b6102a36004803603602081101561044757600080fd5b5035610a95565b6102a3610adf565b6102a36004803603602081101561046c57600080fd5b5035610ce7565b61047b610d31565b604080516001600160a01b039092168252519081900360200190f35b6102a3600480360360208110156104ad57600080fd5b50356001600160a01b0316610d40565b61047b610df6565b6102a3610e1a565b61047b610ed3565b6102ad610ee2565b61047b610f06565b61047b600480360360408110156104fb57600080fd5b5080359060200135610f15565b61037d6004803603604081101561051e57600080fd5b50803590602001356001600160a01b0316610f34565b6102ad6004803603602081101561054a57600080fd5b50356001600160a01b0316610f4c565b6102a36004803603602081101561057057600080fd5b50356001600160a01b0316610f67565b6102a36004803603604081101561059657600080fd5b5080359060200135611024565b6105ab6110d8565b60408051602080825283518183015283519192839290830191858101910280838360005b838110156105e75781810151838201526020016105cf565b505050509050019250505060405180910390f35b61037d6004803603604081101561061157600080fd5b506001600160a01b0381358116916020013516611177565b6102ad6111a5565b6102ad6111aa565b6102a36004803603602081101561064f57600080fd5b50356001600160a01b03166111b0565b6102a361126d565b6102a36004803603602081101561067d57600080fd5b503563ffffffff16611299565b6102ad61130d565b6102ad600480360360208110156106a857600080fd5b5035611313565b6102ad61132a565b61047b611330565b61037d600480360360208110156106d557600080fd5b50356001600160a01b031661133f565b6102a3600480360360408110156106fb57600080fd5b50803590602001356001600160a01b03166116bd565b6102a36004803603602081101561072757600080fd5b5035611716565b6102a36004803603602081101561074457600080fd5b5035611760565b6102a36004803603602081101561076157600080fd5b50356001600160a01b03166117aa565b6105ab611828565b6107816118d5565b60048054911515600160a01b0260ff60a01b19909216919091179055565b60105490565b60095490565b6107b361192a565b806107bd81611999565b816107c7816119ed565b6107d2600584611a41565b610823576040805162461bcd60e51b815260206004820152601860248201527f4552525f504f4f4c5f4e4f545f57484954454c49535445440000000000000000604482015290519081900360640190fd5b604080516000815290516001600160a01b038516917fb7acd3c0ece90b3e568f5796fdf644dd4f98535f18b425552d5920e7f82af3e4919081900360200190a2505050565b61087061192a565b8161087a81611999565b6001600160a01b0383166000818152600b602090815260409182902054825190815290810185905281517f52e7a4b26db9c77dcae6378bbc9b06698f8d68b745d6ede13e6b228231fa42cd929181900390910190a2506001600160a01b039091166000908152600b6020526040902055565b6000818152602081905260409020600201545b919050565b60115463ffffffff1690565b600061091d600583611a56565b92915050565b600d5490565b60008281526020819052604090206002015461094c90610947611a6b565b610f34565b6109875760405162461bcd60e51b815260040180806020018281038252602f815260200180611e76602f913960400191505060405180910390fd5b6109918282611a6f565b5050565b600454600160a01b900460ff1681565b6109ad611a6b565b6001600160a01b0316816001600160a01b0316146109fc5760405162461bcd60e51b815260040180806020018281038252602f815260200180611ed5602f913960400191505060405180910390fd5b6109918282611ad8565b610a0e61192a565b816001600160a01b0316836001600160a01b03167fd103a879486ba900e0dccd4c5d6058fca83cc4b94e320eb48ddcdf4beedfb54b8360405180821515815260200191505060405180910390a36001600160a01b039283166000908152600c6020908152604080832094909516825292909252919020805460ff1916911515919091179055565b610a9d61192a565b600f54604080519182526020820183905280517fff80bfa16436dbb8ee89d8804f78196e9b48c9f0f55490e8e41a8cb3ef15b0c39281900390910190a1600f55565b6001546001600160a01b0316331480610b025750600454600160a01b900460ff16155b610b47576040805162461bcd60e51b815260206004820152601160248201527011549497d050d0d154d4d7d11153925151607a1b604482015290519081900360640190fd5b6000610b656f436f6e7472616374526567697374727960801b611b41565b6003549091506001600160a01b03808316911614801590610b8e57506001600160a01b03811615155b610bd6576040805162461bcd60e51b81526020600482015260146024820152734552525f494e56414c49445f524547495354525960601b604482015290519081900360640190fd5b60006001600160a01b0316816001600160a01b031663bb34534c6f436f6e7472616374526567697374727960801b6040518263ffffffff1660e01b81526004018082815260200191505060206040518083038186803b158015610c3857600080fd5b505afa158015610c4c573d6000803e3d6000fd5b505050506040513d6020811015610c6257600080fd5b50516001600160a01b03161415610cb7576040805162461bcd60e51b81526020600482015260146024820152734552525f494e56414c49445f524547495354525960601b604482015290519081900360640190fd5b60038054600480546001600160a01b038084166001600160a01b0319928316179092559091169216919091179055565b610cef61192a565b601054604080519182526020820183905280517f960da93dd9b69d9002b820a04d4dba66c8e69ce03fc13fcf89429fadd93607c89281900390910190a1601055565b6004546001600160a01b031681565b610d4861192a565b80610d5281611999565b81610d5c816119ed565b610d67600784611a41565b610db1576040805162461bcd60e51b815260206004820152601660248201527522a9292fa4a72b20a624a22fa9aaa129a1a924a122a960511b604482015290519081900360640190fd5b604080516000815290516001600160a01b038516917f814e8056440719db4ef836304a4dbd1a8c79f49052e04433fbb679c3fdfa6698919081900360200190a2505050565b7f000000000000000000000000000000000000000000000000000000000000000090565b6002546001600160a01b03163314610e6d576040805162461bcd60e51b815260206004820152601160248201527011549497d050d0d154d4d7d11153925151607a1b604482015290519081900360640190fd5b6002546001546040516001600160a01b0392831692909116907f343765429aea5a34b3ff6a3785a98a5abb2597aca87bfbb58632c173d585373a90600090a360028054600180546001600160a01b03199081166001600160a01b03841617909155169055565b6003546001600160a01b031681565b7f9f4e1c871d5fdd0aee1cd182666698a4492b24c6832aac230d07b11046af5a8981565b6001546001600160a01b031681565b6000828152602081905260408120610f2d9083611bbf565b9392505050565b6000828152602081905260408120610f2d9083611a56565b6001600160a01b03166000908152600b602052604090205490565b610f6f61192a565b80610f7981611999565b81610f83816119ed565b610f8e6007846118c0565b610fdf576040805162461bcd60e51b815260206004820152601a60248201527f4552525f535542534352494245525f414c52454144595f534554000000000000604482015290519081900360640190fd5b604080516001815290516001600160a01b038516917f814e8056440719db4ef836304a4dbd1a8c79f49052e04433fbb679c3fdfa6698919081900360200190a2505050565b61102c61192a565b808210611080576040805162461bcd60e51b815260206004820152601c60248201527f4552525f494e56414c49445f50524f54454354494f4e5f44454c415900000000604482015290519081900360640190fd5b600d54600e5460408051928352602083018590528281019190915260608201839052517f635ce4d6b41e8ffd69a74f8ab405dff0328384161ea5fb70c3041dc9943f0e409181900360800190a1600d91909155600e55565b606060006110e66007611bcb565b905060608167ffffffffffffffff8111801561110157600080fd5b5060405190808252806020026020018201604052801561112b578160200160208202803683370190505b50905060005b8281101561117057611144600782611bbf565b82828151811061115057fe5b6001600160a01b0390921660209283029190910190910152600101611131565b5091505090565b6001600160a01b039182166000908152600c6020908152604080832093909416825291909152205460ff1690565b600081565b600f5490565b6111b861192a565b806111c281611999565b816111cc816119ed565b6111d76005846118c0565b611228576040805162461bcd60e51b815260206004820152601c60248201527f4552525f504f4f4c5f414c52454144595f57484954454c495354454400000000604482015290519081900360640190fd5b604080516001815290516001600160a01b038516917fb7acd3c0ece90b3e568f5796fdf644dd4f98535f18b425552d5920e7f82af3e4919081900360200190a2505050565b6112756118d5565b600454600380546001600160a01b0319166001600160a01b03909216919091179055565b6112a161192a565b806112ab81611bd6565b6011546040805163ffffffff9283168152918416602083015280517fd454d862256f659afda88568899fdc348a2ca310726f7e1abd701884990d5d5f9281900390910190a1506011805463ffffffff191663ffffffff92909216919091179055565b600a5490565b600081815260208190526040812061091d90611bcb565b600e5490565b6002546001600160a01b031681565b60007f00000000000000000000000000000000000000000000000000000000000000008161138c7f42616e636f72436f6e7665727465725265676973747279000000000000000000611b41565b9050806001600160a01b031663d8cced2a856040518263ffffffff1660e01b815260040180826001600160a01b0316815260200191505060206040518083038186803b1580156113db57600080fd5b505afa1580156113ef573d6000803e3d6000fd5b505050506040513d602081101561140557600080fd5b505161144d576040805162461bcd60e51b815260206004820152601260248201527122a9292fa4a72b20a624a22fa0a721a427a960711b604482015290519081900360640190fd5b6000846001600160a01b0316638da5cb5b6040518163ffffffff1660e01b815260040160206040518083038186803b15801561148857600080fd5b505afa15801561149c573d6000803e3d6000fd5b505050506040513d60208110156114b257600080fd5b5051604080516371f52bf360e01b815290519192506001600160a01b038316916371f52bf391600480820192602092909190829003018186803b1580156114f857600080fd5b505afa15801561150c573d6000803e3d6000fd5b505050506040513d602081101561152257600080fd5b505161ffff1660021461153b57600093505050506108ff565b6000816001600160a01b03166319b6401560006040518263ffffffff1660e01b81526004018082815260200191505060206040518083038186803b15801561158257600080fd5b505afa158015611596573d6000803e3d6000fd5b505050506040513d60208110156115ac57600080fd5b5051604080516319b6401560e01b81526001600482015290519192506000916001600160a01b038516916319b64015916024808301926020929190829003018186803b1580156115fb57600080fd5b505afa15801561160f573d6000803e3d6000fd5b505050506040513d602081101561162557600080fd5b505190506001600160a01b03828116908616148015906116575750846001600160a01b0316816001600160a01b031614155b1561166a576000955050505050506108ff565b6207a1206116788484611c3c565b63ffffffff1614158061169d57506207a1206116948483611c3c565b63ffffffff1614155b156116b0576000955050505050506108ff565b5060019695505050505050565b6000828152602081905260409020600201546116db90610947611a6b565b6109fc5760405162461bcd60e51b8152600401808060200182810382526030815260200180611ea56030913960400191505060405180910390fd5b61171e61192a565b600954604080519182526020820183905280517f5a99968e3e63af857ff70564d9804774b0ad158a5ef8cbc5ef452733d063d0059281900390910190a1600955565b61176861192a565b600a54604080519182526020820183905280517faa79d0332376731d9c08954a25227f4e9b64483c2ba9234ebddf7143b092dc6c9281900390910190a1600a55565b6117b26118d5565b6001546001600160a01b0382811691161415611806576040805162461bcd60e51b815260206004820152600e60248201526d22a9292fa9a0a6a2afa7aba722a960911b604482015290519081900360640190fd5b600280546001600160a01b0319166001600160a01b0392909216919091179055565b606060006118366005611bcb565b905060608167ffffffffffffffff8111801561185157600080fd5b5060405190808252806020026020018201604052801561187b578160200160208202803683370190505b50905060005b8281101561117057611894600582611bbf565b8282815181106118a057fe5b6001600160a01b0390921660209283029190910190910152600101611881565b6000610f2d836001600160a01b038416611cc3565b6001546001600160a01b03163314611928576040805162461bcd60e51b815260206004820152601160248201527011549497d050d0d154d4d7d11153925151607a1b604482015290519081900360640190fd5b565b6119547f9f4e1c871d5fdd0aee1cd182666698a4492b24c6832aac230d07b11046af5a8933610f34565b611928576040805162461bcd60e51b815260206004820152601160248201527011549497d050d0d154d4d7d11153925151607a1b604482015290519081900360640190fd5b6001600160a01b0381166119ea576040805162461bcd60e51b81526020600482015260136024820152724552525f494e56414c49445f4144445245535360681b604482015290519081900360640190fd5b50565b6001600160a01b0381163014156119ea576040805162461bcd60e51b815260206004820152601360248201527222a9292fa0a2222922a9a9afa4a9afa9a2a62360691b604482015290519081900360640190fd5b6000610f2d836001600160a01b038416611d0d565b6000610f2d836001600160a01b038416611dd3565b3390565b6000828152602081905260409020611a8790826118c0565b1561099157611a94611a6b565b6001600160a01b0316816001600160a01b0316837f2f8788117e7eff1d82e926ec794901d17c78024a50270940304540a733656f0d60405160405180910390a45050565b6000828152602081905260409020611af09082611a41565b1561099157611afd611a6b565b6001600160a01b0316816001600160a01b0316837ff6391f5c32d9c69d2a47ea670b442974b53935d1edc7fd64eb21e047a839171b60405160405180910390a45050565b60035460408051632ecd14d360e21b81526004810184905290516000926001600160a01b03169163bb34534c916024808301926020929190829003018186803b158015611b8d57600080fd5b505afa158015611ba1573d6000803e3d6000fd5b505050506040513d6020811015611bb757600080fd5b505192915050565b6000610f2d8383611deb565b600061091d82611e4f565b60008163ffffffff16118015611bf55750620f424063ffffffff821611155b6119ea576040805162461bcd60e51b815260206004820152601360248201527222a9292fa4a72b20a624a22fa827a92a24a7a760691b604482015290519081900360640190fd5b600080836001600160a01b0316630e53aae9846040518263ffffffff1660e01b815260040180826001600160a01b0316815260200191505060a06040518083038186803b158015611c8c57600080fd5b505afa158015611ca0573d6000803e3d6000fd5b505050506040513d60a0811015611cb657600080fd5b5060200151949350505050565b6000611ccf8383611dd3565b611d055750815460018181018455600084815260208082209093018490558454848252828601909352604090209190915561091d565b50600061091d565b60008181526001830160205260408120548015611dc95783546000198083019190810190600090879083908110611d4057fe5b9060005260206000200154905080876000018481548110611d5d57fe5b600091825260208083209091019290925582815260018981019092526040902090840190558654879080611d8d57fe5b6001900381819060005260206000200160009055905586600101600087815260200190815260200160002060009055600194505050505061091d565b600091505061091d565b60009081526001919091016020526040902054151590565b81546000908210611e2d5760405162461bcd60e51b8152600401808060200182810382526022815260200180611e546022913960400191505060405180910390fd5b826000018281548110611e3c57fe5b9060005260206000200154905092915050565b549056fe456e756d657261626c655365743a20696e646578206f7574206f6620626f756e6473416363657373436f6e74726f6c3a2073656e646572206d75737420626520616e2061646d696e20746f206772616e74416363657373436f6e74726f6c3a2073656e646572206d75737420626520616e2061646d696e20746f207265766f6b65416363657373436f6e74726f6c3a2063616e206f6e6c792072656e6f756e636520726f6c657320666f722073656c66a26469706673582212204cd04ae22e411abebe0861e11baaf7f59de7e6caba0f3984db4daed3683d992164736f6c634300060c00339f4e1c871d5fdd0aee1cd182666698a4492b24c6832aac230d07b11046af5a89",
  "immutableReferences": {
    "25589": [
      {
        "length": 32,
        "start": 3576
      },
      {
        "length": 32,
        "start": 4931
      }
    ]
  },
  "source": "// SPDX-License-Identifier: SEE LICENSE IN LICENSE\npragma solidity 0.6.12;\n\nimport \"@openzeppelin/contracts/math/SafeMath.sol\";\nimport \"@openzeppelin/contracts/access/AccessControl.sol\";\nimport \"@openzeppelin/contracts/utils/EnumerableSet.sol\";\n\nimport \"./interfaces/ILiquidityProtectionSettings.sol\";\nimport \"../converter/interfaces/IConverter.sol\";\nimport \"../converter/interfaces/IConverterRegistry.sol\";\nimport \"../utility/ContractRegistryClient.sol\";\nimport \"../utility/Utils.sol\";\n\n/**\n * @dev Liquidity Protection Settings contract\n */\ncontract LiquidityProtectionSettings is ILiquidityProtectionSettings, AccessControl, ContractRegistryClient {\n    using SafeMath for uint256;\n    using EnumerableSet for EnumerableSet.AddressSet;\n\n    // the owner role is used to update the settings\n    bytes32 public constant ROLE_OWNER = keccak256(\"ROLE_OWNER\");\n\n    uint32 private constant PPM_RESOLUTION = 1000000;\n\n    IERC20 private immutable _networkToken;\n\n    // list of whitelisted pools\n    EnumerableSet.AddressSet private _poolWhitelist;\n\n    // list of subscribers\n    EnumerableSet.AddressSet private _subscribers;\n\n    // network token minting limits\n    uint256 private _minNetworkTokenLiquidityForMinting = 1000e18;\n    uint256 private _defaultNetworkTokenMintingLimit = 20000e18;\n    mapping(IConverterAnchor => uint256) private _networkTokenMintingLimits;\n\n    // permission of adding liquidity for a given reserve on a given pool\n    mapping(IConverterAnchor => mapping(IERC20 => bool)) private _addLiquidityDisabled;\n\n    // number of seconds until any protection is in effect\n    uint256 private _minProtectionDelay = 30 days;\n\n    // number of seconds until full protection is in effect\n    uint256 private _maxProtectionDelay = 100 days;\n\n    // minimum amount of network tokens that the system can mint as compensation for base token losses\n    uint256 private _minNetworkCompensation = 1e16; // = 0.01 network tokens\n\n    // number of seconds from liquidation to full network token release\n    uint256 private _lockDuration = 24 hours;\n\n    // maximum deviation of the average rate from the spot rate\n    uint32 private _averageRateMaxDeviation = 5000; // PPM units\n\n    /**\n     * @dev triggered when the pool whitelist is updated\n     *\n     * @param poolAnchor    pool anchor\n     * @param added         true if the pool was added to the whitelist, false if it was removed\n     */\n    event PoolWhitelistUpdated(IConverterAnchor indexed poolAnchor, bool added);\n\n    /**\n     * @dev triggered when a subscriber is added or removed\n     *\n     * @param subscriber    subscriber\n     * @param added         true if the subscriber was added, false if it was removed\n     */\n    event SubscriberUpdated(ILiquidityProtectionEventsSubscriber indexed subscriber, bool added);\n\n    /**\n     * @dev triggered when the minimum amount of network token liquidity to allow minting is updated\n     *\n     * @param prevMin   previous minimum amount of network token liquidity for minting\n     * @param newMin    new minimum amount of network token liquidity for minting\n     */\n    event MinNetworkTokenLiquidityForMintingUpdated(uint256 prevMin, uint256 newMin);\n\n    /**\n     * @dev triggered when the default network token minting limit is updated\n     *\n     * @param prevDefault   previous default network token minting limit\n     * @param newDefault    new default network token minting limit\n     */\n    event DefaultNetworkTokenMintingLimitUpdated(uint256 prevDefault, uint256 newDefault);\n\n    /**\n     * @dev triggered when a pool network token minting limit is updated\n     *\n     * @param poolAnchor    pool anchor\n     * @param prevLimit     previous limit\n     * @param newLimit      new limit\n     */\n    event NetworkTokenMintingLimitUpdated(IConverterAnchor indexed poolAnchor, uint256 prevLimit, uint256 newLimit);\n\n    /**\n     * @dev triggered when the protection delays are updated\n     *\n     * @param prevMinProtectionDelay    previous seconds until the protection starts\n     * @param newMinProtectionDelay     new seconds until the protection starts\n     * @param prevMaxProtectionDelay    previous seconds until full protection\n     * @param newMaxProtectionDelay     new seconds until full protection\n     */\n    event ProtectionDelaysUpdated(\n        uint256 prevMinProtectionDelay,\n        uint256 newMinProtectionDelay,\n        uint256 prevMaxProtectionDelay,\n        uint256 newMaxProtectionDelay\n    );\n\n    /**\n     * @dev triggered when the minimum network token compensation is updated\n     *\n     * @param prevMinNetworkCompensation    previous minimum network token compensation\n     * @param newMinNetworkCompensation     new minimum network token compensation\n     */\n    event MinNetworkCompensationUpdated(uint256 prevMinNetworkCompensation, uint256 newMinNetworkCompensation);\n\n    /**\n     * @dev triggered when the network token lock duration is updated\n     *\n     * @param prevLockDuration  previous network token lock duration, in seconds\n     * @param newLockDuration   new network token lock duration, in seconds\n     */\n    event LockDurationUpdated(uint256 prevLockDuration, uint256 newLockDuration);\n\n    /**\n     * @dev triggered when the maximum deviation of the average rate from the spot rate is updated\n     *\n     * @param prevAverageRateMaxDeviation   previous maximum deviation of the average rate from the spot rate\n     * @param newAverageRateMaxDeviation    new maximum deviation of the average rate from the spot rate\n     */\n    event AverageRateMaxDeviationUpdated(uint32 prevAverageRateMaxDeviation, uint32 newAverageRateMaxDeviation);\n\n    /**\n     * @dev triggered when adding liquidity is disabled or enabled for a given reserve on a given pool\n     *\n     * @param poolAnchor    pool anchor\n     * @param reserveToken  reserve token\n     * @param disabled      true if disabled, false otherwise\n     */\n    event AddLiquidityDisabled(IConverterAnchor indexed poolAnchor, IERC20 indexed reserveToken, bool disabled);\n\n    /**\n     * @dev initializes a new LiquidityProtectionSettings contract\n     *\n     * @param registry  contract registry\n     * @param token     the network token\n     */\n    constructor(IERC20 token, IContractRegistry registry)\n        public\n        ContractRegistryClient(registry)\n        validAddress(address(token))\n        notThis(address(token))\n    {\n        // set up administrative roles.\n        _setRoleAdmin(ROLE_OWNER, ROLE_OWNER);\n\n        // allow the deployer to initially govern the contract.\n        _setupRole(ROLE_OWNER, msg.sender);\n\n        _networkToken = token;\n    }\n\n    modifier onlyOwner() {\n        _onlyOwner();\n        _;\n    }\n\n    // error message binary size optimization\n    function _onlyOwner() internal view {\n        require(hasRole(ROLE_OWNER, msg.sender), \"ERR_ACCESS_DENIED\");\n    }\n\n    // ensures that the portion is valid\n    modifier validPortion(uint32 portion) {\n        _validPortion(portion);\n        _;\n    }\n\n    // error message binary size optimization\n    function _validPortion(uint32 portion) internal pure {\n        require(portion > 0 && portion <= PPM_RESOLUTION, \"ERR_INVALID_PORTION\");\n    }\n\n    /**\n     * @dev returns the network token\n     *\n     * @return the network token\n     */\n    function networkToken() external view returns (IERC20) {\n        return _networkToken;\n    }\n\n    /**\n     * @dev returns the minimum network token liquidity for minting\n     *\n     * @return the minimum network token liquidity for minting\n     */\n    function minNetworkTokenLiquidityForMinting() external view override returns (uint256) {\n        return _minNetworkTokenLiquidityForMinting;\n    }\n\n    /**\n     * @dev returns the default network token minting limit\n     *\n     * @return the default network token minting limit\n     */\n    function defaultNetworkTokenMintingLimit() external view override returns (uint256) {\n        return _defaultNetworkTokenMintingLimit;\n    }\n\n    /**\n     * @dev returns the network token minting limit for a given pool\n     *\n     * @param poolAnchor    pool anchor\n     * @return the network token minting limit for a given pool\n     */\n    function networkTokenMintingLimits(IConverterAnchor poolAnchor) external view override returns (uint256) {\n        return _networkTokenMintingLimits[poolAnchor];\n    }\n\n    /**\n     * @dev returns the permission of adding liquidity for a given reserve on a given pool\n     *\n     * @param poolAnchor    pool anchor\n     * @param reserveToken  reserve token\n     * @return true if adding liquidity is disabled, false otherwise\n     */\n    function addLiquidityDisabled(IConverterAnchor poolAnchor, IERC20 reserveToken)\n        external\n        view\n        override\n        returns (bool)\n    {\n        return _addLiquidityDisabled[poolAnchor][reserveToken];\n    }\n\n    /**\n     * @dev returns the minimum number of seconds until any protection is in effect\n     *\n     * @return the minimum number of seconds until any protection is in effect\n     */\n    function minProtectionDelay() external view override returns (uint256) {\n        return _minProtectionDelay;\n    }\n\n    /**\n     * @dev returns the maximum number of seconds until full protection is in effect\n     *\n     * @return the maximum number of seconds until full protection is in effect\n     */\n    function maxProtectionDelay() external view override returns (uint256) {\n        return _maxProtectionDelay;\n    }\n\n    /**\n     * @dev returns the minimum amount of network tokens that the system can mint as compensation for base token losses\n     *\n     * @return the minimum amount of network tokens that the system can mint as compensation for base token losses\n     */\n    function minNetworkCompensation() external view override returns (uint256) {\n        return _minNetworkCompensation;\n    }\n\n    /**\n     * @dev returns the number of seconds from liquidation to full network token release\n     *\n     * @return the number of seconds from liquidation to full network token release\n     */\n    function lockDuration() external view override returns (uint256) {\n        return _lockDuration;\n    }\n\n    /**\n     * @dev returns the maximum deviation of the average rate from the spot rate\n     *\n     * @return the maximum deviation of the average rate from the spot rate\n     */\n    function averageRateMaxDeviation() external view override returns (uint32) {\n        return _averageRateMaxDeviation;\n    }\n\n    /**\n     * @dev adds a pool to the whitelist\n     * can only be called by the contract owner\n     *\n     * @param poolAnchor    pool anchor\n     */\n    function addPoolToWhitelist(IConverterAnchor poolAnchor)\n        external\n        onlyOwner\n        validAddress(address(poolAnchor))\n        notThis(address(poolAnchor))\n    {\n        require(_poolWhitelist.add(address(poolAnchor)), \"ERR_POOL_ALREADY_WHITELISTED\");\n\n        emit PoolWhitelistUpdated(poolAnchor, true);\n    }\n\n    /**\n     * @dev removes a pool from the whitelist\n     * can only be called by the contract owner\n     *\n     * @param poolAnchor    pool anchor\n     */\n    function removePoolFromWhitelist(IConverterAnchor poolAnchor)\n        external\n        onlyOwner\n        validAddress(address(poolAnchor))\n        notThis(address(poolAnchor))\n    {\n        require(_poolWhitelist.remove(address(poolAnchor)), \"ERR_POOL_NOT_WHITELISTED\");\n\n        emit PoolWhitelistUpdated(poolAnchor, false);\n    }\n\n    /**\n     * @dev checks whether a given pool is whitelisted\n     *\n     * @param poolAnchor    pool anchor\n     * @return true if the given pool is whitelisted, false otherwise\n     */\n    function isPoolWhitelisted(IConverterAnchor poolAnchor) external view override returns (bool) {\n        return _poolWhitelist.contains(address(poolAnchor));\n    }\n\n    /**\n     * @dev returns pools whitelist\n     *\n     * @return pools whitelist\n     */\n    function poolWhitelist() external view override returns (address[] memory) {\n        uint256 length = _poolWhitelist.length();\n        address[] memory list = new address[](length);\n        for (uint256 i = 0; i < length; i++) {\n            list[i] = _poolWhitelist.at(i);\n        }\n        return list;\n    }\n\n    /**\n     * @dev adds a subscriber\n     * can only be called by the contract owner\n     *\n     * @param subscriber    subscriber address\n     */\n    function addSubscriber(ILiquidityProtectionEventsSubscriber subscriber)\n        external\n        onlyOwner\n        validAddress(address(subscriber))\n        notThis(address(subscriber))\n    {\n        require(_subscribers.add(address(subscriber)), \"ERR_SUBSCRIBER_ALREADY_SET\");\n\n        emit SubscriberUpdated(subscriber, true);\n    }\n\n    /**\n     * @dev removes a subscriber\n     * can only be called by the contract owner\n     *\n     * @param subscriber    subscriber address\n     */\n    function removeSubscriber(ILiquidityProtectionEventsSubscriber subscriber)\n        external\n        onlyOwner\n        validAddress(address(subscriber))\n        notThis(address(subscriber))\n    {\n        require(_subscribers.remove(address(subscriber)), \"ERR_INVALID_SUBSCRIBER\");\n\n        emit SubscriberUpdated(subscriber, false);\n    }\n\n    /**\n     * @dev returns subscribers list\n     *\n     * @return subscribers list\n     */\n    function subscribers() external view override returns (address[] memory) {\n        uint256 length = _subscribers.length();\n        address[] memory list = new address[](length);\n        for (uint256 i = 0; i < length; i++) {\n            list[i] = _subscribers.at(i);\n        }\n        return list;\n    }\n\n    /**\n     * @dev updates the minimum amount of network token liquidity to allow minting\n     * can only be called by the contract owner\n     *\n     * @param amount   the minimum amount of network token liquidity to allow minting\n     */\n    function setMinNetworkTokenLiquidityForMinting(uint256 amount) external onlyOwner() {\n        emit MinNetworkTokenLiquidityForMintingUpdated(_minNetworkTokenLiquidityForMinting, amount);\n\n        _minNetworkTokenLiquidityForMinting = amount;\n    }\n\n    /**\n     * @dev updates the default amount of network token that the system can mint into each pool\n     * can only be called by the contract owner\n     *\n     * @param amount    the default amount of network token that the system can mint into each pool\n     */\n    function setDefaultNetworkTokenMintingLimit(uint256 amount) external onlyOwner() {\n        emit DefaultNetworkTokenMintingLimitUpdated(_defaultNetworkTokenMintingLimit, amount);\n\n        _defaultNetworkTokenMintingLimit = amount;\n    }\n\n    /**\n     * @dev updates the amount of network tokens that the system can mint into a specific pool\n     * can only be called by the contract owner\n     *\n     * @param poolAnchor    pool anchor\n     * @param amount        the amount of network tokens that the system can mint into a specific pool\n     */\n    function setNetworkTokenMintingLimit(IConverterAnchor poolAnchor, uint256 amount)\n        external\n        onlyOwner()\n        validAddress(address(poolAnchor))\n    {\n        emit NetworkTokenMintingLimitUpdated(poolAnchor, _networkTokenMintingLimits[poolAnchor], amount);\n\n        _networkTokenMintingLimits[poolAnchor] = amount;\n    }\n\n    /**\n     * @dev updates the protection delays\n     * can only be called by the contract owner\n     *\n     * @param minDelay   seconds until the protection starts\n     * @param maxDelay   seconds until full protection\n     */\n    function setProtectionDelays(uint256 minDelay, uint256 maxDelay) external onlyOwner() {\n        require(minDelay < maxDelay, \"ERR_INVALID_PROTECTION_DELAY\");\n\n        emit ProtectionDelaysUpdated(_minProtectionDelay, minDelay, _maxProtectionDelay, maxDelay);\n\n        _minProtectionDelay = minDelay;\n        _maxProtectionDelay = maxDelay;\n    }\n\n    /**\n     * @dev updates the minimum amount of network token compensation\n     * can only be called by the contract owner\n     *\n     * @param amount    the minimum amount of network token compensation\n     */\n    function setMinNetworkCompensation(uint256 amount) external onlyOwner() {\n        emit MinNetworkCompensationUpdated(_minNetworkCompensation, amount);\n\n        _minNetworkCompensation = amount;\n    }\n\n    /**\n     * @dev updates the network token lock duration\n     * can only be called by the contract owner\n     *\n     * @param duration  network token lock duration, in seconds\n     */\n    function setLockDuration(uint256 duration) external onlyOwner() {\n        emit LockDurationUpdated(_lockDuration, duration);\n\n        _lockDuration = duration;\n    }\n\n    /**\n     * @dev sets the maximum deviation of the average rate from the spot rate\n     * can only be called by the contract owner\n     *\n     * @param deviation maximum deviation of the average rate from the spot rate\n     */\n    function setAverageRateMaxDeviation(uint32 deviation) external onlyOwner() validPortion(deviation) {\n        emit AverageRateMaxDeviationUpdated(_averageRateMaxDeviation, deviation);\n\n        _averageRateMaxDeviation = deviation;\n    }\n\n    /**\n     * @dev disables or enables adding liquidity for a given reserve on a given pool\n     * can only be called by the contract owner\n     *\n     * @param poolAnchor    pool anchor\n     * @param reserveToken  reserve token\n     * @param disable       true to disable, false otherwise\n     */\n    function disableAddLiquidity(\n        IConverterAnchor poolAnchor,\n        IERC20 reserveToken,\n        bool disable\n    ) external onlyOwner() {\n        emit AddLiquidityDisabled(poolAnchor, reserveToken, disable);\n\n        _addLiquidityDisabled[poolAnchor][reserveToken] = disable;\n    }\n\n    /**\n     * @dev checks if protection is supported for the given pool\n     * only standard pools are supported (2 reserves, 50%/50% weights)\n     * note that the pool should still be whitelisted\n     *\n     * @param poolAnchor    anchor of the pool\n     * @return true if the pool is supported, false otherwise\n     */\n    function isPoolSupported(IConverterAnchor poolAnchor) external view override returns (bool) {\n        IERC20 tmpNetworkToken = _networkToken;\n\n        // verify that the pool exists in the registry\n        IConverterRegistry converterRegistry = IConverterRegistry(addressOf(CONVERTER_REGISTRY));\n        require(converterRegistry.isAnchor(address(poolAnchor)), \"ERR_INVALID_ANCHOR\");\n\n        // get the converter\n        IConverter converter = IConverter(payable(poolAnchor.owner()));\n\n        // verify that the converter has 2 reserves\n        if (converter.connectorTokenCount() != 2) {\n            return false;\n        }\n\n        // verify that one of the reserves is the network token\n        IERC20 reserve0Token = converter.connectorTokens(0);\n        IERC20 reserve1Token = converter.connectorTokens(1);\n        if (reserve0Token != tmpNetworkToken && reserve1Token != tmpNetworkToken) {\n            return false;\n        }\n\n        // verify that the reserve weights are exactly 50%/50%\n        if (\n            converterReserveWeight(converter, reserve0Token) != PPM_RESOLUTION / 2 ||\n            converterReserveWeight(converter, reserve1Token) != PPM_RESOLUTION / 2\n        ) {\n            return false;\n        }\n\n        return true;\n    }\n\n    // utility to get the reserve weight (including from older converters that don't support the new converterReserveWeight function)\n    function converterReserveWeight(IConverter converter, IERC20 reserveToken) private view returns (uint32) {\n        (, uint32 weight, , , ) = converter.connectors(reserveToken);\n        return weight;\n    }\n}\n",
  "sourcePath": "/Users/dennismacpro/Projects/Defi/Ethereum-Solidity-Collection/icarus-protocol/defi-seeder/.tmp/bancor/contracts-solidity/solidity/contracts/liquidity-protection/LiquidityProtectionSettings.sol",
  "compiler": {
    "name": "solc",
    "version": "0.6.12+commit.27d51765.Emscripten.clang"
  },
  "schemaVersion": "3.3.3",
  "updatedAt": "2021-04-01T18:17:52.139Z",
  "devdoc": {
    "details": "Liquidity Protection Settings contract",
    "events": {
      "AddLiquidityDisabled(address,address,bool)": {
        "details": "triggered when adding liquidity is disabled or enabled for a given reserve on a given pool",
        "params": {
          "disabled": "true if disabled, false otherwise",
          "poolAnchor": "pool anchor",
          "reserveToken": "reserve token"
        }
      },
      "AverageRateMaxDeviationUpdated(uint32,uint32)": {
        "details": "triggered when the maximum deviation of the average rate from the spot rate is updated",
        "params": {
          "newAverageRateMaxDeviation": "new maximum deviation of the average rate from the spot rate",
          "prevAverageRateMaxDeviation": "previous maximum deviation of the average rate from the spot rate"
        }
      },
      "DefaultNetworkTokenMintingLimitUpdated(uint256,uint256)": {
        "details": "triggered when the default network token minting limit is updated",
        "params": {
          "newDefault": "new default network token minting limit",
          "prevDefault": "previous default network token minting limit"
        }
      },
      "LockDurationUpdated(uint256,uint256)": {
        "details": "triggered when the network token lock duration is updated",
        "params": {
          "newLockDuration": "new network token lock duration, in seconds",
          "prevLockDuration": "previous network token lock duration, in seconds"
        }
      },
      "MinNetworkCompensationUpdated(uint256,uint256)": {
        "details": "triggered when the minimum network token compensation is updated",
        "params": {
          "newMinNetworkCompensation": "new minimum network token compensation",
          "prevMinNetworkCompensation": "previous minimum network token compensation"
        }
      },
      "MinNetworkTokenLiquidityForMintingUpdated(uint256,uint256)": {
        "details": "triggered when the minimum amount of network token liquidity to allow minting is updated",
        "params": {
          "newMin": "new minimum amount of network token liquidity for minting",
          "prevMin": "previous minimum amount of network token liquidity for minting"
        }
      },
      "NetworkTokenMintingLimitUpdated(address,uint256,uint256)": {
        "details": "triggered when a pool network token minting limit is updated",
        "params": {
          "newLimit": "new limit",
          "poolAnchor": "pool anchor",
          "prevLimit": "previous limit"
        }
      },
      "PoolWhitelistUpdated(address,bool)": {
        "details": "triggered when the pool whitelist is updated",
        "params": {
          "added": "true if the pool was added to the whitelist, false if it was removed",
          "poolAnchor": "pool anchor"
        }
      },
      "ProtectionDelaysUpdated(uint256,uint256,uint256,uint256)": {
        "details": "triggered when the protection delays are updated",
        "params": {
          "newMaxProtectionDelay": "new seconds until full protection",
          "newMinProtectionDelay": "new seconds until the protection starts",
          "prevMaxProtectionDelay": "previous seconds until full protection",
          "prevMinProtectionDelay": "previous seconds until the protection starts"
        }
      },
      "SubscriberUpdated(address,bool)": {
        "details": "triggered when a subscriber is added or removed",
        "params": {
          "added": "true if the subscriber was added, false if it was removed",
          "subscriber": "subscriber"
        }
      }
    },
    "kind": "dev",
    "methods": {
      "acceptOwnership()": {
        "details": "used by a new owner to accept an ownership transfer"
      },
      "addLiquidityDisabled(address,address)": {
        "details": "returns the permission of adding liquidity for a given reserve on a given pool",
        "params": {
          "poolAnchor": "pool anchor",
          "reserveToken": "reserve token"
        },
        "returns": {
          "_0": "true if adding liquidity is disabled, false otherwise"
        }
      },
      "addPoolToWhitelist(address)": {
        "details": "adds a pool to the whitelist can only be called by the contract owner",
        "params": {
          "poolAnchor": "pool anchor"
        }
      },
      "addSubscriber(address)": {
        "details": "adds a subscriber can only be called by the contract owner",
        "params": {
          "subscriber": "subscriber address"
        }
      },
      "averageRateMaxDeviation()": {
        "details": "returns the maximum deviation of the average rate from the spot rate",
        "returns": {
          "_0": "the maximum deviation of the average rate from the spot rate"
        }
      },
      "constructor": {
        "details": "initializes a new LiquidityProtectionSettings contract",
        "params": {
          "registry": "contract registry",
          "token": "the network token"
        }
      },
      "defaultNetworkTokenMintingLimit()": {
        "details": "returns the default network token minting limit",
        "returns": {
          "_0": "the default network token minting limit"
        }
      },
      "disableAddLiquidity(address,address,bool)": {
        "details": "disables or enables adding liquidity for a given reserve on a given pool can only be called by the contract owner",
        "params": {
          "disable": "true to disable, false otherwise",
          "poolAnchor": "pool anchor",
          "reserveToken": "reserve token"
        }
      },
      "getRoleAdmin(bytes32)": {
        "details": "Returns the admin role that controls `role`. See {grantRole} and {revokeRole}. To change a role's admin, use {_setRoleAdmin}."
      },
      "getRoleMember(bytes32,uint256)": {
        "details": "Returns one of the accounts that have `role`. `index` must be a value between 0 and {getRoleMemberCount}, non-inclusive. Role bearers are not sorted in any particular way, and their ordering may change at any point. WARNING: When using {getRoleMember} and {getRoleMemberCount}, make sure you perform all queries on the same block. See the following https://forum.openzeppelin.com/t/iterating-over-elements-on-enumerableset-in-openzeppelin-contracts/2296[forum post] for more information."
      },
      "getRoleMemberCount(bytes32)": {
        "details": "Returns the number of accounts that have `role`. Can be used together with {getRoleMember} to enumerate all bearers of a role."
      },
      "grantRole(bytes32,address)": {
        "details": "Grants `role` to `account`. If `account` had not been already granted `role`, emits a {RoleGranted} event. Requirements: - the caller must have ``role``'s admin role."
      },
      "hasRole(bytes32,address)": {
        "details": "Returns `true` if `account` has been granted `role`."
      },
      "isPoolSupported(address)": {
        "details": "checks if protection is supported for the given pool only standard pools are supported (2 reserves, 50%/50% weights) note that the pool should still be whitelisted",
        "params": {
          "poolAnchor": "anchor of the pool"
        },
        "returns": {
          "_0": "true if the pool is supported, false otherwise"
        }
      },
      "isPoolWhitelisted(address)": {
        "details": "checks whether a given pool is whitelisted",
        "params": {
          "poolAnchor": "pool anchor"
        },
        "returns": {
          "_0": "true if the given pool is whitelisted, false otherwise"
        }
      },
      "lockDuration()": {
        "details": "returns the number of seconds from liquidation to full network token release",
        "returns": {
          "_0": "the number of seconds from liquidation to full network token release"
        }
      },
      "maxProtectionDelay()": {
        "details": "returns the maximum number of seconds until full protection is in effect",
        "returns": {
          "_0": "the maximum number of seconds until full protection is in effect"
        }
      },
      "minNetworkCompensation()": {
        "details": "returns the minimum amount of network tokens that the system can mint as compensation for base token losses",
        "returns": {
          "_0": "the minimum amount of network tokens that the system can mint as compensation for base token losses"
        }
      },
      "minNetworkTokenLiquidityForMinting()": {
        "details": "returns the minimum network token liquidity for minting",
        "returns": {
          "_0": "the minimum network token liquidity for minting"
        }
      },
      "minProtectionDelay()": {
        "details": "returns the minimum number of seconds until any protection is in effect",
        "returns": {
          "_0": "the minimum number of seconds until any protection is in effect"
        }
      },
      "networkToken()": {
        "details": "returns the network token",
        "returns": {
          "_0": "the network token"
        }
      },
      "networkTokenMintingLimits(address)": {
        "details": "returns the network token minting limit for a given pool",
        "params": {
          "poolAnchor": "pool anchor"
        },
        "returns": {
          "_0": "the network token minting limit for a given pool"
        }
      },
      "poolWhitelist()": {
        "details": "returns pools whitelist",
        "returns": {
          "_0": "pools whitelist"
        }
      },
      "removePoolFromWhitelist(address)": {
        "details": "removes a pool from the whitelist can only be called by the contract owner",
        "params": {
          "poolAnchor": "pool anchor"
        }
      },
      "removeSubscriber(address)": {
        "details": "removes a subscriber can only be called by the contract owner",
        "params": {
          "subscriber": "subscriber address"
        }
      },
      "renounceRole(bytes32,address)": {
        "details": "Revokes `role` from the calling account. Roles are often managed via {grantRole} and {revokeRole}: this function's purpose is to provide a mechanism for accounts to lose their privileges if they are compromised (such as when a trusted device is misplaced). If the calling account had been granted `role`, emits a {RoleRevoked} event. Requirements: - the caller must be `account`."
      },
      "restoreRegistry()": {
        "details": "restores the previous contract-registry"
      },
      "restrictRegistryUpdate(bool)": {
        "details": "restricts the permission to update the contract-registry",
        "params": {
          "_onlyOwnerCanUpdateRegistry": "indicates whether or not permission is restricted to owner only"
        }
      },
      "revokeRole(bytes32,address)": {
        "details": "Revokes `role` from `account`. If `account` had been granted `role`, emits a {RoleRevoked} event. Requirements: - the caller must have ``role``'s admin role."
      },
      "setAverageRateMaxDeviation(uint32)": {
        "details": "sets the maximum deviation of the average rate from the spot rate can only be called by the contract owner",
        "params": {
          "deviation": "maximum deviation of the average rate from the spot rate"
        }
      },
      "setDefaultNetworkTokenMintingLimit(uint256)": {
        "details": "updates the default amount of network token that the system can mint into each pool can only be called by the contract owner",
        "params": {
          "amount": "the default amount of network token that the system can mint into each pool"
        }
      },
      "setLockDuration(uint256)": {
        "details": "updates the network token lock duration can only be called by the contract owner",
        "params": {
          "duration": "network token lock duration, in seconds"
        }
      },
      "setMinNetworkCompensation(uint256)": {
        "details": "updates the minimum amount of network token compensation can only be called by the contract owner",
        "params": {
          "amount": "the minimum amount of network token compensation"
        }
      },
      "setMinNetworkTokenLiquidityForMinting(uint256)": {
        "details": "updates the minimum amount of network token liquidity to allow minting can only be called by the contract owner",
        "params": {
          "amount": "the minimum amount of network token liquidity to allow minting"
        }
      },
      "setNetworkTokenMintingLimit(address,uint256)": {
        "details": "updates the amount of network tokens that the system can mint into a specific pool can only be called by the contract owner",
        "params": {
          "amount": "the amount of network tokens that the system can mint into a specific pool",
          "poolAnchor": "pool anchor"
        }
      },
      "setProtectionDelays(uint256,uint256)": {
        "details": "updates the protection delays can only be called by the contract owner",
        "params": {
          "maxDelay": "seconds until full protection",
          "minDelay": "seconds until the protection starts"
        }
      },
      "subscribers()": {
        "details": "returns subscribers list",
        "returns": {
          "_0": "subscribers list"
        }
      },
      "transferOwnership(address)": {
        "details": "allows transferring the contract ownership the new owner still needs to accept the transfer can only be called by the contract owner",
        "params": {
          "_newOwner": "new contract owner"
        }
      },
      "updateRegistry()": {
        "details": "updates to the new contract-registry"
      }
    },
    "version": 1
  },
  "userdoc": {
    "kind": "user",
    "methods": {},
    "version": 1
  }
}