{
  "contractName": "LiquidityPoolV1Converter",
  "abi": [
    {
      "inputs": [
        {
          "internalType": "contract IDSToken",
          "name": "_token",
          "type": "address"
        },
        {
          "internalType": "contract IContractRegistry",
          "name": "_registry",
          "type": "address"
        },
        {
          "internalType": "uint32",
          "name": "_maxConversionFee",
          "type": "uint32"
        }
      ],
      "stateMutability": "nonpayable",
      "type": "constructor"
    },
    {
      "anonymous": false,
      "inputs": [
        {
          "indexed": true,
          "internalType": "uint16",
          "name": "_type",
          "type": "uint16"
        },
        {
          "indexed": true,
          "internalType": "contract IConverterAnchor",
          "name": "_anchor",
          "type": "address"
        },
        {
          "indexed": true,
          "internalType": "bool",
          "name": "_activated",
          "type": "bool"
        }
      ],
      "name": "Activation",
      "type": "event"
    },
    {
      "anonymous": false,
      "inputs": [
        {
          "indexed": true,
          "internalType": "contract IERC20",
          "name": "_fromToken",
          "type": "address"
        },
        {
          "indexed": true,
          "internalType": "contract IERC20",
          "name": "_toToken",
          "type": "address"
        },
        {
          "indexed": true,
          "internalType": "address",
          "name": "_trader",
          "type": "address"
        },
        {
          "indexed": false,
          "internalType": "uint256",
          "name": "_amount",
          "type": "uint256"
        },
        {
          "indexed": false,
          "internalType": "uint256",
          "name": "_return",
          "type": "uint256"
        },
        {
          "indexed": false,
          "internalType": "int256",
          "name": "_conversionFee",
          "type": "int256"
        }
      ],
      "name": "Conversion",
      "type": "event"
    },
    {
      "anonymous": false,
      "inputs": [
        {
          "indexed": false,
          "internalType": "uint32",
          "name": "_prevFee",
          "type": "uint32"
        },
        {
          "indexed": false,
          "internalType": "uint32",
          "name": "_newFee",
          "type": "uint32"
        }
      ],
      "name": "ConversionFeeUpdate",
      "type": "event"
    },
    {
      "anonymous": false,
      "inputs": [
        {
          "indexed": true,
          "internalType": "address",
          "name": "_provider",
          "type": "address"
        },
        {
          "indexed": true,
          "internalType": "contract IERC20",
          "name": "_reserveToken",
          "type": "address"
        },
        {
          "indexed": false,
          "internalType": "uint256",
          "name": "_amount",
          "type": "uint256"
        },
        {
          "indexed": false,
          "internalType": "uint256",
          "name": "_newBalance",
          "type": "uint256"
        },
        {
          "indexed": false,
          "internalType": "uint256",
          "name": "_newSupply",
          "type": "uint256"
        }
      ],
      "name": "LiquidityAdded",
      "type": "event"
    },
    {
      "anonymous": false,
      "inputs": [
        {
          "indexed": true,
          "internalType": "address",
          "name": "_provider",
          "type": "address"
        },
        {
          "indexed": true,
          "internalType": "contract IERC20",
          "name": "_reserveToken",
          "type": "address"
        },
        {
          "indexed": false,
          "internalType": "uint256",
          "name": "_amount",
          "type": "uint256"
        },
        {
          "indexed": false,
          "internalType": "uint256",
          "name": "_newBalance",
          "type": "uint256"
        },
        {
          "indexed": false,
          "internalType": "uint256",
          "name": "_newSupply",
          "type": "uint256"
        }
      ],
      "name": "LiquidityRemoved",
      "type": "event"
    },
    {
      "anonymous": false,
      "inputs": [
        {
          "indexed": true,
          "internalType": "address",
          "name": "_prevOwner",
          "type": "address"
        },
        {
          "indexed": true,
          "internalType": "address",
          "name": "_newOwner",
          "type": "address"
        }
      ],
      "name": "OwnerUpdate",
      "type": "event"
    },
    {
      "anonymous": false,
      "inputs": [
        {
          "indexed": true,
          "internalType": "contract IERC20",
          "name": "_token1",
          "type": "address"
        },
        {
          "indexed": true,
          "internalType": "contract IERC20",
          "name": "_token2",
          "type": "address"
        },
        {
          "indexed": false,
          "internalType": "uint256",
          "name": "_rateN",
          "type": "uint256"
        },
        {
          "indexed": false,
          "internalType": "uint256",
          "name": "_rateD",
          "type": "uint256"
        }
      ],
      "name": "TokenRateUpdate",
      "type": "event"
    },
    {
      "inputs": [],
      "name": "acceptOwnership",
      "outputs": [],
      "stateMutability": "nonpayable",
      "type": "function"
    },
    {
      "inputs": [],
      "name": "acceptTokenOwnership",
      "outputs": [],
      "stateMutability": "nonpayable",
      "type": "function"
    },
    {
      "inputs": [],
      "name": "anchor",
      "outputs": [
        {
          "internalType": "contract IConverterAnchor",
          "name": "",
          "type": "address"
        }
      ],
      "stateMutability": "view",
      "type": "function"
    },
    {
      "inputs": [],
      "name": "connectorTokenCount",
      "outputs": [
        {
          "internalType": "uint16",
          "name": "",
          "type": "uint16"
        }
      ],
      "stateMutability": "view",
      "type": "function"
    },
    {
      "inputs": [
        {
          "internalType": "uint256",
          "name": "_index",
          "type": "uint256"
        }
      ],
      "name": "connectorTokens",
      "outputs": [
        {
          "internalType": "contract IERC20",
          "name": "",
          "type": "address"
        }
      ],
      "stateMutability": "view",
      "type": "function"
    },
    {
      "inputs": [
        {
          "internalType": "contract IERC20",
          "name": "_address",
          "type": "address"
        }
      ],
      "name": "connectors",
      "outputs": [
        {
          "internalType": "uint256",
          "name": "",
          "type": "uint256"
        },
        {
          "internalType": "uint32",
          "name": "",
          "type": "uint32"
        },
        {
          "internalType": "bool",
          "name": "",
          "type": "bool"
        },
        {
          "internalType": "bool",
          "name": "",
          "type": "bool"
        },
        {
          "internalType": "bool",
          "name": "",
          "type": "bool"
        }
      ],
      "stateMutability": "view",
      "type": "function"
    },
    {
      "inputs": [],
      "name": "conversionFee",
      "outputs": [
        {
          "internalType": "uint32",
          "name": "",
          "type": "uint32"
        }
      ],
      "stateMutability": "view",
      "type": "function"
    },
    {
      "inputs": [],
      "name": "conversionWhitelist",
      "outputs": [
        {
          "internalType": "contract IWhitelist",
          "name": "",
          "type": "address"
        }
      ],
      "stateMutability": "view",
      "type": "function"
    },
    {
      "inputs": [
        {
          "internalType": "contract IERC20",
          "name": "_sourceToken",
          "type": "address"
        },
        {
          "internalType": "contract IERC20",
          "name": "_targetToken",
          "type": "address"
        },
        {
          "internalType": "uint256",
          "name": "_amount",
          "type": "uint256"
        },
        {
          "internalType": "address",
          "name": "_trader",
          "type": "address"
        },
        {
          "internalType": "address payable",
          "name": "_beneficiary",
          "type": "address"
        }
      ],
      "name": "convert",
      "outputs": [
        {
          "internalType": "uint256",
          "name": "",
          "type": "uint256"
        }
      ],
      "stateMutability": "payable",
      "type": "function"
    },
    {
      "inputs": [
        {
          "internalType": "contract IERC20",
          "name": "_connectorToken",
          "type": "address"
        }
      ],
      "name": "getConnectorBalance",
      "outputs": [
        {
          "internalType": "uint256",
          "name": "",
          "type": "uint256"
        }
      ],
      "stateMutability": "view",
      "type": "function"
    },
    {
      "inputs": [
        {
          "internalType": "contract IERC20",
          "name": "_sourceToken",
          "type": "address"
        },
        {
          "internalType": "contract IERC20",
          "name": "_targetToken",
          "type": "address"
        },
        {
          "internalType": "uint256",
          "name": "_amount",
          "type": "uint256"
        }
      ],
      "name": "getReturn",
      "outputs": [
        {
          "internalType": "uint256",
          "name": "",
          "type": "uint256"
        },
        {
          "internalType": "uint256",
          "name": "",
          "type": "uint256"
        }
      ],
      "stateMutability": "view",
      "type": "function"
    },
    {
      "inputs": [],
      "name": "isActive",
      "outputs": [
        {
          "internalType": "bool",
          "name": "",
          "type": "bool"
        }
      ],
      "stateMutability": "view",
      "type": "function"
    },
    {
      "inputs": [],
      "name": "isStandardPool",
      "outputs": [
        {
          "internalType": "bool",
          "name": "",
          "type": "bool"
        }
      ],
      "stateMutability": "view",
      "type": "function"
    },
    {
      "inputs": [],
      "name": "isV28OrHigher",
      "outputs": [
        {
          "internalType": "bool",
          "name": "",
          "type": "bool"
        }
      ],
      "stateMutability": "pure",
      "type": "function"
    },
    {
      "inputs": [],
      "name": "maxConversionFee",
      "outputs": [
        {
          "internalType": "uint32",
          "name": "",
          "type": "uint32"
        }
      ],
      "stateMutability": "view",
      "type": "function"
    },
    {
      "inputs": [],
      "name": "newOwner",
      "outputs": [
        {
          "internalType": "address",
          "name": "",
          "type": "address"
        }
      ],
      "stateMutability": "view",
      "type": "function"
    },
    {
      "inputs": [],
      "name": "onlyOwnerCanUpdateRegistry",
      "outputs": [
        {
          "internalType": "bool",
          "name": "",
          "type": "bool"
        }
      ],
      "stateMutability": "view",
      "type": "function"
    },
    {
      "inputs": [],
      "name": "owner",
      "outputs": [
        {
          "internalType": "address",
          "name": "",
          "type": "address"
        }
      ],
      "stateMutability": "view",
      "type": "function"
    },
    {
      "inputs": [],
      "name": "prevAverageRate",
      "outputs": [
        {
          "internalType": "uint256",
          "name": "n",
          "type": "uint256"
        },
        {
          "internalType": "uint256",
          "name": "d",
          "type": "uint256"
        }
      ],
      "stateMutability": "view",
      "type": "function"
    },
    {
      "inputs": [],
      "name": "prevAverageRateUpdateTime",
      "outputs": [
        {
          "internalType": "uint256",
          "name": "",
          "type": "uint256"
        }
      ],
      "stateMutability": "view",
      "type": "function"
    },
    {
      "inputs": [],
      "name": "prevRegistry",
      "outputs": [
        {
          "internalType": "contract IContractRegistry",
          "name": "",
          "type": "address"
        }
      ],
      "stateMutability": "view",
      "type": "function"
    },
    {
      "inputs": [],
      "name": "registry",
      "outputs": [
        {
          "internalType": "contract IContractRegistry",
          "name": "",
          "type": "address"
        }
      ],
      "stateMutability": "view",
      "type": "function"
    },
    {
      "inputs": [
        {
          "internalType": "contract IERC20",
          "name": "_reserveToken",
          "type": "address"
        }
      ],
      "name": "reserveBalance",
      "outputs": [
        {
          "internalType": "uint256",
          "name": "",
          "type": "uint256"
        }
      ],
      "stateMutability": "view",
      "type": "function"
    },
    {
      "inputs": [],
      "name": "reserveRatio",
      "outputs": [
        {
          "internalType": "uint32",
          "name": "",
          "type": "uint32"
        }
      ],
      "stateMutability": "view",
      "type": "function"
    },
    {
      "inputs": [],
      "name": "reserveTokenCount",
      "outputs": [
        {
          "internalType": "uint16",
          "name": "",
          "type": "uint16"
        }
      ],
      "stateMutability": "view",
      "type": "function"
    },
    {
      "inputs": [
        {
          "internalType": "uint256",
          "name": "",
          "type": "uint256"
        }
      ],
      "name": "reserveTokens",
      "outputs": [
        {
          "internalType": "contract IERC20",
          "name": "",
          "type": "address"
        }
      ],
      "stateMutability": "view",
      "type": "function"
    },
    {
      "inputs": [
        {
          "internalType": "contract IERC20",
          "name": "_reserveToken",
          "type": "address"
        }
      ],
      "name": "reserveWeight",
      "outputs": [
        {
          "internalType": "uint32",
          "name": "",
          "type": "uint32"
        }
      ],
      "stateMutability": "view",
      "type": "function"
    },
    {
      "inputs": [
        {
          "internalType": "contract IERC20",
          "name": "",
          "type": "address"
        }
      ],
      "name": "reserves",
      "outputs": [
        {
          "internalType": "uint256",
          "name": "balance",
          "type": "uint256"
        },
        {
          "internalType": "uint32",
          "name": "weight",
          "type": "uint32"
        },
        {
          "internalType": "bool",
          "name": "deprecated1",
          "type": "bool"
        },
        {
          "internalType": "bool",
          "name": "deprecated2",
          "type": "bool"
        },
        {
          "internalType": "bool",
          "name": "isSet",
          "type": "bool"
        }
      ],
      "stateMutability": "view",
      "type": "function"
    },
    {
      "inputs": [],
      "name": "restoreRegistry",
      "outputs": [],
      "stateMutability": "nonpayable",
      "type": "function"
    },
    {
      "inputs": [
        {
          "internalType": "bool",
          "name": "_onlyOwnerCanUpdateRegistry",
          "type": "bool"
        }
      ],
      "name": "restrictRegistryUpdate",
      "outputs": [],
      "stateMutability": "nonpayable",
      "type": "function"
    },
    {
      "inputs": [
        {
          "internalType": "uint32",
          "name": "_conversionFee",
          "type": "uint32"
        }
      ],
      "name": "setConversionFee",
      "outputs": [],
      "stateMutability": "nonpayable",
      "type": "function"
    },
    {
      "inputs": [
        {
          "internalType": "contract IWhitelist",
          "name": "_whitelist",
          "type": "address"
        }
      ],
      "name": "setConversionWhitelist",
      "outputs": [],
      "stateMutability": "nonpayable",
      "type": "function"
    },
    {
      "inputs": [],
      "name": "token",
      "outputs": [
        {
          "internalType": "contract IConverterAnchor",
          "name": "",
          "type": "address"
        }
      ],
      "stateMutability": "view",
      "type": "function"
    },
    {
      "inputs": [
        {
          "internalType": "address",
          "name": "_newOwner",
          "type": "address"
        }
      ],
      "name": "transferAnchorOwnership",
      "outputs": [],
      "stateMutability": "nonpayable",
      "type": "function"
    },
    {
      "inputs": [
        {
          "internalType": "address",
          "name": "_newOwner",
          "type": "address"
        }
      ],
      "name": "transferOwnership",
      "outputs": [],
      "stateMutability": "nonpayable",
      "type": "function"
    },
    {
      "inputs": [
        {
          "internalType": "address",
          "name": "_newOwner",
          "type": "address"
        }
      ],
      "name": "transferTokenOwnership",
      "outputs": [],
      "stateMutability": "nonpayable",
      "type": "function"
    },
    {
      "inputs": [],
      "name": "updateRegistry",
      "outputs": [],
      "stateMutability": "nonpayable",
      "type": "function"
    },
    {
      "inputs": [],
      "name": "upgrade",
      "outputs": [],
      "stateMutability": "nonpayable",
      "type": "function"
    },
    {
      "inputs": [],
      "name": "version",
      "outputs": [
        {
          "internalType": "uint16",
          "name": "",
          "type": "uint16"
        }
      ],
      "stateMutability": "view",
      "type": "function"
    },
    {
      "inputs": [
        {
          "internalType": "address payable",
          "name": "_to",
          "type": "address"
        }
      ],
      "name": "withdrawETH",
      "outputs": [],
      "stateMutability": "nonpayable",
      "type": "function"
    },
    {
      "inputs": [
        {
          "internalType": "contract IERC20",
          "name": "_token",
          "type": "address"
        },
        {
          "internalType": "address",
          "name": "_to",
          "type": "address"
        },
        {
          "internalType": "uint256",
          "name": "_amount",
          "type": "uint256"
        }
      ],
      "name": "withdrawTokens",
      "outputs": [],
      "stateMutability": "nonpayable",
      "type": "function"
    },
    {
      "stateMutability": "payable",
      "type": "receive"
    },
    {
      "inputs": [],
      "name": "converterType",
      "outputs": [
        {
          "internalType": "uint16",
          "name": "",
          "type": "uint16"
        }
      ],
      "stateMutability": "pure",
      "type": "function"
    },
    {
      "inputs": [],
      "name": "acceptAnchorOwnership",
      "outputs": [],
      "stateMutability": "nonpayable",
      "type": "function"
    },
    {
      "inputs": [
        {
          "internalType": "contract IERC20",
          "name": "_token",
          "type": "address"
        },
        {
          "internalType": "uint32",
          "name": "_weight",
          "type": "uint32"
        }
      ],
      "name": "addReserve",
      "outputs": [],
      "stateMutability": "nonpayable",
      "type": "function"
    },
    {
      "inputs": [
        {
          "internalType": "contract IERC20",
          "name": "_sourceToken",
          "type": "address"
        },
        {
          "internalType": "contract IERC20",
          "name": "_targetToken",
          "type": "address"
        },
        {
          "internalType": "uint256",
          "name": "_amount",
          "type": "uint256"
        }
      ],
      "name": "targetAmountAndFee",
      "outputs": [
        {
          "internalType": "uint256",
          "name": "",
          "type": "uint256"
        },
        {
          "internalType": "uint256",
          "name": "",
          "type": "uint256"
        }
      ],
      "stateMutability": "view",
      "type": "function"
    },
    {
      "inputs": [
        {
          "internalType": "contract IERC20",
          "name": "_token",
          "type": "address"
        }
      ],
      "name": "recentAverageRate",
      "outputs": [
        {
          "internalType": "uint256",
          "name": "",
          "type": "uint256"
        },
        {
          "internalType": "uint256",
          "name": "",
          "type": "uint256"
        }
      ],
      "stateMutability": "view",
      "type": "function"
    },
    {
      "inputs": [
        {
          "internalType": "contract IERC20[]",
          "name": "_reserveTokens",
          "type": "address[]"
        },
        {
          "internalType": "uint256[]",
          "name": "_reserveAmounts",
          "type": "uint256[]"
        },
        {
          "internalType": "uint256",
          "name": "_minReturn",
          "type": "uint256"
        }
      ],
      "name": "addLiquidity",
      "outputs": [
        {
          "internalType": "uint256",
          "name": "",
          "type": "uint256"
        }
      ],
      "stateMutability": "payable",
      "type": "function"
    },
    {
      "inputs": [
        {
          "internalType": "uint256",
          "name": "_amount",
          "type": "uint256"
        },
        {
          "internalType": "contract IERC20[]",
          "name": "_reserveTokens",
          "type": "address[]"
        },
        {
          "internalType": "uint256[]",
          "name": "_reserveMinReturnAmounts",
          "type": "uint256[]"
        }
      ],
      "name": "removeLiquidity",
      "outputs": [
        {
          "internalType": "uint256[]",
          "name": "",
          "type": "uint256[]"
        }
      ],
      "stateMutability": "nonpayable",
      "type": "function"
    },
    {
      "inputs": [
        {
          "internalType": "uint256",
          "name": "_amount",
          "type": "uint256"
        }
      ],
      "name": "fund",
      "outputs": [
        {
          "internalType": "uint256",
          "name": "",
          "type": "uint256"
        }
      ],
      "stateMutability": "payable",
      "type": "function"
    },
    {
      "inputs": [
        {
          "internalType": "uint256",
          "name": "_amount",
          "type": "uint256"
        }
      ],
      "name": "liquidate",
      "outputs": [
        {
          "internalType": "uint256[]",
          "name": "",
          "type": "uint256[]"
        }
      ],
      "stateMutability": "nonpayable",
      "type": "function"
    },
    {
      "inputs": [
        {
          "internalType": "contract IERC20[]",
          "name": "_reserveTokens",
          "type": "address[]"
        },
        {
          "internalType": "uint256",
          "name": "_reserveTokenIndex",
          "type": "uint256"
        },
        {
          "internalType": "uint256",
          "name": "_reserveAmount",
          "type": "uint256"
        }
      ],
      "name": "addLiquidityCost",
      "outputs": [
        {
          "internalType": "uint256[]",
          "name": "",
          "type": "uint256[]"
        }
      ],
      "stateMutability": "view",
      "type": "function"
    },
    {
      "inputs": [
        {
          "internalType": "contract IERC20",
          "name": "_reserveToken",
          "type": "address"
        },
        {
          "internalType": "uint256",
          "name": "_reserveAmount",
          "type": "uint256"
        }
      ],
      "name": "addLiquidityReturn",
      "outputs": [
        {
          "internalType": "uint256",
          "name": "",
          "type": "uint256"
        }
      ],
      "stateMutability": "view",
      "type": "function"
    },
    {
      "inputs": [
        {
          "internalType": "uint256",
          "name": "_amount",
          "type": "uint256"
        },
        {
          "internalType": "contract IERC20[]",
          "name": "_reserveTokens",
          "type": "address[]"
        }
      ],
      "name": "removeLiquidityReturn",
      "outputs": [
        {
          "internalType": "uint256[]",
          "name": "",
          "type": "uint256[]"
        }
      ],
      "stateMutability": "view",
      "type": "function"
    }
  ],
  "bytecode": "0x60806040526001600455600980546001600160681b03191690553480156200002657600080fd5b506040516200537638038062005376833981810160405260608110156200004c57600080fd5b5080516020820151604090920151600080546001600160a01b03191633179055909190828282828282818062000082816200011c565b50600280546001600160a01b039092166001600160a01b031992831681179091556003805490921617905582620000b9816200011c565b81620000c5816200017b565b5050600580546001600160a01b039094166001600160a01b031990941693909317909255506009805463ffffffff9092166401000000000263ffffffff60201b1990921691909117905550620001da945050505050565b6001600160a01b03811662000178576040805162461bcd60e51b815260206004820152601360248201527f4552525f494e56414c49445f4144445245535300000000000000000000000000604482015290519081900360640190fd5b50565b620f424063ffffffff8216111562000178576040805162461bcd60e51b815260206004820152601a60248201527f4552525f494e56414c49445f434f4e56455253494f4e5f464545000000000000604482015290519081900360640190fd5b61518c80620001ea6000396000f3fe60806040526004361061031e5760003560e01c806371f52bf3116101ab578063cdc91c69116100f7578063d895951211610095578063e8dc12ff1161006f578063e8dc12ff14610e2b578063ecbca55d14610e71578063f2fde38b14610ea1578063fc0c546a14610ed45761033e565b8063d895951214610db0578063dc8de37914610de3578063e2c5246814610e165761033e565b8063d3fb73b4116100d1578063d3fb73b414610d3e578063d4ee1d9014610d53578063d55ec69714610d68578063d66bd52414610d7d5761033e565b8063cdc91c6914610cea578063d031370b14610cff578063d260529c14610d295761033e565b806394c275ad11610164578063b127c0a51161013e578063b127c0a514610b6c578063b4a176d314610ca3578063c45d3d9214610cb8578063ca1d209d14610ccd5761033e565b806394c275ad14610aff5780639b99a8e214610b14578063af94b8d814610b295761033e565b806371f52bf3146108d357806379ba5097146108e85780637b103999146108fd5780637d8916bd1461091257806380d9416d14610a375780638da5cb5b14610aea5761033e565b806338e9f27a1161026a57806354fd4d501161022357806361cd756e116101fd57806361cd756e1461081957806367b6d57c1461082e578063690d8320146108615780636a49d2c4146108945761033e565b806354fd4d50146107ac578063579cd3ca146107c15780635e35359e146107d65761033e565b806338e9f27a146106c05780633e8ff43f146106d5578063415f12401461070157806349d10b641461072b5780634af80f0e146107405780634e40c260146107735761033e565b80631d4db791116102d757806321e6b53d116102b157806321e6b53d1461063a57806322f3e2d41461066d5780632fe8a6ad1461069657806338a5e016146106ab5761033e565b80631d4db791146105845780631e1401f8146105ab5780631f0181bc146106075761033e565b8063024c7ec7146103435780630c7d5cd8146103715780630e53aae91461039f578063154588371461040657806319b640151461050b5780631cfab290146105515761033e565b3661033e5760008051602061510d83398151915261033b81610ee9565b50005b600080fd5b34801561034f57600080fd5b5061036f6004803603602081101561036657600080fd5b50351515610f59565b005b34801561037d57600080fd5b50610386610f7f565b6040805163ffffffff9092168252519081900360200190f35b3480156103ab57600080fd5b506103d2600480360360208110156103c257600080fd5b50356001600160a01b0316610f8b565b6040805195865263ffffffff9094166020860152911515848401521515606084015215156080830152519081900360a00190f35b34801561041257600080fd5b506104bb6004803603604081101561042957600080fd5b81359190810190604081016020820135600160201b81111561044a57600080fd5b82018360208201111561045c57600080fd5b803590602001918460208302840111600160201b8311171561047d57600080fd5b919080806020026020016040519081016040528093929190818152602001838360200280828437600092019190915250929550611022945050505050565b60408051602080825283518183015283519192839290830191858101910280838360005b838110156104f75781810151838201526020016104df565b505050509050019250505060405180910390f35b34801561051757600080fd5b506105356004803603602081101561052e57600080fd5b50356110d6565b604080516001600160a01b039092168252519081900360200190f35b34801561055d57600080fd5b506103866004803603602081101561057457600080fd5b50356001600160a01b0316611100565b34801561059057600080fd5b50610599611132565b60408051918252519081900360200190f35b3480156105b757600080fd5b506105ee600480360360608110156105ce57600080fd5b506001600160a01b03813581169160208101359091169060400135611138565b6040805192835260208301919091528051918290030190f35b34801561061357600080fd5b506105ee6004803603602081101561062a57600080fd5b50356001600160a01b0316611153565b34801561064657600080fd5b5061036f6004803603602081101561065d57600080fd5b50356001600160a01b031661121a565b34801561067957600080fd5b5061068261122b565b604080519115158252519081900360200190f35b3480156106a257600080fd5b506106826112c1565b3480156106b757600080fd5b5061036f6112d1565b3480156106cc57600080fd5b506106826112e3565b3480156106e157600080fd5b506106ea6112f3565b6040805161ffff9092168252519081900360200190f35b34801561070d57600080fd5b506104bb6004803603602081101561072457600080fd5b50356112f8565b34801561073757600080fd5b5061036f611515565b34801561074c57600080fd5b5061036f6004803603602081101561076357600080fd5b50356001600160a01b031661171d565b34801561077f57600080fd5b506105996004803603604081101561079657600080fd5b506001600160a01b038135169060200135611752565b3480156107b857600080fd5b506106ea61189b565b3480156107cd57600080fd5b506103866118a0565b3480156107e257600080fd5b5061036f600480360360608110156107f957600080fd5b506001600160a01b038135811691602081013590911690604001356118b3565b34801561082557600080fd5b506105356119ce565b34801561083a57600080fd5b5061036f6004803603602081101561085157600080fd5b50356001600160a01b03166119dd565b34801561086d57600080fd5b5061036f6004803603602081101561088457600080fd5b50356001600160a01b0316611a73565b3480156108a057600080fd5b5061036f600480360360408110156108b757600080fd5b5080356001600160a01b0316906020013563ffffffff16611b84565b3480156108df57600080fd5b506106ea611c68565b3480156108f457600080fd5b5061036f611c77565b34801561090957600080fd5b50610535611d2e565b6105996004803603606081101561092857600080fd5b810190602081018135600160201b81111561094257600080fd5b82018360208201111561095457600080fd5b803590602001918460208302840111600160201b8311171561097557600080fd5b9190808060200260200160405190810160405280939291908181526020018383602002808284376000920191909152509295949360208101935035915050600160201b8111156109c457600080fd5b8201836020820111156109d657600080fd5b803590602001918460208302840111600160201b831117156109f757600080fd5b9190808060200260200160405190810160405280939291908181526020018383602002808284376000920191909152509295505091359250611d3d915050565b348015610a4357600080fd5b506104bb60048036036060811015610a5a57600080fd5b810190602081018135600160201b811115610a7457600080fd5b820183602082011115610a8657600080fd5b803590602001918460208302840111600160201b83111715610aa757600080fd5b9190808060200260200160405190810160405280939291908181526020018383602002808284376000920191909152509295505082359350505060200135611fe5565b348015610af657600080fd5b50610535612294565b348015610b0b57600080fd5b506103866122a3565b348015610b2057600080fd5b506106ea6122b6565b348015610b3557600080fd5b506105ee60048036036060811015610b4c57600080fd5b506001600160a01b038135811691602081013590911690604001356122bc565b348015610b7857600080fd5b506104bb60048036036060811015610b8f57600080fd5b81359190810190604081016020820135600160201b811115610bb057600080fd5b820183602082011115610bc257600080fd5b803590602001918460208302840111600160201b83111715610be357600080fd5b9190808060200260200160405190810160405280939291908181526020018383602002808284376000920191909152509295949360208101935035915050600160201b811115610c3257600080fd5b820183602082011115610c4457600080fd5b803590602001918460208302840111600160201b83111715610c6557600080fd5b91908080602002602001604051908101604052809392919081815260200183836020028082843760009201919091525092955061245f945050505050565b348015610caf57600080fd5b5061036f61257a565b348015610cc457600080fd5b506105356125a6565b61059960048036036020811015610ce357600080fd5b50356125b5565b348015610cf657600080fd5b5061036f61298b565b348015610d0b57600080fd5b5061053560048036036020811015610d2257600080fd5b50356129e4565b348015610d3557600080fd5b506106826112f3565b348015610d4a57600080fd5b50610535612a0b565b348015610d5f57600080fd5b50610535612a1a565b348015610d7457600080fd5b5061036f612a29565b348015610d8957600080fd5b506103d260048036036020811015610da057600080fd5b50356001600160a01b0316612b11565b348015610dbc57600080fd5b5061059960048036036020811015610dd357600080fd5b50356001600160a01b0316612b53565b348015610def57600080fd5b5061059960048036036020811015610e0657600080fd5b50356001600160a01b0316612b5a565b348015610e2257600080fd5b506105ee612b83565b610599600480360360a0811015610e4157600080fd5b506001600160a01b0381358116916020810135821691604082013591606081013582169160809091013516612b8c565b348015610e7d57600080fd5b5061036f60048036036020811015610e9457600080fd5b503563ffffffff16612d86565b348015610ead57600080fd5b5061036f60048036036020811015610ec457600080fd5b50356001600160a01b0316612e6d565b348015610ee057600080fd5b50610535612eeb565b6001600160a01b038116600090815260086020526040902060010154600160301b900460ff16610f56576040805162461bcd60e51b81526020600482015260136024820152724552525f494e56414c49445f5245534552564560681b604482015290519081900360640190fd5b50565b610f61612efa565b60038054911515600160a01b0260ff60a01b19909216919091179055565b60095463ffffffff1681565b6000806000806000610f9b61505d565b505050506001600160a01b03929092166000908152600860209081526040808320815160a081018352815480825260019092015463ffffffff811694820185905260ff600160201b82048116151594830194909452650100000000008104841615156060830152600160301b90049092161515608090920182905295919450919250829190565b60606000600560009054906101000a90046001600160a01b03166001600160a01b03166318160ddd6040518163ffffffff1660e01b815260040160206040518083038186803b15801561107457600080fd5b505afa158015611088573d6000803e3d6000fd5b505050506040513d602081101561109e57600080fd5b5051905060006110bd6c42616e636f72466f726d756c6160981b612f4d565b90506110cb85858484612fcb565b925050505b92915050565b6000600782815481106110e557fe5b6000918252602090912001546001600160a01b031692915050565b60008161110c81610ee9565b50506001600160a01b031660009081526008602052604090206001015463ffffffff1690565b600c5481565b6000806111468585856122bc565b915091505b935093915050565b6000808261116081610ee9565b600954600160601b900460ff166111b6576040805162461bcd60e51b815260206004820152601560248201527411549497d393d397d4d510539110549117d413d3d3605a1b604482015290519081900360640190fd5b6111be61508b565b6111c6613110565b905060076000815481106111d657fe5b6000918252602090912001546001600160a01b03868116911614156112075780516020909101519093509150611214565b6020810151905190935091505b50915091565b611222612efa565b610f56816119dd565b6000306001600160a01b0316600560009054906101000a90046001600160a01b03166001600160a01b0316638da5cb5b6040518163ffffffff1660e01b815260040160206040518083038186803b15801561128557600080fd5b505afa158015611299573d6000803e3d6000fd5b505050506040513d60208110156112af57600080fd5b50516001600160a01b03161490505b90565b600354600160a01b900460ff1681565b6112d9612efa565b6112e161298b565b565b600954600160601b900460ff1681565b600190565b60606113026132df565b60026004558161134b576040805162461bcd60e51b815260206004820152600f60248201526e11549497d6915493d7d05353d55395608a1b604482015290519081900360640190fd5b600554604080516318160ddd60e01b815290516000926001600160a01b0316916318160ddd916004808301926020929190829003018186803b15801561139057600080fd5b505afa1580156113a4573d6000803e3d6000fd5b505050506040513d60208110156113ba57600080fd5b50516005546040805163a24835d160e01b81523360048201526024810187905290519293506001600160a01b039091169163a24835d19160448082019260009290919082900301818387803b15801561141257600080fd5b505af1158015611426573d6000803e3d6000fd5b505060075460609250905067ffffffffffffffff8111801561144757600080fd5b50604051908082528060200260200182016040528015611471578160200160208202803683370190505b50905060005b81518110156114a157600182828151811061148e57fe5b6020908102919091010152600101611477565b5061150860078054806020026020016040519081016040528092919081815260200182805480156114fb57602002820191906000526020600020905b81546001600160a01b031681526001909101906020018083116114dd575b5050505050828487613327565b6001600455949350505050565b6000546001600160a01b03163314806115385750600354600160a01b900460ff16155b61157d576040805162461bcd60e51b815260206004820152601160248201527011549497d050d0d154d4d7d11153925151607a1b604482015290519081900360640190fd5b600061159b6f436f6e7472616374526567697374727960801b612f4d565b6002549091506001600160a01b038083169116148015906115c457506001600160a01b03811615155b61160c576040805162461bcd60e51b81526020600482015260146024820152734552525f494e56414c49445f524547495354525960601b604482015290519081900360640190fd5b60006001600160a01b0316816001600160a01b031663bb34534c6f436f6e7472616374526567697374727960801b6040518263ffffffff1660e01b81526004018082815260200191505060206040518083038186803b15801561166e57600080fd5b505afa158015611682573d6000803e3d6000fd5b505050506040513d602081101561169857600080fd5b50516001600160a01b031614156116ed576040805162461bcd60e51b81526020600482015260146024820152734552525f494e56414c49445f524547495354525960601b604482015290519081900360640190fd5b60028054600380546001600160a01b038084166001600160a01b0319928316179092559091169216919091179055565b611725612efa565b8061172f8161353b565b50600680546001600160a01b0319166001600160a01b0392909216919091179055565b600080600560009054906101000a90046001600160a01b03166001600160a01b03166318160ddd6040518163ffffffff1660e01b815260040160206040518083038186803b1580156117a357600080fd5b505afa1580156117b7573d6000803e3d6000fd5b505050506040513d60208110156117cd57600080fd5b5051905060006117ec6c42616e636f72466f726d756c6160981b612f4d565b6001600160a01b03868116600090815260086020908152604091829020546009548351632f55bdb560e01b815260048101899052602481019290925263ffffffff16604482015260648101899052915193945091841692632f55bdb592608480840193919291829003018186803b15801561186657600080fd5b505afa15801561187a573d6000803e3d6000fd5b505050506040513d602081101561189057600080fd5b505195945050505050565b602d81565b600954600160401b900463ffffffff1681565b6118bb6132df565b60026004556118c8612efa565b60006118ed762130b731b7b921b7b73b32b93a32b92ab833b930b232b960491b612f4d565b6001600160a01b038516600090815260086020526040902060010154909150600160301b900460ff161580611927575061192561122b565b155b8061193f57506000546001600160a01b038281169116145b611984576040805162461bcd60e51b815260206004820152601160248201527011549497d050d0d154d4d7d11153925151607a1b604482015290519081900360640190fd5b61198f84848461358f565b6001600160a01b038416600090815260086020526040902060010154600160301b900460ff16156119c3576119c3846135c9565b505060016004555050565b6003546001600160a01b031681565b6119e5612efa565b762130b731b7b921b7b73b32b93a32b92ab833b930b232b960491b611a09816136a2565b6005546040805163f2fde38b60e01b81526001600160a01b0385811660048301529151919092169163f2fde38b91602480830192600092919082900301818387803b158015611a5757600080fd5b505af1158015611a6b573d6000803e3d6000fd5b505050505050565b611a7b6132df565b6002600455611a88612efa565b60008051602061510d833981519152611aa081610ee9565b6000611ac5762130b731b7b921b7b73b32b93a32b92ab833b930b232b960491b612f4d565b9050611acf61122b565b1580611ae857506000546001600160a01b038281169116145b611b2d576040805162461bcd60e51b815260206004820152601160248201527011549497d050d0d154d4d7d11153925151607a1b604482015290519081900360640190fd5b6040516001600160a01b038416904780156108fc02916000818181858888f19350505050158015611b62573d6000803e3d6000fd5b50611b7a60008051602061510d8339815191526135c9565b5050600160045550565b611b8c612efa565b611b968282613704565b6007546002148015611bf257506002620f42400463ffffffff16600860006007600081548110611bc257fe5b60009182526020808320909101546001600160a01b0316835282019290925260400190206001015463ffffffff16145b8015611c4857506002620f42400463ffffffff16600860006007600181548110611c1857fe5b60009182526020808320909101546001600160a01b0316835282019290925260400190206001015463ffffffff16145b60098054911515600160601b0260ff60601b199092169190911790555050565b6000611c726122b6565b905090565b6001546001600160a01b03163314611cca576040805162461bcd60e51b815260206004820152601160248201527011549497d050d0d154d4d7d11153925151607a1b604482015290519081900360640190fd5b600154600080546040516001600160a01b0393841693909116917f343765429aea5a34b3ff6a3785a98a5abb2597aca87bfbb58632c173d585373a91a360018054600080546001600160a01b03199081166001600160a01b03841617909155169055565b6002546001600160a01b031681565b6000611d476132df565b6002600455611d54613926565b611d5f84848461396e565b60005b8451811015611e0f5760008051602061510d8339815191526001600160a01b0316858281518110611d8f57fe5b60200260200101516001600160a01b03161415611e075734848281518110611db357fe5b602002602001015114611e07576040805162461bcd60e51b815260206004820152601760248201527608aa4a4be8aa890be829a9eaa9ca8be9a92a69a82a8869604b1b604482015290519081900360640190fd5b600101611d62565b503415611e9f5760008051602061510d83398151915260005260086020527f353c2eb9e53a4a4a6d45d72082ff2e9dc829d1125618772a83eb0e7f86632c4354600160301b900460ff16611e9f576040805162461bcd60e51b81526020600482015260126024820152714552525f4e4f5f4554485f5245534552564560701b604482015290519081900360640190fd5b600554604080516318160ddd60e01b815290516000926001600160a01b0316916318160ddd916004808301926020929190829003018186803b158015611ee457600080fd5b505afa158015611ef8573d6000803e3d6000fd5b505050506040513d6020811015611f0e57600080fd5b505190506000611f1f868684613c02565b905083811015611f6b576040805162461bcd60e51b81526020600482015260126024820152714552525f52455455524e5f544f4f5f4c4f5760701b604482015290519081900360640190fd5b6005546040805163219e412d60e21b81523360048201526024810184905290516001600160a01b039092169163867904b49160448082019260009290919082900301818387803b158015611fbe57600080fd5b505af1158015611fd2573d6000803e3d6000fd5b5050600160045550909695505050505050565b606080845167ffffffffffffffff8111801561200057600080fd5b5060405190808252806020026020018201604052801561202a578160200160208202803683370190505b5090506000600560009054906101000a90046001600160a01b03166001600160a01b03166318160ddd6040518163ffffffff1660e01b815260040160206040518083038186803b15801561207d57600080fd5b505afa158015612091573d6000803e3d6000fd5b505050506040513d60208110156120a757600080fd5b5051905060006120c66c42616e636f72466f726d756c6160981b612f4d565b90506000816001600160a01b0316632f55bdb584600860008c8c815181106120ea57fe5b6020908102919091018101516001600160a01b031682528181019290925260409081016000205460095482516001600160e01b031960e088901b1681526004810195909552602485019190915263ffffffff166044840152606483018b905251608480840193829003018186803b15801561216457600080fd5b505afa158015612178573d6000803e3d6000fd5b505050506040513d602081101561218e57600080fd5b5051905060005b845181101561228557826001600160a01b031663ebbb215885600860008d86815181106121be57fe5b6020908102919091018101516001600160a01b031682528181019290925260409081016000205460095482516001600160e01b031960e088901b1681526004810195909552602485019190915263ffffffff1660448401526064830187905251608480840193829003018186803b15801561223857600080fd5b505afa15801561224c573d6000803e3d6000fd5b505050506040513d602081101561226257600080fd5b5051855186908390811061227257fe5b6020908102919091010152600101612195565b509293505050505b9392505050565b6000546001600160a01b031681565b600954600160201b900463ffffffff1681565b60075490565b6000806122c7613926565b846122d181610ee9565b846122db81610ee9565b856001600160a01b0316876001600160a01b0316141561233b576040805162461bcd60e51b815260206004820152601660248201527511549497d4d0535157d4d3d55490d157d5105491d15560521b604482015290519081900360640190fd5b60006123566c42616e636f72466f726d756c6160981b612f4d565b6001600160a01b03166394491fab61236d8a612b5a565b6001600160a01b038b1660009081526008602052604090206001015463ffffffff166123988b612b5a565b6001600160a01b038c166000908152600860209081526040918290206001015482516001600160e01b031960e089901b168152600481019690965263ffffffff94851660248701526044860193909352929091166064840152608483018b90525160a480840193829003018186803b15801561241357600080fd5b505afa158015612427573d6000803e3d6000fd5b505050506040513d602081101561243d57600080fd5b50519050600061244c82613c2d565b9182900399919850909650505050505050565b60606124696132df565b6002600455612476613926565b61248183838661396e565b600554604080516318160ddd60e01b815290516000926001600160a01b0316916318160ddd916004808301926020929190829003018186803b1580156124c657600080fd5b505afa1580156124da573d6000803e3d6000fd5b505050506040513d60208110156124f057600080fd5b50516005546040805163a24835d160e01b81523360048201526024810189905290519293506001600160a01b039091169163a24835d19160448082019260009290919082900301818387803b15801561254857600080fd5b505af115801561255c573d6000803e3d6000fd5b5050505061256c84848388613327565b600160045595945050505050565b612582612efa565b600354600280546001600160a01b0319166001600160a01b03909216919091179055565b6006546001600160a01b031681565b60006125bf6132df565b60026004556125cc613c62565b60008051602061510d83398151915260005260086020526000805160206150a6833981519152546125fd9034613ca2565b60008051602061510d8339815191526000908152600860209081526000805160206150a683398151915292909255600554604080516318160ddd60e01b8152905192936001600160a01b03909216926318160ddd92600480840193919291829003018186803b15801561266f57600080fd5b505afa158015612683573d6000803e3d6000fd5b505050506040513d602081101561269957600080fd5b5051905060006126b86c42616e636f72466f726d756c6160981b612f4d565b60075490915060005b81811015612911576000600782815481106126d857fe5b60009182526020808320909101546001600160a01b03908116808452600883526040808520546009548251631d77642b60e31b8152600481018d90526024810183905263ffffffff9091166044820152606481018e9052915192965094939289169263ebbb215892608480840193829003018186803b15801561275a57600080fd5b505afa15801561276e573d6000803e3d6000fd5b505050506040513d602081101561278457600080fd5b505190506001600160a01b03831660008051602061510d833981519152141561283557803411156127e45760405133903483900380156108fc02916000818181858888f193505050501580156127de573d6000803e3d6000fd5b50612830565b803414612830576040805162461bcd60e51b81526020600482015260156024820152744552525f494e56414c49445f4554485f56414c554560581b604482015290519081900360640190fd5b61284a565b61284a6001600160a01b038416333084613cff565b60006128568383613d5f565b6001600160a01b038516600090815260086020526040812082905590915061287e898c613d5f565b604080518581526020810185905280820183905290519192506001600160a01b0387169133917f4a1a2a6176e9646d9e3157f7c2ab3c499f18337c0b0828cfb28e0a61de4a11f7919081900360600190a36001600160a01b0385166000908152600860205260409020600101546129009082908790859063ffffffff16613db9565b5050600190930192506126c1915050565b506005546040805163219e412d60e21b81523360048201526024810188905290516001600160a01b039092169163867904b49160448082019260009290919082900301818387803b15801561296557600080fd5b505af1158015612979573d6000803e3d6000fd5b50506001600455509495945050505050565b612993612efa565b61299b613e28565b6005546001906001600160a01b03166129b26112f3565b61ffff167f6b08c2e2c9969e55a647a764db9b554d64dc42f1a704da11a6d5b129ad163f2c60405160405180910390a4565b600781815481106129f157fe5b6000918252602090912001546001600160a01b0316905081565b6005546001600160a01b031681565b6001546001600160a01b031681565b612a31612efa565b6000612a56762130b731b7b921b7b73b32b93a32b92ab833b930b232b960491b612f4d565b6005549091506000906001600160a01b0316612a706112f3565b61ffff167f6b08c2e2c9969e55a647a764db9b554d64dc42f1a704da11a6d5b129ad163f2c60405160405180910390a4612aa981612e6d565b6040805163487ac64b60e11b8152602d600482015290516001600160a01b038316916390f58c9691602480830192600092919082900301818387803b158015612af157600080fd5b505af1158015612b05573d6000803e3d6000fd5b50505050610f56611c77565b6008602052600090815260409020805460019091015463ffffffff81169060ff600160201b8204811691650100000000008104821691600160301b9091041685565b60006110d0825b600081612b6681610ee9565b50506001600160a01b031660009081526008602052604090205490565b600a54600b5482565b6000612b966132df565b60026004556c42616e636f724e6574776f726b60981b612bb5816136a2565b856001600160a01b0316876001600160a01b03161415612c15576040805162461bcd60e51b815260206004820152601660248201527511549497d4d0535157d4d3d55490d157d5105491d15560521b604482015290519081900360640190fd5b6006546001600160a01b03161580612d22575060065460408051633af32abf60e01b81526001600160a01b03878116600483015291519190921691633af32abf916024808301926020929190829003018186803b158015612c7557600080fd5b505afa158015612c89573d6000803e3d6000fd5b505050506040513d6020811015612c9f57600080fd5b50518015612d22575060065460408051633af32abf60e01b81526001600160a01b03868116600483015291519190921691633af32abf916024808301926020929190829003018186803b158015612cf557600080fd5b505afa158015612d09573d6000803e3d6000fd5b505050506040513d6020811015612d1f57600080fd5b50515b612d69576040805162461bcd60e51b815260206004820152601360248201527211549497d393d517d5d2125511531254d51151606a1b604482015290519081900360640190fd5b612d768787878787613e8c565b6001600455979650505050505050565b612d8e612efa565b60095463ffffffff600160201b90910481169082161115612df6576040805162461bcd60e51b815260206004820152601a60248201527f4552525f494e56414c49445f434f4e56455253494f4e5f464545000000000000604482015290519081900360640190fd5b6009546040805163ffffffff600160401b90930483168152918316602083015280517f81cd2ffb37dd237c0e4e2a3de5265fcf9deb43d3e7801e80db9f1ccfba7ee6009281900390910190a16009805463ffffffff909216600160401b026bffffffff000000000000000019909216919091179055565b612e75612efa565b6000546001600160a01b0382811691161415612ec9576040805162461bcd60e51b815260206004820152600e60248201526d22a9292fa9a0a6a2afa7aba722a960911b604482015290519081900360640190fd5b600180546001600160a01b0319166001600160a01b0392909216919091179055565b6005546001600160a01b031690565b6000546001600160a01b031633146112e1576040805162461bcd60e51b815260206004820152601160248201527011549497d050d0d154d4d7d11153925151607a1b604482015290519081900360640190fd5b60025460408051632ecd14d360e21b81526004810184905290516000926001600160a01b03169163bb34534c916024808301926020929190829003018186803b158015612f9957600080fd5b505afa158015612fad573d6000803e3d6000fd5b505050506040513d6020811015612fc357600080fd5b505192915050565b606080845167ffffffffffffffff81118015612fe657600080fd5b50604051908082528060200260200182016040528015613010578160200160208202803683370190505b50905060005b815181101561310657836001600160a01b0316638074590a86600860008a868151811061303f57fe5b6020908102919091018101516001600160a01b031682528181019290925260409081016000205460095482516001600160e01b031960e088901b1681526004810195909552602485019190915263ffffffff166044840152606483018c905251608480840193829003018186803b1580156130b957600080fd5b505afa1580156130cd573d6000803e3d6000fd5b505050506040513d60208110156130e357600080fd5b505182518390839081106130f357fe5b6020908102919091010152600101613016565b5095945050505050565b61311861508b565b6000600c54613125614160565b0390508061314b57505060408051808201909152600a548152600b5460208201526112be565b600060086000600760018154811061315f57fe5b60009182526020808320909101546001600160a01b0316835282019290925260400181205460078054919350600891839190829061319957fe5b60009182526020808320909101546001600160a01b03168352820192909252604001902054905061025883106131e45760408051808201909152918252602082015291506112be9050565b6131ec61508b565b5060408051808201909152600a54808252600b54602083015215801561321457506020810151155b15613235575060408051808201909152918252602082015291506112be9050565b60208101516000906132479085614164565b82519091506000906132599085614164565b9050600061327f61326a8489614164565b613279846102588b9003614164565b90613d5f565b905060006132a66102586132a088886020015161416490919063ffffffff16565b90614164565b90506132c082826c0c9f2c9cd04674edea400000006141bd565b6040805180820190915291825260208201529850505050505050505090565b6001600454146112e1576040805162461bcd60e51b815260206004820152600e60248201526d4552525f5245454e5452414e435960901b604482015290519081900360640190fd5b6060613331613c62565b600061334c6c42616e636f72466f726d756c6160981b612f4d565b9050600061335a8585613ca2565b9050606061336a85898886612fcb565b905060005b885181101561352f57600089828151811061338657fe5b60200260200101519050600083838151811061339e57fe5b602002602001015190508983815181106133b457fe5b6020026020010151811015613409576040805162461bcd60e51b815260206004820152601660248201527511549497d6915493d7d5105491d15517d05353d5539560521b604482015290519081900360640190fd5b6001600160a01b03821660009081526008602052604081205461342c9083613ca2565b6001600160a01b038416600081815260086020526040902082905590915060008051602061510d833981519152141561349257604051339083156108fc029084906000818181858888f1935050505015801561348c573d6000803e3d6000fd5b506134a6565b6134a66001600160a01b0384163384614205565b604080518381526020810183905280820188905290516001600160a01b0385169133917fbc7d19d505c7ec4db83f3b51f19fb98c4c8a99922e7839d1ee608dfbee29501b9181900360600190a36001600160a01b0383166000908152600860205260409020600101546135249087908590849063ffffffff16613db9565b50505060010161336f565b50979650505050505050565b6001600160a01b038116301415610f56576040805162461bcd60e51b815260206004820152601360248201527222a9292fa0a2222922a9a9afa4a9afa9a2a62360691b604482015290519081900360640190fd5b613597612efa565b826135a18161425c565b826135ab8161425c565b836135b58161353b565b611a6b6001600160a01b0387168686614205565b806135d381610ee9565b6001600160a01b03821660008051602061510d8339815191521415613612576001600160a01b038216600090815260086020526040902047905561369e565b604080516370a0823160e01b815230600482015290516001600160a01b038416916370a08231916024808301926020929190829003018186803b15801561365857600080fd5b505afa15801561366c573d6000803e3d6000fd5b505050506040513d602081101561368257600080fd5b50516001600160a01b0383166000908152600860205260409020555b5050565b6136ab81612f4d565b6001600160a01b0316336001600160a01b031614610f56576040805162461bcd60e51b815260206004820152601160248201527011549497d050d0d154d4d7d11153925151607a1b604482015290519081900360640190fd5b61370c612efa565b6137146142ad565b8161371e8161425c565b826137288161353b565b82613732816142f4565b6005546001600160a01b0386811691161480159061377357506001600160a01b038516600090815260086020526040902060010154600160301b900460ff16155b6137ba576040805162461bcd60e51b81526020600482015260136024820152724552525f494e56414c49445f5245534552564560681b604482015290519081900360640190fd5b60095463ffffffff908116620f42400381169085161115613822576040805162461bcd60e51b815260206004820152601a60248201527f4552525f494e56414c49445f524553455256455f574549474854000000000000604482015290519081900360640190fd5b61ffff61382d6122b6565b61ffff161061387f576040805162461bcd60e51b815260206004820152601960248201527811549497d253959053125117d49154d154959157d0d3d55395603a1b604482015290519081900360640190fd5b5050506001600160a01b0390911660008181526008602052604081208181556001908101805466ff0000000000001963ffffffff80881663ffffffff199384161791909116600160301b179092556007805493840181559093527fa66cc928b5edb82af9bd49922954155ab7b0942694bea4ce44661d9a8736c68890910180546001600160a01b031916909317909255600980548084169094019092169216919091179055565b61392e61122b565b6112e1576040805162461bcd60e51b815260206004820152600c60248201526b4552525f494e41435449564560a01b604482015290519081900360640190fd5b6007548351600091829181146139c2576040805162461bcd60e51b81526020600482015260146024820152734552525f494e56414c49445f524553455256455360601b604482015290519081900360640190fd5b84518114613a0d576040805162461bcd60e51b81526020600482015260136024820152724552525f494e56414c49445f414d4f554e545360681b604482015290519081900360640190fd5b600092505b80831015613bbb5760086000878581518110613a2a57fe5b60200260200101516001600160a01b03166001600160a01b0316815260200190815260200160002060010160069054906101000a900460ff16613aaa576040805162461bcd60e51b81526020600482015260136024820152724552525f494e56414c49445f5245534552564560681b604482015290519081900360640190fd5b600091505b80821015613b0c57858281518110613ac357fe5b60200260200101516001600160a01b031660078481548110613ae157fe5b6000918252602090912001546001600160a01b03161415613b0157613b0c565b600190910190613aaf565b808210613b56576040805162461bcd60e51b81526020600482015260136024820152724552525f494e56414c49445f5245534552564560681b604482015290519081900360640190fd5b6000858481518110613b6457fe5b602002602001015111613bb0576040805162461bcd60e51b815260206004820152600f60248201526e11549497d6915493d7d05353d55395608a1b604482015290519081900360640190fd5b600190920191613a12565b60008411611a6b576040805162461bcd60e51b815260206004820152600f60248201526e11549497d6915493d7d05353d55395608a1b604482015290519081900360640190fd5b600081613c1a57613c138484614364565b905061228d565b613c2584848461448c565b949350505050565b600954600090620f424090613c54908490600160401b900463ffffffff9081169061416416565b81613c5b57fe5b0492915050565b60075460005b8181101561369e57613c9a60078281548110613c8057fe5b6000918252602090912001546001600160a01b03166135c9565b600101613c68565b600082821115613cf9576040805162461bcd60e51b815260206004820152601e60248201527f536166654d6174683a207375627472616374696f6e206f766572666c6f770000604482015290519081900360640190fd5b50900390565b604080516001600160a01b0380861660248301528416604482015260648082018490528251808303909101815260849091019091526020810180516001600160e01b03166323b872dd60e01b179052613d599085906147c2565b50505050565b60008282018381101561228d576040805162461bcd60e51b815260206004820152601b60248201527f536166654d6174683a206164646974696f6e206f766572666c6f770000000000604482015290519081900360640190fd5b6005546001600160a01b0380851691167f77f29993cf2c084e726f7e802da0719d6a0ade3e204badc7a3ffd57ecb768c24613df785620f4240614164565b613e0a8863ffffffff8088169061416416565b6040805192835260208301919091528051918290030190a350505050565b6001613e326122b6565b61ffff1611613e84576040805162461bcd60e51b815260206004820152601960248201527811549497d253959053125117d49154d154959157d0d3d55395603a1b604482015290519081900360640190fd5b6112e1614873565b600954600090600160601b900460ff168015613eb05750613eab614160565b600c54105b15613ed557613ebd613110565b8051600a5560200151600b55613ed1614160565b600c555b600080613ee38888886122bc565b915091508160001415613f36576040805162461bcd60e51b815260206004820152601660248201527511549497d6915493d7d5105491d15517d05353d5539560521b604482015290519081900360640190fd5b613f3f87612b5a565b8210613f4757fe5b6001600160a01b03881660008051602061510d8339815191521415613fb957853414613fb4576040805162461bcd60e51b815260206004820152601760248201527608aa4a4be8aa890be829a9eaa9ca8be9a92a69a82a8869604b1b604482015290519081900360640190fd5b614090565b3415801561404a575085614047613fcf8a612b5a565b604080516370a0823160e01b815230600482015290516001600160a01b038d16916370a08231916024808301926020929190829003018186803b15801561401557600080fd5b505afa158015614029573d6000803e3d6000fd5b505050506040513d602081101561403f57600080fd5b505190613ca2565b10155b614090576040805162461bcd60e51b815260206004820152601260248201527111549497d253959053125117d05353d5539560721b604482015290519081900360640190fd5b614099886135c9565b6001600160a01b0387166000908152600860205260409020546140bc9083613ca2565b6001600160a01b03881660008181526008602052604090209190915560008051602061510d8339815191521415614129576040516001600160a01b0385169083156108fc029084906000818181858888f19350505050158015614123573d6000803e3d6000fd5b5061413d565b61413d6001600160a01b0388168584614205565b61414b888887898686614947565b61415588886149b0565b509695505050505050565b4290565b600082614173575060006110d0565b8282028284828161418057fe5b041461228d5760405162461bcd60e51b81526004018080602001828103825260218152602001806150ec6021913960400191505060405180910390fd5b6000808484848211806141cf57508481115b156141e5576141df828287614b07565b90925090505b8082146141f657909250905061114b565b50600196879650945050505050565b604080516001600160a01b038416602482015260448082018490528251808303909101815260649091019091526020810180516001600160e01b031663a9059cbb60e01b1790526142579084906147c2565b505050565b6001600160a01b038116610f56576040805162461bcd60e51b81526020600482015260136024820152724552525f494e56414c49445f4144445245535360681b604482015290519081900360640190fd5b6142b561122b565b156112e1576040805162461bcd60e51b815260206004820152600a6024820152694552525f41435449564560b01b604482015290519081900360640190fd5b60008163ffffffff161180156143135750620f424063ffffffff821611155b610f56576040805162461bcd60e51b815260206004820152601a60248201527f4552525f494e56414c49445f524553455256455f574549474854000000000000604482015290519081900360640190fd5b60008061437083614b40565b905060005b845181101561448457600085828151811061438c57fe5b6020026020010151905060008583815181106143a457fe5b6020026020010151905060008051602061510d8339815191526001600160a01b0316826001600160a01b0316146143ea576143ea6001600160a01b038316333084613cff565b6001600160a01b0382166000818152600860209081526040918290208490558151848152908101849052808201879052905133917f4a1a2a6176e9646d9e3157f7c2ab3c499f18337c0b0828cfb28e0a61de4a11f7919081900360600190a36001600160a01b03821660009081526008602052604090206001015461447a9085908490849063ffffffff16613db9565b5050600101614375565b509392505050565b6000614496613c62565b60008051602061510d83398151915260005260086020526000805160206150a6833981519152546144c79034613ca2565b60008051602061510d833981519152600090815260086020526000805160206150a68339815191529190915561450c6c42616e636f72466f726d756c6160981b612f4d565b9050600061451c82858888614b92565b9050600061452a8583613d5f565b905060005b87518110156147b657600088828151811061454657fe5b6020908102919091018101516001600160a01b038082166000908152600884526040808220546009548251631d77642b60e31b8152600481018f90526024810183905263ffffffff9091166044820152606481018b90529151949650949193928a169263ebbb215892608480840193919291829003018186803b1580156145cc57600080fd5b505afa1580156145e0573d6000803e3d6000fd5b505050506040513d60208110156145f657600080fd5b5051905080614645576040805162461bcd60e51b815260206004820152601660248201527511549497d6915493d7d5105491d15517d05353d5539560521b604482015290519081900360640190fd5b89848151811061465157fe5b602002602001015181111561466257fe5b6001600160a01b03831660008051602061510d8339815191521461469a576146956001600160a01b038416333084613cff565b614705565b808a85815181106146a757fe5b6020026020010151111561470557336001600160a01b03166108fc828c87815181106146cf57fe5b6020026020010151039081150290604051600060405180830381858888f19350505050158015614703573d6000803e3d6000fd5b505b60006147118383613d5f565b6001600160a01b03851660008181526008602090815260409182902084905581518681529081018490528082018a90529051929350909133917f4a1a2a6176e9646d9e3157f7c2ab3c499f18337c0b0828cfb28e0a61de4a11f7919081900360600190a36001600160a01b0384166000908152600860205260409020600101546147a69087908690849063ffffffff16613db9565b50506001909201915061452f9050565b50909695505050505050565b6060614817826040518060400160405280602081526020017f5361666545524332303a206c6f772d6c6576656c2063616c6c206661696c6564815250856001600160a01b0316614d299092919063ffffffff16565b8051909150156142575780806020019051602081101561483657600080fd5b50516142575760405162461bcd60e51b815260040180806020018281038252602a81526020018061512d602a913960400191505060405180910390fd5b61487b612efa565b60006148856122b6565b61ffff16116148d7576040805162461bcd60e51b815260206004820152601960248201527811549497d253959053125117d49154d154959157d0d3d55395603a1b604482015290519081900360640190fd5b600560009054906101000a90046001600160a01b03166001600160a01b03166379ba50976040518163ffffffff1660e01b8152600401600060405180830381600087803b15801561492757600080fd5b505af115801561493b573d6000803e3d6000fd5b505050506112e1613c62565b600160ff1b811061495457fe5b604080518481526020810184905280820183905290516001600160a01b038087169288821692918a16917f276856b36cbc45526a0ba64f44611557a2a8b68662c5388e9fe6d72e86e1c8cb9181900360600190a4505050505050565b600554604080516318160ddd60e01b815290516000926001600160a01b0316916318160ddd916004808301926020929190829003018186803b1580156149f557600080fd5b505afa158015614a09573d6000803e3d6000fd5b505050506040513d6020811015614a1f57600080fd5b505190506000614a2e84612b5a565b90506000614a3b84612b5a565b6001600160a01b038087166000908152600860205260408082206001908101549389168352908220015492935063ffffffff91821692821691614a82908590859061416416565b90506000614a998663ffffffff8086169061416416565b604080518481526020810183905281519293506001600160a01b03808c1693908d16927f77f29993cf2c084e726f7e802da0719d6a0ade3e204badc7a3ffd57ecb768c24928290030190a3614af0878a8887613db9565b614afc87898786613db9565b505050505050505050565b600080838511614b2557614b1c858585614d38565b9150915061114b565b600080614b33868887614d38565b9890975095505050505050565b80516000908190815b81811015614b7957614b6d858281518110614b6057fe5b6020026020010151614df1565b90920191600101614b49565b506001614b868383614e13565b03600a0a949350505050565b6000806000905060006008600086600081518110614bac57fe5b6020908102919091018101516001600160a01b0316825281019190915260400160002054905060015b8551811015614c6a57600060086000888481518110614bf057fe5b60200260200101516001600160a01b03166001600160a01b03168152602001908152602001600020600001549050614c4481878681518110614c2e57fe5b602002602001015161416490919063ffffffff16565b614c5484888581518110614c2e57fe5b1015614c61578193508092505b50600101614bd5565b50866001600160a01b0316632f55bdb58783600960009054906101000a900463ffffffff16888781518110614c9b57fe5b60200260200101516040518563ffffffff1660e01b8152600401808581526020018481526020018363ffffffff16815260200182815260200194505050505060206040518083038186803b158015614cf257600080fd5b505afa158015614d06573d6000803e3d6000fd5b505050506040513d6020811015614d1c57600080fd5b5051979650505050505050565b6060613c258484600085614e2b565b60008060008360001981614d4857fe5b04905080861115614d81576000816001018781614d6157fe5b046001019050808781614d7057fe5b049650808681614d7c57fe5b049550505b848614614de157858402858701878110614db2576000614da18383614f87565b95505050838503925061114b915050565b6002888803048703821015614dd0576000869450945050505061114b565b60018087039450945050505061114b565b5050600290910493849350915050565b600080825b8015614e0c5760019190910190600a9004614df6565b5092915050565b60008160028104840181614e2357fe5b049392505050565b606082471015614e6c5760405162461bcd60e51b81526004018080602001828103825260268152602001806150c66026913960400191505060405180910390fd5b614e7585614fb3565b614ec6576040805162461bcd60e51b815260206004820152601d60248201527f416464726573733a2063616c6c20746f206e6f6e2d636f6e7472616374000000604482015290519081900360640190fd5b60006060866001600160a01b031685876040518082805190602001908083835b60208310614f055780518252601f199092019160209182019101614ee6565b6001836020036101000a03801982511681845116808217855250505050505090500191505060006040518083038185875af1925050503d8060008114614f67576040519150601f19603f3d011682016040523d82523d6000602084013e614f6c565b606091505b5091509150614f7c828286614fb9565b979650505050505050565b6000600282048203828481614f9857fe5b0681614fa057fe5b04828481614faa57fe5b04019392505050565b3b151590565b60608315614fc857508161228d565b825115614fd85782518084602001fd5b8160405162461bcd60e51b81526004018080602001828103825283818151815260200191508051906020019080838360005b8381101561502257818101518382015260200161500a565b50505050905090810190601f16801561504f5780820380516001836020036101000a031916815260200191505b509250505060405180910390fd5b6040805160a08101825260008082526020820181905291810182905260608101829052608081019190915290565b60405180604001604052806000815260200160008152509056fe353c2eb9e53a4a4a6d45d72082ff2e9dc829d1125618772a83eb0e7f86632c42416464726573733a20696e73756666696369656e742062616c616e636520666f722063616c6c536166654d6174683a206d756c7469706c69636174696f6e206f766572666c6f77000000000000000000000000eeeeeeeeeeeeeeeeeeeeeeeeeeeeeeeeeeeeeeee5361666545524332303a204552433230206f7065726174696f6e20646964206e6f742073756363656564a26469706673582212203242b3c6c7676b4197ce889eaafb643cabdeadc7cb19b39e1c391928dacaaca064736f6c634300060c0033",
  "immutableReferences": {},
  "source": "// SPDX-License-Identifier: SEE LICENSE IN LICENSE\npragma solidity 0.6.12;\n\nimport \"../../LiquidityPoolConverter.sol\";\nimport \"../../../token/interfaces/IDSToken.sol\";\nimport \"../../../utility/MathEx.sol\";\nimport \"../../../utility/Time.sol\";\nimport \"../../../utility/Types.sol\";\n\n/**\n * @dev This contract is a specialized version of a converter that manages\n * a classic bancor liquidity pool.\n *\n * Even though pools can have many reserves, the standard pool configuration\n * is 2 reserves with 50%/50% weights.\n */\ncontract LiquidityPoolV1Converter is LiquidityPoolConverter, Time {\n    using SafeERC20 for IERC20;\n    using MathEx for *;\n\n    uint256 internal constant MAX_RATE_FACTOR_LOWER_BOUND = 1e30;\n\n    // the period of time taken into account when calculating the recent average rate\n    uint256 private constant AVERAGE_RATE_PERIOD = 10 minutes;\n\n    // true if the pool is a 2 reserves / 50%/50% weights pool, false otherwise\n    bool public isStandardPool = false;\n\n    // only used in standard pools\n    Fraction public prevAverageRate; // average rate after the previous conversion (1 reserve token 0 in reserve token 1 units)\n    uint256 public prevAverageRateUpdateTime; // last time when the previous rate was updated (in seconds)\n\n    /**\n     * @dev initializes a new LiquidityPoolV1Converter instance\n     *\n     * @param  _token              pool token governed by the converter\n     * @param  _registry           address of a contract registry contract\n     * @param  _maxConversionFee   maximum conversion fee, represented in ppm\n     */\n    constructor(\n        IDSToken _token,\n        IContractRegistry _registry,\n        uint32 _maxConversionFee\n    ) public LiquidityPoolConverter(_token, _registry, _maxConversionFee) {}\n\n    /**\n     * @dev returns the converter type\n     *\n     * @return see the converter types in the the main contract doc\n     */\n    function converterType() public pure override returns (uint16) {\n        return 1;\n    }\n\n    /**\n     * @dev accepts ownership of the anchor after an ownership transfer\n     * also activates the converter\n     * can only be called by the contract owner\n     * note that prior to version 28, you should use 'acceptTokenOwnership' instead\n     */\n    function acceptAnchorOwnership() public override ownerOnly {\n        super.acceptAnchorOwnership();\n\n        emit Activation(converterType(), anchor, true);\n    }\n\n    /**\n     * @dev defines a new reserve token for the converter\n     * can only be called by the owner while the converter is inactive\n     *\n     * @param _token   address of the reserve token\n     * @param _weight  reserve weight, represented in ppm, 1-1000000\n     */\n    function addReserve(IERC20 _token, uint32 _weight) public override ownerOnly {\n        super.addReserve(_token, _weight);\n\n        isStandardPool =\n            reserveTokens.length == 2 &&\n            reserves[reserveTokens[0]].weight == PPM_RESOLUTION / 2 &&\n            reserves[reserveTokens[1]].weight == PPM_RESOLUTION / 2;\n    }\n\n    /**\n     * @dev returns the expected target amount of converting one reserve to another along with the fee\n     *\n     * @param _sourceToken contract address of the source reserve token\n     * @param _targetToken contract address of the target reserve token\n     * @param _amount      amount of tokens received from the user\n     *\n     * @return expected target amount\n     * @return expected fee\n     */\n    function targetAmountAndFee(\n        IERC20 _sourceToken,\n        IERC20 _targetToken,\n        uint256 _amount\n    ) public view override active validReserve(_sourceToken) validReserve(_targetToken) returns (uint256, uint256) {\n        // validate input\n        require(_sourceToken != _targetToken, \"ERR_SAME_SOURCE_TARGET\");\n\n        uint256 amount =\n            IBancorFormula(addressOf(BANCOR_FORMULA)).crossReserveTargetAmount(\n                reserveBalance(_sourceToken),\n                reserves[_sourceToken].weight,\n                reserveBalance(_targetToken),\n                reserves[_targetToken].weight,\n                _amount\n            );\n\n        // return the amount minus the conversion fee and the conversion fee\n        uint256 fee = calculateFee(amount);\n        return (amount - fee, fee);\n    }\n\n    /**\n     * @dev converts a specific amount of source tokens to target tokens\n     *\n     * @param _sourceToken source ERC20 token\n     * @param _targetToken target ERC20 token\n     * @param _amount      amount of tokens to convert (in units of the source token)\n     * @param _trader      address of the caller who executed the conversion\n     * @param _beneficiary wallet to receive the conversion result\n     *\n     * @return amount of tokens received (in units of the target token)\n     */\n    function doConvert(\n        IERC20 _sourceToken,\n        IERC20 _targetToken,\n        uint256 _amount,\n        address _trader,\n        address payable _beneficiary\n    ) internal override returns (uint256) {\n        // update the recent average rate\n        if (isStandardPool && prevAverageRateUpdateTime < time()) {\n            prevAverageRate = recentAverageRate();\n            prevAverageRateUpdateTime = time();\n        }\n\n        // get expected target amount and fee\n        (uint256 amount, uint256 fee) = targetAmountAndFee(_sourceToken, _targetToken, _amount);\n\n        // ensure that the trade gives something in return\n        require(amount != 0, \"ERR_ZERO_TARGET_AMOUNT\");\n\n        // ensure that the trade won't deplete the reserve balance\n        assert(amount < reserveBalance(_targetToken));\n\n        // ensure that the input amount was already deposited\n        if (_sourceToken == ETH_RESERVE_ADDRESS) {\n            require(msg.value == _amount, \"ERR_ETH_AMOUNT_MISMATCH\");\n        } else {\n            require(\n                msg.value == 0 && _sourceToken.balanceOf(address(this)).sub(reserveBalance(_sourceToken)) >= _amount,\n                \"ERR_INVALID_AMOUNT\"\n            );\n        }\n\n        // sync the reserve balances\n        syncReserveBalance(_sourceToken);\n        reserves[_targetToken].balance = reserves[_targetToken].balance.sub(amount);\n\n        // transfer funds to the beneficiary in the to reserve token\n        if (_targetToken == ETH_RESERVE_ADDRESS) {\n            _beneficiary.transfer(amount);\n        } else {\n            _targetToken.safeTransfer(_beneficiary, amount);\n        }\n\n        // dispatch the conversion event\n        dispatchConversionEvent(_sourceToken, _targetToken, _trader, _amount, amount, fee);\n\n        // dispatch rate updates\n        dispatchTokenRateUpdateEvents(_sourceToken, _targetToken);\n\n        return amount;\n    }\n\n    /**\n     * @dev returns the recent average rate of 1 `_token` in the other reserve token units\n     * note that the rate can only be queried for reserves in a standard pool\n     *\n     * @param _token   token to get the rate for\n     * @return recent average rate between the reserves (numerator)\n     * @return recent average rate between the reserves (denominator)\n     */\n    function recentAverageRate(IERC20 _token) external view validReserve(_token) returns (uint256, uint256) {\n        // verify that the pool is standard\n        require(isStandardPool, \"ERR_NON_STANDARD_POOL\");\n\n        // get the recent average rate of reserve 0\n        Fraction memory rate = recentAverageRate();\n        if (_token == reserveTokens[0]) {\n            return (rate.n, rate.d);\n        }\n\n        return (rate.d, rate.n);\n    }\n\n    /**\n     * @dev returns the recent average rate of 1 reserve token 0 in reserve token 1 units\n     *\n     * @return recent average rate between the reserves\n     */\n    function recentAverageRate() internal view returns (Fraction memory) {\n        // get the elapsed time since the previous average rate was calculated\n        uint256 timeElapsed = time() - prevAverageRateUpdateTime;\n\n        // if the previous average rate was calculated in the current block, return it\n        if (timeElapsed == 0) {\n            return prevAverageRate;\n        }\n\n        // get the current rate between the reserves\n        uint256 currentRateN = reserves[reserveTokens[1]].balance;\n        uint256 currentRateD = reserves[reserveTokens[0]].balance;\n\n        // if the previous average rate was calculated a while ago, the average rate is equal to the current rate\n        if (timeElapsed >= AVERAGE_RATE_PERIOD) {\n            return Fraction({ n: currentRateN, d: currentRateD });\n        }\n\n        // given N as the sampling window, the new rate is calculated according to the following formula:\n        // newRate = prevAverageRate + timeElapsed * [currentRate - prevAverageRate] / N\n\n        // calculate the numerator and the denumerator of the new rate\n        Fraction memory prevAverage = prevAverageRate;\n\n        // if the previous average rate was never calculated, the average rate is equal to the current rate\n        if (prevAverage.n == 0 && prevAverage.d == 0) {\n            return Fraction({ n: currentRateN, d: currentRateD });\n        }\n\n        uint256 x = prevAverage.d.mul(currentRateN);\n        uint256 y = prevAverage.n.mul(currentRateD);\n\n        // since we know that timeElapsed < AVERAGE_RATE_PERIOD, we can avoid using SafeMath:\n        uint256 newRateN = y.mul(AVERAGE_RATE_PERIOD - timeElapsed).add(x.mul(timeElapsed));\n        uint256 newRateD = prevAverage.d.mul(currentRateD).mul(AVERAGE_RATE_PERIOD);\n\n        (newRateN, newRateD) = MathEx.reducedRatio(newRateN, newRateD, MAX_RATE_FACTOR_LOWER_BOUND);\n        return Fraction({ n: newRateN, d: newRateD });\n    }\n\n    /**\n     * @dev increases the pool's liquidity and mints new shares in the pool to the caller\n     * note that prior to version 28, you should use 'fund' instead\n     *\n     * @param _reserveTokens   address of each reserve token\n     * @param _reserveAmounts  amount of each reserve token\n     * @param _minReturn       token minimum return-amount\n     *\n     * @return amount of pool tokens issued\n     */\n    function addLiquidity(\n        IERC20[] memory _reserveTokens,\n        uint256[] memory _reserveAmounts,\n        uint256 _minReturn\n    ) public payable protected active returns (uint256) {\n        // verify the user input\n        verifyLiquidityInput(_reserveTokens, _reserveAmounts, _minReturn);\n\n        // if one of the reserves is ETH, then verify that the input amount of ETH is equal to the input value of ETH\n        for (uint256 i = 0; i < _reserveTokens.length; i++) {\n            if (_reserveTokens[i] == ETH_RESERVE_ADDRESS) {\n                require(_reserveAmounts[i] == msg.value, \"ERR_ETH_AMOUNT_MISMATCH\");\n            }\n        }\n\n        // if the input value of ETH is larger than zero, then verify that one of the reserves is ETH\n        if (msg.value > 0) {\n            require(reserves[ETH_RESERVE_ADDRESS].isSet, \"ERR_NO_ETH_RESERVE\");\n        }\n\n        // get the total supply\n        uint256 totalSupply = IDSToken(address(anchor)).totalSupply();\n\n        // transfer from the user an equally-worth amount of each one of the reserve tokens\n        uint256 amount = addLiquidityToPool(_reserveTokens, _reserveAmounts, totalSupply);\n\n        // verify that the equivalent amount of tokens is equal to or larger than the user's expectation\n        require(amount >= _minReturn, \"ERR_RETURN_TOO_LOW\");\n\n        // issue the tokens to the user\n        IDSToken(address(anchor)).issue(msg.sender, amount);\n\n        // return the amount of pool tokens issued\n        return amount;\n    }\n\n    /**\n     * @dev decreases the pool's liquidity and burns the caller's shares in the pool\n     * note that prior to version 28, you should use 'liquidate' instead\n     *\n     * @param _amount                  token amount\n     * @param _reserveTokens           address of each reserve token\n     * @param _reserveMinReturnAmounts minimum return-amount of each reserve token\n     *\n     * @return the amount of each reserve token granted for the given amount of pool tokens\n     */\n    function removeLiquidity(\n        uint256 _amount,\n        IERC20[] memory _reserveTokens,\n        uint256[] memory _reserveMinReturnAmounts\n    ) public protected active returns (uint256[] memory) {\n        // verify the user input\n        verifyLiquidityInput(_reserveTokens, _reserveMinReturnAmounts, _amount);\n\n        // get the total supply BEFORE destroying the user tokens\n        uint256 totalSupply = IDSToken(address(anchor)).totalSupply();\n\n        // destroy the user tokens\n        IDSToken(address(anchor)).destroy(msg.sender, _amount);\n\n        // transfer to the user an equivalent amount of each one of the reserve tokens\n        return removeLiquidityFromPool(_reserveTokens, _reserveMinReturnAmounts, totalSupply, _amount);\n    }\n\n    /**\n     * @dev increases the pool's liquidity and mints new shares in the pool to the caller\n     * for example, if the caller increases the supply by 10%,\n     * then it will cost an amount equal to 10% of each reserve token balance\n     * note that starting from version 28, you should use 'addLiquidity' instead\n     *\n     * @param _amount  amount to increase the supply by (in the pool token)\n     *\n     * @return amount of pool tokens issued\n     */\n    function fund(uint256 _amount) public payable protected returns (uint256) {\n        syncReserveBalances();\n        reserves[ETH_RESERVE_ADDRESS].balance = reserves[ETH_RESERVE_ADDRESS].balance.sub(msg.value);\n\n        uint256 supply = IDSToken(address(anchor)).totalSupply();\n        IBancorFormula formula = IBancorFormula(addressOf(BANCOR_FORMULA));\n\n        // iterate through the reserve tokens and transfer a percentage equal to the weight between\n        // _amount and the total supply in each reserve from the caller to the converter\n        uint256 reserveCount = reserveTokens.length;\n        for (uint256 i = 0; i < reserveCount; i++) {\n            IERC20 reserveToken = reserveTokens[i];\n            uint256 rsvBalance = reserves[reserveToken].balance;\n            uint256 reserveAmount = formula.fundCost(supply, rsvBalance, reserveRatio, _amount);\n\n            // transfer funds from the caller in the reserve token\n            if (reserveToken == ETH_RESERVE_ADDRESS) {\n                if (msg.value > reserveAmount) {\n                    msg.sender.transfer(msg.value - reserveAmount);\n                } else {\n                    require(msg.value == reserveAmount, \"ERR_INVALID_ETH_VALUE\");\n                }\n            } else {\n                reserveToken.safeTransferFrom(msg.sender, address(this), reserveAmount);\n            }\n\n            // sync the reserve balance\n            uint256 newReserveBalance = rsvBalance.add(reserveAmount);\n            reserves[reserveToken].balance = newReserveBalance;\n\n            uint256 newPoolTokenSupply = supply.add(_amount);\n\n            // dispatch liquidity update for the pool token/reserve\n            emit LiquidityAdded(msg.sender, reserveToken, reserveAmount, newReserveBalance, newPoolTokenSupply);\n\n            // dispatch the `TokenRateUpdate` event for the pool token\n            dispatchPoolTokenRateUpdateEvent(\n                newPoolTokenSupply,\n                reserveToken,\n                newReserveBalance,\n                reserves[reserveToken].weight\n            );\n        }\n\n        // issue new funds to the caller in the pool token\n        IDSToken(address(anchor)).issue(msg.sender, _amount);\n\n        // return the amount of pool tokens issued\n        return _amount;\n    }\n\n    /**\n     * @dev decreases the pool's liquidity and burns the caller's shares in the pool\n     * for example, if the holder sells 10% of the supply,\n     * then they will receive 10% of each reserve token balance in return\n     * note that starting from version 28, you should use 'removeLiquidity' instead\n     *\n     * @param _amount  amount to liquidate (in the pool token)\n     *\n     * @return the amount of each reserve token granted for the given amount of pool tokens\n     */\n    function liquidate(uint256 _amount) public protected returns (uint256[] memory) {\n        require(_amount > 0, \"ERR_ZERO_AMOUNT\");\n\n        uint256 totalSupply = IDSToken(address(anchor)).totalSupply();\n        IDSToken(address(anchor)).destroy(msg.sender, _amount);\n\n        uint256[] memory reserveMinReturnAmounts = new uint256[](reserveTokens.length);\n        for (uint256 i = 0; i < reserveMinReturnAmounts.length; i++) reserveMinReturnAmounts[i] = 1;\n\n        return removeLiquidityFromPool(reserveTokens, reserveMinReturnAmounts, totalSupply, _amount);\n    }\n\n    /**\n     * @dev given the amount of one of the reserve tokens to add liquidity of,\n     * returns the required amount of each one of the other reserve tokens\n     * since an empty pool can be funded with any list of non-zero input amounts,\n     * this function assumes that the pool is not empty (has already been funded)\n     *\n     * @param _reserveTokens       address of each reserve token\n     * @param _reserveTokenIndex   index of the relevant reserve token\n     * @param _reserveAmount       amount of the relevant reserve token\n     *\n     * @return the required amount of each one of the reserve tokens\n     */\n    function addLiquidityCost(\n        IERC20[] memory _reserveTokens,\n        uint256 _reserveTokenIndex,\n        uint256 _reserveAmount\n    ) public view returns (uint256[] memory) {\n        uint256[] memory reserveAmounts = new uint256[](_reserveTokens.length);\n\n        uint256 totalSupply = IDSToken(address(anchor)).totalSupply();\n        IBancorFormula formula = IBancorFormula(addressOf(BANCOR_FORMULA));\n        uint256 amount =\n            formula.fundSupplyAmount(\n                totalSupply,\n                reserves[_reserveTokens[_reserveTokenIndex]].balance,\n                reserveRatio,\n                _reserveAmount\n            );\n\n        for (uint256 i = 0; i < reserveAmounts.length; i++)\n            reserveAmounts[i] = formula.fundCost(\n                totalSupply,\n                reserves[_reserveTokens[i]].balance,\n                reserveRatio,\n                amount\n            );\n\n        return reserveAmounts;\n    }\n\n    /**\n     * @dev given the amount of one of the reserve tokens to add liquidity of,\n     * returns the amount of pool tokens entitled for it\n     * since an empty pool can be funded with any list of non-zero input amounts,\n     * this function assumes that the pool is not empty (has already been funded)\n     *\n     * @param _reserveToken    address of the reserve token\n     * @param _reserveAmount   amount of the reserve token\n     *\n     * @return the amount of pool tokens entitled\n     */\n    function addLiquidityReturn(IERC20 _reserveToken, uint256 _reserveAmount) public view returns (uint256) {\n        uint256 totalSupply = IDSToken(address(anchor)).totalSupply();\n        IBancorFormula formula = IBancorFormula(addressOf(BANCOR_FORMULA));\n        return formula.fundSupplyAmount(totalSupply, reserves[_reserveToken].balance, reserveRatio, _reserveAmount);\n    }\n\n    /**\n     * @dev returns the amount of each reserve token entitled for a given amount of pool tokens\n     *\n     * @param _amount          amount of pool tokens\n     * @param _reserveTokens   address of each reserve token\n     *\n     * @return the amount of each reserve token entitled for the given amount of pool tokens\n     */\n    function removeLiquidityReturn(uint256 _amount, IERC20[] memory _reserveTokens)\n        public\n        view\n        returns (uint256[] memory)\n    {\n        uint256 totalSupply = IDSToken(address(anchor)).totalSupply();\n        IBancorFormula formula = IBancorFormula(addressOf(BANCOR_FORMULA));\n        return removeLiquidityReserveAmounts(_amount, _reserveTokens, totalSupply, formula);\n    }\n\n    /**\n     * @dev verifies that a given array of tokens is identical to the converter's array of reserve tokens\n     * we take this input in order to allow specifying the corresponding reserve amounts in any order\n     *\n     * @param _reserveTokens   array of reserve tokens\n     * @param _reserveAmounts  array of reserve amounts\n     * @param _amount          token amount\n     */\n    function verifyLiquidityInput(\n        IERC20[] memory _reserveTokens,\n        uint256[] memory _reserveAmounts,\n        uint256 _amount\n    ) private view {\n        uint256 i;\n        uint256 j;\n\n        uint256 length = reserveTokens.length;\n        require(length == _reserveTokens.length, \"ERR_INVALID_RESERVES\");\n        require(length == _reserveAmounts.length, \"ERR_INVALID_AMOUNTS\");\n\n        for (i = 0; i < length; i++) {\n            // verify that every input reserve token is included in the reserve tokens\n            require(reserves[_reserveTokens[i]].isSet, \"ERR_INVALID_RESERVE\");\n            for (j = 0; j < length; j++) {\n                if (reserveTokens[i] == _reserveTokens[j]) {\n                    break;\n                }\n            }\n            // verify that every reserve token is included in the input reserve tokens\n            require(j < length, \"ERR_INVALID_RESERVE\");\n            // verify that every input reserve token amount is larger than zero\n            require(_reserveAmounts[i] > 0, \"ERR_ZERO_AMOUNT\");\n        }\n\n        // verify that the input token amount is larger than zero\n        require(_amount > 0, \"ERR_ZERO_AMOUNT\");\n    }\n\n    /**\n     * @dev adds liquidity (reserve) to the pool\n     *\n     * @param _reserveTokens   address of each reserve token\n     * @param _reserveAmounts  amount of each reserve token\n     * @param _totalSupply     token total supply\n     *\n     * @return amount of pool tokens issued\n     */\n    function addLiquidityToPool(\n        IERC20[] memory _reserveTokens,\n        uint256[] memory _reserveAmounts,\n        uint256 _totalSupply\n    ) private returns (uint256) {\n        if (_totalSupply == 0) {\n            return addLiquidityToEmptyPool(_reserveTokens, _reserveAmounts);\n        }\n        return addLiquidityToNonEmptyPool(_reserveTokens, _reserveAmounts, _totalSupply);\n    }\n\n    /**\n     * @dev adds liquidity (reserve) to the pool when it's empty\n     *\n     * @param _reserveTokens   address of each reserve token\n     * @param _reserveAmounts  amount of each reserve token\n     *\n     * @return amount of pool tokens issued\n     */\n    function addLiquidityToEmptyPool(IERC20[] memory _reserveTokens, uint256[] memory _reserveAmounts)\n        private\n        returns (uint256)\n    {\n        // calculate the geometric-mean of the reserve amounts approved by the user\n        uint256 amount = MathEx.geometricMean(_reserveAmounts);\n\n        // transfer each one of the reserve amounts from the user to the pool\n        for (uint256 i = 0; i < _reserveTokens.length; i++) {\n            IERC20 reserveToken = _reserveTokens[i];\n            uint256 reserveAmount = _reserveAmounts[i];\n\n            if (reserveToken != ETH_RESERVE_ADDRESS) {\n                // ETH has already been transferred as part of the transaction\n                reserveToken.safeTransferFrom(msg.sender, address(this), reserveAmount);\n            }\n\n            reserves[reserveToken].balance = reserveAmount;\n\n            emit LiquidityAdded(msg.sender, reserveToken, reserveAmount, reserveAmount, amount);\n\n            // dispatch the `TokenRateUpdate` event for the pool token\n            dispatchPoolTokenRateUpdateEvent(amount, reserveToken, reserveAmount, reserves[reserveToken].weight);\n        }\n\n        // return the amount of pool tokens issued\n        return amount;\n    }\n\n    /**\n     * @dev adds liquidity (reserve) to the pool when it's not empty\n     *\n     * @param _reserveTokens   address of each reserve token\n     * @param _reserveAmounts  amount of each reserve token\n     * @param _totalSupply     token total supply\n     *\n     * @return amount of pool tokens issued\n     */\n    function addLiquidityToNonEmptyPool(\n        IERC20[] memory _reserveTokens,\n        uint256[] memory _reserveAmounts,\n        uint256 _totalSupply\n    ) private returns (uint256) {\n        syncReserveBalances();\n        reserves[ETH_RESERVE_ADDRESS].balance = reserves[ETH_RESERVE_ADDRESS].balance.sub(msg.value);\n\n        IBancorFormula formula = IBancorFormula(addressOf(BANCOR_FORMULA));\n        uint256 amount = getMinShare(formula, _totalSupply, _reserveTokens, _reserveAmounts);\n        uint256 newPoolTokenSupply = _totalSupply.add(amount);\n\n        for (uint256 i = 0; i < _reserveTokens.length; i++) {\n            IERC20 reserveToken = _reserveTokens[i];\n            uint256 rsvBalance = reserves[reserveToken].balance;\n            uint256 reserveAmount = formula.fundCost(_totalSupply, rsvBalance, reserveRatio, amount);\n            require(reserveAmount > 0, \"ERR_ZERO_TARGET_AMOUNT\");\n            assert(reserveAmount <= _reserveAmounts[i]);\n\n            // transfer each one of the reserve amounts from the user to the pool\n            if (reserveToken != ETH_RESERVE_ADDRESS) {\n                // ETH has already been transferred as part of the transaction\n                reserveToken.safeTransferFrom(msg.sender, address(this), reserveAmount);\n            } else if (_reserveAmounts[i] > reserveAmount) {\n                // transfer the extra amount of ETH back to the user\n                msg.sender.transfer(_reserveAmounts[i] - reserveAmount);\n            }\n\n            uint256 newReserveBalance = rsvBalance.add(reserveAmount);\n            reserves[reserveToken].balance = newReserveBalance;\n\n            emit LiquidityAdded(msg.sender, reserveToken, reserveAmount, newReserveBalance, newPoolTokenSupply);\n\n            // dispatch the `TokenRateUpdate` event for the pool token\n            dispatchPoolTokenRateUpdateEvent(\n                newPoolTokenSupply,\n                reserveToken,\n                newReserveBalance,\n                reserves[reserveToken].weight\n            );\n        }\n\n        // return the amount of pool tokens issued\n        return amount;\n    }\n\n    /**\n     * @dev removes liquidity (reserve) from the pool\n     *\n     * @param _reserveTokens           address of each reserve token\n     * @param _reserveMinReturnAmounts minimum return-amount of each reserve token\n     * @param _totalSupply             token total supply\n     * @param _amount                  token amount\n     *\n     * @return the amount of each reserve token granted for the given amount of pool tokens\n     */\n    function removeLiquidityFromPool(\n        IERC20[] memory _reserveTokens,\n        uint256[] memory _reserveMinReturnAmounts,\n        uint256 _totalSupply,\n        uint256 _amount\n    ) private returns (uint256[] memory) {\n        syncReserveBalances();\n\n        IBancorFormula formula = IBancorFormula(addressOf(BANCOR_FORMULA));\n        uint256 newPoolTokenSupply = _totalSupply.sub(_amount);\n        uint256[] memory reserveAmounts = removeLiquidityReserveAmounts(_amount, _reserveTokens, _totalSupply, formula);\n\n        for (uint256 i = 0; i < _reserveTokens.length; i++) {\n            IERC20 reserveToken = _reserveTokens[i];\n            uint256 reserveAmount = reserveAmounts[i];\n            require(reserveAmount >= _reserveMinReturnAmounts[i], \"ERR_ZERO_TARGET_AMOUNT\");\n\n            uint256 newReserveBalance = reserves[reserveToken].balance.sub(reserveAmount);\n            reserves[reserveToken].balance = newReserveBalance;\n\n            // transfer each one of the reserve amounts from the pool to the user\n            if (reserveToken == ETH_RESERVE_ADDRESS) {\n                msg.sender.transfer(reserveAmount);\n            } else {\n                reserveToken.safeTransfer(msg.sender, reserveAmount);\n            }\n\n            emit LiquidityRemoved(msg.sender, reserveToken, reserveAmount, newReserveBalance, newPoolTokenSupply);\n\n            // dispatch the `TokenRateUpdate` event for the pool token\n            dispatchPoolTokenRateUpdateEvent(\n                newPoolTokenSupply,\n                reserveToken,\n                newReserveBalance,\n                reserves[reserveToken].weight\n            );\n        }\n\n        // return the amount of each reserve token granted for the given amount of pool tokens\n        return reserveAmounts;\n    }\n\n    /**\n     * @dev returns the amount of each reserve token entitled for a given amount of pool tokens\n     *\n     * @param _amount          amount of pool tokens\n     * @param _reserveTokens   address of each reserve token\n     * @param _totalSupply     token total supply\n     * @param _formula         formula contract\n     *\n     * @return the amount of each reserve token entitled for the given amount of pool tokens\n     */\n    function removeLiquidityReserveAmounts(\n        uint256 _amount,\n        IERC20[] memory _reserveTokens,\n        uint256 _totalSupply,\n        IBancorFormula _formula\n    ) private view returns (uint256[] memory) {\n        uint256[] memory reserveAmounts = new uint256[](_reserveTokens.length);\n        for (uint256 i = 0; i < reserveAmounts.length; i++)\n            reserveAmounts[i] = _formula.liquidateReserveAmount(\n                _totalSupply,\n                reserves[_reserveTokens[i]].balance,\n                reserveRatio,\n                _amount\n            );\n        return reserveAmounts;\n    }\n\n    function getMinShare(\n        IBancorFormula formula,\n        uint256 _totalSupply,\n        IERC20[] memory _reserveTokens,\n        uint256[] memory _reserveAmounts\n    ) private view returns (uint256) {\n        uint256 minIndex = 0;\n        uint256 minBalance = reserves[_reserveTokens[0]].balance;\n        for (uint256 index = 1; index < _reserveTokens.length; index++) {\n            uint256 balance = reserves[_reserveTokens[index]].balance;\n            if (_reserveAmounts[index].mul(minBalance) < _reserveAmounts[minIndex].mul(balance)) {\n                minIndex = index;\n                minBalance = balance;\n            }\n        }\n        return formula.fundSupplyAmount(_totalSupply, minBalance, reserveRatio, _reserveAmounts[minIndex]);\n    }\n\n    /**\n     * @dev dispatches token rate update events for the reserve tokens and the pool token\n     *\n     * @param _sourceToken address of the source reserve token\n     * @param _targetToken address of the target reserve token\n     */\n    function dispatchTokenRateUpdateEvents(IERC20 _sourceToken, IERC20 _targetToken) private {\n        uint256 poolTokenSupply = IDSToken(address(anchor)).totalSupply();\n        uint256 sourceReserveBalance = reserveBalance(_sourceToken);\n        uint256 targetReserveBalance = reserveBalance(_targetToken);\n        uint32 sourceReserveWeight = reserves[_sourceToken].weight;\n        uint32 targetReserveWeight = reserves[_targetToken].weight;\n\n        // dispatch token rate update event for the reserve tokens\n        uint256 rateN = targetReserveBalance.mul(sourceReserveWeight);\n        uint256 rateD = sourceReserveBalance.mul(targetReserveWeight);\n        emit TokenRateUpdate(_sourceToken, _targetToken, rateN, rateD);\n\n        // dispatch token rate update events for the pool token\n        dispatchPoolTokenRateUpdateEvent(poolTokenSupply, _sourceToken, sourceReserveBalance, sourceReserveWeight);\n        dispatchPoolTokenRateUpdateEvent(poolTokenSupply, _targetToken, targetReserveBalance, targetReserveWeight);\n    }\n\n    /**\n     * @dev dispatches token rate update event for the pool token\n     *\n     * @param _poolTokenSupply total pool token supply\n     * @param _reserveToken    address of the reserve token\n     * @param _reserveBalance  reserve balance\n     * @param _reserveWeight   reserve weight\n     */\n    function dispatchPoolTokenRateUpdateEvent(\n        uint256 _poolTokenSupply,\n        IERC20 _reserveToken,\n        uint256 _reserveBalance,\n        uint32 _reserveWeight\n    ) private {\n        emit TokenRateUpdate(\n            IDSToken(address(anchor)),\n            _reserveToken,\n            _reserveBalance.mul(PPM_RESOLUTION),\n            _poolTokenSupply.mul(_reserveWeight)\n        );\n    }\n}\n",
  "sourcePath": "/Users/dennismacpro/Projects/Defi/Ethereum-Solidity-Collection/icarus-protocol/defi-seeder/.tmp/bancor/contracts-solidity/solidity/contracts/converter/types/liquidity-pool-v1/LiquidityPoolV1Converter.sol",
  "compiler": {
    "name": "solc",
    "version": "0.6.12+commit.27d51765.Emscripten.clang"
  },
  "schemaVersion": "3.3.3",
  "updatedAt": "2021-04-01T18:18:09.417Z",
  "devdoc": {
    "details": "This contract is a specialized version of a converter that manages a classic bancor liquidity pool. Even though pools can have many reserves, the standard pool configuration is 2 reserves with 50%/50% weights.",
    "kind": "dev",
    "methods": {
      "acceptAnchorOwnership()": {
        "details": "accepts ownership of the anchor after an ownership transfer also activates the converter can only be called by the contract owner note that prior to version 28, you should use 'acceptTokenOwnership' instead"
      },
      "acceptOwnership()": {
        "details": "used by a new owner to accept an ownership transfer"
      },
      "acceptTokenOwnership()": {
        "details": "deprecated, backward compatibility"
      },
      "addLiquidity(address[],uint256[],uint256)": {
        "details": "increases the pool's liquidity and mints new shares in the pool to the caller note that prior to version 28, you should use 'fund' instead",
        "params": {
          "_minReturn": "token minimum return-amount",
          "_reserveAmounts": "amount of each reserve token",
          "_reserveTokens": "address of each reserve token"
        },
        "returns": {
          "_0": "amount of pool tokens issued"
        }
      },
      "addLiquidityCost(address[],uint256,uint256)": {
        "details": "given the amount of one of the reserve tokens to add liquidity of, returns the required amount of each one of the other reserve tokens since an empty pool can be funded with any list of non-zero input amounts, this function assumes that the pool is not empty (has already been funded)",
        "params": {
          "_reserveAmount": "amount of the relevant reserve token",
          "_reserveTokenIndex": "index of the relevant reserve token",
          "_reserveTokens": "address of each reserve token"
        },
        "returns": {
          "_0": "the required amount of each one of the reserve tokens"
        }
      },
      "addLiquidityReturn(address,uint256)": {
        "details": "given the amount of one of the reserve tokens to add liquidity of, returns the amount of pool tokens entitled for it since an empty pool can be funded with any list of non-zero input amounts, this function assumes that the pool is not empty (has already been funded)",
        "params": {
          "_reserveAmount": "amount of the reserve token",
          "_reserveToken": "address of the reserve token"
        },
        "returns": {
          "_0": "the amount of pool tokens entitled"
        }
      },
      "addReserve(address,uint32)": {
        "details": "defines a new reserve token for the converter can only be called by the owner while the converter is inactive",
        "params": {
          "_token": "address of the reserve token",
          "_weight": "reserve weight, represented in ppm, 1-1000000"
        }
      },
      "connectorTokenCount()": {
        "details": "deprecated, backward compatibility"
      },
      "connectorTokens(uint256)": {
        "details": "deprecated, backward compatibility"
      },
      "connectors(address)": {
        "details": "deprecated, backward compatibility"
      },
      "constructor": {
        "details": "initializes a new LiquidityPoolV1Converter instance",
        "params": {
          "_maxConversionFee": "maximum conversion fee, represented in ppm",
          "_registry": "address of a contract registry contract",
          "_token": "pool token governed by the converter"
        }
      },
      "convert(address,address,uint256,address,address)": {
        "details": "converts a specific amount of source tokens to target tokens can only be called by the bancor network contract",
        "params": {
          "_amount": "amount of tokens to convert (in units of the source token)",
          "_beneficiary": "wallet to receive the conversion result",
          "_sourceToken": "source ERC20 token",
          "_targetToken": "target ERC20 token",
          "_trader": "address of the caller who executed the conversion"
        },
        "returns": {
          "_0": "amount of tokens received (in units of the target token)"
        }
      },
      "converterType()": {
        "details": "returns the converter type",
        "returns": {
          "_0": "see the converter types in the the main contract doc"
        }
      },
      "fund(uint256)": {
        "details": "increases the pool's liquidity and mints new shares in the pool to the caller for example, if the caller increases the supply by 10%, then it will cost an amount equal to 10% of each reserve token balance note that starting from version 28, you should use 'addLiquidity' instead",
        "params": {
          "_amount": "amount to increase the supply by (in the pool token)"
        },
        "returns": {
          "_0": "amount of pool tokens issued"
        }
      },
      "getConnectorBalance(address)": {
        "details": "deprecated, backward compatibility"
      },
      "getReturn(address,address,uint256)": {
        "details": "deprecated, backward compatibility"
      },
      "isActive()": {
        "details": "returns true if the converter is active, false otherwise",
        "returns": {
          "_0": "true if the converter is active, false otherwise"
        }
      },
      "isV28OrHigher()": {
        "details": "checks whether or not the converter version is 28 or higher",
        "returns": {
          "_0": "true, since the converter version is 28 or higher"
        }
      },
      "liquidate(uint256)": {
        "details": "decreases the pool's liquidity and burns the caller's shares in the pool for example, if the holder sells 10% of the supply, then they will receive 10% of each reserve token balance in return note that starting from version 28, you should use 'removeLiquidity' instead",
        "params": {
          "_amount": "amount to liquidate (in the pool token)"
        },
        "returns": {
          "_0": "the amount of each reserve token granted for the given amount of pool tokens"
        }
      },
      "recentAverageRate(address)": {
        "details": "returns the recent average rate of 1 `_token` in the other reserve token units note that the rate can only be queried for reserves in a standard pool",
        "params": {
          "_token": "token to get the rate for"
        },
        "returns": {
          "_0": "recent average rate between the reserves (numerator)",
          "_1": "recent average rate between the reserves (denominator)"
        }
      },
      "removeLiquidity(uint256,address[],uint256[])": {
        "details": "decreases the pool's liquidity and burns the caller's shares in the pool note that prior to version 28, you should use 'liquidate' instead",
        "params": {
          "_amount": "token amount",
          "_reserveMinReturnAmounts": "minimum return-amount of each reserve token",
          "_reserveTokens": "address of each reserve token"
        },
        "returns": {
          "_0": "the amount of each reserve token granted for the given amount of pool tokens"
        }
      },
      "removeLiquidityReturn(uint256,address[])": {
        "details": "returns the amount of each reserve token entitled for a given amount of pool tokens",
        "params": {
          "_amount": "amount of pool tokens",
          "_reserveTokens": "address of each reserve token"
        },
        "returns": {
          "_0": "the amount of each reserve token entitled for the given amount of pool tokens"
        }
      },
      "reserveBalance(address)": {
        "details": "returns the reserve's balance note that prior to version 17, you should use 'getConnectorBalance' instead",
        "params": {
          "_reserveToken": "reserve token contract address"
        },
        "returns": {
          "_0": "reserve balance"
        }
      },
      "reserveTokenCount()": {
        "details": "returns the number of reserve tokens note that prior to version 17, you should use 'connectorTokenCount' instead",
        "returns": {
          "_0": "number of reserve tokens"
        }
      },
      "reserveWeight(address)": {
        "details": "returns the reserve's weight added in version 28",
        "params": {
          "_reserveToken": "reserve token contract address"
        },
        "returns": {
          "_0": "reserve weight"
        }
      },
      "restoreRegistry()": {
        "details": "restores the previous contract-registry"
      },
      "restrictRegistryUpdate(bool)": {
        "details": "restricts the permission to update the contract-registry",
        "params": {
          "_onlyOwnerCanUpdateRegistry": "indicates whether or not permission is restricted to owner only"
        }
      },
      "setConversionFee(uint32)": {
        "details": "updates the current conversion fee can only be called by the contract owner",
        "params": {
          "_conversionFee": "new conversion fee, represented in ppm"
        }
      },
      "setConversionWhitelist(address)": {
        "details": "allows the owner to update & enable the conversion whitelist contract address when set, only addresses that are whitelisted are actually allowed to use the converter note that the whitelist check is actually done by the BancorNetwork contract",
        "params": {
          "_whitelist": "address of a whitelist contract"
        }
      },
      "targetAmountAndFee(address,address,uint256)": {
        "details": "returns the expected target amount of converting one reserve to another along with the fee",
        "params": {
          "_amount": "amount of tokens received from the user",
          "_sourceToken": "contract address of the source reserve token",
          "_targetToken": "contract address of the target reserve token"
        },
        "returns": {
          "_0": "expected target amount",
          "_1": "expected fee"
        }
      },
      "token()": {
        "details": "deprecated since version 28, backward compatibility - use only for earlier versions"
      },
      "transferAnchorOwnership(address)": {
        "details": "transfers the anchor ownership the new owner needs to accept the transfer can only be called by the converter upgrder while the upgrader is the owner note that prior to version 28, you should use 'transferAnchorOwnership' instead",
        "params": {
          "_newOwner": "new token owner"
        }
      },
      "transferOwnership(address)": {
        "details": "allows transferring the contract ownership the new owner still needs to accept the transfer can only be called by the contract owner",
        "params": {
          "_newOwner": "new contract owner"
        }
      },
      "transferTokenOwnership(address)": {
        "details": "deprecated, backward compatibility"
      },
      "updateRegistry()": {
        "details": "updates to the new contract-registry"
      },
      "upgrade()": {
        "details": "upgrades the converter to the latest version can only be called by the owner note that the owner needs to call acceptOwnership on the new converter after the upgrade"
      },
      "withdrawETH(address)": {
        "details": "withdraws ether can only be called by the owner if the converter is inactive or by upgrader contract can only be called after the upgrader contract has accepted the ownership of this contract can only be called if the converter has an ETH reserve",
        "params": {
          "_to": "address to send the ETH to"
        }
      },
      "withdrawTokens(address,address,uint256)": {
        "details": "withdraws tokens held by the converter and sends them to an account can only be called by the owner note that reserve tokens can only be withdrawn by the owner while the converter is inactive unless the owner is the converter upgrader contract",
        "params": {
          "_amount": "amount to withdraw",
          "_to": "account to receive the new amount",
          "_token": "ERC20 token contract address"
        }
      }
    },
    "version": 1
  },
  "userdoc": {
    "kind": "user",
    "methods": {},
    "version": 1
  }
}