{
  "contractName": "LiquidityProtectionSystemStore",
  "abi": [
    {
      "inputs": [],
      "stateMutability": "nonpayable",
      "type": "constructor"
    },
    {
      "anonymous": false,
      "inputs": [
        {
          "indexed": true,
          "internalType": "contract IConverterAnchor",
          "name": "poolAnchor",
          "type": "address"
        },
        {
          "indexed": false,
          "internalType": "uint256",
          "name": "prevAmount",
          "type": "uint256"
        },
        {
          "indexed": false,
          "internalType": "uint256",
          "name": "newAmount",
          "type": "uint256"
        }
      ],
      "name": "NetworkTokensMintedUpdated",
      "type": "event"
    },
    {
      "anonymous": false,
      "inputs": [
        {
          "indexed": true,
          "internalType": "bytes32",
          "name": "role",
          "type": "bytes32"
        },
        {
          "indexed": true,
          "internalType": "bytes32",
          "name": "previousAdminRole",
          "type": "bytes32"
        },
        {
          "indexed": true,
          "internalType": "bytes32",
          "name": "newAdminRole",
          "type": "bytes32"
        }
      ],
      "name": "RoleAdminChanged",
      "type": "event"
    },
    {
      "anonymous": false,
      "inputs": [
        {
          "indexed": true,
          "internalType": "bytes32",
          "name": "role",
          "type": "bytes32"
        },
        {
          "indexed": true,
          "internalType": "address",
          "name": "account",
          "type": "address"
        },
        {
          "indexed": true,
          "internalType": "address",
          "name": "sender",
          "type": "address"
        }
      ],
      "name": "RoleGranted",
      "type": "event"
    },
    {
      "anonymous": false,
      "inputs": [
        {
          "indexed": true,
          "internalType": "bytes32",
          "name": "role",
          "type": "bytes32"
        },
        {
          "indexed": true,
          "internalType": "address",
          "name": "account",
          "type": "address"
        },
        {
          "indexed": true,
          "internalType": "address",
          "name": "sender",
          "type": "address"
        }
      ],
      "name": "RoleRevoked",
      "type": "event"
    },
    {
      "anonymous": false,
      "inputs": [
        {
          "indexed": true,
          "internalType": "contract IERC20",
          "name": "token",
          "type": "address"
        },
        {
          "indexed": false,
          "internalType": "uint256",
          "name": "prevAmount",
          "type": "uint256"
        },
        {
          "indexed": false,
          "internalType": "uint256",
          "name": "newAmount",
          "type": "uint256"
        }
      ],
      "name": "SystemBalanceUpdated",
      "type": "event"
    },
    {
      "inputs": [],
      "name": "DEFAULT_ADMIN_ROLE",
      "outputs": [
        {
          "internalType": "bytes32",
          "name": "",
          "type": "bytes32"
        }
      ],
      "stateMutability": "view",
      "type": "function"
    },
    {
      "inputs": [],
      "name": "ROLE_OWNER",
      "outputs": [
        {
          "internalType": "bytes32",
          "name": "",
          "type": "bytes32"
        }
      ],
      "stateMutability": "view",
      "type": "function"
    },
    {
      "inputs": [],
      "name": "ROLE_SUPERVISOR",
      "outputs": [
        {
          "internalType": "bytes32",
          "name": "",
          "type": "bytes32"
        }
      ],
      "stateMutability": "view",
      "type": "function"
    },
    {
      "inputs": [
        {
          "internalType": "bytes32",
          "name": "role",
          "type": "bytes32"
        }
      ],
      "name": "getRoleAdmin",
      "outputs": [
        {
          "internalType": "bytes32",
          "name": "",
          "type": "bytes32"
        }
      ],
      "stateMutability": "view",
      "type": "function"
    },
    {
      "inputs": [
        {
          "internalType": "bytes32",
          "name": "role",
          "type": "bytes32"
        },
        {
          "internalType": "uint256",
          "name": "index",
          "type": "uint256"
        }
      ],
      "name": "getRoleMember",
      "outputs": [
        {
          "internalType": "address",
          "name": "",
          "type": "address"
        }
      ],
      "stateMutability": "view",
      "type": "function"
    },
    {
      "inputs": [
        {
          "internalType": "bytes32",
          "name": "role",
          "type": "bytes32"
        }
      ],
      "name": "getRoleMemberCount",
      "outputs": [
        {
          "internalType": "uint256",
          "name": "",
          "type": "uint256"
        }
      ],
      "stateMutability": "view",
      "type": "function"
    },
    {
      "inputs": [
        {
          "internalType": "bytes32",
          "name": "role",
          "type": "bytes32"
        },
        {
          "internalType": "address",
          "name": "account",
          "type": "address"
        }
      ],
      "name": "grantRole",
      "outputs": [],
      "stateMutability": "nonpayable",
      "type": "function"
    },
    {
      "inputs": [
        {
          "internalType": "bytes32",
          "name": "role",
          "type": "bytes32"
        },
        {
          "internalType": "address",
          "name": "account",
          "type": "address"
        }
      ],
      "name": "hasRole",
      "outputs": [
        {
          "internalType": "bool",
          "name": "",
          "type": "bool"
        }
      ],
      "stateMutability": "view",
      "type": "function"
    },
    {
      "inputs": [
        {
          "internalType": "bytes32",
          "name": "role",
          "type": "bytes32"
        },
        {
          "internalType": "address",
          "name": "account",
          "type": "address"
        }
      ],
      "name": "renounceRole",
      "outputs": [],
      "stateMutability": "nonpayable",
      "type": "function"
    },
    {
      "inputs": [
        {
          "internalType": "bytes32",
          "name": "role",
          "type": "bytes32"
        },
        {
          "internalType": "address",
          "name": "account",
          "type": "address"
        }
      ],
      "name": "revokeRole",
      "outputs": [],
      "stateMutability": "nonpayable",
      "type": "function"
    },
    {
      "inputs": [
        {
          "internalType": "contract IERC20",
          "name": "token",
          "type": "address"
        }
      ],
      "name": "systemBalance",
      "outputs": [
        {
          "internalType": "uint256",
          "name": "",
          "type": "uint256"
        }
      ],
      "stateMutability": "view",
      "type": "function"
    },
    {
      "inputs": [
        {
          "internalType": "contract IERC20",
          "name": "token",
          "type": "address"
        },
        {
          "internalType": "uint256",
          "name": "amount",
          "type": "uint256"
        }
      ],
      "name": "incSystemBalance",
      "outputs": [],
      "stateMutability": "nonpayable",
      "type": "function"
    },
    {
      "inputs": [
        {
          "internalType": "contract IERC20",
          "name": "token",
          "type": "address"
        },
        {
          "internalType": "uint256",
          "name": "amount",
          "type": "uint256"
        }
      ],
      "name": "decSystemBalance",
      "outputs": [],
      "stateMutability": "nonpayable",
      "type": "function"
    },
    {
      "inputs": [
        {
          "internalType": "contract IConverterAnchor",
          "name": "poolAnchor",
          "type": "address"
        }
      ],
      "name": "networkTokensMinted",
      "outputs": [
        {
          "internalType": "uint256",
          "name": "",
          "type": "uint256"
        }
      ],
      "stateMutability": "view",
      "type": "function"
    },
    {
      "inputs": [
        {
          "internalType": "contract IConverterAnchor",
          "name": "poolAnchor",
          "type": "address"
        },
        {
          "internalType": "uint256",
          "name": "amount",
          "type": "uint256"
        }
      ],
      "name": "incNetworkTokensMinted",
      "outputs": [],
      "stateMutability": "nonpayable",
      "type": "function"
    },
    {
      "inputs": [
        {
          "internalType": "contract IConverterAnchor",
          "name": "poolAnchor",
          "type": "address"
        },
        {
          "internalType": "uint256",
          "name": "amount",
          "type": "uint256"
        }
      ],
      "name": "decNetworkTokensMinted",
      "outputs": [],
      "stateMutability": "nonpayable",
      "type": "function"
    }
  ],
  "bytecode": "0x60806040523480156200001157600080fd5b506200002d60008051602062000e618339815191528062000089565b620000687f9f4e1c871d5fdd0aee1cd182666698a4492b24c6832aac230d07b11046af5a8960008051602062000e6183398151915262000089565b6200008360008051602062000e6183398151915233620000db565b620001ef565b600082815260208190526040808220600201549051839285917fbd79b86ffe0ab8e8776151514217cd7cacd52c909f66475c3af44e129f0b00ff9190a460009182526020829052604090912060020155565b620000e78282620000eb565b5050565b600082815260208181526040909120620001109183906200074662000164821b17901c565b15620000e7576200012062000184565b6001600160a01b0316816001600160a01b0316837f2f8788117e7eff1d82e926ec794901d17c78024a50270940304540a733656f0d60405160405180910390a45050565b60006200017b836001600160a01b03841662000188565b90505b92915050565b3390565b6000620001968383620001d7565b620001ce575081546001818101845560008481526020808220909301849055845484825282860190935260409020919091556200017e565b5060006200017e565b60009081526001919091016020526040902054151590565b610c6280620001ff6000396000f3fe608060405234801561001057600080fd5b50600436106101005760003560e01c8063802fa3ba11610097578063a217fddf11610066578063a217fddf146102ed578063ca15c873146102f5578063d547741f14610312578063deacd84e1461033e57610100565b8063802fa3ba1461023a5780638ad682af146102665780639010d07c1461026e57806391d14854146102ad57610100565b8063332100fa116100d3578063332100fa14610196578063350ed8e7146101c257806336568abe146101e85780635121220c1461021457610100565b80630d80af9b1461010557806319c6a5e41461011f578063248a9ca31461014d5780632f2ff15d1461016a575b600080fd5b61010d61036a565b60408051918252519081900360200190f35b61014b6004803603604081101561013557600080fd5b506001600160a01b03813516906020013561038e565b005b61010d6004803603602081101561016357600080fd5b5035610435565b61014b6004803603604081101561018057600080fd5b50803590602001356001600160a01b031661044a565b61014b600480360360408110156101ac57600080fd5b506001600160a01b0381351690602001356104b6565b61010d600480360360208110156101d857600080fd5b50356001600160a01b03166104fb565b61014b600480360360408110156101fe57600080fd5b50803590602001356001600160a01b0316610516565b61010d6004803603602081101561022a57600080fd5b50356001600160a01b0316610577565b61014b6004803603604081101561025057600080fd5b506001600160a01b038135169060200135610592565b61010d610641565b6102916004803603604081101561028457600080fd5b5080359060200135610653565b604080516001600160a01b039092168252519081900360200190f35b6102d9600480360360408110156102c357600080fd5b50803590602001356001600160a01b0316610674565b604080519115158252519081900360200190f35b61010d61068c565b61010d6004803603602081101561030b57600080fd5b5035610691565b61014b6004803603604081101561032857600080fd5b50803590602001356001600160a01b03166106a8565b61014b6004803603604081101561035457600080fd5b506001600160a01b038135169060200135610701565b7f0c7ade2c7c08453ea605b4a8f3fb0e03e3ffcffbfa41ca8ee543d0fd74cada3881565b6103a5600080516020610bde83398151915261075b565b816103af816107ad565b6001600160a01b038316600090815260016020526040812054906103d382856107fe565b6001600160a01b0386166000818152600160209081526040918290208490558151868152908101849052815193945091927f407aa06211cf8eec4798e12787e05d8e5ba13eab80aac8df1b59ed5db85201979281900390910190a25050505050565b60009081526020819052604090206002015490565b60008281526020819052604090206002015461046d9061046861085b565b610674565b6104a85760405162461bcd60e51b815260040180806020018281038252602f815260200180610b7f602f913960400191505060405180910390fd5b6104b2828261085f565b5050565b6104cd600080516020610bde83398151915261075b565b816104d7816107ad565b6001600160a01b038316600090815260016020526040812054906103d382856108c8565b6001600160a01b031660009081526002602052604090205490565b61051e61085b565b6001600160a01b0316816001600160a01b03161461056d5760405162461bcd60e51b815260040180806020018281038252602f815260200180610bfe602f913960400191505060405180910390fd5b6104b28282610922565b6001600160a01b031660009081526001602052604090205490565b6105a9600080516020610bde83398151915261075b565b816105b3816107ad565b6001600160a01b038316600090815260026020526040812054908382116105db5760006105df565b8382035b6001600160a01b0386166000818152600260209081526040918290208490558151868152908101849052815193945091927fac906a35879322fae6cc4da99d202a54cee7958738dda32d3ff821913a0f27399281900390910190a25050505050565b600080516020610bde83398151915281565b600082815260208190526040812061066b908361098b565b90505b92915050565b600082815260208190526040812061066b9083610997565b600081565b600081815260208190526040812061066e906109ac565b6000828152602081905260409020600201546106c69061046861085b565b61056d5760405162461bcd60e51b8152600401808060200182810382526030815260200180610bae6030913960400191505060405180910390fd5b610718600080516020610bde83398151915261075b565b81610722816107ad565b6001600160a01b038316600090815260026020526040812054906105df82856108c8565b600061066b836001600160a01b0384166109b7565b6107658133610674565b6107aa576040805162461bcd60e51b815260206004820152601160248201527011549497d050d0d154d4d7d11153925151607a1b604482015290519081900360640190fd5b50565b6001600160a01b0381166107aa576040805162461bcd60e51b81526020600482015260136024820152724552525f494e56414c49445f4144445245535360681b604482015290519081900360640190fd5b600082821115610855576040805162461bcd60e51b815260206004820152601e60248201527f536166654d6174683a207375627472616374696f6e206f766572666c6f770000604482015290519081900360640190fd5b50900390565b3390565b60008281526020819052604090206108779082610746565b156104b25761088461085b565b6001600160a01b0316816001600160a01b0316837f2f8788117e7eff1d82e926ec794901d17c78024a50270940304540a733656f0d60405160405180910390a45050565b60008282018381101561066b576040805162461bcd60e51b815260206004820152601b60248201527f536166654d6174683a206164646974696f6e206f766572666c6f770000000000604482015290519081900360640190fd5b600082815260208190526040902061093a9082610a01565b156104b25761094761085b565b6001600160a01b0316816001600160a01b0316837ff6391f5c32d9c69d2a47ea670b442974b53935d1edc7fd64eb21e047a839171b60405160405180910390a45050565b600061066b8383610a16565b600061066b836001600160a01b038416610a7a565b600061066e82610a92565b60006109c38383610a7a565b6109f95750815460018181018455600084815260208082209093018490558454848252828601909352604090209190915561066e565b50600061066e565b600061066b836001600160a01b038416610a96565b81546000908210610a585760405162461bcd60e51b8152600401808060200182810382526022815260200180610b5d6022913960400191505060405180910390fd5b826000018281548110610a6757fe5b9060005260206000200154905092915050565b60009081526001919091016020526040902054151590565b5490565b60008181526001830160205260408120548015610b525783546000198083019190810190600090879083908110610ac957fe5b9060005260206000200154905080876000018481548110610ae657fe5b600091825260208083209091019290925582815260018981019092526040902090840190558654879080610b1657fe5b6001900381819060005260206000200160009055905586600101600087815260200190815260200160002060009055600194505050505061066e565b600091505061066e56fe456e756d657261626c655365743a20696e646578206f7574206f6620626f756e6473416363657373436f6e74726f6c3a2073656e646572206d75737420626520616e2061646d696e20746f206772616e74416363657373436f6e74726f6c3a2073656e646572206d75737420626520616e2061646d696e20746f207265766f6b659f4e1c871d5fdd0aee1cd182666698a4492b24c6832aac230d07b11046af5a89416363657373436f6e74726f6c3a2063616e206f6e6c792072656e6f756e636520726f6c657320666f722073656c66a2646970667358221220e1389ed960bcc8a45869d1a05cce0453237e278f52a8a9094e6370384eb8fec464736f6c634300060c00330c7ade2c7c08453ea605b4a8f3fb0e03e3ffcffbfa41ca8ee543d0fd74cada38",
  "immutableReferences": {},
  "source": "// SPDX-License-Identifier: SEE LICENSE IN LICENSE\npragma solidity 0.6.12;\n\nimport \"@openzeppelin/contracts/access/AccessControl.sol\";\nimport \"@openzeppelin/contracts/utils/EnumerableSet.sol\";\nimport \"@openzeppelin/contracts/math/SafeMath.sol\";\n\nimport \"./interfaces/ILiquidityProtectionSystemStore.sol\";\nimport \"../utility/Utils.sol\";\n\n/**\n * @dev This contract aggregates the system balances of the liquidity protection mechanism.\n */\ncontract LiquidityProtectionSystemStore is ILiquidityProtectionSystemStore, AccessControl, Utils {\n    using SafeMath for uint256;\n\n    bytes32 public constant ROLE_SUPERVISOR = keccak256(\"ROLE_SUPERVISOR\");\n    bytes32 public constant ROLE_OWNER = keccak256(\"ROLE_OWNER\");\n\n    // system balances\n    mapping(IERC20 => uint256) private _systemBalances;\n\n    // network tokens minted\n    mapping(IConverterAnchor => uint256) private _networkTokensMinted;\n\n    // allows execution only by an owner\n    modifier ownerOnly {\n        _hasRole(ROLE_OWNER);\n        _;\n    }\n\n    // error message binary size optimization\n    function _hasRole(bytes32 role) internal view {\n        require(hasRole(role, msg.sender), \"ERR_ACCESS_DENIED\");\n    }\n\n    /**\n     * @dev triggered when the system balance for a given token is updated\n     *\n     * @param token         token address\n     * @param prevAmount    previous amount\n     * @param newAmount     new amount\n     */\n    event SystemBalanceUpdated(IERC20 indexed token, uint256 prevAmount, uint256 newAmount);\n\n    /**\n     * @dev triggered when the amount of network tokens minted into a specific pool is updated\n     *\n     * @param poolAnchor    pool anchor\n     * @param prevAmount    previous amount\n     * @param newAmount     new amount\n     */\n    event NetworkTokensMintedUpdated(IConverterAnchor indexed poolAnchor, uint256 prevAmount, uint256 newAmount);\n\n    constructor() public {\n        // set up administrative roles\n        _setRoleAdmin(ROLE_SUPERVISOR, ROLE_SUPERVISOR);\n        _setRoleAdmin(ROLE_OWNER, ROLE_SUPERVISOR);\n\n        // allow the deployer to initially govern the contract\n        _setupRole(ROLE_SUPERVISOR, msg.sender);\n    }\n\n    /**\n     * @dev returns the system balance for a given token\n     *\n     * @param token token address\n     * @return system balance\n     */\n    function systemBalance(IERC20 token) external view override returns (uint256) {\n        return _systemBalances[token];\n    }\n\n    /**\n     * @dev increases the system balance for a given token\n     * can be executed only by an owner\n     *\n     * @param token     token address\n     * @param amount    token amount\n     */\n    function incSystemBalance(IERC20 token, uint256 amount) external override ownerOnly validAddress(address(token)) {\n        uint256 prevAmount = _systemBalances[token];\n        uint256 newAmount = prevAmount.add(amount);\n        _systemBalances[token] = newAmount;\n\n        emit SystemBalanceUpdated(token, prevAmount, newAmount);\n    }\n\n    /**\n     * @dev decreases the system balance for a given token\n     * can be executed only by an owner\n     *\n     * @param token     token address\n     * @param amount    token amount\n     */\n    function decSystemBalance(IERC20 token, uint256 amount) external override ownerOnly validAddress(address(token)) {\n        uint256 prevAmount = _systemBalances[token];\n        uint256 newAmount = prevAmount.sub(amount);\n        _systemBalances[token] = newAmount;\n\n        emit SystemBalanceUpdated(token, prevAmount, newAmount);\n    }\n\n    /**\n     * @dev returns the amount of network tokens minted into a specific pool\n     *\n     * @param poolAnchor    pool anchor\n     * @return amount of network tokens\n     */\n    function networkTokensMinted(IConverterAnchor poolAnchor) external view override returns (uint256) {\n        return _networkTokensMinted[poolAnchor];\n    }\n\n    /**\n     * @dev increases the amount of network tokens minted into a specific pool\n     * can be executed only by an owner\n     *\n     * @param poolAnchor    pool anchor\n     * @param amount        amount to increase the minted tokens by\n     */\n    function incNetworkTokensMinted(IConverterAnchor poolAnchor, uint256 amount)\n        external\n        override\n        ownerOnly\n        validAddress(address(poolAnchor))\n    {\n        uint256 prevAmount = _networkTokensMinted[poolAnchor];\n        uint256 newAmount = prevAmount.add(amount);\n        _networkTokensMinted[poolAnchor] = newAmount;\n\n        emit NetworkTokensMintedUpdated(poolAnchor, prevAmount, newAmount);\n    }\n\n    /**\n     * @dev decreases the amount of network tokens minted into a specific pool\n     * can be executed only by an owner\n     *\n     * @param poolAnchor    pool anchor\n     * @param amount        amount to decrease the minted tokens by\n     */\n    function decNetworkTokensMinted(IConverterAnchor poolAnchor, uint256 amount)\n        external\n        override\n        ownerOnly\n        validAddress(address(poolAnchor))\n    {\n        uint256 prevAmount = _networkTokensMinted[poolAnchor];\n        uint256 newAmount = prevAmount > amount ? prevAmount - amount : 0;\n        _networkTokensMinted[poolAnchor] = newAmount;\n\n        emit NetworkTokensMintedUpdated(poolAnchor, prevAmount, newAmount);\n    }\n}\n",
  "sourcePath": "/Users/dennismacpro/Projects/Defi/Ethereum-Solidity-Collection/icarus-protocol/defi-seeder/.tmp/bancor/contracts-solidity/solidity/contracts/liquidity-protection/LiquidityProtectionSystemStore.sol",
  "compiler": {
    "name": "solc",
    "version": "0.6.12+commit.27d51765.Emscripten.clang"
  },
  "schemaVersion": "3.3.3",
  "updatedAt": "2021-04-01T18:17:52.161Z",
  "devdoc": {
    "details": "This contract aggregates the system balances of the liquidity protection mechanism.",
    "events": {
      "NetworkTokensMintedUpdated(address,uint256,uint256)": {
        "details": "triggered when the amount of network tokens minted into a specific pool is updated",
        "params": {
          "newAmount": "new amount",
          "poolAnchor": "pool anchor",
          "prevAmount": "previous amount"
        }
      },
      "SystemBalanceUpdated(address,uint256,uint256)": {
        "details": "triggered when the system balance for a given token is updated",
        "params": {
          "newAmount": "new amount",
          "prevAmount": "previous amount",
          "token": "token address"
        }
      }
    },
    "kind": "dev",
    "methods": {
      "decNetworkTokensMinted(address,uint256)": {
        "details": "decreases the amount of network tokens minted into a specific pool can be executed only by an owner",
        "params": {
          "amount": "amount to decrease the minted tokens by",
          "poolAnchor": "pool anchor"
        }
      },
      "decSystemBalance(address,uint256)": {
        "details": "decreases the system balance for a given token can be executed only by an owner",
        "params": {
          "amount": "token amount",
          "token": "token address"
        }
      },
      "getRoleAdmin(bytes32)": {
        "details": "Returns the admin role that controls `role`. See {grantRole} and {revokeRole}. To change a role's admin, use {_setRoleAdmin}."
      },
      "getRoleMember(bytes32,uint256)": {
        "details": "Returns one of the accounts that have `role`. `index` must be a value between 0 and {getRoleMemberCount}, non-inclusive. Role bearers are not sorted in any particular way, and their ordering may change at any point. WARNING: When using {getRoleMember} and {getRoleMemberCount}, make sure you perform all queries on the same block. See the following https://forum.openzeppelin.com/t/iterating-over-elements-on-enumerableset-in-openzeppelin-contracts/2296[forum post] for more information."
      },
      "getRoleMemberCount(bytes32)": {
        "details": "Returns the number of accounts that have `role`. Can be used together with {getRoleMember} to enumerate all bearers of a role."
      },
      "grantRole(bytes32,address)": {
        "details": "Grants `role` to `account`. If `account` had not been already granted `role`, emits a {RoleGranted} event. Requirements: - the caller must have ``role``'s admin role."
      },
      "hasRole(bytes32,address)": {
        "details": "Returns `true` if `account` has been granted `role`."
      },
      "incNetworkTokensMinted(address,uint256)": {
        "details": "increases the amount of network tokens minted into a specific pool can be executed only by an owner",
        "params": {
          "amount": "amount to increase the minted tokens by",
          "poolAnchor": "pool anchor"
        }
      },
      "incSystemBalance(address,uint256)": {
        "details": "increases the system balance for a given token can be executed only by an owner",
        "params": {
          "amount": "token amount",
          "token": "token address"
        }
      },
      "networkTokensMinted(address)": {
        "details": "returns the amount of network tokens minted into a specific pool",
        "params": {
          "poolAnchor": "pool anchor"
        },
        "returns": {
          "_0": "amount of network tokens"
        }
      },
      "renounceRole(bytes32,address)": {
        "details": "Revokes `role` from the calling account. Roles are often managed via {grantRole} and {revokeRole}: this function's purpose is to provide a mechanism for accounts to lose their privileges if they are compromised (such as when a trusted device is misplaced). If the calling account had been granted `role`, emits a {RoleRevoked} event. Requirements: - the caller must be `account`."
      },
      "revokeRole(bytes32,address)": {
        "details": "Revokes `role` from `account`. If `account` had been granted `role`, emits a {RoleRevoked} event. Requirements: - the caller must have ``role``'s admin role."
      },
      "systemBalance(address)": {
        "details": "returns the system balance for a given token",
        "params": {
          "token": "token address"
        },
        "returns": {
          "_0": "system balance"
        }
      }
    },
    "version": 1
  },
  "userdoc": {
    "kind": "user",
    "methods": {},
    "version": 1
  }
}