{
  "contractName": "LiquidTokenConverter",
  "abi": [
    {
      "inputs": [
        {
          "internalType": "contract IDSToken",
          "name": "_token",
          "type": "address"
        },
        {
          "internalType": "contract IContractRegistry",
          "name": "_registry",
          "type": "address"
        },
        {
          "internalType": "uint32",
          "name": "_maxConversionFee",
          "type": "uint32"
        }
      ],
      "stateMutability": "nonpayable",
      "type": "constructor"
    },
    {
      "anonymous": false,
      "inputs": [
        {
          "indexed": true,
          "internalType": "uint16",
          "name": "_type",
          "type": "uint16"
        },
        {
          "indexed": true,
          "internalType": "contract IConverterAnchor",
          "name": "_anchor",
          "type": "address"
        },
        {
          "indexed": true,
          "internalType": "bool",
          "name": "_activated",
          "type": "bool"
        }
      ],
      "name": "Activation",
      "type": "event"
    },
    {
      "anonymous": false,
      "inputs": [
        {
          "indexed": true,
          "internalType": "contract IERC20",
          "name": "_fromToken",
          "type": "address"
        },
        {
          "indexed": true,
          "internalType": "contract IERC20",
          "name": "_toToken",
          "type": "address"
        },
        {
          "indexed": true,
          "internalType": "address",
          "name": "_trader",
          "type": "address"
        },
        {
          "indexed": false,
          "internalType": "uint256",
          "name": "_amount",
          "type": "uint256"
        },
        {
          "indexed": false,
          "internalType": "uint256",
          "name": "_return",
          "type": "uint256"
        },
        {
          "indexed": false,
          "internalType": "int256",
          "name": "_conversionFee",
          "type": "int256"
        }
      ],
      "name": "Conversion",
      "type": "event"
    },
    {
      "anonymous": false,
      "inputs": [
        {
          "indexed": false,
          "internalType": "uint32",
          "name": "_prevFee",
          "type": "uint32"
        },
        {
          "indexed": false,
          "internalType": "uint32",
          "name": "_newFee",
          "type": "uint32"
        }
      ],
      "name": "ConversionFeeUpdate",
      "type": "event"
    },
    {
      "anonymous": false,
      "inputs": [
        {
          "indexed": true,
          "internalType": "address",
          "name": "_prevOwner",
          "type": "address"
        },
        {
          "indexed": true,
          "internalType": "address",
          "name": "_newOwner",
          "type": "address"
        }
      ],
      "name": "OwnerUpdate",
      "type": "event"
    },
    {
      "anonymous": false,
      "inputs": [
        {
          "indexed": true,
          "internalType": "contract IERC20",
          "name": "_token1",
          "type": "address"
        },
        {
          "indexed": true,
          "internalType": "contract IERC20",
          "name": "_token2",
          "type": "address"
        },
        {
          "indexed": false,
          "internalType": "uint256",
          "name": "_rateN",
          "type": "uint256"
        },
        {
          "indexed": false,
          "internalType": "uint256",
          "name": "_rateD",
          "type": "uint256"
        }
      ],
      "name": "TokenRateUpdate",
      "type": "event"
    },
    {
      "inputs": [],
      "name": "acceptOwnership",
      "outputs": [],
      "stateMutability": "nonpayable",
      "type": "function"
    },
    {
      "inputs": [],
      "name": "acceptTokenOwnership",
      "outputs": [],
      "stateMutability": "nonpayable",
      "type": "function"
    },
    {
      "inputs": [],
      "name": "anchor",
      "outputs": [
        {
          "internalType": "contract IConverterAnchor",
          "name": "",
          "type": "address"
        }
      ],
      "stateMutability": "view",
      "type": "function"
    },
    {
      "inputs": [],
      "name": "connectorTokenCount",
      "outputs": [
        {
          "internalType": "uint16",
          "name": "",
          "type": "uint16"
        }
      ],
      "stateMutability": "view",
      "type": "function"
    },
    {
      "inputs": [
        {
          "internalType": "uint256",
          "name": "_index",
          "type": "uint256"
        }
      ],
      "name": "connectorTokens",
      "outputs": [
        {
          "internalType": "contract IERC20",
          "name": "",
          "type": "address"
        }
      ],
      "stateMutability": "view",
      "type": "function"
    },
    {
      "inputs": [
        {
          "internalType": "contract IERC20",
          "name": "_address",
          "type": "address"
        }
      ],
      "name": "connectors",
      "outputs": [
        {
          "internalType": "uint256",
          "name": "",
          "type": "uint256"
        },
        {
          "internalType": "uint32",
          "name": "",
          "type": "uint32"
        },
        {
          "internalType": "bool",
          "name": "",
          "type": "bool"
        },
        {
          "internalType": "bool",
          "name": "",
          "type": "bool"
        },
        {
          "internalType": "bool",
          "name": "",
          "type": "bool"
        }
      ],
      "stateMutability": "view",
      "type": "function"
    },
    {
      "inputs": [],
      "name": "conversionFee",
      "outputs": [
        {
          "internalType": "uint32",
          "name": "",
          "type": "uint32"
        }
      ],
      "stateMutability": "view",
      "type": "function"
    },
    {
      "inputs": [],
      "name": "conversionWhitelist",
      "outputs": [
        {
          "internalType": "contract IWhitelist",
          "name": "",
          "type": "address"
        }
      ],
      "stateMutability": "view",
      "type": "function"
    },
    {
      "inputs": [
        {
          "internalType": "contract IERC20",
          "name": "_sourceToken",
          "type": "address"
        },
        {
          "internalType": "contract IERC20",
          "name": "_targetToken",
          "type": "address"
        },
        {
          "internalType": "uint256",
          "name": "_amount",
          "type": "uint256"
        },
        {
          "internalType": "address",
          "name": "_trader",
          "type": "address"
        },
        {
          "internalType": "address payable",
          "name": "_beneficiary",
          "type": "address"
        }
      ],
      "name": "convert",
      "outputs": [
        {
          "internalType": "uint256",
          "name": "",
          "type": "uint256"
        }
      ],
      "stateMutability": "payable",
      "type": "function"
    },
    {
      "inputs": [
        {
          "internalType": "contract IERC20",
          "name": "_connectorToken",
          "type": "address"
        }
      ],
      "name": "getConnectorBalance",
      "outputs": [
        {
          "internalType": "uint256",
          "name": "",
          "type": "uint256"
        }
      ],
      "stateMutability": "view",
      "type": "function"
    },
    {
      "inputs": [
        {
          "internalType": "contract IERC20",
          "name": "_sourceToken",
          "type": "address"
        },
        {
          "internalType": "contract IERC20",
          "name": "_targetToken",
          "type": "address"
        },
        {
          "internalType": "uint256",
          "name": "_amount",
          "type": "uint256"
        }
      ],
      "name": "getReturn",
      "outputs": [
        {
          "internalType": "uint256",
          "name": "",
          "type": "uint256"
        },
        {
          "internalType": "uint256",
          "name": "",
          "type": "uint256"
        }
      ],
      "stateMutability": "view",
      "type": "function"
    },
    {
      "inputs": [],
      "name": "isActive",
      "outputs": [
        {
          "internalType": "bool",
          "name": "",
          "type": "bool"
        }
      ],
      "stateMutability": "view",
      "type": "function"
    },
    {
      "inputs": [],
      "name": "isV28OrHigher",
      "outputs": [
        {
          "internalType": "bool",
          "name": "",
          "type": "bool"
        }
      ],
      "stateMutability": "pure",
      "type": "function"
    },
    {
      "inputs": [],
      "name": "maxConversionFee",
      "outputs": [
        {
          "internalType": "uint32",
          "name": "",
          "type": "uint32"
        }
      ],
      "stateMutability": "view",
      "type": "function"
    },
    {
      "inputs": [],
      "name": "newOwner",
      "outputs": [
        {
          "internalType": "address",
          "name": "",
          "type": "address"
        }
      ],
      "stateMutability": "view",
      "type": "function"
    },
    {
      "inputs": [],
      "name": "onlyOwnerCanUpdateRegistry",
      "outputs": [
        {
          "internalType": "bool",
          "name": "",
          "type": "bool"
        }
      ],
      "stateMutability": "view",
      "type": "function"
    },
    {
      "inputs": [],
      "name": "owner",
      "outputs": [
        {
          "internalType": "address",
          "name": "",
          "type": "address"
        }
      ],
      "stateMutability": "view",
      "type": "function"
    },
    {
      "inputs": [],
      "name": "prevRegistry",
      "outputs": [
        {
          "internalType": "contract IContractRegistry",
          "name": "",
          "type": "address"
        }
      ],
      "stateMutability": "view",
      "type": "function"
    },
    {
      "inputs": [],
      "name": "registry",
      "outputs": [
        {
          "internalType": "contract IContractRegistry",
          "name": "",
          "type": "address"
        }
      ],
      "stateMutability": "view",
      "type": "function"
    },
    {
      "inputs": [
        {
          "internalType": "contract IERC20",
          "name": "_reserveToken",
          "type": "address"
        }
      ],
      "name": "reserveBalance",
      "outputs": [
        {
          "internalType": "uint256",
          "name": "",
          "type": "uint256"
        }
      ],
      "stateMutability": "view",
      "type": "function"
    },
    {
      "inputs": [],
      "name": "reserveRatio",
      "outputs": [
        {
          "internalType": "uint32",
          "name": "",
          "type": "uint32"
        }
      ],
      "stateMutability": "view",
      "type": "function"
    },
    {
      "inputs": [],
      "name": "reserveTokenCount",
      "outputs": [
        {
          "internalType": "uint16",
          "name": "",
          "type": "uint16"
        }
      ],
      "stateMutability": "view",
      "type": "function"
    },
    {
      "inputs": [
        {
          "internalType": "uint256",
          "name": "",
          "type": "uint256"
        }
      ],
      "name": "reserveTokens",
      "outputs": [
        {
          "internalType": "contract IERC20",
          "name": "",
          "type": "address"
        }
      ],
      "stateMutability": "view",
      "type": "function"
    },
    {
      "inputs": [
        {
          "internalType": "contract IERC20",
          "name": "_reserveToken",
          "type": "address"
        }
      ],
      "name": "reserveWeight",
      "outputs": [
        {
          "internalType": "uint32",
          "name": "",
          "type": "uint32"
        }
      ],
      "stateMutability": "view",
      "type": "function"
    },
    {
      "inputs": [
        {
          "internalType": "contract IERC20",
          "name": "",
          "type": "address"
        }
      ],
      "name": "reserves",
      "outputs": [
        {
          "internalType": "uint256",
          "name": "balance",
          "type": "uint256"
        },
        {
          "internalType": "uint32",
          "name": "weight",
          "type": "uint32"
        },
        {
          "internalType": "bool",
          "name": "deprecated1",
          "type": "bool"
        },
        {
          "internalType": "bool",
          "name": "deprecated2",
          "type": "bool"
        },
        {
          "internalType": "bool",
          "name": "isSet",
          "type": "bool"
        }
      ],
      "stateMutability": "view",
      "type": "function"
    },
    {
      "inputs": [],
      "name": "restoreRegistry",
      "outputs": [],
      "stateMutability": "nonpayable",
      "type": "function"
    },
    {
      "inputs": [
        {
          "internalType": "bool",
          "name": "_onlyOwnerCanUpdateRegistry",
          "type": "bool"
        }
      ],
      "name": "restrictRegistryUpdate",
      "outputs": [],
      "stateMutability": "nonpayable",
      "type": "function"
    },
    {
      "inputs": [
        {
          "internalType": "uint32",
          "name": "_conversionFee",
          "type": "uint32"
        }
      ],
      "name": "setConversionFee",
      "outputs": [],
      "stateMutability": "nonpayable",
      "type": "function"
    },
    {
      "inputs": [
        {
          "internalType": "contract IWhitelist",
          "name": "_whitelist",
          "type": "address"
        }
      ],
      "name": "setConversionWhitelist",
      "outputs": [],
      "stateMutability": "nonpayable",
      "type": "function"
    },
    {
      "inputs": [],
      "name": "token",
      "outputs": [
        {
          "internalType": "contract IConverterAnchor",
          "name": "",
          "type": "address"
        }
      ],
      "stateMutability": "view",
      "type": "function"
    },
    {
      "inputs": [
        {
          "internalType": "address",
          "name": "_newOwner",
          "type": "address"
        }
      ],
      "name": "transferAnchorOwnership",
      "outputs": [],
      "stateMutability": "nonpayable",
      "type": "function"
    },
    {
      "inputs": [
        {
          "internalType": "address",
          "name": "_newOwner",
          "type": "address"
        }
      ],
      "name": "transferOwnership",
      "outputs": [],
      "stateMutability": "nonpayable",
      "type": "function"
    },
    {
      "inputs": [
        {
          "internalType": "address",
          "name": "_newOwner",
          "type": "address"
        }
      ],
      "name": "transferTokenOwnership",
      "outputs": [],
      "stateMutability": "nonpayable",
      "type": "function"
    },
    {
      "inputs": [],
      "name": "updateRegistry",
      "outputs": [],
      "stateMutability": "nonpayable",
      "type": "function"
    },
    {
      "inputs": [],
      "name": "upgrade",
      "outputs": [],
      "stateMutability": "nonpayable",
      "type": "function"
    },
    {
      "inputs": [],
      "name": "version",
      "outputs": [
        {
          "internalType": "uint16",
          "name": "",
          "type": "uint16"
        }
      ],
      "stateMutability": "view",
      "type": "function"
    },
    {
      "inputs": [
        {
          "internalType": "address payable",
          "name": "_to",
          "type": "address"
        }
      ],
      "name": "withdrawETH",
      "outputs": [],
      "stateMutability": "nonpayable",
      "type": "function"
    },
    {
      "inputs": [
        {
          "internalType": "contract IERC20",
          "name": "_token",
          "type": "address"
        },
        {
          "internalType": "address",
          "name": "_to",
          "type": "address"
        },
        {
          "internalType": "uint256",
          "name": "_amount",
          "type": "uint256"
        }
      ],
      "name": "withdrawTokens",
      "outputs": [],
      "stateMutability": "nonpayable",
      "type": "function"
    },
    {
      "stateMutability": "payable",
      "type": "receive"
    },
    {
      "inputs": [],
      "name": "converterType",
      "outputs": [
        {
          "internalType": "uint16",
          "name": "",
          "type": "uint16"
        }
      ],
      "stateMutability": "pure",
      "type": "function"
    },
    {
      "inputs": [],
      "name": "acceptAnchorOwnership",
      "outputs": [],
      "stateMutability": "nonpayable",
      "type": "function"
    },
    {
      "inputs": [
        {
          "internalType": "contract IERC20",
          "name": "_token",
          "type": "address"
        },
        {
          "internalType": "uint32",
          "name": "_weight",
          "type": "uint32"
        }
      ],
      "name": "addReserve",
      "outputs": [],
      "stateMutability": "nonpayable",
      "type": "function"
    },
    {
      "inputs": [
        {
          "internalType": "contract IERC20",
          "name": "_sourceToken",
          "type": "address"
        },
        {
          "internalType": "contract IERC20",
          "name": "_targetToken",
          "type": "address"
        },
        {
          "internalType": "uint256",
          "name": "_amount",
          "type": "uint256"
        }
      ],
      "name": "targetAmountAndFee",
      "outputs": [
        {
          "internalType": "uint256",
          "name": "",
          "type": "uint256"
        },
        {
          "internalType": "uint256",
          "name": "",
          "type": "uint256"
        }
      ],
      "stateMutability": "view",
      "type": "function"
    }
  ],
  "bytecode": "0x60806040526001600455600980546001600160601b03191690553480156200002657600080fd5b50604051620031fb380380620031fb833981810160405260608110156200004c57600080fd5b5080516020820151604090920151600080546001600160a01b0319163317905590919082828281806200007f8162000116565b50600280546001600160a01b039092166001600160a01b031992831681179091556003805490921617905582620000b68162000116565b81620000c28162000175565b5050600580546001600160a01b039094166001600160a01b031990941693909317909255506009805463ffffffff9092166401000000000263ffffffff60201b1990921691909117905550620001d4915050565b6001600160a01b03811662000172576040805162461bcd60e51b815260206004820152601360248201527f4552525f494e56414c49445f4144445245535300000000000000000000000000604482015290519081900360640190fd5b50565b620f424063ffffffff8216111562000172576040805162461bcd60e51b815260206004820152601a60248201527f4552525f494e56414c49445f434f4e56455253494f4e5f464545000000000000604482015290519081900360640190fd5b61301780620001e46000396000f3fe6080604052600436106102555760003560e01c806379ba509711610139578063d260529c116100b6578063d89595121161007a578063d8959512146107ea578063dc8de3791461082f578063e8dc12ff14610862578063ecbca55d146108a8578063f2fde38b146108d8578063fc0c546a1461090b5761027b565b8063d260529c14610763578063d3fb73b414610778578063d4ee1d901461078d578063d55ec697146107a2578063d66bd524146107b75761027b565b8063af94b8d8116100fd578063af94b8d8146106b7578063b4a176d3146106fa578063c45d3d921461070f578063cdc91c6914610724578063d031370b146107395761027b565b806379ba50971461064e5780637b103999146106635780638da5cb5b1461067857806394c275ad1461068d5780639b99a8e2146106a25761027b565b80633e8ff43f116101d25780635e35359e116101965780635e35359e1461053c57806361cd756e1461057f57806367b6d57c14610594578063690d8320146105c75780636a49d2c4146105fa57806371f52bf3146106395761027b565b80633e8ff43f1461049e57806349d10b64146104ca5780634af80f0e146104df57806354fd4d5014610512578063579cd3ca146105275761027b565b80631e1401f8116102195780631e1401f8146103bc57806321e6b53d1461041857806322f3e2d41461044b5780632fe8a6ad1461047457806338a5e016146104895761027b565b8063024c7ec7146102805780630c7d5cd8146102ae5780630e53aae9146102dc57806319b64015146103435780631cfab290146103895761027b565b3661027b5773eeeeeeeeeeeeeeeeeeeeeeeeeeeeeeeeeeeeeeee61027881610920565b50005b600080fd5b34801561028c57600080fd5b506102ac600480360360208110156102a357600080fd5b50351515610990565b005b3480156102ba57600080fd5b506102c36109b6565b6040805163ffffffff9092168252519081900360200190f35b3480156102e857600080fd5b5061030f600480360360208110156102ff57600080fd5b50356001600160a01b03166109c2565b6040805195865263ffffffff9094166020860152911515848401521515606084015215156080830152519081900360a00190f35b34801561034f57600080fd5b5061036d6004803603602081101561036657600080fd5b5035610a5a565b604080516001600160a01b039092168252519081900360200190f35b34801561039557600080fd5b506102c3600480360360208110156103ac57600080fd5b50356001600160a01b0316610a84565b3480156103c857600080fd5b506103ff600480360360608110156103df57600080fd5b506001600160a01b03813581169160208101359091169060400135610ab6565b6040805192835260208301919091528051918290030190f35b34801561042457600080fd5b506102ac6004803603602081101561043b57600080fd5b50356001600160a01b0316610ad1565b34801561045757600080fd5b50610460610ae2565b604080519115158252519081900360200190f35b34801561048057600080fd5b50610460610b77565b34801561049557600080fd5b506102ac610b87565b3480156104aa57600080fd5b506104b3610b99565b6040805161ffff9092168252519081900360200190f35b3480156104d657600080fd5b506102ac610b9e565b3480156104eb57600080fd5b506102ac6004803603602081101561050257600080fd5b50356001600160a01b0316610da6565b34801561051e57600080fd5b506104b3610ddb565b34801561053357600080fd5b506102c3610de0565b34801561054857600080fd5b506102ac6004803603606081101561055f57600080fd5b506001600160a01b03813581169160208101359091169060400135610df3565b34801561058b57600080fd5b5061036d610f0e565b3480156105a057600080fd5b506102ac600480360360208110156105b757600080fd5b50356001600160a01b0316610f1d565b3480156105d357600080fd5b506102ac600480360360208110156105ea57600080fd5b50356001600160a01b0316610fb3565b34801561060657600080fd5b506102ac6004803603604081101561061d57600080fd5b5080356001600160a01b0316906020013563ffffffff166110d0565b34801561064557600080fd5b506104b3611140565b34801561065a57600080fd5b506102ac61114f565b34801561066f57600080fd5b5061036d611206565b34801561068457600080fd5b5061036d611215565b34801561069957600080fd5b506102c3611224565b3480156106ae57600080fd5b506104b3611238565b3480156106c357600080fd5b506103ff600480360360608110156106da57600080fd5b506001600160a01b0381358116916020810135909116906040013561123e565b34801561070657600080fd5b506102ac611327565b34801561071b57600080fd5b5061036d611353565b34801561073057600080fd5b506102ac611362565b34801561074557600080fd5b5061036d6004803603602081101561075c57600080fd5b50356113bb565b34801561076f57600080fd5b506104606113e2565b34801561078457600080fd5b5061036d6113e7565b34801561079957600080fd5b5061036d6113f6565b3480156107ae57600080fd5b506102ac611405565b3480156107c357600080fd5b5061030f600480360360208110156107da57600080fd5b50356001600160a01b03166114ed565b3480156107f657600080fd5b5061081d6004803603602081101561080d57600080fd5b50356001600160a01b0316611530565b60408051918252519081900360200190f35b34801561083b57600080fd5b5061081d6004803603602081101561085257600080fd5b50356001600160a01b0316611541565b61081d600480360360a081101561087857600080fd5b506001600160a01b038135811691602081013582169160408201359160608101358216916080909101351661156a565b3480156108b457600080fd5b506102ac600480360360208110156108cb57600080fd5b503563ffffffff16611764565b3480156108e457600080fd5b506102ac600480360360208110156108fb57600080fd5b50356001600160a01b031661184c565b34801561091757600080fd5b5061036d6118ca565b6001600160a01b038116600090815260086020526040902060010154600160301b900460ff1661098d576040805162461bcd60e51b81526020600482015260136024820152724552525f494e56414c49445f5245534552564560681b604482015290519081900360640190fd5b50565b6109986118d9565b60038054911515600160a01b0260ff60a01b19909216919091179055565b60095463ffffffff1681565b60008060008060006109d2612f42565b505050506001600160a01b03929092166000908152600860209081526040808320815160a081018352815480825260019092015463ffffffff811694820185905260ff64010000000082048116151594830194909452650100000000008104841615156060830152600160301b90049092161515608090920182905295919450919250829190565b600060078281548110610a6957fe5b6000918252602090912001546001600160a01b031692915050565b600081610a9081610920565b50506001600160a01b031660009081526008602052604090206001015463ffffffff1690565b600080610ac485858561123e565b915091505b935093915050565b610ad96118d9565b61098d81610f1d565b6000306001600160a01b0316600560009054906101000a90046001600160a01b03166001600160a01b0316638da5cb5b6040518163ffffffff1660e01b815260040160206040518083038186803b158015610b3c57600080fd5b505afa158015610b50573d6000803e3d6000fd5b505050506040513d6020811015610b6657600080fd5b50516001600160a01b031614905090565b600354600160a01b900460ff1681565b610b8f6118d9565b610b97611362565b565b600090565b6000546001600160a01b0316331480610bc15750600354600160a01b900460ff16155b610c06576040805162461bcd60e51b815260206004820152601160248201527011549497d050d0d154d4d7d11153925151607a1b604482015290519081900360640190fd5b6000610c246f436f6e7472616374526567697374727960801b61192c565b6002549091506001600160a01b03808316911614801590610c4d57506001600160a01b03811615155b610c95576040805162461bcd60e51b81526020600482015260146024820152734552525f494e56414c49445f524547495354525960601b604482015290519081900360640190fd5b60006001600160a01b0316816001600160a01b031663bb34534c6f436f6e7472616374526567697374727960801b6040518263ffffffff1660e01b81526004018082815260200191505060206040518083038186803b158015610cf757600080fd5b505afa158015610d0b573d6000803e3d6000fd5b505050506040513d6020811015610d2157600080fd5b50516001600160a01b03161415610d76576040805162461bcd60e51b81526020600482015260146024820152734552525f494e56414c49445f524547495354525960601b604482015290519081900360640190fd5b60028054600380546001600160a01b038084166001600160a01b0319928316179092559091169216919091179055565b610dae6118d9565b80610db8816119aa565b50600680546001600160a01b0319166001600160a01b0392909216919091179055565b602d81565b600954600160401b900463ffffffff1681565b610dfb6119fe565b6002600455610e086118d9565b6000610e2d762130b731b7b921b7b73b32b93a32b92ab833b930b232b960491b61192c565b6001600160a01b038516600090815260086020526040902060010154909150600160301b900460ff161580610e675750610e65610ae2565b155b80610e7f57506000546001600160a01b038281169116145b610ec4576040805162461bcd60e51b815260206004820152601160248201527011549497d050d0d154d4d7d11153925151607a1b604482015290519081900360640190fd5b610ecf848484611a46565b6001600160a01b038416600090815260086020526040902060010154600160301b900460ff1615610f0357610f0384611a80565b505060016004555050565b6003546001600160a01b031681565b610f256118d9565b762130b731b7b921b7b73b32b93a32b92ab833b930b232b960491b610f4981611b5e565b6005546040805163f2fde38b60e01b81526001600160a01b0385811660048301529151919092169163f2fde38b91602480830192600092919082900301818387803b158015610f9757600080fd5b505af1158015610fab573d6000803e3d6000fd5b505050505050565b610fbb6119fe565b6002600455610fc86118d9565b73eeeeeeeeeeeeeeeeeeeeeeeeeeeeeeeeeeeeeeee610fe681610920565b600061100b762130b731b7b921b7b73b32b93a32b92ab833b930b232b960491b61192c565b9050611015610ae2565b158061102e57506000546001600160a01b038281169116145b611073576040805162461bcd60e51b815260206004820152601160248201527011549497d050d0d154d4d7d11153925151607a1b604482015290519081900360640190fd5b6040516001600160a01b038416904780156108fc02916000818181858888f193505050501580156110a8573d6000803e3d6000fd5b506110c673eeeeeeeeeeeeeeeeeeeeeeeeeeeeeeeeeeeeeeee611a80565b5050600160045550565b6110d86118d9565b6110e0611238565b61ffff1615611132576040805162461bcd60e51b815260206004820152601960248201527811549497d253959053125117d49154d154959157d0d3d55395603a1b604482015290519081900360640190fd5b61113c8282611bc0565b5050565b600061114a611238565b905090565b6001546001600160a01b031633146111a2576040805162461bcd60e51b815260206004820152601160248201527011549497d050d0d154d4d7d11153925151607a1b604482015290519081900360640190fd5b600154600080546040516001600160a01b0393841693909116917f343765429aea5a34b3ff6a3785a98a5abb2597aca87bfbb58632c173d585373a91a360018054600080546001600160a01b03199081166001600160a01b03841617909155169055565b6002546001600160a01b031681565b6000546001600160a01b031681565b600954640100000000900463ffffffff1681565b60075490565b60055460009081906001600160a01b03858116911614801561128257506001600160a01b038516600090815260086020526040902060010154600160301b900460ff165b156112995761129083611de2565b91509150610ac9565b6005546001600160a01b0386811691161480156112d857506001600160a01b038416600090815260086020526040902060010154600160301b900460ff165b156112e65761129083611fc9565b6040805162461bcd60e51b815260206004820152601160248201527022a9292fa4a72b20a624a22faa27a5a2a760791b604482015290519081900360640190fd5b61132f6118d9565b600354600280546001600160a01b0319166001600160a01b03909216919091179055565b6006546001600160a01b031681565b61136a6118d9565b6113726120b2565b6005546001906001600160a01b0316611389610b99565b61ffff167f6b08c2e2c9969e55a647a764db9b554d64dc42f1a704da11a6d5b129ad163f2c60405160405180910390a4565b600781815481106113c857fe5b6000918252602090912001546001600160a01b0316905081565b600190565b6005546001600160a01b031681565b6001546001600160a01b031681565b61140d6118d9565b6000611432762130b731b7b921b7b73b32b93a32b92ab833b930b232b960491b61192c565b6005549091506000906001600160a01b031661144c610b99565b61ffff167f6b08c2e2c9969e55a647a764db9b554d64dc42f1a704da11a6d5b129ad163f2c60405160405180910390a46114858161184c565b6040805163487ac64b60e11b8152602d600482015290516001600160a01b038316916390f58c9691602480830192600092919082900301818387803b1580156114cd57600080fd5b505af11580156114e1573d6000803e3d6000fd5b5050505061098d61114f565b6008602052600090815260409020805460019091015463ffffffff81169060ff6401000000008204811691650100000000008104821691600160301b9091041685565b600061153b82611541565b92915050565b60008161154d81610920565b50506001600160a01b031660009081526008602052604090205490565b60006115746119fe565b60026004556c42616e636f724e6574776f726b60981b61159381611b5e565b856001600160a01b0316876001600160a01b031614156115f3576040805162461bcd60e51b815260206004820152601660248201527511549497d4d0535157d4d3d55490d157d5105491d15560521b604482015290519081900360640190fd5b6006546001600160a01b03161580611700575060065460408051633af32abf60e01b81526001600160a01b03878116600483015291519190921691633af32abf916024808301926020929190829003018186803b15801561165357600080fd5b505afa158015611667573d6000803e3d6000fd5b505050506040513d602081101561167d57600080fd5b50518015611700575060065460408051633af32abf60e01b81526001600160a01b03868116600483015291519190921691633af32abf916024808301926020929190829003018186803b1580156116d357600080fd5b505afa1580156116e7573d6000803e3d6000fd5b505050506040513d60208110156116fd57600080fd5b50515b611747576040805162461bcd60e51b815260206004820152601360248201527211549497d393d517d5d2125511531254d51151606a1b604482015290519081900360640190fd5b6117548787878787612186565b6001600455979650505050505050565b61176c6118d9565b60095463ffffffff640100000000909104811690821611156117d5576040805162461bcd60e51b815260206004820152601a60248201527f4552525f494e56414c49445f434f4e56455253494f4e5f464545000000000000604482015290519081900360640190fd5b6009546040805163ffffffff600160401b90930483168152918316602083015280517f81cd2ffb37dd237c0e4e2a3de5265fcf9deb43d3e7801e80db9f1ccfba7ee6009281900390910190a16009805463ffffffff909216600160401b026bffffffff000000000000000019909216919091179055565b6118546118d9565b6000546001600160a01b03828116911614156118a8576040805162461bcd60e51b815260206004820152600e60248201526d22a9292fa9a0a6a2afa7aba722a960911b604482015290519081900360640190fd5b600180546001600160a01b0319166001600160a01b0392909216919091179055565b6005546001600160a01b031690565b6000546001600160a01b03163314610b97576040805162461bcd60e51b815260206004820152601160248201527011549497d050d0d154d4d7d11153925151607a1b604482015290519081900360640190fd5b60025460408051632ecd14d360e21b81526004810184905290516000926001600160a01b03169163bb34534c916024808301926020929190829003018186803b15801561197857600080fd5b505afa15801561198c573d6000803e3d6000fd5b505050506040513d60208110156119a257600080fd5b505192915050565b6001600160a01b03811630141561098d576040805162461bcd60e51b815260206004820152601360248201527222a9292fa0a2222922a9a9afa4a9afa9a2a62360691b604482015290519081900360640190fd5b600160045414610b97576040805162461bcd60e51b815260206004820152600e60248201526d4552525f5245454e5452414e435960901b604482015290519081900360640190fd5b611a4e6118d9565b82611a5881612344565b82611a6281612344565b83611a6c816119aa565b610fab6001600160a01b0387168686612395565b80611a8a81610920565b6001600160a01b03821673eeeeeeeeeeeeeeeeeeeeeeeeeeeeeeeeeeeeeeee1415611acf576001600160a01b038216600090815260086020526040902047905561113c565b604080516370a0823160e01b815230600482015290516001600160a01b038416916370a08231916024808301926020929190829003018186803b158015611b1557600080fd5b505afa158015611b29573d6000803e3d6000fd5b505050506040513d6020811015611b3f57600080fd5b50516001600160a01b0383166000908152600860205260409020555050565b611b678161192c565b6001600160a01b0316336001600160a01b03161461098d576040805162461bcd60e51b815260206004820152601160248201527011549497d050d0d154d4d7d11153925151607a1b604482015290519081900360640190fd5b611bc86118d9565b611bd06123ec565b81611bda81612344565b82611be4816119aa565b82611bee81612433565b6005546001600160a01b03868116911614801590611c2f57506001600160a01b038516600090815260086020526040902060010154600160301b900460ff16155b611c76576040805162461bcd60e51b81526020600482015260136024820152724552525f494e56414c49445f5245534552564560681b604482015290519081900360640190fd5b60095463ffffffff908116620f42400381169085161115611cde576040805162461bcd60e51b815260206004820152601a60248201527f4552525f494e56414c49445f524553455256455f574549474854000000000000604482015290519081900360640190fd5b61ffff611ce9611238565b61ffff1610611d3b576040805162461bcd60e51b815260206004820152601960248201527811549497d253959053125117d49154d154959157d0d3d55395603a1b604482015290519081900360640190fd5b5050506001600160a01b0390911660008181526008602052604081208181556001908101805466ff0000000000001963ffffffff80881663ffffffff199384161791909116600160301b179092556007805493840181559093527fa66cc928b5edb82af9bd49922954155ab7b0942694bea4ce44661d9a8736c68890910180546001600160a01b031916909317909255600980548084169094019092169216919091179055565b600080611ded6124a3565b600554604080516318160ddd60e01b815290516000926001600160a01b0316916318160ddd916004808301926020929190829003018186803b158015611e3257600080fd5b505afa158015611e46573d6000803e3d6000fd5b505050506040513d6020811015611e5c57600080fd5b5051600780549192506000918290611e7057fe5b6000918252602090912001546001600160a01b0316905081611ed9576001600160a01b038116600090815260086020526040902060010154611ecc9063ffffffff90811690611ec6908890620f4240906124eb16565b9061254b565b6000935093505050611fc4565b6000611ef46c42616e636f72466f726d756c6160981b61192c565b6001600160a01b031663f3250fe284611f0c85611541565b6001600160a01b0386166000908152600860209081526040918290206001015482516001600160e01b031960e088901b1681526004810195909552602485019390935263ffffffff9092166044840152606483018b905251608480840193829003018186803b158015611f7e57600080fd5b505afa158015611f92573d6000803e3d6000fd5b505050506040513d6020811015611fa857600080fd5b505190506000611fb7826125b2565b9182900395509093505050505b915091565b600080611fd46124a3565b600554604080516318160ddd60e01b815290516000926001600160a01b0316916318160ddd916004808301926020929190829003018186803b15801561201957600080fd5b505afa15801561202d573d6000803e3d6000fd5b505050506040513d602081101561204357600080fd5b505160078054919250600091829061205757fe5b6000918252602090912001546001600160a01b031690508185141561207f57611ecc81611541565b600061209a6c42616e636f72466f726d756c6160981b61192c565b6001600160a01b03166376cf0b5684611f0c85611541565b6120ba6118d9565b60006120c4611238565b61ffff1611612116576040805162461bcd60e51b815260206004820152601960248201527811549497d253959053125117d49154d154959157d0d3d55395603a1b604482015290519081900360640190fd5b600560009054906101000a90046001600160a01b03166001600160a01b03166379ba50976040518163ffffffff1660e01b8152600401600060405180830381600087803b15801561216657600080fd5b505af115801561217a573d6000803e3d6000fd5b50505050610b976125e7565b600554600090819081906001600160a01b0388811691161480156121cc57506001600160a01b038816600090815260086020526040902060010154600160301b900460ff165b156121e55750866121de868686612627565b9150612236565b6005546001600160a01b03898116911614801561222457506001600160a01b038716600090815260086020526040902060010154600160301b900460ff165b156112e65750856121de868686612897565b600554604080516318160ddd60e01b815290516000926001600160a01b0316916318160ddd916004808301926020929190829003018186803b15801561227b57600080fd5b505afa15801561228f573d6000803e3d6000fd5b505050506040513d60208110156122a557600080fd5b50516001600160a01b0380841660008181526008602052604090206001015460055493945063ffffffff16929091167f77f29993cf2c084e726f7e802da0719d6a0ade3e204badc7a3ffd57ecb768c2461230b620f424061230588611541565b906124eb565b61231e8663ffffffff808816906124eb16565b6040805192835260208301919091528051918290030190a3509198975050505050505050565b6001600160a01b03811661098d576040805162461bcd60e51b81526020600482015260136024820152724552525f494e56414c49445f4144445245535360681b604482015290519081900360640190fd5b604080516001600160a01b038416602482015260448082018490528251808303909101815260649091019091526020810180516001600160e01b031663a9059cbb60e01b1790526123e7908490612bae565b505050565b6123f4610ae2565b15610b97576040805162461bcd60e51b815260206004820152600a6024820152694552525f41435449564560b01b604482015290519081900360640190fd5b60008163ffffffff161180156124525750620f424063ffffffff821611155b61098d576040805162461bcd60e51b815260206004820152601a60248201527f4552525f494e56414c49445f524553455256455f574549474854000000000000604482015290519081900360640190fd5b6124ab610ae2565b610b97576040805162461bcd60e51b815260206004820152600c60248201526b4552525f494e41435449564560a01b604482015290519081900360640190fd5b6000826124fa5750600061153b565b8282028284828161250757fe5b04146125445760405162461bcd60e51b8152600401808060200182810382526021815260200180612f976021913960400191505060405180910390fd5b9392505050565b60008082116125a1576040805162461bcd60e51b815260206004820152601a60248201527f536166654d6174683a206469766973696f6e206279207a65726f000000000000604482015290519081900360640190fd5b8183816125aa57fe5b049392505050565b600954600090620f4240906125d9908490600160401b900463ffffffff908116906124eb16565b816125e057fe5b0492915050565b60075460005b8181101561113c5761261f6007828154811061260557fe5b6000918252602090912001546001600160a01b0316611a80565b6001016125ed565b600080600061263586611de2565b915091508160001415612688576040805162461bcd60e51b815260206004820152601660248201527511549497d6915493d7d5105491d15517d05353d5539560521b604482015290519081900360640190fd5b6000600760008154811061269857fe5b6000918252602090912001546001600160a01b0316905073eeeeeeeeeeeeeeeeeeeeeeeeeeeeeeeeeeeeeeee8114156127245786341461271f576040805162461bcd60e51b815260206004820152601760248201527f4552525f4554485f414d4f554e545f4d49534d41544348000000000000000000604482015290519081900360640190fd5b6127fb565b341580156127b55750866127b261273a83611541565b604080516370a0823160e01b815230600482015290516001600160a01b038616916370a08231916024808301926020929190829003018186803b15801561278057600080fd5b505afa158015612794573d6000803e3d6000fd5b505050506040513d60208110156127aa57600080fd5b505190612c5f565b10155b6127fb576040805162461bcd60e51b815260206004820152601260248201527111549497d253959053125117d05353d5539560721b604482015290519081900360640190fd5b61280481611a80565b6005546040805163219e412d60e21b81526001600160a01b038881166004830152602482018790529151919092169163867904b491604480830192600092919082900301818387803b15801561285957600080fd5b505af115801561286d573d6000803e3d6000fd5b505060055461288c92508391506001600160a01b0316888a8787612cbc565b509095945050505050565b600554604080516370a0823160e01b815230600482015290516000926001600160a01b0316916370a08231916024808301926020929190829003018186803b1580156128e257600080fd5b505afa1580156128f6573d6000803e3d6000fd5b505050506040513d602081101561290c57600080fd5b5051841115612957576040805162461bcd60e51b815260206004820152601260248201527111549497d253959053125117d05353d5539560721b604482015290519081900360640190fd5b60008061296386611fc9565b9150915081600014156129b6576040805162461bcd60e51b815260206004820152601660248201527511549497d6915493d7d5105491d15517d05353d5539560521b604482015290519081900360640190fd5b600060076000815481106129c657fe5b6000918252602080832090910154600554604080516318160ddd60e01b815290516001600160a01b03938416965091909216926318160ddd9260048082019391829003018186803b158015612a1a57600080fd5b505afa158015612a2e573d6000803e3d6000fd5b505050506040513d6020811015612a4457600080fd5b505190506000612a5383611541565b905080851080612a6c57508085148015612a6c57508189145b612a7257fe5b6005546040805163a24835d160e01b8152306004820152602481018c905290516001600160a01b039092169163a24835d19160448082019260009290919082900301818387803b158015612ac557600080fd5b505af1158015612ad9573d6000803e3d6000fd5b5050506001600160a01b038416600090815260086020526040902054612b00915086612c5f565b6001600160a01b03841660008181526008602052604090209190915573eeeeeeeeeeeeeeeeeeeeeeeeeeeeeeeeeeeeeeee1415612b73576040516001600160a01b0388169086156108fc029087906000818181858888f19350505050158015612b6d573d6000803e3d6000fd5b50612b87565b612b876001600160a01b0384168887612395565b600554612ba1906001600160a01b0316848a8c8989612cbc565b5092979650505050505050565b6060612c03826040518060400160405280602081526020017f5361666545524332303a206c6f772d6c6576656c2063616c6c206661696c6564815250856001600160a01b0316612d259092919063ffffffff16565b8051909150156123e757808060200190516020811015612c2257600080fd5b50516123e75760405162461bcd60e51b815260040180806020018281038252602a815260200180612fb8602a913960400191505060405180910390fd5b600082821115612cb6576040805162461bcd60e51b815260206004820152601e60248201527f536166654d6174683a207375627472616374696f6e206f766572666c6f770000604482015290519081900360640190fd5b50900390565b600160ff1b8110612cc957fe5b604080518481526020810184905280820183905290516001600160a01b038087169288821692918a16917f276856b36cbc45526a0ba64f44611557a2a8b68662c5388e9fe6d72e86e1c8cb9181900360600190a4505050505050565b6060612d348484600085612d3c565b949350505050565b606082471015612d7d5760405162461bcd60e51b8152600401808060200182810382526026815260200180612f716026913960400191505060405180910390fd5b612d8685612e98565b612dd7576040805162461bcd60e51b815260206004820152601d60248201527f416464726573733a2063616c6c20746f206e6f6e2d636f6e7472616374000000604482015290519081900360640190fd5b60006060866001600160a01b031685876040518082805190602001908083835b60208310612e165780518252601f199092019160209182019101612df7565b6001836020036101000a03801982511681845116808217855250505050505090500191505060006040518083038185875af1925050503d8060008114612e78576040519150601f19603f3d011682016040523d82523d6000602084013e612e7d565b606091505b5091509150612e8d828286612e9e565b979650505050505050565b3b151590565b60608315612ead575081612544565b825115612ebd5782518084602001fd5b8160405162461bcd60e51b81526004018080602001828103825283818151815260200191508051906020019080838360005b83811015612f07578181015183820152602001612eef565b50505050905090810190601f168015612f345780820380516001836020036101000a031916815260200191505b509250505060405180910390fd5b6040805160a0810182526000808252602082018190529181018290526060810182905260808101919091529056fe416464726573733a20696e73756666696369656e742062616c616e636520666f722063616c6c536166654d6174683a206d756c7469706c69636174696f6e206f766572666c6f775361666545524332303a204552433230206f7065726174696f6e20646964206e6f742073756363656564a264697066735822122015d479805baaf2539705488a118e1fd4be2ce5c695297f2fcf630d5488a161cf64736f6c634300060c0033",
  "immutableReferences": {},
  "source": "// SPDX-License-Identifier: SEE LICENSE IN LICENSE\npragma solidity 0.6.12;\n\nimport \"../../ConverterBase.sol\";\nimport \"../../../token/interfaces/IDSToken.sol\";\n\n/**\n * @dev This contract is a specialized version of a converter that manages a liquid token.\n *\n * The converters govern a token with a single reserve and allow converting between the two.\n * Liquid tokens usually have fractional reserve (reserve ratio smaller than 100%).\n */\ncontract LiquidTokenConverter is ConverterBase {\n    using SafeERC20 for IERC20;\n\n    /**\n     * @dev initializes a new LiquidTokenConverter instance\n     *\n     * @param  _token              liquid token governed by the converter\n     * @param  _registry           address of a contract registry contract\n     * @param  _maxConversionFee   maximum conversion fee, represented in ppm\n     */\n    constructor(\n        IDSToken _token,\n        IContractRegistry _registry,\n        uint32 _maxConversionFee\n    ) public ConverterBase(_token, _registry, _maxConversionFee) {}\n\n    /**\n     * @dev returns the converter type\n     *\n     * @return see the converter types in the the main contract doc\n     */\n    function converterType() public pure override returns (uint16) {\n        return 0;\n    }\n\n    /**\n     * @dev accepts ownership of the anchor after an ownership transfer\n     * also activates the converter\n     * can only be called by the contract owner\n     * note that prior to version 28, you should use 'acceptTokenOwnership' instead\n     */\n    function acceptAnchorOwnership() public override ownerOnly {\n        super.acceptAnchorOwnership();\n\n        emit Activation(converterType(), anchor, true);\n    }\n\n    /**\n     * @dev defines the reserve token for the converter\n     * can only be called by the owner while the converter is inactive and the\n     * reserve wasn't defined yet\n     *\n     * @param _token   address of the reserve token\n     * @param _weight  reserve weight, represented in ppm, 1-1000000\n     */\n    function addReserve(IERC20 _token, uint32 _weight) public override ownerOnly {\n        // verify that the converter doesn't have a reserve yet\n        require(reserveTokenCount() == 0, \"ERR_INVALID_RESERVE_COUNT\");\n        super.addReserve(_token, _weight);\n    }\n\n    /**\n     * @dev returns the expected target amount of converting the source token to the\n     * target token along with the fee\n     *\n     * @param _sourceToken contract address of the source token\n     * @param _targetToken contract address of the target token\n     * @param _amount      amount of tokens received from the user\n     *\n     * @return expected target amount\n     * @return expected fee\n     */\n    function targetAmountAndFee(\n        IERC20 _sourceToken,\n        IERC20 _targetToken,\n        uint256 _amount\n    ) public view override returns (uint256, uint256) {\n        if (_targetToken == IDSToken(address(anchor)) && reserves[_sourceToken].isSet)\n            return purchaseTargetAmount(_amount);\n        if (_sourceToken == IDSToken(address(anchor)) && reserves[_targetToken].isSet) return saleTargetAmount(_amount);\n\n        // invalid input\n        revert(\"ERR_INVALID_TOKEN\");\n    }\n\n    /**\n     * @dev converts between the liquid token and its reserve\n     * can only be called by the bancor network contract\n     *\n     * @param _sourceToken source ERC20 token\n     * @param _targetToken target ERC20 token\n     * @param _amount      amount of tokens to convert (in units of the source token)\n     * @param _trader      address of the caller who executed the conversion\n     * @param _beneficiary wallet to receive the conversion result\n     *\n     * @return amount of tokens received (in units of the target token)\n     */\n    function doConvert(\n        IERC20 _sourceToken,\n        IERC20 _targetToken,\n        uint256 _amount,\n        address _trader,\n        address payable _beneficiary\n    ) internal override returns (uint256) {\n        uint256 targetAmount;\n        IERC20 reserveToken;\n\n        if (_targetToken == IDSToken(address(anchor)) && reserves[_sourceToken].isSet) {\n            reserveToken = _sourceToken;\n            targetAmount = buy(_amount, _trader, _beneficiary);\n        } else if (_sourceToken == IDSToken(address(anchor)) && reserves[_targetToken].isSet) {\n            reserveToken = _targetToken;\n            targetAmount = sell(_amount, _trader, _beneficiary);\n        } else {\n            // invalid input\n            revert(\"ERR_INVALID_TOKEN\");\n        }\n\n        // dispatch rate update for the liquid token\n        uint256 totalSupply = IDSToken(address(anchor)).totalSupply();\n        uint32 reserveWeight = reserves[reserveToken].weight;\n        emit TokenRateUpdate(\n            IDSToken(address(anchor)),\n            reserveToken,\n            reserveBalance(reserveToken).mul(PPM_RESOLUTION),\n            totalSupply.mul(reserveWeight)\n        );\n\n        return targetAmount;\n    }\n\n    /**\n     * @dev returns the expected target amount of buying with a given amount of tokens\n     *\n     * @param _amount  amount of reserve tokens to get the target amount for\n     *\n     * @return amount of liquid tokens that the user will receive\n     * @return amount of liquid tokens that the user will pay as fee\n     */\n    function purchaseTargetAmount(uint256 _amount) internal view active returns (uint256, uint256) {\n        uint256 totalSupply = IDSToken(address(anchor)).totalSupply();\n        IERC20 reserveToken = reserveTokens[0];\n\n        // if the current supply is zero, then return the input amount divided by the normalized reserve-weight\n        if (totalSupply == 0) return (_amount.mul(PPM_RESOLUTION).div(reserves[reserveToken].weight), 0);\n\n        uint256 amount =\n            IBancorFormula(addressOf(BANCOR_FORMULA)).purchaseTargetAmount(\n                totalSupply,\n                reserveBalance(reserveToken),\n                reserves[reserveToken].weight,\n                _amount\n            );\n\n        // return the amount minus the conversion fee and the conversion fee\n        uint256 fee = calculateFee(amount);\n        return (amount - fee, fee);\n    }\n\n    /**\n     * @dev returns the expected target amount of selling a given amount of tokens\n     *\n     * @param _amount  amount of liquid tokens to get the target amount for\n     *\n     * @return expected reserve tokens\n     * @return expected fee\n     */\n    function saleTargetAmount(uint256 _amount) internal view active returns (uint256, uint256) {\n        uint256 totalSupply = IDSToken(address(anchor)).totalSupply();\n\n        IERC20 reserveToken = reserveTokens[0];\n\n        // if selling the entire supply, then return the entire reserve\n        if (totalSupply == _amount) return (reserveBalance(reserveToken), 0);\n\n        uint256 amount =\n            IBancorFormula(addressOf(BANCOR_FORMULA)).saleTargetAmount(\n                totalSupply,\n                reserveBalance(reserveToken),\n                reserves[reserveToken].weight,\n                _amount\n            );\n\n        // return the amount minus the conversion fee and the conversion fee\n        uint256 fee = calculateFee(amount);\n        return (amount - fee, fee);\n    }\n\n    /**\n     * @dev buys the liquid token by depositing in its reserve\n     *\n     * @param _amount      amount of reserve token to buy the token for\n     * @param _trader      address of the caller who executed the conversion\n     * @param _beneficiary wallet to receive the conversion result\n     *\n     * @return amount of liquid tokens received\n     */\n    function buy(\n        uint256 _amount,\n        address _trader,\n        address _beneficiary\n    ) internal returns (uint256) {\n        // get expected target amount and fee\n        (uint256 amount, uint256 fee) = purchaseTargetAmount(_amount);\n\n        // ensure the trade gives something in return\n        require(amount != 0, \"ERR_ZERO_TARGET_AMOUNT\");\n\n        IERC20 reserveToken = reserveTokens[0];\n\n        // ensure that the input amount was already deposited\n        if (reserveToken == ETH_RESERVE_ADDRESS) require(msg.value == _amount, \"ERR_ETH_AMOUNT_MISMATCH\");\n        else\n            require(\n                msg.value == 0 && reserveToken.balanceOf(address(this)).sub(reserveBalance(reserveToken)) >= _amount,\n                \"ERR_INVALID_AMOUNT\"\n            );\n\n        // sync the reserve balance\n        syncReserveBalance(reserveToken);\n\n        // issue new funds to the beneficiary in the liquid token\n        IDSToken(address(anchor)).issue(_beneficiary, amount);\n\n        // dispatch the conversion event\n        dispatchConversionEvent(reserveToken, IDSToken(address(anchor)), _trader, _amount, amount, fee);\n\n        return amount;\n    }\n\n    /**\n     * @dev sells the liquid token by withdrawing from its reserve\n     *\n     * @param _amount      amount of liquid tokens to sell\n     * @param _trader      address of the caller who executed the conversion\n     * @param _beneficiary wallet to receive the conversion result\n     *\n     * @return amount of reserve tokens received\n     */\n    function sell(\n        uint256 _amount,\n        address _trader,\n        address payable _beneficiary\n    ) internal returns (uint256) {\n        // ensure that the input amount was already deposited\n        require(_amount <= IDSToken(address(anchor)).balanceOf(address(this)), \"ERR_INVALID_AMOUNT\");\n\n        // get expected target amount and fee\n        (uint256 amount, uint256 fee) = saleTargetAmount(_amount);\n\n        // ensure the trade gives something in return\n        require(amount != 0, \"ERR_ZERO_TARGET_AMOUNT\");\n\n        IERC20 reserveToken = reserveTokens[0];\n\n        // ensure that the trade will only deplete the reserve balance if the total supply is depleted as well\n        uint256 tokenSupply = IDSToken(address(anchor)).totalSupply();\n        uint256 rsvBalance = reserveBalance(reserveToken);\n        assert(amount < rsvBalance || (amount == rsvBalance && _amount == tokenSupply));\n\n        // destroy the tokens from the converter balance in the liquid token\n        IDSToken(address(anchor)).destroy(address(this), _amount);\n\n        // update the reserve balance\n        reserves[reserveToken].balance = reserves[reserveToken].balance.sub(amount);\n\n        // transfer funds to the beneficiary in the reserve token\n        if (reserveToken == ETH_RESERVE_ADDRESS) {\n            _beneficiary.transfer(amount);\n        } else {\n            reserveToken.safeTransfer(_beneficiary, amount);\n        }\n\n        // dispatch the conversion event\n        dispatchConversionEvent(IDSToken(address(anchor)), reserveToken, _trader, _amount, amount, fee);\n\n        return amount;\n    }\n}\n",
  "sourcePath": "/Users/dennismacpro/Projects/Defi/Ethereum-Solidity-Collection/icarus-protocol/defi-seeder/.tmp/bancor/contracts-solidity/solidity/contracts/converter/types/liquid-token/LiquidTokenConverter.sol",
  "compiler": {
    "name": "solc",
    "version": "0.6.12+commit.27d51765.Emscripten.clang"
  },
  "schemaVersion": "3.3.3",
  "updatedAt": "2021-04-01T18:17:51.980Z",
  "devdoc": {
    "details": "This contract is a specialized version of a converter that manages a liquid token. The converters govern a token with a single reserve and allow converting between the two. Liquid tokens usually have fractional reserve (reserve ratio smaller than 100%).",
    "kind": "dev",
    "methods": {
      "acceptAnchorOwnership()": {
        "details": "accepts ownership of the anchor after an ownership transfer also activates the converter can only be called by the contract owner note that prior to version 28, you should use 'acceptTokenOwnership' instead"
      },
      "acceptOwnership()": {
        "details": "used by a new owner to accept an ownership transfer"
      },
      "acceptTokenOwnership()": {
        "details": "deprecated, backward compatibility"
      },
      "addReserve(address,uint32)": {
        "details": "defines the reserve token for the converter can only be called by the owner while the converter is inactive and the reserve wasn't defined yet",
        "params": {
          "_token": "address of the reserve token",
          "_weight": "reserve weight, represented in ppm, 1-1000000"
        }
      },
      "connectorTokenCount()": {
        "details": "deprecated, backward compatibility"
      },
      "connectorTokens(uint256)": {
        "details": "deprecated, backward compatibility"
      },
      "connectors(address)": {
        "details": "deprecated, backward compatibility"
      },
      "constructor": {
        "details": "initializes a new LiquidTokenConverter instance",
        "params": {
          "_maxConversionFee": "maximum conversion fee, represented in ppm",
          "_registry": "address of a contract registry contract",
          "_token": "liquid token governed by the converter"
        }
      },
      "convert(address,address,uint256,address,address)": {
        "details": "converts a specific amount of source tokens to target tokens can only be called by the bancor network contract",
        "params": {
          "_amount": "amount of tokens to convert (in units of the source token)",
          "_beneficiary": "wallet to receive the conversion result",
          "_sourceToken": "source ERC20 token",
          "_targetToken": "target ERC20 token",
          "_trader": "address of the caller who executed the conversion"
        },
        "returns": {
          "_0": "amount of tokens received (in units of the target token)"
        }
      },
      "converterType()": {
        "details": "returns the converter type",
        "returns": {
          "_0": "see the converter types in the the main contract doc"
        }
      },
      "getConnectorBalance(address)": {
        "details": "deprecated, backward compatibility"
      },
      "getReturn(address,address,uint256)": {
        "details": "deprecated, backward compatibility"
      },
      "isActive()": {
        "details": "returns true if the converter is active, false otherwise",
        "returns": {
          "_0": "true if the converter is active, false otherwise"
        }
      },
      "isV28OrHigher()": {
        "details": "checks whether or not the converter version is 28 or higher",
        "returns": {
          "_0": "true, since the converter version is 28 or higher"
        }
      },
      "reserveBalance(address)": {
        "details": "returns the reserve's balance note that prior to version 17, you should use 'getConnectorBalance' instead",
        "params": {
          "_reserveToken": "reserve token contract address"
        },
        "returns": {
          "_0": "reserve balance"
        }
      },
      "reserveTokenCount()": {
        "details": "returns the number of reserve tokens note that prior to version 17, you should use 'connectorTokenCount' instead",
        "returns": {
          "_0": "number of reserve tokens"
        }
      },
      "reserveWeight(address)": {
        "details": "returns the reserve's weight added in version 28",
        "params": {
          "_reserveToken": "reserve token contract address"
        },
        "returns": {
          "_0": "reserve weight"
        }
      },
      "restoreRegistry()": {
        "details": "restores the previous contract-registry"
      },
      "restrictRegistryUpdate(bool)": {
        "details": "restricts the permission to update the contract-registry",
        "params": {
          "_onlyOwnerCanUpdateRegistry": "indicates whether or not permission is restricted to owner only"
        }
      },
      "setConversionFee(uint32)": {
        "details": "updates the current conversion fee can only be called by the contract owner",
        "params": {
          "_conversionFee": "new conversion fee, represented in ppm"
        }
      },
      "setConversionWhitelist(address)": {
        "details": "allows the owner to update & enable the conversion whitelist contract address when set, only addresses that are whitelisted are actually allowed to use the converter note that the whitelist check is actually done by the BancorNetwork contract",
        "params": {
          "_whitelist": "address of a whitelist contract"
        }
      },
      "targetAmountAndFee(address,address,uint256)": {
        "details": "returns the expected target amount of converting the source token to the target token along with the fee",
        "params": {
          "_amount": "amount of tokens received from the user",
          "_sourceToken": "contract address of the source token",
          "_targetToken": "contract address of the target token"
        },
        "returns": {
          "_0": "expected target amount",
          "_1": "expected fee"
        }
      },
      "token()": {
        "details": "deprecated since version 28, backward compatibility - use only for earlier versions"
      },
      "transferAnchorOwnership(address)": {
        "details": "transfers the anchor ownership the new owner needs to accept the transfer can only be called by the converter upgrder while the upgrader is the owner note that prior to version 28, you should use 'transferAnchorOwnership' instead",
        "params": {
          "_newOwner": "new token owner"
        }
      },
      "transferOwnership(address)": {
        "details": "allows transferring the contract ownership the new owner still needs to accept the transfer can only be called by the contract owner",
        "params": {
          "_newOwner": "new contract owner"
        }
      },
      "transferTokenOwnership(address)": {
        "details": "deprecated, backward compatibility"
      },
      "updateRegistry()": {
        "details": "updates to the new contract-registry"
      },
      "upgrade()": {
        "details": "upgrades the converter to the latest version can only be called by the owner note that the owner needs to call acceptOwnership on the new converter after the upgrade"
      },
      "withdrawETH(address)": {
        "details": "withdraws ether can only be called by the owner if the converter is inactive or by upgrader contract can only be called after the upgrader contract has accepted the ownership of this contract can only be called if the converter has an ETH reserve",
        "params": {
          "_to": "address to send the ETH to"
        }
      },
      "withdrawTokens(address,address,uint256)": {
        "details": "withdraws tokens held by the converter and sends them to an account can only be called by the owner note that reserve tokens can only be withdrawn by the owner while the converter is inactive unless the owner is the converter upgrader contract",
        "params": {
          "_amount": "amount to withdraw",
          "_to": "account to receive the new amount",
          "_token": "ERC20 token contract address"
        }
      }
    },
    "version": 1
  },
  "userdoc": {
    "kind": "user",
    "methods": {},
    "version": 1
  }
}