{
  "contractName": "Owned",
  "abi": [
    {
      "inputs": [],
      "stateMutability": "nonpayable",
      "type": "constructor"
    },
    {
      "anonymous": false,
      "inputs": [
        {
          "indexed": true,
          "internalType": "address",
          "name": "_prevOwner",
          "type": "address"
        },
        {
          "indexed": true,
          "internalType": "address",
          "name": "_newOwner",
          "type": "address"
        }
      ],
      "name": "OwnerUpdate",
      "type": "event"
    },
    {
      "inputs": [],
      "name": "newOwner",
      "outputs": [
        {
          "internalType": "address",
          "name": "",
          "type": "address"
        }
      ],
      "stateMutability": "view",
      "type": "function"
    },
    {
      "inputs": [],
      "name": "owner",
      "outputs": [
        {
          "internalType": "address",
          "name": "",
          "type": "address"
        }
      ],
      "stateMutability": "view",
      "type": "function"
    },
    {
      "inputs": [
        {
          "internalType": "address",
          "name": "_newOwner",
          "type": "address"
        }
      ],
      "name": "transferOwnership",
      "outputs": [],
      "stateMutability": "nonpayable",
      "type": "function"
    },
    {
      "inputs": [],
      "name": "acceptOwnership",
      "outputs": [],
      "stateMutability": "nonpayable",
      "type": "function"
    }
  ],
  "bytecode": "0x608060405234801561001057600080fd5b50600080546001600160a01b0319163317905561028b806100326000396000f3fe608060405234801561001057600080fd5b506004361061004c5760003560e01c806379ba5097146100515780638da5cb5b1461005b578063d4ee1d901461007f578063f2fde38b14610087575b600080fd5b6100596100ad565b005b610063610164565b604080516001600160a01b039092168252519081900360200190f35b610063610173565b6100596004803603602081101561009d57600080fd5b50356001600160a01b0316610182565b6001546001600160a01b03163314610100576040805162461bcd60e51b815260206004820152601160248201527011549497d050d0d154d4d7d11153925151607a1b604482015290519081900360640190fd5b600154600080546040516001600160a01b0393841693909116917f343765429aea5a34b3ff6a3785a98a5abb2597aca87bfbb58632c173d585373a91a360018054600080546001600160a01b03199081166001600160a01b03841617909155169055565b6000546001600160a01b031681565b6001546001600160a01b031681565b61018a610200565b6000546001600160a01b03828116911614156101de576040805162461bcd60e51b815260206004820152600e60248201526d22a9292fa9a0a6a2afa7aba722a960911b604482015290519081900360640190fd5b600180546001600160a01b0319166001600160a01b0392909216919091179055565b6000546001600160a01b03163314610253576040805162461bcd60e51b815260206004820152601160248201527011549497d050d0d154d4d7d11153925151607a1b604482015290519081900360640190fd5b56fea2646970667358221220ec2f7855ca36eb38d5467cfa75cac7c7eeeac91b31b555c990b1e5627061be0b64736f6c634300060c0033",
  "immutableReferences": {},
  "source": "// SPDX-License-Identifier: SEE LICENSE IN LICENSE\npragma solidity 0.6.12;\nimport \"./interfaces/IOwned.sol\";\n\n/**\n * @dev This contract provides support and utilities for contract ownership.\n */\ncontract Owned is IOwned {\n    address public override owner;\n    address public newOwner;\n\n    /**\n     * @dev triggered when the owner is updated\n     *\n     * @param _prevOwner previous owner\n     * @param _newOwner  new owner\n     */\n    event OwnerUpdate(address indexed _prevOwner, address indexed _newOwner);\n\n    /**\n     * @dev initializes a new Owned instance\n     */\n    constructor() public {\n        owner = msg.sender;\n    }\n\n    // allows execution by the owner only\n    modifier ownerOnly {\n        _ownerOnly();\n        _;\n    }\n\n    // error message binary size optimization\n    function _ownerOnly() internal view {\n        require(msg.sender == owner, \"ERR_ACCESS_DENIED\");\n    }\n\n    /**\n     * @dev allows transferring the contract ownership\n     * the new owner still needs to accept the transfer\n     * can only be called by the contract owner\n     *\n     * @param _newOwner    new contract owner\n     */\n    function transferOwnership(address _newOwner) public override ownerOnly {\n        require(_newOwner != owner, \"ERR_SAME_OWNER\");\n        newOwner = _newOwner;\n    }\n\n    /**\n     * @dev used by a new owner to accept an ownership transfer\n     */\n    function acceptOwnership() public override {\n        require(msg.sender == newOwner, \"ERR_ACCESS_DENIED\");\n        emit OwnerUpdate(owner, newOwner);\n        owner = newOwner;\n        newOwner = address(0);\n    }\n}\n",
  "sourcePath": "/Users/dennismacpro/Projects/Defi/Ethereum-Solidity-Collection/icarus-protocol/defi-seeder/.tmp/bancor/contracts-solidity/solidity/contracts/utility/Owned.sol",
  "compiler": {
    "name": "solc",
    "version": "0.6.12+commit.27d51765.Emscripten.clang"
  },
  "schemaVersion": "3.3.3",
  "updatedAt": "2021-04-01T18:17:52.183Z",
  "devdoc": {
    "details": "This contract provides support and utilities for contract ownership.",
    "events": {
      "OwnerUpdate(address,address)": {
        "details": "triggered when the owner is updated",
        "params": {
          "_newOwner": "new owner",
          "_prevOwner": "previous owner"
        }
      }
    },
    "kind": "dev",
    "methods": {
      "acceptOwnership()": {
        "details": "used by a new owner to accept an ownership transfer"
      },
      "constructor": {
        "details": "initializes a new Owned instance"
      },
      "transferOwnership(address)": {
        "details": "allows transferring the contract ownership the new owner still needs to accept the transfer can only be called by the contract owner",
        "params": {
          "_newOwner": "new contract owner"
        }
      }
    },
    "version": 1
  },
  "userdoc": {
    "kind": "user",
    "methods": {},
    "version": 1
  }
}