{
  "contractName": "StandardPoolConverterFactory",
  "abi": [
    {
      "inputs": [],
      "name": "converterType",
      "outputs": [
        {
          "internalType": "uint16",
          "name": "",
          "type": "uint16"
        }
      ],
      "stateMutability": "pure",
      "type": "function"
    },
    {
      "inputs": [
        {
          "internalType": "contract IConverterAnchor",
          "name": "_anchor",
          "type": "address"
        },
        {
          "internalType": "contract IContractRegistry",
          "name": "_registry",
          "type": "address"
        },
        {
          "internalType": "uint32",
          "name": "_maxConversionFee",
          "type": "uint32"
        }
      ],
      "name": "createConverter",
      "outputs": [
        {
          "internalType": "contract IConverter",
          "name": "",
          "type": "address"
        }
      ],
      "stateMutability": "nonpayable",
      "type": "function"
    }
  ],
  "bytecode": "0x608060405234801561001057600080fd5b50615007806100206000396000f3fe608060405234801561001057600080fd5b50600436106100365760003560e01c8063114139581461003b5780633e8ff43f14610094575b600080fd5b6100786004803603606081101561005157600080fd5b5080356001600160a01b03908116916020810135909116906040013563ffffffff166100b3565b604080516001600160a01b039092168252519081900360200190f35b61009c610184565b6040805161ffff9092168252519081900360200190f35b6000808484846040516100c590610189565b80846001600160a01b03168152602001836001600160a01b031681526020018263ffffffff1681526020019350505050604051809103906000f080158015610111573d6000803e3d6000fd5b509050806001600160a01b031663f2fde38b336040518263ffffffff1660e01b815260040180826001600160a01b03168152602001915050600060405180830381600087803b15801561016357600080fd5b505af1158015610177573d6000803e3d6000fd5b5092979650505050505050565b600390565b614e3b806101978339019056fe608060405260016004553480156200001657600080fd5b5060405162004e3b38038062004e3b833981810160405260608110156200003c57600080fd5b5080516020820151604090920151600080546001600160a01b0319163317905590919081806200006c81620000f6565b50600280546001600160a01b039092166001600160a01b031992831681179091556003805490921617905582620000a381620000f6565b81620000af8162000155565b50506008805463ffffffff909216600160a01b0263ffffffff60a01b196001600160a01b039095166001600160a01b031990931692909217939093161790915550620001b4565b6001600160a01b03811662000152576040805162461bcd60e51b815260206004820152601360248201527f4552525f494e56414c49445f4144445245535300000000000000000000000000604482015290519081900360640190fd5b50565b620f424063ffffffff8216111562000152576040805162461bcd60e51b815260206004820152601a60248201527f4552525f494e56414c49445f434f4e56455253494f4e5f464545000000000000604482015290519081900360640190fd5b614c7780620001c46000396000f3fe6080604052600436106102b25760003560e01c806371f52bf311610175578063bbcdfdef116100dc578063d895951211610095578063ecbca55d1161006f578063ecbca55d14610d91578063f0413a1f14610dc1578063f2fde38b14610dd6578063fc0c546a14610e09576102d2565b8063d895951214610ce5578063dc8de37914610d18578063e8dc12ff14610d4b576102d2565b8063bbcdfdef14610c39578063cdc91c6914610c7c578063d260529c14610c91578063d3fb73b414610ca6578063d4ee1d9014610cbb578063d55ec69714610cd0576102d2565b80638da5cb5b1161012e5780638da5cb5b14610a6b57806394c275ad14610a805780639b99a8e214610a95578063af94b8d814610aaa578063b127c0a514610aed578063b4a176d314610c24576102d2565b806371f52bf31461081e57806379ba5097146108335780637b103999146108485780637d8916bd1461085d57806380d9416d14610982578063857620e114610a35576102d2565b80633e8ff43f116102195780635e35359e116101d25780635e35359e1461070c578063613e53a71461074f57806361cd756e1461076457806367b6d57c14610779578063690d8320146107ac5780636a49d2c4146107df576102d2565b80633e8ff43f1461062d578063422f10431461065957806349d10b64146106945780634e40c260146106a957806354fd4d50146106e2578063579cd3ca146106f7576102d2565b80631f0181bc1161026b5780631f0181bc1461055f57806321e6b53d1461059257806322f3e2d4146105c557806327ac36c4146105ee5780632fe8a6ad1461060357806338a5e01614610618576102d2565b8063024c7ec7146102d75780630e53aae914610305578063154588371461036c57806319b64015146104715780631cfab290146104b75780631e1401f814610503576102d2565b366102d257600080516020614bd88339815191526102cf81610e1e565b50005b600080fd5b3480156102e357600080fd5b50610303600480360360208110156102fa57600080fd5b50351515610e81565b005b34801561031157600080fd5b506103386004803603602081101561032857600080fd5b50356001600160a01b0316610ea7565b6040805195865263ffffffff9094166020860152911515848401521515606084015215156080830152519081900360a00190f35b34801561037857600080fd5b506104216004803603604081101561038f57600080fd5b81359190810190604081016020820135600160201b8111156103b057600080fd5b8201836020820111156103c257600080fd5b803590602001918460208302840111600160201b831117156103e357600080fd5b919080806020026020016040519081016040528093929190818152602001838360200280828437600092019190915250929550610f0e945050505050565b60408051602080825283518183015283519192839290830191858101910280838360005b8381101561045d578181015183820152602001610445565b505050509050019250505060405180910390f35b34801561047d57600080fd5b5061049b6004803603602081101561049457600080fd5b5035610fa3565b604080516001600160a01b039092168252519081900360200190f35b3480156104c357600080fd5b506104ea600480360360208110156104da57600080fd5b50356001600160a01b0316610fcf565b6040805163ffffffff9092168252519081900360200190f35b34801561050f57600080fd5b506105466004803603606081101561052657600080fd5b506001600160a01b03813581169160208101359091169060400135610fe6565b6040805192835260208301919091528051918290030190f35b34801561056b57600080fd5b506105466004803603602081101561058257600080fd5b50356001600160a01b0316611001565b34801561059e57600080fd5b50610303600480360360208110156105b557600080fd5b50356001600160a01b031661107c565b3480156105d157600080fd5b506105da61108d565b604080519115158252519081900360200190f35b3480156105fa57600080fd5b50610421611122565b34801561060f57600080fd5b506105da611184565b34801561062457600080fd5b50610303611194565b34801561063957600080fd5b506106426111a6565b6040805161ffff9092168252519081900360200190f35b6106826004803603606081101561066f57600080fd5b50803590602081013590604001356111ab565b60408051918252519081900360200190f35b3480156106a057600080fd5b50610303611275565b3480156106b557600080fd5b50610682600480360360408110156106cc57600080fd5b506001600160a01b03813516906020013561147d565b3480156106ee57600080fd5b5061064261152b565b34801561070357600080fd5b506104ea611530565b34801561071857600080fd5b506103036004803603606081101561072f57600080fd5b506001600160a01b03813581169160208101359091169060400135611543565b34801561075b57600080fd5b5061054661162e565b34801561077057600080fd5b5061049b611645565b34801561078557600080fd5b506103036004803603602081101561079c57600080fd5b50356001600160a01b0316611654565b3480156107b857600080fd5b50610303600480360360208110156107cf57600080fd5b50356001600160a01b03166116ea565b3480156107eb57600080fd5b506103036004803603604081101561080257600080fd5b5080356001600160a01b0316906020013563ffffffff166117fb565b34801561082a57600080fd5b50610642611963565b34801561083f57600080fd5b50610303611972565b34801561085457600080fd5b5061049b611a29565b6106826004803603606081101561087357600080fd5b810190602081018135600160201b81111561088d57600080fd5b82018360208201111561089f57600080fd5b803590602001918460208302840111600160201b831117156108c057600080fd5b9190808060200260200160405190810160405280939291908181526020018383602002808284376000920191909152509295949360208101935035915050600160201b81111561090f57600080fd5b82018360208201111561092157600080fd5b803590602001918460208302840111600160201b8311171561094257600080fd5b9190808060200260200160405190810160405280939291908181526020018383602002808284376000920191909152509295505091359250611a38915050565b34801561098e57600080fd5b50610421600480360360608110156109a557600080fd5b810190602081018135600160201b8111156109bf57600080fd5b8201836020820111156109d157600080fd5b803590602001918460208302840111600160201b831117156109f257600080fd5b9190808060200260200160405190810160405280939291908181526020018383602002808284376000920191909152509295505082359350505060200135611fb4565b348015610a4157600080fd5b5061054660048036036060811015610a5857600080fd5b50803590602081013590604001356121b0565b348015610a7757600080fd5b5061049b6122ac565b348015610a8c57600080fd5b506104ea6122bb565b348015610aa157600080fd5b506106426122ce565b348015610ab657600080fd5b5061054660048036036060811015610acd57600080fd5b506001600160a01b038135811691602081013590911690604001356122d4565b348015610af957600080fd5b5061042160048036036060811015610b1057600080fd5b81359190810190604081016020820135600160201b811115610b3157600080fd5b820183602082011115610b4357600080fd5b803590602001918460208302840111600160201b83111715610b6457600080fd5b9190808060200260200160405190810160405280939291908181526020018383602002808284376000920191909152509295949360208101935035915050600160201b811115610bb357600080fd5b820183602082011115610bc557600080fd5b803590602001918460208302840111600160201b83111715610be657600080fd5b91908080602002602001604051908101604052809392919081815260200183836020028082843760009201919091525092955061232f945050505050565b348015610c3057600080fd5b506103036126fc565b348015610c4557600080fd5b5061054660048036036060811015610c5c57600080fd5b506001600160a01b03813581169160208101359091169060400135612728565b348015610c8857600080fd5b5061030361279a565b348015610c9d57600080fd5b506105da6128b7565b348015610cb257600080fd5b5061049b6128bc565b348015610cc757600080fd5b5061049b6128cb565b348015610cdc57600080fd5b506103036128da565b348015610cf157600080fd5b5061068260048036036020811015610d0857600080fd5b50356001600160a01b03166129c2565b348015610d2457600080fd5b5061068260048036036020811015610d3b57600080fd5b50356001600160a01b03166129c9565b610682600480360360a0811015610d6157600080fd5b506001600160a01b0381358116916020810135821691604082013591606081013582169160809091013516612a33565b348015610d9d57600080fd5b5061030360048036036020811015610db457600080fd5b503563ffffffff16612ad9565b348015610dcd57600080fd5b50610682612bbb565b348015610de257600080fd5b5061030360048036036020811015610df957600080fd5b50356001600160a01b0316612bc1565b348015610e1557600080fd5b5061049b612c3f565b6001600160a01b038116600090815260076020526040902054610e7e576040805162461bcd60e51b81526020600482015260136024820152724552525f494e56414c49445f5245534552564560681b604482015290519081900360640190fd5b50565b610e89612c4e565b60038054911515600160a01b0260ff60a01b19909216919091179055565b6001600160a01b03811660009081526007602052604081205481908190819081908015610ef157610ed781612ca1565b95506207a12094506000935083925060019150610f059050565b600080600080600095509550955095509550505b91939590929450565b60606000600860009054906101000a90046001600160a01b03166001600160a01b03166318160ddd6040518163ffffffff1660e01b815260040160206040518083038186803b158015610f6057600080fd5b505afa158015610f74573d6000803e3d6000fd5b505050506040513d6020811015610f8a57600080fd5b50519050610f99848483612caf565b9150505b92915050565b600060068281548110610fb257fe5b6000918252602090912001546001600160a01b031690505b919050565b600081610fdb81610e1e565b506207a12092915050565b600080610ff48585856122d4565b915091505b935093915050565b6000808261100e81610e1e565b600061101b600954612e01565b9050600061102882612f2b565b9050600061103583612f3a565b9050600660008154811061104557fe5b6000918252602090912001546001600160a01b03888116911614156110705790945092506110769050565b94509250505b50915091565b611084612c4e565b610e7e81611654565b6000306001600160a01b0316600860009054906101000a90046001600160a01b03166001600160a01b0316638da5cb5b6040518163ffffffff1660e01b815260040160206040518083038186803b1580156110e757600080fd5b505afa1580156110fb573d6000803e3d6000fd5b505050506040513d602081101561111157600080fd5b50516001600160a01b031614905090565b6060600680548060200260200160405190810160405280929190818152602001828054801561117a57602002820191906000526020600020905b81546001600160a01b0316815260019091019060200180831161115c575b5050505050905090565b600354600160a01b900460ff1681565b61119c612c4e565b6111a461279a565b565b600390565b604080516002808252606080830184526000939092919060208301908036833701905050905084816000815181106111df57fe5b60200260200101818152505083816001815181106111f957fe5b60200260200101818152505061126a600680548060200260200160405190810160405280929190818152602001828054801561125e57602002820191906000526020600020905b81546001600160a01b03168152600190910190602001808311611240575b50505050508285611a38565b9150505b9392505050565b6000546001600160a01b03163314806112985750600354600160a01b900460ff16155b6112dd576040805162461bcd60e51b815260206004820152601160248201527011549497d050d0d154d4d7d11153925151607a1b604482015290519081900360640190fd5b60006112fb6f436f6e7472616374526567697374727960801b612f46565b6002549091506001600160a01b0380831691161480159061132457506001600160a01b03811615155b61136c576040805162461bcd60e51b81526020600482015260146024820152734552525f494e56414c49445f524547495354525960601b604482015290519081900360640190fd5b60006001600160a01b0316816001600160a01b031663bb34534c6f436f6e7472616374526567697374727960801b6040518263ffffffff1660e01b81526004018082815260200191505060206040518083038186803b1580156113ce57600080fd5b505afa1580156113e2573d6000803e3d6000fd5b505050506040513d60208110156113f857600080fd5b50516001600160a01b0316141561144d576040805162461bcd60e51b81526020600482015260146024820152734552525f494e56414c49445f524547495354525960601b604482015290519081900360640190fd5b60028054600380546001600160a01b038084166001600160a01b0319928316179092559091169216919091179055565b600080600860009054906101000a90046001600160a01b03166001600160a01b03166318160ddd6040518163ffffffff1660e01b815260040160206040518083038186803b1580156114ce57600080fd5b505afa1580156114e2573d6000803e3d6000fd5b505050506040513d60208110156114f857600080fd5b50516001600160a01b038516600090815260076020526040902054909150610f9990829061152590612ca1565b85612fc4565b602d81565b600854600160c01b900463ffffffff1681565b61154b61307a565b6002600455611558612c4e565b600061157d762130b731b7b921b7b73b32b93a32b92ab833b930b232b960491b612f46565b6001600160a01b0385166000908152600760205260409020549091508015806115ab57506115a961108d565b155b806115c357506000546001600160a01b038381169116145b611608576040805162461bcd60e51b815260206004820152601160248201527011549497d050d0d154d4d7d11153925151607a1b604482015290519081900360640190fd5b6116138585856130c2565b801561162257611622856130fc565b50506001600455505050565b60008061163d600160026131b4565b915091509091565b6003546001600160a01b031681565b61165c612c4e565b762130b731b7b921b7b73b32b93a32b92ab833b930b232b960491b6116808161323d565b6008546040805163f2fde38b60e01b81526001600160a01b0385811660048301529151919092169163f2fde38b91602480830192600092919082900301818387803b1580156116ce57600080fd5b505af11580156116e2573d6000803e3d6000fd5b505050505050565b6116f261307a565b60026004556116ff612c4e565b600080516020614bd883398151915261171781610e1e565b600061173c762130b731b7b921b7b73b32b93a32b92ab833b930b232b960491b612f46565b905061174661108d565b158061175f57506000546001600160a01b038281169116145b6117a4576040805162461bcd60e51b815260206004820152601160248201527011549497d050d0d154d4d7d11153925151607a1b604482015290519081900360640190fd5b6040516001600160a01b038416904780156108fc02916000818181858888f193505050501580156117d9573d6000803e3d6000fd5b506117f1600080516020614bd88339815191526130fc565b5050600160045550565b611803612c4e565b61180b61329f565b81611815816132e6565b8261181f81613337565b826118298161338b565b6008546001600160a01b0386811691161480159061185d57506001600160a01b038516600090815260076020526040902054155b6118a4576040805162461bcd60e51b81526020600482015260136024820152724552525f494e56414c49445f5245534552564560681b604482015290519081900360640190fd5b60026118ae6122ce565b61ffff1610611900576040805162461bcd60e51b815260206004820152601960248201527811549497d253959053125117d49154d154959157d0d3d55395603a1b604482015290519081900360640190fd5b5050600680546001810182557ff652222313e28459528d920b65115c16c04f3efc82aaedc97be59f3f377c0d3f0180546001600160a01b039095166001600160a01b03199095168517905554600093845260076020526040909320929092555050565b600061196d6122ce565b905090565b6001546001600160a01b031633146119c5576040805162461bcd60e51b815260206004820152601160248201527011549497d050d0d154d4d7d11153925151607a1b604482015290519081900360640190fd5b600154600080546040516001600160a01b0393841693909116917f343765429aea5a34b3ff6a3785a98a5abb2597aca87bfbb58632c173d585373a91a360018054600080546001600160a01b03199081166001600160a01b03841617909155169055565b6002546001600160a01b031681565b6000611a4261307a565b6002600455611a4f6133e8565b611a5a848484613430565b5060005b6002811015611b0b57600080516020614bd88339815191526001600160a01b0316858281518110611a8b57fe5b60200260200101516001600160a01b03161415611b035734848281518110611aaf57fe5b602002602001015114611b03576040805162461bcd60e51b815260206004820152601760248201527608aa4a4be8aa890be829a9eaa9ca8be9a92a69a82a8869604b1b604482015290519081900360640190fd5b600101611a5e565b503415611b9157600080516020614bd883398151915260005260076020527fb2084a3e4595ccf007fb44245853374aaf0de960074375e8e0fb334712e94d0e54611b91576040805162461bcd60e51b81526020600482015260126024820152714552525f4e4f5f4554485f5245534552564560701b604482015290519081900360640190fd5b600854604080516318160ddd60e01b815290516001600160a01b039092169160009183916318160ddd91600480820192602092909190829003018186803b158015611bdb57600080fd5b505afa158015611bef573d6000803e3d6000fd5b505050506040513d6020811015611c0557600080fd5b50519050611c1234613675565b611c1a614b52565b611c22614b52565b611c2a61162e565b602084015282526000611c3b614b52565b84611c8a57611c498961380a565b915060005b6002811015611c8457898181518110611c6357fe5b6020026020010151828260028110611c7757fe5b6020020152600101611c4e565b50611c9c565b611c968a8a868861385c565b90925090505b6000611ca8868461394a565b905060005b6002811015611ed65760008c8281518110611cc457fe5b602002602001015190506000848360028110611cdc57fe5b6020020151905060008111611d31576040805162461bcd60e51b815260206004820152601660248201527511549497d6915493d7d5105491d15517d05353d5539560521b604482015290519081900360640190fd5b8c8381518110611d3d57fe5b6020026020010151811115611d4e57fe5b6001600160a01b038216600080516020614bd883398151915214611d8657611d816001600160a01b0383163330846139a4565b611df1565b808d8481518110611d9357fe5b60200260200101511115611df157336001600160a01b03166108fc828f8681518110611dbb57fe5b6020026020010151039081150290604051600060405180830381858888f19350505050158015611def573d6000803e3d6000fd5b505b611e0c81898560028110611e0157fe5b60200201519061394a565b878460028110611e1857fe5b60200201526001600160a01b038216337f4a1a2a6176e9646d9e3157f7c2ab3c499f18337c0b0828cfb28e0a61de4a11f7838a8760028110611e5657fe5b602090810291909101516040805193845291830152818101899052519081900360600190a3816001600160a01b03168a6001600160a01b0316600080516020614b97833981519152898660028110611eaa57fe5b602002015187604051808381526020018281526020019250505060405180910390a35050600101611cad565b508351611ef09060019060029087835b6020020151613a04565b88831015611f3a576040805162461bcd60e51b81526020600482015260126024820152714552525f52455455524e5f544f4f5f4c4f5760701b604482015290519081900360640190fd5b6040805163219e412d60e21b81523360048201526024810185905290516001600160a01b0389169163867904b491604480830192600092919082900301818387803b158015611f8857600080fd5b505af1158015611f9c573d6000803e3d6000fd5b5050600160045550929b9a5050505050505050505050565b604080516002808252606080830184529283929190602083019080368337505060408051600280825260608083018452949550909250906020830190803683370190505090506000600760008860008151811061200d57fe5b60200260200101516001600160a01b03166001600160a01b031681526020019081526020016000205490506000600760008960018151811061204b57fe5b60200260200101516001600160a01b03166001600160a01b0316815260200190815260200160002054905061208082826131b4565b8460008151811061208d57fe5b60200260200101856001815181106120a157fe5b60200260200101828152508281525050506000600860009054906101000a90046001600160a01b03166001600160a01b03166318160ddd6040518163ffffffff1660e01b815260040160206040518083038186803b15801561210257600080fd5b505afa158015612116573d6000803e3d6000fd5b505050506040513d602081101561212c57600080fd5b5051845190915060009061215690839087908c90811061214857fe5b60200260200101518a612fc4565b905060005b60028110156121a1576121828387838151811061217457fe5b602002602001015184613a88565b87828151811061218e57fe5b602090810291909101015260010161215b565b50949998505050505050505050565b60408051600280825260608083018452600093849391929060208301908036833701905050905084816000815181106121e557fe5b60200260200101818152505083816001815181106121ff57fe5b602002602001018181525050606061227287600680548060200260200160405190810160405280929190818152602001828054801561226757602002820191906000526020600020905b81546001600160a01b03168152600190910190602001808311612249575b50505050508461232f565b90508060008151811061228157fe5b60200260200101518160018151811061229657fe5b6020026020010151935093505050935093915050565b6000546001600160a01b031681565b600854600160a01b900463ffffffff1681565b60065490565b6000806122df6133e8565b6001600160a01b03808616600090815260076020526040808220549287168252812054908061230e84846131b4565b9150915061231f898984848b613b45565b9550955050505050935093915050565b606061233961307a565b60026004556123466133e8565b6000612353848487613430565b90506000600860009054906101000a90046001600160a01b031690506000816001600160a01b03166318160ddd6040518163ffffffff1660e01b815260040160206040518083038186803b1580156123aa57600080fd5b505afa1580156123be573d6000803e3d6000fd5b505050506040513d60208110156123d457600080fd5b50516040805163a24835d160e01b8152336004820152602481018a905290519192506001600160a01b0384169163a24835d19160448082019260009290919082900301818387803b15801561242857600080fd5b505af115801561243c573d6000803e3d6000fd5b50505050612448613b75565b60006124548289613cff565b90506060612463898985612caf565b905061246d614b52565b612475614b52565b61247d61162e565b6020840152825260005b600281101561266c5760008b828151811061249e57fe5b6020026020010151905060008583815181106124b657fe5b602002602001015190508b83815181106124cc57fe5b6020026020010151811015612521576040805162461bcd60e51b815260206004820152601660248201527511549497d6915493d7d5105491d15517d05353d5539560521b604482015290519081900360640190fd5b61253c8186856002811061253157fe5b602002015190613cff565b84846002811061254857fe5b60200201526001600160a01b038216600080516020614bd8833981519152141561259f57604051339082156108fc029083906000818181858888f19350505050158015612599573d6000803e3d6000fd5b506125b3565b6125b36001600160a01b0383163383613d5c565b6001600160a01b038216337fbc7d19d505c7ec4db83f3b51f19fb98c4c8a99922e7839d1ee608dfbee29501b838787600281106125ec57fe5b6020908102919091015160408051938452918301528181018c9052519081900360600190a3816001600160a01b0316896001600160a01b0316600080516020614b9783398151915286866002811061264057fe5b60200201518a604051808381526020018281526020019250505060405180910390a35050600101612487565b508051612680906001906002908483611ee6565b86156126e95760008360008151811061269557fe5b60200260200101519050836001815181106126ac57fe5b6020026020010151846000815181106126c157fe5b60200260200101818152505080846001815181106126db57fe5b602002602001018181525050505b5050600160045598975050505050505050565b612704612c4e565b600354600280546001600160a01b0319166001600160a01b03909216919091179055565b6000806127336133e8565b6001600160a01b03808616600090815260076020526040808220549287168252812054908061276284846131b4565b91509150600061277188613dae565b9050600061278984846127848c8661394a565b613de3565b9b919a509098505050505050505050565b6127a2612c4e565b6127aa6122ce565b61ffff166002146127fe576040805162461bcd60e51b815260206004820152601960248201527811549497d253959053125117d49154d154959157d0d3d55395603a1b604482015290519081900360640190fd5b600860009054906101000a90046001600160a01b03166001600160a01b03166379ba50976040518163ffffffff1660e01b8152600401600060405180830381600087803b15801561284e57600080fd5b505af1158015612862573d6000803e3d6000fd5b5050505061286e613b75565b6008546001906001600160a01b03166128856111a6565b61ffff167f6b08c2e2c9969e55a647a764db9b554d64dc42f1a704da11a6d5b129ad163f2c60405160405180910390a4565b600190565b6008546001600160a01b031681565b6001546001600160a01b031681565b6128e2612c4e565b6000612907762130b731b7b921b7b73b32b93a32b92ab833b930b232b960491b612f46565b6008549091506000906001600160a01b03166129216111a6565b61ffff167f6b08c2e2c9969e55a647a764db9b554d64dc42f1a704da11a6d5b129ad163f2c60405160405180910390a461295a81612bc1565b6040805163487ac64b60e11b8152602d600482015290516001600160a01b038316916390f58c9691602480830192600092919082900301818387803b1580156129a257600080fd5b505af11580156129b6573d6000803e3d6000fd5b50505050610e7e611972565b6000610f9d825b6001600160a01b03811660009081526007602052604081205480612a2a576040805162461bcd60e51b81526020600482015260136024820152724552525f494e56414c49445f5245534552564560681b604482015290519081900360640190fd5b61126e81612ca1565b6000612a3d61307a565b60026004556c42616e636f724e6574776f726b60981b612a5c8161323d565b856001600160a01b0316876001600160a01b03161415612abc576040805162461bcd60e51b815260206004820152601660248201527511549497d4d0535157d4d3d55490d157d5105491d15560521b604482015290519081900360640190fd5b612ac98787878787613e8c565b6001600455979650505050505050565b612ae1612c4e565b60085463ffffffff600160a01b90910481169082161115612b49576040805162461bcd60e51b815260206004820152601a60248201527f4552525f494e56414c49445f434f4e56455253494f4e5f464545000000000000604482015290519081900360640190fd5b6008546040805163ffffffff600160c01b90930483168152918316602083015280517f81cd2ffb37dd237c0e4e2a3de5265fcf9deb43d3e7801e80db9f1ccfba7ee6009281900390910190a16008805463ffffffff909216600160c01b0263ffffffff60c01b19909216919091179055565b60095481565b612bc9612c4e565b6000546001600160a01b0382811691161415612c1d576040805162461bcd60e51b815260206004820152600e60248201526d22a9292fa9a0a6a2afa7aba722a960911b604482015290519081900360640190fd5b600180546001600160a01b0319166001600160a01b0392909216919091179055565b6008546001600160a01b031690565b6000546001600160a01b031633146111a4576040805162461bcd60e51b815260206004820152601160248201527011549497d050d0d154d4d7d11153925151607a1b604482015290519081900360640190fd5b6000610f9d60055483614126565b6040805160028082526060808301845292839291906020830190803683375050604080516002808252606080830184529495509092509060208301908036833701905050905060006007600087600081518110612d0857fe5b60200260200101516001600160a01b03166001600160a01b0316815260200190815260200160002054905060006007600088600181518110612d4657fe5b60200260200101516001600160a01b03166001600160a01b03168152602001908152602001600020549050612d7b82826131b4565b84600081518110612d8857fe5b6020026020010185600181518110612d9c57fe5b60209081029190910101919091525260005b6002811015612df457612dd587858381518110612dc757fe5b60200260200101518b614158565b858281518110612de157fe5b6020908102919091010152600101612dae565b5092979650505050505050565b600080612e0d83614257565b90506000612e1a84612f2b565b90506000612e2785612f3a565b90506000612e3361425d565b905083810380612e4a578695505050505050610fca565b600080612e5561162e565b9150915061025883101580612e68575086155b15612e9c57612e7f81836001600160701b03614261565b92509050612e8e8482846142a9565b975050505050505050610fca565b6000612ea886836142f4565b90506000612eb688856142f4565b90506000612edc612ec784886142f4565b612ed6846102588a90036142f4565b9061394a565b90506000612ef6610258612ef08b896142f4565b906142f4565b9050612f0a82826001600160701b03614261565b9092509050612f1a8883836142a9565b9d9c50505050505050505050505050565b60701c6001600160701b031690565b6001600160701b031690565b60025460408051632ecd14d360e21b81526004810184905290516000926001600160a01b03169163bb34534c916024808301926020929190829003018186803b158015612f9257600080fd5b505afa158015612fa6573d6000803e3d6000fd5b505050506040513d6020811015612fbc57600080fd5b505192915050565b600080841161300f576040805162461bcd60e51b81526020600482015260126024820152714552525f494e56414c49445f535550504c5960701b604482015290519081900360640190fd5b60008311613052576040805162461bcd60e51b815260206004820152601b6024820152600080516020614c22833981519152604482015290519081900360640190fd5b8161305f5750600061126e565b8261306a83866142f4565b8161307157fe5b04949350505050565b6001600454146111a4576040805162461bcd60e51b815260206004820152600e60248201526d4552525f5245454e5452414e435960901b604482015290519081900360640190fd5b6130ca612c4e565b826130d4816132e6565b826130de816132e6565b836130e881613337565b6116e26001600160a01b0387168686613d5c565b6001600160a01b03811660008181526007602052604081205491600080516020614bd8833981519152146131a157604080516370a0823160e01b815230600482015290516001600160a01b038516916370a08231916024808301926020929190829003018186803b15801561317057600080fd5b505afa158015613184573d6000803e3d6000fd5b505050506040513d602081101561319a57600080fd5b50516131a3565b475b90506131af828261434d565b505050565b6000808360011480156131c75750826002145b806131dd57508360021480156131dd5750826001145b613225576040805162461bcd60e51b81526020600482015260146024820152734552525f494e56414c49445f524553455256455360601b604482015290519081900360640190fd5b61323260055485856143d3565b915091509250929050565b61324681612f46565b6001600160a01b0316336001600160a01b031614610e7e576040805162461bcd60e51b815260206004820152601160248201527011549497d050d0d154d4d7d11153925151607a1b604482015290519081900360640190fd5b6132a761108d565b156111a4576040805162461bcd60e51b815260206004820152600a6024820152694552525f41435449564560b01b604482015290519081900360640190fd5b6001600160a01b038116610e7e576040805162461bcd60e51b81526020600482015260136024820152724552525f494e56414c49445f4144445245535360681b604482015290519081900360640190fd5b6001600160a01b038116301415610e7e576040805162461bcd60e51b815260206004820152601360248201527222a9292fa0a2222922a9a9afa4a9afa9a2a62360691b604482015290519081900360640190fd5b63ffffffff81166207a12014610e7e576040805162461bcd60e51b815260206004820152601a60248201527f4552525f494e56414c49445f524553455256455f574549474854000000000000604482015290519081900360640190fd5b6133f061108d565b6111a4576040805162461bcd60e51b815260206004820152600c60248201526b4552525f494e41435449564560a01b604482015290519081900360640190fd5b600061343b836143ea565b80156134475750600082115b61348a576040805162461bcd60e51b815260206004820152600f60248201526e11549497d6915493d7d05353d55395608a1b604482015290519081900360640190fd5b6000600760008660008151811061349d57fe5b60200260200101516001600160a01b03166001600160a01b03168152602001908152602001600020549050600060076000876001815181106134db57fe5b60200260200101516001600160a01b03166001600160a01b031681526020019081526020016000205490508160021480156135165750806001145b156136125760008660008151811061352a57fe5b602002602001015190508660018151811061354157fe5b60200260200101518760008151811061355657fe5b60200260200101906001600160a01b031690816001600160a01b031681525050808760018151811061358457fe5b60200260200101906001600160a01b031690816001600160a01b0316815250506000866000815181106135b357fe5b60200260200101519050866001815181106135ca57fe5b6020026020010151876000815181106135df57fe5b60200260200101818152505080876001815181106135f957fe5b602002602001018181525050600194505050505061126e565b8160011480156136225750806002145b613669576040805162461bcd60e51b81526020600482015260136024820152724552525f494e56414c49445f5245534552564560681b604482015290519081900360640190fd5b50600095945050505050565b6000600660008154811061368557fe5b6000918252602082200154600680546001600160a01b0390921693509060019081106136ad57fe5b60009182526020822001546001600160a01b0390811692508316600080516020614bd88339815191521461375257604080516370a0823160e01b815230600482015290516001600160a01b038516916370a08231916024808301926020929190829003018186803b15801561372157600080fd5b505afa158015613735573d6000803e3d6000fd5b505050506040513d602081101561374b57600080fd5b5051613756565b8347035b905060006001600160a01b038316600080516020614bd8833981519152146137ef57604080516370a0823160e01b815230600482015290516001600160a01b038516916370a08231916024808301926020929190829003018186803b1580156137be57600080fd5b505afa1580156137d2573d6000803e3d6000fd5b505050506040513d60208110156137e857600080fd5b50516137f3565b8447035b9050613803600160028484613a04565b5050505050565b80516000908190815b818110156138435761383785828151811061382a57fe5b6020026020010151614429565b90920191600101613813565b506001613850838361444b565b03600a0a949350505050565b6000613866614b52565b6000613895858260200201518760018151811061387f57fe5b60200260200101516142f490919063ffffffff16565b6138ad86600160200201518860008151811061387f57fe5b106138b95760016138bc565b60005b60ff16905060006138f1858784600281106138d357fe5b60200201518985815181106138e457fe5b6020026020010151612fc4565b90506138fb614b52565b60005b600281101561393b576139228789836002811061391757fe5b602002015185613a88565b82826002811061392e57fe5b60200201526001016138fe565b50909890975095505050505050565b60008282018381101561126e576040805162461bcd60e51b815260206004820152601b60248201527f536166654d6174683a206164646974696f6e206f766572666c6f770000000000604482015290519081900360640190fd5b604080516001600160a01b0380861660248301528416604482015260648082018490528251808303909101815260849091019091526020810180516001600160e01b03166323b872dd60e01b1790526139fe908590614463565b50505050565b6001600160801b038211158015613a2257506001600160801b038111155b613a73576040805162461bcd60e51b815260206004820152601c60248201527f4552525f524553455256455f42414c414e43455f4f564552464c4f5700000000604482015290519081900360640190fd5b613a7f82858386614514565b60055550505050565b6000808411613ad3576040805162461bcd60e51b81526020600482015260126024820152714552525f494e56414c49445f535550504c5960701b604482015290519081900360640190fd5b60008311613b16576040805162461bcd60e51b815260206004820152601b6024820152600080516020614c22833981519152604482015290519081900360640190fd5b81613b235750600061126e565b836001613b3084866142f4565b0381613b3857fe5b0460010190509392505050565b6000806000613b55868686614534565b90506000613b6282614598565b9182900399919850909650505050505050565b60006006600081548110613b8557fe5b6000918252602082200154600680546001600160a01b039092169350906001908110613bad57fe5b60009182526020822001546001600160a01b0390811692508316600080516020614bd883398151915214613c5257604080516370a0823160e01b815230600482015290516001600160a01b038516916370a08231916024808301926020929190829003018186803b158015613c2157600080fd5b505afa158015613c35573d6000803e3d6000fd5b505050506040513d6020811015613c4b57600080fd5b5051613c54565b475b905060006001600160a01b038316600080516020614bd883398151915214613ced57604080516370a0823160e01b815230600482015290516001600160a01b038516916370a08231916024808301926020929190829003018186803b158015613cbc57600080fd5b505afa158015613cd0573d6000803e3d6000fd5b505050506040513d6020811015613ce657600080fd5b5051613cef565b475b90506139fe600160028484613a04565b600082821115613d56576040805162461bcd60e51b815260206004820152601e60248201527f536166654d6174683a207375627472616374696f6e206f766572666c6f770000604482015290519081900360640190fd5b50900390565b604080516001600160a01b038416602482015260448082018490528251808303909101815260649091019091526020810180516001600160e01b031663a9059cbb60e01b1790526131af908490614463565b600854600090610f9d9063ffffffff600160c01b9091048116620f4240819003821691613ddd9186916142f416565b906145cd565b6000808411613e27576040805162461bcd60e51b815260206004820152601b6024820152600080516020614c22833981519152604482015290519081900360640190fd5b828210613e70576040805162461bcd60e51b815260206004820152601260248201527111549497d253959053125117d05353d5539560721b604482015290519081900360640190fd5b81613e7d5750600061126e565b8183036001613b3086856142f4565b6000613e9661462c565b6001600160a01b038087166000908152600760205260408082205492881682528120549080613ec584846131b4565b91509150600080613ed98c8c86868e613b45565b915091508160001415613f2c576040805162461bcd60e51b815260206004820152601660248201527511549497d6915493d7d5105491d15517d05353d5539560521b604482015290519081900360640190fd5b828210613f3557fe5b60006001600160a01b038d16600080516020614bd88339815191521415613fab575047348b14613fa6576040805162461bcd60e51b815260206004820152601760248201527608aa4a4be8aa890be829a9eaa9ca8be9a92a69a82a8869604b1b604482015290519081900360640190fd5b61407c565b604080516370a0823160e01b815230600482015290516001600160a01b038f16916370a08231916024808301926020929190829003018186803b158015613ff157600080fd5b505afa158015614005573d6000803e3d6000fd5b505050506040513d602081101561401b57600080fd5b505190503415801561403657508a6140338287613cff565b10155b61407c576040805162461bcd60e51b815260206004820152601260248201527111549497d253959053125117d05353d5539560721b604482015290519081900360640190fd5b61408a878783868803613a04565b6001600160a01b038c16600080516020614bd883398151915214156140e5576040516001600160a01b038a169084156108fc029085906000818181858888f193505050501580156140df573d6000803e3d6000fd5b506140f9565b6140f96001600160a01b038d168a85613d5c565b6141078d8d8c8e878761464d565b6141158d8d838688036146a9565b50909b9a5050505050505050505050565b600081600114806141375750816002145b61413d57fe5b50608060001982010282901c6001600160801b031692915050565b60008084116141a3576040805162461bcd60e51b81526020600482015260126024820152714552525f494e56414c49445f535550504c5960701b604482015290519081900360640190fd5b600083116141e6576040805162461bcd60e51b815260206004820152601b6024820152600080516020614c22833981519152604482015290519081900360640190fd5b83821115614230576040805162461bcd60e51b815260206004820152601260248201527111549497d253959053125117d05353d5539560721b604482015290519081900360640190fd5b8161423d5750600061126e565b8382141561424c57508161126e565b8361306a83856142f4565b60e01c90565b4290565b60008084848482118061427357508481115b15614289576142838282876147e2565b90925090505b80821461429a579092509050610ff9565b50600196879650945050505050565b600063ffffffff84111580156142c657506001600160701b038311155b80156142d957506001600160701b038211155b6142df57fe5b5060e083901b607083901b1781179392505050565b60008261430357506000610f9d565b8282028284828161431057fe5b041461126e5760405162461bcd60e51b8152600401808060200182810382526021815260200180614bb76021913960400191505060405180910390fd5b6001600160801b038111156143a9576040805162461bcd60e51b815260206004820152601c60248201527f4552525f524553455256455f42414c414e43455f4f564552464c4f5700000000604482015290519081900360640190fd5b60006143ba60055484600303614126565b90506143cb82848386600303614514565b600555505050565b6000806143e08585614126565b610ff48685614126565b600080826000815181106143fa57fe5b6020026020010151118015610f9d575060008260018151811061441957fe5b6020026020010151119050919050565b600080825b80156144445760019190910190600a900461442e565b5092915050565b6000816002810484018161445b57fe5b049392505050565b60606144b8826040518060400160405280602081526020017f5361666545524332303a206c6f772d6c6576656c2063616c6c206661696c6564815250856001600160a01b031661481b9092919063ffffffff16565b8051909150156131af578080602001905160208110156144d757600080fd5b50516131af5760405162461bcd60e51b815260040180806020018281038252602a815260200180614bf8602a913960400191505060405180910390fd5b60006145208383614832565b61452a8686614832565b1795945050505050565b600080841180156145455750600083115b614584576040805162461bcd60e51b815260206004820152601b6024820152600080516020614c22833981519152604482015290519081900360640190fd5b61458e848361394a565b61306a84846142f4565b600854600090620f4240906145bf908490600160c01b900463ffffffff908116906142f416565b816145c657fe5b0492915050565b6000808211614623576040805162461bcd60e51b815260206004820152601a60248201527f536166654d6174683a206469766973696f6e206279207a65726f000000000000604482015290519081900360640190fd5b81838161445b57fe5b600954600061463a82612e01565b90508082146146495760098190555b5050565b604080518481526020810184905280820183905290516001600160a01b038087169288821692918a16917f276856b36cbc45526a0ba64f44611557a2a8b68662c5388e9fe6d72e86e1c8cb9181900360600190a4505050505050565b600854604080516318160ddd60e01b815290516001600160a01b039092169160009183916318160ddd91600480820192602092909190829003018186803b1580156146f357600080fd5b505afa158015614707573d6000803e3d6000fd5b505050506040513d602081101561471d57600080fd5b5051604080518581526020810187905281519293506001600160a01b0380891693908a1692600080516020614b97833981519152928290030190a3856001600160a01b0316826001600160a01b0316600080516020614b978339815191528684604051808381526020018281526020019250505060405180910390a3846001600160a01b0316826001600160a01b0316600080516020614b978339815191528584604051808381526020018281526020019250505060405180910390a3505050505050565b600080838511614800576147f7858585614867565b91509150610ff9565b60008061480e868887614867565b9890975095505050505050565b606061482a8484600085614920565b949350505050565b60006001600160801b038311158015614855575081600114806148555750816002145b61485b57fe5b50600019016080021b90565b6000806000836000198161487757fe5b049050808611156148b057600081600101878161489057fe5b04600101905080878161489f57fe5b0496508086816148ab57fe5b049550505b848614614910578584028587018781106148e15760006148d08383614a7c565b955050508385039250610ff9915050565b60028888030487038210156148ff5760008694509450505050610ff9565b600180870394509450505050610ff9565b5050600290910493849350915050565b6060824710156149615760405162461bcd60e51b8152600401808060200182810382526026815260200180614b716026913960400191505060405180910390fd5b61496a85614aa8565b6149bb576040805162461bcd60e51b815260206004820152601d60248201527f416464726573733a2063616c6c20746f206e6f6e2d636f6e7472616374000000604482015290519081900360640190fd5b60006060866001600160a01b031685876040518082805190602001908083835b602083106149fa5780518252601f1990920191602091820191016149db565b6001836020036101000a03801982511681845116808217855250505050505090500191505060006040518083038185875af1925050503d8060008114614a5c576040519150601f19603f3d011682016040523d82523d6000602084013e614a61565b606091505b5091509150614a71828286614aae565b979650505050505050565b6000600282048203828481614a8d57fe5b0681614a9557fe5b04828481614a9f57fe5b04019392505050565b3b151590565b60608315614abd57508161126e565b825115614acd5782518084602001fd5b8160405162461bcd60e51b81526004018080602001828103825283818151815260200191508051906020019080838360005b83811015614b17578181015183820152602001614aff565b50505050905090810190601f168015614b445780820380516001836020036101000a031916815260200191505b509250505060405180910390fd5b6040518060400160405280600290602082028036833750919291505056fe416464726573733a20696e73756666696369656e742062616c616e636520666f722063616c6c77f29993cf2c084e726f7e802da0719d6a0ade3e204badc7a3ffd57ecb768c24536166654d6174683a206d756c7469706c69636174696f6e206f766572666c6f77000000000000000000000000eeeeeeeeeeeeeeeeeeeeeeeeeeeeeeeeeeeeeeee5361666545524332303a204552433230206f7065726174696f6e20646964206e6f7420737563636565644552525f494e56414c49445f524553455256455f42414c414e43450000000000a26469706673582212200154ad7413ecac9215d24ca7f19b2f8fbd39dc5865f95d767141b439708e8d5e64736f6c634300060c0033a26469706673582212207fc0d329abb3924cbdf30bb6b7f01696788f0d60ee1dc5146498caab81eab0cd64736f6c634300060c0033",
  "immutableReferences": {},
  "source": "// SPDX-License-Identifier: SEE LICENSE IN LICENSE\npragma solidity 0.6.12;\nimport \"./StandardPoolConverter.sol\";\nimport \"../../interfaces/IConverter.sol\";\nimport \"../../interfaces/ITypedConverterFactory.sol\";\nimport \"../../../token/interfaces/IDSToken.sol\";\n\n/*\n    StandardPoolConverter Factory\n*/\ncontract StandardPoolConverterFactory is ITypedConverterFactory {\n    /**\n     * @dev returns the converter type the factory is associated with\n     *\n     * @return converter type\n     */\n    function converterType() external pure override returns (uint16) {\n        return 3;\n    }\n\n    /**\n     * @dev creates a new converter with the given arguments and transfers\n     * the ownership to the caller\n     *\n     * @param _anchor            anchor governed by the converter\n     * @param _registry          address of a contract registry contract\n     * @param _maxConversionFee  maximum conversion fee, represented in ppm\n     *\n     * @return a new converter\n     */\n    function createConverter(\n        IConverterAnchor _anchor,\n        IContractRegistry _registry,\n        uint32 _maxConversionFee\n    ) external virtual override returns (IConverter) {\n        IConverter converter = new StandardPoolConverter(IDSToken(address(_anchor)), _registry, _maxConversionFee);\n        converter.transferOwnership(msg.sender);\n        return converter;\n    }\n}\n",
  "sourcePath": "/Users/dennismacpro/Projects/Defi/Ethereum-Solidity-Collection/icarus-protocol/defi-seeder/.tmp/bancor/contracts-solidity/solidity/contracts/converter/types/standard-pool/StandardPoolConverterFactory.sol",
  "compiler": {
    "name": "solc",
    "version": "0.6.12+commit.27d51765.Emscripten.clang"
  },
  "schemaVersion": "3.3.3",
  "updatedAt": "2021-04-01T18:17:52.030Z",
  "devdoc": {
    "kind": "dev",
    "methods": {
      "converterType()": {
        "details": "returns the converter type the factory is associated with",
        "returns": {
          "_0": "converter type"
        }
      },
      "createConverter(address,address,uint32)": {
        "details": "creates a new converter with the given arguments and transfers the ownership to the caller",
        "params": {
          "_anchor": "anchor governed by the converter",
          "_maxConversionFee": "maximum conversion fee, represented in ppm",
          "_registry": "address of a contract registry contract"
        },
        "returns": {
          "_0": "a new converter"
        }
      }
    },
    "version": 1
  },
  "userdoc": {
    "kind": "user",
    "methods": {},
    "version": 1
  }
}