{
  "contractName": "TestBancorNetwork",
  "abi": [
    {
      "inputs": [
        {
          "internalType": "uint256",
          "name": "_amount",
          "type": "uint256"
        },
        {
          "internalType": "uint256",
          "name": "_fee",
          "type": "uint256"
        }
      ],
      "stateMutability": "nonpayable",
      "type": "constructor"
    },
    {
      "anonymous": false,
      "inputs": [
        {
          "indexed": true,
          "internalType": "contract IConverterAnchor",
          "name": "_smartToken",
          "type": "address"
        },
        {
          "indexed": true,
          "internalType": "contract IERC20",
          "name": "_fromToken",
          "type": "address"
        },
        {
          "indexed": true,
          "internalType": "contract IERC20",
          "name": "_toToken",
          "type": "address"
        },
        {
          "indexed": false,
          "internalType": "uint256",
          "name": "_fromAmount",
          "type": "uint256"
        },
        {
          "indexed": false,
          "internalType": "uint256",
          "name": "_toAmount",
          "type": "uint256"
        },
        {
          "indexed": false,
          "internalType": "address",
          "name": "_trader",
          "type": "address"
        }
      ],
      "name": "Conversion",
      "type": "event"
    },
    {
      "anonymous": false,
      "inputs": [
        {
          "indexed": true,
          "internalType": "address",
          "name": "_prevOwner",
          "type": "address"
        },
        {
          "indexed": true,
          "internalType": "address",
          "name": "_newOwner",
          "type": "address"
        }
      ],
      "name": "OwnerUpdate",
      "type": "event"
    },
    {
      "inputs": [],
      "name": "acceptOwnership",
      "outputs": [],
      "stateMutability": "nonpayable",
      "type": "function"
    },
    {
      "inputs": [
        {
          "internalType": "address[]",
          "name": "_path",
          "type": "address[]"
        },
        {
          "internalType": "uint256",
          "name": "_amount",
          "type": "uint256"
        },
        {
          "internalType": "uint256",
          "name": "_minReturn",
          "type": "uint256"
        }
      ],
      "name": "claimAndConvert",
      "outputs": [
        {
          "internalType": "uint256",
          "name": "",
          "type": "uint256"
        }
      ],
      "stateMutability": "nonpayable",
      "type": "function"
    },
    {
      "inputs": [
        {
          "internalType": "address[]",
          "name": "_path",
          "type": "address[]"
        },
        {
          "internalType": "uint256",
          "name": "_amount",
          "type": "uint256"
        },
        {
          "internalType": "uint256",
          "name": "_minReturn",
          "type": "uint256"
        },
        {
          "internalType": "address",
          "name": "_affiliateAccount",
          "type": "address"
        },
        {
          "internalType": "uint256",
          "name": "_affiliateFee",
          "type": "uint256"
        }
      ],
      "name": "claimAndConvert2",
      "outputs": [
        {
          "internalType": "uint256",
          "name": "",
          "type": "uint256"
        }
      ],
      "stateMutability": "nonpayable",
      "type": "function"
    },
    {
      "inputs": [
        {
          "internalType": "address[]",
          "name": "_path",
          "type": "address[]"
        },
        {
          "internalType": "uint256",
          "name": "_amount",
          "type": "uint256"
        },
        {
          "internalType": "uint256",
          "name": "_minReturn",
          "type": "uint256"
        },
        {
          "internalType": "address payable",
          "name": "_beneficiary",
          "type": "address"
        }
      ],
      "name": "claimAndConvertFor",
      "outputs": [
        {
          "internalType": "uint256",
          "name": "",
          "type": "uint256"
        }
      ],
      "stateMutability": "nonpayable",
      "type": "function"
    },
    {
      "inputs": [
        {
          "internalType": "address[]",
          "name": "_path",
          "type": "address[]"
        },
        {
          "internalType": "uint256",
          "name": "_amount",
          "type": "uint256"
        },
        {
          "internalType": "uint256",
          "name": "_minReturn",
          "type": "uint256"
        },
        {
          "internalType": "address payable",
          "name": "_beneficiary",
          "type": "address"
        },
        {
          "internalType": "address",
          "name": "_affiliateAccount",
          "type": "address"
        },
        {
          "internalType": "uint256",
          "name": "_affiliateFee",
          "type": "uint256"
        }
      ],
      "name": "claimAndConvertFor2",
      "outputs": [
        {
          "internalType": "uint256",
          "name": "",
          "type": "uint256"
        }
      ],
      "stateMutability": "nonpayable",
      "type": "function"
    },
    {
      "inputs": [
        {
          "internalType": "address[]",
          "name": "_path",
          "type": "address[]"
        },
        {
          "internalType": "contract IBancorX",
          "name": "_bancorX",
          "type": "address"
        },
        {
          "internalType": "uint256",
          "name": "_conversionId",
          "type": "uint256"
        },
        {
          "internalType": "uint256",
          "name": "_minReturn",
          "type": "uint256"
        },
        {
          "internalType": "address payable",
          "name": "_beneficiary",
          "type": "address"
        }
      ],
      "name": "completeXConversion",
      "outputs": [
        {
          "internalType": "uint256",
          "name": "",
          "type": "uint256"
        }
      ],
      "stateMutability": "nonpayable",
      "type": "function"
    },
    {
      "inputs": [
        {
          "internalType": "contract IERC20",
          "name": "_sourceToken",
          "type": "address"
        },
        {
          "internalType": "contract IERC20",
          "name": "_targetToken",
          "type": "address"
        }
      ],
      "name": "conversionPath",
      "outputs": [
        {
          "internalType": "address[]",
          "name": "",
          "type": "address[]"
        }
      ],
      "stateMutability": "view",
      "type": "function"
    },
    {
      "inputs": [
        {
          "internalType": "address[]",
          "name": "_path",
          "type": "address[]"
        },
        {
          "internalType": "uint256",
          "name": "_amount",
          "type": "uint256"
        },
        {
          "internalType": "uint256",
          "name": "_minReturn",
          "type": "uint256"
        }
      ],
      "name": "convert",
      "outputs": [
        {
          "internalType": "uint256",
          "name": "",
          "type": "uint256"
        }
      ],
      "stateMutability": "payable",
      "type": "function"
    },
    {
      "inputs": [
        {
          "internalType": "address[]",
          "name": "_path",
          "type": "address[]"
        },
        {
          "internalType": "uint256",
          "name": "_amount",
          "type": "uint256"
        },
        {
          "internalType": "uint256",
          "name": "_minReturn",
          "type": "uint256"
        },
        {
          "internalType": "address",
          "name": "_affiliateAccount",
          "type": "address"
        },
        {
          "internalType": "uint256",
          "name": "_affiliateFee",
          "type": "uint256"
        }
      ],
      "name": "convert2",
      "outputs": [
        {
          "internalType": "uint256",
          "name": "",
          "type": "uint256"
        }
      ],
      "stateMutability": "payable",
      "type": "function"
    },
    {
      "inputs": [
        {
          "internalType": "address[]",
          "name": "_path",
          "type": "address[]"
        },
        {
          "internalType": "uint256",
          "name": "_amount",
          "type": "uint256"
        },
        {
          "internalType": "uint256",
          "name": "_minReturn",
          "type": "uint256"
        },
        {
          "internalType": "address payable",
          "name": "_beneficiary",
          "type": "address"
        },
        {
          "internalType": "address",
          "name": "_affiliateAccount",
          "type": "address"
        },
        {
          "internalType": "uint256",
          "name": "_affiliateFee",
          "type": "uint256"
        }
      ],
      "name": "convertByPath",
      "outputs": [
        {
          "internalType": "uint256",
          "name": "",
          "type": "uint256"
        }
      ],
      "stateMutability": "payable",
      "type": "function"
    },
    {
      "inputs": [
        {
          "internalType": "address[]",
          "name": "_path",
          "type": "address[]"
        },
        {
          "internalType": "uint256",
          "name": "_amount",
          "type": "uint256"
        },
        {
          "internalType": "uint256",
          "name": "_minReturn",
          "type": "uint256"
        },
        {
          "internalType": "address payable",
          "name": "_beneficiary",
          "type": "address"
        }
      ],
      "name": "convertFor",
      "outputs": [
        {
          "internalType": "uint256",
          "name": "",
          "type": "uint256"
        }
      ],
      "stateMutability": "payable",
      "type": "function"
    },
    {
      "inputs": [
        {
          "internalType": "address[]",
          "name": "_path",
          "type": "address[]"
        },
        {
          "internalType": "uint256",
          "name": "_amount",
          "type": "uint256"
        },
        {
          "internalType": "uint256",
          "name": "_minReturn",
          "type": "uint256"
        },
        {
          "internalType": "address payable",
          "name": "_beneficiary",
          "type": "address"
        },
        {
          "internalType": "address",
          "name": "_affiliateAccount",
          "type": "address"
        },
        {
          "internalType": "uint256",
          "name": "_affiliateFee",
          "type": "uint256"
        }
      ],
      "name": "convertFor2",
      "outputs": [
        {
          "internalType": "uint256",
          "name": "",
          "type": "uint256"
        }
      ],
      "stateMutability": "payable",
      "type": "function"
    },
    {
      "inputs": [
        {
          "internalType": "contract IERC20",
          "name": "",
          "type": "address"
        }
      ],
      "name": "etherTokens",
      "outputs": [
        {
          "internalType": "bool",
          "name": "",
          "type": "bool"
        }
      ],
      "stateMutability": "view",
      "type": "function"
    },
    {
      "inputs": [
        {
          "internalType": "address[]",
          "name": "_path",
          "type": "address[]"
        },
        {
          "internalType": "uint256",
          "name": "_amount",
          "type": "uint256"
        }
      ],
      "name": "getReturnByPath",
      "outputs": [
        {
          "internalType": "uint256",
          "name": "",
          "type": "uint256"
        },
        {
          "internalType": "uint256",
          "name": "",
          "type": "uint256"
        }
      ],
      "stateMutability": "view",
      "type": "function"
    },
    {
      "inputs": [],
      "name": "maxAffiliateFee",
      "outputs": [
        {
          "internalType": "uint256",
          "name": "",
          "type": "uint256"
        }
      ],
      "stateMutability": "view",
      "type": "function"
    },
    {
      "inputs": [],
      "name": "newOwner",
      "outputs": [
        {
          "internalType": "address",
          "name": "",
          "type": "address"
        }
      ],
      "stateMutability": "view",
      "type": "function"
    },
    {
      "inputs": [],
      "name": "onlyOwnerCanUpdateRegistry",
      "outputs": [
        {
          "internalType": "bool",
          "name": "",
          "type": "bool"
        }
      ],
      "stateMutability": "view",
      "type": "function"
    },
    {
      "inputs": [],
      "name": "owner",
      "outputs": [
        {
          "internalType": "address",
          "name": "",
          "type": "address"
        }
      ],
      "stateMutability": "view",
      "type": "function"
    },
    {
      "inputs": [],
      "name": "prevRegistry",
      "outputs": [
        {
          "internalType": "contract IContractRegistry",
          "name": "",
          "type": "address"
        }
      ],
      "stateMutability": "view",
      "type": "function"
    },
    {
      "inputs": [
        {
          "internalType": "address[]",
          "name": "_path",
          "type": "address[]"
        },
        {
          "internalType": "uint256",
          "name": "_amount",
          "type": "uint256"
        }
      ],
      "name": "rateByPath",
      "outputs": [
        {
          "internalType": "uint256",
          "name": "",
          "type": "uint256"
        }
      ],
      "stateMutability": "view",
      "type": "function"
    },
    {
      "inputs": [
        {
          "internalType": "contract IEtherToken",
          "name": "_token",
          "type": "address"
        },
        {
          "internalType": "bool",
          "name": "_register",
          "type": "bool"
        }
      ],
      "name": "registerEtherToken",
      "outputs": [],
      "stateMutability": "nonpayable",
      "type": "function"
    },
    {
      "inputs": [],
      "name": "registry",
      "outputs": [
        {
          "internalType": "contract IContractRegistry",
          "name": "",
          "type": "address"
        }
      ],
      "stateMutability": "view",
      "type": "function"
    },
    {
      "inputs": [],
      "name": "restoreRegistry",
      "outputs": [],
      "stateMutability": "nonpayable",
      "type": "function"
    },
    {
      "inputs": [
        {
          "internalType": "bool",
          "name": "_onlyOwnerCanUpdateRegistry",
          "type": "bool"
        }
      ],
      "name": "restrictRegistryUpdate",
      "outputs": [],
      "stateMutability": "nonpayable",
      "type": "function"
    },
    {
      "inputs": [
        {
          "internalType": "uint256",
          "name": "_maxAffiliateFee",
          "type": "uint256"
        }
      ],
      "name": "setMaxAffiliateFee",
      "outputs": [],
      "stateMutability": "nonpayable",
      "type": "function"
    },
    {
      "inputs": [
        {
          "internalType": "address",
          "name": "_newOwner",
          "type": "address"
        }
      ],
      "name": "transferOwnership",
      "outputs": [],
      "stateMutability": "nonpayable",
      "type": "function"
    },
    {
      "inputs": [],
      "name": "updateRegistry",
      "outputs": [],
      "stateMutability": "nonpayable",
      "type": "function"
    },
    {
      "inputs": [
        {
          "internalType": "contract IERC20",
          "name": "_token",
          "type": "address"
        },
        {
          "internalType": "address",
          "name": "_to",
          "type": "address"
        },
        {
          "internalType": "uint256",
          "name": "_amount",
          "type": "uint256"
        }
      ],
      "name": "withdrawTokens",
      "outputs": [],
      "stateMutability": "nonpayable",
      "type": "function"
    },
    {
      "inputs": [
        {
          "internalType": "address[]",
          "name": "_path",
          "type": "address[]"
        },
        {
          "internalType": "uint256",
          "name": "_amount",
          "type": "uint256"
        },
        {
          "internalType": "uint256",
          "name": "_minReturn",
          "type": "uint256"
        },
        {
          "internalType": "bytes32",
          "name": "_targetBlockchain",
          "type": "bytes32"
        },
        {
          "internalType": "bytes32",
          "name": "_targetAccount",
          "type": "bytes32"
        },
        {
          "internalType": "uint256",
          "name": "_conversionId",
          "type": "uint256"
        }
      ],
      "name": "xConvert",
      "outputs": [
        {
          "internalType": "uint256",
          "name": "",
          "type": "uint256"
        }
      ],
      "stateMutability": "payable",
      "type": "function"
    },
    {
      "inputs": [
        {
          "internalType": "address[]",
          "name": "_path",
          "type": "address[]"
        },
        {
          "internalType": "uint256",
          "name": "_amount",
          "type": "uint256"
        },
        {
          "internalType": "uint256",
          "name": "_minReturn",
          "type": "uint256"
        },
        {
          "internalType": "bytes32",
          "name": "_targetBlockchain",
          "type": "bytes32"
        },
        {
          "internalType": "bytes32",
          "name": "_targetAccount",
          "type": "bytes32"
        },
        {
          "internalType": "uint256",
          "name": "_conversionId",
          "type": "uint256"
        },
        {
          "internalType": "address",
          "name": "_affiliateAccount",
          "type": "address"
        },
        {
          "internalType": "uint256",
          "name": "_affiliateFee",
          "type": "uint256"
        }
      ],
      "name": "xConvert2",
      "outputs": [
        {
          "internalType": "uint256",
          "name": "",
          "type": "uint256"
        }
      ],
      "stateMutability": "payable",
      "type": "function"
    },
    {
      "inputs": [
        {
          "internalType": "contract IConverter",
          "name": "_converter",
          "type": "address"
        }
      ],
      "name": "isV28OrHigherConverterExternal",
      "outputs": [
        {
          "internalType": "bool",
          "name": "",
          "type": "bool"
        }
      ],
      "stateMutability": "view",
      "type": "function"
    },
    {
      "inputs": [],
      "name": "getReturnOld",
      "outputs": [
        {
          "internalType": "uint256",
          "name": "",
          "type": "uint256"
        },
        {
          "internalType": "uint256",
          "name": "",
          "type": "uint256"
        }
      ],
      "stateMutability": "view",
      "type": "function"
    },
    {
      "inputs": [],
      "name": "getReturnNew",
      "outputs": [
        {
          "internalType": "uint256",
          "name": "",
          "type": "uint256"
        },
        {
          "internalType": "uint256",
          "name": "",
          "type": "uint256"
        }
      ],
      "stateMutability": "view",
      "type": "function"
    }
  ],
  "bytecode": "0x608060405260016004556175306005553480156200001c57600080fd5b5060405162003e3d38038062003e3d833981810160405260408110156200004257600080fd5b508051602090910151600080546001600160a01b03191633179055600180806200006c816200019e565b50600280546001600160a01b039092166001600160a01b03199283168117909155600380549092161790555073eeeeeeeeeeeeeeeeeeeeeeeeeeeeeeeeeeeeeeee60005260066020527fa2e5aefc6e2cbe2917a296f0fd89c5f915c487c803db1d98eccb43f14012d711805460ff191660011790556040518290620000f190620001fd565b90815260405190819003602001906000f08015801562000115573d6000803e3d6000fd5b50600760006101000a8154816001600160a01b0302191690836001600160a01b0316021790555081816040516200014c906200020a565b9182526020820152604080519182900301906000f08015801562000174573d6000803e3d6000fd5b50600880546001600160a01b0319166001600160a01b039290921691909117905550620002189050565b6001600160a01b038116620001fa576040805162461bcd60e51b815260206004820152601360248201527f4552525f494e56414c49445f4144445245535300000000000000000000000000604482015290519081900360640190fd5b50565b60f88062003c3583390190565b6101108062003d2d83390190565b613a0d80620002286000396000f3fe6080604052600436106101ee5760003560e01c806389f9cc611161010d578063c7ba24bc116100a0578063d734fa191161006f578063d734fa1914610c9a578063e57738e514610d25578063f2fde38b14610d48578063f3898a9714610d7b578063f3bc7d2a14610d91576101ee565b8063c7ba24bc14610aee578063c98fefed14610ba1578063cb32564e14610bb7578063d4ee1d9014610c85576101ee565b8063b1e9932b116100dc578063b1e9932b1461089a578063b4a176d31461095c578063b77d239b14610971578063c52173de14610a36576101ee565b806389f9cc61146106e05780638da5cb5b146107ab57806398e95740146107c0578063ab6214ce146107d5576101ee565b80635d732ff21161018557806379ba50971161015457806379ba5097146105d35780637b103999146105e85780637f9c0ecd146105fd5780638077ccf7146106ad576101ee565b80635d732ff2146105355780635e35359e1461054a57806361cd756e1461058d578063699e7546146105be576101ee565b80632978c10e116101c15780632978c10e1461036c5780632fe8a6ad1461045057806349d10b6414610465578063569706eb1461047a576101ee565b8063024c7ec7146101f357806302ef521e1461022157806303613f391461025c5780630c8496cc146102a3575b600080fd5b3480156101ff57600080fd5b5061021f6004803603602081101561021657600080fd5b50351515610dbb565b005b34801561022d57600080fd5b5061021f6004803603604081101561024457600080fd5b506001600160a01b0381351690602001351515610de1565b34801561026857600080fd5b5061028f6004803603602081101561027f57600080fd5b50356001600160a01b0316610e2a565b604080519115158252519081900360200190f35b3480156102af57600080fd5b50610353600480360360408110156102c657600080fd5b810190602081018135600160201b8111156102e057600080fd5b8201836020820111156102f257600080fd5b803590602001918460208302840111600160201b8311171561031357600080fd5b9190808060200260200160405190810160405280939291908181526020018383602002808284376000920191909152509295505091359250610e3d915050565b6040805192835260208301919091528051918290030190f35b34801561037857600080fd5b5061043e600480360360c081101561038f57600080fd5b810190602081018135600160201b8111156103a957600080fd5b8201836020820111156103bb57600080fd5b803590602001918460208302840111600160201b831117156103dc57600080fd5b919080806020026020016040519081016040528093929190818152602001838360200280828437600092019190915250929550508235935050506020810135906001600160a01b03604082013581169160608101359091169060800135610e55565b60408051918252519081900360200190f35b34801561045c57600080fd5b5061028f610e70565b34801561047157600080fd5b5061021f610e80565b61043e600480360360a081101561049057600080fd5b810190602081018135600160201b8111156104aa57600080fd5b8201836020820111156104bc57600080fd5b803590602001918460208302840111600160201b831117156104dd57600080fd5b919080806020026020016040519081016040528093929190818152602001838360200280828437600092019190915250929550508235935050506020810135906001600160a01b036040820135169060600135611088565b34801561054157600080fd5b5061043e6110a3565b34801561055657600080fd5b5061021f6004803603606081101561056d57600080fd5b506001600160a01b038135811691602081013590911690604001356110a9565b34801561059957600080fd5b506105a26110eb565b604080516001600160a01b039092168252519081900360200190f35b3480156105ca57600080fd5b506103536110fa565b3480156105df57600080fd5b5061021f61111f565b3480156105f457600080fd5b506105a26111d6565b34801561060957600080fd5b5061043e6004803603604081101561062057600080fd5b810190602081018135600160201b81111561063a57600080fd5b82018360208201111561064c57600080fd5b803590602001918460208302840111600160201b8311171561066d57600080fd5b91908080602002602001604051908101604052809392919081815260200183836020028082843760009201919091525092955050913592506111e5915050565b3480156106b957600080fd5b5061028f600480360360208110156106d057600080fd5b50356001600160a01b0316611902565b3480156106ec57600080fd5b5061043e600480360360a081101561070357600080fd5b810190602081018135600160201b81111561071d57600080fd5b82018360208201111561072f57600080fd5b803590602001918460208302840111600160201b8311171561075057600080fd5b919080806020026020016040519081016040528093929190818152602001838360200280828437600092019190915250929550506001600160a01b038335811694506020840135936040810135935060600135169050611917565b3480156107b757600080fd5b506105a2611a8e565b3480156107cc57600080fd5b50610353611a9d565b61043e600480360360c08110156107eb57600080fd5b810190602081018135600160201b81111561080557600080fd5b82018360208201111561081757600080fd5b803590602001918460208302840111600160201b8311171561083857600080fd5b919080806020026020016040519081016040528093929190818152602001838360200280828437600092019190915250929550508235935050506020810135906001600160a01b03604082013581169160608101359091169060800135611aba565b3480156108a657600080fd5b5061043e600480360360808110156108bd57600080fd5b810190602081018135600160201b8111156108d757600080fd5b8201836020820111156108e957600080fd5b803590602001918460208302840111600160201b8311171561090a57600080fd5b91908080602002602001604051908101604052809392919081815260200183836020028082843760009201919091525092955050823593505050602081013590604001356001600160a01b0316611ae0565b34801561096857600080fd5b5061021f611afa565b61043e600480360360c081101561098757600080fd5b810190602081018135600160201b8111156109a157600080fd5b8201836020820111156109b357600080fd5b803590602001918460208302840111600160201b831117156109d457600080fd5b919080806020026020016040519081016040528093929190818152602001838360200280828437600092019190915250929550508235935050506020810135906001600160a01b03604082013581169160608101359091169060800135611b26565b61043e600480360360c0811015610a4c57600080fd5b810190602081018135600160201b811115610a6657600080fd5b820183602082011115610a7857600080fd5b803590602001918460208302840111600160201b83111715610a9957600080fd5b9190808060200260200160405190810160405280939291908181526020018383602002808284376000920191909152509295505082359350505060208101359060408101359060608101359060800135611ceb565b348015610afa57600080fd5b5061043e60048036036060811015610b1157600080fd5b810190602081018135600160201b811115610b2b57600080fd5b820183602082011115610b3d57600080fd5b803590602001918460208302840111600160201b83111715610b5e57600080fd5b9190808060200260200160405190810160405280939291908181526020018383602002808284376000920191909152509295505082359350505060200135611cfe565b61043e600480360360808110156108bd57600080fd5b61043e6004803603610100811015610bce57600080fd5b810190602081018135600160201b811115610be857600080fd5b820183602082011115610bfa57600080fd5b803590602001918460208302840111600160201b83111715610c1b57600080fd5b919080806020026020016040519081016040528093929190818152602001838360200280828437600092019190915250929550508235935050506020810135906040810135906060810135906080810135906001600160a01b0360a0820135169060c00135611d1a565b348015610c9157600080fd5b506105a2611e75565b348015610ca657600080fd5b50610cd560048036036040811015610cbd57600080fd5b506001600160a01b0381358116916020013516611e84565b60408051602080825283518183015283519192839290830191858101910280838360005b83811015610d11578181015183820152602001610cf9565b505050509050019250505060405180910390f35b348015610d3157600080fd5b5061043e600480360360a081101561049057600080fd5b348015610d5457600080fd5b5061021f60048036036020811015610d6b57600080fd5b50356001600160a01b0316611fd8565b61043e60048036036060811015610b1157600080fd5b348015610d9d57600080fd5b5061021f60048036036020811015610db457600080fd5b5035612056565b610dc36120b7565b60038054911515600160a01b0260ff60a01b19909216919091179055565b610de96120b7565b81610df38161210c565b82610dfd81612160565b50506001600160a01b03919091166000908152600660205260409020805460ff1916911515919091179055565b6000610e35826121b4565b90505b919050565b600080610e4a84846111e5565b946000945092505050565b6000610e65878787878787611b26565b979650505050505050565b600354600160a01b900460ff1681565b6000546001600160a01b0316331480610ea35750600354600160a01b900460ff16155b610ee8576040805162461bcd60e51b815260206004820152601160248201527011549497d050d0d154d4d7d11153925151607a1b604482015290519081900360640190fd5b6000610f066f436f6e7472616374526567697374727960801b6122cb565b6002549091506001600160a01b03808316911614801590610f2f57506001600160a01b03811615155b610f77576040805162461bcd60e51b81526020600482015260146024820152734552525f494e56414c49445f524547495354525960601b604482015290519081900360640190fd5b60006001600160a01b0316816001600160a01b031663bb34534c6f436f6e7472616374526567697374727960801b6040518263ffffffff1660e01b81526004018082815260200191505060206040518083038186803b158015610fd957600080fd5b505afa158015610fed573d6000803e3d6000fd5b505050506040513d602081101561100357600080fd5b50516001600160a01b03161415611058576040805162461bcd60e51b81526020600482015260146024820152734552525f494e56414c49445f524547495354525960601b604482015290519081900360640190fd5b60028054600380546001600160a01b038084166001600160a01b0319928316179092559091169216919091179055565b600061109986868660008787611b26565b9695505050505050565b60055481565b6110b16120b7565b826110bb8161210c565b826110c58161210c565b836110cf81612160565b6110e36001600160a01b0387168686612349565b505050505050565b6003546001600160a01b031681565b6008546000908190611117906001600160a01b03168280806123a0565b915091509091565b6001546001600160a01b03163314611172576040805162461bcd60e51b815260206004820152601160248201527011549497d050d0d154d4d7d11153925151607a1b604482015290519081900360640190fd5b600154600080546040516001600160a01b0393841693909116917f343765429aea5a34b3ff6a3785a98a5abb2597aca87bfbb58632c173d585373a91a360018054600080546001600160a01b03199081166001600160a01b03841617909155169055565b6002546001600160a01b031681565b60008060008060008060008061120a6c42616e636f72466f726d756c6160981b6122cb565b905088965060028a5111801561122b575060028a518161122657fe5b066001145b61126f576040805162461bcd60e51b815260206004820152601060248201526f08aa4a4be929cac82989288bea082a8960831b604482015290519081900360640190fd5b60025b8a518110156118f15760008b600283038151811061128c57fe5b6020026020010151905060008c60018403815181106112a757fe5b6020026020010151905060008d84815181106112bf57fe5b60200260200101519050816001600160a01b0316638da5cb5b6040518163ffffffff1660e01b815260040160206040518083038186803b15801561130257600080fd5b505afa158015611316573d6000803e3d6000fd5b505050506040513d602081101561132c57600080fd5b5051955061133a8684612514565b92506113468682612514565b9050816001600160a01b0316816001600160a01b0316141561163357600384108061139957508d600385038151811061137b57fe5b60200260200101516001600160a01b0316826001600160a01b031614155b1561140657816001600160a01b03166318160ddd6040518163ffffffff1660e01b815260040160206040518083038186803b1580156113d757600080fd5b505afa1580156113eb573d6000803e3d6000fd5b505050506040513d602081101561140157600080fd5b505198505b856001600160a01b031663d8959512846040518263ffffffff1660e01b815260040180826001600160a01b0316815260200191505060206040518083038186803b15801561145357600080fd5b505afa158015611467573d6000803e3d6000fd5b505050506040513d602081101561147d57600080fd5b505160408051630e53aae960e01b81526001600160a01b0386811660048301529151929a5090881691630e53aae99160248082019260a092909190829003018186803b1580156114cc57600080fd5b505afa1580156114e0573d6000803e3d6000fd5b505050506040513d60a08110156114f657600080fd5b506020908101516040805163799287f160e11b8152600481018d9052602481018c905263ffffffff83166044820152606481018f905290519199506001600160a01b0388169263f3250fe292608480840193829003018186803b15801561155c57600080fd5b505afa158015611570573d6000803e3d6000fd5b505050506040513d602081101561158657600080fd5b505160408051632bce69e560e11b81529051919c5061161b91620f424091611615916001600160a01b038b169163579cd3ca916004808301926020929190829003018186803b1580156115d857600080fd5b505afa1580156115ec573d6000803e3d6000fd5b505050506040513d602081101561160257600080fd5b50518e9063ffffffff9081169061256d16565b906125c6565b9a8b90039a995061162c898c61262d565b98506118e6565b816001600160a01b0316836001600160a01b031614156118d457600384108061168457508d600385038151811061166657fe5b60200260200101516001600160a01b0316826001600160a01b031614155b156116f157816001600160a01b03166318160ddd6040518163ffffffff1660e01b815260040160206040518083038186803b1580156116c257600080fd5b505afa1580156116d6573d6000803e3d6000fd5b505050506040513d60208110156116ec57600080fd5b505198505b856001600160a01b031663d8959512826040518263ffffffff1660e01b815260040180826001600160a01b0316815260200191505060206040518083038186803b15801561173e57600080fd5b505afa158015611752573d6000803e3d6000fd5b505050506040513d602081101561176857600080fd5b505160408051630e53aae960e01b81526001600160a01b0384811660048301529151929a5090881691630e53aae99160248082019260a092909190829003018186803b1580156117b757600080fd5b505afa1580156117cb573d6000803e3d6000fd5b505050506040513d60a08110156117e157600080fd5b5060209081015160408051633b6785ab60e11b8152600481018d9052602481018c905263ffffffff83166044820152606481018f905290519199506001600160a01b038816926376cf0b5692608480840193829003018186803b15801561184757600080fd5b505afa15801561185b573d6000803e3d6000fd5b505050506040513d602081101561187157600080fd5b505160408051632bce69e560e11b81529051919c506118c391620f424091611615916001600160a01b038b169163579cd3ca916004808301926020929190829003018186803b1580156115d857600080fd5b9a8b90039a995061162c898c612687565b6118e08684838e6123a0565b909b5099505b505050600201611272565b509596505050505050505b92915050565b60066020526000908152604090205460ff1681565b6000846001600160a01b031663fc0c546a6040518163ffffffff1660e01b815260040160206040518083038186803b15801561195257600080fd5b505afa158015611966573d6000803e3d6000fd5b505050506040513d602081101561197c57600080fd5b505186516001600160a01b0390911690879060009061199757fe5b60200260200101516001600160a01b0316146119fa576040805162461bcd60e51b815260206004820152601860248201527f4552525f494e56414c49445f534f555243455f544f4b454e0000000000000000604482015290519081900360640190fd5b6000856001600160a01b031663aafd6b7686336040518363ffffffff1660e01b815260040180838152602001826001600160a01b031681526020019250505060206040518083038186803b158015611a5157600080fd5b505afa158015611a65573d6000803e3d6000fd5b505050506040513d6020811015611a7b57600080fd5b50519050610e6587828686600080611b26565b6000546001600160a01b031681565b6007546000908190611117906001600160a01b03168280806123a0565b600084611ac6816126e4565b611ad4888888888888611b26565b98975050505050505050565b6000611af185858585600080611b26565b95945050505050565b611b026120b7565b600354600280546001600160a01b0319166001600160a01b03909216919091179055565b6000611b3061272a565b600260045584611b3f816126e4565b60028851118015611b5b57506002885181611b5657fe5b066001145b611b9f576040805162461bcd60e51b815260206004820152601060248201526f08aa4a4be929cac82989288bea082a8960831b604482015290519081900360640190fd5b611bd288600081518110611baf57fe5b602002602001015189600181518110611bc457fe5b602002602001015189612772565b60006001600160a01b038516611c36578315611c31576040805162461bcd60e51b81526020600482015260196024820152784552525f494e56414c49445f414646494c494154455f46454560381b604482015290519081900360640190fd5b611c99565b836000108015611c4857506005548411155b611c95576040805162461bcd60e51b81526020600482015260196024820152784552525f494e56414c49445f414646494c494154455f46454560381b604482015290519081900360640190fd5b5060015b336001600160a01b03871615611cac5750855b6060611cb98b838561297f565b90506000611cca828c8c8b8b612d7c565b9050611cd782828561325a565b60016004559b9a5050505050505050505050565b6000610e65878787878787600080611d1a565b6000611d108484846000806000611b26565b90505b9392505050565b600086611d26816126e4565b60008a60018c510381518110611d3857fe5b602002602001015190506000611d5766084c2dcc6dee4b60cb1b6122cb565b9050611d6d6721272a2a37b5b2b760c11b6122cb565b6001600160a01b0316826001600160a01b031614611dd2576040805162461bcd60e51b815260206004820152601860248201527f4552525f494e56414c49445f5441524745545f544f4b454e0000000000000000604482015290519081900360640190fd5b6000611de28d8d8d308b8b611b26565b9050611def83838361333c565b6040805163109f00dd60e21b8152600481018c9052602481018b905260448101839052606481018a905290516001600160a01b0384169163427c037491608480830192600092919082900301818387803b158015611e4c57600080fd5b505af1158015611e60573d6000803e3d6000fd5b50929f9e505050505050505050505050505050565b6001546001600160a01b031681565b60606000611ea87321b7b73b32b939b4b7b72830ba342334b73232b960611b6122cb565b9050806001600160a01b031663a1c421cd85856040518363ffffffff1660e01b815260040180836001600160a01b03168152602001826001600160a01b031681526020019250505060006040518083038186803b158015611f0857600080fd5b505afa158015611f1c573d6000803e3d6000fd5b505050506040513d6000823e601f3d908101601f191682016040526020811015611f4557600080fd5b8101908080516040519392919084600160201b821115611f6457600080fd5b908301906020820185811115611f7957600080fd5b82518660208202830111600160201b82111715611f9557600080fd5b82525081516020918201928201910280838360005b83811015611fc2578181015183820152602001611faa565b5050505090500160405250505091505092915050565b611fe06120b7565b6000546001600160a01b0382811691161415612034576040805162461bcd60e51b815260206004820152600e60248201526d22a9292fa9a0a6a2afa7aba722a960911b604482015290519081900360640190fd5b600180546001600160a01b0319166001600160a01b0392909216919091179055565b61205e6120b7565b620f42408111156120b2576040805162461bcd60e51b81526020600482015260196024820152784552525f494e56414c49445f414646494c494154455f46454560381b604482015290519081900360640190fd5b600555565b6000546001600160a01b0316331461210a576040805162461bcd60e51b815260206004820152601160248201527011549497d050d0d154d4d7d11153925151607a1b604482015290519081900360640190fd5b565b6001600160a01b03811661215d576040805162461bcd60e51b81526020600482015260136024820152724552525f494e56414c49445f4144445245535360681b604482015290519081900360640190fd5b50565b6001600160a01b03811630141561215d576040805162461bcd60e51b815260206004820152601360248201527222a9292fa0a2222922a9a9afa4a9afa9a2a62360691b604482015290519081900360640190fd5b60408051600481526024810182526020810180516001600160e01b031663349814a760e21b1781529151815160009384926060926001600160a01b03881692610fa0928792909182918083835b602083106122205780518252601f199092019160209182019101612201565b6001836020036101000a0380198251168184511680821785525050505050509050019150506000604051808303818686fa925050503d8060008114612281576040519150601f19603f3d011682016040523d82523d6000602084013e612286565b606091505b5091509150818015612299575080516020145b156122c0578080602001905160208110156122b357600080fd5b50519350610e3892505050565b506000949350505050565b60025460408051632ecd14d360e21b81526004810184905290516000926001600160a01b03169163bb34534c916024808301926020929190829003018186803b15801561231757600080fd5b505afa15801561232b573d6000803e3d6000fd5b505050506040513d602081101561234157600080fd5b505192915050565b604080516001600160a01b038416602482015260448082018490528251808303909101815260649091019091526020810180516001600160e01b031663a9059cbb60e01b17905261239b9084906133f8565b505050565b604080516001600160a01b0380861660248301528085166044830152606480830185905283518084039091018152608490920183526020820180516001600160e01b03166303c2803f60e31b178152925182516000948594938593606093918c169286928291908083835b6020831061242a5780518252601f19909201916020918201910161240b565b6001836020036101000a038019825116818451168082178552505050505050905001915050600060405180830381855afa9150503d806000811461248a576040519150601f19603f3d011682016040523d82523d6000602084013e61248f565b606091505b50915091508115612500578051604014156124d0578080602001905160408110156124b957600080fd5b508051602090910151909550935061250b92505050565b805160201415612500578080602001905160208110156124ef57600080fd5b505194506000935061250b92505050565b600080945094505050505b94509492505050565b6001600160a01b03811660009081526006602052604081205460ff1661253b5750806118fc565b612544836121b4565b15612564575073eeeeeeeeeeeeeeeeeeeeeeeeeeeeeeeeeeeeeeee6118fc565b611d13836134a9565b60008261257c575060006118fc565b8282028284828161258957fe5b0414611d135760405162461bcd60e51b81526004018080602001828103825260218152602001806139576021913960400191505060405180910390fd5b600080821161261c576040805162461bcd60e51b815260206004820152601a60248201527f536166654d6174683a206469766973696f6e206279207a65726f000000000000604482015290519081900360640190fd5b81838161262557fe5b049392505050565b600082820183811015611d13576040805162461bcd60e51b815260206004820152601b60248201527f536166654d6174683a206164646974696f6e206f766572666c6f770000000000604482015290519081900360640190fd5b6000828211156126de576040805162461bcd60e51b815260206004820152601e60248201527f536166654d6174683a207375627472616374696f6e206f766572666c6f770000604482015290519081900360640190fd5b50900390565b6000811161215d576040805162461bcd60e51b815260206004820152600e60248201526d4552525f5a45524f5f56414c554560901b604482015290519081900360640190fd5b60016004541461210a576040805162461bcd60e51b815260206004820152600e60248201526d4552525f5245454e5452414e435960901b604482015290519081900360640190fd5b6000826001600160a01b0316638da5cb5b6040518163ffffffff1660e01b815260040160206040518083038186803b1580156127ad57600080fd5b505afa1580156127c1573d6000803e3d6000fd5b505050506040513d60208110156127d757600080fd5b5051905060006127e6826121b4565b905034156128a957823414612842576040805162461bcd60e51b815260206004820152601760248201527f4552525f4554485f414d4f554e545f4d49534d41544348000000000000000000604482015290519081900360640190fd5b806128a457612850826134a9565b6001600160a01b031663d0e30db0346040518263ffffffff1660e01b81526004016000604051808303818588803b15801561288a57600080fd5b505af115801561289e573d6000803e3d6000fd5b50505050505b612978565b6001600160a01b03851660009081526006602052604090205460ff1615612948576128df6001600160a01b0386163330866135e8565b80156128a457846001600160a01b0316632e1a7d4d846040518263ffffffff1660e01b815260040180828152602001915050600060405180830381600087803b15801561292b57600080fd5b505af115801561293f573d6000803e3d6000fd5b50505050612978565b8015612963576128a46001600160a01b0386163384866135e8565b6129786001600160a01b0386163330866135e8565b5050505050565b606080600285518161298d57fe5b0467ffffffffffffffff811180156129a457600080fd5b506040519080825280602002602001820160405280156129de57816020015b6129cb61391a565b8152602001906001900390816129c35790505b5090506000806129f86721272a2a37b5b2b760c11b6122cb565b905060005b6001885103811015612b8c576000888260010181518110612a1a57fe5b602002602001015190506000816001600160a01b0316638da5cb5b6040518163ffffffff1660e01b815260040160206040518083038186803b158015612a5f57600080fd5b505afa158015612a73573d6000803e3d6000fd5b505050506040513d6020811015612a8957600080fd5b50518a519091506000908b9060028601908110612aa257fe5b602002602001015190506000898015612ab9575086155b8015612ad65750856001600160a01b0316826001600160a01b0316145b90508015612ae357600196505b6040518060e00160405280846001600160a01b03168152602001856001600160a01b031681526020018d8781518110612b1857fe5b60200260200101516001600160a01b03168152602001836001600160a01b0316815260200160006001600160a01b03168152602001612b56856121b4565b15158152821515602090910152886002870481518110612b7257fe5b6020026020010181905250505050506002810190506129fd565b612b9461391a565b84600081518110612ba157fe5b6020908102919091018101516040808201516001600160a01b0316600090815260069093529091205490915060ff1615612c18578060a0015115612bfe5773eeeeeeeeeeeeeeeeeeeeeeeeeeeeeeeeeeeeeeee6040820152612c18565b8051612c09906134a9565b6001600160a01b031660408201525b84600186510381518110612c2857fe5b60209081029190910181015160608101516001600160a01b03166000908152600690925260409091205490915060ff1615612ca0578060a0015115612c865773eeeeeeeeeeeeeeeeeeeeeeeeeeeeeeeeeeeeeeee6060820152612ca0565b8051612c91906134a9565b6001600160a01b031660608201525b600091505b8451821015612d6f57848281518110612cba57fe5b602002602001015190508060a0015115612d5d578060c0015115612ce357306080820152612d58565b6001855103821415612d03576001600160a01b0388166080820152612d58565b848260010181518110612d1257fe5b602002602001015160a0015115612d5157848260010181518110612d3257fe5b6020908102919091010151516001600160a01b03166080820152612d58565b3060808201525b612d64565b3060808201525b600190910190612ca5565b5092979650505050505050565b60008085815b885181101561320457612d9361391a565b898281518110612d9f57fe5b602002602001015190508060a0015115612e3b578115801590612ded5750306001600160a01b03168a6001840381518110612dd657fe5b6020026020010151608001516001600160a01b0316145b8015612e1457506040808201516001600160a01b031660009081526006602052205460ff16155b15612e365780516040820151612e36916001600160a01b039091169085612349565b612e6f565b80602001516001600160a01b031681604001516001600160a01b031614612e6f57612e6f816040015182600001518561333c565b8060a00151612f1757805160408083015160608401518251635e5144eb60e01b81526001600160a01b039283166004820152908216602482015260448101879052600160648201529151921691635e5144eb916084808201926020929091908290030181600087803b158015612ee457600080fd5b505af1158015612ef8573d6000803e3d6000fd5b505050506040513d6020811015612f0e57600080fd5b50519350613082565b6040808201516001600160a01b031660009081526006602052205460ff1615612fdc57805160408083015160608401516080850151835163e8dc12ff60e01b81526001600160a01b03938416600482015291831660248301526044820188905233606483015282166084820152915192169163e8dc12ff91349160a480830192602092919082900301818588803b158015612fb157600080fd5b505af1158015612fc5573d6000803e3d6000fd5b50505050506040513d6020811015612f0e57600080fd5b805160408083015160608401516080850151835163e8dc12ff60e01b81526001600160a01b03938416600482015291831660248301526044820188905233606483015282166084820152915192169163e8dc12ff9160a4808201926020929091908290030181600087803b15801561305357600080fd5b505af1158015613067573d6000803e3d6000fd5b505050506040513d602081101561307d57600080fd5b505193505b8060c001511561317e57600061309f620f4240611615878a61256d565b905081606001516001600160a01b031663a9059cbb89836040518363ffffffff1660e01b815260040180836001600160a01b0316815260200182815260200192505050602060405180830381600087803b1580156130fc57600080fd5b505af1158015613110573d6000803e3d6000fd5b505050506040513d602081101561312657600080fd5b5051613179576040805162461bcd60e51b815260206004820152601760248201527f4552525f4645455f5452414e534645525f4641494c4544000000000000000000604482015290519081900360640190fd5b909303925b80606001516001600160a01b031681604001516001600160a01b031682602001516001600160a01b03167f7154b38b5dd31bb3122436a96d4e09aba5b323ae1fd580025fab55074334c09586883360405180848152602001838152602001826001600160a01b03168152602001935050505060405180910390a450829150600101612d82565b508582101561324f576040805162461bcd60e51b81526020600482015260126024820152714552525f52455455524e5f544f4f5f4c4f5760701b604482015290519081900360640190fd5b509695505050505050565b61326261391a565b8360018551038151811061327257fe5b60200260200101519050306001600160a01b031681608001516001600160a01b03161461329f575061239b565b60608101516001600160a01b03811660009081526006602052604090205460ff1615613328578160a00151156132d157fe5b806001600160a01b031663205c287884866040518363ffffffff1660e01b815260040180836001600160a01b0316815260200182815260200192505050600060405180830381600087803b15801561292b57600080fd5b6129786001600160a01b0382168486612349565b60408051636eb1769f60e11b81523060048201526001600160a01b038481166024830152915160009286169163dd62ed3e916044808301926020929190829003018186803b15801561338d57600080fd5b505afa1580156133a1573d6000803e3d6000fd5b505050506040513d60208110156133b757600080fd5b50519050818110156133f25780156133de576133de6001600160a01b038516846000613642565b6133f26001600160a01b0385168484613642565b50505050565b606061344d826040518060400160405280602081526020017f5361666545524332303a206c6f772d6c6576656c2063616c6c206661696c6564815250856001600160a01b03166137559092919063ffffffff16565b80519091501561239b5780806020019051602081101561346c57600080fd5b505161239b5760405162461bcd60e51b815260040180806020018281038252602a815260200180613978602a913960400191505060405180910390fd5b600080826001600160a01b03166371f52bf36040518163ffffffff1660e01b815260040160206040518083038186803b1580156134e557600080fd5b505afa1580156134f9573d6000803e3d6000fd5b505050506040513d602081101561350f57600080fd5b505161ffff16905060005b818110156135cb576000846001600160a01b03166319b64015836040518263ffffffff1660e01b81526004018082815260200191505060206040518083038186803b15801561356857600080fd5b505afa15801561357c573d6000803e3d6000fd5b505050506040513d602081101561359257600080fd5b50516001600160a01b03811660009081526006602052604090205490915060ff16156135c2579250610e38915050565b5060010161351a565b5073eeeeeeeeeeeeeeeeeeeeeeeeeeeeeeeeeeeeeeee9392505050565b604080516001600160a01b0380861660248301528416604482015260648082018490528251808303909101815260849091019091526020810180516001600160e01b03166323b872dd60e01b1790526133f29085906133f8565b8015806136c8575060408051636eb1769f60e11b81523060048201526001600160a01b03848116602483015291519185169163dd62ed3e91604480820192602092909190829003018186803b15801561369a57600080fd5b505afa1580156136ae573d6000803e3d6000fd5b505050506040513d60208110156136c457600080fd5b5051155b6137035760405162461bcd60e51b81526004018080602001828103825260368152602001806139a26036913960400191505060405180910390fd5b604080516001600160a01b038416602482015260448082018490528251808303909101815260649091019091526020810180516001600160e01b031663095ea7b360e01b17905261239b9084906133f8565b6060611d1084846000858561376985613870565b6137ba576040805162461bcd60e51b815260206004820152601d60248201527f416464726573733a2063616c6c20746f206e6f6e2d636f6e7472616374000000604482015290519081900360640190fd5b60006060866001600160a01b031685876040518082805190602001908083835b602083106137f95780518252601f1990920191602091820191016137da565b6001836020036101000a03801982511681845116808217855250505050505090500191505060006040518083038185875af1925050503d806000811461385b576040519150601f19603f3d011682016040523d82523d6000602084013e613860565b606091505b5091509150610e65828286613876565b3b151590565b60608315613885575081611d13565b8251156138955782518084602001fd5b8160405162461bcd60e51b81526004018080602001828103825283818151815260200191508051906020019080838360005b838110156138df5781810151838201526020016138c7565b50505050905090810190601f16801561390c5780820380516001836020036101000a031916815260200191505b509250505060405180910390fd5b6040805160e081018252600080825260208201819052918101829052606081018290526080810182905260a0810182905260c08101919091529056fe536166654d6174683a206d756c7469706c69636174696f6e206f766572666c6f775361666545524332303a204552433230206f7065726174696f6e20646964206e6f7420737563636565645361666545524332303a20617070726f76652066726f6d206e6f6e2d7a65726f20746f206e6f6e2d7a65726f20616c6c6f77616e6365a264697066735822122022b3ca3fa28de286c4686d164aad7a889a120cde8924a4adbce1272f9aa8c25264736f6c634300060c0033608060405234801561001057600080fd5b506040516100f83803806100f88339818101604052602081101561003357600080fd5b505160005560b2806100466000396000f3fe6080604052348015600f57600080fd5b506004361060285760003560e01c80631e1401f814602d575b600080fd5b606060048036036060811015604157600080fd5b506001600160a01b038135811691602081013590911690604001356072565b60408051918252519081900360200190f35b600054939250505056fea264697066735822122084ef121e3f26c1be67df76abd2c3fd13ededeb23f2e85e39b739ae72fc640ff564736f6c634300060c0033608060405234801561001057600080fd5b506040516101103803806101108339818101604052604081101561003357600080fd5b50805160209091015160009190915560015560bd806100536000396000f3fe6080604052348015600f57600080fd5b506004361060285760003560e01c80631e1401f814602d575b600080fd5b606060048036036060811015604157600080fd5b506001600160a01b038135811691602081013590911690604001356079565b6040805192835260208301919091528051918290030190f35b60005460015493509391505056fea26469706673582212203782275f245a76cc93a385bc0fe142eabd885c14922e38cb2c332d3b51e4d9a664736f6c634300060c0033",
  "immutableReferences": {},
  "source": "// SPDX-License-Identifier: SEE LICENSE IN LICENSE\npragma solidity 0.6.12;\nimport \"../BancorNetwork.sol\";\n\ncontract OldConverter {\n    uint256 private amount;\n\n    constructor(uint256 _amount) public {\n        amount = _amount;\n    }\n\n    function getReturn(\n        IERC20 _sourceToken,\n        IERC20 _targetToken,\n        uint256 _amount\n    ) external view returns (uint256) {\n        _sourceToken;\n        _targetToken;\n        _amount;\n        return (amount);\n    }\n}\n\ncontract NewConverter {\n    uint256 private amount;\n    uint256 private fee;\n\n    constructor(uint256 _amount, uint256 _fee) public {\n        amount = _amount;\n        fee = _fee;\n    }\n\n    function getReturn(\n        IERC20 _sourceToken,\n        IERC20 _targetToken,\n        uint256 _amount\n    ) external view returns (uint256, uint256) {\n        _sourceToken;\n        _targetToken;\n        _amount;\n        return (amount, fee);\n    }\n}\n\ncontract ConverterV27OrLowerWithoutFallback {}\n\ncontract ConverterV27OrLowerWithFallback {\n    receive() external payable {}\n}\n\ncontract ConverterV28OrHigherWithoutFallback {\n    function isV28OrHigher() public pure returns (bool) {\n        return true;\n    }\n}\n\ncontract ConverterV28OrHigherWithFallback {\n    function isV28OrHigher() public pure returns (bool) {\n        return true;\n    }\n\n    receive() external payable {\n        revert();\n    }\n}\n\ncontract TestBancorNetwork is BancorNetwork {\n    OldConverter private oldConverter;\n    NewConverter private newConverter;\n\n    constructor(uint256 _amount, uint256 _fee) public BancorNetwork(IContractRegistry(address(1))) {\n        oldConverter = new OldConverter(_amount);\n        newConverter = new NewConverter(_amount, _fee);\n    }\n\n    function isV28OrHigherConverterExternal(IConverter _converter) external view returns (bool) {\n        return super.isV28OrHigherConverter(_converter);\n    }\n\n    function getReturnOld() external view returns (uint256, uint256) {\n        return getReturn(IConverter(payable(address(oldConverter))), IERC20(0), IERC20(0), uint256(0));\n    }\n\n    function getReturnNew() external view returns (uint256, uint256) {\n        return getReturn(IConverter(payable(address(newConverter))), IERC20(0), IERC20(0), uint256(0));\n    }\n}\n",
  "sourcePath": "/Users/dennismacpro/Projects/Defi/Ethereum-Solidity-Collection/icarus-protocol/defi-seeder/.tmp/bancor/contracts-solidity/solidity/contracts/helpers/TestBancorNetwork.sol",
  "compiler": {
    "name": "solc",
    "version": "0.6.12+commit.27d51765.Emscripten.clang"
  },
  "schemaVersion": "3.3.3",
  "updatedAt": "2021-04-01T18:17:52.045Z",
  "devdoc": {
    "kind": "dev",
    "methods": {
      "acceptOwnership()": {
        "details": "used by a new owner to accept an ownership transfer"
      },
      "claimAndConvert(address[],uint256,uint256)": {
        "details": "deprecated, backward compatibility"
      },
      "claimAndConvert2(address[],uint256,uint256,address,uint256)": {
        "details": "deprecated, backward compatibility"
      },
      "claimAndConvertFor(address[],uint256,uint256,address)": {
        "details": "deprecated, backward compatibility"
      },
      "claimAndConvertFor2(address[],uint256,uint256,address,address,uint256)": {
        "details": "deprecated, backward compatibility"
      },
      "completeXConversion(address[],address,uint256,uint256,address)": {
        "details": "allows a user to convert a token that was sent from another blockchain into any other token on the BancorNetwork ideally this transaction is created before the previous conversion is even complete, so so the input amount isn't known at that point - the amount is actually take from the BancorX contract directly by specifying the conversion id",
        "params": {
          "_bancorX": "address of the BancorX contract for the source token",
          "_beneficiary": "wallet to receive the conversion result",
          "_conversionId": "pre-determined unique (if non zero) id which refers to this conversion",
          "_minReturn": "if the conversion results in an amount smaller than the minimum return - it is cancelled, must be nonzero",
          "_path": "conversion path"
        },
        "returns": {
          "_0": "amount of tokens received from the conversion"
        }
      },
      "conversionPath(address,address)": {
        "details": "returns the conversion path between two tokens in the network note that this method is quite expensive in terms of gas and should generally be called off-chain",
        "params": {
          "_sourceToken": "source token address",
          "_targetToken": "target token address"
        },
        "returns": {
          "_0": "conversion path between the two tokens"
        }
      },
      "convert(address[],uint256,uint256)": {
        "details": "deprecated, backward compatibility"
      },
      "convert2(address[],uint256,uint256,address,uint256)": {
        "details": "deprecated, backward compatibility"
      },
      "convertByPath(address[],uint256,uint256,address,address,uint256)": {
        "details": "converts the token to any other token in the bancor network by following a predefined conversion path and transfers the result tokens to a target account affiliate account/fee can also be passed in to receive a conversion fee (on top of the liquidity provider fees) note that the network should already have been given allowance of the source token (if not ETH)",
        "params": {
          "_affiliateAccount": "wallet address to receive the affiliate fee or 0x0 to disable affiliate fee",
          "_affiliateFee": "affiliate fee in PPM or 0 to disable affiliate fee",
          "_amount": "amount to convert from, in the source token",
          "_beneficiary": "account that will receive the conversion result or 0x0 to send the result to the sender account",
          "_minReturn": "if the conversion results in an amount smaller than the minimum return - it is cancelled, must be greater than zero",
          "_path": "conversion path, see conversion path format above"
        },
        "returns": {
          "_0": "amount of tokens received from the conversion"
        }
      },
      "convertFor(address[],uint256,uint256,address)": {
        "details": "deprecated, backward compatibility"
      },
      "convertFor2(address[],uint256,uint256,address,address,uint256)": {
        "details": "deprecated, backward compatibility"
      },
      "getReturnByPath(address[],uint256)": {
        "details": "deprecated, backward compatibility"
      },
      "rateByPath(address[],uint256)": {
        "details": "returns the expected target amount of converting a given amount on a given path note that there is no support for circular paths",
        "params": {
          "_amount": "amount of _path[0] tokens received from the sender",
          "_path": "conversion path (see conversion path format above)"
        },
        "returns": {
          "_0": "expected target amount"
        }
      },
      "registerEtherToken(address,bool)": {
        "details": "allows the owner to register/unregister ether tokens",
        "params": {
          "_register": "true to register, false to unregister",
          "_token": "ether token contract address"
        }
      },
      "restoreRegistry()": {
        "details": "restores the previous contract-registry"
      },
      "restrictRegistryUpdate(bool)": {
        "details": "restricts the permission to update the contract-registry",
        "params": {
          "_onlyOwnerCanUpdateRegistry": "indicates whether or not permission is restricted to owner only"
        }
      },
      "setMaxAffiliateFee(uint256)": {
        "details": "allows the owner to update the maximum affiliate-fee",
        "params": {
          "_maxAffiliateFee": "maximum affiliate-fee"
        }
      },
      "transferOwnership(address)": {
        "details": "allows transferring the contract ownership the new owner still needs to accept the transfer can only be called by the contract owner",
        "params": {
          "_newOwner": "new contract owner"
        }
      },
      "updateRegistry()": {
        "details": "updates to the new contract-registry"
      },
      "withdrawTokens(address,address,uint256)": {
        "details": "withdraws tokens held by the contract and sends them to an account can only be called by the owner",
        "params": {
          "_amount": "amount to withdraw",
          "_to": "account to receive the new amount",
          "_token": "ERC20 token contract address"
        }
      },
      "xConvert(address[],uint256,uint256,bytes32,bytes32,uint256)": {
        "details": "converts any other token to BNT in the bancor network by following a predefined conversion path and transfers the result to an account on a different blockchain note that the network should already have been given allowance of the source token (if not ETH)",
        "params": {
          "_amount": "amount to convert from, in the source token",
          "_conversionId": "pre-determined unique (if non zero) id which refers to this transaction",
          "_minReturn": "if the conversion results in an amount smaller than the minimum return - it is cancelled, must be greater than zero",
          "_path": "conversion path, see conversion path format above",
          "_targetAccount": "address/account on the target blockchain to send the BNT to",
          "_targetBlockchain": "blockchain BNT will be issued on"
        },
        "returns": {
          "_0": "the amount of BNT received from this conversion"
        }
      },
      "xConvert2(address[],uint256,uint256,bytes32,bytes32,uint256,address,uint256)": {
        "details": "converts any other token to BNT in the bancor network by following a predefined conversion path and transfers the result to an account on a different blockchain note that the network should already have been given allowance of the source token (if not ETH)",
        "params": {
          "_affiliateAccount": "affiliate account",
          "_affiliateFee": "affiliate fee in PPM",
          "_amount": "amount to convert from, in the source token",
          "_conversionId": "pre-determined unique (if non zero) id which refers to this transaction",
          "_minReturn": "if the conversion results in an amount smaller than the minimum return - it is cancelled, must be greater than zero",
          "_path": "conversion path, see conversion path format above",
          "_targetAccount": "address/account on the target blockchain to send the BNT to",
          "_targetBlockchain": "blockchain BNT will be issued on"
        },
        "returns": {
          "_0": "the amount of BNT received from this conversion"
        }
      }
    },
    "version": 1
  },
  "userdoc": {
    "kind": "user",
    "methods": {},
    "version": 1
  }
}