{
  "contractName": "TestFixedRatePoolConverter",
  "abi": [
    {
      "inputs": [
        {
          "internalType": "contract IDSToken",
          "name": "_token",
          "type": "address"
        },
        {
          "internalType": "contract IContractRegistry",
          "name": "_registry",
          "type": "address"
        },
        {
          "internalType": "uint32",
          "name": "_maxConversionFee",
          "type": "uint32"
        }
      ],
      "stateMutability": "nonpayable",
      "type": "constructor"
    },
    {
      "anonymous": false,
      "inputs": [
        {
          "indexed": true,
          "internalType": "uint16",
          "name": "_type",
          "type": "uint16"
        },
        {
          "indexed": true,
          "internalType": "contract IConverterAnchor",
          "name": "_anchor",
          "type": "address"
        },
        {
          "indexed": true,
          "internalType": "bool",
          "name": "_activated",
          "type": "bool"
        }
      ],
      "name": "Activation",
      "type": "event"
    },
    {
      "anonymous": false,
      "inputs": [
        {
          "indexed": true,
          "internalType": "contract IERC20",
          "name": "_fromToken",
          "type": "address"
        },
        {
          "indexed": true,
          "internalType": "contract IERC20",
          "name": "_toToken",
          "type": "address"
        },
        {
          "indexed": true,
          "internalType": "address",
          "name": "_trader",
          "type": "address"
        },
        {
          "indexed": false,
          "internalType": "uint256",
          "name": "_amount",
          "type": "uint256"
        },
        {
          "indexed": false,
          "internalType": "uint256",
          "name": "_return",
          "type": "uint256"
        },
        {
          "indexed": false,
          "internalType": "int256",
          "name": "_conversionFee",
          "type": "int256"
        }
      ],
      "name": "Conversion",
      "type": "event"
    },
    {
      "anonymous": false,
      "inputs": [
        {
          "indexed": false,
          "internalType": "uint32",
          "name": "_prevFee",
          "type": "uint32"
        },
        {
          "indexed": false,
          "internalType": "uint32",
          "name": "_newFee",
          "type": "uint32"
        }
      ],
      "name": "ConversionFeeUpdate",
      "type": "event"
    },
    {
      "anonymous": false,
      "inputs": [
        {
          "indexed": true,
          "internalType": "address",
          "name": "_provider",
          "type": "address"
        },
        {
          "indexed": true,
          "internalType": "contract IERC20",
          "name": "_reserveToken",
          "type": "address"
        },
        {
          "indexed": false,
          "internalType": "uint256",
          "name": "_amount",
          "type": "uint256"
        },
        {
          "indexed": false,
          "internalType": "uint256",
          "name": "_newBalance",
          "type": "uint256"
        },
        {
          "indexed": false,
          "internalType": "uint256",
          "name": "_newSupply",
          "type": "uint256"
        }
      ],
      "name": "LiquidityAdded",
      "type": "event"
    },
    {
      "anonymous": false,
      "inputs": [
        {
          "indexed": true,
          "internalType": "address",
          "name": "_provider",
          "type": "address"
        },
        {
          "indexed": true,
          "internalType": "contract IERC20",
          "name": "_reserveToken",
          "type": "address"
        },
        {
          "indexed": false,
          "internalType": "uint256",
          "name": "_amount",
          "type": "uint256"
        },
        {
          "indexed": false,
          "internalType": "uint256",
          "name": "_newBalance",
          "type": "uint256"
        },
        {
          "indexed": false,
          "internalType": "uint256",
          "name": "_newSupply",
          "type": "uint256"
        }
      ],
      "name": "LiquidityRemoved",
      "type": "event"
    },
    {
      "anonymous": false,
      "inputs": [
        {
          "indexed": true,
          "internalType": "address",
          "name": "_prevOwner",
          "type": "address"
        },
        {
          "indexed": true,
          "internalType": "address",
          "name": "_newOwner",
          "type": "address"
        }
      ],
      "name": "OwnerUpdate",
      "type": "event"
    },
    {
      "anonymous": false,
      "inputs": [
        {
          "indexed": true,
          "internalType": "contract IERC20",
          "name": "_token1",
          "type": "address"
        },
        {
          "indexed": true,
          "internalType": "contract IERC20",
          "name": "_token2",
          "type": "address"
        },
        {
          "indexed": false,
          "internalType": "uint256",
          "name": "_rateN",
          "type": "uint256"
        },
        {
          "indexed": false,
          "internalType": "uint256",
          "name": "_rateD",
          "type": "uint256"
        }
      ],
      "name": "TokenRateUpdate",
      "type": "event"
    },
    {
      "inputs": [],
      "name": "acceptAnchorOwnership",
      "outputs": [],
      "stateMutability": "nonpayable",
      "type": "function"
    },
    {
      "inputs": [],
      "name": "acceptOwnership",
      "outputs": [],
      "stateMutability": "nonpayable",
      "type": "function"
    },
    {
      "inputs": [],
      "name": "acceptTokenOwnership",
      "outputs": [],
      "stateMutability": "nonpayable",
      "type": "function"
    },
    {
      "inputs": [
        {
          "internalType": "uint256",
          "name": "_reserve1Amount",
          "type": "uint256"
        },
        {
          "internalType": "uint256",
          "name": "_reserve2Amount",
          "type": "uint256"
        },
        {
          "internalType": "uint256",
          "name": "_minReturn",
          "type": "uint256"
        }
      ],
      "name": "addLiquidity",
      "outputs": [
        {
          "internalType": "uint256",
          "name": "",
          "type": "uint256"
        }
      ],
      "stateMutability": "payable",
      "type": "function"
    },
    {
      "inputs": [
        {
          "internalType": "contract IERC20[]",
          "name": "_reserveTokens",
          "type": "address[]"
        },
        {
          "internalType": "uint256[]",
          "name": "_reserveAmounts",
          "type": "uint256[]"
        },
        {
          "internalType": "uint256",
          "name": "_minReturn",
          "type": "uint256"
        }
      ],
      "name": "addLiquidity",
      "outputs": [
        {
          "internalType": "uint256",
          "name": "",
          "type": "uint256"
        }
      ],
      "stateMutability": "payable",
      "type": "function"
    },
    {
      "inputs": [
        {
          "internalType": "contract IERC20[]",
          "name": "_reserveTokens",
          "type": "address[]"
        },
        {
          "internalType": "uint256",
          "name": "_reserveTokenIndex",
          "type": "uint256"
        },
        {
          "internalType": "uint256",
          "name": "_reserveAmount",
          "type": "uint256"
        }
      ],
      "name": "addLiquidityCost",
      "outputs": [
        {
          "internalType": "uint256[]",
          "name": "",
          "type": "uint256[]"
        }
      ],
      "stateMutability": "view",
      "type": "function"
    },
    {
      "inputs": [
        {
          "internalType": "contract IERC20",
          "name": "_reserveToken",
          "type": "address"
        },
        {
          "internalType": "uint256",
          "name": "_reserveAmount",
          "type": "uint256"
        }
      ],
      "name": "addLiquidityReturn",
      "outputs": [
        {
          "internalType": "uint256",
          "name": "",
          "type": "uint256"
        }
      ],
      "stateMutability": "view",
      "type": "function"
    },
    {
      "inputs": [
        {
          "internalType": "contract IERC20",
          "name": "_token",
          "type": "address"
        },
        {
          "internalType": "uint32",
          "name": "_weight",
          "type": "uint32"
        }
      ],
      "name": "addReserve",
      "outputs": [],
      "stateMutability": "nonpayable",
      "type": "function"
    },
    {
      "inputs": [],
      "name": "anchor",
      "outputs": [
        {
          "internalType": "contract IConverterAnchor",
          "name": "",
          "type": "address"
        }
      ],
      "stateMutability": "view",
      "type": "function"
    },
    {
      "inputs": [],
      "name": "averageRateInfo",
      "outputs": [
        {
          "internalType": "uint256",
          "name": "",
          "type": "uint256"
        }
      ],
      "stateMutability": "view",
      "type": "function"
    },
    {
      "inputs": [],
      "name": "connectorTokenCount",
      "outputs": [
        {
          "internalType": "uint16",
          "name": "",
          "type": "uint16"
        }
      ],
      "stateMutability": "view",
      "type": "function"
    },
    {
      "inputs": [
        {
          "internalType": "uint256",
          "name": "_index",
          "type": "uint256"
        }
      ],
      "name": "connectorTokens",
      "outputs": [
        {
          "internalType": "contract IERC20",
          "name": "",
          "type": "address"
        }
      ],
      "stateMutability": "view",
      "type": "function"
    },
    {
      "inputs": [
        {
          "internalType": "contract IERC20",
          "name": "_address",
          "type": "address"
        }
      ],
      "name": "connectors",
      "outputs": [
        {
          "internalType": "uint256",
          "name": "",
          "type": "uint256"
        },
        {
          "internalType": "uint32",
          "name": "",
          "type": "uint32"
        },
        {
          "internalType": "bool",
          "name": "",
          "type": "bool"
        },
        {
          "internalType": "bool",
          "name": "",
          "type": "bool"
        },
        {
          "internalType": "bool",
          "name": "",
          "type": "bool"
        }
      ],
      "stateMutability": "view",
      "type": "function"
    },
    {
      "inputs": [],
      "name": "conversionFee",
      "outputs": [
        {
          "internalType": "uint32",
          "name": "",
          "type": "uint32"
        }
      ],
      "stateMutability": "view",
      "type": "function"
    },
    {
      "inputs": [
        {
          "internalType": "contract IERC20",
          "name": "_sourceToken",
          "type": "address"
        },
        {
          "internalType": "contract IERC20",
          "name": "_targetToken",
          "type": "address"
        },
        {
          "internalType": "uint256",
          "name": "_amount",
          "type": "uint256"
        },
        {
          "internalType": "address",
          "name": "_trader",
          "type": "address"
        },
        {
          "internalType": "address payable",
          "name": "_beneficiary",
          "type": "address"
        }
      ],
      "name": "convert",
      "outputs": [
        {
          "internalType": "uint256",
          "name": "",
          "type": "uint256"
        }
      ],
      "stateMutability": "payable",
      "type": "function"
    },
    {
      "inputs": [],
      "name": "converterType",
      "outputs": [
        {
          "internalType": "uint16",
          "name": "",
          "type": "uint16"
        }
      ],
      "stateMutability": "pure",
      "type": "function"
    },
    {
      "inputs": [],
      "name": "currentTime",
      "outputs": [
        {
          "internalType": "uint256",
          "name": "",
          "type": "uint256"
        }
      ],
      "stateMutability": "view",
      "type": "function"
    },
    {
      "inputs": [
        {
          "internalType": "contract IERC20",
          "name": "_connectorToken",
          "type": "address"
        }
      ],
      "name": "getConnectorBalance",
      "outputs": [
        {
          "internalType": "uint256",
          "name": "",
          "type": "uint256"
        }
      ],
      "stateMutability": "view",
      "type": "function"
    },
    {
      "inputs": [
        {
          "internalType": "contract IERC20",
          "name": "_sourceToken",
          "type": "address"
        },
        {
          "internalType": "contract IERC20",
          "name": "_targetToken",
          "type": "address"
        },
        {
          "internalType": "uint256",
          "name": "_amount",
          "type": "uint256"
        }
      ],
      "name": "getReturn",
      "outputs": [
        {
          "internalType": "uint256",
          "name": "",
          "type": "uint256"
        },
        {
          "internalType": "uint256",
          "name": "",
          "type": "uint256"
        }
      ],
      "stateMutability": "view",
      "type": "function"
    },
    {
      "inputs": [],
      "name": "isActive",
      "outputs": [
        {
          "internalType": "bool",
          "name": "",
          "type": "bool"
        }
      ],
      "stateMutability": "view",
      "type": "function"
    },
    {
      "inputs": [],
      "name": "isV28OrHigher",
      "outputs": [
        {
          "internalType": "bool",
          "name": "",
          "type": "bool"
        }
      ],
      "stateMutability": "pure",
      "type": "function"
    },
    {
      "inputs": [],
      "name": "maxConversionFee",
      "outputs": [
        {
          "internalType": "uint32",
          "name": "",
          "type": "uint32"
        }
      ],
      "stateMutability": "view",
      "type": "function"
    },
    {
      "inputs": [],
      "name": "newOwner",
      "outputs": [
        {
          "internalType": "address",
          "name": "",
          "type": "address"
        }
      ],
      "stateMutability": "view",
      "type": "function"
    },
    {
      "inputs": [],
      "name": "onlyOwnerCanUpdateRegistry",
      "outputs": [
        {
          "internalType": "bool",
          "name": "",
          "type": "bool"
        }
      ],
      "stateMutability": "view",
      "type": "function"
    },
    {
      "inputs": [],
      "name": "owner",
      "outputs": [
        {
          "internalType": "address",
          "name": "",
          "type": "address"
        }
      ],
      "stateMutability": "view",
      "type": "function"
    },
    {
      "inputs": [],
      "name": "prevRegistry",
      "outputs": [
        {
          "internalType": "contract IContractRegistry",
          "name": "",
          "type": "address"
        }
      ],
      "stateMutability": "view",
      "type": "function"
    },
    {
      "inputs": [],
      "name": "rate",
      "outputs": [
        {
          "internalType": "uint256",
          "name": "",
          "type": "uint256"
        },
        {
          "internalType": "uint256",
          "name": "",
          "type": "uint256"
        }
      ],
      "stateMutability": "view",
      "type": "function"
    },
    {
      "inputs": [
        {
          "internalType": "contract IERC20",
          "name": "_token",
          "type": "address"
        }
      ],
      "name": "recentAverageRate",
      "outputs": [
        {
          "internalType": "uint256",
          "name": "",
          "type": "uint256"
        },
        {
          "internalType": "uint256",
          "name": "",
          "type": "uint256"
        }
      ],
      "stateMutability": "view",
      "type": "function"
    },
    {
      "inputs": [],
      "name": "registry",
      "outputs": [
        {
          "internalType": "contract IContractRegistry",
          "name": "",
          "type": "address"
        }
      ],
      "stateMutability": "view",
      "type": "function"
    },
    {
      "inputs": [
        {
          "internalType": "uint256",
          "name": "_amount",
          "type": "uint256"
        },
        {
          "internalType": "uint256",
          "name": "_reserve1MinReturn",
          "type": "uint256"
        },
        {
          "internalType": "uint256",
          "name": "_reserve2MinReturn",
          "type": "uint256"
        }
      ],
      "name": "removeLiquidity",
      "outputs": [
        {
          "internalType": "uint256",
          "name": "",
          "type": "uint256"
        },
        {
          "internalType": "uint256",
          "name": "",
          "type": "uint256"
        }
      ],
      "stateMutability": "nonpayable",
      "type": "function"
    },
    {
      "inputs": [
        {
          "internalType": "uint256",
          "name": "_amount",
          "type": "uint256"
        },
        {
          "internalType": "contract IERC20[]",
          "name": "_reserveTokens",
          "type": "address[]"
        },
        {
          "internalType": "uint256[]",
          "name": "_reserveMinReturnAmounts",
          "type": "uint256[]"
        }
      ],
      "name": "removeLiquidity",
      "outputs": [
        {
          "internalType": "uint256[]",
          "name": "",
          "type": "uint256[]"
        }
      ],
      "stateMutability": "nonpayable",
      "type": "function"
    },
    {
      "inputs": [
        {
          "internalType": "uint256",
          "name": "_amount",
          "type": "uint256"
        },
        {
          "internalType": "contract IERC20[]",
          "name": "_reserveTokens",
          "type": "address[]"
        }
      ],
      "name": "removeLiquidityReturn",
      "outputs": [
        {
          "internalType": "uint256[]",
          "name": "",
          "type": "uint256[]"
        }
      ],
      "stateMutability": "view",
      "type": "function"
    },
    {
      "inputs": [
        {
          "internalType": "uint256",
          "name": "",
          "type": "uint256"
        }
      ],
      "name": "reserveAmountsRemoved",
      "outputs": [
        {
          "internalType": "uint256",
          "name": "",
          "type": "uint256"
        }
      ],
      "stateMutability": "view",
      "type": "function"
    },
    {
      "inputs": [
        {
          "internalType": "contract IERC20",
          "name": "_reserveToken",
          "type": "address"
        }
      ],
      "name": "reserveBalance",
      "outputs": [
        {
          "internalType": "uint256",
          "name": "",
          "type": "uint256"
        }
      ],
      "stateMutability": "view",
      "type": "function"
    },
    {
      "inputs": [],
      "name": "reserveBalances",
      "outputs": [
        {
          "internalType": "uint256",
          "name": "",
          "type": "uint256"
        },
        {
          "internalType": "uint256",
          "name": "",
          "type": "uint256"
        }
      ],
      "stateMutability": "view",
      "type": "function"
    },
    {
      "inputs": [],
      "name": "reserveTokenCount",
      "outputs": [
        {
          "internalType": "uint16",
          "name": "",
          "type": "uint16"
        }
      ],
      "stateMutability": "view",
      "type": "function"
    },
    {
      "inputs": [],
      "name": "reserveTokens",
      "outputs": [
        {
          "internalType": "contract IERC20[]",
          "name": "",
          "type": "address[]"
        }
      ],
      "stateMutability": "view",
      "type": "function"
    },
    {
      "inputs": [
        {
          "internalType": "contract IERC20",
          "name": "_reserveToken",
          "type": "address"
        }
      ],
      "name": "reserveWeight",
      "outputs": [
        {
          "internalType": "uint32",
          "name": "",
          "type": "uint32"
        }
      ],
      "stateMutability": "view",
      "type": "function"
    },
    {
      "inputs": [],
      "name": "restoreRegistry",
      "outputs": [],
      "stateMutability": "nonpayable",
      "type": "function"
    },
    {
      "inputs": [
        {
          "internalType": "bool",
          "name": "_onlyOwnerCanUpdateRegistry",
          "type": "bool"
        }
      ],
      "name": "restrictRegistryUpdate",
      "outputs": [],
      "stateMutability": "nonpayable",
      "type": "function"
    },
    {
      "inputs": [
        {
          "internalType": "uint32",
          "name": "_conversionFee",
          "type": "uint32"
        }
      ],
      "name": "setConversionFee",
      "outputs": [],
      "stateMutability": "nonpayable",
      "type": "function"
    },
    {
      "inputs": [
        {
          "internalType": "uint256",
          "name": "rateN",
          "type": "uint256"
        },
        {
          "internalType": "uint256",
          "name": "rateD",
          "type": "uint256"
        }
      ],
      "name": "setRate",
      "outputs": [],
      "stateMutability": "nonpayable",
      "type": "function"
    },
    {
      "inputs": [
        {
          "internalType": "uint256",
          "name": "_currentTime",
          "type": "uint256"
        }
      ],
      "name": "setTime",
      "outputs": [],
      "stateMutability": "nonpayable",
      "type": "function"
    },
    {
      "inputs": [
        {
          "internalType": "contract IERC20",
          "name": "_sourceToken",
          "type": "address"
        },
        {
          "internalType": "contract IERC20",
          "name": "_targetToken",
          "type": "address"
        },
        {
          "internalType": "uint256",
          "name": "_amount",
          "type": "uint256"
        }
      ],
      "name": "sourceAmountAndFee",
      "outputs": [
        {
          "internalType": "uint256",
          "name": "",
          "type": "uint256"
        },
        {
          "internalType": "uint256",
          "name": "",
          "type": "uint256"
        }
      ],
      "stateMutability": "view",
      "type": "function"
    },
    {
      "inputs": [
        {
          "internalType": "contract IERC20",
          "name": "_sourceToken",
          "type": "address"
        },
        {
          "internalType": "contract IERC20",
          "name": "_targetToken",
          "type": "address"
        },
        {
          "internalType": "uint256",
          "name": "_amount",
          "type": "uint256"
        }
      ],
      "name": "targetAmountAndFee",
      "outputs": [
        {
          "internalType": "uint256",
          "name": "",
          "type": "uint256"
        },
        {
          "internalType": "uint256",
          "name": "",
          "type": "uint256"
        }
      ],
      "stateMutability": "view",
      "type": "function"
    },
    {
      "inputs": [],
      "name": "token",
      "outputs": [
        {
          "internalType": "contract IConverterAnchor",
          "name": "",
          "type": "address"
        }
      ],
      "stateMutability": "view",
      "type": "function"
    },
    {
      "inputs": [
        {
          "internalType": "address",
          "name": "_newOwner",
          "type": "address"
        }
      ],
      "name": "transferAnchorOwnership",
      "outputs": [],
      "stateMutability": "nonpayable",
      "type": "function"
    },
    {
      "inputs": [
        {
          "internalType": "address",
          "name": "_newOwner",
          "type": "address"
        }
      ],
      "name": "transferOwnership",
      "outputs": [],
      "stateMutability": "nonpayable",
      "type": "function"
    },
    {
      "inputs": [
        {
          "internalType": "address",
          "name": "_newOwner",
          "type": "address"
        }
      ],
      "name": "transferTokenOwnership",
      "outputs": [],
      "stateMutability": "nonpayable",
      "type": "function"
    },
    {
      "inputs": [],
      "name": "updateRegistry",
      "outputs": [],
      "stateMutability": "nonpayable",
      "type": "function"
    },
    {
      "inputs": [],
      "name": "upgrade",
      "outputs": [],
      "stateMutability": "nonpayable",
      "type": "function"
    },
    {
      "inputs": [],
      "name": "version",
      "outputs": [
        {
          "internalType": "uint16",
          "name": "",
          "type": "uint16"
        }
      ],
      "stateMutability": "view",
      "type": "function"
    },
    {
      "inputs": [
        {
          "internalType": "address payable",
          "name": "_to",
          "type": "address"
        }
      ],
      "name": "withdrawETH",
      "outputs": [],
      "stateMutability": "nonpayable",
      "type": "function"
    },
    {
      "inputs": [
        {
          "internalType": "contract IERC20",
          "name": "_token",
          "type": "address"
        },
        {
          "internalType": "address",
          "name": "_to",
          "type": "address"
        },
        {
          "internalType": "uint256",
          "name": "_amount",
          "type": "uint256"
        }
      ],
      "name": "withdrawTokens",
      "outputs": [],
      "stateMutability": "nonpayable",
      "type": "function"
    },
    {
      "stateMutability": "payable",
      "type": "receive"
    },
    {
      "inputs": [
        {
          "internalType": "uint256",
          "name": "_amount",
          "type": "uint256"
        },
        {
          "internalType": "contract IERC20[]",
          "name": "_reserveTokens",
          "type": "address[]"
        },
        {
          "internalType": "uint256[]",
          "name": "_reserveMinReturnAmounts",
          "type": "uint256[]"
        }
      ],
      "name": "removeLiquidityTest",
      "outputs": [],
      "stateMutability": "nonpayable",
      "type": "function"
    }
  ],
  "bytecode": "0x60016004819055600b556002608081815260e060405290816020016020820280368337505081516200003992600c925060200190620001f2565b503480156200004757600080fd5b50604051620053e4380380620053e4833981810160405260608110156200006d57600080fd5b5080516020820151604090920151600080546001600160a01b031916331790559091908282828282828180620000a38162000134565b50600280546001600160a01b039092166001600160a01b031992831681179091556003805490921617905582620000da8162000134565b81620000e68162000193565b50506008805463ffffffff909216600160a01b0263ffffffff60a01b196001600160a01b039095166001600160a01b0319909316929092179390931617909155506200025995505050505050565b6001600160a01b03811662000190576040805162461bcd60e51b815260206004820152601360248201527f4552525f494e56414c49445f4144445245535300000000000000000000000000604482015290519081900360640190fd5b50565b620f424063ffffffff8216111562000190576040805162461bcd60e51b815260206004820152601a60248201527f4552525f494e56414c49445f434f4e56455253494f4e5f464545000000000000604482015290519081900360640190fd5b82805482825590600052602060002090810192821562000230579160200282015b828111156200023057825182559160200191906001019062000213565b506200023e92915062000242565b5090565b5b808211156200023e576000815560010162000243565b61517b80620002696000396000f3fe6080604052600436106103545760003560e01c80636a49d2c4116101c6578063cdc91c69116100f7578063dc3d535311610095578063ecbca55d1161006f578063ecbca55d14611018578063f0413a1f14611048578063f2fde38b1461105d578063fc0c546a1461109057610374565b8063dc3d535314610e68578063dc8de37914610f9f578063e8dc12ff14610fd257610374565b8063d3fb73b4116100d1578063d3fb73b414610df6578063d4ee1d9014610e0b578063d55ec69714610e20578063d895951214610e3557610374565b8063cdc91c6914610db7578063d18e81b314610dcc578063d260529c14610de157610374565b80638da5cb5b11610164578063af94b8d81161013e578063af94b8d814610be5578063b127c0a514610c28578063b4a176d314610d5f578063bbcdfdef14610d7457610374565b80638da5cb5b14610ba657806394c275ad14610bbb5780639b99a8e214610bd057610374565b80637b103999116101a05780637b103999146109835780637d8916bd1461099857806380d9416d14610abd578063857620e114610b7057610374565b80636a49d2c41461091a57806371f52bf31461095957806379ba50971461096e57610374565b80633beb26c4116102a057806354fd4d501161023e578063613e53a711610218578063613e53a71461088a57806361cd756e1461089f57806367b6d57c146108b4578063690d8320146108e757610374565b806354fd4d501461081d578063579cd3ca146108325780635e35359e1461084757610374565b806346df2ccb1161027a57806346df2ccb1461077557806349d10b64146107a55780634bfcd2c6146107ba5780634e40c260146107e457610374565b80633beb26c4146106e45780633e8ff43f1461070e578063422f10431461073a57610374565b80631f0181bc1161030d57806327ac36c4116102e757806327ac36c4146106905780632c4e722e146106a55780632fe8a6ad146106ba57806338a5e016146106cf57610374565b80631f0181bc1461060157806321e6b53d1461063457806322f3e2d41461066757610374565b8063024c7ec7146103795780630e53aae9146103a7578063154588371461040e57806319b64015146105135780631cfab290146105595780631e1401f8146105a557610374565b36610374576000805160206150fc833981519152610371816110a5565b50005b600080fd5b34801561038557600080fd5b506103a56004803603602081101561039c57600080fd5b50351515611108565b005b3480156103b357600080fd5b506103da600480360360208110156103ca57600080fd5b50356001600160a01b031661112e565b6040805195865263ffffffff9094166020860152911515848401521515606084015215156080830152519081900360a00190f35b34801561041a57600080fd5b506104c36004803603604081101561043157600080fd5b81359190810190604081016020820135600160201b81111561045257600080fd5b82018360208201111561046457600080fd5b803590602001918460208302840111600160201b8311171561048557600080fd5b919080806020026020016040519081016040528093929190818152602001838360200280828437600092019190915250929550611195945050505050565b60408051602080825283518183015283519192839290830191858101910280838360005b838110156104ff5781810151838201526020016104e7565b505050509050019250505060405180910390f35b34801561051f57600080fd5b5061053d6004803603602081101561053657600080fd5b503561122a565b604080516001600160a01b039092168252519081900360200190f35b34801561056557600080fd5b5061058c6004803603602081101561057c57600080fd5b50356001600160a01b0316611256565b6040805163ffffffff9092168252519081900360200190f35b3480156105b157600080fd5b506105e8600480360360608110156105c857600080fd5b506001600160a01b0381358116916020810135909116906040013561126d565b6040805192835260208301919091528051918290030190f35b34801561060d57600080fd5b506105e86004803603602081101561062457600080fd5b50356001600160a01b0316611288565b34801561064057600080fd5b506103a56004803603602081101561065757600080fd5b50356001600160a01b0316611303565b34801561067357600080fd5b5061067c611314565b604080519115158252519081900360200190f35b34801561069c57600080fd5b506104c36113a9565b3480156106b157600080fd5b506105e861140b565b3480156106c657600080fd5b5061067c611497565b3480156106db57600080fd5b506103a56114a7565b3480156106f057600080fd5b506103a56004803603602081101561070757600080fd5b50356114b9565b34801561071a57600080fd5b506107236114be565b6040805161ffff9092168252519081900360200190f35b6107636004803603606081101561075057600080fd5b50803590602081013590604001356114c3565b60408051918252519081900360200190f35b34801561078157600080fd5b506103a56004803603604081101561079857600080fd5b508035906020013561158d565b3480156107b157600080fd5b506103a5611676565b3480156107c657600080fd5b50610763600480360360208110156107dd57600080fd5b503561187e565b3480156107f057600080fd5b506107636004803603604081101561080757600080fd5b506001600160a01b03813516906020013561189c565b34801561082957600080fd5b5061072361194a565b34801561083e57600080fd5b5061058c61194f565b34801561085357600080fd5b506103a56004803603606081101561086a57600080fd5b506001600160a01b03813581169160208101359091169060400135611962565b34801561089657600080fd5b506105e8611a4d565b3480156108ab57600080fd5b5061053d611a64565b3480156108c057600080fd5b506103a5600480360360208110156108d757600080fd5b50356001600160a01b0316611a73565b3480156108f357600080fd5b506103a56004803603602081101561090a57600080fd5b50356001600160a01b0316611b09565b34801561092657600080fd5b506103a56004803603604081101561093d57600080fd5b5080356001600160a01b0316906020013563ffffffff16611c1a565b34801561096557600080fd5b50610723611d82565b34801561097a57600080fd5b506103a5611d91565b34801561098f57600080fd5b5061053d611e48565b610763600480360360608110156109ae57600080fd5b810190602081018135600160201b8111156109c857600080fd5b8201836020820111156109da57600080fd5b803590602001918460208302840111600160201b831117156109fb57600080fd5b9190808060200260200160405190810160405280939291908181526020018383602002808284376000920191909152509295949360208101935035915050600160201b811115610a4a57600080fd5b820183602082011115610a5c57600080fd5b803590602001918460208302840111600160201b83111715610a7d57600080fd5b9190808060200260200160405190810160405280939291908181526020018383602002808284376000920191909152509295505091359250611e57915050565b348015610ac957600080fd5b506104c360048036036060811015610ae057600080fd5b810190602081018135600160201b811115610afa57600080fd5b820183602082011115610b0c57600080fd5b803590602001918460208302840111600160201b83111715610b2d57600080fd5b91908080602002602001604051908101604052809392919081815260200183836020028082843760009201919091525092955050823593505050602001356123d3565b348015610b7c57600080fd5b506105e860048036036060811015610b9357600080fd5b50803590602081013590604001356125cf565b348015610bb257600080fd5b5061053d6126cb565b348015610bc757600080fd5b5061058c6126da565b348015610bdc57600080fd5b506107236126ed565b348015610bf157600080fd5b506105e860048036036060811015610c0857600080fd5b506001600160a01b038135811691602081013590911690604001356126f3565b348015610c3457600080fd5b506104c360048036036060811015610c4b57600080fd5b81359190810190604081016020820135600160201b811115610c6c57600080fd5b820183602082011115610c7e57600080fd5b803590602001918460208302840111600160201b83111715610c9f57600080fd5b9190808060200260200160405190810160405280939291908181526020018383602002808284376000920191909152509295949360208101935035915050600160201b811115610cee57600080fd5b820183602082011115610d0057600080fd5b803590602001918460208302840111600160201b83111715610d2157600080fd5b91908080602002602001604051908101604052809392919081815260200183836020028082843760009201919091525092955061270c945050505050565b348015610d6b57600080fd5b506103a5612ad9565b348015610d8057600080fd5b506105e860048036036060811015610d9757600080fd5b506001600160a01b03813581169160208101359091169060400135612b05565b348015610dc357600080fd5b506103a5612b6e565b348015610dd857600080fd5b50610763612c8b565b348015610ded57600080fd5b5061067c612c91565b348015610e0257600080fd5b5061053d612c96565b348015610e1757600080fd5b5061053d612ca5565b348015610e2c57600080fd5b506103a5612cb4565b348015610e4157600080fd5b5061076360048036036020811015610e5857600080fd5b50356001600160a01b0316612d9c565b348015610e7457600080fd5b506103a560048036036060811015610e8b57600080fd5b81359190810190604081016020820135600160201b811115610eac57600080fd5b820183602082011115610ebe57600080fd5b803590602001918460208302840111600160201b83111715610edf57600080fd5b9190808060200260200160405190810160405280939291908181526020018383602002808284376000920191909152509295949360208101935035915050600160201b811115610f2e57600080fd5b820183602082011115610f4057600080fd5b803590602001918460208302840111600160201b83111715610f6157600080fd5b919080806020026020016040519081016040528093929190818152602001838360200280828437600092019190915250929550612da7945050505050565b348015610fab57600080fd5b5061076360048036036020811015610fc257600080fd5b50356001600160a01b0316612dcc565b610763600480360360a0811015610fe857600080fd5b506001600160a01b0381358116916020810135821691604082013591606081013582169160809091013516612e36565b34801561102457600080fd5b506103a56004803603602081101561103b57600080fd5b503563ffffffff16612edc565b34801561105457600080fd5b50610763612fbe565b34801561106957600080fd5b506103a56004803603602081101561108057600080fd5b50356001600160a01b0316612fc4565b34801561109c57600080fd5b5061053d613042565b6001600160a01b038116600090815260076020526040902054611105576040805162461bcd60e51b81526020600482015260136024820152724552525f494e56414c49445f5245534552564560681b604482015290519081900360640190fd5b50565b611110613051565b60038054911515600160a01b0260ff60a01b19909216919091179055565b6001600160a01b038116600090815260076020526040812054819081908190819080156111785761115e816130a4565b95506207a1209450600093508392506001915061118c9050565b600080600080600095509550955095509550505b91939590929450565b60606000600860009054906101000a90046001600160a01b03166001600160a01b03166318160ddd6040518163ffffffff1660e01b815260040160206040518083038186803b1580156111e757600080fd5b505afa1580156111fb573d6000803e3d6000fd5b505050506040513d602081101561121157600080fd5b505190506112208484836130b2565b9150505b92915050565b60006006828154811061123957fe5b6000918252602090912001546001600160a01b031690505b919050565b600081611262816110a5565b506207a12092915050565b60008061127b8585856126f3565b915091505b935093915050565b60008082611295816110a5565b60006112a2600954613204565b905060006112af82613328565b905060006112bc83613337565b905060066000815481106112cc57fe5b6000918252602090912001546001600160a01b03888116911614156112f75790945092506112fd9050565b94509250505b50915091565b61130b613051565b61110581611a73565b6000306001600160a01b0316600860009054906101000a90046001600160a01b03166001600160a01b0316638da5cb5b6040518163ffffffff1660e01b815260040160206040518083038186803b15801561136e57600080fd5b505afa158015611382573d6000803e3d6000fd5b505050506040513d602081101561139857600080fd5b50516001600160a01b031614905090565b6060600680548060200260200160405190810160405280929190818152602001828054801561140157602002820191906000526020600020905b81546001600160a01b031681526001909101906020018083116113e3575b5050505050905090565b60008060606114186113a9565b9050600a60008260008151811061142b57fe5b60200260200101516001600160a01b03166001600160a01b0316815260200190815260200160002054600a60008360018151811061146557fe5b60200260200101516001600160a01b03166001600160a01b031681526020019081526020016000205492509250509091565b600354600160a01b900460ff1681565b6114af613051565b6114b7612b6e565b565b600b55565b600490565b604080516002808252606080830184526000939092919060208301908036833701905050905084816000815181106114f757fe5b602002602001018181525050838160018151811061151157fe5b602002602001018181525050611582600680548060200260200160405190810160405280929190818152602001828054801561157657602002820191906000526020600020905b81546001600160a01b03168152600190910190602001808311611558575b50505050508285611e57565b9150505b9392505050565b611595613051565b6000821180156115a55750600081115b6115e9576040805162461bcd60e51b815260206004820152601060248201526f4552525f494e56414c49445f5241544560801b604482015290519081900360640190fd5b60606115f36113a9565b905082600a60008360008151811061160757fe5b60200260200101516001600160a01b03166001600160a01b031681526020019081526020016000208190555081600a60008360018151811061164557fe5b60200260200101516001600160a01b03166001600160a01b0316815260200190815260200160002081905550505050565b6000546001600160a01b03163314806116995750600354600160a01b900460ff16155b6116de576040805162461bcd60e51b815260206004820152601160248201527011549497d050d0d154d4d7d11153925151607a1b604482015290519081900360640190fd5b60006116fc6f436f6e7472616374526567697374727960801b613343565b6002549091506001600160a01b0380831691161480159061172557506001600160a01b03811615155b61176d576040805162461bcd60e51b81526020600482015260146024820152734552525f494e56414c49445f524547495354525960601b604482015290519081900360640190fd5b60006001600160a01b0316816001600160a01b031663bb34534c6f436f6e7472616374526567697374727960801b6040518263ffffffff1660e01b81526004018082815260200191505060206040518083038186803b1580156117cf57600080fd5b505afa1580156117e3573d6000803e3d6000fd5b505050506040513d60208110156117f957600080fd5b50516001600160a01b0316141561184e576040805162461bcd60e51b81526020600482015260146024820152734552525f494e56414c49445f524547495354525960601b604482015290519081900360640190fd5b60028054600380546001600160a01b038084166001600160a01b0319928316179092559091169216919091179055565b600c818154811061188b57fe5b600091825260209091200154905081565b600080600860009054906101000a90046001600160a01b03166001600160a01b03166318160ddd6040518163ffffffff1660e01b815260040160206040518083038186803b1580156118ed57600080fd5b505afa158015611901573d6000803e3d6000fd5b505050506040513d602081101561191757600080fd5b50516001600160a01b038516600090815260076020526040902054909150611220908290611944906130a4565b856133c1565b602d81565b600854600160c01b900463ffffffff1681565b61196a613489565b6002600455611977613051565b600061199c762130b731b7b921b7b73b32b93a32b92ab833b930b232b960491b613343565b6001600160a01b0385166000908152600760205260409020549091508015806119ca57506119c8611314565b155b806119e257506000546001600160a01b038381169116145b611a27576040805162461bcd60e51b815260206004820152601160248201527011549497d050d0d154d4d7d11153925151607a1b604482015290519081900360640190fd5b611a328585856134d1565b8015611a4157611a418561350b565b50506001600455505050565b600080611a5c600160026135c3565b915091509091565b6003546001600160a01b031681565b611a7b613051565b762130b731b7b921b7b73b32b93a32b92ab833b930b232b960491b611a9f8161364c565b6008546040805163f2fde38b60e01b81526001600160a01b0385811660048301529151919092169163f2fde38b91602480830192600092919082900301818387803b158015611aed57600080fd5b505af1158015611b01573d6000803e3d6000fd5b505050505050565b611b11613489565b6002600455611b1e613051565b6000805160206150fc833981519152611b36816110a5565b6000611b5b762130b731b7b921b7b73b32b93a32b92ab833b930b232b960491b613343565b9050611b65611314565b1580611b7e57506000546001600160a01b038281169116145b611bc3576040805162461bcd60e51b815260206004820152601160248201527011549497d050d0d154d4d7d11153925151607a1b604482015290519081900360640190fd5b6040516001600160a01b038416904780156108fc02916000818181858888f19350505050158015611bf8573d6000803e3d6000fd5b50611c106000805160206150fc83398151915261350b565b5050600160045550565b611c22613051565b611c2a6136ae565b81611c34816136f5565b82611c3e81613746565b82611c488161379a565b6008546001600160a01b03868116911614801590611c7c57506001600160a01b038516600090815260076020526040902054155b611cc3576040805162461bcd60e51b81526020600482015260136024820152724552525f494e56414c49445f5245534552564560681b604482015290519081900360640190fd5b6002611ccd6126ed565b61ffff1610611d1f576040805162461bcd60e51b815260206004820152601960248201527811549497d253959053125117d49154d154959157d0d3d55395603a1b604482015290519081900360640190fd5b5050600680546001810182557ff652222313e28459528d920b65115c16c04f3efc82aaedc97be59f3f377c0d3f0180546001600160a01b039095166001600160a01b03199095168517905554600093845260076020526040909320929092555050565b6000611d8c6126ed565b905090565b6001546001600160a01b03163314611de4576040805162461bcd60e51b815260206004820152601160248201527011549497d050d0d154d4d7d11153925151607a1b604482015290519081900360640190fd5b600154600080546040516001600160a01b0393841693909116917f343765429aea5a34b3ff6a3785a98a5abb2597aca87bfbb58632c173d585373a91a360018054600080546001600160a01b03199081166001600160a01b03841617909155169055565b6002546001600160a01b031681565b6000611e61613489565b6002600455611e6e6137f7565b611e7984848461383f565b5060005b6002811015611f2a576000805160206150fc8339815191526001600160a01b0316858281518110611eaa57fe5b60200260200101516001600160a01b03161415611f225734848281518110611ece57fe5b602002602001015114611f22576040805162461bcd60e51b815260206004820152601760248201527608aa4a4be8aa890be829a9eaa9ca8be9a92a69a82a8869604b1b604482015290519081900360640190fd5b600101611e7d565b503415611fb0576000805160206150fc83398151915260005260076020527fb2084a3e4595ccf007fb44245853374aaf0de960074375e8e0fb334712e94d0e54611fb0576040805162461bcd60e51b81526020600482015260126024820152714552525f4e4f5f4554485f5245534552564560701b604482015290519081900360640190fd5b600854604080516318160ddd60e01b815290516001600160a01b039092169160009183916318160ddd91600480820192602092909190829003018186803b158015611ffa57600080fd5b505afa15801561200e573d6000803e3d6000fd5b505050506040513d602081101561202457600080fd5b5051905061203134613a84565b612039615016565b612041615016565b612049611a4d565b60208401528252600061205a615016565b846120a95761206889613c19565b915060005b60028110156120a35789818151811061208257fe5b602002602001015182826002811061209657fe5b602002015260010161206d565b506120bb565b6120b58a8a8688613c6b565b90925090505b60006120c78684613dc2565b905060005b60028110156122f55760008c82815181106120e357fe5b6020026020010151905060008483600281106120fb57fe5b6020020151905060008111612150576040805162461bcd60e51b815260206004820152601660248201527511549497d6915493d7d5105491d15517d05353d5539560521b604482015290519081900360640190fd5b8c838151811061215c57fe5b602002602001015181111561216d57fe5b6001600160a01b0382166000805160206150fc833981519152146121a5576121a06001600160a01b038316333084613e1c565b612210565b808d84815181106121b257fe5b6020026020010151111561221057336001600160a01b03166108fc828f86815181106121da57fe5b6020026020010151039081150290604051600060405180830381858888f1935050505015801561220e573d6000803e3d6000fd5b505b61222b8189856002811061222057fe5b602002015190613dc2565b87846002811061223757fe5b60200201526001600160a01b038216337f4a1a2a6176e9646d9e3157f7c2ab3c499f18337c0b0828cfb28e0a61de4a11f7838a876002811061227557fe5b602090810291909101516040805193845291830152818101899052519081900360600190a3816001600160a01b03168a6001600160a01b03166000805160206150bb8339815191528986600281106122c957fe5b602002015187604051808381526020018281526020019250505060405180910390a350506001016120cc565b50835161230f9060019060029087835b6020020151613e76565b88831015612359576040805162461bcd60e51b81526020600482015260126024820152714552525f52455455524e5f544f4f5f4c4f5760701b604482015290519081900360640190fd5b6040805163219e412d60e21b81523360048201526024810185905290516001600160a01b0389169163867904b491604480830192600092919082900301818387803b1580156123a757600080fd5b505af11580156123bb573d6000803e3d6000fd5b5050600160045550929b9a5050505050505050505050565b604080516002808252606080830184529283929190602083019080368337505060408051600280825260608083018452949550909250906020830190803683370190505090506000600760008860008151811061242c57fe5b60200260200101516001600160a01b03166001600160a01b031681526020019081526020016000205490506000600760008960018151811061246a57fe5b60200260200101516001600160a01b03166001600160a01b0316815260200190815260200160002054905061249f82826135c3565b846000815181106124ac57fe5b60200260200101856001815181106124c057fe5b60200260200101828152508281525050506000600860009054906101000a90046001600160a01b03166001600160a01b03166318160ddd6040518163ffffffff1660e01b815260040160206040518083038186803b15801561252157600080fd5b505afa158015612535573d6000803e3d6000fd5b505050506040513d602081101561254b57600080fd5b5051845190915060009061257590839087908c90811061256757fe5b60200260200101518a6133c1565b905060005b60028110156125c0576125a18387838151811061259357fe5b602002602001015184613efa565b8782815181106125ad57fe5b602090810291909101015260010161257a565b50949998505050505050505050565b604080516002808252606080830184526000938493919290602083019080368337019050509050848160008151811061260457fe5b602002602001018181525050838160018151811061261e57fe5b602002602001018181525050606061269187600680548060200260200160405190810160405280929190818152602001828054801561268657602002820191906000526020600020905b81546001600160a01b03168152600190910190602001808311612668575b50505050508461270c565b9050806000815181106126a057fe5b6020026020010151816001815181106126b557fe5b6020026020010151935093505050935093915050565b6000546001600160a01b031681565b600854600160a01b900463ffffffff1681565b60065490565b6000806126fe6137f7565b61127b858560008087613fc9565b6060612716613489565b60026004556127236137f7565b600061273084848761383f565b90506000600860009054906101000a90046001600160a01b031690506000816001600160a01b03166318160ddd6040518163ffffffff1660e01b815260040160206040518083038186803b15801561278757600080fd5b505afa15801561279b573d6000803e3d6000fd5b505050506040513d60208110156127b157600080fd5b50516040805163a24835d160e01b8152336004820152602481018a905290519192506001600160a01b0384169163a24835d19160448082019260009290919082900301818387803b15801561280557600080fd5b505af1158015612819573d6000803e3d6000fd5b5050505061282561412f565b600061283182896142b9565b905060606128408989856130b2565b905061284a615016565b612852615016565b61285a611a4d565b6020840152825260005b6002811015612a495760008b828151811061287b57fe5b60200260200101519050600085838151811061289357fe5b602002602001015190508b83815181106128a957fe5b60200260200101518110156128fe576040805162461bcd60e51b815260206004820152601660248201527511549497d6915493d7d5105491d15517d05353d5539560521b604482015290519081900360640190fd5b6129198186856002811061290e57fe5b6020020151906142b9565b84846002811061292557fe5b60200201526001600160a01b0382166000805160206150fc833981519152141561297c57604051339082156108fc029083906000818181858888f19350505050158015612976573d6000803e3d6000fd5b50612990565b6129906001600160a01b0383163383614316565b6001600160a01b038216337fbc7d19d505c7ec4db83f3b51f19fb98c4c8a99922e7839d1ee608dfbee29501b838787600281106129c957fe5b6020908102919091015160408051938452918301528181018c9052519081900360600190a3816001600160a01b0316896001600160a01b03166000805160206150bb833981519152868660028110612a1d57fe5b60200201518a604051808381526020018281526020019250505060405180910390a35050600101612864565b508051612a5d906001906002908483612305565b8615612ac657600083600081518110612a7257fe5b6020026020010151905083600181518110612a8957fe5b602002602001015184600081518110612a9e57fe5b6020026020010181815250508084600181518110612ab857fe5b602002602001018181525050505b5050600160045598975050505050505050565b612ae1613051565b600354600280546001600160a01b0319166001600160a01b03909216919091179055565b600080612b106137f7565b6001600160a01b038086166000908152600a602052604080822054928716825281205490612b3d86614368565b90506000612b5f84612b5985612b538b87613dc2565b90614397565b906143f0565b99919850909650505050505050565b612b76613051565b612b7e6126ed565b61ffff16600214612bd2576040805162461bcd60e51b815260206004820152601960248201527811549497d253959053125117d49154d154959157d0d3d55395603a1b604482015290519081900360640190fd5b600860009054906101000a90046001600160a01b03166001600160a01b03166379ba50976040518163ffffffff1660e01b8152600401600060405180830381600087803b158015612c2257600080fd5b505af1158015612c36573d6000803e3d6000fd5b50505050612c4261412f565b6008546001906001600160a01b0316612c596114be565b61ffff167f6b08c2e2c9969e55a647a764db9b554d64dc42f1a704da11a6d5b129ad163f2c60405160405180910390a4565b600b5481565b600190565b6008546001600160a01b031681565b6001546001600160a01b031681565b612cbc613051565b6000612ce1762130b731b7b921b7b73b32b93a32b92ab833b930b232b960491b613343565b6008549091506000906001600160a01b0316612cfb6114be565b61ffff167f6b08c2e2c9969e55a647a764db9b554d64dc42f1a704da11a6d5b129ad163f2c60405160405180910390a4612d3481612fc4565b6040805163487ac64b60e11b8152602d600482015290516001600160a01b038316916390f58c9691602480830192600092919082900301818387803b158015612d7c57600080fd5b505af1158015612d90573d6000803e3d6000fd5b50505050611105611d91565b600061122482612dcc565b612db283838361270c565b8051612dc691600c91602090910190615034565b50505050565b6001600160a01b03811660009081526007602052604081205480612e2d576040805162461bcd60e51b81526020600482015260136024820152724552525f494e56414c49445f5245534552564560681b604482015290519081900360640190fd5b611586816130a4565b6000612e40613489565b60026004556c42616e636f724e6574776f726b60981b612e5f8161364c565b856001600160a01b0316876001600160a01b03161415612ebf576040805162461bcd60e51b815260206004820152601660248201527511549497d4d0535157d4d3d55490d157d5105491d15560521b604482015290519081900360640190fd5b612ecc8787878787614457565b6001600455979650505050505050565b612ee4613051565b60085463ffffffff600160a01b90910481169082161115612f4c576040805162461bcd60e51b815260206004820152601a60248201527f4552525f494e56414c49445f434f4e56455253494f4e5f464545000000000000604482015290519081900360640190fd5b6008546040805163ffffffff600160c01b90930483168152918316602083015280517f81cd2ffb37dd237c0e4e2a3de5265fcf9deb43d3e7801e80db9f1ccfba7ee6009281900390910190a16008805463ffffffff909216600160c01b0263ffffffff60c01b19909216919091179055565b60095481565b612fcc613051565b6000546001600160a01b0382811691161415613020576040805162461bcd60e51b815260206004820152600e60248201526d22a9292fa9a0a6a2afa7aba722a960911b604482015290519081900360640190fd5b600180546001600160a01b0319166001600160a01b0392909216919091179055565b6008546001600160a01b031690565b6000546001600160a01b031633146114b7576040805162461bcd60e51b815260206004820152601160248201527011549497d050d0d154d4d7d11153925151607a1b604482015290519081900360640190fd5b6000611224600554836146f1565b604080516002808252606080830184529283929190602083019080368337505060408051600280825260608083018452949550909250906020830190803683370190505090506000600760008760008151811061310b57fe5b60200260200101516001600160a01b03166001600160a01b031681526020019081526020016000205490506000600760008860018151811061314957fe5b60200260200101516001600160a01b03166001600160a01b0316815260200190815260200160002054905061317e82826135c3565b8460008151811061318b57fe5b602002602001018560018151811061319f57fe5b60209081029190910101919091525260005b60028110156131f7576131d8878583815181106131ca57fe5b60200260200101518b614723565b8582815181106131e457fe5b60209081029190910101526001016131b1565b5092979650505050505050565b60008061321083614834565b9050600061321d84613328565b9050600061322a85613337565b9050600061323661483a565b90508381038061324d578695505050505050611251565b600080613258611a4d565b915091506102588310158061326b575086155b1561329f5761328281836001600160701b03614844565b9250905061329184828461488c565b975050505050505050611251565b60006132ab8683614397565b905060006132b98885614397565b905060006132df6132ca8488614397565b6132d9846102588a9003614397565b90613dc2565b905060006132f3610258612b538b89614397565b905061330782826001600160701b03614844565b909250905061331788838361488c565b9d9c50505050505050505050505050565b60701c6001600160701b031690565b6001600160701b031690565b60025460408051632ecd14d360e21b81526004810184905290516000926001600160a01b03169163bb34534c916024808301926020929190829003018186803b15801561338f57600080fd5b505afa1580156133a3573d6000803e3d6000fd5b505050506040513d60208110156133b957600080fd5b505192915050565b600080841161340c576040805162461bcd60e51b81526020600482015260126024820152714552525f494e56414c49445f535550504c5960701b604482015290519081900360640190fd5b60008311613461576040805162461bcd60e51b815260206004820152601b60248201527f4552525f494e56414c49445f524553455256455f42414c414e43450000000000604482015290519081900360640190fd5b8161346e57506000611586565b826134798386614397565b8161348057fe5b04949350505050565b6001600454146114b7576040805162461bcd60e51b815260206004820152600e60248201526d4552525f5245454e5452414e435960901b604482015290519081900360640190fd5b6134d9613051565b826134e3816136f5565b826134ed816136f5565b836134f781613746565b611b016001600160a01b0387168686614316565b6001600160a01b038116600081815260076020526040812054916000805160206150fc833981519152146135b057604080516370a0823160e01b815230600482015290516001600160a01b038516916370a08231916024808301926020929190829003018186803b15801561357f57600080fd5b505afa158015613593573d6000803e3d6000fd5b505050506040513d60208110156135a957600080fd5b50516135b2565b475b90506135be82826148d7565b505050565b6000808360011480156135d65750826002145b806135ec57508360021480156135ec5750826001145b613634576040805162461bcd60e51b81526020600482015260146024820152734552525f494e56414c49445f524553455256455360601b604482015290519081900360640190fd5b613641600554858561495d565b915091509250929050565b61365581613343565b6001600160a01b0316336001600160a01b031614611105576040805162461bcd60e51b815260206004820152601160248201527011549497d050d0d154d4d7d11153925151607a1b604482015290519081900360640190fd5b6136b6611314565b156114b7576040805162461bcd60e51b815260206004820152600a6024820152694552525f41435449564560b01b604482015290519081900360640190fd5b6001600160a01b038116611105576040805162461bcd60e51b81526020600482015260136024820152724552525f494e56414c49445f4144445245535360681b604482015290519081900360640190fd5b6001600160a01b038116301415611105576040805162461bcd60e51b815260206004820152601360248201527222a9292fa0a2222922a9a9afa4a9afa9a2a62360691b604482015290519081900360640190fd5b63ffffffff81166207a12014611105576040805162461bcd60e51b815260206004820152601a60248201527f4552525f494e56414c49445f524553455256455f574549474854000000000000604482015290519081900360640190fd5b6137ff611314565b6114b7576040805162461bcd60e51b815260206004820152600c60248201526b4552525f494e41435449564560a01b604482015290519081900360640190fd5b600061384a83614974565b80156138565750600082115b613899576040805162461bcd60e51b815260206004820152600f60248201526e11549497d6915493d7d05353d55395608a1b604482015290519081900360640190fd5b600060076000866000815181106138ac57fe5b60200260200101516001600160a01b03166001600160a01b03168152602001908152602001600020549050600060076000876001815181106138ea57fe5b60200260200101516001600160a01b03166001600160a01b031681526020019081526020016000205490508160021480156139255750806001145b15613a215760008660008151811061393957fe5b602002602001015190508660018151811061395057fe5b60200260200101518760008151811061396557fe5b60200260200101906001600160a01b031690816001600160a01b031681525050808760018151811061399357fe5b60200260200101906001600160a01b031690816001600160a01b0316815250506000866000815181106139c257fe5b60200260200101519050866001815181106139d957fe5b6020026020010151876000815181106139ee57fe5b6020026020010181815250508087600181518110613a0857fe5b6020026020010181815250506001945050505050611586565b816001148015613a315750806002145b613a78576040805162461bcd60e51b81526020600482015260136024820152724552525f494e56414c49445f5245534552564560681b604482015290519081900360640190fd5b50600095945050505050565b60006006600081548110613a9457fe5b6000918252602082200154600680546001600160a01b039092169350906001908110613abc57fe5b60009182526020822001546001600160a01b03908116925083166000805160206150fc83398151915214613b6157604080516370a0823160e01b815230600482015290516001600160a01b038516916370a08231916024808301926020929190829003018186803b158015613b3057600080fd5b505afa158015613b44573d6000803e3d6000fd5b505050506040513d6020811015613b5a57600080fd5b5051613b65565b8347035b905060006001600160a01b0383166000805160206150fc83398151915214613bfe57604080516370a0823160e01b815230600482015290516001600160a01b038516916370a08231916024808301926020929190829003018186803b158015613bcd57600080fd5b505afa158015613be1573d6000803e3d6000fd5b505050506040513d6020811015613bf757600080fd5b5051613c02565b8447035b9050613c12600160028484613e76565b5050505050565b80516000908190815b81811015613c5257613c46858281518110613c3957fe5b60200260200101516149b2565b90920191600101613c22565b506001613c5f83836149d4565b03600a0a949350505050565b6000613c75615016565b6000600a600088600081518110613c8857fe5b60200260200101516001600160a01b03166001600160a01b031681526020019081526020016000205490506000600a600089600181518110613cc657fe5b60200260200101516001600160a01b03166001600160a01b031681526020019081526020016000205490506000613d3682612b538a600181518110613d0757fe5b60200260200101516132d9878d600081518110613d2057fe5b602002602001015161439790919063ffffffff16565b90506000613d5b83612b538a600160200201516132d9888d6000602002015190614397565b90506000613d6d82612b598a86614397565b9050613d77615016565b60005b6002811015613db0578b8181518110613d8f57fe5b6020026020010151828260028110613da357fe5b6020020152600101613d7a565b50909b909a5098505050505050505050565b600082820183811015611586576040805162461bcd60e51b815260206004820152601b60248201527f536166654d6174683a206164646974696f6e206f766572666c6f770000000000604482015290519081900360640190fd5b604080516001600160a01b0380861660248301528416604482015260648082018490528251808303909101815260849091019091526020810180516001600160e01b03166323b872dd60e01b179052612dc69085906149e4565b6001600160801b038211158015613e9457506001600160801b038111155b613ee5576040805162461bcd60e51b815260206004820152601c60248201527f4552525f524553455256455f42414c414e43455f4f564552464c4f5700000000604482015290519081900360640190fd5b613ef182858386614a95565b60055550505050565b6000808411613f45576040805162461bcd60e51b81526020600482015260126024820152714552525f494e56414c49445f535550504c5960701b604482015290519081900360640190fd5b60008311613f9a576040805162461bcd60e51b815260206004820152601b60248201527f4552525f494e56414c49445f524553455256455f42414c414e43450000000000604482015290519081900360640190fd5b81613fa757506000611586565b836001613fb48486614397565b0381613fbc57fe5b0460010190509392505050565b6000806060613fd66113a9565b905080600081518110613fe557fe5b60200260200101516001600160a01b0316886001600160a01b031614801561403257508060018151811061401557fe5b60200260200101516001600160a01b0316876001600160a01b0316145b8061409257508060018151811061404557fe5b60200260200101516001600160a01b0316886001600160a01b031614801561409257508060008151811061407557fe5b60200260200101516001600160a01b0316876001600160a01b0316145b6140da576040805162461bcd60e51b81526020600482015260146024820152734552525f494e56414c49445f524553455256455360601b604482015290519081900360640190fd5b6001600160a01b038089166000908152600a602052604080822054928a1682528120549061410c82612b598986614397565b9050600061411982614ab5565b918290039c919b50909950505050505050505050565b6000600660008154811061413f57fe5b6000918252602082200154600680546001600160a01b03909216935090600190811061416757fe5b60009182526020822001546001600160a01b03908116925083166000805160206150fc8339815191521461420c57604080516370a0823160e01b815230600482015290516001600160a01b038516916370a08231916024808301926020929190829003018186803b1580156141db57600080fd5b505afa1580156141ef573d6000803e3d6000fd5b505050506040513d602081101561420557600080fd5b505161420e565b475b905060006001600160a01b0383166000805160206150fc833981519152146142a757604080516370a0823160e01b815230600482015290516001600160a01b038516916370a08231916024808301926020929190829003018186803b15801561427657600080fd5b505afa15801561428a573d6000803e3d6000fd5b505050506040513d60208110156142a057600080fd5b50516142a9565b475b9050612dc6600160028484613e76565b600082821115614310576040805162461bcd60e51b815260206004820152601e60248201527f536166654d6174683a207375627472616374696f6e206f766572666c6f770000604482015290519081900360640190fd5b50900390565b604080516001600160a01b038416602482015260448082018490528251808303909101815260649091019091526020810180516001600160e01b031663a9059cbb60e01b1790526135be9084906149e4565b6008546000906112249063ffffffff600160c01b9091048116620f4240819003821691612b5991869161439716565b6000826143a657506000611224565b828202828482816143b357fe5b04146115865760405162461bcd60e51b81526004018080602001828103825260218152602001806150db6021913960400191505060405180910390fd5b6000808211614446576040805162461bcd60e51b815260206004820152601a60248201527f536166654d6174683a206469766973696f6e206279207a65726f000000000000604482015290519081900360640190fd5b81838161444f57fe5b049392505050565b6000614461614aea565b6001600160a01b03808716600090815260076020526040808220549288168252812054908061449084846135c3565b915091506000806144a48c8c86868e613fc9565b9150915081600014156144f7576040805162461bcd60e51b815260206004820152601660248201527511549497d6915493d7d5105491d15517d05353d5539560521b604482015290519081900360640190fd5b82821061450057fe5b60006001600160a01b038d166000805160206150fc8339815191521415614576575047348b14614571576040805162461bcd60e51b815260206004820152601760248201527608aa4a4be8aa890be829a9eaa9ca8be9a92a69a82a8869604b1b604482015290519081900360640190fd5b614647565b604080516370a0823160e01b815230600482015290516001600160a01b038f16916370a08231916024808301926020929190829003018186803b1580156145bc57600080fd5b505afa1580156145d0573d6000803e3d6000fd5b505050506040513d60208110156145e657600080fd5b505190503415801561460157508a6145fe82876142b9565b10155b614647576040805162461bcd60e51b815260206004820152601260248201527111549497d253959053125117d05353d5539560721b604482015290519081900360640190fd5b614655878783868803613e76565b6001600160a01b038c166000805160206150fc83398151915214156146b0576040516001600160a01b038a169084156108fc029085906000818181858888f193505050501580156146aa573d6000803e3d6000fd5b506146c4565b6146c46001600160a01b038d168a85614316565b6146d28d8d8c8e8787614b0b565b6146e08d8d83868803614b67565b50909b9a5050505050505050505050565b600081600114806147025750816002145b61470857fe5b50608060001982010282901c6001600160801b031692915050565b600080841161476e576040805162461bcd60e51b81526020600482015260126024820152714552525f494e56414c49445f535550504c5960701b604482015290519081900360640190fd5b600083116147c3576040805162461bcd60e51b815260206004820152601b60248201527f4552525f494e56414c49445f524553455256455f42414c414e43450000000000604482015290519081900360640190fd5b8382111561480d576040805162461bcd60e51b815260206004820152601260248201527111549497d253959053125117d05353d5539560721b604482015290519081900360640190fd5b8161481a57506000611586565b83821415614829575081611586565b836134798385614397565b60e01c90565b6000611d8c614ca0565b60008084848482118061485657508481115b1561486c57614866828287614ca6565b90925090505b80821461487d579092509050611280565b50600196879650945050505050565b600063ffffffff84111580156148a957506001600160701b038311155b80156148bc57506001600160701b038211155b6148c257fe5b5060e083901b607083901b1781179392505050565b6001600160801b03811115614933576040805162461bcd60e51b815260206004820152601c60248201527f4552525f524553455256455f42414c414e43455f4f564552464c4f5700000000604482015290519081900360640190fd5b6000614944600554846003036146f1565b905061495582848386600303614a95565b600555505050565b60008061496a85856146f1565b61127b86856146f1565b6000808260008151811061498457fe5b6020026020010151118061122457506000826001815181106149a257fe5b6020026020010151119050919050565b600080825b80156149cd5760019190910190600a90046149b7565b5092915050565b6000816002810484018161444f57fe5b6060614a39826040518060400160405280602081526020017f5361666545524332303a206c6f772d6c6576656c2063616c6c206661696c6564815250856001600160a01b0316614cdf9092919063ffffffff16565b8051909150156135be57808060200190516020811015614a5857600080fd5b50516135be5760405162461bcd60e51b815260040180806020018281038252602a81526020018061511c602a913960400191505060405180910390fd5b6000614aa18383614cf6565b614aab8686614cf6565b1795945050505050565b600854600090620f424090614adc908490600160c01b900463ffffffff9081169061439716565b81614ae357fe5b0492915050565b6009546000614af882613204565b9050808214614b075760098190555b5050565b604080518481526020810184905280820183905290516001600160a01b038087169288821692918a16917f276856b36cbc45526a0ba64f44611557a2a8b68662c5388e9fe6d72e86e1c8cb9181900360600190a4505050505050565b600854604080516318160ddd60e01b815290516001600160a01b039092169160009183916318160ddd91600480820192602092909190829003018186803b158015614bb157600080fd5b505afa158015614bc5573d6000803e3d6000fd5b505050506040513d6020811015614bdb57600080fd5b5051604080518581526020810187905281519293506001600160a01b0380891693908a16926000805160206150bb833981519152928290030190a3856001600160a01b0316826001600160a01b03166000805160206150bb8339815191528684604051808381526020018281526020019250505060405180910390a3846001600160a01b0316826001600160a01b03166000805160206150bb8339815191528584604051808381526020018281526020019250505060405180910390a3505050505050565b600b5490565b600080838511614cc457614cbb858585614d2b565b91509150611280565b600080614cd2868887614d2b565b9890975095505050505050565b6060614cee8484600085614de4565b949350505050565b60006001600160801b038311158015614d1957508160011480614d195750816002145b614d1f57fe5b50600019016080021b90565b60008060008360001981614d3b57fe5b04905080861115614d74576000816001018781614d5457fe5b046001019050808781614d6357fe5b049650808681614d6f57fe5b049550505b848614614dd457858402858701878110614da5576000614d948383614f40565b955050508385039250611280915050565b6002888803048703821015614dc35760008694509450505050611280565b600180870394509450505050611280565b5050600290910493849350915050565b606082471015614e255760405162461bcd60e51b81526004018080602001828103825260268152602001806150956026913960400191505060405180910390fd5b614e2e85614f6c565b614e7f576040805162461bcd60e51b815260206004820152601d60248201527f416464726573733a2063616c6c20746f206e6f6e2d636f6e7472616374000000604482015290519081900360640190fd5b60006060866001600160a01b031685876040518082805190602001908083835b60208310614ebe5780518252601f199092019160209182019101614e9f565b6001836020036101000a03801982511681845116808217855250505050505090500191505060006040518083038185875af1925050503d8060008114614f20576040519150601f19603f3d011682016040523d82523d6000602084013e614f25565b606091505b5091509150614f35828286614f72565b979650505050505050565b6000600282048203828481614f5157fe5b0681614f5957fe5b04828481614f6357fe5b04019392505050565b3b151590565b60608315614f81575081611586565b825115614f915782518084602001fd5b8160405162461bcd60e51b81526004018080602001828103825283818151815260200191508051906020019080838360005b83811015614fdb578181015183820152602001614fc3565b50505050905090810190601f1680156150085780820380516001836020036101000a031916815260200191505b509250505060405180910390fd5b60405180604001604052806002906020820280368337509192915050565b82805482825590600052602060002090810192821561506f579160200282015b8281111561506f578251825591602001919060010190615054565b5061507b92915061507f565b5090565b5b8082111561507b576000815560010161508056fe416464726573733a20696e73756666696369656e742062616c616e636520666f722063616c6c77f29993cf2c084e726f7e802da0719d6a0ade3e204badc7a3ffd57ecb768c24536166654d6174683a206d756c7469706c69636174696f6e206f766572666c6f77000000000000000000000000eeeeeeeeeeeeeeeeeeeeeeeeeeeeeeeeeeeeeeee5361666545524332303a204552433230206f7065726174696f6e20646964206e6f742073756363656564a26469706673582212206f8e25d55f88038c526e5aa300cc2f7aa89fb7633fe49e7ca7fd04de8811b79964736f6c634300060c0033",
  "immutableReferences": {},
  "source": "// SPDX-License-Identifier: SEE LICENSE IN LICENSE\npragma solidity 0.6.12;\n\nimport \"../converter/types/fixed-rate-pool/FixedRatePoolConverter.sol\";\nimport \"./TestTime.sol\";\n\ncontract TestFixedRatePoolConverter is FixedRatePoolConverter, TestTime {\n    uint256[] public reserveAmountsRemoved = new uint256[](2);\n\n    constructor(\n        IDSToken _token,\n        IContractRegistry _registry,\n        uint32 _maxConversionFee\n    ) public FixedRatePoolConverter(_token, _registry, _maxConversionFee) {}\n\n    function removeLiquidityTest(\n        uint256 _amount,\n        IERC20[] memory _reserveTokens,\n        uint256[] memory _reserveMinReturnAmounts\n    ) public {\n        reserveAmountsRemoved = removeLiquidity(_amount, _reserveTokens, _reserveMinReturnAmounts);\n    }\n\n    function time() internal view override(Time, TestTime) returns (uint256) {\n        return TestTime.time();\n    }\n}\n",
  "sourcePath": "/Users/dennismacpro/Projects/Defi/Ethereum-Solidity-Collection/icarus-protocol/defi-seeder/.tmp/bancor/contracts-solidity/solidity/contracts/helpers/TestFixedRatePoolConverter.sol",
  "compiler": {
    "name": "solc",
    "version": "0.6.12+commit.27d51765.Emscripten.clang"
  },
  "schemaVersion": "3.3.3",
  "updatedAt": "2021-04-01T18:17:52.052Z",
  "devdoc": {
    "kind": "dev",
    "methods": {
      "acceptAnchorOwnership()": {
        "details": "accepts ownership of the anchor after an ownership transfer most converters are also activated as soon as they accept the anchor ownership can only be called by the contract owner note that prior to version 28, you should use 'acceptTokenOwnership' instead"
      },
      "acceptOwnership()": {
        "details": "used by a new owner to accept an ownership transfer"
      },
      "acceptTokenOwnership()": {
        "details": "deprecated, backward compatibility"
      },
      "addLiquidity(address[],uint256[],uint256)": {
        "details": "increases the pool's liquidity and mints new shares in the pool to the caller",
        "params": {
          "_minReturn": "token minimum return-amount",
          "_reserveAmounts": "amount of each reserve token",
          "_reserveTokens": "address of each reserve token"
        },
        "returns": {
          "_0": "amount of pool tokens issued"
        }
      },
      "addLiquidity(uint256,uint256,uint256)": {
        "details": "increases the pool's liquidity and mints new shares in the pool to the caller this version receives the two reserve amounts as separate args",
        "params": {
          "_minReturn": "token minimum return-amount",
          "_reserve1Amount": "amount of the first reserve token",
          "_reserve2Amount": "amount of the second reserve token"
        },
        "returns": {
          "_0": "amount of pool tokens issued"
        }
      },
      "addLiquidityCost(address[],uint256,uint256)": {
        "details": "given the amount of one of the reserve tokens to add liquidity of, returns the required amount of each one of the other reserve tokens since an empty pool can be funded with any list of non-zero input amounts, this function assumes that the pool is not empty (has already been funded)",
        "params": {
          "_reserveAmount": "amount of the relevant reserve token",
          "_reserveTokenIndex": "index of the relevant reserve token",
          "_reserveTokens": "address of each reserve token"
        },
        "returns": {
          "_0": "the required amount of each one of the reserve tokens"
        }
      },
      "addLiquidityReturn(address,uint256)": {
        "details": "given the amount of one of the reserve tokens to add liquidity of, returns the amount of pool tokens entitled for it since an empty pool can be funded with any list of non-zero input amounts, this function assumes that the pool is not empty (has already been funded)",
        "params": {
          "_reserveAmount": "amount of the reserve token",
          "_reserveToken": "address of the reserve token"
        },
        "returns": {
          "_0": "the amount of pool tokens entitled"
        }
      },
      "addReserve(address,uint32)": {
        "details": "defines a new reserve token for the converter can only be called by the owner while the converter is inactive",
        "params": {
          "_token": "address of the reserve token",
          "_weight": "reserve weight, represented in ppm, 1-1000000"
        }
      },
      "connectorTokenCount()": {
        "details": "deprecated, backward compatibility"
      },
      "connectorTokens(uint256)": {
        "details": "deprecated, backward compatibility"
      },
      "connectors(address)": {
        "details": "deprecated, backward compatibility"
      },
      "convert(address,address,uint256,address,address)": {
        "details": "converts a specific amount of source tokens to target tokens can only be called by the bancor network contract",
        "params": {
          "_amount": "amount of tokens to convert (in units of the source token)",
          "_beneficiary": "wallet to receive the conversion result",
          "_sourceToken": "source ERC20 token",
          "_targetToken": "target ERC20 token",
          "_trader": "address of the caller who executed the conversion"
        },
        "returns": {
          "_0": "amount of tokens received (in units of the target token)"
        }
      },
      "converterType()": {
        "details": "returns the converter type",
        "returns": {
          "_0": "see the converter types in the the main contract doc"
        }
      },
      "getConnectorBalance(address)": {
        "details": "deprecated, backward compatibility"
      },
      "getReturn(address,address,uint256)": {
        "details": "deprecated, backward compatibility"
      },
      "isActive()": {
        "details": "returns true if the converter is active, false otherwise",
        "returns": {
          "_0": "true if the converter is active, false otherwise"
        }
      },
      "isV28OrHigher()": {
        "details": "checks whether or not the converter version is 28 or higher",
        "returns": {
          "_0": "true, since the converter version is 28 or higher"
        }
      },
      "rate()": {
        "details": "returns the worth of the 1st reserve token in units of the 2nd reserve token",
        "returns": {
          "_0": "the numerator of the rate between the 1st reserve token and the 2nd reserve token",
          "_1": "the denominator of the rate between the 1st reserve token and the 2nd reserve token"
        }
      },
      "recentAverageRate(address)": {
        "details": "returns the recent average rate of 1 `_token` in the other reserve token units",
        "params": {
          "_token": "token to get the rate for"
        },
        "returns": {
          "_0": "recent average rate between the reserves (numerator)",
          "_1": "recent average rate between the reserves (denominator)"
        }
      },
      "removeLiquidity(uint256,address[],uint256[])": {
        "details": "decreases the pool's liquidity and burns the caller's shares in the pool",
        "params": {
          "_amount": "token amount",
          "_reserveMinReturnAmounts": "minimum return-amount of each reserve token",
          "_reserveTokens": "address of each reserve token"
        },
        "returns": {
          "_0": "the amount of each reserve token granted for the given amount of pool tokens"
        }
      },
      "removeLiquidity(uint256,uint256,uint256)": {
        "details": "decreases the pool's liquidity and burns the caller's shares in the pool this version receives the two minimum return amounts as separate args",
        "params": {
          "_amount": "token amount",
          "_reserve1MinReturn": "minimum return for the first reserve token",
          "_reserve2MinReturn": "minimum return for the second reserve token"
        },
        "returns": {
          "_0": "the first reserve amount returned",
          "_1": "the second reserve amount returned"
        }
      },
      "removeLiquidityReturn(uint256,address[])": {
        "details": "returns the amount of each reserve token entitled for a given amount of pool tokens",
        "params": {
          "_amount": "amount of pool tokens",
          "_reserveTokens": "address of each reserve token"
        },
        "returns": {
          "_0": "the amount of each reserve token entitled for the given amount of pool tokens"
        }
      },
      "reserveBalance(address)": {
        "details": "returns the balance of a given reserve token",
        "params": {
          "_reserveToken": "reserve token contract address"
        },
        "returns": {
          "_0": "the balance of the given reserve token"
        }
      },
      "reserveBalances()": {
        "details": "returns the balances of both reserve tokens",
        "returns": {
          "_0": "the balances of both reserve tokens"
        }
      },
      "reserveTokenCount()": {
        "details": "returns the number of reserve tokens note that prior to version 17, you should use 'connectorTokenCount' instead",
        "returns": {
          "_0": "number of reserve tokens"
        }
      },
      "reserveTokens()": {
        "details": "returns the array of reserve tokens",
        "returns": {
          "_0": "array of reserve tokens"
        }
      },
      "reserveWeight(address)": {
        "details": "returns the reserve's weight added in version 28",
        "params": {
          "_reserveToken": "reserve token contract address"
        },
        "returns": {
          "_0": "reserve weight"
        }
      },
      "restoreRegistry()": {
        "details": "restores the previous contract-registry"
      },
      "restrictRegistryUpdate(bool)": {
        "details": "restricts the permission to update the contract-registry",
        "params": {
          "_onlyOwnerCanUpdateRegistry": "indicates whether or not permission is restricted to owner only"
        }
      },
      "setConversionFee(uint32)": {
        "details": "updates the current conversion fee can only be called by the contract owner",
        "params": {
          "_conversionFee": "new conversion fee, represented in ppm"
        }
      },
      "setRate(uint256,uint256)": {
        "details": "sets the worth of the 1st reserve token in units of the 2nd reserve token can be executed only by the owner of the converter",
        "params": {
          "rateD": "the denominator of the rate between the 1st reserve token and the 2nd reserve token",
          "rateN": "the numerator of the rate between the 1st reserve token and the 2nd reserve token"
        }
      },
      "sourceAmountAndFee(address,address,uint256)": {
        "details": "returns the required amount and expected fee for converting one reserve to another",
        "params": {
          "_amount": "amount of target reserve tokens desired",
          "_sourceToken": "address of the source reserve token contract",
          "_targetToken": "address of the target reserve token contract"
        },
        "returns": {
          "_0": "required amount in units of the source reserve token",
          "_1": "expected fee in units of the target reserve token"
        }
      },
      "targetAmountAndFee(address,address,uint256)": {
        "details": "returns the expected amount and expected fee for converting one reserve to another",
        "params": {
          "_amount": "amount of source reserve tokens converted",
          "_sourceToken": "address of the source reserve token contract",
          "_targetToken": "address of the target reserve token contract"
        },
        "returns": {
          "_0": "expected amount in units of the target reserve token",
          "_1": "expected fee in units of the target reserve token"
        }
      },
      "token()": {
        "details": "deprecated since version 28, backward compatibility - use only for earlier versions"
      },
      "transferAnchorOwnership(address)": {
        "details": "transfers the anchor ownership the new owner needs to accept the transfer can only be called by the converter upgrder while the upgrader is the owner note that prior to version 28, you should use 'transferAnchorOwnership' instead",
        "params": {
          "_newOwner": "new token owner"
        }
      },
      "transferOwnership(address)": {
        "details": "allows transferring the contract ownership the new owner still needs to accept the transfer can only be called by the contract owner",
        "params": {
          "_newOwner": "new contract owner"
        }
      },
      "transferTokenOwnership(address)": {
        "details": "deprecated, backward compatibility"
      },
      "updateRegistry()": {
        "details": "updates to the new contract-registry"
      },
      "upgrade()": {
        "details": "upgrades the converter to the latest version can only be called by the owner note that the owner needs to call acceptOwnership on the new converter after the upgrade"
      },
      "withdrawETH(address)": {
        "details": "withdraws ether can only be called by the owner if the converter is inactive or by upgrader contract can only be called after the upgrader contract has accepted the ownership of this contract can only be called if the converter has an ETH reserve",
        "params": {
          "_to": "address to send the ETH to"
        }
      },
      "withdrawTokens(address,address,uint256)": {
        "details": "withdraws tokens held by the converter and sends them to an account can only be called by the owner note that reserve tokens can only be withdrawn by the owner while the converter is inactive unless the owner is the converter upgrader contract",
        "params": {
          "_amount": "amount to withdraw",
          "_to": "account to receive the new amount",
          "_token": "ERC20 token contract address"
        }
      }
    },
    "version": 1
  },
  "userdoc": {
    "kind": "user",
    "methods": {},
    "version": 1
  }
}