{
  "contractName": "TestBancorFormula",
  "abi": [
    {
      "inputs": [
        {
          "internalType": "uint256",
          "name": "_primaryReserveStakedBalance",
          "type": "uint256"
        },
        {
          "internalType": "uint256",
          "name": "_primaryReserveBalance",
          "type": "uint256"
        },
        {
          "internalType": "uint256",
          "name": "_secondaryReserveBalance",
          "type": "uint256"
        },
        {
          "internalType": "uint256",
          "name": "_reserveRateNumerator",
          "type": "uint256"
        },
        {
          "internalType": "uint256",
          "name": "_reserveRateDenominator",
          "type": "uint256"
        }
      ],
      "name": "balancedWeights",
      "outputs": [
        {
          "internalType": "uint32",
          "name": "",
          "type": "uint32"
        },
        {
          "internalType": "uint32",
          "name": "",
          "type": "uint32"
        }
      ],
      "stateMutability": "view",
      "type": "function"
    },
    {
      "inputs": [
        {
          "internalType": "uint256",
          "name": "_sourceReserveBalance",
          "type": "uint256"
        },
        {
          "internalType": "uint32",
          "name": "_sourceReserveWeight",
          "type": "uint32"
        },
        {
          "internalType": "uint256",
          "name": "_targetReserveBalance",
          "type": "uint256"
        },
        {
          "internalType": "uint32",
          "name": "_targetReserveWeight",
          "type": "uint32"
        },
        {
          "internalType": "uint256",
          "name": "_amount",
          "type": "uint256"
        }
      ],
      "name": "calculateCrossConnectorReturn",
      "outputs": [
        {
          "internalType": "uint256",
          "name": "",
          "type": "uint256"
        }
      ],
      "stateMutability": "view",
      "type": "function"
    },
    {
      "inputs": [
        {
          "internalType": "uint256",
          "name": "_sourceReserveBalance",
          "type": "uint256"
        },
        {
          "internalType": "uint32",
          "name": "_sourceReserveWeight",
          "type": "uint32"
        },
        {
          "internalType": "uint256",
          "name": "_targetReserveBalance",
          "type": "uint256"
        },
        {
          "internalType": "uint32",
          "name": "_targetReserveWeight",
          "type": "uint32"
        },
        {
          "internalType": "uint256",
          "name": "_amount",
          "type": "uint256"
        }
      ],
      "name": "calculateCrossReserveReturn",
      "outputs": [
        {
          "internalType": "uint256",
          "name": "",
          "type": "uint256"
        }
      ],
      "stateMutability": "view",
      "type": "function"
    },
    {
      "inputs": [
        {
          "internalType": "uint256",
          "name": "_supply",
          "type": "uint256"
        },
        {
          "internalType": "uint256",
          "name": "_reserveBalance",
          "type": "uint256"
        },
        {
          "internalType": "uint32",
          "name": "_reserveRatio",
          "type": "uint32"
        },
        {
          "internalType": "uint256",
          "name": "_amount",
          "type": "uint256"
        }
      ],
      "name": "calculateFundCost",
      "outputs": [
        {
          "internalType": "uint256",
          "name": "",
          "type": "uint256"
        }
      ],
      "stateMutability": "view",
      "type": "function"
    },
    {
      "inputs": [
        {
          "internalType": "uint256",
          "name": "_supply",
          "type": "uint256"
        },
        {
          "internalType": "uint256",
          "name": "_reserveBalance",
          "type": "uint256"
        },
        {
          "internalType": "uint32",
          "name": "_reserveRatio",
          "type": "uint32"
        },
        {
          "internalType": "uint256",
          "name": "_amount",
          "type": "uint256"
        }
      ],
      "name": "calculateLiquidateReturn",
      "outputs": [
        {
          "internalType": "uint256",
          "name": "",
          "type": "uint256"
        }
      ],
      "stateMutability": "view",
      "type": "function"
    },
    {
      "inputs": [
        {
          "internalType": "uint256",
          "name": "_supply",
          "type": "uint256"
        },
        {
          "internalType": "uint256",
          "name": "_reserveBalance",
          "type": "uint256"
        },
        {
          "internalType": "uint32",
          "name": "_reserveWeight",
          "type": "uint32"
        },
        {
          "internalType": "uint256",
          "name": "_amount",
          "type": "uint256"
        }
      ],
      "name": "calculatePurchaseReturn",
      "outputs": [
        {
          "internalType": "uint256",
          "name": "",
          "type": "uint256"
        }
      ],
      "stateMutability": "view",
      "type": "function"
    },
    {
      "inputs": [
        {
          "internalType": "uint256",
          "name": "_supply",
          "type": "uint256"
        },
        {
          "internalType": "uint256",
          "name": "_reserveBalance",
          "type": "uint256"
        },
        {
          "internalType": "uint32",
          "name": "_reserveWeight",
          "type": "uint32"
        },
        {
          "internalType": "uint256",
          "name": "_amount",
          "type": "uint256"
        }
      ],
      "name": "calculateSaleReturn",
      "outputs": [
        {
          "internalType": "uint256",
          "name": "",
          "type": "uint256"
        }
      ],
      "stateMutability": "view",
      "type": "function"
    },
    {
      "inputs": [
        {
          "internalType": "uint256",
          "name": "_sourceReserveBalance",
          "type": "uint256"
        },
        {
          "internalType": "uint32",
          "name": "_sourceReserveWeight",
          "type": "uint32"
        },
        {
          "internalType": "uint256",
          "name": "_targetReserveBalance",
          "type": "uint256"
        },
        {
          "internalType": "uint32",
          "name": "_targetReserveWeight",
          "type": "uint32"
        },
        {
          "internalType": "uint256",
          "name": "_amount",
          "type": "uint256"
        }
      ],
      "name": "crossReserveRate",
      "outputs": [
        {
          "internalType": "uint256",
          "name": "",
          "type": "uint256"
        }
      ],
      "stateMutability": "view",
      "type": "function"
    },
    {
      "inputs": [
        {
          "internalType": "uint256",
          "name": "_sourceReserveBalance",
          "type": "uint256"
        },
        {
          "internalType": "uint32",
          "name": "_sourceReserveWeight",
          "type": "uint32"
        },
        {
          "internalType": "uint256",
          "name": "_targetReserveBalance",
          "type": "uint256"
        },
        {
          "internalType": "uint32",
          "name": "_targetReserveWeight",
          "type": "uint32"
        },
        {
          "internalType": "uint256",
          "name": "_amount",
          "type": "uint256"
        }
      ],
      "name": "crossReserveTargetAmount",
      "outputs": [
        {
          "internalType": "uint256",
          "name": "",
          "type": "uint256"
        }
      ],
      "stateMutability": "view",
      "type": "function"
    },
    {
      "inputs": [
        {
          "internalType": "uint256",
          "name": "_supply",
          "type": "uint256"
        },
        {
          "internalType": "uint256",
          "name": "_reserveBalance",
          "type": "uint256"
        },
        {
          "internalType": "uint32",
          "name": "_reserveRatio",
          "type": "uint32"
        },
        {
          "internalType": "uint256",
          "name": "_amount",
          "type": "uint256"
        }
      ],
      "name": "fundCost",
      "outputs": [
        {
          "internalType": "uint256",
          "name": "",
          "type": "uint256"
        }
      ],
      "stateMutability": "view",
      "type": "function"
    },
    {
      "inputs": [
        {
          "internalType": "uint256",
          "name": "_supply",
          "type": "uint256"
        },
        {
          "internalType": "uint256",
          "name": "_reserveBalance",
          "type": "uint256"
        },
        {
          "internalType": "uint32",
          "name": "_reserveRatio",
          "type": "uint32"
        },
        {
          "internalType": "uint256",
          "name": "_amount",
          "type": "uint256"
        }
      ],
      "name": "fundSupplyAmount",
      "outputs": [
        {
          "internalType": "uint256",
          "name": "",
          "type": "uint256"
        }
      ],
      "stateMutability": "view",
      "type": "function"
    },
    {
      "inputs": [],
      "name": "init",
      "outputs": [],
      "stateMutability": "nonpayable",
      "type": "function"
    },
    {
      "inputs": [
        {
          "internalType": "uint256",
          "name": "_supply",
          "type": "uint256"
        },
        {
          "internalType": "uint256",
          "name": "_reserveBalance",
          "type": "uint256"
        },
        {
          "internalType": "uint32",
          "name": "_reserveRatio",
          "type": "uint32"
        },
        {
          "internalType": "uint256",
          "name": "_amount",
          "type": "uint256"
        }
      ],
      "name": "liquidateRate",
      "outputs": [
        {
          "internalType": "uint256",
          "name": "",
          "type": "uint256"
        }
      ],
      "stateMutability": "view",
      "type": "function"
    },
    {
      "inputs": [
        {
          "internalType": "uint256",
          "name": "_supply",
          "type": "uint256"
        },
        {
          "internalType": "uint256",
          "name": "_reserveBalance",
          "type": "uint256"
        },
        {
          "internalType": "uint32",
          "name": "_reserveRatio",
          "type": "uint32"
        },
        {
          "internalType": "uint256",
          "name": "_amount",
          "type": "uint256"
        }
      ],
      "name": "liquidateReserveAmount",
      "outputs": [
        {
          "internalType": "uint256",
          "name": "",
          "type": "uint256"
        }
      ],
      "stateMutability": "view",
      "type": "function"
    },
    {
      "inputs": [
        {
          "internalType": "uint256",
          "name": "_supply",
          "type": "uint256"
        },
        {
          "internalType": "uint256",
          "name": "_reserveBalance",
          "type": "uint256"
        },
        {
          "internalType": "uint32",
          "name": "_reserveWeight",
          "type": "uint32"
        },
        {
          "internalType": "uint256",
          "name": "_amount",
          "type": "uint256"
        }
      ],
      "name": "purchaseRate",
      "outputs": [
        {
          "internalType": "uint256",
          "name": "",
          "type": "uint256"
        }
      ],
      "stateMutability": "view",
      "type": "function"
    },
    {
      "inputs": [
        {
          "internalType": "uint256",
          "name": "_supply",
          "type": "uint256"
        },
        {
          "internalType": "uint256",
          "name": "_reserveBalance",
          "type": "uint256"
        },
        {
          "internalType": "uint32",
          "name": "_reserveWeight",
          "type": "uint32"
        },
        {
          "internalType": "uint256",
          "name": "_amount",
          "type": "uint256"
        }
      ],
      "name": "purchaseTargetAmount",
      "outputs": [
        {
          "internalType": "uint256",
          "name": "",
          "type": "uint256"
        }
      ],
      "stateMutability": "view",
      "type": "function"
    },
    {
      "inputs": [
        {
          "internalType": "uint256",
          "name": "_supply",
          "type": "uint256"
        },
        {
          "internalType": "uint256",
          "name": "_reserveBalance",
          "type": "uint256"
        },
        {
          "internalType": "uint32",
          "name": "_reserveWeight",
          "type": "uint32"
        },
        {
          "internalType": "uint256",
          "name": "_amount",
          "type": "uint256"
        }
      ],
      "name": "saleRate",
      "outputs": [
        {
          "internalType": "uint256",
          "name": "",
          "type": "uint256"
        }
      ],
      "stateMutability": "view",
      "type": "function"
    },
    {
      "inputs": [
        {
          "internalType": "uint256",
          "name": "_supply",
          "type": "uint256"
        },
        {
          "internalType": "uint256",
          "name": "_reserveBalance",
          "type": "uint256"
        },
        {
          "internalType": "uint32",
          "name": "_reserveWeight",
          "type": "uint32"
        },
        {
          "internalType": "uint256",
          "name": "_amount",
          "type": "uint256"
        }
      ],
      "name": "saleTargetAmount",
      "outputs": [
        {
          "internalType": "uint256",
          "name": "",
          "type": "uint256"
        }
      ],
      "stateMutability": "view",
      "type": "function"
    },
    {
      "inputs": [
        {
          "internalType": "uint256",
          "name": "_baseN",
          "type": "uint256"
        },
        {
          "internalType": "uint256",
          "name": "_baseD",
          "type": "uint256"
        },
        {
          "internalType": "uint32",
          "name": "_expN",
          "type": "uint32"
        },
        {
          "internalType": "uint32",
          "name": "_expD",
          "type": "uint32"
        }
      ],
      "name": "powerTest",
      "outputs": [
        {
          "internalType": "uint256",
          "name": "",
          "type": "uint256"
        },
        {
          "internalType": "uint8",
          "name": "",
          "type": "uint8"
        }
      ],
      "stateMutability": "view",
      "type": "function"
    },
    {
      "inputs": [
        {
          "internalType": "uint256",
          "name": "x",
          "type": "uint256"
        }
      ],
      "name": "generalLogTest",
      "outputs": [
        {
          "internalType": "uint256",
          "name": "",
          "type": "uint256"
        }
      ],
      "stateMutability": "pure",
      "type": "function"
    },
    {
      "inputs": [
        {
          "internalType": "uint256",
          "name": "_n",
          "type": "uint256"
        }
      ],
      "name": "floorLog2Test",
      "outputs": [
        {
          "internalType": "uint8",
          "name": "",
          "type": "uint8"
        }
      ],
      "stateMutability": "pure",
      "type": "function"
    },
    {
      "inputs": [
        {
          "internalType": "uint256",
          "name": "_x",
          "type": "uint256"
        }
      ],
      "name": "findPositionInMaxExpArrayTest",
      "outputs": [
        {
          "internalType": "uint8",
          "name": "",
          "type": "uint8"
        }
      ],
      "stateMutability": "view",
      "type": "function"
    },
    {
      "inputs": [
        {
          "internalType": "uint256",
          "name": "_x",
          "type": "uint256"
        },
        {
          "internalType": "uint8",
          "name": "_precision",
          "type": "uint8"
        }
      ],
      "name": "generalExpTest",
      "outputs": [
        {
          "internalType": "uint256",
          "name": "",
          "type": "uint256"
        }
      ],
      "stateMutability": "pure",
      "type": "function"
    },
    {
      "inputs": [
        {
          "internalType": "uint256",
          "name": "x",
          "type": "uint256"
        }
      ],
      "name": "optimalLogTest",
      "outputs": [
        {
          "internalType": "uint256",
          "name": "",
          "type": "uint256"
        }
      ],
      "stateMutability": "pure",
      "type": "function"
    },
    {
      "inputs": [
        {
          "internalType": "uint256",
          "name": "x",
          "type": "uint256"
        }
      ],
      "name": "optimalExpTest",
      "outputs": [
        {
          "internalType": "uint256",
          "name": "",
          "type": "uint256"
        }
      ],
      "stateMutability": "pure",
      "type": "function"
    },
    {
      "inputs": [
        {
          "internalType": "uint256",
          "name": "_a",
          "type": "uint256"
        },
        {
          "internalType": "uint256",
          "name": "_b",
          "type": "uint256"
        }
      ],
      "name": "normalizedWeightsTest",
      "outputs": [
        {
          "internalType": "uint32",
          "name": "",
          "type": "uint32"
        },
        {
          "internalType": "uint32",
          "name": "",
          "type": "uint32"
        }
      ],
      "stateMutability": "pure",
      "type": "function"
    },
    {
      "inputs": [
        {
          "internalType": "uint256",
          "name": "_a",
          "type": "uint256"
        },
        {
          "internalType": "uint256",
          "name": "_b",
          "type": "uint256"
        }
      ],
      "name": "accurateWeightsTest",
      "outputs": [
        {
          "internalType": "uint32",
          "name": "",
          "type": "uint32"
        },
        {
          "internalType": "uint32",
          "name": "",
          "type": "uint32"
        }
      ],
      "stateMutability": "pure",
      "type": "function"
    },
    {
      "inputs": [
        {
          "internalType": "uint256",
          "name": "_n",
          "type": "uint256"
        },
        {
          "internalType": "uint256",
          "name": "_d",
          "type": "uint256"
        }
      ],
      "name": "roundDivTest",
      "outputs": [
        {
          "internalType": "uint256",
          "name": "",
          "type": "uint256"
        }
      ],
      "stateMutability": "pure",
      "type": "function"
    }
  ],
  "bytecode": "0x608060405234801561001057600080fd5b50613ee2806100206000396000f3fe608060405234801561001057600080fd5b50600436106101c45760003560e01c80638074590a116100f9578063acdee8cb11610097578063e488312111610071578063e488312114610595578063ebbb2158146105b8578063f3250fe2146105ed578063f732f1c914610358576101c4565b8063acdee8cb14610551578063ce782e081461056e578063e1c7392a1461058b576101c4565b80639d114108116100d35780639d1141081461038d578063a11aa1b4146104e9578063a25a34b11461051e578063abfd231d1461027a576101c4565b80638074590a146104255780638c5ce82a1461045a57806394491fab146104ac576101c4565b806348d73fed1161016657806365098bb31161014057806365098bb31461038d5780636cab5055146103ca57806376cf0b56146103f057806379c1b4501461038d576101c4565b806348d73fed146102105780634982d52d1461033b57806349f9b0f714610358576101c4565b806335b49af4116101a257806335b49af41461027a5780633e75c6ca146102af5780633e8a38ab146102fb57806347d0b68614610318576101c4565b80631da6bbfb146101c957806329a00e7c146102105780632f55bdb514610245575b600080fd5b6101fe600480360360808110156101df57600080fd5b5080359060208101359063ffffffff6040820135169060600135610622565b60408051918252519081900360200190f35b6101fe6004803603608081101561022657600080fd5b5080359060208101359063ffffffff604082013516906060013561063b565b6101fe6004803603608081101561025b57600080fd5b5080359060208101359063ffffffff6040820135169060600135610649565b6101fe6004803603608081101561029057600080fd5b5080359060208101359063ffffffff60408201351690606001356107c1565b6102d2600480360360408110156102c557600080fd5b50803590602001356107cf565b604051808363ffffffff1681526020018263ffffffff1681526020019250505060405180910390f35b6101fe6004803603602081101561031157600080fd5b50356107e8565b6101fe6004803603604081101561032e57600080fd5b50803590602001356107fb565b6101fe6004803603602081101561035157600080fd5b5035610810565b6101fe6004803603608081101561036e57600080fd5b5080359060208101359063ffffffff604082013516906060013561081b565b6101fe600480360360a08110156103a357600080fd5b5080359063ffffffff60208201358116916040810135916060820135169060800135610829565b6101fe600480360360408110156103e057600080fd5b508035906020013560ff16610844565b6101fe6004803603608081101561040657600080fd5b5080359060208101359063ffffffff6040820135169060600135610850565b6101fe6004803603608081101561043b57600080fd5b5080359060208101359063ffffffff6040820135169060600135610a16565b6104916004803603608081101561047057600080fd5b5080359060208101359063ffffffff60408201358116916060013516610b92565b6040805192835260ff90911660208301528051918290030190f35b6101fe600480360360a08110156104c257600080fd5b5080359063ffffffff60208201358116916040810135916060820135169060800135610baf565b6102d2600480360360a08110156104ff57600080fd5b5080359060208101359060408101359060608101359060800135610d1b565b61053b6004803603602081101561053457600080fd5b5035610ea3565b6040805160ff9092168252519081900360200190f35b6101fe6004803603602081101561056757600080fd5b5035610eae565b61053b6004803603602081101561058457600080fd5b5035610eb9565b610593610ec4565b005b6102d2600480360360408110156105ab57600080fd5b5080359060200135610ed6565b6101fe600480360360808110156105ce57600080fd5b5080359060208101359063ffffffff6040820135169060600135610ee3565b6101fe6004803603608081101561060357600080fd5b5080359060208101359063ffffffff6040820135169060600135611068565b600061063085858585610ee3565b90505b949350505050565b600061063085858585611068565b6000808511610694576040805162461bcd60e51b81526020600482015260126024820152714552525f494e56414c49445f535550504c5960701b604482015290519081900360640190fd5b600084116106d7576040805162461bcd60e51b815260206004820152601b6024820152600080516020613e8d833981519152604482015290519081900360640190fd5b60018363ffffffff161180156106f65750621e848063ffffffff841611155b610743576040805162461bcd60e51b81526020600482015260196024820152784552525f494e56414c49445f524553455256455f524154494f60381b604482015290519081900360640190fd5b8161075057506000610633565b63ffffffff8316620f4240141561077b578361076c838761119a565b8161077357fe5b049050610633565b6000808061078987866111f3565b905061079a818888620f424061124d565b9093509150600060ff83166107af8a8661119a565b901c9890980398975050505050505050565b600061063085858585610a16565b6000806107dc8484611316565b915091505b9250929050565b60006107f38261134c565b90505b919050565b6000610807838361172e565b90505b92915050565b60006107f38261175a565b600061063085858585610850565b60006108388686868686610baf565b90505b95945050505050565b60006108078383611805565b600080851161089b576040805162461bcd60e51b81526020600482015260126024820152714552525f494e56414c49445f535550504c5960701b604482015290519081900360640190fd5b600084116108de576040805162461bcd60e51b815260206004820152601b6024820152600080516020613e8d833981519152604482015290519081900360640190fd5b60008363ffffffff161180156108fd5750620f424063ffffffff841611155b61094b576040805162461bcd60e51b815260206004820152601a60248201527911549497d253959053125117d49154d154959157d5d15251d21560321b604482015290519081900360640190fd5b84821115610995576040805162461bcd60e51b815260206004820152601260248201527111549497d253959053125117d05353d5539560721b604482015290519081900360640190fd5b816109a257506000610633565b848214156109b1575082610633565b63ffffffff8316620f424014156109cd578461076c858461119a565b6000808387036109e28882620f42408961124d565b909350915060006109f3888561119a565b905060ff831688901b8481830381610a0757fe5b049a9950505050505050505050565b6000808511610a61576040805162461bcd60e51b81526020600482015260126024820152714552525f494e56414c49445f535550504c5960701b604482015290519081900360640190fd5b60008411610aa4576040805162461bcd60e51b815260206004820152601b6024820152600080516020613e8d833981519152604482015290519081900360640190fd5b60018363ffffffff16118015610ac35750621e848063ffffffff841611155b610b10576040805162461bcd60e51b81526020600482015260196024820152784552525f494e56414c49445f524553455256455f524154494f60381b604482015290519081900360640190fd5b84821115610b5a576040805162461bcd60e51b815260206004820152601260248201527111549497d253959053125117d05353d5539560721b604482015290519081900360640190fd5b81610b6757506000610633565b84821415610b76575082610633565b63ffffffff8316620f424014156109cd578461076c838661119a565b600080610ba18686868661124d565b915091505b94509492505050565b60008086118015610bc05750600084115b610bff576040805162461bcd60e51b815260206004820152601b6024820152600080516020613e8d833981519152604482015290519081900360640190fd5b60008563ffffffff16118015610c1e5750620f424063ffffffff861611155b8015610c30575060008363ffffffff16115b8015610c455750620f424063ffffffff841611155b610c93576040805162461bcd60e51b815260206004820152601a60248201527911549497d253959053125117d49154d154959157d5d15251d21560321b604482015290519081900360640190fd5b8263ffffffff168563ffffffff161415610cca57610cb186836111f3565b610cbb858461119a565b81610cc257fe5b04905061083b565b60008080610cd889866111f3565b9050610ce6818a8a8961124d565b90935091506000610cf7888561119a565b905060ff831688901b8481830381610d0b57fe5b049b9a5050505050505050505050565b60008085871415610d79576000871180610d355750600085115b610d74576040805162461bcd60e51b815260206004820152601b6024820152600080516020613e8d833981519152604482015290519081900360640190fd5b610dd4565b600087118015610d895750600086115b8015610d955750600085115b610dd4576040805162461bcd60e51b815260206004820152601b6024820152600080516020613e8d833981519152604482015290519081900360640190fd5b600084118015610de45750600083115b610e35576040805162461bcd60e51b815260206004820152601860248201527f4552525f494e56414c49445f524553455256455f524154450000000000000000604482015290519081900360640190fd5b6000610e41888661119a565b90506000610e4f878661119a565b905087891015610e7257610e67888a84846001611b9f565b935093505050610e99565b87891115610e8857610e67898984846000611b9f565b610e928282611316565b9350935050505b9550959350505050565b60006107f382611c68565b60006107f382611cf8565b60006107f38261209c565b610ecc6120fd565b610ed46128d3565b565b6000806107dc84846132da565b6000808511610f2e576040805162461bcd60e51b81526020600482015260126024820152714552525f494e56414c49445f535550504c5960701b604482015290519081900360640190fd5b60008411610f71576040805162461bcd60e51b815260206004820152601b6024820152600080516020613e8d833981519152604482015290519081900360640190fd5b60018363ffffffff16118015610f905750621e848063ffffffff841611155b610fdd576040805162461bcd60e51b81526020600482015260196024820152784552525f494e56414c49445f524553455256455f524154494f60381b604482015290519081900360640190fd5b81610fea57506000610633565b63ffffffff8316620f4240141561101b57846001611008848761119a565b038161101057fe5b046001019050610633565b6000808061102988866111f3565b905061103a8189620f42408961124d565b9093509150600060ff831660016110518a8761119a565b03901c889003600101945050505050949350505050565b60008085116110b3576040805162461bcd60e51b81526020600482015260126024820152714552525f494e56414c49445f535550504c5960701b604482015290519081900360640190fd5b600084116110f6576040805162461bcd60e51b815260206004820152601b6024820152600080516020613e8d833981519152604482015290519081900360640190fd5b60008363ffffffff161180156111155750620f424063ffffffff841611155b611163576040805162461bcd60e51b815260206004820152601a60248201527911549497d253959053125117d49154d154959157d5d15251d21560321b604482015290519081900360640190fd5b8161117057506000610633565b63ffffffff8316620f4240141561118c578361076c868461119a565b6000808061078985886111f3565b6000826111a95750600061080a565b828202828482816111b657fe5b04146108075760405162461bcd60e51b8152600401808060200182810382526021815260200180613e6c6021913960400191505060405180910390fd5b600082820183811015610807576040805162461bcd60e51b815260206004820152601b60248201527f536166654d6174683a206164646974696f6e206f766572666c6f770000000000604482015290519081900360640190fd5b600080600160811b861061126057600080fd5b600080866001607f1b89028161127257fe5b04905070015bf0a8b1457695355fb8ac404e7a79e381101561129e576112978161134c565b91506112aa565b6112a78161175a565b91505b60008563ffffffff168763ffffffff168402816112c357fe5b049050600160831b8110156112e9576112db81611cf8565b607f94509450505050610ba6565b60006112f482611c68565b905061130981607f0360ff1683901c82611805565b95509350610ba692505050565b6000808284116113335761132a84846132da565b915091506107e1565b60008061134085876132da565b97909650945050505050565b6000808080806fd3094c70f034de4b96ff7d5b6f99fcd88610611395576001607e1b840193506fd3094c70f034de4b96ff7d5b6f99fcd86001607f1b87028161139157fe5b0495505b6fa45af1e1f40c333b3de1db4dd55f29a786106113d8576001607d1b840193506fa45af1e1f40c333b3de1db4dd55f29a76001607f1b8702816113d457fe5b0495505b6f910b022db7ae67ce76b441c27035c6a1861061141b576001607c1b840193506f910b022db7ae67ce76b441c27035c6a16001607f1b87028161141757fe5b0495505b6f88415abbe9a76bead8d00cf112e4d4a8861061145e576001607b1b840193506f88415abbe9a76bead8d00cf112e4d4a86001607f1b87028161145a57fe5b0495505b6f84102b00893f64c705e841d5d4064bd386106114a1576001607a1b840193506f84102b00893f64c705e841d5d4064bd36001607f1b87028161149d57fe5b0495505b6f8204055aaef1c8bd5c3259f4822735a286106114e457600160791b840193506f8204055aaef1c8bd5c3259f4822735a26001607f1b8702816114e057fe5b0495505b6f810100ab00222d861931c15e39b44e99861061152757600160781b840193506f810100ab00222d861931c15e39b44e996001607f1b87028161152357fe5b0495505b6f808040155aabbbe9451521693554f733861061156a57600160771b840193506f808040155aabbbe9451521693554f7336001607f1b87028161156657fe5b0495505b6f7fffffffffffffffffffffffffffffff19860192508291506001607f1b828002049050600160801b838103830204840193506001607f1b818302816115ac57fe5b049150600160811b836faaaaaaaaaaaaaaaaaaaaaaaaaaaaaaaa038302816115d057fe5b04840193506001607f1b818302816115e457fe5b049150600360801b836f999999999999999999999999999999990383028161160857fe5b04840193506001607f1b8183028161161c57fe5b049150600160821b836f924924924924924924924924924924920383028161164057fe5b04840193506001607f1b8183028161165457fe5b049150600560801b836f8e38e38e38e38e38e38e38e38e38e38e0383028161167857fe5b04840193506001607f1b8183028161168c57fe5b049150600360811b836f8ba2e8ba2e8ba2e8ba2e8ba2e8ba2e8b038302816116b057fe5b04840193506001607f1b818302816116c457fe5b049150600760801b836f89d89d89d89d89d89d89d89d89d89d89038302816116e857fe5b04840193506001607f1b818302816116fc57fe5b049150600160831b836f888888888888888888888888888888880383028161172057fe5b049390930195945050505050565b600060028204820382848161173f57fe5b068161174757fe5b0482848161175157fe5b04019392505050565b600080600160801b831061178b57600061177a6001607f1b855b0461209c565b60ff1693841c936001607f1b029150505b6001607f1b8311156117d957607f5b60ff8116156117d7576001607f1b848002049350600160801b84106117ce57600193841c9360ff6000198301161b91909101905b6000190161179a565b505b6f05b9de1d10bf4103d647b0955897ba806f03f80fe03f80fe03f80fe03f80fe03f88202049392505050565b60008083905060008360ff16858302901c9150816f03442c4e6074a82f1797f72ac000000002810190508360ff16858302901c9150816f0116b96f757c380fb287fd0e4000000002810190508360ff16858302901c9150816e45ae5bdd5f0e03eca1ff439000000002810190508360ff16858302901c9150816e0defabf91302cd95b9ffda5000000002810190508360ff16858302901c9150816e02529ca9832b22439efff9b800000002810190508360ff16858302901c9150816d54f1cf12bd04e516b6da8800000002810190508360ff16858302901c9150816d0a9e39e257a09ca2d6db5100000002810190508360ff16858302901c9150816d012e066e7b839fa050c30900000002810190508360ff16858302901c9150816c1e33d7d926c329a1ad1a80000002810190508360ff16858302901c9150816c02bee513bdb4a6b19b5f80000002810190508360ff16858302901c9150816b3a9316fa79b88eccf2a0000002810190508360ff16858302901c9150816b048177ebe1fa81237520000002810190508360ff16858302901c9150816a5263fe90242dcbacf0000002810190508360ff16858302901c9150816a057e22099c030d9410000002810190508360ff16858302901c9150816957e22099c030d941000002810190508360ff16858302901c91508169052b6b5456997631000002810190508360ff16858302901c915081684985f67696bf74800002810190508360ff16858302901c9150816803dea12ea99e49800002810190508360ff16858302901c9150816731880f2214b6e00002810190508360ff16858302901c91508167025bcff56eb3600002810190508360ff16858302901c915081661b722e10ab100002810190508360ff16858302901c9150816601317c7007700002810190508360ff16858302901c915081650cba84aafa0002810190508360ff16858302901c9150816482573a0a0002810190508360ff16858302901c9150816405035ad90002810190508360ff16858302901c915081632f881b0002810190508360ff16858302901c9150816301b2934002810190508360ff16858302901c915081620efc4002810190508360ff16858302901c915081617fe002810190508360ff16858302901c91508161042002810190508360ff16858302901c915081602102810190508360ff16858302901c915081600102810190508360ff166001901b856f0688589cc0e9505e2f2fee55800000008381611b9357fe5b04010195945050505050565b600080611bac858561336c565b9095509350600086611bc2896001607f1b61119a565b81611bc957fe5b049050600070015bf0a8b1457695355fb8ac404e7a79e38210611bf457611bef8261175a565b611bfd565b611bfd8261134c565b9050600086611c0c838a61119a565b81611c1357fe5b049050600086611c2b57611c268261341f565b611c34565b611c348261345c565b9050611c56611c43828b61119a565b611c518a6001607f1b61119a565b611316565b95509550505050509550959350505050565b60006020607f5b8060ff168260010160ff161015611cb7576000600260ff848401160490508460008260ff1660808110611c9e57fe5b015410611cad57809250611cb1565b8091505b50611c6f565b8360008260ff1660808110611cc857fe5b015410611cd85791506107f69050565b8360008360ff1660808110611ce957fe5b0154106101c4575090506107f6565b6000670168244fdac780006001607f1b6f0fffffffffffffffffffffffffffffff84168080028290048082028390048083028490049485026710e1b3be415a00009092026705a0913f6b1e000091909102010192909181830204905080664807432bc1800002830192506001607f1b82820281611d7157fe5b04905080660c0135dca0400002830192506001607f1b82820281611d9157fe5b049050806601b707b1cdc00002830192506001607f1b82820281611db157fe5b049050806536e0f639b80002830192506001607f1b82820281611dd057fe5b04905080650618fee9f80002830192506001607f1b82820281611def57fe5b04905080649c197dcc0002830192506001607f1b82820281611e0d57fe5b04905080640e30dce40002830192506001607f1b82820281611e2b57fe5b0490508064012ebd130002830192506001607f1b82820281611e4957fe5b049050806317499f0002830192506001607f1b82820281611e6657fe5b049050806301a9d48002830192506001607f1b82820281611e8357fe5b04905080621c638002830192506001607f1b82820281611e9f57fe5b049050806201c63802830192506001607f1b82820281611ebb57fe5b04905080611ab802830192506001607f1b82820281611ed657fe5b0490508061017c02830192506001607f1b82820281611ef157fe5b04905080601402830192506001607f1b82820281611f0b57fe5b6721c3677c82b400009190049384010482016001607f1b019290506001607c1b851615611f5c5770018ebef9eac820ae8682b9793ac6d1e7767001c3d6a24ed82218787d624d3e5eba95f984020492505b6001607d1b851615611f92577001368b2fc6f9609fe7aceb46aa619baed470018ebef9eac820ae8682b9793ac6d1e77884020492505b6001607e1b851615611fc7576fbc5ab1b16779be3575bd8f0520a9f21f7001368b2fc6f9609fe7aceb46aa619baed584020492505b6001607f1b851615611ffb576f454aaa8efe072e7f6ddbab84b40a55c96fbc5ab1b16779be3575bd8f0520a9f21e84020492505b600160801b85161561202f576f0960aadc109e7a3bf4578099615711ea6f454aaa8efe072e7f6ddbab84b40a55c584020492505b600160811b851615612062576e2bf84208204f5977f9a8cf01fdce3d6f0960aadc109e7a3bf4578099615711d784020492505b600160821b851615612093576d03c6ab775dd0b95b4cbee7e65d116e2bf84208204f5977f9a8cf01fdc30784020492505b50909392505050565b6000806101008310156120c4575b60018311156120bf57600192831c92016120aa565b6107f3565b60805b60ff8116156120f657600160ff82161b84106120eb5760ff81169390931c92908117905b60011c607f166120c7565b5092915050565b701c35fedd14ffffffffffffffffffffffff602055701b0ce43b323fffffffffffffffffffffff6021557019f0028ec1ffffffffffffffffffffffff6022557018ded91f0e7fffffffffffffffffffffff6023557017d8ec7f0417ffffffffffffffffffffff6024557016ddc6556cdbffffffffffffffffffffff6025557015ecf52776a1ffffffffffffffffffffff6026557015060c256cb2ffffffffffffffffffffff602755701428a2f98d72ffffffffffffffffffffff6028557013545598e5c23fffffffffffffffffffff602955701288c4161ce1dfffffffffffffffffffff602a557011c592761c666fffffffffffffffffffff602b5570110a688680a757ffffffffffffffffffff602c55701056f1b5bedf77ffffffffffffffffffff602d55700faadceceeff8bffffffffffffffffffff602e55700f05dc6b27edadffffffffffffffffffff602f55700e67a5a25da4107fffffffffffffffffff603055700dcff115b14eedffffffffffffffffffff603155700d3e7a392431239fffffffffffffffffff603255700cb2ff529eb71e4fffffffffffffffffff603355700c2d415c3db974afffffffffffffffffff603455700bad03e7d883f69bffffffffffffffffff603555700b320d03b2c343d5ffffffffffffffffff603655700abc25204e02828dffffffffffffffffff603755700a4b16f74ee4bb207fffffffffffffffff6038557009deaf736ac1f569ffffffffffffffffff603955700976bd9952c7aa957fffffffffffffffff603a557009131271922eaa606fffffffffffffffff603b557008b380f3558668c46fffffffffffffffff603c55700857ddf0117efa215bffffffffffffffff603d557007ffffffffffffffffffffffffffffffff603e557007abbf6f6abb9d087fffffffffffffffff603f5570075af62cbac95f7dfa7fffffffffffffff60405570070d7fb7452e187ac13fffffffffffffff6041557006c3390ecc8af379295fffffffffffffff60425570067c00a3b07ffc01fd6fffffffffffffff604355700637b647c39cbb9d3d27ffffffffffffff6044557005f63b1fc104dbd39587ffffffffffffff6045557005b771955b36e12f7235ffffffffffffff60465570057b3d49dda84556d6f6ffffffffffffff60475570054183095b2c8ececf30ffffffffffffff60485570050a28be635ca2b888f77fffffffffffff6049557004d5156639708c9db33c3fffffffffffff604a557004a23105873875bd52dfdfffffffffffff604b55700471649d87199aa990756fffffffffffff604c557004429a21a029d4c1457cfbffffffffffff604d55700415bc6d6fb7dd71af2cb3ffffffffffff604e557003eab73b3bbfe282243ce1ffffffffffff604f557003c1771ac9fb6b4c18e229ffffffffffff605055700399e96897690418f785257fffffffffff605155700373fc456c53bb779bf0ea9fffffffffff60525570034f9e8e490c48e67e6ab8bfffffffffff60535570032cbfd4a7adc790560b3337ffffffffff60545570030b50570f6e5d2acca94613ffffffffff6055557002eb40f9f620fda6b56c2861ffffffffff6056557002cc8340ecb0d0f520a6af58ffffffffff6057557002af09481380a0a35cf1ba02ffffffffff605855700292c5bdd3b92ec810287b1b3fffffffff605955700277abdcdab07d5a77ac6d6b9fffffffff605a5570025daf6654b1eaa55fd64df5efffffffff605b55700244c49c648baa98192dce88b7ffffffff605c5570022ce03cd5619a311b2471268bffffffff605d55700215f77c045fbe885654a44a0fffffffff605e557001ffffffffffffffffffffffffffffffff605f557001eaefdbdaaee7421fc4d3ede5ffffffff6060557001d6bd8b2eb257df7e8ca57b09bfffffff6061557001c35fedd14b861eb0443f7f133fffffff6062557001b0ce43b322bcde4a56e8ada5afffffff60635570019f0028ec1fff007f5a195a39dfffffff60645570018ded91f0e72ee74f49b15ba527ffffff60655570017d8ec7f04136f4e5615fd41a63ffffff60665570016ddc6556cdb84bdc8d12d22e6fffffff60675570015ecf52776a1155b5bd8395814f7fffff60685570015060c256cb23b3b3cc3754cf40ffffff6069557001428a2f98d728ae223ddab715be3fffff606a5570013545598e5c23276ccf0ede68034fffff606b557001288c4161ce1d6f54b7f61081194fffff606c5570011c592761c666aa641d5a01a40f17ffff606d55700110a688680a7530515f3e6e6cfdcdffff606e557001056f1b5bedf75c6bcb2ce8aed428ffff606f556ffaadceceeff8a0890f3875f008277fff6070556ff05dc6b27edad306388a600f6ba0bfff6071556fe67a5a25da41063de1495d5b18cdbfff6072556fdcff115b14eedde6fc3aa5353f2e4fff6073556fd3e7a3924312399f9aae2e0f868f8fff6074556fcb2ff529eb71e41582cccd5a1ee26fff6075556fc2d415c3db974ab32a51840c0b67edff6076556fbad03e7d883f69ad5b0a186184e06bff6077556fb320d03b2c343d4829abd6075f0cc5ff6078556fabc25204e02828d73c6e80bcdb1a95bf6079556fa4b16f74ee4bb2040a1ec6c15fbbf2df607a556f9deaf736ac1f569deb1b5ae3f36c130f607b556f976bd9952c7aa957f5937d790ef65037607c556f9131271922eaa6064b73a22d0bd4f2bf607d556f8b380f3558668c46c91c49a2f8e967b9607e556f857ddf0117efa215952912839f6473e66000607f5b0155565b6f60e393c68d20b1bd09deaabc0373b9c560809081556f5f8f46e4854120989ed94719fb4c20116081556f5e479ebb9129fb1b7e72a648f992b6066082556f5d0bd23fe42dfedde2e9586be12b85fe6083556f5bdb29ddee979308ddfca81aeeb8095a6084556f5ab4fd8a260d2c7e2c0d2afcf0009dad6085556f5998b31359a55d48724c65cf090012216086556f5885bcad2b322dfc43e8860f9c018cf56087556f577b97aa1fe222bb452fdf111b1f0be26088556f5679cb5e3575632e5baa27e2b949f7046089556f557fe8241b3a31c83c732f1cdff4a1c5608a556f548d868026504875d6e59bbe95fc2a6b608b556f53a2465ce347cf34d05a867c17dd3088608c556f52bdce5dcd4faed59c7f5511cf8f8acc608d556f51dfcb453c07f8da817606e7885f7c3e608e556f5107ef6b0a5a2be8f8ff15590daa3cce608f556f5035f241d6eae0cd7bacba119993de7b6090556f4f698fe90d5b53d532171e1210164c666091556f4ea288ca297a0e6a09a0eee240e16c856092556f4de0a13fdcf5d4213fc398ba6e3becde6093556f4d23a145eef91fec06b06140804c48086094556f4c6b5430d4c1ee5526473db4ae0f11de6095556f4bb7886c240562eba11f4963a53b42406096556f4b080f3f1cb491d2d521e0ea4583521e6097556f4a5cbc96a05589cb4d86be1db31683646098556f49b566d40243517658d78c33162d6ece6099556f4911e6a02e5507a30f947383fd9a3276609a556f487216c2b31be4adc41db8a8d5cc0c88609b556f47d5d3fc4a7a1b188cd3d788b5c5e9fc609c556f473cfce4871a2c40bc4f9e1c32b955d0609d556f46a771ca578ab878485810e285e31c67609e556f4615149718aed4c258c373dc676aa72d609f556f4585c8b3f8fe489c6e1833ca4787138460a0556f44f972f174e41e5efb7e9d63c29ce73560a1556f446ff970ba86d8b00beb05ecebf3c4dc60a2556f43e9438ec88971812d6f198b5ccaad9660a3556f436539d11ff7bea657aeddb394e809ef60a4556f42e3c5d3e5a913401d86f66db5d81c2c60a5556f4264d2395303070ea726cbe98df6217460a6556f41e84a9a593bb7194c3a6349ecae4eea60a7556f416e1b785d13eba07a08f3f18876a5ab60a8556f40f6322ff389d423ba9dd7e7e7b7e80960a9556f40807cec8a466880ecf4184545d240a460aa556f400cea9ce88a8d3ae668e8ea0d9bf07f60ab556f3f9b6ae8772d4c55091e0ed7dfea0ac160ac556f3f2bee253fd84594f54bcaafac383a1360ad556f3ebe654e95208bb9210c575c081c595860ae556f3e52c1fc5665635b78ce1f05ad53c08660af556f3de8f65ac388101ddf718a6f5c1eff6560b0556f3d80f522d59bd0b328ca012df4cd2d4960b1556f3d1ab193129ea72b23648a161163a85a60b2556f3cb61f68d32576c135b95cfb53f76d7560b3556f3c5332d9f1aae851a3619e77e4cc847360b4556f3bf1e08edbe2aa109e1525f65759ef7360b5556f3b921d9cff13fa2c197746a3dfc4918f60b6556f3b33df818910bfc1a5aefb8f63ae2ac460b7556f3ad71c1c77e34fa32a9f184967eccbf660b8556f3a7bc9abf2c5bb53e2f7384a8a16521a60b9556f3a21dec7e76369783a68a0c6385a1c5760ba556f39c9525de6c9cdf7c1c157ca4a7a6ee360bb556f39721bad3dc85d1240ff0190e0adaac360bc556f391c324344d3248f0469eb28dd3d77e060bd556f38c78df7e3c796279fb4ff84394ab3da60be556f387426ea4638ae9aae08049d3554c20a60bf556f3821f57dbd2763256c1a99bbd205137860c0556f37d0f256cb46a8c92ff62fbbef28969860c1556f37811658591ffc7abdd1feaf3cef9b7360c2556f37325aa10e9e82f7df0f380f7997154b60c3556f36e4b888cfb408d873b9a80d439311c660c4556f3698299e59f4bb9de645fc9b08c64cca60c5556f364ca7a5012cb603023b57dd3ebfd50d60c6556f36022c928915b778ab1b06aaee7e61d460c7556f35b8b28d1a73dc27500ffe35559cc02860c8556f357033e951fe250ec5eb4e60955132d760c9556f3528ab2867934e3a21b5412e4c4f888160ca556f34e212f66c55057f9676c80094a61d5960cb556f349c66289e5b3c4b540c24f42fa4b9bb60cc556f34579fbbd0c733a9c8d6af6b0f7d00f760cd556f3413bad2e712288b924b5882b5b369bf60ce556f33d0b2b56286510ef730e213f71f12e960cf556f338e82ce00e2496262c64457535ba1a160d0556f334d26a96b373bb7c2f8ea1827f27a9260d1556f330c99f4f4211469e00b3e18c31475ea60d2556f32ccd87d6486094999c7d5e6f33237d860d3556f328dde2dd617b6665a2e8556f250c1af60d4556f324fa70e9adc270f8262755af5a99af960d5556f32122f443110611ca51040f41fa6e1e360d6556f31d5730e42c0831482f0f1485c4263d860d7556f31996ec6b07b4a83421b5ebc4ab4e1f160d8556f315e1ee0a68ff46bb43ec2b85032e87660d9556f31237fe7bc4deacf6775b9efa1a145f860da556f30e98e7f1cc5a356e44627a6972ea2ff60db556f30b04760b8917ec74205a3002650ec0560dc556f3077a75c803468e9132ce0cf3224241d60dd556f303fab57a6a275c36f19cda9bace667a60de556f3008504beb8dcbd2cf3bc1f6d5a064f060df556f2fd19346ed17dac61219ce0c2c5ac4b060e0556f2f9b7169808c324b5852fd3d54ba971460e1556f2f65e7e711cf4b064eea9c08cbdad57460e2556f2f30f405093042ddff8a251b6bf6d10360e3556f2efc931a3750f2e8bfe323edfe03757460e4556f2ec8c28e46dbe56d98685278339400cb60e5556f2e957fd933c3926d8a599b602379b85160e6556f2e62c882c7c9ed4473412702f08ba0e560e7556f2e309a221c12ba361e3ed695167feee260e8556f2dfef25d1f865ae18dd07cfea4bcea1060e9556f2dcdcee821cdc80decc02c44344aeb3160ea556f2d9d2d8562b34944d0b201bb87260c8360eb556f2d6d0c04a5b62a2c42636308669b729a60ec556f2d3d6842c9a235517fc5a0332691528f60ed556f2d0e402963fe1ea2834abc408c437c1060ee556f2cdf91ae602647908aff975e4d6a2a8c60ef556f2cb15ad3a1eb65f6d74a75da09a1b6c560f0556f2c8399a6ab8e9774d6fcff373d21072760f1556f2c564c4046f64edba6883ca06bbc453560f2556f2c2970c431f952641e05cb493e23eed360f3556f2bfd0560cd9eb14563bc7c0732856c1860f4556f2bd1084ed0332f7ff4150f9d0ef41a2c60f5556f2ba577d0fa1628b76d040b12a82492fb60f6556f2b7a5233cd21581e855e89dc2f1e8a9260f7556f2b4f95cd46904d05d72bdcde337d9cc760f8556f2b2540fc9b4d9abba3faca669191467560f9556f2afb5229f68d0830d8be8adb0a0db70f60fa556f2ad1c7c63a9b294c5bc73a3ba3ab7a2b60fb556f2aa8a04ac3cbe1ee1c9c86361465dbb860fc556f2a7fda392d725a44a2c8aeb9ab35430d60fd556f2a57741b18cde618717792b4faa216db60fe556f2a2f6c81f5d84dd950a35626d6d5503a90607f6128cf565b6000807d10c6f7a0b5ed8d36b4c7f34938583621fafc8b0079a2834d26fa3fcc9ea98411156133415760017d10c6f7a0b5ed8d36b4c7f34938583621fafc8b0079a2834d26fa3fcc9eaa85040180858161333057fe5b04945080848161333c57fe5b049350505b600061335b620f4240860261335687876111f3565b61172e565b95620f424087900395509350505050565b600080600160801b84111580156133875750600160801b8311155b156133965750829050816107e1565b600160801b8410156133c05782600160801b8502816133b157fe5b04600160801b915091506107e1565b600160801b8310156133ea57600160801b84600160801b8502816133e057fe5b04915091506107e1565b60008385116133f957836133fb565b845b9050600061340d6001607f1b83611774565b60ff1695861c969490951c9450505050565b60006f2f16ac6c59de6f8d5d6f63c1482a7c86821161344857613441826134c0565b90506107f6565b81600160fe1b8161345557fe5b0492915050565b60006f2f16ac6c59de6f8d5d6f63c1482a7c86821161347e5761344182613902565b7001af16ac6c59de6f8d5d6f63c1482a7c80821161349f5761344182613d62565b706b22d43e72c326539cceeef8bb48f255ff82116101c45761344182613de2565b600081816001607f1b82800204915070014d29a73a6e7b02c3668c7b08800000008202016001607f1b8483020491507002504a0cd9a7f7215b60f9be48000000008202016001607f1b848302049150700484d0a1191c0ead267967c7a4a00000008202016001607f1b84830204915070095ec580d7e8427a4baf26a90a000000008202016001607f1b848302049150701440b0be1615a47dba6e5b3b1f100000008202016001607f1b848302049150702d207601f46a99b41124184000000000008202016001607f1b8483020491507066ebaac4c37c622dd8288a7eb1b20000008202016001607f1b84830204915070ef17240135f7dbd43a1ba10cf2000000008202016001607f1b848302049150710233c33c676a5eb2416094a87b36570000008202016001607f1b848302049150710541cde48bc0254bed49a9f87000000000008202016001607f1b848302049150710cae1fad2cdd4d4cb8d73abca0d19a4000008202016001607f1b848302049150711edb2aa2f760d15c41ceedba9564000000008202016001607f1b848302049150714ba8d20d2dabd386c9529659841a2e2000008202016001607f1b8483020491506805d6042a35c33e6d51604d1b8202016001607f1b8483020491507201cfa8e70c03625b9db76c8ebf5bbf248200008202016001607f1b8483020491507204851d99f82060df265f3309b26f82000000008202016001607f1b848302049150720b550d19b129d270c44f6f55f027723cbb00008202016001607f1b848302049150721c877dadc761dc272deb65d4b00000000000008202016001607f1b8483020491507248178ece97479f33a77f2ad22a81b64406c0008202016001607f1b84830204915072b6ca8268b9d810fedf6695ef2f8a6c000000008202016001607f1b8483020491507301d0e76631a5b05d007b8cb72a7c7f11ec36e0008202016001607f1b84830204915069094386f7b3f0bfb38d8f604f1b8202016001607f1b848302049150730bd8369f1b702bf491e2ebfcee08250313b654008202016001607f1b848302049150731e5c7c32a9f6c70ab2cb59d9225764d4000000008202016001607f1b848302049150734dff5820e165e910f95120a708e742496221e6008202016001607f1b8483020491506c064647b36d8fe769bc7728729b603d1b8202016001607f1b848302049150740205db8dffff45bfa2938f128f599dbf16eb11d8808202016001607f1b84830204915074053a044ebd984351493e1786af38d39a08000000008202016001607f1b848302049150740d86dae2a4cc0f47633a544479735869b487b59c408202016001607f1b848302049150610231609c1b8202016001607f1b848302049150745b0485a76f6646c2039db1507cdd51b086496808228202016001607f1b84830204915074ec983c46c49545bc17efa6b5b0055e2422000000008202016001607f1b846fde1bc4d19efcac82445da75b0000000083040101949350505050565b6000816001607f1b8181036fde1bc4d19efcac82445da75b00000000029082800204915070014d29a73a6e7b02c3668c7b08800000008202016001607f1b8483020491507002504a0cd9a7f7215b60f9be4800000000820290036001607f1b848302049150700484d0a1191c0ead267967c7a4a00000008202016001607f1b84830204915070095ec580d7e8427a4baf26a90a00000000820290036001607f1b848302049150701440b0be1615a47dba6e5b3b1f100000008202016001607f1b848302049150702d207601f46a99b4112418400000000000820290036001607f1b8483020491507066ebaac4c37c622dd8288a7eb1b20000008202016001607f1b84830204915070ef17240135f7dbd43a1ba10cf200000000820290036001607f1b848302049150710233c33c676a5eb2416094a87b36570000008202016001607f1b848302049150710541cde48bc0254bed49a9f8700000000000820290036001607f1b848302049150710cae1fad2cdd4d4cb8d73abca0d19a4000008202016001607f1b848302049150711edb2aa2f760d15c41ceedba956400000000820290036001607f1b848302049150714ba8d20d2dabd386c9529659841a2e2000008202016001607f1b8483020491506805d6042a35c33e6d51604d1b820290036001607f1b8483020491507201cfa8e70c03625b9db76c8ebf5bbf248200008202016001607f1b8483020491507204851d99f82060df265f3309b26f8200000000820290036001607f1b848302049150720b550d19b129d270c44f6f55f027723cbb00008202016001607f1b848302049150721c877dadc761dc272deb65d4b0000000000000820290036001607f1b8483020491507248178ece97479f33a77f2ad22a81b64406c0008202016001607f1b84830204915072b6ca8268b9d810fedf6695ef2f8a6c00000000820290036001607f1b8483020491507301d0e76631a5b05d007b8cb72a7c7f11ec36e0008202016001607f1b84830204915069094386f7b3f0bfb38d8f604f1b820290036001607f1b848302049150730bd8369f1b702bf491e2ebfcee08250313b654008202016001607f1b848302049150731e5c7c32a9f6c70ab2cb59d9225764d400000000820290036001607f1b848302049150734dff5820e165e910f95120a708e742496221e6008202016001607f1b8483020491506c064647b36d8fe769bc7728729b603d1b820290036001607f1b848302049150740205db8dffff45bfa2938f128f599dbf16eb11d8808202016001607f1b84830204915074053a044ebd984351493e1786af38d39a0800000000820290036001607f1b848302049150740d86dae2a4cc0f47633a544479735869b487b59c408202016001607f1b848302049150610231609c1b820290036001607f1b848302049150745b0485a76f6646c2039db1507cdd51b086496808228202016001607f1b84830204915074ec983c46c49545bc17efa6b5b0055e242200000000820290036fde1bc4d19efcac82445da75b00000000815b04949350505050565b60006f2f16ac6c59de6f8d5d6f63c1482a7c861982016f03060c183060c183060c183060c183068082049081810290600183010284608084818110613da357fe5b01549050600060808560010160808110613db957fe5b01546f03060c183060c183060c183060c183069487030295909203029390930104949350505050565b60008070015bf0a8b1457695355fb8ac404e7a79e38310613e0b57613e068361175a565b613e14565b613e148361134c565b9050600070015bf0a8b1457695355fb8ac404e7a79e38210613e3e57613e398261175a565b613e47565b613e478261134c565b9050836001607f1b836001607f1b840281613e5e57fe5b04838503010281613d5957fefe536166654d6174683a206d756c7469706c69636174696f6e206f766572666c6f774552525f494e56414c49445f524553455256455f42414c414e43450000000000a2646970667358221220a982f8d88e364ba325479997d96703c847efc3bf20d2763374e2668275eebb9b64736f6c634300060c0033",
  "immutableReferences": {},
  "source": "// SPDX-License-Identifier: SEE LICENSE IN LICENSE\npragma solidity 0.6.12;\nimport \"../converter/BancorFormula.sol\";\n\n/*\n    BancorFormula test helper that exposes some BancorFormula functions\n*/\ncontract TestBancorFormula is BancorFormula {\n    function powerTest(\n        uint256 _baseN,\n        uint256 _baseD,\n        uint32 _expN,\n        uint32 _expD\n    ) external view returns (uint256, uint8) {\n        return super.power(_baseN, _baseD, _expN, _expD);\n    }\n\n    function generalLogTest(uint256 x) external pure returns (uint256) {\n        return super.generalLog(x);\n    }\n\n    function floorLog2Test(uint256 _n) external pure returns (uint8) {\n        return super.floorLog2(_n);\n    }\n\n    function findPositionInMaxExpArrayTest(uint256 _x) external view returns (uint8) {\n        return super.findPositionInMaxExpArray(_x);\n    }\n\n    function generalExpTest(uint256 _x, uint8 _precision) external pure returns (uint256) {\n        return super.generalExp(_x, _precision);\n    }\n\n    function optimalLogTest(uint256 x) external pure returns (uint256) {\n        return super.optimalLog(x);\n    }\n\n    function optimalExpTest(uint256 x) external pure returns (uint256) {\n        return super.optimalExp(x);\n    }\n\n    function normalizedWeightsTest(uint256 _a, uint256 _b) external pure returns (uint32, uint32) {\n        return super.normalizedWeights(_a, _b);\n    }\n\n    function accurateWeightsTest(uint256 _a, uint256 _b) external pure returns (uint32, uint32) {\n        return super.accurateWeights(_a, _b);\n    }\n\n    function roundDivTest(uint256 _n, uint256 _d) external pure returns (uint256) {\n        return super.roundDiv(_n, _d);\n    }\n}\n",
  "sourcePath": "/Users/dennismacpro/Projects/Defi/Ethereum-Solidity-Collection/icarus-protocol/defi-seeder/.tmp/bancor/contracts-solidity/solidity/contracts/helpers/TestBancorFormula.sol",
  "compiler": {
    "name": "solc",
    "version": "0.6.12+commit.27d51765.Emscripten.clang"
  },
  "schemaVersion": "3.3.3",
  "updatedAt": "2021-04-01T18:17:52.031Z",
  "devdoc": {
    "kind": "dev",
    "methods": {
      "balancedWeights(uint256,uint256,uint256,uint256,uint256)": {
        "details": "The arbitrage incentive is to convert to the point where the on-chain price is equal to the off-chain price. We want this operation to also impact the primary reserve balance becoming equal to the primary reserve staked balance. In other words, we want the arbitrager to convert the difference between the reserve balance and the reserve staked balance. Formula input: - let t denote the primary reserve token staked balance - let s denote the primary reserve token balance - let r denote the secondary reserve token balance - let q denote the numerator of the rate between the tokens - let p denote the denominator of the rate between the tokens Where p primary tokens are equal to q secondary tokens Formula output: - compute x = W(t / r * q / p * log(s / t)) / log(s / t) - return x / (1 + x) as the weight of the primary reserve token - return 1 / (1 + x) as the weight of the secondary reserve token Where W is the Lambert W Function If the rate-provider provides the rates for a common unit, for example: - P = 2 ==> 2 primary reserve tokens = 1 ether - Q = 3 ==> 3 secondary reserve tokens = 1 ether Then you can simply use p = P and q = Q If the rate-provider provides the rates for a single unit, for example: - P = 2 ==> 1 primary reserve token = 2 ethers - Q = 3 ==> 1 secondary reserve token = 3 ethers Then you can simply use p = Q and q = P",
        "params": {
          "_primaryReserveBalance": "the primary reserve token balance",
          "_primaryReserveStakedBalance": "the primary reserve token staked balance",
          "_reserveRateDenominator": "the denominator of the rate between the tokens Note that `numerator / denominator` should represent the amount of secondary tokens equal to one primary token",
          "_reserveRateNumerator": "the numerator of the rate between the tokens",
          "_secondaryReserveBalance": "the secondary reserve token balance"
        },
        "returns": {
          "_0": "the weight of the primary reserve token and the weight of the secondary reserve token, both in ppm (0-1000000)"
        }
      },
      "calculateCrossConnectorReturn(uint256,uint32,uint256,uint32,uint256)": {
        "details": "deprecated, backward compatibility"
      },
      "calculateCrossReserveReturn(uint256,uint32,uint256,uint32,uint256)": {
        "details": "deprecated, backward compatibility"
      },
      "calculateFundCost(uint256,uint256,uint32,uint256)": {
        "details": "deprecated, backward compatibility"
      },
      "calculateLiquidateReturn(uint256,uint256,uint32,uint256)": {
        "details": "deprecated, backward compatibility"
      },
      "calculatePurchaseReturn(uint256,uint256,uint32,uint256)": {
        "details": "deprecated, backward compatibility"
      },
      "calculateSaleReturn(uint256,uint256,uint32,uint256)": {
        "details": "deprecated, backward compatibility"
      },
      "crossReserveRate(uint256,uint32,uint256,uint32,uint256)": {
        "details": "deprecated, backward compatibility"
      },
      "crossReserveTargetAmount(uint256,uint32,uint256,uint32,uint256)": {
        "details": "given two reserve balances/weights and a sell amount (in the first reserve token), calculates the target amount for a conversion from the source reserve token to the target reserve token Formula: return = _targetReserveBalance * (1 - (_sourceReserveBalance / (_sourceReserveBalance + _amount)) ^ (_sourceReserveWeight / _targetReserveWeight))",
        "params": {
          "_amount": "source reserve amount",
          "_sourceReserveBalance": "source reserve balance",
          "_sourceReserveWeight": "source reserve weight, represented in ppm (1-1000000)",
          "_targetReserveBalance": "target reserve balance",
          "_targetReserveWeight": "target reserve weight, represented in ppm (1-1000000)"
        },
        "returns": {
          "_0": "target reserve amount"
        }
      },
      "fundCost(uint256,uint256,uint32,uint256)": {
        "details": "given a pool token supply, reserve balance, reserve ratio and an amount of requested pool tokens, calculates the amount of reserve tokens required for purchasing the given amount of pool tokens Formula: return = _reserveBalance * (((_supply + _amount) / _supply) ^ (MAX_WEIGHT / _reserveRatio) - 1)",
        "params": {
          "_amount": "requested amount of pool tokens",
          "_reserveBalance": "reserve balance",
          "_reserveRatio": "reserve ratio, represented in ppm (2-2000000)",
          "_supply": "pool token supply"
        },
        "returns": {
          "_0": "reserve token amount"
        }
      },
      "fundSupplyAmount(uint256,uint256,uint32,uint256)": {
        "details": "given a pool token supply, reserve balance, reserve ratio and an amount of reserve tokens to fund with, calculates the amount of pool tokens received for purchasing with the given amount of reserve tokens Formula: return = _supply * ((_amount / _reserveBalance + 1) ^ (_reserveRatio / MAX_WEIGHT) - 1)",
        "params": {
          "_amount": "amount of reserve tokens to fund with",
          "_reserveBalance": "reserve balance",
          "_reserveRatio": "reserve ratio, represented in ppm (2-2000000)",
          "_supply": "pool token supply"
        },
        "returns": {
          "_0": "pool token amount"
        }
      },
      "init()": {
        "details": "should be executed after construction (too large for the constructor)"
      },
      "liquidateRate(uint256,uint256,uint32,uint256)": {
        "details": "deprecated, backward compatibility"
      },
      "liquidateReserveAmount(uint256,uint256,uint32,uint256)": {
        "details": "given a pool token supply, reserve balance, reserve ratio and an amount of pool tokens to liquidate, calculates the amount of reserve tokens received for selling the given amount of pool tokens Formula: return = _reserveBalance * (1 - ((_supply - _amount) / _supply) ^ (MAX_WEIGHT / _reserveRatio))",
        "params": {
          "_amount": "amount of pool tokens to liquidate",
          "_reserveBalance": "reserve balance",
          "_reserveRatio": "reserve ratio, represented in ppm (2-2000000)",
          "_supply": "pool token supply"
        },
        "returns": {
          "_0": "reserve token amount"
        }
      },
      "purchaseRate(uint256,uint256,uint32,uint256)": {
        "details": "deprecated, backward compatibility"
      },
      "purchaseTargetAmount(uint256,uint256,uint32,uint256)": {
        "details": "given a token supply, reserve balance, weight and a deposit amount (in the reserve token), calculates the target amount for a given conversion (in the main token) Formula: return = _supply * ((1 + _amount / _reserveBalance) ^ (_reserveWeight / 1000000) - 1)",
        "params": {
          "_amount": "amount of reserve tokens to get the target amount for",
          "_reserveBalance": "reserve balance",
          "_reserveWeight": "reserve weight, represented in ppm (1-1000000)",
          "_supply": "liquid token supply"
        },
        "returns": {
          "_0": "target"
        }
      },
      "saleRate(uint256,uint256,uint32,uint256)": {
        "details": "deprecated, backward compatibility"
      },
      "saleTargetAmount(uint256,uint256,uint32,uint256)": {
        "details": "given a token supply, reserve balance, weight and a sell amount (in the main token), calculates the target amount for a given conversion (in the reserve token) Formula: return = _reserveBalance * (1 - (1 - _amount / _supply) ^ (1000000 / _reserveWeight))",
        "params": {
          "_amount": "amount of liquid tokens to get the target amount for",
          "_reserveBalance": "reserve balance",
          "_reserveWeight": "reserve weight, represented in ppm (1-1000000)",
          "_supply": "liquid token supply"
        },
        "returns": {
          "_0": "reserve token amount"
        }
      }
    },
    "version": 1
  },
  "userdoc": {
    "kind": "user",
    "methods": {},
    "version": 1
  }
}