{
  "contractName": "TestMathEx",
  "abi": [
    {
      "inputs": [
        {
          "internalType": "uint256",
          "name": "_num",
          "type": "uint256"
        }
      ],
      "name": "floorSqrtTest",
      "outputs": [
        {
          "internalType": "uint256",
          "name": "",
          "type": "uint256"
        }
      ],
      "stateMutability": "pure",
      "type": "function"
    },
    {
      "inputs": [
        {
          "internalType": "uint256",
          "name": "_num",
          "type": "uint256"
        }
      ],
      "name": "ceilSqrtTest",
      "outputs": [
        {
          "internalType": "uint256",
          "name": "",
          "type": "uint256"
        }
      ],
      "stateMutability": "pure",
      "type": "function"
    },
    {
      "inputs": [
        {
          "internalType": "uint256",
          "name": "_n",
          "type": "uint256"
        },
        {
          "internalType": "uint256",
          "name": "_d",
          "type": "uint256"
        },
        {
          "internalType": "uint256",
          "name": "_max",
          "type": "uint256"
        }
      ],
      "name": "reducedRatioTest",
      "outputs": [
        {
          "internalType": "uint256",
          "name": "",
          "type": "uint256"
        },
        {
          "internalType": "uint256",
          "name": "",
          "type": "uint256"
        }
      ],
      "stateMutability": "pure",
      "type": "function"
    },
    {
      "inputs": [
        {
          "internalType": "uint256",
          "name": "_a",
          "type": "uint256"
        },
        {
          "internalType": "uint256",
          "name": "_b",
          "type": "uint256"
        },
        {
          "internalType": "uint256",
          "name": "_scale",
          "type": "uint256"
        }
      ],
      "name": "normalizedRatioTest",
      "outputs": [
        {
          "internalType": "uint256",
          "name": "",
          "type": "uint256"
        },
        {
          "internalType": "uint256",
          "name": "",
          "type": "uint256"
        }
      ],
      "stateMutability": "pure",
      "type": "function"
    },
    {
      "inputs": [
        {
          "internalType": "uint256",
          "name": "_a",
          "type": "uint256"
        },
        {
          "internalType": "uint256",
          "name": "_b",
          "type": "uint256"
        },
        {
          "internalType": "uint256",
          "name": "_scale",
          "type": "uint256"
        }
      ],
      "name": "accurateRatioTest",
      "outputs": [
        {
          "internalType": "uint256",
          "name": "",
          "type": "uint256"
        },
        {
          "internalType": "uint256",
          "name": "",
          "type": "uint256"
        }
      ],
      "stateMutability": "pure",
      "type": "function"
    },
    {
      "inputs": [
        {
          "internalType": "uint256",
          "name": "_n",
          "type": "uint256"
        },
        {
          "internalType": "uint256",
          "name": "_d",
          "type": "uint256"
        }
      ],
      "name": "roundDivTest",
      "outputs": [
        {
          "internalType": "uint256",
          "name": "",
          "type": "uint256"
        }
      ],
      "stateMutability": "pure",
      "type": "function"
    },
    {
      "inputs": [
        {
          "internalType": "uint256[]",
          "name": "_values",
          "type": "uint256[]"
        }
      ],
      "name": "geometricMeanTest",
      "outputs": [
        {
          "internalType": "uint256",
          "name": "",
          "type": "uint256"
        }
      ],
      "stateMutability": "pure",
      "type": "function"
    },
    {
      "inputs": [
        {
          "internalType": "uint256",
          "name": "_x",
          "type": "uint256"
        }
      ],
      "name": "decimalLengthTest",
      "outputs": [
        {
          "internalType": "uint256",
          "name": "",
          "type": "uint256"
        }
      ],
      "stateMutability": "pure",
      "type": "function"
    },
    {
      "inputs": [
        {
          "internalType": "uint256",
          "name": "_n",
          "type": "uint256"
        },
        {
          "internalType": "uint256",
          "name": "_d",
          "type": "uint256"
        }
      ],
      "name": "roundDivUnsafeTest",
      "outputs": [
        {
          "internalType": "uint256",
          "name": "",
          "type": "uint256"
        }
      ],
      "stateMutability": "pure",
      "type": "function"
    }
  ],
  "bytecode": "0x608060405234801561001057600080fd5b5061059d806100206000396000f3fe608060405234801561001057600080fd5b50600436106100935760003560e01c80635652faa5116100665780635652faa51461015557806371763d41146101f8578063904c433914610215578063b5c4d5a01461023e578063ed2f0d251461026157610093565b80631ad36d0a146100985780631ae14c48146100da57806347d0b6861461010957806355bc07b61461012c575b600080fd5b6100c1600480360360608110156100ae57600080fd5b508035906020810135906040013561027e565b6040805192835260208301919091528051918290030190f35b6100f7600480360360208110156100f057600080fd5b5035610299565b60408051918252519081900360200190f35b6100f76004803603604081101561011f57600080fd5b50803590602001356102aa565b6100c16004803603606081101561014257600080fd5b50803590602081013590604001356102bd565b6100f76004803603602081101561016b57600080fd5b81019060208101813564010000000081111561018657600080fd5b82018360208201111561019857600080fd5b803590602001918460208302840111640100000000831117156101ba57600080fd5b9190808060200260200160405190810160405280939291908181526020018383602002808284376000920191909152509295506102cb945050505050565b6100f76004803603602081101561020e57600080fd5b50356102d6565b6100c16004803603606081101561022b57600080fd5b50803590602081013590604001356102e1565b6100f76004803603604081101561025457600080fd5b50803590602001356102ef565b6100f76004803603602081101561027757600080fd5b50356102fb565b60008061028c858585610306565b915091505b935093915050565b60006102a48261034e565b92915050565b60006102b68383610370565b9392505050565b60008061028c85858561039c565b60006102a4826103d5565b60006102a482610427565b60008061028c858585610476565b60006102b6838361052f565b60006102a482610547565b60008084848482118061031857508481115b1561032e5761032882828761039c565b90925090505b80821461033f579092509050610291565b50600196879650945050505050565b600080825b80156103695760019190910190600a9004610353565b5092915050565b600060028204820382848161038157fe5b068161038957fe5b0482848161039357fe5b04019392505050565b6000808385116103ba576103b1858585610476565b91509150610291565b6000806103c8868887610476565b9890975095505050505050565b80516000908190815b8181101561040e576104028582815181106103f557fe5b602002602001015161034e565b909201916001016103de565b50600161041b838361052f565b03600a0a949350505050565b6000806002830460010190506000600282858161044057fe5b0483018161044a57fe5b0490505b8082111561036957809150600282858161046457fe5b0483018161046e57fe5b04905061044e565b6000806000836000198161048657fe5b049050808611156104bf57600081600101878161049f57fe5b0460010190508087816104ae57fe5b0496508086816104ba57fe5b049550505b84861461051f578584028587018781106104f05760006104df8383610370565b955050508385039250610291915050565b600288880304870382101561050e5760008694509450505050610291565b600180870394509450505050610291565b5050600290910493849350915050565b6000816002810484018161053f57fe5b049392505050565b60008061055383610427565b905082818202146102a457806001016102b656fea26469706673582212206a36ffcee31f3ded2cec1415ae4b01338a9499ce49a904b4c4ba61e5425b757a64736f6c634300060c0033",
  "immutableReferences": {},
  "source": "// SPDX-License-Identifier: SEE LICENSE IN LICENSE\npragma solidity 0.6.12;\n\nimport \"../utility/MathEx.sol\";\n\ncontract TestMathEx {\n    using MathEx for *;\n\n    function floorSqrtTest(uint256 _num) external pure returns (uint256) {\n        return MathEx.floorSqrt(_num);\n    }\n\n    function ceilSqrtTest(uint256 _num) external pure returns (uint256) {\n        return MathEx.ceilSqrt(_num);\n    }\n\n    function reducedRatioTest(\n        uint256 _n,\n        uint256 _d,\n        uint256 _max\n    ) external pure returns (uint256, uint256) {\n        return MathEx.reducedRatio(_n, _d, _max);\n    }\n\n    function normalizedRatioTest(\n        uint256 _a,\n        uint256 _b,\n        uint256 _scale\n    ) external pure returns (uint256, uint256) {\n        return MathEx.normalizedRatio(_a, _b, _scale);\n    }\n\n    function accurateRatioTest(\n        uint256 _a,\n        uint256 _b,\n        uint256 _scale\n    ) external pure returns (uint256, uint256) {\n        return MathEx.accurateRatio(_a, _b, _scale);\n    }\n\n    function roundDivTest(uint256 _n, uint256 _d) external pure returns (uint256) {\n        return MathEx.roundDiv(_n, _d);\n    }\n\n    function geometricMeanTest(uint256[] memory _values) external pure returns (uint256) {\n        return MathEx.geometricMean(_values);\n    }\n\n    function decimalLengthTest(uint256 _x) external pure returns (uint256) {\n        return MathEx.decimalLength(_x);\n    }\n\n    function roundDivUnsafeTest(uint256 _n, uint256 _d) external pure returns (uint256) {\n        return MathEx.roundDivUnsafe(_n, _d);\n    }\n}\n",
  "sourcePath": "/Users/dennismacpro/Projects/Defi/Ethereum-Solidity-Collection/icarus-protocol/defi-seeder/.tmp/bancor/contracts-solidity/solidity/contracts/helpers/TestMathEx.sol",
  "compiler": {
    "name": "solc",
    "version": "0.6.12+commit.27d51765.Emscripten.clang"
  },
  "schemaVersion": "3.3.3",
  "updatedAt": "2021-04-01T18:17:52.063Z",
  "devdoc": {
    "kind": "dev",
    "methods": {},
    "version": 1
  },
  "userdoc": {
    "kind": "user",
    "methods": {},
    "version": 1
  }
}