{
  "contractName": "TestReentrancyGuard",
  "abi": [
    {
      "inputs": [],
      "name": "calls",
      "outputs": [
        {
          "internalType": "uint256",
          "name": "",
          "type": "uint256"
        }
      ],
      "stateMutability": "view",
      "type": "function"
    },
    {
      "inputs": [],
      "name": "protectedMethod",
      "outputs": [],
      "stateMutability": "nonpayable",
      "type": "function"
    },
    {
      "inputs": [],
      "name": "unprotectedMethod",
      "outputs": [],
      "stateMutability": "nonpayable",
      "type": "function"
    }
  ],
  "bytecode": "0x6080604052600160005534801561001557600080fd5b50610176806100256000396000f3fe608060405234801561001057600080fd5b50600436106100415760003560e01c80632d4d800c14610046578063305f72b714610050578063f86485d91461006a575b600080fd5b61004e610072565b005b61005861008e565b60408051918252519081900360200190f35b61004e610094565b61007a61009e565b60026000556100876100e6565b6001600055565b60015481565b61009c6100e6565b565b60016000541461009c576040805162461bcd60e51b815260206004820152600e60248201526d4552525f5245454e5452414e435960901b604482015290519081900360640190fd5b60018054810190556040805163041d939960e11b81529051339163083b273291600480830192600092919082900301818387803b15801561012657600080fd5b505af115801561013a573d6000803e3d6000fd5b5050505056fea26469706673582212201f64bb4cbd8b15489b8c858b2e27f7474f6fc431ed753449b5fd562bb1c975aa64736f6c634300060c0033",
  "immutableReferences": {},
  "source": "// SPDX-License-Identifier: SEE LICENSE IN LICENSE\npragma solidity 0.6.12;\nimport \"../utility/ReentrancyGuard.sol\";\n\ncontract TestReentrancyGuardAttacker {\n    TestReentrancyGuard public target;\n    bool public reentrancy;\n    bool public callProtectedMethod;\n    bool public attacking;\n\n    constructor(TestReentrancyGuard _target) public {\n        target = _target;\n    }\n\n    function setReentrancy(bool _reentrancy) external {\n        reentrancy = _reentrancy;\n    }\n\n    function setCallProtectedMethod(bool _callProtectedMethod) external {\n        callProtectedMethod = _callProtectedMethod;\n    }\n\n    function run() public {\n        callProtectedMethod ? target.protectedMethod() : target.unprotectedMethod();\n    }\n\n    function callback() external {\n        if (!reentrancy) {\n            return;\n        }\n\n        if (!attacking) {\n            attacking = true;\n\n            run();\n        }\n\n        attacking = false;\n    }\n}\n\ncontract TestReentrancyGuard is ReentrancyGuard {\n    uint256 public calls;\n\n    function protectedMethod() external protected {\n        run();\n    }\n\n    function unprotectedMethod() external {\n        run();\n    }\n\n    function run() private {\n        calls++;\n\n        TestReentrancyGuardAttacker(msg.sender).callback();\n    }\n}\n",
  "sourcePath": "/Users/dennismacpro/Projects/Defi/Ethereum-Solidity-Collection/icarus-protocol/defi-seeder/.tmp/bancor/contracts-solidity/solidity/contracts/helpers/TestReentrancyGuard.sol",
  "compiler": {
    "name": "solc",
    "version": "0.6.12+commit.27d51765.Emscripten.clang"
  },
  "schemaVersion": "3.3.3",
  "updatedAt": "2021-04-01T18:17:52.064Z",
  "devdoc": {
    "kind": "dev",
    "methods": {},
    "version": 1
  },
  "userdoc": {
    "kind": "user",
    "methods": {},
    "version": 1
  }
}