{
  "contractName": "TestStandardPoolConverter",
  "abi": [
    {
      "inputs": [
        {
          "internalType": "contract IDSToken",
          "name": "_token",
          "type": "address"
        },
        {
          "internalType": "contract IContractRegistry",
          "name": "_registry",
          "type": "address"
        },
        {
          "internalType": "uint32",
          "name": "_maxConversionFee",
          "type": "uint32"
        }
      ],
      "stateMutability": "nonpayable",
      "type": "constructor"
    },
    {
      "anonymous": false,
      "inputs": [
        {
          "indexed": true,
          "internalType": "uint16",
          "name": "_type",
          "type": "uint16"
        },
        {
          "indexed": true,
          "internalType": "contract IConverterAnchor",
          "name": "_anchor",
          "type": "address"
        },
        {
          "indexed": true,
          "internalType": "bool",
          "name": "_activated",
          "type": "bool"
        }
      ],
      "name": "Activation",
      "type": "event"
    },
    {
      "anonymous": false,
      "inputs": [
        {
          "indexed": true,
          "internalType": "contract IERC20",
          "name": "_fromToken",
          "type": "address"
        },
        {
          "indexed": true,
          "internalType": "contract IERC20",
          "name": "_toToken",
          "type": "address"
        },
        {
          "indexed": true,
          "internalType": "address",
          "name": "_trader",
          "type": "address"
        },
        {
          "indexed": false,
          "internalType": "uint256",
          "name": "_amount",
          "type": "uint256"
        },
        {
          "indexed": false,
          "internalType": "uint256",
          "name": "_return",
          "type": "uint256"
        },
        {
          "indexed": false,
          "internalType": "int256",
          "name": "_conversionFee",
          "type": "int256"
        }
      ],
      "name": "Conversion",
      "type": "event"
    },
    {
      "anonymous": false,
      "inputs": [
        {
          "indexed": false,
          "internalType": "uint32",
          "name": "_prevFee",
          "type": "uint32"
        },
        {
          "indexed": false,
          "internalType": "uint32",
          "name": "_newFee",
          "type": "uint32"
        }
      ],
      "name": "ConversionFeeUpdate",
      "type": "event"
    },
    {
      "anonymous": false,
      "inputs": [
        {
          "indexed": true,
          "internalType": "address",
          "name": "_provider",
          "type": "address"
        },
        {
          "indexed": true,
          "internalType": "contract IERC20",
          "name": "_reserveToken",
          "type": "address"
        },
        {
          "indexed": false,
          "internalType": "uint256",
          "name": "_amount",
          "type": "uint256"
        },
        {
          "indexed": false,
          "internalType": "uint256",
          "name": "_newBalance",
          "type": "uint256"
        },
        {
          "indexed": false,
          "internalType": "uint256",
          "name": "_newSupply",
          "type": "uint256"
        }
      ],
      "name": "LiquidityAdded",
      "type": "event"
    },
    {
      "anonymous": false,
      "inputs": [
        {
          "indexed": true,
          "internalType": "address",
          "name": "_provider",
          "type": "address"
        },
        {
          "indexed": true,
          "internalType": "contract IERC20",
          "name": "_reserveToken",
          "type": "address"
        },
        {
          "indexed": false,
          "internalType": "uint256",
          "name": "_amount",
          "type": "uint256"
        },
        {
          "indexed": false,
          "internalType": "uint256",
          "name": "_newBalance",
          "type": "uint256"
        },
        {
          "indexed": false,
          "internalType": "uint256",
          "name": "_newSupply",
          "type": "uint256"
        }
      ],
      "name": "LiquidityRemoved",
      "type": "event"
    },
    {
      "anonymous": false,
      "inputs": [
        {
          "indexed": true,
          "internalType": "address",
          "name": "_prevOwner",
          "type": "address"
        },
        {
          "indexed": true,
          "internalType": "address",
          "name": "_newOwner",
          "type": "address"
        }
      ],
      "name": "OwnerUpdate",
      "type": "event"
    },
    {
      "anonymous": false,
      "inputs": [
        {
          "indexed": true,
          "internalType": "contract IERC20",
          "name": "_token1",
          "type": "address"
        },
        {
          "indexed": true,
          "internalType": "contract IERC20",
          "name": "_token2",
          "type": "address"
        },
        {
          "indexed": false,
          "internalType": "uint256",
          "name": "_rateN",
          "type": "uint256"
        },
        {
          "indexed": false,
          "internalType": "uint256",
          "name": "_rateD",
          "type": "uint256"
        }
      ],
      "name": "TokenRateUpdate",
      "type": "event"
    },
    {
      "inputs": [],
      "name": "acceptAnchorOwnership",
      "outputs": [],
      "stateMutability": "nonpayable",
      "type": "function"
    },
    {
      "inputs": [],
      "name": "acceptOwnership",
      "outputs": [],
      "stateMutability": "nonpayable",
      "type": "function"
    },
    {
      "inputs": [],
      "name": "acceptTokenOwnership",
      "outputs": [],
      "stateMutability": "nonpayable",
      "type": "function"
    },
    {
      "inputs": [
        {
          "internalType": "uint256",
          "name": "_reserve1Amount",
          "type": "uint256"
        },
        {
          "internalType": "uint256",
          "name": "_reserve2Amount",
          "type": "uint256"
        },
        {
          "internalType": "uint256",
          "name": "_minReturn",
          "type": "uint256"
        }
      ],
      "name": "addLiquidity",
      "outputs": [
        {
          "internalType": "uint256",
          "name": "",
          "type": "uint256"
        }
      ],
      "stateMutability": "payable",
      "type": "function"
    },
    {
      "inputs": [
        {
          "internalType": "contract IERC20[]",
          "name": "_reserveTokens",
          "type": "address[]"
        },
        {
          "internalType": "uint256[]",
          "name": "_reserveAmounts",
          "type": "uint256[]"
        },
        {
          "internalType": "uint256",
          "name": "_minReturn",
          "type": "uint256"
        }
      ],
      "name": "addLiquidity",
      "outputs": [
        {
          "internalType": "uint256",
          "name": "",
          "type": "uint256"
        }
      ],
      "stateMutability": "payable",
      "type": "function"
    },
    {
      "inputs": [
        {
          "internalType": "contract IERC20[]",
          "name": "_reserveTokens",
          "type": "address[]"
        },
        {
          "internalType": "uint256",
          "name": "_reserveTokenIndex",
          "type": "uint256"
        },
        {
          "internalType": "uint256",
          "name": "_reserveAmount",
          "type": "uint256"
        }
      ],
      "name": "addLiquidityCost",
      "outputs": [
        {
          "internalType": "uint256[]",
          "name": "",
          "type": "uint256[]"
        }
      ],
      "stateMutability": "view",
      "type": "function"
    },
    {
      "inputs": [
        {
          "internalType": "contract IERC20",
          "name": "_reserveToken",
          "type": "address"
        },
        {
          "internalType": "uint256",
          "name": "_reserveAmount",
          "type": "uint256"
        }
      ],
      "name": "addLiquidityReturn",
      "outputs": [
        {
          "internalType": "uint256",
          "name": "",
          "type": "uint256"
        }
      ],
      "stateMutability": "view",
      "type": "function"
    },
    {
      "inputs": [
        {
          "internalType": "contract IERC20",
          "name": "_token",
          "type": "address"
        },
        {
          "internalType": "uint32",
          "name": "_weight",
          "type": "uint32"
        }
      ],
      "name": "addReserve",
      "outputs": [],
      "stateMutability": "nonpayable",
      "type": "function"
    },
    {
      "inputs": [],
      "name": "anchor",
      "outputs": [
        {
          "internalType": "contract IConverterAnchor",
          "name": "",
          "type": "address"
        }
      ],
      "stateMutability": "view",
      "type": "function"
    },
    {
      "inputs": [],
      "name": "averageRateInfo",
      "outputs": [
        {
          "internalType": "uint256",
          "name": "",
          "type": "uint256"
        }
      ],
      "stateMutability": "view",
      "type": "function"
    },
    {
      "inputs": [],
      "name": "connectorTokenCount",
      "outputs": [
        {
          "internalType": "uint16",
          "name": "",
          "type": "uint16"
        }
      ],
      "stateMutability": "view",
      "type": "function"
    },
    {
      "inputs": [
        {
          "internalType": "uint256",
          "name": "_index",
          "type": "uint256"
        }
      ],
      "name": "connectorTokens",
      "outputs": [
        {
          "internalType": "contract IERC20",
          "name": "",
          "type": "address"
        }
      ],
      "stateMutability": "view",
      "type": "function"
    },
    {
      "inputs": [
        {
          "internalType": "contract IERC20",
          "name": "_address",
          "type": "address"
        }
      ],
      "name": "connectors",
      "outputs": [
        {
          "internalType": "uint256",
          "name": "",
          "type": "uint256"
        },
        {
          "internalType": "uint32",
          "name": "",
          "type": "uint32"
        },
        {
          "internalType": "bool",
          "name": "",
          "type": "bool"
        },
        {
          "internalType": "bool",
          "name": "",
          "type": "bool"
        },
        {
          "internalType": "bool",
          "name": "",
          "type": "bool"
        }
      ],
      "stateMutability": "view",
      "type": "function"
    },
    {
      "inputs": [],
      "name": "conversionFee",
      "outputs": [
        {
          "internalType": "uint32",
          "name": "",
          "type": "uint32"
        }
      ],
      "stateMutability": "view",
      "type": "function"
    },
    {
      "inputs": [
        {
          "internalType": "contract IERC20",
          "name": "_sourceToken",
          "type": "address"
        },
        {
          "internalType": "contract IERC20",
          "name": "_targetToken",
          "type": "address"
        },
        {
          "internalType": "uint256",
          "name": "_amount",
          "type": "uint256"
        },
        {
          "internalType": "address",
          "name": "_trader",
          "type": "address"
        },
        {
          "internalType": "address payable",
          "name": "_beneficiary",
          "type": "address"
        }
      ],
      "name": "convert",
      "outputs": [
        {
          "internalType": "uint256",
          "name": "",
          "type": "uint256"
        }
      ],
      "stateMutability": "payable",
      "type": "function"
    },
    {
      "inputs": [],
      "name": "converterType",
      "outputs": [
        {
          "internalType": "uint16",
          "name": "",
          "type": "uint16"
        }
      ],
      "stateMutability": "pure",
      "type": "function"
    },
    {
      "inputs": [],
      "name": "currentTime",
      "outputs": [
        {
          "internalType": "uint256",
          "name": "",
          "type": "uint256"
        }
      ],
      "stateMutability": "view",
      "type": "function"
    },
    {
      "inputs": [
        {
          "internalType": "contract IERC20",
          "name": "_connectorToken",
          "type": "address"
        }
      ],
      "name": "getConnectorBalance",
      "outputs": [
        {
          "internalType": "uint256",
          "name": "",
          "type": "uint256"
        }
      ],
      "stateMutability": "view",
      "type": "function"
    },
    {
      "inputs": [
        {
          "internalType": "contract IERC20",
          "name": "_sourceToken",
          "type": "address"
        },
        {
          "internalType": "contract IERC20",
          "name": "_targetToken",
          "type": "address"
        },
        {
          "internalType": "uint256",
          "name": "_amount",
          "type": "uint256"
        }
      ],
      "name": "getReturn",
      "outputs": [
        {
          "internalType": "uint256",
          "name": "",
          "type": "uint256"
        },
        {
          "internalType": "uint256",
          "name": "",
          "type": "uint256"
        }
      ],
      "stateMutability": "view",
      "type": "function"
    },
    {
      "inputs": [],
      "name": "isActive",
      "outputs": [
        {
          "internalType": "bool",
          "name": "",
          "type": "bool"
        }
      ],
      "stateMutability": "view",
      "type": "function"
    },
    {
      "inputs": [],
      "name": "isV28OrHigher",
      "outputs": [
        {
          "internalType": "bool",
          "name": "",
          "type": "bool"
        }
      ],
      "stateMutability": "pure",
      "type": "function"
    },
    {
      "inputs": [],
      "name": "maxConversionFee",
      "outputs": [
        {
          "internalType": "uint32",
          "name": "",
          "type": "uint32"
        }
      ],
      "stateMutability": "view",
      "type": "function"
    },
    {
      "inputs": [],
      "name": "newOwner",
      "outputs": [
        {
          "internalType": "address",
          "name": "",
          "type": "address"
        }
      ],
      "stateMutability": "view",
      "type": "function"
    },
    {
      "inputs": [],
      "name": "onlyOwnerCanUpdateRegistry",
      "outputs": [
        {
          "internalType": "bool",
          "name": "",
          "type": "bool"
        }
      ],
      "stateMutability": "view",
      "type": "function"
    },
    {
      "inputs": [],
      "name": "owner",
      "outputs": [
        {
          "internalType": "address",
          "name": "",
          "type": "address"
        }
      ],
      "stateMutability": "view",
      "type": "function"
    },
    {
      "inputs": [],
      "name": "prevRegistry",
      "outputs": [
        {
          "internalType": "contract IContractRegistry",
          "name": "",
          "type": "address"
        }
      ],
      "stateMutability": "view",
      "type": "function"
    },
    {
      "inputs": [
        {
          "internalType": "contract IERC20",
          "name": "_token",
          "type": "address"
        }
      ],
      "name": "recentAverageRate",
      "outputs": [
        {
          "internalType": "uint256",
          "name": "",
          "type": "uint256"
        },
        {
          "internalType": "uint256",
          "name": "",
          "type": "uint256"
        }
      ],
      "stateMutability": "view",
      "type": "function"
    },
    {
      "inputs": [],
      "name": "registry",
      "outputs": [
        {
          "internalType": "contract IContractRegistry",
          "name": "",
          "type": "address"
        }
      ],
      "stateMutability": "view",
      "type": "function"
    },
    {
      "inputs": [
        {
          "internalType": "uint256",
          "name": "_amount",
          "type": "uint256"
        },
        {
          "internalType": "uint256",
          "name": "_reserve1MinReturn",
          "type": "uint256"
        },
        {
          "internalType": "uint256",
          "name": "_reserve2MinReturn",
          "type": "uint256"
        }
      ],
      "name": "removeLiquidity",
      "outputs": [
        {
          "internalType": "uint256",
          "name": "",
          "type": "uint256"
        },
        {
          "internalType": "uint256",
          "name": "",
          "type": "uint256"
        }
      ],
      "stateMutability": "nonpayable",
      "type": "function"
    },
    {
      "inputs": [
        {
          "internalType": "uint256",
          "name": "_amount",
          "type": "uint256"
        },
        {
          "internalType": "contract IERC20[]",
          "name": "_reserveTokens",
          "type": "address[]"
        },
        {
          "internalType": "uint256[]",
          "name": "_reserveMinReturnAmounts",
          "type": "uint256[]"
        }
      ],
      "name": "removeLiquidity",
      "outputs": [
        {
          "internalType": "uint256[]",
          "name": "",
          "type": "uint256[]"
        }
      ],
      "stateMutability": "nonpayable",
      "type": "function"
    },
    {
      "inputs": [
        {
          "internalType": "uint256",
          "name": "_amount",
          "type": "uint256"
        },
        {
          "internalType": "contract IERC20[]",
          "name": "_reserveTokens",
          "type": "address[]"
        }
      ],
      "name": "removeLiquidityReturn",
      "outputs": [
        {
          "internalType": "uint256[]",
          "name": "",
          "type": "uint256[]"
        }
      ],
      "stateMutability": "view",
      "type": "function"
    },
    {
      "inputs": [
        {
          "internalType": "uint256",
          "name": "",
          "type": "uint256"
        }
      ],
      "name": "reserveAmountsRemoved",
      "outputs": [
        {
          "internalType": "uint256",
          "name": "",
          "type": "uint256"
        }
      ],
      "stateMutability": "view",
      "type": "function"
    },
    {
      "inputs": [
        {
          "internalType": "contract IERC20",
          "name": "_reserveToken",
          "type": "address"
        }
      ],
      "name": "reserveBalance",
      "outputs": [
        {
          "internalType": "uint256",
          "name": "",
          "type": "uint256"
        }
      ],
      "stateMutability": "view",
      "type": "function"
    },
    {
      "inputs": [],
      "name": "reserveBalances",
      "outputs": [
        {
          "internalType": "uint256",
          "name": "",
          "type": "uint256"
        },
        {
          "internalType": "uint256",
          "name": "",
          "type": "uint256"
        }
      ],
      "stateMutability": "view",
      "type": "function"
    },
    {
      "inputs": [],
      "name": "reserveTokenCount",
      "outputs": [
        {
          "internalType": "uint16",
          "name": "",
          "type": "uint16"
        }
      ],
      "stateMutability": "view",
      "type": "function"
    },
    {
      "inputs": [],
      "name": "reserveTokens",
      "outputs": [
        {
          "internalType": "contract IERC20[]",
          "name": "",
          "type": "address[]"
        }
      ],
      "stateMutability": "view",
      "type": "function"
    },
    {
      "inputs": [
        {
          "internalType": "contract IERC20",
          "name": "_reserveToken",
          "type": "address"
        }
      ],
      "name": "reserveWeight",
      "outputs": [
        {
          "internalType": "uint32",
          "name": "",
          "type": "uint32"
        }
      ],
      "stateMutability": "view",
      "type": "function"
    },
    {
      "inputs": [],
      "name": "restoreRegistry",
      "outputs": [],
      "stateMutability": "nonpayable",
      "type": "function"
    },
    {
      "inputs": [
        {
          "internalType": "bool",
          "name": "_onlyOwnerCanUpdateRegistry",
          "type": "bool"
        }
      ],
      "name": "restrictRegistryUpdate",
      "outputs": [],
      "stateMutability": "nonpayable",
      "type": "function"
    },
    {
      "inputs": [
        {
          "internalType": "uint32",
          "name": "_conversionFee",
          "type": "uint32"
        }
      ],
      "name": "setConversionFee",
      "outputs": [],
      "stateMutability": "nonpayable",
      "type": "function"
    },
    {
      "inputs": [
        {
          "internalType": "uint256",
          "name": "_currentTime",
          "type": "uint256"
        }
      ],
      "name": "setTime",
      "outputs": [],
      "stateMutability": "nonpayable",
      "type": "function"
    },
    {
      "inputs": [
        {
          "internalType": "contract IERC20",
          "name": "_sourceToken",
          "type": "address"
        },
        {
          "internalType": "contract IERC20",
          "name": "_targetToken",
          "type": "address"
        },
        {
          "internalType": "uint256",
          "name": "_amount",
          "type": "uint256"
        }
      ],
      "name": "sourceAmountAndFee",
      "outputs": [
        {
          "internalType": "uint256",
          "name": "",
          "type": "uint256"
        },
        {
          "internalType": "uint256",
          "name": "",
          "type": "uint256"
        }
      ],
      "stateMutability": "view",
      "type": "function"
    },
    {
      "inputs": [
        {
          "internalType": "contract IERC20",
          "name": "_sourceToken",
          "type": "address"
        },
        {
          "internalType": "contract IERC20",
          "name": "_targetToken",
          "type": "address"
        },
        {
          "internalType": "uint256",
          "name": "_amount",
          "type": "uint256"
        }
      ],
      "name": "targetAmountAndFee",
      "outputs": [
        {
          "internalType": "uint256",
          "name": "",
          "type": "uint256"
        },
        {
          "internalType": "uint256",
          "name": "",
          "type": "uint256"
        }
      ],
      "stateMutability": "view",
      "type": "function"
    },
    {
      "inputs": [],
      "name": "token",
      "outputs": [
        {
          "internalType": "contract IConverterAnchor",
          "name": "",
          "type": "address"
        }
      ],
      "stateMutability": "view",
      "type": "function"
    },
    {
      "inputs": [
        {
          "internalType": "address",
          "name": "_newOwner",
          "type": "address"
        }
      ],
      "name": "transferAnchorOwnership",
      "outputs": [],
      "stateMutability": "nonpayable",
      "type": "function"
    },
    {
      "inputs": [
        {
          "internalType": "address",
          "name": "_newOwner",
          "type": "address"
        }
      ],
      "name": "transferOwnership",
      "outputs": [],
      "stateMutability": "nonpayable",
      "type": "function"
    },
    {
      "inputs": [
        {
          "internalType": "address",
          "name": "_newOwner",
          "type": "address"
        }
      ],
      "name": "transferTokenOwnership",
      "outputs": [],
      "stateMutability": "nonpayable",
      "type": "function"
    },
    {
      "inputs": [],
      "name": "updateRegistry",
      "outputs": [],
      "stateMutability": "nonpayable",
      "type": "function"
    },
    {
      "inputs": [],
      "name": "upgrade",
      "outputs": [],
      "stateMutability": "nonpayable",
      "type": "function"
    },
    {
      "inputs": [],
      "name": "version",
      "outputs": [
        {
          "internalType": "uint16",
          "name": "",
          "type": "uint16"
        }
      ],
      "stateMutability": "view",
      "type": "function"
    },
    {
      "inputs": [
        {
          "internalType": "address payable",
          "name": "_to",
          "type": "address"
        }
      ],
      "name": "withdrawETH",
      "outputs": [],
      "stateMutability": "nonpayable",
      "type": "function"
    },
    {
      "inputs": [
        {
          "internalType": "contract IERC20",
          "name": "_token",
          "type": "address"
        },
        {
          "internalType": "address",
          "name": "_to",
          "type": "address"
        },
        {
          "internalType": "uint256",
          "name": "_amount",
          "type": "uint256"
        }
      ],
      "name": "withdrawTokens",
      "outputs": [],
      "stateMutability": "nonpayable",
      "type": "function"
    },
    {
      "stateMutability": "payable",
      "type": "receive"
    },
    {
      "inputs": [
        {
          "internalType": "uint256",
          "name": "_amount",
          "type": "uint256"
        },
        {
          "internalType": "contract IERC20[]",
          "name": "_reserveTokens",
          "type": "address[]"
        },
        {
          "internalType": "uint256[]",
          "name": "_reserveMinReturnAmounts",
          "type": "uint256[]"
        }
      ],
      "name": "removeLiquidityTest",
      "outputs": [],
      "stateMutability": "nonpayable",
      "type": "function"
    }
  ],
  "bytecode": "0x60016004819055600a556002608081815260e060405290816020016020820280368337505081516200003992600b925060200190620001ec565b503480156200004757600080fd5b506040516200519e3803806200519e833981810160405260608110156200006d57600080fd5b5080516020820151604090920151600080546001600160a01b031916331790559091908282828180620000a0816200012e565b50600280546001600160a01b039092166001600160a01b031992831681179091556003805490921617905582620000d7816200012e565b81620000e3816200018d565b50506008805463ffffffff909216600160a01b0263ffffffff60a01b196001600160a01b039095166001600160a01b0319909316929092179390931617909155506200025392505050565b6001600160a01b0381166200018a576040805162461bcd60e51b815260206004820152601360248201527f4552525f494e56414c49445f4144445245535300000000000000000000000000604482015290519081900360640190fd5b50565b620f424063ffffffff821611156200018a576040805162461bcd60e51b815260206004820152601a60248201527f4552525f494e56414c49445f434f4e56455253494f4e5f464545000000000000604482015290519081900360640190fd5b8280548282559060005260206000209081019282156200022a579160200282015b828111156200022a5782518255916020019190600101906200020d565b50620002389291506200023c565b5090565b5b808211156200023857600081556001016200023d565b614f3b80620002636000396000f3fe60806040526004361061031e5760003560e01c806371f52bf3116101ab578063cdc91c69116100f7578063dc3d535311610095578063ecbca55d1161006f578063ecbca55d14610f9d578063f0413a1f14610fcd578063f2fde38b14610fe2578063fc0c546a146110155761033e565b8063dc3d535314610ded578063dc8de37914610f24578063e8dc12ff14610f575761033e565b8063d3fb73b4116100d1578063d3fb73b414610d7b578063d4ee1d9014610d90578063d55ec69714610da5578063d895951214610dba5761033e565b8063cdc91c6914610d3c578063d18e81b314610d51578063d260529c14610d665761033e565b80638da5cb5b11610164578063af94b8d81161013e578063af94b8d814610b6a578063b127c0a514610bad578063b4a176d314610ce4578063bbcdfdef14610cf95761033e565b80638da5cb5b14610b2b57806394c275ad14610b405780639b99a8e214610b555761033e565b806371f52bf3146108de57806379ba5097146108f35780637b103999146109085780637d8916bd1461091d57806380d9416d14610a42578063857620e114610af55761033e565b80633e8ff43f1161026a578063579cd3ca1161022357806361cd756e116101fd57806361cd756e1461082457806367b6d57c14610839578063690d83201461086c5780636a49d2c41461089f5761033e565b8063579cd3ca146107b75780635e35359e146107cc578063613e53a71461080f5761033e565b80633e8ff43f146106c3578063422f1043146106ef57806349d10b641461072a5780634bfcd2c61461073f5780634e40c2601461076957806354fd4d50146107a25761033e565b80631f0181bc116102d757806327ac36c4116102b157806327ac36c41461065a5780632fe8a6ad1461066f57806338a5e016146106845780633beb26c4146106995761033e565b80631f0181bc146105cb57806321e6b53d146105fe57806322f3e2d4146106315761033e565b8063024c7ec7146103435780630e53aae91461037157806315458837146103d857806319b64015146104dd5780631cfab290146105235780631e1401f81461056f5761033e565b3661033e57600080516020614e9c83398151915261033b8161102a565b50005b600080fd5b34801561034f57600080fd5b5061036f6004803603602081101561036657600080fd5b5035151561108d565b005b34801561037d57600080fd5b506103a46004803603602081101561039457600080fd5b50356001600160a01b03166110b3565b6040805195865263ffffffff9094166020860152911515848401521515606084015215156080830152519081900360a00190f35b3480156103e457600080fd5b5061048d600480360360408110156103fb57600080fd5b81359190810190604081016020820135600160201b81111561041c57600080fd5b82018360208201111561042e57600080fd5b803590602001918460208302840111600160201b8311171561044f57600080fd5b91908080602002602001604051908101604052809392919081815260200183836020028082843760009201919091525092955061111a945050505050565b60408051602080825283518183015283519192839290830191858101910280838360005b838110156104c95781810151838201526020016104b1565b505050509050019250505060405180910390f35b3480156104e957600080fd5b506105076004803603602081101561050057600080fd5b50356111af565b604080516001600160a01b039092168252519081900360200190f35b34801561052f57600080fd5b506105566004803603602081101561054657600080fd5b50356001600160a01b03166111db565b6040805163ffffffff9092168252519081900360200190f35b34801561057b57600080fd5b506105b26004803603606081101561059257600080fd5b506001600160a01b038135811691602081013590911690604001356111f2565b6040805192835260208301919091528051918290030190f35b3480156105d757600080fd5b506105b2600480360360208110156105ee57600080fd5b50356001600160a01b031661120d565b34801561060a57600080fd5b5061036f6004803603602081101561062157600080fd5b50356001600160a01b0316611288565b34801561063d57600080fd5b50610646611299565b604080519115158252519081900360200190f35b34801561066657600080fd5b5061048d61132e565b34801561067b57600080fd5b50610646611390565b34801561069057600080fd5b5061036f6113a0565b3480156106a557600080fd5b5061036f600480360360208110156106bc57600080fd5b50356113b2565b3480156106cf57600080fd5b506106d86113b7565b6040805161ffff9092168252519081900360200190f35b6107186004803603606081101561070557600080fd5b50803590602081013590604001356113bc565b60408051918252519081900360200190f35b34801561073657600080fd5b5061036f611486565b34801561074b57600080fd5b506107186004803603602081101561076257600080fd5b503561168e565b34801561077557600080fd5b506107186004803603604081101561078c57600080fd5b506001600160a01b0381351690602001356116ac565b3480156107ae57600080fd5b506106d861175a565b3480156107c357600080fd5b5061055661175f565b3480156107d857600080fd5b5061036f600480360360608110156107ef57600080fd5b506001600160a01b03813581169160208101359091169060400135611772565b34801561081b57600080fd5b506105b261185d565b34801561083057600080fd5b50610507611874565b34801561084557600080fd5b5061036f6004803603602081101561085c57600080fd5b50356001600160a01b0316611883565b34801561087857600080fd5b5061036f6004803603602081101561088f57600080fd5b50356001600160a01b0316611919565b3480156108ab57600080fd5b5061036f600480360360408110156108c257600080fd5b5080356001600160a01b0316906020013563ffffffff16611a2a565b3480156108ea57600080fd5b506106d8611b92565b3480156108ff57600080fd5b5061036f611ba1565b34801561091457600080fd5b50610507611c58565b6107186004803603606081101561093357600080fd5b810190602081018135600160201b81111561094d57600080fd5b82018360208201111561095f57600080fd5b803590602001918460208302840111600160201b8311171561098057600080fd5b9190808060200260200160405190810160405280939291908181526020018383602002808284376000920191909152509295949360208101935035915050600160201b8111156109cf57600080fd5b8201836020820111156109e157600080fd5b803590602001918460208302840111600160201b83111715610a0257600080fd5b9190808060200260200160405190810160405280939291908181526020018383602002808284376000920191909152509295505091359250611c67915050565b348015610a4e57600080fd5b5061048d60048036036060811015610a6557600080fd5b810190602081018135600160201b811115610a7f57600080fd5b820183602082011115610a9157600080fd5b803590602001918460208302840111600160201b83111715610ab257600080fd5b91908080602002602001604051908101604052809392919081815260200183836020028082843760009201919091525092955050823593505050602001356121e3565b348015610b0157600080fd5b506105b260048036036060811015610b1857600080fd5b50803590602081013590604001356123df565b348015610b3757600080fd5b506105076124db565b348015610b4c57600080fd5b506105566124ea565b348015610b6157600080fd5b506106d86124fd565b348015610b7657600080fd5b506105b260048036036060811015610b8d57600080fd5b506001600160a01b03813581169160208101359091169060400135612503565b348015610bb957600080fd5b5061048d60048036036060811015610bd057600080fd5b81359190810190604081016020820135600160201b811115610bf157600080fd5b820183602082011115610c0357600080fd5b803590602001918460208302840111600160201b83111715610c2457600080fd5b9190808060200260200160405190810160405280939291908181526020018383602002808284376000920191909152509295949360208101935035915050600160201b811115610c7357600080fd5b820183602082011115610c8557600080fd5b803590602001918460208302840111600160201b83111715610ca657600080fd5b91908080602002602001604051908101604052809392919081815260200183836020028082843760009201919091525092955061255e945050505050565b348015610cf057600080fd5b5061036f61292b565b348015610d0557600080fd5b506105b260048036036060811015610d1c57600080fd5b506001600160a01b03813581169160208101359091169060400135612957565b348015610d4857600080fd5b5061036f6129c9565b348015610d5d57600080fd5b50610718612ae6565b348015610d7257600080fd5b50610646612aec565b348015610d8757600080fd5b50610507612af1565b348015610d9c57600080fd5b50610507612b00565b348015610db157600080fd5b5061036f612b0f565b348015610dc657600080fd5b5061071860048036036020811015610ddd57600080fd5b50356001600160a01b0316612bf7565b348015610df957600080fd5b5061036f60048036036060811015610e1057600080fd5b81359190810190604081016020820135600160201b811115610e3157600080fd5b820183602082011115610e4357600080fd5b803590602001918460208302840111600160201b83111715610e6457600080fd5b9190808060200260200160405190810160405280939291908181526020018383602002808284376000920191909152509295949360208101935035915050600160201b811115610eb357600080fd5b820183602082011115610ec557600080fd5b803590602001918460208302840111600160201b83111715610ee657600080fd5b919080806020026020016040519081016040528093929190818152602001838360200280828437600092019190915250929550612c02945050505050565b348015610f3057600080fd5b5061071860048036036020811015610f4757600080fd5b50356001600160a01b0316612c27565b610718600480360360a0811015610f6d57600080fd5b506001600160a01b0381358116916020810135821691604082013591606081013582169160809091013516612c91565b348015610fa957600080fd5b5061036f60048036036020811015610fc057600080fd5b503563ffffffff16612d37565b348015610fd957600080fd5b50610718612e19565b348015610fee57600080fd5b5061036f6004803603602081101561100557600080fd5b50356001600160a01b0316612e1f565b34801561102157600080fd5b50610507612e9d565b6001600160a01b03811660009081526007602052604090205461108a576040805162461bcd60e51b81526020600482015260136024820152724552525f494e56414c49445f5245534552564560681b604482015290519081900360640190fd5b50565b611095612eac565b60038054911515600160a01b0260ff60a01b19909216919091179055565b6001600160a01b038116600090815260076020526040812054819081908190819080156110fd576110e381612eff565b95506207a120945060009350839250600191506111119050565b600080600080600095509550955095509550505b91939590929450565b60606000600860009054906101000a90046001600160a01b03166001600160a01b03166318160ddd6040518163ffffffff1660e01b815260040160206040518083038186803b15801561116c57600080fd5b505afa158015611180573d6000803e3d6000fd5b505050506040513d602081101561119657600080fd5b505190506111a5848483612f0d565b9150505b92915050565b6000600682815481106111be57fe5b6000918252602090912001546001600160a01b031690505b919050565b6000816111e78161102a565b506207a12092915050565b600080611200858585612503565b915091505b935093915050565b6000808261121a8161102a565b600061122760095461305f565b9050600061123482613189565b9050600061124183613198565b9050600660008154811061125157fe5b6000918252602090912001546001600160a01b038881169116141561127c5790945092506112829050565b94509250505b50915091565b611290612eac565b61108a81611883565b6000306001600160a01b0316600860009054906101000a90046001600160a01b03166001600160a01b0316638da5cb5b6040518163ffffffff1660e01b815260040160206040518083038186803b1580156112f357600080fd5b505afa158015611307573d6000803e3d6000fd5b505050506040513d602081101561131d57600080fd5b50516001600160a01b031614905090565b6060600680548060200260200160405190810160405280929190818152602001828054801561138657602002820191906000526020600020905b81546001600160a01b03168152600190910190602001808311611368575b5050505050905090565b600354600160a01b900460ff1681565b6113a8612eac565b6113b06129c9565b565b600a55565b600390565b604080516002808252606080830184526000939092919060208301908036833701905050905084816000815181106113f057fe5b602002602001018181525050838160018151811061140a57fe5b60200260200101818152505061147b600680548060200260200160405190810160405280929190818152602001828054801561146f57602002820191906000526020600020905b81546001600160a01b03168152600190910190602001808311611451575b50505050508285611c67565b9150505b9392505050565b6000546001600160a01b03163314806114a95750600354600160a01b900460ff16155b6114ee576040805162461bcd60e51b815260206004820152601160248201527011549497d050d0d154d4d7d11153925151607a1b604482015290519081900360640190fd5b600061150c6f436f6e7472616374526567697374727960801b6131a4565b6002549091506001600160a01b0380831691161480159061153557506001600160a01b03811615155b61157d576040805162461bcd60e51b81526020600482015260146024820152734552525f494e56414c49445f524547495354525960601b604482015290519081900360640190fd5b60006001600160a01b0316816001600160a01b031663bb34534c6f436f6e7472616374526567697374727960801b6040518263ffffffff1660e01b81526004018082815260200191505060206040518083038186803b1580156115df57600080fd5b505afa1580156115f3573d6000803e3d6000fd5b505050506040513d602081101561160957600080fd5b50516001600160a01b0316141561165e576040805162461bcd60e51b81526020600482015260146024820152734552525f494e56414c49445f524547495354525960601b604482015290519081900360640190fd5b60028054600380546001600160a01b038084166001600160a01b0319928316179092559091169216919091179055565b600b818154811061169b57fe5b600091825260209091200154905081565b600080600860009054906101000a90046001600160a01b03166001600160a01b03166318160ddd6040518163ffffffff1660e01b815260040160206040518083038186803b1580156116fd57600080fd5b505afa158015611711573d6000803e3d6000fd5b505050506040513d602081101561172757600080fd5b50516001600160a01b0385166000908152600760205260409020549091506111a590829061175490612eff565b85613222565b602d81565b600854600160c01b900463ffffffff1681565b61177a6132d8565b6002600455611787612eac565b60006117ac762130b731b7b921b7b73b32b93a32b92ab833b930b232b960491b6131a4565b6001600160a01b0385166000908152600760205260409020549091508015806117da57506117d8611299565b155b806117f257506000546001600160a01b038381169116145b611837576040805162461bcd60e51b815260206004820152601160248201527011549497d050d0d154d4d7d11153925151607a1b604482015290519081900360640190fd5b611842858585613320565b8015611851576118518561335a565b50506001600455505050565b60008061186c60016002613412565b915091509091565b6003546001600160a01b031681565b61188b612eac565b762130b731b7b921b7b73b32b93a32b92ab833b930b232b960491b6118af8161349b565b6008546040805163f2fde38b60e01b81526001600160a01b0385811660048301529151919092169163f2fde38b91602480830192600092919082900301818387803b1580156118fd57600080fd5b505af1158015611911573d6000803e3d6000fd5b505050505050565b6119216132d8565b600260045561192e612eac565b600080516020614e9c8339815191526119468161102a565b600061196b762130b731b7b921b7b73b32b93a32b92ab833b930b232b960491b6131a4565b9050611975611299565b158061198e57506000546001600160a01b038281169116145b6119d3576040805162461bcd60e51b815260206004820152601160248201527011549497d050d0d154d4d7d11153925151607a1b604482015290519081900360640190fd5b6040516001600160a01b038416904780156108fc02916000818181858888f19350505050158015611a08573d6000803e3d6000fd5b50611a20600080516020614e9c83398151915261335a565b5050600160045550565b611a32612eac565b611a3a6134fd565b81611a4481613544565b82611a4e81613595565b82611a58816135e9565b6008546001600160a01b03868116911614801590611a8c57506001600160a01b038516600090815260076020526040902054155b611ad3576040805162461bcd60e51b81526020600482015260136024820152724552525f494e56414c49445f5245534552564560681b604482015290519081900360640190fd5b6002611add6124fd565b61ffff1610611b2f576040805162461bcd60e51b815260206004820152601960248201527811549497d253959053125117d49154d154959157d0d3d55395603a1b604482015290519081900360640190fd5b5050600680546001810182557ff652222313e28459528d920b65115c16c04f3efc82aaedc97be59f3f377c0d3f0180546001600160a01b039095166001600160a01b03199095168517905554600093845260076020526040909320929092555050565b6000611b9c6124fd565b905090565b6001546001600160a01b03163314611bf4576040805162461bcd60e51b815260206004820152601160248201527011549497d050d0d154d4d7d11153925151607a1b604482015290519081900360640190fd5b600154600080546040516001600160a01b0393841693909116917f343765429aea5a34b3ff6a3785a98a5abb2597aca87bfbb58632c173d585373a91a360018054600080546001600160a01b03199081166001600160a01b03841617909155169055565b6002546001600160a01b031681565b6000611c716132d8565b6002600455611c7e613646565b611c8984848461368e565b5060005b6002811015611d3a57600080516020614e9c8339815191526001600160a01b0316858281518110611cba57fe5b60200260200101516001600160a01b03161415611d325734848281518110611cde57fe5b602002602001015114611d32576040805162461bcd60e51b815260206004820152601760248201527608aa4a4be8aa890be829a9eaa9ca8be9a92a69a82a8869604b1b604482015290519081900360640190fd5b600101611c8d565b503415611dc057600080516020614e9c83398151915260005260076020527fb2084a3e4595ccf007fb44245853374aaf0de960074375e8e0fb334712e94d0e54611dc0576040805162461bcd60e51b81526020600482015260126024820152714552525f4e4f5f4554485f5245534552564560701b604482015290519081900360640190fd5b600854604080516318160ddd60e01b815290516001600160a01b039092169160009183916318160ddd91600480820192602092909190829003018186803b158015611e0a57600080fd5b505afa158015611e1e573d6000803e3d6000fd5b505050506040513d6020811015611e3457600080fd5b50519050611e41346138d3565b611e49614db6565b611e51614db6565b611e5961185d565b602084015282526000611e6a614db6565b84611eb957611e7889613a68565b915060005b6002811015611eb357898181518110611e9257fe5b6020026020010151828260028110611ea657fe5b6020020152600101611e7d565b50611ecb565b611ec58a8a8688613aba565b90925090505b6000611ed78684613ba8565b905060005b60028110156121055760008c8281518110611ef357fe5b602002602001015190506000848360028110611f0b57fe5b6020020151905060008111611f60576040805162461bcd60e51b815260206004820152601660248201527511549497d6915493d7d5105491d15517d05353d5539560521b604482015290519081900360640190fd5b8c8381518110611f6c57fe5b6020026020010151811115611f7d57fe5b6001600160a01b038216600080516020614e9c83398151915214611fb557611fb06001600160a01b038316333084613c02565b612020565b808d8481518110611fc257fe5b6020026020010151111561202057336001600160a01b03166108fc828f8681518110611fea57fe5b6020026020010151039081150290604051600060405180830381858888f1935050505015801561201e573d6000803e3d6000fd5b505b61203b8189856002811061203057fe5b602002015190613ba8565b87846002811061204757fe5b60200201526001600160a01b038216337f4a1a2a6176e9646d9e3157f7c2ab3c499f18337c0b0828cfb28e0a61de4a11f7838a876002811061208557fe5b602090810291909101516040805193845291830152818101899052519081900360600190a3816001600160a01b03168a6001600160a01b0316600080516020614e5b8339815191528986600281106120d957fe5b602002015187604051808381526020018281526020019250505060405180910390a35050600101611edc565b50835161211f9060019060029087835b6020020151613c5c565b88831015612169576040805162461bcd60e51b81526020600482015260126024820152714552525f52455455524e5f544f4f5f4c4f5760701b604482015290519081900360640190fd5b6040805163219e412d60e21b81523360048201526024810185905290516001600160a01b0389169163867904b491604480830192600092919082900301818387803b1580156121b757600080fd5b505af11580156121cb573d6000803e3d6000fd5b5050600160045550929b9a5050505050505050505050565b604080516002808252606080830184529283929190602083019080368337505060408051600280825260608083018452949550909250906020830190803683370190505090506000600760008860008151811061223c57fe5b60200260200101516001600160a01b03166001600160a01b031681526020019081526020016000205490506000600760008960018151811061227a57fe5b60200260200101516001600160a01b03166001600160a01b031681526020019081526020016000205490506122af8282613412565b846000815181106122bc57fe5b60200260200101856001815181106122d057fe5b60200260200101828152508281525050506000600860009054906101000a90046001600160a01b03166001600160a01b03166318160ddd6040518163ffffffff1660e01b815260040160206040518083038186803b15801561233157600080fd5b505afa158015612345573d6000803e3d6000fd5b505050506040513d602081101561235b57600080fd5b5051845190915060009061238590839087908c90811061237757fe5b60200260200101518a613222565b905060005b60028110156123d0576123b1838783815181106123a357fe5b602002602001015184613ce0565b8782815181106123bd57fe5b602090810291909101015260010161238a565b50949998505050505050505050565b604080516002808252606080830184526000938493919290602083019080368337019050509050848160008151811061241457fe5b602002602001018181525050838160018151811061242e57fe5b60200260200101818152505060606124a187600680548060200260200160405190810160405280929190818152602001828054801561249657602002820191906000526020600020905b81546001600160a01b03168152600190910190602001808311612478575b50505050508461255e565b9050806000815181106124b057fe5b6020026020010151816001815181106124c557fe5b6020026020010151935093505050935093915050565b6000546001600160a01b031681565b600854600160a01b900463ffffffff1681565b60065490565b60008061250e613646565b6001600160a01b03808616600090815260076020526040808220549287168252812054908061253d8484613412565b9150915061254e898984848b613d9d565b9550955050505050935093915050565b60606125686132d8565b6002600455612575613646565b600061258284848761368e565b90506000600860009054906101000a90046001600160a01b031690506000816001600160a01b03166318160ddd6040518163ffffffff1660e01b815260040160206040518083038186803b1580156125d957600080fd5b505afa1580156125ed573d6000803e3d6000fd5b505050506040513d602081101561260357600080fd5b50516040805163a24835d160e01b8152336004820152602481018a905290519192506001600160a01b0384169163a24835d19160448082019260009290919082900301818387803b15801561265757600080fd5b505af115801561266b573d6000803e3d6000fd5b50505050612677613dcd565b60006126838289613f57565b90506060612692898985612f0d565b905061269c614db6565b6126a4614db6565b6126ac61185d565b6020840152825260005b600281101561289b5760008b82815181106126cd57fe5b6020026020010151905060008583815181106126e557fe5b602002602001015190508b83815181106126fb57fe5b6020026020010151811015612750576040805162461bcd60e51b815260206004820152601660248201527511549497d6915493d7d5105491d15517d05353d5539560521b604482015290519081900360640190fd5b61276b8186856002811061276057fe5b602002015190613f57565b84846002811061277757fe5b60200201526001600160a01b038216600080516020614e9c83398151915214156127ce57604051339082156108fc029083906000818181858888f193505050501580156127c8573d6000803e3d6000fd5b506127e2565b6127e26001600160a01b0383163383613fb4565b6001600160a01b038216337fbc7d19d505c7ec4db83f3b51f19fb98c4c8a99922e7839d1ee608dfbee29501b8387876002811061281b57fe5b6020908102919091015160408051938452918301528181018c9052519081900360600190a3816001600160a01b0316896001600160a01b0316600080516020614e5b83398151915286866002811061286f57fe5b60200201518a604051808381526020018281526020019250505060405180910390a350506001016126b6565b5080516128af906001906002908483612115565b8615612918576000836000815181106128c457fe5b60200260200101519050836001815181106128db57fe5b6020026020010151846000815181106128f057fe5b602002602001018181525050808460018151811061290a57fe5b602002602001018181525050505b5050600160045598975050505050505050565b612933612eac565b600354600280546001600160a01b0319166001600160a01b03909216919091179055565b600080612962613646565b6001600160a01b0380861660009081526007602052604080822054928716825281205490806129918484613412565b9150915060006129a088614006565b905060006129b884846129b38c86613ba8565b61403b565b9b919a509098505050505050505050565b6129d1612eac565b6129d96124fd565b61ffff16600214612a2d576040805162461bcd60e51b815260206004820152601960248201527811549497d253959053125117d49154d154959157d0d3d55395603a1b604482015290519081900360640190fd5b600860009054906101000a90046001600160a01b03166001600160a01b03166379ba50976040518163ffffffff1660e01b8152600401600060405180830381600087803b158015612a7d57600080fd5b505af1158015612a91573d6000803e3d6000fd5b50505050612a9d613dcd565b6008546001906001600160a01b0316612ab46113b7565b61ffff167f6b08c2e2c9969e55a647a764db9b554d64dc42f1a704da11a6d5b129ad163f2c60405160405180910390a4565b600a5481565b600190565b6008546001600160a01b031681565b6001546001600160a01b031681565b612b17612eac565b6000612b3c762130b731b7b921b7b73b32b93a32b92ab833b930b232b960491b6131a4565b6008549091506000906001600160a01b0316612b566113b7565b61ffff167f6b08c2e2c9969e55a647a764db9b554d64dc42f1a704da11a6d5b129ad163f2c60405160405180910390a4612b8f81612e1f565b6040805163487ac64b60e11b8152602d600482015290516001600160a01b038316916390f58c9691602480830192600092919082900301818387803b158015612bd757600080fd5b505af1158015612beb573d6000803e3d6000fd5b5050505061108a611ba1565b60006111a982612c27565b612c0d83838361255e565b8051612c2191600b91602090910190614dd4565b50505050565b6001600160a01b03811660009081526007602052604081205480612c88576040805162461bcd60e51b81526020600482015260136024820152724552525f494e56414c49445f5245534552564560681b604482015290519081900360640190fd5b61147f81612eff565b6000612c9b6132d8565b60026004556c42616e636f724e6574776f726b60981b612cba8161349b565b856001600160a01b0316876001600160a01b03161415612d1a576040805162461bcd60e51b815260206004820152601660248201527511549497d4d0535157d4d3d55490d157d5105491d15560521b604482015290519081900360640190fd5b612d2787878787876140e4565b6001600455979650505050505050565b612d3f612eac565b60085463ffffffff600160a01b90910481169082161115612da7576040805162461bcd60e51b815260206004820152601a60248201527f4552525f494e56414c49445f434f4e56455253494f4e5f464545000000000000604482015290519081900360640190fd5b6008546040805163ffffffff600160c01b90930483168152918316602083015280517f81cd2ffb37dd237c0e4e2a3de5265fcf9deb43d3e7801e80db9f1ccfba7ee6009281900390910190a16008805463ffffffff909216600160c01b0263ffffffff60c01b19909216919091179055565b60095481565b612e27612eac565b6000546001600160a01b0382811691161415612e7b576040805162461bcd60e51b815260206004820152600e60248201526d22a9292fa9a0a6a2afa7aba722a960911b604482015290519081900360640190fd5b600180546001600160a01b0319166001600160a01b0392909216919091179055565b6008546001600160a01b031690565b6000546001600160a01b031633146113b0576040805162461bcd60e51b815260206004820152601160248201527011549497d050d0d154d4d7d11153925151607a1b604482015290519081900360640190fd5b60006111a96005548361437e565b6040805160028082526060808301845292839291906020830190803683375050604080516002808252606080830184529495509092509060208301908036833701905050905060006007600087600081518110612f6657fe5b60200260200101516001600160a01b03166001600160a01b0316815260200190815260200160002054905060006007600088600181518110612fa457fe5b60200260200101516001600160a01b03166001600160a01b03168152602001908152602001600020549050612fd98282613412565b84600081518110612fe657fe5b6020026020010185600181518110612ffa57fe5b60209081029190910101919091525260005b6002811015613052576130338785838151811061302557fe5b60200260200101518b6143b0565b85828151811061303f57fe5b602090810291909101015260010161300c565b5092979650505050505050565b60008061306b836144af565b9050600061307884613189565b9050600061308585613198565b905060006130916144b5565b9050838103806130a85786955050505050506111d6565b6000806130b361185d565b91509150610258831015806130c6575086155b156130fa576130dd81836001600160701b036144bf565b925090506130ec848284614507565b9750505050505050506111d6565b60006131068683614552565b905060006131148885614552565b9050600061313a6131258488614552565b613134846102588a9003614552565b90613ba8565b9050600061315461025861314e8b89614552565b90614552565b905061316882826001600160701b036144bf565b9092509050613178888383614507565b9d9c50505050505050505050505050565b60701c6001600160701b031690565b6001600160701b031690565b60025460408051632ecd14d360e21b81526004810184905290516000926001600160a01b03169163bb34534c916024808301926020929190829003018186803b1580156131f057600080fd5b505afa158015613204573d6000803e3d6000fd5b505050506040513d602081101561321a57600080fd5b505192915050565b600080841161326d576040805162461bcd60e51b81526020600482015260126024820152714552525f494e56414c49445f535550504c5960701b604482015290519081900360640190fd5b600083116132b0576040805162461bcd60e51b815260206004820152601b6024820152600080516020614ee6833981519152604482015290519081900360640190fd5b816132bd5750600061147f565b826132c88386614552565b816132cf57fe5b04949350505050565b6001600454146113b0576040805162461bcd60e51b815260206004820152600e60248201526d4552525f5245454e5452414e435960901b604482015290519081900360640190fd5b613328612eac565b8261333281613544565b8261333c81613544565b8361334681613595565b6119116001600160a01b0387168686613fb4565b6001600160a01b03811660008181526007602052604081205491600080516020614e9c833981519152146133ff57604080516370a0823160e01b815230600482015290516001600160a01b038516916370a08231916024808301926020929190829003018186803b1580156133ce57600080fd5b505afa1580156133e2573d6000803e3d6000fd5b505050506040513d60208110156133f857600080fd5b5051613401565b475b905061340d82826145ab565b505050565b6000808360011480156134255750826002145b8061343b575083600214801561343b5750826001145b613483576040805162461bcd60e51b81526020600482015260146024820152734552525f494e56414c49445f524553455256455360601b604482015290519081900360640190fd5b6134906005548585614631565b915091509250929050565b6134a4816131a4565b6001600160a01b0316336001600160a01b03161461108a576040805162461bcd60e51b815260206004820152601160248201527011549497d050d0d154d4d7d11153925151607a1b604482015290519081900360640190fd5b613505611299565b156113b0576040805162461bcd60e51b815260206004820152600a6024820152694552525f41435449564560b01b604482015290519081900360640190fd5b6001600160a01b03811661108a576040805162461bcd60e51b81526020600482015260136024820152724552525f494e56414c49445f4144445245535360681b604482015290519081900360640190fd5b6001600160a01b03811630141561108a576040805162461bcd60e51b815260206004820152601360248201527222a9292fa0a2222922a9a9afa4a9afa9a2a62360691b604482015290519081900360640190fd5b63ffffffff81166207a1201461108a576040805162461bcd60e51b815260206004820152601a60248201527f4552525f494e56414c49445f524553455256455f574549474854000000000000604482015290519081900360640190fd5b61364e611299565b6113b0576040805162461bcd60e51b815260206004820152600c60248201526b4552525f494e41435449564560a01b604482015290519081900360640190fd5b600061369983614648565b80156136a55750600082115b6136e8576040805162461bcd60e51b815260206004820152600f60248201526e11549497d6915493d7d05353d55395608a1b604482015290519081900360640190fd5b600060076000866000815181106136fb57fe5b60200260200101516001600160a01b03166001600160a01b031681526020019081526020016000205490506000600760008760018151811061373957fe5b60200260200101516001600160a01b03166001600160a01b031681526020019081526020016000205490508160021480156137745750806001145b156138705760008660008151811061378857fe5b602002602001015190508660018151811061379f57fe5b6020026020010151876000815181106137b457fe5b60200260200101906001600160a01b031690816001600160a01b03168152505080876001815181106137e257fe5b60200260200101906001600160a01b031690816001600160a01b03168152505060008660008151811061381157fe5b602002602001015190508660018151811061382857fe5b60200260200101518760008151811061383d57fe5b602002602001018181525050808760018151811061385757fe5b602002602001018181525050600194505050505061147f565b8160011480156138805750806002145b6138c7576040805162461bcd60e51b81526020600482015260136024820152724552525f494e56414c49445f5245534552564560681b604482015290519081900360640190fd5b50600095945050505050565b600060066000815481106138e357fe5b6000918252602082200154600680546001600160a01b03909216935090600190811061390b57fe5b60009182526020822001546001600160a01b0390811692508316600080516020614e9c833981519152146139b057604080516370a0823160e01b815230600482015290516001600160a01b038516916370a08231916024808301926020929190829003018186803b15801561397f57600080fd5b505afa158015613993573d6000803e3d6000fd5b505050506040513d60208110156139a957600080fd5b50516139b4565b8347035b905060006001600160a01b038316600080516020614e9c83398151915214613a4d57604080516370a0823160e01b815230600482015290516001600160a01b038516916370a08231916024808301926020929190829003018186803b158015613a1c57600080fd5b505afa158015613a30573d6000803e3d6000fd5b505050506040513d6020811015613a4657600080fd5b5051613a51565b8447035b9050613a61600160028484613c5c565b5050505050565b80516000908190815b81811015613aa157613a95858281518110613a8857fe5b6020026020010151614687565b90920191600101613a71565b506001613aae83836146a9565b03600a0a949350505050565b6000613ac4614db6565b6000613af38582602002015187600181518110613add57fe5b602002602001015161455290919063ffffffff16565b613b0b866001602002015188600081518110613add57fe5b10613b17576001613b1a565b60005b60ff1690506000613b4f85878460028110613b3157fe5b6020020151898581518110613b4257fe5b6020026020010151613222565b9050613b59614db6565b60005b6002811015613b9957613b8087898360028110613b7557fe5b602002015185613ce0565b828260028110613b8c57fe5b6020020152600101613b5c565b50909890975095505050505050565b60008282018381101561147f576040805162461bcd60e51b815260206004820152601b60248201527f536166654d6174683a206164646974696f6e206f766572666c6f770000000000604482015290519081900360640190fd5b604080516001600160a01b0380861660248301528416604482015260648082018490528251808303909101815260849091019091526020810180516001600160e01b03166323b872dd60e01b179052612c219085906146c1565b6001600160801b038211158015613c7a57506001600160801b038111155b613ccb576040805162461bcd60e51b815260206004820152601c60248201527f4552525f524553455256455f42414c414e43455f4f564552464c4f5700000000604482015290519081900360640190fd5b613cd782858386614772565b60055550505050565b6000808411613d2b576040805162461bcd60e51b81526020600482015260126024820152714552525f494e56414c49445f535550504c5960701b604482015290519081900360640190fd5b60008311613d6e576040805162461bcd60e51b815260206004820152601b6024820152600080516020614ee6833981519152604482015290519081900360640190fd5b81613d7b5750600061147f565b836001613d888486614552565b0381613d9057fe5b0460010190509392505050565b6000806000613dad868686614792565b90506000613dba826147f6565b9182900399919850909650505050505050565b60006006600081548110613ddd57fe5b6000918252602082200154600680546001600160a01b039092169350906001908110613e0557fe5b60009182526020822001546001600160a01b0390811692508316600080516020614e9c83398151915214613eaa57604080516370a0823160e01b815230600482015290516001600160a01b038516916370a08231916024808301926020929190829003018186803b158015613e7957600080fd5b505afa158015613e8d573d6000803e3d6000fd5b505050506040513d6020811015613ea357600080fd5b5051613eac565b475b905060006001600160a01b038316600080516020614e9c83398151915214613f4557604080516370a0823160e01b815230600482015290516001600160a01b038516916370a08231916024808301926020929190829003018186803b158015613f1457600080fd5b505afa158015613f28573d6000803e3d6000fd5b505050506040513d6020811015613f3e57600080fd5b5051613f47565b475b9050612c21600160028484613c5c565b600082821115613fae576040805162461bcd60e51b815260206004820152601e60248201527f536166654d6174683a207375627472616374696f6e206f766572666c6f770000604482015290519081900360640190fd5b50900390565b604080516001600160a01b038416602482015260448082018490528251808303909101815260649091019091526020810180516001600160e01b031663a9059cbb60e01b17905261340d9084906146c1565b6008546000906111a99063ffffffff600160c01b9091048116620f424081900382169161403591869161455216565b9061482b565b600080841161407f576040805162461bcd60e51b815260206004820152601b6024820152600080516020614ee6833981519152604482015290519081900360640190fd5b8282106140c8576040805162461bcd60e51b815260206004820152601260248201527111549497d253959053125117d05353d5539560721b604482015290519081900360640190fd5b816140d55750600061147f565b8183036001613d888685614552565b60006140ee61488a565b6001600160a01b03808716600090815260076020526040808220549288168252812054908061411d8484613412565b915091506000806141318c8c86868e613d9d565b915091508160001415614184576040805162461bcd60e51b815260206004820152601660248201527511549497d6915493d7d5105491d15517d05353d5539560521b604482015290519081900360640190fd5b82821061418d57fe5b60006001600160a01b038d16600080516020614e9c8339815191521415614203575047348b146141fe576040805162461bcd60e51b815260206004820152601760248201527608aa4a4be8aa890be829a9eaa9ca8be9a92a69a82a8869604b1b604482015290519081900360640190fd5b6142d4565b604080516370a0823160e01b815230600482015290516001600160a01b038f16916370a08231916024808301926020929190829003018186803b15801561424957600080fd5b505afa15801561425d573d6000803e3d6000fd5b505050506040513d602081101561427357600080fd5b505190503415801561428e57508a61428b8287613f57565b10155b6142d4576040805162461bcd60e51b815260206004820152601260248201527111549497d253959053125117d05353d5539560721b604482015290519081900360640190fd5b6142e2878783868803613c5c565b6001600160a01b038c16600080516020614e9c833981519152141561433d576040516001600160a01b038a169084156108fc029085906000818181858888f19350505050158015614337573d6000803e3d6000fd5b50614351565b6143516001600160a01b038d168a85613fb4565b61435f8d8d8c8e87876148ab565b61436d8d8d83868803614907565b50909b9a5050505050505050505050565b6000816001148061438f5750816002145b61439557fe5b50608060001982010282901c6001600160801b031692915050565b60008084116143fb576040805162461bcd60e51b81526020600482015260126024820152714552525f494e56414c49445f535550504c5960701b604482015290519081900360640190fd5b6000831161443e576040805162461bcd60e51b815260206004820152601b6024820152600080516020614ee6833981519152604482015290519081900360640190fd5b83821115614488576040805162461bcd60e51b815260206004820152601260248201527111549497d253959053125117d05353d5539560721b604482015290519081900360640190fd5b816144955750600061147f565b838214156144a457508161147f565b836132c88385614552565b60e01c90565b6000611b9c614a40565b6000808484848211806144d157508481115b156144e7576144e1828287614a46565b90925090505b8082146144f8579092509050611205565b50600196879650945050505050565b600063ffffffff841115801561452457506001600160701b038311155b801561453757506001600160701b038211155b61453d57fe5b5060e083901b607083901b1781179392505050565b600082614561575060006111a9565b8282028284828161456e57fe5b041461147f5760405162461bcd60e51b8152600401808060200182810382526021815260200180614e7b6021913960400191505060405180910390fd5b6001600160801b03811115614607576040805162461bcd60e51b815260206004820152601c60248201527f4552525f524553455256455f42414c414e43455f4f564552464c4f5700000000604482015290519081900360640190fd5b60006146186005548460030361437e565b905061462982848386600303614772565b600555505050565b60008061463e858561437e565b611200868561437e565b6000808260008151811061465857fe5b60200260200101511180156111a9575060008260018151811061467757fe5b6020026020010151119050919050565b600080825b80156146a25760019190910190600a900461468c565b5092915050565b600081600281048401816146b957fe5b049392505050565b6060614716826040518060400160405280602081526020017f5361666545524332303a206c6f772d6c6576656c2063616c6c206661696c6564815250856001600160a01b0316614a7f9092919063ffffffff16565b80519091501561340d5780806020019051602081101561473557600080fd5b505161340d5760405162461bcd60e51b815260040180806020018281038252602a815260200180614ebc602a913960400191505060405180910390fd5b600061477e8383614a96565b6147888686614a96565b1795945050505050565b600080841180156147a35750600083115b6147e2576040805162461bcd60e51b815260206004820152601b6024820152600080516020614ee6833981519152604482015290519081900360640190fd5b6147ec8483613ba8565b6132c88484614552565b600854600090620f42409061481d908490600160c01b900463ffffffff9081169061455216565b8161482457fe5b0492915050565b6000808211614881576040805162461bcd60e51b815260206004820152601a60248201527f536166654d6174683a206469766973696f6e206279207a65726f000000000000604482015290519081900360640190fd5b8183816146b957fe5b60095460006148988261305f565b90508082146148a75760098190555b5050565b604080518481526020810184905280820183905290516001600160a01b038087169288821692918a16917f276856b36cbc45526a0ba64f44611557a2a8b68662c5388e9fe6d72e86e1c8cb9181900360600190a4505050505050565b600854604080516318160ddd60e01b815290516001600160a01b039092169160009183916318160ddd91600480820192602092909190829003018186803b15801561495157600080fd5b505afa158015614965573d6000803e3d6000fd5b505050506040513d602081101561497b57600080fd5b5051604080518581526020810187905281519293506001600160a01b0380891693908a1692600080516020614e5b833981519152928290030190a3856001600160a01b0316826001600160a01b0316600080516020614e5b8339815191528684604051808381526020018281526020019250505060405180910390a3846001600160a01b0316826001600160a01b0316600080516020614e5b8339815191528584604051808381526020018281526020019250505060405180910390a3505050505050565b600a5490565b600080838511614a6457614a5b858585614acb565b91509150611205565b600080614a72868887614acb565b9890975095505050505050565b6060614a8e8484600085614b84565b949350505050565b60006001600160801b038311158015614ab957508160011480614ab95750816002145b614abf57fe5b50600019016080021b90565b60008060008360001981614adb57fe5b04905080861115614b14576000816001018781614af457fe5b046001019050808781614b0357fe5b049650808681614b0f57fe5b049550505b848614614b7457858402858701878110614b45576000614b348383614ce0565b955050508385039250611205915050565b6002888803048703821015614b635760008694509450505050611205565b600180870394509450505050611205565b5050600290910493849350915050565b606082471015614bc55760405162461bcd60e51b8152600401808060200182810382526026815260200180614e356026913960400191505060405180910390fd5b614bce85614d0c565b614c1f576040805162461bcd60e51b815260206004820152601d60248201527f416464726573733a2063616c6c20746f206e6f6e2d636f6e7472616374000000604482015290519081900360640190fd5b60006060866001600160a01b031685876040518082805190602001908083835b60208310614c5e5780518252601f199092019160209182019101614c3f565b6001836020036101000a03801982511681845116808217855250505050505090500191505060006040518083038185875af1925050503d8060008114614cc0576040519150601f19603f3d011682016040523d82523d6000602084013e614cc5565b606091505b5091509150614cd5828286614d12565b979650505050505050565b6000600282048203828481614cf157fe5b0681614cf957fe5b04828481614d0357fe5b04019392505050565b3b151590565b60608315614d2157508161147f565b825115614d315782518084602001fd5b8160405162461bcd60e51b81526004018080602001828103825283818151815260200191508051906020019080838360005b83811015614d7b578181015183820152602001614d63565b50505050905090810190601f168015614da85780820380516001836020036101000a031916815260200191505b509250505060405180910390fd5b60405180604001604052806002906020820280368337509192915050565b828054828255906000526020600020908101928215614e0f579160200282015b82811115614e0f578251825591602001919060010190614df4565b50614e1b929150614e1f565b5090565b5b80821115614e1b5760008155600101614e2056fe416464726573733a20696e73756666696369656e742062616c616e636520666f722063616c6c77f29993cf2c084e726f7e802da0719d6a0ade3e204badc7a3ffd57ecb768c24536166654d6174683a206d756c7469706c69636174696f6e206f766572666c6f77000000000000000000000000eeeeeeeeeeeeeeeeeeeeeeeeeeeeeeeeeeeeeeee5361666545524332303a204552433230206f7065726174696f6e20646964206e6f7420737563636565644552525f494e56414c49445f524553455256455f42414c414e43450000000000a264697066735822122045ea1291a7e3251be79d805a715b73bafc8465096696fc0076681f2b61febd8964736f6c634300060c0033",
  "immutableReferences": {},
  "source": "// SPDX-License-Identifier: SEE LICENSE IN LICENSE\npragma solidity 0.6.12;\n\nimport \"../converter/types/standard-pool/StandardPoolConverter.sol\";\nimport \"./TestTime.sol\";\n\ncontract TestStandardPoolConverter is StandardPoolConverter, TestTime {\n    uint256[] public reserveAmountsRemoved = new uint256[](2);\n\n    constructor(\n        IDSToken _token,\n        IContractRegistry _registry,\n        uint32 _maxConversionFee\n    ) public StandardPoolConverter(_token, _registry, _maxConversionFee) {}\n\n    function removeLiquidityTest(\n        uint256 _amount,\n        IERC20[] memory _reserveTokens,\n        uint256[] memory _reserveMinReturnAmounts\n    ) public {\n        reserveAmountsRemoved = removeLiquidity(_amount, _reserveTokens, _reserveMinReturnAmounts);\n    }\n\n    function time() internal view override(Time, TestTime) returns (uint256) {\n        return TestTime.time();\n    }\n}\n",
  "sourcePath": "/Users/dennismacpro/Projects/Defi/Ethereum-Solidity-Collection/icarus-protocol/defi-seeder/.tmp/bancor/contracts-solidity/solidity/contracts/helpers/TestStandardPoolConverter.sol",
  "compiler": {
    "name": "solc",
    "version": "0.6.12+commit.27d51765.Emscripten.clang"
  },
  "schemaVersion": "3.3.3",
  "updatedAt": "2021-04-01T18:17:52.066Z",
  "devdoc": {
    "kind": "dev",
    "methods": {
      "acceptAnchorOwnership()": {
        "details": "accepts ownership of the anchor after an ownership transfer most converters are also activated as soon as they accept the anchor ownership can only be called by the contract owner note that prior to version 28, you should use 'acceptTokenOwnership' instead"
      },
      "acceptOwnership()": {
        "details": "used by a new owner to accept an ownership transfer"
      },
      "acceptTokenOwnership()": {
        "details": "deprecated, backward compatibility"
      },
      "addLiquidity(address[],uint256[],uint256)": {
        "details": "increases the pool's liquidity and mints new shares in the pool to the caller",
        "params": {
          "_minReturn": "token minimum return-amount",
          "_reserveAmounts": "amount of each reserve token",
          "_reserveTokens": "address of each reserve token"
        },
        "returns": {
          "_0": "amount of pool tokens issued"
        }
      },
      "addLiquidity(uint256,uint256,uint256)": {
        "details": "increases the pool's liquidity and mints new shares in the pool to the caller this version receives the two reserve amounts as separate args",
        "params": {
          "_minReturn": "token minimum return-amount",
          "_reserve1Amount": "amount of the first reserve token",
          "_reserve2Amount": "amount of the second reserve token"
        },
        "returns": {
          "_0": "amount of pool tokens issued"
        }
      },
      "addLiquidityCost(address[],uint256,uint256)": {
        "details": "given the amount of one of the reserve tokens to add liquidity of, returns the required amount of each one of the other reserve tokens since an empty pool can be funded with any list of non-zero input amounts, this function assumes that the pool is not empty (has already been funded)",
        "params": {
          "_reserveAmount": "amount of the relevant reserve token",
          "_reserveTokenIndex": "index of the relevant reserve token",
          "_reserveTokens": "address of each reserve token"
        },
        "returns": {
          "_0": "the required amount of each one of the reserve tokens"
        }
      },
      "addLiquidityReturn(address,uint256)": {
        "details": "given the amount of one of the reserve tokens to add liquidity of, returns the amount of pool tokens entitled for it since an empty pool can be funded with any list of non-zero input amounts, this function assumes that the pool is not empty (has already been funded)",
        "params": {
          "_reserveAmount": "amount of the reserve token",
          "_reserveToken": "address of the reserve token"
        },
        "returns": {
          "_0": "the amount of pool tokens entitled"
        }
      },
      "addReserve(address,uint32)": {
        "details": "defines a new reserve token for the converter can only be called by the owner while the converter is inactive",
        "params": {
          "_token": "address of the reserve token",
          "_weight": "reserve weight, represented in ppm, 1-1000000"
        }
      },
      "connectorTokenCount()": {
        "details": "deprecated, backward compatibility"
      },
      "connectorTokens(uint256)": {
        "details": "deprecated, backward compatibility"
      },
      "connectors(address)": {
        "details": "deprecated, backward compatibility"
      },
      "convert(address,address,uint256,address,address)": {
        "details": "converts a specific amount of source tokens to target tokens can only be called by the bancor network contract",
        "params": {
          "_amount": "amount of tokens to convert (in units of the source token)",
          "_beneficiary": "wallet to receive the conversion result",
          "_sourceToken": "source ERC20 token",
          "_targetToken": "target ERC20 token",
          "_trader": "address of the caller who executed the conversion"
        },
        "returns": {
          "_0": "amount of tokens received (in units of the target token)"
        }
      },
      "converterType()": {
        "details": "returns the converter type",
        "returns": {
          "_0": "see the converter types in the the main contract doc"
        }
      },
      "getConnectorBalance(address)": {
        "details": "deprecated, backward compatibility"
      },
      "getReturn(address,address,uint256)": {
        "details": "deprecated, backward compatibility"
      },
      "isActive()": {
        "details": "returns true if the converter is active, false otherwise",
        "returns": {
          "_0": "true if the converter is active, false otherwise"
        }
      },
      "isV28OrHigher()": {
        "details": "checks whether or not the converter version is 28 or higher",
        "returns": {
          "_0": "true, since the converter version is 28 or higher"
        }
      },
      "recentAverageRate(address)": {
        "details": "returns the recent average rate of 1 `_token` in the other reserve token units",
        "params": {
          "_token": "token to get the rate for"
        },
        "returns": {
          "_0": "recent average rate between the reserves (numerator)",
          "_1": "recent average rate between the reserves (denominator)"
        }
      },
      "removeLiquidity(uint256,address[],uint256[])": {
        "details": "decreases the pool's liquidity and burns the caller's shares in the pool",
        "params": {
          "_amount": "token amount",
          "_reserveMinReturnAmounts": "minimum return-amount of each reserve token",
          "_reserveTokens": "address of each reserve token"
        },
        "returns": {
          "_0": "the amount of each reserve token granted for the given amount of pool tokens"
        }
      },
      "removeLiquidity(uint256,uint256,uint256)": {
        "details": "decreases the pool's liquidity and burns the caller's shares in the pool this version receives the two minimum return amounts as separate args",
        "params": {
          "_amount": "token amount",
          "_reserve1MinReturn": "minimum return for the first reserve token",
          "_reserve2MinReturn": "minimum return for the second reserve token"
        },
        "returns": {
          "_0": "the first reserve amount returned",
          "_1": "the second reserve amount returned"
        }
      },
      "removeLiquidityReturn(uint256,address[])": {
        "details": "returns the amount of each reserve token entitled for a given amount of pool tokens",
        "params": {
          "_amount": "amount of pool tokens",
          "_reserveTokens": "address of each reserve token"
        },
        "returns": {
          "_0": "the amount of each reserve token entitled for the given amount of pool tokens"
        }
      },
      "reserveBalance(address)": {
        "details": "returns the balance of a given reserve token",
        "params": {
          "_reserveToken": "reserve token contract address"
        },
        "returns": {
          "_0": "the balance of the given reserve token"
        }
      },
      "reserveBalances()": {
        "details": "returns the balances of both reserve tokens",
        "returns": {
          "_0": "the balances of both reserve tokens"
        }
      },
      "reserveTokenCount()": {
        "details": "returns the number of reserve tokens note that prior to version 17, you should use 'connectorTokenCount' instead",
        "returns": {
          "_0": "number of reserve tokens"
        }
      },
      "reserveTokens()": {
        "details": "returns the array of reserve tokens",
        "returns": {
          "_0": "array of reserve tokens"
        }
      },
      "reserveWeight(address)": {
        "details": "returns the reserve's weight added in version 28",
        "params": {
          "_reserveToken": "reserve token contract address"
        },
        "returns": {
          "_0": "reserve weight"
        }
      },
      "restoreRegistry()": {
        "details": "restores the previous contract-registry"
      },
      "restrictRegistryUpdate(bool)": {
        "details": "restricts the permission to update the contract-registry",
        "params": {
          "_onlyOwnerCanUpdateRegistry": "indicates whether or not permission is restricted to owner only"
        }
      },
      "setConversionFee(uint32)": {
        "details": "updates the current conversion fee can only be called by the contract owner",
        "params": {
          "_conversionFee": "new conversion fee, represented in ppm"
        }
      },
      "sourceAmountAndFee(address,address,uint256)": {
        "details": "returns the required amount and expected fee for converting one reserve to another",
        "params": {
          "_amount": "amount of target reserve tokens desired",
          "_sourceToken": "address of the source reserve token contract",
          "_targetToken": "address of the target reserve token contract"
        },
        "returns": {
          "_0": "required amount in units of the source reserve token",
          "_1": "expected fee in units of the target reserve token"
        }
      },
      "targetAmountAndFee(address,address,uint256)": {
        "details": "returns the expected amount and expected fee for converting one reserve to another",
        "params": {
          "_amount": "amount of source reserve tokens converted",
          "_sourceToken": "address of the source reserve token contract",
          "_targetToken": "address of the target reserve token contract"
        },
        "returns": {
          "_0": "expected amount in units of the target reserve token",
          "_1": "expected fee in units of the target reserve token"
        }
      },
      "token()": {
        "details": "deprecated since version 28, backward compatibility - use only for earlier versions"
      },
      "transferAnchorOwnership(address)": {
        "details": "transfers the anchor ownership the new owner needs to accept the transfer can only be called by the converter upgrder while the upgrader is the owner note that prior to version 28, you should use 'transferAnchorOwnership' instead",
        "params": {
          "_newOwner": "new token owner"
        }
      },
      "transferOwnership(address)": {
        "details": "allows transferring the contract ownership the new owner still needs to accept the transfer can only be called by the contract owner",
        "params": {
          "_newOwner": "new contract owner"
        }
      },
      "transferTokenOwnership(address)": {
        "details": "deprecated, backward compatibility"
      },
      "updateRegistry()": {
        "details": "updates to the new contract-registry"
      },
      "upgrade()": {
        "details": "upgrades the converter to the latest version can only be called by the owner note that the owner needs to call acceptOwnership on the new converter after the upgrade"
      },
      "withdrawETH(address)": {
        "details": "withdraws ether can only be called by the owner if the converter is inactive or by upgrader contract can only be called after the upgrader contract has accepted the ownership of this contract can only be called if the converter has an ETH reserve",
        "params": {
          "_to": "address to send the ETH to"
        }
      },
      "withdrawTokens(address,address,uint256)": {
        "details": "withdraws tokens held by the converter and sends them to an account can only be called by the owner note that reserve tokens can only be withdrawn by the owner while the converter is inactive unless the owner is the converter upgrader contract",
        "params": {
          "_amount": "amount to withdraw",
          "_to": "account to receive the new amount",
          "_token": "ERC20 token contract address"
        }
      }
    },
    "version": 1
  },
  "userdoc": {
    "kind": "user",
    "methods": {},
    "version": 1
  }
}