{
  "contractName": "TestLiquidityProtection",
  "abi": [
    {
      "inputs": [
        {
          "internalType": "address[8]",
          "name": "_contractAddresses",
          "type": "address[8]"
        }
      ],
      "stateMutability": "nonpayable",
      "type": "constructor"
    },
    {
      "anonymous": false,
      "inputs": [
        {
          "indexed": true,
          "internalType": "address",
          "name": "_prevOwner",
          "type": "address"
        },
        {
          "indexed": true,
          "internalType": "address",
          "name": "_newOwner",
          "type": "address"
        }
      ],
      "name": "OwnerUpdate",
      "type": "event"
    },
    {
      "inputs": [],
      "name": "acceptOwnership",
      "outputs": [],
      "stateMutability": "nonpayable",
      "type": "function"
    },
    {
      "inputs": [],
      "name": "acceptStoreOwnership",
      "outputs": [],
      "stateMutability": "nonpayable",
      "type": "function"
    },
    {
      "inputs": [],
      "name": "acceptWalletOwnership",
      "outputs": [],
      "stateMutability": "nonpayable",
      "type": "function"
    },
    {
      "inputs": [
        {
          "internalType": "contract IConverterAnchor",
          "name": "_poolAnchor",
          "type": "address"
        },
        {
          "internalType": "contract IERC20",
          "name": "_reserveToken",
          "type": "address"
        },
        {
          "internalType": "uint256",
          "name": "_amount",
          "type": "uint256"
        }
      ],
      "name": "addLiquidity",
      "outputs": [
        {
          "internalType": "uint256",
          "name": "",
          "type": "uint256"
        }
      ],
      "stateMutability": "payable",
      "type": "function"
    },
    {
      "inputs": [
        {
          "internalType": "address",
          "name": "_owner",
          "type": "address"
        },
        {
          "internalType": "contract IConverterAnchor",
          "name": "_poolAnchor",
          "type": "address"
        },
        {
          "internalType": "contract IERC20",
          "name": "_reserveToken",
          "type": "address"
        },
        {
          "internalType": "uint256",
          "name": "_amount",
          "type": "uint256"
        }
      ],
      "name": "addLiquidityFor",
      "outputs": [
        {
          "internalType": "uint256",
          "name": "",
          "type": "uint256"
        }
      ],
      "stateMutability": "payable",
      "type": "function"
    },
    {
      "inputs": [
        {
          "internalType": "contract IConverterAnchor",
          "name": "_poolAnchor",
          "type": "address"
        }
      ],
      "name": "baseTokenAvailableSpace",
      "outputs": [
        {
          "internalType": "uint256",
          "name": "",
          "type": "uint256"
        }
      ],
      "stateMutability": "view",
      "type": "function"
    },
    {
      "inputs": [
        {
          "internalType": "uint256",
          "name": "_startIndex",
          "type": "uint256"
        },
        {
          "internalType": "uint256",
          "name": "_endIndex",
          "type": "uint256"
        }
      ],
      "name": "claimBalance",
      "outputs": [],
      "stateMutability": "nonpayable",
      "type": "function"
    },
    {
      "inputs": [],
      "name": "currentTime",
      "outputs": [
        {
          "internalType": "uint256",
          "name": "",
          "type": "uint256"
        }
      ],
      "stateMutability": "view",
      "type": "function"
    },
    {
      "inputs": [],
      "name": "govToken",
      "outputs": [
        {
          "internalType": "contract IERC20",
          "name": "",
          "type": "address"
        }
      ],
      "stateMutability": "view",
      "type": "function"
    },
    {
      "inputs": [],
      "name": "govTokenGovernance",
      "outputs": [
        {
          "internalType": "contract ITokenGovernance",
          "name": "",
          "type": "address"
        }
      ],
      "stateMutability": "view",
      "type": "function"
    },
    {
      "inputs": [],
      "name": "lastRemoveCheckpointStore",
      "outputs": [
        {
          "internalType": "contract ICheckpointStore",
          "name": "",
          "type": "address"
        }
      ],
      "stateMutability": "view",
      "type": "function"
    },
    {
      "inputs": [],
      "name": "networkToken",
      "outputs": [
        {
          "internalType": "contract IERC20",
          "name": "",
          "type": "address"
        }
      ],
      "stateMutability": "view",
      "type": "function"
    },
    {
      "inputs": [
        {
          "internalType": "contract IConverterAnchor",
          "name": "_poolAnchor",
          "type": "address"
        }
      ],
      "name": "networkTokenAvailableSpace",
      "outputs": [
        {
          "internalType": "uint256",
          "name": "",
          "type": "uint256"
        }
      ],
      "stateMutability": "view",
      "type": "function"
    },
    {
      "inputs": [],
      "name": "networkTokenGovernance",
      "outputs": [
        {
          "internalType": "contract ITokenGovernance",
          "name": "",
          "type": "address"
        }
      ],
      "stateMutability": "view",
      "type": "function"
    },
    {
      "inputs": [],
      "name": "newOwner",
      "outputs": [
        {
          "internalType": "address",
          "name": "",
          "type": "address"
        }
      ],
      "stateMutability": "view",
      "type": "function"
    },
    {
      "inputs": [],
      "name": "owner",
      "outputs": [
        {
          "internalType": "address",
          "name": "",
          "type": "address"
        }
      ],
      "stateMutability": "view",
      "type": "function"
    },
    {
      "inputs": [
        {
          "internalType": "contract IConverterAnchor",
          "name": "_poolAnchor",
          "type": "address"
        }
      ],
      "name": "poolAvailableSpace",
      "outputs": [
        {
          "internalType": "uint256",
          "name": "",
          "type": "uint256"
        },
        {
          "internalType": "uint256",
          "name": "",
          "type": "uint256"
        }
      ],
      "stateMutability": "view",
      "type": "function"
    },
    {
      "inputs": [
        {
          "internalType": "contract IDSToken",
          "name": "_poolToken",
          "type": "address"
        },
        {
          "internalType": "contract IERC20",
          "name": "_reserveToken",
          "type": "address"
        },
        {
          "internalType": "uint256",
          "name": "_reserveAmount",
          "type": "uint256"
        },
        {
          "internalType": "uint256",
          "name": "_poolRateN",
          "type": "uint256"
        },
        {
          "internalType": "uint256",
          "name": "_poolRateD",
          "type": "uint256"
        },
        {
          "internalType": "uint256",
          "name": "_reserveRateN",
          "type": "uint256"
        },
        {
          "internalType": "uint256",
          "name": "_reserveRateD",
          "type": "uint256"
        }
      ],
      "name": "poolROI",
      "outputs": [
        {
          "internalType": "uint256",
          "name": "",
          "type": "uint256"
        }
      ],
      "stateMutability": "view",
      "type": "function"
    },
    {
      "inputs": [
        {
          "internalType": "uint256",
          "name": "_id",
          "type": "uint256"
        },
        {
          "internalType": "uint32",
          "name": "_portion",
          "type": "uint32"
        }
      ],
      "name": "removeLiquidity",
      "outputs": [],
      "stateMutability": "nonpayable",
      "type": "function"
    },
    {
      "inputs": [
        {
          "internalType": "uint256",
          "name": "_id",
          "type": "uint256"
        },
        {
          "internalType": "uint32",
          "name": "_portion",
          "type": "uint32"
        },
        {
          "internalType": "uint256",
          "name": "_removeTimestamp",
          "type": "uint256"
        }
      ],
      "name": "removeLiquidityReturn",
      "outputs": [
        {
          "internalType": "uint256",
          "name": "",
          "type": "uint256"
        },
        {
          "internalType": "uint256",
          "name": "",
          "type": "uint256"
        },
        {
          "internalType": "uint256",
          "name": "",
          "type": "uint256"
        }
      ],
      "stateMutability": "view",
      "type": "function"
    },
    {
      "inputs": [
        {
          "internalType": "uint256",
          "name": "_currentTime",
          "type": "uint256"
        }
      ],
      "name": "setTime",
      "outputs": [],
      "stateMutability": "nonpayable",
      "type": "function"
    },
    {
      "inputs": [],
      "name": "settings",
      "outputs": [
        {
          "internalType": "contract ILiquidityProtectionSettings",
          "name": "",
          "type": "address"
        }
      ],
      "stateMutability": "view",
      "type": "function"
    },
    {
      "inputs": [],
      "name": "stats",
      "outputs": [
        {
          "internalType": "contract ILiquidityProtectionStats",
          "name": "",
          "type": "address"
        }
      ],
      "stateMutability": "view",
      "type": "function"
    },
    {
      "inputs": [],
      "name": "store",
      "outputs": [
        {
          "internalType": "contract ILiquidityProtectionStore",
          "name": "",
          "type": "address"
        }
      ],
      "stateMutability": "view",
      "type": "function"
    },
    {
      "inputs": [],
      "name": "systemStore",
      "outputs": [
        {
          "internalType": "contract ILiquidityProtectionSystemStore",
          "name": "",
          "type": "address"
        }
      ],
      "stateMutability": "view",
      "type": "function"
    },
    {
      "inputs": [
        {
          "internalType": "address",
          "name": "_newOwner",
          "type": "address"
        }
      ],
      "name": "transferOwnership",
      "outputs": [],
      "stateMutability": "nonpayable",
      "type": "function"
    },
    {
      "inputs": [
        {
          "internalType": "address",
          "name": "_newOwner",
          "type": "address"
        }
      ],
      "name": "transferStoreOwnership",
      "outputs": [],
      "stateMutability": "nonpayable",
      "type": "function"
    },
    {
      "inputs": [
        {
          "internalType": "address",
          "name": "_newOwner",
          "type": "address"
        }
      ],
      "name": "transferWalletOwnership",
      "outputs": [],
      "stateMutability": "nonpayable",
      "type": "function"
    },
    {
      "inputs": [],
      "name": "wallet",
      "outputs": [
        {
          "internalType": "contract ITokenHolder",
          "name": "",
          "type": "address"
        }
      ],
      "stateMutability": "view",
      "type": "function"
    },
    {
      "stateMutability": "payable",
      "type": "receive"
    },
    {
      "inputs": [
        {
          "internalType": "uint256",
          "name": "_poolAmount",
          "type": "uint256"
        },
        {
          "internalType": "uint256",
          "name": "_poolRateN",
          "type": "uint256"
        },
        {
          "internalType": "uint256",
          "name": "_poolRateD",
          "type": "uint256"
        },
        {
          "internalType": "uint256",
          "name": "_addRateN",
          "type": "uint256"
        },
        {
          "internalType": "uint256",
          "name": "_addRateD",
          "type": "uint256"
        },
        {
          "internalType": "uint256",
          "name": "_removeRateN",
          "type": "uint256"
        },
        {
          "internalType": "uint256",
          "name": "_removeRateD",
          "type": "uint256"
        }
      ],
      "name": "protectedAmountPlusFeeTest",
      "outputs": [
        {
          "internalType": "uint256",
          "name": "",
          "type": "uint256"
        }
      ],
      "stateMutability": "pure",
      "type": "function"
    },
    {
      "inputs": [
        {
          "internalType": "uint256",
          "name": "_initialRateN",
          "type": "uint256"
        },
        {
          "internalType": "uint256",
          "name": "_initialRateD",
          "type": "uint256"
        },
        {
          "internalType": "uint256",
          "name": "_currentRateN",
          "type": "uint256"
        },
        {
          "internalType": "uint256",
          "name": "_currentRateD",
          "type": "uint256"
        }
      ],
      "name": "impLossTest",
      "outputs": [
        {
          "internalType": "uint256",
          "name": "",
          "type": "uint256"
        },
        {
          "internalType": "uint256",
          "name": "",
          "type": "uint256"
        }
      ],
      "stateMutability": "pure",
      "type": "function"
    },
    {
      "inputs": [
        {
          "internalType": "uint256",
          "name": "_amount",
          "type": "uint256"
        },
        {
          "internalType": "uint256",
          "name": "_total",
          "type": "uint256"
        },
        {
          "internalType": "uint256",
          "name": "_lossN",
          "type": "uint256"
        },
        {
          "internalType": "uint256",
          "name": "_lossD",
          "type": "uint256"
        },
        {
          "internalType": "uint256",
          "name": "_levelN",
          "type": "uint256"
        },
        {
          "internalType": "uint256",
          "name": "_levelD",
          "type": "uint256"
        }
      ],
      "name": "compensationAmountTest",
      "outputs": [
        {
          "internalType": "uint256",
          "name": "",
          "type": "uint256"
        }
      ],
      "stateMutability": "pure",
      "type": "function"
    },
    {
      "inputs": [
        {
          "internalType": "contract IDSToken",
          "name": "_poolToken",
          "type": "address"
        },
        {
          "internalType": "contract IERC20",
          "name": "_reserveToken",
          "type": "address"
        }
      ],
      "name": "averageRateTest",
      "outputs": [
        {
          "internalType": "uint256",
          "name": "",
          "type": "uint256"
        },
        {
          "internalType": "uint256",
          "name": "",
          "type": "uint256"
        }
      ],
      "stateMutability": "view",
      "type": "function"
    },
    {
      "inputs": [
        {
          "internalType": "uint256",
          "name": "_poolTokenRateN",
          "type": "uint256"
        },
        {
          "internalType": "uint256",
          "name": "_poolTokenRateD",
          "type": "uint256"
        },
        {
          "internalType": "uint256",
          "name": "_poolAmount",
          "type": "uint256"
        },
        {
          "internalType": "uint256",
          "name": "_reserveAmount",
          "type": "uint256"
        },
        {
          "internalType": "uint128",
          "name": "_addSpotRateN",
          "type": "uint128"
        },
        {
          "internalType": "uint128",
          "name": "_addSpotRateD",
          "type": "uint128"
        },
        {
          "internalType": "uint128",
          "name": "_removeSpotRateN",
          "type": "uint128"
        },
        {
          "internalType": "uint128",
          "name": "_removeSpotRateD",
          "type": "uint128"
        },
        {
          "internalType": "uint128",
          "name": "_removeAverageRateN",
          "type": "uint128"
        },
        {
          "internalType": "uint128",
          "name": "_removeAverageRateD",
          "type": "uint128"
        },
        {
          "internalType": "uint256",
          "name": "_addTimestamp",
          "type": "uint256"
        },
        {
          "internalType": "uint256",
          "name": "_removeTimestamp",
          "type": "uint256"
        }
      ],
      "name": "removeLiquidityTargetAmountTest",
      "outputs": [
        {
          "internalType": "uint256",
          "name": "",
          "type": "uint256"
        }
      ],
      "stateMutability": "nonpayable",
      "type": "function"
    }
  ],
  "bytecode": "0x6101c0604052600160028190556003805460ff191690556004553480156200002657600080fd5b5060405162005d1338038062005d1383398181016040526101008110156200004d57600080fd5b50600080546001600160a01b0319163317815581905b60088110156200009257620000898282600881106200007e57fe5b60200201516200020f565b60010162000063565b5080516001600160601b0319606091821b81166080908152602080850151841b831660a0908152604080870151861b851660c090815286880151871b861660e090815294880151871b8616610100529187018051871b86166101405291870151861b8516610180529286015190941b9092166101a05291518251637e062a3560e11b815292516001600160a01b039091169263fc0c546a926004828101939192829003018186803b1580156200014757600080fd5b505afa1580156200015c573d6000803e3d6000fd5b505050506040513d60208110156200017357600080fd5b505160601b6001600160601b0319166101205280600660200201516001600160a01b031663fc0c546a6040518163ffffffff1660e01b815260040160206040518083038186803b158015620001c757600080fd5b505afa158015620001dc573d6000803e3d6000fd5b505050506040513d6020811015620001f357600080fd5b505160601b6001600160601b03191661016052506200026e9050565b6001600160a01b0381166200026b576040805162461bcd60e51b815260206004820152601360248201527f4552525f494e56414c49445f4144445245535300000000000000000000000000604482015290519081900360640190fd5b50565b60805160601c60a05160601c60c05160601c60e05160601c6101005160601c6101205160601c6101405160601c6101605160601c6101805160601c6101a05160601c6158e96200042a6000398061149c52806128b65250806116a65280612a2f52806145825250806108755280612a035250806108995280612f555280613e2f52806142ce5250806108f452806109ca5280610d2c5280610dcb5280610f64528061147652806125bd528061335c52508061093c52806109fc5280610cfd52806113d35280612b245280612cd95280612fc45280614a0952508061100c52806111f15280611d7c5280611e79528061293d5280612b965280612c465280613ebe528061434c52806144c3528061485a5280614a385250806116ca52806128525280614e235280614edc525080610a5d5280610c62528061121d528061133c52806114c852806120a3528061266b52806127a05280613fe65280614f9052508061156f52806116ee52806119715280611a525280611b385280611c525280611cf2528061250a528061321452806138b352806139565280613bd75280613f57528061463f528061472c52806147cc5280614c0a52506158e96000f3fe6080604052600436106101fd5760003560e01c8063975057e71161010d578063d18e81b3116100a0578063e06174e41161006f578063e06174e41461075f578063e4a7672614610774578063f2fde38b146107aa578063fb0f25fc146107dd578063fb1a8bd31461082b5761025b565b8063d18e81b31461070b578063d4ee1d9014610720578063d79dabae14610735578063d80528ae1461074a5761025b565b8063c21fe133116100dc578063c21fe1331461062c578063c2250a9914610641578063c83df66314610674578063caee4c8f146106cf5761025b565b8063975057e714610575578063ae245a721461058a578063bf3b1101146105c6578063c0b27431146105f95761025b565b8063630d8c631161019057806379ba50971161015f57806379ba50971461049b578063879015e8146104b057806389d94b46146104c55780638da5cb5b146104da57806393e1c1d4146104ef5761025b565b8063630d8c63146103c65780636ca95a4e146103f65780636d533e9b1461040b578063782ed90c146104655761025b565b806328790b5a116101cc57806328790b5a1461032d57806334b31061146103425780633beb26c414610387578063521eb273146103b15761025b565b806305268cff146102605780630529fa3d14610291578063210f7207146102a657806324afe2d9146102fa5761025b565b3661025b5760035460ff16610259576040805162461bcd60e51b815260206004820152601a60248201527f4552525f4e4f545f5550444154494e475f4c4951554944495459000000000000604482015290519081900360640190fd5b005b600080fd5b34801561026c57600080fd5b50610275610873565b604080516001600160a01b039092168252519081900360200190f35b34801561029d57600080fd5b50610275610897565b3480156102b257600080fd5b506102e1600480360360408110156102c957600080fd5b506001600160a01b03813581169160200135166108bb565b6040805192835260208301919091528051918290030190f35b34801561030657600080fd5b506102e16004803603602081101561031d57600080fd5b50356001600160a01b03166108dc565b34801561033957600080fd5b50610259610932565b34801561034e57600080fd5b506103756004803603602081101561036557600080fd5b50356001600160a01b03166109af565b60408051918252519081900360200190f35b34801561039357600080fd5b50610259600480360360208110156103aa57600080fd5b50356109f5565b3480156103bd57600080fd5b506102756109fa565b3480156103d257600080fd5b50610259600480360360408110156103e957600080fd5b5080359060200135610a1e565b34801561040257600080fd5b50610275610dc9565b34801561041757600080fd5b506104476004803603606081101561042e57600080fd5b5080359063ffffffff6020820135169060400135610ded565b60408051938452602084019290925282820152519081900360600190f35b34801561047157600080fd5b506102596004803603604081101561048857600080fd5b508035906020013563ffffffff1661110d565b3480156104a757600080fd5b50610259611138565b3480156104bc57600080fd5b506102756111ef565b3480156104d157600080fd5b50610259611213565b3480156104e657600080fd5b50610275611276565b3480156104fb57600080fd5b50610375600480360361018081101561051357600080fd5b508035906020810135906040810135906060810135906001600160801b03608082013581169160a081013582169160c082013581169160e081013582169161010082013581169161012081013590911690610140810135906101600135611285565b34801561058157600080fd5b5061027561133a565b34801561059657600080fd5b506102e1600480360360808110156105ad57600080fd5b508035906020810135906040810135906060013561135e565b3480156105d257600080fd5b50610259600480360360208110156105e957600080fd5b50356001600160a01b03166113c9565b34801561060557600080fd5b506103756004803603602081101561061c57600080fd5b50356001600160a01b031661145b565b34801561063857600080fd5b5061027561149a565b34801561064d57600080fd5b506102596004803603602081101561066457600080fd5b50356001600160a01b03166114be565b34801561068057600080fd5b50610375600480360360e081101561069757600080fd5b506001600160a01b03813581169160208101359091169060408101359060608101359060808101359060a08101359060c00135611535565b610375600480360360808110156106e557600080fd5b506001600160a01b0381358116916020810135821691604082013516906060013561162f565b34801561071757600080fd5b5061037561168f565b34801561072c57600080fd5b50610275611695565b34801561074157600080fd5b506102756116a4565b34801561075657600080fd5b506102756116c8565b34801561076b57600080fd5b506102756116ec565b6103756004803603606081101561078a57600080fd5b506001600160a01b03813581169160208101359091169060400135611710565b3480156107b657600080fd5b50610259600480360360208110156107cd57600080fd5b50356001600160a01b0316611764565b3480156107e957600080fd5b50610375600480360360e081101561080057600080fd5b5080359060208101359060408101359060608101359060808101359060a08101359060c001356117e2565b34801561083757600080fd5b50610375600480360360c081101561084e57600080fd5b5080359060208101359060408101359060608101359060808101359060a0013561184d565b7f000000000000000000000000000000000000000000000000000000000000000081565b7f000000000000000000000000000000000000000000000000000000000000000081565b6000806000806108cd868660016118a6565b90999098509650505050505050565b600080826108e981611a50565b6108f281611b36565b7f000000000000000000000000000000000000000000000000000000000000000061091d8582611c20565b6109278683611e43565b935093505050915091565b61093a611f25565b7f00000000000000000000000000000000000000000000000000000000000000006001600160a01b03166379ba50976040518163ffffffff1660e01b8152600401600060405180830381600087803b15801561099557600080fd5b505af11580156109a9573d6000803e3d6000fd5b50505050565b6000816109bb81611a50565b6109c481611b36565b6109ee837f0000000000000000000000000000000000000000000000000000000000000000611c20565b9392505050565b600455565b7f000000000000000000000000000000000000000000000000000000000000000081565b610a26611f7a565b6002805560408051637a1036f560e11b81523360048201526024810184905260448101839052905160609182916001600160a01b037f0000000000000000000000000000000000000000000000000000000000000000169163f4206dea916064808301926000929190829003018186803b158015610aa357600080fd5b505afa158015610ab7573d6000803e3d6000fd5b505050506040513d6000823e601f3d908101601f191682016040908152811015610ae057600080fd5b8101908080516040519392919084600160201b821115610aff57600080fd5b908301906020820185811115610b1457600080fd5b82518660208202830111600160201b82111715610b3057600080fd5b82525081516020918201928201910280838360005b83811015610b5d578181015183820152602001610b45565b5050505090500160405260200180516040519392919084600160201b821115610b8557600080fd5b908301906020820185811115610b9a57600080fd5b82518660208202830111600160201b82111715610bb657600080fd5b82525081516020918201928201910280838360005b83811015610be3578181015183820152602001610bcb565b50505050905001604052505050915091506000808351905082518114610c0557fe5b805b8015610cf4576000198101610c1a611fc2565b858281518110610c2657fe5b60200260200101511115610c3a5750610ceb565b604080516390e0661b60e01b8152336004820152898301602482015290516001600160a01b037f000000000000000000000000000000000000000000000000000000000000000016916390e0661b91604480830192600092919082900301818387803b158015610ca957600080fd5b505af1158015610cbd573d6000803e3d6000fd5b50505050610ce7868281518110610cd057fe5b602002602001015185611fd190919063ffffffff16565b9350505b60001901610c07565b508115610dbc577f00000000000000000000000000000000000000000000000000000000000000006001600160a01b0316635e35359e7f000000000000000000000000000000000000000000000000000000000000000033856040518463ffffffff1660e01b815260040180846001600160a01b03168152602001836001600160a01b031681526020018281526020019350505050600060405180830381600087803b158015610da357600080fd5b505af1158015610db7573d6000803e3d6000fd5b505050505b5050600160025550505050565b7f000000000000000000000000000000000000000000000000000000000000000081565b600080600084610dfc8161202b565b610e0461575d565b610e0d88612091565b80519091506001600160a01b0316610e5d576040805162461bcd60e51b815260206004820152600e60248201526d11549497d253959053125117d25160921b604482015290519081900360640190fd5b8060e00151861015610eae576040805162461bcd60e51b815260206004820152601560248201527404552525f494e56414c49445f54494d455354414d5605c1b604482015290519081900360640190fd5b63ffffffff8716620f424014610f13576060810151620f424090610edb9063ffffffff8a81169061219b16565b81610ee257fe5b0460608201526080810151620f424090610f059063ffffffff8a81169061219b16565b81610f0c57fe5b0460808201525b610f1b6157bd565b610f39826020015183604001518460a001518560c0015160006121f4565b90506000610f608360200151846040015185606001518660800151868860e001518e612309565b90507f00000000000000000000000000000000000000000000000000000000000000006001600160a01b031683604001516001600160a01b03161415610fb157955085945060009350611103915050565b610fb96157f2565b610fcb8460200151856040015161241f565b90506000610ffe6002836000015181610fe057fe5b04610ff884602001518661219b90919063ffffffff16565b90612459565b905060006110ad86606001517f00000000000000000000000000000000000000000000000000000000000000006001600160a01b0316635121220c89602001516040518263ffffffff1660e01b815260040180826001600160a01b0316815260200191505060206040518083038186803b15801561107b57600080fd5b505afa15801561108f573d6000803e3d6000fd5b505050506040513d60208110156110a557600080fd5b505190611fd1565b90508082116110bc57816110be565b805b915060006110e48460200151610ff860028760000151816110db57fe5b8791900461219b565b905060006110f38683896124c0565b959b509099509397505050505050505b5093509350939050565b611115611f7a565b60028055806111238161202b565b61112e3384846125a5565b5050600160025550565b6001546001600160a01b0316331461118b576040805162461bcd60e51b815260206004820152601160248201527011549497d050d0d154d4d7d11153925151607a1b604482015290519081900360640190fd5b600154600080546040516001600160a01b0393841693909116917f343765429aea5a34b3ff6a3785a98a5abb2597aca87bfbb58632c173d585373a91a360018054600080546001600160a01b03199081166001600160a01b03841617909155169055565b7f000000000000000000000000000000000000000000000000000000000000000081565b61121b611f25565b7f00000000000000000000000000000000000000000000000000000000000000006001600160a01b03166379ba50976040518163ffffffff1660e01b8152600401600060405180830381600087803b15801561099557600080fd5b6000546001600160a01b031681565b6005805460ff1916600117905560068c905560078b905560006112a66157bd565b6040518060c001604052808b6001600160801b031681526020018a6001600160801b03168152602001896001600160801b03168152602001886001600160801b03168152602001876001600160801b03168152602001866001600160801b03168152509050600061131d6000808f8f868a8a612309565b6005805460ff191690559f9e505050505050505050505050505050565b7f000000000000000000000000000000000000000000000000000000000000000081565b6000806113696157f2565b60405180604001604052808881526020018781525090506113886157f2565b60405180604001604052808781526020018681525090506113a76157f2565b6113b18383613096565b8051602090910151909a909950975050505050505050565b6113d1611f25565b7f00000000000000000000000000000000000000000000000000000000000000006001600160a01b031663f2fde38b826040518263ffffffff1660e01b815260040180826001600160a01b03168152602001915050600060405180830381600087803b15801561144057600080fd5b505af1158015611454573d6000803e3d6000fd5b5050505050565b60008161146781611a50565b61147081611b36565b6109ee837f0000000000000000000000000000000000000000000000000000000000000000611e43565b7f000000000000000000000000000000000000000000000000000000000000000081565b6114c6611f25565b7f00000000000000000000000000000000000000000000000000000000000000006001600160a01b031663f2fde38b826040518263ffffffff1660e01b815260040180826001600160a01b03168152602001915050600060405180830381600087803b15801561144057600080fd5b60008061154686610ff8898861219b565b90506115506157bd565b61155e8a8a878760006121f4565b9050600061160d8b8b858c866116007f00000000000000000000000000000000000000000000000000000000000000006001600160a01b031663ce3f3adb6040518163ffffffff1660e01b815260040160206040518083038186803b1580156115c657600080fd5b505afa1580156115da573d6000803e3d6000fd5b505050506040513d60208110156115f057600080fd5b50516115fa611fc2565b90613164565b611608611fc2565b612309565b905061162089610ff883620f424061219b565b9b9a5050505050505050505050565b6000611639611f7a565b6002805584611647816131c1565b8461165181611a50565b61165a81611b36565b85856116668282613212565b8561167081613312565b61167c8a8a8a8a613358565b60016002559a9950505050505050505050565b60045481565b6001546001600160a01b031681565b7f000000000000000000000000000000000000000000000000000000000000000081565b7f000000000000000000000000000000000000000000000000000000000000000081565b7f000000000000000000000000000000000000000000000000000000000000000081565b600061171a611f7a565b600280558361172881611a50565b61173181611b36565b848461173d8282613212565b8461174781613312565b61175333898989613358565b600160025598975050505050505050565b61176c611f25565b6000546001600160a01b03828116911614156117c0576040805162461bcd60e51b815260206004820152600e60248201526d22a9292fa9a0a6a2afa7aba722a960911b604482015290519081900360640190fd5b600180546001600160a01b0319166001600160a01b0392909216919091179055565b60006117ec6157f2565b604051806040016040528089815260200188815250905061180b6157f2565b604051806040016040528088815260200187815250905061182a6157f2565b60405180604001604052808781526020018681525090506116208b8484846133fb565b60006118576157f2565b60405180604001604052808781526020018681525090506118766157f2565b604051806040016040528086815260200185815250905061189989898484613506565b9998505050505050505050565b60008060008060006118b788613596565b905060006118c58289613603565b90506000806118d584848c613706565b91509150600080856001600160a01b0316631f0181bc8d6040518263ffffffff1660e01b815260040180826001600160a01b03168152602001915050604080518083038186803b15801561192857600080fd5b505afa15801561193c573d6000803e3d6000fd5b505050506040513d604081101561195257600080fd5b50805160209091015190925090508a15806119f957506119f9848484847f00000000000000000000000000000000000000000000000000000000000000006001600160a01b03166324a088686040518163ffffffff1660e01b815260040160206040518083038186803b1580156119c857600080fd5b505afa1580156119dc573d6000803e3d6000fd5b505050506040513d60208110156119f257600080fd5b5051613806565b611a3d576040805162461bcd60e51b815260206004820152601060248201526f4552525f494e56414c49445f5241544560801b604482015290519081900360640190fd5b929c919b50995090975095505050505050565b7f00000000000000000000000000000000000000000000000000000000000000006001600160a01b031663d4f63148826040518263ffffffff1660e01b815260040180826001600160a01b0316815260200191505060206040518083038186803b158015611abd57600080fd5b505afa158015611ad1573d6000803e3d6000fd5b505050506040513d6020811015611ae757600080fd5b5051611b33576040805162461bcd60e51b815260206004820152601660248201527511549497d413d3d317d393d517d4d5541413d495115160521b604482015290519081900360640190fd5b50565b7f00000000000000000000000000000000000000000000000000000000000000006001600160a01b0316632b26a982826040518263ffffffff1660e01b815260040180826001600160a01b0316815260200191505060206040518083038186803b158015611ba357600080fd5b505afa158015611bb7573d6000803e3d6000fd5b505050506040513d6020811015611bcd57600080fd5b5051611b33576040805162461bcd60e51b815260206004820152601860248201527f4552525f504f4f4c5f4e4f545f57484954454c49535445440000000000000000604482015290519081900360640190fd5b600080611c2c84613596565b90506000611c3a8285613603565b9050600080611c4a848488613706565b9150915060007f00000000000000000000000000000000000000000000000000000000000000006001600160a01b031663943fd08a896040518263ffffffff1660e01b815260040180826001600160a01b0316815260200191505060206040518083038186803b158015611cbd57600080fd5b505afa158015611cd1573d6000803e3d6000fd5b505050506040513d6020811015611ce757600080fd5b5051905080611d78577f00000000000000000000000000000000000000000000000000000000000000006001600160a01b031663b97b55ce6040518163ffffffff1660e01b815260040160206040518083038186803b158015611d4957600080fd5b505afa158015611d5d573d6000803e3d6000fd5b505050506040513d6020811015611d7357600080fd5b505190505b60007f00000000000000000000000000000000000000000000000000000000000000006001600160a01b031663350ed8e78a6040518263ffffffff1660e01b815260040180826001600160a01b0316815260200191505060206040518083038186803b158015611de757600080fd5b505afa158015611dfb573d6000803e3d6000fd5b505050506040513d6020811015611e1157600080fd5b50519050600081611e22848261387d565b039050611e3384610ff8838861219b565b9750505050505050505b92915050565b600082611e4e6157f2565b611e58828561241f565b9050611f1c8160200151610ff860016115fa8560000151611f1687600001517f00000000000000000000000000000000000000000000000000000000000000006001600160a01b0316635121220c8b6040518263ffffffff1660e01b815260040180826001600160a01b0316815260200191505060206040518083038186803b158015611ee457600080fd5b505afa158015611ef8573d6000803e3d6000fd5b505050506040513d6020811015611f0e57600080fd5b50519061219b565b90611fd1565b95945050505050565b6000546001600160a01b03163314611f78576040805162461bcd60e51b815260206004820152601160248201527011549497d050d0d154d4d7d11153925151607a1b604482015290519081900360640190fd5b565b600160025414611f78576040805162461bcd60e51b815260206004820152600e60248201526d4552525f5245454e5452414e435960901b604482015290519081900360640190fd5b6000611fcc613893565b905090565b6000828201838110156109ee576040805162461bcd60e51b815260206004820152601b60248201527f536166654d6174683a206164646974696f6e206f766572666c6f770000000000604482015290519081900360640190fd5b60008163ffffffff1611801561204a5750620f424063ffffffff821611155b611b33576040805162461bcd60e51b815260206004820152601360248201527222a9292fa4a72b20a624a22fa827a92a24a7a760691b604482015290519081900360640190fd5b61209961575d565b6120a161575d565b7f00000000000000000000000000000000000000000000000000000000000000006001600160a01b0316635290ffbb846040518263ffffffff1660e01b8152600401808281526020019150506101006040518083038186803b15801561210657600080fd5b505afa15801561211a573d6000803e3d6000fd5b505050506040513d61010081101561213157600080fd5b50805160208083015160408085015160608087015160808089015160a0808b015160c0808d015160e09d8e01519d8f019d909d528d019b909b528b01999099528901979097528701959095526001600160a01b039485169086015283169084015216815292915050565b6000826121aa57506000611e3d565b828202828482816121b757fe5b04146109ee5760405162461bcd60e51b81526004018080602001828103825260218152602001806158336021913960400191505060405180910390fd5b6121fc6157bd565b60008060008061220d8a8a886118a6565b93509350935093506001600160801b03881115801561223357506001600160801b038711155b801561225857506001600160801b03841115801561225857506001600160801b038311155b801561227d57506001600160801b03821115801561227d57506001600160801b038111155b6122c1576040805162461bcd60e51b815260206004820152601060248201526f4552525f494e56414c49445f5241544560801b604482015290519081900360640190fd5b6040805160c0810182526001600160801b03998a16815297891660208901529388169387019390935290861660608601528516608085015290931660a0830152509392505050565b60006123136157f2565b61231d898961241f565b90506123276157f2565b604051806040016040528087600001516001600160801b0316815260200187602001516001600160801b031681525090506123606157f2565b50604080518082018252908701516001600160801b039081168252606088015116602082015261238e6157f2565b604051806040016040528089608001516001600160801b031681526020018960a001516001600160801b0316815250905060006123cd8b8686866133fb565b90506123d76157f2565b6123e18584613096565b90506123eb6157f2565b6123f58a8a613899565b905061240c8c6124058e8661387d565b8484613506565b9f9e505050505050505050505050505050565b6124276157f2565b60055460ff161561244f57506040805180820190915260065481526007546020820152611e3d565b6109ee8383613a35565b60008082116124af576040805162461bcd60e51b815260206004820152601a60248201527f536166654d6174683a206469766973696f6e206279207a65726f000000000000604482015290519081900360640190fd5b8183816124b857fe5b049392505050565b60008284116124d1575060006109ee565b60006125068360a001516001600160801b0316610ff885608001516001600160801b031687890361219b90919063ffffffff16565b90507f00000000000000000000000000000000000000000000000000000000000000006001600160a01b031663a80c76ff6040518163ffffffff1660e01b815260040160206040518083038186803b15801561256157600080fd5b505afa158015612575573d6000803e3d6000fd5b505050506040513d602081101561258b57600080fd5b5051811061259a5790506109ee565b506000949350505050565b6125ad61575d565b6125b78385613b5a565b905060007f000000000000000000000000000000000000000000000000000000000000000090506125eb8260200151611b36565b6125f3611fc2565b8260e001511061263a576040805162461bcd60e51b815260206004820152600d60248201526c4552525f544f4f5f4541524c5960981b604482015290519081900360640190fd5b63ffffffff8316620f424014156126ec5761266984868460200151856040015186606001518760800151613bd3565b7f00000000000000000000000000000000000000000000000000000000000000006001600160a01b0316636f366b71856040518263ffffffff1660e01b815260040180828152602001915050600060405180830381600087803b1580156126cf57600080fd5b505af11580156126e3573d6000803e3d6000fd5b50505050612802565b60608201516080830151620f424061270d8363ffffffff8881169061219b16565b8161271457fe5b0460608501526080840151620f4240906127379063ffffffff8881169061219b16565b8161273e57fe5b0484608001818152505061276686888660200151876040015188606001518960800151613bd3565b606084015160808501516040805163161139bd60e31b8152600481018a905292850360248401529083036044830152516001600160a01b037f0000000000000000000000000000000000000000000000000000000000000000169163b089cde891606480830192600092919082900301818387803b1580156127e757600080fd5b505af11580156127fb573d6000803e3d6000fd5b5050505050505b815160208301516040808501516060860151608087015183516327396b6d60e01b81526001600160a01b0396871660048201529486166024860152918516604485015260648401526084830152517f0000000000000000000000000000000000000000000000000000000000000000909216916327396b6d9160a48082019260009290919082900301818387803b15801561289c57600080fd5b505af11580156128b0573d6000803e3d6000fd5b505050507f00000000000000000000000000000000000000000000000000000000000000006001600160a01b0316631d092adf866040518263ffffffff1660e01b815260040180826001600160a01b03168152602001915050600060405180830381600087803b15801561292357600080fd5b505af1158015612937573d6000803e3d6000fd5b505050507f00000000000000000000000000000000000000000000000000000000000000006001600160a01b031663332100fa836020015184606001516040518363ffffffff1660e01b815260040180836001600160a01b0316815260200182815260200192505050600060405180830381600087803b1580156129ba57600080fd5b505af11580156129ce573d6000803e3d6000fd5b50505050806001600160a01b031682604001516001600160a01b03161415612ab0576080820151612a2d906001600160a01b037f0000000000000000000000000000000000000000000000000000000000000000169087903090613dd3565b7f00000000000000000000000000000000000000000000000000000000000000006001600160a01b03166342966c6883608001516040518263ffffffff1660e01b815260040180828152602001915050600060405180830381600087803b158015612a9757600080fd5b505af1158015612aab573d6000803e3d6000fd5b505050505b612ab86157bd565b612ad6836020015184604001518560a001518660c0015160016121f4565b90506000612aff8460200151856040015186606001518760800151868960e00151611608611fc2565b9050826001600160a01b031684604001516001600160a01b03161415612b6157612b4e7f0000000000000000000000000000000000000000000000000000000000000000856020015183613e2d565b612b588782613f50565b50505050613091565b612b696157f2565b612b7b8560200151866040015161241f565b90506000612b906002836000015181610fe057fe5b905060007f00000000000000000000000000000000000000000000000000000000000000006001600160a01b0316635121220c88602001516040518263ffffffff1660e01b815260040180826001600160a01b0316815260200191505060206040518083038186803b158015612c0557600080fd5b505afa158015612c19573d6000803e3d6000fd5b505050506040513d6020811015612c2f57600080fd5b50519050808211612c405781612c42565b805b91507f00000000000000000000000000000000000000000000000000000000000000006001600160a01b03166319c6a5e48860200151846040518363ffffffff1660e01b815260040180836001600160a01b0316815260200182815260200192505050600060405180830381600087803b158015612cbf57600080fd5b505af1158015612cd3573d6000803e3d6000fd5b505050507f00000000000000000000000000000000000000000000000000000000000000006001600160a01b0316635e35359e886020015130856040518463ffffffff1660e01b815260040180846001600160a01b03168152602001836001600160a01b031681526020018281526020019350505050600060405180830381600087803b158015612d6357600080fd5b505af1158015612d77573d6000803e3d6000fd5b50505050612d8f87602001518389604001518961408d565b60408701516000906001600160a01b031673eeeeeeeeeeeeeeeeeeeeeeeeeeeeeeeeeeeeeeee1415612dfa575060405147906001600160a01b038c169082156108fc029083906000818181858888f19350505050158015612df4573d6000803e3d6000fd5b50612e93565b87604001516001600160a01b03166370a08231306040518263ffffffff1660e01b815260040180826001600160a01b0316815260200191505060206040518083038186803b158015612e4b57600080fd5b505afa158015612e5f573d6000803e3d6000fd5b505050506040513d6020811015612e7557600080fd5b50516040890151909150612e93906001600160a01b03168c8361427a565b6000612ea08683896124c0565b90508015612ff5576000886001600160a01b03166370a08231306040518263ffffffff1660e01b815260040180826001600160a01b0316815260200191505060206040518083038186803b158015612ef757600080fd5b505afa158015612f0b573d6000803e3d6000fd5b505050506040513d6020811015612f2157600080fd5b5051905081811015612fb557604080516340c10f1960e01b8152306004820152828403602482015290516001600160a01b037f000000000000000000000000000000000000000000000000000000000000000016916340c10f1991604480830192600092919082900301818387803b158015612f9c57600080fd5b505af1158015612fb0573d6000803e3d6000fd5b505050505b612fe96001600160a01b038a167f00000000000000000000000000000000000000000000000000000000000000008461427a565b612ff38d83613f50565b505b6000886001600160a01b03166370a08231306040518263ffffffff1660e01b815260040180826001600160a01b0316815260200191505060206040518083038186803b15801561304457600080fd5b505afa158015613058573d6000803e3d6000fd5b505050506040513d602081101561306e57600080fd5b505190508015613086576130868a60200151826142cc565b505050505050505050505b505050565b61309e6157f2565b602083015182516000916130b2919061219b565b845160208501519192506000916130c89161219b565b90508181026000828483816130d957fe5b04146130f7576130e8836143dd565b6130f1856143dd565b02613100565b613100826143dd565b9050600061310e8585611fd1565b90506002810661314157600281049050604051806040016040528083830381526020018281525095505050505050611e3d565b604080518082019091526002909202810382526020820152935050505092915050565b6000828211156131bb576040805162461bcd60e51b815260206004820152601e60248201527f536166654d6174683a207375627472616374696f6e206f766572666c6f770000604482015290519081900360640190fd5b50900390565b6001600160a01b038116611b33576040805162461bcd60e51b81526020600482015260136024820152724552525f494e56414c49445f4144445245535360681b604482015290519081900360640190fd5b7f00000000000000000000000000000000000000000000000000000000000000006001600160a01b0316639e571a6a83836040518363ffffffff1660e01b815260040180836001600160a01b03168152602001826001600160a01b031681526020019250505060206040518083038186803b15801561329057600080fd5b505afa1580156132a4573d6000803e3d6000fd5b505050506040513d60208110156132ba57600080fd5b50511561330e576040805162461bcd60e51b815260206004820152601a60248201527f4552525f4144445f4c49515549444954595f44495341424c4544000000000000604482015290519081900360640190fd5b5050565b60008111611b33576040805162461bcd60e51b815260206004820152600e60248201526d4552525f5a45524f5f56414c554560901b604482015290519081900360640190fd5b60007f00000000000000000000000000000000000000000000000000000000000000006001600160a01b0384811690821614156133ad576133996000614433565b6133a586868386614487565b9150506133f3565b6133e26001600160a01b03851673eeeeeeeeeeeeeeeeeeeeeeeeeeeeeeeeeeeeeeee146133db5760006133dd565b835b614433565b6133ef868686848761461c565b9150505b949350505050565b8251815160208401516000928392613426926134209161341b919061219b565b614aeb565b9061219b565b9050600061345586602001516134206134508760200151896000015161219b90919063ffffffff16565b6143dd565b90508187028783828161346457fe5b04141561347f5781818161347457fe5b0493505050506133f3565b600080898511613490578985613493565b848a5b915091506000806134b0848785600019816134aa57fe5b04614b0b565b9150915060006134ca848887816134c357fe5b049061219b565b905081156134f6576134e78183868602816134e157fe5b0461387d565b985050505050505050506133f3565b9c9b505050505050505050505050565b80516000908190613517908761219b565b6020840151909150600061353461352e848461387d565b8861387d565b90506000806135518860000151896020015185600019816134aa57fe5b9092509050613588613570613566838761219b565b610ff8858961219b565b611f1683610ff86135818288613164565b8e9061219b565b9a9950505050505050505050565b6000816001600160a01b0316638da5cb5b6040518163ffffffff1660e01b815260040160206040518083038186803b1580156135d157600080fd5b505afa1580156135e5573d6000803e3d6000fd5b505050506040513d60208110156135fb57600080fd5b505192915050565b600080836001600160a01b03166319b6401560006040518263ffffffff1660e01b81526004018082815260200191505060206040518083038186803b15801561364b57600080fd5b505afa15801561365f573d6000803e3d6000fd5b505050506040513d602081101561367557600080fd5b505190506001600160a01b0380821690841614156109ee57836001600160a01b03166319b6401560016040518263ffffffff1660e01b81526004018082815260200191505060206040518083038186803b1580156136d257600080fd5b505afa1580156136e6573d6000803e3d6000fd5b505050506040513d60208110156136fc57600080fd5b5051949350505050565b600080846001600160a01b031663d8959512856040518263ffffffff1660e01b815260040180826001600160a01b0316815260200191505060206040518083038186803b15801561375657600080fd5b505afa15801561376a573d6000803e3d6000fd5b505050506040513d602081101561378057600080fd5b505160408051636c4aca8960e11b81526001600160a01b03868116600483015291519188169163d895951291602480820192602092909190829003018186803b1580156137cc57600080fd5b505afa1580156137e0573d6000803e3d6000fd5b505050506040513d60208110156137f657600080fd5b505190925090505b935093915050565b60008082620f42400363ffffffff16905060006138348261342084613420898d61219b90919063ffffffff16565b9050600061384b620f424061342085818c8c61219b565b90506000613862620f424061342081818e8c61219b565b90508183111580156135885750101598975050505050505050565b600081831161388c57816109ee565b5090919050565b60045490565b6138a16157f2565b60006138ad8385613164565b905060007f00000000000000000000000000000000000000000000000000000000000000006001600160a01b0316632c560f896040518163ffffffff1660e01b815260040160206040518083038186803b15801561390a57600080fd5b505afa15801561391e573d6000803e3d6000fd5b505050506040513d602081101561393457600080fd5b50516040805163ce3f3adb60e01b815290519192506000916001600160a01b037f0000000000000000000000000000000000000000000000000000000000000000169163ce3f3adb916004808301926020929190829003018186803b15801561399c57600080fd5b505afa1580156139b0573d6000803e3d6000fd5b505050506040513d60208110156139c657600080fd5b50519050818310156139f35760405180604001604052806000815260200160018152509350505050611e3d565b808310613a1b5760405180604001604052806001815260200160018152509350505050611e3d565b604080518082019091529283526020830152509392505050565b613a3d6157f2565b6000836001600160a01b03166318160ddd6040518163ffffffff1660e01b815260040160206040518083038186803b158015613a7857600080fd5b505afa158015613a8c573d6000803e3d6000fd5b505050506040513d6020811015613aa257600080fd5b505190506000613ab185613596565b90506000816001600160a01b031663d8959512866040518263ffffffff1660e01b815260040180826001600160a01b0316815260200191505060206040518083038186803b158015613b0257600080fd5b505afa158015613b16573d6000803e3d6000fd5b505050506040513d6020811015613b2c57600080fd5b50516040805180820190915290915080613b4783600261219b565b8152602001939093525090949350505050565b613b6261575d565b613b6a61575d565b613b7384612091565b9050826001600160a01b031681600001516001600160a01b0316146109ee576040805162461bcd60e51b815260206004820152601160248201527011549497d050d0d154d4d7d11153925151607a1b604482015290519081900360640190fd5b60607f00000000000000000000000000000000000000000000000000000000000000006001600160a01b0316639e2ce9d26040518163ffffffff1660e01b815260040160006040518083038186803b158015613c2e57600080fd5b505afa158015613c42573d6000803e3d6000fd5b505050506040513d6000823e601f3d908101601f191682016040526020811015613c6b57600080fd5b8101908080516040519392919084600160201b821115613c8a57600080fd5b908301906020820185811115613c9f57600080fd5b82518660208202830111600160201b82111715613cbb57600080fd5b82525081516020918201928201910280838360005b83811015613ce8578181015183820152602001613cd0565b50505050905001604052505050905060008151905060005b81811015613dc857828181518110613d1457fe5b60200260200101516001600160a01b031663b8128fe68a8a8a8a8a8a6040518763ffffffff1660e01b815260040180878152602001866001600160a01b03168152602001856001600160a01b03168152602001846001600160a01b031681526020018381526020018281526020019650505050505050600060405180830381600087803b158015613da457600080fd5b505af1158015613db8573d6000803e3d6000fd5b505060019092019150613d009050565b505050505050505050565b604080516001600160a01b0380861660248301528416604482015260648082018490528251808303909101815260849091019091526020810180516001600160e01b03166323b872dd60e01b1790526109a9908590614b53565b7f00000000000000000000000000000000000000000000000000000000000000006001600160a01b03166340c10f1984836040518363ffffffff1660e01b815260040180836001600160a01b0316815260200182815260200192505050600060405180830381600087803b158015613ea457600080fd5b505af1158015613eb8573d6000803e3d6000fd5b505050507f00000000000000000000000000000000000000000000000000000000000000006001600160a01b031663deacd84e83836040518363ffffffff1660e01b815260040180836001600160a01b0316815260200182815260200192505050600060405180830381600087803b158015613f3357600080fd5b505af1158015613f47573d6000803e3d6000fd5b50505050505050565b6000613fe27f00000000000000000000000000000000000000000000000000000000000000006001600160a01b031663045544436040518163ffffffff1660e01b815260040160206040518083038186803b158015613fae57600080fd5b505afa158015613fc2573d6000803e3d6000fd5b505050506040513d6020811015613fd857600080fd5b5051611f16611fc2565b90507f00000000000000000000000000000000000000000000000000000000000000006001600160a01b031663dbae3a5d8484846040518463ffffffff1660e01b815260040180846001600160a01b031681526020018381526020018281526020019350505050602060405180830381600087803b15801561406357600080fd5b505af1158015614077573d6000803e3d6000fd5b505050506040513d602081101561145457600080fd5b600061409885613596565b6003805460ff191660011790556040805160028082526060808301845293945090916020830190803683375050604080516002808252606080830184529495509092509060208301908036833701905050905084826000815181106140f957fe5b60200260200101906001600160a01b031690816001600160a01b031681525050838260018151811061412757fe5b60200260200101906001600160a01b031690816001600160a01b03168152505060018160008151811061415657fe5b60200260200101818152505060018160018151811061417157fe5b602002602001018181525050826001600160a01b031663b127c0a58784846040518463ffffffff1660e01b8152600401808481526020018060200180602001838103835285818151815260200191508051906020019060200280838360005b838110156141e85781810151838201526020016141d0565b50505050905001838103825284818151815260200191508051906020019060200280838360005b8381101561422757818101518382015260200161420f565b5050505090500195505050505050600060405180830381600087803b15801561424f57600080fd5b505af1158015614263573d6000803e3d6000fd5b50506003805460ff19169055505050505050505050565b604080516001600160a01b038416602482015260448082018490528251808303909101815260649091019091526020810180516001600160e01b031663a9059cbb60e01b179052613091908490614b53565b7f00000000000000000000000000000000000000000000000000000000000000006001600160a01b03166342966c68826040518263ffffffff1660e01b815260040180828152602001915050600060405180830381600087803b15801561433257600080fd5b505af1158015614346573d6000803e3d6000fd5b505050507f00000000000000000000000000000000000000000000000000000000000000006001600160a01b031663802fa3ba83836040518363ffffffff1660e01b815260040180836001600160a01b0316815260200182815260200192505050600060405180830381600087803b1580156143c157600080fd5b505af11580156143d5573d6000803e3d6000fd5b505050505050565b600080600283046001019050600060028285816143f657fe5b0483018161440057fe5b0490505b8082111561442c57809150600282858161441a57fe5b0483018161442457fe5b049050614404565b5092915050565b803414611b33576040805162461bcd60e51b815260206004820152601760248201527f4552525f4554485f414d4f554e545f4d49534d41544348000000000000000000604482015290519081900360640190fd5b6000836144926157f2565b61449c828661241f565b905060006144bf8260000151610ff884602001518861219b90919063ffffffff16565b90507f00000000000000000000000000000000000000000000000000000000000000006001600160a01b03166319c6a5e484836040518363ffffffff1660e01b815260040180836001600160a01b0316815260200182815260200192505050600060405180830381600087803b15801561453857600080fd5b505af115801561454c573d6000803e3d6000fd5b50505050600061455f898589858a614c04565b90506145766001600160a01b038816333089613dd3565b61458088876142cc565b7f00000000000000000000000000000000000000000000000000000000000000006001600160a01b03166340c10f198a886040518363ffffffff1660e01b815260040180836001600160a01b0316815260200182815260200192505050600060405180830381600087803b1580156145f757600080fd5b505af115801561460b573d6000803e3d6000fd5b50929b9a5050505050505050505050565b6000848161462982613596565b9050600080614639838989613706565b915091507f00000000000000000000000000000000000000000000000000000000000000006001600160a01b03166312588d0e6040518163ffffffff1660e01b815260040160206040518083038186803b15801561469657600080fd5b505afa1580156146aa573d6000803e3d6000fd5b505050506040513d60208110156146c057600080fd5b5051811015614716576040805162461bcd60e51b815260206004820152601860248201527f4552525f4e4f545f454e4f5547485f4c49515549444954590000000000000000604482015290519081900360640190fd5b600061472683610ff8898561219b565b905060007f00000000000000000000000000000000000000000000000000000000000000006001600160a01b031663943fd08a8c6040518263ffffffff1660e01b815260040180826001600160a01b0316815260200191505060206040518083038186803b15801561479757600080fd5b505afa1580156147ab573d6000803e3d6000fd5b505050506040513d60208110156147c157600080fd5b5051905080614852577f00000000000000000000000000000000000000000000000000000000000000006001600160a01b031663b97b55ce6040518163ffffffff1660e01b815260040160206040518083038186803b15801561482357600080fd5b505afa158015614837573d6000803e3d6000fd5b505050506040513d602081101561484d57600080fd5b505190505b60006148c5837f00000000000000000000000000000000000000000000000000000000000000006001600160a01b031663350ed8e78f6040518263ffffffff1660e01b815260040180826001600160a01b0316815260200191505060206040518083038186803b15801561107b57600080fd5b905081811115614915576040805162461bcd60e51b815260206004820152601660248201527511549497d3505617d05353d5539517d4915050d2115160521b604482015290519081900360640190fd5b614920308d85613e2d565b61492b8a8785615082565b6001600160a01b038b1673eeeeeeeeeeeeeeeeeeeeeeeeeeeeeeeeeeeeeeee1461496f576149646001600160a01b038c1633308c613dd3565b61496f8b878b615082565b61497d868c8c8c8734615138565b6000876001600160a01b03166370a08231306040518263ffffffff1660e01b815260040180826001600160a01b0316815260200191505060206040518083038186803b1580156149cc57600080fd5b505afa1580156149e0573d6000803e3d6000fd5b505050506040513d60208110156149f657600080fd5b50519050614a2e6001600160a01b0389167f00000000000000000000000000000000000000000000000000000000000000008361427a565b6001600160a01b037f00000000000000000000000000000000000000000000000000000000000000001663332100fa896002840484036040518363ffffffff1660e01b815260040180836001600160a01b0316815260200182815260200192505050600060405180830381600087803b158015614aaa57600080fd5b505af1158015614abe573d6000803e3d6000fd5b50505050614ad98e898e60028581614ad257fe5b048e614c04565b9e9d5050505050505050505050505050565b600080614af7836143dd565b90508281820214611e3d57806001016109ee565b600080848484821180614b1d57508481115b15614b3357614b2d828287615317565b90925090505b808214614b445790925090506137fe565b50600196879650945050505050565b6060614ba8826040518060400160405280602081526020017f5361666545524332303a206c6f772d6c6576656c2063616c6c206661696c6564815250856001600160a01b03166153509092919063ffffffff16565b80519091501561309157808060200190516020811015614bc757600080fd5b50516130915760405162461bcd60e51b815260040180806020018281038252602a815260200180615854602a913960400191505060405180910390fd5b600060607f00000000000000000000000000000000000000000000000000000000000000006001600160a01b0316639e2ce9d26040518163ffffffff1660e01b815260040160006040518083038186803b158015614c6157600080fd5b505afa158015614c75573d6000803e3d6000fd5b505050506040513d6000823e601f3d908101601f191682016040526020811015614c9e57600080fd5b8101908080516040519392919084600160201b821115614cbd57600080fd5b908301906020820185811115614cd257600080fd5b82518660208202830111600160201b82111715614cee57600080fd5b82525081516020918201928201910280838360005b83811015614d1b578181015183820152602001614d03565b50505050905001604052505050905060008151905060005b81811015614df357828181518110614d4757fe5b60200260200101516001600160a01b031663139c22ea8a8a8a8a8a6040518663ffffffff1660e01b815260040180866001600160a01b03168152602001856001600160a01b03168152602001846001600160a01b0316815260200183815260200182815260200195505050505050600060405180830381600087803b158015614dcf57600080fd5b505af1158015614de3573d6000803e3d6000fd5b505060019092019150614d339050565b506000614dff88613596565b90506000614e0d8289613603565b9050600080614e1d84848c613706565b915091507f00000000000000000000000000000000000000000000000000000000000000006001600160a01b031663aa558ef08d8d8d8d8d6040518663ffffffff1660e01b815260040180866001600160a01b03168152602001856001600160a01b03168152602001846001600160a01b0316815260200183815260200182815260200195505050505050600060405180830381600087803b158015614ec257600080fd5b505af1158015614ed6573d6000803e3d6000fd5b505050507f00000000000000000000000000000000000000000000000000000000000000006001600160a01b031663fd4bc1e68d8d6040518363ffffffff1660e01b815260040180836001600160a01b03168152602001826001600160a01b0316815260200192505050602060405180830381600087803b158015614f5a57600080fd5b505af1158015614f6e573d6000803e3d6000fd5b505050506040513d6020811015614f8457600080fd5b50506001600160a01b037f0000000000000000000000000000000000000000000000000000000000000000166361d5f0878d8d8d8d8d8888614fc4611fc2565b6040518963ffffffff1660e01b815260040180896001600160a01b03168152602001886001600160a01b03168152602001876001600160a01b0316815260200186815260200185815260200184815260200183815260200182815260200198505050505050505050602060405180830381600087803b15801561504657600080fd5b505af115801561505a573d6000803e3d6000fd5b505050506040513d602081101561507057600080fd5b50519c9b505050505050505050505050565b60408051636eb1769f60e11b81523060048201526001600160a01b038481166024830152915160009286169163dd62ed3e916044808301926020929190829003018186803b1580156150d357600080fd5b505afa1580156150e7573d6000803e3d6000fd5b505050506040513d60208110156150fd57600080fd5b50519050818110156109a9578015615124576151246001600160a01b03851684600061535f565b6109a96001600160a01b038516848461535f565b6003805460ff19166001179055604080516002808252606080830184529260208301908036833750506040805160028082526060808301845294955090925090602083019080368337019050509050868260008151811061519557fe5b60200260200101906001600160a01b031690816001600160a01b03168152505085826001815181106151c357fe5b60200260200101906001600160a01b031690816001600160a01b03168152505084816000815181106151f157fe5b602002602001018181525050838160018151811061520b57fe5b602002602001018181525050876001600160a01b0316637d8916bd84848460016040518563ffffffff1660e01b8152600401808060200180602001848152602001838103835286818151815260200191508051906020019060200280838360005b8381101561528457818101518382015260200161526c565b50505050905001838103825285818151815260200191508051906020019060200280838360005b838110156152c35781810151838201526020016152ab565b50505050905001955050505050506000604051808303818588803b1580156152ea57600080fd5b505af11580156152fe573d6000803e3d6000fd5b50506003805460ff191690555050505050505050505050565b6000808385116153355761532c858585615472565b915091506137fe565b600080615343868887615472565b9890975095505050505050565b60606133f3848460008561552b565b8015806153e5575060408051636eb1769f60e11b81523060048201526001600160a01b03848116602483015291519185169163dd62ed3e91604480820192602092909190829003018186803b1580156153b757600080fd5b505afa1580156153cb573d6000803e3d6000fd5b505050506040513d60208110156153e157600080fd5b5051155b6154205760405162461bcd60e51b815260040180806020018281038252603681526020018061587e6036913960400191505060405180910390fd5b604080516001600160a01b038416602482015260448082018490528251808303909101815260649091019091526020810180516001600160e01b031663095ea7b360e01b179052613091908490614b53565b6000806000836000198161548257fe5b049050808611156154bb57600081600101878161549b57fe5b0460010190508087816154aa57fe5b0496508086816154b657fe5b049550505b84861461551b578584028587018781106154ec5760006154db8383615687565b9550505083850392506137fe915050565b600288880304870382101561550a57600086945094505050506137fe565b6001808703945094505050506137fe565b5050600290910493849350915050565b60608247101561556c5760405162461bcd60e51b815260040180806020018281038252602681526020018061580d6026913960400191505060405180910390fd5b615575856156b3565b6155c6576040805162461bcd60e51b815260206004820152601d60248201527f416464726573733a2063616c6c20746f206e6f6e2d636f6e7472616374000000604482015290519081900360640190fd5b60006060866001600160a01b031685876040518082805190602001908083835b602083106156055780518252601f1990920191602091820191016155e6565b6001836020036101000a03801982511681845116808217855250505050505090500191505060006040518083038185875af1925050503d8060008114615667576040519150601f19603f3d011682016040523d82523d6000602084013e61566c565b606091505b509150915061567c8282866156b9565b979650505050505050565b600060028204820382848161569857fe5b06816156a057fe5b048284816156aa57fe5b04019392505050565b3b151590565b606083156156c85750816109ee565b8251156156d85782518084602001fd5b8160405162461bcd60e51b81526004018080602001828103825283818151815260200191508051906020019080838360005b8381101561572257818101518382015260200161570a565b50505050905090810190601f16801561574f5780820380516001836020036101000a031916815260200191505b509250505060405180910390fd5b60405180610100016040528060006001600160a01b0316815260200160006001600160a01b0316815260200160006001600160a01b0316815260200160008152602001600081526020016000815260200160008152602001600081525090565b6040805160c081018252600080825260208201819052918101829052606081018290526080810182905260a081019190915290565b60405180604001604052806000815260200160008152509056fe416464726573733a20696e73756666696369656e742062616c616e636520666f722063616c6c536166654d6174683a206d756c7469706c69636174696f6e206f766572666c6f775361666545524332303a204552433230206f7065726174696f6e20646964206e6f7420737563636565645361666545524332303a20617070726f76652066726f6d206e6f6e2d7a65726f20746f206e6f6e2d7a65726f20616c6c6f77616e6365a2646970667358221220c5b10523f724a18dd5e4c197e1968c993a322466bc9589901122cc5d63f90fb664736f6c634300060c0033",
  "immutableReferences": {
    "4241": [
      {
        "length": 32,
        "start": 5487
      },
      {
        "length": 32,
        "start": 5870
      },
      {
        "length": 32,
        "start": 6513
      },
      {
        "length": 32,
        "start": 6738
      },
      {
        "length": 32,
        "start": 6968
      },
      {
        "length": 32,
        "start": 7250
      },
      {
        "length": 32,
        "start": 7410
      },
      {
        "length": 32,
        "start": 9482
      },
      {
        "length": 32,
        "start": 12820
      },
      {
        "length": 32,
        "start": 14515
      },
      {
        "length": 32,
        "start": 14678
      },
      {
        "length": 32,
        "start": 15319
      },
      {
        "length": 32,
        "start": 16215
      },
      {
        "length": 32,
        "start": 17983
      },
      {
        "length": 32,
        "start": 18220
      },
      {
        "length": 32,
        "start": 18380
      },
      {
        "length": 32,
        "start": 19466
      }
    ],
    "4244": [
      {
        "length": 32,
        "start": 2653
      },
      {
        "length": 32,
        "start": 3170
      },
      {
        "length": 32,
        "start": 4637
      },
      {
        "length": 32,
        "start": 4924
      },
      {
        "length": 32,
        "start": 5320
      },
      {
        "length": 32,
        "start": 8355
      },
      {
        "length": 32,
        "start": 9835
      },
      {
        "length": 32,
        "start": 10144
      },
      {
        "length": 32,
        "start": 16358
      },
      {
        "length": 32,
        "start": 20368
      }
    ],
    "4247": [
      {
        "length": 32,
        "start": 5834
      },
      {
        "length": 32,
        "start": 10322
      },
      {
        "length": 32,
        "start": 20003
      },
      {
        "length": 32,
        "start": 20188
      }
    ],
    "4250": [
      {
        "length": 32,
        "start": 4108
      },
      {
        "length": 32,
        "start": 4593
      },
      {
        "length": 32,
        "start": 7548
      },
      {
        "length": 32,
        "start": 7801
      },
      {
        "length": 32,
        "start": 10557
      },
      {
        "length": 32,
        "start": 11158
      },
      {
        "length": 32,
        "start": 11334
      },
      {
        "length": 32,
        "start": 16062
      },
      {
        "length": 32,
        "start": 17228
      },
      {
        "length": 32,
        "start": 17603
      },
      {
        "length": 32,
        "start": 18522
      },
      {
        "length": 32,
        "start": 19000
      }
    ],
    "4253": [
      {
        "length": 32,
        "start": 2364
      },
      {
        "length": 32,
        "start": 2556
      },
      {
        "length": 32,
        "start": 3325
      },
      {
        "length": 32,
        "start": 5075
      },
      {
        "length": 32,
        "start": 11044
      },
      {
        "length": 32,
        "start": 11481
      },
      {
        "length": 32,
        "start": 12228
      },
      {
        "length": 32,
        "start": 18953
      }
    ],
    "4255": [
      {
        "length": 32,
        "start": 2292
      },
      {
        "length": 32,
        "start": 2506
      },
      {
        "length": 32,
        "start": 3372
      },
      {
        "length": 32,
        "start": 3531
      },
      {
        "length": 32,
        "start": 3940
      },
      {
        "length": 32,
        "start": 5238
      },
      {
        "length": 32,
        "start": 9661
      },
      {
        "length": 32,
        "start": 13148
      }
    ],
    "4257": [
      {
        "length": 32,
        "start": 2201
      },
      {
        "length": 32,
        "start": 12117
      },
      {
        "length": 32,
        "start": 15919
      },
      {
        "length": 32,
        "start": 17102
      }
    ],
    "4259": [
      {
        "length": 32,
        "start": 2165
      },
      {
        "length": 32,
        "start": 10755
      }
    ],
    "4261": [
      {
        "length": 32,
        "start": 5798
      },
      {
        "length": 32,
        "start": 10799
      },
      {
        "length": 32,
        "start": 17794
      }
    ],
    "4263": [
      {
        "length": 32,
        "start": 5276
      },
      {
        "length": 32,
        "start": 10422
      }
    ]
  },
  "source": "// SPDX-License-Identifier: SEE LICENSE IN LICENSE\npragma solidity 0.6.12;\n\nimport \"../liquidity-protection/LiquidityProtection.sol\";\nimport \"./TestTime.sol\";\n\ncontract TestLiquidityProtection is LiquidityProtection, TestTime {\n    bool private poolTokenRateOverride;\n    uint256 private poolTokenRateN;\n    uint256 private poolTokenRateD;\n\n    constructor(address[8] memory _contractAddresses) public LiquidityProtection(_contractAddresses) {}\n\n    function protectedAmountPlusFeeTest(\n        uint256 _poolAmount,\n        uint256 _poolRateN,\n        uint256 _poolRateD,\n        uint256 _addRateN,\n        uint256 _addRateD,\n        uint256 _removeRateN,\n        uint256 _removeRateD\n    ) external pure returns (uint256) {\n        Fraction memory poolRate = Fraction({ n: _poolRateN, d: _poolRateD });\n        Fraction memory addRate = Fraction({ n: _addRateN, d: _addRateD });\n        Fraction memory removeRate = Fraction({ n: _removeRateN, d: _removeRateD });\n        return protectedAmountPlusFee(_poolAmount, poolRate, addRate, removeRate);\n    }\n\n    function impLossTest(\n        uint256 _initialRateN,\n        uint256 _initialRateD,\n        uint256 _currentRateN,\n        uint256 _currentRateD\n    ) external pure returns (uint256, uint256) {\n        Fraction memory initialRate = Fraction({ n: _initialRateN, d: _initialRateD });\n        Fraction memory currentRate = Fraction({ n: _currentRateN, d: _currentRateD });\n        Fraction memory impLossRate = impLoss(initialRate, currentRate);\n        return (impLossRate.n, impLossRate.d);\n    }\n\n    function compensationAmountTest(\n        uint256 _amount,\n        uint256 _total,\n        uint256 _lossN,\n        uint256 _lossD,\n        uint256 _levelN,\n        uint256 _levelD\n    ) external pure returns (uint256) {\n        Fraction memory loss = Fraction({ n: _lossN, d: _lossD });\n        Fraction memory level = Fraction({ n: _levelN, d: _levelD });\n        return compensationAmount(_amount, _total, loss, level);\n    }\n\n    function averageRateTest(IDSToken _poolToken, IERC20 _reserveToken) external view returns (uint256, uint256) {\n        (, , uint256 rateN, uint256 rateD) = reserveTokenRates(_poolToken, _reserveToken, true);\n        return (rateN, rateD);\n    }\n\n    function removeLiquidityTargetAmountTest(\n        uint256 _poolTokenRateN,\n        uint256 _poolTokenRateD,\n        uint256 _poolAmount,\n        uint256 _reserveAmount,\n        uint128 _addSpotRateN,\n        uint128 _addSpotRateD,\n        uint128 _removeSpotRateN,\n        uint128 _removeSpotRateD,\n        uint128 _removeAverageRateN,\n        uint128 _removeAverageRateD,\n        uint256 _addTimestamp,\n        uint256 _removeTimestamp\n    ) external returns (uint256) {\n        poolTokenRateOverride = true;\n        poolTokenRateN = _poolTokenRateN;\n        poolTokenRateD = _poolTokenRateD;\n\n        PackedRates memory packedRates =\n            PackedRates({\n                addSpotRateN: _addSpotRateN,\n                addSpotRateD: _addSpotRateD,\n                removeSpotRateN: _removeSpotRateN,\n                removeSpotRateD: _removeSpotRateD,\n                removeAverageRateN: _removeAverageRateN,\n                removeAverageRateD: _removeAverageRateD\n            });\n\n        uint256 targetAmount =\n            removeLiquidityTargetAmount(\n                IDSToken(0),\n                IERC20(0),\n                _poolAmount,\n                _reserveAmount,\n                packedRates,\n                _addTimestamp,\n                _removeTimestamp\n            );\n        poolTokenRateOverride = false;\n        return targetAmount;\n    }\n\n    function poolTokenRate(IDSToken _poolToken, IERC20 _reserveToken) internal view override returns (Fraction memory) {\n        if (poolTokenRateOverride) {\n            return Fraction({ n: poolTokenRateN, d: poolTokenRateD });\n        }\n        return super.poolTokenRate(_poolToken, _reserveToken);\n    }\n\n    function time() internal view override(Time, TestTime) returns (uint256) {\n        return TestTime.time();\n    }\n}\n",
  "sourcePath": "/Users/dennismacpro/Projects/Defi/Ethereum-Solidity-Collection/icarus-protocol/defi-seeder/.tmp/bancor/contracts-solidity/solidity/contracts/helpers/TestLiquidityProtection.sol",
  "compiler": {
    "name": "solc",
    "version": "0.6.12+commit.27d51765.Emscripten.clang"
  },
  "schemaVersion": "3.3.3",
  "updatedAt": "2021-04-01T18:18:09.443Z",
  "devdoc": {
    "kind": "dev",
    "methods": {
      "acceptOwnership()": {
        "details": "used by a new owner to accept an ownership transfer"
      },
      "acceptStoreOwnership()": {
        "details": "accepts the ownership of the store can only be called by the contract owner"
      },
      "acceptWalletOwnership()": {
        "details": "accepts the ownership of the wallet can only be called by the contract owner"
      },
      "addLiquidity(address,address,uint256)": {
        "details": "adds protected liquidity to a pool also mints new governance tokens for the caller if the caller adds network tokens",
        "params": {
          "_amount": "amount of tokens to add to the pool",
          "_poolAnchor": "anchor of the pool",
          "_reserveToken": "reserve token to add to the pool"
        },
        "returns": {
          "_0": "new protected liquidity id"
        }
      },
      "addLiquidityFor(address,address,address,uint256)": {
        "details": "adds protected liquidity to a pool for a specific recipient also mints new governance tokens for the caller if the caller adds network tokens",
        "params": {
          "_amount": "amount of tokens to add to the pool",
          "_owner": "protected liquidity owner",
          "_poolAnchor": "anchor of the pool",
          "_reserveToken": "reserve token to add to the pool"
        },
        "returns": {
          "_0": "new protected liquidity id"
        }
      },
      "baseTokenAvailableSpace(address)": {
        "details": "returns the base-token staking limits of a given pool",
        "params": {
          "_poolAnchor": "anchor of the pool"
        },
        "returns": {
          "_0": "maximum amount of base tokens that can be single-side staked in the pool"
        }
      },
      "claimBalance(uint256,uint256)": {
        "details": "allows the caller to claim network token balance that is no longer locked note that the function can revert if the range is too large",
        "params": {
          "_endIndex": "end index in the caller's list of locked balances (exclusive)",
          "_startIndex": "start index in the caller's list of locked balances"
        }
      },
      "networkTokenAvailableSpace(address)": {
        "details": "returns the network-token staking limits of a given pool",
        "params": {
          "_poolAnchor": "anchor of the pool"
        },
        "returns": {
          "_0": "maximum amount of network tokens that can be single-side staked in the pool"
        }
      },
      "poolAvailableSpace(address)": {
        "details": "returns the single-side staking limits of a given pool",
        "params": {
          "_poolAnchor": "anchor of the pool"
        },
        "returns": {
          "_0": "maximum amount of base tokens that can be single-side staked in the pool",
          "_1": "maximum amount of network tokens that can be single-side staked in the pool"
        }
      },
      "poolROI(address,address,uint256,uint256,uint256,uint256,uint256)": {
        "details": "returns the ROI for removing liquidity in the current state after providing liquidity with the given args the function assumes full protection is in effect return value is in PPM and can be larger than PPM_RESOLUTION for positive ROI, 1M = 0% ROI",
        "params": {
          "_poolRateD": "rate of 1 pool token in reserve token units when the liquidity was added (denominator)",
          "_poolRateN": "rate of 1 pool token in reserve token units when the liquidity was added (numerator)",
          "_poolToken": "pool token",
          "_reserveAmount": "reserve token amount that was added",
          "_reserveRateD": "rate of 1 reserve token in the other reserve token units when the liquidity was added (denominator)",
          "_reserveRateN": "rate of 1 reserve token in the other reserve token units when the liquidity was added (numerator)",
          "_reserveToken": "reserve token"
        },
        "returns": {
          "_0": "ROI in PPM"
        }
      },
      "removeLiquidity(uint256,uint32)": {
        "details": "removes protected liquidity from a pool also burns governance tokens from the caller if the caller removes network tokens",
        "params": {
          "_id": "id in the caller's list of protected liquidity",
          "_portion": "portion of liquidity to remove, in PPM"
        }
      },
      "removeLiquidityReturn(uint256,uint32,uint256)": {
        "details": "returns the expected/actual amounts the provider will receive for removing liquidity it's also possible to provide the remove liquidity time to get an estimation for the return at that given point",
        "params": {
          "_id": "protected liquidity id",
          "_portion": "portion of liquidity to remove, in PPM",
          "_removeTimestamp": "time at which the liquidity is removed"
        },
        "returns": {
          "_0": "expected return amount in the reserve token",
          "_1": "actual return amount in the reserve token",
          "_2": "compensation in the network token"
        }
      },
      "transferOwnership(address)": {
        "details": "allows transferring the contract ownership the new owner still needs to accept the transfer can only be called by the contract owner",
        "params": {
          "_newOwner": "new contract owner"
        }
      },
      "transferStoreOwnership(address)": {
        "details": "transfers the ownership of the store can only be called by the contract owner",
        "params": {
          "_newOwner": "the new owner of the store"
        }
      },
      "transferWalletOwnership(address)": {
        "details": "transfers the ownership of the wallet can only be called by the contract owner",
        "params": {
          "_newOwner": "the new owner of the wallet"
        }
      }
    },
    "version": 1
  },
  "userdoc": {
    "kind": "user",
    "methods": {},
    "version": 1
  }
}