{
  "contractName": "TestLiquidityProtectionEventsSubscriber",
  "abi": [
    {
      "inputs": [
        {
          "internalType": "address",
          "name": "provider",
          "type": "address"
        },
        {
          "internalType": "contract IConverterAnchor",
          "name": "poolAnchor",
          "type": "address"
        },
        {
          "internalType": "contract IERC20",
          "name": "reserveToken",
          "type": "address"
        },
        {
          "internalType": "uint256",
          "name": "poolAmount",
          "type": "uint256"
        },
        {
          "internalType": "uint256",
          "name": "reserveAmount",
          "type": "uint256"
        }
      ],
      "name": "onAddingLiquidity",
      "outputs": [],
      "stateMutability": "nonpayable",
      "type": "function"
    },
    {
      "inputs": [
        {
          "internalType": "uint256",
          "name": "id",
          "type": "uint256"
        },
        {
          "internalType": "address",
          "name": "provider",
          "type": "address"
        },
        {
          "internalType": "contract IConverterAnchor",
          "name": "poolAnchor",
          "type": "address"
        },
        {
          "internalType": "contract IERC20",
          "name": "reserveToken",
          "type": "address"
        },
        {
          "internalType": "uint256",
          "name": "poolAmount",
          "type": "uint256"
        },
        {
          "internalType": "uint256",
          "name": "reserveAmount",
          "type": "uint256"
        }
      ],
      "name": "onRemovingLiquidity",
      "outputs": [],
      "stateMutability": "nonpayable",
      "type": "function"
    },
    {
      "inputs": [],
      "name": "id",
      "outputs": [
        {
          "internalType": "uint256",
          "name": "",
          "type": "uint256"
        }
      ],
      "stateMutability": "view",
      "type": "function"
    },
    {
      "inputs": [],
      "name": "provider",
      "outputs": [
        {
          "internalType": "address",
          "name": "",
          "type": "address"
        }
      ],
      "stateMutability": "view",
      "type": "function"
    },
    {
      "inputs": [],
      "name": "poolAnchor",
      "outputs": [
        {
          "internalType": "contract IConverterAnchor",
          "name": "",
          "type": "address"
        }
      ],
      "stateMutability": "view",
      "type": "function"
    },
    {
      "inputs": [],
      "name": "reserveToken",
      "outputs": [
        {
          "internalType": "contract IERC20",
          "name": "",
          "type": "address"
        }
      ],
      "stateMutability": "view",
      "type": "function"
    },
    {
      "inputs": [],
      "name": "poolAmount",
      "outputs": [
        {
          "internalType": "uint256",
          "name": "",
          "type": "uint256"
        }
      ],
      "stateMutability": "view",
      "type": "function"
    },
    {
      "inputs": [],
      "name": "reserveAmount",
      "outputs": [
        {
          "internalType": "uint256",
          "name": "",
          "type": "uint256"
        }
      ],
      "stateMutability": "view",
      "type": "function"
    },
    {
      "inputs": [],
      "name": "adding",
      "outputs": [
        {
          "internalType": "bool",
          "name": "",
          "type": "bool"
        }
      ],
      "stateMutability": "view",
      "type": "function"
    }
  ],
  "bytecode": "0x608060405234801561001057600080fd5b506102cd806100206000396000f3fe608060405234801561001057600080fd5b50600436106100935760003560e01c8063a693600b11610066578063a693600b14610122578063af640d0f1461012a578063b8128fe614610132578063d4d30f2c1461017a578063f4325d671461019657610093565b8063085d488314610098578063139c22ea146100bc5780634b09b72a146101005780639c3391cf1461011a575b600080fd5b6100a061019e565b604080516001600160a01b039092168252519081900360200190f35b6100fe600480360360a08110156100d257600080fd5b506001600160a01b038135811691602081013582169160408201351690606081013590608001356101ad565b005b610108610209565b60408051918252519081900360200190f35b6100a061020f565b61010861021e565b610108610224565b6100fe600480360360c081101561014857600080fd5b508035906001600160a01b03602082013581169160408101358216916060820135169060808101359060a0013561022a565b61018261027f565b604080519115158252519081900360200190f35b6100a0610288565b6001546001600160a01b031690565b60068054600160ff1990911681179091556000805580546001600160a01b03199081166001600160a01b039788161790915560028054821695871695909517909455600380549094169290941691909117909155600455600555565b60055490565b6002546001600160a01b031690565b60045490565b60005490565b6006805460ff19169055600095909555600180546001600160a01b03199081166001600160a01b0396871617909155600280548216948616949094179093556003805490931691909316179055600455600555565b60065460ff1690565b6003546001600160a01b03169056fea2646970667358221220c232ec2abf3177a41d179ebd76b15e8ebd3e72adfb1b6c981557034f6851a0f564736f6c634300060c0033",
  "immutableReferences": {},
  "source": "// SPDX-License-Identifier: SEE LICENSE IN LICENSE\npragma solidity 0.6.12;\n\nimport \"../liquidity-protection/interfaces/ILiquidityProtectionEventsSubscriber.sol\";\n\n/**\n * @dev Liquidity protection events subscriber interface\n */\ncontract TestLiquidityProtectionEventsSubscriber is ILiquidityProtectionEventsSubscriber {\n    uint256 private _id;\n    address private _provider;\n    IConverterAnchor private _poolAnchor;\n    IERC20 private _reserveToken;\n    uint256 private _poolAmount;\n    uint256 private _reserveAmount;\n    bool private _adding;\n\n    function onAddingLiquidity(\n        address provider,\n        IConverterAnchor poolAnchor,\n        IERC20 reserveToken,\n        uint256 poolAmount,\n        uint256 reserveAmount\n    ) external override {\n        _adding = true;\n\n        _id = 0;\n        _provider = provider;\n        _poolAnchor = poolAnchor;\n        _reserveToken = reserveToken;\n        _poolAmount = poolAmount;\n        _reserveAmount = reserveAmount;\n    }\n\n    function onRemovingLiquidity(\n        uint256 id,\n        address provider,\n        IConverterAnchor poolAnchor,\n        IERC20 reserveToken,\n        uint256 poolAmount,\n        uint256 reserveAmount\n    ) external override {\n        _adding = false;\n\n        _id = id;\n        _provider = provider;\n        _poolAnchor = poolAnchor;\n        _reserveToken = reserveToken;\n        _poolAmount = poolAmount;\n        _reserveAmount = reserveAmount;\n    }\n\n    function id() external view returns (uint256) {\n        return _id;\n    }\n\n    function provider() external view returns (address) {\n        return _provider;\n    }\n\n    function poolAnchor() external view returns (IConverterAnchor) {\n        return _poolAnchor;\n    }\n\n    function reserveToken() external view returns (IERC20) {\n        return _reserveToken;\n    }\n\n    function poolAmount() external view returns (uint256) {\n        return _poolAmount;\n    }\n\n    function reserveAmount() external view returns (uint256) {\n        return _reserveAmount;\n    }\n\n    function adding() external view returns (bool) {\n        return _adding;\n    }\n}\n",
  "sourcePath": "/Users/dennismacpro/Projects/Defi/Ethereum-Solidity-Collection/icarus-protocol/defi-seeder/.tmp/bancor/contracts-solidity/solidity/contracts/helpers/TestLiquidityProtectionEventsSubscriber.sol",
  "compiler": {
    "name": "solc",
    "version": "0.6.12+commit.27d51765.Emscripten.clang"
  },
  "schemaVersion": "3.3.3",
  "updatedAt": "2021-04-01T18:17:52.062Z",
  "devdoc": {
    "details": "Liquidity protection events subscriber interface",
    "kind": "dev",
    "methods": {},
    "version": 1
  },
  "userdoc": {
    "kind": "user",
    "methods": {},
    "version": 1
  }
}