{
  "contractName": "TestLiquidityPoolV1Converter",
  "abi": [
    {
      "inputs": [
        {
          "internalType": "contract IDSToken",
          "name": "_token",
          "type": "address"
        },
        {
          "internalType": "contract IContractRegistry",
          "name": "_registry",
          "type": "address"
        },
        {
          "internalType": "uint32",
          "name": "_maxConversionFee",
          "type": "uint32"
        }
      ],
      "stateMutability": "nonpayable",
      "type": "constructor"
    },
    {
      "anonymous": false,
      "inputs": [
        {
          "indexed": true,
          "internalType": "uint16",
          "name": "_type",
          "type": "uint16"
        },
        {
          "indexed": true,
          "internalType": "contract IConverterAnchor",
          "name": "_anchor",
          "type": "address"
        },
        {
          "indexed": true,
          "internalType": "bool",
          "name": "_activated",
          "type": "bool"
        }
      ],
      "name": "Activation",
      "type": "event"
    },
    {
      "anonymous": false,
      "inputs": [
        {
          "indexed": true,
          "internalType": "contract IERC20",
          "name": "_fromToken",
          "type": "address"
        },
        {
          "indexed": true,
          "internalType": "contract IERC20",
          "name": "_toToken",
          "type": "address"
        },
        {
          "indexed": true,
          "internalType": "address",
          "name": "_trader",
          "type": "address"
        },
        {
          "indexed": false,
          "internalType": "uint256",
          "name": "_amount",
          "type": "uint256"
        },
        {
          "indexed": false,
          "internalType": "uint256",
          "name": "_return",
          "type": "uint256"
        },
        {
          "indexed": false,
          "internalType": "int256",
          "name": "_conversionFee",
          "type": "int256"
        }
      ],
      "name": "Conversion",
      "type": "event"
    },
    {
      "anonymous": false,
      "inputs": [
        {
          "indexed": false,
          "internalType": "uint32",
          "name": "_prevFee",
          "type": "uint32"
        },
        {
          "indexed": false,
          "internalType": "uint32",
          "name": "_newFee",
          "type": "uint32"
        }
      ],
      "name": "ConversionFeeUpdate",
      "type": "event"
    },
    {
      "anonymous": false,
      "inputs": [
        {
          "indexed": true,
          "internalType": "address",
          "name": "_provider",
          "type": "address"
        },
        {
          "indexed": true,
          "internalType": "contract IERC20",
          "name": "_reserveToken",
          "type": "address"
        },
        {
          "indexed": false,
          "internalType": "uint256",
          "name": "_amount",
          "type": "uint256"
        },
        {
          "indexed": false,
          "internalType": "uint256",
          "name": "_newBalance",
          "type": "uint256"
        },
        {
          "indexed": false,
          "internalType": "uint256",
          "name": "_newSupply",
          "type": "uint256"
        }
      ],
      "name": "LiquidityAdded",
      "type": "event"
    },
    {
      "anonymous": false,
      "inputs": [
        {
          "indexed": true,
          "internalType": "address",
          "name": "_provider",
          "type": "address"
        },
        {
          "indexed": true,
          "internalType": "contract IERC20",
          "name": "_reserveToken",
          "type": "address"
        },
        {
          "indexed": false,
          "internalType": "uint256",
          "name": "_amount",
          "type": "uint256"
        },
        {
          "indexed": false,
          "internalType": "uint256",
          "name": "_newBalance",
          "type": "uint256"
        },
        {
          "indexed": false,
          "internalType": "uint256",
          "name": "_newSupply",
          "type": "uint256"
        }
      ],
      "name": "LiquidityRemoved",
      "type": "event"
    },
    {
      "anonymous": false,
      "inputs": [
        {
          "indexed": true,
          "internalType": "address",
          "name": "_prevOwner",
          "type": "address"
        },
        {
          "indexed": true,
          "internalType": "address",
          "name": "_newOwner",
          "type": "address"
        }
      ],
      "name": "OwnerUpdate",
      "type": "event"
    },
    {
      "anonymous": false,
      "inputs": [
        {
          "indexed": true,
          "internalType": "contract IERC20",
          "name": "_token1",
          "type": "address"
        },
        {
          "indexed": true,
          "internalType": "contract IERC20",
          "name": "_token2",
          "type": "address"
        },
        {
          "indexed": false,
          "internalType": "uint256",
          "name": "_rateN",
          "type": "uint256"
        },
        {
          "indexed": false,
          "internalType": "uint256",
          "name": "_rateD",
          "type": "uint256"
        }
      ],
      "name": "TokenRateUpdate",
      "type": "event"
    },
    {
      "inputs": [],
      "name": "acceptAnchorOwnership",
      "outputs": [],
      "stateMutability": "nonpayable",
      "type": "function"
    },
    {
      "inputs": [],
      "name": "acceptOwnership",
      "outputs": [],
      "stateMutability": "nonpayable",
      "type": "function"
    },
    {
      "inputs": [],
      "name": "acceptTokenOwnership",
      "outputs": [],
      "stateMutability": "nonpayable",
      "type": "function"
    },
    {
      "inputs": [
        {
          "internalType": "contract IERC20[]",
          "name": "_reserveTokens",
          "type": "address[]"
        },
        {
          "internalType": "uint256[]",
          "name": "_reserveAmounts",
          "type": "uint256[]"
        },
        {
          "internalType": "uint256",
          "name": "_minReturn",
          "type": "uint256"
        }
      ],
      "name": "addLiquidity",
      "outputs": [
        {
          "internalType": "uint256",
          "name": "",
          "type": "uint256"
        }
      ],
      "stateMutability": "payable",
      "type": "function"
    },
    {
      "inputs": [
        {
          "internalType": "contract IERC20[]",
          "name": "_reserveTokens",
          "type": "address[]"
        },
        {
          "internalType": "uint256",
          "name": "_reserveTokenIndex",
          "type": "uint256"
        },
        {
          "internalType": "uint256",
          "name": "_reserveAmount",
          "type": "uint256"
        }
      ],
      "name": "addLiquidityCost",
      "outputs": [
        {
          "internalType": "uint256[]",
          "name": "",
          "type": "uint256[]"
        }
      ],
      "stateMutability": "view",
      "type": "function"
    },
    {
      "inputs": [
        {
          "internalType": "contract IERC20",
          "name": "_reserveToken",
          "type": "address"
        },
        {
          "internalType": "uint256",
          "name": "_reserveAmount",
          "type": "uint256"
        }
      ],
      "name": "addLiquidityReturn",
      "outputs": [
        {
          "internalType": "uint256",
          "name": "",
          "type": "uint256"
        }
      ],
      "stateMutability": "view",
      "type": "function"
    },
    {
      "inputs": [
        {
          "internalType": "contract IERC20",
          "name": "_token",
          "type": "address"
        },
        {
          "internalType": "uint32",
          "name": "_weight",
          "type": "uint32"
        }
      ],
      "name": "addReserve",
      "outputs": [],
      "stateMutability": "nonpayable",
      "type": "function"
    },
    {
      "inputs": [],
      "name": "anchor",
      "outputs": [
        {
          "internalType": "contract IConverterAnchor",
          "name": "",
          "type": "address"
        }
      ],
      "stateMutability": "view",
      "type": "function"
    },
    {
      "inputs": [],
      "name": "connectorTokenCount",
      "outputs": [
        {
          "internalType": "uint16",
          "name": "",
          "type": "uint16"
        }
      ],
      "stateMutability": "view",
      "type": "function"
    },
    {
      "inputs": [
        {
          "internalType": "uint256",
          "name": "_index",
          "type": "uint256"
        }
      ],
      "name": "connectorTokens",
      "outputs": [
        {
          "internalType": "contract IERC20",
          "name": "",
          "type": "address"
        }
      ],
      "stateMutability": "view",
      "type": "function"
    },
    {
      "inputs": [
        {
          "internalType": "contract IERC20",
          "name": "_address",
          "type": "address"
        }
      ],
      "name": "connectors",
      "outputs": [
        {
          "internalType": "uint256",
          "name": "",
          "type": "uint256"
        },
        {
          "internalType": "uint32",
          "name": "",
          "type": "uint32"
        },
        {
          "internalType": "bool",
          "name": "",
          "type": "bool"
        },
        {
          "internalType": "bool",
          "name": "",
          "type": "bool"
        },
        {
          "internalType": "bool",
          "name": "",
          "type": "bool"
        }
      ],
      "stateMutability": "view",
      "type": "function"
    },
    {
      "inputs": [],
      "name": "conversionFee",
      "outputs": [
        {
          "internalType": "uint32",
          "name": "",
          "type": "uint32"
        }
      ],
      "stateMutability": "view",
      "type": "function"
    },
    {
      "inputs": [],
      "name": "conversionWhitelist",
      "outputs": [
        {
          "internalType": "contract IWhitelist",
          "name": "",
          "type": "address"
        }
      ],
      "stateMutability": "view",
      "type": "function"
    },
    {
      "inputs": [
        {
          "internalType": "contract IERC20",
          "name": "_sourceToken",
          "type": "address"
        },
        {
          "internalType": "contract IERC20",
          "name": "_targetToken",
          "type": "address"
        },
        {
          "internalType": "uint256",
          "name": "_amount",
          "type": "uint256"
        },
        {
          "internalType": "address",
          "name": "_trader",
          "type": "address"
        },
        {
          "internalType": "address payable",
          "name": "_beneficiary",
          "type": "address"
        }
      ],
      "name": "convert",
      "outputs": [
        {
          "internalType": "uint256",
          "name": "",
          "type": "uint256"
        }
      ],
      "stateMutability": "payable",
      "type": "function"
    },
    {
      "inputs": [],
      "name": "converterType",
      "outputs": [
        {
          "internalType": "uint16",
          "name": "",
          "type": "uint16"
        }
      ],
      "stateMutability": "pure",
      "type": "function"
    },
    {
      "inputs": [],
      "name": "currentTime",
      "outputs": [
        {
          "internalType": "uint256",
          "name": "",
          "type": "uint256"
        }
      ],
      "stateMutability": "view",
      "type": "function"
    },
    {
      "inputs": [
        {
          "internalType": "uint256",
          "name": "_amount",
          "type": "uint256"
        }
      ],
      "name": "fund",
      "outputs": [
        {
          "internalType": "uint256",
          "name": "",
          "type": "uint256"
        }
      ],
      "stateMutability": "payable",
      "type": "function"
    },
    {
      "inputs": [
        {
          "internalType": "contract IERC20",
          "name": "_connectorToken",
          "type": "address"
        }
      ],
      "name": "getConnectorBalance",
      "outputs": [
        {
          "internalType": "uint256",
          "name": "",
          "type": "uint256"
        }
      ],
      "stateMutability": "view",
      "type": "function"
    },
    {
      "inputs": [
        {
          "internalType": "contract IERC20",
          "name": "_sourceToken",
          "type": "address"
        },
        {
          "internalType": "contract IERC20",
          "name": "_targetToken",
          "type": "address"
        },
        {
          "internalType": "uint256",
          "name": "_amount",
          "type": "uint256"
        }
      ],
      "name": "getReturn",
      "outputs": [
        {
          "internalType": "uint256",
          "name": "",
          "type": "uint256"
        },
        {
          "internalType": "uint256",
          "name": "",
          "type": "uint256"
        }
      ],
      "stateMutability": "view",
      "type": "function"
    },
    {
      "inputs": [],
      "name": "isActive",
      "outputs": [
        {
          "internalType": "bool",
          "name": "",
          "type": "bool"
        }
      ],
      "stateMutability": "view",
      "type": "function"
    },
    {
      "inputs": [],
      "name": "isStandardPool",
      "outputs": [
        {
          "internalType": "bool",
          "name": "",
          "type": "bool"
        }
      ],
      "stateMutability": "view",
      "type": "function"
    },
    {
      "inputs": [],
      "name": "isV28OrHigher",
      "outputs": [
        {
          "internalType": "bool",
          "name": "",
          "type": "bool"
        }
      ],
      "stateMutability": "pure",
      "type": "function"
    },
    {
      "inputs": [
        {
          "internalType": "uint256",
          "name": "_amount",
          "type": "uint256"
        }
      ],
      "name": "liquidate",
      "outputs": [
        {
          "internalType": "uint256[]",
          "name": "",
          "type": "uint256[]"
        }
      ],
      "stateMutability": "nonpayable",
      "type": "function"
    },
    {
      "inputs": [],
      "name": "maxConversionFee",
      "outputs": [
        {
          "internalType": "uint32",
          "name": "",
          "type": "uint32"
        }
      ],
      "stateMutability": "view",
      "type": "function"
    },
    {
      "inputs": [],
      "name": "newOwner",
      "outputs": [
        {
          "internalType": "address",
          "name": "",
          "type": "address"
        }
      ],
      "stateMutability": "view",
      "type": "function"
    },
    {
      "inputs": [],
      "name": "onlyOwnerCanUpdateRegistry",
      "outputs": [
        {
          "internalType": "bool",
          "name": "",
          "type": "bool"
        }
      ],
      "stateMutability": "view",
      "type": "function"
    },
    {
      "inputs": [],
      "name": "owner",
      "outputs": [
        {
          "internalType": "address",
          "name": "",
          "type": "address"
        }
      ],
      "stateMutability": "view",
      "type": "function"
    },
    {
      "inputs": [],
      "name": "prevAverageRate",
      "outputs": [
        {
          "internalType": "uint256",
          "name": "n",
          "type": "uint256"
        },
        {
          "internalType": "uint256",
          "name": "d",
          "type": "uint256"
        }
      ],
      "stateMutability": "view",
      "type": "function"
    },
    {
      "inputs": [],
      "name": "prevAverageRateUpdateTime",
      "outputs": [
        {
          "internalType": "uint256",
          "name": "",
          "type": "uint256"
        }
      ],
      "stateMutability": "view",
      "type": "function"
    },
    {
      "inputs": [],
      "name": "prevRegistry",
      "outputs": [
        {
          "internalType": "contract IContractRegistry",
          "name": "",
          "type": "address"
        }
      ],
      "stateMutability": "view",
      "type": "function"
    },
    {
      "inputs": [
        {
          "internalType": "contract IERC20",
          "name": "_token",
          "type": "address"
        }
      ],
      "name": "recentAverageRate",
      "outputs": [
        {
          "internalType": "uint256",
          "name": "",
          "type": "uint256"
        },
        {
          "internalType": "uint256",
          "name": "",
          "type": "uint256"
        }
      ],
      "stateMutability": "view",
      "type": "function"
    },
    {
      "inputs": [],
      "name": "registry",
      "outputs": [
        {
          "internalType": "contract IContractRegistry",
          "name": "",
          "type": "address"
        }
      ],
      "stateMutability": "view",
      "type": "function"
    },
    {
      "inputs": [
        {
          "internalType": "uint256",
          "name": "_amount",
          "type": "uint256"
        },
        {
          "internalType": "contract IERC20[]",
          "name": "_reserveTokens",
          "type": "address[]"
        },
        {
          "internalType": "uint256[]",
          "name": "_reserveMinReturnAmounts",
          "type": "uint256[]"
        }
      ],
      "name": "removeLiquidity",
      "outputs": [
        {
          "internalType": "uint256[]",
          "name": "",
          "type": "uint256[]"
        }
      ],
      "stateMutability": "nonpayable",
      "type": "function"
    },
    {
      "inputs": [
        {
          "internalType": "uint256",
          "name": "_amount",
          "type": "uint256"
        },
        {
          "internalType": "contract IERC20[]",
          "name": "_reserveTokens",
          "type": "address[]"
        }
      ],
      "name": "removeLiquidityReturn",
      "outputs": [
        {
          "internalType": "uint256[]",
          "name": "",
          "type": "uint256[]"
        }
      ],
      "stateMutability": "view",
      "type": "function"
    },
    {
      "inputs": [
        {
          "internalType": "uint256",
          "name": "",
          "type": "uint256"
        }
      ],
      "name": "reserveAmountsRemoved",
      "outputs": [
        {
          "internalType": "uint256",
          "name": "",
          "type": "uint256"
        }
      ],
      "stateMutability": "view",
      "type": "function"
    },
    {
      "inputs": [
        {
          "internalType": "contract IERC20",
          "name": "_reserveToken",
          "type": "address"
        }
      ],
      "name": "reserveBalance",
      "outputs": [
        {
          "internalType": "uint256",
          "name": "",
          "type": "uint256"
        }
      ],
      "stateMutability": "view",
      "type": "function"
    },
    {
      "inputs": [],
      "name": "reserveRatio",
      "outputs": [
        {
          "internalType": "uint32",
          "name": "",
          "type": "uint32"
        }
      ],
      "stateMutability": "view",
      "type": "function"
    },
    {
      "inputs": [],
      "name": "reserveTokenCount",
      "outputs": [
        {
          "internalType": "uint16",
          "name": "",
          "type": "uint16"
        }
      ],
      "stateMutability": "view",
      "type": "function"
    },
    {
      "inputs": [
        {
          "internalType": "uint256",
          "name": "",
          "type": "uint256"
        }
      ],
      "name": "reserveTokens",
      "outputs": [
        {
          "internalType": "contract IERC20",
          "name": "",
          "type": "address"
        }
      ],
      "stateMutability": "view",
      "type": "function"
    },
    {
      "inputs": [
        {
          "internalType": "contract IERC20",
          "name": "_reserveToken",
          "type": "address"
        }
      ],
      "name": "reserveWeight",
      "outputs": [
        {
          "internalType": "uint32",
          "name": "",
          "type": "uint32"
        }
      ],
      "stateMutability": "view",
      "type": "function"
    },
    {
      "inputs": [
        {
          "internalType": "contract IERC20",
          "name": "",
          "type": "address"
        }
      ],
      "name": "reserves",
      "outputs": [
        {
          "internalType": "uint256",
          "name": "balance",
          "type": "uint256"
        },
        {
          "internalType": "uint32",
          "name": "weight",
          "type": "uint32"
        },
        {
          "internalType": "bool",
          "name": "deprecated1",
          "type": "bool"
        },
        {
          "internalType": "bool",
          "name": "deprecated2",
          "type": "bool"
        },
        {
          "internalType": "bool",
          "name": "isSet",
          "type": "bool"
        }
      ],
      "stateMutability": "view",
      "type": "function"
    },
    {
      "inputs": [],
      "name": "restoreRegistry",
      "outputs": [],
      "stateMutability": "nonpayable",
      "type": "function"
    },
    {
      "inputs": [
        {
          "internalType": "bool",
          "name": "_onlyOwnerCanUpdateRegistry",
          "type": "bool"
        }
      ],
      "name": "restrictRegistryUpdate",
      "outputs": [],
      "stateMutability": "nonpayable",
      "type": "function"
    },
    {
      "inputs": [
        {
          "internalType": "uint32",
          "name": "_conversionFee",
          "type": "uint32"
        }
      ],
      "name": "setConversionFee",
      "outputs": [],
      "stateMutability": "nonpayable",
      "type": "function"
    },
    {
      "inputs": [
        {
          "internalType": "contract IWhitelist",
          "name": "_whitelist",
          "type": "address"
        }
      ],
      "name": "setConversionWhitelist",
      "outputs": [],
      "stateMutability": "nonpayable",
      "type": "function"
    },
    {
      "inputs": [
        {
          "internalType": "uint256",
          "name": "_currentTime",
          "type": "uint256"
        }
      ],
      "name": "setTime",
      "outputs": [],
      "stateMutability": "nonpayable",
      "type": "function"
    },
    {
      "inputs": [
        {
          "internalType": "contract IERC20",
          "name": "_sourceToken",
          "type": "address"
        },
        {
          "internalType": "contract IERC20",
          "name": "_targetToken",
          "type": "address"
        },
        {
          "internalType": "uint256",
          "name": "_amount",
          "type": "uint256"
        }
      ],
      "name": "targetAmountAndFee",
      "outputs": [
        {
          "internalType": "uint256",
          "name": "",
          "type": "uint256"
        },
        {
          "internalType": "uint256",
          "name": "",
          "type": "uint256"
        }
      ],
      "stateMutability": "view",
      "type": "function"
    },
    {
      "inputs": [],
      "name": "token",
      "outputs": [
        {
          "internalType": "contract IConverterAnchor",
          "name": "",
          "type": "address"
        }
      ],
      "stateMutability": "view",
      "type": "function"
    },
    {
      "inputs": [
        {
          "internalType": "address",
          "name": "_newOwner",
          "type": "address"
        }
      ],
      "name": "transferAnchorOwnership",
      "outputs": [],
      "stateMutability": "nonpayable",
      "type": "function"
    },
    {
      "inputs": [
        {
          "internalType": "address",
          "name": "_newOwner",
          "type": "address"
        }
      ],
      "name": "transferOwnership",
      "outputs": [],
      "stateMutability": "nonpayable",
      "type": "function"
    },
    {
      "inputs": [
        {
          "internalType": "address",
          "name": "_newOwner",
          "type": "address"
        }
      ],
      "name": "transferTokenOwnership",
      "outputs": [],
      "stateMutability": "nonpayable",
      "type": "function"
    },
    {
      "inputs": [],
      "name": "updateRegistry",
      "outputs": [],
      "stateMutability": "nonpayable",
      "type": "function"
    },
    {
      "inputs": [],
      "name": "upgrade",
      "outputs": [],
      "stateMutability": "nonpayable",
      "type": "function"
    },
    {
      "inputs": [],
      "name": "version",
      "outputs": [
        {
          "internalType": "uint16",
          "name": "",
          "type": "uint16"
        }
      ],
      "stateMutability": "view",
      "type": "function"
    },
    {
      "inputs": [
        {
          "internalType": "address payable",
          "name": "_to",
          "type": "address"
        }
      ],
      "name": "withdrawETH",
      "outputs": [],
      "stateMutability": "nonpayable",
      "type": "function"
    },
    {
      "inputs": [
        {
          "internalType": "contract IERC20",
          "name": "_token",
          "type": "address"
        },
        {
          "internalType": "address",
          "name": "_to",
          "type": "address"
        },
        {
          "internalType": "uint256",
          "name": "_amount",
          "type": "uint256"
        }
      ],
      "name": "withdrawTokens",
      "outputs": [],
      "stateMutability": "nonpayable",
      "type": "function"
    },
    {
      "stateMutability": "payable",
      "type": "receive"
    },
    {
      "inputs": [
        {
          "internalType": "uint256",
          "name": "_amount",
          "type": "uint256"
        },
        {
          "internalType": "contract IERC20[]",
          "name": "_reserveTokens",
          "type": "address[]"
        },
        {
          "internalType": "uint256[]",
          "name": "_reserveMinReturnAmounts",
          "type": "uint256[]"
        }
      ],
      "name": "removeLiquidityTest",
      "outputs": [],
      "stateMutability": "nonpayable",
      "type": "function"
    }
  ],
  "bytecode": "0x608060405260016004819055600980546001600160681b0319169055600d553480156200002b57600080fd5b506040516200563538038062005635833981810160405260608110156200005157600080fd5b5080516020820151604090920151600080546001600160a01b0319163317905590919082828282828282828281806200008a8162000127565b50600280546001600160a01b039092166001600160a01b031992831681179091556003805490921617905582620000c18162000127565b81620000cd8162000186565b5050600580546001600160a01b039094166001600160a01b031990941693909317909255506009805463ffffffff9092166401000000000263ffffffff60201b1990921691909117905550620001e5975050505050505050565b6001600160a01b03811662000183576040805162461bcd60e51b815260206004820152601360248201527f4552525f494e56414c49445f4144445245535300000000000000000000000000604482015290519081900360640190fd5b50565b620f424063ffffffff8216111562000183576040805162461bcd60e51b815260206004820152601a60248201527f4552525f494e56414c49445f434f4e56455253494f4e5f464545000000000000604482015290519081900360640190fd5b61544080620001f56000396000f3fe60806040526004361061037a5760003560e01c806371f52bf3116101d1578063d031370b11610102578063d8959512116100a0578063e8dc12ff1161006f578063e8dc12ff14611027578063ecbca55d1461106d578063f2fde38b1461109d578063fc0c546a146110d05761039a565b8063d895951214610e75578063dc3d535314610ea8578063dc8de37914610fdf578063e2c52468146110125761039a565b8063d3fb73b4116100dc578063d3fb73b414610e03578063d4ee1d9014610e18578063d55ec69714610e2d578063d66bd52414610e425761039a565b8063d031370b14610daf578063d18e81b314610dd9578063d260529c14610dee5761039a565b80639b99a8e21161016f578063b4a176d311610149578063b4a176d314610d53578063c45d3d9214610d68578063ca1d209d14610d7d578063cdc91c6914610d9a5761039a565b80639b99a8e214610bc4578063af94b8d814610bd9578063b127c0a514610c1c5761039a565b80637d8916bd116101ab5780637d8916bd146109c257806380d9416d14610ae75780638da5cb5b14610b9a57806394c275ad14610baf5761039a565b806371f52bf31461098357806379ba5097146109985780637b103999146109ad5761039a565b80633beb26c4116102ab57806354fd4d501161024957806361cd756e1161022357806361cd756e146108c957806367b6d57c146108de578063690d8320146109115780636a49d2c4146109445761039a565b806354fd4d501461085c578063579cd3ca146108715780635e35359e146108865761039a565b806349d10b641161028557806349d10b64146107b15780634af80f0e146107c65780634bfcd2c6146107f95780634e40c260146108235761039a565b80633beb26c4146107315780633e8ff43f1461075b578063415f1240146107875761039a565b80631e1401f81161031857806322f3e2d4116102f257806322f3e2d4146106c95780632fe8a6ad146106f257806338a5e0161461070757806338e9f27a1461071c5761039a565b80631e1401f8146106075780631f0181bc1461066357806321e6b53d146106965761039a565b80631545883711610354578063154588371461046257806319b64015146105675780631cfab290146105ad5780631d4db791146105e05761039a565b8063024c7ec71461039f5780630c7d5cd8146103cd5780630e53aae9146103fb5761039a565b3661039a576000805160206153c1833981519152610397816110e5565b50005b600080fd5b3480156103ab57600080fd5b506103cb600480360360208110156103c257600080fd5b50351515611155565b005b3480156103d957600080fd5b506103e261117b565b6040805163ffffffff9092168252519081900360200190f35b34801561040757600080fd5b5061042e6004803603602081101561041e57600080fd5b50356001600160a01b0316611187565b6040805195865263ffffffff9094166020860152911515848401521515606084015215156080830152519081900360a00190f35b34801561046e57600080fd5b506105176004803603604081101561048557600080fd5b81359190810190604081016020820135600160201b8111156104a657600080fd5b8201836020820111156104b857600080fd5b803590602001918460208302840111600160201b831117156104d957600080fd5b91908080602002602001604051908101604052809392919081815260200183836020028082843760009201919091525092955061121e945050505050565b60408051602080825283518183015283519192839290830191858101910280838360005b8381101561055357818101518382015260200161053b565b505050509050019250505060405180910390f35b34801561057357600080fd5b506105916004803603602081101561058a57600080fd5b50356112d2565b604080516001600160a01b039092168252519081900360200190f35b3480156105b957600080fd5b506103e2600480360360208110156105d057600080fd5b50356001600160a01b03166112fc565b3480156105ec57600080fd5b506105f561132e565b60408051918252519081900360200190f35b34801561061357600080fd5b5061064a6004803603606081101561062a57600080fd5b506001600160a01b03813581169160208101359091169060400135611334565b6040805192835260208301919091528051918290030190f35b34801561066f57600080fd5b5061064a6004803603602081101561068657600080fd5b50356001600160a01b031661134f565b3480156106a257600080fd5b506103cb600480360360208110156106b957600080fd5b50356001600160a01b0316611416565b3480156106d557600080fd5b506106de611427565b604080519115158252519081900360200190f35b3480156106fe57600080fd5b506106de6114bd565b34801561071357600080fd5b506103cb6114cd565b34801561072857600080fd5b506106de6114df565b34801561073d57600080fd5b506103cb6004803603602081101561075457600080fd5b50356114ef565b34801561076757600080fd5b506107706114f4565b6040805161ffff9092168252519081900360200190f35b34801561079357600080fd5b50610517600480360360208110156107aa57600080fd5b50356114f9565b3480156107bd57600080fd5b506103cb611716565b3480156107d257600080fd5b506103cb600480360360208110156107e957600080fd5b50356001600160a01b031661191e565b34801561080557600080fd5b506105f56004803603602081101561081c57600080fd5b5035611953565b34801561082f57600080fd5b506105f56004803603604081101561084657600080fd5b506001600160a01b038135169060200135611971565b34801561086857600080fd5b50610770611aba565b34801561087d57600080fd5b506103e2611abf565b34801561089257600080fd5b506103cb600480360360608110156108a957600080fd5b506001600160a01b03813581169160208101359091169060400135611ad2565b3480156108d557600080fd5b50610591611bed565b3480156108ea57600080fd5b506103cb6004803603602081101561090157600080fd5b50356001600160a01b0316611bfc565b34801561091d57600080fd5b506103cb6004803603602081101561093457600080fd5b50356001600160a01b0316611c92565b34801561095057600080fd5b506103cb6004803603604081101561096757600080fd5b5080356001600160a01b0316906020013563ffffffff16611da3565b34801561098f57600080fd5b50610770611e87565b3480156109a457600080fd5b506103cb611e96565b3480156109b957600080fd5b50610591611f4d565b6105f5600480360360608110156109d857600080fd5b810190602081018135600160201b8111156109f257600080fd5b820183602082011115610a0457600080fd5b803590602001918460208302840111600160201b83111715610a2557600080fd5b9190808060200260200160405190810160405280939291908181526020018383602002808284376000920191909152509295949360208101935035915050600160201b811115610a7457600080fd5b820183602082011115610a8657600080fd5b803590602001918460208302840111600160201b83111715610aa757600080fd5b9190808060200260200160405190810160405280939291908181526020018383602002808284376000920191909152509295505091359250611f5c915050565b348015610af357600080fd5b5061051760048036036060811015610b0a57600080fd5b810190602081018135600160201b811115610b2457600080fd5b820183602082011115610b3657600080fd5b803590602001918460208302840111600160201b83111715610b5757600080fd5b9190808060200260200160405190810160405280939291908181526020018383602002808284376000920191909152509295505082359350505060200135612204565b348015610ba657600080fd5b506105916124b3565b348015610bbb57600080fd5b506103e26124c2565b348015610bd057600080fd5b506107706124d5565b348015610be557600080fd5b5061064a60048036036060811015610bfc57600080fd5b506001600160a01b038135811691602081013590911690604001356124db565b348015610c2857600080fd5b5061051760048036036060811015610c3f57600080fd5b81359190810190604081016020820135600160201b811115610c6057600080fd5b820183602082011115610c7257600080fd5b803590602001918460208302840111600160201b83111715610c9357600080fd5b9190808060200260200160405190810160405280939291908181526020018383602002808284376000920191909152509295949360208101935035915050600160201b811115610ce257600080fd5b820183602082011115610cf457600080fd5b803590602001918460208302840111600160201b83111715610d1557600080fd5b91908080602002602001604051908101604052809392919081815260200183836020028082843760009201919091525092955061267e945050505050565b348015610d5f57600080fd5b506103cb612799565b348015610d7457600080fd5b506105916127c5565b6105f560048036036020811015610d9357600080fd5b50356127d4565b348015610da657600080fd5b506103cb612baa565b348015610dbb57600080fd5b5061059160048036036020811015610dd257600080fd5b5035612c03565b348015610de557600080fd5b506105f5612c2a565b348015610dfa57600080fd5b506106de6114f4565b348015610e0f57600080fd5b50610591612c30565b348015610e2457600080fd5b50610591612c3f565b348015610e3957600080fd5b506103cb612c4e565b348015610e4e57600080fd5b5061042e60048036036020811015610e6557600080fd5b50356001600160a01b0316612d36565b348015610e8157600080fd5b506105f560048036036020811015610e9857600080fd5b50356001600160a01b0316612d78565b348015610eb457600080fd5b506103cb60048036036060811015610ecb57600080fd5b81359190810190604081016020820135600160201b811115610eec57600080fd5b820183602082011115610efe57600080fd5b803590602001918460208302840111600160201b83111715610f1f57600080fd5b9190808060200260200160405190810160405280939291908181526020018383602002808284376000920191909152509295949360208101935035915050600160201b811115610f6e57600080fd5b820183602082011115610f8057600080fd5b803590602001918460208302840111600160201b83111715610fa157600080fd5b919080806020026020016040519081016040528093929190818152602001838360200280828437600092019190915250929550612d83945050505050565b348015610feb57600080fd5b506105f56004803603602081101561100257600080fd5b50356001600160a01b0316612da8565b34801561101e57600080fd5b5061064a612dd1565b6105f5600480360360a081101561103d57600080fd5b506001600160a01b0381358116916020810135821691604082013591606081013582169160809091013516612dda565b34801561107957600080fd5b506103cb6004803603602081101561109057600080fd5b503563ffffffff16612fd4565b3480156110a957600080fd5b506103cb600480360360208110156110c057600080fd5b50356001600160a01b03166130bb565b3480156110dc57600080fd5b50610591613139565b6001600160a01b038116600090815260086020526040902060010154600160301b900460ff16611152576040805162461bcd60e51b81526020600482015260136024820152724552525f494e56414c49445f5245534552564560681b604482015290519081900360640190fd5b50565b61115d613148565b60038054911515600160a01b0260ff60a01b19909216919091179055565b60095463ffffffff1681565b60008060008060006111976152b1565b505050506001600160a01b03929092166000908152600860209081526040808320815160a081018352815480825260019092015463ffffffff811694820185905260ff600160201b82048116151594830194909452650100000000008104841615156060830152600160301b90049092161515608090920182905295919450919250829190565b60606000600560009054906101000a90046001600160a01b03166001600160a01b03166318160ddd6040518163ffffffff1660e01b815260040160206040518083038186803b15801561127057600080fd5b505afa158015611284573d6000803e3d6000fd5b505050506040513d602081101561129a57600080fd5b5051905060006112b96c42616e636f72466f726d756c6160981b61319b565b90506112c785858484613219565b925050505b92915050565b6000600782815481106112e157fe5b6000918252602090912001546001600160a01b031692915050565b600081611308816110e5565b50506001600160a01b031660009081526008602052604090206001015463ffffffff1690565b600c5481565b6000806113428585856124db565b915091505b935093915050565b6000808261135c816110e5565b600954600160601b900460ff166113b2576040805162461bcd60e51b815260206004820152601560248201527411549497d393d397d4d510539110549117d413d3d3605a1b604482015290519081900360640190fd5b6113ba6152df565b6113c261335e565b905060076000815481106113d257fe5b6000918252602090912001546001600160a01b03868116911614156114035780516020909101519093509150611410565b6020810151905190935091505b50915091565b61141e613148565b61115281611bfc565b6000306001600160a01b0316600560009054906101000a90046001600160a01b03166001600160a01b0316638da5cb5b6040518163ffffffff1660e01b815260040160206040518083038186803b15801561148157600080fd5b505afa158015611495573d6000803e3d6000fd5b505050506040513d60208110156114ab57600080fd5b50516001600160a01b03161490505b90565b600354600160a01b900460ff1681565b6114d5613148565b6114dd612baa565b565b600954600160601b900460ff1681565b600d55565b600190565b606061150361352d565b60026004558161154c576040805162461bcd60e51b815260206004820152600f60248201526e11549497d6915493d7d05353d55395608a1b604482015290519081900360640190fd5b600554604080516318160ddd60e01b815290516000926001600160a01b0316916318160ddd916004808301926020929190829003018186803b15801561159157600080fd5b505afa1580156115a5573d6000803e3d6000fd5b505050506040513d60208110156115bb57600080fd5b50516005546040805163a24835d160e01b81523360048201526024810187905290519293506001600160a01b039091169163a24835d19160448082019260009290919082900301818387803b15801561161357600080fd5b505af1158015611627573d6000803e3d6000fd5b505060075460609250905067ffffffffffffffff8111801561164857600080fd5b50604051908082528060200260200182016040528015611672578160200160208202803683370190505b50905060005b81518110156116a257600182828151811061168f57fe5b6020908102919091010152600101611678565b5061170960078054806020026020016040519081016040528092919081815260200182805480156116fc57602002820191906000526020600020905b81546001600160a01b031681526001909101906020018083116116de575b5050505050828487613575565b6001600455949350505050565b6000546001600160a01b03163314806117395750600354600160a01b900460ff16155b61177e576040805162461bcd60e51b815260206004820152601160248201527011549497d050d0d154d4d7d11153925151607a1b604482015290519081900360640190fd5b600061179c6f436f6e7472616374526567697374727960801b61319b565b6002549091506001600160a01b038083169116148015906117c557506001600160a01b03811615155b61180d576040805162461bcd60e51b81526020600482015260146024820152734552525f494e56414c49445f524547495354525960601b604482015290519081900360640190fd5b60006001600160a01b0316816001600160a01b031663bb34534c6f436f6e7472616374526567697374727960801b6040518263ffffffff1660e01b81526004018082815260200191505060206040518083038186803b15801561186f57600080fd5b505afa158015611883573d6000803e3d6000fd5b505050506040513d602081101561189957600080fd5b50516001600160a01b031614156118ee576040805162461bcd60e51b81526020600482015260146024820152734552525f494e56414c49445f524547495354525960601b604482015290519081900360640190fd5b60028054600380546001600160a01b038084166001600160a01b0319928316179092559091169216919091179055565b611926613148565b8061193081613789565b50600680546001600160a01b0319166001600160a01b0392909216919091179055565b600e818154811061196057fe5b600091825260209091200154905081565b600080600560009054906101000a90046001600160a01b03166001600160a01b03166318160ddd6040518163ffffffff1660e01b815260040160206040518083038186803b1580156119c257600080fd5b505afa1580156119d6573d6000803e3d6000fd5b505050506040513d60208110156119ec57600080fd5b505190506000611a0b6c42616e636f72466f726d756c6160981b61319b565b6001600160a01b03868116600090815260086020908152604091829020546009548351632f55bdb560e01b815260048101899052602481019290925263ffffffff16604482015260648101899052915193945091841692632f55bdb592608480840193919291829003018186803b158015611a8557600080fd5b505afa158015611a99573d6000803e3d6000fd5b505050506040513d6020811015611aaf57600080fd5b505195945050505050565b602d81565b600954600160401b900463ffffffff1681565b611ada61352d565b6002600455611ae7613148565b6000611b0c762130b731b7b921b7b73b32b93a32b92ab833b930b232b960491b61319b565b6001600160a01b038516600090815260086020526040902060010154909150600160301b900460ff161580611b465750611b44611427565b155b80611b5e57506000546001600160a01b038281169116145b611ba3576040805162461bcd60e51b815260206004820152601160248201527011549497d050d0d154d4d7d11153925151607a1b604482015290519081900360640190fd5b611bae8484846137dd565b6001600160a01b038416600090815260086020526040902060010154600160301b900460ff1615611be257611be284613817565b505060016004555050565b6003546001600160a01b031681565b611c04613148565b762130b731b7b921b7b73b32b93a32b92ab833b930b232b960491b611c28816138f0565b6005546040805163f2fde38b60e01b81526001600160a01b0385811660048301529151919092169163f2fde38b91602480830192600092919082900301818387803b158015611c7657600080fd5b505af1158015611c8a573d6000803e3d6000fd5b505050505050565b611c9a61352d565b6002600455611ca7613148565b6000805160206153c1833981519152611cbf816110e5565b6000611ce4762130b731b7b921b7b73b32b93a32b92ab833b930b232b960491b61319b565b9050611cee611427565b1580611d0757506000546001600160a01b038281169116145b611d4c576040805162461bcd60e51b815260206004820152601160248201527011549497d050d0d154d4d7d11153925151607a1b604482015290519081900360640190fd5b6040516001600160a01b038416904780156108fc02916000818181858888f19350505050158015611d81573d6000803e3d6000fd5b50611d996000805160206153c1833981519152613817565b5050600160045550565b611dab613148565b611db58282613952565b6007546002148015611e1157506002620f42400463ffffffff16600860006007600081548110611de157fe5b60009182526020808320909101546001600160a01b0316835282019290925260400190206001015463ffffffff16145b8015611e6757506002620f42400463ffffffff16600860006007600181548110611e3757fe5b60009182526020808320909101546001600160a01b0316835282019290925260400190206001015463ffffffff16145b60098054911515600160601b0260ff60601b199092169190911790555050565b6000611e916124d5565b905090565b6001546001600160a01b03163314611ee9576040805162461bcd60e51b815260206004820152601160248201527011549497d050d0d154d4d7d11153925151607a1b604482015290519081900360640190fd5b600154600080546040516001600160a01b0393841693909116917f343765429aea5a34b3ff6a3785a98a5abb2597aca87bfbb58632c173d585373a91a360018054600080546001600160a01b03199081166001600160a01b03841617909155169055565b6002546001600160a01b031681565b6000611f6661352d565b6002600455611f73613b74565b611f7e848484613bbc565b60005b845181101561202e576000805160206153c18339815191526001600160a01b0316858281518110611fae57fe5b60200260200101516001600160a01b031614156120265734848281518110611fd257fe5b602002602001015114612026576040805162461bcd60e51b815260206004820152601760248201527608aa4a4be8aa890be829a9eaa9ca8be9a92a69a82a8869604b1b604482015290519081900360640190fd5b600101611f81565b5034156120be576000805160206153c183398151915260005260086020527f353c2eb9e53a4a4a6d45d72082ff2e9dc829d1125618772a83eb0e7f86632c4354600160301b900460ff166120be576040805162461bcd60e51b81526020600482015260126024820152714552525f4e4f5f4554485f5245534552564560701b604482015290519081900360640190fd5b600554604080516318160ddd60e01b815290516000926001600160a01b0316916318160ddd916004808301926020929190829003018186803b15801561210357600080fd5b505afa158015612117573d6000803e3d6000fd5b505050506040513d602081101561212d57600080fd5b50519050600061213e868684613e50565b90508381101561218a576040805162461bcd60e51b81526020600482015260126024820152714552525f52455455524e5f544f4f5f4c4f5760701b604482015290519081900360640190fd5b6005546040805163219e412d60e21b81523360048201526024810184905290516001600160a01b039092169163867904b49160448082019260009290919082900301818387803b1580156121dd57600080fd5b505af11580156121f1573d6000803e3d6000fd5b5050600160045550909695505050505050565b606080845167ffffffffffffffff8111801561221f57600080fd5b50604051908082528060200260200182016040528015612249578160200160208202803683370190505b5090506000600560009054906101000a90046001600160a01b03166001600160a01b03166318160ddd6040518163ffffffff1660e01b815260040160206040518083038186803b15801561229c57600080fd5b505afa1580156122b0573d6000803e3d6000fd5b505050506040513d60208110156122c657600080fd5b5051905060006122e56c42616e636f72466f726d756c6160981b61319b565b90506000816001600160a01b0316632f55bdb584600860008c8c8151811061230957fe5b6020908102919091018101516001600160a01b031682528181019290925260409081016000205460095482516001600160e01b031960e088901b1681526004810195909552602485019190915263ffffffff166044840152606483018b905251608480840193829003018186803b15801561238357600080fd5b505afa158015612397573d6000803e3d6000fd5b505050506040513d60208110156123ad57600080fd5b5051905060005b84518110156124a457826001600160a01b031663ebbb215885600860008d86815181106123dd57fe5b6020908102919091018101516001600160a01b031682528181019290925260409081016000205460095482516001600160e01b031960e088901b1681526004810195909552602485019190915263ffffffff1660448401526064830187905251608480840193829003018186803b15801561245757600080fd5b505afa15801561246b573d6000803e3d6000fd5b505050506040513d602081101561248157600080fd5b5051855186908390811061249157fe5b60209081029190910101526001016123b4565b509293505050505b9392505050565b6000546001600160a01b031681565b600954600160201b900463ffffffff1681565b60075490565b6000806124e6613b74565b846124f0816110e5565b846124fa816110e5565b856001600160a01b0316876001600160a01b0316141561255a576040805162461bcd60e51b815260206004820152601660248201527511549497d4d0535157d4d3d55490d157d5105491d15560521b604482015290519081900360640190fd5b60006125756c42616e636f72466f726d756c6160981b61319b565b6001600160a01b03166394491fab61258c8a612da8565b6001600160a01b038b1660009081526008602052604090206001015463ffffffff166125b78b612da8565b6001600160a01b038c166000908152600860209081526040918290206001015482516001600160e01b031960e089901b168152600481019690965263ffffffff94851660248701526044860193909352929091166064840152608483018b90525160a480840193829003018186803b15801561263257600080fd5b505afa158015612646573d6000803e3d6000fd5b505050506040513d602081101561265c57600080fd5b50519050600061266b82613e7b565b9182900399919850909650505050505050565b606061268861352d565b6002600455612695613b74565b6126a0838386613bbc565b600554604080516318160ddd60e01b815290516000926001600160a01b0316916318160ddd916004808301926020929190829003018186803b1580156126e557600080fd5b505afa1580156126f9573d6000803e3d6000fd5b505050506040513d602081101561270f57600080fd5b50516005546040805163a24835d160e01b81523360048201526024810189905290519293506001600160a01b039091169163a24835d19160448082019260009290919082900301818387803b15801561276757600080fd5b505af115801561277b573d6000803e3d6000fd5b5050505061278b84848388613575565b600160045595945050505050565b6127a1613148565b600354600280546001600160a01b0319166001600160a01b03909216919091179055565b6006546001600160a01b031681565b60006127de61352d565b60026004556127eb613eb0565b6000805160206153c1833981519152600052600860205260008051602061535a8339815191525461281c9034613ef0565b6000805160206153c183398151915260009081526008602090815260008051602061535a83398151915292909255600554604080516318160ddd60e01b8152905192936001600160a01b03909216926318160ddd92600480840193919291829003018186803b15801561288e57600080fd5b505afa1580156128a2573d6000803e3d6000fd5b505050506040513d60208110156128b857600080fd5b5051905060006128d76c42616e636f72466f726d756c6160981b61319b565b60075490915060005b81811015612b30576000600782815481106128f757fe5b60009182526020808320909101546001600160a01b03908116808452600883526040808520546009548251631d77642b60e31b8152600481018d90526024810183905263ffffffff9091166044820152606481018e9052915192965094939289169263ebbb215892608480840193829003018186803b15801561297957600080fd5b505afa15801561298d573d6000803e3d6000fd5b505050506040513d60208110156129a357600080fd5b505190506001600160a01b0383166000805160206153c18339815191521415612a545780341115612a035760405133903483900380156108fc02916000818181858888f193505050501580156129fd573d6000803e3d6000fd5b50612a4f565b803414612a4f576040805162461bcd60e51b81526020600482015260156024820152744552525f494e56414c49445f4554485f56414c554560581b604482015290519081900360640190fd5b612a69565b612a696001600160a01b038416333084613f4d565b6000612a758383613fa7565b6001600160a01b0385166000908152600860205260408120829055909150612a9d898c613fa7565b604080518581526020810185905280820183905290519192506001600160a01b0387169133917f4a1a2a6176e9646d9e3157f7c2ab3c499f18337c0b0828cfb28e0a61de4a11f7919081900360600190a36001600160a01b038516600090815260086020526040902060010154612b1f9082908790859063ffffffff16614001565b5050600190930192506128e0915050565b506005546040805163219e412d60e21b81523360048201526024810188905290516001600160a01b039092169163867904b49160448082019260009290919082900301818387803b158015612b8457600080fd5b505af1158015612b98573d6000803e3d6000fd5b50506001600455509495945050505050565b612bb2613148565b612bba614070565b6005546001906001600160a01b0316612bd16114f4565b61ffff167f6b08c2e2c9969e55a647a764db9b554d64dc42f1a704da11a6d5b129ad163f2c60405160405180910390a4565b60078181548110612c1057fe5b6000918252602090912001546001600160a01b0316905081565b600d5481565b6005546001600160a01b031681565b6001546001600160a01b031681565b612c56613148565b6000612c7b762130b731b7b921b7b73b32b93a32b92ab833b930b232b960491b61319b565b6005549091506000906001600160a01b0316612c956114f4565b61ffff167f6b08c2e2c9969e55a647a764db9b554d64dc42f1a704da11a6d5b129ad163f2c60405160405180910390a4612cce816130bb565b6040805163487ac64b60e11b8152602d600482015290516001600160a01b038316916390f58c9691602480830192600092919082900301818387803b158015612d1657600080fd5b505af1158015612d2a573d6000803e3d6000fd5b50505050611152611e96565b6008602052600090815260409020805460019091015463ffffffff81169060ff600160201b8204811691650100000000008104821691600160301b9091041685565b60006112cc82612da8565b612d8e83838361267e565b8051612da291600e916020909101906152f9565b50505050565b600081612db4816110e5565b50506001600160a01b031660009081526008602052604090205490565b600a54600b5482565b6000612de461352d565b60026004556c42616e636f724e6574776f726b60981b612e03816138f0565b856001600160a01b0316876001600160a01b03161415612e63576040805162461bcd60e51b815260206004820152601660248201527511549497d4d0535157d4d3d55490d157d5105491d15560521b604482015290519081900360640190fd5b6006546001600160a01b03161580612f70575060065460408051633af32abf60e01b81526001600160a01b03878116600483015291519190921691633af32abf916024808301926020929190829003018186803b158015612ec357600080fd5b505afa158015612ed7573d6000803e3d6000fd5b505050506040513d6020811015612eed57600080fd5b50518015612f70575060065460408051633af32abf60e01b81526001600160a01b03868116600483015291519190921691633af32abf916024808301926020929190829003018186803b158015612f4357600080fd5b505afa158015612f57573d6000803e3d6000fd5b505050506040513d6020811015612f6d57600080fd5b50515b612fb7576040805162461bcd60e51b815260206004820152601360248201527211549497d393d517d5d2125511531254d51151606a1b604482015290519081900360640190fd5b612fc487878787876140d4565b6001600455979650505050505050565b612fdc613148565b60095463ffffffff600160201b90910481169082161115613044576040805162461bcd60e51b815260206004820152601a60248201527f4552525f494e56414c49445f434f4e56455253494f4e5f464545000000000000604482015290519081900360640190fd5b6009546040805163ffffffff600160401b90930483168152918316602083015280517f81cd2ffb37dd237c0e4e2a3de5265fcf9deb43d3e7801e80db9f1ccfba7ee6009281900390910190a16009805463ffffffff909216600160401b026bffffffff000000000000000019909216919091179055565b6130c3613148565b6000546001600160a01b0382811691161415613117576040805162461bcd60e51b815260206004820152600e60248201526d22a9292fa9a0a6a2afa7aba722a960911b604482015290519081900360640190fd5b600180546001600160a01b0319166001600160a01b0392909216919091179055565b6005546001600160a01b031690565b6000546001600160a01b031633146114dd576040805162461bcd60e51b815260206004820152601160248201527011549497d050d0d154d4d7d11153925151607a1b604482015290519081900360640190fd5b60025460408051632ecd14d360e21b81526004810184905290516000926001600160a01b03169163bb34534c916024808301926020929190829003018186803b1580156131e757600080fd5b505afa1580156131fb573d6000803e3d6000fd5b505050506040513d602081101561321157600080fd5b505192915050565b606080845167ffffffffffffffff8111801561323457600080fd5b5060405190808252806020026020018201604052801561325e578160200160208202803683370190505b50905060005b815181101561335457836001600160a01b0316638074590a86600860008a868151811061328d57fe5b6020908102919091018101516001600160a01b031682528181019290925260409081016000205460095482516001600160e01b031960e088901b1681526004810195909552602485019190915263ffffffff166044840152606483018c905251608480840193829003018186803b15801561330757600080fd5b505afa15801561331b573d6000803e3d6000fd5b505050506040513d602081101561333157600080fd5b5051825183908390811061334157fe5b6020908102919091010152600101613264565b5095945050505050565b6133666152df565b6000600c546133736143a8565b0390508061339957505060408051808201909152600a548152600b5460208201526114ba565b60006008600060076001815481106133ad57fe5b60009182526020808320909101546001600160a01b031683528201929092526040018120546007805491935060089183919082906133e757fe5b60009182526020808320909101546001600160a01b03168352820192909252604001902054905061025883106134325760408051808201909152918252602082015291506114ba9050565b61343a6152df565b5060408051808201909152600a54808252600b54602083015215801561346257506020810151155b15613483575060408051808201909152918252602082015291506114ba9050565b602081015160009061349590856143b2565b82519091506000906134a790856143b2565b905060006134cd6134b884896143b2565b6134c7846102588b90036143b2565b90613fa7565b905060006134f46102586134ee8888602001516143b290919063ffffffff16565b906143b2565b905061350e82826c0c9f2c9cd04674edea4000000061440b565b6040805180820190915291825260208201529850505050505050505090565b6001600454146114dd576040805162461bcd60e51b815260206004820152600e60248201526d4552525f5245454e5452414e435960901b604482015290519081900360640190fd5b606061357f613eb0565b600061359a6c42616e636f72466f726d756c6160981b61319b565b905060006135a88585613ef0565b905060606135b885898886613219565b905060005b885181101561377d5760008982815181106135d457fe5b6020026020010151905060008383815181106135ec57fe5b6020026020010151905089838151811061360257fe5b6020026020010151811015613657576040805162461bcd60e51b815260206004820152601660248201527511549497d6915493d7d5105491d15517d05353d5539560521b604482015290519081900360640190fd5b6001600160a01b03821660009081526008602052604081205461367a9083613ef0565b6001600160a01b03841660008181526008602052604090208290559091506000805160206153c183398151915214156136e057604051339083156108fc029084906000818181858888f193505050501580156136da573d6000803e3d6000fd5b506136f4565b6136f46001600160a01b0384163384614453565b604080518381526020810183905280820188905290516001600160a01b0385169133917fbc7d19d505c7ec4db83f3b51f19fb98c4c8a99922e7839d1ee608dfbee29501b9181900360600190a36001600160a01b0383166000908152600860205260409020600101546137729087908590849063ffffffff16614001565b5050506001016135bd565b50979650505050505050565b6001600160a01b038116301415611152576040805162461bcd60e51b815260206004820152601360248201527222a9292fa0a2222922a9a9afa4a9afa9a2a62360691b604482015290519081900360640190fd5b6137e5613148565b826137ef816144aa565b826137f9816144aa565b8361380381613789565b611c8a6001600160a01b0387168686614453565b80613821816110e5565b6001600160a01b0382166000805160206153c18339815191521415613860576001600160a01b03821660009081526008602052604090204790556138ec565b604080516370a0823160e01b815230600482015290516001600160a01b038416916370a08231916024808301926020929190829003018186803b1580156138a657600080fd5b505afa1580156138ba573d6000803e3d6000fd5b505050506040513d60208110156138d057600080fd5b50516001600160a01b0383166000908152600860205260409020555b5050565b6138f98161319b565b6001600160a01b0316336001600160a01b031614611152576040805162461bcd60e51b815260206004820152601160248201527011549497d050d0d154d4d7d11153925151607a1b604482015290519081900360640190fd5b61395a613148565b6139626144fb565b8161396c816144aa565b8261397681613789565b8261398081614542565b6005546001600160a01b038681169116148015906139c157506001600160a01b038516600090815260086020526040902060010154600160301b900460ff16155b613a08576040805162461bcd60e51b81526020600482015260136024820152724552525f494e56414c49445f5245534552564560681b604482015290519081900360640190fd5b60095463ffffffff908116620f42400381169085161115613a70576040805162461bcd60e51b815260206004820152601a60248201527f4552525f494e56414c49445f524553455256455f574549474854000000000000604482015290519081900360640190fd5b61ffff613a7b6124d5565b61ffff1610613acd576040805162461bcd60e51b815260206004820152601960248201527811549497d253959053125117d49154d154959157d0d3d55395603a1b604482015290519081900360640190fd5b5050506001600160a01b0390911660008181526008602052604081208181556001908101805466ff0000000000001963ffffffff80881663ffffffff199384161791909116600160301b179092556007805493840181559093527fa66cc928b5edb82af9bd49922954155ab7b0942694bea4ce44661d9a8736c68890910180546001600160a01b031916909317909255600980548084169094019092169216919091179055565b613b7c611427565b6114dd576040805162461bcd60e51b815260206004820152600c60248201526b4552525f494e41435449564560a01b604482015290519081900360640190fd5b600754835160009182918114613c10576040805162461bcd60e51b81526020600482015260146024820152734552525f494e56414c49445f524553455256455360601b604482015290519081900360640190fd5b84518114613c5b576040805162461bcd60e51b81526020600482015260136024820152724552525f494e56414c49445f414d4f554e545360681b604482015290519081900360640190fd5b600092505b80831015613e095760086000878581518110613c7857fe5b60200260200101516001600160a01b03166001600160a01b0316815260200190815260200160002060010160069054906101000a900460ff16613cf8576040805162461bcd60e51b81526020600482015260136024820152724552525f494e56414c49445f5245534552564560681b604482015290519081900360640190fd5b600091505b80821015613d5a57858281518110613d1157fe5b60200260200101516001600160a01b031660078481548110613d2f57fe5b6000918252602090912001546001600160a01b03161415613d4f57613d5a565b600190910190613cfd565b808210613da4576040805162461bcd60e51b81526020600482015260136024820152724552525f494e56414c49445f5245534552564560681b604482015290519081900360640190fd5b6000858481518110613db257fe5b602002602001015111613dfe576040805162461bcd60e51b815260206004820152600f60248201526e11549497d6915493d7d05353d55395608a1b604482015290519081900360640190fd5b600190920191613c60565b60008411611c8a576040805162461bcd60e51b815260206004820152600f60248201526e11549497d6915493d7d05353d55395608a1b604482015290519081900360640190fd5b600081613e6857613e6184846145b2565b90506124ac565b613e738484846146da565b949350505050565b600954600090620f424090613ea2908490600160401b900463ffffffff908116906143b216565b81613ea957fe5b0492915050565b60075460005b818110156138ec57613ee860078281548110613ece57fe5b6000918252602090912001546001600160a01b0316613817565b600101613eb6565b600082821115613f47576040805162461bcd60e51b815260206004820152601e60248201527f536166654d6174683a207375627472616374696f6e206f766572666c6f770000604482015290519081900360640190fd5b50900390565b604080516001600160a01b0380861660248301528416604482015260648082018490528251808303909101815260849091019091526020810180516001600160e01b03166323b872dd60e01b179052612da2908590614a10565b6000828201838110156124ac576040805162461bcd60e51b815260206004820152601b60248201527f536166654d6174683a206164646974696f6e206f766572666c6f770000000000604482015290519081900360640190fd5b6005546001600160a01b0380851691167f77f29993cf2c084e726f7e802da0719d6a0ade3e204badc7a3ffd57ecb768c2461403f85620f42406143b2565b6140528863ffffffff808816906143b216565b6040805192835260208301919091528051918290030190a350505050565b600161407a6124d5565b61ffff16116140cc576040805162461bcd60e51b815260206004820152601960248201527811549497d253959053125117d49154d154959157d0d3d55395603a1b604482015290519081900360640190fd5b6114dd614ac1565b600954600090600160601b900460ff1680156140f857506140f36143a8565b600c54105b1561411d5761410561335e565b8051600a5560200151600b556141196143a8565b600c555b60008061412b8888886124db565b91509150816000141561417e576040805162461bcd60e51b815260206004820152601660248201527511549497d6915493d7d5105491d15517d05353d5539560521b604482015290519081900360640190fd5b61418787612da8565b821061418f57fe5b6001600160a01b0388166000805160206153c18339815191521415614201578534146141fc576040805162461bcd60e51b815260206004820152601760248201527608aa4a4be8aa890be829a9eaa9ca8be9a92a69a82a8869604b1b604482015290519081900360640190fd5b6142d8565b3415801561429257508561428f6142178a612da8565b604080516370a0823160e01b815230600482015290516001600160a01b038d16916370a08231916024808301926020929190829003018186803b15801561425d57600080fd5b505afa158015614271573d6000803e3d6000fd5b505050506040513d602081101561428757600080fd5b505190613ef0565b10155b6142d8576040805162461bcd60e51b815260206004820152601260248201527111549497d253959053125117d05353d5539560721b604482015290519081900360640190fd5b6142e188613817565b6001600160a01b0387166000908152600860205260409020546143049083613ef0565b6001600160a01b0388166000818152600860205260409020919091556000805160206153c18339815191521415614371576040516001600160a01b0385169083156108fc029084906000818181858888f1935050505015801561436b573d6000803e3d6000fd5b50614385565b6143856001600160a01b0388168584614453565b614393888887898686614b95565b61439d8888614bfe565b509695505050505050565b6000611e91614d55565b6000826143c1575060006112cc565b828202828482816143ce57fe5b04146124ac5760405162461bcd60e51b81526004018080602001828103825260218152602001806153a06021913960400191505060405180910390fd5b60008084848482118061441d57508481115b156144335761442d828287614d5b565b90925090505b808214614444579092509050611347565b50600196879650945050505050565b604080516001600160a01b038416602482015260448082018490528251808303909101815260649091019091526020810180516001600160e01b031663a9059cbb60e01b1790526144a5908490614a10565b505050565b6001600160a01b038116611152576040805162461bcd60e51b81526020600482015260136024820152724552525f494e56414c49445f4144445245535360681b604482015290519081900360640190fd5b614503611427565b156114dd576040805162461bcd60e51b815260206004820152600a6024820152694552525f41435449564560b01b604482015290519081900360640190fd5b60008163ffffffff161180156145615750620f424063ffffffff821611155b611152576040805162461bcd60e51b815260206004820152601a60248201527f4552525f494e56414c49445f524553455256455f574549474854000000000000604482015290519081900360640190fd5b6000806145be83614d94565b905060005b84518110156146d25760008582815181106145da57fe5b6020026020010151905060008583815181106145f257fe5b602002602001015190506000805160206153c18339815191526001600160a01b0316826001600160a01b031614614638576146386001600160a01b038316333084613f4d565b6001600160a01b0382166000818152600860209081526040918290208490558151848152908101849052808201879052905133917f4a1a2a6176e9646d9e3157f7c2ab3c499f18337c0b0828cfb28e0a61de4a11f7919081900360600190a36001600160a01b0382166000908152600860205260409020600101546146c89085908490849063ffffffff16614001565b50506001016145c3565b509392505050565b60006146e4613eb0565b6000805160206153c1833981519152600052600860205260008051602061535a833981519152546147159034613ef0565b6000805160206153c18339815191526000908152600860205260008051602061535a8339815191529190915561475a6c42616e636f72466f726d756c6160981b61319b565b9050600061476a82858888614de6565b905060006147788583613fa7565b905060005b8751811015614a0457600088828151811061479457fe5b6020908102919091018101516001600160a01b038082166000908152600884526040808220546009548251631d77642b60e31b8152600481018f90526024810183905263ffffffff9091166044820152606481018b90529151949650949193928a169263ebbb215892608480840193919291829003018186803b15801561481a57600080fd5b505afa15801561482e573d6000803e3d6000fd5b505050506040513d602081101561484457600080fd5b5051905080614893576040805162461bcd60e51b815260206004820152601660248201527511549497d6915493d7d5105491d15517d05353d5539560521b604482015290519081900360640190fd5b89848151811061489f57fe5b60200260200101518111156148b057fe5b6001600160a01b0383166000805160206153c1833981519152146148e8576148e36001600160a01b038416333084613f4d565b614953565b808a85815181106148f557fe5b6020026020010151111561495357336001600160a01b03166108fc828c878151811061491d57fe5b6020026020010151039081150290604051600060405180830381858888f19350505050158015614951573d6000803e3d6000fd5b505b600061495f8383613fa7565b6001600160a01b03851660008181526008602090815260409182902084905581518681529081018490528082018a90529051929350909133917f4a1a2a6176e9646d9e3157f7c2ab3c499f18337c0b0828cfb28e0a61de4a11f7919081900360600190a36001600160a01b0384166000908152600860205260409020600101546149f49087908690849063ffffffff16614001565b50506001909201915061477d9050565b50909695505050505050565b6060614a65826040518060400160405280602081526020017f5361666545524332303a206c6f772d6c6576656c2063616c6c206661696c6564815250856001600160a01b0316614f7d9092919063ffffffff16565b8051909150156144a557808060200190516020811015614a8457600080fd5b50516144a55760405162461bcd60e51b815260040180806020018281038252602a8152602001806153e1602a913960400191505060405180910390fd5b614ac9613148565b6000614ad36124d5565b61ffff1611614b25576040805162461bcd60e51b815260206004820152601960248201527811549497d253959053125117d49154d154959157d0d3d55395603a1b604482015290519081900360640190fd5b600560009054906101000a90046001600160a01b03166001600160a01b03166379ba50976040518163ffffffff1660e01b8152600401600060405180830381600087803b158015614b7557600080fd5b505af1158015614b89573d6000803e3d6000fd5b505050506114dd613eb0565b600160ff1b8110614ba257fe5b604080518481526020810184905280820183905290516001600160a01b038087169288821692918a16917f276856b36cbc45526a0ba64f44611557a2a8b68662c5388e9fe6d72e86e1c8cb9181900360600190a4505050505050565b600554604080516318160ddd60e01b815290516000926001600160a01b0316916318160ddd916004808301926020929190829003018186803b158015614c4357600080fd5b505afa158015614c57573d6000803e3d6000fd5b505050506040513d6020811015614c6d57600080fd5b505190506000614c7c84612da8565b90506000614c8984612da8565b6001600160a01b038087166000908152600860205260408082206001908101549389168352908220015492935063ffffffff91821692821691614cd090859085906143b216565b90506000614ce78663ffffffff808616906143b216565b604080518481526020810183905281519293506001600160a01b03808c1693908d16927f77f29993cf2c084e726f7e802da0719d6a0ade3e204badc7a3ffd57ecb768c24928290030190a3614d3e878a8887614001565b614d4a87898786614001565b505050505050505050565b600d5490565b600080838511614d7957614d70858585614f8c565b91509150611347565b600080614d87868887614f8c565b9890975095505050505050565b80516000908190815b81811015614dcd57614dc1858281518110614db457fe5b6020026020010151615045565b90920191600101614d9d565b506001614dda8383615067565b03600a0a949350505050565b6000806000905060006008600086600081518110614e0057fe5b6020908102919091018101516001600160a01b0316825281019190915260400160002054905060015b8551811015614ebe57600060086000888481518110614e4457fe5b60200260200101516001600160a01b03166001600160a01b03168152602001908152602001600020600001549050614e9881878681518110614e8257fe5b60200260200101516143b290919063ffffffff16565b614ea884888581518110614e8257fe5b1015614eb5578193508092505b50600101614e29565b50866001600160a01b0316632f55bdb58783600960009054906101000a900463ffffffff16888781518110614eef57fe5b60200260200101516040518563ffffffff1660e01b8152600401808581526020018481526020018363ffffffff16815260200182815260200194505050505060206040518083038186803b158015614f4657600080fd5b505afa158015614f5a573d6000803e3d6000fd5b505050506040513d6020811015614f7057600080fd5b5051979650505050505050565b6060613e73848460008561507f565b60008060008360001981614f9c57fe5b04905080861115614fd5576000816001018781614fb557fe5b046001019050808781614fc457fe5b049650808681614fd057fe5b049550505b84861461503557858402858701878110615006576000614ff583836151db565b955050508385039250611347915050565b60028888030487038210156150245760008694509450505050611347565b600180870394509450505050611347565b5050600290910493849350915050565b600080825b80156150605760019190910190600a900461504a565b5092915050565b6000816002810484018161507757fe5b049392505050565b6060824710156150c05760405162461bcd60e51b815260040180806020018281038252602681526020018061537a6026913960400191505060405180910390fd5b6150c985615207565b61511a576040805162461bcd60e51b815260206004820152601d60248201527f416464726573733a2063616c6c20746f206e6f6e2d636f6e7472616374000000604482015290519081900360640190fd5b60006060866001600160a01b031685876040518082805190602001908083835b602083106151595780518252601f19909201916020918201910161513a565b6001836020036101000a03801982511681845116808217855250505050505090500191505060006040518083038185875af1925050503d80600081146151bb576040519150601f19603f3d011682016040523d82523d6000602084013e6151c0565b606091505b50915091506151d082828661520d565b979650505050505050565b60006002820482038284816151ec57fe5b06816151f457fe5b048284816151fe57fe5b04019392505050565b3b151590565b6060831561521c5750816124ac565b82511561522c5782518084602001fd5b8160405162461bcd60e51b81526004018080602001828103825283818151815260200191508051906020019080838360005b8381101561527657818101518382015260200161525e565b50505050905090810190601f1680156152a35780820380516001836020036101000a031916815260200191505b509250505060405180910390fd5b6040805160a08101825260008082526020820181905291810182905260608101829052608081019190915290565b604051806040016040528060008152602001600081525090565b828054828255906000526020600020908101928215615334579160200282015b82811115615334578251825591602001919060010190615319565b50615340929150615344565b5090565b5b80821115615340576000815560010161534556fe353c2eb9e53a4a4a6d45d72082ff2e9dc829d1125618772a83eb0e7f86632c42416464726573733a20696e73756666696369656e742062616c616e636520666f722063616c6c536166654d6174683a206d756c7469706c69636174696f6e206f766572666c6f77000000000000000000000000eeeeeeeeeeeeeeeeeeeeeeeeeeeeeeeeeeeeeeee5361666545524332303a204552433230206f7065726174696f6e20646964206e6f742073756363656564a2646970667358221220c19926d0e6a75a05c3da2222544077edd0630594c6361f32ce7fe67b1a2592d664736f6c634300060c0033",
  "immutableReferences": {},
  "source": "// SPDX-License-Identifier: SEE LICENSE IN LICENSE\npragma solidity 0.6.12;\n\nimport \"../converter/types/liquidity-pool-v1/LiquidityPoolV1Converter.sol\";\nimport \"./TestTime.sol\";\n\ncontract TestLiquidityPoolV1Converter is LiquidityPoolV1Converter, TestTime {\n    uint256[] public reserveAmountsRemoved;\n\n    constructor(\n        IDSToken _token,\n        IContractRegistry _registry,\n        uint32 _maxConversionFee\n    ) public LiquidityPoolV1Converter(_token, _registry, _maxConversionFee) {}\n\n    function removeLiquidityTest(\n        uint256 _amount,\n        IERC20[] memory _reserveTokens,\n        uint256[] memory _reserveMinReturnAmounts\n    ) public {\n        reserveAmountsRemoved = removeLiquidity(_amount, _reserveTokens, _reserveMinReturnAmounts);\n    }\n\n    function time() internal view override(Time, TestTime) returns (uint256) {\n        return TestTime.time();\n    }\n}\n",
  "sourcePath": "/Users/dennismacpro/Projects/Defi/Ethereum-Solidity-Collection/icarus-protocol/defi-seeder/.tmp/bancor/contracts-solidity/solidity/contracts/helpers/TestLiquidityPoolV1Converter.sol",
  "compiler": {
    "name": "solc",
    "version": "0.6.12+commit.27d51765.Emscripten.clang"
  },
  "schemaVersion": "3.3.3",
  "updatedAt": "2021-04-01T18:18:09.436Z",
  "devdoc": {
    "kind": "dev",
    "methods": {
      "acceptAnchorOwnership()": {
        "details": "accepts ownership of the anchor after an ownership transfer also activates the converter can only be called by the contract owner note that prior to version 28, you should use 'acceptTokenOwnership' instead"
      },
      "acceptOwnership()": {
        "details": "used by a new owner to accept an ownership transfer"
      },
      "acceptTokenOwnership()": {
        "details": "deprecated, backward compatibility"
      },
      "addLiquidity(address[],uint256[],uint256)": {
        "details": "increases the pool's liquidity and mints new shares in the pool to the caller note that prior to version 28, you should use 'fund' instead",
        "params": {
          "_minReturn": "token minimum return-amount",
          "_reserveAmounts": "amount of each reserve token",
          "_reserveTokens": "address of each reserve token"
        },
        "returns": {
          "_0": "amount of pool tokens issued"
        }
      },
      "addLiquidityCost(address[],uint256,uint256)": {
        "details": "given the amount of one of the reserve tokens to add liquidity of, returns the required amount of each one of the other reserve tokens since an empty pool can be funded with any list of non-zero input amounts, this function assumes that the pool is not empty (has already been funded)",
        "params": {
          "_reserveAmount": "amount of the relevant reserve token",
          "_reserveTokenIndex": "index of the relevant reserve token",
          "_reserveTokens": "address of each reserve token"
        },
        "returns": {
          "_0": "the required amount of each one of the reserve tokens"
        }
      },
      "addLiquidityReturn(address,uint256)": {
        "details": "given the amount of one of the reserve tokens to add liquidity of, returns the amount of pool tokens entitled for it since an empty pool can be funded with any list of non-zero input amounts, this function assumes that the pool is not empty (has already been funded)",
        "params": {
          "_reserveAmount": "amount of the reserve token",
          "_reserveToken": "address of the reserve token"
        },
        "returns": {
          "_0": "the amount of pool tokens entitled"
        }
      },
      "addReserve(address,uint32)": {
        "details": "defines a new reserve token for the converter can only be called by the owner while the converter is inactive",
        "params": {
          "_token": "address of the reserve token",
          "_weight": "reserve weight, represented in ppm, 1-1000000"
        }
      },
      "connectorTokenCount()": {
        "details": "deprecated, backward compatibility"
      },
      "connectorTokens(uint256)": {
        "details": "deprecated, backward compatibility"
      },
      "connectors(address)": {
        "details": "deprecated, backward compatibility"
      },
      "convert(address,address,uint256,address,address)": {
        "details": "converts a specific amount of source tokens to target tokens can only be called by the bancor network contract",
        "params": {
          "_amount": "amount of tokens to convert (in units of the source token)",
          "_beneficiary": "wallet to receive the conversion result",
          "_sourceToken": "source ERC20 token",
          "_targetToken": "target ERC20 token",
          "_trader": "address of the caller who executed the conversion"
        },
        "returns": {
          "_0": "amount of tokens received (in units of the target token)"
        }
      },
      "converterType()": {
        "details": "returns the converter type",
        "returns": {
          "_0": "see the converter types in the the main contract doc"
        }
      },
      "fund(uint256)": {
        "details": "increases the pool's liquidity and mints new shares in the pool to the caller for example, if the caller increases the supply by 10%, then it will cost an amount equal to 10% of each reserve token balance note that starting from version 28, you should use 'addLiquidity' instead",
        "params": {
          "_amount": "amount to increase the supply by (in the pool token)"
        },
        "returns": {
          "_0": "amount of pool tokens issued"
        }
      },
      "getConnectorBalance(address)": {
        "details": "deprecated, backward compatibility"
      },
      "getReturn(address,address,uint256)": {
        "details": "deprecated, backward compatibility"
      },
      "isActive()": {
        "details": "returns true if the converter is active, false otherwise",
        "returns": {
          "_0": "true if the converter is active, false otherwise"
        }
      },
      "isV28OrHigher()": {
        "details": "checks whether or not the converter version is 28 or higher",
        "returns": {
          "_0": "true, since the converter version is 28 or higher"
        }
      },
      "liquidate(uint256)": {
        "details": "decreases the pool's liquidity and burns the caller's shares in the pool for example, if the holder sells 10% of the supply, then they will receive 10% of each reserve token balance in return note that starting from version 28, you should use 'removeLiquidity' instead",
        "params": {
          "_amount": "amount to liquidate (in the pool token)"
        },
        "returns": {
          "_0": "the amount of each reserve token granted for the given amount of pool tokens"
        }
      },
      "recentAverageRate(address)": {
        "details": "returns the recent average rate of 1 `_token` in the other reserve token units note that the rate can only be queried for reserves in a standard pool",
        "params": {
          "_token": "token to get the rate for"
        },
        "returns": {
          "_0": "recent average rate between the reserves (numerator)",
          "_1": "recent average rate between the reserves (denominator)"
        }
      },
      "removeLiquidity(uint256,address[],uint256[])": {
        "details": "decreases the pool's liquidity and burns the caller's shares in the pool note that prior to version 28, you should use 'liquidate' instead",
        "params": {
          "_amount": "token amount",
          "_reserveMinReturnAmounts": "minimum return-amount of each reserve token",
          "_reserveTokens": "address of each reserve token"
        },
        "returns": {
          "_0": "the amount of each reserve token granted for the given amount of pool tokens"
        }
      },
      "removeLiquidityReturn(uint256,address[])": {
        "details": "returns the amount of each reserve token entitled for a given amount of pool tokens",
        "params": {
          "_amount": "amount of pool tokens",
          "_reserveTokens": "address of each reserve token"
        },
        "returns": {
          "_0": "the amount of each reserve token entitled for the given amount of pool tokens"
        }
      },
      "reserveBalance(address)": {
        "details": "returns the reserve's balance note that prior to version 17, you should use 'getConnectorBalance' instead",
        "params": {
          "_reserveToken": "reserve token contract address"
        },
        "returns": {
          "_0": "reserve balance"
        }
      },
      "reserveTokenCount()": {
        "details": "returns the number of reserve tokens note that prior to version 17, you should use 'connectorTokenCount' instead",
        "returns": {
          "_0": "number of reserve tokens"
        }
      },
      "reserveWeight(address)": {
        "details": "returns the reserve's weight added in version 28",
        "params": {
          "_reserveToken": "reserve token contract address"
        },
        "returns": {
          "_0": "reserve weight"
        }
      },
      "restoreRegistry()": {
        "details": "restores the previous contract-registry"
      },
      "restrictRegistryUpdate(bool)": {
        "details": "restricts the permission to update the contract-registry",
        "params": {
          "_onlyOwnerCanUpdateRegistry": "indicates whether or not permission is restricted to owner only"
        }
      },
      "setConversionFee(uint32)": {
        "details": "updates the current conversion fee can only be called by the contract owner",
        "params": {
          "_conversionFee": "new conversion fee, represented in ppm"
        }
      },
      "setConversionWhitelist(address)": {
        "details": "allows the owner to update & enable the conversion whitelist contract address when set, only addresses that are whitelisted are actually allowed to use the converter note that the whitelist check is actually done by the BancorNetwork contract",
        "params": {
          "_whitelist": "address of a whitelist contract"
        }
      },
      "targetAmountAndFee(address,address,uint256)": {
        "details": "returns the expected target amount of converting one reserve to another along with the fee",
        "params": {
          "_amount": "amount of tokens received from the user",
          "_sourceToken": "contract address of the source reserve token",
          "_targetToken": "contract address of the target reserve token"
        },
        "returns": {
          "_0": "expected target amount",
          "_1": "expected fee"
        }
      },
      "token()": {
        "details": "deprecated since version 28, backward compatibility - use only for earlier versions"
      },
      "transferAnchorOwnership(address)": {
        "details": "transfers the anchor ownership the new owner needs to accept the transfer can only be called by the converter upgrder while the upgrader is the owner note that prior to version 28, you should use 'transferAnchorOwnership' instead",
        "params": {
          "_newOwner": "new token owner"
        }
      },
      "transferOwnership(address)": {
        "details": "allows transferring the contract ownership the new owner still needs to accept the transfer can only be called by the contract owner",
        "params": {
          "_newOwner": "new contract owner"
        }
      },
      "transferTokenOwnership(address)": {
        "details": "deprecated, backward compatibility"
      },
      "updateRegistry()": {
        "details": "updates to the new contract-registry"
      },
      "upgrade()": {
        "details": "upgrades the converter to the latest version can only be called by the owner note that the owner needs to call acceptOwnership on the new converter after the upgrade"
      },
      "withdrawETH(address)": {
        "details": "withdraws ether can only be called by the owner if the converter is inactive or by upgrader contract can only be called after the upgrader contract has accepted the ownership of this contract can only be called if the converter has an ETH reserve",
        "params": {
          "_to": "address to send the ETH to"
        }
      },
      "withdrawTokens(address,address,uint256)": {
        "details": "withdraws tokens held by the converter and sends them to an account can only be called by the owner note that reserve tokens can only be withdrawn by the owner while the converter is inactive unless the owner is the converter upgrader contract",
        "params": {
          "_amount": "amount to withdraw",
          "_to": "account to receive the new amount",
          "_token": "ERC20 token contract address"
        }
      }
    },
    "version": 1
  },
  "userdoc": {
    "kind": "user",
    "methods": {},
    "version": 1
  }
}