{
  "contractName": "TestConverterRegistry",
  "abi": [
    {
      "inputs": [
        {
          "internalType": "contract IContractRegistry",
          "name": "_registry",
          "type": "address"
        }
      ],
      "stateMutability": "nonpayable",
      "type": "constructor"
    },
    {
      "anonymous": false,
      "inputs": [
        {
          "indexed": true,
          "internalType": "contract IConverterAnchor",
          "name": "_anchor",
          "type": "address"
        }
      ],
      "name": "ConverterAnchorAdded",
      "type": "event"
    },
    {
      "anonymous": false,
      "inputs": [
        {
          "indexed": true,
          "internalType": "contract IConverterAnchor",
          "name": "_anchor",
          "type": "address"
        }
      ],
      "name": "ConverterAnchorRemoved",
      "type": "event"
    },
    {
      "anonymous": false,
      "inputs": [
        {
          "indexed": true,
          "internalType": "contract IERC20",
          "name": "_convertibleToken",
          "type": "address"
        },
        {
          "indexed": true,
          "internalType": "contract IConverterAnchor",
          "name": "_smartToken",
          "type": "address"
        }
      ],
      "name": "ConvertibleTokenAdded",
      "type": "event"
    },
    {
      "anonymous": false,
      "inputs": [
        {
          "indexed": true,
          "internalType": "contract IERC20",
          "name": "_convertibleToken",
          "type": "address"
        },
        {
          "indexed": true,
          "internalType": "contract IConverterAnchor",
          "name": "_smartToken",
          "type": "address"
        }
      ],
      "name": "ConvertibleTokenRemoved",
      "type": "event"
    },
    {
      "anonymous": false,
      "inputs": [
        {
          "indexed": true,
          "internalType": "contract IConverterAnchor",
          "name": "_liquidityPool",
          "type": "address"
        }
      ],
      "name": "LiquidityPoolAdded",
      "type": "event"
    },
    {
      "anonymous": false,
      "inputs": [
        {
          "indexed": true,
          "internalType": "contract IConverterAnchor",
          "name": "_liquidityPool",
          "type": "address"
        }
      ],
      "name": "LiquidityPoolRemoved",
      "type": "event"
    },
    {
      "anonymous": false,
      "inputs": [
        {
          "indexed": true,
          "internalType": "address",
          "name": "_prevOwner",
          "type": "address"
        },
        {
          "indexed": true,
          "internalType": "address",
          "name": "_newOwner",
          "type": "address"
        }
      ],
      "name": "OwnerUpdate",
      "type": "event"
    },
    {
      "anonymous": false,
      "inputs": [
        {
          "indexed": true,
          "internalType": "contract IConverterAnchor",
          "name": "_smartToken",
          "type": "address"
        }
      ],
      "name": "SmartTokenAdded",
      "type": "event"
    },
    {
      "anonymous": false,
      "inputs": [
        {
          "indexed": true,
          "internalType": "contract IConverterAnchor",
          "name": "_smartToken",
          "type": "address"
        }
      ],
      "name": "SmartTokenRemoved",
      "type": "event"
    },
    {
      "inputs": [],
      "name": "acceptOwnership",
      "outputs": [],
      "stateMutability": "nonpayable",
      "type": "function"
    },
    {
      "inputs": [
        {
          "internalType": "contract IConverter",
          "name": "_converter",
          "type": "address"
        }
      ],
      "name": "addConverter",
      "outputs": [],
      "stateMutability": "nonpayable",
      "type": "function"
    },
    {
      "inputs": [],
      "name": "createdConverter",
      "outputs": [
        {
          "internalType": "contract IConverter",
          "name": "",
          "type": "address"
        }
      ],
      "stateMutability": "view",
      "type": "function"
    },
    {
      "inputs": [
        {
          "internalType": "uint256",
          "name": "_index",
          "type": "uint256"
        }
      ],
      "name": "getAnchor",
      "outputs": [
        {
          "internalType": "contract IConverterAnchor",
          "name": "",
          "type": "address"
        }
      ],
      "stateMutability": "view",
      "type": "function"
    },
    {
      "inputs": [],
      "name": "getAnchorCount",
      "outputs": [
        {
          "internalType": "uint256",
          "name": "",
          "type": "uint256"
        }
      ],
      "stateMutability": "view",
      "type": "function"
    },
    {
      "inputs": [],
      "name": "getAnchors",
      "outputs": [
        {
          "internalType": "address[]",
          "name": "",
          "type": "address[]"
        }
      ],
      "stateMutability": "view",
      "type": "function"
    },
    {
      "inputs": [
        {
          "internalType": "address[]",
          "name": "_anchors",
          "type": "address[]"
        }
      ],
      "name": "getConvertersByAnchors",
      "outputs": [
        {
          "internalType": "contract IConverter[]",
          "name": "",
          "type": "address[]"
        }
      ],
      "stateMutability": "view",
      "type": "function"
    },
    {
      "inputs": [
        {
          "internalType": "address[]",
          "name": "_smartTokens",
          "type": "address[]"
        }
      ],
      "name": "getConvertersBySmartTokens",
      "outputs": [
        {
          "internalType": "contract IConverter[]",
          "name": "",
          "type": "address[]"
        }
      ],
      "stateMutability": "view",
      "type": "function"
    },
    {
      "inputs": [
        {
          "internalType": "uint256",
          "name": "_index",
          "type": "uint256"
        }
      ],
      "name": "getConvertibleToken",
      "outputs": [
        {
          "internalType": "contract IERC20",
          "name": "",
          "type": "address"
        }
      ],
      "stateMutability": "view",
      "type": "function"
    },
    {
      "inputs": [
        {
          "internalType": "contract IERC20",
          "name": "_convertibleToken",
          "type": "address"
        },
        {
          "internalType": "uint256",
          "name": "_index",
          "type": "uint256"
        }
      ],
      "name": "getConvertibleTokenAnchor",
      "outputs": [
        {
          "internalType": "contract IConverterAnchor",
          "name": "",
          "type": "address"
        }
      ],
      "stateMutability": "view",
      "type": "function"
    },
    {
      "inputs": [
        {
          "internalType": "contract IERC20",
          "name": "_convertibleToken",
          "type": "address"
        }
      ],
      "name": "getConvertibleTokenAnchorCount",
      "outputs": [
        {
          "internalType": "uint256",
          "name": "",
          "type": "uint256"
        }
      ],
      "stateMutability": "view",
      "type": "function"
    },
    {
      "inputs": [
        {
          "internalType": "contract IERC20",
          "name": "_convertibleToken",
          "type": "address"
        }
      ],
      "name": "getConvertibleTokenAnchors",
      "outputs": [
        {
          "internalType": "address[]",
          "name": "",
          "type": "address[]"
        }
      ],
      "stateMutability": "view",
      "type": "function"
    },
    {
      "inputs": [],
      "name": "getConvertibleTokenCount",
      "outputs": [
        {
          "internalType": "uint256",
          "name": "",
          "type": "uint256"
        }
      ],
      "stateMutability": "view",
      "type": "function"
    },
    {
      "inputs": [
        {
          "internalType": "contract IERC20",
          "name": "_convertibleToken",
          "type": "address"
        },
        {
          "internalType": "uint256",
          "name": "_index",
          "type": "uint256"
        }
      ],
      "name": "getConvertibleTokenSmartToken",
      "outputs": [
        {
          "internalType": "contract IConverterAnchor",
          "name": "",
          "type": "address"
        }
      ],
      "stateMutability": "view",
      "type": "function"
    },
    {
      "inputs": [
        {
          "internalType": "contract IERC20",
          "name": "_convertibleToken",
          "type": "address"
        }
      ],
      "name": "getConvertibleTokenSmartTokenCount",
      "outputs": [
        {
          "internalType": "uint256",
          "name": "",
          "type": "uint256"
        }
      ],
      "stateMutability": "view",
      "type": "function"
    },
    {
      "inputs": [
        {
          "internalType": "contract IERC20",
          "name": "_convertibleToken",
          "type": "address"
        }
      ],
      "name": "getConvertibleTokenSmartTokens",
      "outputs": [
        {
          "internalType": "address[]",
          "name": "",
          "type": "address[]"
        }
      ],
      "stateMutability": "view",
      "type": "function"
    },
    {
      "inputs": [],
      "name": "getConvertibleTokens",
      "outputs": [
        {
          "internalType": "address[]",
          "name": "",
          "type": "address[]"
        }
      ],
      "stateMutability": "view",
      "type": "function"
    },
    {
      "inputs": [
        {
          "internalType": "uint256",
          "name": "_index",
          "type": "uint256"
        }
      ],
      "name": "getLiquidityPool",
      "outputs": [
        {
          "internalType": "contract IConverterAnchor",
          "name": "",
          "type": "address"
        }
      ],
      "stateMutability": "view",
      "type": "function"
    },
    {
      "inputs": [
        {
          "internalType": "uint16",
          "name": "_type",
          "type": "uint16"
        },
        {
          "internalType": "contract IERC20[]",
          "name": "_reserveTokens",
          "type": "address[]"
        },
        {
          "internalType": "uint32[]",
          "name": "_reserveWeights",
          "type": "uint32[]"
        }
      ],
      "name": "getLiquidityPoolByConfig",
      "outputs": [
        {
          "internalType": "contract IConverterAnchor",
          "name": "",
          "type": "address"
        }
      ],
      "stateMutability": "view",
      "type": "function"
    },
    {
      "inputs": [
        {
          "internalType": "contract IERC20[]",
          "name": "_reserveTokens",
          "type": "address[]"
        },
        {
          "internalType": "uint32[]",
          "name": "_reserveWeights",
          "type": "uint32[]"
        }
      ],
      "name": "getLiquidityPoolByReserveConfig",
      "outputs": [
        {
          "internalType": "contract IConverterAnchor",
          "name": "",
          "type": "address"
        }
      ],
      "stateMutability": "view",
      "type": "function"
    },
    {
      "inputs": [],
      "name": "getLiquidityPoolCount",
      "outputs": [
        {
          "internalType": "uint256",
          "name": "",
          "type": "uint256"
        }
      ],
      "stateMutability": "view",
      "type": "function"
    },
    {
      "inputs": [],
      "name": "getLiquidityPools",
      "outputs": [
        {
          "internalType": "address[]",
          "name": "",
          "type": "address[]"
        }
      ],
      "stateMutability": "view",
      "type": "function"
    },
    {
      "inputs": [
        {
          "internalType": "uint256",
          "name": "_index",
          "type": "uint256"
        }
      ],
      "name": "getSmartToken",
      "outputs": [
        {
          "internalType": "contract IConverterAnchor",
          "name": "",
          "type": "address"
        }
      ],
      "stateMutability": "view",
      "type": "function"
    },
    {
      "inputs": [],
      "name": "getSmartTokenCount",
      "outputs": [
        {
          "internalType": "uint256",
          "name": "",
          "type": "uint256"
        }
      ],
      "stateMutability": "view",
      "type": "function"
    },
    {
      "inputs": [],
      "name": "getSmartTokens",
      "outputs": [
        {
          "internalType": "address[]",
          "name": "",
          "type": "address[]"
        }
      ],
      "stateMutability": "view",
      "type": "function"
    },
    {
      "inputs": [
        {
          "internalType": "address",
          "name": "_value",
          "type": "address"
        }
      ],
      "name": "isAnchor",
      "outputs": [
        {
          "internalType": "bool",
          "name": "",
          "type": "bool"
        }
      ],
      "stateMutability": "view",
      "type": "function"
    },
    {
      "inputs": [
        {
          "internalType": "contract IConverter",
          "name": "_converter",
          "type": "address"
        }
      ],
      "name": "isConverterValid",
      "outputs": [
        {
          "internalType": "bool",
          "name": "",
          "type": "bool"
        }
      ],
      "stateMutability": "view",
      "type": "function"
    },
    {
      "inputs": [
        {
          "internalType": "address",
          "name": "_value",
          "type": "address"
        }
      ],
      "name": "isConvertibleToken",
      "outputs": [
        {
          "internalType": "bool",
          "name": "",
          "type": "bool"
        }
      ],
      "stateMutability": "view",
      "type": "function"
    },
    {
      "inputs": [
        {
          "internalType": "contract IERC20",
          "name": "_convertibleToken",
          "type": "address"
        },
        {
          "internalType": "address",
          "name": "_value",
          "type": "address"
        }
      ],
      "name": "isConvertibleTokenAnchor",
      "outputs": [
        {
          "internalType": "bool",
          "name": "",
          "type": "bool"
        }
      ],
      "stateMutability": "view",
      "type": "function"
    },
    {
      "inputs": [
        {
          "internalType": "contract IERC20",
          "name": "_convertibleToken",
          "type": "address"
        },
        {
          "internalType": "address",
          "name": "_value",
          "type": "address"
        }
      ],
      "name": "isConvertibleTokenSmartToken",
      "outputs": [
        {
          "internalType": "bool",
          "name": "",
          "type": "bool"
        }
      ],
      "stateMutability": "view",
      "type": "function"
    },
    {
      "inputs": [
        {
          "internalType": "address",
          "name": "_value",
          "type": "address"
        }
      ],
      "name": "isLiquidityPool",
      "outputs": [
        {
          "internalType": "bool",
          "name": "",
          "type": "bool"
        }
      ],
      "stateMutability": "view",
      "type": "function"
    },
    {
      "inputs": [
        {
          "internalType": "contract IConverter",
          "name": "_converter",
          "type": "address"
        }
      ],
      "name": "isSimilarLiquidityPoolRegistered",
      "outputs": [
        {
          "internalType": "bool",
          "name": "",
          "type": "bool"
        }
      ],
      "stateMutability": "view",
      "type": "function"
    },
    {
      "inputs": [
        {
          "internalType": "address",
          "name": "_value",
          "type": "address"
        }
      ],
      "name": "isSmartToken",
      "outputs": [
        {
          "internalType": "bool",
          "name": "",
          "type": "bool"
        }
      ],
      "stateMutability": "view",
      "type": "function"
    },
    {
      "inputs": [],
      "name": "newOwner",
      "outputs": [
        {
          "internalType": "address",
          "name": "",
          "type": "address"
        }
      ],
      "stateMutability": "view",
      "type": "function"
    },
    {
      "inputs": [],
      "name": "onlyOwnerCanUpdateRegistry",
      "outputs": [
        {
          "internalType": "bool",
          "name": "",
          "type": "bool"
        }
      ],
      "stateMutability": "view",
      "type": "function"
    },
    {
      "inputs": [],
      "name": "owner",
      "outputs": [
        {
          "internalType": "address",
          "name": "",
          "type": "address"
        }
      ],
      "stateMutability": "view",
      "type": "function"
    },
    {
      "inputs": [],
      "name": "prevRegistry",
      "outputs": [
        {
          "internalType": "contract IContractRegistry",
          "name": "",
          "type": "address"
        }
      ],
      "stateMutability": "view",
      "type": "function"
    },
    {
      "inputs": [],
      "name": "registry",
      "outputs": [
        {
          "internalType": "contract IContractRegistry",
          "name": "",
          "type": "address"
        }
      ],
      "stateMutability": "view",
      "type": "function"
    },
    {
      "inputs": [
        {
          "internalType": "contract IConverter",
          "name": "_converter",
          "type": "address"
        }
      ],
      "name": "removeConverter",
      "outputs": [],
      "stateMutability": "nonpayable",
      "type": "function"
    },
    {
      "inputs": [],
      "name": "restoreRegistry",
      "outputs": [],
      "stateMutability": "nonpayable",
      "type": "function"
    },
    {
      "inputs": [
        {
          "internalType": "bool",
          "name": "_onlyOwnerCanUpdateRegistry",
          "type": "bool"
        }
      ],
      "name": "restrictRegistryUpdate",
      "outputs": [],
      "stateMutability": "nonpayable",
      "type": "function"
    },
    {
      "inputs": [
        {
          "internalType": "address",
          "name": "_newOwner",
          "type": "address"
        }
      ],
      "name": "transferOwnership",
      "outputs": [],
      "stateMutability": "nonpayable",
      "type": "function"
    },
    {
      "inputs": [],
      "name": "typeChangingEnabled",
      "outputs": [
        {
          "internalType": "bool",
          "name": "",
          "type": "bool"
        }
      ],
      "stateMutability": "view",
      "type": "function"
    },
    {
      "inputs": [],
      "name": "updateRegistry",
      "outputs": [],
      "stateMutability": "nonpayable",
      "type": "function"
    },
    {
      "inputs": [
        {
          "internalType": "uint16",
          "name": "_type",
          "type": "uint16"
        },
        {
          "internalType": "string",
          "name": "_name",
          "type": "string"
        },
        {
          "internalType": "string",
          "name": "_symbol",
          "type": "string"
        },
        {
          "internalType": "uint8",
          "name": "_decimals",
          "type": "uint8"
        },
        {
          "internalType": "uint32",
          "name": "_maxConversionFee",
          "type": "uint32"
        },
        {
          "internalType": "contract IERC20[]",
          "name": "_reserveTokens",
          "type": "address[]"
        },
        {
          "internalType": "uint32[]",
          "name": "_reserveWeights",
          "type": "uint32[]"
        }
      ],
      "name": "newConverter",
      "outputs": [
        {
          "internalType": "contract IConverter",
          "name": "",
          "type": "address"
        }
      ],
      "stateMutability": "nonpayable",
      "type": "function"
    },
    {
      "inputs": [
        {
          "internalType": "bool",
          "name": "_state",
          "type": "bool"
        }
      ],
      "name": "enableTypeChanging",
      "outputs": [],
      "stateMutability": "nonpayable",
      "type": "function"
    }
  ],
  "bytecode": "0x60806040526004805460ff60a01b1916600160a01b1790553480156200002457600080fd5b506040516200349338038062003493833981810160405260208110156200004a57600080fd5b5051600080546001600160a01b031916331790558080806200006c81620000a0565b50600280546001600160a01b039092166001600160a01b031992831681179091556003805490921617905550620000ff9050565b6001600160a01b038116620000fc576040805162461bcd60e51b815260206004820152601360248201527f4552525f494e56414c49445f4144445245535300000000000000000000000000604482015290519081900360640190fd5b50565b613384806200010f6000396000f3fe608060405234801561001057600080fd5b506004361061028a5760003560e01c80637a5f0ffd1161015c578063b4a176d3116100ce578063d8cced2a11610087578063d8cced2a14610c3f578063e571049b14610c65578063e85455d714610c6d578063effb3c6e14610c93578063f2fde38b14610c9b578063f4fb86c014610cc15761028a565b8063b4a176d314610aaa578063b4c4197a14610ab2578063c22b82f014610ae0578063d3182bed14610c03578063d4ee1d9014610c0b578063d6c4b5b214610c135761028a565b80638f1d0e1a116101205780638f1d0e1a146109d8578063954254f5146109fe5780639e76a00714610a24578063a109d21414610a4a578063a43d5e9414610a67578063a74498aa14610a8d5761028a565b80637a5f0ffd1461099b5780637b103999146109a35780637f45c4c3146109ab578063865cf194146109b35780638da5cb5b146109d05761028a565b806349d10b641161020057806361cd756e116101b957806361cd756e1461091057806369be4784146109185780636ce1c4dc14610920578063725b878614610946578063760d236c1461097457806379ba5097146109935761028a565b806349d10b64146105c95780634c7df18f146105d15780635a0a6618146105ee5780635f1b50fe1461083b578063603f51e414610843578063610c0b051461086f5761028a565b80631f8e2620116102525780631f8e26201461048057806326bfa216146105215780632fe8a6ad1461053d5780633ab8857c146105455780634123ef601461056b57806349c5f32b146105915761028a565b8063024c7ec71461028f57806304ceaf41146102b057806311839064146103085780631814f2d21461032e5780631d3fccd514610352575b600080fd5b6102ae600480360360208110156102a557600080fd5b50351515610ce7565b005b6102b8610d0d565b60408051602080825283518183015283519192839290830191858101910280838360005b838110156102f45781810151838201526020016102dc565b505050509050019250505060405180910390f35b6102b86004803603602081101561031e57600080fd5b50356001600160a01b0316610d1c565b610336610e4f565b604080516001600160a01b039092168252519081900360200190f35b6103366004803603606081101561036857600080fd5b61ffff8235169190810190604081016020820135600160201b81111561038d57600080fd5b82018360208201111561039f57600080fd5b803590602001918460208302840111600160201b831117156103c057600080fd5b9190808060200260200160405190810160405280939291908181526020018383602002808284376000920191909152509295949360208101935035915050600160201b81111561040f57600080fd5b82018360208201111561042157600080fd5b803590602001918460208302840111600160201b8311171561044257600080fd5b919080806020026020016040519081016040528093929190818152602001838360200280828437600092019190915250929550610e5e945050505050565b6102b86004803603602081101561049657600080fd5b810190602081018135600160201b8111156104b057600080fd5b8201836020820111156104c257600080fd5b803590602001918460208302840111600160201b831117156104e357600080fd5b919080806020026020016040519081016040528093929190818152602001838360200280828437600092019190915250929550610f45945050505050565b610529610f56565b604080519115158252519081900360200190f35b610529610f66565b6105296004803603602081101561055b57600080fd5b50356001600160a01b0316610f76565b6105296004803603602081101561058157600080fd5b50356001600160a01b031661100d565b6105b7600480360360208110156105a757600080fd5b50356001600160a01b0316611018565b60408051918252519081900360200190f35b6102ae61107d565b610336600480360360208110156105e757600080fd5b5035611285565b610336600480360360e081101561060457600080fd5b61ffff8235169190810190604081016020820135600160201b81111561062957600080fd5b82018360208201111561063b57600080fd5b803590602001918460018302840111600160201b8311171561065c57600080fd5b91908080601f0160208091040260200160405190810160405280939291908181526020018383808284376000920191909152509295949360208101935035915050600160201b8111156106ae57600080fd5b8201836020820111156106c057600080fd5b803590602001918460018302840111600160201b831117156106e157600080fd5b91908080601f016020809104026020016040519081016040528093929190818152602001838380828437600092019190915250929560ff8535169563ffffffff60208701351695919450925060608101915060400135600160201b81111561074857600080fd5b82018360208201111561075a57600080fd5b803590602001918460208302840111600160201b8311171561077b57600080fd5b9190808060200260200160405190810160405280939291908181526020018383602002808284376000920191909152509295949360208101935035915050600160201b8111156107ca57600080fd5b8201836020820111156107dc57600080fd5b803590602001918460208302840111600160201b831117156107fd57600080fd5b9190808060200260200160405190810160405280939291908181526020018383602002808284376000920191909152509295506112e1945050505050565b6102b861131d565b6103366004803603604081101561085957600080fd5b506001600160a01b03813516906020013561143a565b6102b86004803603602081101561088557600080fd5b810190602081018135600160201b81111561089f57600080fd5b8201836020820111156108b157600080fd5b803590602001918460208302840111600160201b831117156108d257600080fd5b9190808060200260200160405190810160405280939291908181526020018383602002808284376000920191909152509295506114da945050505050565b6103366115db565b6105b76115ea565b6102ae6004803603602081101561093657600080fd5b50356001600160a01b031661166c565b6105296004803603604081101561095c57600080fd5b506001600160a01b03813581169160200135166116d2565b6102ae6004803603602081101561098a57600080fd5b503515156116de565b6102ae6116fc565b6105b76117b3565b610336611804565b6102b8611813565b610336600480360360208110156109c957600080fd5b5035611864565b6103366118c0565b610529600480360360208110156109ee57600080fd5b50356001600160a01b03166118cf565b61052960048036036020811015610a1457600080fd5b50356001600160a01b0316611ad8565b6102ae60048036036020811015610a3a57600080fd5b50356001600160a01b0316611bc7565b61033660048036036020811015610a6057600080fd5b5035611c34565b6105b760048036036020811015610a7d57600080fd5b50356001600160a01b0316611c3f565b61033660048036036020811015610aa357600080fd5b5035611c4a565b6102ae611ca6565b61052960048036036040811015610ac857600080fd5b506001600160a01b0381358116916020013516611cd2565b61033660048036036040811015610af657600080fd5b810190602081018135600160201b811115610b1057600080fd5b820183602082011115610b2257600080fd5b803590602001918460208302840111600160201b83111715610b4357600080fd5b9190808060200260200160405190810160405280939291908181526020018383602002808284376000920191909152509295949360208101935035915050600160201b811115610b9257600080fd5b820183602082011115610ba457600080fd5b803590602001918460208302840111600160201b83111715610bc557600080fd5b919080806020026020016040519081016040528093929190818152602001838360200280828437600092019190915250929550611d48945050505050565b6105b7611d6a565b610336611dbb565b61033660048036036040811015610c2957600080fd5b506001600160a01b038135169060200135611dca565b61052960048036036020811015610c5557600080fd5b50356001600160a01b0316611dd6565b6105b7611e3b565b61052960048036036020811015610c8357600080fd5b50356001600160a01b0316611e45565b6102b8611eaa565b6102ae60048036036020811015610cb157600080fd5b50356001600160a01b0316611efb565b6102b860048036036020811015610cd757600080fd5b50356001600160a01b0316611f79565b610cef611f84565b60038054911515600160a01b0260ff60a01b19909216919091179055565b6060610d17611eaa565b905090565b6060610d3560008051602061332f833981519152611fd9565b6001600160a01b031663f4fb86c0836040518263ffffffff1660e01b815260040180826001600160a01b0316815260200191505060006040518083038186803b158015610d8157600080fd5b505afa158015610d95573d6000803e3d6000fd5b505050506040513d6000823e601f3d908101601f191682016040526020811015610dbe57600080fd5b8101908080516040519392919084600160201b821115610ddd57600080fd5b908301906020820185811115610df257600080fd5b82518660208202830111600160201b82111715610e0e57600080fd5b82525081516020918201928201910280838360005b83811015610e3b578181015183820152602001610e23565b505050509050016040525050509050919050565b6004546001600160a01b031681565b600081518351148015610e72575060018351115b15610f3a576060610e8284612025565b905060005b8151811015610f37576000828281518110610e9e57fe5b602002602001015190506000816001600160a01b0316638da5cb5b6040518163ffffffff1660e01b815260040160206040518083038186803b158015610ee357600080fd5b505afa158015610ef7573d6000803e3d6000fd5b505050506040513d6020811015610f0d57600080fd5b50519050610f1d818989896122bb565b15610f2d57509250610f3e915050565b5050600101610e87565b50505b5060005b9392505050565b6060610f50826114da565b92915050565b600454600160a01b900460ff1681565b600354600160a01b900460ff1681565b6000610f8f60008051602061332f833981519152611fd9565b6001600160a01b0316633ab8857c836040518263ffffffff1660e01b815260040180826001600160a01b0316815260200191505060206040518083038186803b158015610fdb57600080fd5b505afa158015610fef573d6000803e3d6000fd5b505050506040513d602081101561100557600080fd5b505192915050565b6000610f5082611dd6565b600061103160008051602061332f833981519152611fd9565b6001600160a01b031663a43d5e94836040518263ffffffff1660e01b815260040180826001600160a01b0316815260200191505060206040518083038186803b158015610fdb57600080fd5b6000546001600160a01b03163314806110a05750600354600160a01b900460ff16155b6110e5576040805162461bcd60e51b815260206004820152601160248201527011549497d050d0d154d4d7d11153925151607a1b604482015290519081900360640190fd5b60006111036f436f6e7472616374526567697374727960801b611fd9565b6002549091506001600160a01b0380831691161480159061112c57506001600160a01b03811615155b611174576040805162461bcd60e51b81526020600482015260146024820152734552525f494e56414c49445f524547495354525960601b604482015290519081900360640190fd5b60006001600160a01b0316816001600160a01b031663bb34534c6f436f6e7472616374526567697374727960801b6040518263ffffffff1660e01b81526004018082815260200191505060206040518083038186803b1580156111d657600080fd5b505afa1580156111ea573d6000803e3d6000fd5b505050506040513d602081101561120057600080fd5b50516001600160a01b03161415611255576040805162461bcd60e51b81526020600482015260146024820152734552525f494e56414c49445f524547495354525960601b604482015290519081900360640190fd5b60028054600380546001600160a01b038084166001600160a01b0319928316179092559091169216919091179055565b600061129e60008051602061332f833981519152611fd9565b6001600160a01b031663a109d214836040518263ffffffff1660e01b81526004018082815260200191505060206040518083038186803b158015610fdb57600080fd5b60006112f2888888888888886123cd565b600480546001600160a01b0319166001600160a01b0392831617908190551698975050505050505050565b606061133660008051602061332f833981519152611fd9565b6001600160a01b0316635f1b50fe6040518163ffffffff1660e01b815260040160006040518083038186803b15801561136e57600080fd5b505afa158015611382573d6000803e3d6000fd5b505050506040513d6000823e601f3d908101601f1916820160405260208110156113ab57600080fd5b8101908080516040519392919084600160201b8211156113ca57600080fd5b9083019060208201858111156113df57600080fd5b82518660208202830111600160201b821117156113fb57600080fd5b82525081516020918201928201910280838360005b83811015611428578181015183820152602001611410565b50505050905001604052505050905090565b600061145360008051602061332f833981519152611fd9565b6001600160a01b031663d6c4b5b284846040518363ffffffff1660e01b815260040180836001600160a01b031681526020018281526020019250505060206040518083038186803b1580156114a757600080fd5b505afa1580156114bb573d6000803e3d6000fd5b505050506040513d60208110156114d157600080fd5b50519392505050565b606080825167ffffffffffffffff811180156114f557600080fd5b5060405190808252806020026020018201604052801561151f578160200160208202803683370190505b50905060005b83518110156115d45783818151811061153a57fe5b60200260200101516001600160a01b0316638da5cb5b6040518163ffffffff1660e01b815260040160206040518083038186803b15801561157a57600080fd5b505afa15801561158e573d6000803e3d6000fd5b505050506040513d60208110156115a457600080fd5b505182518390839081106115b457fe5b6001600160a01b0390921660209283029190910190910152600101611525565b5092915050565b6003546001600160a01b031681565b600061160360008051602061332f833981519152611fd9565b6001600160a01b03166369be47846040518163ffffffff1660e01b815260040160206040518083038186803b15801561163b57600080fd5b505afa15801561164f573d6000803e3d6000fd5b505050506040513d602081101561166557600080fd5b5051905090565b611674611f84565b61167d81611ad8565b6116c6576040805162461bcd60e51b815260206004820152601560248201527422a9292fa4a72b20a624a22fa1a7a72b22a92a22a960591b604482015290519081900360640190fd5b6116cf81612944565b50565b6000610f3e8383611cd2565b60048054911515600160a01b0260ff60a01b19909216919091179055565b6001546001600160a01b0316331461174f576040805162461bcd60e51b815260206004820152601160248201527011549497d050d0d154d4d7d11153925151607a1b604482015290519081900360640190fd5b600154600080546040516001600160a01b0393841693909116917f343765429aea5a34b3ff6a3785a98a5abb2597aca87bfbb58632c173d585373a91a360018054600080546001600160a01b03199081166001600160a01b03841617909155169055565b60006117cc60008051602061332f833981519152611fd9565b6001600160a01b0316637a5f0ffd6040518163ffffffff1660e01b815260040160206040518083038186803b15801561163b57600080fd5b6002546001600160a01b031681565b606061182c60008051602061332f833981519152611fd9565b6001600160a01b0316637f45c4c36040518163ffffffff1660e01b815260040160006040518083038186803b15801561136e57600080fd5b600061187d60008051602061332f833981519152611fd9565b6001600160a01b031663865cf194836040518263ffffffff1660e01b81526004018082815260200191505060206040518083038186803b158015610fdb57600080fd5b6000546001600160a01b031681565b600080826001600160a01b03166371f52bf36040518163ffffffff1660e01b815260040160206040518083038186803b15801561190b57600080fd5b505afa15801561191f573d6000803e3d6000fd5b505050506040513d602081101561193557600080fd5b505161ffff16905060608167ffffffffffffffff8111801561195657600080fd5b50604051908082528060200260200182016040528015611980578160200160208202803683370190505b50905060608267ffffffffffffffff8111801561199c57600080fd5b506040519080825280602002602001820160405280156119c6578160200160208202803683370190505b50905060005b83811015611aad576000866001600160a01b03166319b64015836040518263ffffffff1660e01b81526004018082815260200191505060206040518083038186803b158015611a1a57600080fd5b505afa158015611a2e573d6000803e3d6000fd5b505050506040513d6020811015611a4457600080fd5b505184519091508190859084908110611a5957fe5b60200260200101906001600160a01b031690816001600160a01b031681525050611a838782612aff565b838381518110611a8f57fe5b63ffffffff90921660209283029190910190910152506001016119cc565b506000611ac4611abd8786612b86565b8484610e5e565b6001600160a01b0316141595945050505050565b6000816001600160a01b0316826001600160a01b031663fc0c546a6040518163ffffffff1660e01b815260040160206040518083038186803b158015611b1d57600080fd5b505afa158015611b31573d6000803e3d6000fd5b505050506040513d6020811015611b4757600080fd5b505160408051638da5cb5b60e01b815290516001600160a01b0390921691638da5cb5b91600480820192602092909190829003018186803b158015611b8b57600080fd5b505afa158015611b9f573d6000803e3d6000fd5b505050506040513d6020811015611bb557600080fd5b50516001600160a01b03161492915050565b6000546001600160a01b0316331480611be65750611be481611ad8565b155b611c2b576040805162461bcd60e51b815260206004820152601160248201527011549497d050d0d154d4d7d11153925151607a1b604482015290519081900360640190fd5b6116cf81612cab565b6000610f5082611285565b6000610f5082611018565b6000611c6360008051602061332f833981519152611fd9565b6001600160a01b031663a74498aa836040518263ffffffff1660e01b81526004018082815260200191505060206040518083038186803b158015610fdb57600080fd5b611cae611f84565b600354600280546001600160a01b0319166001600160a01b03909216919091179055565b6000611ceb60008051602061332f833981519152611fd9565b6001600160a01b031663725b878684846040518363ffffffff1660e01b815260040180836001600160a01b03168152602001826001600160a01b031681526020019250505060206040518083038186803b1580156114a757600080fd5b6000610f3e6001845111611d5d576000611d60565b60015b60ff168484610e5e565b6000611d8360008051602061332f833981519152611fd9565b6001600160a01b031663e571049b6040518163ffffffff1660e01b815260040160206040518083038186803b15801561163b57600080fd5b6001546001600160a01b031681565b6000610f3e838361143a565b6000611def60008051602061332f833981519152611fd9565b6001600160a01b0316634123ef60836040518263ffffffff1660e01b815260040180826001600160a01b0316815260200191505060206040518083038186803b158015610fdb57600080fd5b6000610d17611d6a565b6000611e5e60008051602061332f833981519152611fd9565b6001600160a01b031663e85455d7836040518263ffffffff1660e01b815260040180826001600160a01b0316815260200191505060206040518083038186803b158015610fdb57600080fd5b6060611ec360008051602061332f833981519152611fd9565b6001600160a01b03166304ceaf416040518163ffffffff1660e01b815260040160006040518083038186803b15801561136e57600080fd5b611f03611f84565b6000546001600160a01b0382811691161415611f57576040805162461bcd60e51b815260206004820152600e60248201526d22a9292fa9a0a6a2afa7aba722a960911b604482015290519081900360640190fd5b600180546001600160a01b0319166001600160a01b0392909216919091179055565b6060610f5082610d1c565b6000546001600160a01b03163314611fd7576040805162461bcd60e51b815260206004820152601160248201527011549497d050d0d154d4d7d11153925151607a1b604482015290519081900360640190fd5b565b60025460408051632ecd14d360e21b81526004810184905290516000926001600160a01b03169163bb34534c916024808301926020929190829003018186803b158015610fdb57600080fd5b6060600061204060008051602061332f833981519152611fd9565b90506000816001600160a01b031663a43d5e948560008151811061206057fe5b60200260200101516040518263ffffffff1660e01b815260040180826001600160a01b0316815260200191505060206040518083038186803b1580156120a557600080fd5b505afa1580156120b9573d6000803e3d6000fd5b505050506040513d60208110156120cf57600080fd5b50519050600060015b8551811015612189576000846001600160a01b031663a43d5e948884815181106120fe57fe5b60200260200101516040518263ffffffff1660e01b815260040180826001600160a01b0316815260200191505060206040518083038186803b15801561214357600080fd5b505afa158015612157573d6000803e3d6000fd5b505050506040513d602081101561216d57600080fd5b5051905080841115612180578093508192505b506001016120d8565b50826001600160a01b031663f4fb86c08683815181106121a557fe5b60200260200101516040518263ffffffff1660e01b815260040180826001600160a01b0316815260200191505060006040518083038186803b1580156121ea57600080fd5b505afa1580156121fe573d6000803e3d6000fd5b505050506040513d6000823e601f3d908101601f19168201604052602081101561222757600080fd5b8101908080516040519392919084600160201b82111561224657600080fd5b90830190602082018581111561225b57600080fd5b82518660208202830111600160201b8211171561227757600080fd5b82525081516020918201928201910280838360005b838110156122a457818101518382015260200161228c565b505050509050016040525050509350505050919050565b600080856001600160a01b03166371f52bf36040518163ffffffff1660e01b815260040160206040518083038186803b1580156122f757600080fd5b505afa15801561230b573d6000803e3d6000fd5b505050506040513d602081101561232157600080fd5b505161ffff1690506123338682612b86565b61ffff168561ffff161461234b5760009150506123c5565b8084511461235d5760009150506123c5565b60005b84518110156123be576123868786838151811061237957fe5b6020026020010151612aff565b63ffffffff1684828151811061239857fe5b602002602001015163ffffffff16146123b6576000925050506123c5565b600101612360565b5060019150505b949350505050565b8151815160009190811461241f576040805162461bcd60e51b81526020600482015260146024820152734552525f494e56414c49445f524553455256455360601b604482015290519081900360640190fd5b8861ffff166001148015612437575061243783612e5f565b1561244157600398505b600061244e8a8686610e5e565b6001600160a01b03161461249e576040805162461bcd60e51b81526020600482015260126024820152714552525f414c52454144595f45584953545360701b604482015290519081900360640190fd5b60006124bc6f436f6e766572746572466163746f727960801b611fd9565b90506000816001600160a01b0316632e9ab7b38c8c8c8c6040518563ffffffff1660e01b8152600401808561ffff16815260200180602001806020018460ff168152602001838103835286818151815260200191508051906020019080838360005b8381101561253657818101518382015260200161251e565b50505050905090810190601f1680156125635780820380516001836020036101000a031916815260200191505b50838103825285518152855160209182019187019080838360005b8381101561259657818101518382015260200161257e565b50505050905090810190601f1680156125c35780820380516001836020036101000a031916815260200191505b509650505050505050602060405180830381600087803b1580156125e657600080fd5b505af11580156125fa573d6000803e3d6000fd5b505050506040513d602081101561261057600080fd5b505160025460408051630afb25b560e11b815261ffff8f1660048201526001600160a01b038085166024830152928316604482015263ffffffff8b1660648201529051929350600092918516916315f64b6a9160848082019260209290919082900301818787803b15801561268457600080fd5b505af1158015612698573d6000803e3d6000fd5b505050506040513d60208110156126ae57600080fd5b5051604080516379ba509760e01b815290519192506001600160a01b038416916379ba50979160048082019260009290919082900301818387803b1580156126f557600080fd5b505af1158015612709573d6000803e3d6000fd5b50505050806001600160a01b03166379ba50976040518163ffffffff1660e01b8152600401600060405180830381600087803b15801561274857600080fd5b505af115801561275c573d6000803e3d6000fd5b5050505060005b8481101561281257816001600160a01b0316636a49d2c489838151811061278657fe5b602002602001015189848151811061279a57fe5b60200260200101516040518363ffffffff1660e01b815260040180836001600160a01b031681526020018263ffffffff16815260200192505050600060405180830381600087803b1580156127ee57600080fd5b505af1158015612802573d6000803e3d6000fd5b5050600190920191506127639050565b50816001600160a01b031663f2fde38b826040518263ffffffff1660e01b815260040180826001600160a01b03168152602001915050600060405180830381600087803b15801561286257600080fd5b505af1158015612876573d6000803e3d6000fd5b50505050806001600160a01b031663cdc91c696040518163ffffffff1660e01b8152600401600060405180830381600087803b1580156128b557600080fd5b505af11580156128c9573d6000803e3d6000fd5b50506040805163f2fde38b60e01b815233600482015290516001600160a01b038516935063f2fde38b9250602480830192600092919082900301818387803b15801561291457600080fd5b505af1158015612928573d6000803e3d6000fd5b5050505061293581612944565b9b9a5050505050505050505050565b600061295d60008051602061332f833981519152611fd9565b90506000826001600160a01b031663fc0c546a6040518163ffffffff1660e01b815260040160206040518083038186803b15801561299a57600080fd5b505afa1580156129ae573d6000803e3d6000fd5b505050506040513d60208110156129c457600080fd5b5051604080516371f52bf360e01b815290519192506000916001600160a01b038616916371f52bf3916004808301926020929190829003018186803b158015612a0c57600080fd5b505afa158015612a20573d6000803e3d6000fd5b505050506040513d6020811015612a3657600080fd5b505161ffff169050612a488383612e7f565b6001811115612a6057612a5b8383612f52565b612a6b565b612a6b838384612ff1565b60005b81811015612af857612af084866001600160a01b03166319b64015846040518263ffffffff1660e01b81526004018082815260200191505060206040518083038186803b158015612abe57600080fd5b505afa158015612ad2573d6000803e3d6000fd5b505050506040513d6020811015612ae857600080fd5b505185612ff1565b600101612a6e565b5050505050565b600080836001600160a01b0316630e53aae9846040518263ffffffff1660e01b815260040180826001600160a01b0316815260200191505060a06040518083038186803b158015612b4f57600080fd5b505afa158015612b63573d6000803e3d6000fd5b505050506040513d60a0811015612b7957600080fd5b5060200151949350505050565b60408051600481526024810182526020810180516001600160e01b0316633e8ff43f60e01b1781529151815160009384936060936001600160a01b03891693919290918291908083835b60208310612bef5780518252601f199092019160209182019101612bd0565b6001836020036101000a038019825116818451168082178552505050505050905001915050600060405180830381855afa9150503d8060008114612c4f576040519150601f19603f3d011682016040523d82523d6000602084013e612c54565b606091505b5091509150818015612c67575080516020145b15612c8d57808060200190516020811015612c8157600080fd5b50519250610f50915050565b60018411612c9c576000612c9f565b60015b60ff1695945050505050565b6000612cc460008051602061332f833981519152611fd9565b90506000826001600160a01b031663fc0c546a6040518163ffffffff1660e01b815260040160206040518083038186803b158015612d0157600080fd5b505afa158015612d15573d6000803e3d6000fd5b505050506040513d6020811015612d2b57600080fd5b5051604080516371f52bf360e01b815290519192506000916001600160a01b038616916371f52bf3916004808301926020929190829003018186803b158015612d7357600080fd5b505afa158015612d87573d6000803e3d6000fd5b505050506040513d6020811015612d9d57600080fd5b505161ffff169050612daf83836130a6565b6001811115612dc757612dc28383613179565b612dd2565b612dd2838384613218565b60005b81811015612af857612e5784866001600160a01b03166319b64015846040518263ffffffff1660e01b81526004018082815260200191505060206040518083038186803b158015612e2557600080fd5b505afa158015612e39573d6000803e3d6000fd5b505050506040513d6020811015612e4f57600080fd5b505185613218565b600101612dd5565b600454600090600160a01b900460ff168015610f505750610f50826132cd565b816001600160a01b0316638de6c3eb826040518263ffffffff1660e01b815260040180826001600160a01b03168152602001915050600060405180830381600087803b158015612ece57600080fd5b505af1158015612ee2573d6000803e3d6000fd5b50506040516001600160a01b03841692507fc0a6d303d67b7ed9fa0abae1c48878df32acc0e7ca4334c7dad2bceeee5956fd9150600090a26040516001600160a01b038216907f88881feecdf61136ac4bdb1f681f2f3746a82910263d21ffea94750d2a78c0ab90600090a25050565b816001600160a01b031663ee6a934c826040518263ffffffff1660e01b815260040180826001600160a01b03168152602001915050600060405180830381600087803b158015612fa157600080fd5b505af1158015612fb5573d6000803e3d6000fd5b50506040516001600160a01b03841692507fb893f883ef734b712208a877459424ee509832c57e0461fb1ac99ed4d42f2d899150600090a25050565b826001600160a01b03166336900c1183836040518363ffffffff1660e01b815260040180836001600160a01b03168152602001826001600160a01b0316815260200192505050600060405180830381600087803b15801561305157600080fd5b505af1158015613065573d6000803e3d6000fd5b50506040516001600160a01b038085169350851691507ff2e7cf6d6ed3f77039511409a43d4fa5108f09ab71d72b014380364c910233a590600090a3505050565b816001600160a01b031663ceb9838c826040518263ffffffff1660e01b815260040180826001600160a01b03168152602001915050600060405180830381600087803b1580156130f557600080fd5b505af1158015613109573d6000803e3d6000fd5b50506040516001600160a01b03841692507fbfdf1baaa7e4871111360083540f067050014f651c9e4610a2a4a4bdf8bfab5d9150600090a26040516001600160a01b038216907f2aff63790c7da80d1c50ede92d23bc841c384837735c92c184331f3d7b91e5bf90600090a25050565b816001600160a01b031663ae22107f826040518263ffffffff1660e01b815260040180826001600160a01b03168152602001915050600060405180830381600087803b1580156131c857600080fd5b505af11580156131dc573d6000803e3d6000fd5b50506040516001600160a01b03841692507f59c3fbcae88f30e9b0e35c132a7f68c53231dffa4722f197c7ecb0ee013eee609150600090a25050565b826001600160a01b031663fba8f03183836040518363ffffffff1660e01b815260040180836001600160a01b03168152602001826001600160a01b0316815260200192505050600060405180830381600087803b15801561327857600080fd5b505af115801561328c573d6000803e3d6000fd5b50506040516001600160a01b038085169350851691507f9430ad6ff45d6c3e126c7711bf0036bd9bc6b202fa19628abd88e59cf43ced4390600090a3505050565b6000815160021480156132fd575081516207a1209083906000906132ed57fe5b602002602001015163ffffffff16145b8015610f50575081516207a120908390600190811061331857fe5b602002602001015163ffffffff1614905091905056fe42616e636f72436f6e7665727465725265676973747279446174610000000000a2646970667358221220e0d7e9d0f9fcd6eaeb84337d641ebb70c0dc14f7dd796fca12f0310c32fde6ec64736f6c634300060c0033",
  "immutableReferences": {},
  "source": "// SPDX-License-Identifier: SEE LICENSE IN LICENSE\npragma solidity 0.6.12;\nimport \"../converter/ConverterRegistry.sol\";\n\n/*\n    Utils test helper that exposes the converter registry functions\n*/\ncontract TestConverterRegistry is ConverterRegistry {\n    IConverter public createdConverter;\n    bool public typeChangingEnabled = true;\n\n    constructor(IContractRegistry _registry) public ConverterRegistry(_registry) {}\n\n    function newConverter(\n        uint16 _type,\n        string memory _name,\n        string memory _symbol,\n        uint8 _decimals,\n        uint32 _maxConversionFee,\n        IERC20[] memory _reserveTokens,\n        uint32[] memory _reserveWeights\n    ) public override returns (IConverter) {\n        createdConverter = super.newConverter(\n            _type,\n            _name,\n            _symbol,\n            _decimals,\n            _maxConversionFee,\n            _reserveTokens,\n            _reserveWeights\n        );\n\n        return createdConverter;\n    }\n\n    function isStandardPool(uint32[] memory _reserveWeights) internal view override returns (bool) {\n        return typeChangingEnabled && super.isStandardPool(_reserveWeights);\n    }\n\n    function enableTypeChanging(bool _state) external {\n        typeChangingEnabled = _state;\n    }\n}\n",
  "sourcePath": "/Users/dennismacpro/Projects/Defi/Ethereum-Solidity-Collection/icarus-protocol/defi-seeder/.tmp/bancor/contracts-solidity/solidity/contracts/helpers/TestConverterRegistry.sol",
  "compiler": {
    "name": "solc",
    "version": "0.6.12+commit.27d51765.Emscripten.clang"
  },
  "schemaVersion": "3.3.3",
  "updatedAt": "2021-04-01T18:17:52.050Z",
  "devdoc": {
    "kind": "dev",
    "methods": {
      "acceptOwnership()": {
        "details": "used by a new owner to accept an ownership transfer"
      },
      "addConverter(address)": {
        "details": "adds an existing converter to the registry can only be called by the owner",
        "params": {
          "_converter": "converter"
        }
      },
      "getAnchor(uint256)": {
        "details": "returns the converter anchor at a given index",
        "params": {
          "_index": "index"
        },
        "returns": {
          "_0": "anchor at the given index"
        }
      },
      "getAnchorCount()": {
        "details": "returns the number of converter anchors in the registry",
        "returns": {
          "_0": "number of anchors"
        }
      },
      "getAnchors()": {
        "details": "returns the list of converter anchors in the registry",
        "returns": {
          "_0": "list of anchors"
        }
      },
      "getConvertersByAnchors(address[])": {
        "details": "returns a list of converters for a given list of anchors this is a utility function that can be used to reduce the number of calls to the contract",
        "params": {
          "_anchors": "list of converter anchors"
        },
        "returns": {
          "_0": "list of converters"
        }
      },
      "getConvertersBySmartTokens(address[])": {
        "details": "deprecated, backward compatibility, use `getConvertersByAnchors`"
      },
      "getConvertibleToken(uint256)": {
        "details": "returns the convertible token at a given index",
        "params": {
          "_index": "index"
        },
        "returns": {
          "_0": "convertible token at the given index"
        }
      },
      "getConvertibleTokenAnchor(address,uint256)": {
        "details": "returns the converter anchor associated with a given convertible token at a given index",
        "params": {
          "_index": "index"
        },
        "returns": {
          "_0": "anchor associated with the given convertible token at the given index"
        }
      },
      "getConvertibleTokenAnchorCount(address)": {
        "details": "returns the number of converter anchors associated with a given convertible token",
        "params": {
          "_convertibleToken": "convertible token"
        },
        "returns": {
          "_0": "number of anchors associated with the given convertible token"
        }
      },
      "getConvertibleTokenAnchors(address)": {
        "details": "returns the list of aoncerter anchors associated with a given convertible token",
        "params": {
          "_convertibleToken": "convertible token"
        },
        "returns": {
          "_0": "list of anchors associated with the given convertible token"
        }
      },
      "getConvertibleTokenCount()": {
        "details": "returns the number of convertible tokens in the registry",
        "returns": {
          "_0": "number of convertible tokens"
        }
      },
      "getConvertibleTokenSmartToken(address,uint256)": {
        "details": "deprecated, backward compatibility, use `getConvertibleTokenAnchor`"
      },
      "getConvertibleTokenSmartTokenCount(address)": {
        "details": "deprecated, backward compatibility, use `getConvertibleTokenAnchorCount`"
      },
      "getConvertibleTokenSmartTokens(address)": {
        "details": "deprecated, backward compatibility, use `getConvertibleTokenAnchors`"
      },
      "getConvertibleTokens()": {
        "details": "returns the list of convertible tokens in the registry",
        "returns": {
          "_0": "list of convertible tokens"
        }
      },
      "getLiquidityPool(uint256)": {
        "details": "returns the liquidity pool at a given index",
        "params": {
          "_index": "index"
        },
        "returns": {
          "_0": "liquidity pool at the given index"
        }
      },
      "getLiquidityPoolByConfig(uint16,address[],uint32[])": {
        "details": "searches for a liquidity pool with specific configuration",
        "params": {
          "_reserveTokens": "reserve tokens",
          "_reserveWeights": "reserve weights",
          "_type": "converter type, see ConverterBase contract main doc"
        },
        "returns": {
          "_0": "the liquidity pool, or zero if no such liquidity pool exists"
        }
      },
      "getLiquidityPoolByReserveConfig(address[],uint32[])": {
        "details": "deprecated, backward compatibility, use `getLiquidityPoolByConfig`"
      },
      "getLiquidityPoolCount()": {
        "details": "returns the number of liquidity pools in the registry",
        "returns": {
          "_0": "number of liquidity pools"
        }
      },
      "getLiquidityPools()": {
        "details": "returns the list of liquidity pools in the registry",
        "returns": {
          "_0": "list of liquidity pools"
        }
      },
      "getSmartToken(uint256)": {
        "details": "deprecated, backward compatibility, use `getAnchor`"
      },
      "getSmartTokenCount()": {
        "details": "deprecated, backward compatibility, use `getAnchorCount`"
      },
      "getSmartTokens()": {
        "details": "deprecated, backward compatibility, use `getAnchors`"
      },
      "isAnchor(address)": {
        "details": "checks whether or not a given value is a converter anchor",
        "params": {
          "_value": "value"
        },
        "returns": {
          "_0": "true if the given value is an anchor, false if not"
        }
      },
      "isConverterValid(address)": {
        "details": "checks whether or not a given converter is valid",
        "params": {
          "_converter": "converter"
        },
        "returns": {
          "_0": "true if the given converter is valid, false if not"
        }
      },
      "isConvertibleToken(address)": {
        "details": "checks whether or not a given value is a convertible token",
        "params": {
          "_value": "value"
        },
        "returns": {
          "_0": "true if the given value is a convertible token, false if not"
        }
      },
      "isConvertibleTokenAnchor(address,address)": {
        "details": "checks whether or not a given value is a converter anchor of a given convertible token",
        "params": {
          "_convertibleToken": "convertible token",
          "_value": "value"
        },
        "returns": {
          "_0": "true if the given value is an anchor of the given convertible token, false if not"
        }
      },
      "isConvertibleTokenSmartToken(address,address)": {
        "details": "deprecated, backward compatibility, use `isConvertibleTokenAnchor`"
      },
      "isLiquidityPool(address)": {
        "details": "checks whether or not a given value is a liquidity pool",
        "params": {
          "_value": "value"
        },
        "returns": {
          "_0": "true if the given value is a liquidity pool, false if not"
        }
      },
      "isSimilarLiquidityPoolRegistered(address)": {
        "details": "checks if a liquidity pool with given configuration is already registered",
        "params": {
          "_converter": "converter with specific configuration"
        },
        "returns": {
          "_0": "if a liquidity pool with the same configuration is already registered"
        }
      },
      "isSmartToken(address)": {
        "details": "deprecated, backward compatibility, use `isAnchor`"
      },
      "newConverter(uint16,string,string,uint8,uint32,address[],uint32[])": {
        "details": "creates a zero supply liquid token / empty liquidity pool and adds its converter to the registry",
        "params": {
          "_decimals": "token / pool decimals",
          "_maxConversionFee": "maximum conversion-fee",
          "_name": "token / pool name",
          "_reserveTokens": "reserve tokens",
          "_reserveWeights": "reserve weights",
          "_symbol": "token / pool symbol",
          "_type": "converter type, see ConverterBase contract main doc"
        },
        "returns": {
          "_0": "new converter"
        }
      },
      "removeConverter(address)": {
        "details": "removes a converter from the registry anyone can remove an existing converter from the registry, as long as the converter is invalid note that the owner can also remove valid converters",
        "params": {
          "_converter": "converter"
        }
      },
      "restoreRegistry()": {
        "details": "restores the previous contract-registry"
      },
      "restrictRegistryUpdate(bool)": {
        "details": "restricts the permission to update the contract-registry",
        "params": {
          "_onlyOwnerCanUpdateRegistry": "indicates whether or not permission is restricted to owner only"
        }
      },
      "transferOwnership(address)": {
        "details": "allows transferring the contract ownership the new owner still needs to accept the transfer can only be called by the contract owner",
        "params": {
          "_newOwner": "new contract owner"
        }
      },
      "updateRegistry()": {
        "details": "updates to the new contract-registry"
      }
    },
    "version": 1
  },
  "userdoc": {
    "kind": "user",
    "methods": {},
    "version": 1
  }
}