{
  "contractName": "TokenHolder",
  "abi": [
    {
      "anonymous": false,
      "inputs": [
        {
          "indexed": true,
          "internalType": "address",
          "name": "_prevOwner",
          "type": "address"
        },
        {
          "indexed": true,
          "internalType": "address",
          "name": "_newOwner",
          "type": "address"
        }
      ],
      "name": "OwnerUpdate",
      "type": "event"
    },
    {
      "inputs": [],
      "name": "acceptOwnership",
      "outputs": [],
      "stateMutability": "nonpayable",
      "type": "function"
    },
    {
      "inputs": [],
      "name": "newOwner",
      "outputs": [
        {
          "internalType": "address",
          "name": "",
          "type": "address"
        }
      ],
      "stateMutability": "view",
      "type": "function"
    },
    {
      "inputs": [],
      "name": "owner",
      "outputs": [
        {
          "internalType": "address",
          "name": "",
          "type": "address"
        }
      ],
      "stateMutability": "view",
      "type": "function"
    },
    {
      "inputs": [
        {
          "internalType": "address",
          "name": "_newOwner",
          "type": "address"
        }
      ],
      "name": "transferOwnership",
      "outputs": [],
      "stateMutability": "nonpayable",
      "type": "function"
    },
    {
      "inputs": [
        {
          "internalType": "contract IERC20",
          "name": "_token",
          "type": "address"
        },
        {
          "internalType": "address",
          "name": "_to",
          "type": "address"
        },
        {
          "internalType": "uint256",
          "name": "_amount",
          "type": "uint256"
        }
      ],
      "name": "withdrawTokens",
      "outputs": [],
      "stateMutability": "nonpayable",
      "type": "function"
    }
  ],
  "bytecode": "0x608060405234801561001057600080fd5b50600080546001600160a01b0319163317905561072d806100326000396000f3fe608060405234801561001057600080fd5b50600436106100575760003560e01c80635e35359e1461005c57806379ba5097146100945780638da5cb5b1461009c578063d4ee1d90146100c0578063f2fde38b146100c8575b600080fd5b6100926004803603606081101561007257600080fd5b506001600160a01b038135811691602081013590911690604001356100ee565b005b610092610130565b6100a46101e7565b604080516001600160a01b039092168252519081900360200190f35b6100a46101f6565b610092600480360360208110156100de57600080fd5b50356001600160a01b0316610205565b6100f6610283565b82610100816102d8565b8261010a816102d8565b836101148161032c565b6101286001600160a01b0387168686610380565b505050505050565b6001546001600160a01b03163314610183576040805162461bcd60e51b815260206004820152601160248201527011549497d050d0d154d4d7d11153925151607a1b604482015290519081900360640190fd5b600154600080546040516001600160a01b0393841693909116917f343765429aea5a34b3ff6a3785a98a5abb2597aca87bfbb58632c173d585373a91a360018054600080546001600160a01b03199081166001600160a01b03841617909155169055565b6000546001600160a01b031681565b6001546001600160a01b031681565b61020d610283565b6000546001600160a01b0382811691161415610261576040805162461bcd60e51b815260206004820152600e60248201526d22a9292fa9a0a6a2afa7aba722a960911b604482015290519081900360640190fd5b600180546001600160a01b0319166001600160a01b0392909216919091179055565b6000546001600160a01b031633146102d6576040805162461bcd60e51b815260206004820152601160248201527011549497d050d0d154d4d7d11153925151607a1b604482015290519081900360640190fd5b565b6001600160a01b038116610329576040805162461bcd60e51b81526020600482015260136024820152724552525f494e56414c49445f4144445245535360681b604482015290519081900360640190fd5b50565b6001600160a01b038116301415610329576040805162461bcd60e51b815260206004820152601360248201527222a9292fa0a2222922a9a9afa4a9afa9a2a62360691b604482015290519081900360640190fd5b604080516001600160a01b038416602482015260448082018490528251808303909101815260649091019091526020810180516001600160e01b031663a9059cbb60e01b1790526103d29084906103d7565b505050565b606061042c826040518060400160405280602081526020017f5361666545524332303a206c6f772d6c6576656c2063616c6c206661696c6564815250856001600160a01b03166104889092919063ffffffff16565b8051909150156103d25780806020019051602081101561044b57600080fd5b50516103d25760405162461bcd60e51b815260040180806020018281038252602a8152602001806106ce602a913960400191505060405180910390fd5b606061049784846000856104a1565b90505b9392505050565b6060824710156104e25760405162461bcd60e51b81526004018080602001828103825260268152602001806106a86026913960400191505060405180910390fd5b6104eb856105fd565b61053c576040805162461bcd60e51b815260206004820152601d60248201527f416464726573733a2063616c6c20746f206e6f6e2d636f6e7472616374000000604482015290519081900360640190fd5b60006060866001600160a01b031685876040518082805190602001908083835b6020831061057b5780518252601f19909201916020918201910161055c565b6001836020036101000a03801982511681845116808217855250505050505090500191505060006040518083038185875af1925050503d80600081146105dd576040519150601f19603f3d011682016040523d82523d6000602084013e6105e2565b606091505b50915091506105f2828286610603565b979650505050505050565b3b151590565b6060831561061257508161049a565b8251156106225782518084602001fd5b8160405162461bcd60e51b81526004018080602001828103825283818151815260200191508051906020019080838360005b8381101561066c578181015183820152602001610654565b50505050905090810190601f1680156106995780820380516001836020036101000a031916815260200191505b509250505060405180910390fdfe416464726573733a20696e73756666696369656e742062616c616e636520666f722063616c6c5361666545524332303a204552433230206f7065726174696f6e20646964206e6f742073756363656564a264697066735822122027e2ecc533cc130e89e136dc97e3b34452fd085559797ee061d7c8eee838b15164736f6c634300060c0033",
  "immutableReferences": {},
  "source": "// SPDX-License-Identifier: SEE LICENSE IN LICENSE\npragma solidity 0.6.12;\n\nimport \"@openzeppelin/contracts/token/ERC20/IERC20.sol\";\nimport \"@openzeppelin/contracts/token/ERC20/SafeERC20.sol\";\n\nimport \"./Owned.sol\";\nimport \"./Utils.sol\";\nimport \"./interfaces/ITokenHolder.sol\";\n\n/**\n * @dev This contract provides a safety mechanism for allowing the owner to\n * send tokens that were sent to the contract by mistake back to the sender.\n *\n * We consider every contract to be a 'token holder' since it's currently not possible\n * for a contract to deny receiving tokens.\n *\n * Note that we use the non standard ERC-20 interface which has no return value for transfer\n * in order to support both non standard as well as standard token contracts.\n * see https://github.com/ethereum/solidity/issues/4116\n */\ncontract TokenHolder is ITokenHolder, Owned, Utils {\n    using SafeERC20 for IERC20;\n\n    /**\n     * @dev withdraws tokens held by the contract and sends them to an account\n     * can only be called by the owner\n     *\n     * @param _token   ERC20 token contract address\n     * @param _to      account to receive the new amount\n     * @param _amount  amount to withdraw\n     */\n    function withdrawTokens(\n        IERC20 _token,\n        address _to,\n        uint256 _amount\n    ) public virtual override ownerOnly validAddress(address(_token)) validAddress(_to) notThis(_to) {\n        _token.safeTransfer(_to, _amount);\n    }\n}\n",
  "sourcePath": "/Users/dennismacpro/Projects/Defi/Ethereum-Solidity-Collection/icarus-protocol/defi-seeder/.tmp/bancor/contracts-solidity/solidity/contracts/utility/TokenHolder.sol",
  "compiler": {
    "name": "solc",
    "version": "0.6.12+commit.27d51765.Emscripten.clang"
  },
  "schemaVersion": "3.3.3",
  "updatedAt": "2021-04-01T18:17:52.185Z",
  "devdoc": {
    "details": "This contract provides a safety mechanism for allowing the owner to send tokens that were sent to the contract by mistake back to the sender. We consider every contract to be a 'token holder' since it's currently not possible for a contract to deny receiving tokens. Note that we use the non standard ERC-20 interface which has no return value for transfer in order to support both non standard as well as standard token contracts. see https://github.com/ethereum/solidity/issues/4116",
    "kind": "dev",
    "methods": {
      "acceptOwnership()": {
        "details": "used by a new owner to accept an ownership transfer"
      },
      "transferOwnership(address)": {
        "details": "allows transferring the contract ownership the new owner still needs to accept the transfer can only be called by the contract owner",
        "params": {
          "_newOwner": "new contract owner"
        }
      },
      "withdrawTokens(address,address,uint256)": {
        "details": "withdraws tokens held by the contract and sends them to an account can only be called by the owner",
        "params": {
          "_amount": "amount to withdraw",
          "_to": "account to receive the new amount",
          "_token": "ERC20 token contract address"
        }
      }
    },
    "version": 1
  },
  "userdoc": {
    "kind": "user",
    "methods": {},
    "version": 1
  }
}