{
  "contractName": "Whitelist",
  "abi": [
    {
      "anonymous": false,
      "inputs": [
        {
          "indexed": true,
          "internalType": "address",
          "name": "_address",
          "type": "address"
        }
      ],
      "name": "AddressAddition",
      "type": "event"
    },
    {
      "anonymous": false,
      "inputs": [
        {
          "indexed": true,
          "internalType": "address",
          "name": "_address",
          "type": "address"
        }
      ],
      "name": "AddressRemoval",
      "type": "event"
    },
    {
      "anonymous": false,
      "inputs": [
        {
          "indexed": true,
          "internalType": "address",
          "name": "_prevOwner",
          "type": "address"
        },
        {
          "indexed": true,
          "internalType": "address",
          "name": "_newOwner",
          "type": "address"
        }
      ],
      "name": "OwnerUpdate",
      "type": "event"
    },
    {
      "inputs": [],
      "name": "acceptOwnership",
      "outputs": [],
      "stateMutability": "nonpayable",
      "type": "function"
    },
    {
      "inputs": [],
      "name": "newOwner",
      "outputs": [
        {
          "internalType": "address",
          "name": "",
          "type": "address"
        }
      ],
      "stateMutability": "view",
      "type": "function"
    },
    {
      "inputs": [],
      "name": "owner",
      "outputs": [
        {
          "internalType": "address",
          "name": "",
          "type": "address"
        }
      ],
      "stateMutability": "view",
      "type": "function"
    },
    {
      "inputs": [
        {
          "internalType": "address",
          "name": "_newOwner",
          "type": "address"
        }
      ],
      "name": "transferOwnership",
      "outputs": [],
      "stateMutability": "nonpayable",
      "type": "function"
    },
    {
      "inputs": [
        {
          "internalType": "address",
          "name": "_address",
          "type": "address"
        }
      ],
      "name": "isWhitelisted",
      "outputs": [
        {
          "internalType": "bool",
          "name": "",
          "type": "bool"
        }
      ],
      "stateMutability": "view",
      "type": "function"
    },
    {
      "inputs": [
        {
          "internalType": "address",
          "name": "_address",
          "type": "address"
        }
      ],
      "name": "addAddress",
      "outputs": [],
      "stateMutability": "nonpayable",
      "type": "function"
    },
    {
      "inputs": [
        {
          "internalType": "address[]",
          "name": "_addresses",
          "type": "address[]"
        }
      ],
      "name": "addAddresses",
      "outputs": [],
      "stateMutability": "nonpayable",
      "type": "function"
    },
    {
      "inputs": [
        {
          "internalType": "address",
          "name": "_address",
          "type": "address"
        }
      ],
      "name": "removeAddress",
      "outputs": [],
      "stateMutability": "nonpayable",
      "type": "function"
    },
    {
      "inputs": [
        {
          "internalType": "address[]",
          "name": "_addresses",
          "type": "address[]"
        }
      ],
      "name": "removeAddresses",
      "outputs": [],
      "stateMutability": "nonpayable",
      "type": "function"
    }
  ],
  "bytecode": "0x608060405234801561001057600080fd5b50600080546001600160a01b0319163317905561066d806100326000396000f3fe608060405234801561001057600080fd5b50600436106100935760003560e01c806379ba50971161006657806379ba5097146101c35780638da5cb5b146101cb578063a84eb999146101ef578063d4ee1d9014610292578063f2fde38b1461029a57610093565b80633628731c1461009857806338eada1c1461013d5780633af32abf146101635780634ba79dfe1461019d575b600080fd5b61013b600480360360208110156100ae57600080fd5b8101906020810181356401000000008111156100c957600080fd5b8201836020820111156100db57600080fd5b803590602001918460208302840111640100000000831117156100fd57600080fd5b9190808060200260200160405190810160405280939291908181526020018383602002808284376000920191909152509295506102c0945050505050565b005b61013b6004803603602081101561015357600080fd5b50356001600160a01b03166102f4565b6101896004803603602081101561017957600080fd5b50356001600160a01b0316610379565b604080519115158252519081900360200190f35b61013b600480360360208110156101b357600080fd5b50356001600160a01b0316610397565b61013b61040e565b6101d36104c5565b604080516001600160a01b039092168252519081900360200190f35b61013b6004803603602081101561020557600080fd5b81019060208101813564010000000081111561022057600080fd5b82018360208201111561023257600080fd5b8035906020019184602083028401116401000000008311171561025457600080fd5b9190808060200260200160405190810160405280939291908181526020018383602002808284376000920191909152509295506104d4945050505050565b6101d3610504565b61013b600480360360208110156102b057600080fd5b50356001600160a01b0316610513565b60005b81518110156102f0576102e88282815181106102db57fe5b60200260200101516102f4565b6001016102c3565b5050565b6102fc610591565b80610306816105e6565b6001600160a01b03821660009081526002602052604090205460ff161561032c576102f0565b6001600160a01b038216600081815260026020526040808220805460ff19166001179055517f2c51f80053e9ee7518567e43b2f8e8b48f50cf10daede6d11893df9ad49e4a8a9190a25050565b6001600160a01b031660009081526002602052604090205460ff1690565b61039f610591565b6001600160a01b03811660009081526002602052604090205460ff166103c45761040b565b6001600160a01b038116600081815260026020526040808220805460ff19169055517f7ec2df28665f8610f9b1d2f74faae35dbc6bd58684a1194a6dfc31584953f03b9190a25b50565b6001546001600160a01b03163314610461576040805162461bcd60e51b815260206004820152601160248201527011549497d050d0d154d4d7d11153925151607a1b604482015290519081900360640190fd5b600154600080546040516001600160a01b0393841693909116917f343765429aea5a34b3ff6a3785a98a5abb2597aca87bfbb58632c173d585373a91a360018054600080546001600160a01b03199081166001600160a01b03841617909155169055565b6000546001600160a01b031681565b60005b81518110156102f0576104fc8282815181106104ef57fe5b6020026020010151610397565b6001016104d7565b6001546001600160a01b031681565b61051b610591565b6000546001600160a01b038281169116141561056f576040805162461bcd60e51b815260206004820152600e60248201526d22a9292fa9a0a6a2afa7aba722a960911b604482015290519081900360640190fd5b600180546001600160a01b0319166001600160a01b0392909216919091179055565b6000546001600160a01b031633146105e4576040805162461bcd60e51b815260206004820152601160248201527011549497d050d0d154d4d7d11153925151607a1b604482015290519081900360640190fd5b565b6001600160a01b03811661040b576040805162461bcd60e51b81526020600482015260136024820152724552525f494e56414c49445f4144445245535360681b604482015290519081900360640190fdfea2646970667358221220dd72d6ad97624d8ab2d870bdff5482198fdc86750fddaea5f4fc98b1b10a6cc364736f6c634300060c0033",
  "immutableReferences": {},
  "source": "// SPDX-License-Identifier: SEE LICENSE IN LICENSE\npragma solidity 0.6.12;\nimport \"./Owned.sol\";\nimport \"./Utils.sol\";\nimport \"./interfaces/IWhitelist.sol\";\n\n/**\n * @dev This contract manages a list of whitelisted addresses.\n */\ncontract Whitelist is IWhitelist, Owned, Utils {\n    mapping(address => bool) private whitelist;\n\n    /**\n     * @dev triggered when an address is added to the whitelist\n     *\n     * @param _address address that's added from the whitelist\n     */\n    event AddressAddition(address indexed _address);\n\n    /**\n     * @dev triggered when an address is removed from the whitelist\n     *\n     * @param _address address that's removed from the whitelist\n     */\n    event AddressRemoval(address indexed _address);\n\n    /**\n     * @dev returns true if a given address is whitelisted, false if not\n     *\n     * @param _address address to check\n     *\n     * @return true if the address is whitelisted, false if not\n     */\n    function isWhitelisted(address _address) public view override returns (bool) {\n        return whitelist[_address];\n    }\n\n    /**\n     * @dev adds a given address to the whitelist\n     *\n     * @param _address address to add\n     */\n    function addAddress(address _address) public ownerOnly validAddress(_address) {\n        if (whitelist[_address])\n            // checks if the address is already whitelisted\n            return;\n\n        whitelist[_address] = true;\n        emit AddressAddition(_address);\n    }\n\n    /**\n     * @dev adds a list of addresses to the whitelist\n     *\n     * @param _addresses addresses to add\n     */\n    function addAddresses(address[] memory _addresses) public {\n        for (uint256 i = 0; i < _addresses.length; i++) {\n            addAddress(_addresses[i]);\n        }\n    }\n\n    /**\n     * @dev removes a given address from the whitelist\n     *\n     * @param _address address to remove\n     */\n    function removeAddress(address _address) public ownerOnly {\n        if (!whitelist[_address])\n            // checks if the address is actually whitelisted\n            return;\n\n        whitelist[_address] = false;\n        emit AddressRemoval(_address);\n    }\n\n    /**\n     * @dev removes a list of addresses from the whitelist\n     *\n     * @param _addresses addresses to remove\n     */\n    function removeAddresses(address[] memory _addresses) public {\n        for (uint256 i = 0; i < _addresses.length; i++) {\n            removeAddress(_addresses[i]);\n        }\n    }\n}\n",
  "sourcePath": "/Users/dennismacpro/Projects/Defi/Ethereum-Solidity-Collection/icarus-protocol/defi-seeder/.tmp/bancor/contracts-solidity/solidity/contracts/utility/Whitelist.sol",
  "compiler": {
    "name": "solc",
    "version": "0.6.12+commit.27d51765.Emscripten.clang"
  },
  "schemaVersion": "3.3.3",
  "updatedAt": "2021-04-01T18:17:52.187Z",
  "devdoc": {
    "details": "This contract manages a list of whitelisted addresses.",
    "events": {
      "AddressAddition(address)": {
        "details": "triggered when an address is added to the whitelist",
        "params": {
          "_address": "address that's added from the whitelist"
        }
      },
      "AddressRemoval(address)": {
        "details": "triggered when an address is removed from the whitelist",
        "params": {
          "_address": "address that's removed from the whitelist"
        }
      }
    },
    "kind": "dev",
    "methods": {
      "acceptOwnership()": {
        "details": "used by a new owner to accept an ownership transfer"
      },
      "addAddress(address)": {
        "details": "adds a given address to the whitelist",
        "params": {
          "_address": "address to add"
        }
      },
      "addAddresses(address[])": {
        "details": "adds a list of addresses to the whitelist",
        "params": {
          "_addresses": "addresses to add"
        }
      },
      "isWhitelisted(address)": {
        "details": "returns true if a given address is whitelisted, false if not",
        "params": {
          "_address": "address to check"
        },
        "returns": {
          "_0": "true if the address is whitelisted, false if not"
        }
      },
      "removeAddress(address)": {
        "details": "removes a given address from the whitelist",
        "params": {
          "_address": "address to remove"
        }
      },
      "removeAddresses(address[])": {
        "details": "removes a list of addresses from the whitelist",
        "params": {
          "_addresses": "addresses to remove"
        }
      },
      "transferOwnership(address)": {
        "details": "allows transferring the contract ownership the new owner still needs to accept the transfer can only be called by the contract owner",
        "params": {
          "_newOwner": "new contract owner"
        }
      }
    },
    "version": 1
  },
  "userdoc": {
    "kind": "user",
    "methods": {},
    "version": 1
  }
}