{
  "contractName": "XTransferRerouter",
  "abi": [
    {
      "inputs": [
        {
          "internalType": "bool",
          "name": "_reroutingEnabled",
          "type": "bool"
        }
      ],
      "stateMutability": "nonpayable",
      "type": "constructor"
    },
    {
      "anonymous": false,
      "inputs": [
        {
          "indexed": true,
          "internalType": "address",
          "name": "_prevOwner",
          "type": "address"
        },
        {
          "indexed": true,
          "internalType": "address",
          "name": "_newOwner",
          "type": "address"
        }
      ],
      "name": "OwnerUpdate",
      "type": "event"
    },
    {
      "anonymous": false,
      "inputs": [
        {
          "indexed": true,
          "internalType": "uint256",
          "name": "_txId",
          "type": "uint256"
        },
        {
          "indexed": false,
          "internalType": "bytes32",
          "name": "_toBlockchain",
          "type": "bytes32"
        },
        {
          "indexed": false,
          "internalType": "bytes32",
          "name": "_to",
          "type": "bytes32"
        }
      ],
      "name": "TxReroute",
      "type": "event"
    },
    {
      "inputs": [],
      "name": "acceptOwnership",
      "outputs": [],
      "stateMutability": "nonpayable",
      "type": "function"
    },
    {
      "inputs": [],
      "name": "newOwner",
      "outputs": [
        {
          "internalType": "address",
          "name": "",
          "type": "address"
        }
      ],
      "stateMutability": "view",
      "type": "function"
    },
    {
      "inputs": [],
      "name": "owner",
      "outputs": [
        {
          "internalType": "address",
          "name": "",
          "type": "address"
        }
      ],
      "stateMutability": "view",
      "type": "function"
    },
    {
      "inputs": [],
      "name": "reroutingEnabled",
      "outputs": [
        {
          "internalType": "bool",
          "name": "",
          "type": "bool"
        }
      ],
      "stateMutability": "view",
      "type": "function"
    },
    {
      "inputs": [
        {
          "internalType": "address",
          "name": "_newOwner",
          "type": "address"
        }
      ],
      "name": "transferOwnership",
      "outputs": [],
      "stateMutability": "nonpayable",
      "type": "function"
    },
    {
      "inputs": [
        {
          "internalType": "bool",
          "name": "_enable",
          "type": "bool"
        }
      ],
      "name": "enableRerouting",
      "outputs": [],
      "stateMutability": "nonpayable",
      "type": "function"
    },
    {
      "inputs": [
        {
          "internalType": "uint256",
          "name": "_txId",
          "type": "uint256"
        },
        {
          "internalType": "bytes32",
          "name": "_blockchain",
          "type": "bytes32"
        },
        {
          "internalType": "bytes32",
          "name": "_to",
          "type": "bytes32"
        }
      ],
      "name": "rerouteTx",
      "outputs": [],
      "stateMutability": "nonpayable",
      "type": "function"
    }
  ],
  "bytecode": "0x608060405234801561001057600080fd5b5060405161045c38038061045c8339818101604052602081101561003357600080fd5b5051600080546001600160a01b0319163317905560018054911515600160a01b0260ff60a01b199092169190911790556103ea806100726000396000f3fe608060405234801561001057600080fd5b506004361061007d5760003560e01c8063d4ee1d901161005b578063d4ee1d90146100cf578063e3db16f7146100d7578063edd63c3514610100578063f2fde38b1461011c5761007d565b806379ba5097146100825780638da5cb5b1461008c578063a3ebe71c146100b0575b600080fd5b61008a610142565b005b6100946101f9565b604080516001600160a01b039092168252519081900360200190f35b61008a600480360360208110156100c657600080fd5b50351515610208565b61009461022e565b61008a600480360360608110156100ed57600080fd5b508035906020810135906040013561023d565b610108610284565b604080519115158252519081900360200190f35b61008a6004803603602081101561013257600080fd5b50356001600160a01b0316610294565b6001546001600160a01b03163314610195576040805162461bcd60e51b815260206004820152601160248201527011549497d050d0d154d4d7d11153925151607a1b604482015290519081900360640190fd5b600154600080546040516001600160a01b0393841693909116917f343765429aea5a34b3ff6a3785a98a5abb2597aca87bfbb58632c173d585373a91a360018054600080546001600160a01b03199081166001600160a01b03841617909155169055565b6000546001600160a01b031681565b610210610312565b60018054911515600160a01b0260ff60a01b19909216919091179055565b6001546001600160a01b031681565b610245610367565b6040805183815260208101839052815185927fb5c80f971fb729e469ffa874c60425659ce82cb4adcfba9731af35ef87b6e619928290030190a2505050565b600154600160a01b900460ff1681565b61029c610312565b6000546001600160a01b03828116911614156102f0576040805162461bcd60e51b815260206004820152600e60248201526d22a9292fa9a0a6a2afa7aba722a960911b604482015290519081900360640190fd5b600180546001600160a01b0319166001600160a01b0392909216919091179055565b6000546001600160a01b03163314610365576040805162461bcd60e51b815260206004820152601160248201527011549497d050d0d154d4d7d11153925151607a1b604482015290519081900360640190fd5b565b600154600160a01b900460ff16610365576040805162461bcd60e51b815260206004820152600c60248201526b11549497d11254d05093115160a21b604482015290519081900360640190fdfea26469706673582212203089fa7476dd8f200e7ed62296f3855ea8b6a5f4095b266bdc491ddac8daffbc64736f6c634300060c0033",
  "immutableReferences": {},
  "source": "// SPDX-License-Identifier: SEE LICENSE IN LICENSE\npragma solidity 0.6.12;\nimport \"../utility/Owned.sol\";\n\ncontract XTransferRerouter is Owned {\n    bool public reroutingEnabled;\n\n    // triggered when a rerouteTx is called\n    event TxReroute(uint256 indexed _txId, bytes32 _toBlockchain, bytes32 _to);\n\n    /**\n     * @dev initializes a new XTransferRerouter instance\n     *\n     * @param _reroutingEnabled    intializes transactions routing to enabled/disabled\n     */\n    constructor(bool _reroutingEnabled) public {\n        reroutingEnabled = _reroutingEnabled;\n    }\n\n    /**\n     * @dev allows the owner to disable/enable rerouting\n     *\n     * @param _enable     true to enable, false to disable\n     */\n    function enableRerouting(bool _enable) public ownerOnly {\n        reroutingEnabled = _enable;\n    }\n\n    // allows execution only when rerouting enabled\n    modifier reroutingAllowed {\n        _reroutingAllowed();\n        _;\n    }\n\n    // error message binary size optimization\n    function _reroutingAllowed() internal view {\n        require(reroutingEnabled, \"ERR_DISABLED\");\n    }\n\n    /**\n     * @dev    allows a user to reroute a transaction to a new blockchain/target address\n     *\n     * @param _txId        the original transaction id\n     * @param _blockchain  the new blockchain name\n     * @param _to          the new target address/account\n     */\n    function rerouteTx(\n        uint256 _txId,\n        bytes32 _blockchain,\n        bytes32 _to\n    ) public reroutingAllowed {\n        emit TxReroute(_txId, _blockchain, _to);\n    }\n}\n",
  "sourcePath": "/Users/dennismacpro/Projects/Defi/Ethereum-Solidity-Collection/icarus-protocol/defi-seeder/.tmp/bancor/contracts-solidity/solidity/contracts/bancorx/XTransferRerouter.sol",
  "compiler": {
    "name": "solc",
    "version": "0.6.12+commit.27d51765.Emscripten.clang"
  },
  "schemaVersion": "3.3.3",
  "updatedAt": "2021-04-01T18:17:51.854Z",
  "devdoc": {
    "kind": "dev",
    "methods": {
      "acceptOwnership()": {
        "details": "used by a new owner to accept an ownership transfer"
      },
      "constructor": {
        "details": "initializes a new XTransferRerouter instance",
        "params": {
          "_reroutingEnabled": "intializes transactions routing to enabled/disabled"
        }
      },
      "enableRerouting(bool)": {
        "details": "allows the owner to disable/enable rerouting",
        "params": {
          "_enable": "true to enable, false to disable"
        }
      },
      "rerouteTx(uint256,bytes32,bytes32)": {
        "details": "allows a user to reroute a transaction to a new blockchain/target address",
        "params": {
          "_blockchain": "the new blockchain name",
          "_to": "the new target address/account",
          "_txId": "the original transaction id"
        }
      },
      "transferOwnership(address)": {
        "details": "allows transferring the contract ownership the new owner still needs to accept the transfer can only be called by the contract owner",
        "params": {
          "_newOwner": "new contract owner"
        }
      }
    },
    "version": 1
  },
  "userdoc": {
    "kind": "user",
    "methods": {},
    "version": 1
  }
}