{
  "_format": "hh-sol-artifact-1",
  "contractName": "UsingReadProxy",
  "sourceName": "contracts/test-helpers/UsingReadProxy.sol",
  "abi": [
    {
      "inputs": [
        {
          "internalType": "contract IAddressResolver",
          "name": "_resolver",
          "type": "address"
        }
      ],
      "payable": false,
      "stateMutability": "nonpayable",
      "type": "constructor"
    },
    {
      "constant": true,
      "inputs": [],
      "name": "resolver",
      "outputs": [
        {
          "internalType": "contract IAddressResolver",
          "name": "",
          "type": "address"
        }
      ],
      "payable": false,
      "stateMutability": "view",
      "type": "function"
    },
    {
      "constant": true,
      "inputs": [
        {
          "internalType": "bytes32",
          "name": "currencyKey",
          "type": "bytes32"
        }
      ],
      "name": "run",
      "outputs": [
        {
          "internalType": "uint256",
          "name": "",
          "type": "uint256"
        }
      ],
      "payable": false,
      "stateMutability": "view",
      "type": "function"
    }
  ],
  "bytecode": "0x608060405234801561001057600080fd5b506040516103be3803806103be8339818101604052602081101561003357600080fd5b8101908080519060200190929190505050806000806101000a81548173ffffffffffffffffffffffffffffffffffffffff021916908373ffffffffffffffffffffffffffffffffffffffff1602179055505061032a806100946000396000f3fe608060405234801561001057600080fd5b50600436106100365760003560e01c806304f3bcec1461003b578063ef6ac0f014610085575b600080fd5b6100436100c7565b604051808273ffffffffffffffffffffffffffffffffffffffff1673ffffffffffffffffffffffffffffffffffffffff16815260200191505060405180910390f35b6100b16004803603602081101561009b57600080fd5b81019080803590602001909291905050506100ec565b6040518082815260200191505060405180910390f35b6000809054906101000a900473ffffffffffffffffffffffffffffffffffffffff1681565b6000806000809054906101000a900473ffffffffffffffffffffffffffffffffffffffff1673ffffffffffffffffffffffffffffffffffffffff166321f8a7216040518163ffffffff1660e01b815260040180807f45786368616e6765526174657300000000000000000000000000000000000000815250602001905060206040518083038186803b15801561018157600080fd5b505afa158015610195573d6000803e3d6000fd5b505050506040513d60208110156101ab57600080fd5b81019080805190602001909291905050509050600073ffffffffffffffffffffffffffffffffffffffff168173ffffffffffffffffffffffffffffffffffffffff161415610261576040517f08c379a00000000000000000000000000000000000000000000000000000000081526004018080602001828103825260158152602001807f4d697373696e672045786368616e67655261746573000000000000000000000081525060200191505060405180910390fd5b8073ffffffffffffffffffffffffffffffffffffffff1663ac82f608846040518263ffffffff1660e01b81526004018082815260200191505060206040518083038186803b1580156102b257600080fd5b505afa1580156102c6573d6000803e3d6000fd5b505050506040513d60208110156102dc57600080fd5b810190808051906020019092919050505091505091905056fea265627a7a7231582020692cb35686c5e46daa2ae472391e6ec64f172ff339aa07955ad8578ddb914f64736f6c63430005100032",
  "linkReferences": {},
  "deployedLinkReferences": {}
}