{
  "_format": "hh-sol-artifact-1",
  "contractName": "CollateralEth",
  "sourceName": "contracts/CollateralEth.sol",
  "abi": [
    {
      "inputs": [
        {
          "internalType": "contract CollateralState",
          "name": "_state",
          "type": "address"
        },
        {
          "internalType": "address",
          "name": "_owner",
          "type": "address"
        },
        {
          "internalType": "address",
          "name": "_manager",
          "type": "address"
        },
        {
          "internalType": "address",
          "name": "_resolver",
          "type": "address"
        },
        {
          "internalType": "bytes32",
          "name": "_collateralKey",
          "type": "bytes32"
        },
        {
          "internalType": "uint256",
          "name": "_minCratio",
          "type": "uint256"
        },
        {
          "internalType": "uint256",
          "name": "_minCollateral",
          "type": "uint256"
        }
      ],
      "payable": false,
      "stateMutability": "nonpayable",
      "type": "constructor"
    },
    {
      "anonymous": false,
      "inputs": [
        {
          "indexed": false,
          "internalType": "bytes32",
          "name": "name",
          "type": "bytes32"
        },
        {
          "indexed": false,
          "internalType": "address",
          "name": "destination",
          "type": "address"
        }
      ],
      "name": "CacheUpdated",
      "type": "event"
    },
    {
      "anonymous": false,
      "inputs": [
        {
          "indexed": false,
          "internalType": "bool",
          "name": "canOpenLoans",
          "type": "bool"
        }
      ],
      "name": "CanOpenLoansUpdated",
      "type": "event"
    },
    {
      "anonymous": false,
      "inputs": [
        {
          "indexed": true,
          "internalType": "address",
          "name": "account",
          "type": "address"
        },
        {
          "indexed": false,
          "internalType": "uint256",
          "name": "id",
          "type": "uint256"
        },
        {
          "indexed": false,
          "internalType": "uint256",
          "name": "amountDeposited",
          "type": "uint256"
        },
        {
          "indexed": false,
          "internalType": "uint256",
          "name": "collateralAfter",
          "type": "uint256"
        }
      ],
      "name": "CollateralDeposited",
      "type": "event"
    },
    {
      "anonymous": false,
      "inputs": [
        {
          "indexed": true,
          "internalType": "address",
          "name": "account",
          "type": "address"
        },
        {
          "indexed": false,
          "internalType": "uint256",
          "name": "id",
          "type": "uint256"
        },
        {
          "indexed": false,
          "internalType": "uint256",
          "name": "amountWithdrawn",
          "type": "uint256"
        },
        {
          "indexed": false,
          "internalType": "uint256",
          "name": "collateralAfter",
          "type": "uint256"
        }
      ],
      "name": "CollateralWithdrawn",
      "type": "event"
    },
    {
      "anonymous": false,
      "inputs": [
        {
          "indexed": false,
          "internalType": "uint256",
          "name": "interactionDelay",
          "type": "uint256"
        }
      ],
      "name": "InteractionDelayUpdated",
      "type": "event"
    },
    {
      "anonymous": false,
      "inputs": [
        {
          "indexed": false,
          "internalType": "uint256",
          "name": "issueFeeRate",
          "type": "uint256"
        }
      ],
      "name": "IssueFeeRateUpdated",
      "type": "event"
    },
    {
      "anonymous": false,
      "inputs": [
        {
          "indexed": true,
          "internalType": "address",
          "name": "account",
          "type": "address"
        },
        {
          "indexed": false,
          "internalType": "uint256",
          "name": "id",
          "type": "uint256"
        }
      ],
      "name": "LoanClosed",
      "type": "event"
    },
    {
      "anonymous": false,
      "inputs": [
        {
          "indexed": true,
          "internalType": "address",
          "name": "account",
          "type": "address"
        },
        {
          "indexed": false,
          "internalType": "uint256",
          "name": "id",
          "type": "uint256"
        },
        {
          "indexed": true,
          "internalType": "address",
          "name": "liquidator",
          "type": "address"
        },
        {
          "indexed": false,
          "internalType": "uint256",
          "name": "amountLiquidated",
          "type": "uint256"
        },
        {
          "indexed": false,
          "internalType": "uint256",
          "name": "collateralLiquidated",
          "type": "uint256"
        }
      ],
      "name": "LoanClosedByLiquidation",
      "type": "event"
    },
    {
      "anonymous": false,
      "inputs": [
        {
          "indexed": true,
          "internalType": "address",
          "name": "account",
          "type": "address"
        },
        {
          "indexed": false,
          "internalType": "uint256",
          "name": "id",
          "type": "uint256"
        },
        {
          "indexed": false,
          "internalType": "uint256",
          "name": "amount",
          "type": "uint256"
        },
        {
          "indexed": false,
          "internalType": "uint256",
          "name": "collateral",
          "type": "uint256"
        },
        {
          "indexed": false,
          "internalType": "bytes32",
          "name": "currency",
          "type": "bytes32"
        },
        {
          "indexed": false,
          "internalType": "uint256",
          "name": "issuanceFee",
          "type": "uint256"
        }
      ],
      "name": "LoanCreated",
      "type": "event"
    },
    {
      "anonymous": false,
      "inputs": [
        {
          "indexed": true,
          "internalType": "address",
          "name": "account",
          "type": "address"
        },
        {
          "indexed": false,
          "internalType": "uint256",
          "name": "id",
          "type": "uint256"
        },
        {
          "indexed": false,
          "internalType": "uint256",
          "name": "amount",
          "type": "uint256"
        }
      ],
      "name": "LoanDrawnDown",
      "type": "event"
    },
    {
      "anonymous": false,
      "inputs": [
        {
          "indexed": true,
          "internalType": "address",
          "name": "account",
          "type": "address"
        },
        {
          "indexed": false,
          "internalType": "uint256",
          "name": "id",
          "type": "uint256"
        },
        {
          "indexed": false,
          "internalType": "address",
          "name": "liquidator",
          "type": "address"
        },
        {
          "indexed": false,
          "internalType": "uint256",
          "name": "amountLiquidated",
          "type": "uint256"
        },
        {
          "indexed": false,
          "internalType": "uint256",
          "name": "collateralLiquidated",
          "type": "uint256"
        }
      ],
      "name": "LoanPartiallyLiquidated",
      "type": "event"
    },
    {
      "anonymous": false,
      "inputs": [
        {
          "indexed": true,
          "internalType": "address",
          "name": "account",
          "type": "address"
        },
        {
          "indexed": true,
          "internalType": "address",
          "name": "repayer",
          "type": "address"
        },
        {
          "indexed": false,
          "internalType": "uint256",
          "name": "id",
          "type": "uint256"
        },
        {
          "indexed": false,
          "internalType": "uint256",
          "name": "amountRepaid",
          "type": "uint256"
        },
        {
          "indexed": false,
          "internalType": "uint256",
          "name": "amountAfter",
          "type": "uint256"
        }
      ],
      "name": "LoanRepaymentMade",
      "type": "event"
    },
    {
      "anonymous": false,
      "inputs": [
        {
          "indexed": false,
          "internalType": "address",
          "name": "manager",
          "type": "address"
        }
      ],
      "name": "ManagerUpdated",
      "type": "event"
    },
    {
      "anonymous": false,
      "inputs": [
        {
          "indexed": false,
          "internalType": "uint256",
          "name": "maxLoansPerAccount",
          "type": "uint256"
        }
      ],
      "name": "MaxLoansPerAccountUpdated",
      "type": "event"
    },
    {
      "anonymous": false,
      "inputs": [
        {
          "indexed": false,
          "internalType": "uint256",
          "name": "minCollateral",
          "type": "uint256"
        }
      ],
      "name": "MinCollateralUpdated",
      "type": "event"
    },
    {
      "anonymous": false,
      "inputs": [
        {
          "indexed": false,
          "internalType": "uint256",
          "name": "minCratio",
          "type": "uint256"
        }
      ],
      "name": "MinCratioRatioUpdated",
      "type": "event"
    },
    {
      "anonymous": false,
      "inputs": [
        {
          "indexed": false,
          "internalType": "address",
          "name": "oldOwner",
          "type": "address"
        },
        {
          "indexed": false,
          "internalType": "address",
          "name": "newOwner",
          "type": "address"
        }
      ],
      "name": "OwnerChanged",
      "type": "event"
    },
    {
      "anonymous": false,
      "inputs": [
        {
          "indexed": false,
          "internalType": "address",
          "name": "newOwner",
          "type": "address"
        }
      ],
      "name": "OwnerNominated",
      "type": "event"
    },
    {
      "constant": false,
      "inputs": [],
      "name": "acceptOwnership",
      "outputs": [],
      "payable": false,
      "stateMutability": "nonpayable",
      "type": "function"
    },
    {
      "constant": false,
      "inputs": [
        {
          "internalType": "address",
          "name": "rewardsContract",
          "type": "address"
        },
        {
          "internalType": "bytes32",
          "name": "synth",
          "type": "bytes32"
        }
      ],
      "name": "addRewardsContracts",
      "outputs": [],
      "payable": false,
      "stateMutability": "nonpayable",
      "type": "function"
    },
    {
      "constant": false,
      "inputs": [
        {
          "internalType": "bytes32[]",
          "name": "_synthNamesInResolver",
          "type": "bytes32[]"
        },
        {
          "internalType": "bytes32[]",
          "name": "_synthKeys",
          "type": "bytes32[]"
        }
      ],
      "name": "addSynths",
      "outputs": [],
      "payable": false,
      "stateMutability": "nonpayable",
      "type": "function"
    },
    {
      "constant": true,
      "inputs": [
        {
          "internalType": "bytes32[]",
          "name": "_synthNamesInResolver",
          "type": "bytes32[]"
        },
        {
          "internalType": "bytes32[]",
          "name": "_synthKeys",
          "type": "bytes32[]"
        }
      ],
      "name": "areSynthsAndCurrenciesSet",
      "outputs": [
        {
          "internalType": "bool",
          "name": "",
          "type": "bool"
        }
      ],
      "payable": false,
      "stateMutability": "view",
      "type": "function"
    },
    {
      "constant": true,
      "inputs": [],
      "name": "canOpenLoans",
      "outputs": [
        {
          "internalType": "bool",
          "name": "",
          "type": "bool"
        }
      ],
      "payable": false,
      "stateMutability": "view",
      "type": "function"
    },
    {
      "constant": false,
      "inputs": [
        {
          "internalType": "uint256",
          "name": "amount",
          "type": "uint256"
        }
      ],
      "name": "claim",
      "outputs": [],
      "payable": false,
      "stateMutability": "nonpayable",
      "type": "function"
    },
    {
      "constant": false,
      "inputs": [
        {
          "internalType": "uint256",
          "name": "id",
          "type": "uint256"
        }
      ],
      "name": "close",
      "outputs": [],
      "payable": false,
      "stateMutability": "nonpayable",
      "type": "function"
    },
    {
      "constant": true,
      "inputs": [],
      "name": "collateralKey",
      "outputs": [
        {
          "internalType": "bytes32",
          "name": "",
          "type": "bytes32"
        }
      ],
      "payable": false,
      "stateMutability": "view",
      "type": "function"
    },
    {
      "constant": true,
      "inputs": [
        {
          "components": [
            {
              "internalType": "uint256",
              "name": "id",
              "type": "uint256"
            },
            {
              "internalType": "address payable",
              "name": "account",
              "type": "address"
            },
            {
              "internalType": "uint256",
              "name": "collateral",
              "type": "uint256"
            },
            {
              "internalType": "bytes32",
              "name": "currency",
              "type": "bytes32"
            },
            {
              "internalType": "uint256",
              "name": "amount",
              "type": "uint256"
            },
            {
              "internalType": "bool",
              "name": "short",
              "type": "bool"
            },
            {
              "internalType": "uint256",
              "name": "accruedInterest",
              "type": "uint256"
            },
            {
              "internalType": "uint256",
              "name": "interestIndex",
              "type": "uint256"
            },
            {
              "internalType": "uint256",
              "name": "lastInteraction",
              "type": "uint256"
            }
          ],
          "internalType": "struct ICollateralLoan.Loan",
          "name": "loan",
          "type": "tuple"
        }
      ],
      "name": "collateralRatio",
      "outputs": [
        {
          "internalType": "uint256",
          "name": "cratio",
          "type": "uint256"
        }
      ],
      "payable": false,
      "stateMutability": "view",
      "type": "function"
    },
    {
      "constant": true,
      "inputs": [
        {
          "internalType": "bytes32",
          "name": "currency",
          "type": "bytes32"
        },
        {
          "internalType": "uint256",
          "name": "amount",
          "type": "uint256"
        }
      ],
      "name": "collateralRedeemed",
      "outputs": [
        {
          "internalType": "uint256",
          "name": "collateral",
          "type": "uint256"
        }
      ],
      "payable": false,
      "stateMutability": "view",
      "type": "function"
    },
    {
      "constant": false,
      "inputs": [
        {
          "internalType": "address",
          "name": "borrower",
          "type": "address"
        },
        {
          "internalType": "uint256",
          "name": "id",
          "type": "uint256"
        }
      ],
      "name": "deposit",
      "outputs": [],
      "payable": true,
      "stateMutability": "payable",
      "type": "function"
    },
    {
      "constant": false,
      "inputs": [
        {
          "internalType": "uint256",
          "name": "id",
          "type": "uint256"
        },
        {
          "internalType": "uint256",
          "name": "amount",
          "type": "uint256"
        }
      ],
      "name": "draw",
      "outputs": [],
      "payable": false,
      "stateMutability": "nonpayable",
      "type": "function"
    },
    {
      "constant": true,
      "inputs": [],
      "name": "interactionDelay",
      "outputs": [
        {
          "internalType": "uint256",
          "name": "",
          "type": "uint256"
        }
      ],
      "payable": false,
      "stateMutability": "view",
      "type": "function"
    },
    {
      "constant": true,
      "inputs": [],
      "name": "isResolverCached",
      "outputs": [
        {
          "internalType": "bool",
          "name": "",
          "type": "bool"
        }
      ],
      "payable": false,
      "stateMutability": "view",
      "type": "function"
    },
    {
      "constant": true,
      "inputs": [],
      "name": "issueFeeRate",
      "outputs": [
        {
          "internalType": "uint256",
          "name": "",
          "type": "uint256"
        }
      ],
      "payable": false,
      "stateMutability": "view",
      "type": "function"
    },
    {
      "constant": false,
      "inputs": [
        {
          "internalType": "address",
          "name": "borrower",
          "type": "address"
        },
        {
          "internalType": "uint256",
          "name": "id",
          "type": "uint256"
        },
        {
          "internalType": "uint256",
          "name": "amount",
          "type": "uint256"
        }
      ],
      "name": "liquidate",
      "outputs": [],
      "payable": false,
      "stateMutability": "nonpayable",
      "type": "function"
    },
    {
      "constant": true,
      "inputs": [
        {
          "components": [
            {
              "internalType": "uint256",
              "name": "id",
              "type": "uint256"
            },
            {
              "internalType": "address payable",
              "name": "account",
              "type": "address"
            },
            {
              "internalType": "uint256",
              "name": "collateral",
              "type": "uint256"
            },
            {
              "internalType": "bytes32",
              "name": "currency",
              "type": "bytes32"
            },
            {
              "internalType": "uint256",
              "name": "amount",
              "type": "uint256"
            },
            {
              "internalType": "bool",
              "name": "short",
              "type": "bool"
            },
            {
              "internalType": "uint256",
              "name": "accruedInterest",
              "type": "uint256"
            },
            {
              "internalType": "uint256",
              "name": "interestIndex",
              "type": "uint256"
            },
            {
              "internalType": "uint256",
              "name": "lastInteraction",
              "type": "uint256"
            }
          ],
          "internalType": "struct ICollateralLoan.Loan",
          "name": "loan",
          "type": "tuple"
        }
      ],
      "name": "liquidationAmount",
      "outputs": [
        {
          "internalType": "uint256",
          "name": "amount",
          "type": "uint256"
        }
      ],
      "payable": false,
      "stateMutability": "view",
      "type": "function"
    },
    {
      "constant": true,
      "inputs": [],
      "name": "manager",
      "outputs": [
        {
          "internalType": "address",
          "name": "",
          "type": "address"
        }
      ],
      "payable": false,
      "stateMutability": "view",
      "type": "function"
    },
    {
      "constant": true,
      "inputs": [
        {
          "internalType": "uint256",
          "name": "amount",
          "type": "uint256"
        },
        {
          "internalType": "bytes32",
          "name": "currency",
          "type": "bytes32"
        }
      ],
      "name": "maxLoan",
      "outputs": [
        {
          "internalType": "uint256",
          "name": "max",
          "type": "uint256"
        }
      ],
      "payable": false,
      "stateMutability": "view",
      "type": "function"
    },
    {
      "constant": true,
      "inputs": [],
      "name": "maxLoansPerAccount",
      "outputs": [
        {
          "internalType": "uint256",
          "name": "",
          "type": "uint256"
        }
      ],
      "payable": false,
      "stateMutability": "view",
      "type": "function"
    },
    {
      "constant": true,
      "inputs": [],
      "name": "minCollateral",
      "outputs": [
        {
          "internalType": "uint256",
          "name": "",
          "type": "uint256"
        }
      ],
      "payable": false,
      "stateMutability": "view",
      "type": "function"
    },
    {
      "constant": true,
      "inputs": [],
      "name": "minCratio",
      "outputs": [
        {
          "internalType": "uint256",
          "name": "",
          "type": "uint256"
        }
      ],
      "payable": false,
      "stateMutability": "view",
      "type": "function"
    },
    {
      "constant": false,
      "inputs": [
        {
          "internalType": "address",
          "name": "_owner",
          "type": "address"
        }
      ],
      "name": "nominateNewOwner",
      "outputs": [],
      "payable": false,
      "stateMutability": "nonpayable",
      "type": "function"
    },
    {
      "constant": true,
      "inputs": [],
      "name": "nominatedOwner",
      "outputs": [
        {
          "internalType": "address",
          "name": "",
          "type": "address"
        }
      ],
      "payable": false,
      "stateMutability": "view",
      "type": "function"
    },
    {
      "constant": false,
      "inputs": [
        {
          "internalType": "uint256",
          "name": "amount",
          "type": "uint256"
        },
        {
          "internalType": "bytes32",
          "name": "currency",
          "type": "bytes32"
        }
      ],
      "name": "open",
      "outputs": [],
      "payable": true,
      "stateMutability": "payable",
      "type": "function"
    },
    {
      "constant": true,
      "inputs": [],
      "name": "owner",
      "outputs": [
        {
          "internalType": "address",
          "name": "",
          "type": "address"
        }
      ],
      "payable": false,
      "stateMutability": "view",
      "type": "function"
    },
    {
      "constant": true,
      "inputs": [
        {
          "internalType": "address",
          "name": "",
          "type": "address"
        }
      ],
      "name": "pendingWithdrawals",
      "outputs": [
        {
          "internalType": "uint256",
          "name": "",
          "type": "uint256"
        }
      ],
      "payable": false,
      "stateMutability": "view",
      "type": "function"
    },
    {
      "constant": false,
      "inputs": [],
      "name": "rebuildCache",
      "outputs": [],
      "payable": false,
      "stateMutability": "nonpayable",
      "type": "function"
    },
    {
      "constant": false,
      "inputs": [
        {
          "internalType": "address",
          "name": "account",
          "type": "address"
        },
        {
          "internalType": "uint256",
          "name": "id",
          "type": "uint256"
        },
        {
          "internalType": "uint256",
          "name": "amount",
          "type": "uint256"
        }
      ],
      "name": "repay",
      "outputs": [],
      "payable": false,
      "stateMutability": "nonpayable",
      "type": "function"
    },
    {
      "constant": true,
      "inputs": [],
      "name": "resolver",
      "outputs": [
        {
          "internalType": "contract AddressResolver",
          "name": "",
          "type": "address"
        }
      ],
      "payable": false,
      "stateMutability": "view",
      "type": "function"
    },
    {
      "constant": true,
      "inputs": [],
      "name": "resolverAddressesRequired",
      "outputs": [
        {
          "internalType": "bytes32[]",
          "name": "addresses",
          "type": "bytes32[]"
        }
      ],
      "payable": false,
      "stateMutability": "view",
      "type": "function"
    },
    {
      "constant": false,
      "inputs": [
        {
          "internalType": "bool",
          "name": "_canOpenLoans",
          "type": "bool"
        }
      ],
      "name": "setCanOpenLoans",
      "outputs": [],
      "payable": false,
      "stateMutability": "nonpayable",
      "type": "function"
    },
    {
      "constant": false,
      "inputs": [
        {
          "internalType": "uint256",
          "name": "_interactionDelay",
          "type": "uint256"
        }
      ],
      "name": "setInteractionDelay",
      "outputs": [],
      "payable": false,
      "stateMutability": "nonpayable",
      "type": "function"
    },
    {
      "constant": false,
      "inputs": [
        {
          "internalType": "uint256",
          "name": "_issueFeeRate",
          "type": "uint256"
        }
      ],
      "name": "setIssueFeeRate",
      "outputs": [],
      "payable": false,
      "stateMutability": "nonpayable",
      "type": "function"
    },
    {
      "constant": false,
      "inputs": [
        {
          "internalType": "address",
          "name": "_newManager",
          "type": "address"
        }
      ],
      "name": "setManager",
      "outputs": [],
      "payable": false,
      "stateMutability": "nonpayable",
      "type": "function"
    },
    {
      "constant": false,
      "inputs": [
        {
          "internalType": "uint256",
          "name": "_minCratio",
          "type": "uint256"
        }
      ],
      "name": "setMinCratio",
      "outputs": [],
      "payable": false,
      "stateMutability": "nonpayable",
      "type": "function"
    },
    {
      "constant": true,
      "inputs": [
        {
          "internalType": "bytes32",
          "name": "",
          "type": "bytes32"
        }
      ],
      "name": "shortingRewards",
      "outputs": [
        {
          "internalType": "address",
          "name": "",
          "type": "address"
        }
      ],
      "payable": false,
      "stateMutability": "view",
      "type": "function"
    },
    {
      "constant": true,
      "inputs": [],
      "name": "state",
      "outputs": [
        {
          "internalType": "contract CollateralState",
          "name": "",
          "type": "address"
        }
      ],
      "payable": false,
      "stateMutability": "view",
      "type": "function"
    },
    {
      "constant": true,
      "inputs": [
        {
          "internalType": "uint256",
          "name": "",
          "type": "uint256"
        }
      ],
      "name": "synths",
      "outputs": [
        {
          "internalType": "bytes32",
          "name": "",
          "type": "bytes32"
        }
      ],
      "payable": false,
      "stateMutability": "view",
      "type": "function"
    },
    {
      "constant": true,
      "inputs": [
        {
          "internalType": "bytes32",
          "name": "",
          "type": "bytes32"
        }
      ],
      "name": "synthsByKey",
      "outputs": [
        {
          "internalType": "bytes32",
          "name": "",
          "type": "bytes32"
        }
      ],
      "payable": false,
      "stateMutability": "view",
      "type": "function"
    },
    {
      "constant": false,
      "inputs": [
        {
          "internalType": "uint256",
          "name": "id",
          "type": "uint256"
        },
        {
          "internalType": "uint256",
          "name": "withdrawAmount",
          "type": "uint256"
        }
      ],
      "name": "withdraw",
      "outputs": [],
      "payable": false,
      "stateMutability": "nonpayable",
      "type": "function"
    }
  ],
  "bytecode": "0x60806040526032600d5561012c600e556001600f60006101000a81548160ff0219169083151502179055503480156200003757600080fd5b50604051620083ef380380620083ef83398181016040526200005d9190810190620002a9565b86868686868686838087600073ffffffffffffffffffffffffffffffffffffffff168173ffffffffffffffffffffffffffffffffffffffff161415620000da576040517f08c379a0000000000000000000000000000000000000000000000000000000008152600401620000d190620003e7565b60405180910390fd5b806000806101000a81548173ffffffffffffffffffffffffffffffffffffffff021916908373ffffffffffffffffffffffffffffffffffffffff1602179055507fb532073b38c83145e3e5135377a08bf9aab55bc0fd7c1179cd4fb995d2a5159c6000826040516200014e929190620003ba565b60405180910390a15080600260006101000a81548173ffffffffffffffffffffffffffffffffffffffff021916908373ffffffffffffffffffffffffffffffffffffffff160217905550505084600660006101000a81548173ffffffffffffffffffffffffffffffffffffffff021916908373ffffffffffffffffffffffffffffffffffffffff16021790555086600560006101000a81548173ffffffffffffffffffffffffffffffffffffffff021916908373ffffffffffffffffffffffffffffffffffffffff1602179055508260048190555081600a8190555080600b81905550505050505050506001601081905550505050505050506200051a565b6000815190506200025e81620004b2565b92915050565b6000815190506200027581620004cc565b92915050565b6000815190506200028c81620004e6565b92915050565b600081519050620002a38162000500565b92915050565b600080600080600080600060e0888a031215620002c557600080fd5b6000620002d58a828b016200027b565b9750506020620002e88a828b016200024d565b9650506040620002fb8a828b016200024d565b95505060606200030e8a828b016200024d565b9450506080620003218a828b0162000264565b93505060a0620003348a828b0162000292565b92505060c0620003478a828b0162000292565b91505092959891949750929550565b620003618162000476565b82525050565b62000372816200041a565b82525050565b60006200038760198362000409565b91507f4f776e657220616464726573732063616e6e6f742062652030000000000000006000830152602082019050919050565b6000604082019050620003d1600083018562000356565b620003e0602083018462000367565b9392505050565b60006020820190508181036000830152620004028162000378565b9050919050565b600082825260208201905092915050565b600062000427826200044c565b9050919050565b6000819050919050565b600062000445826200041a565b9050919050565b600073ffffffffffffffffffffffffffffffffffffffff82169050919050565b6000819050919050565b600062000483826200048a565b9050919050565b600062000497826200049e565b9050919050565b6000620004ab826200044c565b9050919050565b620004bd816200041a565b8114620004c957600080fd5b50565b620004d7816200042e565b8114620004e357600080fd5b50565b620004f18162000438565b8114620004fd57600080fd5b50565b6200050b816200046c565b81146200051757600080fd5b50565b617ec5806200052a6000396000f3fe6080604052600436106102465760003560e01c80635eb2ad0111610139578063a76cdfa5116100b6578063d2b8035a1161007a578063d2b8035a14610826578063dac8cf681461084f578063de81eda91461088c578063e74337c6146108c9578063eb8e3b6514610906578063f3f437031461093157610246565b8063a76cdfa514610753578063b562a1ab1461077c578063ba2de9bc146107a7578063c19d93fb146107d2578063d0ebdbe7146107fd57610246565b8063899ffef4116100fd578063899ffef4146106805780638cd2e0c7146106ab5780638da5cb5b146106d457806390abb4d9146106ff578063925ead111461072857610246565b80635eb2ad01146105af57806372e18b6a146105d8578063741853601461061557806379ba50971461062c5780637e1323551461064357610246565b806330edd961116101c7578063441a3e701161018b578063441a3e70146104eb57806347e7ef2414610514578063481c6a75146105305780634c17ace41461055b57806353a47bb71461058457610246565b806330edd961146103f2578063361e20861461042f578063379607f51461045a57806338245377146104835780634065b81b146104c057610246565b80630cdd1c651161020e5780630cdd1c651461032157806315aaf4dd1461034a5780631627540c1461037557806323d60e2e1461039e5780632af64bd3146103c757610246565b806304f3bcec1461024b57806306c19e3f146102765780630710285c146102925780630a153c97146102bb5780630aebeb4e146102f8575b600080fd5b34801561025757600080fd5b5061026061096e565b60405161026d91906176d7565b60405180910390f35b610290600480360361028b91908101906168b0565b610994565b005b34801561029e57600080fd5b506102b960048036036102b49190810190616617565b6109a6565b005b3480156102c757600080fd5b506102e260048036036102dd9190810190616792565b610a50565b6040516102ef9190617b0b565b60405180910390f35b34801561030457600080fd5b5061031f600480360361031a9190810190616822565b610b9e565b005b34801561032d57600080fd5b5061034860048036036103439190810190616822565b610c45565b005b34801561035657600080fd5b5061035f610d4d565b60405161036c9190617b0b565b60405180910390f35b34801561038157600080fd5b5061039c6004803603610397919081019061654d565b610d53565b005b3480156103aa57600080fd5b506103c560048036036103c09190810190616666565b610dd6565b005b3480156103d357600080fd5b506103dc610ec1565b6040516103e991906175bf565b60405180910390f35b3480156103fe57600080fd5b5061041960048036036104149190810190616822565b611096565b60405161042691906175da565b60405180910390f35b34801561043b57600080fd5b506104446110b7565b6040516104519190617b0b565b60405180910390f35b34801561046657600080fd5b50610481600480360361047c9190810190616822565b6110bd565b005b34801561048f57600080fd5b506104aa60048036036104a59190810190616769565b61125f565b6040516104b791906175da565b60405180910390f35b3480156104cc57600080fd5b506104d5611277565b6040516104e291906175bf565b60405180910390f35b3480156104f757600080fd5b50610512600480360361050d91908101906168ec565b61128a565b005b61052e600480360361052991908101906165db565b611332565b005b34801561053c57600080fd5b50610545611341565b604051610552919061749a565b60405180910390f35b34801561056757600080fd5b50610582600480360361057d9190810190616822565b611367565b005b34801561059057600080fd5b50610599611474565b6040516105a6919061749a565b60405180910390f35b3480156105bb57600080fd5b506105d660048036036105d1919081019061659f565b61149a565b005b3480156105e457600080fd5b506105ff60048036036105fa9190810190616666565b6114f8565b60405161060c91906175bf565b60405180910390f35b34801561062157600080fd5b5061062a6115cd565b005b34801561063857600080fd5b5061064161176e565b005b34801561064f57600080fd5b5061066a600480360361066591908101906168b0565b611920565b6040516106779190617b0b565b60405180910390f35b34801561068c57600080fd5b506106956119d9565b6040516106a2919061759d565b60405180910390f35b3480156106b757600080fd5b506106d260048036036106cd9190810190616617565b611bad565b005b3480156106e057600080fd5b506106e9611bbe565b6040516106f6919061749a565b60405180910390f35b34801561070b57600080fd5b50610726600480360361072191908101906166db565b611be3565b005b34801561073457600080fd5b5061073d611c4e565b60405161074a9190617b0b565b60405180910390f35b34801561075f57600080fd5b5061077a60048036036107759190810190616822565b611c54565b005b34801561078857600080fd5b50610791611c9f565b60405161079e91906175da565b60405180910390f35b3480156107b357600080fd5b506107bc611ca5565b6040516107c99190617b0b565b60405180910390f35b3480156107de57600080fd5b506107e7611cab565b6040516107f491906176f2565b60405180910390f35b34801561080957600080fd5b50610824600480360361081f919081019061654d565b611cd1565b005b34801561083257600080fd5b5061084d600480360361084891908101906168ec565b611d76565b005b34801561085b57600080fd5b50610876600480360361087191908101906167ce565b611d84565b6040516108839190617b0b565b60405180910390f35b34801561089857600080fd5b506108b360048036036108ae9190810190616769565b611f35565b6040516108c0919061749a565b60405180910390f35b3480156108d557600080fd5b506108f060048036036108eb91908101906167ce565b611f68565b6040516108fd9190617b0b565b60405180910390f35b34801561091257600080fd5b5061091b6122ce565b6040516109289190617b0b565b60405180910390f35b34801561093d57600080fd5b506109586004803603610953919081019061654d565b6122d4565b6040516109659190617b0b565b60405180910390f35b600260009054906101000a900473ffffffffffffffffffffffffffffffffffffffff1681565b6109a134838360006122ec565b505050565b60006109b3848484612d00565b9050610a0781601160003373ffffffffffffffffffffffffffffffffffffffff1673ffffffffffffffffffffffffffffffffffffffff168152602001908152602001600020546131cb90919063ffffffff16565b601160003373ffffffffffffffffffffffffffffffffffffffff1673ffffffffffffffffffffffffffffffffffffffff1681526020019081526020016000208190555050505050565b600080610a5b613220565b9050610a656132f9565b73ffffffffffffffffffffffffffffffffffffffff1663654a60ac85856004546040518463ffffffff1660e01b8152600401610aa3939291906176a0565b60206040518083038186803b158015610abb57600080fd5b505afa158015610acf573d6000803e3d6000fd5b505050506040513d601f19601f82011682018060405250610af3919081019061684b565b9150610b95610b868273__$b8d33eeb36ac0d1e81cd70156e0043e778$__63907af6c06040518163ffffffff1660e01b815260040160206040518083038186803b158015610b4057600080fd5b505af4158015610b54573d6000803e3d6000fd5b505050506040513d601f19601f82011682018060405250610b78919081019061684b565b6131cb90919063ffffffff16565b8361332990919063ffffffff16565b91505092915050565b6000610baa3383613356565b9050610bfe81601160003373ffffffffffffffffffffffffffffffffffffffff1673ffffffffffffffffffffffffffffffffffffffff168152602001908152602001600020546131cb90919063ffffffff16565b601160003373ffffffffffffffffffffffffffffffffffffffff1673ffffffffffffffffffffffffffffffffffffffff168152602001908152602001600020819055505050565b610c4d613974565b73__$b8d33eeb36ac0d1e81cd70156e0043e778$__63907af6c06040518163ffffffff1660e01b815260040160206040518083038186803b158015610c9157600080fd5b505af4158015610ca5573d6000803e3d6000fd5b505050506040513d601f19601f82011682018060405250610cc9919081019061684b565b8111610d0a576040517f08c379a0000000000000000000000000000000000000000000000000000000008152600401610d019061774f565b60405180910390fd5b80600a819055507f813a44586e8ecb9390b2568dbe810e193087f80e415c8845340ef06d4cbb42a5600a54604051610d429190617b0b565b60405180910390a150565b600e5481565b610d5b613974565b80600160006101000a81548173ffffffffffffffffffffffffffffffffffffffff021916908373ffffffffffffffffffffffffffffffffffffffff1602179055507f906a1c6bd7e3091ea86693dd029a831c19049ce77f1dce2ce0bab1cacbabce2281604051610dcb919061749a565b60405180910390a150565b610dde613974565b818190508484905014610e26576040517f08c379a0000000000000000000000000000000000000000000000000000000008152600401610e1d9061772f565b60405180910390fd5b60008090505b84849050811015610eb2576000858583818110610e4557fe5b90506020020135905060078190806001815401808255809150509060018203906000526020600020016000909192909190915055508060086000868686818110610e8b57fe5b90506020020135815260200190815260200160002081905550508080600101915050610e2c565b50610ebb6115cd565b50505050565b60006060610ecd6119d9565b905060008090505b815181101561108c576000828281518110610eec57fe5b602002602001015190506003600082815260200190815260200160002060009054906101000a900473ffffffffffffffffffffffffffffffffffffffff1673ffffffffffffffffffffffffffffffffffffffff16600260009054906101000a900473ffffffffffffffffffffffffffffffffffffffff1673ffffffffffffffffffffffffffffffffffffffff166321f8a721836040518263ffffffff1660e01b8152600401610f9b91906175da565b60206040518083038186803b158015610fb357600080fd5b505afa158015610fc7573d6000803e3d6000fd5b505050506040513d601f19601f82011682018060405250610feb9190810190616576565b73ffffffffffffffffffffffffffffffffffffffff1614158061106d5750600073ffffffffffffffffffffffffffffffffffffffff166003600083815260200190815260200160002060009054906101000a900473ffffffffffffffffffffffffffffffffffffffff1673ffffffffffffffffffffffffffffffffffffffff16145b1561107e5760009350505050611093565b508080600101915050610ed5565b5060019150505b90565b600781815481106110a357fe5b906000526020600020016000915090505481565b600c5481565b60016010600082825401925050819055506000601054905061112782601160003373ffffffffffffffffffffffffffffffffffffffff1673ffffffffffffffffffffffffffffffffffffffff16815260200190815260200160002054613a0590919063ffffffff16565b601160003373ffffffffffffffffffffffffffffffffffffffff1673ffffffffffffffffffffffffffffffffffffffff1681526020019081526020016000208190555060003373ffffffffffffffffffffffffffffffffffffffff168360405161119090617485565b60006040518083038185875af1925050503d80600081146111cd576040519150601f19603f3d011682016040523d82523d6000602084013e6111d2565b606091505b5050905080611216576040517f08c379a000000000000000000000000000000000000000000000000000000000815260040161120d906177cf565b60405180910390fd5b50601054811461125b576040517f08c379a000000000000000000000000000000000000000000000000000000000815260040161125290617aaf565b60405180910390fd5b5050565b60086020528060005260406000206000915090505481565b600f60009054906101000a900460ff1681565b60006112968383613a5b565b90506112ea81601160003373ffffffffffffffffffffffffffffffffffffffff1673ffffffffffffffffffffffffffffffffffffffff168152602001908152602001600020546131cb90919063ffffffff16565b601160003373ffffffffffffffffffffffffffffffffffffffff1673ffffffffffffffffffffffffffffffffffffffff16815260200190815260200160002081905550505050565b61133d828234613cfa565b5050565b600660009054906101000a900473ffffffffffffffffffffffffffffffffffffffff1681565b61136f613974565b610e1073__$b8d33eeb36ac0d1e81cd70156e0043e778$__63907af6c06040518163ffffffff1660e01b815260040160206040518083038186803b1580156113b657600080fd5b505af41580156113ca573d6000803e3d6000fd5b505050506040513d601f19601f820116820180604052506113ee919081019061684b565b02811115611431576040517f08c379a00000000000000000000000000000000000000000000000000000000081526004016114289061796f565b60405180910390fd5b80600e819055507f4d71c92b0a9dc236066597b95637bb04d58cd135e9165aee13eb68e3199c2361600e546040516114699190617b0b565b60405180910390a150565b600160009054906101000a900473ffffffffffffffffffffffffffffffffffffffff1681565b6114a2613974565b816009600083815260200190815260200160002060006101000a81548173ffffffffffffffffffffffffffffffffffffffff021916908373ffffffffffffffffffffffffffffffffffffffff1602179055505050565b6000848490506007805490501461151257600090506115c5565b60008090505b858590508110156115bf57600086868381811061153157fe5b905060200201359050806007838154811061154857fe5b906000526020600020015414611563576000925050506115c5565b6007828154811061157057fe5b90600052602060002001546008600087878681811061158b57fe5b90506020020135815260200190815260200160002054146115b1576000925050506115c5565b508080600101915050611518565b50600190505b949350505050565b60606115d76119d9565b905060008090505b815181101561176a5760008282815181106115f657fe5b602002602001015190506000600260009054906101000a900473ffffffffffffffffffffffffffffffffffffffff1673ffffffffffffffffffffffffffffffffffffffff1663dacb2d018384604051602001611652919061745f565b6040516020818303038152906040526040518363ffffffff1660e01b815260040161167e929190617647565b60206040518083038186803b15801561169657600080fd5b505afa1580156116aa573d6000803e3d6000fd5b505050506040513d601f19601f820116820180604052506116ce9190810190616576565b9050806003600084815260200190815260200160002060006101000a81548173ffffffffffffffffffffffffffffffffffffffff021916908373ffffffffffffffffffffffffffffffffffffffff1602179055507f88a93678a3692f6789d9546fc621bf7234b101ddb7d4fe479455112831b8aa6882826040516117539291906175f5565b60405180910390a1505080806001019150506115df565b5050565b600160009054906101000a900473ffffffffffffffffffffffffffffffffffffffff1673ffffffffffffffffffffffffffffffffffffffff163373ffffffffffffffffffffffffffffffffffffffff16146117fe576040517f08c379a00000000000000000000000000000000000000000000000000000000081526004016117f5906177af565b60405180910390fd5b7fb532073b38c83145e3e5135377a08bf9aab55bc0fd7c1179cd4fb995d2a5159c6000809054906101000a900473ffffffffffffffffffffffffffffffffffffffff16600160009054906101000a900473ffffffffffffffffffffffffffffffffffffffff16604051611872929190617522565b60405180910390a1600160009054906101000a900473ffffffffffffffffffffffffffffffffffffffff166000806101000a81548173ffffffffffffffffffffffffffffffffffffffff021916908373ffffffffffffffffffffffffffffffffffffffff1602179055506000600160006101000a81548173ffffffffffffffffffffffffffffffffffffffff021916908373ffffffffffffffffffffffffffffffffffffffff160217905550565b60006119d161192d6132f9565b73ffffffffffffffffffffffffffffffffffffffff1663654a60ac60045486866040518463ffffffff1660e01b815260040161196b939291906176a0565b60206040518083038186803b15801561198357600080fd5b505afa158015611997573d6000803e3d6000fd5b505050506040513d601f19601f820116820180604052506119bb919081019061684b565b6119c3613f8a565b61332990919063ffffffff16565b905092915050565b6060806119e4614021565b905060606005604051908082528060200260200182016040528015611a185781602001602082028038833980820191505090505b5090507f466565506f6f6c0000000000000000000000000000000000000000000000000081600081518110611a4957fe5b6020026020010181815250507f45786368616e676552617465730000000000000000000000000000000000000081600181518110611a8357fe5b6020026020010181815250507f45786368616e676572000000000000000000000000000000000000000000000081600281518110611abd57fe5b6020026020010181815250507f53797374656d537461747573000000000000000000000000000000000000000081600381518110611af757fe5b6020026020010181815250507f53796e746873555344000000000000000000000000000000000000000000000081600481518110611b3157fe5b6020026020010181815250506060611b498383614093565b9050611ba5816007805480602002602001604051908101604052809291908181526020018280548015611b9b57602002820191906000526020600020905b815481526020019060010190808311611b87575b5050505050614093565b935050505090565b611bb983338484614166565b505050565b6000809054906101000a900473ffffffffffffffffffffffffffffffffffffffff1681565b611beb613974565b80600f60006101000a81548160ff0219169083151502179055507f261991749e1b2436706a31bde8bf184bb37fe21e303709b78d3b881afacadaa2600f60009054906101000a900460ff16604051611c4391906175bf565b60405180910390a150565b600a5481565b611c5c613974565b80600c819055507fe7bd72551c54d568cd97b00dc52d2787b5c5d4f0070d3582c1e8ba25141f799c600c54604051611c949190617b0b565b60405180910390a150565b60045481565b600b5481565b600560009054906101000a900473ffffffffffffffffffffffffffffffffffffffff1681565b611cd9613974565b80600660006101000a81548173ffffffffffffffffffffffffffffffffffffffff021916908373ffffffffffffffffffffffffffffffffffffffff1602179055507f2c1c11af44aa5608f1dca38c00275c30ea091e02417d36e70e9a1538689c433d600660009054906101000a900473ffffffffffffffffffffffffffffffffffffffff16604051611d6b919061749a565b60405180910390a150565b611d80828261456b565b5050565b600080611d8f6132f9565b73ffffffffffffffffffffffffffffffffffffffff1663654a60ac60045485604001517f73555344000000000000000000000000000000000000000000000000000000006040518463ffffffff1660e01b8152600401611df1939291906176a0565b60206040518083038186803b158015611e0957600080fd5b505afa158015611e1d573d6000803e3d6000fd5b505050506040513d601f19601f82011682018060405250611e41919081019061684b565b90506000611e4d6132f9565b73ffffffffffffffffffffffffffffffffffffffff1663654a60ac8560600151611e888760c0015188608001516131cb90919063ffffffff16565b7f73555344000000000000000000000000000000000000000000000000000000006040518463ffffffff1660e01b8152600401611ec7939291906176a0565b60206040518083038186803b158015611edf57600080fd5b505afa158015611ef3573d6000803e3d6000fd5b505050506040513d601f19601f82011682018060405250611f17919081019061684b565b9050611f2c8183614c0490919063ffffffff16565b92505050919050565b60096020528060005260406000206000915054906101000a900473ffffffffffffffffffffffffffffffffffffffff1681565b600080611f73613220565b90506000611f7f6132f9565b73ffffffffffffffffffffffffffffffffffffffff1663654a60ac8560600151611fba8760c0015188608001516131cb90919063ffffffff16565b7f73555344000000000000000000000000000000000000000000000000000000006040518463ffffffff1660e01b8152600401611ff9939291906176a0565b60206040518083038186803b15801561201157600080fd5b505afa158015612025573d6000803e3d6000fd5b505050506040513d601f19601f82011682018060405250612049919081019061684b565b905060006120556132f9565b73ffffffffffffffffffffffffffffffffffffffff1663654a60ac60045487604001517f73555344000000000000000000000000000000000000000000000000000000006040518463ffffffff1660e01b81526004016120b7939291906176a0565b60206040518083038186803b1580156120cf57600080fd5b505afa1580156120e3573d6000803e3d6000fd5b505050506040513d601f19601f82011682018060405250612107919081019061684b565b9050600073__$b8d33eeb36ac0d1e81cd70156e0043e778$__63907af6c06040518163ffffffff1660e01b815260040160206040518083038186803b15801561214f57600080fd5b505af4158015612163573d6000803e3d6000fd5b505050506040513d601f19601f82011682018060405250612187919081019061684b565b905060006121b26121a3600a5485614c0490919063ffffffff16565b85613a0590919063ffffffff16565b905060006121ef6121e0600a546121d289876131cb90919063ffffffff16565b614c0490919063ffffffff16565b84613a0590919063ffffffff16565b905060006122068284614c0490919063ffffffff16565b90506122106132f9565b73ffffffffffffffffffffffffffffffffffffffff1663654a60ac7f7355534400000000000000000000000000000000000000000000000000000000838c606001516040518463ffffffff1660e01b8152600401612270939291906176a0565b60206040518083038186803b15801561228857600080fd5b505afa15801561229c573d6000803e3d6000fd5b505050506040513d601f19601f820116820180604052506122c0919081019061684b565b975050505050505050919050565b600d5481565b60116020528060005260406000206000915090505481565b60006122f6614c3a565b6122fe614d0e565b73ffffffffffffffffffffffffffffffffffffffff16637c3125416040518163ffffffff1660e01b815260040160006040518083038186803b15801561234357600080fd5b505afa158015612357573d6000803e3d6000fd5b50505050600f60009054906101000a900460ff166123aa576040517f08c379a00000000000000000000000000000000000000000000000000000000081526004016123a19061794f565b60405180910390fd5b6000801b600860008581526020019081526020016000205411612402576040517f08c379a00000000000000000000000000000000000000000000000000000000081526004016123f9906179ef565b60405180910390fd5b61240a6132f9565b73ffffffffffffffffffffffffffffffffffffffff16632528f0fe846040518263ffffffff1660e01b815260040161244291906175da565b60206040518083038186803b15801561245a57600080fd5b505afa15801561246e573d6000803e3d6000fd5b505050506040513d601f19601f820116820180604052506124929190810190616704565b156124d2576040517f08c379a00000000000000000000000000000000000000000000000000000000081526004016124c9906178af565b60405180910390fd5b600b54851015612517576040517f08c379a000000000000000000000000000000000000000000000000000000000815260040161250e9061788f565b60405180910390fd5b600d54600560009054906101000a900473ffffffffffffffffffffffffffffffffffffffff1673ffffffffffffffffffffffffffffffffffffffff1663e0b6adbc336040518263ffffffff1660e01b815260040161257591906174b5565b60206040518083038186803b15801561258d57600080fd5b505afa1580156125a1573d6000803e3d6000fd5b505050506040513d601f19601f820116820180604052506125c5919081019061684b565b10612605576040517f08c379a00000000000000000000000000000000000000000000000000000000081526004016125fc9061784f565b60405180910390fd5b600080612610614d3e565b73ffffffffffffffffffffffffffffffffffffffff1663b4d6cb4087876040518363ffffffff1660e01b815260040161264a929190617b6b565b604080518083038186803b15801561266157600080fd5b505afa158015612675573d6000803e3d6000fd5b505050506040513d601f19601f82011682018060405250612699919081019061672d565b915091508180156126a8575080155b6126e7576040517f08c379a00000000000000000000000000000000000000000000000000000000081526004016126de90617a6f565b60405180910390fd5b6126f18786611920565b861115612733576040517f08c379a000000000000000000000000000000000000000000000000000000000815260040161272a906179af565b60405180910390fd5b600061274a600c5488614d6890919063ffffffff16565b905060006127618289613a0590919063ffffffff16565b905061276b614d3e565b73ffffffffffffffffffffffffffffffffffffffff1663b3b467326040518163ffffffff1660e01b8152600401602060405180830381600087803b1580156127b257600080fd5b505af11580156127c6573d6000803e3d6000fd5b505050506040513d601f19601f820116820180604052506127ea919081019061684b565b94506127f4616212565b6040518061012001604052808781526020013373ffffffffffffffffffffffffffffffffffffffff1681526020018b81526020018981526020018a81526020018815158152602001600081526020016000815260200142815250905061285981614d84565b9050600560009054906101000a900473ffffffffffffffffffffffffffffffffffffffff1673ffffffffffffffffffffffffffffffffffffffff16635c331204826040518263ffffffff1660e01b81526004016128b69190617aef565b600060405180830381600087803b1580156128d057600080fd5b505af11580156128e4573d6000803e3d6000fd5b505050506128f28389615326565b8615612ba05761290061557c565b73ffffffffffffffffffffffffffffffffffffffff1663867904b4336129246132f9565b73ffffffffffffffffffffffffffffffffffffffff1663654a60ac8c877f73555344000000000000000000000000000000000000000000000000000000006040518463ffffffff1660e01b8152600401612980939291906176a0565b60206040518083038186803b15801561299857600080fd5b505afa1580156129ac573d6000803e3d6000fd5b505050506040513d601f19601f820116820180604052506129d0919081019061684b565b6040518363ffffffff1660e01b81526004016129ed9291906174f9565b600060405180830381600087803b158015612a0757600080fd5b505af1158015612a1b573d6000803e3d6000fd5b50505050612a27614d3e565b73ffffffffffffffffffffffffffffffffffffffff1663e31f27c1898b6040518363ffffffff1660e01b8152600401612a61929190617677565b600060405180830381600087803b158015612a7b57600080fd5b505af1158015612a8f573d6000803e3d6000fd5b50505050600073ffffffffffffffffffffffffffffffffffffffff16600960008a815260200190815260200160002060009054906101000a900473ffffffffffffffffffffffffffffffffffffffff1673ffffffffffffffffffffffffffffffffffffffff1614612b9b576009600089815260200190815260200160002060009054906101000a900473ffffffffffffffffffffffffffffffffffffffff1673ffffffffffffffffffffffffffffffffffffffff1663db454a51338b6040518363ffffffff1660e01b8152600401612b689291906174f9565b600060405180830381600087803b158015612b8257600080fd5b505af1158015612b96573d6000803e3d6000fd5b505050505b612c9d565b612bbc600860008a8152602001908152602001600020546155ac565b73ffffffffffffffffffffffffffffffffffffffff1663867904b433846040518363ffffffff1660e01b8152600401612bf69291906174f9565b600060405180830381600087803b158015612c1057600080fd5b505af1158015612c24573d6000803e3d6000fd5b50505050612c30614d3e565b73ffffffffffffffffffffffffffffffffffffffff1663eb94bbde898b6040518363ffffffff1660e01b8152600401612c6a929190617677565b600060405180830381600087803b158015612c8457600080fd5b505af1158015612c98573d6000803e3d6000fd5b505050505b3373ffffffffffffffffffffffffffffffffffffffff167f604952b18be5fed608cbdd28101dc57bd667055c9678ec6d44fb1d8e4c7c172a878b8d8c88604051612ceb959493929190617bf4565b60405180910390a25050505050949350505050565b6000612d0a614c3a565b612d12614d0e565b73ffffffffffffffffffffffffffffffffffffffff16637c3125416040518163ffffffff1660e01b815260040160006040518083038186803b158015612d5757600080fd5b505afa158015612d6b573d6000803e3d6000fd5b5050505060008211612db2576040517f08c379a0000000000000000000000000000000000000000000000000000000008152600401612da99061780f565b60405180910390fd5b612dba616212565b600560009054906101000a900473ffffffffffffffffffffffffffffffffffffffff1673ffffffffffffffffffffffffffffffffffffffff1663a1c5158686866040518363ffffffff1660e01b8152600401612e17929190617574565b6101206040518083038186803b158015612e3057600080fd5b505afa158015612e44573d6000803e3d6000fd5b505050506040513d601f19601f82011682018060405250612e6891908101906167f8565b9050612e73816155be565b612e7c81614d84565b9050612e8d33826060015185615664565b600a54612e9982611d84565b10612ed9576040517f08c379a0000000000000000000000000000000000000000000000000000000008152600401612ed09061786f565b60405180910390fd5b6000612ee482611f68565b90506000848210612ef55784612ef7565b815b90506000612f168460c0015185608001516131cb90919063ffffffff16565b9050808210612f3557612f2a88338661574f565b9450505050506131c4565b612f3f8483615c49565b9350612f4f846060015183610a50565b9450612f68858560400151613a0590919063ffffffff16565b8460400181815250504284610100018181525050612f84615f11565b73ffffffffffffffffffffffffffffffffffffffff1663d6f32e063386606001516040518363ffffffff1660e01b8152600401612fc29291906174d0565b60206040518083038186803b158015612fda57600080fd5b505afa158015612fee573d6000803e3d6000fd5b505050506040513d601f19601f820116820180604052506130129190810190616704565b15613052576040517f08c379a000000000000000000000000000000000000000000000000000000000815260040161304990617acf565b60405180910390fd5b6130726008600086606001518152602001908152602001600020546155ac565b73ffffffffffffffffffffffffffffffffffffffff16639dc29fac33846040518363ffffffff1660e01b81526004016130ac9291906174f9565b600060405180830381600087803b1580156130c657600080fd5b505af11580156130da573d6000803e3d6000fd5b50505050600560009054906101000a900473ffffffffffffffffffffffffffffffffffffffff1673ffffffffffffffffffffffffffffffffffffffff166344dce41c856040518263ffffffff1660e01b81526004016131399190617aef565b600060405180830381600087803b15801561315357600080fd5b505af1158015613167573d6000803e3d6000fd5b505050508773ffffffffffffffffffffffffffffffffffffffff167fb6e43890aeea54fbe6c0ed628e78172a0ff30bbcb1d70d8b130b12c366bac4c5883385896040516131b79493929190617b26565b60405180910390a2505050505b9392505050565b600080828401905083811015613216576040517f08c379a000000000000000000000000000000000000000000000000000000000815260040161320d9061782f565b60405180910390fd5b8091505092915050565b600061322a615f41565b73ffffffffffffffffffffffffffffffffffffffff166323257c2b7f53797374656d53657474696e67730000000000000000000000000000000000007f6c69717569646174696f6e50656e616c747900000000000000000000000000006040518363ffffffff1660e01b81526004016132a492919061761e565b60206040518083038186803b1580156132bc57600080fd5b505afa1580156132d0573d6000803e3d6000fd5b505050506040513d601f19601f820116820180604052506132f4919081019061684b565b905090565b60006133247f45786368616e6765526174657300000000000000000000000000000000000000615f71565b905090565b6000601260ff16600a0a613346838561604690919063ffffffff16565b8161334d57fe5b04905092915050565b6000613360614c3a565b613368614d0e565b73ffffffffffffffffffffffffffffffffffffffff16637c3125416040518163ffffffff1660e01b815260040160006040518083038186803b1580156133ad57600080fd5b505afa1580156133c1573d6000803e3d6000fd5b505050506133cd616212565b600560009054906101000a900473ffffffffffffffffffffffffffffffffffffffff1673ffffffffffffffffffffffffffffffffffffffff1663a1c5158685856040518363ffffffff1660e01b815260040161342a929190617574565b6101206040518083038186803b15801561344357600080fd5b505afa158015613457573d6000803e3d6000fd5b505050506040513d601f19601f8201168201806040525061347b91908101906167f8565b9050613486816155be565b61348f81614d84565b905060006134ae8260c0015183608001516131cb90919063ffffffff16565b90506134c38260200151836060015183615664565b6134cb615f11565b73ffffffffffffffffffffffffffffffffffffffff1663d6f32e068684606001516040518363ffffffff1660e01b815260040161350992919061754b565b60206040518083038186803b15801561352157600080fd5b505afa158015613535573d6000803e3d6000fd5b505050506040513d601f19601f820116820180604052506135599190810190616704565b15613599576040517f08c379a0000000000000000000000000000000000000000000000000000000008152600401613590906178cf565b60405180910390fd5b6135b96008600084606001518152602001908152602001600020546155ac565b73ffffffffffffffffffffffffffffffffffffffff16639dc29fac86836040518363ffffffff1660e01b81526004016135f3929190617574565b600060405180830381600087803b15801561360d57600080fd5b505af1158015613621573d6000803e3d6000fd5b505050508160a00151156137c457613637614d3e565b73ffffffffffffffffffffffffffffffffffffffff16635246f2b9836060015184608001516040518363ffffffff1660e01b8152600401613679929190617677565b600060405180830381600087803b15801561369357600080fd5b505af11580156136a7573d6000803e3d6000fd5b50505050600073ffffffffffffffffffffffffffffffffffffffff16600960008460600151815260200190815260200160002060009054906101000a900473ffffffffffffffffffffffffffffffffffffffff1673ffffffffffffffffffffffffffffffffffffffff16146137bf57600960008360600151815260200190815260200160002060009054906101000a900473ffffffffffffffffffffffffffffffffffffffff1673ffffffffffffffffffffffffffffffffffffffff1663f3fef3a38684608001516040518363ffffffff1660e01b815260040161378c929190617574565b600060405180830381600087803b1580156137a657600080fd5b505af11580156137ba573d6000803e3d6000fd5b505050505b613841565b6137cc614d3e565b73ffffffffffffffffffffffffffffffffffffffff1663e50a31b3836060015184608001516040518363ffffffff1660e01b815260040161380e929190617677565b600060405180830381600087803b15801561382857600080fd5b505af115801561383c573d6000803e3d6000fd5b505050505b8160400151925061385a8260c001518360600151615326565b6000826080018181525050600082604001818152505060008260c001818152505060008260e00181815250504282610100018181525050600560009054906101000a900473ffffffffffffffffffffffffffffffffffffffff1673ffffffffffffffffffffffffffffffffffffffff166344dce41c836040518263ffffffff1660e01b81526004016138ec9190617aef565b600060405180830381600087803b15801561390657600080fd5b505af115801561391a573d6000803e3d6000fd5b505050508473ffffffffffffffffffffffffffffffffffffffff167fcab22a4e95d29d40da2ace3f6ec72b49954a9bc7b2584f8fd47bf7f357a3ed6f856040516139649190617b0b565b60405180910390a2505092915050565b6000809054906101000a900473ffffffffffffffffffffffffffffffffffffffff1673ffffffffffffffffffffffffffffffffffffffff163373ffffffffffffffffffffffffffffffffffffffff1614613a03576040517f08c379a00000000000000000000000000000000000000000000000000000000081526004016139fa906179cf565b60405180910390fd5b565b600082821115613a4a576040517f08c379a0000000000000000000000000000000000000000000000000000000008152600401613a41906178ef565b60405180910390fd5b600082840390508091505092915050565b6000613a65614c3a565b613a6d614d0e565b73ffffffffffffffffffffffffffffffffffffffff16637c3125416040518163ffffffff1660e01b815260040160006040518083038186803b158015613ab257600080fd5b505afa158015613ac6573d6000803e3d6000fd5b50505050613ad2616212565b600560009054906101000a900473ffffffffffffffffffffffffffffffffffffffff1673ffffffffffffffffffffffffffffffffffffffff1663a1c5158633866040518363ffffffff1660e01b8152600401613b2f9291906174f9565b6101206040518083038186803b158015613b4857600080fd5b505afa158015613b5c573d6000803e3d6000fd5b505050506040513d601f19601f82011682018060405250613b8091908101906167f8565b9050613b8b816155be565b613b9481614d84565b9050613bad838260400151613a0590919063ffffffff16565b8160400181815250504281610100018181525050600a54613bcd82611d84565b11613c0d576040517f08c379a0000000000000000000000000000000000000000000000000000000008152600401613c049061776f565b60405180910390fd5b600560009054906101000a900473ffffffffffffffffffffffffffffffffffffffff1673ffffffffffffffffffffffffffffffffffffffff166344dce41c826040518263ffffffff1660e01b8152600401613c689190617aef565b600060405180830381600087803b158015613c8257600080fd5b505af1158015613c96573d6000803e3d6000fd5b505050508291503373ffffffffffffffffffffffffffffffffffffffff167ffae26280bca25d80f1501a9e363c73d3845e651c9aaae54f1fc09a9dcd5f330385858460400151604051613ceb93929190617bbd565b60405180910390a25092915050565b613d02614c3a565b613d0a614d0e565b73ffffffffffffffffffffffffffffffffffffffff16637c3125416040518163ffffffff1660e01b815260040160006040518083038186803b158015613d4f57600080fd5b505afa158015613d63573d6000803e3d6000fd5b5050505060008111613daa576040517f08c379a0000000000000000000000000000000000000000000000000000000008152600401613da190617a4f565b60405180910390fd5b613db2616212565b600560009054906101000a900473ffffffffffffffffffffffffffffffffffffffff1673ffffffffffffffffffffffffffffffffffffffff1663a1c5158685856040518363ffffffff1660e01b8152600401613e0f929190617574565b6101206040518083038186803b158015613e2857600080fd5b505afa158015613e3c573d6000803e3d6000fd5b505050506040513d601f19601f82011682018060405250613e6091908101906167f8565b9050613e6b816155be565b613e7481614d84565b9050613e8d8282604001516131cb90919063ffffffff16565b8160400181815250504281610100018181525050600560009054906101000a900473ffffffffffffffffffffffffffffffffffffffff1673ffffffffffffffffffffffffffffffffffffffff166344dce41c826040518263ffffffff1660e01b8152600401613efc9190617aef565b600060405180830381600087803b158015613f1657600080fd5b505af1158015613f2a573d6000803e3d6000fd5b505050508373ffffffffffffffffffffffffffffffffffffffff167f0b1992dffc262be88559dcaf96464e9d661d8bfca7e82f2bb73e31932a82187c84848460400151604051613f7c93929190617bbd565b60405180910390a250505050565b600061401c600a5473__$b8d33eeb36ac0d1e81cd70156e0043e778$__63907af6c06040518163ffffffff1660e01b815260040160206040518083038186803b158015613fd657600080fd5b505af4158015613fea573d6000803e3d6000fd5b505050506040513d601f19601f8201168201806040525061400e919081019061684b565b6160b690919063ffffffff16565b905090565b606060016040519080825280602002602001820160405280156140535781602001602082028038833980820191505090505b5090507f466c657869626c6553746f7261676500000000000000000000000000000000008160008151811061408457fe5b60200260200101818152505090565b606081518351016040519080825280602002602001820160405280156140c85781602001602082028038833980820191505090505b50905060008090505b8351811015614113578381815181106140e657fe5b60200260200101518282815181106140fa57fe5b60200260200101818152505080806001019150506140d1565b5060008090505b825181101561415f5782818151811061412f57fe5b602002602001015182828651018151811061414657fe5b602002602001018181525050808060010191505061411a565b5092915050565b61416e614c3a565b614176614d0e565b73ffffffffffffffffffffffffffffffffffffffff16637c3125416040518163ffffffff1660e01b815260040160006040518083038186803b1580156141bb57600080fd5b505afa1580156141cf573d6000803e3d6000fd5b5050505060008111614216576040517f08c379a000000000000000000000000000000000000000000000000000000000815260040161420d9061780f565b60405180910390fd5b61421e616212565b600560009054906101000a900473ffffffffffffffffffffffffffffffffffffffff1673ffffffffffffffffffffffffffffffffffffffff1663a1c5158686856040518363ffffffff1660e01b815260040161427b929190617574565b6101206040518083038186803b15801561429457600080fd5b505afa1580156142a8573d6000803e3d6000fd5b505050506040513d601f19601f820116820180604052506142cc91908101906167f8565b90506142d7816155be565b6142e081614d84565b90506142f184826060015184615664565b6142fb8183615c49565b90504281610100018181525050614310615f11565b73ffffffffffffffffffffffffffffffffffffffff1663d6f32e068583606001516040518363ffffffff1660e01b815260040161434e92919061754b565b60206040518083038186803b15801561436657600080fd5b505afa15801561437a573d6000803e3d6000fd5b505050506040513d601f19601f8201168201806040525061439e9190810190616704565b156143de576040517f08c379a00000000000000000000000000000000000000000000000000000000081526004016143d590617acf565b60405180910390fd5b6143fe6008600083606001518152602001908152602001600020546155ac565b73ffffffffffffffffffffffffffffffffffffffff16639dc29fac85846040518363ffffffff1660e01b8152600401614438929190617574565b600060405180830381600087803b15801561445257600080fd5b505af1158015614466573d6000803e3d6000fd5b50505050600560009054906101000a900473ffffffffffffffffffffffffffffffffffffffff1673ffffffffffffffffffffffffffffffffffffffff166344dce41c826040518263ffffffff1660e01b81526004016144c59190617aef565b600060405180830381600087803b1580156144df57600080fd5b505af11580156144f3573d6000803e3d6000fd5b505050508373ffffffffffffffffffffffffffffffffffffffff168573ffffffffffffffffffffffffffffffffffffffff167fdf10512219e869922340b1b24b21d7d79bf71f411a6391cc7c3ef5dd2fe89e7f8585856080015160405161455c93929190617bbd565b60405180910390a35050505050565b614573614c3a565b61457b614d0e565b73ffffffffffffffffffffffffffffffffffffffff16637c3125416040518163ffffffff1660e01b815260040160006040518083038186803b1580156145c057600080fd5b505afa1580156145d4573d6000803e3d6000fd5b505050506145e0616212565b600560009054906101000a900473ffffffffffffffffffffffffffffffffffffffff1673ffffffffffffffffffffffffffffffffffffffff1663a1c5158633856040518363ffffffff1660e01b815260040161463d9291906174f9565b6101206040518083038186803b15801561465657600080fd5b505afa15801561466a573d6000803e3d6000fd5b505050506040513d601f19601f8201168201806040525061468e91908101906167f8565b9050614699816155be565b6146a281614d84565b90506146bb8282608001516131cb90919063ffffffff16565b816080018181525050600a546146d082611d84565b11614710576040517f08c379a00000000000000000000000000000000000000000000000000000000081526004016147079061778f565b60405180910390fd5b6000614727600c5484614d6890919063ffffffff16565b9050600061473e8285613a0590919063ffffffff16565b90508260a0015115614a0257614752614d3e565b73ffffffffffffffffffffffffffffffffffffffff1663e31f27c18460600151866040518363ffffffff1660e01b8152600401614790929190617677565b600060405180830381600087803b1580156147aa57600080fd5b505af11580156147be573d6000803e3d6000fd5b505050506147ca61557c565b73ffffffffffffffffffffffffffffffffffffffff1663867904b4336147ee6132f9565b73ffffffffffffffffffffffffffffffffffffffff1663654a60ac8760600151867f73555344000000000000000000000000000000000000000000000000000000006040518463ffffffff1660e01b815260040161484e939291906176a0565b60206040518083038186803b15801561486657600080fd5b505afa15801561487a573d6000803e3d6000fd5b505050506040513d601f19601f8201168201806040525061489e919081019061684b565b6040518363ffffffff1660e01b81526004016148bb9291906174f9565b600060405180830381600087803b1580156148d557600080fd5b505af11580156148e9573d6000803e3d6000fd5b50505050600073ffffffffffffffffffffffffffffffffffffffff16600960008560600151815260200190815260200160002060009054906101000a900473ffffffffffffffffffffffffffffffffffffffff1673ffffffffffffffffffffffffffffffffffffffff16146149fd57600960008460600151815260200190815260200160002060009054906101000a900473ffffffffffffffffffffffffffffffffffffffff1673ffffffffffffffffffffffffffffffffffffffff1663db454a5133866040518363ffffffff1660e01b81526004016149ca9291906174f9565b600060405180830381600087803b1580156149e457600080fd5b505af11580156149f8573d6000803e3d6000fd5b505050505b614b07565b614a0a614d3e565b73ffffffffffffffffffffffffffffffffffffffff1663eb94bbde8460600151866040518363ffffffff1660e01b8152600401614a48929190617677565b600060405180830381600087803b158015614a6257600080fd5b505af1158015614a76573d6000803e3d6000fd5b50505050614a9a6008600085606001518152602001908152602001600020546155ac565b73ffffffffffffffffffffffffffffffffffffffff1663867904b433836040518363ffffffff1660e01b8152600401614ad49291906174f9565b600060405180830381600087803b158015614aee57600080fd5b505af1158015614b02573d6000803e3d6000fd5b505050505b614b15828460600151615326565b4283610100018181525050600560009054906101000a900473ffffffffffffffffffffffffffffffffffffffff1673ffffffffffffffffffffffffffffffffffffffff166344dce41c846040518263ffffffff1660e01b8152600401614b7b9190617aef565b600060405180830381600087803b158015614b9557600080fd5b505af1158015614ba9573d6000803e3d6000fd5b505050503373ffffffffffffffffffffffffffffffffffffffff167f5754fe57f36ac0f121901d7555aba517e6608590429d86a81c662cf3583106548686604051614bf5929190617b94565b60405180910390a25050505050565b6000614c3282614c24601260ff16600a0a8661604690919063ffffffff16565b6160d290919063ffffffff16565b905092915050565b614c426132f9565b73ffffffffffffffffffffffffffffffffffffffff16632528f0fe6004546040518263ffffffff1660e01b8152600401614c7c91906175da565b60206040518083038186803b158015614c9457600080fd5b505afa158015614ca8573d6000803e3d6000fd5b505050506040513d601f19601f82011682018060405250614ccc9190810190616704565b15614d0c576040517f08c379a0000000000000000000000000000000000000000000000000000000008152600401614d039061798f565b60405180910390fd5b565b6000614d397f53797374656d5374617475730000000000000000000000000000000000000000615f71565b905090565b6000600660009054906101000a900473ffffffffffffffffffffffffffffffffffffffff16905090565b6000614d7c8383601260ff16600a0a61612e565b905092915050565b614d8c616212565b8190506000806000808560a00151614e3757614da6614d3e565b73ffffffffffffffffffffffffffffffffffffffff166303f048b08760e001516040518263ffffffff1660e01b8152600401614de29190617b0b565b60806040518083038186803b158015614dfa57600080fd5b505afa158015614e0e573d6000803e3d6000fd5b505050506040513d601f19601f82011682018060405250614e329190810190616928565b614ed2565b614e3f614d3e565b73ffffffffffffffffffffffffffffffffffffffff1663af07aa9d87606001518860e001516040518363ffffffff1660e01b8152600401614e81929190617677565b60806040518083038186803b158015614e9957600080fd5b505afa158015614ead573d6000803e3d6000fd5b505050506040513d601f19601f82011682018060405250614ed19190810190616928565b5b93509350935093506000808760a00151614f6f57614eee614d3e565b73ffffffffffffffffffffffffffffffffffffffff1663ba1c5e806040518163ffffffff1660e01b8152600401604080518083038186803b158015614f3257600080fd5b505afa158015614f46573d6000803e3d6000fd5b505050506040513d601f19601f82011682018060405250614f6a9190810190616874565b615016565b614f77614d3e565b73ffffffffffffffffffffffffffffffffffffffff1663ee81f790600860008b606001518152602001908152602001600020546040518263ffffffff1660e01b8152600401614fc691906175da565b604080518083038186803b158015614fdd57600080fd5b505afa158015614ff1573d6000803e3d6000fd5b505050506040513d601f19601f820116820180604052506150159190810190616874565b5b91509150801561505b576040517f08c379a00000000000000000000000000000000000000000000000000000000081526004016150529061792f565b60405180910390fd5b60006150fd73__$b8d33eeb36ac0d1e81cd70156e0043e778$__63907af6c06040518163ffffffff1660e01b815260040160206040518083038186803b1580156150a457600080fd5b505af41580156150b8573d6000803e3d6000fd5b505050506040513d601f19601f820116820180604052506150dc919081019061684b565b6150ef8742613a0590919063ffffffff16565b61604690919063ffffffff16565b90506000615126615117838661332990919063ffffffff16565b886131cb90919063ffffffff16565b90506000808b60e00151146151635761515e61514b8a84613a0590919063ffffffff16565b8c6080015161332990919063ffffffff16565b615166565b60005b90508a60a001516151e857615179614d3e565b73ffffffffffffffffffffffffffffffffffffffff1663f53037b6836040518263ffffffff1660e01b81526004016151b19190617b0b565b600060405180830381600087803b1580156151cb57600080fd5b505af11580156151df573d6000803e3d6000fd5b50505050615261565b6151f0614d3e565b73ffffffffffffffffffffffffffffffffffffffff1663246206398c60600151846040518363ffffffff1660e01b815260040161522e929190617677565b600060405180830381600087803b15801561524857600080fd5b505af115801561525c573d6000803e3d6000fd5b505050505b615278818c60c001516131cb90919063ffffffff16565b8a60c0018181525050858a60e0018181525050600560009054906101000a900473ffffffffffffffffffffffffffffffffffffffff1673ffffffffffffffffffffffffffffffffffffffff166344dce41c8b6040518263ffffffff1660e01b81526004016152e69190617aef565b600060405180830381600087803b15801561530057600080fd5b505af1158015615314573d6000803e3d6000fd5b50505050505050505050505050919050565b6000821115615578577f7355534400000000000000000000000000000000000000000000000000000000811461540d5761535e6132f9565b73ffffffffffffffffffffffffffffffffffffffff1663654a60ac82847f73555344000000000000000000000000000000000000000000000000000000006040518463ffffffff1660e01b81526004016153ba939291906176a0565b60206040518083038186803b1580156153d257600080fd5b505afa1580156153e6573d6000803e3d6000fd5b505050506040513d601f19601f8201168201806040525061540a919081019061684b565b91505b61541561557c565b73ffffffffffffffffffffffffffffffffffffffff1663867904b4615438616187565b73ffffffffffffffffffffffffffffffffffffffff1663eb1edd616040518163ffffffff1660e01b815260040160206040518083038186803b15801561547d57600080fd5b505afa158015615491573d6000803e3d6000fd5b505050506040513d601f19601f820116820180604052506154b59190810190616576565b846040518363ffffffff1660e01b81526004016154d3929190617574565b600060405180830381600087803b1580156154ed57600080fd5b505af1158015615501573d6000803e3d6000fd5b5050505061550d616187565b73ffffffffffffffffffffffffffffffffffffffff166322bf55ef836040518263ffffffff1660e01b81526004016155459190617b0b565b600060405180830381600087803b15801561555f57600080fd5b505af1158015615573573d6000803e3d6000fd5b505050505b5050565b60006155a77f53796e7468735553440000000000000000000000000000000000000000000000615f71565b905090565b60006155b782615f71565b9050919050565b60008160e0015111615605576040517f08c379a00000000000000000000000000000000000000000000000000000000081526004016155fc90617a8f565b60405180910390fd5b42615620600e548361010001516131cb90919063ffffffff16565b1115615661576040517f08c379a0000000000000000000000000000000000000000000000000000000008152600401615658906177ef565b60405180910390fd5b50565b8061568160086000858152602001908152602001600020546155ac565b73ffffffffffffffffffffffffffffffffffffffff166370a08231856040518263ffffffff1660e01b81526004016156b9919061749a565b60206040518083038186803b1580156156d157600080fd5b505afa1580156156e5573d6000803e3d6000fd5b505050506040513d601f19601f82011682018060405250615709919081019061684b565b101561574a576040517f08c379a000000000000000000000000000000000000000000000000000000000815260040161574190617a2f565b60405180910390fd5b505050565b60008061576d8360c0015184608001516131cb90919063ffffffff16565b905060008360800151905083604001519250615787615f11565b73ffffffffffffffffffffffffffffffffffffffff1663d6f32e068686606001516040518363ffffffff1660e01b81526004016157c592919061754b565b60206040518083038186803b1580156157dd57600080fd5b505afa1580156157f1573d6000803e3d6000fd5b505050506040513d601f19601f820116820180604052506158159190810190616704565b15615855576040517f08c379a000000000000000000000000000000000000000000000000000000000815260040161584c90617acf565b60405180910390fd5b6158756008600086606001518152602001908152602001600020546155ac565b73ffffffffffffffffffffffffffffffffffffffff16639dc29fac86846040518363ffffffff1660e01b81526004016158af929190617574565b600060405180830381600087803b1580156158c957600080fd5b505af11580156158dd573d6000803e3d6000fd5b505050508360a0015115615a80576158f3614d3e565b73ffffffffffffffffffffffffffffffffffffffff16635246f2b9856060015186608001516040518363ffffffff1660e01b8152600401615935929190617677565b600060405180830381600087803b15801561594f57600080fd5b505af1158015615963573d6000803e3d6000fd5b50505050600073ffffffffffffffffffffffffffffffffffffffff16600960008660600151815260200190815260200160002060009054906101000a900473ffffffffffffffffffffffffffffffffffffffff1673ffffffffffffffffffffffffffffffffffffffff1614615a7b57600960008560600151815260200190815260200160002060009054906101000a900473ffffffffffffffffffffffffffffffffffffffff1673ffffffffffffffffffffffffffffffffffffffff1663f3fef3a38786608001516040518363ffffffff1660e01b8152600401615a48929190617574565b600060405180830381600087803b158015615a6257600080fd5b505af1158015615a76573d6000803e3d6000fd5b505050505b615afd565b615a88614d3e565b73ffffffffffffffffffffffffffffffffffffffff1663e50a31b3856060015186608001516040518363ffffffff1660e01b8152600401615aca929190617677565b600060405180830381600087803b158015615ae457600080fd5b505af1158015615af8573d6000803e3d6000fd5b505050505b615b0f8460c001518560600151615326565b6000846080018181525050600084604001818152505060008460c001818152505060008460e00181815250504284610100018181525050600560009054906101000a900473ffffffffffffffffffffffffffffffffffffffff1673ffffffffffffffffffffffffffffffffffffffff166344dce41c856040518263ffffffff1660e01b8152600401615ba19190617aef565b600060405180830381600087803b158015615bbb57600080fd5b505af1158015615bcf573d6000803e3d6000fd5b505050508473ffffffffffffffffffffffffffffffffffffffff168673ffffffffffffffffffffffffffffffffffffffff167f697721ed1b9d4866cb1aaa0692f62bb3abc1b01c2dafeaad053ffd4532aa7dbb86600001518487604051615c3893929190617bbd565b60405180910390a350509392505050565b615c51616212565b829050600082118015615c68575060008360c00151115b15615ccd5760008360c001518311615c805782615c86565b8360c001515b9050615c9f818560c00151613a0590919063ffffffff16565b8260c0018181525050615cbb8184613a0590919063ffffffff16565b9250615ccb818560600151615326565b505b6000821115615f0b57615ced828460800151613a0590919063ffffffff16565b8160800181815250508060a0015115615e9157615d08614d3e565b73ffffffffffffffffffffffffffffffffffffffff16635246f2b98260600151846040518363ffffffff1660e01b8152600401615d46929190617677565b600060405180830381600087803b158015615d6057600080fd5b505af1158015615d74573d6000803e3d6000fd5b50505050600073ffffffffffffffffffffffffffffffffffffffff16600960008360600151815260200190815260200160002060009054906101000a900473ffffffffffffffffffffffffffffffffffffffff1673ffffffffffffffffffffffffffffffffffffffff1614615e8c57600960008260600151815260200190815260200160002060009054906101000a900473ffffffffffffffffffffffffffffffffffffffff1673ffffffffffffffffffffffffffffffffffffffff1663f3fef3a38260200151846040518363ffffffff1660e01b8152600401615e599291906174f9565b600060405180830381600087803b158015615e7357600080fd5b505af1158015615e87573d6000803e3d6000fd5b505050505b615f0a565b615e99614d3e565b73ffffffffffffffffffffffffffffffffffffffff1663e50a31b38260600151846040518363ffffffff1660e01b8152600401615ed7929190617677565b600060405180830381600087803b158015615ef157600080fd5b505af1158015615f05573d6000803e3d6000fd5b505050505b5b92915050565b6000615f3c7f45786368616e6765720000000000000000000000000000000000000000000000615f71565b905090565b6000615f6c7f466c657869626c6553746f726167650000000000000000000000000000000000615f71565b905090565b6000806003600084815260200190815260200160002060009054906101000a900473ffffffffffffffffffffffffffffffffffffffff169050600073ffffffffffffffffffffffffffffffffffffffff168173ffffffffffffffffffffffffffffffffffffffff16141583604051602001615fec9190617439565b6040516020818303038152906040529061603c576040517f08c379a0000000000000000000000000000000000000000000000000000000008152600401616033919061770d565b60405180910390fd5b5080915050919050565b60008083141561605957600090506160b0565b600082840290508284828161606a57fe5b04146160ab576040517f08c379a00000000000000000000000000000000000000000000000000000000081526004016160a290617a0f565b60405180910390fd5b809150505b92915050565b60006160ca8383601260ff16600a0a6161b7565b905092915050565b6000808211616116576040517f08c379a000000000000000000000000000000000000000000000000000000000815260040161610d9061790f565b60405180910390fd5b600082848161612157fe5b0490508091505092915050565b600080600a838161613b57fe5b0461614f858761604690919063ffffffff16565b8161615657fe5b0490506005600a828161616557fe5b061061617257600a810190505b600a818161617c57fe5b049150509392505050565b60006161b27f466565506f6f6c00000000000000000000000000000000000000000000000000615f71565b905090565b6000806161e2846161d4600a86028861604690919063ffffffff16565b6160d290919063ffffffff16565b90506005600a82816161f057fe5b06106161fd57600a810190505b600a818161620757fe5b049150509392505050565b60405180610120016040528060008152602001600073ffffffffffffffffffffffffffffffffffffffff1681526020016000815260200160008019168152602001600081526020016000151581526020016000815260200160008152602001600081525090565b60008135905061628881617e0f565b92915050565b60008151905061629d81617e0f565b92915050565b6000813590506162b281617e26565b92915050565b6000815190506162c781617e26565b92915050565b60008083601f8401126162df57600080fd5b8235905067ffffffffffffffff8111156162f857600080fd5b60208301915083602082028301111561631057600080fd5b9250929050565b60008135905061632681617e3d565b92915050565b60008151905061633b81617e3d565b92915050565b60008135905061635081617e54565b92915050565b60008151905061636581617e54565b92915050565b6000610120828403121561637e57600080fd5b616389610120617c47565b9050600061639984828501616523565b60008301525060206163ad848285016162a3565b60208301525060406163c184828501616523565b60408301525060606163d584828501616341565b60608301525060806163e984828501616523565b60808301525060a06163fd84828501616317565b60a08301525060c061641184828501616523565b60c08301525060e061642584828501616523565b60e08301525061010061643a84828501616523565b6101008301525092915050565b6000610120828403121561645a57600080fd5b616465610120617c47565b9050600061647584828501616538565b6000830152506020616489848285016162b8565b602083015250604061649d84828501616538565b60408301525060606164b184828501616356565b60608301525060806164c584828501616538565b60808301525060a06164d98482850161632c565b60a08301525060c06164ed84828501616538565b60c08301525060e061650184828501616538565b60e08301525061010061651684828501616538565b6101008301525092915050565b60008135905061653281617e6b565b92915050565b60008151905061654781617e6b565b92915050565b60006020828403121561655f57600080fd5b600061656d84828501616279565b91505092915050565b60006020828403121561658857600080fd5b60006165968482850161628e565b91505092915050565b600080604083850312156165b257600080fd5b60006165c085828601616279565b92505060206165d185828601616341565b9150509250929050565b600080604083850312156165ee57600080fd5b60006165fc85828601616279565b925050602061660d85828601616523565b9150509250929050565b60008060006060848603121561662c57600080fd5b600061663a86828701616279565b935050602061664b86828701616523565b925050604061665c86828701616523565b9150509250925092565b6000806000806040858703121561667c57600080fd5b600085013567ffffffffffffffff81111561669657600080fd5b6166a2878288016162cd565b9450945050602085013567ffffffffffffffff8111156166c157600080fd5b6166cd878288016162cd565b925092505092959194509250565b6000602082840312156166ed57600080fd5b60006166fb84828501616317565b91505092915050565b60006020828403121561671657600080fd5b60006167248482850161632c565b91505092915050565b6000806040838503121561674057600080fd5b600061674e8582860161632c565b925050602061675f8582860161632c565b9150509250929050565b60006020828403121561677b57600080fd5b600061678984828501616341565b91505092915050565b600080604083850312156167a557600080fd5b60006167b385828601616341565b92505060206167c485828601616523565b9150509250929050565b600061012082840312156167e157600080fd5b60006167ef8482850161636b565b91505092915050565b6000610120828403121561680b57600080fd5b600061681984828501616447565b91505092915050565b60006020828403121561683457600080fd5b600061684284828501616523565b91505092915050565b60006020828403121561685d57600080fd5b600061686b84828501616538565b91505092915050565b6000806040838503121561688757600080fd5b600061689585828601616538565b92505060206168a68582860161632c565b9150509250929050565b600080604083850312156168c357600080fd5b60006168d185828601616523565b92505060206168e285828601616341565b9150509250929050565b600080604083850312156168ff57600080fd5b600061690d85828601616523565b925050602061691e85828601616523565b9150509250929050565b6000806000806080858703121561693e57600080fd5b600061694c87828801616538565b945050602061695d87828801616538565b935050604061696e87828801616538565b925050606061697f87828801616538565b91505092959194509250565b60006169978383616a4c565b60208301905092915050565b6169ac81617d43565b82525050565b6169bb81617cf1565b82525050565b6169ca81617cdf565b82525050565b60006169db82617c84565b6169e58185617ca7565b93506169f083617c74565b8060005b83811015616a21578151616a08888261698b565b9750616a1383617c9a565b9250506001810190506169f4565b5085935050505092915050565b616a3781617d03565b82525050565b616a4681617d03565b82525050565b616a5581617d0f565b82525050565b616a6481617d0f565b82525050565b616a7b616a7682617d0f565b617df4565b82525050565b616a8a81617d55565b82525050565b616a9981617d79565b82525050565b6000616aaa82617c8f565b616ab48185617cc3565b9350616ac4818560208601617dc1565b616acd81617dfe565b840191505092915050565b6000616ae5601b83617cc3565b91507f496e707574206172726179206c656e677468206d69736d6174636800000000006000830152602082019050919050565b6000616b25601683617cc3565b91507f4d7573742062652067726561746572207468616e2031000000000000000000006000830152602082019050919050565b6000616b65600e83617cc3565b91507f43726174696f20746f6f206c6f770000000000000000000000000000000000006000830152602082019050919050565b6000616ba5601583617cc3565b91507f43616e6e6f7420647261772074686973206d75636800000000000000000000006000830152602082019050919050565b6000616be5603583617cc3565b91507f596f75206d757374206265206e6f6d696e61746564206265666f726520796f7560008301527f2063616e20616363657074206f776e65727368697000000000000000000000006020830152604082019050919050565b6000616c4b600f83617cc3565b91507f5472616e73666572206661696c656400000000000000000000000000000000006000830152602082019050919050565b6000616c8b601d83617cc3565b91507f4c6f616e20726563656e746c7920696e746572616374656420776974680000006000830152602082019050919050565b6000616ccb601e83617cc3565b91507f5061796d656e74206d7573742062652067726561746572207468616e203000006000830152602082019050919050565b6000616d0b601b83617cc3565b91507f536166654d6174683a206164646974696f6e206f766572666c6f7700000000006000830152602082019050919050565b6000616d4b601283617cc3565b91507f4d6178206c6f616e7320657863656564656400000000000000000000000000006000830152602082019050919050565b6000616d8b601e83617cc3565b91507f43726174696f2061626f7665206c69717569646174696f6e20726174696f00006000830152602082019050919050565b6000616dcb601d83617cc3565b91507f4e6f7420656e6f75676820636f6c6c61746572616c20746f206f70656e0000006000830152602082019050919050565b6000616e0b601883617cc3565b91507f43757272656e6379207261746520697320696e76616c696400000000000000006000830152602082019050919050565b6000616e4b602083617cc3565b91507f57616974696e672073656373206f7220736574746c656d656e74206f77696e676000830152602082019050919050565b6000616e8b601e83617cc3565b91507f536166654d6174683a207375627472616374696f6e206f766572666c6f7700006000830152602082019050919050565b6000616ecb601a83617cc3565b91507f536166654d6174683a206469766973696f6e206279207a65726f0000000000006000830152602082019050919050565b6000616f0b601183617cd4565b91507f4d697373696e6720616464726573733a200000000000000000000000000000006000830152601182019050919050565b6000616f4b601183617cc3565b91507f52617465732061726520696e76616c69640000000000000000000000000000006000830152602082019050919050565b6000616f8b601383617cc3565b91507f4f70656e696e672069732064697361626c6564000000000000000000000000006000830152602082019050919050565b6000616fcb600a83617cc3565b91507f4d6178203120686f7572000000000000000000000000000000000000000000006000830152602082019050919050565b600061700b601a83617cc3565b91507f436f6c6c61746572616c207261746520697320696e76616c69640000000000006000830152602082019050919050565b600061704b601b83617cc3565b91507f45786365656473206d617820626f72726f77696e6720706f77657200000000006000830152602082019050919050565b600061708b602f83617cc3565b91507f4f6e6c792074686520636f6e7472616374206f776e6572206d6179207065726660008301527f6f726d207468697320616374696f6e00000000000000000000000000000000006020830152604082019050919050565b60006170f1601f83617cc3565b91507f4e6f7420616c6c6f77656420746f20697373756520746869732073796e7468006000830152602082019050919050565b6000617131602183617cc3565b91507f536166654d6174683a206d756c7469706c69636174696f6e206f766572666c6f60008301527f77000000000000000000000000000000000000000000000000000000000000006020830152604082019050919050565b6000617197601883617cc3565b91507f4e6f7420656e6f7567682073796e74682062616c616e636500000000000000006000830152602082019050919050565b60006171d7601e83617cc3565b91507f4465706f736974206d7573742062652067726561746572207468616e203000006000830152602082019050919050565b6000617217601a83617cc3565b91507f44656274206c696d6974206f7220696e76616c696420726174650000000000006000830152602082019050919050565b6000617257601983617cd4565b91507f5265736f6c766572206d697373696e67207461726765743a20000000000000006000830152601982019050919050565b6000617297600083617cb8565b9150600082019050919050565b60006172b1601383617cc3565b91507f4c6f616e20646f6573206e6f74206578697374000000000000000000000000006000830152602082019050919050565b60006172f1601f83617cc3565b91507f5265656e7472616e637947756172643a207265656e7472616e742063616c6c006000830152602082019050919050565b6000617331601b83617cc3565b91507f57616974696e67206f7220736574746c656d656e74206f77696e6700000000006000830152602082019050919050565b6101208201600082015161737b600085018261741b565b50602082015161738e60208501826169b2565b5060408201516173a1604085018261741b565b5060608201516173b46060850182616a4c565b5060808201516173c7608085018261741b565b5060a08201516173da60a0850182616a2e565b5060c08201516173ed60c085018261741b565b5060e082015161740060e085018261741b565b5061010082015161741561010085018261741b565b50505050565b61742481617d39565b82525050565b61743381617d39565b82525050565b600061744482616efe565b91506174508284616a6a565b60208201915081905092915050565b600061746a8261724a565b91506174768284616a6a565b60208201915081905092915050565b60006174908261728a565b9150819050919050565b60006020820190506174af60008301846169c1565b92915050565b60006020820190506174ca60008301846169a3565b92915050565b60006040820190506174e560008301856169a3565b6174f26020830184616a5b565b9392505050565b600060408201905061750e60008301856169a3565b61751b602083018461742a565b9392505050565b600060408201905061753760008301856169c1565b61754460208301846169c1565b9392505050565b600060408201905061756060008301856169c1565b61756d6020830184616a5b565b9392505050565b600060408201905061758960008301856169c1565b617596602083018461742a565b9392505050565b600060208201905081810360008301526175b781846169d0565b905092915050565b60006020820190506175d46000830184616a3d565b92915050565b60006020820190506175ef6000830184616a5b565b92915050565b600060408201905061760a6000830185616a5b565b61761760208301846169c1565b9392505050565b60006040820190506176336000830185616a5b565b6176406020830184616a5b565b9392505050565b600060408201905061765c6000830185616a5b565b818103602083015261766e8184616a9f565b90509392505050565b600060408201905061768c6000830185616a5b565b617699602083018461742a565b9392505050565b60006060820190506176b56000830186616a5b565b6176c2602083018561742a565b6176cf6040830184616a5b565b949350505050565b60006020820190506176ec6000830184616a81565b92915050565b60006020820190506177076000830184616a90565b92915050565b600060208201905081810360008301526177278184616a9f565b905092915050565b6000602082019050818103600083015261774881616ad8565b9050919050565b6000602082019050818103600083015261776881616b18565b9050919050565b6000602082019050818103600083015261778881616b58565b9050919050565b600060208201905081810360008301526177a881616b98565b9050919050565b600060208201905081810360008301526177c881616bd8565b9050919050565b600060208201905081810360008301526177e881616c3e565b9050919050565b6000602082019050818103600083015261780881616c7e565b9050919050565b6000602082019050818103600083015261782881616cbe565b9050919050565b6000602082019050818103600083015261784881616cfe565b9050919050565b6000602082019050818103600083015261786881616d3e565b9050919050565b6000602082019050818103600083015261788881616d7e565b9050919050565b600060208201905081810360008301526178a881616dbe565b9050919050565b600060208201905081810360008301526178c881616dfe565b9050919050565b600060208201905081810360008301526178e881616e3e565b9050919050565b6000602082019050818103600083015261790881616e7e565b9050919050565b6000602082019050818103600083015261792881616ebe565b9050919050565b6000602082019050818103600083015261794881616f3e565b9050919050565b6000602082019050818103600083015261796881616f7e565b9050919050565b6000602082019050818103600083015261798881616fbe565b9050919050565b600060208201905081810360008301526179a881616ffe565b9050919050565b600060208201905081810360008301526179c88161703e565b9050919050565b600060208201905081810360008301526179e88161707e565b9050919050565b60006020820190508181036000830152617a08816170e4565b9050919050565b60006020820190508181036000830152617a2881617124565b9050919050565b60006020820190508181036000830152617a488161718a565b9050919050565b60006020820190508181036000830152617a68816171ca565b9050919050565b60006020820190508181036000830152617a888161720a565b9050919050565b60006020820190508181036000830152617aa8816172a4565b9050919050565b60006020820190508181036000830152617ac8816172e4565b9050919050565b60006020820190508181036000830152617ae881617324565b9050919050565b600061012082019050617b056000830184617364565b92915050565b6000602082019050617b20600083018461742a565b92915050565b6000608082019050617b3b600083018761742a565b617b4860208301866169a3565b617b55604083018561742a565b617b62606083018461742a565b95945050505050565b6000604082019050617b80600083018561742a565b617b8d6020830184616a5b565b9392505050565b6000604082019050617ba9600083018561742a565b617bb6602083018461742a565b9392505050565b6000606082019050617bd2600083018661742a565b617bdf602083018561742a565b617bec604083018461742a565b949350505050565b600060a082019050617c09600083018861742a565b617c16602083018761742a565b617c23604083018661742a565b617c306060830185616a5b565b617c3d608083018461742a565b9695505050505050565b6000604051905081810181811067ffffffffffffffff82111715617c6a57600080fd5b8060405250919050565b6000819050602082019050919050565b600081519050919050565b600081519050919050565b6000602082019050919050565b600082825260208201905092915050565b600081905092915050565b600082825260208201905092915050565b600081905092915050565b6000617cea82617d19565b9050919050565b6000617cfc82617d19565b9050919050565b60008115159050919050565b6000819050919050565b600073ffffffffffffffffffffffffffffffffffffffff82169050919050565b6000819050919050565b6000617d4e82617d9d565b9050919050565b6000617d6082617d67565b9050919050565b6000617d7282617d19565b9050919050565b6000617d8482617d8b565b9050919050565b6000617d9682617d19565b9050919050565b6000617da882617daf565b9050919050565b6000617dba82617d19565b9050919050565b60005b83811015617ddf578082015181840152602081019050617dc4565b83811115617dee576000848401525b50505050565b6000819050919050565b6000601f19601f8301169050919050565b617e1881617cdf565b8114617e2357600080fd5b50565b617e2f81617cf1565b8114617e3a57600080fd5b50565b617e4681617d03565b8114617e5157600080fd5b50565b617e5d81617d0f565b8114617e6857600080fd5b50565b617e7481617d39565b8114617e7f57600080fd5b5056fea365627a7a7231582016415f6f0e3b6dfe050e9ac654a58a4205e6ed66f7932b02713400891b2a20226c6578706572696d656e74616cf564736f6c63430005100040",
  "linkReferences": {
    "contracts/SafeDecimalMath.sol": {
      "SafeDecimalMath": [
        {
          "length": 20,
          "start": 4136
        },
        {
          "length": 20,
          "start": 4473
        },
        {
          "length": 20,
          "start": 6302
        },
        {
          "length": 20,
          "start": 9783
        },
        {
          "length": 20,
          "start": 17598
        },
        {
          "length": 20,
          "start": 21900
        }
      ]
    }
  },
  "deployedLinkReferences": {
    "contracts/SafeDecimalMath.sol": {
      "SafeDecimalMath": [
        {
          "length": 20,
          "start": 2814
        },
        {
          "length": 20,
          "start": 3151
        },
        {
          "length": 20,
          "start": 4980
        },
        {
          "length": 20,
          "start": 8461
        },
        {
          "length": 20,
          "start": 16276
        },
        {
          "length": 20,
          "start": 20578
        }
      ]
    }
  }
}