{
  "contractName": "BaseImmutableAdminUpgradeabilityProxy",
  "abi": [
    {
      "inputs": [
        {
          "internalType": "address",
          "name": "admin_",
          "type": "address"
        }
      ],
      "stateMutability": "nonpayable",
      "type": "constructor"
    },
    {
      "anonymous": false,
      "inputs": [
        {
          "indexed": true,
          "internalType": "address",
          "name": "implementation",
          "type": "address"
        }
      ],
      "name": "Upgraded",
      "type": "event"
    },
    {
      "stateMutability": "payable",
      "type": "fallback"
    },
    {
      "stateMutability": "payable",
      "type": "receive"
    },
    {
      "inputs": [],
      "name": "admin",
      "outputs": [
        {
          "internalType": "address",
          "name": "_admin",
          "type": "address"
        }
      ],
      "stateMutability": "nonpayable",
      "type": "function"
    },
    {
      "inputs": [],
      "name": "implementation",
      "outputs": [
        {
          "internalType": "address",
          "name": "impl_",
          "type": "address"
        }
      ],
      "stateMutability": "nonpayable",
      "type": "function"
    },
    {
      "inputs": [
        {
          "internalType": "address",
          "name": "newImplementation",
          "type": "address"
        }
      ],
      "name": "upgradeTo",
      "outputs": [],
      "stateMutability": "nonpayable",
      "type": "function"
    },
    {
      "inputs": [
        {
          "internalType": "address",
          "name": "newImplementation",
          "type": "address"
        },
        {
          "internalType": "bytes",
          "name": "data",
          "type": "bytes"
        }
      ],
      "name": "upgradeToAndCall",
      "outputs": [],
      "stateMutability": "payable",
      "type": "function"
    }
  ],
  "bytecode": "0x60a060405234801561001057600080fd5b5060405161066438038061066483398101604081905261002f91610044565b60601b6001600160601b031916608052610072565b600060208284031215610055578081fd5b81516001600160a01b038116811461006b578182fd5b9392505050565b60805160601c6105b26100b26000396000818160ec01528181610136015281816101ef0152818161023c01528181610265015261029401526105b26000f3fe6080604052600436106100435760003560e01c80633659cfe6146100545780634f1ef286146100745780635c60da1b14610087578063f851a440146100b25761004a565b3661004a57005b6100526100c7565b005b34801561006057600080fd5b5061005261006f36600461040a565b6100e1565b61005261008236600461042b565b61012b565b34801561009357600080fd5b5061009c6101e2565b6040516100a991906104b9565b60405180910390f35b3480156100be57600080fd5b5061009c61022f565b6100cf610289565b6100df6100da6102e3565b610308565b565b336001600160a01b037f00000000000000000000000000000000000000000000000000000000000000001614156101205761011b8161032c565b610128565b6101286100c7565b50565b336001600160a01b037f00000000000000000000000000000000000000000000000000000000000000001614156101d5576101658361032c565b6000836001600160a01b031683836040516101819291906104a9565b600060405180830381855af49150503d80600081146101bc576040519150601f19603f3d011682016040523d82523d6000602084013e6101c1565b606091505b50509050806101cf57600080fd5b506101dd565b6101dd6100c7565b505050565b6000336001600160a01b037f00000000000000000000000000000000000000000000000000000000000000001614156102245761021d6102e3565b905061022c565b61022c6100c7565b90565b6000336001600160a01b037f000000000000000000000000000000000000000000000000000000000000000016141561022457507f000000000000000000000000000000000000000000000000000000000000000061022c565b336001600160a01b037f00000000000000000000000000000000000000000000000000000000000000001614156102db5760405162461bcd60e51b81526004016102d2906104cd565b60405180910390fd5b6100df6100df565b7f360894a13ba1a3210667c828492db98dca3e2076cc3735a920a3ca505d382bbc5490565b3660008037600080366000845af43d6000803e808015610327573d6000f35b3d6000fd5b6103358161036c565b6040516001600160a01b038216907fbc7cd75a20ee27fd9adebab32041f755214dbc6bffa90cc0225b39da2e5c2d3b90600090a250565b610375816103b5565b6103915760405162461bcd60e51b81526004016102d29061051f565b7f360894a13ba1a3210667c828492db98dca3e2076cc3735a920a3ca505d382bbc55565b6000813f7fc5d2460186f7233c927e7db2dcc703c0e500b653ca82273b7bfad8045d85a4708181148015906103e957508115155b925050505b919050565b80356001600160a01b03811681146103ee57600080fd5b60006020828403121561041b578081fd5b610424826103f3565b9392505050565b60008060006040848603121561043f578182fd5b610448846103f3565b9250602084013567ffffffffffffffff80821115610464578384fd5b818601915086601f830112610477578384fd5b813581811115610485578485fd5b876020828501011115610496578485fd5b6020830194508093505050509250925092565b6000828483379101908152919050565b6001600160a01b0391909116815260200190565b60208082526032908201527f43616e6e6f742063616c6c2066616c6c6261636b2066756e6374696f6e20667260408201527137b6903a343290383937bc3c9030b236b4b760711b606082015260800190565b6020808252603b908201527f43616e6e6f742073657420612070726f787920696d706c656d656e746174696f60408201527f6e20746f2061206e6f6e2d636f6e74726163742061646472657373000000000060608201526080019056fea26469706673582212207ae35a7c40b71f955045b95b1a2344bed7c4348f3e73589415e43a3442fbb0db64736f6c63430008000033",
  "immutableReferences": {
    "5215": [
      {
        "length": 32,
        "start": 236
      },
      {
        "length": 32,
        "start": 310
      },
      {
        "length": 32,
        "start": 495
      },
      {
        "length": 32,
        "start": 572
      },
      {
        "length": 32,
        "start": 613
      },
      {
        "length": 32,
        "start": 660
      }
    ]
  },
  "source": "// SPDX-License-Identifier: agpl-3.0\npragma solidity ^0.8.0;\n\nimport '../dependencies/BaseUpgradeabilityProxy.sol';\n\n/**\n * @title BaseImmutableAdminUpgradeabilityProxy\n * @author Aave, inspired by the OpenZeppelin upgradeability proxy pattern\n * @dev This contract combines an upgradeability proxy with an authorization\n * mechanism for administrative tasks. The admin role is stored in an immutable, which\n * helps saving transactions costs\n * All external functions in this contract must be guarded by the\n * `ifAdmin` modifier. See ethereum/solidity#3864 for a Solidity\n * feature proposal that would enable this to be done automatically.\n */\ncontract BaseImmutableAdminUpgradeabilityProxy is BaseUpgradeabilityProxy {\n  address immutable ADMIN;\n\n  constructor(address admin_) {\n    ADMIN = admin_;\n  }\n\n  modifier ifAdmin() {\n    if (msg.sender == ADMIN) {\n      _;\n    } else {\n      _fallback();\n    }\n  }\n\n\n  function admin() external ifAdmin returns (address _admin) {\n    _admin =  ADMIN;\n  }\n\n  \n  function implementation() external ifAdmin returns (address impl_) {\n    impl_ = _implementation();\n  }\n\n  /**\n   * @dev Upgrade the backing implementation of the proxy.\n   * Only the admin can call this function.\n   * @param newImplementation Address of the new implementation.\n   */\n  function upgradeTo(address newImplementation) external ifAdmin {\n    _upgradeTo(newImplementation);\n  }\n\n  /**\n   * @dev Upgrade the backing implementation of the proxy and call a function\n   * on the new implementation.\n   * This is useful to initialize the proxied contract.\n   * @param newImplementation Address of the new implementation.\n   * @param data Data to send as msg.data in the low level call.\n   * It should include the signature and the parameters of the function to be called, as described in\n   * https://solidity.readthedocs.io/en/v0.4.24/abi-spec.html#function-selector-and-argument-encoding.\n   */\n  function upgradeToAndCall(address newImplementation, bytes calldata data)\n    external\n    payable\n    ifAdmin\n  {\n    _upgradeTo(newImplementation);\n    (bool success, ) = newImplementation.delegatecall(data);\n    require(success);\n  }\n\n  /**\n   * @dev Only fall back when the sender is not the admin.\n   */\n  function _willFallback() internal virtual override {\n    require(msg.sender != ADMIN, 'Cannot call fallback function from the proxy admin');\n    super._willFallback();\n  }\n}\n",
  "sourcePath": "/Users/dennismacpro/Projects/Defi/Ethereum-Solidity-Collection/icarus-protocol/defi-seeder/contracts/aave/v2/libraries/BaseImmutableAdminUpgradeabilityProxy.sol",
  "compiler": {
    "name": "solc",
    "version": "0.8.0+commit.c7dfd78e.Emscripten.clang"
  },
  "schemaVersion": "3.3.4",
  "updatedAt": "2021-03-31T20:20:03.683Z",
  "devdoc": {
    "author": "Aave, inspired by the OpenZeppelin upgradeability proxy pattern",
    "details": "This contract combines an upgradeability proxy with an authorization mechanism for administrative tasks. The admin role is stored in an immutable, which helps saving transactions costs All external functions in this contract must be guarded by the `ifAdmin` modifier. See ethereum/solidity#3864 for a Solidity feature proposal that would enable this to be done automatically.",
    "kind": "dev",
    "methods": {
      "upgradeTo(address)": {
        "details": "Upgrade the backing implementation of the proxy. Only the admin can call this function.",
        "params": {
          "newImplementation": "Address of the new implementation."
        }
      },
      "upgradeToAndCall(address,bytes)": {
        "details": "Upgrade the backing implementation of the proxy and call a function on the new implementation. This is useful to initialize the proxied contract.",
        "params": {
          "data": "Data to send as msg.data in the low level call. It should include the signature and the parameters of the function to be called, as described in https://solidity.readthedocs.io/en/v0.4.24/abi-spec.html#function-selector-and-argument-encoding.",
          "newImplementation": "Address of the new implementation."
        }
      }
    },
    "title": "BaseImmutableAdminUpgradeabilityProxy",
    "version": 1
  },
  "userdoc": {
    "kind": "user",
    "methods": {},
    "version": 1
  }
}