{
  "contractName": "CErc20",
  "abi": [
    {
      "anonymous": false,
      "inputs": [
        {
          "indexed": false,
          "internalType": "uint256",
          "name": "cashPrior",
          "type": "uint256"
        },
        {
          "indexed": false,
          "internalType": "uint256",
          "name": "interestAccumulated",
          "type": "uint256"
        },
        {
          "indexed": false,
          "internalType": "uint256",
          "name": "borrowIndex",
          "type": "uint256"
        },
        {
          "indexed": false,
          "internalType": "uint256",
          "name": "totalBorrows",
          "type": "uint256"
        }
      ],
      "name": "AccrueInterest",
      "type": "event"
    },
    {
      "anonymous": false,
      "inputs": [
        {
          "indexed": true,
          "internalType": "address",
          "name": "owner",
          "type": "address"
        },
        {
          "indexed": true,
          "internalType": "address",
          "name": "spender",
          "type": "address"
        },
        {
          "indexed": false,
          "internalType": "uint256",
          "name": "amount",
          "type": "uint256"
        }
      ],
      "name": "Approval",
      "type": "event"
    },
    {
      "anonymous": false,
      "inputs": [
        {
          "indexed": false,
          "internalType": "address",
          "name": "borrower",
          "type": "address"
        },
        {
          "indexed": false,
          "internalType": "uint256",
          "name": "borrowAmount",
          "type": "uint256"
        },
        {
          "indexed": false,
          "internalType": "uint256",
          "name": "accountBorrows",
          "type": "uint256"
        },
        {
          "indexed": false,
          "internalType": "uint256",
          "name": "totalBorrows",
          "type": "uint256"
        }
      ],
      "name": "Borrow",
      "type": "event"
    },
    {
      "anonymous": false,
      "inputs": [
        {
          "indexed": false,
          "internalType": "uint256",
          "name": "error",
          "type": "uint256"
        },
        {
          "indexed": false,
          "internalType": "uint256",
          "name": "info",
          "type": "uint256"
        },
        {
          "indexed": false,
          "internalType": "uint256",
          "name": "detail",
          "type": "uint256"
        }
      ],
      "name": "Failure",
      "type": "event"
    },
    {
      "anonymous": false,
      "inputs": [
        {
          "indexed": false,
          "internalType": "address",
          "name": "liquidator",
          "type": "address"
        },
        {
          "indexed": false,
          "internalType": "address",
          "name": "borrower",
          "type": "address"
        },
        {
          "indexed": false,
          "internalType": "uint256",
          "name": "repayAmount",
          "type": "uint256"
        },
        {
          "indexed": false,
          "internalType": "address",
          "name": "cTokenCollateral",
          "type": "address"
        },
        {
          "indexed": false,
          "internalType": "uint256",
          "name": "seizeTokens",
          "type": "uint256"
        }
      ],
      "name": "LiquidateBorrow",
      "type": "event"
    },
    {
      "anonymous": false,
      "inputs": [
        {
          "indexed": false,
          "internalType": "address",
          "name": "minter",
          "type": "address"
        },
        {
          "indexed": false,
          "internalType": "uint256",
          "name": "mintAmount",
          "type": "uint256"
        },
        {
          "indexed": false,
          "internalType": "uint256",
          "name": "mintTokens",
          "type": "uint256"
        }
      ],
      "name": "Mint",
      "type": "event"
    },
    {
      "anonymous": false,
      "inputs": [
        {
          "indexed": false,
          "internalType": "address",
          "name": "oldAdmin",
          "type": "address"
        },
        {
          "indexed": false,
          "internalType": "address",
          "name": "newAdmin",
          "type": "address"
        }
      ],
      "name": "NewAdmin",
      "type": "event"
    },
    {
      "anonymous": false,
      "inputs": [
        {
          "indexed": false,
          "internalType": "contract ComptrollerInterface",
          "name": "oldComptroller",
          "type": "address"
        },
        {
          "indexed": false,
          "internalType": "contract ComptrollerInterface",
          "name": "newComptroller",
          "type": "address"
        }
      ],
      "name": "NewComptroller",
      "type": "event"
    },
    {
      "anonymous": false,
      "inputs": [
        {
          "indexed": false,
          "internalType": "contract InterestRateModel",
          "name": "oldInterestRateModel",
          "type": "address"
        },
        {
          "indexed": false,
          "internalType": "contract InterestRateModel",
          "name": "newInterestRateModel",
          "type": "address"
        }
      ],
      "name": "NewMarketInterestRateModel",
      "type": "event"
    },
    {
      "anonymous": false,
      "inputs": [
        {
          "indexed": false,
          "internalType": "address",
          "name": "oldPendingAdmin",
          "type": "address"
        },
        {
          "indexed": false,
          "internalType": "address",
          "name": "newPendingAdmin",
          "type": "address"
        }
      ],
      "name": "NewPendingAdmin",
      "type": "event"
    },
    {
      "anonymous": false,
      "inputs": [
        {
          "indexed": false,
          "internalType": "uint256",
          "name": "oldReserveFactorMantissa",
          "type": "uint256"
        },
        {
          "indexed": false,
          "internalType": "uint256",
          "name": "newReserveFactorMantissa",
          "type": "uint256"
        }
      ],
      "name": "NewReserveFactor",
      "type": "event"
    },
    {
      "anonymous": false,
      "inputs": [
        {
          "indexed": false,
          "internalType": "address",
          "name": "redeemer",
          "type": "address"
        },
        {
          "indexed": false,
          "internalType": "uint256",
          "name": "redeemAmount",
          "type": "uint256"
        },
        {
          "indexed": false,
          "internalType": "uint256",
          "name": "redeemTokens",
          "type": "uint256"
        }
      ],
      "name": "Redeem",
      "type": "event"
    },
    {
      "anonymous": false,
      "inputs": [
        {
          "indexed": false,
          "internalType": "address",
          "name": "payer",
          "type": "address"
        },
        {
          "indexed": false,
          "internalType": "address",
          "name": "borrower",
          "type": "address"
        },
        {
          "indexed": false,
          "internalType": "uint256",
          "name": "repayAmount",
          "type": "uint256"
        },
        {
          "indexed": false,
          "internalType": "uint256",
          "name": "accountBorrows",
          "type": "uint256"
        },
        {
          "indexed": false,
          "internalType": "uint256",
          "name": "totalBorrows",
          "type": "uint256"
        }
      ],
      "name": "RepayBorrow",
      "type": "event"
    },
    {
      "anonymous": false,
      "inputs": [
        {
          "indexed": false,
          "internalType": "address",
          "name": "benefactor",
          "type": "address"
        },
        {
          "indexed": false,
          "internalType": "uint256",
          "name": "addAmount",
          "type": "uint256"
        },
        {
          "indexed": false,
          "internalType": "uint256",
          "name": "newTotalReserves",
          "type": "uint256"
        }
      ],
      "name": "ReservesAdded",
      "type": "event"
    },
    {
      "anonymous": false,
      "inputs": [
        {
          "indexed": false,
          "internalType": "address",
          "name": "admin",
          "type": "address"
        },
        {
          "indexed": false,
          "internalType": "uint256",
          "name": "reduceAmount",
          "type": "uint256"
        },
        {
          "indexed": false,
          "internalType": "uint256",
          "name": "newTotalReserves",
          "type": "uint256"
        }
      ],
      "name": "ReservesReduced",
      "type": "event"
    },
    {
      "anonymous": false,
      "inputs": [
        {
          "indexed": true,
          "internalType": "address",
          "name": "from",
          "type": "address"
        },
        {
          "indexed": true,
          "internalType": "address",
          "name": "to",
          "type": "address"
        },
        {
          "indexed": false,
          "internalType": "uint256",
          "name": "amount",
          "type": "uint256"
        }
      ],
      "name": "Transfer",
      "type": "event"
    },
    {
      "inputs": [],
      "name": "_acceptAdmin",
      "outputs": [
        {
          "internalType": "uint256",
          "name": "",
          "type": "uint256"
        }
      ],
      "stateMutability": "nonpayable",
      "type": "function"
    },
    {
      "inputs": [
        {
          "internalType": "uint256",
          "name": "reduceAmount",
          "type": "uint256"
        }
      ],
      "name": "_reduceReserves",
      "outputs": [
        {
          "internalType": "uint256",
          "name": "",
          "type": "uint256"
        }
      ],
      "stateMutability": "nonpayable",
      "type": "function"
    },
    {
      "inputs": [
        {
          "internalType": "contract ComptrollerInterface",
          "name": "newComptroller",
          "type": "address"
        }
      ],
      "name": "_setComptroller",
      "outputs": [
        {
          "internalType": "uint256",
          "name": "",
          "type": "uint256"
        }
      ],
      "stateMutability": "nonpayable",
      "type": "function"
    },
    {
      "inputs": [
        {
          "internalType": "contract InterestRateModel",
          "name": "newInterestRateModel",
          "type": "address"
        }
      ],
      "name": "_setInterestRateModel",
      "outputs": [
        {
          "internalType": "uint256",
          "name": "",
          "type": "uint256"
        }
      ],
      "stateMutability": "nonpayable",
      "type": "function"
    },
    {
      "inputs": [
        {
          "internalType": "address payable",
          "name": "newPendingAdmin",
          "type": "address"
        }
      ],
      "name": "_setPendingAdmin",
      "outputs": [
        {
          "internalType": "uint256",
          "name": "",
          "type": "uint256"
        }
      ],
      "stateMutability": "nonpayable",
      "type": "function"
    },
    {
      "inputs": [
        {
          "internalType": "uint256",
          "name": "newReserveFactorMantissa",
          "type": "uint256"
        }
      ],
      "name": "_setReserveFactor",
      "outputs": [
        {
          "internalType": "uint256",
          "name": "",
          "type": "uint256"
        }
      ],
      "stateMutability": "nonpayable",
      "type": "function"
    },
    {
      "inputs": [],
      "name": "accrualBlockNumber",
      "outputs": [
        {
          "internalType": "uint256",
          "name": "",
          "type": "uint256"
        }
      ],
      "stateMutability": "view",
      "type": "function"
    },
    {
      "inputs": [],
      "name": "accrueInterest",
      "outputs": [
        {
          "internalType": "uint256",
          "name": "",
          "type": "uint256"
        }
      ],
      "stateMutability": "nonpayable",
      "type": "function"
    },
    {
      "inputs": [],
      "name": "admin",
      "outputs": [
        {
          "internalType": "address payable",
          "name": "",
          "type": "address"
        }
      ],
      "stateMutability": "view",
      "type": "function"
    },
    {
      "inputs": [
        {
          "internalType": "address",
          "name": "owner",
          "type": "address"
        },
        {
          "internalType": "address",
          "name": "spender",
          "type": "address"
        }
      ],
      "name": "allowance",
      "outputs": [
        {
          "internalType": "uint256",
          "name": "",
          "type": "uint256"
        }
      ],
      "stateMutability": "view",
      "type": "function"
    },
    {
      "inputs": [
        {
          "internalType": "address",
          "name": "spender",
          "type": "address"
        },
        {
          "internalType": "uint256",
          "name": "amount",
          "type": "uint256"
        }
      ],
      "name": "approve",
      "outputs": [
        {
          "internalType": "bool",
          "name": "",
          "type": "bool"
        }
      ],
      "stateMutability": "nonpayable",
      "type": "function"
    },
    {
      "inputs": [
        {
          "internalType": "address",
          "name": "owner",
          "type": "address"
        }
      ],
      "name": "balanceOf",
      "outputs": [
        {
          "internalType": "uint256",
          "name": "",
          "type": "uint256"
        }
      ],
      "stateMutability": "view",
      "type": "function"
    },
    {
      "inputs": [
        {
          "internalType": "address",
          "name": "owner",
          "type": "address"
        }
      ],
      "name": "balanceOfUnderlying",
      "outputs": [
        {
          "internalType": "uint256",
          "name": "",
          "type": "uint256"
        }
      ],
      "stateMutability": "nonpayable",
      "type": "function"
    },
    {
      "inputs": [
        {
          "internalType": "address",
          "name": "account",
          "type": "address"
        }
      ],
      "name": "borrowBalanceCurrent",
      "outputs": [
        {
          "internalType": "uint256",
          "name": "",
          "type": "uint256"
        }
      ],
      "stateMutability": "nonpayable",
      "type": "function"
    },
    {
      "inputs": [
        {
          "internalType": "address",
          "name": "account",
          "type": "address"
        }
      ],
      "name": "borrowBalanceStored",
      "outputs": [
        {
          "internalType": "uint256",
          "name": "",
          "type": "uint256"
        }
      ],
      "stateMutability": "view",
      "type": "function"
    },
    {
      "inputs": [],
      "name": "borrowIndex",
      "outputs": [
        {
          "internalType": "uint256",
          "name": "",
          "type": "uint256"
        }
      ],
      "stateMutability": "view",
      "type": "function"
    },
    {
      "inputs": [],
      "name": "borrowRatePerBlock",
      "outputs": [
        {
          "internalType": "uint256",
          "name": "",
          "type": "uint256"
        }
      ],
      "stateMutability": "view",
      "type": "function"
    },
    {
      "inputs": [],
      "name": "comptroller",
      "outputs": [
        {
          "internalType": "contract ComptrollerInterface",
          "name": "",
          "type": "address"
        }
      ],
      "stateMutability": "view",
      "type": "function"
    },
    {
      "inputs": [],
      "name": "decimals",
      "outputs": [
        {
          "internalType": "uint8",
          "name": "",
          "type": "uint8"
        }
      ],
      "stateMutability": "view",
      "type": "function"
    },
    {
      "inputs": [],
      "name": "exchangeRateCurrent",
      "outputs": [
        {
          "internalType": "uint256",
          "name": "",
          "type": "uint256"
        }
      ],
      "stateMutability": "nonpayable",
      "type": "function"
    },
    {
      "inputs": [],
      "name": "exchangeRateStored",
      "outputs": [
        {
          "internalType": "uint256",
          "name": "",
          "type": "uint256"
        }
      ],
      "stateMutability": "view",
      "type": "function"
    },
    {
      "inputs": [
        {
          "internalType": "address",
          "name": "account",
          "type": "address"
        }
      ],
      "name": "getAccountSnapshot",
      "outputs": [
        {
          "internalType": "uint256",
          "name": "",
          "type": "uint256"
        },
        {
          "internalType": "uint256",
          "name": "",
          "type": "uint256"
        },
        {
          "internalType": "uint256",
          "name": "",
          "type": "uint256"
        },
        {
          "internalType": "uint256",
          "name": "",
          "type": "uint256"
        }
      ],
      "stateMutability": "view",
      "type": "function"
    },
    {
      "inputs": [],
      "name": "getCash",
      "outputs": [
        {
          "internalType": "uint256",
          "name": "",
          "type": "uint256"
        }
      ],
      "stateMutability": "view",
      "type": "function"
    },
    {
      "inputs": [],
      "name": "interestRateModel",
      "outputs": [
        {
          "internalType": "contract InterestRateModel",
          "name": "",
          "type": "address"
        }
      ],
      "stateMutability": "view",
      "type": "function"
    },
    {
      "inputs": [],
      "name": "isCToken",
      "outputs": [
        {
          "internalType": "bool",
          "name": "",
          "type": "bool"
        }
      ],
      "stateMutability": "view",
      "type": "function"
    },
    {
      "inputs": [],
      "name": "name",
      "outputs": [
        {
          "internalType": "string",
          "name": "",
          "type": "string"
        }
      ],
      "stateMutability": "view",
      "type": "function"
    },
    {
      "inputs": [],
      "name": "pendingAdmin",
      "outputs": [
        {
          "internalType": "address payable",
          "name": "",
          "type": "address"
        }
      ],
      "stateMutability": "view",
      "type": "function"
    },
    {
      "inputs": [],
      "name": "reserveFactorMantissa",
      "outputs": [
        {
          "internalType": "uint256",
          "name": "",
          "type": "uint256"
        }
      ],
      "stateMutability": "view",
      "type": "function"
    },
    {
      "inputs": [
        {
          "internalType": "address",
          "name": "liquidator",
          "type": "address"
        },
        {
          "internalType": "address",
          "name": "borrower",
          "type": "address"
        },
        {
          "internalType": "uint256",
          "name": "seizeTokens",
          "type": "uint256"
        }
      ],
      "name": "seize",
      "outputs": [
        {
          "internalType": "uint256",
          "name": "",
          "type": "uint256"
        }
      ],
      "stateMutability": "nonpayable",
      "type": "function"
    },
    {
      "inputs": [],
      "name": "supplyRatePerBlock",
      "outputs": [
        {
          "internalType": "uint256",
          "name": "",
          "type": "uint256"
        }
      ],
      "stateMutability": "view",
      "type": "function"
    },
    {
      "inputs": [],
      "name": "symbol",
      "outputs": [
        {
          "internalType": "string",
          "name": "",
          "type": "string"
        }
      ],
      "stateMutability": "view",
      "type": "function"
    },
    {
      "inputs": [],
      "name": "totalBorrows",
      "outputs": [
        {
          "internalType": "uint256",
          "name": "",
          "type": "uint256"
        }
      ],
      "stateMutability": "view",
      "type": "function"
    },
    {
      "inputs": [],
      "name": "totalBorrowsCurrent",
      "outputs": [
        {
          "internalType": "uint256",
          "name": "",
          "type": "uint256"
        }
      ],
      "stateMutability": "nonpayable",
      "type": "function"
    },
    {
      "inputs": [],
      "name": "totalReserves",
      "outputs": [
        {
          "internalType": "uint256",
          "name": "",
          "type": "uint256"
        }
      ],
      "stateMutability": "view",
      "type": "function"
    },
    {
      "inputs": [],
      "name": "totalSupply",
      "outputs": [
        {
          "internalType": "uint256",
          "name": "",
          "type": "uint256"
        }
      ],
      "stateMutability": "view",
      "type": "function"
    },
    {
      "inputs": [
        {
          "internalType": "address",
          "name": "dst",
          "type": "address"
        },
        {
          "internalType": "uint256",
          "name": "amount",
          "type": "uint256"
        }
      ],
      "name": "transfer",
      "outputs": [
        {
          "internalType": "bool",
          "name": "",
          "type": "bool"
        }
      ],
      "stateMutability": "nonpayable",
      "type": "function"
    },
    {
      "inputs": [
        {
          "internalType": "address",
          "name": "src",
          "type": "address"
        },
        {
          "internalType": "address",
          "name": "dst",
          "type": "address"
        },
        {
          "internalType": "uint256",
          "name": "amount",
          "type": "uint256"
        }
      ],
      "name": "transferFrom",
      "outputs": [
        {
          "internalType": "bool",
          "name": "",
          "type": "bool"
        }
      ],
      "stateMutability": "nonpayable",
      "type": "function"
    },
    {
      "inputs": [],
      "name": "underlying",
      "outputs": [
        {
          "internalType": "address",
          "name": "",
          "type": "address"
        }
      ],
      "stateMutability": "view",
      "type": "function"
    },
    {
      "inputs": [
        {
          "internalType": "address",
          "name": "underlying_",
          "type": "address"
        },
        {
          "internalType": "contract ComptrollerInterface",
          "name": "comptroller_",
          "type": "address"
        },
        {
          "internalType": "contract InterestRateModel",
          "name": "interestRateModel_",
          "type": "address"
        },
        {
          "internalType": "uint256",
          "name": "initialExchangeRateMantissa_",
          "type": "uint256"
        },
        {
          "internalType": "string",
          "name": "name_",
          "type": "string"
        },
        {
          "internalType": "string",
          "name": "symbol_",
          "type": "string"
        },
        {
          "internalType": "uint8",
          "name": "decimals_",
          "type": "uint8"
        }
      ],
      "name": "initialize",
      "outputs": [],
      "stateMutability": "nonpayable",
      "type": "function"
    },
    {
      "inputs": [
        {
          "internalType": "contract ComptrollerInterface",
          "name": "comptroller_",
          "type": "address"
        },
        {
          "internalType": "contract InterestRateModel",
          "name": "interestRateModel_",
          "type": "address"
        },
        {
          "internalType": "uint256",
          "name": "initialExchangeRateMantissa_",
          "type": "uint256"
        },
        {
          "internalType": "string",
          "name": "name_",
          "type": "string"
        },
        {
          "internalType": "string",
          "name": "symbol_",
          "type": "string"
        },
        {
          "internalType": "uint8",
          "name": "decimals_",
          "type": "uint8"
        }
      ],
      "name": "initialize",
      "outputs": [],
      "stateMutability": "nonpayable",
      "type": "function"
    },
    {
      "inputs": [
        {
          "internalType": "uint256",
          "name": "mintAmount",
          "type": "uint256"
        }
      ],
      "name": "mint",
      "outputs": [
        {
          "internalType": "uint256",
          "name": "",
          "type": "uint256"
        }
      ],
      "stateMutability": "nonpayable",
      "type": "function"
    },
    {
      "inputs": [
        {
          "internalType": "uint256",
          "name": "redeemTokens",
          "type": "uint256"
        }
      ],
      "name": "redeem",
      "outputs": [
        {
          "internalType": "uint256",
          "name": "",
          "type": "uint256"
        }
      ],
      "stateMutability": "nonpayable",
      "type": "function"
    },
    {
      "inputs": [
        {
          "internalType": "uint256",
          "name": "redeemAmount",
          "type": "uint256"
        }
      ],
      "name": "redeemUnderlying",
      "outputs": [
        {
          "internalType": "uint256",
          "name": "",
          "type": "uint256"
        }
      ],
      "stateMutability": "nonpayable",
      "type": "function"
    },
    {
      "inputs": [
        {
          "internalType": "uint256",
          "name": "borrowAmount",
          "type": "uint256"
        }
      ],
      "name": "borrow",
      "outputs": [
        {
          "internalType": "uint256",
          "name": "",
          "type": "uint256"
        }
      ],
      "stateMutability": "nonpayable",
      "type": "function"
    },
    {
      "inputs": [
        {
          "internalType": "uint256",
          "name": "repayAmount",
          "type": "uint256"
        }
      ],
      "name": "repayBorrow",
      "outputs": [
        {
          "internalType": "uint256",
          "name": "",
          "type": "uint256"
        }
      ],
      "stateMutability": "nonpayable",
      "type": "function"
    },
    {
      "inputs": [
        {
          "internalType": "address",
          "name": "borrower",
          "type": "address"
        },
        {
          "internalType": "uint256",
          "name": "repayAmount",
          "type": "uint256"
        }
      ],
      "name": "repayBorrowBehalf",
      "outputs": [
        {
          "internalType": "uint256",
          "name": "",
          "type": "uint256"
        }
      ],
      "stateMutability": "nonpayable",
      "type": "function"
    },
    {
      "inputs": [
        {
          "internalType": "address",
          "name": "borrower",
          "type": "address"
        },
        {
          "internalType": "uint256",
          "name": "repayAmount",
          "type": "uint256"
        },
        {
          "internalType": "contract CTokenInterface",
          "name": "cTokenCollateral",
          "type": "address"
        }
      ],
      "name": "liquidateBorrow",
      "outputs": [
        {
          "internalType": "uint256",
          "name": "",
          "type": "uint256"
        }
      ],
      "stateMutability": "nonpayable",
      "type": "function"
    },
    {
      "inputs": [
        {
          "internalType": "contract EIP20NonStandardInterface",
          "name": "token",
          "type": "address"
        }
      ],
      "name": "sweepToken",
      "outputs": [],
      "stateMutability": "nonpayable",
      "type": "function"
    },
    {
      "inputs": [
        {
          "internalType": "uint256",
          "name": "addAmount",
          "type": "uint256"
        }
      ],
      "name": "_addReserves",
      "outputs": [
        {
          "internalType": "uint256",
          "name": "",
          "type": "uint256"
        }
      ],
      "stateMutability": "nonpayable",
      "type": "function"
    }
  ],
  "bytecode": "0x608060405234801561001057600080fd5b5061544c806100206000396000f3fe608060405234801561001057600080fd5b50600436106102bb5760003560e01c8063852a12e311610182578063bd6d894d116100e9578063f2b3abbd116100a2578063f851a4401161007c578063f851a44014610597578063f8f9da281461059f578063fca7820b146105a7578063fe9c44ae146105ba576102bb565b8063f2b3abbd14610569578063f3fdb15a1461057c578063f5e3c46214610584576102bb565b8063bd6d894d146104fd578063c37f68e214610505578063c5ebeaec14610528578063db006a751461053b578063dd62ed3e1461054e578063e9c714f214610561576102bb565b8063a6afed951161013b578063a6afed95146104ac578063a9059cbb146104b4578063aa5af0fd146104c7578063ae9d70b0146104cf578063b2a02ff1146104d7578063b71d1a0c146104ea576102bb565b8063852a12e3146104505780638f840ddd1461046357806395d89b411461046b57806395dd91931461047357806399d8c1b414610486578063a0712d6814610499576102bb565b8063313ce567116102265780635fe3b567116101df5780635fe3b5671461040a578063601a0bf1146104125780636c540baf146104255780636f307dc31461042d57806370a082311461043557806373acee9814610448576102bb565b8063313ce567146103ac5780633af9e669146103c15780633b1d21a2146103d45780633e941010146103dc5780634576b5db146103ef57806347bd371814610402576102bb565b8063182df0f511610278578063182df0f5146103415780631a31d465146103495780631be195601461035e57806323b872dd146103715780632608f818146103845780632678224714610397576102bb565b806306fdde03146102c0578063095ea7b3146102de5780630e752702146102fe578063173b99041461031e57806317bfdfbc1461032657806318160ddd14610339575b600080fd5b6102c86105c2565b6040516102d59190614b3c565b60405180910390f35b6102f16102ec366004614817565b610650565b6040516102d59190614b31565b61031161030c366004614942565b6106be565b6040516102d591906152b3565b6103116106d4565b6103116103343660046146d0565b6106da565b610311610753565b610311610759565b61035c610357366004614764565b6107b1565b005b61035c61036c3660046146d0565b61085d565b6102f161037f366004614724565b61097b565b610311610392366004614817565b6109cb565b61039f6109e1565b6040516102d59190614995565b6103b46109f0565b6040516102d591906152fb565b6103116103cf3660046146d0565b6109f9565b610311610a87565b6103116103ea366004614942565b610a96565b6103116103fd3660046146d0565b610aa1565b610311610bc6565b61039f610bcc565b610311610420366004614942565b610bdb565b610311610c68565b61039f610c6e565b6103116104433660046146d0565b610c7d565b610311610c98565b61031161045e366004614942565b610cfe565b610311610d09565b6102c8610d0f565b6103116104813660046146d0565b610d1c565b61035c6104943660046148a3565b610d6e565b6103116104a7366004614942565b610ea4565b610311610eb0565b6102f16104c2366004614817565b61126e565b6103116112bd565b6103116112c3565b6103116104e5366004614724565b611357565b6103116104f83660046146d0565b6113a6565b61031161141f565b6105186105133660046146d0565b61148b565b6040516102d594939291906152e0565b610311610536366004614942565b611548565b610311610549366004614942565b611553565b61031161055c3660046146ec565b61155e565b610311611589565b6103116105773660046146d0565b611688565b61039f6116d6565b610311610592366004614842565b6116e5565b61039f6116fd565b610311611711565b6103116105b5366004614942565b611751565b6102f16117c1565b600180546105cf90615377565b80601f01602080910402602001604051908101604052809291908181526020018280546105fb90615377565b80156106485780601f1061061d57610100808354040283529160200191610648565b820191906000526020600020905b81548152906001019060200180831161062b57829003601f168201915b505050505081565b336000818152600f602090815260408083206001600160a01b03871680855292528083208590555191929182907f8c5be1e5ebec7d5bd14f71427d1e84f3dd0314c0f7b2291e5b200ac8c7c3b925906106aa9087906152b3565b60405180910390a360019150505b92915050565b6000806106ca836117c6565b509150505b919050565b60085481565b6000805460ff166107065760405162461bcd60e51b81526004016106fd90614f1a565b60405180910390fd5b6000805460ff19168155610718610eb0565b146107355760405162461bcd60e51b81526004016106fd90614b8f565b61073e82610d1c565b90505b6000805460ff19166001179055919050565b600d5481565b6000806000610766611860565b9092509050600082600381111561078d57634e487b7160e01b600052602160045260246000fd5b146107aa5760405162461bcd60e51b81526004016106fd90615150565b9150505b90565b6107bf868686868686610d6e565b601180546001600160a01b0319166001600160a01b038981169190911791829055604080516318160ddd60e01b8152905192909116916318160ddd91600480820192602092909190829003018186803b15801561081b57600080fd5b505afa15801561082f573d6000803e3d6000fd5b505050506040513d601f19601f82011682018060405250810190610853919061495a565b5050505050505050565b6011546001600160a01b038281169116141561088b5760405162461bcd60e51b81526004016106fd90614cb4565b6040516370a0823160e01b81526000906001600160a01b038316906370a08231906108ba903090600401614995565b60206040518083038186803b1580156108d257600080fd5b505afa1580156108e6573d6000803e3d6000fd5b505050506040513d601f19601f8201168201806040525081019061090a919061495a565b60035460405163a9059cbb60e01b81529192506001600160a01b038085169263a9059cbb9261094592610100909104169085906004016149a9565b600060405180830381600087803b15801561095f57600080fd5b505af1158015610973573d6000803e3d6000fd5b505050505050565b6000805460ff1661099e5760405162461bcd60e51b81526004016106fd90614f1a565b6000805460ff191681556109b433868686611937565b1490506000805460ff191660011790559392505050565b6000806109d88484611c01565b50949350505050565b6004546001600160a01b031681565b60035460ff1681565b6000806040518060200160405280610a0f61141f565b90526001600160a01b0384166000908152600e6020526040812054919250908190610a3b908490611c9d565b90925090506000826003811115610a6257634e487b7160e01b600052602160045260246000fd5b14610a7f5760405162461bcd60e51b81526004016106fd90614c3a565b949350505050565b6000610a91611cfe565b905090565b60006106b882611d81565b60035460009061010090046001600160a01b03163314610ace57610ac76001603f611e07565b90506106cf565b60055460408051623f1ee960e11b815290516001600160a01b0392831692851691627e3dd2916004808301926020929190829003018186803b158015610b1357600080fd5b505afa158015610b27573d6000803e3d6000fd5b505050506040513d601f19601f82011682018060405250810190610b4b9190614883565b610b675760405162461bcd60e51b81526004016106fd90614e3b565b600580546001600160a01b0319166001600160a01b0385161790556040517f7ac369dbd14fa5ea3f473ed67cc9d598964a77501540ba6751eb0b3decf5870d90610bb49083908690614a09565b60405180910390a160005b9392505050565b600b5481565b6005546001600160a01b031681565b6000805460ff16610bfe5760405162461bcd60e51b81526004016106fd90614f1a565b6000805460ff19168155610c10610eb0565b90508015610c4a57610c42816010811115610c3b57634e487b7160e01b600052602160045260246000fd5b6030611e07565b915050610741565b610c5383611ea3565b9150506000805460ff19166001179055919050565b60095481565b6011546001600160a01b031681565b6001600160a01b03166000908152600e602052604090205490565b6000805460ff16610cbb5760405162461bcd60e51b81526004016106fd90614f1a565b6000805460ff19168155610ccd610eb0565b14610cea5760405162461bcd60e51b81526004016106fd90614b8f565b50600b546000805460ff1916600117905590565b60006106b882611fb2565b600c5481565b600280546105cf90615377565b6000806000610d2a84612025565b90925090506000826003811115610d5157634e487b7160e01b600052602160045260246000fd5b14610bbf5760405162461bcd60e51b81526004016106fd90614ebd565b60035461010090046001600160a01b03163314610d9d5760405162461bcd60e51b81526004016106fd90614bbf565b600954158015610dad5750600a54155b610dc95760405162461bcd60e51b81526004016106fd90614c71565b600784905583610deb5760405162461bcd60e51b81526004016106fd90614da9565b6000610df687610aa1565b90508015610e165760405162461bcd60e51b81526004016106fd906150ad565b610e1e612100565b600955670de0b6b3a7640000600a55610e3686612104565b90508015610e565760405162461bcd60e51b81526004016106fd90614df9565b8351610e699060019060208701906144e5565b508251610e7d9060029060208601906144e5565b50506003805460ff90921660ff199283161790556000805490911660011790555050505050565b6000806106ca8361223a565b600080610ebb612100565b60095490915080821415610ed4576000925050506107ae565b6000610ede611cfe565b600b54600c54600a546006546040516315f2405360e01b81529495509293919290916000916001600160a01b0316906315f2405390610f25908890889088906004016152ca565b60206040518083038186803b158015610f3d57600080fd5b505afa158015610f51573d6000803e3d6000fd5b505050506040513d601f19601f82011682018060405250810190610f75919061495a565b905065048c27395000811115610f9d5760405162461bcd60e51b81526004016106fd90614f3e565b600080610faa89896122ad565b90925090506000826003811115610fd157634e487b7160e01b600052602160045260246000fd5b14610fee5760405162461bcd60e51b81526004016106fd90614fd2565b610ff6614569565b60008060008061101460405180602001604052808a815250876122d8565b9097509450600087600381111561103b57634e487b7160e01b600052602160045260246000fd5b146110815761106c6009600689600381111561106757634e487b7160e01b600052602160045260246000fd5b612354565b9e5050505050505050505050505050506107ae565b61108b858c611c9d565b909750935060008760038111156110b257634e487b7160e01b600052602160045260246000fd5b146110de5761106c6009600189600381111561106757634e487b7160e01b600052602160045260246000fd5b6110e8848c6123ef565b9097509250600087600381111561110f57634e487b7160e01b600052602160045260246000fd5b1461113b5761106c6009600489600381111561106757634e487b7160e01b600052602160045260246000fd5b6111566040518060200160405280600854815250858c61241f565b9097509150600087600381111561117d57634e487b7160e01b600052602160045260246000fd5b146111a95761106c6009600589600381111561106757634e487b7160e01b600052602160045260246000fd5b6111b4858a8b61241f565b909750905060008760038111156111db57634e487b7160e01b600052602160045260246000fd5b146112075761106c6009600389600381111561106757634e487b7160e01b600052602160045260246000fd5b60098e9055600a819055600b839055600c8290556040517f4dec04e750ca11537cabcd8a9eab06494de08da3735bc8871cd41250e190bc0490611251908e908790859088906152e0565b60405180910390a160009e50505050505050505050505050505090565b6000805460ff166112915760405162461bcd60e51b81526004016106fd90614f1a565b6000805460ff191681556112a733338686611937565b1490506000805460ff1916600117905592915050565b600a5481565b6006546000906001600160a01b031663b81688166112df611cfe565b600b54600c546008546040518563ffffffff1660e01b815260040161130794939291906152e0565b60206040518083038186803b15801561131f57600080fd5b505afa158015611333573d6000803e3d6000fd5b505050506040513d601f19601f82011682018060405250810190610a91919061495a565b6000805460ff1661137a5760405162461bcd60e51b81526004016106fd90614f1a565b6000805460ff1916905561139033858585612488565b90506000805460ff191660011790559392505050565b60035460009061010090046001600160a01b031633146113cc57610ac760016045611e07565b600480546001600160a01b038481166001600160a01b03198316179092556040519116907fca4f2f25d0898edd99413412fb94012f9e54ec8142f9b093e7720646a95b16a990610bb49083908690614a09565b6000805460ff166114425760405162461bcd60e51b81526004016106fd90614f1a565b6000805460ff19168155611454610eb0565b146114715760405162461bcd60e51b81526004016106fd90614b8f565b611479610759565b90506000805460ff1916600117905590565b6001600160a01b0381166000908152600e60205260408120548190819081908180806114b689612025565b9350905060008160038111156114dc57634e487b7160e01b600052602160045260246000fd5b146114fa5760095b6000806000975097509750975050505050611541565b611502611860565b92509050600081600381111561152857634e487b7160e01b600052602160045260246000fd5b146115345760096114e4565b5060009650919450925090505b9193509193565b60006106b8826126ab565b60006106b88261271c565b6001600160a01b039182166000908152600f6020908152604080832093909416825291909152205490565b6004546000906001600160a01b0316331415806115a4575033155b156115bc576115b560016000611e07565b90506107ae565b60038054600480546001600160a01b03818116610100818102610100600160a81b0319871617968790556001600160a01b03199093169093556040519382900481169492937ff9ffabca9c8276e99321725bcb43fb076a6c66a54b7f21c4e8146d8519b417dc9361163293879391041690614a09565b60405180910390a16004546040517fca4f2f25d0898edd99413412fb94012f9e54ec8142f9b093e7720646a95b16a9916116779184916001600160a01b031690614a09565b60405180910390a160009250505090565b600080611693610eb0565b905080156116cd576116c58160108111156116be57634e487b7160e01b600052602160045260246000fd5b6040611e07565b9150506106cf565b610bbf83612104565b6006546001600160a01b031681565b6000806116f3858585612788565b5095945050505050565b60035461010090046001600160a01b031681565b6006546000906001600160a01b03166315f2405361172d611cfe565b600b54600c546040518463ffffffff1660e01b8152600401611307939291906152ca565b6000805460ff166117745760405162461bcd60e51b81526004016106fd90614f1a565b6000805460ff19168155611786610eb0565b905080156117b857610c428160108111156117b157634e487b7160e01b600052602160045260246000fd5b6046611e07565b610c53836128cb565b600181565b60008054819060ff166117eb5760405162461bcd60e51b81526004016106fd90614f1a565b6000805460ff191681556117fd610eb0565b9050801561183b5761182f81601081111561182857634e487b7160e01b600052602160045260246000fd5b6036611e07565b6000925092505061184c565b611846333386612963565b92509250505b6000805460ff191660011790559092909150565b600d5460009081908061187b57505060075460009150611933565b6000611885611cfe565b90506000611891614569565b60006118a284600b54600c54612d14565b9350905060008160038111156118c857634e487b7160e01b600052602160045260246000fd5b146118dd579550600094506119339350505050565b6118e78386612d66565b92509050600081600381111561190d57634e487b7160e01b600052602160045260246000fd5b14611922579550600094506119339350505050565b505160009550935061193392505050565b9091565b6005546040516317b9b84b60e31b815260009182916001600160a01b039091169063bdcdc25890611972903090899089908990600401614aa3565b602060405180830381600087803b15801561198c57600080fd5b505af11580156119a0573d6000803e3d6000fd5b505050506040513d601f19601f820116820180604052508101906119c4919061495a565b905080156119e1576119d96003604a83612354565b915050610a7f565b836001600160a01b0316856001600160a01b03161415611a07576119d96002604b611e07565b6000856001600160a01b0316876001600160a01b03161415611a2c5750600019611a54565b506001600160a01b038086166000908152600f60209081526040808320938a16835292905220545b600080600080611a6485896122ad565b90945092506000846003811115611a8b57634e487b7160e01b600052602160045260246000fd5b14611aa957611a9c6009604b611e07565b9650505050505050610a7f565b6001600160a01b038a166000908152600e6020526040902054611acc90896122ad565b90945091506000846003811115611af357634e487b7160e01b600052602160045260246000fd5b14611b0457611a9c6009604c611e07565b6001600160a01b0389166000908152600e6020526040902054611b2790896123ef565b90945090506000846003811115611b4e57634e487b7160e01b600052602160045260246000fd5b14611b5f57611a9c6009604d611e07565b6001600160a01b03808b166000908152600e6020526040808220859055918b168152208190556000198514611bb7576001600160a01b03808b166000908152600f60209081526040808320938f168352929052208390555b886001600160a01b03168a6001600160a01b03166000805160206153f78339815191528a604051611be891906152b3565b60405180910390a35060009a9950505050505050505050565b60008054819060ff16611c265760405162461bcd60e51b81526004016106fd90614f1a565b6000805460ff19168155611c38610eb0565b90508015611c7657611c6a816010811115611c6357634e487b7160e01b600052602160045260246000fd5b6035611e07565b60009250925050611c87565b611c81338686612963565b92509250505b6000805460ff1916600117905590939092509050565b600080600080611cad86866122d8565b90925090506000826003811115611cd457634e487b7160e01b600052602160045260246000fd5b14611ce55750915060009050611cf7565b6000611cf082612e3f565b9350935050505b9250929050565b6011546040516370a0823160e01b81526000916001600160a01b03169081906370a0823190611d31903090600401614995565b60206040518083038186803b158015611d4957600080fd5b505afa158015611d5d573d6000803e3d6000fd5b505050506040513d601f19601f820116820180604052508101906107aa919061495a565b6000805460ff16611da45760405162461bcd60e51b81526004016106fd90614f1a565b6000805460ff19168155611db6610eb0565b90508015611de857610c42816010811115611de157634e487b7160e01b600052602160045260246000fd5b604e611e07565b611df183612e57565b509150506000805460ff19166001179055919050565b60007f45b96fe442630264581b197e84bbada861235052c5a1aadfff9ea4e40a969aa0836010811115611e4a57634e487b7160e01b600052602160045260246000fd5b836050811115611e6a57634e487b7160e01b600052602160045260246000fd5b6000604051611e7b939291906152ca565b60405180910390a1826010811115610bbf57634e487b7160e01b600052602160045260246000fd5b600354600090819061010090046001600160a01b03163314611ecb576116c560016031611e07565b611ed3612100565b60095414611ee7576116c5600a6033611e07565b82611ef0611cfe565b1015611f02576116c5600e6032611e07565b600c54831115611f18576116c560026034611e07565b82600c54611f269190615360565b9050600c54811115611f4a5760405162461bcd60e51b81526004016106fd90615241565b600c819055600354611f6a9061010090046001600160a01b031684612f0f565b7f3bad0c59cf2f06e7314077049f48a93578cd16f5ef92329f1dab1420a99c177e600360019054906101000a90046001600160a01b03168483604051610bb4939291906149c2565b6000805460ff16611fd55760405162461bcd60e51b81526004016106fd90614f1a565b6000805460ff19168155611fe7610eb0565b9050801561201957610c4281601081111561201257634e487b7160e01b600052602160045260246000fd5b6027611e07565b610c5333600085612fc7565b6001600160a01b03811660009081526010602052604081208054829182918291829161205b5760008095509550505050506120fb565b61206b8160000154600a546135d6565b9094509250600084600381111561209257634e487b7160e01b600052602160045260246000fd5b146120a75783600095509550505050506120fb565b6120b5838260010154613620565b909450915060008460038111156120dc57634e487b7160e01b600052602160045260246000fd5b146120f15783600095509550505050506120fb565b5060009450925050505b915091565b4390565b600354600090819061010090046001600160a01b0316331461212c576116c560016042611e07565b612134612100565b60095414612148576116c5600a6041611e07565b600660009054906101000a90046001600160a01b03169050826001600160a01b0316632191f92a6040518163ffffffff1660e01b815260040160206040518083038186803b15801561219957600080fd5b505afa1580156121ad573d6000803e3d6000fd5b505050506040513d601f19601f820116820180604052508101906121d19190614883565b6121ed5760405162461bcd60e51b81526004016106fd90614e3b565b600680546001600160a01b0319166001600160a01b0385161790556040517fedffc32e068c7c95dfd4bdfd5c4d939a084d6b11c4199eac8436ed234d72f92690610bb49083908690614a09565b60008054819060ff1661225f5760405162461bcd60e51b81526004016106fd90614f1a565b6000805460ff19168155612271610eb0565b905080156122a35761182f81601081111561229c57634e487b7160e01b600052602160045260246000fd5b601e611e07565b611846338561364b565b6000808383116122cc5760006122c38486615360565b91509150611cf7565b50600390506000611cf7565b60006122e2614569565b6000806122f38660000151866135d6565b9092509050600082600381111561231a57634e487b7160e01b600052602160045260246000fd5b1461233957506040805160208101909152600081529092509050611cf7565b60408051602081019091529081526000969095509350505050565b60007f45b96fe442630264581b197e84bbada861235052c5a1aadfff9ea4e40a969aa084601081111561239757634e487b7160e01b600052602160045260246000fd5b8460508111156123b757634e487b7160e01b600052602160045260246000fd5b846040516123c7939291906152ca565b60405180910390a1836010811115610a7f57634e487b7160e01b600052602160045260246000fd5b600080806123fd8486615309565b905084811061241157600092509050611cf7565b600260009250925050611cf7565b60008060008061242f87876122d8565b9092509050600082600381111561245657634e487b7160e01b600052602160045260246000fd5b146124675750915060009050612480565b61247961247382612e3f565b866123ef565b9350935050505b935093915050565b60055460405163d02f735160e01b815260009182916001600160a01b039091169063d02f7351906124c59030908a908a908a908a90600401614a70565b602060405180830381600087803b1580156124df57600080fd5b505af11580156124f3573d6000803e3d6000fd5b505050506040513d601f19601f82011682018060405250810190612517919061495a565b9050801561252c576119d96003601b83612354565b846001600160a01b0316846001600160a01b03161415612552576119d96006601c611e07565b6001600160a01b0384166000908152600e60205260408120548190819061257990876122ad565b909350915060008360038111156125a057634e487b7160e01b600052602160045260246000fd5b146125d7576125cc6009601a85600381111561106757634e487b7160e01b600052602160045260246000fd5b945050505050610a7f565b6001600160a01b0388166000908152600e60205260409020546125fa90876123ef565b9093509050600083600381111561262157634e487b7160e01b600052602160045260246000fd5b1461264d576125cc6009601985600381111561106757634e487b7160e01b600052602160045260246000fd5b6001600160a01b038088166000818152600e6020526040808220869055928b168082529083902084905591516000805160206153f783398151915290612694908a906152b3565b60405180910390a360009998505050505050505050565b6000805460ff166126ce5760405162461bcd60e51b81526004016106fd90614f1a565b6000805460ff191681556126e0610eb0565b9050801561271257610c4281601081111561270b57634e487b7160e01b600052602160045260246000fd5b6008611e07565b610c533384613aab565b6000805460ff1661273f5760405162461bcd60e51b81526004016106fd90614f1a565b6000805460ff19168155612751610eb0565b9050801561277c57610c4281601081111561201257634e487b7160e01b600052602160045260246000fd5b610c5333846000612fc7565b60008054819060ff166127ad5760405162461bcd60e51b81526004016106fd90614f1a565b6000805460ff191681556127bf610eb0565b905080156127fd576127f18160108111156127ea57634e487b7160e01b600052602160045260246000fd5b600f611e07565b600092509250506128b4565b836001600160a01b031663a6afed956040518163ffffffff1660e01b8152600401602060405180830381600087803b15801561283857600080fd5b505af115801561284c573d6000803e3d6000fd5b505050506040513d601f19601f82011682018060405250810190612870919061495a565b905080156128a2576127f181601081111561289b57634e487b7160e01b600052602160045260246000fd5b6010611e07565b6128ae33878787613e20565b92509250505b6000805460ff191660011790559094909350915050565b60035460009061010090046001600160a01b031633146128f157610ac760016047611e07565b6128f9612100565b6009541461290d57610ac7600a6048611e07565b670de0b6b3a764000082111561292957610ac760026049611e07565b60088054908390556040517faaa68312e2ea9d50e16af5068410ab56e1a1fd06037b1a35664812c30f82146090610bb490839086906152bc565b600554604051631200453160e11b8152600091829182916001600160a01b0316906324008a629061299e9030908a908a908a90600401614aa3565b602060405180830381600087803b1580156129b857600080fd5b505af11580156129cc573d6000803e3d6000fd5b505050506040513d601f19601f820116820180604052508101906129f0919061495a565b90508015612a1157612a056003603883612354565b60009250925050612480565b612a19612100565b60095414612a2d57612a05600a6039611e07565b612a3561457c565b6001600160a01b0386166000908152601060205260409020600101546060820152612a5f86612025565b6080830181905260208301826003811115612a8a57634e487b7160e01b600052602160045260246000fd5b6003811115612aa957634e487b7160e01b600052602160045260246000fd5b9052506000905081602001516003811115612ad457634e487b7160e01b600052602160045260246000fd5b14612b1157612b04600960378360200151600381111561106757634e487b7160e01b600052602160045260246000fd5b6000935093505050612480565b600019851415612b2a5760808101516040820152612b32565b604081018590525b612b40878260400151614279565b60e082018190526080820151612b55916122ad565b60a0830181905260208301826003811115612b8057634e487b7160e01b600052602160045260246000fd5b6003811115612b9f57634e487b7160e01b600052602160045260246000fd5b9052506000905081602001516003811115612bca57634e487b7160e01b600052602160045260246000fd5b14612be75760405162461bcd60e51b81526004016106fd90614f75565b612bf7600b548260e001516122ad565b60c0830181905260208301826003811115612c2257634e487b7160e01b600052602160045260246000fd5b6003811115612c4157634e487b7160e01b600052602160045260246000fd5b9052506000905081602001516003811115612c6c57634e487b7160e01b600052602160045260246000fd5b14612c895760405162461bcd60e51b81526004016106fd90615009565b60a0810180516001600160a01b03881660009081526010602052604090819020918255600a5460019092019190915560c0830151600b81905560e0840151925191517f1a2a22cb034d26d1854bdc6666a5b91fe25efbbb5dcad3b0355478d6f5c362a193612cfa938c938c93614b00565b60405180910390a160e00151600097909650945050505050565b600080600080612d2487876123ef565b90925090506000826003811115612d4b57634e487b7160e01b600052602160045260246000fd5b14612d5c5750915060009050612480565b61247981866122ad565b6000612d70614569565b600080612d8586670de0b6b3a76400006135d6565b90925090506000826003811115612dac57634e487b7160e01b600052602160045260246000fd5b14612dcb57506040805160208101909152600081529092509050611cf7565b600080612dd88388613620565b90925090506000826003811115612dff57634e487b7160e01b600052602160045260246000fd5b14612e225781604051806020016040528060008152509550955050505050611cf7565b604080516020810190915290815260009890975095505050505050565b80516000906106b890670de0b6b3a764000090615321565b600080600080612e65612100565b60095414612e8457612e79600a604f611e07565b935091506120fb9050565b612e8e3386614279565b905080600c54612e9e9190615309565b9150600c54821015612ec25760405162461bcd60e51b81526004016106fd90614d3d565b600c8290556040517fa91e67c5ea634cd43a12c5a482724b03de01e85ca68702a53d0c2f45cb7c1dc590612efb903390849086906149c2565b60405180910390a160009350915050915091565b60115460405163a9059cbb60e01b81526001600160a01b0390911690819063a9059cbb90612f4390869086906004016149a9565b600060405180830381600087803b158015612f5d57600080fd5b505af1158015612f71573d6000803e3d6000fd5b5050505060003d60008114612f8d5760208114612f9757600080fd5b6000199150612fa3565b60206000803e60005191505b5080612fc15760405162461bcd60e51b81526004016106fd90614d72565b50505050565b6000821580612fd4575081155b612ff05760405162461bcd60e51b81526004016106fd906151ed565b612ff86145c2565b613000611860565b604083018190526020830182600381111561302b57634e487b7160e01b600052602160045260246000fd5b600381111561304a57634e487b7160e01b600052602160045260246000fd5b905250600090508160200151600381111561307557634e487b7160e01b600052602160045260246000fd5b146130ad576130a56009602b8360200151600381111561106757634e487b7160e01b600052602160045260246000fd5b915050610bbf565b831561317e5760608101849052604080516020810182529082015181526130d49085611c9d565b60808301819052602083018260038111156130ff57634e487b7160e01b600052602160045260246000fd5b600381111561311e57634e487b7160e01b600052602160045260246000fd5b905250600090508160200151600381111561314957634e487b7160e01b600052602160045260246000fd5b14613179576130a5600960298360200151600381111561106757634e487b7160e01b600052602160045260246000fd5b613247565b61319a8360405180602001604052808460400151815250614467565b60608301819052602083018260038111156131c557634e487b7160e01b600052602160045260246000fd5b60038111156131e457634e487b7160e01b600052602160045260246000fd5b905250600090508160200151600381111561320f57634e487b7160e01b600052602160045260246000fd5b1461323f576130a56009602a8360200151600381111561106757634e487b7160e01b600052602160045260246000fd5b608081018390525b600554606082015160405163eabe7d9160e01b81526000926001600160a01b03169163eabe7d91916132809130918b9190600401614a23565b602060405180830381600087803b15801561329a57600080fd5b505af11580156132ae573d6000803e3d6000fd5b505050506040513d601f19601f820116820180604052508101906132d2919061495a565b905080156132f0576132e76003602883612354565b92505050610bbf565b6132f8612100565b6009541461330c576132e7600a602c611e07565b61331c600d5483606001516122ad565b60a084018190526020840182600381111561334757634e487b7160e01b600052602160045260246000fd5b600381111561336657634e487b7160e01b600052602160045260246000fd5b905250600090508260200151600381111561339157634e487b7160e01b600052602160045260246000fd5b146133c1576132e76009602e8460200151600381111561106757634e487b7160e01b600052602160045260246000fd5b6001600160a01b0386166000908152600e602052604090205460608301516133e991906122ad565b60c084018190526020840182600381111561341457634e487b7160e01b600052602160045260246000fd5b600381111561343357634e487b7160e01b600052602160045260246000fd5b905250600090508260200151600381111561345e57634e487b7160e01b600052602160045260246000fd5b1461348e576132e76009602d8460200151600381111561106757634e487b7160e01b600052602160045260246000fd5b816080015161349b611cfe565b10156134ad576132e7600e602f611e07565b6134bb868360800151612f0f565b60a0820151600d5560c08201516001600160a01b0387166000818152600e602052604090819020929092556060840151915130926000805160206153f78339815191529161350991906152b3565b60405180910390a3608082015160608301516040517fe5b754fb1abb7f01b499791d0b820ae3b6af3424ac1c59768edb53f4ec31a9299261354b928a926149c2565b60405180910390a1600554608083015160608401516040516351dff98960e01b81526001600160a01b03909316926351dff989926135919230928c929190600401614a47565b600060405180830381600087803b1580156135ab57600080fd5b505af11580156135bf573d6000803e3d6000fd5b50600092506135cc915050565b9695505050505050565b600080836135e957506000905080611cf7565b60006135f58486615341565b9050836136028683615321565b1461361557600260009250925050611cf7565b600092509050611cf7565b600080826136345750600190506000611cf7565b60006136408486615321565b915091509250929050565b600554604051634ef4c3e160e01b8152600091829182916001600160a01b031690634ef4c3e19061368490309089908990600401614a23565b602060405180830381600087803b15801561369e57600080fd5b505af11580156136b2573d6000803e3d6000fd5b505050506040513d601f19601f820116820180604052508101906136d6919061495a565b905080156136f7576136eb6003601f83612354565b60009250925050611cf7565b6136ff612100565b60095414613713576136eb600a6022611e07565b61371b6145c2565b613723611860565b604083018190526020830182600381111561374e57634e487b7160e01b600052602160045260246000fd5b600381111561376d57634e487b7160e01b600052602160045260246000fd5b905250600090508160200151600381111561379857634e487b7160e01b600052602160045260246000fd5b146137d5576137c8600960218360200151600381111561106757634e487b7160e01b600052602160045260246000fd5b6000935093505050611cf7565b6137df8686614279565b60c08201819052604080516020810182529083015181526138009190614467565b606083018190526020830182600381111561382b57634e487b7160e01b600052602160045260246000fd5b600381111561384a57634e487b7160e01b600052602160045260246000fd5b905250600090508160200151600381111561387557634e487b7160e01b600052602160045260246000fd5b146138925760405162461bcd60e51b81526004016106fd9061511b565b6138a2600d5482606001516123ef565b60808301819052602083018260038111156138cd57634e487b7160e01b600052602160045260246000fd5b60038111156138ec57634e487b7160e01b600052602160045260246000fd5b905250600090508160200151600381111561391757634e487b7160e01b600052602160045260246000fd5b146139345760405162461bcd60e51b81526004016106fd906151a5565b6001600160a01b0386166000908152600e6020526040902054606082015161395c91906123ef565b60a083018190526020830182600381111561398757634e487b7160e01b600052602160045260246000fd5b60038111156139a657634e487b7160e01b600052602160045260246000fd5b90525060009050816020015160038111156139d157634e487b7160e01b600052602160045260246000fd5b146139ee5760405162461bcd60e51b81526004016106fd90614e72565b6080810151600d5560a08101516001600160a01b0387166000908152600e6020526040908190209190915560c0820151606083015191517f4c209b5fc8ad50758f13e2e1088ba56a560dff690a1c6fef26394f4c03821c4f92613a55928a929091906149c2565b60405180910390a1856001600160a01b0316306001600160a01b03166000805160206153f78339815191528360600151604051613a9291906152b3565b60405180910390a360c001516000969095509350505050565b60055460405163368f515360e21b815260009182916001600160a01b039091169063da3d454c90613ae490309088908890600401614a23565b602060405180830381600087803b158015613afe57600080fd5b505af1158015613b12573d6000803e3d6000fd5b505050506040513d601f19601f82011682018060405250810190613b36919061495a565b90508015613b5357613b4b6003600e83612354565b9150506106b8565b613b5b612100565b60095414613b6e57613b4b600a80611e07565b82613b77611cfe565b1015613b8957613b4b600e6009611e07565b613b91614600565b613b9a85612025565b6020830181905282826003811115613bc257634e487b7160e01b600052602160045260246000fd5b6003811115613be157634e487b7160e01b600052602160045260246000fd5b9052506000905081516003811115613c0957634e487b7160e01b600052602160045260246000fd5b14613c4257613c39600960078360000151600381111561106757634e487b7160e01b600052602160045260246000fd5b925050506106b8565b613c508160200151856123ef565b6040830181905282826003811115613c7857634e487b7160e01b600052602160045260246000fd5b6003811115613c9757634e487b7160e01b600052602160045260246000fd5b9052506000905081516003811115613cbf57634e487b7160e01b600052602160045260246000fd5b14613cef57613c396009600c8360000151600381111561106757634e487b7160e01b600052602160045260246000fd5b613cfb600b54856123ef565b6060830181905282826003811115613d2357634e487b7160e01b600052602160045260246000fd5b6003811115613d4257634e487b7160e01b600052602160045260246000fd5b9052506000905081516003811115613d6a57634e487b7160e01b600052602160045260246000fd5b14613d9a57613c396009600b8360000151600381111561106757634e487b7160e01b600052602160045260246000fd5b613da48585612f0f565b604080820180516001600160a01b03881660009081526010602052839020908155600a546001909101556060830151600b819055905191517f13ed6866d4e1ee6da46f845c46d7e54120883d75c5ea9a2dacc1c4ca8984ab8092613e0d928992899291906149e3565b60405180910390a1600095945050505050565b600554604051632fe3f38f60e11b8152600091829182916001600160a01b031690635fc7e71e90613e5d90309088908c908c908c90600401614a70565b602060405180830381600087803b158015613e7757600080fd5b505af1158015613e8b573d6000803e3d6000fd5b505050506040513d601f19601f82011682018060405250810190613eaf919061495a565b90508015613ed057613ec46003601283612354565b60009250925050614270565b613ed8612100565b60095414613eec57613ec4600a6016611e07565b613ef4612100565b846001600160a01b0316636c540baf6040518163ffffffff1660e01b815260040160206040518083038186803b158015613f2d57600080fd5b505afa158015613f41573d6000803e3d6000fd5b505050506040513d601f19601f82011682018060405250810190613f65919061495a565b14613f7657613ec4600a6011611e07565b866001600160a01b0316866001600160a01b03161415613f9c57613ec460066017611e07565b84613fad57613ec460076015611e07565b600019851415613fc357613ec460076014611e07565b600080613fd1898989612963565b9092509050811561401457614006826010811115613fff57634e487b7160e01b600052602160045260246000fd5b6018611e07565b600094509450505050614270565b60055460405163c488847b60e01b815260009182916001600160a01b039091169063c488847b9061404d9030908c908890600401614a23565b604080518083038186803b15801561406457600080fd5b505afa158015614078573d6000803e3d6000fd5b505050506040513d601f19601f8201168201806040525081019061409c9190614972565b909250905081156140bf5760405162461bcd60e51b81526004016106fd9061505a565b6040516370a0823160e01b815281906001600160a01b038a16906370a08231906140ed908e90600401614995565b60206040518083038186803b15801561410557600080fd5b505afa158015614119573d6000803e3d6000fd5b505050506040513d601f19601f8201168201806040525081019061413d919061495a565b101561415b5760405162461bcd60e51b81526004016106fd906150e4565b60006001600160a01b0389163014156141815761417a308d8d85612488565b9050614206565b60405163b2a02ff160e01b81526001600160a01b038a169063b2a02ff1906141b1908f908f908790600401614a23565b602060405180830381600087803b1580156141cb57600080fd5b505af11580156141df573d6000803e3d6000fd5b505050506040513d601f19601f82011682018060405250810190614203919061495a565b90505b80156142245760405162461bcd60e51b81526004016106fd90615285565b7f298637f684da70674f26509b10f07ec2fbc77a335ab1e7d6215a4b2484d8bb528c8c868c8660405161425b959493929190614acd565b60405180910390a16000975092955050505050505b94509492505050565b6011546040516370a0823160e01b81526000916001600160a01b031690829082906370a08231906142ae903090600401614995565b60206040518083038186803b1580156142c657600080fd5b505afa1580156142da573d6000803e3d6000fd5b505050506040513d601f19601f820116820180604052508101906142fe919061495a565b6040516323b872dd60e01b81529091506001600160a01b038316906323b872dd9061433190889030908990600401614a23565b600060405180830381600087803b15801561434b57600080fd5b505af115801561435f573d6000803e3d6000fd5b5050505060003d6000811461437b576020811461438557600080fd5b6000199150614391565b60206000803e60005191505b50806143af5760405162461bcd60e51b81526004016106fd90614c03565b6011546040516370a0823160e01b81526000916001600160a01b0316906370a08231906143e0903090600401614995565b60206040518083038186803b1580156143f857600080fd5b505afa15801561440c573d6000803e3d6000fd5b505050506040513d601f19601f82011682018060405250810190614430919061495a565b9050828110156144525760405162461bcd60e51b81526004016106fd90614d06565b61445c8382615360565b979650505050505050565b600080600080611cad8686600061447c614569565b600080614491670de0b6b3a7640000876135d6565b909250905060008260038111156144b857634e487b7160e01b600052602160045260246000fd5b146144d757506040805160208101909152600081529092509050611cf7565b611cf0818660000151612d66565b8280546144f190615377565b90600052602060002090601f0160209004810192826145135760008555614559565b82601f1061452c57805160ff1916838001178555614559565b82800160010185558215614559579182015b8281111561455957825182559160200191906001019061453e565b50614565929150614629565b5090565b6040518060200160405280600081525090565b6040805161010081019091528060008152602001600081526020016000815260200160008152602001600081526020016000815260200160008152602001600081525090565b6040805160e0810190915280600081526020016000815260200160008152602001600081526020016000815260200160008152602001600081525090565b604080516080810190915280600081526020016000815260200160008152602001600081525090565b5b80821115614565576000815560010161462a565b600082601f83011261464e578081fd5b813567ffffffffffffffff80821115614669576146696153c8565b604051601f8301601f19168101602001828111828210171561468d5761468d6153c8565b6040528281528483016020018610156146a4578384fd5b82602086016020830137918201602001929092529392505050565b803560ff811681146106cf57600080fd5b6000602082840312156146e1578081fd5b8135610bbf816153de565b600080604083850312156146fe578081fd5b8235614709816153de565b91506020830135614719816153de565b809150509250929050565b600080600060608486031215614738578081fd5b8335614743816153de565b92506020840135614753816153de565b929592945050506040919091013590565b600080600080600080600060e0888a03121561477e578283fd5b8735614789816153de565b96506020880135614799816153de565b955060408801356147a9816153de565b945060608801359350608088013567ffffffffffffffff808211156147cc578485fd5b6147d88b838c0161463e565b945060a08a01359150808211156147ed578384fd5b506147fa8a828b0161463e565b92505061480960c089016146bf565b905092959891949750929550565b60008060408385031215614829578182fd5b8235614834816153de565b946020939093013593505050565b600080600060608486031215614856578283fd5b8335614861816153de565b9250602084013591506040840135614878816153de565b809150509250925092565b600060208284031215614894578081fd5b81518015158114610bbf578182fd5b60008060008060008060c087890312156148bb578182fd5b86356148c6816153de565b955060208701356148d6816153de565b945060408701359350606087013567ffffffffffffffff808211156148f9578384fd5b6149058a838b0161463e565b9450608089013591508082111561491a578384fd5b5061492789828a0161463e565b92505061493660a088016146bf565b90509295509295509295565b600060208284031215614953578081fd5b5035919050565b60006020828403121561496b578081fd5b5051919050565b60008060408385031215614984578182fd5b505080516020909101519092909150565b6001600160a01b0391909116815260200190565b6001600160a01b03929092168252602082015260400190565b6001600160a01b039390931683526020830191909152604082015260600190565b6001600160a01b0394909416845260208401929092526040830152606082015260800190565b6001600160a01b0392831681529116602082015260400190565b6001600160a01b039384168152919092166020820152604081019190915260600190565b6001600160a01b0394851681529290931660208301526040820152606081019190915260800190565b6001600160a01b039586168152938516602085015291841660408401529092166060820152608081019190915260a00190565b6001600160a01b039485168152928416602084015292166040820152606081019190915260800190565b6001600160a01b039586168152938516602085015260408401929092529092166060820152608081019190915260a00190565b6001600160a01b03958616815293909416602084015260408301919091526060820152608081019190915260a00190565b901515815260200190565b6000602080835283518082850152825b81811015614b6857858101830151858201604001528201614b4c565b81811115614b795783604083870101525b50601f01601f1916929092016040019392505050565b6020808252601690820152751858d8dc9d59481a5b9d195c995cdd0819985a5b195960521b604082015260600190565b60208082526024908201527f6f6e6c792061646d696e206d617920696e697469616c697a6520746865206d616040820152631c9ad95d60e21b606082015260800190565b60208082526018908201527f544f4b454e5f5452414e534645525f494e5f4641494c45440000000000000000604082015260600190565b6020808252601f908201527f62616c616e636520636f756c64206e6f742062652063616c63756c6174656400604082015260600190565b60208082526023908201527f6d61726b6574206d6179206f6e6c7920626520696e697469616c697a6564206f6040820152626e636560e81b606082015260800190565b60208082526032908201527f4345726332303a3a7377656570546f6b656e3a2063616e206e6f74207377656560408201527138103ab73232b9363cb4b733903a37b5b2b760711b606082015260800190565b6020808252601a908201527f544f4b454e5f5452414e534645525f494e5f4f564552464c4f57000000000000604082015260600190565b6020808252818101527f61646420726573657276657320756e6578706563746564206f766572666c6f77604082015260600190565b60208082526019908201527f544f4b454e5f5452414e534645525f4f55545f4641494c454400000000000000604082015260600190565b60208082526030908201527f696e697469616c2065786368616e67652072617465206d75737420626520677260408201526f32b0ba32b9103a3430b7103d32b9379760811b606082015260800190565b60208082526022908201527f73657474696e6720696e7465726573742072617465206d6f64656c206661696c604082015261195960f21b606082015260800190565b6020808252601c908201527f6d61726b6572206d6574686f642072657475726e65642066616c736500000000604082015260600190565b6020808252602b908201527f4d494e545f4e45575f4143434f554e545f42414c414e43455f43414c43554c4160408201526a151253d397d1905253115160aa1b606082015260800190565b60208082526037908201527f626f72726f7742616c616e636553746f7265643a20626f72726f7742616c616e60408201527f636553746f726564496e7465726e616c206661696c6564000000000000000000606082015260800190565b6020808252600a90820152691c994b595b9d195c995960b21b604082015260600190565b6020808252601c908201527f626f72726f772072617465206973206162737572646c79206869676800000000604082015260600190565b6020808252603a908201527f52455041595f424f52524f575f4e45575f4143434f554e545f424f52524f575f60408201527f42414c414e43455f43414c43554c4154494f4e5f4641494c4544000000000000606082015260800190565b6020808252601f908201527f636f756c64206e6f742063616c63756c61746520626c6f636b2064656c746100604082015260600190565b60208082526031908201527f52455041595f424f52524f575f4e45575f544f54414c5f42414c414e43455f43604082015270105310d55310551253d397d19052531151607a1b606082015260800190565b60208082526033908201527f4c49515549444154455f434f4d5054524f4c4c45525f43414c43554c4154455f604082015272105353d5539517d4d152569157d19052531151606a1b606082015260800190565b6020808252601a908201527f73657474696e6720636f6d7074726f6c6c6572206661696c6564000000000000604082015260600190565b60208082526018908201527f4c49515549444154455f5345495a455f544f4f5f4d5543480000000000000000604082015260600190565b6020808252818101527f4d494e545f45584348414e47455f43414c43554c4154494f4e5f4641494c4544604082015260600190565b60208082526035908201527f65786368616e67655261746553746f7265643a2065786368616e67655261746560408201527414dd1bdc9959125b9d195c9b985b0819985a5b1959605a1b606082015260800190565b60208082526028908201527f4d494e545f4e45575f544f54414c5f535550504c595f43414c43554c4154494f6040820152671397d1905253115160c21b606082015260800190565b60208082526034908201527f6f6e65206f662072656465656d546f6b656e73496e206f722072656465656d416040820152736d6f756e74496e206d757374206265207a65726f60601b606082015260800190565b60208082526024908201527f72656475636520726573657276657320756e657870656374656420756e646572604082015263666c6f7760e01b606082015260800190565b6020808252601490820152731d1bdad95b881cd95a5e9d5c994819985a5b195960621b604082015260600190565b90815260200190565b918252602082015260400190565b9283526020830191909152604082015260600190565b93845260208401929092526040830152606082015260800190565b60ff91909116815260200190565b6000821982111561531c5761531c6153b2565b500190565b60008261533c57634e487b7160e01b81526012600452602481fd5b500490565b600081600019048311821515161561535b5761535b6153b2565b500290565b600082821015615372576153726153b2565b500390565b60028104600182168061538b57607f821691505b602082108114156153ac57634e487b7160e01b600052602260045260246000fd5b50919050565b634e487b7160e01b600052601160045260246000fd5b634e487b7160e01b600052604160045260246000fd5b6001600160a01b03811681146153f357600080fd5b5056feddf252ad1be2c89b69c2b068fc378daa952ba7f163c4a11628f55a4df523b3efa264697066735822122031a6cdf61a1188615308140ffc0a78a3913d20d28eaa1a072cbf55dcc316fd5d64736f6c63430008000033",
  "immutableReferences": {},
  "source": "// SPDX-License-Identifier: MIT\npragma solidity ^0.8.0;\n\n\nimport \"./CToken.sol\";\nimport \"./interfaces/CErc20Interface.sol\";\nimport \"./interfaces/EIP20Interface.sol\";\nimport \"./interfaces/EIP20NonStandardInterface.sol\";\nimport \"./interfaces/CTokenInterface.sol\";\nimport \"./interfaces/ComptrollerInterface.sol\";\nimport \"./rates/InterestRateModel.sol\";\n\n\n/**\n * @title Compound's CErc20 Contract\n * @notice CTokens which wrap an EIP-20 underlying\n * @author Compound\n */\ncontract CErc20 is CToken, CErc20Interface {\n    /**\n     * @notice Initialize the new money market\n     * @param underlying_ The address of the underlying asset\n     * @param comptroller_ The address of the Comptroller\n     * @param interestRateModel_ The address of the interest rate model\n     * @param initialExchangeRateMantissa_ The initial exchange rate, scaled by 1e18\n     * @param name_ ERC-20 name of this token\n     * @param symbol_ ERC-20 symbol of this token\n     * @param decimals_ ERC-20 decimal precision of this token\n     */\n    function initialize(address underlying_,\n                        ComptrollerInterface comptroller_,\n                        InterestRateModel interestRateModel_,\n                        uint initialExchangeRateMantissa_,\n                        string memory name_,\n                        string memory symbol_,\n                        uint8 decimals_) public {\n        // CToken initialize does the bulk of the work\n        super.initialize(comptroller_, interestRateModel_, initialExchangeRateMantissa_, name_, symbol_, decimals_);\n\n        // Set underlying and sanity check it\n        underlying = underlying_;\n        EIP20Interface(underlying).totalSupply();\n    }\n\n    /*** User Interface ***/\n\n    /**\n     * @notice Sender supplies assets into the market and receives cTokens in exchange\n     * @dev Accrues interest whether or not the operation succeeds, unless reverted\n     * @param mintAmount The amount of the underlying asset to supply\n     * @return uint 0=success, otherwise a failure (see ErrorReporter.sol for details)\n     */\n    function mint(uint mintAmount) external override returns (uint) {\n        (uint err,) = mintInternal(mintAmount);\n        return err;\n    }\n\n    /**\n     * @notice Sender redeems cTokens in exchange for the underlying asset\n     * @dev Accrues interest whether or not the operation succeeds, unless reverted\n     * @param redeemTokens The number of cTokens to redeem into underlying\n     * @return uint 0=success, otherwise a failure (see ErrorReporter.sol for details)\n     */\n    function redeem(uint redeemTokens) external override returns (uint) {\n        return redeemInternal(redeemTokens);\n    }\n\n    /**\n     * @notice Sender redeems cTokens in exchange for a specified amount of underlying asset\n     * @dev Accrues interest whether or not the operation succeeds, unless reverted\n     * @param redeemAmount The amount of underlying to redeem\n     * @return uint 0=success, otherwise a failure (see ErrorReporter.sol for details)\n     */\n    function redeemUnderlying(uint redeemAmount) external override returns (uint) {\n        return redeemUnderlyingInternal(redeemAmount);\n    }\n\n    /**\n      * @notice Sender borrows assets from the protocol to their own address\n      * @param borrowAmount The amount of the underlying asset to borrow\n      * @return uint 0=success, otherwise a failure (see ErrorReporter.sol for details)\n      */\n    function borrow(uint borrowAmount) external override returns (uint) {\n        return borrowInternal(borrowAmount);\n    }\n\n    /**\n     * @notice Sender repays their own borrow\n     * @param repayAmount The amount to repay\n     * @return uint 0=success, otherwise a failure (see ErrorReporter.sol for details)\n     */\n    function repayBorrow(uint repayAmount) external override returns (uint) {\n        (uint err,) = repayBorrowInternal(repayAmount);\n        return err;\n    }\n\n    /**\n     * @notice Sender repays a borrow belonging to borrower\n     * @param borrower the account with the debt being payed off\n     * @param repayAmount The amount to repay\n     * @return uint 0=success, otherwise a failure (see ErrorReporter.sol for details)\n     */\n    function repayBorrowBehalf(address borrower, uint repayAmount) external override returns (uint) {\n        (uint err,) = repayBorrowBehalfInternal(borrower, repayAmount);\n        return err;\n    }\n\n    /**\n     * @notice The sender liquidates the borrowers collateral.\n     *  The collateral seized is transferred to the liquidator.\n     * @param borrower The borrower of this cToken to be liquidated\n     * @param repayAmount The amount of the underlying borrowed asset to repay\n     * @param cTokenCollateral The market in which to seize collateral from the borrower\n     * @return uint 0=success, otherwise a failure (see ErrorReporter.sol for details)\n     */\n    function liquidateBorrow(address borrower, uint repayAmount, CTokenInterface cTokenCollateral) external override returns (uint) {\n        (uint err,) = liquidateBorrowInternal(borrower, repayAmount, cTokenCollateral);\n        return err;\n    }\n\n    /**\n     * @notice A public function to sweep accidental ERC-20 transfers to this contract. Tokens are sent to admin (timelock)\n     * @param token The address of the ERC-20 token to sweep\n     */\n    function sweepToken(EIP20NonStandardInterface token) external override {\n    \trequire(address(token) != underlying, \"CErc20::sweepToken: can not sweep underlying token\");\n    \tuint256 balance = token.balanceOf(address(this));\n    \ttoken.transfer(admin, balance);\n    }\n\n    /**\n     * @notice The sender adds to reserves.\n     * @param addAmount The amount fo underlying token to add as reserves\n     * @return uint 0=success, otherwise a failure (see ErrorReporter.sol for details)\n     */\n    function _addReserves(uint addAmount) external override returns (uint) {\n        return _addReservesInternal(addAmount);\n    }\n\n    /*** Safe Token ***/\n\n    /**\n     * @notice Gets balance of this contract in terms of the underlying\n     * @dev This excludes the value of the current message, if any\n     * @return The quantity of underlying tokens owned by this contract\n     */\n    function getCashPrior() internal override view returns (uint) {\n        EIP20Interface token = EIP20Interface(underlying);\n        return token.balanceOf(address(this));\n    }\n\n    /**\n     * @dev Similar to EIP20 transfer, except it handles a False result from `transferFrom` and reverts in that case.\n     *      This will revert due to insufficient balance or insufficient allowance.\n     *      This function returns the actual amount received,\n     *      which may be less than `amount` if there is a fee attached to the transfer.\n     *\n     *      Note: This wrapper safely handles non-standard ERC-20 tokens that do not return a value.\n     *            See here: https://medium.com/coinmonks/missing-return-value-bug-at-least-130-tokens-affected-d67bf08521ca\n     */\n    function doTransferIn(address from, uint amount) internal override returns (uint) {\n        EIP20NonStandardInterface token = EIP20NonStandardInterface(underlying);\n        uint balanceBefore = EIP20Interface(underlying).balanceOf(address(this));\n        token.transferFrom(from, address(this), amount);\n\n        bool success;\n        assembly {\n            switch returndatasize()\n                case 0 {                       // This is a non-standard ERC-20\n                    success := not(0)          // set success to true\n                }\n                case 32 {                      // This is a compliant ERC-20\n                    returndatacopy(0, 0, 32)\n                    success := mload(0)        // Set `success = returndata` of external call\n                }\n                default {                      // This is an excessively non-compliant ERC-20, revert.\n                    revert(0, 0)\n                }\n        }\n        require(success, \"TOKEN_TRANSFER_IN_FAILED\");\n\n        // Calculate the amount that was *actually* transferred\n        uint balanceAfter = EIP20Interface(underlying).balanceOf(address(this));\n        require(balanceAfter >= balanceBefore, \"TOKEN_TRANSFER_IN_OVERFLOW\");\n        return balanceAfter - balanceBefore;   // underflow already checked above, just subtract\n    }\n\n    /**\n     * @dev Similar to EIP20 transfer, except it handles a False success from `transfer` and returns an explanatory\n     *      error code rather than reverting. If caller has not called checked protocol's balance, this may revert due to\n     *      insufficient cash held in this contract. If caller has checked protocol's balance prior to this call, and verified\n     *      it is >= amount, this should not revert in normal conditions.\n     *\n     *      Note: This wrapper safely handles non-standard ERC-20 tokens that do not return a value.\n     *            See here: https://medium.com/coinmonks/missing-return-value-bug-at-least-130-tokens-affected-d67bf08521ca\n     */\n    function doTransferOut(address payable to, uint amount) internal override {\n        EIP20NonStandardInterface token = EIP20NonStandardInterface(underlying);\n        token.transfer(to, amount);\n\n        bool success;\n        assembly {\n            switch returndatasize()\n                case 0 {                      // This is a non-standard ERC-20\n                    success := not(0)          // set success to true\n                }\n                case 32 {                     // This is a complaint ERC-20\n                    returndatacopy(0, 0, 32)\n                    success := mload(0)        // Set `success = returndata` of external call\n                }\n                default {                     // This is an excessively non-compliant ERC-20, revert.\n                    revert(0, 0)\n                }\n        }\n        require(success, \"TOKEN_TRANSFER_OUT_FAILED\");\n    }\n}\n",
  "sourcePath": "/Users/dennismacpro/Projects/Defi/Ethereum-Solidity-Collection/icarus-protocol/defi-seeder/contracts/compound/v2.1/CErc20.sol",
  "compiler": {
    "name": "solc",
    "version": "0.8.0+commit.c7dfd78e.Emscripten.clang"
  },
  "schemaVersion": "3.3.4",
  "updatedAt": "2021-03-31T20:20:03.824Z",
  "devdoc": {
    "author": "Compound",
    "kind": "dev",
    "methods": {
      "_acceptAdmin()": {
        "details": "Admin function for pending admin to accept role and update admin",
        "returns": {
          "_0": "uint 0=success, otherwise a failure (see ErrorReporter.sol for details)"
        }
      },
      "_addReserves(uint256)": {
        "params": {
          "addAmount": "The amount fo underlying token to add as reserves"
        },
        "returns": {
          "_0": "uint 0=success, otherwise a failure (see ErrorReporter.sol for details)"
        }
      },
      "_reduceReserves(uint256)": {
        "params": {
          "reduceAmount": "Amount of reduction to reserves"
        },
        "returns": {
          "_0": "uint 0=success, otherwise a failure (see ErrorReporter.sol for details)"
        }
      },
      "_setComptroller(address)": {
        "details": "Admin function to set a new comptroller",
        "returns": {
          "_0": "uint 0=success, otherwise a failure (see ErrorReporter.sol for details)"
        }
      },
      "_setInterestRateModel(address)": {
        "details": "Admin function to accrue interest and update the interest rate model",
        "params": {
          "newInterestRateModel": "the new interest rate model to use"
        },
        "returns": {
          "_0": "uint 0=success, otherwise a failure (see ErrorReporter.sol for details)"
        }
      },
      "_setPendingAdmin(address)": {
        "details": "Admin function to begin change of admin. The newPendingAdmin must call `_acceptAdmin` to finalize the transfer.",
        "params": {
          "newPendingAdmin": "New pending admin."
        },
        "returns": {
          "_0": "uint 0=success, otherwise a failure (see ErrorReporter.sol for details)"
        }
      },
      "_setReserveFactor(uint256)": {
        "details": "Admin function to accrue interest and set a new reserve factor",
        "returns": {
          "_0": "uint 0=success, otherwise a failure (see ErrorReporter.sol for details)"
        }
      },
      "accrueInterest()": {
        "details": "This calculates interest accrued from the last checkpointed block   up to the current block and writes new checkpoint to storage."
      },
      "allowance(address,address)": {
        "params": {
          "owner": "The address of the account which owns the tokens to be spent",
          "spender": "The address of the account which may transfer tokens"
        },
        "returns": {
          "_0": "The number of tokens allowed to be spent (-1 means infinite)"
        }
      },
      "approve(address,uint256)": {
        "details": "This will overwrite the approval amount for `spender`  and is subject to issues noted [here](https://eips.ethereum.org/EIPS/eip-20#approve)",
        "params": {
          "amount": "The number of tokens that are approved (-1 means infinite)",
          "spender": "The address of the account which may transfer tokens"
        },
        "returns": {
          "_0": "Whether or not the approval succeeded"
        }
      },
      "balanceOf(address)": {
        "params": {
          "owner": "The address of the account to query"
        },
        "returns": {
          "_0": "The number of tokens owned by `owner`"
        }
      },
      "balanceOfUnderlying(address)": {
        "details": "This also accrues interest in a transaction",
        "params": {
          "owner": "The address of the account to query"
        },
        "returns": {
          "_0": "The amount of underlying owned by `owner`"
        }
      },
      "borrow(uint256)": {
        "params": {
          "borrowAmount": "The amount of the underlying asset to borrow"
        },
        "returns": {
          "_0": "uint 0=success, otherwise a failure (see ErrorReporter.sol for details)"
        }
      },
      "borrowBalanceCurrent(address)": {
        "params": {
          "account": "The address whose balance should be calculated after updating borrowIndex"
        },
        "returns": {
          "_0": "The calculated balance"
        }
      },
      "borrowBalanceStored(address)": {
        "params": {
          "account": "The address whose balance should be calculated"
        },
        "returns": {
          "_0": "The calculated balance"
        }
      },
      "borrowRatePerBlock()": {
        "returns": {
          "_0": "The borrow interest rate per block, scaled by 1e18"
        }
      },
      "exchangeRateCurrent()": {
        "returns": {
          "_0": "Calculated exchange rate scaled by 1e18"
        }
      },
      "exchangeRateStored()": {
        "details": "This function does not accrue interest before calculating the exchange rate",
        "returns": {
          "_0": "Calculated exchange rate scaled by 1e18"
        }
      },
      "getAccountSnapshot(address)": {
        "details": "This is used by comptroller to more efficiently perform liquidity checks.",
        "params": {
          "account": "Address of the account to snapshot"
        },
        "returns": {
          "_0": "(possible error, token balance, borrow balance, exchange rate mantissa)"
        }
      },
      "getCash()": {
        "returns": {
          "_0": "The quantity of underlying asset owned by this contract"
        }
      },
      "initialize(address,address,address,uint256,string,string,uint8)": {
        "params": {
          "comptroller_": "The address of the Comptroller",
          "decimals_": "ERC-20 decimal precision of this token",
          "initialExchangeRateMantissa_": "The initial exchange rate, scaled by 1e18",
          "interestRateModel_": "The address of the interest rate model",
          "name_": "ERC-20 name of this token",
          "symbol_": "ERC-20 symbol of this token",
          "underlying_": "The address of the underlying asset"
        }
      },
      "initialize(address,address,uint256,string,string,uint8)": {
        "params": {
          "comptroller_": "The address of the Comptroller",
          "decimals_": "EIP-20 decimal precision of this token",
          "initialExchangeRateMantissa_": "The initial exchange rate, scaled by 1e18",
          "interestRateModel_": "The address of the interest rate model",
          "name_": "EIP-20 name of this token",
          "symbol_": "EIP-20 symbol of this token"
        }
      },
      "liquidateBorrow(address,uint256,address)": {
        "params": {
          "borrower": "The borrower of this cToken to be liquidated",
          "cTokenCollateral": "The market in which to seize collateral from the borrower",
          "repayAmount": "The amount of the underlying borrowed asset to repay"
        },
        "returns": {
          "_0": "uint 0=success, otherwise a failure (see ErrorReporter.sol for details)"
        }
      },
      "mint(uint256)": {
        "details": "Accrues interest whether or not the operation succeeds, unless reverted",
        "params": {
          "mintAmount": "The amount of the underlying asset to supply"
        },
        "returns": {
          "_0": "uint 0=success, otherwise a failure (see ErrorReporter.sol for details)"
        }
      },
      "redeem(uint256)": {
        "details": "Accrues interest whether or not the operation succeeds, unless reverted",
        "params": {
          "redeemTokens": "The number of cTokens to redeem into underlying"
        },
        "returns": {
          "_0": "uint 0=success, otherwise a failure (see ErrorReporter.sol for details)"
        }
      },
      "redeemUnderlying(uint256)": {
        "details": "Accrues interest whether or not the operation succeeds, unless reverted",
        "params": {
          "redeemAmount": "The amount of underlying to redeem"
        },
        "returns": {
          "_0": "uint 0=success, otherwise a failure (see ErrorReporter.sol for details)"
        }
      },
      "repayBorrow(uint256)": {
        "params": {
          "repayAmount": "The amount to repay"
        },
        "returns": {
          "_0": "uint 0=success, otherwise a failure (see ErrorReporter.sol for details)"
        }
      },
      "repayBorrowBehalf(address,uint256)": {
        "params": {
          "borrower": "the account with the debt being payed off",
          "repayAmount": "The amount to repay"
        },
        "returns": {
          "_0": "uint 0=success, otherwise a failure (see ErrorReporter.sol for details)"
        }
      },
      "seize(address,address,uint256)": {
        "details": "Will fail unless called by another cToken during the process of liquidation.  Its absolutely critical to use msg.sender as the borrowed cToken and not a parameter.",
        "params": {
          "borrower": "The account having collateral seized",
          "liquidator": "The account receiving seized collateral",
          "seizeTokens": "The number of cTokens to seize"
        },
        "returns": {
          "_0": "uint 0=success, otherwise a failure (see ErrorReporter.sol for details)"
        }
      },
      "supplyRatePerBlock()": {
        "returns": {
          "_0": "The supply interest rate per block, scaled by 1e18"
        }
      },
      "sweepToken(address)": {
        "params": {
          "token": "The address of the ERC-20 token to sweep"
        }
      },
      "totalBorrowsCurrent()": {
        "returns": {
          "_0": "The total borrows with interest"
        }
      },
      "transfer(address,uint256)": {
        "params": {
          "amount": "The number of tokens to transfer",
          "dst": "The address of the destination account"
        },
        "returns": {
          "_0": "Whether or not the transfer succeeded"
        }
      },
      "transferFrom(address,address,uint256)": {
        "params": {
          "amount": "The number of tokens to transfer",
          "dst": "The address of the destination account",
          "src": "The address of the source account"
        },
        "returns": {
          "_0": "Whether or not the transfer succeeded"
        }
      }
    },
    "title": "Compound's CErc20 Contract",
    "version": 1
  },
  "userdoc": {
    "events": {
      "AccrueInterest(uint256,uint256,uint256,uint256)": {
        "notice": "Event emitted when interest is accrued"
      },
      "Approval(address,address,uint256)": {
        "notice": "EIP20 Approval event"
      },
      "Borrow(address,uint256,uint256,uint256)": {
        "notice": "Event emitted when underlying is borrowed"
      },
      "LiquidateBorrow(address,address,uint256,address,uint256)": {
        "notice": "Event emitted when a borrow is liquidated"
      },
      "Mint(address,uint256,uint256)": {
        "notice": "Event emitted when tokens are minted"
      },
      "NewAdmin(address,address)": {
        "notice": "Event emitted when pendingAdmin is accepted, which means admin is updated"
      },
      "NewComptroller(address,address)": {
        "notice": "Event emitted when comptroller is changed"
      },
      "NewMarketInterestRateModel(address,address)": {
        "notice": "Event emitted when interestRateModel is changed"
      },
      "NewPendingAdmin(address,address)": {
        "notice": "Event emitted when pendingAdmin is changed"
      },
      "NewReserveFactor(uint256,uint256)": {
        "notice": "Event emitted when the reserve factor is changed"
      },
      "Redeem(address,uint256,uint256)": {
        "notice": "Event emitted when tokens are redeemed"
      },
      "RepayBorrow(address,address,uint256,uint256,uint256)": {
        "notice": "Event emitted when a borrow is repaid"
      },
      "ReservesAdded(address,uint256,uint256)": {
        "notice": "Event emitted when the reserves are added"
      },
      "ReservesReduced(address,uint256,uint256)": {
        "notice": "Event emitted when the reserves are reduced"
      },
      "Transfer(address,address,uint256)": {
        "notice": "EIP20 Transfer event"
      }
    },
    "kind": "user",
    "methods": {
      "_acceptAdmin()": {
        "notice": "Accepts transfer of admin rights. msg.sender must be pendingAdmin"
      },
      "_addReserves(uint256)": {
        "notice": "The sender adds to reserves."
      },
      "_reduceReserves(uint256)": {
        "notice": "Accrues interest and reduces reserves by transferring to admin"
      },
      "_setComptroller(address)": {
        "notice": "Sets a new comptroller for the market"
      },
      "_setInterestRateModel(address)": {
        "notice": "accrues interest and updates the interest rate model using _setInterestRateModelFresh"
      },
      "_setPendingAdmin(address)": {
        "notice": "Begins transfer of admin rights. The newPendingAdmin must call `_acceptAdmin` to finalize the transfer."
      },
      "_setReserveFactor(uint256)": {
        "notice": "accrues interest and sets a new reserve factor for the protocol using _setReserveFactorFresh"
      },
      "accrualBlockNumber()": {
        "notice": "Block number that interest was last accrued at"
      },
      "accrueInterest()": {
        "notice": "Applies accrued interest to total borrows and reserves"
      },
      "admin()": {
        "notice": "Administrator for this contract"
      },
      "allowance(address,address)": {
        "notice": "Get the current allowance from `owner` for `spender`"
      },
      "approve(address,uint256)": {
        "notice": "Approve `spender` to transfer up to `amount` from `src`"
      },
      "balanceOf(address)": {
        "notice": "Get the token balance of the `owner`"
      },
      "balanceOfUnderlying(address)": {
        "notice": "Get the underlying balance of the `owner`"
      },
      "borrow(uint256)": {
        "notice": "Sender borrows assets from the protocol to their own address"
      },
      "borrowBalanceCurrent(address)": {
        "notice": "Accrue interest to updated borrowIndex and then calculate account's borrow balance using the updated borrowIndex"
      },
      "borrowBalanceStored(address)": {
        "notice": "Return the borrow balance of account based on stored data"
      },
      "borrowIndex()": {
        "notice": "Accumulator of the total earned interest rate since the opening of the market"
      },
      "borrowRatePerBlock()": {
        "notice": "Returns the current per-block borrow interest rate for this cToken"
      },
      "comptroller()": {
        "notice": "Contract which oversees inter-cToken operations"
      },
      "decimals()": {
        "notice": "EIP-20 token decimals for this token"
      },
      "exchangeRateCurrent()": {
        "notice": "Accrue interest then return the up-to-date exchange rate"
      },
      "exchangeRateStored()": {
        "notice": "Calculates the exchange rate from the underlying to the CToken"
      },
      "getAccountSnapshot(address)": {
        "notice": "Get a snapshot of the account's balances, and the cached exchange rate"
      },
      "getCash()": {
        "notice": "Get cash balance of this cToken in the underlying asset"
      },
      "initialize(address,address,address,uint256,string,string,uint8)": {
        "notice": "Initialize the new money market"
      },
      "initialize(address,address,uint256,string,string,uint8)": {
        "notice": "Initialize the money market"
      },
      "isCToken()": {
        "notice": "Indicator that this is a CToken contract (for inspection)"
      },
      "liquidateBorrow(address,uint256,address)": {
        "notice": "The sender liquidates the borrowers collateral.  The collateral seized is transferred to the liquidator."
      },
      "mint(uint256)": {
        "notice": "Sender supplies assets into the market and receives cTokens in exchange"
      },
      "name()": {
        "notice": "EIP-20 token name for this token"
      },
      "pendingAdmin()": {
        "notice": "Pending administrator for this contract"
      },
      "redeem(uint256)": {
        "notice": "Sender redeems cTokens in exchange for the underlying asset"
      },
      "redeemUnderlying(uint256)": {
        "notice": "Sender redeems cTokens in exchange for a specified amount of underlying asset"
      },
      "repayBorrow(uint256)": {
        "notice": "Sender repays their own borrow"
      },
      "repayBorrowBehalf(address,uint256)": {
        "notice": "Sender repays a borrow belonging to borrower"
      },
      "seize(address,address,uint256)": {
        "notice": "Transfers collateral tokens (this market) to the liquidator."
      },
      "supplyRatePerBlock()": {
        "notice": "Returns the current per-block supply interest rate for this cToken"
      },
      "sweepToken(address)": {
        "notice": "A public function to sweep accidental ERC-20 transfers to this contract. Tokens are sent to admin (timelock)"
      },
      "symbol()": {
        "notice": "EIP-20 token symbol for this token"
      },
      "totalBorrows()": {
        "notice": "Total amount of outstanding borrows of the underlying in this market"
      },
      "totalBorrowsCurrent()": {
        "notice": "Returns the current total borrows plus accrued interest"
      },
      "totalReserves()": {
        "notice": "Total amount of reserves of the underlying held in this market"
      },
      "totalSupply()": {
        "notice": "Total number of tokens in circulation"
      },
      "transfer(address,uint256)": {
        "notice": "Transfer `amount` tokens from `msg.sender` to `dst`"
      },
      "transferFrom(address,address,uint256)": {
        "notice": "Transfer `amount` tokens from `src` to `dst`"
      },
      "underlying()": {
        "notice": "Underlying asset for this CToken"
      }
    },
    "notice": "CTokens which wrap an EIP-20 underlying",
    "version": 1
  }
}