{
  "contractName": "CEther",
  "abi": [
    {
      "inputs": [
        {
          "internalType": "contract ComptrollerInterface",
          "name": "comptroller_",
          "type": "address"
        },
        {
          "internalType": "contract InterestRateModel",
          "name": "interestRateModel_",
          "type": "address"
        },
        {
          "internalType": "uint256",
          "name": "initialExchangeRateMantissa_",
          "type": "uint256"
        },
        {
          "internalType": "string",
          "name": "name_",
          "type": "string"
        },
        {
          "internalType": "string",
          "name": "symbol_",
          "type": "string"
        },
        {
          "internalType": "uint8",
          "name": "decimals_",
          "type": "uint8"
        },
        {
          "internalType": "address payable",
          "name": "admin_",
          "type": "address"
        }
      ],
      "stateMutability": "nonpayable",
      "type": "constructor"
    },
    {
      "anonymous": false,
      "inputs": [
        {
          "indexed": false,
          "internalType": "uint256",
          "name": "cashPrior",
          "type": "uint256"
        },
        {
          "indexed": false,
          "internalType": "uint256",
          "name": "interestAccumulated",
          "type": "uint256"
        },
        {
          "indexed": false,
          "internalType": "uint256",
          "name": "borrowIndex",
          "type": "uint256"
        },
        {
          "indexed": false,
          "internalType": "uint256",
          "name": "totalBorrows",
          "type": "uint256"
        }
      ],
      "name": "AccrueInterest",
      "type": "event"
    },
    {
      "anonymous": false,
      "inputs": [
        {
          "indexed": true,
          "internalType": "address",
          "name": "owner",
          "type": "address"
        },
        {
          "indexed": true,
          "internalType": "address",
          "name": "spender",
          "type": "address"
        },
        {
          "indexed": false,
          "internalType": "uint256",
          "name": "amount",
          "type": "uint256"
        }
      ],
      "name": "Approval",
      "type": "event"
    },
    {
      "anonymous": false,
      "inputs": [
        {
          "indexed": false,
          "internalType": "address",
          "name": "borrower",
          "type": "address"
        },
        {
          "indexed": false,
          "internalType": "uint256",
          "name": "borrowAmount",
          "type": "uint256"
        },
        {
          "indexed": false,
          "internalType": "uint256",
          "name": "accountBorrows",
          "type": "uint256"
        },
        {
          "indexed": false,
          "internalType": "uint256",
          "name": "totalBorrows",
          "type": "uint256"
        }
      ],
      "name": "Borrow",
      "type": "event"
    },
    {
      "anonymous": false,
      "inputs": [
        {
          "indexed": false,
          "internalType": "uint256",
          "name": "error",
          "type": "uint256"
        },
        {
          "indexed": false,
          "internalType": "uint256",
          "name": "info",
          "type": "uint256"
        },
        {
          "indexed": false,
          "internalType": "uint256",
          "name": "detail",
          "type": "uint256"
        }
      ],
      "name": "Failure",
      "type": "event"
    },
    {
      "anonymous": false,
      "inputs": [
        {
          "indexed": false,
          "internalType": "address",
          "name": "liquidator",
          "type": "address"
        },
        {
          "indexed": false,
          "internalType": "address",
          "name": "borrower",
          "type": "address"
        },
        {
          "indexed": false,
          "internalType": "uint256",
          "name": "repayAmount",
          "type": "uint256"
        },
        {
          "indexed": false,
          "internalType": "address",
          "name": "cTokenCollateral",
          "type": "address"
        },
        {
          "indexed": false,
          "internalType": "uint256",
          "name": "seizeTokens",
          "type": "uint256"
        }
      ],
      "name": "LiquidateBorrow",
      "type": "event"
    },
    {
      "anonymous": false,
      "inputs": [
        {
          "indexed": false,
          "internalType": "address",
          "name": "minter",
          "type": "address"
        },
        {
          "indexed": false,
          "internalType": "uint256",
          "name": "mintAmount",
          "type": "uint256"
        },
        {
          "indexed": false,
          "internalType": "uint256",
          "name": "mintTokens",
          "type": "uint256"
        }
      ],
      "name": "Mint",
      "type": "event"
    },
    {
      "anonymous": false,
      "inputs": [
        {
          "indexed": false,
          "internalType": "address",
          "name": "oldAdmin",
          "type": "address"
        },
        {
          "indexed": false,
          "internalType": "address",
          "name": "newAdmin",
          "type": "address"
        }
      ],
      "name": "NewAdmin",
      "type": "event"
    },
    {
      "anonymous": false,
      "inputs": [
        {
          "indexed": false,
          "internalType": "contract ComptrollerInterface",
          "name": "oldComptroller",
          "type": "address"
        },
        {
          "indexed": false,
          "internalType": "contract ComptrollerInterface",
          "name": "newComptroller",
          "type": "address"
        }
      ],
      "name": "NewComptroller",
      "type": "event"
    },
    {
      "anonymous": false,
      "inputs": [
        {
          "indexed": false,
          "internalType": "contract InterestRateModel",
          "name": "oldInterestRateModel",
          "type": "address"
        },
        {
          "indexed": false,
          "internalType": "contract InterestRateModel",
          "name": "newInterestRateModel",
          "type": "address"
        }
      ],
      "name": "NewMarketInterestRateModel",
      "type": "event"
    },
    {
      "anonymous": false,
      "inputs": [
        {
          "indexed": false,
          "internalType": "address",
          "name": "oldPendingAdmin",
          "type": "address"
        },
        {
          "indexed": false,
          "internalType": "address",
          "name": "newPendingAdmin",
          "type": "address"
        }
      ],
      "name": "NewPendingAdmin",
      "type": "event"
    },
    {
      "anonymous": false,
      "inputs": [
        {
          "indexed": false,
          "internalType": "uint256",
          "name": "oldReserveFactorMantissa",
          "type": "uint256"
        },
        {
          "indexed": false,
          "internalType": "uint256",
          "name": "newReserveFactorMantissa",
          "type": "uint256"
        }
      ],
      "name": "NewReserveFactor",
      "type": "event"
    },
    {
      "anonymous": false,
      "inputs": [
        {
          "indexed": false,
          "internalType": "address",
          "name": "redeemer",
          "type": "address"
        },
        {
          "indexed": false,
          "internalType": "uint256",
          "name": "redeemAmount",
          "type": "uint256"
        },
        {
          "indexed": false,
          "internalType": "uint256",
          "name": "redeemTokens",
          "type": "uint256"
        }
      ],
      "name": "Redeem",
      "type": "event"
    },
    {
      "anonymous": false,
      "inputs": [
        {
          "indexed": false,
          "internalType": "address",
          "name": "payer",
          "type": "address"
        },
        {
          "indexed": false,
          "internalType": "address",
          "name": "borrower",
          "type": "address"
        },
        {
          "indexed": false,
          "internalType": "uint256",
          "name": "repayAmount",
          "type": "uint256"
        },
        {
          "indexed": false,
          "internalType": "uint256",
          "name": "accountBorrows",
          "type": "uint256"
        },
        {
          "indexed": false,
          "internalType": "uint256",
          "name": "totalBorrows",
          "type": "uint256"
        }
      ],
      "name": "RepayBorrow",
      "type": "event"
    },
    {
      "anonymous": false,
      "inputs": [
        {
          "indexed": false,
          "internalType": "address",
          "name": "benefactor",
          "type": "address"
        },
        {
          "indexed": false,
          "internalType": "uint256",
          "name": "addAmount",
          "type": "uint256"
        },
        {
          "indexed": false,
          "internalType": "uint256",
          "name": "newTotalReserves",
          "type": "uint256"
        }
      ],
      "name": "ReservesAdded",
      "type": "event"
    },
    {
      "anonymous": false,
      "inputs": [
        {
          "indexed": false,
          "internalType": "address",
          "name": "admin",
          "type": "address"
        },
        {
          "indexed": false,
          "internalType": "uint256",
          "name": "reduceAmount",
          "type": "uint256"
        },
        {
          "indexed": false,
          "internalType": "uint256",
          "name": "newTotalReserves",
          "type": "uint256"
        }
      ],
      "name": "ReservesReduced",
      "type": "event"
    },
    {
      "anonymous": false,
      "inputs": [
        {
          "indexed": true,
          "internalType": "address",
          "name": "from",
          "type": "address"
        },
        {
          "indexed": true,
          "internalType": "address",
          "name": "to",
          "type": "address"
        },
        {
          "indexed": false,
          "internalType": "uint256",
          "name": "amount",
          "type": "uint256"
        }
      ],
      "name": "Transfer",
      "type": "event"
    },
    {
      "inputs": [],
      "name": "_acceptAdmin",
      "outputs": [
        {
          "internalType": "uint256",
          "name": "",
          "type": "uint256"
        }
      ],
      "stateMutability": "nonpayable",
      "type": "function"
    },
    {
      "inputs": [
        {
          "internalType": "uint256",
          "name": "reduceAmount",
          "type": "uint256"
        }
      ],
      "name": "_reduceReserves",
      "outputs": [
        {
          "internalType": "uint256",
          "name": "",
          "type": "uint256"
        }
      ],
      "stateMutability": "nonpayable",
      "type": "function"
    },
    {
      "inputs": [
        {
          "internalType": "contract ComptrollerInterface",
          "name": "newComptroller",
          "type": "address"
        }
      ],
      "name": "_setComptroller",
      "outputs": [
        {
          "internalType": "uint256",
          "name": "",
          "type": "uint256"
        }
      ],
      "stateMutability": "nonpayable",
      "type": "function"
    },
    {
      "inputs": [
        {
          "internalType": "contract InterestRateModel",
          "name": "newInterestRateModel",
          "type": "address"
        }
      ],
      "name": "_setInterestRateModel",
      "outputs": [
        {
          "internalType": "uint256",
          "name": "",
          "type": "uint256"
        }
      ],
      "stateMutability": "nonpayable",
      "type": "function"
    },
    {
      "inputs": [
        {
          "internalType": "address payable",
          "name": "newPendingAdmin",
          "type": "address"
        }
      ],
      "name": "_setPendingAdmin",
      "outputs": [
        {
          "internalType": "uint256",
          "name": "",
          "type": "uint256"
        }
      ],
      "stateMutability": "nonpayable",
      "type": "function"
    },
    {
      "inputs": [
        {
          "internalType": "uint256",
          "name": "newReserveFactorMantissa",
          "type": "uint256"
        }
      ],
      "name": "_setReserveFactor",
      "outputs": [
        {
          "internalType": "uint256",
          "name": "",
          "type": "uint256"
        }
      ],
      "stateMutability": "nonpayable",
      "type": "function"
    },
    {
      "inputs": [],
      "name": "accrualBlockNumber",
      "outputs": [
        {
          "internalType": "uint256",
          "name": "",
          "type": "uint256"
        }
      ],
      "stateMutability": "view",
      "type": "function"
    },
    {
      "inputs": [],
      "name": "accrueInterest",
      "outputs": [
        {
          "internalType": "uint256",
          "name": "",
          "type": "uint256"
        }
      ],
      "stateMutability": "nonpayable",
      "type": "function"
    },
    {
      "inputs": [],
      "name": "admin",
      "outputs": [
        {
          "internalType": "address payable",
          "name": "",
          "type": "address"
        }
      ],
      "stateMutability": "view",
      "type": "function"
    },
    {
      "inputs": [
        {
          "internalType": "address",
          "name": "owner",
          "type": "address"
        },
        {
          "internalType": "address",
          "name": "spender",
          "type": "address"
        }
      ],
      "name": "allowance",
      "outputs": [
        {
          "internalType": "uint256",
          "name": "",
          "type": "uint256"
        }
      ],
      "stateMutability": "view",
      "type": "function"
    },
    {
      "inputs": [
        {
          "internalType": "address",
          "name": "spender",
          "type": "address"
        },
        {
          "internalType": "uint256",
          "name": "amount",
          "type": "uint256"
        }
      ],
      "name": "approve",
      "outputs": [
        {
          "internalType": "bool",
          "name": "",
          "type": "bool"
        }
      ],
      "stateMutability": "nonpayable",
      "type": "function"
    },
    {
      "inputs": [
        {
          "internalType": "address",
          "name": "owner",
          "type": "address"
        }
      ],
      "name": "balanceOf",
      "outputs": [
        {
          "internalType": "uint256",
          "name": "",
          "type": "uint256"
        }
      ],
      "stateMutability": "view",
      "type": "function"
    },
    {
      "inputs": [
        {
          "internalType": "address",
          "name": "owner",
          "type": "address"
        }
      ],
      "name": "balanceOfUnderlying",
      "outputs": [
        {
          "internalType": "uint256",
          "name": "",
          "type": "uint256"
        }
      ],
      "stateMutability": "nonpayable",
      "type": "function"
    },
    {
      "inputs": [
        {
          "internalType": "address",
          "name": "account",
          "type": "address"
        }
      ],
      "name": "borrowBalanceCurrent",
      "outputs": [
        {
          "internalType": "uint256",
          "name": "",
          "type": "uint256"
        }
      ],
      "stateMutability": "nonpayable",
      "type": "function"
    },
    {
      "inputs": [
        {
          "internalType": "address",
          "name": "account",
          "type": "address"
        }
      ],
      "name": "borrowBalanceStored",
      "outputs": [
        {
          "internalType": "uint256",
          "name": "",
          "type": "uint256"
        }
      ],
      "stateMutability": "view",
      "type": "function"
    },
    {
      "inputs": [],
      "name": "borrowIndex",
      "outputs": [
        {
          "internalType": "uint256",
          "name": "",
          "type": "uint256"
        }
      ],
      "stateMutability": "view",
      "type": "function"
    },
    {
      "inputs": [],
      "name": "borrowRatePerBlock",
      "outputs": [
        {
          "internalType": "uint256",
          "name": "",
          "type": "uint256"
        }
      ],
      "stateMutability": "view",
      "type": "function"
    },
    {
      "inputs": [],
      "name": "comptroller",
      "outputs": [
        {
          "internalType": "contract ComptrollerInterface",
          "name": "",
          "type": "address"
        }
      ],
      "stateMutability": "view",
      "type": "function"
    },
    {
      "inputs": [],
      "name": "decimals",
      "outputs": [
        {
          "internalType": "uint8",
          "name": "",
          "type": "uint8"
        }
      ],
      "stateMutability": "view",
      "type": "function"
    },
    {
      "inputs": [],
      "name": "exchangeRateCurrent",
      "outputs": [
        {
          "internalType": "uint256",
          "name": "",
          "type": "uint256"
        }
      ],
      "stateMutability": "nonpayable",
      "type": "function"
    },
    {
      "inputs": [],
      "name": "exchangeRateStored",
      "outputs": [
        {
          "internalType": "uint256",
          "name": "",
          "type": "uint256"
        }
      ],
      "stateMutability": "view",
      "type": "function"
    },
    {
      "inputs": [
        {
          "internalType": "address",
          "name": "account",
          "type": "address"
        }
      ],
      "name": "getAccountSnapshot",
      "outputs": [
        {
          "internalType": "uint256",
          "name": "",
          "type": "uint256"
        },
        {
          "internalType": "uint256",
          "name": "",
          "type": "uint256"
        },
        {
          "internalType": "uint256",
          "name": "",
          "type": "uint256"
        },
        {
          "internalType": "uint256",
          "name": "",
          "type": "uint256"
        }
      ],
      "stateMutability": "view",
      "type": "function"
    },
    {
      "inputs": [],
      "name": "getCash",
      "outputs": [
        {
          "internalType": "uint256",
          "name": "",
          "type": "uint256"
        }
      ],
      "stateMutability": "view",
      "type": "function"
    },
    {
      "inputs": [
        {
          "internalType": "contract ComptrollerInterface",
          "name": "comptroller_",
          "type": "address"
        },
        {
          "internalType": "contract InterestRateModel",
          "name": "interestRateModel_",
          "type": "address"
        },
        {
          "internalType": "uint256",
          "name": "initialExchangeRateMantissa_",
          "type": "uint256"
        },
        {
          "internalType": "string",
          "name": "name_",
          "type": "string"
        },
        {
          "internalType": "string",
          "name": "symbol_",
          "type": "string"
        },
        {
          "internalType": "uint8",
          "name": "decimals_",
          "type": "uint8"
        }
      ],
      "name": "initialize",
      "outputs": [],
      "stateMutability": "nonpayable",
      "type": "function"
    },
    {
      "inputs": [],
      "name": "interestRateModel",
      "outputs": [
        {
          "internalType": "contract InterestRateModel",
          "name": "",
          "type": "address"
        }
      ],
      "stateMutability": "view",
      "type": "function"
    },
    {
      "inputs": [],
      "name": "isCToken",
      "outputs": [
        {
          "internalType": "bool",
          "name": "",
          "type": "bool"
        }
      ],
      "stateMutability": "view",
      "type": "function"
    },
    {
      "inputs": [],
      "name": "name",
      "outputs": [
        {
          "internalType": "string",
          "name": "",
          "type": "string"
        }
      ],
      "stateMutability": "view",
      "type": "function"
    },
    {
      "inputs": [],
      "name": "pendingAdmin",
      "outputs": [
        {
          "internalType": "address payable",
          "name": "",
          "type": "address"
        }
      ],
      "stateMutability": "view",
      "type": "function"
    },
    {
      "inputs": [],
      "name": "reserveFactorMantissa",
      "outputs": [
        {
          "internalType": "uint256",
          "name": "",
          "type": "uint256"
        }
      ],
      "stateMutability": "view",
      "type": "function"
    },
    {
      "inputs": [
        {
          "internalType": "address",
          "name": "liquidator",
          "type": "address"
        },
        {
          "internalType": "address",
          "name": "borrower",
          "type": "address"
        },
        {
          "internalType": "uint256",
          "name": "seizeTokens",
          "type": "uint256"
        }
      ],
      "name": "seize",
      "outputs": [
        {
          "internalType": "uint256",
          "name": "",
          "type": "uint256"
        }
      ],
      "stateMutability": "nonpayable",
      "type": "function"
    },
    {
      "inputs": [],
      "name": "supplyRatePerBlock",
      "outputs": [
        {
          "internalType": "uint256",
          "name": "",
          "type": "uint256"
        }
      ],
      "stateMutability": "view",
      "type": "function"
    },
    {
      "inputs": [],
      "name": "symbol",
      "outputs": [
        {
          "internalType": "string",
          "name": "",
          "type": "string"
        }
      ],
      "stateMutability": "view",
      "type": "function"
    },
    {
      "inputs": [],
      "name": "totalBorrows",
      "outputs": [
        {
          "internalType": "uint256",
          "name": "",
          "type": "uint256"
        }
      ],
      "stateMutability": "view",
      "type": "function"
    },
    {
      "inputs": [],
      "name": "totalBorrowsCurrent",
      "outputs": [
        {
          "internalType": "uint256",
          "name": "",
          "type": "uint256"
        }
      ],
      "stateMutability": "nonpayable",
      "type": "function"
    },
    {
      "inputs": [],
      "name": "totalReserves",
      "outputs": [
        {
          "internalType": "uint256",
          "name": "",
          "type": "uint256"
        }
      ],
      "stateMutability": "view",
      "type": "function"
    },
    {
      "inputs": [],
      "name": "totalSupply",
      "outputs": [
        {
          "internalType": "uint256",
          "name": "",
          "type": "uint256"
        }
      ],
      "stateMutability": "view",
      "type": "function"
    },
    {
      "inputs": [
        {
          "internalType": "address",
          "name": "dst",
          "type": "address"
        },
        {
          "internalType": "uint256",
          "name": "amount",
          "type": "uint256"
        }
      ],
      "name": "transfer",
      "outputs": [
        {
          "internalType": "bool",
          "name": "",
          "type": "bool"
        }
      ],
      "stateMutability": "nonpayable",
      "type": "function"
    },
    {
      "inputs": [
        {
          "internalType": "address",
          "name": "src",
          "type": "address"
        },
        {
          "internalType": "address",
          "name": "dst",
          "type": "address"
        },
        {
          "internalType": "uint256",
          "name": "amount",
          "type": "uint256"
        }
      ],
      "name": "transferFrom",
      "outputs": [
        {
          "internalType": "bool",
          "name": "",
          "type": "bool"
        }
      ],
      "stateMutability": "nonpayable",
      "type": "function"
    },
    {
      "stateMutability": "payable",
      "type": "receive"
    },
    {
      "inputs": [],
      "name": "mint",
      "outputs": [],
      "stateMutability": "payable",
      "type": "function"
    },
    {
      "inputs": [
        {
          "internalType": "uint256",
          "name": "redeemTokens",
          "type": "uint256"
        }
      ],
      "name": "redeem",
      "outputs": [
        {
          "internalType": "uint256",
          "name": "",
          "type": "uint256"
        }
      ],
      "stateMutability": "nonpayable",
      "type": "function"
    },
    {
      "inputs": [
        {
          "internalType": "uint256",
          "name": "redeemAmount",
          "type": "uint256"
        }
      ],
      "name": "redeemUnderlying",
      "outputs": [
        {
          "internalType": "uint256",
          "name": "",
          "type": "uint256"
        }
      ],
      "stateMutability": "nonpayable",
      "type": "function"
    },
    {
      "inputs": [
        {
          "internalType": "uint256",
          "name": "borrowAmount",
          "type": "uint256"
        }
      ],
      "name": "borrow",
      "outputs": [
        {
          "internalType": "uint256",
          "name": "",
          "type": "uint256"
        }
      ],
      "stateMutability": "nonpayable",
      "type": "function"
    },
    {
      "inputs": [],
      "name": "repayBorrow",
      "outputs": [],
      "stateMutability": "payable",
      "type": "function"
    },
    {
      "inputs": [
        {
          "internalType": "address",
          "name": "borrower",
          "type": "address"
        }
      ],
      "name": "repayBorrowBehalf",
      "outputs": [],
      "stateMutability": "payable",
      "type": "function"
    },
    {
      "inputs": [
        {
          "internalType": "address",
          "name": "borrower",
          "type": "address"
        },
        {
          "internalType": "contract CToken",
          "name": "cTokenCollateral",
          "type": "address"
        }
      ],
      "name": "liquidateBorrow",
      "outputs": [],
      "stateMutability": "payable",
      "type": "function"
    }
  ],
  "bytecode": "0x60806040523480156200001157600080fd5b5060405162005bd438038062005bd4833981016040819052620000349162000696565b60038054610100600160a81b03191633610100021790556200005b8787878787876200008e565b600380546001600160a01b0390921661010002610100600160a81b03199092169190911790555062000980945050505050565b60035461010090046001600160a01b03163314620000c95760405162461bcd60e51b8152600401620000c09062000777565b60405180910390fd5b600954158015620000da5750600a54155b620000f95760405162461bcd60e51b8152600401620000c090620007bb565b6007849055836200011e5760405162461bcd60e51b8152600401620000c090620007fe565b60006200012b87620001e7565b905080156200014e5760405162461bcd60e51b8152600401620000c090620008c7565b620001586200031a565b600955670de0b6b3a7640000600a5562000172866200031e565b90508015620001955760405162461bcd60e51b8152600401620000c0906200084e565b8351620001aa90600190602087019062000516565b508251620001c090600290602086019062000516565b50506003805460ff90921660ff199283161790556000805490911660011790555050505050565b60035460009061010090046001600160a01b031633146200021857620002106001603f6200046e565b905062000315565b60055460408051623f1ee960e11b815290516001600160a01b0392831692851691627e3dd2916004808301926020929190829003018186803b1580156200025e57600080fd5b505afa15801562000273573d6000803e3d6000fd5b505050506040513d601f19601f8201168201806040525081019062000299919062000674565b620002b85760405162461bcd60e51b8152600401620000c09062000890565b600580546001600160a01b0319166001600160a01b0385161790556040517f7ac369dbd14fa5ea3f473ed67cc9d598964a77501540ba6751eb0b3decf5870d906200030790839086906200075d565b60405180910390a160009150505b919050565b4390565b600354600090819061010090046001600160a01b03163314620003525762000349600160426200046e565b91505062000315565b6200035c6200031a565b60095414620003735762000349600a60416200046e565b600660009054906101000a90046001600160a01b03169050826001600160a01b0316632191f92a6040518163ffffffff1660e01b815260040160206040518083038186803b158015620003c557600080fd5b505afa158015620003da573d6000803e3d6000fd5b505050506040513d601f19601f8201168201806040525081019062000400919062000674565b6200041f5760405162461bcd60e51b8152600401620000c09062000890565b600680546001600160a01b0319166001600160a01b0385161790556040517fedffc32e068c7c95dfd4bdfd5c4d939a084d6b11c4199eac8436ed234d72f926906200030790839086906200075d565b60007f45b96fe442630264581b197e84bbada861235052c5a1aadfff9ea4e40a969aa0836010811115620004b257634e487b7160e01b600052602160045260246000fd5b836050811115620004d357634e487b7160e01b600052602160045260246000fd5b6000604051620004e693929190620008fe565b60405180910390a18260108111156200050f57634e487b7160e01b600052602160045260246000fd5b9392505050565b828054620005249062000914565b90600052602060002090601f01602090048101928262000548576000855562000593565b82601f106200056357805160ff191683800117855562000593565b8280016001018555821562000593579182015b828111156200059357825182559160200191906001019062000576565b50620005a1929150620005a5565b5090565b5b80821115620005a15760008155600101620005a6565b8051620003158162000967565b600082601f830112620005da578081fd5b81516001600160401b0380821115620005f757620005f762000951565b6040516020601f8401601f19168201810183811183821017156200061f576200061f62000951565b604052838252858401810187101562000636578485fd5b8492505b838310156200065957858301810151828401820152918201916200063a565b838311156200066a57848185840101525b5095945050505050565b60006020828403121562000686578081fd5b815180151581146200050f578182fd5b600080600080600080600060e0888a031215620006b1578283fd5b8751620006be8162000967565b6020890151909750620006d18162000967565b604089015160608a015191975095506001600160401b0380821115620006f5578485fd5b620007038b838c01620005c9565b955060808a015191508082111562000719578485fd5b50620007288a828b01620005c9565b93505060a088015160ff811681146200073f578283fd5b91506200074f60c08901620005bc565b905092959891949750929550565b6001600160a01b0392831681529116602082015260400190565b60208082526024908201527f6f6e6c792061646d696e206d617920696e697469616c697a6520746865206d616040820152631c9ad95d60e21b606082015260800190565b60208082526023908201527f6d61726b6574206d6179206f6e6c7920626520696e697469616c697a6564206f6040820152626e636560e81b606082015260800190565b60208082526030908201527f696e697469616c2065786368616e67652072617465206d75737420626520677260408201526f32b0ba32b9103a3430b7103d32b9379760811b606082015260800190565b60208082526022908201527f73657474696e6720696e7465726573742072617465206d6f64656c206661696c604082015261195960f21b606082015260800190565b6020808252601c908201527f6d61726b6572206d6574686f642072657475726e65642066616c736500000000604082015260600190565b6020808252601a908201527f73657474696e6720636f6d7074726f6c6c6572206661696c6564000000000000604082015260600190565b9283526020830191909152604082015260600190565b6002810460018216806200092957607f821691505b602082108114156200094b57634e487b7160e01b600052602260045260246000fd5b50919050565b634e487b7160e01b600052604160045260246000fd5b6001600160a01b03811681146200097d57600080fd5b50565b61524480620009906000396000f3fe6080604052600436106102765760003560e01c806395d89b411161014f578063c37f68e2116100c1578063f2b3abbd1161007a578063f2b3abbd146106ea578063f3fdb15a1461070a578063f851a4401461071f578063f8f9da2814610734578063fca7820b14610749578063fe9c44ae14610769576102b9565b8063c37f68e214610632578063c5ebeaec14610662578063db006a7514610682578063dd62ed3e146106a2578063e5974619146106c2578063e9c714f2146106d5576102b9565b8063aa5af0fd11610113578063aa5af0fd146105a0578063aae40a2a146105b5578063ae9d70b0146105c8578063b2a02ff1146105dd578063b71d1a0c146105fd578063bd6d894d1461061d576102b9565b806395d89b411461051657806395dd91931461052b57806399d8c1b41461054b578063a6afed951461056b578063a9059cbb14610580576102b9565b80633b1d21a2116101e8578063601a0bf1116101ac578063601a0bf1146104775780636c540baf1461049757806370a08231146104ac57806373acee98146104cc578063852a12e3146104e15780638f840ddd14610501576102b9565b80633b1d21a2146104105780634576b5db1461042557806347bd3718146104455780634e4d9fea1461045a5780635fe3b56714610462576102b9565b806318160ddd1161023a57806318160ddd14610362578063182df0f51461037757806323b872dd1461038c57806326782247146103ac578063313ce567146103ce5780633af9e669146103f0576102b9565b806306fdde03146102be578063095ea7b3146102e95780631249c58b14610316578063173b99041461032057806317bfdfbc14610342576102b9565b366102b95760006102863461077e565b5090506102b6816040518060400160405280600b81526020016a1b5a5b9d0819985a5b195960aa1b815250610820565b50005b600080fd5b3480156102ca57600080fd5b506102d3610abb565b6040516102e091906149df565b60405180910390f35b3480156102f557600080fd5b5061030961030436600461470b565b610b49565b6040516102e091906149d4565b61031e610bb7565b005b34801561032c57600080fd5b50610335610bf5565b6040516102e0919061507b565b34801561034e57600080fd5b5061033561035d366004614665565b610bfb565b34801561036e57600080fd5b50610335610c6b565b34801561038357600080fd5b50610335610c71565b34801561039857600080fd5b506103096103a73660046146b9565b610cc9565b3480156103b857600080fd5b506103c1610d19565b6040516102e09190614851565b3480156103da57600080fd5b506103e3610d28565b6040516102e091906150c3565b3480156103fc57600080fd5b5061033561040b366004614665565b610d31565b34801561041c57600080fd5b50610335610dc1565b34801561043157600080fd5b50610335610440366004614665565b610dd0565b34801561045157600080fd5b50610335610ef5565b61031e610efb565b34801561046e57600080fd5b506103c1610f3d565b34801561048357600080fd5b506103356104923660046147fe565b610f4c565b3480156104a357600080fd5b50610335610fd9565b3480156104b857600080fd5b506103356104c7366004614665565b610fdf565b3480156104d857600080fd5b50610335610ffa565b3480156104ed57600080fd5b506103356104fc3660046147fe565b611060565b34801561050d57600080fd5b5061033561106b565b34801561052257600080fd5b506102d3611071565b34801561053757600080fd5b50610335610546366004614665565b61107e565b34801561055757600080fd5b5061031e610566366004614756565b6110d0565b34801561057757600080fd5b50610335611206565b34801561058c57600080fd5b5061030961059b36600461470b565b6115c4565b3480156105ac57600080fd5b50610335611613565b61031e6105c33660046146f9565b611619565b3480156105d457600080fd5b50610335611666565b3480156105e957600080fd5b506103356105f83660046146b9565b6116fa565b34801561060957600080fd5b50610335610618366004614665565b611749565b34801561062957600080fd5b506103356117c2565b34801561063e57600080fd5b5061065261064d366004614665565b61182e565b6040516102e094939291906150a8565b34801561066e57600080fd5b5061033561067d3660046147fe565b6118eb565b34801561068e57600080fd5b5061033561069d3660046147fe565b6118f6565b3480156106ae57600080fd5b506103356106bd366004614681565b611901565b61031e6106d0366004614665565b61192c565b3480156106e157600080fd5b5061033561197a565b3480156106f657600080fd5b50610335610705366004614665565b611a79565b34801561071657600080fd5b506103c1611ac7565b34801561072b57600080fd5b506103c1611ad6565b34801561074057600080fd5b50610335611aea565b34801561075557600080fd5b506103356107643660046147fe565b611b2a565b34801561077557600080fd5b50610309611b9a565b60008054819060ff166107ac5760405162461bcd60e51b81526004016107a390614ce2565b60405180910390fd5b6000805460ff191681556107be611206565b905080156107fc576107f08160108111156107e957634e487b7160e01b600052602160045260246000fd5b601e611b9f565b6000925092505061080c565b6108063385611c3b565b92509250505b6000805460ff191660011790559092909150565b8161082a57610ab7565b60008151600561083a91906150d1565b67ffffffffffffffff81111561086057634e487b7160e01b600052604160045260246000fd5b6040519080825280601f01601f19166020018201604052801561088a576020820181803683370190505b50905060005b825181101561090d578281815181106108b957634e487b7160e01b600052603260045260246000fd5b602001015160f81c60f81b8282815181106108e457634e487b7160e01b600052603260045260246000fd5b60200101906001600160f81b031916908160001a9053508061090581615168565b915050610890565b600160fd1b8261091e8360006150d1565b8151811061093c57634e487b7160e01b600052603260045260246000fd5b60200101906001600160f81b031916908160001a905350600560fb1b826109648360016150d1565b8151811061098257634e487b7160e01b600052603260045260246000fd5b60200101906001600160f81b031916908160001a9053506109a4600a856150e9565b6109af9060306150d1565b60f81b826109be8360026150d1565b815181106109dc57634e487b7160e01b600052603260045260246000fd5b60200101906001600160f81b031916908160001a9053506109fe600a85615183565b610a099060306150d1565b60f81b82610a188360036150d1565b81518110610a3657634e487b7160e01b600052603260045260246000fd5b60200101906001600160f81b031916908160001a905350602960f81b82610a5e8360046150d1565b81518110610a7c57634e487b7160e01b600052603260045260246000fd5b60200101906001600160f81b031916908160001a905350818415610ab35760405162461bcd60e51b81526004016107a391906149df565b5050505b5050565b60018054610ac890615133565b80601f0160208091040260200160405190810160405280929190818152602001828054610af490615133565b8015610b415780601f10610b1657610100808354040283529160200191610b41565b820191906000526020600020905b815481529060010190602001808311610b2457829003601f168201915b505050505081565b336000818152600f602090815260408083206001600160a01b03871680855292528083208590555191929182907f8c5be1e5ebec7d5bd14f71427d1e84f3dd0314c0f7b2291e5b200ac8c7c3b92590610ba390879061507b565b60405180910390a360019150505b92915050565b6000610bc23461077e565b509050610bf2816040518060400160405280600b81526020016a1b5a5b9d0819985a5b195960aa1b815250610820565b50565b60085481565b6000805460ff16610c1e5760405162461bcd60e51b81526004016107a390614ce2565b6000805460ff19168155610c30611206565b14610c4d5760405162461bcd60e51b81526004016107a390614a32565b610c568261107e565b90505b6000805460ff19166001179055919050565b600d5481565b6000806000610c7e61209d565b90925090506000826003811115610ca557634e487b7160e01b600052602160045260246000fd5b14610cc25760405162461bcd60e51b81526004016107a390614f18565b9150505b90565b6000805460ff16610cec5760405162461bcd60e51b81526004016107a390614ce2565b6000805460ff19168155610d0233868686612174565b1490506000805460ff191660011790559392505050565b6004546001600160a01b031681565b60035460ff1681565b6000806040518060200160405280610d476117c2565b90526001600160a01b0384166000908152600e6020526040812054919250908190610d73908490612440565b90925090506000826003811115610d9a57634e487b7160e01b600052602160045260246000fd5b14610db75760405162461bcd60e51b81526004016107a390614aa6565b925050505b919050565b6000610dcb6124a0565b905090565b60035460009061010090046001600160a01b03163314610dfd57610df66001603f611b9f565b9050610dbc565b60055460408051623f1ee960e11b815290516001600160a01b0392831692851691627e3dd2916004808301926020929190829003018186803b158015610e4257600080fd5b505afa158015610e56573d6000803e3d6000fd5b505050506040513d601f19601f82011682018060405250810190610e7a9190614736565b610e965760405162461bcd60e51b81526004016107a390614bb2565b600580546001600160a01b0319166001600160a01b0385161790556040517f7ac369dbd14fa5ea3f473ed67cc9d598964a77501540ba6751eb0b3decf5870d90610ee390839086906148ac565b60405180910390a160005b9392505050565b600b5481565b6000610f06346124e0565b509050610bf281604051806040016040528060128152602001711c995c185e509bdc9c9bddc819985a5b195960721b815250610820565b6005546001600160a01b031681565b6000805460ff16610f6f5760405162461bcd60e51b81526004016107a390614ce2565b6000805460ff19168155610f81611206565b90508015610fbb57610fb3816010811115610fac57634e487b7160e01b600052602160045260246000fd5b6030611b9f565b915050610c59565b610fc483612554565b9150506000805460ff19166001179055919050565b60095481565b6001600160a01b03166000908152600e602052604090205490565b6000805460ff1661101d5760405162461bcd60e51b81526004016107a390614ce2565b6000805460ff1916815561102f611206565b1461104c5760405162461bcd60e51b81526004016107a390614a32565b50600b546000805460ff1916600117905590565b6000610bb182612663565b600c5481565b60028054610ac890615133565b600080600061108c846126d6565b909250905060008260038111156110b357634e487b7160e01b600052602160045260246000fd5b14610eee5760405162461bcd60e51b81526004016107a390614c85565b60035461010090046001600160a01b031633146110ff5760405162461bcd60e51b81526004016107a390614a62565b60095415801561110f5750600a54155b61112b5760405162461bcd60e51b81526004016107a390614add565b60078490558361114d5760405162461bcd60e51b81526004016107a390614b20565b600061115887610dd0565b905080156111785760405162461bcd60e51b81526004016107a390614e75565b6111806127b1565b600955670de0b6b3a7640000600a55611198866127b5565b905080156111b85760405162461bcd60e51b81526004016107a390614b70565b83516111cb90600190602087019061448b565b5082516111df90600290602086019061448b565b50506003805460ff90921660ff199283161790556000805490911660011790555050505050565b6000806112116127b1565b6009549091508082141561122a57600092505050610cc6565b60006112346124a0565b600b54600c54600a546006546040516315f2405360e01b81529495509293919290916000916001600160a01b0316906315f240539061127b90889088908890600401615092565b60206040518083038186803b15801561129357600080fd5b505afa1580156112a7573d6000803e3d6000fd5b505050506040513d601f19601f820116820180604052508101906112cb9190614816565b905065048c273950008111156112f35760405162461bcd60e51b81526004016107a390614d06565b60008061130089896128eb565b9092509050600082600381111561132757634e487b7160e01b600052602160045260246000fd5b146113445760405162461bcd60e51b81526004016107a390614d9a565b61134c61450f565b60008060008061136a60405180602001604052808a81525087612916565b9097509450600087600381111561139157634e487b7160e01b600052602160045260246000fd5b146113d7576113c2600960068960038111156113bd57634e487b7160e01b600052602160045260246000fd5b612992565b9e505050505050505050505050505050610cc6565b6113e1858c612440565b9097509350600087600381111561140857634e487b7160e01b600052602160045260246000fd5b14611434576113c2600960018960038111156113bd57634e487b7160e01b600052602160045260246000fd5b61143e848c612a2d565b9097509250600087600381111561146557634e487b7160e01b600052602160045260246000fd5b14611491576113c2600960048960038111156113bd57634e487b7160e01b600052602160045260246000fd5b6114ac6040518060200160405280600854815250858c612a5d565b909750915060008760038111156114d357634e487b7160e01b600052602160045260246000fd5b146114ff576113c2600960058960038111156113bd57634e487b7160e01b600052602160045260246000fd5b61150a858a8b612a5d565b9097509050600087600381111561153157634e487b7160e01b600052602160045260246000fd5b1461155d576113c2600960038960038111156113bd57634e487b7160e01b600052602160045260246000fd5b60098e9055600a819055600b839055600c8290556040517f4dec04e750ca11537cabcd8a9eab06494de08da3735bc8871cd41250e190bc04906115a7908e908790859088906150a8565b60405180910390a160009e50505050505050505050505050505090565b6000805460ff166115e75760405162461bcd60e51b81526004016107a390614ce2565b6000805460ff191681556115fd33338686612174565b1490506000805460ff1916600117905592915050565b600a5481565b6000611626833484612ac6565b50905061166181604051806040016040528060168152602001751b1a5c5d5a59185d19509bdc9c9bddc819985a5b195960521b815250610820565b505050565b6006546000906001600160a01b031663b81688166116826124a0565b600b54600c546008546040518563ffffffff1660e01b81526004016116aa94939291906150a8565b60206040518083038186803b1580156116c257600080fd5b505afa1580156116d6573d6000803e3d6000fd5b505050506040513d601f19601f82011682018060405250810190610dcb9190614816565b6000805460ff1661171d5760405162461bcd60e51b81526004016107a390614ce2565b6000805460ff1916905561173333858585612c09565b90506000805460ff191660011790559392505050565b60035460009061010090046001600160a01b0316331461176f57610df660016045611b9f565b600480546001600160a01b038481166001600160a01b03198316179092556040519116907fca4f2f25d0898edd99413412fb94012f9e54ec8142f9b093e7720646a95b16a990610ee390839086906148ac565b6000805460ff166117e55760405162461bcd60e51b81526004016107a390614ce2565b6000805460ff191681556117f7611206565b146118145760405162461bcd60e51b81526004016107a390614a32565b61181c610c71565b90506000805460ff1916600117905590565b6001600160a01b0381166000908152600e6020526040812054819081908190818080611859896126d6565b93509050600081600381111561187f57634e487b7160e01b600052602160045260246000fd5b1461189d5760095b60008060009750975097509750505050506118e4565b6118a561209d565b9250905060008160038111156118cb57634e487b7160e01b600052602160045260246000fd5b146118d7576009611887565b5060009650919450925090505b9193509193565b6000610bb182612e2c565b6000610bb182612e9d565b6001600160a01b039182166000908152600f6020908152604080832093909416825291909152205490565b60006119388234612f09565b509050610ab7816040518060400160405280601881526020017f7265706179426f72726f77426568616c66206661696c65640000000000000000815250610820565b6004546000906001600160a01b031633141580611995575033155b156119ad576119a660016000611b9f565b9050610cc6565b60038054600480546001600160a01b03818116610100818102610100600160a81b0319871617968790556001600160a01b03199093169093556040519382900481169492937ff9ffabca9c8276e99321725bcb43fb076a6c66a54b7f21c4e8146d8519b417dc93611a23938793910416906148ac565b60405180910390a16004546040517fca4f2f25d0898edd99413412fb94012f9e54ec8142f9b093e7720646a95b16a991611a689184916001600160a01b0316906148ac565b60405180910390a160009250505090565b600080611a84611206565b90508015611abe57611ab6816010811115611aaf57634e487b7160e01b600052602160045260246000fd5b6040611b9f565b915050610dbc565b610eee836127b5565b6006546001600160a01b031681565b60035461010090046001600160a01b031681565b6006546000906001600160a01b03166315f24053611b066124a0565b600b54600c546040518463ffffffff1660e01b81526004016116aa93929190615092565b6000805460ff16611b4d5760405162461bcd60e51b81526004016107a390614ce2565b6000805460ff19168155611b5f611206565b90508015611b9157610fb3816010811115611b8a57634e487b7160e01b600052602160045260246000fd5b6046611b9f565b610fc483612fa5565b600181565b60007f45b96fe442630264581b197e84bbada861235052c5a1aadfff9ea4e40a969aa0836010811115611be257634e487b7160e01b600052602160045260246000fd5b836050811115611c0257634e487b7160e01b600052602160045260246000fd5b6000604051611c1393929190615092565b60405180910390a1826010811115610eee57634e487b7160e01b600052602160045260246000fd5b600554604051634ef4c3e160e01b8152600091829182916001600160a01b031690634ef4c3e190611c74903090899089906004016148c6565b602060405180830381600087803b158015611c8e57600080fd5b505af1158015611ca2573d6000803e3d6000fd5b505050506040513d601f19601f82011682018060405250810190611cc69190614816565b90508015611ce757611cdb6003601f83612992565b60009250925050612096565b611cef6127b1565b60095414611d0357611cdb600a6022611b9f565b611d0b614522565b611d1361209d565b6040830181905260208301826003811115611d3e57634e487b7160e01b600052602160045260246000fd5b6003811115611d5d57634e487b7160e01b600052602160045260246000fd5b9052506000905081602001516003811115611d8857634e487b7160e01b600052602160045260246000fd5b14611dc557611db860096021836020015160038111156113bd57634e487b7160e01b600052602160045260246000fd5b6000935093505050612096565b611dcf868661303d565b60c0820181905260408051602081018252908301518152611df0919061308c565b6060830181905260208301826003811115611e1b57634e487b7160e01b600052602160045260246000fd5b6003811115611e3a57634e487b7160e01b600052602160045260246000fd5b9052506000905081602001516003811115611e6557634e487b7160e01b600052602160045260246000fd5b14611e825760405162461bcd60e51b81526004016107a390614ee3565b611e92600d548260600151612a2d565b6080830181905260208301826003811115611ebd57634e487b7160e01b600052602160045260246000fd5b6003811115611edc57634e487b7160e01b600052602160045260246000fd5b9052506000905081602001516003811115611f0757634e487b7160e01b600052602160045260246000fd5b14611f245760405162461bcd60e51b81526004016107a390614f6d565b6001600160a01b0386166000908152600e60205260409020546060820151611f4c9190612a2d565b60a0830181905260208301826003811115611f7757634e487b7160e01b600052602160045260246000fd5b6003811115611f9657634e487b7160e01b600052602160045260246000fd5b9052506000905081602001516003811115611fc157634e487b7160e01b600052602160045260246000fd5b14611fde5760405162461bcd60e51b81526004016107a390614c3a565b6080810151600d5560a08101516001600160a01b0387166000908152600e6020526040908190209190915560c0820151606083015191517f4c209b5fc8ad50758f13e2e1088ba56a560dff690a1c6fef26394f4c03821c4f92612045928a92909190614865565b60405180910390a1856001600160a01b0316306001600160a01b03166000805160206151ef8339815191528360600151604051612082919061507b565b60405180910390a360c00151600093509150505b9250929050565b600d546000908190806120b857505060075460009150612170565b60006120c26124a0565b905060006120ce61450f565b60006120df84600b54600c5461309c565b93509050600081600381111561210557634e487b7160e01b600052602160045260246000fd5b1461211a579550600094506121709350505050565b61212483866130ee565b92509050600081600381111561214a57634e487b7160e01b600052602160045260246000fd5b1461215f579550600094506121709350505050565b505160009550935061217092505050565b9091565b6005546040516317b9b84b60e31b815260009182916001600160a01b039091169063bdcdc258906121af903090899089908990600401614946565b602060405180830381600087803b1580156121c957600080fd5b505af11580156121dd573d6000803e3d6000fd5b505050506040513d601f19601f820116820180604052508101906122019190614816565b9050801561221e576122166003604a83612992565b915050612438565b836001600160a01b0316856001600160a01b03161415612244576122166002604b611b9f565b6000856001600160a01b0316876001600160a01b031614156122695750600019612291565b506001600160a01b038086166000908152600f60209081526040808320938a16835292905220545b6000806000806122a185896128eb565b909450925060008460038111156122c857634e487b7160e01b600052602160045260246000fd5b146122e6576122d96009604b611b9f565b9650505050505050612438565b6001600160a01b038a166000908152600e602052604090205461230990896128eb565b9094509150600084600381111561233057634e487b7160e01b600052602160045260246000fd5b14612341576122d96009604c611b9f565b6001600160a01b0389166000908152600e60205260409020546123649089612a2d565b9094509050600084600381111561238b57634e487b7160e01b600052602160045260246000fd5b1461239c576122d96009604d611b9f565b6001600160a01b03808b166000908152600e6020526040808220859055918b1681522081905560001985146123f4576001600160a01b03808b166000908152600f60209081526040808320938f168352929052208390555b886001600160a01b03168a6001600160a01b03166000805160206151ef8339815191528a604051612425919061507b565b60405180910390a3600096505050505050505b949350505050565b6000806000806124508686612916565b9092509050600082600381111561247757634e487b7160e01b600052602160045260246000fd5b146124885750915060009050612096565b6000612493826131c7565b9350935050509250929050565b60008060006124af47346128eb565b909250905060008260038111156124d657634e487b7160e01b600052602160045260246000fd5b14610cc257600080fd5b60008054819060ff166125055760405162461bcd60e51b81526004016107a390614ce2565b6000805460ff19168155612517611206565b90508015612549576107f081601081111561254257634e487b7160e01b600052602160045260246000fd5b6036611b9f565b6108063333866131df565b600354600090819061010090046001600160a01b0316331461257c57611ab660016031611b9f565b6125846127b1565b6009541461259857611ab6600a6033611b9f565b826125a16124a0565b10156125b357611ab6600e6032611b9f565b600c548311156125c957611ab660026034611b9f565b82600c546125d7919061511c565b9050600c548111156125fb5760405162461bcd60e51b81526004016107a390615009565b600c81905560035461261b9061010090046001600160a01b031684613590565b7f3bad0c59cf2f06e7314077049f48a93578cd16f5ef92329f1dab1420a99c177e600360019054906101000a90046001600160a01b03168483604051610ee393929190614865565b6000805460ff166126865760405162461bcd60e51b81526004016107a390614ce2565b6000805460ff19168155612698611206565b905080156126ca57610fb38160108111156126c357634e487b7160e01b600052602160045260246000fd5b6027611b9f565b610fc4336000856135c6565b6001600160a01b03811660009081526010602052604081208054829182918291829161270c5760008095509550505050506127ac565b61271c8160000154600a54613bd5565b9094509250600084600381111561274357634e487b7160e01b600052602160045260246000fd5b146127585783600095509550505050506127ac565b612766838260010154613c1f565b9094509150600084600381111561278d57634e487b7160e01b600052602160045260246000fd5b146127a25783600095509550505050506127ac565b5060009450925050505b915091565b4390565b600354600090819061010090046001600160a01b031633146127dd57611ab660016042611b9f565b6127e56127b1565b600954146127f957611ab6600a6041611b9f565b600660009054906101000a90046001600160a01b03169050826001600160a01b0316632191f92a6040518163ffffffff1660e01b815260040160206040518083038186803b15801561284a57600080fd5b505afa15801561285e573d6000803e3d6000fd5b505050506040513d601f19601f820116820180604052508101906128829190614736565b61289e5760405162461bcd60e51b81526004016107a390614bb2565b600680546001600160a01b0319166001600160a01b0385161790556040517fedffc32e068c7c95dfd4bdfd5c4d939a084d6b11c4199eac8436ed234d72f92690610ee390839086906148ac565b60008083831161290a576000612901848661511c565b91509150612096565b50600390506000612096565b600061292061450f565b600080612931866000015186613bd5565b9092509050600082600381111561295857634e487b7160e01b600052602160045260246000fd5b1461297757506040805160208101909152600081529092509050612096565b60408051602081019091529081526000969095509350505050565b60007f45b96fe442630264581b197e84bbada861235052c5a1aadfff9ea4e40a969aa08460108111156129d557634e487b7160e01b600052602160045260246000fd5b8460508111156129f557634e487b7160e01b600052602160045260246000fd5b84604051612a0593929190615092565b60405180910390a183601081111561243857634e487b7160e01b600052602160045260246000fd5b60008080612a3b84866150d1565b9050848110612a4f57600092509050612096565b600260009250925050612096565b600080600080612a6d8787612916565b90925090506000826003811115612a9457634e487b7160e01b600052602160045260246000fd5b14612aa55750915060009050612abe565b612ab7612ab1826131c7565b86612a2d565b9350935050505b935093915050565b60008054819060ff16612aeb5760405162461bcd60e51b81526004016107a390614ce2565b6000805460ff19168155612afd611206565b90508015612b3b57612b2f816010811115612b2857634e487b7160e01b600052602160045260246000fd5b600f611b9f565b60009250925050612bf2565b836001600160a01b031663a6afed956040518163ffffffff1660e01b8152600401602060405180830381600087803b158015612b7657600080fd5b505af1158015612b8a573d6000803e3d6000fd5b505050506040513d601f19601f82011682018060405250810190612bae9190614816565b90508015612be057612b2f816010811115612bd957634e487b7160e01b600052602160045260246000fd5b6010611b9f565b612bec33878787613c4a565b92509250505b6000805460ff191660011790559094909350915050565b60055460405163d02f735160e01b815260009182916001600160a01b039091169063d02f735190612c469030908a908a908a908a90600401614913565b602060405180830381600087803b158015612c6057600080fd5b505af1158015612c74573d6000803e3d6000fd5b505050506040513d601f19601f82011682018060405250810190612c989190614816565b90508015612cad576122166003601b83612992565b846001600160a01b0316846001600160a01b03161415612cd3576122166006601c611b9f565b6001600160a01b0384166000908152600e602052604081205481908190612cfa90876128eb565b90935091506000836003811115612d2157634e487b7160e01b600052602160045260246000fd5b14612d5857612d4d6009601a8560038111156113bd57634e487b7160e01b600052602160045260246000fd5b945050505050612438565b6001600160a01b0388166000908152600e6020526040902054612d7b9087612a2d565b90935090506000836003811115612da257634e487b7160e01b600052602160045260246000fd5b14612dce57612d4d600960198560038111156113bd57634e487b7160e01b600052602160045260246000fd5b6001600160a01b038088166000818152600e6020526040808220869055928b168082529083902084905591516000805160206151ef83398151915290612e15908a9061507b565b60405180910390a360009998505050505050505050565b6000805460ff16612e4f5760405162461bcd60e51b81526004016107a390614ce2565b6000805460ff19168155612e61611206565b90508015612e9357610fb3816010811115612e8c57634e487b7160e01b600052602160045260246000fd5b6008611b9f565b610fc433846140a3565b6000805460ff16612ec05760405162461bcd60e51b81526004016107a390614ce2565b6000805460ff19168155612ed2611206565b90508015612efd57610fb38160108111156126c357634e487b7160e01b600052602160045260246000fd5b610fc4338460006135c6565b60008054819060ff16612f2e5760405162461bcd60e51b81526004016107a390614ce2565b6000805460ff19168155612f40611206565b90508015612f7e57612f72816010811115612f6b57634e487b7160e01b600052602160045260246000fd5b6035611b9f565b60009250925050612f8f565b612f893386866131df565b92509250505b6000805460ff1916600117905590939092509050565b60035460009061010090046001600160a01b03163314612fcb57610df660016047611b9f565b612fd36127b1565b60095414612fe757610df6600a6048611b9f565b670de0b6b3a764000082111561300357610df660026049611b9f565b60088054908390556040517faaa68312e2ea9d50e16af5068410ab56e1a1fd06037b1a35664812c30f82146090610ee39083908690615084565b6000336001600160a01b038416146130675760405162461bcd60e51b81526004016107a390614be9565b8134146130865760405162461bcd60e51b81526004016107a390614c12565b50919050565b6000806000806124508686614418565b6000806000806130ac8787612a2d565b909250905060008260038111156130d357634e487b7160e01b600052602160045260246000fd5b146130e45750915060009050612abe565b612ab781866128eb565b60006130f861450f565b60008061310d86670de0b6b3a7640000613bd5565b9092509050600082600381111561313457634e487b7160e01b600052602160045260246000fd5b1461315357506040805160208101909152600081529092509050612096565b6000806131608388613c1f565b9092509050600082600381111561318757634e487b7160e01b600052602160045260246000fd5b146131aa5781604051806020016040528060008152509550955050505050612096565b604080516020810190915290815260009890975095505050505050565b8051600090610bb190670de0b6b3a7640000906150e9565b600554604051631200453160e11b8152600091829182916001600160a01b0316906324008a629061321a9030908a908a908a90600401614946565b602060405180830381600087803b15801561323457600080fd5b505af1158015613248573d6000803e3d6000fd5b505050506040513d601f19601f8201168201806040525081019061326c9190614816565b9050801561328d576132816003603883612992565b60009250925050612abe565b6132956127b1565b600954146132a957613281600a6039611b9f565b6132b1614560565b6001600160a01b03861660009081526010602052604090206001015460608201526132db866126d6565b608083018190526020830182600381111561330657634e487b7160e01b600052602160045260246000fd5b600381111561332557634e487b7160e01b600052602160045260246000fd5b905250600090508160200151600381111561335057634e487b7160e01b600052602160045260246000fd5b1461338d5761338060096037836020015160038111156113bd57634e487b7160e01b600052602160045260246000fd5b6000935093505050612abe565b6000198514156133a657608081015160408201526133ae565b604081018590525b6133bc87826040015161303d565b60e0820181905260808201516133d1916128eb565b60a08301819052602083018260038111156133fc57634e487b7160e01b600052602160045260246000fd5b600381111561341b57634e487b7160e01b600052602160045260246000fd5b905250600090508160200151600381111561344657634e487b7160e01b600052602160045260246000fd5b146134635760405162461bcd60e51b81526004016107a390614d3d565b613473600b548260e001516128eb565b60c083018190526020830182600381111561349e57634e487b7160e01b600052602160045260246000fd5b60038111156134bd57634e487b7160e01b600052602160045260246000fd5b90525060009050816020015160038111156134e857634e487b7160e01b600052602160045260246000fd5b146135055760405162461bcd60e51b81526004016107a390614dd1565b60a0810180516001600160a01b03881660009081526010602052604090819020918255600a5460019092019190915560c0830151600b81905560e0840151925191517f1a2a22cb034d26d1854bdc6666a5b91fe25efbbb5dcad3b0355478d6f5c362a193613576938c938c936149a3565b60405180910390a160e00151600097909650945050505050565b6040516001600160a01b0383169082156108fc029083906000818181858888f19350505050158015611661573d6000803e3d6000fd5b60008215806135d3575081155b6135ef5760405162461bcd60e51b81526004016107a390614fb5565b6135f7614522565b6135ff61209d565b604083018190526020830182600381111561362a57634e487b7160e01b600052602160045260246000fd5b600381111561364957634e487b7160e01b600052602160045260246000fd5b905250600090508160200151600381111561367457634e487b7160e01b600052602160045260246000fd5b146136ac576136a46009602b836020015160038111156113bd57634e487b7160e01b600052602160045260246000fd5b915050610eee565b831561377d5760608101849052604080516020810182529082015181526136d39085612440565b60808301819052602083018260038111156136fe57634e487b7160e01b600052602160045260246000fd5b600381111561371d57634e487b7160e01b600052602160045260246000fd5b905250600090508160200151600381111561374857634e487b7160e01b600052602160045260246000fd5b14613778576136a460096029836020015160038111156113bd57634e487b7160e01b600052602160045260246000fd5b613846565b613799836040518060200160405280846040015181525061308c565b60608301819052602083018260038111156137c457634e487b7160e01b600052602160045260246000fd5b60038111156137e357634e487b7160e01b600052602160045260246000fd5b905250600090508160200151600381111561380e57634e487b7160e01b600052602160045260246000fd5b1461383e576136a46009602a836020015160038111156113bd57634e487b7160e01b600052602160045260246000fd5b608081018390525b600554606082015160405163eabe7d9160e01b81526000926001600160a01b03169163eabe7d919161387f9130918b91906004016148c6565b602060405180830381600087803b15801561389957600080fd5b505af11580156138ad573d6000803e3d6000fd5b505050506040513d601f19601f820116820180604052508101906138d19190614816565b905080156138ef576138e66003602883612992565b92505050610eee565b6138f76127b1565b6009541461390b576138e6600a602c611b9f565b61391b600d5483606001516128eb565b60a084018190526020840182600381111561394657634e487b7160e01b600052602160045260246000fd5b600381111561396557634e487b7160e01b600052602160045260246000fd5b905250600090508260200151600381111561399057634e487b7160e01b600052602160045260246000fd5b146139c0576138e66009602e846020015160038111156113bd57634e487b7160e01b600052602160045260246000fd5b6001600160a01b0386166000908152600e602052604090205460608301516139e891906128eb565b60c0840181905260208401826003811115613a1357634e487b7160e01b600052602160045260246000fd5b6003811115613a3257634e487b7160e01b600052602160045260246000fd5b9052506000905082602001516003811115613a5d57634e487b7160e01b600052602160045260246000fd5b14613a8d576138e66009602d846020015160038111156113bd57634e487b7160e01b600052602160045260246000fd5b8160800151613a9a6124a0565b1015613aac576138e6600e602f611b9f565b613aba868360800151613590565b60a0820151600d5560c08201516001600160a01b0387166000818152600e602052604090819020929092556060840151915130926000805160206151ef83398151915291613b08919061507b565b60405180910390a3608082015160608301516040517fe5b754fb1abb7f01b499791d0b820ae3b6af3424ac1c59768edb53f4ec31a92992613b4a928a92614865565b60405180910390a1600554608083015160608401516040516351dff98960e01b81526001600160a01b03909316926351dff98992613b909230928c9291906004016148ea565b600060405180830381600087803b158015613baa57600080fd5b505af1158015613bbe573d6000803e3d6000fd5b5060009250613bcb915050565b9695505050505050565b60008083613be857506000905080612096565b6000613bf484866150fd565b905083613c0186836150e9565b14613c1457600260009250925050612096565b600092509050612096565b60008082613c335750600190506000612096565b6000613c3f84866150e9565b915091509250929050565b600554604051632fe3f38f60e11b8152600091829182916001600160a01b031690635fc7e71e90613c8790309088908c908c908c90600401614913565b602060405180830381600087803b158015613ca157600080fd5b505af1158015613cb5573d6000803e3d6000fd5b505050506040513d601f19601f82011682018060405250810190613cd99190614816565b90508015613cfa57613cee6003601283612992565b6000925092505061409a565b613d026127b1565b60095414613d1657613cee600a6016611b9f565b613d1e6127b1565b846001600160a01b0316636c540baf6040518163ffffffff1660e01b815260040160206040518083038186803b158015613d5757600080fd5b505afa158015613d6b573d6000803e3d6000fd5b505050506040513d601f19601f82011682018060405250810190613d8f9190614816565b14613da057613cee600a6011611b9f565b866001600160a01b0316866001600160a01b03161415613dc657613cee60066017611b9f565b84613dd757613cee60076015611b9f565b600019851415613ded57613cee60076014611b9f565b600080613dfb8989896131df565b90925090508115613e3e57613e30826010811115613e2957634e487b7160e01b600052602160045260246000fd5b6018611b9f565b60009450945050505061409a565b60055460405163c488847b60e01b815260009182916001600160a01b039091169063c488847b90613e779030908c9088906004016148c6565b604080518083038186803b158015613e8e57600080fd5b505afa158015613ea2573d6000803e3d6000fd5b505050506040513d601f19601f82011682018060405250810190613ec6919061482e565b90925090508115613ee95760405162461bcd60e51b81526004016107a390614e22565b6040516370a0823160e01b815281906001600160a01b038a16906370a0823190613f17908e90600401614851565b60206040518083038186803b158015613f2f57600080fd5b505afa158015613f43573d6000803e3d6000fd5b505050506040513d601f19601f82011682018060405250810190613f679190614816565b1015613f855760405162461bcd60e51b81526004016107a390614eac565b60006001600160a01b038916301415613fab57613fa4308d8d85612c09565b9050614030565b60405163b2a02ff160e01b81526001600160a01b038a169063b2a02ff190613fdb908f908f9087906004016148c6565b602060405180830381600087803b158015613ff557600080fd5b505af1158015614009573d6000803e3d6000fd5b505050506040513d601f19601f8201168201806040525081019061402d9190614816565b90505b801561404e5760405162461bcd60e51b81526004016107a39061504d565b7f298637f684da70674f26509b10f07ec2fbc77a335ab1e7d6215a4b2484d8bb528c8c868c86604051614085959493929190614970565b60405180910390a16000975092955050505050505b94509492505050565b60055460405163368f515360e21b815260009182916001600160a01b039091169063da3d454c906140dc903090889088906004016148c6565b602060405180830381600087803b1580156140f657600080fd5b505af115801561410a573d6000803e3d6000fd5b505050506040513d601f19601f8201168201806040525081019061412e9190614816565b9050801561414b576141436003600e83612992565b915050610bb1565b6141536127b1565b6009541461416657614143600a80611b9f565b8261416f6124a0565b101561418157614143600e6009611b9f565b6141896145a6565b614192856126d6565b60208301819052828260038111156141ba57634e487b7160e01b600052602160045260246000fd5b60038111156141d957634e487b7160e01b600052602160045260246000fd5b905250600090508151600381111561420157634e487b7160e01b600052602160045260246000fd5b1461423a5761423160096007836000015160038111156113bd57634e487b7160e01b600052602160045260246000fd5b92505050610bb1565b614248816020015185612a2d565b604083018190528282600381111561427057634e487b7160e01b600052602160045260246000fd5b600381111561428f57634e487b7160e01b600052602160045260246000fd5b90525060009050815160038111156142b757634e487b7160e01b600052602160045260246000fd5b146142e7576142316009600c836000015160038111156113bd57634e487b7160e01b600052602160045260246000fd5b6142f3600b5485612a2d565b606083018190528282600381111561431b57634e487b7160e01b600052602160045260246000fd5b600381111561433a57634e487b7160e01b600052602160045260246000fd5b905250600090508151600381111561436257634e487b7160e01b600052602160045260246000fd5b14614392576142316009600b836000015160038111156113bd57634e487b7160e01b600052602160045260246000fd5b61439c8585613590565b604080820180516001600160a01b03881660009081526010602052839020908155600a546001909101556060830151600b819055905191517f13ed6866d4e1ee6da46f845c46d7e54120883d75c5ea9a2dacc1c4ca8984ab809261440592899289929190614886565b60405180910390a1600095945050505050565b600061442261450f565b600080614437670de0b6b3a764000087613bd5565b9092509050600082600381111561445e57634e487b7160e01b600052602160045260246000fd5b1461447d57506040805160208101909152600081529092509050612096565b6124938186600001516130ee565b82805461449790615133565b90600052602060002090601f0160209004810192826144b957600085556144ff565b82601f106144d257805160ff19168380011785556144ff565b828001600101855582156144ff579182015b828111156144ff5782518255916020019190600101906144e4565b5061450b9291506145cf565b5090565b6040518060200160405280600081525090565b6040805160e0810190915280600081526020016000815260200160008152602001600081526020016000815260200160008152602001600081525090565b6040805161010081019091528060008152602001600081526020016000815260200160008152602001600081526020016000815260200160008152602001600081525090565b604080516080810190915280600081526020016000815260200160008152602001600081525090565b5b8082111561450b57600081556001016145d0565b600082601f8301126145f4578081fd5b813567ffffffffffffffff8082111561460f5761460f6151c3565b604051601f8301601f191681016020018281118282101715614633576146336151c3565b60405282815284830160200186101561464a578384fd5b82602086016020830137918201602001929092529392505050565b600060208284031215614676578081fd5b8135610eee816151d9565b60008060408385031215614693578081fd5b823561469e816151d9565b915060208301356146ae816151d9565b809150509250929050565b6000806000606084860312156146cd578081fd5b83356146d8816151d9565b925060208401356146e8816151d9565b929592945050506040919091013590565b60008060408385031215614693578182fd5b6000806040838503121561471d578182fd5b8235614728816151d9565b946020939093013593505050565b600060208284031215614747578081fd5b81518015158114610eee578182fd5b60008060008060008060c0878903121561476e578182fd5b8635614779816151d9565b95506020870135614789816151d9565b945060408701359350606087013567ffffffffffffffff808211156147ac578384fd5b6147b88a838b016145e4565b945060808901359150808211156147cd578384fd5b506147da89828a016145e4565b92505060a087013560ff811681146147f0578182fd5b809150509295509295509295565b60006020828403121561480f578081fd5b5035919050565b600060208284031215614827578081fd5b5051919050565b60008060408385031215614840578182fd5b505080516020909101519092909150565b6001600160a01b0391909116815260200190565b6001600160a01b039390931683526020830191909152604082015260600190565b6001600160a01b0394909416845260208401929092526040830152606082015260800190565b6001600160a01b0392831681529116602082015260400190565b6001600160a01b039384168152919092166020820152604081019190915260600190565b6001600160a01b0394851681529290931660208301526040820152606081019190915260800190565b6001600160a01b039586168152938516602085015291841660408401529092166060820152608081019190915260a00190565b6001600160a01b039485168152928416602084015292166040820152606081019190915260800190565b6001600160a01b039586168152938516602085015260408401929092529092166060820152608081019190915260a00190565b6001600160a01b03958616815293909416602084015260408301919091526060820152608081019190915260a00190565b901515815260200190565b6000602080835283518082850152825b81811015614a0b578581018301518582016040015282016149ef565b81811115614a1c5783604083870101525b50601f01601f1916929092016040019392505050565b6020808252601690820152751858d8dc9d59481a5b9d195c995cdd0819985a5b195960521b604082015260600190565b60208082526024908201527f6f6e6c792061646d696e206d617920696e697469616c697a6520746865206d616040820152631c9ad95d60e21b606082015260800190565b6020808252601f908201527f62616c616e636520636f756c64206e6f742062652063616c63756c6174656400604082015260600190565b60208082526023908201527f6d61726b6574206d6179206f6e6c7920626520696e697469616c697a6564206f6040820152626e636560e81b606082015260800190565b60208082526030908201527f696e697469616c2065786368616e67652072617465206d75737420626520677260408201526f32b0ba32b9103a3430b7103d32b9379760811b606082015260800190565b60208082526022908201527f73657474696e6720696e7465726573742072617465206d6f64656c206661696c604082015261195960f21b606082015260800190565b6020808252601c908201527f6d61726b6572206d6574686f642072657475726e65642066616c736500000000604082015260600190565b6020808252600f908201526e0e6cadcc8cae440dad2e6dac2e8c6d608b1b604082015260600190565b6020808252600e908201526d0ecc2d8eaca40dad2e6dac2e8c6d60931b604082015260600190565b6020808252602b908201527f4d494e545f4e45575f4143434f554e545f42414c414e43455f43414c43554c4160408201526a151253d397d1905253115160aa1b606082015260800190565b60208082526037908201527f626f72726f7742616c616e636553746f7265643a20626f72726f7742616c616e60408201527f636553746f726564496e7465726e616c206661696c6564000000000000000000606082015260800190565b6020808252600a90820152691c994b595b9d195c995960b21b604082015260600190565b6020808252601c908201527f626f72726f772072617465206973206162737572646c79206869676800000000604082015260600190565b6020808252603a908201527f52455041595f424f52524f575f4e45575f4143434f554e545f424f52524f575f60408201527f42414c414e43455f43414c43554c4154494f4e5f4641494c4544000000000000606082015260800190565b6020808252601f908201527f636f756c64206e6f742063616c63756c61746520626c6f636b2064656c746100604082015260600190565b60208082526031908201527f52455041595f424f52524f575f4e45575f544f54414c5f42414c414e43455f43604082015270105310d55310551253d397d19052531151607a1b606082015260800190565b60208082526033908201527f4c49515549444154455f434f4d5054524f4c4c45525f43414c43554c4154455f604082015272105353d5539517d4d152569157d19052531151606a1b606082015260800190565b6020808252601a908201527f73657474696e6720636f6d7074726f6c6c6572206661696c6564000000000000604082015260600190565b60208082526018908201527f4c49515549444154455f5345495a455f544f4f5f4d5543480000000000000000604082015260600190565b6020808252818101527f4d494e545f45584348414e47455f43414c43554c4154494f4e5f4641494c4544604082015260600190565b60208082526035908201527f65786368616e67655261746553746f7265643a2065786368616e67655261746560408201527414dd1bdc9959125b9d195c9b985b0819985a5b1959605a1b606082015260800190565b60208082526028908201527f4d494e545f4e45575f544f54414c5f535550504c595f43414c43554c4154494f6040820152671397d1905253115160c21b606082015260800190565b60208082526034908201527f6f6e65206f662072656465656d546f6b656e73496e206f722072656465656d416040820152736d6f756e74496e206d757374206265207a65726f60601b606082015260800190565b60208082526024908201527f72656475636520726573657276657320756e657870656374656420756e646572604082015263666c6f7760e01b606082015260800190565b6020808252601490820152731d1bdad95b881cd95a5e9d5c994819985a5b195960621b604082015260600190565b90815260200190565b918252602082015260400190565b9283526020830191909152604082015260600190565b93845260208401929092526040830152606082015260800190565b60ff91909116815260200190565b600082198211156150e4576150e4615197565b500190565b6000826150f8576150f86151ad565b500490565b600081600019048311821515161561511757615117615197565b500290565b60008282101561512e5761512e615197565b500390565b60028104600182168061514757607f821691505b6020821081141561308657634e487b7160e01b600052602260045260246000fd5b600060001982141561517c5761517c615197565b5060010190565b600082615192576151926151ad565b500690565b634e487b7160e01b600052601160045260246000fd5b634e487b7160e01b600052601260045260246000fd5b634e487b7160e01b600052604160045260246000fd5b6001600160a01b0381168114610bf257600080fdfeddf252ad1be2c89b69c2b068fc378daa952ba7f163c4a11628f55a4df523b3efa2646970667358221220447208cdb93b7662e9906b44778db0713b9d073060e90daea9a569d987521ada64736f6c63430008000033",
  "immutableReferences": {},
  "source": "\n\n// SPDX-License-Identifier: MIT\npragma solidity ^0.8.0;\n\nimport \"./CToken.sol\";\n\nimport \"./interfaces/CErc20Interface.sol\";\nimport \"./interfaces/EIP20Interface.sol\";\nimport \"./interfaces/EIP20NonStandardInterface.sol\";\nimport \"./interfaces/CTokenInterface.sol\";\n\nimport \"./interfaces/ComptrollerInterface.sol\";\nimport \"./rates/InterestRateModel.sol\";\n/**\n * @title Compound's CEther Contract\n * @notice CToken which wraps Ether\n * @author Compound\n */\ncontract CEther is CToken {\n    /**\n     * @notice Construct a new CEther money market\n     * @param comptroller_ The address of the Comptroller\n     * @param interestRateModel_ The address of the interest rate model\n     * @param initialExchangeRateMantissa_ The initial exchange rate, scaled by 1e18\n     * @param name_ ERC-20 name of this token\n     * @param symbol_ ERC-20 symbol of this token\n     * @param decimals_ ERC-20 decimal precision of this token\n     * @param admin_ Address of the administrator of this token\n     */\n    constructor(ComptrollerInterface comptroller_,\n                InterestRateModel interestRateModel_,\n                uint initialExchangeRateMantissa_,\n                string memory name_,\n                string memory symbol_,\n                uint8 decimals_,\n                address payable admin_) {\n        // Creator of the contract is admin during initialization\n        admin = payable(msg.sender);\n\n        initialize(comptroller_, interestRateModel_, initialExchangeRateMantissa_, name_, symbol_, decimals_);\n\n        // Set the proper admin now that initialization is done\n        admin = admin_;\n    }\n\n\n    /*** User Interface ***/\n\n    /**\n     * @notice Sender supplies assets into the market and receives cTokens in exchange\n     * @dev Reverts upon any failure\n     */\n    function mint() external payable {\n        (uint err,) = mintInternal(msg.value);\n        requireNoError(err, \"mint failed\");\n    }\n\n    /**\n     * @notice Sender redeems cTokens in exchange for the underlying asset\n     * @dev Accrues interest whether or not the operation succeeds, unless reverted\n     * @param redeemTokens The number of cTokens to redeem into underlying\n     * @return uint 0=success, otherwise a failure (see ErrorReporter.sol for details)\n     */\n    function redeem(uint redeemTokens) external returns (uint) {\n        return redeemInternal(redeemTokens);\n    }\n\n    /**\n     * @notice Sender redeems cTokens in exchange for a specified amount of underlying asset\n     * @dev Accrues interest whether or not the operation succeeds, unless reverted\n     * @param redeemAmount The amount of underlying to redeem\n     * @return uint 0=success, otherwise a failure (see ErrorReporter.sol for details)\n     */\n    function redeemUnderlying(uint redeemAmount) external returns (uint) {\n        return redeemUnderlyingInternal(redeemAmount);\n    }\n\n    /**\n      * @notice Sender borrows assets from the protocol to their own address\n      * @param borrowAmount The amount of the underlying asset to borrow\n      * @return uint 0=success, otherwise a failure (see ErrorReporter.sol for details)\n      */\n    function borrow(uint borrowAmount) external returns (uint) {\n        return borrowInternal(borrowAmount);\n    }\n\n    /**\n     * @notice Sender repays their own borrow\n     * @dev Reverts upon any failure\n     */\n    function repayBorrow() external payable {\n        (uint err,) = repayBorrowInternal(msg.value);\n        requireNoError(err, \"repayBorrow failed\");\n    }\n\n    /**\n     * @notice Sender repays a borrow belonging to borrower\n     * @dev Reverts upon any failure\n     * @param borrower the account with the debt being payed off\n     */\n    function repayBorrowBehalf(address borrower) external payable {\n        (uint err,) = repayBorrowBehalfInternal(borrower, msg.value);\n        requireNoError(err, \"repayBorrowBehalf failed\");\n    }\n\n    /**\n     * @notice The sender liquidates the borrowers collateral.\n     *  The collateral seized is transferred to the liquidator.\n     * @dev Reverts upon any failure\n     * @param borrower The borrower of this cToken to be liquidated\n     * @param cTokenCollateral The market in which to seize collateral from the borrower\n     */\n    function liquidateBorrow(address borrower, CToken cTokenCollateral) external payable {\n        (uint err,) = liquidateBorrowInternal(borrower, msg.value, cTokenCollateral);\n        requireNoError(err, \"liquidateBorrow failed\");\n    }\n\n    /**\n     * @notice Send Ether to CEther to mint\n     */\n    receive () external payable {\n        (uint err,) = mintInternal(msg.value);\n        requireNoError(err, \"mint failed\");\n    }\n\n    /*** Safe Token ***/\n\n    /**\n     * @notice Gets balance of this contract in terms of Ether, before this message\n     * @dev This excludes the value of the current message, if any\n     * @return The quantity of Ether owned by this contract\n     */\n    function getCashPrior() internal override view returns (uint) {\n        (MathError err, uint startingBalance) = subUInt(address(this).balance, msg.value);\n        require(err == MathError.NO_ERROR);\n        return startingBalance;\n    }\n\n    /**\n     * @notice Perform the actual transfer in, which is a no-op\n     * @param from Address sending the Ether\n     * @param amount Amount of Ether being sent\n     * @return The actual amount of Ether transferred\n     */\n    function doTransferIn(address from, uint amount) internal override returns (uint) {\n        // Sanity checks\n        require(msg.sender == from, \"sender mismatch\");\n        require(msg.value == amount, \"value mismatch\");\n        return amount;\n    }\n\n    function doTransferOut(address payable to, uint amount) internal override {\n        /* Send the Ether, with minimal gas and revert on failure */\n        to.transfer(amount);\n    }\n\n    function requireNoError(uint errCode, string memory message) internal pure {\n        if (errCode == uint(Error.NO_ERROR)) {\n            return;\n        }\n\n        bytes memory fullMessage = new bytes(bytes(message).length + 5);\n        uint i;\n\n        for (i = 0; i < bytes(message).length; i++) {\n            fullMessage[i] = bytes(message)[i];\n        }\n\n        fullMessage[i+0] = bytes1(uint8(32));\n        fullMessage[i+1] = bytes1(uint8(40));\n        fullMessage[i+2] = bytes1(uint8(48 + ( errCode / 10 )));\n        fullMessage[i+3] = bytes1(uint8(48 + ( errCode % 10 )));\n        fullMessage[i+4] = bytes1(uint8(41));\n\n        require(errCode == uint(Error.NO_ERROR), string(fullMessage));\n    }\n}\n",
  "sourcePath": "/Users/dennismacpro/Projects/Defi/Ethereum-Solidity-Collection/icarus-protocol/defi-seeder/contracts/compound/v2.1/CEther.sol",
  "compiler": {
    "name": "solc",
    "version": "0.8.0+commit.c7dfd78e.Emscripten.clang"
  },
  "schemaVersion": "3.3.4",
  "updatedAt": "2021-03-31T20:20:03.842Z",
  "devdoc": {
    "author": "Compound",
    "kind": "dev",
    "methods": {
      "_acceptAdmin()": {
        "details": "Admin function for pending admin to accept role and update admin",
        "returns": {
          "_0": "uint 0=success, otherwise a failure (see ErrorReporter.sol for details)"
        }
      },
      "_reduceReserves(uint256)": {
        "params": {
          "reduceAmount": "Amount of reduction to reserves"
        },
        "returns": {
          "_0": "uint 0=success, otherwise a failure (see ErrorReporter.sol for details)"
        }
      },
      "_setComptroller(address)": {
        "details": "Admin function to set a new comptroller",
        "returns": {
          "_0": "uint 0=success, otherwise a failure (see ErrorReporter.sol for details)"
        }
      },
      "_setInterestRateModel(address)": {
        "details": "Admin function to accrue interest and update the interest rate model",
        "params": {
          "newInterestRateModel": "the new interest rate model to use"
        },
        "returns": {
          "_0": "uint 0=success, otherwise a failure (see ErrorReporter.sol for details)"
        }
      },
      "_setPendingAdmin(address)": {
        "details": "Admin function to begin change of admin. The newPendingAdmin must call `_acceptAdmin` to finalize the transfer.",
        "params": {
          "newPendingAdmin": "New pending admin."
        },
        "returns": {
          "_0": "uint 0=success, otherwise a failure (see ErrorReporter.sol for details)"
        }
      },
      "_setReserveFactor(uint256)": {
        "details": "Admin function to accrue interest and set a new reserve factor",
        "returns": {
          "_0": "uint 0=success, otherwise a failure (see ErrorReporter.sol for details)"
        }
      },
      "accrueInterest()": {
        "details": "This calculates interest accrued from the last checkpointed block   up to the current block and writes new checkpoint to storage."
      },
      "allowance(address,address)": {
        "params": {
          "owner": "The address of the account which owns the tokens to be spent",
          "spender": "The address of the account which may transfer tokens"
        },
        "returns": {
          "_0": "The number of tokens allowed to be spent (-1 means infinite)"
        }
      },
      "approve(address,uint256)": {
        "details": "This will overwrite the approval amount for `spender`  and is subject to issues noted [here](https://eips.ethereum.org/EIPS/eip-20#approve)",
        "params": {
          "amount": "The number of tokens that are approved (-1 means infinite)",
          "spender": "The address of the account which may transfer tokens"
        },
        "returns": {
          "_0": "Whether or not the approval succeeded"
        }
      },
      "balanceOf(address)": {
        "params": {
          "owner": "The address of the account to query"
        },
        "returns": {
          "_0": "The number of tokens owned by `owner`"
        }
      },
      "balanceOfUnderlying(address)": {
        "details": "This also accrues interest in a transaction",
        "params": {
          "owner": "The address of the account to query"
        },
        "returns": {
          "_0": "The amount of underlying owned by `owner`"
        }
      },
      "borrow(uint256)": {
        "params": {
          "borrowAmount": "The amount of the underlying asset to borrow"
        },
        "returns": {
          "_0": "uint 0=success, otherwise a failure (see ErrorReporter.sol for details)"
        }
      },
      "borrowBalanceCurrent(address)": {
        "params": {
          "account": "The address whose balance should be calculated after updating borrowIndex"
        },
        "returns": {
          "_0": "The calculated balance"
        }
      },
      "borrowBalanceStored(address)": {
        "params": {
          "account": "The address whose balance should be calculated"
        },
        "returns": {
          "_0": "The calculated balance"
        }
      },
      "borrowRatePerBlock()": {
        "returns": {
          "_0": "The borrow interest rate per block, scaled by 1e18"
        }
      },
      "constructor": {
        "params": {
          "admin_": "Address of the administrator of this token",
          "comptroller_": "The address of the Comptroller",
          "decimals_": "ERC-20 decimal precision of this token",
          "initialExchangeRateMantissa_": "The initial exchange rate, scaled by 1e18",
          "interestRateModel_": "The address of the interest rate model",
          "name_": "ERC-20 name of this token",
          "symbol_": "ERC-20 symbol of this token"
        }
      },
      "exchangeRateCurrent()": {
        "returns": {
          "_0": "Calculated exchange rate scaled by 1e18"
        }
      },
      "exchangeRateStored()": {
        "details": "This function does not accrue interest before calculating the exchange rate",
        "returns": {
          "_0": "Calculated exchange rate scaled by 1e18"
        }
      },
      "getAccountSnapshot(address)": {
        "details": "This is used by comptroller to more efficiently perform liquidity checks.",
        "params": {
          "account": "Address of the account to snapshot"
        },
        "returns": {
          "_0": "(possible error, token balance, borrow balance, exchange rate mantissa)"
        }
      },
      "getCash()": {
        "returns": {
          "_0": "The quantity of underlying asset owned by this contract"
        }
      },
      "initialize(address,address,uint256,string,string,uint8)": {
        "params": {
          "comptroller_": "The address of the Comptroller",
          "decimals_": "EIP-20 decimal precision of this token",
          "initialExchangeRateMantissa_": "The initial exchange rate, scaled by 1e18",
          "interestRateModel_": "The address of the interest rate model",
          "name_": "EIP-20 name of this token",
          "symbol_": "EIP-20 symbol of this token"
        }
      },
      "liquidateBorrow(address,address)": {
        "details": "Reverts upon any failure",
        "params": {
          "borrower": "The borrower of this cToken to be liquidated",
          "cTokenCollateral": "The market in which to seize collateral from the borrower"
        }
      },
      "mint()": {
        "details": "Reverts upon any failure"
      },
      "redeem(uint256)": {
        "details": "Accrues interest whether or not the operation succeeds, unless reverted",
        "params": {
          "redeemTokens": "The number of cTokens to redeem into underlying"
        },
        "returns": {
          "_0": "uint 0=success, otherwise a failure (see ErrorReporter.sol for details)"
        }
      },
      "redeemUnderlying(uint256)": {
        "details": "Accrues interest whether or not the operation succeeds, unless reverted",
        "params": {
          "redeemAmount": "The amount of underlying to redeem"
        },
        "returns": {
          "_0": "uint 0=success, otherwise a failure (see ErrorReporter.sol for details)"
        }
      },
      "repayBorrow()": {
        "details": "Reverts upon any failure"
      },
      "repayBorrowBehalf(address)": {
        "details": "Reverts upon any failure",
        "params": {
          "borrower": "the account with the debt being payed off"
        }
      },
      "seize(address,address,uint256)": {
        "details": "Will fail unless called by another cToken during the process of liquidation.  Its absolutely critical to use msg.sender as the borrowed cToken and not a parameter.",
        "params": {
          "borrower": "The account having collateral seized",
          "liquidator": "The account receiving seized collateral",
          "seizeTokens": "The number of cTokens to seize"
        },
        "returns": {
          "_0": "uint 0=success, otherwise a failure (see ErrorReporter.sol for details)"
        }
      },
      "supplyRatePerBlock()": {
        "returns": {
          "_0": "The supply interest rate per block, scaled by 1e18"
        }
      },
      "totalBorrowsCurrent()": {
        "returns": {
          "_0": "The total borrows with interest"
        }
      },
      "transfer(address,uint256)": {
        "params": {
          "amount": "The number of tokens to transfer",
          "dst": "The address of the destination account"
        },
        "returns": {
          "_0": "Whether or not the transfer succeeded"
        }
      },
      "transferFrom(address,address,uint256)": {
        "params": {
          "amount": "The number of tokens to transfer",
          "dst": "The address of the destination account",
          "src": "The address of the source account"
        },
        "returns": {
          "_0": "Whether or not the transfer succeeded"
        }
      }
    },
    "title": "Compound's CEther Contract",
    "version": 1
  },
  "userdoc": {
    "events": {
      "AccrueInterest(uint256,uint256,uint256,uint256)": {
        "notice": "Event emitted when interest is accrued"
      },
      "Approval(address,address,uint256)": {
        "notice": "EIP20 Approval event"
      },
      "Borrow(address,uint256,uint256,uint256)": {
        "notice": "Event emitted when underlying is borrowed"
      },
      "LiquidateBorrow(address,address,uint256,address,uint256)": {
        "notice": "Event emitted when a borrow is liquidated"
      },
      "Mint(address,uint256,uint256)": {
        "notice": "Event emitted when tokens are minted"
      },
      "NewAdmin(address,address)": {
        "notice": "Event emitted when pendingAdmin is accepted, which means admin is updated"
      },
      "NewComptroller(address,address)": {
        "notice": "Event emitted when comptroller is changed"
      },
      "NewMarketInterestRateModel(address,address)": {
        "notice": "Event emitted when interestRateModel is changed"
      },
      "NewPendingAdmin(address,address)": {
        "notice": "Event emitted when pendingAdmin is changed"
      },
      "NewReserveFactor(uint256,uint256)": {
        "notice": "Event emitted when the reserve factor is changed"
      },
      "Redeem(address,uint256,uint256)": {
        "notice": "Event emitted when tokens are redeemed"
      },
      "RepayBorrow(address,address,uint256,uint256,uint256)": {
        "notice": "Event emitted when a borrow is repaid"
      },
      "ReservesAdded(address,uint256,uint256)": {
        "notice": "Event emitted when the reserves are added"
      },
      "ReservesReduced(address,uint256,uint256)": {
        "notice": "Event emitted when the reserves are reduced"
      },
      "Transfer(address,address,uint256)": {
        "notice": "EIP20 Transfer event"
      }
    },
    "kind": "user",
    "methods": {
      "_acceptAdmin()": {
        "notice": "Accepts transfer of admin rights. msg.sender must be pendingAdmin"
      },
      "_reduceReserves(uint256)": {
        "notice": "Accrues interest and reduces reserves by transferring to admin"
      },
      "_setComptroller(address)": {
        "notice": "Sets a new comptroller for the market"
      },
      "_setInterestRateModel(address)": {
        "notice": "accrues interest and updates the interest rate model using _setInterestRateModelFresh"
      },
      "_setPendingAdmin(address)": {
        "notice": "Begins transfer of admin rights. The newPendingAdmin must call `_acceptAdmin` to finalize the transfer."
      },
      "_setReserveFactor(uint256)": {
        "notice": "accrues interest and sets a new reserve factor for the protocol using _setReserveFactorFresh"
      },
      "accrualBlockNumber()": {
        "notice": "Block number that interest was last accrued at"
      },
      "accrueInterest()": {
        "notice": "Applies accrued interest to total borrows and reserves"
      },
      "admin()": {
        "notice": "Administrator for this contract"
      },
      "allowance(address,address)": {
        "notice": "Get the current allowance from `owner` for `spender`"
      },
      "approve(address,uint256)": {
        "notice": "Approve `spender` to transfer up to `amount` from `src`"
      },
      "balanceOf(address)": {
        "notice": "Get the token balance of the `owner`"
      },
      "balanceOfUnderlying(address)": {
        "notice": "Get the underlying balance of the `owner`"
      },
      "borrow(uint256)": {
        "notice": "Sender borrows assets from the protocol to their own address"
      },
      "borrowBalanceCurrent(address)": {
        "notice": "Accrue interest to updated borrowIndex and then calculate account's borrow balance using the updated borrowIndex"
      },
      "borrowBalanceStored(address)": {
        "notice": "Return the borrow balance of account based on stored data"
      },
      "borrowIndex()": {
        "notice": "Accumulator of the total earned interest rate since the opening of the market"
      },
      "borrowRatePerBlock()": {
        "notice": "Returns the current per-block borrow interest rate for this cToken"
      },
      "comptroller()": {
        "notice": "Contract which oversees inter-cToken operations"
      },
      "constructor": {
        "notice": "Construct a new CEther money market"
      },
      "decimals()": {
        "notice": "EIP-20 token decimals for this token"
      },
      "exchangeRateCurrent()": {
        "notice": "Accrue interest then return the up-to-date exchange rate"
      },
      "exchangeRateStored()": {
        "notice": "Calculates the exchange rate from the underlying to the CToken"
      },
      "getAccountSnapshot(address)": {
        "notice": "Get a snapshot of the account's balances, and the cached exchange rate"
      },
      "getCash()": {
        "notice": "Get cash balance of this cToken in the underlying asset"
      },
      "initialize(address,address,uint256,string,string,uint8)": {
        "notice": "Initialize the money market"
      },
      "isCToken()": {
        "notice": "Indicator that this is a CToken contract (for inspection)"
      },
      "liquidateBorrow(address,address)": {
        "notice": "The sender liquidates the borrowers collateral.  The collateral seized is transferred to the liquidator."
      },
      "mint()": {
        "notice": "Sender supplies assets into the market and receives cTokens in exchange"
      },
      "name()": {
        "notice": "EIP-20 token name for this token"
      },
      "pendingAdmin()": {
        "notice": "Pending administrator for this contract"
      },
      "redeem(uint256)": {
        "notice": "Sender redeems cTokens in exchange for the underlying asset"
      },
      "redeemUnderlying(uint256)": {
        "notice": "Sender redeems cTokens in exchange for a specified amount of underlying asset"
      },
      "repayBorrow()": {
        "notice": "Sender repays their own borrow"
      },
      "repayBorrowBehalf(address)": {
        "notice": "Sender repays a borrow belonging to borrower"
      },
      "seize(address,address,uint256)": {
        "notice": "Transfers collateral tokens (this market) to the liquidator."
      },
      "supplyRatePerBlock()": {
        "notice": "Returns the current per-block supply interest rate for this cToken"
      },
      "symbol()": {
        "notice": "EIP-20 token symbol for this token"
      },
      "totalBorrows()": {
        "notice": "Total amount of outstanding borrows of the underlying in this market"
      },
      "totalBorrowsCurrent()": {
        "notice": "Returns the current total borrows plus accrued interest"
      },
      "totalReserves()": {
        "notice": "Total amount of reserves of the underlying held in this market"
      },
      "totalSupply()": {
        "notice": "Total number of tokens in circulation"
      },
      "transfer(address,uint256)": {
        "notice": "Transfer `amount` tokens from `msg.sender` to `dst`"
      },
      "transferFrom(address,address,uint256)": {
        "notice": "Transfer `amount` tokens from `src` to `dst`"
      }
    },
    "notice": "CToken which wraps Ether",
    "version": 1
  }
}