{
  "contractName": "CTokenStorage",
  "abi": [
    {
      "inputs": [],
      "name": "accrualBlockNumber",
      "outputs": [
        {
          "internalType": "uint256",
          "name": "",
          "type": "uint256"
        }
      ],
      "stateMutability": "view",
      "type": "function"
    },
    {
      "inputs": [],
      "name": "admin",
      "outputs": [
        {
          "internalType": "address payable",
          "name": "",
          "type": "address"
        }
      ],
      "stateMutability": "view",
      "type": "function"
    },
    {
      "inputs": [],
      "name": "borrowIndex",
      "outputs": [
        {
          "internalType": "uint256",
          "name": "",
          "type": "uint256"
        }
      ],
      "stateMutability": "view",
      "type": "function"
    },
    {
      "inputs": [],
      "name": "comptroller",
      "outputs": [
        {
          "internalType": "contract ComptrollerInterface",
          "name": "",
          "type": "address"
        }
      ],
      "stateMutability": "view",
      "type": "function"
    },
    {
      "inputs": [],
      "name": "decimals",
      "outputs": [
        {
          "internalType": "uint8",
          "name": "",
          "type": "uint8"
        }
      ],
      "stateMutability": "view",
      "type": "function"
    },
    {
      "inputs": [],
      "name": "interestRateModel",
      "outputs": [
        {
          "internalType": "contract InterestRateModel",
          "name": "",
          "type": "address"
        }
      ],
      "stateMutability": "view",
      "type": "function"
    },
    {
      "inputs": [],
      "name": "name",
      "outputs": [
        {
          "internalType": "string",
          "name": "",
          "type": "string"
        }
      ],
      "stateMutability": "view",
      "type": "function"
    },
    {
      "inputs": [],
      "name": "pendingAdmin",
      "outputs": [
        {
          "internalType": "address payable",
          "name": "",
          "type": "address"
        }
      ],
      "stateMutability": "view",
      "type": "function"
    },
    {
      "inputs": [],
      "name": "reserveFactorMantissa",
      "outputs": [
        {
          "internalType": "uint256",
          "name": "",
          "type": "uint256"
        }
      ],
      "stateMutability": "view",
      "type": "function"
    },
    {
      "inputs": [],
      "name": "symbol",
      "outputs": [
        {
          "internalType": "string",
          "name": "",
          "type": "string"
        }
      ],
      "stateMutability": "view",
      "type": "function"
    },
    {
      "inputs": [],
      "name": "totalBorrows",
      "outputs": [
        {
          "internalType": "uint256",
          "name": "",
          "type": "uint256"
        }
      ],
      "stateMutability": "view",
      "type": "function"
    },
    {
      "inputs": [],
      "name": "totalReserves",
      "outputs": [
        {
          "internalType": "uint256",
          "name": "",
          "type": "uint256"
        }
      ],
      "stateMutability": "view",
      "type": "function"
    },
    {
      "inputs": [],
      "name": "totalSupply",
      "outputs": [
        {
          "internalType": "uint256",
          "name": "",
          "type": "uint256"
        }
      ],
      "stateMutability": "view",
      "type": "function"
    }
  ],
  "bytecode": "0x608060405234801561001057600080fd5b50610371806100206000396000f3fe608060405234801561001057600080fd5b50600436106100cf5760003560e01c80635fe3b5671161008c57806395d89b411161006657806395d89b4114610159578063aa5af0fd14610161578063f3fdb15a14610169578063f851a44014610171576100cf565b80635fe3b567146101415780636c540baf146101495780638f840ddd14610151576100cf565b806306fdde03146100d4578063173b9904146100f257806318160ddd14610107578063267822471461010f578063313ce5671461012457806347bd371814610139575b600080fd5b6100dc610179565b6040516100e99190610296565b60405180910390f35b6100fa610207565b6040516100e991906102e9565b6100fa61020d565b610117610213565b6040516100e99190610282565b61012c610222565b6040516100e991906102f2565b6100fa61022b565b610117610231565b6100fa610240565b6100fa610246565b6100dc61024c565b6100fa610259565b61011761025f565b61011761026e565b6001805461018690610300565b80601f01602080910402602001604051908101604052809291908181526020018280546101b290610300565b80156101ff5780601f106101d4576101008083540402835291602001916101ff565b820191906000526020600020905b8154815290600101906020018083116101e257829003601f168201915b505050505081565b60085481565b600d5481565b6004546001600160a01b031681565b60035460ff1681565b600b5481565b6005546001600160a01b031681565b60095481565b600c5481565b6002805461018690610300565b600a5481565b6006546001600160a01b031681565b60035461010090046001600160a01b031681565b6001600160a01b0391909116815260200190565b6000602080835283518082850152825b818110156102c2578581018301518582016040015282016102a6565b818111156102d35783604083870101525b50601f01601f1916929092016040019392505050565b90815260200190565b60ff91909116815260200190565b60028104600182168061031457607f821691505b6020821081141561033557634e487b7160e01b600052602260045260246000fd5b5091905056fea2646970667358221220b35ba5b5153b58b5f61446146905fa542ebb25846d916a59c608f61a049e5aa864736f6c63430008000033",
  "immutableReferences": {},
  "source": "\n// SPDX-License-Identifier: MIT\npragma solidity ^0.8.0;\n\nimport \"./ComptrollerInterface.sol\";\nimport \"../rates/InterestRateModel.sol\";\n\n\ncontract CTokenStorage {\n    /**\n     * @dev Guard variable for re-entrancy checks\n     */\n    bool internal _notEntered;\n\n    /**\n     * @notice EIP-20 token name for this token\n     */\n    string public name;\n\n    /**\n     * @notice EIP-20 token symbol for this token\n     */\n    string public symbol;\n\n    /**\n     * @notice EIP-20 token decimals for this token\n     */\n    uint8 public decimals;\n\n  \n    uint internal constant borrowRateMaxMantissa = 0.0005e16;\n\n\n    uint internal constant reserveFactorMaxMantissa = 1e18;\n\n    /**\n     * @notice Administrator for this contract\n     */\n    address payable public admin;\n\n    /**\n     * @notice Pending administrator for this contract\n     */\n    address payable public pendingAdmin;\n\n    /**\n     * @notice Contract which oversees inter-cToken operations\n     */\n    ComptrollerInterface public comptroller;\n\n    \n    InterestRateModel public interestRateModel;\n\n    uint internal initialExchangeRateMantissa;\n\n    uint public reserveFactorMantissa;\n\n    /**\n     * @notice Block number that interest was last accrued at\n     */\n    uint public accrualBlockNumber;\n\n    /**\n     * @notice Accumulator of the total earned interest rate since the opening of the market\n     */\n    uint public borrowIndex;\n\n    /**\n     * @notice Total amount of outstanding borrows of the underlying in this market\n     */\n    uint public totalBorrows;\n\n    /**\n     * @notice Total amount of reserves of the underlying held in this market\n     */\n    uint public totalReserves;\n\n    /**\n     * @notice Total number of tokens in circulation\n     */\n    uint public totalSupply;\n\n   \n    mapping (address => uint) internal accountTokens;\n\n    mapping (address => mapping (address => uint)) internal transferAllowances;\n   \n    struct BorrowSnapshot {\n        uint principal;\n        uint interestIndex;\n    }\n\n    mapping(address => BorrowSnapshot) internal accountBorrows;\n}",
  "sourcePath": "/Users/dennismacpro/Projects/Defi/Ethereum-Solidity-Collection/icarus-protocol/defi-seeder/contracts/compound/v2.1/interfaces/CTokenStorage.sol",
  "compiler": {
    "name": "solc",
    "version": "0.8.0+commit.c7dfd78e.Emscripten.clang"
  },
  "schemaVersion": "3.3.4",
  "updatedAt": "2021-03-31T20:20:04.403Z",
  "devdoc": {
    "kind": "dev",
    "methods": {},
    "stateVariables": {
      "_notEntered": {
        "details": "Guard variable for re-entrancy checks"
      }
    },
    "version": 1
  },
  "userdoc": {
    "kind": "user",
    "methods": {
      "accrualBlockNumber()": {
        "notice": "Block number that interest was last accrued at"
      },
      "admin()": {
        "notice": "Administrator for this contract"
      },
      "borrowIndex()": {
        "notice": "Accumulator of the total earned interest rate since the opening of the market"
      },
      "comptroller()": {
        "notice": "Contract which oversees inter-cToken operations"
      },
      "decimals()": {
        "notice": "EIP-20 token decimals for this token"
      },
      "name()": {
        "notice": "EIP-20 token name for this token"
      },
      "pendingAdmin()": {
        "notice": "Pending administrator for this contract"
      },
      "symbol()": {
        "notice": "EIP-20 token symbol for this token"
      },
      "totalBorrows()": {
        "notice": "Total amount of outstanding borrows of the underlying in this market"
      },
      "totalReserves()": {
        "notice": "Total amount of reserves of the underlying held in this market"
      },
      "totalSupply()": {
        "notice": "Total number of tokens in circulation"
      }
    },
    "version": 1
  }
}