{
  "contractName": "GenericLogic",
  "abi": [
    {
      "inputs": [],
      "name": "HEALTH_FACTOR_LIQUIDATION_THRESHOLD",
      "outputs": [
        {
          "internalType": "uint256",
          "name": "",
          "type": "uint256"
        }
      ],
      "stateMutability": "view",
      "type": "function"
    }
  ],
  "bytecode": "0x6110dc61003a600b82828239805160001a60731461002d57634e487b7160e01b600052600060045260246000fd5b30600052607381538281f3fe73000000000000000000000000000000000000000030146080604052600436106100405760003560e01c8063c3525c2814610045578063e617042414610063575b600080fd5b61004d610083565b60405161005a9190610eea565b60405180910390f35b610076610071366004610d16565b61008f565b60405161005a9190610e14565b670de0b6b3a764000081565b60006100a86100a336879003870187610d9b565b6102c4565b15806100f057506001600160a01b0389166000908152602087905260409020600701546100ee90600160a01b900460ff166100e836889003880188610d9b565b906102f0565b155b156100fd575060016102b8565b610105610c10565b6001600160a01b038a16600090815260208890526040902061012690610361565b5084525060208301819052151590506101435760019150506102b8565b61015f8988610157368a90038a018a610d9b565b88888861038c565b506080850152506060830181905260408301919091526101835760019150506102b8565b80516102209061019490600a610f71565b61021a8a866001600160a01b031663b3596f078f6040518263ffffffff1660e01b81526004016101c49190610e00565b60206040518083038186803b1580156101dc57600080fd5b505afa1580156101f0573d6000803e3d6000fd5b505050506040513d601f19601f820116820180604052508101906102149190610de8565b9061085d565b906108a9565b60a082018190526040820151610235916108eb565b60c0820181905261024a5760009150506102b8565b6102898160c0015161021a61027084602001518560a0015161085d90919063ffffffff16565b608085015160408601516102839161085d565b906108eb565b60e0820181905260c082015160608301516000926102a892919061092d565b670de0b6b3a76400001115925050505b98975050505050505050565b80517f55555555555555555555555555555555555555555555555555555555555555551615155b919050565b60006080821060405180604001604052806002815260200161373760f01b815250906103385760405162461bcd60e51b815260040161032f9190610e1f565b60405180910390fd5b5061034482600261103f565b61034f906001610ef3565b83516001911c16151590505b92915050565b5461ffff80821692601083901c821692602081901c831692603082901c60ff169260409290921c1690565b600080600080600061039c610c65565b6103a58a610959565b156103c357600080600080600019955095509550955095505061084f565b600060e08201525b878160e0015110156107ae5760e08101516103e7908b9061095e565b6103f057610796565b60e0810151600090815260208a81526040808320546001600160a01b03166101e085018190528352908d9052902061042781610361565b506080860181905260c08601929092525060a084019190915261044b90600a610f71565b60208301526101e082015160405163b3596f0760e01b81526001600160a01b038a169163b3596f07916104819190600401610e00565b60206040518083038186803b15801561049957600080fd5b505afa1580156104ad573d6000803e3d6000fd5b505050506040513d601f19601f820116820180604052508101906104d19190610de8565b825260c0820151158015906104f1575060e08201516104f1908c906102f0565b1561060f578060040160009054906101000a90046001600160a01b03166001600160a01b03166370a082318e6040518263ffffffff1660e01b81526004016105399190610e00565b60206040518083038186803b15801561055157600080fd5b505afa158015610565573d6000803e3d6000fd5b505050506040513d601f19601f820116820180604052508101906105899190610de8565b60408301819052602083015183516000926105a8929161021a9161085d565b6101208401519091506105bb90826109b9565b61012084015260a08301516105e1906105d590839061085d565b610160850151906109b9565b61016084015260c0830151610607906105fb90839061085d565b610180850151906109b9565b610180840152505b60e082015161061f908c906109e8565b15610794578060050160009054906101000a90046001600160a01b03166001600160a01b03166370a082318e6040518263ffffffff1660e01b81526004016106679190610e00565b60206040518083038186803b15801561067f57600080fd5b505afa158015610693573d6000803e3d6000fd5b505050506040513d601f19601f820116820180604052508101906106b79190610de8565b8260600181815250506107618160060160009054906101000a90046001600160a01b03166001600160a01b03166370a082318f6040518263ffffffff1660e01b81526004016107069190610e00565b60206040518083038186803b15801561071e57600080fd5b505afa158015610732573d6000803e3d6000fd5b505050506040513d601f19601f820116820180604052508101906107569190610de8565b6060840151906109b9565b606083018190526020830151835161078d92610781929161021a9161085d565b610140840151906109b9565b6101408301525b505b60e081018051906107a682611075565b9052506103cb565b6000816101200151116107c25760006107d7565b6101208101516101608201516107d7916108a9565b6101608201526101208101516107ee576000610803565b610120810151610180820151610803916108a9565b61018082018190526101208201516101408301516108209261092d565b610100820181905261012082015161014083015161016084015161018090940151919850965091945090925090505b965096509650965096915050565b60008261086c5750600061035b565b6000610878838561103f565b9050826108858583610f0b565b146108a25760405162461bcd60e51b815260040161032f90610ea9565b9392505050565b60006108a283836040518060400160405280601a81526020017f536166654d6174683a206469766973696f6e206279207a65726f000000000000815250610a33565b60006108a283836040518060400160405280601e81526020017f536166654d6174683a207375627472616374696f6e206f766572666c6f770000815250610a6a565b60008261093d57506000196108a2565b6109518361094b8685610a9b565b90610b42565b949350505050565b511590565b60006080821060405180604001604052806002815260200161373760f01b8152509061099d5760405162461bcd60e51b815260040161032f9190610e1f565b506109a982600261103f565b925190921c600316151592915050565b6000806109c68385610ef3565b9050838110156108a25760405162461bcd60e51b815260040161032f90610e72565b60006080821060405180604001604052806002815260200161373760f01b81525090610a275760405162461bcd60e51b815260040161032f9190610e1f565b5061034f82600261103f565b60008183610a545760405162461bcd60e51b815260040161032f9190610e1f565b506000610a618486610f0b565b95945050505050565b60008184841115610a8e5760405162461bcd60e51b815260040161032f9190610e1f565b506000610a61848661105e565b6000821580610aa8575081155b15610ab55750600061035b565b81610ac36002612710610f0b565b610acf9060001961105e565b610ad99190610f0b565b83111560405180604001604052806002815260200161068760f31b81525090610b155760405162461bcd60e51b815260040161032f9190610e1f565b50612710610b24600282610f0b565b610b2e848661103f565b610b389190610ef3565b6108a29190610f0b565b604080518082019091526002815261035360f41b602082015260009082610b7c5760405162461bcd60e51b815260040161032f9190610e1f565b506000610b8a600284610f0b565b9050670de0b6b3a7640000610ba18260001961105e565b610bab9190610f0b565b84111560405180604001604052806002815260200161068760f31b81525090610be75760405162461bcd60e51b815260040161032f9190610e1f565b508281610bfc670de0b6b3a76400008761103f565b610c069190610ef3565b6109519190610f0b565b6040518061014001604052806000815260200160008152602001600081526020016000815260200160008152602001600081526020016000815260200160008152602001600081526020016000151581525090565b604051806102400160405280600081526020016000815260200160008152602001600081526020016000815260200160008152602001600081526020016000815260200160008152602001600081526020016000815260200160008152602001600081526020016000815260200160001515815260200160006001600160a01b031681526020016000151581526020016000151581525090565b80356001600160a01b03811681146102eb57600080fd5b600080600080600080600080888a03610100811215610d33578485fd5b610d3c8a610cff565b9850610d4a60208b01610cff565b975060408a0135965060608a013595506020607f1982011215610d6b578485fd5b5060808901935060a0890135925060c08901359150610d8c60e08a01610cff565b90509295985092959890939650565b600060208284031215610dac578081fd5b6040516020810181811067ffffffffffffffff82111715610ddb57634e487b7160e01b83526041600452602483fd5b6040529135825250919050565b600060208284031215610df9578081fd5b5051919050565b6001600160a01b0391909116815260200190565b901515815260200190565b6000602080835283518082850152825b81811015610e4b57858101830151858201604001528201610e2f565b81811115610e5c5783604083870101525b50601f01601f1916929092016040019392505050565b6020808252601b908201527f536166654d6174683a206164646974696f6e206f766572666c6f770000000000604082015260600190565b60208082526021908201527f536166654d6174683a206d756c7469706c69636174696f6e206f766572666c6f6040820152607760f81b606082015260800190565b90815260200190565b60008219821115610f0657610f06611090565b500190565b600082610f2657634e487b7160e01b81526012600452602481fd5b500490565b80825b6001808611610f3d5750610f68565b818704821115610f4f57610f4f611090565b80861615610f5c57918102915b9490941c938002610f2e565b94509492505050565b60006108a26000198484600082610f8a575060016108a2565b81610f97575060006108a2565b8160018114610fad5760028114610fb757610fe4565b60019150506108a2565b60ff841115610fc857610fc8611090565b6001841b915084821115610fde57610fde611090565b506108a2565b5060208310610133831016604e8410600b8410161715611017575081810a8381111561101257611012611090565b6108a2565b6110248484846001610f2b565b80860482111561103657611036611090565b02949350505050565b600081600019048311821515161561105957611059611090565b500290565b60008282101561107057611070611090565b500390565b600060001982141561108957611089611090565b5060010190565b634e487b7160e01b600052601160045260246000fdfea26469706673582212201069569d413fe662ccd4a9da77a882149bedf1f2a4a3535f24ea95b4caf7c71964736f6c63430008000033",
  "immutableReferences": {},
  "source": "// SPDX-License-Identifier: agpl-3.0\npragma solidity ^0.8.0;\npragma experimental ABIEncoderV2;\n\nimport {SafeMath} from '../dependencies/SafeMath.sol';\nimport {IERC20} from '../dependencies/IERC20.sol';\nimport {ReserveLogic} from './ReserveLogic.sol';\nimport {ReserveConfiguration} from './ReserveConfiguration.sol';\nimport {UserConfiguration} from './UserConfiguration.sol';\nimport {WadRayMath} from './WadRayMath.sol';\nimport {PercentageMath} from './PercentageMath.sol';\nimport {IPriceOracleGetter} from '../interfaces/IPriceOracleGetter.sol';\nimport {DataTypes} from './DataTypes.sol';\n\n/**\n * @title GenericLogic library\n * @author Aave\n * @title Implements protocol-level logic to calculate and validate the state of a user\n */\nlibrary GenericLogic {\n  using ReserveLogic for DataTypes.ReserveData;\n  using SafeMath for uint256;\n  using WadRayMath for uint256;\n  using PercentageMath for uint256;\n  using ReserveConfiguration for DataTypes.ReserveConfigurationMap;\n  using UserConfiguration for DataTypes.UserConfigurationMap;\n\n  uint256 public constant HEALTH_FACTOR_LIQUIDATION_THRESHOLD = 1 ether;\n\n  struct balanceDecreaseAllowedLocalVars {\n    uint256 decimals;\n    uint256 liquidationThreshold;\n    uint256 totalCollateralInETH;\n    uint256 totalDebtInETH;\n    uint256 avgLiquidationThreshold;\n    uint256 amountToDecreaseInETH;\n    uint256 collateralBalanceAfterDecrease;\n    uint256 liquidationThresholdAfterDecrease;\n    uint256 healthFactorAfterDecrease;\n    bool reserveUsageAsCollateralEnabled;\n  }\n\n  /**\n   * @dev Checks if a specific balance decrease is allowed\n   * (i.e. doesn't bring the user borrow position health factor under HEALTH_FACTOR_LIQUIDATION_THRESHOLD)\n   * @param asset The address of the underlying asset of the reserve\n   * @param user The address of the user\n   * @param amount The amount to decrease\n   * @param reservesData The data of all the reserves\n   * @param userConfig The user configuration\n   * @param reserves The list of all the active reserves\n   * @param oracle The address of the oracle contract\n   * @return true if the decrease of the balance is allowed\n   **/\n  function balanceDecreaseAllowed(\n    address asset,\n    address user,\n    uint256 amount,\n    mapping(address => DataTypes.ReserveData) storage reservesData,\n    DataTypes.UserConfigurationMap calldata userConfig,\n    mapping(uint256 => address) storage reserves,\n    uint256 reservesCount,\n    address oracle\n  ) external view returns (bool) {\n    if (!userConfig.isBorrowingAny() || !userConfig.isUsingAsCollateral(reservesData[asset].id)) {\n      return true;\n    }\n\n    balanceDecreaseAllowedLocalVars memory vars;\n\n    (, vars.liquidationThreshold, , vars.decimals, ) = reservesData[asset]\n      .configuration\n      .getParams();\n\n    if (vars.liquidationThreshold == 0) {\n      return true;\n    }\n\n    (\n      vars.totalCollateralInETH,\n      vars.totalDebtInETH,\n      ,\n      vars.avgLiquidationThreshold,\n\n    ) = calculateUserAccountData(user, reservesData, userConfig, reserves, reservesCount, oracle);\n\n    if (vars.totalDebtInETH == 0) {\n      return true;\n    }\n\n    vars.amountToDecreaseInETH = IPriceOracleGetter(oracle).getAssetPrice(asset).mul(amount).div(\n      10**vars.decimals\n    );\n\n    vars.collateralBalanceAfterDecrease = vars.totalCollateralInETH.sub(vars.amountToDecreaseInETH);\n\n    //if there is a borrow, there can't be 0 collateral\n    if (vars.collateralBalanceAfterDecrease == 0) {\n      return false;\n    }\n\n    vars.liquidationThresholdAfterDecrease = vars\n      .totalCollateralInETH\n      .mul(vars.avgLiquidationThreshold)\n      .sub(vars.amountToDecreaseInETH.mul(vars.liquidationThreshold))\n      .div(vars.collateralBalanceAfterDecrease);\n\n    uint256 healthFactorAfterDecrease =\n      calculateHealthFactorFromBalances(\n        vars.collateralBalanceAfterDecrease,\n        vars.totalDebtInETH,\n        vars.liquidationThresholdAfterDecrease\n      );\n\n    return healthFactorAfterDecrease >= GenericLogic.HEALTH_FACTOR_LIQUIDATION_THRESHOLD;\n  }\n\n  struct CalculateUserAccountDataVars {\n    uint256 reserveUnitPrice;\n    uint256 tokenUnit;\n    uint256 compoundedLiquidityBalance;\n    uint256 compoundedBorrowBalance;\n    uint256 decimals;\n    uint256 ltv;\n    uint256 liquidationThreshold;\n    uint256 i;\n    uint256 healthFactor;\n    uint256 totalCollateralInETH;\n    uint256 totalDebtInETH;\n    uint256 avgLtv;\n    uint256 avgLiquidationThreshold;\n    uint256 reservesLength;\n    bool healthFactorBelowThreshold;\n    address currentReserveAddress;\n    bool usageAsCollateralEnabled;\n    bool userUsesReserveAsCollateral;\n  }\n\n  /**\n   * @dev Calculates the user data across the reserves.\n   * this includes the total liquidity/collateral/borrow balances in ETH,\n   * the average Loan To Value, the average Liquidation Ratio, and the Health factor.\n   * @param user The address of the user\n   * @param reservesData Data of all the reserves\n   * @param userConfig The configuration of the user\n   * @param reserves The list of the available reserves\n   * @param oracle The price oracle address\n   * @return The total collateral and total debt of the user in ETH, the avg ltv, liquidation threshold and the HF\n   **/\n  function calculateUserAccountData(\n    address user,\n    mapping(address => DataTypes.ReserveData) storage reservesData,\n    DataTypes.UserConfigurationMap memory userConfig,\n    mapping(uint256 => address) storage reserves,\n    uint256 reservesCount,\n    address oracle\n  )\n    internal\n    view\n    returns (\n      uint256,\n      uint256,\n      uint256,\n      uint256,\n      uint256\n    )\n  {\n    CalculateUserAccountDataVars memory vars;\n\n    if (userConfig.isEmpty()) {\n      return (0, 0, 0, 0,  type(uint256).max);\n    }\n    for (vars.i = 0; vars.i < reservesCount; vars.i++) {\n      if (!userConfig.isUsingAsCollateralOrBorrowing(vars.i)) {\n        continue;\n      }\n\n      vars.currentReserveAddress = reserves[vars.i];\n      DataTypes.ReserveData storage currentReserve = reservesData[vars.currentReserveAddress];\n\n      (vars.ltv, vars.liquidationThreshold, , vars.decimals, ) = currentReserve\n        .configuration\n        .getParams();\n\n      vars.tokenUnit = 10**vars.decimals;\n      vars.reserveUnitPrice = IPriceOracleGetter(oracle).getAssetPrice(vars.currentReserveAddress);\n\n      if (vars.liquidationThreshold != 0 && userConfig.isUsingAsCollateral(vars.i)) {\n        vars.compoundedLiquidityBalance = IERC20(currentReserve.aTokenAddress).balanceOf(user);\n\n        uint256 liquidityBalanceETH =\n          vars.reserveUnitPrice.mul(vars.compoundedLiquidityBalance).div(vars.tokenUnit);\n\n        vars.totalCollateralInETH = vars.totalCollateralInETH.add(liquidityBalanceETH);\n\n        vars.avgLtv = vars.avgLtv.add(liquidityBalanceETH.mul(vars.ltv));\n        vars.avgLiquidationThreshold = vars.avgLiquidationThreshold.add(\n          liquidityBalanceETH.mul(vars.liquidationThreshold)\n        );\n      }\n\n      if (userConfig.isBorrowing(vars.i)) {\n        vars.compoundedBorrowBalance = IERC20(currentReserve.stableDebtTokenAddress).balanceOf(\n          user\n        );\n        vars.compoundedBorrowBalance = vars.compoundedBorrowBalance.add(\n          IERC20(currentReserve.variableDebtTokenAddress).balanceOf(user)\n        );\n\n        vars.totalDebtInETH = vars.totalDebtInETH.add(\n          vars.reserveUnitPrice.mul(vars.compoundedBorrowBalance).div(vars.tokenUnit)\n        );\n      }\n    }\n\n    vars.avgLtv = vars.totalCollateralInETH > 0 ? vars.avgLtv.div(vars.totalCollateralInETH) : 0;\n    vars.avgLiquidationThreshold = vars.totalCollateralInETH > 0\n      ? vars.avgLiquidationThreshold.div(vars.totalCollateralInETH)\n      : 0;\n\n    vars.healthFactor = calculateHealthFactorFromBalances(\n      vars.totalCollateralInETH,\n      vars.totalDebtInETH,\n      vars.avgLiquidationThreshold\n    );\n    return (\n      vars.totalCollateralInETH,\n      vars.totalDebtInETH,\n      vars.avgLtv,\n      vars.avgLiquidationThreshold,\n      vars.healthFactor\n    );\n  }\n\n  /**\n   * @dev Calculates the health factor from the corresponding balances\n   * @param totalCollateralInETH The total collateral in ETH\n   * @param totalDebtInETH The total debt in ETH\n   * @param liquidationThreshold The avg liquidation threshold\n   * @return The health factor calculated from the balances provided\n   **/\n  function calculateHealthFactorFromBalances(\n    uint256 totalCollateralInETH,\n    uint256 totalDebtInETH,\n    uint256 liquidationThreshold\n  ) internal pure returns (uint256) {\n    if (totalDebtInETH == 0) return type(uint256).max;\n\n    return (totalCollateralInETH.percentMul(liquidationThreshold)).wadDiv(totalDebtInETH);\n  }\n\n  /**\n   * @dev Calculates the equivalent amount in ETH that an user can borrow, depending on the available collateral and the\n   * average Loan To Value\n   * @param totalCollateralInETH The total collateral in ETH\n   * @param totalDebtInETH The total borrow balance\n   * @param ltv The average loan to value\n   * @return the amount available to borrow in ETH for the user\n   **/\n\n  function calculateAvailableBorrowsETH(\n    uint256 totalCollateralInETH,\n    uint256 totalDebtInETH,\n    uint256 ltv\n  ) internal pure returns (uint256) {\n    uint256 availableBorrowsETH = totalCollateralInETH.percentMul(ltv);\n\n    if (availableBorrowsETH < totalDebtInETH) {\n      return 0;\n    }\n\n    availableBorrowsETH = availableBorrowsETH.sub(totalDebtInETH);\n    return availableBorrowsETH;\n  }\n}\n",
  "sourcePath": "/Users/dennismacpro/Projects/Defi/Ethereum-Solidity-Collection/icarus-protocol/defi-seeder/contracts/aave/v2/libraries/GenericLogic.sol",
  "compiler": {
    "name": "solc",
    "version": "0.8.0+commit.c7dfd78e.Emscripten.clang"
  },
  "schemaVersion": "3.3.4",
  "updatedAt": "2021-04-01T18:51:07.994Z",
  "devdoc": {
    "author": "Aave",
    "kind": "dev",
    "methods": {
      "balanceDecreaseAllowed(address,address,uint256,mapping(address => DataTypes.ReserveData) storage,DataTypes.UserConfigurationMap,mapping(uint256 => address) storage,uint256,address)": {
        "details": "Checks if a specific balance decrease is allowed (i.e. doesn't bring the user borrow position health factor under HEALTH_FACTOR_LIQUIDATION_THRESHOLD)",
        "params": {
          "amount": "The amount to decrease",
          "asset": "The address of the underlying asset of the reserve",
          "oracle": "The address of the oracle contract",
          "reserves": "The list of all the active reserves",
          "reservesData": "The data of all the reserves",
          "user": "The address of the user",
          "userConfig": "The user configuration"
        },
        "returns": {
          "_0": "true if the decrease of the balance is allowed*"
        }
      }
    },
    "title": "GenericLogic libraryImplements protocol-level logic to calculate and validate the state of a user",
    "version": 1
  },
  "userdoc": {
    "kind": "user",
    "methods": {},
    "version": 1
  }
}