{
  "contractName": "InitializableImmutableAdminUpgradeabilityProxy",
  "abi": [
    {
      "inputs": [
        {
          "internalType": "address",
          "name": "admin_",
          "type": "address"
        }
      ],
      "stateMutability": "nonpayable",
      "type": "constructor"
    },
    {
      "anonymous": false,
      "inputs": [
        {
          "indexed": true,
          "internalType": "address",
          "name": "implementation",
          "type": "address"
        }
      ],
      "name": "Upgraded",
      "type": "event"
    },
    {
      "stateMutability": "payable",
      "type": "fallback"
    },
    {
      "inputs": [],
      "name": "admin",
      "outputs": [
        {
          "internalType": "address",
          "name": "_admin",
          "type": "address"
        }
      ],
      "stateMutability": "nonpayable",
      "type": "function"
    },
    {
      "inputs": [],
      "name": "implementation",
      "outputs": [
        {
          "internalType": "address",
          "name": "impl_",
          "type": "address"
        }
      ],
      "stateMutability": "nonpayable",
      "type": "function"
    },
    {
      "inputs": [
        {
          "internalType": "address",
          "name": "_logic",
          "type": "address"
        },
        {
          "internalType": "bytes",
          "name": "_data",
          "type": "bytes"
        }
      ],
      "name": "initialize",
      "outputs": [],
      "stateMutability": "payable",
      "type": "function"
    },
    {
      "inputs": [
        {
          "internalType": "address",
          "name": "newImplementation",
          "type": "address"
        }
      ],
      "name": "upgradeTo",
      "outputs": [],
      "stateMutability": "nonpayable",
      "type": "function"
    },
    {
      "inputs": [
        {
          "internalType": "address",
          "name": "newImplementation",
          "type": "address"
        },
        {
          "internalType": "bytes",
          "name": "data",
          "type": "bytes"
        }
      ],
      "name": "upgradeToAndCall",
      "outputs": [],
      "stateMutability": "payable",
      "type": "function"
    },
    {
      "stateMutability": "payable",
      "type": "receive"
    }
  ],
  "bytecode": "0x60a060405234801561001057600080fd5b506040516108b13803806108b183398101604081905261002f91610044565b60601b6001600160601b031916608052610072565b600060208284031215610055578081fd5b81516001600160a01b038116811461006b578182fd5b9392505050565b60805160601c6107fe6100b36000396000818161010a015281816101540152818161020d0152818161035a01528181610383015261049501526107fe6000f3fe60806040526004361061004e5760003560e01c80633659cfe61461005f5780634f1ef2861461007f5780635c60da1b14610092578063d1f57894146100bd578063f851a440146100d057610055565b3661005557005b61005d6100e5565b005b34801561006b57600080fd5b5061005d61007a366004610530565b6100ff565b61005d61008d366004610551565b610149565b34801561009e57600080fd5b506100a7610200565b6040516100b491906106cc565b60405180910390f35b61005d6100cb3660046105cf565b61024d565b3480156100dc57600080fd5b506100a761034d565b6100ed6103a7565b6100fd6100f86103af565b6103d4565b565b336001600160a01b037f000000000000000000000000000000000000000000000000000000000000000016141561013e57610139816103f8565b610146565b6101466100e5565b50565b336001600160a01b037f00000000000000000000000000000000000000000000000000000000000000001614156101f357610183836103f8565b6000836001600160a01b0316838360405161019f929190610683565b600060405180830381855af49150503d80600081146101da576040519150601f19603f3d011682016040523d82523d6000602084013e6101df565b606091505b50509050806101ed57600080fd5b506101fb565b6101fb6100e5565b505050565b6000336001600160a01b037f00000000000000000000000000000000000000000000000000000000000000001614156102425761023b6103af565b905061024a565b61024a6100e5565b90565b60006102576103af565b6001600160a01b03161461026a57600080fd5b61029560017f360894a13ba1a3210667c828492db98dca3e2076cc3735a920a3ca505d382bbd61078f565b7f360894a13ba1a3210667c828492db98dca3e2076cc3735a920a3ca505d382bbc146102d157634e487b7160e01b600052600160045260246000fd5b6102da82610438565b805115610349576000826001600160a01b0316826040516102fb9190610693565b600060405180830381855af49150503d8060008114610336576040519150601f19603f3d011682016040523d82523d6000602084013e61033b565b606091505b50509050806101fb57600080fd5b5050565b6000336001600160a01b037f000000000000000000000000000000000000000000000000000000000000000016141561024257507f000000000000000000000000000000000000000000000000000000000000000061024a565b6100fd61048a565b7f360894a13ba1a3210667c828492db98dca3e2076cc3735a920a3ca505d382bbc5490565b3660008037600080366000845af43d6000803e8080156103f3573d6000f35b3d6000fd5b61040181610438565b6040516001600160a01b038216907fbc7cd75a20ee27fd9adebab32041f755214dbc6bffa90cc0225b39da2e5c2d3b90600090a250565b610441816104db565b6104665760405162461bcd60e51b815260040161045d90610732565b60405180910390fd5b7f360894a13ba1a3210667c828492db98dca3e2076cc3735a920a3ca505d382bbc55565b336001600160a01b037f00000000000000000000000000000000000000000000000000000000000000001614156104d35760405162461bcd60e51b815260040161045d906106e0565b6100fd6100fd565b6000813f7fc5d2460186f7233c927e7db2dcc703c0e500b653ca82273b7bfad8045d85a47081811480159061050f57508115155b925050505b919050565b80356001600160a01b038116811461051457600080fd5b600060208284031215610541578081fd5b61054a82610519565b9392505050565b600080600060408486031215610565578182fd5b61056e84610519565b9250602084013567ffffffffffffffff8082111561058a578384fd5b818601915086601f83011261059d578384fd5b8135818111156105ab578485fd5b8760208285010111156105bc578485fd5b6020830194508093505050509250925092565b600080604083850312156105e1578182fd5b6105ea83610519565b915060208084013567ffffffffffffffff80821115610607578384fd5b818601915086601f83011261061a578384fd5b81358181111561062c5761062c6107b2565b604051601f8201601f191681018501838111828210171561064f5761064f6107b2565b6040528181528382018501891015610665578586fd5b81858501868301378585838301015280955050505050509250929050565b6000828483379101908152919050565b60008251815b818110156106b35760208186018101518583015201610699565b818111156106c15782828501525b509190910192915050565b6001600160a01b0391909116815260200190565b60208082526032908201527f43616e6e6f742063616c6c2066616c6c6261636b2066756e6374696f6e20667260408201527137b6903a343290383937bc3c9030b236b4b760711b606082015260800190565b6020808252603b908201527f43616e6e6f742073657420612070726f787920696d706c656d656e746174696f60408201527f6e20746f2061206e6f6e2d636f6e747261637420616464726573730000000000606082015260800190565b6000828210156107ad57634e487b7160e01b81526011600452602481fd5b500390565b634e487b7160e01b600052604160045260246000fdfea26469706673582212205ce9fd4f308f3069cd3ef266c02485b367c4f58529bc3c05f43ed6e0e21efce764736f6c63430008000033",
  "immutableReferences": {
    "5215": [
      {
        "length": 32,
        "start": 266
      },
      {
        "length": 32,
        "start": 340
      },
      {
        "length": 32,
        "start": 525
      },
      {
        "length": 32,
        "start": 858
      },
      {
        "length": 32,
        "start": 899
      },
      {
        "length": 32,
        "start": 1173
      }
    ]
  },
  "source": "// SPDX-License-Identifier: agpl-3.0\npragma solidity ^0.8.0;\n\nimport './BaseImmutableAdminUpgradeabilityProxy.sol';\nimport '../dependencies/InitializableUpgradeabilityProxy.sol';\n\n/**\n * @title InitializableAdminUpgradeabilityProxy\n * @dev Extends BaseAdminUpgradeabilityProxy with an initializer function\n */\ncontract InitializableImmutableAdminUpgradeabilityProxy is\n  BaseImmutableAdminUpgradeabilityProxy,\n  InitializableUpgradeabilityProxy\n{\n  constructor(address admin_) BaseImmutableAdminUpgradeabilityProxy(admin_) {}\n\n  /**\n   * @dev Only fall back when the sender is not the admin.\n   */\n  function _willFallback() internal override(BaseImmutableAdminUpgradeabilityProxy, Proxy) {\n    BaseImmutableAdminUpgradeabilityProxy._willFallback();\n  }\n}\n",
  "sourcePath": "/Users/dennismacpro/Projects/Defi/Ethereum-Solidity-Collection/icarus-protocol/defi-seeder/contracts/aave/v2/libraries/InitializableImmutableAdminUpgradeabilityProxy.sol",
  "compiler": {
    "name": "solc",
    "version": "0.8.0+commit.c7dfd78e.Emscripten.clang"
  },
  "schemaVersion": "3.3.4",
  "updatedAt": "2021-03-31T20:20:03.715Z",
  "devdoc": {
    "details": "Extends BaseAdminUpgradeabilityProxy with an initializer function",
    "kind": "dev",
    "methods": {
      "initialize(address,bytes)": {
        "details": "Contract initializer.",
        "params": {
          "_data": "Data to send as msg.data to the implementation to initialize the proxied contract. It should include the signature and the parameters of the function to be called, as described in https://solidity.readthedocs.io/en/v0.4.24/abi-spec.html#function-selector-and-argument-encoding. This parameter is optional, if no data is given the initialization call to proxied contract will be skipped.",
          "_logic": "Address of the initial implementation."
        }
      },
      "upgradeTo(address)": {
        "details": "Upgrade the backing implementation of the proxy. Only the admin can call this function.",
        "params": {
          "newImplementation": "Address of the new implementation."
        }
      },
      "upgradeToAndCall(address,bytes)": {
        "details": "Upgrade the backing implementation of the proxy and call a function on the new implementation. This is useful to initialize the proxied contract.",
        "params": {
          "data": "Data to send as msg.data in the low level call. It should include the signature and the parameters of the function to be called, as described in https://solidity.readthedocs.io/en/v0.4.24/abi-spec.html#function-selector-and-argument-encoding.",
          "newImplementation": "Address of the new implementation."
        }
      }
    },
    "title": "InitializableAdminUpgradeabilityProxy",
    "version": 1
  },
  "userdoc": {
    "kind": "user",
    "methods": {},
    "version": 1
  }
}