{
  "contractName": "LendingPool",
  "abi": [
    {
      "anonymous": false,
      "inputs": [
        {
          "indexed": true,
          "internalType": "address",
          "name": "reserve",
          "type": "address"
        },
        {
          "indexed": false,
          "internalType": "address",
          "name": "user",
          "type": "address"
        },
        {
          "indexed": true,
          "internalType": "address",
          "name": "onBehalfOf",
          "type": "address"
        },
        {
          "indexed": false,
          "internalType": "uint256",
          "name": "amount",
          "type": "uint256"
        },
        {
          "indexed": false,
          "internalType": "uint256",
          "name": "borrowRateMode",
          "type": "uint256"
        },
        {
          "indexed": false,
          "internalType": "uint256",
          "name": "borrowRate",
          "type": "uint256"
        },
        {
          "indexed": true,
          "internalType": "uint16",
          "name": "referral",
          "type": "uint16"
        }
      ],
      "name": "Borrow",
      "type": "event"
    },
    {
      "anonymous": false,
      "inputs": [
        {
          "indexed": true,
          "internalType": "address",
          "name": "reserve",
          "type": "address"
        },
        {
          "indexed": false,
          "internalType": "address",
          "name": "user",
          "type": "address"
        },
        {
          "indexed": true,
          "internalType": "address",
          "name": "onBehalfOf",
          "type": "address"
        },
        {
          "indexed": false,
          "internalType": "uint256",
          "name": "amount",
          "type": "uint256"
        },
        {
          "indexed": true,
          "internalType": "uint16",
          "name": "referral",
          "type": "uint16"
        }
      ],
      "name": "Deposit",
      "type": "event"
    },
    {
      "anonymous": false,
      "inputs": [
        {
          "indexed": true,
          "internalType": "address",
          "name": "target",
          "type": "address"
        },
        {
          "indexed": true,
          "internalType": "address",
          "name": "initiator",
          "type": "address"
        },
        {
          "indexed": true,
          "internalType": "address",
          "name": "asset",
          "type": "address"
        },
        {
          "indexed": false,
          "internalType": "uint256",
          "name": "amount",
          "type": "uint256"
        },
        {
          "indexed": false,
          "internalType": "uint256",
          "name": "premium",
          "type": "uint256"
        },
        {
          "indexed": false,
          "internalType": "uint16",
          "name": "referralCode",
          "type": "uint16"
        }
      ],
      "name": "FlashLoan",
      "type": "event"
    },
    {
      "anonymous": false,
      "inputs": [
        {
          "indexed": true,
          "internalType": "address",
          "name": "collateralAsset",
          "type": "address"
        },
        {
          "indexed": true,
          "internalType": "address",
          "name": "debtAsset",
          "type": "address"
        },
        {
          "indexed": true,
          "internalType": "address",
          "name": "user",
          "type": "address"
        },
        {
          "indexed": false,
          "internalType": "uint256",
          "name": "debtToCover",
          "type": "uint256"
        },
        {
          "indexed": false,
          "internalType": "uint256",
          "name": "liquidatedCollateralAmount",
          "type": "uint256"
        },
        {
          "indexed": false,
          "internalType": "address",
          "name": "liquidator",
          "type": "address"
        },
        {
          "indexed": false,
          "internalType": "bool",
          "name": "receiveAToken",
          "type": "bool"
        }
      ],
      "name": "LiquidationCall",
      "type": "event"
    },
    {
      "anonymous": false,
      "inputs": [],
      "name": "Paused",
      "type": "event"
    },
    {
      "anonymous": false,
      "inputs": [
        {
          "indexed": true,
          "internalType": "address",
          "name": "reserve",
          "type": "address"
        },
        {
          "indexed": true,
          "internalType": "address",
          "name": "user",
          "type": "address"
        }
      ],
      "name": "RebalanceStableBorrowRate",
      "type": "event"
    },
    {
      "anonymous": false,
      "inputs": [
        {
          "indexed": true,
          "internalType": "address",
          "name": "reserve",
          "type": "address"
        },
        {
          "indexed": true,
          "internalType": "address",
          "name": "user",
          "type": "address"
        },
        {
          "indexed": true,
          "internalType": "address",
          "name": "repayer",
          "type": "address"
        },
        {
          "indexed": false,
          "internalType": "uint256",
          "name": "amount",
          "type": "uint256"
        }
      ],
      "name": "Repay",
      "type": "event"
    },
    {
      "anonymous": false,
      "inputs": [
        {
          "indexed": true,
          "internalType": "address",
          "name": "reserve",
          "type": "address"
        },
        {
          "indexed": false,
          "internalType": "uint256",
          "name": "liquidityRate",
          "type": "uint256"
        },
        {
          "indexed": false,
          "internalType": "uint256",
          "name": "stableBorrowRate",
          "type": "uint256"
        },
        {
          "indexed": false,
          "internalType": "uint256",
          "name": "variableBorrowRate",
          "type": "uint256"
        },
        {
          "indexed": false,
          "internalType": "uint256",
          "name": "liquidityIndex",
          "type": "uint256"
        },
        {
          "indexed": false,
          "internalType": "uint256",
          "name": "variableBorrowIndex",
          "type": "uint256"
        }
      ],
      "name": "ReserveDataUpdated",
      "type": "event"
    },
    {
      "anonymous": false,
      "inputs": [
        {
          "indexed": true,
          "internalType": "address",
          "name": "reserve",
          "type": "address"
        },
        {
          "indexed": true,
          "internalType": "address",
          "name": "user",
          "type": "address"
        }
      ],
      "name": "ReserveUsedAsCollateralDisabled",
      "type": "event"
    },
    {
      "anonymous": false,
      "inputs": [
        {
          "indexed": true,
          "internalType": "address",
          "name": "reserve",
          "type": "address"
        },
        {
          "indexed": true,
          "internalType": "address",
          "name": "user",
          "type": "address"
        }
      ],
      "name": "ReserveUsedAsCollateralEnabled",
      "type": "event"
    },
    {
      "anonymous": false,
      "inputs": [
        {
          "indexed": true,
          "internalType": "address",
          "name": "reserve",
          "type": "address"
        },
        {
          "indexed": true,
          "internalType": "address",
          "name": "user",
          "type": "address"
        },
        {
          "indexed": false,
          "internalType": "uint256",
          "name": "rateMode",
          "type": "uint256"
        }
      ],
      "name": "Swap",
      "type": "event"
    },
    {
      "anonymous": false,
      "inputs": [],
      "name": "Unpaused",
      "type": "event"
    },
    {
      "anonymous": false,
      "inputs": [
        {
          "indexed": true,
          "internalType": "address",
          "name": "reserve",
          "type": "address"
        },
        {
          "indexed": true,
          "internalType": "address",
          "name": "user",
          "type": "address"
        },
        {
          "indexed": true,
          "internalType": "address",
          "name": "to",
          "type": "address"
        },
        {
          "indexed": false,
          "internalType": "uint256",
          "name": "amount",
          "type": "uint256"
        }
      ],
      "name": "Withdraw",
      "type": "event"
    },
    {
      "inputs": [],
      "name": "LENDINGPOOL_REVISION",
      "outputs": [
        {
          "internalType": "uint256",
          "name": "",
          "type": "uint256"
        }
      ],
      "stateMutability": "view",
      "type": "function"
    },
    {
      "inputs": [
        {
          "internalType": "contract ILendingPoolAddressesProvider",
          "name": "provider",
          "type": "address"
        }
      ],
      "name": "initialize",
      "outputs": [],
      "stateMutability": "nonpayable",
      "type": "function"
    },
    {
      "inputs": [
        {
          "internalType": "address",
          "name": "asset",
          "type": "address"
        },
        {
          "internalType": "uint256",
          "name": "amount",
          "type": "uint256"
        },
        {
          "internalType": "address",
          "name": "onBehalfOf",
          "type": "address"
        },
        {
          "internalType": "uint16",
          "name": "referralCode",
          "type": "uint16"
        }
      ],
      "name": "deposit",
      "outputs": [],
      "stateMutability": "nonpayable",
      "type": "function"
    },
    {
      "inputs": [
        {
          "internalType": "address",
          "name": "asset",
          "type": "address"
        },
        {
          "internalType": "uint256",
          "name": "amount",
          "type": "uint256"
        },
        {
          "internalType": "address",
          "name": "to",
          "type": "address"
        }
      ],
      "name": "withdraw",
      "outputs": [
        {
          "internalType": "uint256",
          "name": "",
          "type": "uint256"
        }
      ],
      "stateMutability": "nonpayable",
      "type": "function"
    },
    {
      "inputs": [
        {
          "internalType": "address",
          "name": "asset",
          "type": "address"
        },
        {
          "internalType": "uint256",
          "name": "amount",
          "type": "uint256"
        },
        {
          "internalType": "uint256",
          "name": "interestRateMode",
          "type": "uint256"
        },
        {
          "internalType": "uint16",
          "name": "referralCode",
          "type": "uint16"
        },
        {
          "internalType": "address",
          "name": "onBehalfOf",
          "type": "address"
        }
      ],
      "name": "borrow",
      "outputs": [],
      "stateMutability": "nonpayable",
      "type": "function"
    },
    {
      "inputs": [
        {
          "internalType": "address",
          "name": "asset",
          "type": "address"
        },
        {
          "internalType": "uint256",
          "name": "amount",
          "type": "uint256"
        },
        {
          "internalType": "uint256",
          "name": "rateMode",
          "type": "uint256"
        },
        {
          "internalType": "address",
          "name": "onBehalfOf",
          "type": "address"
        }
      ],
      "name": "repay",
      "outputs": [
        {
          "internalType": "uint256",
          "name": "",
          "type": "uint256"
        }
      ],
      "stateMutability": "nonpayable",
      "type": "function"
    },
    {
      "inputs": [
        {
          "internalType": "address",
          "name": "asset",
          "type": "address"
        },
        {
          "internalType": "uint256",
          "name": "rateMode",
          "type": "uint256"
        }
      ],
      "name": "swapBorrowRateMode",
      "outputs": [],
      "stateMutability": "nonpayable",
      "type": "function"
    },
    {
      "inputs": [
        {
          "internalType": "address",
          "name": "asset",
          "type": "address"
        },
        {
          "internalType": "address",
          "name": "user",
          "type": "address"
        }
      ],
      "name": "rebalanceStableBorrowRate",
      "outputs": [],
      "stateMutability": "nonpayable",
      "type": "function"
    },
    {
      "inputs": [
        {
          "internalType": "address",
          "name": "asset",
          "type": "address"
        },
        {
          "internalType": "bool",
          "name": "useAsCollateral",
          "type": "bool"
        }
      ],
      "name": "setUserUseReserveAsCollateral",
      "outputs": [],
      "stateMutability": "nonpayable",
      "type": "function"
    },
    {
      "inputs": [
        {
          "internalType": "address",
          "name": "collateralAsset",
          "type": "address"
        },
        {
          "internalType": "address",
          "name": "debtAsset",
          "type": "address"
        },
        {
          "internalType": "address",
          "name": "user",
          "type": "address"
        },
        {
          "internalType": "uint256",
          "name": "debtToCover",
          "type": "uint256"
        },
        {
          "internalType": "bool",
          "name": "receiveAToken",
          "type": "bool"
        }
      ],
      "name": "liquidationCall",
      "outputs": [],
      "stateMutability": "nonpayable",
      "type": "function"
    },
    {
      "inputs": [
        {
          "internalType": "address",
          "name": "receiverAddress",
          "type": "address"
        },
        {
          "internalType": "address[]",
          "name": "assets",
          "type": "address[]"
        },
        {
          "internalType": "uint256[]",
          "name": "amounts",
          "type": "uint256[]"
        },
        {
          "internalType": "uint256[]",
          "name": "modes",
          "type": "uint256[]"
        },
        {
          "internalType": "address",
          "name": "onBehalfOf",
          "type": "address"
        },
        {
          "internalType": "bytes",
          "name": "params",
          "type": "bytes"
        },
        {
          "internalType": "uint16",
          "name": "referralCode",
          "type": "uint16"
        }
      ],
      "name": "flashLoan",
      "outputs": [],
      "stateMutability": "nonpayable",
      "type": "function"
    },
    {
      "inputs": [
        {
          "internalType": "address",
          "name": "asset",
          "type": "address"
        }
      ],
      "name": "getReserveData",
      "outputs": [
        {
          "components": [
            {
              "components": [
                {
                  "internalType": "uint256",
                  "name": "data",
                  "type": "uint256"
                }
              ],
              "internalType": "struct DataTypes.ReserveConfigurationMap",
              "name": "configuration",
              "type": "tuple"
            },
            {
              "internalType": "uint128",
              "name": "liquidityIndex",
              "type": "uint128"
            },
            {
              "internalType": "uint128",
              "name": "variableBorrowIndex",
              "type": "uint128"
            },
            {
              "internalType": "uint128",
              "name": "currentLiquidityRate",
              "type": "uint128"
            },
            {
              "internalType": "uint128",
              "name": "currentVariableBorrowRate",
              "type": "uint128"
            },
            {
              "internalType": "uint128",
              "name": "currentStableBorrowRate",
              "type": "uint128"
            },
            {
              "internalType": "uint40",
              "name": "lastUpdateTimestamp",
              "type": "uint40"
            },
            {
              "internalType": "address",
              "name": "aTokenAddress",
              "type": "address"
            },
            {
              "internalType": "address",
              "name": "stableDebtTokenAddress",
              "type": "address"
            },
            {
              "internalType": "address",
              "name": "variableDebtTokenAddress",
              "type": "address"
            },
            {
              "internalType": "address",
              "name": "interestRateStrategyAddress",
              "type": "address"
            },
            {
              "internalType": "uint8",
              "name": "id",
              "type": "uint8"
            }
          ],
          "internalType": "struct DataTypes.ReserveData",
          "name": "",
          "type": "tuple"
        }
      ],
      "stateMutability": "view",
      "type": "function"
    },
    {
      "inputs": [
        {
          "internalType": "address",
          "name": "user",
          "type": "address"
        }
      ],
      "name": "getUserAccountData",
      "outputs": [
        {
          "internalType": "uint256",
          "name": "totalCollateralETH",
          "type": "uint256"
        },
        {
          "internalType": "uint256",
          "name": "totalDebtETH",
          "type": "uint256"
        },
        {
          "internalType": "uint256",
          "name": "availableBorrowsETH",
          "type": "uint256"
        },
        {
          "internalType": "uint256",
          "name": "currentLiquidationThreshold",
          "type": "uint256"
        },
        {
          "internalType": "uint256",
          "name": "ltv",
          "type": "uint256"
        },
        {
          "internalType": "uint256",
          "name": "healthFactor",
          "type": "uint256"
        }
      ],
      "stateMutability": "view",
      "type": "function"
    },
    {
      "inputs": [
        {
          "internalType": "address",
          "name": "asset",
          "type": "address"
        }
      ],
      "name": "getConfiguration",
      "outputs": [
        {
          "components": [
            {
              "internalType": "uint256",
              "name": "data",
              "type": "uint256"
            }
          ],
          "internalType": "struct DataTypes.ReserveConfigurationMap",
          "name": "",
          "type": "tuple"
        }
      ],
      "stateMutability": "view",
      "type": "function"
    },
    {
      "inputs": [
        {
          "internalType": "address",
          "name": "user",
          "type": "address"
        }
      ],
      "name": "getUserConfiguration",
      "outputs": [
        {
          "components": [
            {
              "internalType": "uint256",
              "name": "data",
              "type": "uint256"
            }
          ],
          "internalType": "struct DataTypes.UserConfigurationMap",
          "name": "",
          "type": "tuple"
        }
      ],
      "stateMutability": "view",
      "type": "function"
    },
    {
      "inputs": [
        {
          "internalType": "address",
          "name": "asset",
          "type": "address"
        }
      ],
      "name": "getReserveNormalizedIncome",
      "outputs": [
        {
          "internalType": "uint256",
          "name": "",
          "type": "uint256"
        }
      ],
      "stateMutability": "view",
      "type": "function"
    },
    {
      "inputs": [
        {
          "internalType": "address",
          "name": "asset",
          "type": "address"
        }
      ],
      "name": "getReserveNormalizedVariableDebt",
      "outputs": [
        {
          "internalType": "uint256",
          "name": "",
          "type": "uint256"
        }
      ],
      "stateMutability": "view",
      "type": "function"
    },
    {
      "inputs": [],
      "name": "paused",
      "outputs": [
        {
          "internalType": "bool",
          "name": "",
          "type": "bool"
        }
      ],
      "stateMutability": "view",
      "type": "function"
    },
    {
      "inputs": [],
      "name": "getReservesList",
      "outputs": [
        {
          "internalType": "address[]",
          "name": "",
          "type": "address[]"
        }
      ],
      "stateMutability": "view",
      "type": "function"
    },
    {
      "inputs": [],
      "name": "getAddressesProvider",
      "outputs": [
        {
          "internalType": "contract ILendingPoolAddressesProvider",
          "name": "",
          "type": "address"
        }
      ],
      "stateMutability": "view",
      "type": "function"
    },
    {
      "inputs": [],
      "name": "MAX_STABLE_RATE_BORROW_SIZE_PERCENT",
      "outputs": [
        {
          "internalType": "uint256",
          "name": "",
          "type": "uint256"
        }
      ],
      "stateMutability": "view",
      "type": "function"
    },
    {
      "inputs": [],
      "name": "FLASHLOAN_PREMIUM_TOTAL",
      "outputs": [
        {
          "internalType": "uint256",
          "name": "",
          "type": "uint256"
        }
      ],
      "stateMutability": "view",
      "type": "function"
    },
    {
      "inputs": [],
      "name": "MAX_NUMBER_RESERVES",
      "outputs": [
        {
          "internalType": "uint256",
          "name": "",
          "type": "uint256"
        }
      ],
      "stateMutability": "view",
      "type": "function"
    },
    {
      "inputs": [
        {
          "internalType": "address",
          "name": "asset",
          "type": "address"
        },
        {
          "internalType": "address",
          "name": "from",
          "type": "address"
        },
        {
          "internalType": "address",
          "name": "to",
          "type": "address"
        },
        {
          "internalType": "uint256",
          "name": "amount",
          "type": "uint256"
        },
        {
          "internalType": "uint256",
          "name": "balanceFromBefore",
          "type": "uint256"
        },
        {
          "internalType": "uint256",
          "name": "balanceToBefore",
          "type": "uint256"
        }
      ],
      "name": "finalizeTransfer",
      "outputs": [],
      "stateMutability": "nonpayable",
      "type": "function"
    },
    {
      "inputs": [
        {
          "internalType": "address",
          "name": "asset",
          "type": "address"
        },
        {
          "internalType": "address",
          "name": "aTokenAddress",
          "type": "address"
        },
        {
          "internalType": "address",
          "name": "stableDebtAddress",
          "type": "address"
        },
        {
          "internalType": "address",
          "name": "variableDebtAddress",
          "type": "address"
        },
        {
          "internalType": "address",
          "name": "interestRateStrategyAddress",
          "type": "address"
        }
      ],
      "name": "initReserve",
      "outputs": [],
      "stateMutability": "nonpayable",
      "type": "function"
    },
    {
      "inputs": [
        {
          "internalType": "address",
          "name": "asset",
          "type": "address"
        },
        {
          "internalType": "address",
          "name": "rateStrategyAddress",
          "type": "address"
        }
      ],
      "name": "setReserveInterestRateStrategyAddress",
      "outputs": [],
      "stateMutability": "nonpayable",
      "type": "function"
    },
    {
      "inputs": [
        {
          "internalType": "address",
          "name": "asset",
          "type": "address"
        },
        {
          "internalType": "uint256",
          "name": "configuration",
          "type": "uint256"
        }
      ],
      "name": "setConfiguration",
      "outputs": [],
      "stateMutability": "nonpayable",
      "type": "function"
    },
    {
      "inputs": [
        {
          "internalType": "bool",
          "name": "val",
          "type": "bool"
        }
      ],
      "name": "setPause",
      "outputs": [],
      "stateMutability": "nonpayable",
      "type": "function"
    }
  ],
  "bytecode": "0x60806040526000805534801561001457600080fd5b50615aee80620000256000396000f3fe608060405234801561001057600080fd5b50600436106101c35760003560e01c8063ab9c4b5d116100f9578063d15e005311610097578063e82fec2f11610071578063e82fec2f146103c2578063e8eda9df146103ca578063f8119d51146103dd578063fe65acfe146103e5576101c3565b8063d15e005314610387578063d1946dbc1461039a578063d5ed3933146103af576101c3565b8063bf92857c116100d3578063bf92857c14610329578063c44b11f71461034e578063c4d66de814610361578063cd11238214610374576101c3565b8063ab9c4b5d146102f0578063b8d2927614610303578063bedb86fb14610316576101c3565b80635a3b74b9116101665780637a708e92116101405780637a708e92146102af5780638afaff02146102c257806394ba89a2146102ca578063a415bcad146102dd576101c3565b80635a3b74b9146102745780635c975abb1461028757806369328dec1461029c576101c3565b806335ea6a75116101a257806335ea6a751461020e578063386497fd1461022e5780634417a58314610241578063573ade8114610261576101c3565b8062a718a9146101c8578063074b2e43146101dd5780631d2118f9146101fb575b600080fd5b6101db6101d6366004614bbf565b6103fa565b005b6101e56105ce565b6040516101f29190615826565b60405180910390f35b6101db610209366004614b17565b6105d4565b61022161021c366004614adf565b61060d565b6040516101f29190615640565b6101e561023c366004614adf565b6106ef565b61025461024f366004614adf565b610716565b6040516101f29190615636565b6101e561026f366004614e5a565b610749565b6101db610282366004614d71565b610ab1565b61028f610c76565b6040516101f2919061547c565b6101e56102aa366004614dc9565b610c7f565b6101db6102bd366004614b4f565b610fa9565b6101e561108b565b6101db6102d8366004614d9e565b611090565b6101db6102eb366004614ea3565b611425565b6101db6102fe366004614c7c565b6114a5565b6101db610311366004614d9e565b611cbf565b6101db610324366004614ee1565b611ce3565b61033c610337366004614adf565b611d5e565b6040516101f296959493929190615878565b61025461035c366004614adf565b611e5a565b6101db61036f366004614adf565b611e8d565b6101db610382366004614b17565b611f35565b6101e5610395366004614adf565b6121ab565b6103a26121d6565b6040516101f2919061542f565b6101db6103bd366004614c18565b6122a9565b6101e56124f2565b6101db6103d8366004614e0a565b6124f8565b6101e5612725565b6103ed61272b565b6040516101f29190615175565b61040261273a565b6034546040805163712d917160e01b815290516000926001600160a01b03169163712d9171916004808301926020929190829003018186803b15801561044757600080fd5b505afa15801561045b573d6000803e3d6000fd5b505050506040513d601f19601f8201168201806040525081019061047f9190614afb565b9050600080826001600160a01b031688888888886040516024016104a7959493929190615189565b60408051601f198184030181529181526020820180516001600160e01b031662a718a960e01b179052516104db9190615159565b600060405180830381855af49150503d8060008114610516576040519150601f19603f3d011682016040523d82523d6000602084013e61051b565b606091505b50915091508160405180604001604052806002815260200161323360f01b815250906105635760405162461bcd60e51b815260040161055a9190615487565b60405180910390fd5b506000808280602001905181019061057b9190614f31565b9150915081600014816040516020016105949190615159565b604051602081830303815290604052906105c15760405162461bcd60e51b815260040161055a9190615487565b5050505050505050505050565b603b5490565b6105dc612778565b6001600160a01b03918216600090815260356020526040902060070180546001600160a01b03191691909216179055565b61061561482d565b506001600160a01b0381811660009081526035602090815260409182902082516101a08101845281546101808201908152815260018201546001600160801b0380821694830194909452600160801b908190048416948201949094526002820154808416606083015284900483166080820152600382015492831660a08201529290910464ffffffffff1660c08301526004810154831660e0830152600581015483166101008301526006810154831661012083015260070154918216610140820152600160a01b90910460ff166101608201525b919050565b6001600160a01b038116600090815260356020526040812061071090612837565b92915050565b61071e614898565b506001600160a01b031660009081526036602090815260409182902082519182019092529054815290565b600061075361273a565b6001600160a01b0385166000908152603560205260408120908061077785846128b4565b91509150600086600281111561079d57634e487b7160e01b600052602160045260246000fd5b60405163fa0c214960e01b815290915073__ValidationLogic_______________________9063fa0c2149906107e19087908c9086908c908a908a906004016157e5565b60006040518083038186803b1580156107f957600080fd5b505af415801561080d573d6000803e3d6000fd5b50600092506001915061081d9050565b82600281111561083d57634e487b7160e01b600052602160045260246000fd5b14610848578261084a565b835b9050808910156108575750875b610860856129c9565b600182600281111561088257634e487b7160e01b600052602160045260246000fd5b14156108f3576005850154604051632770a7eb60e21b81526001600160a01b0390911690639dc29fac906108bc908a9085906004016152e3565b600060405180830381600087803b1580156108d657600080fd5b505af11580156108ea573d6000803e3d6000fd5b50505050610971565b60068501546001860154604051637a94c56560e11b81526001600160a01b039092169163f5298aca9161093e918b918691600160801b9091046001600160801b0316906004016152fc565b600060405180830381600087803b15801561095857600080fd5b505af115801561096c573d6000803e3d6000fd5b505050505b60048501546001600160a01b031661098d868c83856000612a96565b6109a18261099b8787612dfe565b90612e2d565b6109d95760078601546001600160a01b03891660009081526036602052604081206109d9929091600160a01b90910460ff1690612e6f565b6109ee6001600160a01b038c16338385612ee5565b6040516388dd91a160e01b81526001600160a01b038216906388dd91a190610a1c90339086906004016152e3565b600060405180830381600087803b158015610a3657600080fd5b505af1158015610a4a573d6000803e3d6000fd5b50505050336001600160a01b0316886001600160a01b03168c6001600160a01b03167f4cdde6e09bb755c9a5589ebaec640bbfedff1362d4b255ebf8339782b9942faa85604051610a9b9190615826565b60405180910390a4509998505050505050505050565b610ab961273a565b6001600160a01b03808316600090815260356020818152604080842033855260368352938190206038546034548351631f94a27560e31b81529351969773__ValidationLogic_______________________97635fa297e5978a978d978d9792969295603795939493169263fca513a892600480840193919291829003018186803b158015610b4757600080fd5b505afa158015610b5b573d6000803e3d6000fd5b505050506040513d601f19601f82011682018060405250810190610b7f9190614afb565b6040518963ffffffff1660e01b8152600401610ba2989796959493929190615761565b60006040518083038186803b158015610bba57600080fd5b505af4158015610bce573d6000803e3d6000fd5b505050506007810154336000908152603660205260409020610bfa91600160a01b900460ff1684612f43565b8115610c3a5760405133906001600160a01b038516907e058a56ea94653cdf4f152d227ace22d4c00ad99e2a43f58cb7d9e3feb295f290600090a3610c71565b60405133906001600160a01b038516907f44c58d81365b66dd4b1a7f36c25aa97b8c71c361ee4937adc1a00000227db5dd90600090a35b505050565b60395460ff1690565b6000610c8961273a565b6001600160a01b0380851660009081526035602052604080822060048082015492516370a0823160e01b8152919492909216929183916370a0823191610cd191339101615175565b60206040518083038186803b158015610ce957600080fd5b505afa158015610cfd573d6000803e3d6000fd5b505050506040513d601f19601f82011682018060405250810190610d219190614f19565b905085600019811415610d315750805b73__ValidationLogic_______________________63d09db04a898385603560366000336001600160a01b03166001600160a01b031681526020019081526020016000206037603854603460009054906101000a90046001600160a01b03166001600160a01b031663fca513a86040518163ffffffff1660e01b815260040160206040518083038186803b158015610dc857600080fd5b505afa158015610ddc573d6000803e3d6000fd5b505050506040513d601f19601f82011682018060405250810190610e009190614afb565b6040518963ffffffff1660e01b8152600401610e23989796959493929190615326565b60006040518083038186803b158015610e3b57600080fd5b505af4158015610e4f573d6000803e3d6000fd5b50505050610e5c846129c9565b610e6a848985600085612a96565b81811415610ed4576007840154336000908152603660205260408120610e9d929091600160a01b90910460ff1690612f43565b60405133906001600160a01b038a16907f44c58d81365b66dd4b1a7f36c25aa97b8c71c361ee4937adc1a00000227db5dd90600090a35b6001840154604051636b81068560e11b81526001600160a01b0385169163d7020d0a91610f159133918b9187916001600160801b03909116906004016151e1565b600060405180830381600087803b158015610f2f57600080fd5b505af1158015610f43573d6000803e3d6000fd5b50505050856001600160a01b0316336001600160a01b0316896001600160a01b03167f3115d1449a7b732c986cba18244e897a450f61e1bb8d589cd2e69e6c8924f9f784604051610f949190615826565b60405180910390a493505050505b9392505050565b610fb1612778565b610fba85612fbe565b6040518060400160405280600281526020016106e760f31b81525090610ff35760405162461bcd60e51b815260040161055a9190615487565b506001600160a01b038516600090815260356020526040908190209051630acce25f60e21b815273__ReserveLogic__________________________91632b33897c9161104b91908890889088908890600401615733565b60006040518083038186803b15801561106357600080fd5b505af4158015611077573d6000803e3d6000fd5b5050505061108485612ff7565b5050505050565b600281565b61109861273a565b6001600160a01b038216600090815260356020526040812090806110bc33846128b4565b9150915060008460028111156110e257634e487b7160e01b600052602160045260246000fd5b3360009081526036602052604090819020905163a8695b1d60e01b815291925073__ValidationLogic_______________________9163a8695b1d91611133918891908890889088906004016157a3565b60006040518083038186803b15801561114b57600080fd5b505af415801561115f573d6000803e3d6000fd5b5050505061116c846129c9565b600181600281111561118e57634e487b7160e01b600052602160045260246000fd5b141561129e576005840154604051632770a7eb60e21b81526001600160a01b0390911690639dc29fac906111c890339087906004016152e3565b600060405180830381600087803b1580156111e257600080fd5b505af11580156111f6573d6000803e3d6000fd5b505050506006840154600185015460405163b3f1c93d60e01b81526001600160a01b039092169163b3f1c93d9161124691339182918991600160801b90046001600160801b0316906004016151e1565b602060405180830381600087803b15801561126057600080fd5b505af1158015611274573d6000803e3d6000fd5b505050506040513d601f19601f820116820180604052508101906112989190614efd565b506113b4565b60068401546001850154604051637a94c56560e11b81526001600160a01b039092169163f5298aca916112e99133918791600160801b9091046001600160801b0316906004016152fc565b600060405180830381600087803b15801561130357600080fd5b505af1158015611317573d6000803e3d6000fd5b505050506005840154600385015460405163b3f1c93d60e01b81526001600160a01b039092169163b3f1c93d91611360913391829188916001600160801b0316906004016151e1565b602060405180830381600087803b15801561137a57600080fd5b505af115801561138e573d6000803e3d6000fd5b505050506040513d601f19601f820116820180604052508101906113b29190614efd565b505b60048401546113d290859088906001600160a01b0316600080612a96565b336001600160a01b0316866001600160a01b03167fea368a40e9570069bb8e6511d668293ad2e1f03b0d982431fd223de9f3b70ca6876040516114159190615826565b60405180910390a3505050505050565b61142d61273a565b6001600160a01b038086166000818152603560209081526040918290208251610100810184529384523391840191909152848416918301919091526060820187905260808201869052600481015490921660a082015261ffff841660c0820152600160e082015261149d90613108565b505050505050565b6114ad61273a565b6114b56148ab565b6115228b8b8080602002602001604051908101604052809392919081815260200183836020028082843760009201919091525050604080516020808f0282810182019093528e82529093508e92508d91829185019084908082843760009201919091525061366b92505050565b60008a67ffffffffffffffff81111561154b57634e487b7160e01b600052604160045260246000fd5b604051908082528060200260200182016040528015611574578160200160208202803683370190505b50905060008b67ffffffffffffffff8111156115a057634e487b7160e01b600052604160045260246000fd5b6040519080825280602002602001820160405280156115c9578160200160208202803683370190505b506001600160a01b038f1684526000604085015290505b60408301518c111561180d57603560008e8e866040015181811061161457634e487b7160e01b600052603260045260246000fd5b90506020020160208101906116299190614adf565b6001600160a01b03166001600160a01b0316815260200190815260200160002060040160009054906101000a90046001600160a01b03168284604001518151811061168457634e487b7160e01b600052603260045260246000fd5b60200260200101906001600160a01b031690816001600160a01b0316815250506116ef6127106116e9603b548e8e88604001518181106116d457634e487b7160e01b600052603260045260246000fd5b905060200201356136a990919063ffffffff16565b906136ee565b8184604001518151811061171357634e487b7160e01b600052603260045260246000fd5b6020026020010181815250508183604001518151811061174357634e487b7160e01b600052603260045260246000fd5b60200260200101516001600160a01b0316634efecaa58f8d8d876040015181811061177e57634e487b7160e01b600052603260045260246000fd5b905060200201356040518363ffffffff1660e01b81526004016117a29291906152e3565b602060405180830381600087803b1580156117bc57600080fd5b505af11580156117d0573d6000803e3d6000fd5b505050506040513d601f19601f820116820180604052508101906117f49190614f19565b506040830180519061180582615a4e565b9052506115e0565b82600001516001600160a01b031663920f5c848e8e8e8e86338d8d6040518963ffffffff1660e01b815260040161184b989796959493929190615392565b602060405180830381600087803b15801561186557600080fd5b505af1158015611879573d6000803e3d6000fd5b505050506040513d601f19601f8201168201806040525081019061189d9190614efd565b604051806040016040528060028152602001611b1b60f11b815250906118d65760405162461bcd60e51b815260040161055a9190615487565b50600060408401525b60408301518c1115611caf578c8c846040015181811061190f57634e487b7160e01b600052603260045260246000fd5b90506020020160208101906119249190614adf565b6001600160a01b0316606084015260408301518b908b9081811061195857634e487b7160e01b600052603260045260246000fd5b905060200201358360a00181815250508083604001518151811061198c57634e487b7160e01b600052603260045260246000fd5b60200260200101518360c0018181525050818360400151815181106119c157634e487b7160e01b600052603260045260246000fd5b60209081029190910101516001600160a01b0316608084015260c083015160a08401516119ed91612dfe565b60e0840152600089898560400151818110611a1857634e487b7160e01b600052603260045260246000fd5b905060200201356002811115611a3e57634e487b7160e01b600052602160045260246000fd5b6002811115611a5d57634e487b7160e01b600052602160045260246000fd5b1415611b8f5760608301516001600160a01b03166000908152603560205260409020611a88906129c9565b611b2883608001516001600160a01b03166318160ddd6040518163ffffffff1660e01b815260040160206040518083038186803b158015611ac857600080fd5b505afa158015611adc573d6000803e3d6000fd5b505050506040513d601f19601f82011682018060405250810190611b009190614f19565b60c085015160608601516001600160a01b031660009081526035602052604090209190613730565b6060830151608084015160e08501516001600160a01b0383166000908152603560205260408120611b5e94909390929091612a96565b611b8a8e84608001518560e0015186606001516001600160a01b0316612ee5909392919063ffffffff16565b611c32565b611c3260405180610100016040528085606001516001600160a01b03168152602001336001600160a01b03168152602001896001600160a01b031681526020018560a0015181526020018b8b8760400151818110611bfd57634e487b7160e01b600052603260045260246000fd5b90506020020135815260200185608001516001600160a01b031681526020018661ffff16815260200160001515815250613108565b82606001516001600160a01b0316336001600160a01b03168f6001600160a01b03167f631042c832b07452973831137f2d73e395028b44b250dedc5abb0ee766e168ac8660a001518760c0015189604051611c8f9392919061582f565b60405180910390a460408301805190611ca782615a4e565b9052506118df565b5050505050505050505050505050565b611cc7612778565b6001600160a01b03909116600090815260356020526040902055565b611ceb612778565b6039805460ff1916821515179081905560ff1615611d31576040517f9e87fac88ff661f02d44f95383c817fece4bce600a3dab7a54406878b965e75290600090a1611d5b565b6040517fa45f47fdea8a1efdd9029a5691c7f759c32b7c698632b563573e155625d1693390600090a15b50565b600080600080600080611e37876035603660008b6001600160a01b03166001600160a01b031681526020019081526020016000206040518060200160405290816000820154815250506037603854603460009054906101000a90046001600160a01b03166001600160a01b031663fca513a86040518163ffffffff1660e01b815260040160206040518083038186803b158015611dfa57600080fd5b505afa158015611e0e573d6000803e3d6000fd5b505050506040513d601f19601f82011682018060405250810190611e329190614afb565b6137ed565b93995091975090945092509050611e4f868684613cbe565b935091939550919395565b611e62614898565b506001600160a01b031660009081526035602090815260409182902082519182019092529054815290565b6000611e97613cf2565b60015490915060ff1680611eae5750611eae613cf7565b80611eba575060005481115b611ed65760405162461bcd60e51b815260040161055a90615567565b60015460ff16158015611ef5576001805460ff19168117905560008290555b603480546001600160a01b0319166001600160a01b0385161790556109c4603a556009603b556080603c558015610c71576001805460ff19169055505050565b611f3d61273a565b6001600160a01b038083166000908152603560205260408082206005810154600682015460048084015494516370a0823160e01b81529396928316959183169490921692909185916370a0823191611f97918a9101615175565b60206040518083038186803b158015611faf57600080fd5b505afa158015611fc3573d6000803e3d6000fd5b505050506040513d601f19601f82011682018060405250810190611fe79190614f19565b60405163548cad0960e01b815290915073__ValidationLogic_______________________9063548cad09906120299088908b90899089908990600401615733565b60006040518083038186803b15801561204157600080fd5b505af4158015612055573d6000803e3d6000fd5b50505050612062856129c9565b604051632770a7eb60e21b81526001600160a01b03851690639dc29fac9061209090899085906004016152e3565b600060405180830381600087803b1580156120aa57600080fd5b505af11580156120be573d6000803e3d6000fd5b505050600386015460405163b3f1c93d60e01b81526001600160a01b038716925063b3f1c93d91612101918a91829187916001600160801b0316906004016151e1565b602060405180830381600087803b15801561211b57600080fd5b505af115801561212f573d6000803e3d6000fd5b505050506040513d601f19601f820116820180604052508101906121539190614efd565b50612162858884600080612a96565b856001600160a01b0316876001600160a01b03167f9f439ae0c81e41a04d3fdfe07aed54e6a179fb0db15be7702eb66fa8ef6f530060405160405180910390a350505050505050565b6001600160a01b03811660009081526035602052604081206121cc90613cfd565b5060001992915050565b6060600060385467ffffffffffffffff81111561220357634e487b7160e01b600052604160045260246000fd5b60405190808252806020026020018201604052801561222c578160200160208202803683370190505b50905060005b6038548110156122a35760008181526037602052604090205482516001600160a01b039091169083908390811061227957634e487b7160e01b600052603260045260246000fd5b6001600160a01b03909216602092830291909101909101528061229b81615a4e565b915050612232565b50905090565b6122b161273a565b6001600160a01b038681166000908152603560209081526040918290206004015482518084019093526002835261363360f01b91830191909152909116331461230d5760405162461bcd60e51b815260040161055a9190615487565b506123c985603560366000896001600160a01b03166001600160a01b031681526020019081526020016000206037603854603460009054906101000a90046001600160a01b03166001600160a01b031663fca513a86040518163ffffffff1660e01b815260040160206040518083038186803b15801561238c57600080fd5b505afa1580156123a0573d6000803e3d6000fd5b505050506040513d601f19601f820116820180604052508101906123c49190614afb565b613d5c565b6001600160a01b03868116600090815260356020526040902060070154600160a01b900460ff1690858116908716146124e9576124068385612e2d565b612472576001600160a01b0386166000908152603660205260408120906124309082908490612f43565b866001600160a01b0316886001600160a01b03167f44c58d81365b66dd4b1a7f36c25aa97b8c71c361ee4937adc1a00000227db5dd60405160405180910390a3505b8115801561247f57508315155b156124e9576001600160a01b03851660009081526036602052604090206124a881836001612f43565b856001600160a01b0316886001600160a01b03167e058a56ea94653cdf4f152d227ace22d4c00ad99e2a43f58cb7d9e3feb295f260405160405180910390a3505b50505050505050565b603a5490565b61250061273a565b6001600160a01b038416600090815260356020526040908190209051630eca322b60e01b815273__ValidationLogic_______________________90630eca322b9061255290849088906004016157d7565b60006040518083038186803b15801561256a57600080fd5b505af415801561257e573d6000803e3d6000fd5b5050505060048101546001600160a01b0316612599826129c9565b6125a7828783886000612a96565b6125bc6001600160a01b038716338388612ee5565b6001820154604051630ab714fb60e11b81526000916001600160a01b0384169163156e29f6916125fe9189918b916001600160801b03909116906004016152fc565b602060405180830381600087803b15801561261857600080fd5b505af115801561262c573d6000803e3d6000fd5b505050506040513d601f19601f820116820180604052508101906126509190614efd565b905080156126ca5760078301546001600160a01b038616600090815260366020526040902061268a91600160a01b900460ff166001612f43565b846001600160a01b0316876001600160a01b03167e058a56ea94653cdf4f152d227ace22d4c00ad99e2a43f58cb7d9e3feb295f260405160405180910390a35b8361ffff16856001600160a01b0316886001600160a01b03167fde6857219544bb5b7746f48ed30be6386fefc61b2f864cacf559893bf50fd951338a6040516127149291906152e3565b60405180910390a450505050505050565b603c5490565b6034546001600160a01b031690565b6039546040805180820190915260028152610d8d60f21b60208201529060ff1615611d5b5760405162461bcd60e51b815260040161055a9190615487565b603454604080516385c858b160e01b8152905133926001600160a01b0316916385c858b1916004808301926020929190829003018186803b1580156127bc57600080fd5b505afa1580156127d0573d6000803e3d6000fd5b505050506040513d601f19601f820116820180604052508101906127f49190614afb565b6001600160a01b03161460405180604001604052806002815260200161323760f01b81525090611d5b5760405162461bcd60e51b815260040161055a9190615487565b600381015460009064ffffffffff600160801b90910481169042168114156128755750506001810154600160801b90046001600160801b03166106ea565b600183015460028401546000916128ac916001600160801b03600160801b928390048116926128a692041685613dd2565b90613ddf565b949350505050565b60058101546040516370a0823160e01b815260009182916001600160a01b03909116906370a08231906128eb908790600401615175565b60206040518083038186803b15801561290357600080fd5b505afa158015612917573d6000803e3d6000fd5b505050506040513d601f19601f8201168201806040525081019061293b9190614f19565b60068401546040516370a0823160e01b81526001600160a01b03909116906370a082319061296d908890600401615175565b60206040518083038186803b15801561298557600080fd5b505afa158015612999573d6000803e3d6000fd5b505050506040513d601f19601f820116820180604052508101906129bd9190614f19565b915091505b9250929050565b60068101546040805163b1bf962d60e01b815290516000926001600160a01b03169163b1bf962d916004808301926020929190829003018186803b158015612a1057600080fd5b505afa158015612a24573d6000803e3d6000fd5b505050506040513d601f19601f82011682018060405250810190612a489190614f19565b60018301546003840154919250600160801b8082046001600160801b03908116939216910464ffffffffff16600080612a848787868887613e9a565b915091506124e9878787858588613ff7565b612a9e6148f7565b60058601546001600160a01b031680825260408051637b98f4df60e11b8152815163f731e9be92600480840193919291829003018186803b158015612ae257600080fd5b505afa158015612af6573d6000803e3d6000fd5b505050506040513d601f19601f82011682018060405250810190612b1a9190614fe0565b60c083015260408083019190915260018701546006880154825163b1bf962d60e01b81529251612bbf93600160801b9093046001600160801b0316926001600160a01b039092169163b1bf962d916004808301926020929190829003018186803b158015612b8757600080fd5b505afa158015612b9b573d6000803e3d6000fd5b505050506040513d601f19601f820116820180604052508101906128a69190614f19565b60e082018190526007870154604083015160c08401516001600160a01b03909216926329db497d9289928992899289929190612bfa8f6141ba565b6040518963ffffffff1660e01b8152600401612c1d98979695949392919061523b565b60606040518083038186803b158015612c3557600080fd5b505afa158015612c49573d6000803e3d6000fd5b505050506040513d601f19601f82011682018060405250810190612c6d9190615003565b60a0840152608083015260608201819052604080518082019091526002815261353360f01b6020820152906001600160801b031015612cbf5760405162461bcd60e51b815260040161055a9190615487565b506080810151604080518082019091526002815261353560f01b6020820152906001600160801b031015612d065760405162461bcd60e51b815260040161055a9190615487565b5060a08101516040805180820190915260028152610d4d60f21b6020820152906001600160801b031015612d4d5760405162461bcd60e51b815260040161055a9190615487565b506060810151600287018054608084015160038a0180546001600160801b03199081166001600160801b038085169190911790925560a08701519316818616178116600160801b84831681029190911790945560018b01546040516001600160a01b038c16967f804c9b842b2748a22bb64b345453a3de7ca54a6ca45ce00d415894979e22897a96612dee9691959491938083169391900490911690615849565b60405180910390a2505050505050565b600080612e0b83856158a0565b905083811015610fa25760405162461bcd60e51b815260040161055a906154ba565b6000610fa283836040518060400160405280601e81526020017f536166654d6174683a207375627472616374696f6e206f766572666c6f7700008152506141c5565b604080518082019091526002815261373760f01b602082015260808310612ea95760405162461bcd60e51b815260040161055a9190615487565b50612eb58260026159ec565b81612ec1576000612ec4565b60015b60ff16901b612ed48360026159ec565b8454600190911b1916179092555050565b612f3d846323b872dd60e01b858585604051602401612f06939291906151bd565b60408051601f198184030181529190526020810180516001600160e01b03166001600160e01b0319909316929092179091526141f6565b50505050565b604080518082019091526002815261373760f01b602082015260808310612f7d5760405162461bcd60e51b815260040161055a9190615487565b50612f898260026159ec565b612f949060016158a0565b81612fa0576000612fa3565b60015b60ff16901b612fb38360026159ec565b612ed49060016158a0565b6000813f7fc5d2460186f7233c927e7db2dcc703c0e500b653ca82273b7bfad8045d85a4708181148015906128ac575050151592915050565b603854603c54604080518082019091526002815261363560f01b60208201529082106130365760405162461bcd60e51b815260040161055a9190615487565b506001600160a01b038216600090815260356020526040812060070154600160a01b900460ff1615158061309f57506000805260376020527fa0a618d80eda9243166be83cb7421d97e9dab6ddddd3c70ac7a6b4440256e8e7546001600160a01b038481169116145b905080610c71576001600160a01b0383166000818152603560209081526040808320600701805460ff60a01b1916600160a01b60ff8916021790558583526037909152902080546001600160a01b03191690911790556131008260016158a0565b603855505050565b80516001600160a01b0390811660009081526035602090815260408083208186015185168452603683528184206034548351631f94a27560e31b81529351929691959491169263fca513a89260048083019392829003018186803b15801561316f57600080fd5b505afa158015613183573d6000803e3d6000fd5b505050506040513d601f19601f820116820180604052508101906131a79190614afb565b9050600061324e6131b7856142da565b6131c290600a61591e565b6060870151875160405163b3596f0760e01b81526116e992916001600160a01b0388169163b3596f07916131f891600401615175565b60206040518083038186803b15801561321057600080fd5b505afa158015613224573d6000803e3d6000fd5b505050506040513d601f19601f820116820180604052508101906132489190614f19565b906136a9565b905073__ValidationLogic_______________________63721a92f986600001518688604001518960600151868b60800151603a5460358c60376038548e6040518d63ffffffff1660e01b81526004016132b39c9b9a9998979695949392919061527f565b60006040518083038186803b1580156132cb57600080fd5b505af41580156132df573d6000803e3d6000fd5b505050506132ec846129c9565b60008060018760800151600281111561331557634e487b7160e01b600052602160045260246000fd5b600281111561333457634e487b7160e01b600052602160045260246000fd5b14156133e9576003860154600587015460208901516040808b015160608c0151915163b3f1c93d60e01b81526001600160801b0390951696506001600160a01b039093169363b3f1c93d93613390939290918890600401615212565b602060405180830381600087803b1580156133aa57600080fd5b505af11580156133be573d6000803e3d6000fd5b505050506040513d601f19601f820116820180604052508101906133e29190614efd565b9050613498565b600686015460208801516040808a015160608b015160018b0154925163b3f1c93d60e01b81526001600160a01b039095169463b3f1c93d946134439490939291600160801b9091046001600160801b0316906004016151e1565b602060405180830381600087803b15801561345d57600080fd5b505af1158015613471573d6000803e3d6000fd5b505050506040513d601f19601f820116820180604052508101906134959190614efd565b90505b80156134ba5760078601546134ba908690600160a01b900460ff166001612e6f565b6134e987600001518860a0015160008a60e001516134d95760006134df565b8a606001515b8a93929190612a96565b8660e0015115613581578660a001516001600160a01b0316634efecaa5886020015189606001516040518363ffffffff1660e01b815260040161352d9291906152e3565b602060405180830381600087803b15801561354757600080fd5b505af115801561355b573d6000803e3d6000fd5b505050506040513d601f19601f8201168201806040525081019061357f9190614f19565b505b8660c0015161ffff1687604001516001600160a01b031688600001516001600160a01b03167fc6a898309e823ee50bac64e45ca8adba6690e99e7841c45d754e2a38e9019d9b8a602001518b606001518c60800151600160028111156135f757634e487b7160e01b600052602160045260246000fd5b8e60800151600281111561361b57634e487b7160e01b600052602160045260246000fd5b600281111561363a57634e487b7160e01b600052602160045260246000fd5b146136595760028d0154600160801b90046001600160801b031661365b565b885b604051612714949392919061536c565b805182511460405180604001604052806002815260200161373360f01b81525090610c715760405162461bcd60e51b815260040161055a9190615487565b6000826136b857506000610710565b60006136c483856159ec565b9050826136d185836158b8565b14610fa25760405162461bcd60e51b815260040161055a90615526565b6000610fa283836040518060400160405280601a81526020017f536166654d6174683a206469766973696f6e206279207a65726f0000000000008152506142e4565b600061374d61373e84614312565b61374784614312565b90614375565b9050600061376361375c61444b565b8390612dfe565b600186015490915061377f9082906001600160801b0316613ddf565b604080518082019091526002815261353160f01b60208201529091506001600160801b038211156137c35760405162461bcd60e51b815260040161055a9190615487565b5060019490940180546001600160801b0319166001600160801b0390951694909417909355505050565b60008060008060006137fd614945565b6138068a61445b565b15613824576000806000806000199550955095509550955050613cb0565b600060e08201525b878160e001511015613c0f5760e0810151613848908b90614460565b61385157613bf7565b60e0810151600090815260208a81526040808320546001600160a01b03166101e085018190528352908d90529020613888816144bb565b506080860181905260c08601929092525060a08401919091526138ac90600a61591e565b60208301526101e082015160405163b3596f0760e01b81526001600160a01b038a169163b3596f07916138e29190600401615175565b60206040518083038186803b1580156138fa57600080fd5b505afa15801561390e573d6000803e3d6000fd5b505050506040513d601f19601f820116820180604052508101906139329190614f19565b825260c082015115801590613952575060e0820151613952908c906144e6565b15613a70578060040160009054906101000a90046001600160a01b03166001600160a01b03166370a082318e6040518263ffffffff1660e01b815260040161399a9190615175565b60206040518083038186803b1580156139b257600080fd5b505afa1580156139c6573d6000803e3d6000fd5b505050506040513d601f19601f820116820180604052508101906139ea9190614f19565b6040830181905260208301518351600092613a0992916116e9916136a9565b610120840151909150613a1c9082612dfe565b61012084015260a0830151613a4290613a369083906136a9565b61016085015190612dfe565b61016084015260c0830151613a6890613a5c9083906136a9565b61018085015190612dfe565b610180840152505b60e0820151613a80908c9061454c565b15613bf5578060050160009054906101000a90046001600160a01b03166001600160a01b03166370a082318e6040518263ffffffff1660e01b8152600401613ac89190615175565b60206040518083038186803b158015613ae057600080fd5b505afa158015613af4573d6000803e3d6000fd5b505050506040513d601f19601f82011682018060405250810190613b189190614f19565b826060018181525050613bc28160060160009054906101000a90046001600160a01b03166001600160a01b03166370a082318f6040518263ffffffff1660e01b8152600401613b679190615175565b60206040518083038186803b158015613b7f57600080fd5b505afa158015613b93573d6000803e3d6000fd5b505050506040513d601f19601f82011682018060405250810190613bb79190614f19565b606084015190612dfe565b6060830181905260208301518351613bee92613be292916116e9916136a9565b61014084015190612dfe565b6101408301525b505b60e08101805190613c0782615a4e565b90525061382c565b600081610120015111613c23576000613c38565b610120810151610160820151613c38916136ee565b610160820152610120810151613c4f576000613c64565b610120810151610180820151613c64916136ee565b6101808201819052610120820151610140830151613c8192614597565b610100820181905261012082015161014083015161016084015161018090940151919850965091945090925090505b965096509650965096915050565b600080613ccb85846145bb565b905083811015613cdf576000915050610fa2565b613ce98185612e2d565b95945050505050565b600290565b303b1590565b600381015460009064ffffffffff600160801b9091048116904216811415613d3457505060018101546001600160801b03166106ea565b600183015460028401546000916128ac916001600160801b03918216916128a6911685614644565b604080516020810190915284548152600090613d7e90889088908787876137ed565b945050505050670de0b6b3a7640000811015604051806040016040528060018152602001601b60f91b81525090613dc85760405162461bcd60e51b815260040161055a9190615487565b5050505050505050565b6000610fa2838342614684565b6000821580613dec575081155b15613df957506000610710565b81613e1160026b033b2e3c9fd0803ce80000006158b8565b613e1d90600019615a0b565b613e2791906158b8565b83111560405180604001604052806002815260200161068760f31b81525090613e635760405162461bcd60e51b815260040161055a9190615487565b506b033b2e3c9fd0803ce8000000613e7c6002826158b8565b613e8684866159ec565b613e9091906158a0565b610fa291906158b8565b600285015460009081906001600160801b031685858215613fc8576000613ec18488614644565b9050613ecd818a613ddf565b604080518082019091526002815261353160f01b60208201529093506001600160801b03841115613f115760405162461bcd60e51b815260040161055a9190615487565b5060018b0180546001600160801b0319166001600160801b0385161790558915613fc65760028b0154600090613f5790600160801b90046001600160801b031689613dd2565b9050613f63818a613ddf565b6040805180820190915260028152611a9960f11b60208201529093506001600160801b03841115613fa75760405162461bcd60e51b815260040161055a9190615487565b505060018b0180546001600160801b03808516600160801b0291161790555b505b600399909901805464ffffffffff60801b1916600160801b4264ffffffffff1602179055989650505050505050565b613fff6149df565b614008876141ba565b610120820181905261401a575061149d565b8660050160009054906101000a90046001600160a01b03166001600160a01b031663797743386040518163ffffffff1660e01b815260040160806040518083038186803b15801561406a57600080fd5b505afa15801561407e573d6000803e3d6000fd5b505050506040513d601f19601f820116820180604052508101906140a29190615030565b64ffffffffff1661014085015260a0840152825260208201526140c58686613ddf565b60808201526140d48684613ddf565b606082015260a08101516101408201516140f6919064ffffffffff8516614684565b60c08201819052602082015161410b91613ddf565b60408201819052608082015182516060840151614130939261099b9290918391612dfe565b60e0820181905261012082015161414791906145bb565b6101008201819052156124e957600480880154610100830151604051637df5bd3b60e01b81526001600160a01b0390921692637df5bd3b9261418c92918991016157d7565b600060405180830381600087803b1580156141a657600080fd5b505af11580156105c1573d6000803e3d6000fd5b5460401c61ffff1690565b600081848411156141e95760405162461bcd60e51b815260040161055a9190615487565b506000613ce98486615a0b565b614208826001600160a01b0316612fbe565b6142245760405162461bcd60e51b815260040161055a906155ff565b600080836001600160a01b03168360405161423f9190615159565b6000604051808303816000865af19150503d806000811461427c576040519150601f19603f3d011682016040523d82523d6000602084013e614281565b606091505b5091509150816142a35760405162461bcd60e51b815260040161055a906154f1565b805115612f3d57808060200190518101906142be9190614efd565b612f3d5760405162461bcd60e51b815260040161055a906155b5565b5460301c60ff1690565b600081836143055760405162461bcd60e51b815260040161055a9190615487565b506000613ce984866158b8565b600080614323633b9aca00846159ec565b905082614334633b9aca00836158b8565b1460405180604001604052806002815260200161068760f31b8152509061436e5760405162461bcd60e51b815260040161055a9190615487565b5092915050565b604080518082019091526002815261035360f41b6020820152600090826143af5760405162461bcd60e51b815260040161055a9190615487565b5060006143bd6002846158b8565b90506b033b2e3c9fd0803ce80000006143d882600019615a0b565b6143e291906158b8565b84111560405180604001604052806002815260200161068760f31b8152509061441e5760405162461bcd60e51b815260040161055a9190615487565b5082816144376b033b2e3c9fd0803ce8000000876159ec565b61444191906158a0565b6128ac91906158b8565b6b033b2e3c9fd0803ce800000090565b511590565b60006080821060405180604001604052806002815260200161373760f01b8152509061449f5760405162461bcd60e51b815260040161055a9190615487565b506144ab8260026159ec565b925190921c600316151592915050565b5461ffff80821692601083901c821692602081901c831692603082901c60ff169260409290921c1690565b60006080821060405180604001604052806002815260200161373760f01b815250906145255760405162461bcd60e51b815260040161055a9190615487565b506145318260026159ec565b61453c9060016158a0565b925190921c600116151592915050565b60006080821060405180604001604052806002815260200161373760f01b8152509061458b5760405162461bcd60e51b815260040161055a9190615487565b5061453c8260026159ec565b6000826145a75750600019610fa2565b6128ac836145b586856145bb565b90614773565b60008215806145c8575081155b156145d557506000610710565b816145e360026127106158b8565b6145ef90600019615a0b565b6145f991906158b8565b83111560405180604001604052806002815260200161068760f31b815250906146355760405162461bcd60e51b815260040161055a9190615487565b50612710613e7c6002826158b8565b6000806146584264ffffffffff8516612e2d565b90506128ac61466561444b565b6301e1338061467487856136a9565b61467e91906158b8565b90612dfe565b6000806146988364ffffffffff8616612e2d565b9050806146af576146a761444b565b915050610fa2565b60006146bc600183615a0b565b90506000600283116146cf5760006146da565b6146da600284615a0b565b905060006146ec6301e13380896158b8565b905060006146fa8280613ddf565b905060006147088284613ddf565b90506000600261471c846132488a8a6136a9565b61472691906158b8565b90506000600661473c8461324889818d8d6136a9565b61474691906158b8565b90506147638161467e848161475b8a8e6136a9565b61467e61444b565b9c9b505050505050505050505050565b604080518082019091526002815261035360f41b6020820152600090826147ad5760405162461bcd60e51b815260040161055a9190615487565b5060006147bb6002846158b8565b9050670de0b6b3a76400006147d282600019615a0b565b6147dc91906158b8565b84111560405180604001604052806002815260200161068760f31b815250906148185760405162461bcd60e51b815260040161055a9190615487565b508281614437670de0b6b3a7640000876159ec565b604051806101800160405280614841614898565b815260006020820181905260408201819052606082018190526080820181905260a0820181905260c0820181905260e082018190526101008201819052610120820181905261014082018190526101609091015290565b6040518060200160405280600081525090565b6040805161012081018252600080825260208201819052918101829052606081018290526080810182905260a0810182905260c0810182905260e0810182905261010081019190915290565b60405180610100016040528060006001600160a01b03168152602001600081526020016000815260200160008152602001600081526020016000815260200160008152602001600081525090565b604051806102400160405280600081526020016000815260200160008152602001600081526020016000815260200160008152602001600081526020016000815260200160008152602001600081526020016000815260200160008152602001600081526020016000815260200160001515815260200160006001600160a01b031681526020016000151581526020016000151581525090565b60405180610160016040528060008152602001600081526020016000815260200160008152602001600081526020016000815260200160008152602001600081526020016000815260200160008152602001600064ffffffffff1681525090565b80356106ea81615a95565b60008083601f840112614a5c578081fd5b50813567ffffffffffffffff811115614a73578182fd5b60208301915083602080830285010111156129c257600080fd5b60008083601f840112614a9e578182fd5b50813567ffffffffffffffff811115614ab5578182fd5b6020830191508360208285010111156129c257600080fd5b803561ffff811681146106ea57600080fd5b600060208284031215614af0578081fd5b8135610fa281615a95565b600060208284031215614b0c578081fd5b8151610fa281615a95565b60008060408385031215614b29578081fd5b8235614b3481615a95565b91506020830135614b4481615a95565b809150509250929050565b600080600080600060a08688031215614b66578081fd5b8535614b7181615a95565b94506020860135614b8181615a95565b93506040860135614b9181615a95565b92506060860135614ba181615a95565b91506080860135614bb181615a95565b809150509295509295909350565b600080600080600060a08688031215614bd6578081fd5b8535614be181615a95565b94506020860135614bf181615a95565b93506040860135614c0181615a95565b9250606086013591506080860135614bb181615aaa565b60008060008060008060c08789031215614c30578081fd5b8635614c3b81615a95565b95506020870135614c4b81615a95565b94506040870135614c5b81615a95565b959894975094956060810135955060808101359460a0909101359350915050565b600080600080600080600080600080600060e08c8e031215614c9c578485fd5b614ca58c614a40565b9a5067ffffffffffffffff8060208e01351115614cc0578586fd5b614cd08e60208f01358f01614a4b565b909b50995060408d0135811015614ce5578586fd5b614cf58e60408f01358f01614a4b565b909950975060608d0135811015614d0a578586fd5b614d1a8e60608f01358f01614a4b565b9097509550614d2b60808e01614a40565b94508060a08e01351115614d3d578384fd5b50614d4e8d60a08e01358e01614a8d565b9093509150614d5f60c08d01614acd565b90509295989b509295989b9093969950565b60008060408385031215614d83578182fd5b8235614d8e81615a95565b91506020830135614b4481615aaa565b60008060408385031215614db0578182fd5b8235614dbb81615a95565b946020939093013593505050565b600080600060608486031215614ddd578081fd5b8335614de881615a95565b9250602084013591506040840135614dff81615a95565b809150509250925092565b60008060008060808587031215614e1f578182fd5b8435614e2a81615a95565b9350602085013592506040850135614e4181615a95565b9150614e4f60608601614acd565b905092959194509250565b60008060008060808587031215614e6f578182fd5b8435614e7a81615a95565b935060208501359250604085013591506060850135614e9881615a95565b939692955090935050565b600080600080600060a08688031215614eba578283fd5b8535614ec581615a95565b94506020860135935060408601359250614ba160608701614acd565b600060208284031215614ef2578081fd5b8135610fa281615aaa565b600060208284031215614f0e578081fd5b8151610fa281615aaa565b600060208284031215614f2a578081fd5b5051919050565b60008060408385031215614f43578182fd5b82519150602083015167ffffffffffffffff80821115614f61578283fd5b818501915085601f830112614f74578283fd5b815181811115614f8657614f86615a7f565b604051601f8201601f191681016020018381118282101715614faa57614faa615a7f565b604052818152838201602001881015614fc1578485fd5b614fd2826020830160208701615a22565b809450505050509250929050565b60008060408385031215614ff2578182fd5b505080516020909101519092909150565b600080600060608486031215615017578081fd5b8351925060208401519150604084015190509250925092565b60008060008060808587031215615045578182fd5b845193506020850151925060408501519150606085015164ffffffffff81168114614e98578182fd5b6001600160a01b03169052565b81835260006001600160fb1b03831115615093578081fd5b6020830280836020870137939093016020019283525090919050565b6000815180845260208085019450808401835b838110156150de578151875295820195908201906001016150c2565b509495945050505050565b60008284528282602086013780602084860101526020601f19601f85011685010190509392505050565b6003811061513157634e487b7160e01b600052602160045260246000fd5b9052565b519052565b6001600160801b03169052565b64ffffffffff169052565b60ff169052565b6000825161516b818460208701615a22565b9190910192915050565b6001600160a01b0391909116815260200190565b6001600160a01b03958616815293851660208501529190931660408301526060820192909252901515608082015260a00190565b6001600160a01b039384168152919092166020820152604081019190915260600190565b6001600160a01b03948516815292909316602083015260408201526001600160801b03909116606082015260800190565b6001600160a01b0394851681529290931660208301526040820152606081019190915260800190565b6001600160a01b03988916815296909716602087015260408601949094526060850192909252608084015260a083015260c082015260e08101919091526101000190565b6001600160a01b039c8d168152602081019b909b52988b1660408b015260608a0197909752608089019590955260a088019390935260c087019190915260e08601526101008501526101208401526101408301529091166101608201526101800190565b6001600160a01b03929092168252602082015260400190565b6001600160a01b0393909316835260208301919091526001600160801b0316604082015260600190565b6001600160a01b039889168152602081019790975260408701959095526060860193909352608085019190915260a084015260c083015290911660e08201526101000190565b6001600160a01b0394909416845260208401929092526040830152606082015260800190565b60a0808252810188905260008960c08301825b8b8110156153d55782356153b881615a95565b6001600160a01b03168252602092830192909101906001016153a5565b5083810360208501526153e9818a8c61507b565b91505082810360408401526153fe81886150af565b905061540d606084018761506e565b82810360808401526154208185876150e9565b9b9a5050505050505050505050565b6020808252825182820181905260009190848201906040850190845b818110156154705783516001600160a01b03168352928401929184019160010161544b565b50909695505050505050565b901515815260200190565b60006020825282518060208401526154a6816040850160208701615a22565b601f01601f19169190910160400192915050565b6020808252601b908201527f536166654d6174683a206164646974696f6e206f766572666c6f770000000000604082015260600190565b6020808252818101527f5361666545524332303a206c6f772d6c6576656c2063616c6c206661696c6564604082015260600190565b60208082526021908201527f536166654d6174683a206d756c7469706c69636174696f6e206f766572666c6f6040820152607760f81b606082015260800190565b6020808252602e908201527f436f6e747261637420696e7374616e63652068617320616c726561647920626560408201526d195b881a5b9a5d1a585b1a5e995960921b606082015260800190565b6020808252602a908201527f5361666545524332303a204552433230206f7065726174696f6e20646964206e6040820152691bdd081cdd58d8d9595960b21b606082015260800190565b6020808252601f908201527f5361666545524332303a2063616c6c20746f206e6f6e2d636f6e747261637400604082015260600190565b9051815260200190565b600061018082019050615654828451615135565b6020830151615666602084018261513a565b506040830151615679604084018261513a565b50606083015161568c606084018261513a565b50608083015161569f608084018261513a565b5060a08301516156b260a084018261513a565b5060c08301516156c560c0840182615147565b5060e08301516156d860e084018261506e565b50610100808401516156ec8285018261506e565b5050610120808401516157018285018261506e565b5050610140808401516157168285018261506e565b50506101608084015161572b82850182615152565b505092915050565b9485526001600160a01b03938416602086015291831660408501528216606084015216608082015260a00190565b9788526001600160a01b03968716602089015294151560408801526060870193909352608086019190915260a085015260c08401521660e08201526101000190565b600060a0820190508682528560208301528460408301528360608301526157cd6080830184615113565b9695505050505050565b918252602082015260400190565b8681526020810186905260c081016158006040830187615113565b6001600160a01b03949094166060820152608081019290925260a0909101529392505050565b90815260200190565b928352602083019190915261ffff16604082015260600190565b948552602085019390935260408401919091526001600160801b03908116606084015216608082015260a00190565b958652602086019490945260408501929092526060840152608083015260a082015260c00190565b600082198211156158b3576158b3615a69565b500190565b6000826158d357634e487b7160e01b81526012600452602481fd5b500490565b80825b60018086116158ea5750615915565b8187048211156158fc576158fc615a69565b8086161561590957918102915b9490941c9380026158db565b94509492505050565b6000610fa2600019848460008261593757506001610fa2565b8161594457506000610fa2565b816001811461595a576002811461596457615991565b6001915050610fa2565b60ff84111561597557615975615a69565b6001841b91508482111561598b5761598b615a69565b50610fa2565b5060208310610133831016604e8410600b84101617156159c4575081810a838111156159bf576159bf615a69565b610fa2565b6159d184848460016158d8565b8086048211156159e3576159e3615a69565b02949350505050565b6000816000190483118215151615615a0657615a06615a69565b500290565b600082821015615a1d57615a1d615a69565b500390565b60005b83811015615a3d578181015183820152602001615a25565b83811115612f3d5750506000910152565b6000600019821415615a6257615a62615a69565b5060010190565b634e487b7160e01b600052601160045260246000fd5b634e487b7160e01b600052604160045260246000fd5b6001600160a01b0381168114611d5b57600080fd5b8015158114611d5b57600080fdfea264697066735822122039254ee8e1ef91f7161d98086ccaacbb9552f23d603168df7f84928facec63a964736f6c63430008000033",
  "immutableReferences": {},
  "source": "// SPDX-License-Identifier: agpl-3.0\npragma solidity ^0.8.0;\npragma experimental ABIEncoderV2;\n\nimport {SafeMath} from '../dependencies/SafeMath.sol';\nimport {IERC20} from '../dependencies/IERC20.sol';\nimport {SafeERC20} from '../dependencies/SafeERC20.sol';\nimport {Address} from '../dependencies/Address.sol';\nimport {ILendingPoolAddressesProvider} from '../interfaces/ILendingPoolAddressesProvider.sol';\nimport {IAToken} from '../interfaces/IAToken.sol';\nimport {IVariableDebtToken} from '../interfaces/IVariableDebtToken.sol';\nimport {IFlashLoanReceiver} from '../interfaces/IFlashLoanReceiver.sol';\nimport {IPriceOracleGetter} from '../interfaces/IPriceOracleGetter.sol';\nimport {IStableDebtToken} from '../interfaces/IStableDebtToken.sol';\nimport {ILendingPool} from '../interfaces/ILendingPool.sol';\nimport {VersionedInitializable} from '../libraries/VersionedInitializable.sol';\nimport {Helpers} from '../libraries/Helpers.sol';\nimport {Errors} from '../libraries/Errors.sol';\nimport {WadRayMath} from '../libraries/WadRayMath.sol';\nimport {PercentageMath} from '../libraries/PercentageMath.sol';\nimport {ReserveLogic} from '../libraries/ReserveLogic.sol';\nimport {GenericLogic} from '../libraries/GenericLogic.sol';\nimport {ValidationLogic} from '../libraries/ValidationLogic.sol';\nimport {ReserveConfiguration} from '../libraries/ReserveConfiguration.sol';\nimport {UserConfiguration} from '../libraries/UserConfiguration.sol';\nimport {DataTypes} from '../libraries/DataTypes.sol';\nimport {LendingPoolStorage} from './LendingPoolStorage.sol';\n\n/**\n * @title LendingPool contract\n * @dev Main point of interaction with an Aave protocol's market\n * - Users can:\n *   # Deposit\n *   # Withdraw\n *   # Borrow\n *   # Repay\n *   # Swap their loans between variable and stable rate\n *   # Enable/disable their deposits as collateral rebalance stable rate borrow positions\n *   # Liquidate positions\n *   # Execute Flash Loans\n * - To be covered by a proxy contract, owned by the LendingPoolAddressesProvider of the specific market\n * - All admin functions are callable by the LendingPoolConfigurator contract defined also in the\n *   LendingPoolAddressesProvider\n * @author Aave\n **/\ncontract LendingPool is VersionedInitializable, ILendingPool, LendingPoolStorage {\n  using SafeMath for uint256;\n  using WadRayMath for uint256;\n  using PercentageMath for uint256;\n  using SafeERC20 for IERC20;\n  using ReserveLogic for DataTypes.ReserveData;\n  using ReserveConfiguration for DataTypes.ReserveConfigurationMap;\n  using UserConfiguration for DataTypes.UserConfigurationMap;\n\n\n\n\n  uint256 public constant LENDINGPOOL_REVISION = 0x2;\n\n  modifier whenNotPaused() {\n    _whenNotPaused();\n    _;\n  }\n\n  modifier onlyLendingPoolConfigurator() {\n    _onlyLendingPoolConfigurator();\n    _;\n  }\n\n  function _whenNotPaused() internal view {\n    require(!_paused, Errors.LP_IS_PAUSED);\n  }\n\n  function _onlyLendingPoolConfigurator() internal view {\n    require(\n      _addressesProvider.getLendingPoolConfigurator() == msg.sender,\n      Errors.LP_CALLER_NOT_LENDING_POOL_CONFIGURATOR\n    );\n  }\n\n  function getRevision() internal pure override returns (uint256) {\n    return LENDINGPOOL_REVISION;\n  }\n\n  /**\n   * @dev Function is invoked by the proxy contract when the LendingPool contract is added to the\n   * LendingPoolAddressesProvider of the market.\n   * - Caching the address of the LendingPoolAddressesProvider in order to reduce gas consumption\n   *   on subsequent operations\n   * @param provider The address of the LendingPoolAddressesProvider\n   **/\n  function initialize(ILendingPoolAddressesProvider provider) public initializer {\n    _addressesProvider = provider;\n    _maxStableRateBorrowSizePercent = 2500;\n    _flashLoanPremiumTotal = 9;\n    _maxNumberOfReserves = 128;\n  }\n\n  /**\n   * @dev Deposits an `amount` of underlying asset into the reserve, receiving in return overlying aTokens.\n   * - E.g. User deposits 100 USDC and gets in return 100 aUSDC\n   * @param asset The address of the underlying asset to deposit\n   * @param amount The amount to be deposited\n   * @param onBehalfOf The address that will receive the aTokens, same as msg.sender if the user\n   *   wants to receive them on his own wallet, or a different address if the beneficiary of aTokens\n   *   is a different wallet\n   * @param referralCode Code used to register the integrator originating the operation, for potential rewards.\n   *   0 if the action is executed directly by the user, without any middle-man\n   **/\n  function deposit(\n    address asset,\n    uint256 amount,\n    address onBehalfOf,\n    uint16 referralCode\n  ) external override whenNotPaused {\n    DataTypes.ReserveData storage reserve = _reserves[asset];\n\n    ValidationLogic.validateDeposit(reserve, amount);\n\n    address aToken = reserve.aTokenAddress;\n\n    reserve.updateState();\n    reserve.updateInterestRates(asset, aToken, amount, 0);\n\n    IERC20(asset).safeTransferFrom(msg.sender, aToken, amount);\n\n    bool isFirstDeposit = IAToken(aToken).mint(onBehalfOf, amount, reserve.liquidityIndex);\n\n    if (isFirstDeposit) {\n      _usersConfig[onBehalfOf].setUsingAsCollateral(reserve.id, true);\n      emit ReserveUsedAsCollateralEnabled(asset, onBehalfOf);\n    }\n\n    emit Deposit(asset, msg.sender, onBehalfOf, amount, referralCode);\n  }\n\n  /**\n   * @dev Withdraws an `amount` of underlying asset from the reserve, burning the equivalent aTokens owned\n   * E.g. User has 100 aUSDC, calls withdraw() and receives 100 USDC, burning the 100 aUSDC\n   * @param asset The address of the underlying asset to withdraw\n   * @param amount The underlying amount to be withdrawn\n   *   - Send the value type(uint256).max in order to withdraw the whole aToken balance\n   * @param to Address that will receive the underlying, same as msg.sender if the user\n   *   wants to receive it on his own wallet, or a different address if the beneficiary is a\n   *   different wallet\n   * @return The final amount withdrawn\n   **/\n  function withdraw(\n    address asset,\n    uint256 amount,\n    address to\n  ) external override whenNotPaused returns (uint256) {\n    DataTypes.ReserveData storage reserve = _reserves[asset];\n\n    address aToken = reserve.aTokenAddress;\n\n    uint256 userBalance = IAToken(aToken).balanceOf(msg.sender);\n\n    uint256 amountToWithdraw = amount;\n\n    if (amount == type(uint256).max) {\n      amountToWithdraw = userBalance;\n    }\n\n    ValidationLogic.validateWithdraw(\n      asset,\n      amountToWithdraw,\n      userBalance,\n      _reserves,\n      _usersConfig[msg.sender],\n      _reservesList,\n      _reservesCount,\n      _addressesProvider.getPriceOracle()\n    );\n\n    reserve.updateState();\n\n    reserve.updateInterestRates(asset, aToken, 0, amountToWithdraw);\n\n    if (amountToWithdraw == userBalance) {\n      _usersConfig[msg.sender].setUsingAsCollateral(reserve.id, false);\n      emit ReserveUsedAsCollateralDisabled(asset, msg.sender);\n    }\n\n    IAToken(aToken).burn(msg.sender, to, amountToWithdraw, reserve.liquidityIndex);\n\n    emit Withdraw(asset, msg.sender, to, amountToWithdraw);\n\n    return amountToWithdraw;\n  }\n\n  /**\n   * @dev Allows users to borrow a specific `amount` of the reserve underlying asset, provided that the borrower\n   * already deposited enough collateral, or he was given enough allowance by a credit delegator on the\n   * corresponding debt token (StableDebtToken or VariableDebtToken)\n   * - E.g. User borrows 100 USDC passing as `onBehalfOf` his own address, receiving the 100 USDC in his wallet\n   *   and 100 stable/variable debt tokens, depending on the `interestRateMode`\n   * @param asset The address of the underlying asset to borrow\n   * @param amount The amount to be borrowed\n   * @param interestRateMode The interest rate mode at which the user wants to borrow: 1 for Stable, 2 for Variable\n   * @param referralCode Code used to register the integrator originating the operation, for potential rewards.\n   *   0 if the action is executed directly by the user, without any middle-man\n   * @param onBehalfOf Address of the user who will receive the debt. Should be the address of the borrower itself\n   * calling the function if he wants to borrow against his own collateral, or the address of the credit delegator\n   * if he has been given credit delegation allowance\n   **/\n  function borrow(\n    address asset,\n    uint256 amount,\n    uint256 interestRateMode,\n    uint16 referralCode,\n    address onBehalfOf\n  ) external override whenNotPaused {\n    DataTypes.ReserveData storage reserve = _reserves[asset];\n\n    _executeBorrow(\n      ExecuteBorrowParams(\n        asset,\n        msg.sender,\n        onBehalfOf,\n        amount,\n        interestRateMode,\n        reserve.aTokenAddress,\n        referralCode,\n        true\n      )\n    );\n  }\n\n  /**\n   * @notice Repays a borrowed `amount` on a specific reserve, burning the equivalent debt tokens owned\n   * - E.g. User repays 100 USDC, burning 100 variable/stable debt tokens of the `onBehalfOf` address\n   * @param asset The address of the borrowed underlying asset previously borrowed\n   * @param amount The amount to repay\n   * - Send the value type(uint256).max in order to repay the whole debt for `asset` on the specific `debtMode`\n   * @param rateMode The interest rate mode at of the debt the user wants to repay: 1 for Stable, 2 for Variable\n   * @param onBehalfOf Address of the user who will get his debt reduced/removed. Should be the address of the\n   * user calling the function if he wants to reduce/remove his own debt, or the address of any other\n   * other borrower whose debt should be removed\n   * @return The final amount repaid\n   **/\n  function repay(\n    address asset,\n    uint256 amount,\n    uint256 rateMode,\n    address onBehalfOf\n  ) external override whenNotPaused returns (uint256) {\n    DataTypes.ReserveData storage reserve = _reserves[asset];\n\n    (uint256 stableDebt, uint256 variableDebt) = Helpers.getUserCurrentDebt(onBehalfOf, reserve);\n\n    DataTypes.InterestRateMode interestRateMode = DataTypes.InterestRateMode(rateMode);\n\n    ValidationLogic.validateRepay(\n      reserve,\n      amount,\n      interestRateMode,\n      onBehalfOf,\n      stableDebt,\n      variableDebt\n    );\n\n    uint256 paybackAmount =\n      interestRateMode == DataTypes.InterestRateMode.STABLE ? stableDebt : variableDebt;\n\n    if (amount < paybackAmount) {\n      paybackAmount = amount;\n    }\n\n    reserve.updateState();\n\n    if (interestRateMode == DataTypes.InterestRateMode.STABLE) {\n      IStableDebtToken(reserve.stableDebtTokenAddress).burn(onBehalfOf, paybackAmount);\n    } else {\n      IVariableDebtToken(reserve.variableDebtTokenAddress).burn(\n        onBehalfOf,\n        paybackAmount,\n        reserve.variableBorrowIndex\n      );\n    }\n\n    address aToken = reserve.aTokenAddress;\n    reserve.updateInterestRates(asset, aToken, paybackAmount, 0);\n\n    if (stableDebt.add(variableDebt).sub(paybackAmount) == 0) {\n      _usersConfig[onBehalfOf].setBorrowing(reserve.id, false);\n    }\n\n    IERC20(asset).safeTransferFrom(msg.sender, aToken, paybackAmount);\n\n    IAToken(aToken).handleRepayment(msg.sender, paybackAmount);\n\n    emit Repay(asset, onBehalfOf, msg.sender, paybackAmount);\n\n    return paybackAmount;\n  }\n\n  /**\n   * @dev Allows a borrower to swap his debt between stable and variable mode, or viceversa\n   * @param asset The address of the underlying asset borrowed\n   * @param rateMode The rate mode that the user wants to swap to\n   **/\n  function swapBorrowRateMode(address asset, uint256 rateMode) external override whenNotPaused {\n    DataTypes.ReserveData storage reserve = _reserves[asset];\n\n    (uint256 stableDebt, uint256 variableDebt) = Helpers.getUserCurrentDebt(msg.sender, reserve);\n\n    DataTypes.InterestRateMode interestRateMode = DataTypes.InterestRateMode(rateMode);\n\n    ValidationLogic.validateSwapRateMode(\n      reserve,\n      _usersConfig[msg.sender],\n      stableDebt,\n      variableDebt,\n      interestRateMode\n    );\n\n    reserve.updateState();\n\n    if (interestRateMode == DataTypes.InterestRateMode.STABLE) {\n      IStableDebtToken(reserve.stableDebtTokenAddress).burn(msg.sender, stableDebt);\n      IVariableDebtToken(reserve.variableDebtTokenAddress).mint(\n        msg.sender,\n        msg.sender,\n        stableDebt,\n        reserve.variableBorrowIndex\n      );\n    } else {\n      IVariableDebtToken(reserve.variableDebtTokenAddress).burn(\n        msg.sender,\n        variableDebt,\n        reserve.variableBorrowIndex\n      );\n      IStableDebtToken(reserve.stableDebtTokenAddress).mint(\n        msg.sender,\n        msg.sender,\n        variableDebt,\n        reserve.currentStableBorrowRate\n      );\n    }\n\n    reserve.updateInterestRates(asset, reserve.aTokenAddress, 0, 0);\n\n    emit Swap(asset, msg.sender, rateMode);\n  }\n\n  /**\n   * @dev Rebalances the stable interest rate of a user to the current stable rate defined on the reserve.\n   * - Users can be rebalanced if the following conditions are satisfied:\n   *     1. Usage ratio is above 95%\n   *     2. the current deposit APY is below REBALANCE_UP_THRESHOLD * maxVariableBorrowRate, which means that too much has been\n   *        borrowed at a stable rate and depositors are not earning enough\n   * @param asset The address of the underlying asset borrowed\n   * @param user The address of the user to be rebalanced\n   **/\n  function rebalanceStableBorrowRate(address asset, address user) external override whenNotPaused {\n    DataTypes.ReserveData storage reserve = _reserves[asset];\n\n    IERC20 stableDebtToken = IERC20(reserve.stableDebtTokenAddress);\n    IERC20 variableDebtToken = IERC20(reserve.variableDebtTokenAddress);\n    address aTokenAddress = reserve.aTokenAddress;\n\n    uint256 stableDebt = IERC20(stableDebtToken).balanceOf(user);\n\n    ValidationLogic.validateRebalanceStableBorrowRate(\n      reserve,\n      asset,\n      stableDebtToken,\n      variableDebtToken,\n      aTokenAddress\n    );\n\n    reserve.updateState();\n\n    IStableDebtToken(address(stableDebtToken)).burn(user, stableDebt);\n    IStableDebtToken(address(stableDebtToken)).mint(\n      user,\n      user,\n      stableDebt,\n      reserve.currentStableBorrowRate\n    );\n\n    reserve.updateInterestRates(asset, aTokenAddress, 0, 0);\n\n    emit RebalanceStableBorrowRate(asset, user);\n  }\n\n  /**\n   * @dev Allows depositors to enable/disable a specific deposited asset as collateral\n   * @param asset The address of the underlying asset deposited\n   * @param useAsCollateral `true` if the user wants to use the deposit as collateral, `false` otherwise\n   **/\n  function setUserUseReserveAsCollateral(address asset, bool useAsCollateral)\n    external\n    override\n    whenNotPaused\n  {\n    DataTypes.ReserveData storage reserve = _reserves[asset];\n\n    ValidationLogic.validateSetUseReserveAsCollateral(\n      reserve,\n      asset,\n      useAsCollateral,\n      _reserves,\n      _usersConfig[msg.sender],\n      _reservesList,\n      _reservesCount,\n      _addressesProvider.getPriceOracle()\n    );\n\n    _usersConfig[msg.sender].setUsingAsCollateral(reserve.id, useAsCollateral);\n\n    if (useAsCollateral) {\n      emit ReserveUsedAsCollateralEnabled(asset, msg.sender);\n    } else {\n      emit ReserveUsedAsCollateralDisabled(asset, msg.sender);\n    }\n  }\n\n  /**\n   * @dev Function to liquidate a non-healthy position collateral-wise, with Health Factor below 1\n   * - The caller (liquidator) covers `debtToCover` amount of debt of the user getting liquidated, and receives\n   *   a proportionally amount of the `collateralAsset` plus a bonus to cover market risk\n   * @param collateralAsset The address of the underlying asset used as collateral, to receive as result of the liquidation\n   * @param debtAsset The address of the underlying borrowed asset to be repaid with the liquidation\n   * @param user The address of the borrower getting liquidated\n   * @param debtToCover The debt amount of borrowed `asset` the liquidator wants to cover\n   * @param receiveAToken `true` if the liquidators wants to receive the collateral aTokens, `false` if he wants\n   * to receive the underlying collateral asset directly\n   **/\n  function liquidationCall(\n    address collateralAsset,\n    address debtAsset,\n    address user,\n    uint256 debtToCover,\n    bool receiveAToken\n  ) external override whenNotPaused {\n    address collateralManager = _addressesProvider.getLendingPoolCollateralManager();\n\n    //solium-disable-next-line\n    (bool success, bytes memory result) =\n      collateralManager.delegatecall(\n        abi.encodeWithSignature(\n          'liquidationCall(address,address,address,uint256,bool)',\n          collateralAsset,\n          debtAsset,\n          user,\n          debtToCover,\n          receiveAToken\n        )\n      );\n\n    require(success, Errors.LP_LIQUIDATION_CALL_FAILED);\n\n    (uint256 returnCode, string memory returnMessage) = abi.decode(result, (uint256, string));\n\n    require(returnCode == 0, string(abi.encodePacked(returnMessage)));\n  }\n\n  struct FlashLoanLocalVars {\n    IFlashLoanReceiver receiver;\n    address oracle;\n    uint256 i;\n    address currentAsset;\n    address currentATokenAddress;\n    uint256 currentAmount;\n    uint256 currentPremium;\n    uint256 currentAmountPlusPremium;\n    address debtToken;\n  }\n\n  /**\n   * @dev Allows smartcontracts to access the liquidity of the pool within one transaction,\n   * as long as the amount taken plus a fee is returned.\n   * IMPORTANT There are security concerns for developers of flashloan receiver contracts that must be kept into consideration.\n   * For further details please visit https://developers.aave.com\n   * @param receiverAddress The address of the contract receiving the funds, implementing the IFlashLoanReceiver interface\n   * @param assets The addresses of the assets being flash-borrowed\n   * @param amounts The amounts amounts being flash-borrowed\n   * @param modes Types of the debt to open if the flash loan is not returned:\n   *   0 -> Don't open any debt, just revert if funds can't be transferred from the receiver\n   *   1 -> Open debt at stable rate for the value of the amount flash-borrowed to the `onBehalfOf` address\n   *   2 -> Open debt at variable rate for the value of the amount flash-borrowed to the `onBehalfOf` address\n   * @param onBehalfOf The address  that will receive the debt in the case of using on `modes` 1 or 2\n   * @param params Variadic packed params to pass to the receiver as extra information\n   * @param referralCode Code used to register the integrator originating the operation, for potential rewards.\n   *   0 if the action is executed directly by the user, without any middle-man\n   **/\n  function flashLoan(\n    address receiverAddress,\n    address[] calldata assets,\n    uint256[] calldata amounts,\n    uint256[] calldata modes,\n    address onBehalfOf,\n    bytes calldata params,\n    uint16 referralCode\n  ) external override whenNotPaused {\n    FlashLoanLocalVars memory vars;\n\n    ValidationLogic.validateFlashloan(assets, amounts);\n\n    address[] memory aTokenAddresses = new address[](assets.length);\n    uint256[] memory premiums = new uint256[](assets.length);\n\n    vars.receiver = IFlashLoanReceiver(receiverAddress);\n\n    for (vars.i = 0; vars.i < assets.length; vars.i++) {\n      aTokenAddresses[vars.i] = _reserves[assets[vars.i]].aTokenAddress;\n\n      premiums[vars.i] = amounts[vars.i].mul(_flashLoanPremiumTotal).div(10000);\n\n      IAToken(aTokenAddresses[vars.i]).transferUnderlyingTo(receiverAddress, amounts[vars.i]);\n    }\n\n    require(\n      vars.receiver.executeOperation(assets, amounts, premiums, msg.sender, params),\n      Errors.LP_INVALID_FLASH_LOAN_EXECUTOR_RETURN\n    );\n\n    for (vars.i = 0; vars.i < assets.length; vars.i++) {\n      vars.currentAsset = assets[vars.i];\n      vars.currentAmount = amounts[vars.i];\n      vars.currentPremium = premiums[vars.i];\n      vars.currentATokenAddress = aTokenAddresses[vars.i];\n      vars.currentAmountPlusPremium = vars.currentAmount.add(vars.currentPremium);\n\n      if (DataTypes.InterestRateMode(modes[vars.i]) == DataTypes.InterestRateMode.NONE) {\n        _reserves[vars.currentAsset].updateState();\n        _reserves[vars.currentAsset].cumulateToLiquidityIndex(\n          IERC20(vars.currentATokenAddress).totalSupply(),\n          vars.currentPremium\n        );\n        _reserves[vars.currentAsset].updateInterestRates(\n          vars.currentAsset,\n          vars.currentATokenAddress,\n          vars.currentAmountPlusPremium,\n          0\n        );\n\n        IERC20(vars.currentAsset).safeTransferFrom(\n          receiverAddress,\n          vars.currentATokenAddress,\n          vars.currentAmountPlusPremium\n        );\n      } else {\n        // If the user chose to not return the funds, the system checks if there is enough collateral and\n        // eventually opens a debt position\n        _executeBorrow(\n          ExecuteBorrowParams(\n            vars.currentAsset,\n            msg.sender,\n            onBehalfOf,\n            vars.currentAmount,\n            modes[vars.i],\n            vars.currentATokenAddress,\n            referralCode,\n            false\n          )\n        );\n      }\n      emit FlashLoan(\n        receiverAddress,\n        msg.sender,\n        vars.currentAsset,\n        vars.currentAmount,\n        vars.currentPremium,\n        referralCode\n      );\n    }\n  }\n\n  /**\n   * @dev Returns the state and configuration of the reserve\n   * @param asset The address of the underlying asset of the reserve\n   * @return The state of the reserve\n   **/\n  function getReserveData(address asset)\n    external\n    view\n    override\n    returns (DataTypes.ReserveData memory)\n  {\n    return _reserves[asset];\n  }\n\n  /**\n   * @dev Returns the user account data across all the reserves\n   * @param user The address of the user\n   * @return totalCollateralETH the total collateral in ETH of the user\n   * @return totalDebtETH the total debt in ETH of the user\n   * @return availableBorrowsETH the borrowing power left of the user\n   * @return currentLiquidationThreshold the liquidation threshold of the user\n   * @return ltv the loan to value of the user\n   * @return healthFactor the current health factor of the user\n   **/\n  function getUserAccountData(address user)\n    external\n    view\n    override\n    returns (\n      uint256 totalCollateralETH,\n      uint256 totalDebtETH,\n      uint256 availableBorrowsETH,\n      uint256 currentLiquidationThreshold,\n      uint256 ltv,\n      uint256 healthFactor\n    )\n  {\n    (\n      totalCollateralETH,\n      totalDebtETH,\n      ltv,\n      currentLiquidationThreshold,\n      healthFactor\n    ) = GenericLogic.calculateUserAccountData(\n      user,\n      _reserves,\n      _usersConfig[user],\n      _reservesList,\n      _reservesCount,\n      _addressesProvider.getPriceOracle()\n    );\n\n    availableBorrowsETH = GenericLogic.calculateAvailableBorrowsETH(\n      totalCollateralETH,\n      totalDebtETH,\n      ltv\n    );\n  }\n\n  /**\n   * @dev Returns the configuration of the reserve\n   * @param asset The address of the underlying asset of the reserve\n   * @return The configuration of the reserve\n   **/\n  function getConfiguration(address asset)\n    external\n    view\n    override\n    returns (DataTypes.ReserveConfigurationMap memory)\n  {\n    return _reserves[asset].configuration;\n  }\n\n  /**\n   * @dev Returns the configuration of the user across all the reserves\n   * @param user The user address\n   * @return The configuration of the user\n   **/\n  function getUserConfiguration(address user)\n    external\n    view\n    override\n    returns (DataTypes.UserConfigurationMap memory)\n  {\n    return _usersConfig[user];\n  }\n\n  /**\n   * @dev Returns the normalized income per unit of asset\n   * @param asset The address of the underlying asset of the reserve\n   * @return The reserve's normalized income\n   */\n  function getReserveNormalizedIncome(address asset)\n    external\n    view\n    virtual\n    override\n    returns (uint256)\n  {\n     _reserves[asset].getNormalizedIncome();\n    return type(uint256).max;\n  }\n\n  /**\n   * @dev Returns the normalized variable debt per unit of asset\n   * @param asset The address of the underlying asset of the reserve\n   * @return The reserve normalized variable debt\n   */\n  function getReserveNormalizedVariableDebt(address asset)\n    external\n    view\n    override\n    returns (uint256)\n  {\n    return _reserves[asset].getNormalizedDebt();\n  }\n\n  /**\n   * @dev Returns if the LendingPool is paused\n   */\n  function paused() external view override returns (bool) {\n    return _paused;\n  }\n\n  /**\n   * @dev Returns the list of the initialized reserves\n   **/\n  function getReservesList() external view override returns (address[] memory) {\n    address[] memory _activeReserves = new address[](_reservesCount);\n\n    for (uint256 i = 0; i < _reservesCount; i++) {\n      _activeReserves[i] = _reservesList[i];\n    }\n    return _activeReserves;\n  }\n\n  /**\n   * @dev Returns the cached LendingPoolAddressesProvider connected to this contract\n   **/\n  function getAddressesProvider() external view override returns (ILendingPoolAddressesProvider) {\n    return _addressesProvider;\n  }\n\n  /**\n   * @dev Returns the percentage of available liquidity that can be borrowed at once at stable rate\n   */\n  function MAX_STABLE_RATE_BORROW_SIZE_PERCENT() public view returns (uint256) {\n    return _maxStableRateBorrowSizePercent;\n  }\n\n  /**\n   * @dev Returns the fee on flash loans \n   */\n  function FLASHLOAN_PREMIUM_TOTAL() public view returns (uint256) {\n    return _flashLoanPremiumTotal;\n  }\n\n  /**\n   * @dev Returns the maximum number of reserves supported to be listed in this LendingPool\n   */\n  function MAX_NUMBER_RESERVES() public view returns (uint256) {\n    return _maxNumberOfReserves;\n  }\n\n  /**\n   * @dev Validates and finalizes an aToken transfer\n   * - Only callable by the overlying aToken of the `asset`\n   * @param asset The address of the underlying asset of the aToken\n   * @param from The user from which the aTokens are transferred\n   * @param to The user receiving the aTokens\n   * @param amount The amount being transferred/withdrawn\n   * @param balanceFromBefore The aToken balance of the `from` user before the transfer\n   * @param balanceToBefore The aToken balance of the `to` user before the transfer\n   */\n  function finalizeTransfer(\n    address asset,\n    address from,\n    address to,\n    uint256 amount,\n    uint256 balanceFromBefore,\n    uint256 balanceToBefore\n  ) external override whenNotPaused {\n    require(msg.sender == _reserves[asset].aTokenAddress, Errors.LP_CALLER_MUST_BE_AN_ATOKEN);\n\n    ValidationLogic.validateTransfer(\n      from,\n      _reserves,\n      _usersConfig[from],\n      _reservesList,\n      _reservesCount,\n      _addressesProvider.getPriceOracle()\n    );\n\n    uint256 reserveId = _reserves[asset].id;\n\n    if (from != to) {\n      if (balanceFromBefore.sub(amount) == 0) {\n        DataTypes.UserConfigurationMap storage fromConfig = _usersConfig[from];\n        fromConfig.setUsingAsCollateral(reserveId, false);\n        emit ReserveUsedAsCollateralDisabled(asset, from);\n      }\n\n      if (balanceToBefore == 0 && amount != 0) {\n        DataTypes.UserConfigurationMap storage toConfig = _usersConfig[to];\n        toConfig.setUsingAsCollateral(reserveId, true);\n        emit ReserveUsedAsCollateralEnabled(asset, to);\n      }\n    }\n  }\n\n  /**\n   * @dev Initializes a reserve, activating it, assigning an aToken and debt tokens and an\n   * interest rate strategy\n   * - Only callable by the LendingPoolConfigurator contract\n   * @param asset The address of the underlying asset of the reserve\n   * @param aTokenAddress The address of the aToken that will be assigned to the reserve\n   * @param stableDebtAddress The address of the StableDebtToken that will be assigned to the reserve\n   * @param aTokenAddress The address of the VariableDebtToken that will be assigned to the reserve\n   * @param interestRateStrategyAddress The address of the interest rate strategy contract\n   **/\n  function initReserve(\n    address asset,\n    address aTokenAddress,\n    address stableDebtAddress,\n    address variableDebtAddress,\n    address interestRateStrategyAddress\n  ) external override onlyLendingPoolConfigurator {\n    require(Address.isContract(asset), Errors.LP_NOT_CONTRACT);\n    _reserves[asset].init(\n      aTokenAddress,\n      stableDebtAddress,\n      variableDebtAddress,\n      interestRateStrategyAddress\n    );\n    _addReserveToList(asset);\n  }\n\n  /**\n   * @dev Updates the address of the interest rate strategy contract\n   * - Only callable by the LendingPoolConfigurator contract\n   * @param asset The address of the underlying asset of the reserve\n   * @param rateStrategyAddress The address of the interest rate strategy contract\n   **/\n  function setReserveInterestRateStrategyAddress(address asset, address rateStrategyAddress)\n    external\n    override\n    onlyLendingPoolConfigurator\n  {\n    _reserves[asset].interestRateStrategyAddress = rateStrategyAddress;\n  }\n\n  /**\n   * @dev Sets the configuration bitmap of the reserve as a whole\n   * - Only callable by the LendingPoolConfigurator contract\n   * @param asset The address of the underlying asset of the reserve\n   * @param configuration The new configuration bitmap\n   **/\n  function setConfiguration(address asset, uint256 configuration)\n    external\n    override\n    onlyLendingPoolConfigurator\n  {\n    _reserves[asset].configuration.data = configuration;\n  }\n\n  /**\n   * @dev Set the _pause state of a reserve\n   * - Only callable by the LendingPoolConfigurator contract\n   * @param val `true` to pause the reserve, `false` to un-pause it\n   */\n  function setPause(bool val) external override onlyLendingPoolConfigurator {\n    _paused = val;\n    if (_paused) {\n      emit Paused();\n    } else {\n      emit Unpaused();\n    }\n  }\n\n  struct ExecuteBorrowParams {\n    address asset;\n    address user;\n    address onBehalfOf;\n    uint256 amount;\n    uint256 interestRateMode;\n    address aTokenAddress;\n    uint16 referralCode;\n    bool releaseUnderlying;\n  }\n\n  function _executeBorrow(ExecuteBorrowParams memory vars) internal {\n    DataTypes.ReserveData storage reserve = _reserves[vars.asset];\n    DataTypes.UserConfigurationMap storage userConfig = _usersConfig[vars.onBehalfOf];\n\n    address oracle = _addressesProvider.getPriceOracle();\n\n    uint256 amountInETH =\n      IPriceOracleGetter(oracle).getAssetPrice(vars.asset).mul(vars.amount).div(\n        10**reserve.configuration.getDecimals()\n      );\n\n    ValidationLogic.validateBorrow(\n      vars.asset,\n      reserve,\n      vars.onBehalfOf,\n      vars.amount,\n      amountInETH,\n      vars.interestRateMode,\n      _maxStableRateBorrowSizePercent,\n      _reserves,\n      userConfig,\n      _reservesList,\n      _reservesCount,\n      oracle\n    );\n\n    reserve.updateState();\n\n    uint256 currentStableRate = 0;\n\n    bool isFirstBorrowing = false;\n    if (DataTypes.InterestRateMode(vars.interestRateMode) == DataTypes.InterestRateMode.STABLE) {\n      currentStableRate = reserve.currentStableBorrowRate;\n\n      isFirstBorrowing = IStableDebtToken(reserve.stableDebtTokenAddress).mint(\n        vars.user,\n        vars.onBehalfOf,\n        vars.amount,\n        currentStableRate\n      );\n    } else {\n      isFirstBorrowing = IVariableDebtToken(reserve.variableDebtTokenAddress).mint(\n        vars.user,\n        vars.onBehalfOf,\n        vars.amount,\n        reserve.variableBorrowIndex\n      );\n    }\n\n    if (isFirstBorrowing) {\n      userConfig.setBorrowing(reserve.id, true);\n    }\n\n    reserve.updateInterestRates(\n      vars.asset,\n      vars.aTokenAddress,\n      0,\n      vars.releaseUnderlying ? vars.amount : 0\n    );\n\n    if (vars.releaseUnderlying) {\n      IAToken(vars.aTokenAddress).transferUnderlyingTo(vars.user, vars.amount);\n    }\n\n    emit Borrow(\n      vars.asset,\n      vars.user,\n      vars.onBehalfOf,\n      vars.amount,\n      vars.interestRateMode,\n      DataTypes.InterestRateMode(vars.interestRateMode) == DataTypes.InterestRateMode.STABLE\n        ? currentStableRate\n        : reserve.currentVariableBorrowRate,\n      vars.referralCode\n    );\n  }\n\n  function _addReserveToList(address asset) internal {\n    uint256 reservesCount = _reservesCount;\n\n    require(reservesCount < _maxNumberOfReserves, Errors.LP_NO_MORE_RESERVES_ALLOWED);\n\n    bool reserveAlreadyAdded = _reserves[asset].id != 0 || _reservesList[0] == asset;\n\n    if (!reserveAlreadyAdded) {\n      _reserves[asset].id = uint8(reservesCount);\n      _reservesList[reservesCount] = asset;\n\n      _reservesCount = reservesCount + 1;\n    }\n  }\n}\n",
  "sourcePath": "/Users/dennismacpro/Projects/Defi/Ethereum-Solidity-Collection/icarus-protocol/defi-seeder/contracts/aave/v2/lendingpool/LendingPool.sol",
  "compiler": {
    "name": "solc",
    "version": "0.8.0+commit.c7dfd78e.Emscripten.clang"
  },
  "schemaVersion": "3.3.4",
  "updatedAt": "2021-04-01T18:51:07.943Z",
  "devdoc": {
    "author": "Aave*",
    "details": "Main point of interaction with an Aave protocol's market - Users can:   # Deposit   # Withdraw   # Borrow   # Repay   # Swap their loans between variable and stable rate   # Enable/disable their deposits as collateral rebalance stable rate borrow positions   # Liquidate positions   # Execute Flash Loans - To be covered by a proxy contract, owned by the LendingPoolAddressesProvider of the specific market - All admin functions are callable by the LendingPoolConfigurator contract defined also in the   LendingPoolAddressesProvider",
    "kind": "dev",
    "methods": {
      "FLASHLOAN_PREMIUM_TOTAL()": {
        "details": "Returns the fee on flash loans "
      },
      "MAX_NUMBER_RESERVES()": {
        "details": "Returns the maximum number of reserves supported to be listed in this LendingPool"
      },
      "MAX_STABLE_RATE_BORROW_SIZE_PERCENT()": {
        "details": "Returns the percentage of available liquidity that can be borrowed at once at stable rate"
      },
      "borrow(address,uint256,uint256,uint16,address)": {
        "details": "Allows users to borrow a specific `amount` of the reserve underlying asset, provided that the borrower already deposited enough collateral, or he was given enough allowance by a credit delegator on the corresponding debt token (StableDebtToken or VariableDebtToken) - E.g. User borrows 100 USDC passing as `onBehalfOf` his own address, receiving the 100 USDC in his wallet   and 100 stable/variable debt tokens, depending on the `interestRateMode`",
        "params": {
          "amount": "The amount to be borrowed",
          "asset": "The address of the underlying asset to borrow",
          "interestRateMode": "The interest rate mode at which the user wants to borrow: 1 for Stable, 2 for Variable",
          "onBehalfOf": "Address of the user who will receive the debt. Should be the address of the borrower itself calling the function if he wants to borrow against his own collateral, or the address of the credit delegator if he has been given credit delegation allowance*",
          "referralCode": "Code used to register the integrator originating the operation, for potential rewards.   0 if the action is executed directly by the user, without any middle-man"
        }
      },
      "deposit(address,uint256,address,uint16)": {
        "details": "Deposits an `amount` of underlying asset into the reserve, receiving in return overlying aTokens. - E.g. User deposits 100 USDC and gets in return 100 aUSDC",
        "params": {
          "amount": "The amount to be deposited",
          "asset": "The address of the underlying asset to deposit",
          "onBehalfOf": "The address that will receive the aTokens, same as msg.sender if the user   wants to receive them on his own wallet, or a different address if the beneficiary of aTokens   is a different wallet",
          "referralCode": "Code used to register the integrator originating the operation, for potential rewards.   0 if the action is executed directly by the user, without any middle-man*"
        }
      },
      "finalizeTransfer(address,address,address,uint256,uint256,uint256)": {
        "details": "Validates and finalizes an aToken transfer - Only callable by the overlying aToken of the `asset`",
        "params": {
          "amount": "The amount being transferred/withdrawn",
          "asset": "The address of the underlying asset of the aToken",
          "balanceFromBefore": "The aToken balance of the `from` user before the transfer",
          "balanceToBefore": "The aToken balance of the `to` user before the transfer",
          "from": "The user from which the aTokens are transferred",
          "to": "The user receiving the aTokens"
        }
      },
      "flashLoan(address,address[],uint256[],uint256[],address,bytes,uint16)": {
        "details": "Allows smartcontracts to access the liquidity of the pool within one transaction, as long as the amount taken plus a fee is returned. IMPORTANT There are security concerns for developers of flashloan receiver contracts that must be kept into consideration. For further details please visit https://developers.aave.com",
        "params": {
          "amounts": "The amounts amounts being flash-borrowed",
          "assets": "The addresses of the assets being flash-borrowed",
          "modes": "Types of the debt to open if the flash loan is not returned:   0 -> Don't open any debt, just revert if funds can't be transferred from the receiver   1 -> Open debt at stable rate for the value of the amount flash-borrowed to the `onBehalfOf` address   2 -> Open debt at variable rate for the value of the amount flash-borrowed to the `onBehalfOf` address",
          "onBehalfOf": "The address  that will receive the debt in the case of using on `modes` 1 or 2",
          "params": "Variadic packed params to pass to the receiver as extra information",
          "receiverAddress": "The address of the contract receiving the funds, implementing the IFlashLoanReceiver interface",
          "referralCode": "Code used to register the integrator originating the operation, for potential rewards.   0 if the action is executed directly by the user, without any middle-man*"
        }
      },
      "getAddressesProvider()": {
        "details": "Returns the cached LendingPoolAddressesProvider connected to this contract*"
      },
      "getConfiguration(address)": {
        "details": "Returns the configuration of the reserve",
        "params": {
          "asset": "The address of the underlying asset of the reserve"
        },
        "returns": {
          "_0": "The configuration of the reserve*"
        }
      },
      "getReserveData(address)": {
        "details": "Returns the state and configuration of the reserve",
        "params": {
          "asset": "The address of the underlying asset of the reserve"
        },
        "returns": {
          "_0": "The state of the reserve*"
        }
      },
      "getReserveNormalizedIncome(address)": {
        "details": "Returns the normalized income per unit of asset",
        "params": {
          "asset": "The address of the underlying asset of the reserve"
        },
        "returns": {
          "_0": "The reserve's normalized income"
        }
      },
      "getReserveNormalizedVariableDebt(address)": {
        "details": "Returns the normalized variable debt per unit of asset",
        "params": {
          "asset": "The address of the underlying asset of the reserve"
        },
        "returns": {
          "_0": "The reserve normalized variable debt"
        }
      },
      "getReservesList()": {
        "details": "Returns the list of the initialized reserves*"
      },
      "getUserAccountData(address)": {
        "details": "Returns the user account data across all the reserves",
        "params": {
          "user": "The address of the user"
        },
        "returns": {
          "availableBorrowsETH": "the borrowing power left of the user",
          "currentLiquidationThreshold": "the liquidation threshold of the user",
          "healthFactor": "the current health factor of the user*",
          "ltv": "the loan to value of the user",
          "totalCollateralETH": "the total collateral in ETH of the user",
          "totalDebtETH": "the total debt in ETH of the user"
        }
      },
      "getUserConfiguration(address)": {
        "details": "Returns the configuration of the user across all the reserves",
        "params": {
          "user": "The user address"
        },
        "returns": {
          "_0": "The configuration of the user*"
        }
      },
      "initReserve(address,address,address,address,address)": {
        "details": "Initializes a reserve, activating it, assigning an aToken and debt tokens and an interest rate strategy - Only callable by the LendingPoolConfigurator contract",
        "params": {
          "aTokenAddress": "The address of the VariableDebtToken that will be assigned to the reserve",
          "asset": "The address of the underlying asset of the reserve",
          "interestRateStrategyAddress": "The address of the interest rate strategy contract*",
          "stableDebtAddress": "The address of the StableDebtToken that will be assigned to the reserve"
        }
      },
      "initialize(address)": {
        "details": "Function is invoked by the proxy contract when the LendingPool contract is added to the LendingPoolAddressesProvider of the market. - Caching the address of the LendingPoolAddressesProvider in order to reduce gas consumption   on subsequent operations",
        "params": {
          "provider": "The address of the LendingPoolAddressesProvider*"
        }
      },
      "liquidationCall(address,address,address,uint256,bool)": {
        "details": "Function to liquidate a non-healthy position collateral-wise, with Health Factor below 1 - The caller (liquidator) covers `debtToCover` amount of debt of the user getting liquidated, and receives   a proportionally amount of the `collateralAsset` plus a bonus to cover market risk",
        "params": {
          "collateralAsset": "The address of the underlying asset used as collateral, to receive as result of the liquidation",
          "debtAsset": "The address of the underlying borrowed asset to be repaid with the liquidation",
          "debtToCover": "The debt amount of borrowed `asset` the liquidator wants to cover",
          "receiveAToken": "`true` if the liquidators wants to receive the collateral aTokens, `false` if he wants to receive the underlying collateral asset directly*",
          "user": "The address of the borrower getting liquidated"
        }
      },
      "paused()": {
        "details": "Returns if the LendingPool is paused"
      },
      "rebalanceStableBorrowRate(address,address)": {
        "details": "Rebalances the stable interest rate of a user to the current stable rate defined on the reserve. - Users can be rebalanced if the following conditions are satisfied:     1. Usage ratio is above 95%     2. the current deposit APY is below REBALANCE_UP_THRESHOLD * maxVariableBorrowRate, which means that too much has been        borrowed at a stable rate and depositors are not earning enough",
        "params": {
          "asset": "The address of the underlying asset borrowed",
          "user": "The address of the user to be rebalanced*"
        }
      },
      "repay(address,uint256,uint256,address)": {
        "params": {
          "amount": "The amount to repay - Send the value type(uint256).max in order to repay the whole debt for `asset` on the specific `debtMode`",
          "asset": "The address of the borrowed underlying asset previously borrowed",
          "onBehalfOf": "Address of the user who will get his debt reduced/removed. Should be the address of the user calling the function if he wants to reduce/remove his own debt, or the address of any other other borrower whose debt should be removed",
          "rateMode": "The interest rate mode at of the debt the user wants to repay: 1 for Stable, 2 for Variable"
        },
        "returns": {
          "_0": "The final amount repaid*"
        }
      },
      "setConfiguration(address,uint256)": {
        "details": "Sets the configuration bitmap of the reserve as a whole - Only callable by the LendingPoolConfigurator contract",
        "params": {
          "asset": "The address of the underlying asset of the reserve",
          "configuration": "The new configuration bitmap*"
        }
      },
      "setPause(bool)": {
        "details": "Set the _pause state of a reserve - Only callable by the LendingPoolConfigurator contract",
        "params": {
          "val": "`true` to pause the reserve, `false` to un-pause it"
        }
      },
      "setReserveInterestRateStrategyAddress(address,address)": {
        "details": "Updates the address of the interest rate strategy contract - Only callable by the LendingPoolConfigurator contract",
        "params": {
          "asset": "The address of the underlying asset of the reserve",
          "rateStrategyAddress": "The address of the interest rate strategy contract*"
        }
      },
      "setUserUseReserveAsCollateral(address,bool)": {
        "details": "Allows depositors to enable/disable a specific deposited asset as collateral",
        "params": {
          "asset": "The address of the underlying asset deposited",
          "useAsCollateral": "`true` if the user wants to use the deposit as collateral, `false` otherwise*"
        }
      },
      "swapBorrowRateMode(address,uint256)": {
        "details": "Allows a borrower to swap his debt between stable and variable mode, or viceversa",
        "params": {
          "asset": "The address of the underlying asset borrowed",
          "rateMode": "The rate mode that the user wants to swap to*"
        }
      },
      "withdraw(address,uint256,address)": {
        "details": "Withdraws an `amount` of underlying asset from the reserve, burning the equivalent aTokens owned E.g. User has 100 aUSDC, calls withdraw() and receives 100 USDC, burning the 100 aUSDC",
        "params": {
          "amount": "The underlying amount to be withdrawn   - Send the value type(uint256).max in order to withdraw the whole aToken balance",
          "asset": "The address of the underlying asset to withdraw",
          "to": "Address that will receive the underlying, same as msg.sender if the user   wants to receive it on his own wallet, or a different address if the beneficiary is a   different wallet"
        },
        "returns": {
          "_0": "The final amount withdrawn*"
        }
      }
    },
    "title": "LendingPool contract",
    "version": 1
  },
  "userdoc": {
    "kind": "user",
    "methods": {
      "repay(address,uint256,uint256,address)": {
        "notice": "Repays a borrowed `amount` on a specific reserve, burning the equivalent debt tokens owned - E.g. User repays 100 USDC, burning 100 variable/stable debt tokens of the `onBehalfOf` address"
      }
    },
    "version": 1
  }
}