{
  "contractName": "LendingPoolConfigurator",
  "abi": [
    {
      "anonymous": false,
      "inputs": [
        {
          "indexed": true,
          "internalType": "address",
          "name": "asset",
          "type": "address"
        },
        {
          "indexed": true,
          "internalType": "address",
          "name": "proxy",
          "type": "address"
        },
        {
          "indexed": true,
          "internalType": "address",
          "name": "implementation",
          "type": "address"
        }
      ],
      "name": "ATokenUpgraded",
      "type": "event"
    },
    {
      "anonymous": false,
      "inputs": [
        {
          "indexed": true,
          "internalType": "address",
          "name": "asset",
          "type": "address"
        }
      ],
      "name": "BorrowingDisabledOnReserve",
      "type": "event"
    },
    {
      "anonymous": false,
      "inputs": [
        {
          "indexed": true,
          "internalType": "address",
          "name": "asset",
          "type": "address"
        },
        {
          "indexed": false,
          "internalType": "bool",
          "name": "stableRateEnabled",
          "type": "bool"
        }
      ],
      "name": "BorrowingEnabledOnReserve",
      "type": "event"
    },
    {
      "anonymous": false,
      "inputs": [
        {
          "indexed": true,
          "internalType": "address",
          "name": "asset",
          "type": "address"
        },
        {
          "indexed": false,
          "internalType": "uint256",
          "name": "ltv",
          "type": "uint256"
        },
        {
          "indexed": false,
          "internalType": "uint256",
          "name": "liquidationThreshold",
          "type": "uint256"
        },
        {
          "indexed": false,
          "internalType": "uint256",
          "name": "liquidationBonus",
          "type": "uint256"
        }
      ],
      "name": "CollateralConfigurationChanged",
      "type": "event"
    },
    {
      "anonymous": false,
      "inputs": [
        {
          "indexed": true,
          "internalType": "address",
          "name": "asset",
          "type": "address"
        }
      ],
      "name": "ReserveActivated",
      "type": "event"
    },
    {
      "anonymous": false,
      "inputs": [
        {
          "indexed": true,
          "internalType": "address",
          "name": "asset",
          "type": "address"
        }
      ],
      "name": "ReserveDeactivated",
      "type": "event"
    },
    {
      "anonymous": false,
      "inputs": [
        {
          "indexed": true,
          "internalType": "address",
          "name": "asset",
          "type": "address"
        },
        {
          "indexed": false,
          "internalType": "uint256",
          "name": "decimals",
          "type": "uint256"
        }
      ],
      "name": "ReserveDecimalsChanged",
      "type": "event"
    },
    {
      "anonymous": false,
      "inputs": [
        {
          "indexed": true,
          "internalType": "address",
          "name": "asset",
          "type": "address"
        },
        {
          "indexed": false,
          "internalType": "uint256",
          "name": "factor",
          "type": "uint256"
        }
      ],
      "name": "ReserveFactorChanged",
      "type": "event"
    },
    {
      "anonymous": false,
      "inputs": [
        {
          "indexed": true,
          "internalType": "address",
          "name": "asset",
          "type": "address"
        }
      ],
      "name": "ReserveFrozen",
      "type": "event"
    },
    {
      "anonymous": false,
      "inputs": [
        {
          "indexed": true,
          "internalType": "address",
          "name": "asset",
          "type": "address"
        },
        {
          "indexed": true,
          "internalType": "address",
          "name": "aToken",
          "type": "address"
        },
        {
          "indexed": false,
          "internalType": "address",
          "name": "stableDebtToken",
          "type": "address"
        },
        {
          "indexed": false,
          "internalType": "address",
          "name": "variableDebtToken",
          "type": "address"
        },
        {
          "indexed": false,
          "internalType": "address",
          "name": "interestRateStrategyAddress",
          "type": "address"
        }
      ],
      "name": "ReserveInitialized",
      "type": "event"
    },
    {
      "anonymous": false,
      "inputs": [
        {
          "indexed": true,
          "internalType": "address",
          "name": "asset",
          "type": "address"
        },
        {
          "indexed": false,
          "internalType": "address",
          "name": "strategy",
          "type": "address"
        }
      ],
      "name": "ReserveInterestRateStrategyChanged",
      "type": "event"
    },
    {
      "anonymous": false,
      "inputs": [
        {
          "indexed": true,
          "internalType": "address",
          "name": "asset",
          "type": "address"
        }
      ],
      "name": "ReserveUnfrozen",
      "type": "event"
    },
    {
      "anonymous": false,
      "inputs": [
        {
          "indexed": true,
          "internalType": "address",
          "name": "asset",
          "type": "address"
        },
        {
          "indexed": true,
          "internalType": "address",
          "name": "proxy",
          "type": "address"
        },
        {
          "indexed": true,
          "internalType": "address",
          "name": "implementation",
          "type": "address"
        }
      ],
      "name": "StableDebtTokenUpgraded",
      "type": "event"
    },
    {
      "anonymous": false,
      "inputs": [
        {
          "indexed": true,
          "internalType": "address",
          "name": "asset",
          "type": "address"
        }
      ],
      "name": "StableRateDisabledOnReserve",
      "type": "event"
    },
    {
      "anonymous": false,
      "inputs": [
        {
          "indexed": true,
          "internalType": "address",
          "name": "asset",
          "type": "address"
        }
      ],
      "name": "StableRateEnabledOnReserve",
      "type": "event"
    },
    {
      "anonymous": false,
      "inputs": [
        {
          "indexed": true,
          "internalType": "address",
          "name": "asset",
          "type": "address"
        },
        {
          "indexed": true,
          "internalType": "address",
          "name": "proxy",
          "type": "address"
        },
        {
          "indexed": true,
          "internalType": "address",
          "name": "implementation",
          "type": "address"
        }
      ],
      "name": "VariableDebtTokenUpgraded",
      "type": "event"
    },
    {
      "inputs": [
        {
          "internalType": "contract ILendingPoolAddressesProvider",
          "name": "provider",
          "type": "address"
        }
      ],
      "name": "initialize",
      "outputs": [],
      "stateMutability": "nonpayable",
      "type": "function"
    },
    {
      "inputs": [
        {
          "components": [
            {
              "internalType": "address",
              "name": "aTokenImpl",
              "type": "address"
            },
            {
              "internalType": "address",
              "name": "stableDebtTokenImpl",
              "type": "address"
            },
            {
              "internalType": "address",
              "name": "variableDebtTokenImpl",
              "type": "address"
            },
            {
              "internalType": "uint8",
              "name": "underlyingAssetDecimals",
              "type": "uint8"
            },
            {
              "internalType": "address",
              "name": "interestRateStrategyAddress",
              "type": "address"
            },
            {
              "internalType": "address",
              "name": "underlyingAsset",
              "type": "address"
            },
            {
              "internalType": "address",
              "name": "treasury",
              "type": "address"
            },
            {
              "internalType": "address",
              "name": "incentivesController",
              "type": "address"
            },
            {
              "internalType": "string",
              "name": "underlyingAssetName",
              "type": "string"
            },
            {
              "internalType": "string",
              "name": "aTokenName",
              "type": "string"
            },
            {
              "internalType": "string",
              "name": "aTokenSymbol",
              "type": "string"
            },
            {
              "internalType": "string",
              "name": "variableDebtTokenName",
              "type": "string"
            },
            {
              "internalType": "string",
              "name": "variableDebtTokenSymbol",
              "type": "string"
            },
            {
              "internalType": "string",
              "name": "stableDebtTokenName",
              "type": "string"
            },
            {
              "internalType": "string",
              "name": "stableDebtTokenSymbol",
              "type": "string"
            },
            {
              "internalType": "bytes",
              "name": "params",
              "type": "bytes"
            }
          ],
          "internalType": "struct ILendingPoolConfigurator.InitReserveInput[]",
          "name": "input",
          "type": "tuple[]"
        }
      ],
      "name": "batchInitReserve",
      "outputs": [],
      "stateMutability": "nonpayable",
      "type": "function"
    },
    {
      "inputs": [
        {
          "components": [
            {
              "internalType": "address",
              "name": "asset",
              "type": "address"
            },
            {
              "internalType": "address",
              "name": "treasury",
              "type": "address"
            },
            {
              "internalType": "address",
              "name": "incentivesController",
              "type": "address"
            },
            {
              "internalType": "string",
              "name": "name",
              "type": "string"
            },
            {
              "internalType": "string",
              "name": "symbol",
              "type": "string"
            },
            {
              "internalType": "address",
              "name": "implementation",
              "type": "address"
            },
            {
              "internalType": "bytes",
              "name": "params",
              "type": "bytes"
            }
          ],
          "internalType": "struct ILendingPoolConfigurator.UpdateATokenInput",
          "name": "input",
          "type": "tuple"
        }
      ],
      "name": "updateAToken",
      "outputs": [],
      "stateMutability": "nonpayable",
      "type": "function"
    },
    {
      "inputs": [
        {
          "components": [
            {
              "internalType": "address",
              "name": "asset",
              "type": "address"
            },
            {
              "internalType": "address",
              "name": "incentivesController",
              "type": "address"
            },
            {
              "internalType": "string",
              "name": "name",
              "type": "string"
            },
            {
              "internalType": "string",
              "name": "symbol",
              "type": "string"
            },
            {
              "internalType": "address",
              "name": "implementation",
              "type": "address"
            },
            {
              "internalType": "bytes",
              "name": "params",
              "type": "bytes"
            }
          ],
          "internalType": "struct ILendingPoolConfigurator.UpdateDebtTokenInput",
          "name": "input",
          "type": "tuple"
        }
      ],
      "name": "updateStableDebtToken",
      "outputs": [],
      "stateMutability": "nonpayable",
      "type": "function"
    },
    {
      "inputs": [
        {
          "components": [
            {
              "internalType": "address",
              "name": "asset",
              "type": "address"
            },
            {
              "internalType": "address",
              "name": "incentivesController",
              "type": "address"
            },
            {
              "internalType": "string",
              "name": "name",
              "type": "string"
            },
            {
              "internalType": "string",
              "name": "symbol",
              "type": "string"
            },
            {
              "internalType": "address",
              "name": "implementation",
              "type": "address"
            },
            {
              "internalType": "bytes",
              "name": "params",
              "type": "bytes"
            }
          ],
          "internalType": "struct ILendingPoolConfigurator.UpdateDebtTokenInput",
          "name": "input",
          "type": "tuple"
        }
      ],
      "name": "updateVariableDebtToken",
      "outputs": [],
      "stateMutability": "nonpayable",
      "type": "function"
    },
    {
      "inputs": [
        {
          "internalType": "address",
          "name": "asset",
          "type": "address"
        },
        {
          "internalType": "bool",
          "name": "stableBorrowRateEnabled",
          "type": "bool"
        }
      ],
      "name": "enableBorrowingOnReserve",
      "outputs": [],
      "stateMutability": "nonpayable",
      "type": "function"
    },
    {
      "inputs": [
        {
          "internalType": "address",
          "name": "asset",
          "type": "address"
        }
      ],
      "name": "disableBorrowingOnReserve",
      "outputs": [],
      "stateMutability": "nonpayable",
      "type": "function"
    },
    {
      "inputs": [
        {
          "internalType": "address",
          "name": "asset",
          "type": "address"
        },
        {
          "internalType": "uint256",
          "name": "ltv",
          "type": "uint256"
        },
        {
          "internalType": "uint256",
          "name": "liquidationThreshold",
          "type": "uint256"
        },
        {
          "internalType": "uint256",
          "name": "liquidationBonus",
          "type": "uint256"
        }
      ],
      "name": "configureReserveAsCollateral",
      "outputs": [],
      "stateMutability": "nonpayable",
      "type": "function"
    },
    {
      "inputs": [
        {
          "internalType": "address",
          "name": "asset",
          "type": "address"
        }
      ],
      "name": "enableReserveStableRate",
      "outputs": [],
      "stateMutability": "nonpayable",
      "type": "function"
    },
    {
      "inputs": [
        {
          "internalType": "address",
          "name": "asset",
          "type": "address"
        }
      ],
      "name": "disableReserveStableRate",
      "outputs": [],
      "stateMutability": "nonpayable",
      "type": "function"
    },
    {
      "inputs": [
        {
          "internalType": "address",
          "name": "asset",
          "type": "address"
        }
      ],
      "name": "activateReserve",
      "outputs": [],
      "stateMutability": "nonpayable",
      "type": "function"
    },
    {
      "inputs": [
        {
          "internalType": "address",
          "name": "asset",
          "type": "address"
        }
      ],
      "name": "deactivateReserve",
      "outputs": [],
      "stateMutability": "nonpayable",
      "type": "function"
    },
    {
      "inputs": [
        {
          "internalType": "address",
          "name": "asset",
          "type": "address"
        }
      ],
      "name": "freezeReserve",
      "outputs": [],
      "stateMutability": "nonpayable",
      "type": "function"
    },
    {
      "inputs": [
        {
          "internalType": "address",
          "name": "asset",
          "type": "address"
        }
      ],
      "name": "unfreezeReserve",
      "outputs": [],
      "stateMutability": "nonpayable",
      "type": "function"
    },
    {
      "inputs": [
        {
          "internalType": "address",
          "name": "asset",
          "type": "address"
        },
        {
          "internalType": "uint256",
          "name": "reserveFactor",
          "type": "uint256"
        }
      ],
      "name": "setReserveFactor",
      "outputs": [],
      "stateMutability": "nonpayable",
      "type": "function"
    },
    {
      "inputs": [
        {
          "internalType": "address",
          "name": "asset",
          "type": "address"
        },
        {
          "internalType": "address",
          "name": "rateStrategyAddress",
          "type": "address"
        }
      ],
      "name": "setReserveInterestRateStrategyAddress",
      "outputs": [],
      "stateMutability": "nonpayable",
      "type": "function"
    },
    {
      "inputs": [
        {
          "internalType": "bool",
          "name": "val",
          "type": "bool"
        }
      ],
      "name": "setPoolPause",
      "outputs": [],
      "stateMutability": "nonpayable",
      "type": "function"
    }
  ],
  "bytecode": "0x60806040526000805534801561001457600080fd5b5061428a806100246000396000f3fe60806040523480156200001157600080fd5b5060043610620001245760003560e01c8063ad4e643211620000b1578063c4d66de8116200007b578063c4d66de8146200023f578063cef84c511462000256578063eede87c1146200026d578063ef1f93731462000284578063f53a2515146200029b5762000124565b8063ad4e643214620001e3578063b75d6f3414620001fa578063bb01c37c1462000211578063bf34418314620002285762000124565b80637641f3d911620000f35780637641f3d914620001875780637aca76eb146200019e5780637c4e560b14620001b5578063a8dc0f4514620001cc5762000124565b80631d2118f914620001295780633e72a45414620001425780634b4e675314620001595780637626cde31462000170575b600080fd5b620001406200013a3660046200316b565b620002b2565b005b620001406200015336600462003126565b62000431565b620001406200016a366004620031e1565b6200063a565b620001406200018136600462003441565b62000847565b6200014062000198366004620032c0565b62000b89565b62000140620001af36600462003126565b62000cb9565b62000140620001c63660046200320f565b62000eb7565b62000140620001dd36600462003126565b62001204565b62000140620001f436600462003441565b62001402565b620001406200020b36600462003126565b620016c5565b620001406200022236600462003406565b620018c3565b620001406200023936600462003126565b62001b9a565b620001406200025036600462003126565b62001d98565b62000140620002673660046200324c565b62001ed9565b620001406200027e366004620031a8565b62002013565b620001406200029536600462003126565b62002220565b62000140620002ac36600462003126565b6200241e565b603454604080516315d9b46f60e31b8152905133926001600160a01b03169163aecda378916004808301926020929190829003018186803b158015620002f757600080fd5b505afa1580156200030c573d6000803e3d6000fd5b505050506040513d601f19601f820116820180604052508101906200033291906200314c565b6001600160a01b03161460405180604001604052806002815260200161333360f01b81525090620003815760405162461bcd60e51b81526004016200037891906200378c565b60405180910390fd5b50603554604051631d2118f960e01b81526001600160a01b0390911690631d2118f990620003b6908590859060040162003540565b600060405180830381600087803b158015620003d157600080fd5b505af1158015620003e6573d6000803e3d6000fd5b50505050816001600160a01b03167f5644b64ebb0ce18c4032248ca52f58355469092ff072866c3dcd8640e817d6a5826040516200042591906200352c565b60405180910390a25050565b603454604080516315d9b46f60e31b8152905133926001600160a01b03169163aecda378916004808301926020929190829003018186803b1580156200047657600080fd5b505afa1580156200048b573d6000803e3d6000fd5b505050506040513d601f19601f82011682018060405250810190620004b191906200314c565b6001600160a01b03161460405180604001604052806002815260200161333360f01b81525090620004f75760405162461bcd60e51b81526004016200037891906200378c565b5062000503816200261c565b60355460405163c44b11f760e01b81526000916001600160a01b03169063c44b11f790620005369085906004016200352c565b60206040518083038186803b1580156200054f57600080fd5b505afa15801562000564573d6000803e3d6000fd5b505050506040513d601f19601f820116820180604052508101906200058a9190620032dd565b90506200059981600062002786565b6035548151604051635c69493b60e11b81526001600160a01b039092169163b8d2927691620005ce91869190600401620035dd565b600060405180830381600087803b158015620005e957600080fd5b505af1158015620005fe573d6000803e3d6000fd5b50506040516001600160a01b03851692507f6f60cf8bd0f218cabe1ea3150bd07b0b758c35c4cfdf7138017a283e65564d5e9150600090a25050565b603454604080516315d9b46f60e31b8152905133926001600160a01b03169163aecda378916004808301926020929190829003018186803b1580156200067f57600080fd5b505afa15801562000694573d6000803e3d6000fd5b505050506040513d601f19601f82011682018060405250810190620006ba91906200314c565b6001600160a01b03161460405180604001604052806002815260200161333360f01b81525090620007005760405162461bcd60e51b81526004016200037891906200378c565b5060355460405163c44b11f760e01b81526000916001600160a01b03169063c44b11f790620007349086906004016200352c565b60206040518083038186803b1580156200074d57600080fd5b505afa15801562000762573d6000803e3d6000fd5b505050506040513d601f19601f82011682018060405250810190620007889190620032dd565b9050620007968183620027b6565b6035548151604051635c69493b60e11b81526001600160a01b039092169163b8d2927691620007cb91879190600401620035dd565b600060405180830381600087803b158015620007e657600080fd5b505af1158015620007fb573d6000803e3d6000fd5b50505050826001600160a01b03167f2694ccb0b585b6a54b8d8b4a47aa874b05c257b43d34e98aee50838be00d3405836040516200083a9190620037ef565b60405180910390a2505050565b603454604080516315d9b46f60e31b8152905133926001600160a01b03169163aecda378916004808301926020929190829003018186803b1580156200088c57600080fd5b505afa158015620008a1573d6000803e3d6000fd5b505050506040513d601f19601f82011682018060405250810190620008c791906200314c565b6001600160a01b03161460405180604001604052806002815260200161333360f01b815250906200090d5760405162461bcd60e51b81526004016200037891906200378c565b506035546001600160a01b03166000816335ea6a7562000931602086018662003126565b6040518263ffffffff1660e01b81526004016200094f91906200352c565b6101806040518083038186803b1580156200096957600080fd5b505afa1580156200097e573d6000803e3d6000fd5b505050506040513d601f19601f82011682018060405250810190620009a49190620032fb565b9050600062000a426001600160a01b03841663c44b11f7620009ca602088018862003126565b6040518263ffffffff1660e01b8152600401620009e891906200352c565b60206040518083038186803b15801562000a0157600080fd5b505afa15801562000a16573d6000803e3d6000fd5b505050506040513d601f19601f8201168201806040525081019062000a3c9190620032dd565b62002810565b50935060009250636111764560e11b915085905062000a65602088018862003126565b62000a776040890160208a0162003126565b8562000a8760408b018b6200385d565b62000a9660608d018d6200385d565b62000aa560a08f018f6200380e565b60405160240162000ac09a99989796959493929190620036d1565b60408051601f198184030181529190526020810180516001600160e01b03166001600160e01b03199093169290921790915261010084015190915062000b199062000b1260a088016080890162003126565b836200283b565b62000b2b60a086016080870162003126565b6101008401516001600160a01b03918216911662000b4d602088018862003126565b6001600160a01b03167f7a943a5b6c214bf7726c069a878b1e2a8e7371981d516048b84e03743e67bc2860405160405180910390a45050505050565b60345460408051636ee554f560e11b8152905133926001600160a01b03169163ddcaa9ea916004808301926020929190829003018186803b15801562000bce57600080fd5b505afa15801562000be3573d6000803e3d6000fd5b505050506040513d601f19601f8201168201806040525081019062000c0991906200314c565b6001600160a01b031614604051806040016040528060028152602001611b9b60f11b8152509062000c4f5760405162461bcd60e51b81526004016200037891906200378c565b5060355460405163bedb86fb60e01b81526001600160a01b039091169063bedb86fb9062000c82908490600401620035f6565b600060405180830381600087803b15801562000c9d57600080fd5b505af115801562000cb2573d6000803e3d6000fd5b5050505050565b603454604080516315d9b46f60e31b8152905133926001600160a01b03169163aecda378916004808301926020929190829003018186803b15801562000cfe57600080fd5b505afa15801562000d13573d6000803e3d6000fd5b505050506040513d601f19601f8201168201806040525081019062000d3991906200314c565b6001600160a01b03161460405180604001604052806002815260200161333360f01b8152509062000d7f5760405162461bcd60e51b81526004016200037891906200378c565b5060355460405163c44b11f760e01b81526000916001600160a01b03169063c44b11f79062000db39085906004016200352c565b60206040518083038186803b15801562000dcc57600080fd5b505afa15801562000de1573d6000803e3d6000fd5b505050506040513d601f19601f8201168201806040525081019062000e079190620032dd565b905062000e16816001620028a7565b6035548151604051635c69493b60e11b81526001600160a01b039092169163b8d292769162000e4b91869190600401620035dd565b600060405180830381600087803b15801562000e6657600080fd5b505af115801562000e7b573d6000803e3d6000fd5b50506040516001600160a01b03851692507f85dc710add8a0914461a7dc5a63f6fc529a7700f8c6089a3faf5e93256ccf12a9150600090a25050565b603454604080516315d9b46f60e31b8152905133926001600160a01b03169163aecda378916004808301926020929190829003018186803b15801562000efc57600080fd5b505afa15801562000f11573d6000803e3d6000fd5b505050506040513d601f19601f8201168201806040525081019062000f3791906200314c565b6001600160a01b03161460405180604001604052806002815260200161333360f01b8152509062000f7d5760405162461bcd60e51b81526004016200037891906200378c565b5060355460405163c44b11f760e01b81526000916001600160a01b03169063c44b11f79062000fb19088906004016200352c565b60206040518083038186803b15801562000fca57600080fd5b505afa15801562000fdf573d6000803e3d6000fd5b505050506040513d601f19601f82011682018060405250810190620010059190620032dd565b90508284111560405180604001604052806002815260200161373560f01b81525090620010475760405162461bcd60e51b81526004016200037891906200378c565b508215620010e257604080518082019091526002815261373560f01b602082015261271083116200108d5760405162461bcd60e51b81526004016200037891906200378c565b506127106200109d8484620028d7565b111560405180604001604052806002815260200161373560f01b81525090620010db5760405162461bcd60e51b81526004016200037891906200378c565b5062001129565b604080518082019091526002815261373560f01b602082015282156200111d5760405162461bcd60e51b81526004016200037891906200378c565b5062001129856200261c565b6200113581856200299b565b620011418184620029e7565b6200114d818362002a3b565b6035548151604051635c69493b60e11b81526001600160a01b039092169163b8d29276916200118291899190600401620035dd565b600060405180830381600087803b1580156200119d57600080fd5b505af1158015620011b2573d6000803e3d6000fd5b50505050846001600160a01b03167f637febbda9275aea2e85c0ff690444c8d87eb2e8339bbede9715abcc89cb0995858585604051620011f593929190620037f8565b60405180910390a25050505050565b603454604080516315d9b46f60e31b8152905133926001600160a01b03169163aecda378916004808301926020929190829003018186803b1580156200124957600080fd5b505afa1580156200125e573d6000803e3d6000fd5b505050506040513d601f19601f820116820180604052508101906200128491906200314c565b6001600160a01b03161460405180604001604052806002815260200161333360f01b81525090620012ca5760405162461bcd60e51b81526004016200037891906200378c565b5060355460405163c44b11f760e01b81526000916001600160a01b03169063c44b11f790620012fe9085906004016200352c565b60206040518083038186803b1580156200131757600080fd5b505afa1580156200132c573d6000803e3d6000fd5b505050506040513d601f19601f82011682018060405250810190620013529190620032dd565b90506200136181600062002a91565b6035548151604051635c69493b60e11b81526001600160a01b039092169163b8d29276916200139691869190600401620035dd565b600060405180830381600087803b158015620013b157600080fd5b505af1158015620013c6573d6000803e3d6000fd5b50506040516001600160a01b03851692507fe9a7e5fd4fc8ea18e602350324bf48e8f05d12434af0ce0be05743e6a5fdcb9e9150600090a25050565b603454604080516315d9b46f60e31b8152905133926001600160a01b03169163aecda378916004808301926020929190829003018186803b1580156200144757600080fd5b505afa1580156200145c573d6000803e3d6000fd5b505050506040513d601f19601f820116820180604052508101906200148291906200314c565b6001600160a01b03161460405180604001604052806002815260200161333360f01b81525090620014c85760405162461bcd60e51b81526004016200037891906200378c565b506035546001600160a01b03166000816335ea6a75620014ec602086018662003126565b6040518263ffffffff1660e01b81526004016200150a91906200352c565b6101806040518083038186803b1580156200152457600080fd5b505afa15801562001539573d6000803e3d6000fd5b505050506040513d601f19601f820116820180604052508101906200155f9190620032fb565b90506000620015856001600160a01b03841663c44b11f7620009ca602088018862003126565b50935060009250636111764560e11b9150859050620015a8602088018862003126565b620015ba6040890160208a0162003126565b85620015ca60408b018b6200385d565b620015d960608d018d6200385d565b620015e860a08f018f6200380e565b604051602401620016039a99989796959493929190620036d1565b60408051601f198184030181529190526020810180516001600160e01b03166001600160e01b031990931692909217909152610120840151909150620016559062000b1260a088016080890162003126565b6200166760a086016080870162003126565b6101208401516001600160a01b03918216911662001689602088018862003126565b6001600160a01b03167f9439658a562a5c46b1173589df89cf001483d685bad28aedaff4a88656292d8160405160405180910390a45050505050565b603454604080516315d9b46f60e31b8152905133926001600160a01b03169163aecda378916004808301926020929190829003018186803b1580156200170a57600080fd5b505afa1580156200171f573d6000803e3d6000fd5b505050506040513d601f19601f820116820180604052508101906200174591906200314c565b6001600160a01b03161460405180604001604052806002815260200161333360f01b815250906200178b5760405162461bcd60e51b81526004016200037891906200378c565b5060355460405163c44b11f760e01b81526000916001600160a01b03169063c44b11f790620017bf9085906004016200352c565b60206040518083038186803b158015620017d857600080fd5b505afa158015620017ed573d6000803e3d6000fd5b505050506040513d601f19601f82011682018060405250810190620018139190620032dd565b90506200182281600162002786565b6035548151604051635c69493b60e11b81526001600160a01b039092169163b8d29276916200185791869190600401620035dd565b600060405180830381600087803b1580156200187257600080fd5b505af115801562001887573d6000803e3d6000fd5b50506040516001600160a01b03851692507f35b80cd8ea3440e9a8454f116fa658b858da1b64c86c48451f4559cefcdfb56c9150600090a25050565b603454604080516315d9b46f60e31b8152905133926001600160a01b03169163aecda378916004808301926020929190829003018186803b1580156200190857600080fd5b505afa1580156200191d573d6000803e3d6000fd5b505050506040513d601f19601f820116820180604052508101906200194391906200314c565b6001600160a01b03161460405180604001604052806002815260200161333360f01b81525090620019895760405162461bcd60e51b81526004016200037891906200378c565b506035546001600160a01b03166000816335ea6a75620019ad602086018662003126565b6040518263ffffffff1660e01b8152600401620019cb91906200352c565b6101806040518083038186803b158015620019e557600080fd5b505afa158015620019fa573d6000803e3d6000fd5b505050506040513d601f19601f8201168201806040525081019062001a209190620032fb565b9050600062001a466001600160a01b03841663c44b11f7620009ca602088018862003126565b5093506000925063183fb41360e01b915085905062001a6c604088016020890162003126565b62001a7b602089018962003126565b62001a8d60608a0160408b0162003126565b8662001a9d60608c018c6200385d565b62001aac60808e018e6200385d565b8e8060c0019062001abe91906200380e565b60405160240162001ada9b9a9998979695949392919062003601565b60408051601f198184030181529190526020810180516001600160e01b03166001600160e01b03199093169290921790915260e084015190915062001b2b9062000b1260c0880160a0890162003126565b62001b3d60c0860160a0870162003126565b60e08401516001600160a01b03918216911662001b5e602088018862003126565b6001600160a01b03167fa76f65411ec66a7fb6bc467432eb14767900449ae4469fa295e4441fe5e1cb7360405160405180910390a45050505050565b603454604080516315d9b46f60e31b8152905133926001600160a01b03169163aecda378916004808301926020929190829003018186803b15801562001bdf57600080fd5b505afa15801562001bf4573d6000803e3d6000fd5b505050506040513d601f19601f8201168201806040525081019062001c1a91906200314c565b6001600160a01b03161460405180604001604052806002815260200161333360f01b8152509062001c605760405162461bcd60e51b81526004016200037891906200378c565b5060355460405163c44b11f760e01b81526000916001600160a01b03169063c44b11f79062001c949085906004016200352c565b60206040518083038186803b15801562001cad57600080fd5b505afa15801562001cc2573d6000803e3d6000fd5b505050506040513d601f19601f8201168201806040525081019062001ce89190620032dd565b905062001cf781600162002ac1565b6035548151604051635c69493b60e11b81526001600160a01b039092169163b8d292769162001d2c91869190600401620035dd565b600060405180830381600087803b15801562001d4757600080fd5b505af115801562001d5c573d6000803e3d6000fd5b50506040516001600160a01b03851692507f8dee2b2f3e98319ae6347eda521788f73f4086c9be9a594942b370b137fb8cb19150600090a25050565b600062001da462002af1565b60015490915060ff168062001dbe575062001dbe62002af6565b8062001dcb575060005481115b62001dea5760405162461bcd60e51b81526004016200037890620037a1565b60015460ff1615801562001e0a576001805460ff19168117905560008290555b603480546001600160a01b0319166001600160a01b03858116919091179182905560408051630261bf8b60e01b815290519290911691630261bf8b91600480820192602092909190829003018186803b15801562001e6757600080fd5b505afa15801562001e7c573d6000803e3d6000fd5b505050506040513d601f19601f8201168201806040525081019062001ea291906200314c565b603580546001600160a01b0319166001600160a01b0392909216919091179055801562001ed4576001805460ff191690555b505050565b603454604080516315d9b46f60e31b8152905133926001600160a01b03169163aecda378916004808301926020929190829003018186803b15801562001f1e57600080fd5b505afa15801562001f33573d6000803e3d6000fd5b505050506040513d601f19601f8201168201806040525081019062001f5991906200314c565b6001600160a01b03161460405180604001604052806002815260200161333360f01b8152509062001f9f5760405162461bcd60e51b81526004016200037891906200378c565b506035546001600160a01b031660005b828110156200200d5762001ff88285858481811062001fde57634e487b7160e01b600052603260045260246000fd5b905060200281019062001ff2919062003874565b62002afc565b80620020048162003946565b91505062001faf565b50505050565b603454604080516315d9b46f60e31b8152905133926001600160a01b03169163aecda378916004808301926020929190829003018186803b1580156200205857600080fd5b505afa1580156200206d573d6000803e3d6000fd5b505050506040513d601f19601f820116820180604052508101906200209391906200314c565b6001600160a01b03161460405180604001604052806002815260200161333360f01b81525090620020d95760405162461bcd60e51b81526004016200037891906200378c565b5060355460405163c44b11f760e01b81526000916001600160a01b03169063c44b11f7906200210d9086906004016200352c565b60206040518083038186803b1580156200212657600080fd5b505afa1580156200213b573d6000803e3d6000fd5b505050506040513d601f19601f82011682018060405250810190620021619190620032dd565b90506200217081600162002a91565b6200217c818362002ac1565b6035548151604051635c69493b60e11b81526001600160a01b039092169163b8d2927691620021b191879190600401620035dd565b600060405180830381600087803b158015620021cc57600080fd5b505af1158015620021e1573d6000803e3d6000fd5b50505050826001600160a01b03167fab2f7f9e5ca2772fafa94f355c1842a80ae6b9e41f83083098d81f67d7a0b508836040516200083a9190620035f6565b603454604080516315d9b46f60e31b8152905133926001600160a01b03169163aecda378916004808301926020929190829003018186803b1580156200226557600080fd5b505afa1580156200227a573d6000803e3d6000fd5b505050506040513d601f19601f82011682018060405250810190620022a091906200314c565b6001600160a01b03161460405180604001604052806002815260200161333360f01b81525090620022e65760405162461bcd60e51b81526004016200037891906200378c565b5060355460405163c44b11f760e01b81526000916001600160a01b03169063c44b11f7906200231a9085906004016200352c565b60206040518083038186803b1580156200233357600080fd5b505afa15801562002348573d6000803e3d6000fd5b505050506040513d601f19601f820116820180604052508101906200236e9190620032dd565b90506200237d816000620028a7565b6035548151604051635c69493b60e11b81526001600160a01b039092169163b8d2927691620023b291869190600401620035dd565b600060405180830381600087803b158015620023cd57600080fd5b505af1158015620023e2573d6000803e3d6000fd5b50506040516001600160a01b03851692507f838ecdc4709a31a26db48b0c853212cedde3f725f07030079d793fb0719647609150600090a25050565b603454604080516315d9b46f60e31b8152905133926001600160a01b03169163aecda378916004808301926020929190829003018186803b1580156200246357600080fd5b505afa15801562002478573d6000803e3d6000fd5b505050506040513d601f19601f820116820180604052508101906200249e91906200314c565b6001600160a01b03161460405180604001604052806002815260200161333360f01b81525090620024e45760405162461bcd60e51b81526004016200037891906200378c565b5060355460405163c44b11f760e01b81526000916001600160a01b03169063c44b11f790620025189085906004016200352c565b60206040518083038186803b1580156200253157600080fd5b505afa15801562002546573d6000803e3d6000fd5b505050506040513d601f19601f820116820180604052508101906200256c9190620032dd565b90506200257b81600062002ac1565b6035548151604051635c69493b60e11b81526001600160a01b039092169163b8d2927691620025b091869190600401620035dd565b600060405180830381600087803b158015620025cb57600080fd5b505af1158015620025e0573d6000803e3d6000fd5b50506040516001600160a01b03851692507f8bbf35441ac2c607ddecadd3d8ee58636d32f217fad201fb2655581502dd84e39150600090a25050565b6035546040516335ea6a7560e01b81526000916001600160a01b0316906335ea6a75906200264f9085906004016200352c565b6101806040518083038186803b1580156200266957600080fd5b505afa1580156200267e573d6000803e3d6000fd5b505050506040513d601f19601f82011682018060405250810190620026a49190620032fb565b90506000826001600160a01b03166370a082318360e001516040518263ffffffff1660e01b8152600401620026da91906200352c565b60206040518083038186803b158015620026f357600080fd5b505afa15801562002708573d6000803e3d6000fd5b505050506040513d601f19601f820116820180604052508101906200272e91906200347c565b9050801580156200274a575060608201516001600160801b0316155b604051806040016040528060028152602001610ccd60f21b815250906200200d5760405162461bcd60e51b81526004016200037891906200378c565b6038816200279657600062002799565b60015b8351670100000000000000191660ff9190911690911b1790915250565b604080518082019091526002815261373160f01b602082015261ffff821115620027f55760405162461bcd60e51b81526004016200037891906200378c565b50815169ffff0000000000000000191660409190911b179052565b5161ffff80821692601083901c821692602081901c831692603082901c60ff169260409290921c1690565b60405163278f794360e11b815283906001600160a01b03821690634f1ef286906200286d9086908690600401620035af565b600060405180830381600087803b1580156200288857600080fd5b505af11580156200289d573d6000803e3d6000fd5b5050505050505050565b603981620028b7576000620028ba565b60015b8351670200000000000000191660ff9190911690911b1790915250565b6000821580620028e5575081155b15620028f45750600062002995565b81620029046002612710620038e9565b62002912906000196200392c565b6200291e9190620038e9565b83111560405180604001604052806002815260200161068760f31b815250906200295d5760405162461bcd60e51b81526004016200037891906200378c565b506127106200296e600282620038e9565b6200297a84866200390a565b620029869190620038ce565b620029929190620038e9565b90505b92915050565b604080518082019091526002815261363760f01b602082015261ffff821115620029da5760405162461bcd60e51b81526004016200037891906200378c565b50815161ffff1916179052565b60408051808201909152600281526106c760f31b602082015261ffff82111562002a265760405162461bcd60e51b81526004016200037891906200378c565b50815163ffff0000191660109190911b179052565b604080518082019091526002815261363960f01b602082015261ffff82111562002a7a5760405162461bcd60e51b81526004016200037891906200378c565b50815165ffff00000000191660209190911b179052565b603a8162002aa157600062002aa4565b60015b8351670400000000000000191660ff9190911690911b1790915250565b603b8162002ad157600062002ad4565b60015b8351670800000000000000191660ff9190911690911b1790915250565b600190565b303b1590565b600062002be762002b11602084018462003126565b63183fb41360e01b8562002b2c60e0870160c0880162003126565b62002b3e60c0880160a0890162003126565b62002b51610100890160e08a0162003126565b62002b6360808a0160608b0162003495565b62002b736101208b018b6200385d565b62002b836101408d018d6200385d565b62002b936101e08f018f6200380e565b60405160240162002baf9b9a9998979695949392919062003688565b60408051601f198184030181529190526020810180516001600160e01b03166001600160e01b03199093169290921790915262002f91565b9050600062002c9862002c01604085016020860162003126565b603554636111764560e11b906001600160a01b031662002c2860c0880160a0890162003126565b62002c3b610100890160e08a0162003126565b62002c4d60808a0160608b0162003495565b62002c5d6101a08b018b6200385d565b62002c6d6101c08d018d6200385d565b62002c7d6101e08f018f6200380e565b60405160240162002baf9a999897969594939291906200374c565b9050600062002d3162002cb2606086016040870162003126565b603554636111764560e11b906001600160a01b031662002cd960c0890160a08a0162003126565b62002cec6101008a0160e08b0162003126565b62002cfe60808b0160608c0162003495565b62002d0e6101608c018c6200385d565b62002d1e6101808e018e6200385d565b8e806101e0019062002c7d91906200380e565b6035549091506001600160a01b0316637a708e9262002d5760c0870160a0880162003126565b85858562002d6c60a08b0160808c0162003126565b6040518663ffffffff1660e01b815260040162002d8e9594939291906200357d565b600060405180830381600087803b15801562002da957600080fd5b505af115801562002dbe573d6000803e3d6000fd5b5050603554600092506001600160a01b0316905063c44b11f762002de960c0880160a0890162003126565b6040518263ffffffff1660e01b815260040162002e0791906200352c565b60206040518083038186803b15801562002e2057600080fd5b505afa15801562002e35573d6000803e3d6000fd5b505050506040513d601f19601f8201168201806040525081019062002e5b9190620032dd565b905062002e7e62002e73608087016060880162003495565b829060ff166200303c565b62002e8b81600162002786565b62002e98816000620028a7565b6035546001600160a01b031663b8d2927662002ebb60c0880160a0890162003126565b83516040516001600160e01b031960e085901b16815262002ee1929190600401620035dd565b600060405180830381600087803b15801562002efc57600080fd5b505af115801562002f11573d6000803e3d6000fd5b5050506001600160a01b038516905062002f3260c0870160a0880162003126565b6001600160a01b03167f3a0ca721fc364424566385a1aa271ed508cc2c0949c2272575fb3013a163a45f858562002f7060a08b0160808c0162003126565b60405162002f81939291906200355a565b60405180910390a3505050505050565b6000803060405162002fa39062003092565b62002faf91906200352c565b604051809103906000f08015801562002fcc573d6000803e3d6000fd5b5060405163347d5e2560e21b81529091506001600160a01b0382169063d1f5789490620030009087908790600401620035af565b600060405180830381600087803b1580156200301b57600080fd5b505af115801562003030573d6000803e3d6000fd5b50929695505050505050565b604080518082019091526002815261037360f41b602082015260ff8211156200307a5760405162461bcd60e51b81526004016200037891906200378c565b50815166ff000000000000191660309190911b179052565b6108b180620039a483390190565b8051620030ad816200397a565b919050565b80358015158114620030ad57600080fd5b600060208284031215620030d5578081fd5b620030e1602062003895565b9151825250919050565b80516001600160801b0381168114620030ad57600080fd5b805164ffffffffff81168114620030ad57600080fd5b8051620030ad8162003993565b60006020828403121562003138578081fd5b813562003145816200397a565b9392505050565b6000602082840312156200315e578081fd5b815162003145816200397a565b600080604083850312156200317e578081fd5b82356200318b816200397a565b915060208301356200319d816200397a565b809150509250929050565b60008060408385031215620031bb578182fd5b8235620031c8816200397a565b9150620031d860208401620030b2565b90509250929050565b60008060408385031215620031f4578182fd5b823562003201816200397a565b946020939093013593505050565b6000806000806080858703121562003225578182fd5b843562003232816200397a565b966020860135965060408601359560600135945092505050565b600080602083850312156200325f578182fd5b823567ffffffffffffffff8082111562003277578384fd5b818501915085601f8301126200328b578384fd5b8135818111156200329a578485fd5b8660208083028501011115620032ae578485fd5b60209290920196919550909350505050565b600060208284031215620032d2578081fd5b6200299282620030b2565b600060208284031215620032ef578081fd5b620029928383620030c3565b60006101808083850312156200330f578182fd5b6200331a8162003895565b9050620033288484620030c3565b81526200333860208401620030eb565b60208201526200334b60408401620030eb565b60408201526200335e60608401620030eb565b60608201526200337160808401620030eb565b60808201526200338460a08401620030eb565b60a08201526200339760c0840162003103565b60c0820152620033aa60e08401620030a0565b60e0820152610100620033bf818501620030a0565b90820152610120620033d3848201620030a0565b90820152610140620033e7848201620030a0565b90820152610160620033fb84820162003119565b908201529392505050565b60006020828403121562003418578081fd5b813567ffffffffffffffff8111156200342f578182fd5b820160e0818503121562003145578182fd5b60006020828403121562003453578081fd5b813567ffffffffffffffff8111156200346a578182fd5b820160c0818503121562003145578182fd5b6000602082840312156200348e578081fd5b5051919050565b600060208284031215620034a7578081fd5b8135620031458162003993565b60008284528282602086013780602084860101526020601f19601f85011685010190509392505050565b60008151808452815b818110156200350557602081850181015186830182015201620034e7565b81811115620035175782602083870101525b50601f01601f19169290920160200192915050565b6001600160a01b0391909116815260200190565b6001600160a01b0392831681529116602082015260400190565b6001600160a01b0393841681529183166020830152909116604082015260600190565b6001600160a01b0395861681529385166020850152918416604084015283166060830152909116608082015260a00190565b6001600160a01b0383168152604060208201819052600090620035d590830184620034de565b949350505050565b6001600160a01b03929092168252602082015260400190565b901515815260200190565b6001600160a01b038c811682528b811660208301528a81166040830152891660608201526080810188905261010060a0820181905260009062003648838201898b620034b4565b905082810360c08401526200365f818789620034b4565b905082810360e084015262003676818587620034b4565b9e9d5050505050505050505050505050565b6001600160a01b038c811682528b811660208301528a811660408301528916606082015260ff8816608082015261010060a0820181905260009062003648838201898b620034b4565b6001600160a01b038b811682528a81166020830152891660408201526060810188905260e0608082018190526000906200370f908301888a620034b4565b82810360a084015262003724818789620034b4565b905082810360c08401526200373b818587620034b4565b9d9c50505050505050505050505050565b6001600160a01b038b811682528a811660208301528916604082015260ff8816606082015260e0608082018190526000906200370f908301888a620034b4565b600060208252620029926020830184620034de565b6020808252602e908201527f436f6e747261637420696e7374616e63652068617320616c726561647920626560408201526d195b881a5b9a5d1a585b1a5e995960921b606082015260800190565b90815260200190565b9283526020830191909152604082015260600190565b6000808335601e1984360301811262003825578283fd5b83018035915067ffffffffffffffff82111562003840578283fd5b6020019150368190038213156200385657600080fd5b9250929050565b6000808335601e1984360301811262003825578182fd5b600082356101fe198336030181126200388b578182fd5b9190910192915050565b60405181810167ffffffffffffffff81118282101715620038c657634e487b7160e01b600052604160045260246000fd5b604052919050565b60008219821115620038e457620038e462003964565b500190565b6000826200390557634e487b7160e01b81526012600452602481fd5b500490565b600081600019048311821515161562003927576200392762003964565b500290565b60008282101562003941576200394162003964565b500390565b60006000198214156200395d576200395d62003964565b5060010190565b634e487b7160e01b600052601160045260246000fd5b6001600160a01b03811681146200399057600080fd5b50565b60ff811681146200399057600080fdfe60a060405234801561001057600080fd5b506040516108b13803806108b183398101604081905261002f91610044565b60601b6001600160601b031916608052610072565b600060208284031215610055578081fd5b81516001600160a01b038116811461006b578182fd5b9392505050565b60805160601c6107fe6100b36000396000818161010a015281816101540152818161020d0152818161035a01528181610383015261049501526107fe6000f3fe60806040526004361061004e5760003560e01c80633659cfe61461005f5780634f1ef2861461007f5780635c60da1b14610092578063d1f57894146100bd578063f851a440146100d057610055565b3661005557005b61005d6100e5565b005b34801561006b57600080fd5b5061005d61007a366004610530565b6100ff565b61005d61008d366004610551565b610149565b34801561009e57600080fd5b506100a7610200565b6040516100b491906106cc565b60405180910390f35b61005d6100cb3660046105cf565b61024d565b3480156100dc57600080fd5b506100a761034d565b6100ed6103a7565b6100fd6100f86103af565b6103d4565b565b336001600160a01b037f000000000000000000000000000000000000000000000000000000000000000016141561013e57610139816103f8565b610146565b6101466100e5565b50565b336001600160a01b037f00000000000000000000000000000000000000000000000000000000000000001614156101f357610183836103f8565b6000836001600160a01b0316838360405161019f929190610683565b600060405180830381855af49150503d80600081146101da576040519150601f19603f3d011682016040523d82523d6000602084013e6101df565b606091505b50509050806101ed57600080fd5b506101fb565b6101fb6100e5565b505050565b6000336001600160a01b037f00000000000000000000000000000000000000000000000000000000000000001614156102425761023b6103af565b905061024a565b61024a6100e5565b90565b60006102576103af565b6001600160a01b03161461026a57600080fd5b61029560017f360894a13ba1a3210667c828492db98dca3e2076cc3735a920a3ca505d382bbd61078f565b7f360894a13ba1a3210667c828492db98dca3e2076cc3735a920a3ca505d382bbc146102d157634e487b7160e01b600052600160045260246000fd5b6102da82610438565b805115610349576000826001600160a01b0316826040516102fb9190610693565b600060405180830381855af49150503d8060008114610336576040519150601f19603f3d011682016040523d82523d6000602084013e61033b565b606091505b50509050806101fb57600080fd5b5050565b6000336001600160a01b037f000000000000000000000000000000000000000000000000000000000000000016141561024257507f000000000000000000000000000000000000000000000000000000000000000061024a565b6100fd61048a565b7f360894a13ba1a3210667c828492db98dca3e2076cc3735a920a3ca505d382bbc5490565b3660008037600080366000845af43d6000803e8080156103f3573d6000f35b3d6000fd5b61040181610438565b6040516001600160a01b038216907fbc7cd75a20ee27fd9adebab32041f755214dbc6bffa90cc0225b39da2e5c2d3b90600090a250565b610441816104db565b6104665760405162461bcd60e51b815260040161045d90610732565b60405180910390fd5b7f360894a13ba1a3210667c828492db98dca3e2076cc3735a920a3ca505d382bbc55565b336001600160a01b037f00000000000000000000000000000000000000000000000000000000000000001614156104d35760405162461bcd60e51b815260040161045d906106e0565b6100fd6100fd565b6000813f7fc5d2460186f7233c927e7db2dcc703c0e500b653ca82273b7bfad8045d85a47081811480159061050f57508115155b925050505b919050565b80356001600160a01b038116811461051457600080fd5b600060208284031215610541578081fd5b61054a82610519565b9392505050565b600080600060408486031215610565578182fd5b61056e84610519565b9250602084013567ffffffffffffffff8082111561058a578384fd5b818601915086601f83011261059d578384fd5b8135818111156105ab578485fd5b8760208285010111156105bc578485fd5b6020830194508093505050509250925092565b600080604083850312156105e1578182fd5b6105ea83610519565b915060208084013567ffffffffffffffff80821115610607578384fd5b818601915086601f83011261061a578384fd5b81358181111561062c5761062c6107b2565b604051601f8201601f191681018501838111828210171561064f5761064f6107b2565b6040528181528382018501891015610665578586fd5b81858501868301378585838301015280955050505050509250929050565b6000828483379101908152919050565b60008251815b818110156106b35760208186018101518583015201610699565b818111156106c15782828501525b509190910192915050565b6001600160a01b0391909116815260200190565b60208082526032908201527f43616e6e6f742063616c6c2066616c6c6261636b2066756e6374696f6e20667260408201527137b6903a343290383937bc3c9030b236b4b760711b606082015260800190565b6020808252603b908201527f43616e6e6f742073657420612070726f787920696d706c656d656e746174696f60408201527f6e20746f2061206e6f6e2d636f6e747261637420616464726573730000000000606082015260800190565b6000828210156107ad57634e487b7160e01b81526011600452602481fd5b500390565b634e487b7160e01b600052604160045260246000fdfea26469706673582212205ce9fd4f308f3069cd3ef266c02485b367c4f58529bc3c05f43ed6e0e21efce764736f6c63430008000033a2646970667358221220f6ace87154b302278ce90902a5bf6b59ffbeda5c428fe0a11f2fb9db83e906ff64736f6c63430008000033",
  "immutableReferences": {},
  "source": "// SPDX-License-Identifier: agpl-3.0\npragma solidity ^0.8.0;\npragma experimental ABIEncoderV2;\n\nimport {SafeMath} from '../dependencies/SafeMath.sol';\nimport {VersionedInitializable} from '../libraries/VersionedInitializable.sol';\nimport {\n  InitializableImmutableAdminUpgradeabilityProxy\n} from '../libraries/InitializableImmutableAdminUpgradeabilityProxy.sol';\nimport {ReserveConfiguration} from '../libraries/ReserveConfiguration.sol';\nimport {ILendingPoolAddressesProvider} from '../interfaces/ILendingPoolAddressesProvider.sol';\nimport {ILendingPool} from '../interfaces/ILendingPool.sol';\nimport {IERC20Detailed} from '../dependencies/IERC20Detailed.sol';\nimport {Errors} from '../libraries/Errors.sol';\nimport {PercentageMath} from '../libraries/PercentageMath.sol';\nimport {DataTypes} from '../libraries/DataTypes.sol';\nimport {IInitializableDebtToken} from '../interfaces/IInitializableDebtToken.sol';\nimport {IInitializableAToken} from '../interfaces/IInitializableAToken.sol';\nimport {IAaveIncentivesController} from '../interfaces/IAaveIncentivesController.sol';\nimport {ILendingPoolConfigurator} from '../interfaces/ILendingPoolConfigurator.sol';\n\n/**\n * @title LendingPoolConfigurator contract\n * @author Aave\n * @dev Implements the configuration methods for the Aave protocol\n **/\n\ncontract LendingPoolConfigurator is VersionedInitializable, ILendingPoolConfigurator {\n  using SafeMath for uint256;\n  using PercentageMath for uint256;\n  using ReserveConfiguration for DataTypes.ReserveConfigurationMap;\n\n  ILendingPoolAddressesProvider internal addressesProvider;\n  ILendingPool internal pool;\n\n  modifier onlyPoolAdmin {\n    require(addressesProvider.getPoolAdmin() == msg.sender, Errors.CALLER_NOT_POOL_ADMIN);\n    _;\n  }\n\n  modifier onlyEmergencyAdmin {\n    require(\n      addressesProvider.getEmergencyAdmin() == msg.sender,\n      Errors.LPC_CALLER_NOT_EMERGENCY_ADMIN\n    );\n    _;\n  }\n\n  uint256 internal constant CONFIGURATOR_REVISION = 0x1;\n\n  function getRevision() internal pure override returns (uint256) {\n    return CONFIGURATOR_REVISION;\n  }\n\n  function initialize(ILendingPoolAddressesProvider provider) public initializer {\n    addressesProvider = provider;\n    pool = ILendingPool(addressesProvider.getLendingPool());\n  }\n\n  /**\n   * @dev Initializes reserves in batch\n   **/\n  function batchInitReserve(InitReserveInput[] calldata input) external onlyPoolAdmin {\n    ILendingPool cachedPool = pool;\n    for (uint256 i = 0; i < input.length; i++) {\n      _initReserve(cachedPool, input[i]);\n    }\n  }\n\n  function _initReserve(ILendingPool _pool, InitReserveInput calldata input) internal {\n    address aTokenProxyAddress =\n      _initTokenWithProxy(\n        input.aTokenImpl,\n        abi.encodeWithSelector(\n          IInitializableAToken.initialize.selector,\n          _pool,\n          input.treasury,\n          input.underlyingAsset,\n          IAaveIncentivesController(input.incentivesController),\n          input.underlyingAssetDecimals,\n          input.aTokenName,\n          input.aTokenSymbol,\n          input.params\n        )\n      );\n\n    address stableDebtTokenProxyAddress =\n      _initTokenWithProxy(\n        input.stableDebtTokenImpl,\n        abi.encodeWithSelector(\n          IInitializableDebtToken.initialize.selector,\n          pool,\n          input.underlyingAsset,\n          IAaveIncentivesController(input.incentivesController),\n          input.underlyingAssetDecimals,\n          input.stableDebtTokenName,\n          input.stableDebtTokenSymbol,\n          input.params\n        )\n      );\n\n    address variableDebtTokenProxyAddress =\n      _initTokenWithProxy(\n        input.variableDebtTokenImpl,\n        abi.encodeWithSelector(\n          IInitializableDebtToken.initialize.selector,\n          pool,\n          input.underlyingAsset,\n          IAaveIncentivesController(input.incentivesController),\n          input.underlyingAssetDecimals,\n          input.variableDebtTokenName,\n          input.variableDebtTokenSymbol,\n          input.params\n        )\n      );\n\n    pool.initReserve(\n      input.underlyingAsset,\n      aTokenProxyAddress,\n      stableDebtTokenProxyAddress,\n      variableDebtTokenProxyAddress,\n      input.interestRateStrategyAddress\n    );\n\n    DataTypes.ReserveConfigurationMap memory currentConfig =\n      pool.getConfiguration(input.underlyingAsset);\n\n    currentConfig.setDecimals(input.underlyingAssetDecimals);\n\n    currentConfig.setActive(true);\n    currentConfig.setFrozen(false);\n\n    pool.setConfiguration(input.underlyingAsset, currentConfig.data);\n\n    emit ReserveInitialized(\n      input.underlyingAsset,\n      aTokenProxyAddress,\n      stableDebtTokenProxyAddress,\n      variableDebtTokenProxyAddress,\n      input.interestRateStrategyAddress\n    );\n  }\n\n  /**\n   * @dev Updates the aToken implementation for the reserve\n   **/\n  function updateAToken(UpdateATokenInput calldata input) external onlyPoolAdmin {\n    ILendingPool cachedPool = pool;\n\n    DataTypes.ReserveData memory reserveData = cachedPool.getReserveData(input.asset);\n\n    (, , , uint256 decimals, ) = cachedPool.getConfiguration(input.asset).getParamsMemory();\n\n    bytes memory encodedCall = abi.encodeWithSelector(\n        IInitializableAToken.initialize.selector,\n        cachedPool,\n        input.treasury,\n        input.asset,\n        input.incentivesController,\n        decimals,\n        input.name,\n        input.symbol,\n        input.params\n      );\n\n    _upgradeTokenImplementation(\n      reserveData.aTokenAddress,\n      input.implementation,\n      encodedCall\n    );\n\n    emit ATokenUpgraded(input.asset, reserveData.aTokenAddress, input.implementation);\n  }\n\n  /**\n   * @dev Updates the stable debt token implementation for the reserve\n   **/\n  function updateStableDebtToken(UpdateDebtTokenInput calldata input) external onlyPoolAdmin {\n    ILendingPool cachedPool = pool;\n\n    DataTypes.ReserveData memory reserveData = cachedPool.getReserveData(input.asset);\n     \n    (, , , uint256 decimals, ) = cachedPool.getConfiguration(input.asset).getParamsMemory();\n\n    bytes memory encodedCall = abi.encodeWithSelector(\n        IInitializableDebtToken.initialize.selector,\n        cachedPool,\n        input.asset,\n        input.incentivesController,\n        decimals,\n        input.name,\n        input.symbol,\n        input.params\n      );\n\n    _upgradeTokenImplementation(\n      reserveData.stableDebtTokenAddress,\n      input.implementation,\n      encodedCall\n    );\n\n    emit StableDebtTokenUpgraded(\n      input.asset,\n      reserveData.stableDebtTokenAddress,\n      input.implementation\n    );\n  }\n\n  /**\n   * @dev Updates the variable debt token implementation for the asset\n   **/\n  function updateVariableDebtToken(UpdateDebtTokenInput calldata input)\n    external\n    onlyPoolAdmin\n  {\n    ILendingPool cachedPool = pool;\n\n    DataTypes.ReserveData memory reserveData = cachedPool.getReserveData(input.asset);\n\n    (, , , uint256 decimals, ) = cachedPool.getConfiguration(input.asset).getParamsMemory();\n\n    bytes memory encodedCall = abi.encodeWithSelector(\n        IInitializableDebtToken.initialize.selector,\n        cachedPool,\n        input.asset,\n        input.incentivesController,\n        decimals,\n        input.name,\n        input.symbol,\n        input.params\n      );\n\n    _upgradeTokenImplementation(\n      reserveData.variableDebtTokenAddress,\n      input.implementation,\n      encodedCall\n    );\n\n    emit VariableDebtTokenUpgraded(\n      input.asset,\n      reserveData.variableDebtTokenAddress,\n      input.implementation\n    );\n  }\n\n  /**\n   * @dev Enables borrowing on a reserve\n   * @param asset The address of the underlying asset of the reserve\n   * @param stableBorrowRateEnabled True if stable borrow rate needs to be enabled by default on this reserve\n   **/\n  function enableBorrowingOnReserve(address asset, bool stableBorrowRateEnabled)\n    external\n    onlyPoolAdmin\n  {\n    DataTypes.ReserveConfigurationMap memory currentConfig = pool.getConfiguration(asset);\n\n    currentConfig.setBorrowingEnabled(true);\n    currentConfig.setStableRateBorrowingEnabled(stableBorrowRateEnabled);\n\n    pool.setConfiguration(asset, currentConfig.data);\n\n    emit BorrowingEnabledOnReserve(asset, stableBorrowRateEnabled);\n  }\n\n  /**\n   * @dev Disables borrowing on a reserve\n   * @param asset The address of the underlying asset of the reserve\n   **/\n  function disableBorrowingOnReserve(address asset) external onlyPoolAdmin {\n    DataTypes.ReserveConfigurationMap memory currentConfig = pool.getConfiguration(asset);\n\n    currentConfig.setBorrowingEnabled(false);\n\n    pool.setConfiguration(asset, currentConfig.data);\n    emit BorrowingDisabledOnReserve(asset);\n  }\n\n  /**\n   * @dev Configures the reserve collateralization parameters\n   * all the values are expressed in percentages with two decimals of precision. A valid value is 10000, which means 100.00%\n   * @param asset The address of the underlying asset of the reserve\n   * @param ltv The loan to value of the asset when used as collateral\n   * @param liquidationThreshold The threshold at which loans using this asset as collateral will be considered undercollateralized\n   * @param liquidationBonus The bonus liquidators receive to liquidate this asset. The values is always above 100%. A value of 105%\n   * means the liquidator will receive a 5% bonus\n   **/\n  function configureReserveAsCollateral(\n    address asset,\n    uint256 ltv,\n    uint256 liquidationThreshold,\n    uint256 liquidationBonus\n  ) external onlyPoolAdmin {\n    DataTypes.ReserveConfigurationMap memory currentConfig = pool.getConfiguration(asset);\n\n    //validation of the parameters: the LTV can\n    //only be lower or equal than the liquidation threshold\n    //(otherwise a loan against the asset would cause instantaneous liquidation)\n    require(ltv <= liquidationThreshold, Errors.LPC_INVALID_CONFIGURATION);\n\n    if (liquidationThreshold != 0) {\n      //liquidation bonus must be bigger than 100.00%, otherwise the liquidator would receive less\n      //collateral than needed to cover the debt\n      require(\n        liquidationBonus > PercentageMath.PERCENTAGE_FACTOR,\n        Errors.LPC_INVALID_CONFIGURATION\n      );\n\n      //if threshold * bonus is less than PERCENTAGE_FACTOR, it's guaranteed that at the moment\n      //a loan is taken there is enough collateral available to cover the liquidation bonus\n      require(\n        liquidationThreshold.percentMul(liquidationBonus) <= PercentageMath.PERCENTAGE_FACTOR,\n        Errors.LPC_INVALID_CONFIGURATION\n      );\n    } else {\n      require(liquidationBonus == 0, Errors.LPC_INVALID_CONFIGURATION);\n      //if the liquidation threshold is being set to 0,\n      // the reserve is being disabled as collateral. To do so,\n      //we need to ensure no liquidity is deposited\n      _checkNoLiquidity(asset);\n    }\n\n    currentConfig.setLtv(ltv);\n    currentConfig.setLiquidationThreshold(liquidationThreshold);\n    currentConfig.setLiquidationBonus(liquidationBonus);\n\n    pool.setConfiguration(asset, currentConfig.data);\n\n    emit CollateralConfigurationChanged(asset, ltv, liquidationThreshold, liquidationBonus);\n  }\n\n  /**\n   * @dev Enable stable rate borrowing on a reserve\n   * @param asset The address of the underlying asset of the reserve\n   **/\n  function enableReserveStableRate(address asset) external onlyPoolAdmin {\n    DataTypes.ReserveConfigurationMap memory currentConfig = pool.getConfiguration(asset);\n\n    currentConfig.setStableRateBorrowingEnabled(true);\n\n    pool.setConfiguration(asset, currentConfig.data);\n\n    emit StableRateEnabledOnReserve(asset);\n  }\n\n  /**\n   * @dev Disable stable rate borrowing on a reserve\n   * @param asset The address of the underlying asset of the reserve\n   **/\n  function disableReserveStableRate(address asset) external onlyPoolAdmin {\n    DataTypes.ReserveConfigurationMap memory currentConfig = pool.getConfiguration(asset);\n\n    currentConfig.setStableRateBorrowingEnabled(false);\n\n    pool.setConfiguration(asset, currentConfig.data);\n\n    emit StableRateDisabledOnReserve(asset);\n  }\n\n  /**\n   * @dev Activates a reserve\n   * @param asset The address of the underlying asset of the reserve\n   **/\n  function activateReserve(address asset) external onlyPoolAdmin {\n    DataTypes.ReserveConfigurationMap memory currentConfig = pool.getConfiguration(asset);\n\n    currentConfig.setActive(true);\n\n    pool.setConfiguration(asset, currentConfig.data);\n\n    emit ReserveActivated(asset);\n  }\n\n  /**\n   * @dev Deactivates a reserve\n   * @param asset The address of the underlying asset of the reserve\n   **/\n  function deactivateReserve(address asset) external onlyPoolAdmin {\n    _checkNoLiquidity(asset);\n\n    DataTypes.ReserveConfigurationMap memory currentConfig = pool.getConfiguration(asset);\n\n    currentConfig.setActive(false);\n\n    pool.setConfiguration(asset, currentConfig.data);\n\n    emit ReserveDeactivated(asset);\n  }\n\n  /**\n   * @dev Freezes a reserve. A frozen reserve doesn't allow any new deposit, borrow or rate swap\n   *  but allows repayments, liquidations, rate rebalances and withdrawals\n   * @param asset The address of the underlying asset of the reserve\n   **/\n  function freezeReserve(address asset) external onlyPoolAdmin {\n    DataTypes.ReserveConfigurationMap memory currentConfig = pool.getConfiguration(asset);\n\n    currentConfig.setFrozen(true);\n\n    pool.setConfiguration(asset, currentConfig.data);\n\n    emit ReserveFrozen(asset);\n  }\n\n  /**\n   * @dev Unfreezes a reserve\n   * @param asset The address of the underlying asset of the reserve\n   **/\n  function unfreezeReserve(address asset) external onlyPoolAdmin {\n    DataTypes.ReserveConfigurationMap memory currentConfig = pool.getConfiguration(asset);\n\n    currentConfig.setFrozen(false);\n\n    pool.setConfiguration(asset, currentConfig.data);\n\n    emit ReserveUnfrozen(asset);\n  }\n\n  /**\n   * @dev Updates the reserve factor of a reserve\n   * @param asset The address of the underlying asset of the reserve\n   * @param reserveFactor The new reserve factor of the reserve\n   **/\n  function setReserveFactor(address asset, uint256 reserveFactor) external onlyPoolAdmin {\n    DataTypes.ReserveConfigurationMap memory currentConfig = pool.getConfiguration(asset);\n\n    currentConfig.setReserveFactor(reserveFactor);\n\n    pool.setConfiguration(asset, currentConfig.data);\n\n    emit ReserveFactorChanged(asset, reserveFactor);\n  }\n\n  /**\n   * @dev Sets the interest rate strategy of a reserve\n   * @param asset The address of the underlying asset of the reserve\n   * @param rateStrategyAddress The new address of the interest strategy contract\n   **/\n  function setReserveInterestRateStrategyAddress(address asset, address rateStrategyAddress)\n    external\n    onlyPoolAdmin\n  {\n    pool.setReserveInterestRateStrategyAddress(asset, rateStrategyAddress);\n    emit ReserveInterestRateStrategyChanged(asset, rateStrategyAddress);\n  }\n\n  /**\n   * @dev pauses or unpauses all the actions of the protocol, including aToken transfers\n   * @param val true if protocol needs to be paused, false otherwise\n   **/\n  function setPoolPause(bool val) external onlyEmergencyAdmin {\n    pool.setPause(val);\n  }\n\n  function _initTokenWithProxy(address implementation, bytes memory initParams)\n    internal\n    returns (address)\n  {\n    InitializableImmutableAdminUpgradeabilityProxy proxy =\n      new InitializableImmutableAdminUpgradeabilityProxy(address(this));\n\n    proxy.initialize(implementation, initParams);\n\n    return address(proxy);\n  }\n\n  function _upgradeTokenImplementation(\n    address proxyAddress,\n    address implementation,\n    bytes memory initParams\n  ) internal {\n    InitializableImmutableAdminUpgradeabilityProxy proxy =\n      InitializableImmutableAdminUpgradeabilityProxy(payable(proxyAddress));\n\n    proxy.upgradeToAndCall(implementation, initParams);\n  }\n\n  function _checkNoLiquidity(address asset) internal view {\n    DataTypes.ReserveData memory reserveData = pool.getReserveData(asset);\n\n    uint256 availableLiquidity = IERC20Detailed(asset).balanceOf(reserveData.aTokenAddress);\n\n    require(\n      availableLiquidity == 0 && reserveData.currentLiquidityRate == 0,\n      Errors.LPC_RESERVE_LIQUIDITY_NOT_0\n    );\n  }\n}\n",
  "sourcePath": "/Users/dennismacpro/Projects/Defi/Ethereum-Solidity-Collection/icarus-protocol/defi-seeder/contracts/aave/v2/lendingpool/LendingPoolConfigurator.sol",
  "compiler": {
    "name": "solc",
    "version": "0.8.0+commit.c7dfd78e.Emscripten.clang"
  },
  "schemaVersion": "3.3.4",
  "updatedAt": "2021-04-01T18:51:07.976Z",
  "devdoc": {
    "author": "Aave",
    "details": "Implements the configuration methods for the Aave protocol*",
    "kind": "dev",
    "methods": {
      "activateReserve(address)": {
        "details": "Activates a reserve",
        "params": {
          "asset": "The address of the underlying asset of the reserve*"
        }
      },
      "batchInitReserve((address,address,address,uint8,address,address,address,address,string,string,string,string,string,string,string,bytes)[])": {
        "details": "Initializes reserves in batch*"
      },
      "configureReserveAsCollateral(address,uint256,uint256,uint256)": {
        "details": "Configures the reserve collateralization parameters all the values are expressed in percentages with two decimals of precision. A valid value is 10000, which means 100.00%",
        "params": {
          "asset": "The address of the underlying asset of the reserve",
          "liquidationBonus": "The bonus liquidators receive to liquidate this asset. The values is always above 100%. A value of 105% means the liquidator will receive a 5% bonus*",
          "liquidationThreshold": "The threshold at which loans using this asset as collateral will be considered undercollateralized",
          "ltv": "The loan to value of the asset when used as collateral"
        }
      },
      "deactivateReserve(address)": {
        "details": "Deactivates a reserve",
        "params": {
          "asset": "The address of the underlying asset of the reserve*"
        }
      },
      "disableBorrowingOnReserve(address)": {
        "details": "Disables borrowing on a reserve",
        "params": {
          "asset": "The address of the underlying asset of the reserve*"
        }
      },
      "disableReserveStableRate(address)": {
        "details": "Disable stable rate borrowing on a reserve",
        "params": {
          "asset": "The address of the underlying asset of the reserve*"
        }
      },
      "enableBorrowingOnReserve(address,bool)": {
        "details": "Enables borrowing on a reserve",
        "params": {
          "asset": "The address of the underlying asset of the reserve",
          "stableBorrowRateEnabled": "True if stable borrow rate needs to be enabled by default on this reserve*"
        }
      },
      "enableReserveStableRate(address)": {
        "details": "Enable stable rate borrowing on a reserve",
        "params": {
          "asset": "The address of the underlying asset of the reserve*"
        }
      },
      "freezeReserve(address)": {
        "details": "Freezes a reserve. A frozen reserve doesn't allow any new deposit, borrow or rate swap  but allows repayments, liquidations, rate rebalances and withdrawals",
        "params": {
          "asset": "The address of the underlying asset of the reserve*"
        }
      },
      "setPoolPause(bool)": {
        "details": "pauses or unpauses all the actions of the protocol, including aToken transfers",
        "params": {
          "val": "true if protocol needs to be paused, false otherwise*"
        }
      },
      "setReserveFactor(address,uint256)": {
        "details": "Updates the reserve factor of a reserve",
        "params": {
          "asset": "The address of the underlying asset of the reserve",
          "reserveFactor": "The new reserve factor of the reserve*"
        }
      },
      "setReserveInterestRateStrategyAddress(address,address)": {
        "details": "Sets the interest rate strategy of a reserve",
        "params": {
          "asset": "The address of the underlying asset of the reserve",
          "rateStrategyAddress": "The new address of the interest strategy contract*"
        }
      },
      "unfreezeReserve(address)": {
        "details": "Unfreezes a reserve",
        "params": {
          "asset": "The address of the underlying asset of the reserve*"
        }
      },
      "updateAToken((address,address,address,string,string,address,bytes))": {
        "details": "Updates the aToken implementation for the reserve*"
      },
      "updateStableDebtToken((address,address,string,string,address,bytes))": {
        "details": "Updates the stable debt token implementation for the reserve*"
      },
      "updateVariableDebtToken((address,address,string,string,address,bytes))": {
        "details": "Updates the variable debt token implementation for the asset*"
      }
    },
    "title": "LendingPoolConfigurator contract",
    "version": 1
  },
  "userdoc": {
    "kind": "user",
    "methods": {},
    "version": 1
  }
}