{
  "contractName": "ValidationLogic",
  "abi": [
    {
      "inputs": [],
      "name": "REBALANCE_UP_LIQUIDITY_RATE_THRESHOLD",
      "outputs": [
        {
          "internalType": "uint256",
          "name": "",
          "type": "uint256"
        }
      ],
      "stateMutability": "view",
      "type": "function"
    },
    {
      "inputs": [],
      "name": "REBALANCE_UP_USAGE_RATIO_THRESHOLD",
      "outputs": [
        {
          "internalType": "uint256",
          "name": "",
          "type": "uint256"
        }
      ],
      "stateMutability": "view",
      "type": "function"
    }
  ],
  "bytecode": "0x61235661003a600b82828239805160001a60731461002d57634e487b7160e01b600052600060045260246000fd5b30600052607381538281f3fe730000000000000000000000000000000000000000301460806040526004361061009d5760003560e01c8063721a92f911610070578063721a92f9146100fb578063a8695b1d1461010e578063abfcc86a14610121578063d09db04a14610129578063fa0c21491461013c5761009d565b80630eca322b146100a2578063548cad09146100b75780635494eb8a146100ca5780635fa297e5146100e8575b600080fd5b6100b56100b0366004611f88565b61014f565b005b6100b56100c5366004611ed9565b610217565b6100d261050d565b6040516100df919061213e565b60405180910390f35b6100b56100f6366004611e6f565b61051d565b6100b5610109366004611d3d565b6106c2565b6100b561011c366004611f40565b610b8a565b6100d2610e4b565b6100b5610137366004611de1565b610e51565b6100b561014a366004611fa9565b610fef565b60008061015b8461115d565b50506040805180820190915260018152603160f81b60208201529193509150836101a15760405162461bcd60e51b81526004016101989190612073565b60405180910390fd5b506040805180820190915260018152601960f91b6020820152826101d85760405162461bcd60e51b81526004016101989190612073565b506040805180820190915260018152603360f81b602082015281156102105760405162461bcd60e51b81526004016101989190612073565b5050505050565b60006102228661115d565b505050905080604051806040016040528060018152602001601960f91b815250906102605760405162461bcd60e51b81526004016101989190612073565b506000610356610351856001600160a01b03166318160ddd6040518163ffffffff1660e01b815260040160206040518083038186803b1580156102a257600080fd5b505afa1580156102b6573d6000803e3d6000fd5b505050506040513d601f19601f820116820180604052508101906102da9190612002565b876001600160a01b03166318160ddd6040518163ffffffff1660e01b815260040160206040518083038186803b15801561031357600080fd5b505afa158015610327573d6000803e3d6000fd5b505050506040513d601f19601f8201168201806040525081019061034b9190612002565b90611195565b6111cd565b905060006103d9876001600160a01b03166370a08231866040518263ffffffff1660e01b8152600401610389919061201a565b60206040518083038186803b1580156103a157600080fd5b505afa1580156103b5573d6000803e3d6000fd5b505050506040513d601f19601f820116820180604052508101906103519190612002565b9050600082156103fc576103f76103f08385611195565b8490611232565b6103ff565b60005b60028a015460078b0154604080516380031e3760e01b815290519394506fffffffffffffffffffffffffffffffff909216926000926001600160a01b03909216916380031e37916004808301926020929190829003018186803b15801561046557600080fd5b505afa158015610479573d6000803e3d6000fd5b505050506040513d601f19601f8201168201806040525081019061049d9190612002565b90506b0311d253316c79d37600000083101580156104c657506104c281610fa0611310565b8211155b60405180604001604052806002815260200161191960f11b815250906104ff5760405162461bcd60e51b81526004016101989190612073565b505050505050505050505050565b6b0311d253316c79d37600000081565b6004808901546040516370a0823160e01b81526000926001600160a01b03909216916370a08231916105519133910161201a565b60206040518083038186803b15801561056957600080fd5b505afa15801561057d573d6000803e3d6000fd5b505050506040513d601f19601f820116820180604052508101906105a19190612002565b90506000811160405180604001604052806002815260200161313960f01b815250906105e05760405162461bcd60e51b81526004016101989190612073565b50868061067d5750604051633985c10960e21b815273__GenericLogic__________________________9063e61704249061062d908b90339086908c908c908c908c908c9060040161202e565b60206040518083038186803b15801561064557600080fd5b505af4158015610659573d6000803e3d6000fd5b505050506040513d601f19601f8201168201806040525081019061067d9190611e53565b60405180604001604052806002815260200161032360f41b815250906106b65760405162461bcd60e51b81526004016101989190612073565b50505050505050505050565b6106ca611c32565b6106d38c61115d565b151561014085015215156101208401521515610100830152151560e082018190526040805180820190915260018152601960f91b60208201529061072a5760405162461bcd60e51b81526004016101989190612073565b5080610100015115604051806040016040528060018152602001603360f81b8152509061076a5760405162461bcd60e51b81526004016101989190612073565b506040805180820190915260018152603160f81b60208201528a6107a15760405162461bcd60e51b81526004016101989190612073565b50806101200151604051806040016040528060018152602001603760f81b815250906107e05760405162461bcd60e51b81526004016101989190612073565b5087600214806107f05750876001145b604051806040016040528060018152602001600760fb1b815250906108285760405162461bcd60e51b81526004016101989190612073565b50604080516020810190915285548152610848908c9088908787876113b7565b60c08601526020808601919091529084526080840191909152606083018290526040805180820190915260018152603960f81b91810191909152906108a05760405162461bcd60e51b81526004016101989190612073565b50670de0b6b3a76400008160c001511160405180604001604052806002815260200161031360f41b815250906108e95760405162461bcd60e51b81526004016101989190612073565b50805160808201516109069190610900908c611195565b9061188e565b6040808301829052606083015181518083019092526002825261313160f01b60208301529091111561094b5760405162461bcd60e51b81526004016101989190612073565b506001881415610b7b5780610140015160405180604001604052806002815260200161189960f11b815250906109945760405162461bcd60e51b81526004016101989190612073565b5060078c01546040805160208101909152865481526109bc91600160a01b900460ff1661193c565b15806109ce57506109cc8c6119a2565b155b80610a5857506004808d01546040516370a0823160e01b81526001600160a01b03909116916370a0823191610a05918f910161201a565b60206040518083038186803b158015610a1d57600080fd5b505afa158015610a31573d6000803e3d6000fd5b505050506040513d601f19601f82011682018060405250810190610a559190612002565b8a115b60405180604001604052806002815260200161313360f01b81525090610a915760405162461bcd60e51b81526004016101989190612073565b508c6001600160a01b03166370a082318d60040160009054906101000a90046001600160a01b03166040518263ffffffff1660e01b8152600401610ad5919061201a565b60206040518083038186803b158015610aed57600080fd5b505afa158015610b01573d6000803e3d6000fd5b505050506040513d601f19601f82011682018060405250810190610b259190612002565b60a08201819052600090610b399089611310565b9050808b1115604051806040016040528060028152602001610c4d60f21b81525090610b785760405162461bcd60e51b81526004016101989190612073565b50505b50505050505050505050505050565b60008080610b978861115d565b9350509250925082604051806040016040528060018152602001601960f91b81525090610bd75760405162461bcd60e51b81526004016101989190612073565b506040805180820190915260018152603360f81b60208201528215610c0f5760405162461bcd60e51b81526004016101989190612073565b506001846002811115610c3257634e487b7160e01b600052602160045260246000fd5b1415610c7557604080518082019091526002815261313760f01b602082015286610c6f5760405162461bcd60e51b81526004016101989190612073565b50610e41565b6002846002811115610c9757634e487b7160e01b600052602160045260246000fd5b1415610e1257604080518082019091526002815261062760f31b602082015285610cd45760405162461bcd60e51b81526004016101989190612073565b50604080518082019091526002815261189960f11b602082015281610d0c5760405162461bcd60e51b81526004016101989190612073565b506007880154604080516020810190915288548152610d3491600160a01b900460ff1661193c565b1580610d465750610d44886119a2565b155b80610dd957506004808901546040516370a0823160e01b81526001600160a01b03909116916370a0823191610d7d9133910161201a565b60206040518083038186803b158015610d9557600080fd5b505afa158015610da9573d6000803e3d6000fd5b505050506040513d601f19601f82011682018060405250810190610dcd9190612002565b610dd78787611195565b115b60405180604001604052806002815260200161313360f01b81525090610c6f5760405162461bcd60e51b81526004016101989190612073565b60408051808201825260018152600760fb1b6020820152905162461bcd60e51b81526101989190600401612073565b5050505050505050565b610fa081565b6040805180820190915260018152603160f81b602082015287610e875760405162461bcd60e51b81526004016101989190612073565b506040805180820190915260018152603560f81b602082015286881115610ec15760405162461bcd60e51b81526004016101989190612073565b506001600160a01b0388166000908152602086905260408120610ee39061115d565b505050905080604051806040016040528060018152602001601960f91b81525090610f215760405162461bcd60e51b81526004016101989190612073565b50604051633985c10960e21b815273__GenericLogic__________________________9063e617042490610f67908c9033908d908c908c908c908c908c9060040161202e565b60206040518083038186803b158015610f7f57600080fd5b505af4158015610f93573d6000803e3d6000fd5b505050506040513d601f19601f82011682018060405250810190610fb79190611e53565b604051806040016040528060018152602001601b60f91b815250906106b65760405162461bcd60e51b81526004016101989190612073565b6000610ffa876119aa565b905080604051806040016040528060018152602001601960f91b815250906110355760405162461bcd60e51b81526004016101989190612073565b506040805180820190915260018152603160f81b60208201528661106c5760405162461bcd60e51b81526004016101989190612073565b5060008311801561109c5750600185600281111561109a57634e487b7160e01b600052602160045260246000fd5b145b806110d157506000821180156110d1575060028560028111156110cf57634e487b7160e01b600052602160045260246000fd5b145b60405180604001604052806002815260200161313560f01b8152509061110a5760405162461bcd60e51b81526004016101989190612073565b50600019861415806111245750336001600160a01b038516145b60405180604001604052806002815260200161189b60f11b81525090610e415760405162461bcd60e51b81526004016101989190612073565b54600160381b811615159167020000000000000082161515916704000000000000008116151591670800000000000000909116151590565b6000806111a28385612147565b9050838110156111c45760405162461bcd60e51b8152600401610198906120c6565b90505b92915050565b6000806111de633b9aca0084612293565b9050826111ef633b9aca008361215f565b1460405180604001604052806002815260200161068760f31b815250906112295760405162461bcd60e51b81526004016101989190612073565b5090505b919050565b604080518082019091526002815261035360f41b60208201526000908261126c5760405162461bcd60e51b81526004016101989190612073565b50600061127a60028461215f565b90506b033b2e3c9fd0803ce8000000611295826000196122b2565b61129f919061215f565b84111560405180604001604052806002815260200161068760f31b815250906112db5760405162461bcd60e51b81526004016101989190612073565b5082816112f46b033b2e3c9fd0803ce800000087612293565b6112fe9190612147565b611308919061215f565b949350505050565b600082158061131d575081155b1561132a575060006111c7565b81611338600261271061215f565b611344906000196122b2565b61134e919061215f565b83111560405180604001604052806002815260200161068760f31b8152509061138a5760405162461bcd60e51b81526004016101989190612073565b5061271061139960028261215f565b6113a38486612293565b6113ad9190612147565b6111c4919061215f565b60008060008060006113c7611c94565b6113d08a6119b6565b156113ee576000806000806000199550955095509550955050611880565b600060e08201525b878160e0015110156117df5760e0810151611412908b906119bb565b61141b576117c7565b60e0810151600090815260208a81526040808320546001600160a01b03166101e085018190528352908d9052902061145281611a16565b506080860181905260c08601929092525060a084019190915261147690600a6121c5565b60208301526101e082015160405163b3596f0760e01b81526001600160a01b038a169163b3596f07916114ac919060040161201a565b60206040518083038186803b1580156114c457600080fd5b505afa1580156114d8573d6000803e3d6000fd5b505050506040513d601f19601f820116820180604052508101906114fc9190612002565b825260c08201511580159061151c575060e082015161151c908c9061193c565b15611640578060040160009054906101000a90046001600160a01b03166001600160a01b03166370a082318e6040518263ffffffff1660e01b8152600401611564919061201a565b60206040518083038186803b15801561157c57600080fd5b505afa158015611590573d6000803e3d6000fd5b505050506040513d601f19601f820116820180604052508101906115b49190612002565b60408301819052602083015183516000926115d992916115d391611a41565b90611a86565b6101208401519091506115ec9082611195565b61012084015260a083015161161290611606908390611a41565b61016085015190611195565b61016084015260c08301516116389061162c908390611a41565b61018085015190611195565b610180840152505b60e0820151611650908c90611ac8565b156117c5578060050160009054906101000a90046001600160a01b03166001600160a01b03166370a082318e6040518263ffffffff1660e01b8152600401611698919061201a565b60206040518083038186803b1580156116b057600080fd5b505afa1580156116c4573d6000803e3d6000fd5b505050506040513d601f19601f820116820180604052508101906116e89190612002565b8260600181815250506117928160060160009054906101000a90046001600160a01b03166001600160a01b03166370a082318f6040518263ffffffff1660e01b8152600401611737919061201a565b60206040518083038186803b15801561174f57600080fd5b505afa158015611763573d6000803e3d6000fd5b505050506040513d601f19601f820116820180604052508101906117879190612002565b606084015190611195565b60608301819052602083015183516117be926117b292916115d391611a41565b61014084015190611195565b6101408301525b505b60e081018051906117d7826122c9565b9052506113f6565b6000816101200151116117f3576000611808565b61012081015161016082015161180891611a86565b61016082015261012081015161181f576000611834565b61012081015161018082015161183491611a86565b610180820181905261012082015161014083015161185192611b13565b610100820181905261012082015161014083015161016084015161018090940151919850965091945090925090505b965096509650965096915050565b604080518082019091526002815261035360f41b6020820152600090826118c85760405162461bcd60e51b81526004016101989190612073565b5060006118d660028461215f565b90506127106118e7826000196122b2565b6118f1919061215f565b84111560405180604001604052806002815260200161068760f31b8152509061192d5760405162461bcd60e51b81526004016101989190612073565b5082816112f461271087612293565b60006080821060405180604001604052806002815260200161373760f01b8152509061197b5760405162461bcd60e51b81526004016101989190612073565b50611987826002612293565b611992906001612147565b925190921c600116151592915050565b5461ffff1690565b54600160381b16151590565b511590565b60006080821060405180604001604052806002815260200161373760f01b815250906119fa5760405162461bcd60e51b81526004016101989190612073565b50611a06826002612293565b925190921c600316151592915050565b5461ffff80821692601083901c821692602081901c831692603082901c60ff169260409290921c1690565b600082611a50575060006111c7565b6000611a5c8385612293565b905082611a69858361215f565b146111c45760405162461bcd60e51b8152600401610198906120fd565b60006111c483836040518060400160405280601a81526020017f536166654d6174683a206469766973696f6e206279207a65726f000000000000815250611b41565b60006080821060405180604001604052806002815260200161373760f01b81525090611b075760405162461bcd60e51b81526004016101989190612073565b50611992826002612293565b600082611b235750600019611b3a565b611b3783611b318685611310565b90611b78565b90505b9392505050565b60008183611b625760405162461bcd60e51b81526004016101989190612073565b506000611b6f848661215f565b95945050505050565b604080518082019091526002815261035360f41b602082015260009082611bb25760405162461bcd60e51b81526004016101989190612073565b506000611bc060028461215f565b9050670de0b6b3a7640000611bd7826000196122b2565b611be1919061215f565b84111560405180604001604052806002815260200161068760f31b81525090611c1d5760405162461bcd60e51b81526004016101989190612073565b5082816112f4670de0b6b3a764000087612293565b604051806101600160405280600081526020016000815260200160008152602001600081526020016000815260200160008152602001600081526020016000151581526020016000151581526020016000151581526020016000151581525090565b604051806102400160405280600081526020016000815260200160008152602001600081526020016000815260200160008152602001600081526020016000815260200160008152602001600081526020016000815260200160008152602001600081526020016000815260200160001515815260200160006001600160a01b031681526020016000151581526020016000151581525090565b80356003811061122d57600080fd5b6000806000806000806000806000806000806101808d8f031215611d5f578788fd5b8c35611d6a816122fa565b9b5060208d01359a5060408d0135611d81816122fa565b995060608d0135985060808d0135975060a08d0135965060c08d0135955060e08d013594506101008d013593506101208d013592506101408d013591506101608d0135611dcd816122fa565b809150509295989b509295989b509295989b565b600080600080600080600080610100898b031215611dfd578384fd5b8835611e08816122fa565b97506020890135965060408901359550606089013594506080890135935060a0890135925060c0890135915060e0890135611e42816122fa565b809150509295985092959890939650565b600060208284031215611e64578081fd5b81516111c481612312565b600080600080600080600080610100898b031215611e8b578384fd5b883597506020890135611e9d816122fa565b96506040890135611ead81612312565b9550606089013594506080890135935060a0890135925060c0890135915060e0890135611e42816122fa565b600080600080600060a08688031215611ef0578081fd5b853594506020860135611f02816122fa565b93506040860135611f12816122fa565b92506060860135611f22816122fa565b91506080860135611f32816122fa565b809150509295509295909350565b600080600080600060a08688031215611f57578081fd5b85359450602086013593506040860135925060608601359150611f7c60808701611d2e565b90509295509295909350565b60008060408385031215611f9a578182fd5b50508035926020909101359150565b60008060008060008060c08789031215611fc1578384fd5b8635955060208701359450611fd860408801611d2e565b93506060870135611fe8816122fa565b9598949750929560808101359460a0909101359350915050565b600060208284031215612013578081fd5b5051919050565b6001600160a01b0391909116815260200190565b6001600160a01b0398891681529688166020880152604087019590955260608601939093529054608085015260a084015260c083015290911660e08201526101000190565b6000602080835283518082850152825b8181101561209f57858101830151858201604001528201612083565b818111156120b05783604083870101525b50601f01601f1916929092016040019392505050565b6020808252601b908201527f536166654d6174683a206164646974696f6e206f766572666c6f770000000000604082015260600190565b60208082526021908201527f536166654d6174683a206d756c7469706c69636174696f6e206f766572666c6f6040820152607760f81b606082015260800190565b90815260200190565b6000821982111561215a5761215a6122e4565b500190565b60008261217a57634e487b7160e01b81526012600452602481fd5b500490565b80825b600180861161219157506121bc565b8187048211156121a3576121a36122e4565b808616156121b057918102915b9490941c938002612182565b94509492505050565b60006111c460001984846000826121de57506001611b3a565b816121eb57506000611b3a565b8160018114612201576002811461220b57612238565b6001915050611b3a565b60ff84111561221c5761221c6122e4565b6001841b915084821115612232576122326122e4565b50611b3a565b5060208310610133831016604e8410600b841016171561226b575081810a83811115612266576122666122e4565b611b3a565b612278848484600161217f565b80860482111561228a5761228a6122e4565b02949350505050565b60008160001904831182151516156122ad576122ad6122e4565b500290565b6000828210156122c4576122c46122e4565b500390565b60006000198214156122dd576122dd6122e4565b5060010190565b634e487b7160e01b600052601160045260246000fd5b6001600160a01b038116811461230f57600080fd5b50565b801515811461230f57600080fdfea2646970667358221220814a60d98cf0cd8438dd0aa9e536123a74f2d670aa043fb706d0995284814f6c64736f6c63430008000033",
  "immutableReferences": {},
  "source": "// SPDX-License-Identifier: agpl-3.0\npragma solidity ^0.8.0;\npragma experimental ABIEncoderV2;\n\nimport {SafeMath} from '../dependencies/SafeMath.sol';\nimport {IERC20} from '../dependencies/IERC20.sol';\nimport {ReserveLogic} from './ReserveLogic.sol';\nimport {GenericLogic} from './GenericLogic.sol';\nimport {WadRayMath} from './WadRayMath.sol';\nimport {PercentageMath} from './PercentageMath.sol';\nimport {SafeERC20} from '../dependencies/SafeERC20.sol';\nimport {ReserveConfiguration} from './ReserveConfiguration.sol';\nimport {UserConfiguration} from './UserConfiguration.sol';\nimport {Errors} from './Errors.sol';\nimport {Helpers} from './Helpers.sol';\nimport {IReserveInterestRateStrategy} from '../interfaces/IReserveInterestRateStrategy.sol';\nimport {DataTypes} from './DataTypes.sol';\n\n/**\n * @title ReserveLogic library\n * @author Aave\n * @notice Implements functions to validate the different actions of the protocol\n */\nlibrary ValidationLogic {\n  using ReserveLogic for DataTypes.ReserveData;\n  using SafeMath for uint256;\n  using WadRayMath for uint256;\n  using PercentageMath for uint256;\n  using SafeERC20 for IERC20;\n  using ReserveConfiguration for DataTypes.ReserveConfigurationMap;\n  using UserConfiguration for DataTypes.UserConfigurationMap;\n\n  uint256 public constant REBALANCE_UP_LIQUIDITY_RATE_THRESHOLD = 4000;\n  uint256 public constant REBALANCE_UP_USAGE_RATIO_THRESHOLD = 0.95 * 1e27; //usage ratio of 95%\n\n  /**\n   * @dev Validates a deposit action\n   * @param reserve The reserve object on which the user is depositing\n   * @param amount The amount to be deposited\n   */\n  function validateDeposit(DataTypes.ReserveData storage reserve, uint256 amount) external view {\n    (bool isActive, bool isFrozen, , ) = reserve.configuration.getFlags();\n\n    require(amount != 0, Errors.VL_INVALID_AMOUNT);\n    require(isActive, Errors.VL_NO_ACTIVE_RESERVE);\n    require(!isFrozen, Errors.VL_RESERVE_FROZEN);\n  }\n\n  /**\n   * @dev Validates a withdraw action\n   * @param reserveAddress The address of the reserve\n   * @param amount The amount to be withdrawn\n   * @param userBalance The balance of the user\n   * @param reservesData The reserves state\n   * @param userConfig The user configuration\n   * @param reserves The addresses of the reserves\n   * @param reservesCount The number of reserves\n   * @param oracle The price oracle\n   */\n  function validateWithdraw(\n    address reserveAddress,\n    uint256 amount,\n    uint256 userBalance,\n    mapping(address => DataTypes.ReserveData) storage reservesData,\n    DataTypes.UserConfigurationMap storage userConfig,\n    mapping(uint256 => address) storage reserves,\n    uint256 reservesCount,\n    address oracle\n  ) external view {\n    require(amount != 0, Errors.VL_INVALID_AMOUNT);\n    require(amount <= userBalance, Errors.VL_NOT_ENOUGH_AVAILABLE_USER_BALANCE);\n\n    (bool isActive, , , ) = reservesData[reserveAddress].configuration.getFlags();\n    require(isActive, Errors.VL_NO_ACTIVE_RESERVE);\n\n    require(\n      GenericLogic.balanceDecreaseAllowed(\n        reserveAddress,\n        msg.sender,\n        amount,\n        reservesData,\n        userConfig,\n        reserves,\n        reservesCount,\n        oracle\n      ),\n      Errors.VL_TRANSFER_NOT_ALLOWED\n    );\n  }\n\n  struct ValidateBorrowLocalVars {\n    uint256 currentLtv;\n    uint256 currentLiquidationThreshold;\n    uint256 amountOfCollateralNeededETH;\n    uint256 userCollateralBalanceETH;\n    uint256 userBorrowBalanceETH;\n    uint256 availableLiquidity;\n    uint256 healthFactor;\n    bool isActive;\n    bool isFrozen;\n    bool borrowingEnabled;\n    bool stableRateBorrowingEnabled;\n  }\n\n  /**\n   * @dev Validates a borrow action\n   * @param asset The address of the asset to borrow\n   * @param reserve The reserve state from which the user is borrowing\n   * @param userAddress The address of the user\n   * @param amount The amount to be borrowed\n   * @param amountInETH The amount to be borrowed, in ETH\n   * @param interestRateMode The interest rate mode at which the user is borrowing\n   * @param maxStableLoanPercent The max amount of the liquidity that can be borrowed at stable rate, in percentage\n   * @param reservesData The state of all the reserves\n   * @param userConfig The state of the user for the specific reserve\n   * @param reserves The addresses of all the active reserves\n   * @param oracle The price oracle\n   */\n\n  function validateBorrow(\n    address asset,\n    DataTypes.ReserveData storage reserve,\n    address userAddress,\n    uint256 amount,\n    uint256 amountInETH,\n    uint256 interestRateMode,\n    uint256 maxStableLoanPercent,\n    mapping(address => DataTypes.ReserveData) storage reservesData,\n    DataTypes.UserConfigurationMap storage userConfig,\n    mapping(uint256 => address) storage reserves,\n    uint256 reservesCount,\n    address oracle\n  ) external view {\n    ValidateBorrowLocalVars memory vars;\n\n    (vars.isActive, vars.isFrozen, vars.borrowingEnabled, vars.stableRateBorrowingEnabled) = reserve\n      .configuration\n      .getFlags();\n\n    require(vars.isActive, Errors.VL_NO_ACTIVE_RESERVE);\n    require(!vars.isFrozen, Errors.VL_RESERVE_FROZEN);\n    require(amount != 0, Errors.VL_INVALID_AMOUNT);\n\n    require(vars.borrowingEnabled, Errors.VL_BORROWING_NOT_ENABLED);\n\n    //validate interest rate mode\n    require(\n      uint256(DataTypes.InterestRateMode.VARIABLE) == interestRateMode ||\n        uint256(DataTypes.InterestRateMode.STABLE) == interestRateMode,\n      Errors.VL_INVALID_INTEREST_RATE_MODE_SELECTED\n    );\n\n    (\n      vars.userCollateralBalanceETH,\n      vars.userBorrowBalanceETH,\n      vars.currentLtv,\n      vars.currentLiquidationThreshold,\n      vars.healthFactor\n    ) = GenericLogic.calculateUserAccountData(\n      userAddress,\n      reservesData,\n      userConfig,\n      reserves,\n      reservesCount,\n      oracle\n    );\n\n    require(vars.userCollateralBalanceETH > 0, Errors.VL_COLLATERAL_BALANCE_IS_0);\n\n    require(\n      vars.healthFactor > GenericLogic.HEALTH_FACTOR_LIQUIDATION_THRESHOLD,\n      Errors.VL_HEALTH_FACTOR_LOWER_THAN_LIQUIDATION_THRESHOLD\n    );\n\n    //add the current already borrowed amount to the amount requested to calculate the total collateral needed.\n    vars.amountOfCollateralNeededETH = vars.userBorrowBalanceETH.add(amountInETH).percentDiv(\n      vars.currentLtv\n    ); //LTV is calculated in percentage\n\n    require(\n      vars.amountOfCollateralNeededETH <= vars.userCollateralBalanceETH,\n      Errors.VL_COLLATERAL_CANNOT_COVER_NEW_BORROW\n    );\n\n    /**\n     * Following conditions need to be met if the user is borrowing at a stable rate:\n     * 1. Reserve must be enabled for stable rate borrowing\n     * 2. Users cannot borrow from the reserve if their collateral is (mostly) the same currency\n     *    they are borrowing, to prevent abuses.\n     * 3. Users will be able to borrow only a portion of the total available liquidity\n     **/\n\n    if (interestRateMode == uint256(DataTypes.InterestRateMode.STABLE)) {\n      //check if the borrow mode is stable and if stable rate borrowing is enabled on this reserve\n\n      require(vars.stableRateBorrowingEnabled, Errors.VL_STABLE_BORROWING_NOT_ENABLED);\n\n      require(\n        !userConfig.isUsingAsCollateral(reserve.id) ||\n          reserve.configuration.getLtv() == 0 ||\n          amount > IERC20(reserve.aTokenAddress).balanceOf(userAddress),\n        Errors.VL_COLLATERAL_SAME_AS_BORROWING_CURRENCY\n      );\n\n      vars.availableLiquidity = IERC20(asset).balanceOf(reserve.aTokenAddress);\n\n      //calculate the max available loan size in stable rate mode as a percentage of the\n      //available liquidity\n      uint256 maxLoanSizeStable = vars.availableLiquidity.percentMul(maxStableLoanPercent);\n\n      require(amount <= maxLoanSizeStable, Errors.VL_AMOUNT_BIGGER_THAN_MAX_LOAN_SIZE_STABLE);\n    }\n  }\n\n  /**\n   * @dev Validates a repay action\n   * @param reserve The reserve state from which the user is repaying\n   * @param amountSent The amount sent for the repayment. Can be an actual value or uint(-1)\n   * @param onBehalfOf The address of the user msg.sender is repaying for\n   * @param stableDebt The borrow balance of the user\n   * @param variableDebt The borrow balance of the user\n   */\n  function validateRepay(\n    DataTypes.ReserveData storage reserve,\n    uint256 amountSent,\n    DataTypes.InterestRateMode rateMode,\n    address onBehalfOf,\n    uint256 stableDebt,\n    uint256 variableDebt\n  ) external view {\n    bool isActive = reserve.configuration.getActive();\n\n    require(isActive, Errors.VL_NO_ACTIVE_RESERVE);\n\n    require(amountSent > 0, Errors.VL_INVALID_AMOUNT);\n\n    require(\n      (stableDebt > 0 &&\n        DataTypes.InterestRateMode(rateMode) == DataTypes.InterestRateMode.STABLE) ||\n        (variableDebt > 0 &&\n          DataTypes.InterestRateMode(rateMode) == DataTypes.InterestRateMode.VARIABLE),\n      Errors.VL_NO_DEBT_OF_SELECTED_TYPE\n    );\n\n    require(\n      amountSent != type(uint256).max || msg.sender == onBehalfOf,\n      Errors.VL_NO_EXPLICIT_AMOUNT_TO_REPAY_ON_BEHALF\n    );\n  }\n\n  /**\n   * @dev Validates a swap of borrow rate mode.\n   * @param reserve The reserve state on which the user is swapping the rate\n   * @param userConfig The user reserves configuration\n   * @param stableDebt The stable debt of the user\n   * @param variableDebt The variable debt of the user\n   * @param currentRateMode The rate mode of the borrow\n   */\n  function validateSwapRateMode(\n    DataTypes.ReserveData storage reserve,\n    DataTypes.UserConfigurationMap storage userConfig,\n    uint256 stableDebt,\n    uint256 variableDebt,\n    DataTypes.InterestRateMode currentRateMode\n  ) external view {\n    (bool isActive, bool isFrozen, , bool stableRateEnabled) = reserve.configuration.getFlags();\n\n    require(isActive, Errors.VL_NO_ACTIVE_RESERVE);\n    require(!isFrozen, Errors.VL_RESERVE_FROZEN);\n\n    if (currentRateMode == DataTypes.InterestRateMode.STABLE) {\n      require(stableDebt > 0, Errors.VL_NO_STABLE_RATE_LOAN_IN_RESERVE);\n    } else if (currentRateMode == DataTypes.InterestRateMode.VARIABLE) {\n      require(variableDebt > 0, Errors.VL_NO_VARIABLE_RATE_LOAN_IN_RESERVE);\n      /**\n       * user wants to swap to stable, before swapping we need to ensure that\n       * 1. stable borrow rate is enabled on the reserve\n       * 2. user is not trying to abuse the reserve by depositing\n       * more collateral than he is borrowing, artificially lowering\n       * the interest rate, borrowing at variable, and switching to stable\n       **/\n      require(stableRateEnabled, Errors.VL_STABLE_BORROWING_NOT_ENABLED);\n\n      require(\n        !userConfig.isUsingAsCollateral(reserve.id) ||\n          reserve.configuration.getLtv() == 0 ||\n          stableDebt.add(variableDebt) > IERC20(reserve.aTokenAddress).balanceOf(msg.sender),\n        Errors.VL_COLLATERAL_SAME_AS_BORROWING_CURRENCY\n      );\n    } else {\n      revert(Errors.VL_INVALID_INTEREST_RATE_MODE_SELECTED);\n    }\n  }\n\n  /**\n   * @dev Validates a stable borrow rate rebalance action\n   * @param reserve The reserve state on which the user is getting rebalanced\n   * @param reserveAddress The address of the reserve\n   * @param stableDebtToken The stable debt token instance\n   * @param variableDebtToken The variable debt token instance\n   * @param aTokenAddress The address of the aToken contract\n   */\n  function validateRebalanceStableBorrowRate(\n    DataTypes.ReserveData storage reserve,\n    address reserveAddress,\n    IERC20 stableDebtToken,\n    IERC20 variableDebtToken,\n    address aTokenAddress\n  ) external view {\n    (bool isActive, , , ) = reserve.configuration.getFlags();\n\n    require(isActive, Errors.VL_NO_ACTIVE_RESERVE);\n\n    //if the usage ratio is below 95%, no rebalances are needed\n    uint256 totalDebt =\n      stableDebtToken.totalSupply().add(variableDebtToken.totalSupply()).wadToRay();\n    uint256 availableLiquidity = IERC20(reserveAddress).balanceOf(aTokenAddress).wadToRay();\n    uint256 usageRatio = totalDebt == 0 ? 0 : totalDebt.rayDiv(availableLiquidity.add(totalDebt));\n\n    //if the liquidity rate is below REBALANCE_UP_THRESHOLD of the max variable APR at 95% usage,\n    //then we allow rebalancing of the stable rate positions.\n\n    uint256 currentLiquidityRate = reserve.currentLiquidityRate;\n    uint256 maxVariableBorrowRate =\n      IReserveInterestRateStrategy(reserve.interestRateStrategyAddress).getMaxVariableBorrowRate();\n\n    require(\n      usageRatio >= REBALANCE_UP_USAGE_RATIO_THRESHOLD &&\n        currentLiquidityRate <=\n        maxVariableBorrowRate.percentMul(REBALANCE_UP_LIQUIDITY_RATE_THRESHOLD),\n      Errors.LP_INTEREST_RATE_REBALANCE_CONDITIONS_NOT_MET\n    );\n  }\n\n  /**\n   * @dev Validates the action of setting an asset as collateral\n   * @param reserve The state of the reserve that the user is enabling or disabling as collateral\n   * @param reserveAddress The address of the reserve\n   * @param reservesData The data of all the reserves\n   * @param userConfig The state of the user for the specific reserve\n   * @param reserves The addresses of all the active reserves\n   * @param oracle The price oracle\n   */\n  function validateSetUseReserveAsCollateral(\n    DataTypes.ReserveData storage reserve,\n    address reserveAddress,\n    bool useAsCollateral,\n    mapping(address => DataTypes.ReserveData) storage reservesData,\n    DataTypes.UserConfigurationMap storage userConfig,\n    mapping(uint256 => address) storage reserves,\n    uint256 reservesCount,\n    address oracle\n  ) external view {\n    uint256 underlyingBalance = IERC20(reserve.aTokenAddress).balanceOf(msg.sender);\n\n    require(underlyingBalance > 0, Errors.VL_UNDERLYING_BALANCE_NOT_GREATER_THAN_0);\n\n    require(\n      useAsCollateral ||\n        GenericLogic.balanceDecreaseAllowed(\n          reserveAddress,\n          msg.sender,\n          underlyingBalance,\n          reservesData,\n          userConfig,\n          reserves,\n          reservesCount,\n          oracle\n        ),\n      Errors.VL_DEPOSIT_ALREADY_IN_USE\n    );\n  }\n\n  /**\n   * @dev Validates a flashloan action\n   * @param assets The assets being flashborrowed\n   * @param amounts The amounts for each asset being borrowed\n   **/\n  function validateFlashloan(address[] memory assets, uint256[] memory amounts) internal pure {\n    require(assets.length == amounts.length, Errors.VL_INCONSISTENT_FLASHLOAN_PARAMS);\n  }\n\n  /**\n   * @dev Validates the liquidation action\n   * @param collateralReserve The reserve data of the collateral\n   * @param principalReserve The reserve data of the principal\n   * @param userConfig The user configuration\n   * @param userHealthFactor The user's health factor\n   * @param userStableDebt Total stable debt balance of the user\n   * @param userVariableDebt Total variable debt balance of the user\n   **/\n  function validateLiquidationCall(\n    DataTypes.ReserveData storage collateralReserve,\n    DataTypes.ReserveData storage principalReserve,\n    DataTypes.UserConfigurationMap storage userConfig,\n    uint256 userHealthFactor,\n    uint256 userStableDebt,\n    uint256 userVariableDebt\n  ) internal view returns (uint256, string memory) {\n    if (\n      !collateralReserve.configuration.getActive() || !principalReserve.configuration.getActive()\n    ) {\n      return (\n        uint256(Errors.CollateralManagerErrors.NO_ACTIVE_RESERVE),\n        Errors.VL_NO_ACTIVE_RESERVE\n      );\n    }\n\n    if (userHealthFactor >= GenericLogic.HEALTH_FACTOR_LIQUIDATION_THRESHOLD) {\n      return (\n        uint256(Errors.CollateralManagerErrors.HEALTH_FACTOR_ABOVE_THRESHOLD),\n        Errors.LPCM_HEALTH_FACTOR_NOT_BELOW_THRESHOLD\n      );\n    }\n\n    bool isCollateralEnabled =\n      collateralReserve.configuration.getLiquidationThreshold() > 0 &&\n        userConfig.isUsingAsCollateral(collateralReserve.id);\n\n    //if collateral isn't enabled as collateral by user, it cannot be liquidated\n    if (!isCollateralEnabled) {\n      return (\n        uint256(Errors.CollateralManagerErrors.COLLATERAL_CANNOT_BE_LIQUIDATED),\n        Errors.LPCM_COLLATERAL_CANNOT_BE_LIQUIDATED\n      );\n    }\n\n    if (userStableDebt == 0 && userVariableDebt == 0) {\n      return (\n        uint256(Errors.CollateralManagerErrors.CURRRENCY_NOT_BORROWED),\n        Errors.LPCM_SPECIFIED_CURRENCY_NOT_BORROWED_BY_USER\n      );\n    }\n\n    return (uint256(Errors.CollateralManagerErrors.NO_ERROR), Errors.LPCM_NO_ERRORS);\n  }\n\n  /**\n   * @dev Validates an aToken transfer\n   * @param from The user from which the aTokens are being transferred\n   * @param reservesData The state of all the reserves\n   * @param userConfig The state of the user for the specific reserve\n   * @param reserves The addresses of all the active reserves\n   * @param oracle The price oracle\n   */\n  function validateTransfer(\n    address from,\n    mapping(address => DataTypes.ReserveData) storage reservesData,\n    DataTypes.UserConfigurationMap storage userConfig,\n    mapping(uint256 => address) storage reserves,\n    uint256 reservesCount,\n    address oracle\n  ) internal view {\n    (, , , , uint256 healthFactor) =\n      GenericLogic.calculateUserAccountData(\n        from,\n        reservesData,\n        userConfig,\n        reserves,\n        reservesCount,\n        oracle\n      );\n\n    require(\n      healthFactor >= GenericLogic.HEALTH_FACTOR_LIQUIDATION_THRESHOLD,\n      Errors.VL_TRANSFER_NOT_ALLOWED\n    );\n  }\n}\n",
  "sourcePath": "/Users/dennismacpro/Projects/Defi/Ethereum-Solidity-Collection/icarus-protocol/defi-seeder/contracts/aave/v2/libraries/ValidationLogic.sol",
  "compiler": {
    "name": "solc",
    "version": "0.8.0+commit.c7dfd78e.Emscripten.clang"
  },
  "schemaVersion": "3.3.4",
  "updatedAt": "2021-04-01T18:51:08.033Z",
  "devdoc": {
    "author": "Aave",
    "kind": "dev",
    "methods": {
      "validateBorrow(address,DataTypes.ReserveData storage,address,uint256,uint256,uint256,uint256,mapping(address => DataTypes.ReserveData) storage,DataTypes.UserConfigurationMap storage,mapping(uint256 => address) storage,uint256,address)": {
        "details": "Validates a borrow action",
        "params": {
          "amount": "The amount to be borrowed",
          "amountInETH": "The amount to be borrowed, in ETH",
          "asset": "The address of the asset to borrow",
          "interestRateMode": "The interest rate mode at which the user is borrowing",
          "maxStableLoanPercent": "The max amount of the liquidity that can be borrowed at stable rate, in percentage",
          "oracle": "The price oracle",
          "reserve": "The reserve state from which the user is borrowing",
          "reserves": "The addresses of all the active reserves",
          "reservesData": "The state of all the reserves",
          "userAddress": "The address of the user",
          "userConfig": "The state of the user for the specific reserve"
        }
      },
      "validateDeposit(DataTypes.ReserveData storage,uint256)": {
        "details": "Validates a deposit action",
        "params": {
          "amount": "The amount to be deposited",
          "reserve": "The reserve object on which the user is depositing"
        }
      },
      "validateRebalanceStableBorrowRate(DataTypes.ReserveData storage,address,IERC20,IERC20,address)": {
        "details": "Validates a stable borrow rate rebalance action",
        "params": {
          "aTokenAddress": "The address of the aToken contract",
          "reserve": "The reserve state on which the user is getting rebalanced",
          "reserveAddress": "The address of the reserve",
          "stableDebtToken": "The stable debt token instance",
          "variableDebtToken": "The variable debt token instance"
        }
      },
      "validateRepay(DataTypes.ReserveData storage,uint256,DataTypes.InterestRateMode,address,uint256,uint256)": {
        "details": "Validates a repay action",
        "params": {
          "amountSent": "The amount sent for the repayment. Can be an actual value or uint(-1)",
          "onBehalfOf": "The address of the user msg.sender is repaying for",
          "reserve": "The reserve state from which the user is repaying",
          "stableDebt": "The borrow balance of the user",
          "variableDebt": "The borrow balance of the user"
        }
      },
      "validateSetUseReserveAsCollateral(DataTypes.ReserveData storage,address,bool,mapping(address => DataTypes.ReserveData) storage,DataTypes.UserConfigurationMap storage,mapping(uint256 => address) storage,uint256,address)": {
        "details": "Validates the action of setting an asset as collateral",
        "params": {
          "oracle": "The price oracle",
          "reserve": "The state of the reserve that the user is enabling or disabling as collateral",
          "reserveAddress": "The address of the reserve",
          "reserves": "The addresses of all the active reserves",
          "reservesData": "The data of all the reserves",
          "userConfig": "The state of the user for the specific reserve"
        }
      },
      "validateSwapRateMode(DataTypes.ReserveData storage,DataTypes.UserConfigurationMap storage,uint256,uint256,DataTypes.InterestRateMode)": {
        "details": "Validates a swap of borrow rate mode.",
        "params": {
          "currentRateMode": "The rate mode of the borrow",
          "reserve": "The reserve state on which the user is swapping the rate",
          "stableDebt": "The stable debt of the user",
          "userConfig": "The user reserves configuration",
          "variableDebt": "The variable debt of the user"
        }
      },
      "validateWithdraw(address,uint256,uint256,mapping(address => DataTypes.ReserveData) storage,DataTypes.UserConfigurationMap storage,mapping(uint256 => address) storage,uint256,address)": {
        "details": "Validates a withdraw action",
        "params": {
          "amount": "The amount to be withdrawn",
          "oracle": "The price oracle",
          "reserveAddress": "The address of the reserve",
          "reserves": "The addresses of the reserves",
          "reservesCount": "The number of reserves",
          "reservesData": "The reserves state",
          "userBalance": "The balance of the user",
          "userConfig": "The user configuration"
        }
      }
    },
    "title": "ReserveLogic library",
    "version": 1
  },
  "userdoc": {
    "kind": "user",
    "methods": {},
    "notice": "Implements functions to validate the different actions of the protocol",
    "version": 1
  }
}