{
  "_format": "hh-sol-artifact-1",
  "contractName": "MintableSynthetix",
  "sourceName": "contracts/MintableSynthetix.sol",
  "abi": [
    {
      "inputs": [
        {
          "internalType": "address payable",
          "name": "_proxy",
          "type": "address"
        },
        {
          "internalType": "contract TokenState",
          "name": "_tokenState",
          "type": "address"
        },
        {
          "internalType": "address",
          "name": "_owner",
          "type": "address"
        },
        {
          "internalType": "uint256",
          "name": "_totalSupply",
          "type": "uint256"
        },
        {
          "internalType": "address",
          "name": "_resolver",
          "type": "address"
        }
      ],
      "payable": false,
      "stateMutability": "nonpayable",
      "type": "constructor"
    },
    {
      "anonymous": false,
      "inputs": [
        {
          "indexed": true,
          "internalType": "address",
          "name": "owner",
          "type": "address"
        },
        {
          "indexed": true,
          "internalType": "address",
          "name": "spender",
          "type": "address"
        },
        {
          "indexed": false,
          "internalType": "uint256",
          "name": "value",
          "type": "uint256"
        }
      ],
      "name": "Approval",
      "type": "event"
    },
    {
      "anonymous": false,
      "inputs": [
        {
          "indexed": false,
          "internalType": "bytes32",
          "name": "name",
          "type": "bytes32"
        },
        {
          "indexed": false,
          "internalType": "address",
          "name": "destination",
          "type": "address"
        }
      ],
      "name": "CacheUpdated",
      "type": "event"
    },
    {
      "anonymous": false,
      "inputs": [
        {
          "indexed": true,
          "internalType": "address",
          "name": "account",
          "type": "address"
        },
        {
          "indexed": false,
          "internalType": "bytes32",
          "name": "currencyKey",
          "type": "bytes32"
        },
        {
          "indexed": false,
          "internalType": "uint256",
          "name": "amount",
          "type": "uint256"
        }
      ],
      "name": "ExchangeRebate",
      "type": "event"
    },
    {
      "anonymous": false,
      "inputs": [
        {
          "indexed": true,
          "internalType": "address",
          "name": "account",
          "type": "address"
        },
        {
          "indexed": false,
          "internalType": "bytes32",
          "name": "currencyKey",
          "type": "bytes32"
        },
        {
          "indexed": false,
          "internalType": "uint256",
          "name": "amount",
          "type": "uint256"
        }
      ],
      "name": "ExchangeReclaim",
      "type": "event"
    },
    {
      "anonymous": false,
      "inputs": [
        {
          "indexed": true,
          "internalType": "bytes32",
          "name": "trackingCode",
          "type": "bytes32"
        },
        {
          "indexed": false,
          "internalType": "bytes32",
          "name": "toCurrencyKey",
          "type": "bytes32"
        },
        {
          "indexed": false,
          "internalType": "uint256",
          "name": "toAmount",
          "type": "uint256"
        }
      ],
      "name": "ExchangeTracking",
      "type": "event"
    },
    {
      "anonymous": false,
      "inputs": [
        {
          "indexed": false,
          "internalType": "address",
          "name": "oldOwner",
          "type": "address"
        },
        {
          "indexed": false,
          "internalType": "address",
          "name": "newOwner",
          "type": "address"
        }
      ],
      "name": "OwnerChanged",
      "type": "event"
    },
    {
      "anonymous": false,
      "inputs": [
        {
          "indexed": false,
          "internalType": "address",
          "name": "newOwner",
          "type": "address"
        }
      ],
      "name": "OwnerNominated",
      "type": "event"
    },
    {
      "anonymous": false,
      "inputs": [
        {
          "indexed": false,
          "internalType": "address",
          "name": "proxyAddress",
          "type": "address"
        }
      ],
      "name": "ProxyUpdated",
      "type": "event"
    },
    {
      "anonymous": false,
      "inputs": [
        {
          "indexed": true,
          "internalType": "address",
          "name": "account",
          "type": "address"
        },
        {
          "indexed": false,
          "internalType": "bytes32",
          "name": "fromCurrencyKey",
          "type": "bytes32"
        },
        {
          "indexed": false,
          "internalType": "uint256",
          "name": "fromAmount",
          "type": "uint256"
        },
        {
          "indexed": false,
          "internalType": "bytes32",
          "name": "toCurrencyKey",
          "type": "bytes32"
        },
        {
          "indexed": false,
          "internalType": "uint256",
          "name": "toAmount",
          "type": "uint256"
        },
        {
          "indexed": false,
          "internalType": "address",
          "name": "toAddress",
          "type": "address"
        }
      ],
      "name": "SynthExchange",
      "type": "event"
    },
    {
      "anonymous": false,
      "inputs": [
        {
          "indexed": false,
          "internalType": "address",
          "name": "newTokenState",
          "type": "address"
        }
      ],
      "name": "TokenStateUpdated",
      "type": "event"
    },
    {
      "anonymous": false,
      "inputs": [
        {
          "indexed": true,
          "internalType": "address",
          "name": "from",
          "type": "address"
        },
        {
          "indexed": true,
          "internalType": "address",
          "name": "to",
          "type": "address"
        },
        {
          "indexed": false,
          "internalType": "uint256",
          "name": "value",
          "type": "uint256"
        }
      ],
      "name": "Transfer",
      "type": "event"
    },
    {
      "constant": true,
      "inputs": [],
      "name": "DECIMALS",
      "outputs": [
        {
          "internalType": "uint8",
          "name": "",
          "type": "uint8"
        }
      ],
      "payable": false,
      "stateMutability": "view",
      "type": "function"
    },
    {
      "constant": true,
      "inputs": [],
      "name": "TOKEN_NAME",
      "outputs": [
        {
          "internalType": "string",
          "name": "",
          "type": "string"
        }
      ],
      "payable": false,
      "stateMutability": "view",
      "type": "function"
    },
    {
      "constant": true,
      "inputs": [],
      "name": "TOKEN_SYMBOL",
      "outputs": [
        {
          "internalType": "string",
          "name": "",
          "type": "string"
        }
      ],
      "payable": false,
      "stateMutability": "view",
      "type": "function"
    },
    {
      "constant": false,
      "inputs": [],
      "name": "acceptOwnership",
      "outputs": [],
      "payable": false,
      "stateMutability": "nonpayable",
      "type": "function"
    },
    {
      "constant": true,
      "inputs": [
        {
          "internalType": "address",
          "name": "owner",
          "type": "address"
        },
        {
          "internalType": "address",
          "name": "spender",
          "type": "address"
        }
      ],
      "name": "allowance",
      "outputs": [
        {
          "internalType": "uint256",
          "name": "",
          "type": "uint256"
        }
      ],
      "payable": false,
      "stateMutability": "view",
      "type": "function"
    },
    {
      "constant": true,
      "inputs": [],
      "name": "anySynthOrSNXRateIsInvalid",
      "outputs": [
        {
          "internalType": "bool",
          "name": "anyRateInvalid",
          "type": "bool"
        }
      ],
      "payable": false,
      "stateMutability": "view",
      "type": "function"
    },
    {
      "constant": false,
      "inputs": [
        {
          "internalType": "address",
          "name": "spender",
          "type": "address"
        },
        {
          "internalType": "uint256",
          "name": "value",
          "type": "uint256"
        }
      ],
      "name": "approve",
      "outputs": [
        {
          "internalType": "bool",
          "name": "",
          "type": "bool"
        }
      ],
      "payable": false,
      "stateMutability": "nonpayable",
      "type": "function"
    },
    {
      "constant": true,
      "inputs": [],
      "name": "availableCurrencyKeys",
      "outputs": [
        {
          "internalType": "bytes32[]",
          "name": "",
          "type": "bytes32[]"
        }
      ],
      "payable": false,
      "stateMutability": "view",
      "type": "function"
    },
    {
      "constant": true,
      "inputs": [],
      "name": "availableSynthCount",
      "outputs": [
        {
          "internalType": "uint256",
          "name": "",
          "type": "uint256"
        }
      ],
      "payable": false,
      "stateMutability": "view",
      "type": "function"
    },
    {
      "constant": true,
      "inputs": [
        {
          "internalType": "uint256",
          "name": "index",
          "type": "uint256"
        }
      ],
      "name": "availableSynths",
      "outputs": [
        {
          "internalType": "contract ISynth",
          "name": "",
          "type": "address"
        }
      ],
      "payable": false,
      "stateMutability": "view",
      "type": "function"
    },
    {
      "constant": true,
      "inputs": [
        {
          "internalType": "address",
          "name": "account",
          "type": "address"
        }
      ],
      "name": "balanceOf",
      "outputs": [
        {
          "internalType": "uint256",
          "name": "",
          "type": "uint256"
        }
      ],
      "payable": false,
      "stateMutability": "view",
      "type": "function"
    },
    {
      "constant": false,
      "inputs": [
        {
          "internalType": "address",
          "name": "account",
          "type": "address"
        },
        {
          "internalType": "uint256",
          "name": "amount",
          "type": "uint256"
        }
      ],
      "name": "burnSecondary",
      "outputs": [],
      "payable": false,
      "stateMutability": "nonpayable",
      "type": "function"
    },
    {
      "constant": false,
      "inputs": [
        {
          "internalType": "uint256",
          "name": "amount",
          "type": "uint256"
        }
      ],
      "name": "burnSynths",
      "outputs": [],
      "payable": false,
      "stateMutability": "nonpayable",
      "type": "function"
    },
    {
      "constant": false,
      "inputs": [
        {
          "internalType": "address",
          "name": "burnForAddress",
          "type": "address"
        },
        {
          "internalType": "uint256",
          "name": "amount",
          "type": "uint256"
        }
      ],
      "name": "burnSynthsOnBehalf",
      "outputs": [],
      "payable": false,
      "stateMutability": "nonpayable",
      "type": "function"
    },
    {
      "constant": false,
      "inputs": [],
      "name": "burnSynthsToTarget",
      "outputs": [],
      "payable": false,
      "stateMutability": "nonpayable",
      "type": "function"
    },
    {
      "constant": false,
      "inputs": [
        {
          "internalType": "address",
          "name": "burnForAddress",
          "type": "address"
        }
      ],
      "name": "burnSynthsToTargetOnBehalf",
      "outputs": [],
      "payable": false,
      "stateMutability": "nonpayable",
      "type": "function"
    },
    {
      "constant": true,
      "inputs": [
        {
          "internalType": "address",
          "name": "account",
          "type": "address"
        }
      ],
      "name": "collateral",
      "outputs": [
        {
          "internalType": "uint256",
          "name": "",
          "type": "uint256"
        }
      ],
      "payable": false,
      "stateMutability": "view",
      "type": "function"
    },
    {
      "constant": true,
      "inputs": [
        {
          "internalType": "address",
          "name": "_issuer",
          "type": "address"
        }
      ],
      "name": "collateralisationRatio",
      "outputs": [
        {
          "internalType": "uint256",
          "name": "",
          "type": "uint256"
        }
      ],
      "payable": false,
      "stateMutability": "view",
      "type": "function"
    },
    {
      "constant": true,
      "inputs": [
        {
          "internalType": "address",
          "name": "account",
          "type": "address"
        },
        {
          "internalType": "bytes32",
          "name": "currencyKey",
          "type": "bytes32"
        }
      ],
      "name": "debtBalanceOf",
      "outputs": [
        {
          "internalType": "uint256",
          "name": "",
          "type": "uint256"
        }
      ],
      "payable": false,
      "stateMutability": "view",
      "type": "function"
    },
    {
      "constant": true,
      "inputs": [],
      "name": "decimals",
      "outputs": [
        {
          "internalType": "uint8",
          "name": "",
          "type": "uint8"
        }
      ],
      "payable": false,
      "stateMutability": "view",
      "type": "function"
    },
    {
      "constant": false,
      "inputs": [
        {
          "internalType": "address",
          "name": "account",
          "type": "address"
        },
        {
          "internalType": "bytes32",
          "name": "currencyKey",
          "type": "bytes32"
        },
        {
          "internalType": "uint256",
          "name": "amount",
          "type": "uint256"
        }
      ],
      "name": "emitExchangeRebate",
      "outputs": [],
      "payable": false,
      "stateMutability": "nonpayable",
      "type": "function"
    },
    {
      "constant": false,
      "inputs": [
        {
          "internalType": "address",
          "name": "account",
          "type": "address"
        },
        {
          "internalType": "bytes32",
          "name": "currencyKey",
          "type": "bytes32"
        },
        {
          "internalType": "uint256",
          "name": "amount",
          "type": "uint256"
        }
      ],
      "name": "emitExchangeReclaim",
      "outputs": [],
      "payable": false,
      "stateMutability": "nonpayable",
      "type": "function"
    },
    {
      "constant": false,
      "inputs": [
        {
          "internalType": "bytes32",
          "name": "trackingCode",
          "type": "bytes32"
        },
        {
          "internalType": "bytes32",
          "name": "toCurrencyKey",
          "type": "bytes32"
        },
        {
          "internalType": "uint256",
          "name": "toAmount",
          "type": "uint256"
        }
      ],
      "name": "emitExchangeTracking",
      "outputs": [],
      "payable": false,
      "stateMutability": "nonpayable",
      "type": "function"
    },
    {
      "constant": false,
      "inputs": [
        {
          "internalType": "address",
          "name": "account",
          "type": "address"
        },
        {
          "internalType": "bytes32",
          "name": "fromCurrencyKey",
          "type": "bytes32"
        },
        {
          "internalType": "uint256",
          "name": "fromAmount",
          "type": "uint256"
        },
        {
          "internalType": "bytes32",
          "name": "toCurrencyKey",
          "type": "bytes32"
        },
        {
          "internalType": "uint256",
          "name": "toAmount",
          "type": "uint256"
        },
        {
          "internalType": "address",
          "name": "toAddress",
          "type": "address"
        }
      ],
      "name": "emitSynthExchange",
      "outputs": [],
      "payable": false,
      "stateMutability": "nonpayable",
      "type": "function"
    },
    {
      "constant": false,
      "inputs": [
        {
          "internalType": "bytes32",
          "name": "sourceCurrencyKey",
          "type": "bytes32"
        },
        {
          "internalType": "uint256",
          "name": "sourceAmount",
          "type": "uint256"
        },
        {
          "internalType": "bytes32",
          "name": "destinationCurrencyKey",
          "type": "bytes32"
        }
      ],
      "name": "exchange",
      "outputs": [
        {
          "internalType": "uint256",
          "name": "amountReceived",
          "type": "uint256"
        }
      ],
      "payable": false,
      "stateMutability": "nonpayable",
      "type": "function"
    },
    {
      "constant": false,
      "inputs": [
        {
          "internalType": "address",
          "name": "exchangeForAddress",
          "type": "address"
        },
        {
          "internalType": "bytes32",
          "name": "sourceCurrencyKey",
          "type": "bytes32"
        },
        {
          "internalType": "uint256",
          "name": "sourceAmount",
          "type": "uint256"
        },
        {
          "internalType": "bytes32",
          "name": "destinationCurrencyKey",
          "type": "bytes32"
        }
      ],
      "name": "exchangeOnBehalf",
      "outputs": [
        {
          "internalType": "uint256",
          "name": "amountReceived",
          "type": "uint256"
        }
      ],
      "payable": false,
      "stateMutability": "nonpayable",
      "type": "function"
    },
    {
      "constant": false,
      "inputs": [
        {
          "internalType": "address",
          "name": "exchangeForAddress",
          "type": "address"
        },
        {
          "internalType": "bytes32",
          "name": "sourceCurrencyKey",
          "type": "bytes32"
        },
        {
          "internalType": "uint256",
          "name": "sourceAmount",
          "type": "uint256"
        },
        {
          "internalType": "bytes32",
          "name": "destinationCurrencyKey",
          "type": "bytes32"
        },
        {
          "internalType": "address",
          "name": "originator",
          "type": "address"
        },
        {
          "internalType": "bytes32",
          "name": "trackingCode",
          "type": "bytes32"
        }
      ],
      "name": "exchangeOnBehalfWithTracking",
      "outputs": [
        {
          "internalType": "uint256",
          "name": "amountReceived",
          "type": "uint256"
        }
      ],
      "payable": false,
      "stateMutability": "nonpayable",
      "type": "function"
    },
    {
      "constant": false,
      "inputs": [
        {
          "internalType": "bytes32",
          "name": "sourceCurrencyKey",
          "type": "bytes32"
        },
        {
          "internalType": "uint256",
          "name": "sourceAmount",
          "type": "uint256"
        },
        {
          "internalType": "bytes32",
          "name": "destinationCurrencyKey",
          "type": "bytes32"
        },
        {
          "internalType": "address",
          "name": "originator",
          "type": "address"
        },
        {
          "internalType": "bytes32",
          "name": "trackingCode",
          "type": "bytes32"
        }
      ],
      "name": "exchangeWithTracking",
      "outputs": [
        {
          "internalType": "uint256",
          "name": "amountReceived",
          "type": "uint256"
        }
      ],
      "payable": false,
      "stateMutability": "nonpayable",
      "type": "function"
    },
    {
      "constant": false,
      "inputs": [
        {
          "internalType": "bytes32",
          "name": "",
          "type": "bytes32"
        },
        {
          "internalType": "uint256",
          "name": "",
          "type": "uint256"
        },
        {
          "internalType": "bytes32",
          "name": "",
          "type": "bytes32"
        },
        {
          "internalType": "bytes32",
          "name": "",
          "type": "bytes32"
        }
      ],
      "name": "exchangeWithVirtual",
      "outputs": [
        {
          "internalType": "uint256",
          "name": "",
          "type": "uint256"
        },
        {
          "internalType": "contract IVirtualSynth",
          "name": "",
          "type": "address"
        }
      ],
      "payable": false,
      "stateMutability": "nonpayable",
      "type": "function"
    },
    {
      "constant": true,
      "inputs": [],
      "name": "integrationProxy",
      "outputs": [
        {
          "internalType": "contract Proxy",
          "name": "",
          "type": "address"
        }
      ],
      "payable": false,
      "stateMutability": "view",
      "type": "function"
    },
    {
      "constant": true,
      "inputs": [],
      "name": "isResolverCached",
      "outputs": [
        {
          "internalType": "bool",
          "name": "",
          "type": "bool"
        }
      ],
      "payable": false,
      "stateMutability": "view",
      "type": "function"
    },
    {
      "constant": true,
      "inputs": [
        {
          "internalType": "bytes32",
          "name": "currencyKey",
          "type": "bytes32"
        }
      ],
      "name": "isWaitingPeriod",
      "outputs": [
        {
          "internalType": "bool",
          "name": "",
          "type": "bool"
        }
      ],
      "payable": false,
      "stateMutability": "view",
      "type": "function"
    },
    {
      "constant": false,
      "inputs": [],
      "name": "issueMaxSynths",
      "outputs": [],
      "payable": false,
      "stateMutability": "nonpayable",
      "type": "function"
    },
    {
      "constant": false,
      "inputs": [
        {
          "internalType": "address",
          "name": "issueForAddress",
          "type": "address"
        }
      ],
      "name": "issueMaxSynthsOnBehalf",
      "outputs": [],
      "payable": false,
      "stateMutability": "nonpayable",
      "type": "function"
    },
    {
      "constant": false,
      "inputs": [
        {
          "internalType": "uint256",
          "name": "amount",
          "type": "uint256"
        }
      ],
      "name": "issueSynths",
      "outputs": [],
      "payable": false,
      "stateMutability": "nonpayable",
      "type": "function"
    },
    {
      "constant": false,
      "inputs": [
        {
          "internalType": "address",
          "name": "issueForAddress",
          "type": "address"
        },
        {
          "internalType": "uint256",
          "name": "amount",
          "type": "uint256"
        }
      ],
      "name": "issueSynthsOnBehalf",
      "outputs": [],
      "payable": false,
      "stateMutability": "nonpayable",
      "type": "function"
    },
    {
      "constant": false,
      "inputs": [
        {
          "internalType": "address",
          "name": "",
          "type": "address"
        },
        {
          "internalType": "uint256",
          "name": "",
          "type": "uint256"
        }
      ],
      "name": "liquidateDelinquentAccount",
      "outputs": [
        {
          "internalType": "bool",
          "name": "",
          "type": "bool"
        }
      ],
      "payable": false,
      "stateMutability": "nonpayable",
      "type": "function"
    },
    {
      "constant": true,
      "inputs": [
        {
          "internalType": "address",
          "name": "account",
          "type": "address"
        }
      ],
      "name": "maxIssuableSynths",
      "outputs": [
        {
          "internalType": "uint256",
          "name": "maxIssuable",
          "type": "uint256"
        }
      ],
      "payable": false,
      "stateMutability": "view",
      "type": "function"
    },
    {
      "constant": true,
      "inputs": [],
      "name": "messageSender",
      "outputs": [
        {
          "internalType": "address",
          "name": "",
          "type": "address"
        }
      ],
      "payable": false,
      "stateMutability": "view",
      "type": "function"
    },
    {
      "constant": false,
      "inputs": [],
      "name": "mint",
      "outputs": [
        {
          "internalType": "bool",
          "name": "",
          "type": "bool"
        }
      ],
      "payable": false,
      "stateMutability": "nonpayable",
      "type": "function"
    },
    {
      "constant": false,
      "inputs": [
        {
          "internalType": "address",
          "name": "account",
          "type": "address"
        },
        {
          "internalType": "uint256",
          "name": "amount",
          "type": "uint256"
        }
      ],
      "name": "mintSecondary",
      "outputs": [],
      "payable": false,
      "stateMutability": "nonpayable",
      "type": "function"
    },
    {
      "constant": false,
      "inputs": [
        {
          "internalType": "uint256",
          "name": "amount",
          "type": "uint256"
        }
      ],
      "name": "mintSecondaryRewards",
      "outputs": [],
      "payable": false,
      "stateMutability": "nonpayable",
      "type": "function"
    },
    {
      "constant": true,
      "inputs": [],
      "name": "name",
      "outputs": [
        {
          "internalType": "string",
          "name": "",
          "type": "string"
        }
      ],
      "payable": false,
      "stateMutability": "view",
      "type": "function"
    },
    {
      "constant": false,
      "inputs": [
        {
          "internalType": "address",
          "name": "_owner",
          "type": "address"
        }
      ],
      "name": "nominateNewOwner",
      "outputs": [],
      "payable": false,
      "stateMutability": "nonpayable",
      "type": "function"
    },
    {
      "constant": true,
      "inputs": [],
      "name": "nominatedOwner",
      "outputs": [
        {
          "internalType": "address",
          "name": "",
          "type": "address"
        }
      ],
      "payable": false,
      "stateMutability": "view",
      "type": "function"
    },
    {
      "constant": true,
      "inputs": [],
      "name": "owner",
      "outputs": [
        {
          "internalType": "address",
          "name": "",
          "type": "address"
        }
      ],
      "payable": false,
      "stateMutability": "view",
      "type": "function"
    },
    {
      "constant": true,
      "inputs": [],
      "name": "proxy",
      "outputs": [
        {
          "internalType": "contract Proxy",
          "name": "",
          "type": "address"
        }
      ],
      "payable": false,
      "stateMutability": "view",
      "type": "function"
    },
    {
      "constant": false,
      "inputs": [],
      "name": "rebuildCache",
      "outputs": [],
      "payable": false,
      "stateMutability": "nonpayable",
      "type": "function"
    },
    {
      "constant": true,
      "inputs": [
        {
          "internalType": "address",
          "name": "account",
          "type": "address"
        }
      ],
      "name": "remainingIssuableSynths",
      "outputs": [
        {
          "internalType": "uint256",
          "name": "maxIssuable",
          "type": "uint256"
        },
        {
          "internalType": "uint256",
          "name": "alreadyIssued",
          "type": "uint256"
        },
        {
          "internalType": "uint256",
          "name": "totalSystemDebt",
          "type": "uint256"
        }
      ],
      "payable": false,
      "stateMutability": "view",
      "type": "function"
    },
    {
      "constant": true,
      "inputs": [],
      "name": "resolver",
      "outputs": [
        {
          "internalType": "contract AddressResolver",
          "name": "",
          "type": "address"
        }
      ],
      "payable": false,
      "stateMutability": "view",
      "type": "function"
    },
    {
      "constant": true,
      "inputs": [],
      "name": "resolverAddressesRequired",
      "outputs": [
        {
          "internalType": "bytes32[]",
          "name": "addresses",
          "type": "bytes32[]"
        }
      ],
      "payable": false,
      "stateMutability": "view",
      "type": "function"
    },
    {
      "constant": true,
      "inputs": [],
      "name": "sUSD",
      "outputs": [
        {
          "internalType": "bytes32",
          "name": "",
          "type": "bytes32"
        }
      ],
      "payable": false,
      "stateMutability": "view",
      "type": "function"
    },
    {
      "constant": false,
      "inputs": [
        {
          "internalType": "address payable",
          "name": "_integrationProxy",
          "type": "address"
        }
      ],
      "name": "setIntegrationProxy",
      "outputs": [],
      "payable": false,
      "stateMutability": "nonpayable",
      "type": "function"
    },
    {
      "constant": false,
      "inputs": [
        {
          "internalType": "address",
          "name": "sender",
          "type": "address"
        }
      ],
      "name": "setMessageSender",
      "outputs": [],
      "payable": false,
      "stateMutability": "nonpayable",
      "type": "function"
    },
    {
      "constant": false,
      "inputs": [
        {
          "internalType": "address payable",
          "name": "_proxy",
          "type": "address"
        }
      ],
      "name": "setProxy",
      "outputs": [],
      "payable": false,
      "stateMutability": "nonpayable",
      "type": "function"
    },
    {
      "constant": false,
      "inputs": [
        {
          "internalType": "contract TokenState",
          "name": "_tokenState",
          "type": "address"
        }
      ],
      "name": "setTokenState",
      "outputs": [],
      "payable": false,
      "stateMutability": "nonpayable",
      "type": "function"
    },
    {
      "constant": false,
      "inputs": [
        {
          "internalType": "bytes32",
          "name": "currencyKey",
          "type": "bytes32"
        }
      ],
      "name": "settle",
      "outputs": [
        {
          "internalType": "uint256",
          "name": "reclaimed",
          "type": "uint256"
        },
        {
          "internalType": "uint256",
          "name": "refunded",
          "type": "uint256"
        },
        {
          "internalType": "uint256",
          "name": "numEntriesSettled",
          "type": "uint256"
        }
      ],
      "payable": false,
      "stateMutability": "nonpayable",
      "type": "function"
    },
    {
      "constant": true,
      "inputs": [],
      "name": "symbol",
      "outputs": [
        {
          "internalType": "string",
          "name": "",
          "type": "string"
        }
      ],
      "payable": false,
      "stateMutability": "view",
      "type": "function"
    },
    {
      "constant": true,
      "inputs": [
        {
          "internalType": "bytes32",
          "name": "currencyKey",
          "type": "bytes32"
        }
      ],
      "name": "synths",
      "outputs": [
        {
          "internalType": "contract ISynth",
          "name": "",
          "type": "address"
        }
      ],
      "payable": false,
      "stateMutability": "view",
      "type": "function"
    },
    {
      "constant": true,
      "inputs": [
        {
          "internalType": "address",
          "name": "synthAddress",
          "type": "address"
        }
      ],
      "name": "synthsByAddress",
      "outputs": [
        {
          "internalType": "bytes32",
          "name": "",
          "type": "bytes32"
        }
      ],
      "payable": false,
      "stateMutability": "view",
      "type": "function"
    },
    {
      "constant": true,
      "inputs": [],
      "name": "tokenState",
      "outputs": [
        {
          "internalType": "contract TokenState",
          "name": "",
          "type": "address"
        }
      ],
      "payable": false,
      "stateMutability": "view",
      "type": "function"
    },
    {
      "constant": true,
      "inputs": [
        {
          "internalType": "bytes32",
          "name": "currencyKey",
          "type": "bytes32"
        }
      ],
      "name": "totalIssuedSynths",
      "outputs": [
        {
          "internalType": "uint256",
          "name": "",
          "type": "uint256"
        }
      ],
      "payable": false,
      "stateMutability": "view",
      "type": "function"
    },
    {
      "constant": true,
      "inputs": [
        {
          "internalType": "bytes32",
          "name": "currencyKey",
          "type": "bytes32"
        }
      ],
      "name": "totalIssuedSynthsExcludeEtherCollateral",
      "outputs": [
        {
          "internalType": "uint256",
          "name": "",
          "type": "uint256"
        }
      ],
      "payable": false,
      "stateMutability": "view",
      "type": "function"
    },
    {
      "constant": true,
      "inputs": [],
      "name": "totalSupply",
      "outputs": [
        {
          "internalType": "uint256",
          "name": "",
          "type": "uint256"
        }
      ],
      "payable": false,
      "stateMutability": "view",
      "type": "function"
    },
    {
      "constant": false,
      "inputs": [
        {
          "internalType": "address",
          "name": "to",
          "type": "address"
        },
        {
          "internalType": "uint256",
          "name": "value",
          "type": "uint256"
        }
      ],
      "name": "transfer",
      "outputs": [
        {
          "internalType": "bool",
          "name": "",
          "type": "bool"
        }
      ],
      "payable": false,
      "stateMutability": "nonpayable",
      "type": "function"
    },
    {
      "constant": false,
      "inputs": [
        {
          "internalType": "address",
          "name": "from",
          "type": "address"
        },
        {
          "internalType": "address",
          "name": "to",
          "type": "address"
        },
        {
          "internalType": "uint256",
          "name": "value",
          "type": "uint256"
        }
      ],
      "name": "transferFrom",
      "outputs": [
        {
          "internalType": "bool",
          "name": "",
          "type": "bool"
        }
      ],
      "payable": false,
      "stateMutability": "nonpayable",
      "type": "function"
    },
    {
      "constant": true,
      "inputs": [
        {
          "internalType": "address",
          "name": "account",
          "type": "address"
        }
      ],
      "name": "transferableSynthetix",
      "outputs": [
        {
          "internalType": "uint256",
          "name": "transferable",
          "type": "uint256"
        }
      ],
      "payable": false,
      "stateMutability": "view",
      "type": "function"
    }
  ],
  "bytecode": "0x60806040523480156200001157600080fd5b50604051620072b8380380620072b8833981810160405260a08110156200003757600080fd5b81019080805190602001909291908051906020019092919080519060200190929190805190602001909291908051906020019092919050505084848484848085856040518060400160405280601781526020017f53796e746865746978204e6574776f726b20546f6b656e0000000000000000008152506040518060400160405280600381526020017f534e580000000000000000000000000000000000000000000000000000000000815250866012898681600073ffffffffffffffffffffffffffffffffffffffff168173ffffffffffffffffffffffffffffffffffffffff1614156200018e576040517f08c379a00000000000000000000000000000000000000000000000000000000081526004018080602001828103825260198152602001807f4f776e657220616464726573732063616e6e6f7420626520300000000000000081525060200191505060405180910390fd5b806000806101000a81548173ffffffffffffffffffffffffffffffffffffffff021916908373ffffffffffffffffffffffffffffffffffffffff1602179055507fb532073b38c83145e3e5135377a08bf9aab55bc0fd7c1179cd4fb995d2a5159c600082604051808373ffffffffffffffffffffffffffffffffffffffff1673ffffffffffffffffffffffffffffffffffffffff1681526020018273ffffffffffffffffffffffffffffffffffffffff1673ffffffffffffffffffffffffffffffffffffffff1681526020019250505060405180910390a150600073ffffffffffffffffffffffffffffffffffffffff166000809054906101000a900473ffffffffffffffffffffffffffffffffffffffff1673ffffffffffffffffffffffffffffffffffffffff1614156200032c576040517f08c379a00000000000000000000000000000000000000000000000000000000081526004018080602001828103825260118152602001807f4f776e6572206d7573742062652073657400000000000000000000000000000081525060200191505060405180910390fd5b80600260006101000a81548173ffffffffffffffffffffffffffffffffffffffff021916908373ffffffffffffffffffffffffffffffffffffffff1602179055507ffc80377ca9c49cc11ae6982f390a42db976d5530af7c43889264b13fbbd7c57e81604051808273ffffffffffffffffffffffffffffffffffffffff1673ffffffffffffffffffffffffffffffffffffffff16815260200191505060405180910390a15085600560006101000a81548173ffffffffffffffffffffffffffffffffffffffff021916908373ffffffffffffffffffffffffffffffffffffffff16021790555084600690805190602001906200042a929190620004bf565b50836007908051906020019062000443929190620004bf565b508260088190555081600960006101000a81548160ff021916908360ff1602179055505050505050505080600960016101000a81548173ffffffffffffffffffffffffffffffffffffffff021916908373ffffffffffffffffffffffffffffffffffffffff16021790555050505050505050505050506200056e565b828054600181600116156101000203166002900490600052602060002090601f016020900481019282601f106200050257805160ff191683800117855562000533565b8280016001018555821562000533579182015b828111156200053257825182559160200191906001019062000515565b5b50905062000542919062000546565b5090565b6200056b91905b80821115620005675760008160009055506001016200054d565b5090565b90565b616d3a806200057e6000396000f3fe608060405234801561001057600080fd5b50600436106103f15760003560e01c8063835e119c11610215578063af086c7e11610125578063dbf63340116100b8578063e8e09b8b11610087578063e8e09b8b14611709578063e90dd9e214611757578063ec556889146117a1578063edef719a146117eb578063ee52a2f314611839576103f1565b8063dbf63340146115cb578063dd62ed3e146115e9578063ddd03a3f14611661578063e6203ed1146116a3576103f1565b8063d37c4d8b116100f4578063d37c4d8b146114af578063d60888e414611511578063d67bdd2514611553578063d8a1f76f1461159d576103f1565b8063af086c7e1461139d578063bc67f832146113a7578063c2bf3880146113eb578063c836fa0a14611439576103f1565b806397107d6d116101a85780639f769807116101775780639f769807146111eb578063a311c7c21461122f578063a5fdc5de14611287578063a9059cbb146112df578063ace88afd14611345576103f1565b806397107d6d146111035780639741fb2214611147578063987757dd146111515780639cbdaeb6146111a1576103f1565b80638da5cb5b116101e45780638da5cb5b14610f7857806391e56b6814610fc25780639324cac71461106257806395d89b4114611080576103f1565b8063835e119c14610e3b57806383d625d414610ea9578063899ffef414610eeb5780638a29001414610f4a576103f1565b80632af64bd31161031057806353a47bb7116102a35780636f01a986116102725780636f01a98614610d1857806370a0823114610d7057806372cb051f14610dc85780637418536014610e2757806379ba509714610e31576103f1565b806353a47bb714610b9c578063666ed4f114610be65780636ac0bf9c14610c345780636c00f31014610c8c576103f1565b8063313ce567116102df578063313ce56714610aa4578063320223db14610ac85780633260803914610b0c5780634e99bda914610b7a576103f1565b80632af64bd31461099a5780632c955fa7146109bc5780632e0f262514610a0057806330ead76014610a24576103f1565b80631627540c116103885780631fce304d116103575780631fce304d1461081d57806323b872dd14610863578063295da87d146108e95780632a90531814610917576103f1565b80631627540c146106e057806316b2213f1461072457806318160ddd1461077c578063188214001461079a576103f1565b80630e30963c116103c45780630e30963c146105815780631137aedf146106145780631249c58b1461067a578063131b0ae71461069c576103f1565b806304f3bcec146103f657806305b3c1c91461044057806306fdde0314610498578063095ea7b31461051b575b600080fd5b6103fe61188f565b604051808273ffffffffffffffffffffffffffffffffffffffff1673ffffffffffffffffffffffffffffffffffffffff16815260200191505060405180910390f35b6104826004803603602081101561045657600080fd5b81019080803573ffffffffffffffffffffffffffffffffffffffff1690602001909291905050506118b5565b6040518082815260200191505060405180910390f35b6104a061197d565b6040518080602001828103825283818151815260200191508051906020019080838360005b838110156104e05780820151818401526020810190506104c5565b50505050905090810190601f16801561050d5780820380516001836020036101000a031916815260200191505b509250505060405180910390f35b6105676004803603604081101561053157600080fd5b81019080803573ffffffffffffffffffffffffffffffffffffffff16906020019092919080359060200190929190505050611a1b565b604051808215151515815260200191505060405180910390f35b6105cb6004803603608081101561059757600080fd5b8101908080359060200190929190803590602001909291908035906020019092919080359060200190929190505050611b57565b604051808381526020018273ffffffffffffffffffffffffffffffffffffffff1673ffffffffffffffffffffffffffffffffffffffff1681526020019250505060405180910390f35b6106566004803603602081101561062a57600080fd5b81019080803573ffffffffffffffffffffffffffffffffffffffff169060200190929190505050611b6b565b60405180848152602001838152602001828152602001935050505060405180910390f35b610682611c50565b604051808215151515815260200191505060405180910390f35b6106de600480360360208110156106b257600080fd5b81019080803573ffffffffffffffffffffffffffffffffffffffff169060200190929190505050611c5d565b005b610722600480360360208110156106f657600080fd5b81019080803573ffffffffffffffffffffffffffffffffffffffff169060200190929190505050611ca9565b005b6107666004803603602081101561073a57600080fd5b81019080803573ffffffffffffffffffffffffffffffffffffffff169060200190929190505050611d58565b6040518082815260200191505060405180910390f35b610784611e20565b6040518082815260200191505060405180910390f35b6107a2611e26565b6040518080602001828103825283818151815260200191508051906020019080838360005b838110156107e25780820151818401526020810190506107c7565b50505050905090810190601f16801561080f5780820380516001836020036101000a031916815260200191505b509250505060405180910390f35b6108496004803603602081101561083357600080fd5b8101908080359060200190929190505050611e5f565b604051808215151515815260200191505060405180910390f35b6108cf6004803603606081101561087957600080fd5b81019080803573ffffffffffffffffffffffffffffffffffffffff169060200190929190803573ffffffffffffffffffffffffffffffffffffffff16906020019092919080359060200190929190505050611f53565b604051808215151515815260200191505060405180910390f35b610915600480360360208110156108ff57600080fd5b8101908080359060200190929190505050611fa7565b005b61091f612082565b6040518080602001828103825283818151815260200191508051906020019080838360005b8381101561095f578082015181840152602081019050610944565b50505050905090810190601f16801561098c5780820380516001836020036101000a031916815260200191505b509250505060405180910390f35b6109a26120bb565b604051808215151515815260200191505060405180910390f35b6109fe600480360360208110156109d257600080fd5b81019080803573ffffffffffffffffffffffffffffffffffffffff169060200190929190505050612293565b005b610a0861239a565b604051808260ff1660ff16815260200191505060405180910390f35b610a8e600480360360a0811015610a3a57600080fd5b81019080803590602001909291908035906020019092919080359060200190929190803573ffffffffffffffffffffffffffffffffffffffff1690602001909291908035906020019092919050505061239f565b6040518082815260200191505060405180910390f35b610aac61254f565b604051808260ff1660ff16815260200191505060405180910390f35b610b0a60048036036020811015610ade57600080fd5b81019080803573ffffffffffffffffffffffffffffffffffffffff169060200190929190505050612562565b005b610b3860048036036020811015610b2257600080fd5b8101908080359060200190929190505050612669565b604051808273ffffffffffffffffffffffffffffffffffffffff1673ffffffffffffffffffffffffffffffffffffffff16815260200191505060405180910390f35b610b82612705565b604051808215151515815260200191505060405180910390f35b610ba4612794565b604051808273ffffffffffffffffffffffffffffffffffffffff1673ffffffffffffffffffffffffffffffffffffffff16815260200191505060405180910390f35b610c3260048036036040811015610bfc57600080fd5b81019080803573ffffffffffffffffffffffffffffffffffffffff169060200190929190803590602001909291905050506127ba565b005b610c7660048036036020811015610c4a57600080fd5b81019080803573ffffffffffffffffffffffffffffffffffffffff1690602001909291905050506127d0565b6040518082815260200191505060405180910390f35b610d16600480360360c0811015610ca257600080fd5b81019080803573ffffffffffffffffffffffffffffffffffffffff16906020019092919080359060200190929190803590602001909291908035906020019092919080359060200190929190803573ffffffffffffffffffffffffffffffffffffffff169060200190929190505050612985565b005b610d6e60048036036060811015610d2e57600080fd5b81019080803573ffffffffffffffffffffffffffffffffffffffff1690602001909291908035906020019092919080359060200190929190505050612b42565b005b610db260048036036020811015610d8657600080fd5b81019080803573ffffffffffffffffffffffffffffffffffffffff169060200190929190505050612cb8565b6040518082815260200191505060405180910390f35b610dd0612d9b565b6040518080602001828103825283818151815260200191508051906020019060200280838360005b83811015610e13578082015181840152602081019050610df8565b505050509050019250505060405180910390f35b610e2f612ec4565b005b610e3961312d565b005b610e6760048036036020811015610e5157600080fd5b8101908080359060200190929190505050613353565b604051808273ffffffffffffffffffffffffffffffffffffffff1673ffffffffffffffffffffffffffffffffffffffff16815260200191505060405180910390f35b610ed560048036036020811015610ebf57600080fd5b81019080803590602001909291905050506133ef565b6040518082815260200191505060405180910390f35b610ef3613498565b6040518080602001828103825283818151815260200191508051906020019060200280838360005b83811015610f36578082015181840152602081019050610f1b565b505050509050019250505060405180910390f35b610f7660048036036020811015610f6057600080fd5b8101908080359060200190929190505050613525565b005b610f80613600565b604051808273ffffffffffffffffffffffffffffffffffffffff1673ffffffffffffffffffffffffffffffffffffffff16815260200191505060405180910390f35b61104c600480360360c0811015610fd857600080fd5b81019080803573ffffffffffffffffffffffffffffffffffffffff169060200190929190803590602001909291908035906020019092919080359060200190929190803573ffffffffffffffffffffffffffffffffffffffff16906020019092919080359060200190929190505050613625565b6040518082815260200191505060405180910390f35b61106a6137b4565b6040518082815260200191505060405180910390f35b6110886137d8565b6040518080602001828103825283818151815260200191508051906020019080838360005b838110156110c85780820151818401526020810190506110ad565b50505050905090810190601f1680156110f55780820380516001836020036101000a031916815260200191505b509250505060405180910390f35b6111456004803603602081101561111957600080fd5b81019080803573ffffffffffffffffffffffffffffffffffffffff169060200190929190505050613876565b005b61114f613925565b005b61117d6004803603602081101561116757600080fd5b81019080803590602001909291905050506139f7565b60405180848152602001838152602001828152602001935050505060405180910390f35b6111a9613b10565b604051808273ffffffffffffffffffffffffffffffffffffffff1673ffffffffffffffffffffffffffffffffffffffff16815260200191505060405180910390f35b61122d6004803603602081101561120157600080fd5b81019080803573ffffffffffffffffffffffffffffffffffffffff169060200190929190505050613b36565b005b6112716004803603602081101561124557600080fd5b81019080803573ffffffffffffffffffffffffffffffffffffffff169060200190929190505050613b8b565b6040518082815260200191505060405180910390f35b6112c96004803603602081101561129d57600080fd5b81019080803573ffffffffffffffffffffffffffffffffffffffff169060200190929190505050613c53565b6040518082815260200191505060405180910390f35b61132b600480360360408110156112f557600080fd5b81019080803573ffffffffffffffffffffffffffffffffffffffff16906020019092919080359060200190929190505050613d1b565b604051808215151515815260200191505060405180910390f35b61139b6004803603606081101561135b57600080fd5b81019080803573ffffffffffffffffffffffffffffffffffffffff1690602001909291908035906020019092919080359060200190929190505050613d92565b005b6113a5613f08565b005b6113e9600480360360208110156113bd57600080fd5b81019080803573ffffffffffffffffffffffffffffffffffffffff169060200190929190505050613fda565b005b6114376004803603604081101561140157600080fd5b81019080803573ffffffffffffffffffffffffffffffffffffffff16906020019092919080359060200190929190505050614026565b005b6114996004803603608081101561144f57600080fd5b81019080803573ffffffffffffffffffffffffffffffffffffffff169060200190929190803590602001909291908035906020019092919080359060200190929190505050614136565b6040518082815260200191505060405180910390f35b6114fb600480360360408110156114c557600080fd5b81019080803573ffffffffffffffffffffffffffffffffffffffff16906020019092919080359060200190929190505050614287565b6040518082815260200191505060405180910390f35b61153d6004803603602081101561152757600080fd5b8101908080359060200190929190505050614358565b6040518082815260200191505060405180910390f35b61155b614401565b604051808273ffffffffffffffffffffffffffffffffffffffff1673ffffffffffffffffffffffffffffffffffffffff16815260200191505060405180910390f35b6115c9600480360360208110156115b357600080fd5b8101908080359060200190929190505050614427565b005b6115d36144d8565b6040518082815260200191505060405180910390f35b61164b600480360360408110156115ff57600080fd5b81019080803573ffffffffffffffffffffffffffffffffffffffff169060200190929190803573ffffffffffffffffffffffffffffffffffffffff169060200190929190505050614567565b6040518082815260200191505060405180910390f35b6116a16004803603606081101561167757600080fd5b8101908080359060200190929190803590602001909291908035906020019092919050505061467f565b005b6116ef600480360360408110156116b957600080fd5b81019080803573ffffffffffffffffffffffffffffffffffffffff169060200190929190803590602001909291905050506147ed565b604051808215151515815260200191505060405180910390f35b6117556004803603604081101561171f57600080fd5b81019080803573ffffffffffffffffffffffffffffffffffffffff169060200190929190803590602001909291905050506147fd565b005b61175f61490d565b604051808273ffffffffffffffffffffffffffffffffffffffff1673ffffffffffffffffffffffffffffffffffffffff16815260200191505060405180910390f35b6117a9614933565b604051808273ffffffffffffffffffffffffffffffffffffffff1673ffffffffffffffffffffffffffffffffffffffff16815260200191505060405180910390f35b6118376004803603604081101561180157600080fd5b81019080803573ffffffffffffffffffffffffffffffffffffffff16906020019092919080359060200190929190505050614959565b005b6118796004803603606081101561184f57600080fd5b81019080803590602001909291908035906020019092919080359060200190929190505050614b40565b6040518082815260200191505060405180910390f35b600960019054906101000a900473ffffffffffffffffffffffffffffffffffffffff1681565b60006118bf614cb2565b73ffffffffffffffffffffffffffffffffffffffff166305b3c1c9836040518263ffffffff1660e01b8152600401808273ffffffffffffffffffffffffffffffffffffffff1673ffffffffffffffffffffffffffffffffffffffff16815260200191505060206040518083038186803b15801561193b57600080fd5b505afa15801561194f573d6000803e3d6000fd5b505050506040513d602081101561196557600080fd5b81019080805190602001909291905050509050919050565b60068054600181600116156101000203166002900480601f016020809104026020016040519081016040528092919081815260200182805460018160011615610100020316600290048015611a135780601f106119e857610100808354040283529160200191611a13565b820191906000526020600020905b8154815290600101906020018083116119f657829003601f168201915b505050505081565b6000611a25614ce2565b6000600460009054906101000a900473ffffffffffffffffffffffffffffffffffffffff169050600560009054906101000a900473ffffffffffffffffffffffffffffffffffffffff1673ffffffffffffffffffffffffffffffffffffffff1663da46098c8286866040518463ffffffff1660e01b8152600401808473ffffffffffffffffffffffffffffffffffffffff1673ffffffffffffffffffffffffffffffffffffffff1681526020018373ffffffffffffffffffffffffffffffffffffffff1673ffffffffffffffffffffffffffffffffffffffff1681526020018281526020019350505050600060405180830381600087803b158015611b2957600080fd5b505af1158015611b3d573d6000803e3d6000fd5b50505050611b4c818585614e31565b600191505092915050565b600080611b62614f9c565b94509492505050565b6000806000611b78614cb2565b73ffffffffffffffffffffffffffffffffffffffff16631137aedf856040518263ffffffff1660e01b8152600401808273ffffffffffffffffffffffffffffffffffffffff1673ffffffffffffffffffffffffffffffffffffffff16815260200191505060606040518083038186803b158015611bf457600080fd5b505afa158015611c08573d6000803e3d6000fd5b505050506040513d6060811015611c1e57600080fd5b810190808051906020019092919080519060200190929190805190602001909291905050509250925092509193909250565b6000611c5a614f9c565b90565b611c6561500a565b80600360006101000a81548173ffffffffffffffffffffffffffffffffffffffff021916908373ffffffffffffffffffffffffffffffffffffffff16021790555050565b611cb161500a565b80600160006101000a81548173ffffffffffffffffffffffffffffffffffffffff021916908373ffffffffffffffffffffffffffffffffffffffff1602179055507f906a1c6bd7e3091ea86693dd029a831c19049ce77f1dce2ce0bab1cacbabce2281604051808273ffffffffffffffffffffffffffffffffffffffff1673ffffffffffffffffffffffffffffffffffffffff16815260200191505060405180910390a150565b6000611d62614cb2565b73ffffffffffffffffffffffffffffffffffffffff166316b2213f836040518263ffffffff1660e01b8152600401808273ffffffffffffffffffffffffffffffffffffffff1673ffffffffffffffffffffffffffffffffffffffff16815260200191505060206040518083038186803b158015611dde57600080fd5b505afa158015611df2573d6000803e3d6000fd5b505050506040513d6020811015611e0857600080fd5b81019080805190602001909291905050509050919050565b60085481565b6040518060400160405280601781526020017f53796e746865746978204e6574776f726b20546f6b656e00000000000000000081525081565b600080611e6a6150b1565b73ffffffffffffffffffffffffffffffffffffffff1663059c29ec600460009054906101000a900473ffffffffffffffffffffffffffffffffffffffff16856040518363ffffffff1660e01b8152600401808373ffffffffffffffffffffffffffffffffffffffff1673ffffffffffffffffffffffffffffffffffffffff1681526020018281526020019250505060206040518083038186803b158015611f1057600080fd5b505afa158015611f24573d6000803e3d6000fd5b505050506040513d6020811015611f3a57600080fd5b8101908080519060200190929190505050119050919050565b6000611f5d614ce2565b611f656150e1565b611f6f8483615148565b50611f9e600460009054906101000a900473ffffffffffffffffffffffffffffffffffffffff168585856154aa565b90509392505050565b611faf6156d5565b611fb7614ce2565b611fbf614cb2565b73ffffffffffffffffffffffffffffffffffffffff1663b06e8c65600460009054906101000a900473ffffffffffffffffffffffffffffffffffffffff16836040518363ffffffff1660e01b8152600401808373ffffffffffffffffffffffffffffffffffffffff1673ffffffffffffffffffffffffffffffffffffffff16815260200182815260200192505050600060405180830381600087803b15801561206757600080fd5b505af115801561207b573d6000803e3d6000fd5b5050505050565b6040518060400160405280600381526020017f534e58000000000000000000000000000000000000000000000000000000000081525081565b600060606120c7613498565b905060008090505b81518110156122895760008282815181106120e657fe5b60200260200101519050600a600082815260200190815260200160002060009054906101000a900473ffffffffffffffffffffffffffffffffffffffff1673ffffffffffffffffffffffffffffffffffffffff16600960019054906101000a900473ffffffffffffffffffffffffffffffffffffffff1673ffffffffffffffffffffffffffffffffffffffff166321f8a721836040518263ffffffff1660e01b81526004018082815260200191505060206040518083038186803b1580156121ad57600080fd5b505afa1580156121c1573d6000803e3d6000fd5b505050506040513d60208110156121d757600080fd5b810190808051906020019092919050505073ffffffffffffffffffffffffffffffffffffffff1614158061226a5750600073ffffffffffffffffffffffffffffffffffffffff16600a600083815260200190815260200160002060009054906101000a900473ffffffffffffffffffffffffffffffffffffffff1673ffffffffffffffffffffffffffffffffffffffff16145b1561227b5760009350505050612290565b5080806001019150506120cf565b5060019150505b90565b61229b6156d5565b6122a3614ce2565b6122ab614cb2565b73ffffffffffffffffffffffffffffffffffffffff16632b3f41aa82600460009054906101000a900473ffffffffffffffffffffffffffffffffffffffff166040518363ffffffff1660e01b8152600401808373ffffffffffffffffffffffffffffffffffffffff1673ffffffffffffffffffffffffffffffffffffffff1681526020018273ffffffffffffffffffffffffffffffffffffffff1673ffffffffffffffffffffffffffffffffffffffff16815260200192505050600060405180830381600087803b15801561237f57600080fd5b505af1158015612393573d6000803e3d6000fd5b5050505050565b601281565b600085846123ad828261573c565b6123b5614ce2565b6123bd6150b1565b73ffffffffffffffffffffffffffffffffffffffff166386baa45c600460009054906101000a900473ffffffffffffffffffffffffffffffffffffffff168a8a8a600460009054906101000a900473ffffffffffffffffffffffffffffffffffffffff168b8b6040518863ffffffff1660e01b8152600401808873ffffffffffffffffffffffffffffffffffffffff1673ffffffffffffffffffffffffffffffffffffffff1681526020018781526020018681526020018581526020018473ffffffffffffffffffffffffffffffffffffffff1673ffffffffffffffffffffffffffffffffffffffff1681526020018373ffffffffffffffffffffffffffffffffffffffff1673ffffffffffffffffffffffffffffffffffffffff168152602001828152602001975050505050505050602060405180830381600087803b15801561250757600080fd5b505af115801561251b573d6000803e3d6000fd5b505050506040513d602081101561253157600080fd5b81019080805190602001909291905050509250505095945050505050565b600960009054906101000a900460ff1681565b61256a6156d5565b612572614ce2565b61257a614cb2565b73ffffffffffffffffffffffffffffffffffffffff1663fd864ccf82600460009054906101000a900473ffffffffffffffffffffffffffffffffffffffff166040518363ffffffff1660e01b8152600401808373ffffffffffffffffffffffffffffffffffffffff1673ffffffffffffffffffffffffffffffffffffffff1681526020018273ffffffffffffffffffffffffffffffffffffffff1673ffffffffffffffffffffffffffffffffffffffff16815260200192505050600060405180830381600087803b15801561264e57600080fd5b505af1158015612662573d6000803e3d6000fd5b5050505050565b6000612673614cb2565b73ffffffffffffffffffffffffffffffffffffffff166332608039836040518263ffffffff1660e01b81526004018082815260200191505060206040518083038186803b1580156126c357600080fd5b505afa1580156126d7573d6000803e3d6000fd5b505050506040513d60208110156126ed57600080fd5b81019080805190602001909291905050509050919050565b600061270f614cb2565b73ffffffffffffffffffffffffffffffffffffffff16634e99bda96040518163ffffffff1660e01b815260040160206040518083038186803b15801561275457600080fd5b505afa158015612768573d6000803e3d6000fd5b505050506040513d602081101561277e57600080fd5b8101908080519060200190929190505050905090565b600160009054906101000a900473ffffffffffffffffffffffffffffffffffffffff1681565b6127c26157b8565b6127cc8282615862565b5050565b60006127da614cb2565b73ffffffffffffffffffffffffffffffffffffffff16636bed041583600560009054906101000a900473ffffffffffffffffffffffffffffffffffffffff1673ffffffffffffffffffffffffffffffffffffffff166370a08231866040518263ffffffff1660e01b8152600401808273ffffffffffffffffffffffffffffffffffffffff1673ffffffffffffffffffffffffffffffffffffffff16815260200191505060206040518083038186803b15801561289557600080fd5b505afa1580156128a9573d6000803e3d6000fd5b505050506040513d60208110156128bf57600080fd5b81019080805190602001909291905050506040518363ffffffff1660e01b8152600401808373ffffffffffffffffffffffffffffffffffffffff1673ffffffffffffffffffffffffffffffffffffffff16815260200182815260200192505050604080518083038186803b15801561293657600080fd5b505afa15801561294a573d6000803e3d6000fd5b505050506040513d604081101561296057600080fd5b8101908080519060200190929190805190602001909291905050505080915050919050565b61298d615a38565b600260009054906101000a900473ffffffffffffffffffffffffffffffffffffffff1673ffffffffffffffffffffffffffffffffffffffff1663907dff978686868686604051602001808681526020018581526020018481526020018381526020018273ffffffffffffffffffffffffffffffffffffffff1673ffffffffffffffffffffffffffffffffffffffff1681526020019550505050505060405160208183030381529060405260026040518080616be1603e9139603e0190506040518091039020612a5b8b615ae2565b6000806040518763ffffffff1660e01b815260040180806020018781526020018681526020018581526020018460001b81526020018360001b8152602001828103825288818151815260200191508051906020019080838360005b83811015612ad1578082015181840152602081019050612ab6565b50505050905090810190601f168015612afe5780820380516001836020036101000a031916815260200191505b50975050505050505050600060405180830381600087803b158015612b2257600080fd5b505af1158015612b36573d6000803e3d6000fd5b50505050505050505050565b612b4a615a38565b600260009054906101000a900473ffffffffffffffffffffffffffffffffffffffff1673ffffffffffffffffffffffffffffffffffffffff1663907dff978383604051602001808381526020018281526020019250505060405160208183030381529060405260026040518080616c956027913960270190506040518091039020612bd488615ae2565b6000806040518763ffffffff1660e01b815260040180806020018781526020018681526020018581526020018460001b81526020018360001b8152602001828103825288818151815260200191508051906020019080838360005b83811015612c4a578082015181840152602081019050612c2f565b50505050905090810190601f168015612c775780820380516001836020036101000a031916815260200191505b50975050505050505050600060405180830381600087803b158015612c9b57600080fd5b505af1158015612caf573d6000803e3d6000fd5b50505050505050565b6000600560009054906101000a900473ffffffffffffffffffffffffffffffffffffffff1673ffffffffffffffffffffffffffffffffffffffff166370a08231836040518263ffffffff1660e01b8152600401808273ffffffffffffffffffffffffffffffffffffffff1673ffffffffffffffffffffffffffffffffffffffff16815260200191505060206040518083038186803b158015612d5957600080fd5b505afa158015612d6d573d6000803e3d6000fd5b505050506040513d6020811015612d8357600080fd5b81019080805190602001909291905050509050919050565b6060612da5614cb2565b73ffffffffffffffffffffffffffffffffffffffff166372cb051f6040518163ffffffff1660e01b815260040160006040518083038186803b158015612dea57600080fd5b505afa158015612dfe573d6000803e3d6000fd5b505050506040513d6000823e3d601f19601f820116820180604052506020811015612e2857600080fd5b8101908080516040519392919084640100000000821115612e4857600080fd5b83820191506020820185811115612e5e57600080fd5b8251866020820283011164010000000082111715612e7b57600080fd5b8083526020830192505050908051906020019060200280838360005b83811015612eb2578082015181840152602081019050612e97565b50505050905001604052505050905090565b6060612ece613498565b905060008090505b8151811015613129576000828281518110612eed57fe5b602002602001015190506000600960019054906101000a900473ffffffffffffffffffffffffffffffffffffffff1673ffffffffffffffffffffffffffffffffffffffff1663dacb2d01838460405160200180807f5265736f6c766572206d697373696e67207461726765743a20000000000000008152506019018281526020019150506040516020818303038152906040526040518363ffffffff1660e01b81526004018083815260200180602001828103825283818151815260200191508051906020019080838360005b83811015612fd5578082015181840152602081019050612fba565b50505050905090810190601f1680156130025780820380516001836020036101000a031916815260200191505b50935050505060206040518083038186803b15801561302057600080fd5b505afa158015613034573d6000803e3d6000fd5b505050506040513d602081101561304a57600080fd5b8101908080519060200190929190505050905080600a600084815260200190815260200160002060006101000a81548173ffffffffffffffffffffffffffffffffffffffff021916908373ffffffffffffffffffffffffffffffffffffffff1602179055507f88a93678a3692f6789d9546fc621bf7234b101ddb7d4fe479455112831b8aa688282604051808381526020018273ffffffffffffffffffffffffffffffffffffffff1673ffffffffffffffffffffffffffffffffffffffff1681526020019250505060405180910390a150508080600101915050612ed6565b5050565b600160009054906101000a900473ffffffffffffffffffffffffffffffffffffffff1673ffffffffffffffffffffffffffffffffffffffff163373ffffffffffffffffffffffffffffffffffffffff16146131d3576040517f08c379a0000000000000000000000000000000000000000000000000000000008152600401808060200182810382526035815260200180616b846035913960400191505060405180910390fd5b7fb532073b38c83145e3e5135377a08bf9aab55bc0fd7c1179cd4fb995d2a5159c6000809054906101000a900473ffffffffffffffffffffffffffffffffffffffff16600160009054906101000a900473ffffffffffffffffffffffffffffffffffffffff16604051808373ffffffffffffffffffffffffffffffffffffffff1673ffffffffffffffffffffffffffffffffffffffff1681526020018273ffffffffffffffffffffffffffffffffffffffff1673ffffffffffffffffffffffffffffffffffffffff1681526020019250505060405180910390a1600160009054906101000a900473ffffffffffffffffffffffffffffffffffffffff166000806101000a81548173ffffffffffffffffffffffffffffffffffffffff021916908373ffffffffffffffffffffffffffffffffffffffff1602179055506000600160006101000a81548173ffffffffffffffffffffffffffffffffffffffff021916908373ffffffffffffffffffffffffffffffffffffffff160217905550565b600061335d614cb2565b73ffffffffffffffffffffffffffffffffffffffff1663835e119c836040518263ffffffff1660e01b81526004018082815260200191505060206040518083038186803b1580156133ad57600080fd5b505afa1580156133c1573d6000803e3d6000fd5b505050506040513d60208110156133d757600080fd5b81019080805190602001909291905050509050919050565b60006133f9614cb2565b73ffffffffffffffffffffffffffffffffffffffff16637b1001b78360006040518363ffffffff1660e01b815260040180838152602001821515151581526020019250505060206040518083038186803b15801561345657600080fd5b505afa15801561346a573d6000803e3d6000fd5b505050506040513d602081101561348057600080fd5b81019080805190602001909291905050509050919050565b6060806134a3615b05565b9050606060016040519080825280602002602001820160405280156134d75781602001602082028038833980820191505090505b5090507f53796e746865746978427269646765546f4261736500000000000000000000008160008151811061350857fe5b60200260200101818152505061351e8282615c5f565b9250505090565b61352d6156d5565b613535614ce2565b61353d614cb2565b73ffffffffffffffffffffffffffffffffffffffff1663042e0688600460009054906101000a900473ffffffffffffffffffffffffffffffffffffffff16836040518363ffffffff1660e01b8152600401808373ffffffffffffffffffffffffffffffffffffffff1673ffffffffffffffffffffffffffffffffffffffff16815260200182815260200192505050600060405180830381600087803b1580156135e557600080fd5b505af11580156135f9573d6000803e3d6000fd5b5050505050565b6000809054906101000a900473ffffffffffffffffffffffffffffffffffffffff1681565b60008584613633828261573c565b61363b614ce2565b6136436150b1565b73ffffffffffffffffffffffffffffffffffffffff1663dfffca768a600460009054906101000a900473ffffffffffffffffffffffffffffffffffffffff168b8b8b8b8b6040518863ffffffff1660e01b8152600401808873ffffffffffffffffffffffffffffffffffffffff1673ffffffffffffffffffffffffffffffffffffffff1681526020018773ffffffffffffffffffffffffffffffffffffffff1673ffffffffffffffffffffffffffffffffffffffff1681526020018681526020018581526020018481526020018373ffffffffffffffffffffffffffffffffffffffff1673ffffffffffffffffffffffffffffffffffffffff168152602001828152602001975050505050505050602060405180830381600087803b15801561376b57600080fd5b505af115801561377f573d6000803e3d6000fd5b505050506040513d602081101561379557600080fd5b8101908080519060200190929190505050925050509695505050505050565b7f735553440000000000000000000000000000000000000000000000000000000081565b60078054600181600116156101000203166002900480601f01602080910402602001604051908101604052809291908181526020018280546001816001161561010002031660029004801561386e5780601f106138435761010080835404028352916020019161386e565b820191906000526020600020905b81548152906001019060200180831161385157829003601f168201915b505050505081565b61387e61500a565b80600260006101000a81548173ffffffffffffffffffffffffffffffffffffffff021916908373ffffffffffffffffffffffffffffffffffffffff1602179055507ffc80377ca9c49cc11ae6982f390a42db976d5530af7c43889264b13fbbd7c57e81604051808273ffffffffffffffffffffffffffffffffffffffff1673ffffffffffffffffffffffffffffffffffffffff16815260200191505060405180910390a150565b61392d6156d5565b613935614ce2565b61393d614cb2565b73ffffffffffffffffffffffffffffffffffffffff1663497d704a600460009054906101000a900473ffffffffffffffffffffffffffffffffffffffff166040518263ffffffff1660e01b8152600401808273ffffffffffffffffffffffffffffffffffffffff1673ffffffffffffffffffffffffffffffffffffffff168152602001915050600060405180830381600087803b1580156139dd57600080fd5b505af11580156139f1573d6000803e3d6000fd5b50505050565b6000806000613a04614ce2565b613a0c6150b1565b73ffffffffffffffffffffffffffffffffffffffff16631b16802c600460009054906101000a900473ffffffffffffffffffffffffffffffffffffffff16866040518363ffffffff1660e01b8152600401808373ffffffffffffffffffffffffffffffffffffffff1673ffffffffffffffffffffffffffffffffffffffff16815260200182815260200192505050606060405180830381600087803b158015613ab457600080fd5b505af1158015613ac8573d6000803e3d6000fd5b505050506040513d6060811015613ade57600080fd5b810190808051906020019092919080519060200190929190805190602001909291905050509250925092509193909250565b600360009054906101000a900473ffffffffffffffffffffffffffffffffffffffff1681565b613b3e615d32565b80600560006101000a81548173ffffffffffffffffffffffffffffffffffffffff021916908373ffffffffffffffffffffffffffffffffffffffff160217905550613b8881615f65565b50565b6000613b95614cb2565b73ffffffffffffffffffffffffffffffffffffffff1663a311c7c2836040518263ffffffff1660e01b8152600401808273ffffffffffffffffffffffffffffffffffffffff1673ffffffffffffffffffffffffffffffffffffffff16815260200191505060206040518083038186803b158015613c1157600080fd5b505afa158015613c25573d6000803e3d6000fd5b505050506040513d6020811015613c3b57600080fd5b81019080805190602001909291905050509050919050565b6000613c5d614cb2565b73ffffffffffffffffffffffffffffffffffffffff1663a5fdc5de836040518263ffffffff1660e01b8152600401808273ffffffffffffffffffffffffffffffffffffffff1673ffffffffffffffffffffffffffffffffffffffff16815260200191505060206040518083038186803b158015613cd957600080fd5b505afa158015613ced573d6000803e3d6000fd5b505050506040513d6020811015613d0357600080fd5b81019080805190602001909291905050509050919050565b6000613d25614ce2565b613d2d6150e1565b613d59600460009054906101000a900473ffffffffffffffffffffffffffffffffffffffff1683615148565b50613d87600460009054906101000a900473ffffffffffffffffffffffffffffffffffffffff16848461610e565b506001905092915050565b613d9a615a38565b600260009054906101000a900473ffffffffffffffffffffffffffffffffffffffff1673ffffffffffffffffffffffffffffffffffffffff1663907dff978383604051602001808381526020018281526020019250505060405160208183030381529060405260026040518080616bb96028913960280190506040518091039020613e2488615ae2565b6000806040518763ffffffff1660e01b815260040180806020018781526020018681526020018581526020018460001b81526020018360001b8152602001828103825288818151815260200191508051906020019080838360005b83811015613e9a578082015181840152602081019050613e7f565b50505050905090810190601f168015613ec75780820380516001836020036101000a031916815260200191505b50975050505050505050600060405180830381600087803b158015613eeb57600080fd5b505af1158015613eff573d6000803e3d6000fd5b50505050505050565b613f106156d5565b613f18614ce2565b613f20614cb2565b73ffffffffffffffffffffffffffffffffffffffff1663c8977132600460009054906101000a900473ffffffffffffffffffffffffffffffffffffffff166040518263ffffffff1660e01b8152600401808273ffffffffffffffffffffffffffffffffffffffff1673ffffffffffffffffffffffffffffffffffffffff168152602001915050600060405180830381600087803b158015613fc057600080fd5b505af1158015613fd4573d6000803e3d6000fd5b50505050565b613fe2616124565b80600460006101000a81548173ffffffffffffffffffffffffffffffffffffffff021916908373ffffffffffffffffffffffffffffffffffffffff16021790555050565b61402e6156d5565b614036614ce2565b61403e614cb2565b73ffffffffffffffffffffffffffffffffffffffff16639a5154b483600460009054906101000a900473ffffffffffffffffffffffffffffffffffffffff16846040518463ffffffff1660e01b8152600401808473ffffffffffffffffffffffffffffffffffffffff1673ffffffffffffffffffffffffffffffffffffffff1681526020018373ffffffffffffffffffffffffffffffffffffffff1673ffffffffffffffffffffffffffffffffffffffff1681526020018281526020019350505050600060405180830381600087803b15801561411a57600080fd5b505af115801561412e573d6000803e3d6000fd5b505050505050565b60008382614144828261573c565b61414c614ce2565b6141546150b1565b73ffffffffffffffffffffffffffffffffffffffff16636a1c475888600460009054906101000a900473ffffffffffffffffffffffffffffffffffffffff168989896040518663ffffffff1660e01b8152600401808673ffffffffffffffffffffffffffffffffffffffff1673ffffffffffffffffffffffffffffffffffffffff1681526020018573ffffffffffffffffffffffffffffffffffffffff1673ffffffffffffffffffffffffffffffffffffffff16815260200184815260200183815260200182815260200195505050505050602060405180830381600087803b15801561424057600080fd5b505af1158015614254573d6000803e3d6000fd5b505050506040513d602081101561426a57600080fd5b810190808051906020019092919050505092505050949350505050565b6000614291614cb2565b73ffffffffffffffffffffffffffffffffffffffff1663d37c4d8b84846040518363ffffffff1660e01b8152600401808373ffffffffffffffffffffffffffffffffffffffff1673ffffffffffffffffffffffffffffffffffffffff1681526020018281526020019250505060206040518083038186803b15801561431557600080fd5b505afa158015614329573d6000803e3d6000fd5b505050506040513d602081101561433f57600080fd5b8101908080519060200190929190505050905092915050565b6000614362614cb2565b73ffffffffffffffffffffffffffffffffffffffff16637b1001b78360016040518363ffffffff1660e01b815260040180838152602001821515151581526020019250505060206040518083038186803b1580156143bf57600080fd5b505afa1580156143d3573d6000803e3d6000fd5b505050506040513d60208110156143e957600080fd5b81019080805190602001909291905050509050919050565b600460009054906101000a900473ffffffffffffffffffffffffffffffffffffffff1681565b61442f6157b8565b6000614439616241565b90506144458183615862565b8073ffffffffffffffffffffffffffffffffffffffff166359974e38836040518263ffffffff1660e01b815260040180828152602001915050602060405180830381600087803b15801561449857600080fd5b505af11580156144ac573d6000803e3d6000fd5b505050506040513d60208110156144c257600080fd5b8101908080519060200190929190505050505050565b60006144e2614cb2565b73ffffffffffffffffffffffffffffffffffffffff1663dbf633406040518163ffffffff1660e01b815260040160206040518083038186803b15801561452757600080fd5b505afa15801561453b573d6000803e3d6000fd5b505050506040513d602081101561455157600080fd5b8101908080519060200190929190505050905090565b6000600560009054906101000a900473ffffffffffffffffffffffffffffffffffffffff1673ffffffffffffffffffffffffffffffffffffffff1663dd62ed3e84846040518363ffffffff1660e01b8152600401808373ffffffffffffffffffffffffffffffffffffffff1673ffffffffffffffffffffffffffffffffffffffff1681526020018273ffffffffffffffffffffffffffffffffffffffff1673ffffffffffffffffffffffffffffffffffffffff1681526020019250505060206040518083038186803b15801561463c57600080fd5b505afa158015614650573d6000803e3d6000fd5b505050506040513d602081101561466657600080fd5b8101908080519060200190929190505050905092915050565b614687615a38565b600260009054906101000a900473ffffffffffffffffffffffffffffffffffffffff1673ffffffffffffffffffffffffffffffffffffffff1663907dff978383604051602001808381526020018281526020019250505060405160208183030381529060405260026040518080616cbc6029913960290190506040518091039020876000806040518763ffffffff1660e01b815260040180806020018781526020018681526020018581526020018460001b81526020018360001b8152602001828103825288818151815260200191508051906020019080838360005b8381101561477f578082015181840152602081019050614764565b50505050905090810190601f1680156147ac5780820380516001836020036101000a031916815260200191505b50975050505050505050600060405180830381600087803b1580156147d057600080fd5b505af11580156147e4573d6000803e3d6000fd5b50505050505050565b60006147f7614f9c565b92915050565b6148056156d5565b61480d614ce2565b614815614cb2565b73ffffffffffffffffffffffffffffffffffffffff166344ec6b6283600460009054906101000a900473ffffffffffffffffffffffffffffffffffffffff16846040518463ffffffff1660e01b8152600401808473ffffffffffffffffffffffffffffffffffffffff1673ffffffffffffffffffffffffffffffffffffffff1681526020018373ffffffffffffffffffffffffffffffffffffffff1673ffffffffffffffffffffffffffffffffffffffff1681526020018281526020019350505050600060405180830381600087803b1580156148f157600080fd5b505af1158015614905573d6000803e3d6000fd5b505050505050565b600560009054906101000a900473ffffffffffffffffffffffffffffffffffffffff1681565b600260009054906101000a900473ffffffffffffffffffffffffffffffffffffffff1681565b6149616157b8565b6149696150e1565b600560009054906101000a900473ffffffffffffffffffffffffffffffffffffffff1673ffffffffffffffffffffffffffffffffffffffff1663b46310f683614a9484600560009054906101000a900473ffffffffffffffffffffffffffffffffffffffff1673ffffffffffffffffffffffffffffffffffffffff166370a08231886040518263ffffffff1660e01b8152600401808273ffffffffffffffffffffffffffffffffffffffff1673ffffffffffffffffffffffffffffffffffffffff16815260200191505060206040518083038186803b158015614a4b57600080fd5b505afa158015614a5f573d6000803e3d6000fd5b505050506040513d6020811015614a7557600080fd5b810190808051906020019092919050505061627190919063ffffffff16565b6040518363ffffffff1660e01b8152600401808373ffffffffffffffffffffffffffffffffffffffff1673ffffffffffffffffffffffffffffffffffffffff16815260200182815260200192505050600060405180830381600087803b158015614afd57600080fd5b505af1158015614b11573d6000803e3d6000fd5b50505050614b21826000836162fa565b614b368160085461627190919063ffffffff16565b6008819055505050565b60008382614b4e828261573c565b614b56614ce2565b614b5e6150b1565b73ffffffffffffffffffffffffffffffffffffffff16630a1e187d600460009054906101000a900473ffffffffffffffffffffffffffffffffffffffff16888888600460009054906101000a900473ffffffffffffffffffffffffffffffffffffffff166040518663ffffffff1660e01b8152600401808673ffffffffffffffffffffffffffffffffffffffff1673ffffffffffffffffffffffffffffffffffffffff1681526020018581526020018481526020018381526020018273ffffffffffffffffffffffffffffffffffffffff1673ffffffffffffffffffffffffffffffffffffffff16815260200195505050505050602060405180830381600087803b158015614c6c57600080fd5b505af1158015614c80573d6000803e3d6000fd5b505050506040513d6020811015614c9657600080fd5b8101908080519060200190929190505050925050509392505050565b6000614cdd7f4973737565720000000000000000000000000000000000000000000000000000616465565b905090565b600260009054906101000a900473ffffffffffffffffffffffffffffffffffffffff1673ffffffffffffffffffffffffffffffffffffffff163373ffffffffffffffffffffffffffffffffffffffff1614158015614d8e5750600360009054906101000a900473ffffffffffffffffffffffffffffffffffffffff1673ffffffffffffffffffffffffffffffffffffffff163373ffffffffffffffffffffffffffffffffffffffff1614155b8015614de857503373ffffffffffffffffffffffffffffffffffffffff16600460009054906101000a900473ffffffffffffffffffffffffffffffffffffffff1673ffffffffffffffffffffffffffffffffffffffff1614155b15614e2f5733600460006101000a81548173ffffffffffffffffffffffffffffffffffffffff021916908373ffffffffffffffffffffffffffffffffffffffff1602179055505b565b600260009054906101000a900473ffffffffffffffffffffffffffffffffffffffff1673ffffffffffffffffffffffffffffffffffffffff1663907dff97826040516020018082815260200191505060405160208183030381529060405260036040518080616c746021913960210190506040518091039020614eb388615ae2565b614ebc88615ae2565b60006040518763ffffffff1660e01b815260040180806020018781526020018681526020018581526020018481526020018360001b8152602001828103825288818151815260200191508051906020019080838360005b83811015614f2e578082015181840152602081019050614f13565b50505050905090810190601f168015614f5b5780820380516001836020036101000a031916815260200191505b50975050505050505050600060405180830381600087803b158015614f7f57600080fd5b505af1158015614f93573d6000803e3d6000fd5b50505050505050565b6040517f08c379a000000000000000000000000000000000000000000000000000000000815260040180806020018281038252601b8152602001807f43616e6e6f742062652072756e206f6e2074686973206c61796572000000000081525060200191505060405180910390fd5b6000809054906101000a900473ffffffffffffffffffffffffffffffffffffffff1673ffffffffffffffffffffffffffffffffffffffff163373ffffffffffffffffffffffffffffffffffffffff16146150af576040517f08c379a000000000000000000000000000000000000000000000000000000000815260040180806020018281038252602f815260200180616c45602f913960400191505060405180910390fd5b565b60006150dc7f45786368616e6765720000000000000000000000000000000000000000000000616465565b905090565b6150e96165c7565b73ffffffffffffffffffffffffffffffffffffffff1663086dabd16040518163ffffffff1660e01b815260040160006040518083038186803b15801561512e57600080fd5b505afa158015615142573d6000803e3d6000fd5b50505050565b6000806151536165f7565b73ffffffffffffffffffffffffffffffffffffffff16638b3f8088856040518263ffffffff1660e01b8152600401808273ffffffffffffffffffffffffffffffffffffffff1673ffffffffffffffffffffffffffffffffffffffff168152602001915050604080518083038186803b1580156151ce57600080fd5b505afa1580156151e2573d6000803e3d6000fd5b505050506040513d60408110156151f857600080fd5b810190808051906020019092919080519060200190929190505050509050600081111561549f5760008061522a614cb2565b73ffffffffffffffffffffffffffffffffffffffff16636bed041587600560009054906101000a900473ffffffffffffffffffffffffffffffffffffffff1673ffffffffffffffffffffffffffffffffffffffff166370a082318a6040518263ffffffff1660e01b8152600401808273ffffffffffffffffffffffffffffffffffffffff1673ffffffffffffffffffffffffffffffffffffffff16815260200191505060206040518083038186803b1580156152e557600080fd5b505afa1580156152f9573d6000803e3d6000fd5b505050506040513d602081101561530f57600080fd5b81019080805190602001909291905050506040518363ffffffff1660e01b8152600401808373ffffffffffffffffffffffffffffffffffffffff1673ffffffffffffffffffffffffffffffffffffffff16815260200182815260200192505050604080518083038186803b15801561538657600080fd5b505afa15801561539a573d6000803e3d6000fd5b505050506040513d60408110156153b057600080fd5b8101908080519060200190929190805190602001909291905050509150915081851115615428576040517f08c379a0000000000000000000000000000000000000000000000000000000008152600401808060200182810382526026815260200180616c1f6026913960400191505060405180910390fd5b801561549c576040517f08c379a000000000000000000000000000000000000000000000000000000000815260040180806020018281038252601e8152602001807f412073796e7468206f7220534e58207261746520697320696e76616c6964000081525060200191505060405180910390fd5b50505b600191505092915050565b6000600560009054906101000a900473ffffffffffffffffffffffffffffffffffffffff1673ffffffffffffffffffffffffffffffffffffffff1663da46098c858761560c86600560009054906101000a900473ffffffffffffffffffffffffffffffffffffffff1673ffffffffffffffffffffffffffffffffffffffff1663dd62ed3e8b8d6040518363ffffffff1660e01b8152600401808373ffffffffffffffffffffffffffffffffffffffff1673ffffffffffffffffffffffffffffffffffffffff1681526020018273ffffffffffffffffffffffffffffffffffffffff1673ffffffffffffffffffffffffffffffffffffffff1681526020019250505060206040518083038186803b1580156155c357600080fd5b505afa1580156155d7573d6000803e3d6000fd5b505050506040513d60208110156155ed57600080fd5b810190808051906020019092919050505061627190919063ffffffff16565b6040518463ffffffff1660e01b8152600401808473ffffffffffffffffffffffffffffffffffffffff1673ffffffffffffffffffffffffffffffffffffffff1681526020018373ffffffffffffffffffffffffffffffffffffffff1673ffffffffffffffffffffffffffffffffffffffff1681526020018281526020019350505050600060405180830381600087803b1580156156a857600080fd5b505af11580156156bc573d6000803e3d6000fd5b505050506156cb848484616627565b9050949350505050565b6156dd6165c7565b73ffffffffffffffffffffffffffffffffffffffff16637c3125416040518163ffffffff1660e01b815260040160006040518083038186803b15801561572257600080fd5b505afa158015615736573d6000803e3d6000fd5b50505050565b6157446165c7565b73ffffffffffffffffffffffffffffffffffffffff16631ce00ba283836040518363ffffffff1660e01b8152600401808381526020018281526020019250505060006040518083038186803b15801561579c57600080fd5b505afa1580156157b0573d6000803e3d6000fd5b505050505050565b6157c0616acb565b73ffffffffffffffffffffffffffffffffffffffff163373ffffffffffffffffffffffffffffffffffffffff1614615860576040517f08c379a000000000000000000000000000000000000000000000000000000000815260040180806020018281038252601d8152602001807f43616e206f6e6c7920626520696e766f6b65642062792062726964676500000081525060200191505060405180910390fd5b565b600560009054906101000a900473ffffffffffffffffffffffffffffffffffffffff1673ffffffffffffffffffffffffffffffffffffffff1663b46310f68361598d84600560009054906101000a900473ffffffffffffffffffffffffffffffffffffffff1673ffffffffffffffffffffffffffffffffffffffff166370a08231886040518263ffffffff1660e01b8152600401808273ffffffffffffffffffffffffffffffffffffffff1673ffffffffffffffffffffffffffffffffffffffff16815260200191505060206040518083038186803b15801561594457600080fd5b505afa158015615958573d6000803e3d6000fd5b505050506040513d602081101561596e57600080fd5b8101908080519060200190929190505050616afb90919063ffffffff16565b6040518363ffffffff1660e01b8152600401808373ffffffffffffffffffffffffffffffffffffffff1673ffffffffffffffffffffffffffffffffffffffff16815260200182815260200192505050600060405180830381600087803b1580156159f657600080fd5b505af1158015615a0a573d6000803e3d6000fd5b50505050615a193083836162fa565b615a2e81600854616afb90919063ffffffff16565b6008819055505050565b615a406150b1565b73ffffffffffffffffffffffffffffffffffffffff163373ffffffffffffffffffffffffffffffffffffffff1614615ae0576040517f08c379a000000000000000000000000000000000000000000000000000000000815260040180806020018281038252601e8152602001807f4f6e6c792045786368616e6765722063616e20696e766f6b652074686973000081525060200191505060405180910390fd5b565b60008173ffffffffffffffffffffffffffffffffffffffff1660001b9050919050565b60606005604051908082528060200260200182016040528015615b375781602001602082028038833980820191505090505b5090507f53796e746865746978537461746500000000000000000000000000000000000081600081518110615b6857fe5b6020026020010181815250507f53797374656d537461747573000000000000000000000000000000000000000081600181518110615ba257fe5b6020026020010181815250507f45786368616e676572000000000000000000000000000000000000000000000081600281518110615bdc57fe5b6020026020010181815250507f497373756572000000000000000000000000000000000000000000000000000081600381518110615c1657fe5b6020026020010181815250507f52657761726473446973747269627574696f6e0000000000000000000000000081600481518110615c5057fe5b60200260200101818152505090565b60608151835101604051908082528060200260200182016040528015615c945781602001602082028038833980820191505090505b50905060008090505b8351811015615cdf57838181518110615cb257fe5b6020026020010151828281518110615cc657fe5b6020026020010181815250508080600101915050615c9d565b5060008090505b8251811015615d2b57828181518110615cfb57fe5b6020026020010151828286510181518110615d1257fe5b6020026020010181815250508080600101915050615ce6565b5092915050565b600260009054906101000a900473ffffffffffffffffffffffffffffffffffffffff1673ffffffffffffffffffffffffffffffffffffffff163373ffffffffffffffffffffffffffffffffffffffff1614158015615dde5750600360009054906101000a900473ffffffffffffffffffffffffffffffffffffffff1673ffffffffffffffffffffffffffffffffffffffff163373ffffffffffffffffffffffffffffffffffffffff1614155b8015615e3857503373ffffffffffffffffffffffffffffffffffffffff16600460009054906101000a900473ffffffffffffffffffffffffffffffffffffffff1673ffffffffffffffffffffffffffffffffffffffff1614155b15615e7f5733600460006101000a81548173ffffffffffffffffffffffffffffffffffffffff021916908373ffffffffffffffffffffffffffffffffffffffff1602179055505b6000809054906101000a900473ffffffffffffffffffffffffffffffffffffffff1673ffffffffffffffffffffffffffffffffffffffff16600460009054906101000a900473ffffffffffffffffffffffffffffffffffffffff1673ffffffffffffffffffffffffffffffffffffffff1614615f63576040517f08c379a00000000000000000000000000000000000000000000000000000000081526004018080602001828103825260138152602001807f4f776e6572206f6e6c792066756e6374696f6e0000000000000000000000000081525060200191505060405180910390fd5b565b600260009054906101000a900473ffffffffffffffffffffffffffffffffffffffff1673ffffffffffffffffffffffffffffffffffffffff1663907dff9782604051602001808273ffffffffffffffffffffffffffffffffffffffff1673ffffffffffffffffffffffffffffffffffffffff168152602001915050604051602081830303815290604052600160405180807f546f6b656e537461746555706461746564286164647265737329000000000000815250601a019050604051809103902060008060006040518763ffffffff1660e01b815260040180806020018781526020018681526020018560001b81526020018460001b81526020018360001b8152602001828103825288818151815260200191508051906020019080838360005b838110156160a2578082015181840152602081019050616087565b50505050905090810190601f1680156160cf5780820380516001836020036101000a031916815260200191505b50975050505050505050600060405180830381600087803b1580156160f357600080fd5b505af1158015616107573d6000803e3d6000fd5b5050505050565b600061611b848484616627565b90509392505050565b600260009054906101000a900473ffffffffffffffffffffffffffffffffffffffff1673ffffffffffffffffffffffffffffffffffffffff163373ffffffffffffffffffffffffffffffffffffffff1614806161cd5750600360009054906101000a900473ffffffffffffffffffffffffffffffffffffffff1673ffffffffffffffffffffffffffffffffffffffff163373ffffffffffffffffffffffffffffffffffffffff16145b61623f576040517f08c379a00000000000000000000000000000000000000000000000000000000081526004018080602001828103825260178152602001807f4f6e6c79207468652070726f78792063616e2063616c6c00000000000000000081525060200191505060405180910390fd5b565b600061626c7f52657761726473446973747269627574696f6e00000000000000000000000000616465565b905090565b6000828211156162e9576040517f08c379a000000000000000000000000000000000000000000000000000000000815260040180806020018281038252601e8152602001807f536166654d6174683a207375627472616374696f6e206f766572666c6f77000081525060200191505060405180910390fd5b600082840390508091505092915050565b600260009054906101000a900473ffffffffffffffffffffffffffffffffffffffff1673ffffffffffffffffffffffffffffffffffffffff1663907dff97826040516020018082815260200191505060405160208183030381529060405260036040518080616ce5602191396021019050604051809103902061637c88615ae2565b61638588615ae2565b60006040518763ffffffff1660e01b815260040180806020018781526020018681526020018581526020018481526020018360001b8152602001828103825288818151815260200191508051906020019080838360005b838110156163f75780820151818401526020810190506163dc565b50505050905090810190601f1680156164245780820380516001836020036101000a031916815260200191505b50975050505050505050600060405180830381600087803b15801561644857600080fd5b505af115801561645c573d6000803e3d6000fd5b50505050505050565b600080600a600084815260200190815260200160002060009054906101000a900473ffffffffffffffffffffffffffffffffffffffff169050600073ffffffffffffffffffffffffffffffffffffffff168173ffffffffffffffffffffffffffffffffffffffff1614158360405160200180807f4d697373696e6720616464726573733a20000000000000000000000000000000815250601101828152602001915050604051602081830303815290604052906165bd576040517f08c379a00000000000000000000000000000000000000000000000000000000081526004018080602001828103825283818151815260200191508051906020019080838360005b83811015616582578082015181840152602081019050616567565b50505050905090810190601f1680156165af5780820380516001836020036101000a031916815260200191505b509250505060405180910390fd5b5080915050919050565b60006165f27f53797374656d5374617475730000000000000000000000000000000000000000616465565b905090565b60006166227f53796e7468657469785374617465000000000000000000000000000000000000616465565b905090565b60008073ffffffffffffffffffffffffffffffffffffffff168373ffffffffffffffffffffffffffffffffffffffff161415801561669157503073ffffffffffffffffffffffffffffffffffffffff168373ffffffffffffffffffffffffffffffffffffffff1614155b80156166eb5750600260009054906101000a900473ffffffffffffffffffffffffffffffffffffffff1673ffffffffffffffffffffffffffffffffffffffff168373ffffffffffffffffffffffffffffffffffffffff1614155b61675d576040517f08c379a000000000000000000000000000000000000000000000000000000000815260040180806020018281038252601f8152602001807f43616e6e6f74207472616e7366657220746f207468697320616464726573730081525060200191505060405180910390fd5b600560009054906101000a900473ffffffffffffffffffffffffffffffffffffffff1673ffffffffffffffffffffffffffffffffffffffff1663b46310f68561688885600560009054906101000a900473ffffffffffffffffffffffffffffffffffffffff1673ffffffffffffffffffffffffffffffffffffffff166370a082318a6040518263ffffffff1660e01b8152600401808273ffffffffffffffffffffffffffffffffffffffff1673ffffffffffffffffffffffffffffffffffffffff16815260200191505060206040518083038186803b15801561683f57600080fd5b505afa158015616853573d6000803e3d6000fd5b505050506040513d602081101561686957600080fd5b810190808051906020019092919050505061627190919063ffffffff16565b6040518363ffffffff1660e01b8152600401808373ffffffffffffffffffffffffffffffffffffffff1673ffffffffffffffffffffffffffffffffffffffff16815260200182815260200192505050600060405180830381600087803b1580156168f157600080fd5b505af1158015616905573d6000803e3d6000fd5b50505050600560009054906101000a900473ffffffffffffffffffffffffffffffffffffffff1673ffffffffffffffffffffffffffffffffffffffff1663b46310f684616a3485600560009054906101000a900473ffffffffffffffffffffffffffffffffffffffff1673ffffffffffffffffffffffffffffffffffffffff166370a08231896040518263ffffffff1660e01b8152600401808273ffffffffffffffffffffffffffffffffffffffff1673ffffffffffffffffffffffffffffffffffffffff16815260200191505060206040518083038186803b1580156169eb57600080fd5b505afa1580156169ff573d6000803e3d6000fd5b505050506040513d6020811015616a1557600080fd5b8101908080519060200190929190505050616afb90919063ffffffff16565b6040518363ffffffff1660e01b8152600401808373ffffffffffffffffffffffffffffffffffffffff1673ffffffffffffffffffffffffffffffffffffffff16815260200182815260200192505050600060405180830381600087803b158015616a9d57600080fd5b505af1158015616ab1573d6000803e3d6000fd5b50505050616ac08484846162fa565b600190509392505050565b6000616af67f53796e746865746978427269646765546f426173650000000000000000000000616465565b905090565b600080828401905083811015616b79576040517f08c379a000000000000000000000000000000000000000000000000000000000815260040180806020018281038252601b8152602001807f536166654d6174683a206164646974696f6e206f766572666c6f77000000000081525060200191505060405180910390fd5b809150509291505056fe596f75206d757374206265206e6f6d696e61746564206265666f726520796f752063616e20616363657074206f776e65727368697045786368616e67655265636c61696d28616464726573732c627974657333322c75696e743235362953796e746845786368616e676528616464726573732c627974657333322c75696e743235362c627974657333322c75696e743235362c616464726573732943616e6e6f74207472616e73666572207374616b6564206f7220657363726f77656420534e584f6e6c792074686520636f6e7472616374206f776e6572206d617920706572666f726d207468697320616374696f6e417070726f76616c28616464726573732c616464726573732c75696e743235362945786368616e676552656261746528616464726573732c627974657333322c75696e743235362945786368616e6765547261636b696e6728627974657333322c627974657333322c75696e74323536295472616e7366657228616464726573732c616464726573732c75696e7432353629a265627a7a72315820fc18920764727f75d946b78737174723e6be624768fb59952bd48d328f23c49664736f6c63430005100032",
  "linkReferences": {},
  "deployedLinkReferences": {}
}