{
  "_format": "hh-sol-artifact-1",
  "contractName": "Issuer",
  "sourceName": "contracts/Issuer.sol",
  "abi": [
    {
      "inputs": [
        {
          "internalType": "address",
          "name": "_owner",
          "type": "address"
        },
        {
          "internalType": "address",
          "name": "_resolver",
          "type": "address"
        }
      ],
      "payable": false,
      "stateMutability": "nonpayable",
      "type": "constructor"
    },
    {
      "anonymous": false,
      "inputs": [
        {
          "indexed": false,
          "internalType": "bytes32",
          "name": "name",
          "type": "bytes32"
        },
        {
          "indexed": false,
          "internalType": "address",
          "name": "destination",
          "type": "address"
        }
      ],
      "name": "CacheUpdated",
      "type": "event"
    },
    {
      "anonymous": false,
      "inputs": [
        {
          "indexed": false,
          "internalType": "address",
          "name": "oldOwner",
          "type": "address"
        },
        {
          "indexed": false,
          "internalType": "address",
          "name": "newOwner",
          "type": "address"
        }
      ],
      "name": "OwnerChanged",
      "type": "event"
    },
    {
      "anonymous": false,
      "inputs": [
        {
          "indexed": false,
          "internalType": "address",
          "name": "newOwner",
          "type": "address"
        }
      ],
      "name": "OwnerNominated",
      "type": "event"
    },
    {
      "anonymous": false,
      "inputs": [
        {
          "indexed": false,
          "internalType": "bytes32",
          "name": "currencyKey",
          "type": "bytes32"
        },
        {
          "indexed": false,
          "internalType": "address",
          "name": "synth",
          "type": "address"
        }
      ],
      "name": "SynthAdded",
      "type": "event"
    },
    {
      "anonymous": false,
      "inputs": [
        {
          "indexed": false,
          "internalType": "bytes32",
          "name": "currencyKey",
          "type": "bytes32"
        },
        {
          "indexed": false,
          "internalType": "address",
          "name": "synth",
          "type": "address"
        }
      ],
      "name": "SynthRemoved",
      "type": "event"
    },
    {
      "constant": true,
      "inputs": [],
      "name": "CONTRACT_NAME",
      "outputs": [
        {
          "internalType": "bytes32",
          "name": "",
          "type": "bytes32"
        }
      ],
      "payable": false,
      "stateMutability": "view",
      "type": "function"
    },
    {
      "constant": false,
      "inputs": [],
      "name": "acceptOwnership",
      "outputs": [],
      "payable": false,
      "stateMutability": "nonpayable",
      "type": "function"
    },
    {
      "constant": false,
      "inputs": [
        {
          "internalType": "contract ISynth",
          "name": "synth",
          "type": "address"
        }
      ],
      "name": "addSynth",
      "outputs": [],
      "payable": false,
      "stateMutability": "nonpayable",
      "type": "function"
    },
    {
      "constant": false,
      "inputs": [
        {
          "internalType": "contract ISynth[]",
          "name": "synthsToAdd",
          "type": "address[]"
        }
      ],
      "name": "addSynths",
      "outputs": [],
      "payable": false,
      "stateMutability": "nonpayable",
      "type": "function"
    },
    {
      "constant": true,
      "inputs": [],
      "name": "anySynthOrSNXRateIsInvalid",
      "outputs": [
        {
          "internalType": "bool",
          "name": "anyRateInvalid",
          "type": "bool"
        }
      ],
      "payable": false,
      "stateMutability": "view",
      "type": "function"
    },
    {
      "constant": true,
      "inputs": [],
      "name": "availableCurrencyKeys",
      "outputs": [
        {
          "internalType": "bytes32[]",
          "name": "",
          "type": "bytes32[]"
        }
      ],
      "payable": false,
      "stateMutability": "view",
      "type": "function"
    },
    {
      "constant": true,
      "inputs": [],
      "name": "availableSynthCount",
      "outputs": [
        {
          "internalType": "uint256",
          "name": "",
          "type": "uint256"
        }
      ],
      "payable": false,
      "stateMutability": "view",
      "type": "function"
    },
    {
      "constant": true,
      "inputs": [
        {
          "internalType": "uint256",
          "name": "",
          "type": "uint256"
        }
      ],
      "name": "availableSynths",
      "outputs": [
        {
          "internalType": "contract ISynth",
          "name": "",
          "type": "address"
        }
      ],
      "payable": false,
      "stateMutability": "view",
      "type": "function"
    },
    {
      "constant": false,
      "inputs": [
        {
          "internalType": "address",
          "name": "from",
          "type": "address"
        },
        {
          "internalType": "uint256",
          "name": "amount",
          "type": "uint256"
        }
      ],
      "name": "burnSynths",
      "outputs": [],
      "payable": false,
      "stateMutability": "nonpayable",
      "type": "function"
    },
    {
      "constant": false,
      "inputs": [
        {
          "internalType": "address",
          "name": "burnForAddress",
          "type": "address"
        },
        {
          "internalType": "address",
          "name": "from",
          "type": "address"
        },
        {
          "internalType": "uint256",
          "name": "amount",
          "type": "uint256"
        }
      ],
      "name": "burnSynthsOnBehalf",
      "outputs": [],
      "payable": false,
      "stateMutability": "nonpayable",
      "type": "function"
    },
    {
      "constant": false,
      "inputs": [
        {
          "internalType": "address",
          "name": "from",
          "type": "address"
        }
      ],
      "name": "burnSynthsToTarget",
      "outputs": [],
      "payable": false,
      "stateMutability": "nonpayable",
      "type": "function"
    },
    {
      "constant": false,
      "inputs": [
        {
          "internalType": "address",
          "name": "burnForAddress",
          "type": "address"
        },
        {
          "internalType": "address",
          "name": "from",
          "type": "address"
        }
      ],
      "name": "burnSynthsToTargetOnBehalf",
      "outputs": [],
      "payable": false,
      "stateMutability": "nonpayable",
      "type": "function"
    },
    {
      "constant": true,
      "inputs": [
        {
          "internalType": "address",
          "name": "account",
          "type": "address"
        }
      ],
      "name": "canBurnSynths",
      "outputs": [
        {
          "internalType": "bool",
          "name": "",
          "type": "bool"
        }
      ],
      "payable": false,
      "stateMutability": "view",
      "type": "function"
    },
    {
      "constant": true,
      "inputs": [
        {
          "internalType": "address",
          "name": "account",
          "type": "address"
        }
      ],
      "name": "collateral",
      "outputs": [
        {
          "internalType": "uint256",
          "name": "",
          "type": "uint256"
        }
      ],
      "payable": false,
      "stateMutability": "view",
      "type": "function"
    },
    {
      "constant": true,
      "inputs": [
        {
          "internalType": "address",
          "name": "_issuer",
          "type": "address"
        }
      ],
      "name": "collateralisationRatio",
      "outputs": [
        {
          "internalType": "uint256",
          "name": "cratio",
          "type": "uint256"
        }
      ],
      "payable": false,
      "stateMutability": "view",
      "type": "function"
    },
    {
      "constant": true,
      "inputs": [
        {
          "internalType": "address",
          "name": "_issuer",
          "type": "address"
        }
      ],
      "name": "collateralisationRatioAndAnyRatesInvalid",
      "outputs": [
        {
          "internalType": "uint256",
          "name": "cratio",
          "type": "uint256"
        },
        {
          "internalType": "bool",
          "name": "anyRateIsInvalid",
          "type": "bool"
        }
      ],
      "payable": false,
      "stateMutability": "view",
      "type": "function"
    },
    {
      "constant": true,
      "inputs": [
        {
          "internalType": "address",
          "name": "_issuer",
          "type": "address"
        },
        {
          "internalType": "bytes32",
          "name": "currencyKey",
          "type": "bytes32"
        }
      ],
      "name": "debtBalanceOf",
      "outputs": [
        {
          "internalType": "uint256",
          "name": "debtBalance",
          "type": "uint256"
        }
      ],
      "payable": false,
      "stateMutability": "view",
      "type": "function"
    },
    {
      "constant": true,
      "inputs": [
        {
          "internalType": "bytes32[]",
          "name": "currencyKeys",
          "type": "bytes32[]"
        }
      ],
      "name": "getSynths",
      "outputs": [
        {
          "internalType": "contract ISynth[]",
          "name": "",
          "type": "address[]"
        }
      ],
      "payable": false,
      "stateMutability": "view",
      "type": "function"
    },
    {
      "constant": true,
      "inputs": [],
      "name": "isResolverCached",
      "outputs": [
        {
          "internalType": "bool",
          "name": "",
          "type": "bool"
        }
      ],
      "payable": false,
      "stateMutability": "view",
      "type": "function"
    },
    {
      "constant": true,
      "inputs": [],
      "name": "issuanceRatio",
      "outputs": [
        {
          "internalType": "uint256",
          "name": "",
          "type": "uint256"
        }
      ],
      "payable": false,
      "stateMutability": "view",
      "type": "function"
    },
    {
      "constant": false,
      "inputs": [
        {
          "internalType": "address",
          "name": "from",
          "type": "address"
        }
      ],
      "name": "issueMaxSynths",
      "outputs": [],
      "payable": false,
      "stateMutability": "nonpayable",
      "type": "function"
    },
    {
      "constant": false,
      "inputs": [
        {
          "internalType": "address",
          "name": "issueForAddress",
          "type": "address"
        },
        {
          "internalType": "address",
          "name": "from",
          "type": "address"
        }
      ],
      "name": "issueMaxSynthsOnBehalf",
      "outputs": [],
      "payable": false,
      "stateMutability": "nonpayable",
      "type": "function"
    },
    {
      "constant": false,
      "inputs": [
        {
          "internalType": "address",
          "name": "from",
          "type": "address"
        },
        {
          "internalType": "uint256",
          "name": "amount",
          "type": "uint256"
        }
      ],
      "name": "issueSynths",
      "outputs": [],
      "payable": false,
      "stateMutability": "nonpayable",
      "type": "function"
    },
    {
      "constant": false,
      "inputs": [
        {
          "internalType": "address",
          "name": "issueForAddress",
          "type": "address"
        },
        {
          "internalType": "address",
          "name": "from",
          "type": "address"
        },
        {
          "internalType": "uint256",
          "name": "amount",
          "type": "uint256"
        }
      ],
      "name": "issueSynthsOnBehalf",
      "outputs": [],
      "payable": false,
      "stateMutability": "nonpayable",
      "type": "function"
    },
    {
      "constant": true,
      "inputs": [
        {
          "internalType": "address",
          "name": "account",
          "type": "address"
        }
      ],
      "name": "lastIssueEvent",
      "outputs": [
        {
          "internalType": "uint256",
          "name": "",
          "type": "uint256"
        }
      ],
      "payable": false,
      "stateMutability": "view",
      "type": "function"
    },
    {
      "constant": false,
      "inputs": [
        {
          "internalType": "address",
          "name": "account",
          "type": "address"
        },
        {
          "internalType": "uint256",
          "name": "susdAmount",
          "type": "uint256"
        },
        {
          "internalType": "address",
          "name": "liquidator",
          "type": "address"
        }
      ],
      "name": "liquidateDelinquentAccount",
      "outputs": [
        {
          "internalType": "uint256",
          "name": "totalRedeemed",
          "type": "uint256"
        },
        {
          "internalType": "uint256",
          "name": "amountToLiquidate",
          "type": "uint256"
        }
      ],
      "payable": false,
      "stateMutability": "nonpayable",
      "type": "function"
    },
    {
      "constant": true,
      "inputs": [
        {
          "internalType": "address",
          "name": "_issuer",
          "type": "address"
        }
      ],
      "name": "maxIssuableSynths",
      "outputs": [
        {
          "internalType": "uint256",
          "name": "",
          "type": "uint256"
        }
      ],
      "payable": false,
      "stateMutability": "view",
      "type": "function"
    },
    {
      "constant": true,
      "inputs": [],
      "name": "minimumStakeTime",
      "outputs": [
        {
          "internalType": "uint256",
          "name": "",
          "type": "uint256"
        }
      ],
      "payable": false,
      "stateMutability": "view",
      "type": "function"
    },
    {
      "constant": false,
      "inputs": [
        {
          "internalType": "address",
          "name": "_owner",
          "type": "address"
        }
      ],
      "name": "nominateNewOwner",
      "outputs": [],
      "payable": false,
      "stateMutability": "nonpayable",
      "type": "function"
    },
    {
      "constant": true,
      "inputs": [],
      "name": "nominatedOwner",
      "outputs": [
        {
          "internalType": "address",
          "name": "",
          "type": "address"
        }
      ],
      "payable": false,
      "stateMutability": "view",
      "type": "function"
    },
    {
      "constant": true,
      "inputs": [],
      "name": "owner",
      "outputs": [
        {
          "internalType": "address",
          "name": "",
          "type": "address"
        }
      ],
      "payable": false,
      "stateMutability": "view",
      "type": "function"
    },
    {
      "constant": false,
      "inputs": [],
      "name": "rebuildCache",
      "outputs": [],
      "payable": false,
      "stateMutability": "nonpayable",
      "type": "function"
    },
    {
      "constant": true,
      "inputs": [
        {
          "internalType": "address",
          "name": "_issuer",
          "type": "address"
        }
      ],
      "name": "remainingIssuableSynths",
      "outputs": [
        {
          "internalType": "uint256",
          "name": "maxIssuable",
          "type": "uint256"
        },
        {
          "internalType": "uint256",
          "name": "alreadyIssued",
          "type": "uint256"
        },
        {
          "internalType": "uint256",
          "name": "totalSystemDebt",
          "type": "uint256"
        }
      ],
      "payable": false,
      "stateMutability": "view",
      "type": "function"
    },
    {
      "constant": false,
      "inputs": [
        {
          "internalType": "bytes32",
          "name": "currencyKey",
          "type": "bytes32"
        }
      ],
      "name": "removeSynth",
      "outputs": [],
      "payable": false,
      "stateMutability": "nonpayable",
      "type": "function"
    },
    {
      "constant": false,
      "inputs": [
        {
          "internalType": "bytes32[]",
          "name": "currencyKeys",
          "type": "bytes32[]"
        }
      ],
      "name": "removeSynths",
      "outputs": [],
      "payable": false,
      "stateMutability": "nonpayable",
      "type": "function"
    },
    {
      "constant": true,
      "inputs": [],
      "name": "resolver",
      "outputs": [
        {
          "internalType": "contract AddressResolver",
          "name": "",
          "type": "address"
        }
      ],
      "payable": false,
      "stateMutability": "view",
      "type": "function"
    },
    {
      "constant": true,
      "inputs": [],
      "name": "resolverAddressesRequired",
      "outputs": [
        {
          "internalType": "bytes32[]",
          "name": "addresses",
          "type": "bytes32[]"
        }
      ],
      "payable": false,
      "stateMutability": "view",
      "type": "function"
    },
    {
      "constant": true,
      "inputs": [
        {
          "internalType": "bytes32",
          "name": "",
          "type": "bytes32"
        }
      ],
      "name": "synths",
      "outputs": [
        {
          "internalType": "contract ISynth",
          "name": "",
          "type": "address"
        }
      ],
      "payable": false,
      "stateMutability": "view",
      "type": "function"
    },
    {
      "constant": true,
      "inputs": [
        {
          "internalType": "address",
          "name": "",
          "type": "address"
        }
      ],
      "name": "synthsByAddress",
      "outputs": [
        {
          "internalType": "bytes32",
          "name": "",
          "type": "bytes32"
        }
      ],
      "payable": false,
      "stateMutability": "view",
      "type": "function"
    },
    {
      "constant": true,
      "inputs": [
        {
          "internalType": "bytes32",
          "name": "currencyKey",
          "type": "bytes32"
        },
        {
          "internalType": "bool",
          "name": "excludeEtherCollateral",
          "type": "bool"
        }
      ],
      "name": "totalIssuedSynths",
      "outputs": [
        {
          "internalType": "uint256",
          "name": "totalIssued",
          "type": "uint256"
        }
      ],
      "payable": false,
      "stateMutability": "view",
      "type": "function"
    },
    {
      "constant": true,
      "inputs": [
        {
          "internalType": "address",
          "name": "account",
          "type": "address"
        },
        {
          "internalType": "uint256",
          "name": "balance",
          "type": "uint256"
        }
      ],
      "name": "transferableSynthetixAndAnyRateIsInvalid",
      "outputs": [
        {
          "internalType": "uint256",
          "name": "transferable",
          "type": "uint256"
        },
        {
          "internalType": "bool",
          "name": "anyRateIsInvalid",
          "type": "bool"
        }
      ],
      "payable": false,
      "stateMutability": "view",
      "type": "function"
    }
  ],
  "bytecode": "0x60806040523480156200001157600080fd5b5060405162006c4338038062006c43833981810160405260408110156200003757600080fd5b810190808051906020019092919080519060200190929190505050808083600073ffffffffffffffffffffffffffffffffffffffff168173ffffffffffffffffffffffffffffffffffffffff161415620000f9576040517f08c379a00000000000000000000000000000000000000000000000000000000081526004018080602001828103825260198152602001807f4f776e657220616464726573732063616e6e6f7420626520300000000000000081525060200191505060405180910390fd5b806000806101000a81548173ffffffffffffffffffffffffffffffffffffffff021916908373ffffffffffffffffffffffffffffffffffffffff1602179055507fb532073b38c83145e3e5135377a08bf9aab55bc0fd7c1179cd4fb995d2a5159c600082604051808373ffffffffffffffffffffffffffffffffffffffff1673ffffffffffffffffffffffffffffffffffffffff1681526020018273ffffffffffffffffffffffffffffffffffffffff1673ffffffffffffffffffffffffffffffffffffffff1681526020019250505060405180910390a15080600260006101000a81548173ffffffffffffffffffffffffffffffffffffffff021916908373ffffffffffffffffffffffffffffffffffffffff16021790555050505050616a1c80620002276000396000f3fe608060405234801561001057600080fd5b50600436106102535760003560e01c806372cb051f11610146578063a5fdc5de116100c3578063bff4fdfc11610087578063bff4fdfc14610d85578063c897713214610de1578063d37c4d8b14610e25578063dbf6334014610e87578063dd3d2b2e14610ea5578063fd864ccf14610efd57610253565b8063a5fdc5de14610bd5578063a63c4df414610c2d578063ae3bbbbb14610cb6578063b06e8c6514610d19578063b410a03414610d6757610253565b8063849cf5881161010a578063849cf58814610a22578063899ffef414610a665780638da5cb5b14610ac55780639a5154b414610b0f578063a311c7c214610b7d57610253565b806372cb051f146108f3578063741853601461095257806379ba50971461095c5780637b1001b714610966578063835e119c146109b457610253565b806332608039116101d45780634e99bda9116101985780634e99bda91461078357806353a47bb7146107a5578063614d08f8146107ef5780636bed04151461080d5780637168d2c21461087a57610253565b8063326080391461051c5780633b6afe401461058a57806344ec6b621461065857806347a9b6db146106c6578063497d704a1461073f57610253565b80631627540c1161021b5780631627540c146103dc57806316b2213f14610420578063242df9e1146104785780632af64bd3146104965780632b3f41aa146104b857610253565b8063042e06881461025857806304f3bcec146102a657806305b3c1c9146102f05780630b887dae146103485780631137aedf14610376575b600080fd5b6102a46004803603604081101561026e57600080fd5b81019080803573ffffffffffffffffffffffffffffffffffffffff16906020019092919080359060200190929190505050610f61565b005b6102ae610f79565b604051808273ffffffffffffffffffffffffffffffffffffffff1673ffffffffffffffffffffffffffffffffffffffff16815260200191505060405180910390f35b6103326004803603602081101561030657600080fd5b81019080803573ffffffffffffffffffffffffffffffffffffffff169060200190929190505050610f9f565b6040518082815260200191505060405180910390f35b6103746004803603602081101561035e57600080fd5b8101908080359060200190929190505050610fb7565b005b6103b86004803603602081101561038c57600080fd5b81019080803573ffffffffffffffffffffffffffffffffffffffff1690602001909291905050506110bc565b60405180848152602001838152602001828152602001935050505060405180910390f35b61041e600480360360208110156103f257600080fd5b81019080803573ffffffffffffffffffffffffffffffffffffffff1690602001909291905050506110de565b005b6104626004803603602081101561043657600080fd5b81019080803573ffffffffffffffffffffffffffffffffffffffff16906020019092919050505061118d565b6040518082815260200191505060405180910390f35b6104806111a5565b6040518082815260200191505060405180910390f35b61049e6111b4565b604051808215151515815260200191505060405180910390f35b61051a600480360360408110156104ce57600080fd5b81019080803573ffffffffffffffffffffffffffffffffffffffff169060200190929190803573ffffffffffffffffffffffffffffffffffffffff16906020019092919050505061138c565b005b6105486004803603602081101561053257600080fd5b81019080803590602001909291905050506113af565b604051808273ffffffffffffffffffffffffffffffffffffffff1673ffffffffffffffffffffffffffffffffffffffff16815260200191505060405180910390f35b610601600480360360208110156105a057600080fd5b81019080803590602001906401000000008111156105bd57600080fd5b8201836020820111156105cf57600080fd5b803590602001918460208302840111640100000000831117156105f157600080fd5b90919293919293905050506113e2565b6040518080602001828103825283818151815260200191508051906020019060200280838360005b83811015610644578082015181840152602081019050610629565b505050509050019250505060405180910390f35b6106c46004803603606081101561066e57600080fd5b81019080803573ffffffffffffffffffffffffffffffffffffffff169060200190929190803573ffffffffffffffffffffffffffffffffffffffff169060200190929190803590602001909291905050506114d3565b005b61073d600480360360208110156106dc57600080fd5b81019080803590602001906401000000008111156106f957600080fd5b82018360208201111561070b57600080fd5b8035906020019184602083028401116401000000008311171561072d57600080fd5b90919293919293905050506114f6565b005b6107816004803603602081101561075557600080fd5b81019080803573ffffffffffffffffffffffffffffffffffffffff1690602001909291905050506115cf565b005b61078b6115e7565b604051808215151515815260200191505060405180910390f35b6107ad611776565b604051808273ffffffffffffffffffffffffffffffffffffffff1673ffffffffffffffffffffffffffffffffffffffff16815260200191505060405180910390f35b6107f761179c565b6040518082815260200191505060405180910390f35b6108596004803603604081101561082357600080fd5b81019080803573ffffffffffffffffffffffffffffffffffffffff169060200190929190803590602001909291905050506117c0565b60405180838152602001821515151581526020019250505060405180910390f35b6108f16004803603602081101561089057600080fd5b81019080803590602001906401000000008111156108ad57600080fd5b8201836020820111156108bf57600080fd5b803590602001918460208302840111640100000000831117156108e157600080fd5b9091929391929390505050611846565b005b6108fb611a27565b6040518080602001828103825283818151815260200191508051906020019060200280838360005b8381101561093e578082015181840152602081019050610923565b505050509050019250505060405180910390f35b61095a611a38565b005b610964611ca1565b005b61099e6004803603604081101561097c57600080fd5b8101908080359060200190929190803515159060200190929190505050611ec7565b6040518082815260200191505060405180910390f35b6109e0600480360360208110156109ca57600080fd5b8101908080359060200190929190505050611ede565b604051808273ffffffffffffffffffffffffffffffffffffffff1673ffffffffffffffffffffffffffffffffffffffff16815260200191505060405180910390f35b610a6460048036036020811015610a3857600080fd5b81019080803573ffffffffffffffffffffffffffffffffffffffff169060200190929190505050611f1a565b005b610a6e611fa5565b6040518080602001828103825283818151815260200191508051906020019060200280838360005b83811015610ab1578082015181840152602081019050610a96565b505050509050019250505060405180910390f35b610acd6122ea565b604051808273ffffffffffffffffffffffffffffffffffffffff1673ffffffffffffffffffffffffffffffffffffffff16815260200191505060405180910390f35b610b7b60048036036060811015610b2557600080fd5b81019080803573ffffffffffffffffffffffffffffffffffffffff169060200190929190803573ffffffffffffffffffffffffffffffffffffffff1690602001909291908035906020019092919050505061230f565b005b610bbf60048036036020811015610b9357600080fd5b81019080803573ffffffffffffffffffffffffffffffffffffffff169060200190929190505050612332565b6040518082815260200191505060405180910390f35b610c1760048036036020811015610beb57600080fd5b81019080803573ffffffffffffffffffffffffffffffffffffffff169060200190929190505050612347565b6040518082815260200191505060405180910390f35b610c9960048036036060811015610c4357600080fd5b81019080803573ffffffffffffffffffffffffffffffffffffffff16906020019092919080359060200190929190803573ffffffffffffffffffffffffffffffffffffffff169060200190929190505050612359565b604051808381526020018281526020019250505060405180910390f35b610cf860048036036020811015610ccc57600080fd5b81019080803573ffffffffffffffffffffffffffffffffffffffff169060200190929190505050612bfd565b60405180838152602001821515151581526020019250505060405180910390f35b610d6560048036036040811015610d2f57600080fd5b81019080803573ffffffffffffffffffffffffffffffffffffffff16906020019092919080359060200190929190505050612c12565b005b610d6f612c2a565b6040518082815260200191505060405180910390f35b610dc760048036036020811015610d9b57600080fd5b81019080803573ffffffffffffffffffffffffffffffffffffffff169060200190929190505050612c39565b604051808215151515815260200191505060405180910390f35b610e2360048036036020811015610df757600080fd5b81019080803573ffffffffffffffffffffffffffffffffffffffff169060200190929190505050612c4b565b005b610e7160048036036040811015610e3b57600080fd5b81019080803573ffffffffffffffffffffffffffffffffffffffff16906020019092919080359060200190929190505050612c63565b6040518082815260200191505060405180910390f35b610e8f612d64565b6040518082815260200191505060405180910390f35b610ee760048036036020811015610ebb57600080fd5b81019080803573ffffffffffffffffffffffffffffffffffffffff169060200190929190505050612d71565b6040518082815260200191505060405180910390f35b610f5f60048036036040811015610f1357600080fd5b81019080803573ffffffffffffffffffffffffffffffffffffffff169060200190929190803573ffffffffffffffffffffffffffffffffffffffff169060200190929190505050612d83565b005b610f69612da6565b610f7582826000612e33565b5050565b600260009054906101000a900473ffffffffffffffffffffffffffffffffffffffff1681565b600080610fab83613108565b50905080915050919050565b610fbf61320b565b6000610fc96132b2565b90508073ffffffffffffffffffffffffffffffffffffffff1663d685743a8360006040518363ffffffff1660e01b81526004018083815260200182815260200192505050600060405180830381600087803b15801561102757600080fd5b505af115801561103b573d6000803e3d6000fd5b505050508073ffffffffffffffffffffffffffffffffffffffff166304bd11e560016040518263ffffffff1660e01b81526004018082151515158152602001915050600060405180830381600087803b15801561109757600080fd5b505af11580156110ab573d6000803e3d6000fd5b505050506110b8826132e2565b5050565b60008060006110ca846137a7565b508093508194508295505050509193909250565b6110e661320b565b80600160006101000a81548173ffffffffffffffffffffffffffffffffffffffff021916908373ffffffffffffffffffffffffffffffffffffffff1602179055507f906a1c6bd7e3091ea86693dd029a831c19049ce77f1dce2ce0bab1cacbabce2281604051808273ffffffffffffffffffffffffffffffffffffffff1673ffffffffffffffffffffffffffffffffffffffff16815260200191505060405180910390a150565b60066020528060005260406000206000915090505481565b60006111af613830565b905090565b600060606111c0611fa5565b905060008090505b81518110156113825760008282815181106111df57fe5b602002602001015190506003600082815260200190815260200160002060009054906101000a900473ffffffffffffffffffffffffffffffffffffffff1673ffffffffffffffffffffffffffffffffffffffff16600260009054906101000a900473ffffffffffffffffffffffffffffffffffffffff1673ffffffffffffffffffffffffffffffffffffffff166321f8a721836040518263ffffffff1660e01b81526004018082815260200191505060206040518083038186803b1580156112a657600080fd5b505afa1580156112ba573d6000803e3d6000fd5b505050506040513d60208110156112d057600080fd5b810190808051906020019092919050505073ffffffffffffffffffffffffffffffffffffffff161415806113635750600073ffffffffffffffffffffffffffffffffffffffff166003600083815260200190815260200160002060009054906101000a900473ffffffffffffffffffffffffffffffffffffffff1673ffffffffffffffffffffffffffffffffffffffff16145b156113745760009350505050611389565b5080806001019150506111c8565b5060019150505b90565b611394612da6565b61139e8282613912565b6113ab8260006001613a7b565b5050565b60056020528060005260406000206000915054906101000a900473ffffffffffffffffffffffffffffffffffffffff1681565b6060600083839050905060608160405190808252806020026020018201604052801561141d5781602001602082028038833980820191505090505b50905060008090505b828110156114c7576005600087878481811061143e57fe5b90506020020135815260200190815260200160002060009054906101000a900473ffffffffffffffffffffffffffffffffffffffff1682828151811061148057fe5b602002602001019073ffffffffffffffffffffffffffffffffffffffff16908173ffffffffffffffffffffffffffffffffffffffff16815250508080600101915050611426565b50809250505092915050565b6114db612da6565b6114e58383613ec2565b6114f183826000612e33565b505050565b6114fe61320b565b600082829050905060008090505b818110156115525761154584848381811061152357fe5b9050602002013573ffffffffffffffffffffffffffffffffffffffff1661402b565b808060010191505061150c565b5061155b6132b2565b73ffffffffffffffffffffffffffffffffffffffff166304bd11e560016040518263ffffffff1660e01b81526004018082151515158152602001915050600060405180830381600087803b1580156115b257600080fd5b505af11580156115c6573d6000803e3d6000fd5b50505050505050565b6115d7612da6565b6115e48160006001613a7b565b50565b60006115f16143a7565b73ffffffffffffffffffffffffffffffffffffffff1663c8e5bbd561161660016143d7565b6040518263ffffffff1660e01b81526004018080602001828103825283818151815260200191508051906020019060200280838360005b8381101561166857808201518184015260208101905061164d565b505050509050019250505060006040518083038186803b15801561168b57600080fd5b505afa15801561169f573d6000803e3d6000fd5b505050506040513d6000823e3d601f19601f8201168201806040525060408110156116c957600080fd5b81019080805160405193929190846401000000008211156116e957600080fd5b838201915060208201858111156116ff57600080fd5b825186602082028301116401000000008211171561171c57600080fd5b8083526020830192505050908051906020019060200280838360005b83811015611753578082015181840152602081019050611738565b505050509050016040526020018051906020019092919050505090508091505090565b600160009054906101000a900473ffffffffffffffffffffffffffffffffffffffff1681565b7f497373756572000000000000000000000000000000000000000000000000000081565b60008060006117ef857f534e580000000000000000000000000000000000000000000000000000000000614522565b905080935081925050506000611815611806614796565b8361487890919063ffffffff16565b9050848110611827576000935061183d565b61183a818661489490919063ffffffff16565b93505b50509250929050565b61184e61320b565b600082829050905060006118606132b2565b90506060826040519080825280602002602001820160405280156118935781602001602082028038833980820191505090505b5090508173ffffffffffffffffffffffffffffffffffffffff166317b38db48686846040518463ffffffff1660e01b81526004018080602001806020018381038352868682818152602001925060200280828437600081840152601f19601f820116905080830192505050838103825284818151815260200191508051906020019060200280838360005b8381101561193957808201518184015260208101905061191e565b5050505090500195505050505050600060405180830381600087803b15801561196157600080fd5b505af1158015611975573d6000803e3d6000fd5b505050508173ffffffffffffffffffffffffffffffffffffffff166304bd11e560016040518263ffffffff1660e01b81526004018082151515158152602001915050600060405180830381600087803b1580156119d157600080fd5b505af11580156119e5573d6000803e3d6000fd5b5050505060008090505b83811015611a1f57611a12868683818110611a0657fe5b905060200201356132e2565b80806001019150506119ef565b505050505050565b6060611a3360006143d7565b905090565b6060611a42611fa5565b905060008090505b8151811015611c9d576000828281518110611a6157fe5b602002602001015190506000600260009054906101000a900473ffffffffffffffffffffffffffffffffffffffff1673ffffffffffffffffffffffffffffffffffffffff1663dacb2d01838460405160200180807f5265736f6c766572206d697373696e67207461726765743a20000000000000008152506019018281526020019150506040516020818303038152906040526040518363ffffffff1660e01b81526004018083815260200180602001828103825283818151815260200191508051906020019080838360005b83811015611b49578082015181840152602081019050611b2e565b50505050905090810190601f168015611b765780820380516001836020036101000a031916815260200191505b50935050505060206040518083038186803b158015611b9457600080fd5b505afa158015611ba8573d6000803e3d6000fd5b505050506040513d6020811015611bbe57600080fd5b81019080805190602001909291905050509050806003600084815260200190815260200160002060006101000a81548173ffffffffffffffffffffffffffffffffffffffff021916908373ffffffffffffffffffffffffffffffffffffffff1602179055507f88a93678a3692f6789d9546fc621bf7234b101ddb7d4fe479455112831b8aa688282604051808381526020018273ffffffffffffffffffffffffffffffffffffffff1673ffffffffffffffffffffffffffffffffffffffff1681526020019250505060405180910390a150508080600101915050611a4a565b5050565b600160009054906101000a900473ffffffffffffffffffffffffffffffffffffffff1673ffffffffffffffffffffffffffffffffffffffff163373ffffffffffffffffffffffffffffffffffffffff1614611d47576040517f08c379a00000000000000000000000000000000000000000000000000000000081526004018080602001828103825260358152602001806169286035913960400191505060405180910390fd5b7fb532073b38c83145e3e5135377a08bf9aab55bc0fd7c1179cd4fb995d2a5159c6000809054906101000a900473ffffffffffffffffffffffffffffffffffffffff16600160009054906101000a900473ffffffffffffffffffffffffffffffffffffffff16604051808373ffffffffffffffffffffffffffffffffffffffff1673ffffffffffffffffffffffffffffffffffffffff1681526020018273ffffffffffffffffffffffffffffffffffffffff1673ffffffffffffffffffffffffffffffffffffffff1681526020019250505060405180910390a1600160009054906101000a900473ffffffffffffffffffffffffffffffffffffffff166000806101000a81548173ffffffffffffffffffffffffffffffffffffffff021916908373ffffffffffffffffffffffffffffffffffffffff1602179055506000600160006101000a81548173ffffffffffffffffffffffffffffffffffffffff021916908373ffffffffffffffffffffffffffffffffffffffff160217905550565b6000611ed3838361491d565b508091505092915050565b60048181548110611eeb57fe5b906000526020600020016000915054906101000a900473ffffffffffffffffffffffffffffffffffffffff1681565b611f2261320b565b611f2b8161402b565b611f336132b2565b73ffffffffffffffffffffffffffffffffffffffff166304bd11e560016040518263ffffffff1660e01b81526004018082151515158152602001915050600060405180830381600087803b158015611f8a57600080fd5b505af1158015611f9e573d6000803e3d6000fd5b5050505050565b606080611fb0614dc3565b90506060600d604051908082528060200260200182016040528015611fe45781602001602082028038833980820191505090505b5090507f53796e74686574697800000000000000000000000000000000000000000000008160008151811061201557fe5b6020026020010181815250507f45786368616e67657200000000000000000000000000000000000000000000008160018151811061204f57fe5b6020026020010181815250507f45786368616e67655261746573000000000000000000000000000000000000008160028151811061208957fe5b6020026020010181815250507f53796e7468657469785374617465000000000000000000000000000000000000816003815181106120c357fe5b6020026020010181815250507f466565506f6f6c00000000000000000000000000000000000000000000000000816004815181106120fd57fe5b6020026020010181815250507f44656c6567617465417070726f76616c730000000000000000000000000000008160058151811061213757fe5b6020026020010181815250507f4574686572436f6c6c61746572616c00000000000000000000000000000000008160068151811061217157fe5b6020026020010181815250507f4574686572436f6c6c61746572616c7355534400000000000000000000000000816007815181106121ab57fe5b6020026020010181815250507f526577617264457363726f775632000000000000000000000000000000000000816008815181106121e557fe5b6020026020010181815250507f53796e746865746978457363726f7700000000000000000000000000000000008160098151811061221f57fe5b6020026020010181815250507f4c69717569646174696f6e73000000000000000000000000000000000000000081600a8151811061225957fe5b6020026020010181815250507f446562744361636865000000000000000000000000000000000000000000000081600b8151811061229357fe5b6020026020010181815250507f436f6c6c61746572616c4d616e6167657200000000000000000000000000000081600c815181106122cd57fe5b6020026020010181815250506122e38282614e35565b9250505090565b6000809054906101000a900473ffffffffffffffffffffffffffffffffffffffff1681565b612317612da6565b6123218383613912565b61232d83826000613a7b565b505050565b600061233d82614f08565b5080915050919050565b600061235282614f86565b9050919050565b600080612364612da6565b61236c615271565b73ffffffffffffffffffffffffffffffffffffffff1663d6f32e06847f73555344000000000000000000000000000000000000000000000000000000006040518363ffffffff1660e01b8152600401808373ffffffffffffffffffffffffffffffffffffffff1673ffffffffffffffffffffffffffffffffffffffff1681526020018281526020019250505060206040518083038186803b15801561241057600080fd5b505afa158015612424573d6000803e3d6000fd5b505050506040513d602081101561243a57600080fd5b8101908080519060200190929190505050156124be576040517f08c379a00000000000000000000000000000000000000000000000000000000081526004018080602001828103825260188152602001807f73555344206e6565647320746f20626520736574746c6564000000000000000081525060200191505060405180910390fd5b6124c66152a1565b73ffffffffffffffffffffffffffffffffffffffff1663c49e80a6866040518263ffffffff1660e01b8152600401808273ffffffffffffffffffffffffffffffffffffffff1673ffffffffffffffffffffffffffffffffffffffff16815260200191505060206040518083038186803b15801561254257600080fd5b505afa158015612556573d6000803e3d6000fd5b505050506040513d602081101561256c57600080fd5b81019080805190602001909291905050506125ef576040517f08c379a00000000000000000000000000000000000000000000000000000000081526004018080602001828103825260208152602001807f4163636f756e74206e6f74206f70656e20666f72206c69717569646174696f6e81525060200191505060405180910390fd5b83600560007f7355534400000000000000000000000000000000000000000000000000000000815260200190815260200160002060009054906101000a900473ffffffffffffffffffffffffffffffffffffffff1673ffffffffffffffffffffffffffffffffffffffff166370a08231856040518263ffffffff1660e01b8152600401808273ffffffffffffffffffffffffffffffffffffffff1673ffffffffffffffffffffffffffffffffffffffff16815260200191505060206040518083038186803b1580156126c057600080fd5b505afa1580156126d4573d6000803e3d6000fd5b505050506040513d60208110156126ea57600080fd5b8101908080519060200190929190505050101561276f576040517f08c379a000000000000000000000000000000000000000000000000000000000815260040180806020018281038252600f8152602001807f4e6f7420656e6f7567682073555344000000000000000000000000000000000081525060200191505060405180910390fd5b60006127796152a1565b73ffffffffffffffffffffffffffffffffffffffff166323f5589a6040518163ffffffff1660e01b815260040160206040518083038186803b1580156127be57600080fd5b505afa1580156127d2573d6000803e3d6000fd5b505050506040513d60208110156127e857600080fd5b81019080805190602001909291905050509050600080600061282a897f7355534400000000000000000000000000000000000000000000000000000000614522565b92509250925060008061283b6143a7565b73ffffffffffffffffffffffffffffffffffffffff16630c71cd237f534e5800000000000000000000000000000000000000000000000000000000006040518263ffffffff1660e01b815260040180828152602001915050604080518083038186803b1580156128aa57600080fd5b505afa1580156128be573d6000803e3d6000fd5b505050506040513d60408110156128d457600080fd5b8101908080519060200190929190805190602001909291905050509150915061290483806128ff5750815b6152d1565b600061290f8c614f86565b9050600061291b6152a1565b73ffffffffffffffffffffffffffffffffffffffff16630ac045d5886129418588615348565b6040518363ffffffff1660e01b8152600401808381526020018281526020019250505060206040518083038186803b15801561297c57600080fd5b505afa158015612990573d6000803e3d6000fd5b505050506040513d60208110156129a657600080fd5b810190808051906020019092919050505090508b81106129c6578b6129c8565b805b985060006129d68a86615365565b9050612a7b612a6c8a73__$b8d33eeb36ac0d1e81cd70156e0043e778$__63907af6c06040518163ffffffff1660e01b815260040160206040518083038186803b158015612a2357600080fd5b505af4158015612a37573d6000803e3d6000fd5b505050506040513d6020811015612a4d57600080fd5b810190808051906020019092919050505061538290919063ffffffff16565b8261540a90919063ffffffff16565b9a50828b1115612b3757829a50612b34612b2e612b1f8b73__$b8d33eeb36ac0d1e81cd70156e0043e778$__63907af6c06040518163ffffffff1660e01b815260040160206040518083038186803b158015612ad657600080fd5b505af4158015612aea573d6000803e3d6000fd5b505050506040513d6020811015612b0057600080fd5b810190808051906020019092919050505061538290919063ffffffff16565b8561543790919063ffffffff16565b86615348565b99505b612b448e8d8c8b8b61546d565b50818a1415612bec57612b556152a1565b73ffffffffffffffffffffffffffffffffffffffff1663974e9e7f8f6040518263ffffffff1660e01b8152600401808273ffffffffffffffffffffffffffffffffffffffff1673ffffffffffffffffffffffffffffffffffffffff168152602001915050600060405180830381600087803b158015612bd357600080fd5b505af1158015612be7573d6000803e3d6000fd5b505050505b505050505050505050935093915050565b600080612c0983614f08565b91509150915091565b612c1a612da6565b612c2682826000613a7b565b5050565b6000612c34614796565b905090565b6000612c44826156a8565b9050919050565b612c53612da6565b612c608160006001612e33565b50565b600080612c6e6156d6565b905060008173ffffffffffffffffffffffffffffffffffffffff16638b3f8088866040518263ffffffff1660e01b8152600401808273ffffffffffffffffffffffffffffffffffffffff1673ffffffffffffffffffffffffffffffffffffffff168152602001915050604080518083038186803b158015612cee57600080fd5b505afa158015612d02573d6000803e3d6000fd5b505050506040513d6040811015612d1857600080fd5b8101908080519060200190929190805190602001909291905050505090506000811415612d4a57600092505050612d5e565b612d548585614522565b9050508093505050505b92915050565b6000600480549050905090565b6000612d7c82615706565b9050919050565b612d8b612da6565b612d958282613ec2565b612da28260006001612e33565b5050565b612dae615847565b73ffffffffffffffffffffffffffffffffffffffff163373ffffffffffffffffffffffffffffffffffffffff1614612e31576040517f08c379a000000000000000000000000000000000000000000000000000000000815260040180806020018281038252603b81526020018061695d603b913960400191505060405180910390fd5b565b600080600080612e42876137a7565b9350935093509350612e53816152d1565b84612ed35783861115612ece576040517f08c379a00000000000000000000000000000000000000000000000000000000081526004018080602001828103825260108152602001807f416d6f756e7420746f6f206c617267650000000000000000000000000000000081525060200191505060405180910390fd5b612ed7565b8395505b612ee387878585615877565b612eec87615cfa565b600560007f7355534400000000000000000000000000000000000000000000000000000000815260200190815260200160002060009054906101000a900473ffffffffffffffffffffffffffffffffffffffff1673ffffffffffffffffffffffffffffffffffffffff1663867904b488886040518363ffffffff1660e01b8152600401808373ffffffffffffffffffffffffffffffffffffffff1673ffffffffffffffffffffffffffffffffffffffff16815260200182815260200192505050600060405180830381600087803b158015612fc657600080fd5b505af1158015612fda573d6000803e3d6000fd5b50505050612fe66132b2565b73ffffffffffffffffffffffffffffffffffffffff1663d685743a7f735553440000000000000000000000000000000000000000000000000000000073__$b8d33eeb36ac0d1e81cd70156e0043e778$__63907af6c06040518163ffffffff1660e01b815260040160206040518083038186803b15801561306657600080fd5b505af415801561307a573d6000803e3d6000fd5b505050506040513d602081101561309057600080fd5b81019080805190602001909291905050506040518363ffffffff1660e01b81526004018083815260200182815260200192505050600060405180830381600087803b1580156130de57600080fd5b505af11580156130f2573d6000803e3d6000fd5b505050506130ff87615e1c565b50505050505050565b6000806000806131166143a7565b73ffffffffffffffffffffffffffffffffffffffff16630c71cd237f534e5800000000000000000000000000000000000000000000000000000000006040518263ffffffff1660e01b815260040180828152602001915050604080518083038186803b15801561318557600080fd5b505afa158015613199573d6000803e3d6000fd5b505050506040513d60408110156131af57600080fd5b8101908080519060200190929190805190602001909291905050509150915060006131e26131dc87614f86565b84615348565b90506131fe6131ef614796565b8261540a90919063ffffffff16565b8294509450505050915091565b6000809054906101000a900473ffffffffffffffffffffffffffffffffffffffff1673ffffffffffffffffffffffffffffffffffffffff163373ffffffffffffffffffffffffffffffffffffffff16146132b0576040517f08c379a000000000000000000000000000000000000000000000000000000000815260040180806020018281038252602f815260200180616998602f913960400191505060405180910390fd5b565b60006132dd7f4465627443616368650000000000000000000000000000000000000000000000615fa2565b905090565b60006005600083815260200190815260200160002060009054906101000a900473ffffffffffffffffffffffffffffffffffffffff169050600073ffffffffffffffffffffffffffffffffffffffff168173ffffffffffffffffffffffffffffffffffffffff1614156133bd576040517f08c379a00000000000000000000000000000000000000000000000000000000081526004018080602001828103825260148152602001807f53796e746820646f6573206e6f7420657869737400000000000000000000000081525060200191505060405180910390fd5b60008173ffffffffffffffffffffffffffffffffffffffff166318160ddd6040518163ffffffff1660e01b815260040160206040518083038186803b15801561340557600080fd5b505afa158015613419573d6000803e3d6000fd5b505050506040513d602081101561342f57600080fd5b8101908080519060200190929190505050146134b3576040517f08c379a00000000000000000000000000000000000000000000000000000000081526004018080602001828103825260138152602001807f53796e746820737570706c79206578697374730000000000000000000000000081525060200191505060405180910390fd5b7f7355534400000000000000000000000000000000000000000000000000000000821415613549576040517f08c379a00000000000000000000000000000000000000000000000000000000081526004018080602001828103825260138152602001807f43616e6e6f742072656d6f76652073796e74680000000000000000000000000081525060200191505060405180910390fd5b60008090505b6004805490508110156136be578173ffffffffffffffffffffffffffffffffffffffff166004828154811061358057fe5b9060005260206000200160009054906101000a900473ffffffffffffffffffffffffffffffffffffffff1673ffffffffffffffffffffffffffffffffffffffff1614156136b157600481815481106135d457fe5b9060005260206000200160006101000a81549073ffffffffffffffffffffffffffffffffffffffff021916905560046001600480549050038154811061361657fe5b9060005260206000200160009054906101000a900473ffffffffffffffffffffffffffffffffffffffff166004828154811061364e57fe5b9060005260206000200160006101000a81548173ffffffffffffffffffffffffffffffffffffffff021916908373ffffffffffffffffffffffffffffffffffffffff16021790555060048054809190600190036136ab91906168d6565b506136be565b808060010191505061354f565b50600660008273ffffffffffffffffffffffffffffffffffffffff1673ffffffffffffffffffffffffffffffffffffffff168152602001908152602001600020600090556005600083815260200190815260200160002060006101000a81549073ffffffffffffffffffffffffffffffffffffffff02191690557f6166f5c475cc1cd535c6cdf14a6d5edb811e34117031fc2863392a136eb655d08282604051808381526020018273ffffffffffffffffffffffffffffffffffffffff1673ffffffffffffffffffffffffffffffffffffffff1681526020019250505060405180910390a15050565b6000806000806137d7857f7355534400000000000000000000000000000000000000000000000000000000614522565b8093508194508295505050506000806137ef87613108565b9150915081955082806137ff5750805b92508585106138115760009550613827565b613824858761489490919063ffffffff16565b95505b50509193509193565b600061383a616104565b73ffffffffffffffffffffffffffffffffffffffff166323257c2b7f53797374656d53657474696e67730000000000000000000000000000000000007f6d696e696d756d5374616b6554696d65000000000000000000000000000000006040518363ffffffff1660e01b8152600401808381526020018281526020019250505060206040518083038186803b1580156138d257600080fd5b505afa1580156138e6573d6000803e3d6000fd5b505050506040513d60208110156138fc57600080fd5b8101908080519060200190929190505050905090565b61391a616134565b73ffffffffffffffffffffffffffffffffffffffff16637d3f0ba283836040518363ffffffff1660e01b8152600401808373ffffffffffffffffffffffffffffffffffffffff1673ffffffffffffffffffffffffffffffffffffffff1681526020018273ffffffffffffffffffffffffffffffffffffffff1673ffffffffffffffffffffffffffffffffffffffff1681526020019250505060206040518083038186803b1580156139ca57600080fd5b505afa1580156139de573d6000803e3d6000fd5b505050506040513d60208110156139f457600080fd5b8101908080519060200190929190505050613a77576040517f08c379a000000000000000000000000000000000000000000000000000000000815260040180806020018281038252601d8152602001807f4e6f7420617070726f76656420746f20616374206f6e20626568616c6600000081525060200191505060405180910390fd5b5050565b80613d0657613a89836156a8565b613afb576040517f08c379a000000000000000000000000000000000000000000000000000000000815260040180806020018281038252601e8152602001807f4d696e696d756d207374616b652074696d65206e6f742072656163686564000081525060200191505060405180910390fd5b600080613b06615271565b73ffffffffffffffffffffffffffffffffffffffff16631b16802c867f73555344000000000000000000000000000000000000000000000000000000006040518363ffffffff1660e01b8152600401808373ffffffffffffffffffffffffffffffffffffffff1673ffffffffffffffffffffffffffffffffffffffff16815260200182815260200192505050606060405180830381600087803b158015613bac57600080fd5b505af1158015613bc0573d6000803e3d6000fd5b505050506040513d6060811015613bd657600080fd5b8101908080519060200190929190805190602001909291908051906020019092919050505092509250506000811115613d0357613c11615271565b73ffffffffffffffffffffffffffffffffffffffff16634c268fc8867f735553440000000000000000000000000000000000000000000000000000000087866040518563ffffffff1660e01b8152600401808573ffffffffffffffffffffffffffffffffffffffff1673ffffffffffffffffffffffffffffffffffffffff16815260200184815260200183815260200182815260200194505050505060206040518083038186803b158015613cc557600080fd5b505afa158015613cd9573d6000803e3d6000fd5b505050506040513d6020811015613cef57600080fd5b810190808051906020019092919050505093505b50505b6000806000613d35867f7355534400000000000000000000000000000000000000000000000000000000614522565b925092509250600080613d4788613108565b91509150613d5c8380613d575750815b6152d1565b60008511613dd2576040517f08c379a00000000000000000000000000000000000000000000000000000000081526004018080602001828103825260128152602001807f4e6f206465627420746f20666f7267697665000000000000000000000000000081525060200191505060405180910390fd5b8515613dee57613deb828661489490919063ffffffff16565b96505b6000613dfd898a8a898961546d565b905082613e13828861489490919063ffffffff16565b11613eb757613e206152a1565b73ffffffffffffffffffffffffffffffffffffffff1663974e9e7f8a6040518263ffffffff1660e01b8152600401808273ffffffffffffffffffffffffffffffffffffffff1673ffffffffffffffffffffffffffffffffffffffff168152602001915050600060405180830381600087803b158015613e9e57600080fd5b505af1158015613eb2573d6000803e3d6000fd5b505050505b505050505050505050565b613eca616134565b73ffffffffffffffffffffffffffffffffffffffff16630487261783836040518363ffffffff1660e01b8152600401808373ffffffffffffffffffffffffffffffffffffffff1673ffffffffffffffffffffffffffffffffffffffff1681526020018273ffffffffffffffffffffffffffffffffffffffff1673ffffffffffffffffffffffffffffffffffffffff1681526020019250505060206040518083038186803b158015613f7a57600080fd5b505afa158015613f8e573d6000803e3d6000fd5b505050506040513d6020811015613fa457600080fd5b8101908080519060200190929190505050614027576040517f08c379a000000000000000000000000000000000000000000000000000000000815260040180806020018281038252601d8152602001807f4e6f7420617070726f76656420746f20616374206f6e20626568616c6600000081525060200191505060405180910390fd5b5050565b60008173ffffffffffffffffffffffffffffffffffffffff1663dbd06c856040518163ffffffff1660e01b815260040160206040518083038186803b15801561407357600080fd5b505afa158015614087573d6000803e3d6000fd5b505050506040513d602081101561409d57600080fd5b81019080805190602001909291905050509050600073ffffffffffffffffffffffffffffffffffffffff166005600083815260200190815260200160002060009054906101000a900473ffffffffffffffffffffffffffffffffffffffff1673ffffffffffffffffffffffffffffffffffffffff1614614185576040517f08c379a000000000000000000000000000000000000000000000000000000000815260040180806020018281038252600c8152602001807f53796e746820657869737473000000000000000000000000000000000000000081525060200191505060405180910390fd5b6000801b600660008473ffffffffffffffffffffffffffffffffffffffff1673ffffffffffffffffffffffffffffffffffffffff168152602001908152602001600020541461423c576040517f08c379a000000000000000000000000000000000000000000000000000000000815260040180806020018281038252601c8152602001807f53796e7468206164647265737320616c7265616479206578697374730000000081525060200191505060405180910390fd5b60048290806001815401808255809150509060018203906000526020600020016000909192909190916101000a81548173ffffffffffffffffffffffffffffffffffffffff021916908373ffffffffffffffffffffffffffffffffffffffff16021790555050816005600083815260200190815260200160002060006101000a81548173ffffffffffffffffffffffffffffffffffffffff021916908373ffffffffffffffffffffffffffffffffffffffff16021790555080600660008473ffffffffffffffffffffffffffffffffffffffff1673ffffffffffffffffffffffffffffffffffffffff168152602001908152602001600020819055507f0a2b6ebf143b3e9fcd67e17748ad315174746100c27228468b2c98c302c628848183604051808381526020018273ffffffffffffffffffffffffffffffffffffffff1673ffffffffffffffffffffffffffffffffffffffff1681526020019250505060405180910390a15050565b60006143d27f45786368616e6765526174657300000000000000000000000000000000000000615fa2565b905090565b606080826143e65760006143e9565b60015b60ff16600480549050016040519080825280602002602001820160405280156144215781602001602082028038833980820191505090505b50905060008090505b6004805490508110156144d357600660006004838154811061444857fe5b9060005260206000200160009054906101000a900473ffffffffffffffffffffffffffffffffffffffff1673ffffffffffffffffffffffffffffffffffffffff1673ffffffffffffffffffffffffffffffffffffffff168152602001908152602001600020548282815181106144ba57fe5b602002602001018181525050808060010191505061442a565b508215614519577f534e580000000000000000000000000000000000000000000000000000000000816004805490508151811061450c57fe5b6020026020010181815250505b80915050919050565b6000806000806145306156d6565b90506000808273ffffffffffffffffffffffffffffffffffffffff16638b3f8088896040518263ffffffff1660e01b8152600401808273ffffffffffffffffffffffffffffffffffffffff1673ffffffffffffffffffffffffffffffffffffffff168152602001915050604080518083038186803b1580156145b157600080fd5b505afa1580156145c5573d6000803e3d6000fd5b505050506040513d60408110156145db57600080fd5b8101908080519060200190929190805190602001909291905050509150915061460587600161491d565b8095508196505050600082141561462b576000858582925095509550955050505061478f565b600061475d8361474f8673ffffffffffffffffffffffffffffffffffffffff166308d95cd5866040518263ffffffff1660e01b81526004018082815260200191505060206040518083038186803b15801561468557600080fd5b505afa158015614699573d6000803e3d6000fd5b505050506040513d60208110156146af57600080fd5b81019080805190602001909291905050508773ffffffffffffffffffffffffffffffffffffffff1663463177126040518163ffffffff1660e01b815260040160206040518083038186803b15801561470657600080fd5b505afa15801561471a573d6000803e3d6000fd5b505050506040513d602081101561473057600080fd5b810190808051906020019092919050505061616490919063ffffffff16565b61618090919063ffffffff16565b9050600061477c8261476e8961619c565b61618090919063ffffffff16565b9050614787816161c2565b975050505050505b9250925092565b60006147a0616104565b73ffffffffffffffffffffffffffffffffffffffff166323257c2b7f53797374656d53657474696e67730000000000000000000000000000000000007f69737375616e6365526174696f000000000000000000000000000000000000006040518363ffffffff1660e01b8152600401808381526020018281526020019250505060206040518083038186803b15801561483857600080fd5b505afa15801561484c573d6000803e3d6000fd5b505050506040513d602081101561486257600080fd5b8101908080519060200190929190505050905090565b600061488c8383601260ff16600a0a616211565b905092915050565b60008282111561490c576040517f08c379a000000000000000000000000000000000000000000000000000000000815260040180806020018281038252601e8152602001807f536166654d6174683a207375627472616374696f6e206f766572666c6f77000081525060200191505060405180910390fd5b600082840390508091505092915050565b600080600080600061492d6132b2565b73ffffffffffffffffffffffffffffffffffffffff16633a900a2e6040518163ffffffff1660e01b815260040160806040518083038186803b15801561497257600080fd5b505afa158015614986573d6000803e3d6000fd5b505050506040513d608081101561499c57600080fd5b81019080805190602001909291908051906020019092919080519060200190929190805190602001909291905050509350935050925081806149db5750805b935060006149e76143a7565b905086614cc2576000806149f961626c565b73ffffffffffffffffffffffffffffffffffffffff16631e33fc6b6040518163ffffffff1660e01b8152600401604080518083038186803b158015614a3d57600080fd5b505afa158015614a51573d6000803e3d6000fd5b505050506040513d6040811015614a6757600080fd5b81019080805190602001909291908051906020019092919050505091509150614a99828761538290919063ffffffff16565b95508680614aa45750805b9650614b40614ab161629c565b73ffffffffffffffffffffffffffffffffffffffff1663ee5f3f5c6040518163ffffffff1660e01b815260040160206040518083038186803b158015614af657600080fd5b505afa158015614b0a573d6000803e3d6000fd5b505050506040513d6020811015614b2057600080fd5b81019080805190602001909291905050508761538290919063ffffffff16565b95506000808473ffffffffffffffffffffffffffffffffffffffff16630c71cd237f73455448000000000000000000000000000000000000000000000000000000006040518263ffffffff1660e01b815260040180828152602001915050604080518083038186803b158015614bb557600080fd5b505afa158015614bc9573d6000803e3d6000fd5b505050506040513d6040811015614bdf57600080fd5b810190808051906020019092919080519060200190929190505050915091506000614c9a83614c0c6162cc565b73ffffffffffffffffffffffffffffffffffffffff1663ee5f3f5c6040518163ffffffff1660e01b815260040160206040518083038186803b158015614c5157600080fd5b505afa158015614c65573d6000803e3d6000fd5b505050506040513d6020811015614c7b57600080fd5b81019080805190602001909291905050506162fc90919063ffffffff16565b9050614caf818a61538290919063ffffffff16565b98508980614cba5750815b995050505050505b7f7355534400000000000000000000000000000000000000000000000000000000881415614cf95783859550955050505050614dbc565b6000808273ffffffffffffffffffffffffffffffffffffffff16630c71cd238b6040518263ffffffff1660e01b815260040180828152602001915050604080518083038186803b158015614d4c57600080fd5b505afa158015614d60573d6000803e3d6000fd5b505050506040513d6040811015614d7657600080fd5b81019080805190602001909291908051906020019092919050505091509150614da8828761487890919063ffffffff16565b8780614db15750815b975097505050505050505b9250929050565b60606001604051908082528060200260200182016040528015614df55781602001602082028038833980820191505090505b5090507f466c657869626c6553746f72616765000000000000000000000000000000000081600081518110614e2657fe5b60200260200101818152505090565b60608151835101604051908082528060200260200182016040528015614e6a5781602001602082028038833980820191505090505b50905060008090505b8351811015614eb557838181518110614e8857fe5b6020026020010151828281518110614e9c57fe5b6020026020010181815250508080600101915050614e73565b5060008090505b8251811015614f0157828181518110614ed157fe5b6020026020010151828286510181518110614ee857fe5b6020026020010181815250508080600101915050614ebc565b5092915050565b6000806000614f1684614f86565b9050600080614f45867f534e580000000000000000000000000000000000000000000000000000000000614522565b92505091506000831415614f655760008181915094509450505050614f81565b614f78838361487890919063ffffffff16565b81945094505050505b915091565b600080614f91615847565b73ffffffffffffffffffffffffffffffffffffffff166370a08231846040518263ffffffff1660e01b8152600401808273ffffffffffffffffffffffffffffffffffffffff1673ffffffffffffffffffffffffffffffffffffffff16815260200191505060206040518083038186803b15801561500d57600080fd5b505afa158015615021573d6000803e3d6000fd5b505050506040513d602081101561503757600080fd5b81019080805190602001909291905050509050600073ffffffffffffffffffffffffffffffffffffffff1661506a616318565b73ffffffffffffffffffffffffffffffffffffffff161461515957615156615090616318565b73ffffffffffffffffffffffffffffffffffffffff166370a08231856040518263ffffffff1660e01b8152600401808273ffffffffffffffffffffffffffffffffffffffff1673ffffffffffffffffffffffffffffffffffffffff16815260200191505060206040518083038186803b15801561510c57600080fd5b505afa158015615120573d6000803e3d6000fd5b505050506040513d602081101561513657600080fd5b81019080805190602001909291905050508261538290919063ffffffff16565b90505b600073ffffffffffffffffffffffffffffffffffffffff16615179616348565b73ffffffffffffffffffffffffffffffffffffffff16146152685761526561519f616348565b73ffffffffffffffffffffffffffffffffffffffff166370a08231856040518263ffffffff1660e01b8152600401808273ffffffffffffffffffffffffffffffffffffffff1673ffffffffffffffffffffffffffffffffffffffff16815260200191505060206040518083038186803b15801561521b57600080fd5b505afa15801561522f573d6000803e3d6000fd5b505050506040513d602081101561524557600080fd5b81019080805190602001909291905050508261538290919063ffffffff16565b90505b80915050919050565b600061529c7f45786368616e6765720000000000000000000000000000000000000000000000615fa2565b905090565b60006152cc7f4c69717569646174696f6e730000000000000000000000000000000000000000615fa2565b905090565b8015615345576040517f08c379a000000000000000000000000000000000000000000000000000000000815260040180806020018281038252601e8152602001807f412073796e7468206f7220534e58207261746520697320696e76616c6964000081525060200191505060405180910390fd5b50565b600061535d82846162fc90919063ffffffff16565b905092915050565b600061537a828461487890919063ffffffff16565b905092915050565b600080828401905083811015615400576040517f08c379a000000000000000000000000000000000000000000000000000000000815260040180806020018281038252601b8152602001807f536166654d6174683a206164646974696f6e206f766572666c6f77000000000081525060200191505060405180910390fd5b8091505092915050565b6000601260ff16600a0a615427838561637890919063ffffffff16565b8161542e57fe5b04905092915050565b600061546582615457601260ff16600a0a8661637890919063ffffffff16565b6163fe90919063ffffffff16565b905092915050565b600083831061547c578361547e565b825b905061548c8682858561648d565b600560007f7355534400000000000000000000000000000000000000000000000000000000815260200190815260200160002060009054906101000a900473ffffffffffffffffffffffffffffffffffffffff1673ffffffffffffffffffffffffffffffffffffffff16639dc29fac86836040518363ffffffff1660e01b8152600401808373ffffffffffffffffffffffffffffffffffffffff1673ffffffffffffffffffffffffffffffffffffffff16815260200182815260200192505050600060405180830381600087803b15801561556657600080fd5b505af115801561557a573d6000803e3d6000fd5b505050506155866132b2565b73ffffffffffffffffffffffffffffffffffffffff1663d685743a7f735553440000000000000000000000000000000000000000000000000000000073__$b8d33eeb36ac0d1e81cd70156e0043e778$__63907af6c06040518163ffffffff1660e01b815260040160206040518083038186803b15801561560657600080fd5b505af415801561561a573d6000803e3d6000fd5b505050506040513d602081101561563057600080fd5b81019080805190602001909291905050506040518363ffffffff1660e01b81526004018083815260200182815260200192505050600060405180830381600087803b15801561567e57600080fd5b505af1158015615692573d6000803e3d6000fd5b5050505061569f86615e1c565b95945050505050565b60006156cc6156b5613830565b6156be84615706565b61538290919063ffffffff16565b4210159050919050565b60006157017f53796e7468657469785374617465000000000000000000000000000000000000615fa2565b905090565b6000615710616104565b73ffffffffffffffffffffffffffffffffffffffff166323257c2b7f49737375657200000000000000000000000000000000000000000000000000007f6c61737449737375654576656e7400000000000000000000000000000000000085604051602001808381526020018273ffffffffffffffffffffffffffffffffffffffff1673ffffffffffffffffffffffffffffffffffffffff1660601b815260140192505050604051602081830303815290604052805190602001206040518363ffffffff1660e01b8152600401808381526020018281526020019250505060206040518083038186803b15801561580557600080fd5b505afa158015615819573d6000803e3d6000fd5b505050506040513d602081101561582f57600080fd5b81019080805190602001909291905050509050919050565b60006158727f53796e7468657469780000000000000000000000000000000000000000000000615fa2565b905090565b60006158816156d6565b90506000615898838661538290919063ffffffff16565b905060006158af828761616490919063ffffffff16565b905060006159448273__$b8d33eeb36ac0d1e81cd70156e0043e778$__63d5e5e6e66040518163ffffffff1660e01b815260040160206040518083038186803b1580156158fb57600080fd5b505af415801561590f573d6000803e3d6000fd5b505050506040513d602081101561592557600080fd5b810190808051906020019092919050505061489490919063ffffffff16565b9050600086111561597b5761597483615966888a61538290919063ffffffff16565b61616490919063ffffffff16565b91506159dc565b8373ffffffffffffffffffffffffffffffffffffffff16631bfba5956040518163ffffffff1660e01b8152600401600060405180830381600087803b1580156159c357600080fd5b505af11580156159d7573d6000803e3d6000fd5b505050505b8373ffffffffffffffffffffffffffffffffffffffff1663a764eb4589846040518363ffffffff1660e01b8152600401808373ffffffffffffffffffffffffffffffffffffffff1673ffffffffffffffffffffffffffffffffffffffff16815260200182815260200192505050600060405180830381600087803b158015615a6357600080fd5b505af1158015615a77573d6000803e3d6000fd5b5050505060008473ffffffffffffffffffffffffffffffffffffffff1663cd92eba96040518163ffffffff1660e01b815260040160206040518083038186803b158015615ac357600080fd5b505afa158015615ad7573d6000803e3d6000fd5b505050506040513d6020811015615aed57600080fd5b81019080805190602001909291905050501115615c06578373ffffffffffffffffffffffffffffffffffffffff16633d31e97b615bb3838773ffffffffffffffffffffffffffffffffffffffff1663463177126040518163ffffffff1660e01b815260040160206040518083038186803b158015615b6a57600080fd5b505afa158015615b7e573d6000803e3d6000fd5b505050506040513d6020811015615b9457600080fd5b810190808051906020019092919050505061618090919063ffffffff16565b6040518263ffffffff1660e01b815260040180828152602001915050600060405180830381600087803b158015615be957600080fd5b505af1158015615bfd573d6000803e3d6000fd5b50505050615cf0565b8373ffffffffffffffffffffffffffffffffffffffff16633d31e97b73__$b8d33eeb36ac0d1e81cd70156e0043e778$__63d5e5e6e66040518163ffffffff1660e01b815260040160206040518083038186803b158015615c6657600080fd5b505af4158015615c7a573d6000803e3d6000fd5b505050506040513d6020811015615c9057600080fd5b81019080805190602001909291905050506040518263ffffffff1660e01b815260040180828152602001915050600060405180830381600087803b158015615cd757600080fd5b505af1158015615ceb573d6000803e3d6000fd5b505050505b5050505050505050565b615d02616104565b73ffffffffffffffffffffffffffffffffffffffff16631d5b277f7f49737375657200000000000000000000000000000000000000000000000000007f6c61737449737375654576656e7400000000000000000000000000000000000084604051602001808381526020018273ffffffffffffffffffffffffffffffffffffffff1673ffffffffffffffffffffffffffffffffffffffff1660601b81526014019250505060405160208183030381529060405280519060200120426040518463ffffffff1660e01b8152600401808481526020018381526020018281526020019350505050600060405180830381600087803b158015615e0157600080fd5b505af1158015615e15573d6000803e3d6000fd5b5050505050565b600080615e276156d6565b73ffffffffffffffffffffffffffffffffffffffff16638b3f8088846040518263ffffffff1660e01b8152600401808273ffffffffffffffffffffffffffffffffffffffff1673ffffffffffffffffffffffffffffffffffffffff168152602001915050604080518083038186803b158015615ea257600080fd5b505afa158015615eb6573d6000803e3d6000fd5b505050506040513d6040811015615ecc57600080fd5b8101908080519060200190929190805190602001909291905050508092508193505050615ef761684d565b73ffffffffffffffffffffffffffffffffffffffff1663866452748484846040518463ffffffff1660e01b8152600401808473ffffffffffffffffffffffffffffffffffffffff1673ffffffffffffffffffffffffffffffffffffffff1681526020018381526020018281526020019350505050600060405180830381600087803b158015615f8557600080fd5b505af1158015615f99573d6000803e3d6000fd5b50505050505050565b6000806003600084815260200190815260200160002060009054906101000a900473ffffffffffffffffffffffffffffffffffffffff169050600073ffffffffffffffffffffffffffffffffffffffff168173ffffffffffffffffffffffffffffffffffffffff1614158360405160200180807f4d697373696e6720616464726573733a20000000000000000000000000000000815250601101828152602001915050604051602081830303815290604052906160fa576040517f08c379a00000000000000000000000000000000000000000000000000000000081526004018080602001828103825283818151815260200191508051906020019080838360005b838110156160bf5780820151818401526020810190506160a4565b50505050905090810190601f1680156160ec5780820380516001836020036101000a031916815260200191505b509250505060405180910390fd5b5080915050919050565b600061612f7f466c657869626c6553746f726167650000000000000000000000000000000000615fa2565b905090565b600061615f7f44656c6567617465417070726f76616c73000000000000000000000000000000615fa2565b905090565b60006161788383601b60ff16600a0a616211565b905092915050565b60006161948383601b60ff16600a0a61687d565b905092915050565b60006161bb6012601b0360ff16600a0a8361637890919063ffffffff16565b9050919050565b600080600a6012601b0360ff16600a0a816161d957fe5b0483816161e257fe5b0490506005600a82816161f157fe5b06106161fe57600a810190505b600a818161620857fe5b04915050919050565b60008061623c8461622e600a86028861637890919063ffffffff16565b6163fe90919063ffffffff16565b90506005600a828161624a57fe5b061061625757600a810190505b600a818161626157fe5b049150509392505050565b60006162977f436f6c6c61746572616c4d616e61676572000000000000000000000000000000615fa2565b905090565b60006162c77f4574686572436f6c6c61746572616c7355534400000000000000000000000000615fa2565b905090565b60006162f77f4574686572436f6c6c61746572616c0000000000000000000000000000000000615fa2565b905090565b60006163108383601260ff16600a0a61687d565b905092915050565b60006163437f53796e746865746978457363726f770000000000000000000000000000000000615fa2565b905090565b60006163737f526577617264457363726f775632000000000000000000000000000000000000615fa2565b905090565b60008083141561638b57600090506163f8565b600082840290508284828161639c57fe5b04146163f3576040517f08c379a00000000000000000000000000000000000000000000000000000000081526004018080602001828103825260218152602001806169c76021913960400191505060405180910390fd5b809150505b92915050565b6000808211616475576040517f08c379a000000000000000000000000000000000000000000000000000000000815260040180806020018281038252601a8152602001807f536166654d6174683a206469766973696f6e206279207a65726f00000000000081525060200191505060405180910390fd5b600082848161648057fe5b0490508091505092915050565b60006164976156d6565b905060006164ae858461489490919063ffffffff16565b90506000809050600082111561656a5760006164d3838861616490919063ffffffff16565b90506165668173__$b8d33eeb36ac0d1e81cd70156e0043e778$__63d5e5e6e66040518163ffffffff1660e01b815260040160206040518083038186803b15801561651d57600080fd5b505af4158015616531573d6000803e3d6000fd5b505050506040513d602081101561654757600080fd5b810190808051906020019092919050505061538290919063ffffffff16565b9150505b84861415616677578273ffffffffffffffffffffffffffffffffffffffff1663a764eb458860006040518363ffffffff1660e01b8152600401808373ffffffffffffffffffffffffffffffffffffffff1673ffffffffffffffffffffffffffffffffffffffff16815260200182815260200192505050600060405180830381600087803b1580156165fa57600080fd5b505af115801561660e573d6000803e3d6000fd5b505050508273ffffffffffffffffffffffffffffffffffffffff1663ba08f2996040518163ffffffff1660e01b8152600401600060405180830381600087803b15801561665a57600080fd5b505af115801561666e573d6000803e3d6000fd5b50505050616747565b600061668c878761489490919063ffffffff16565b905060006166a3848361616490919063ffffffff16565b90508473ffffffffffffffffffffffffffffffffffffffff1663a764eb458a836040518363ffffffff1660e01b8152600401808373ffffffffffffffffffffffffffffffffffffffff1673ffffffffffffffffffffffffffffffffffffffff16815260200182815260200192505050600060405180830381600087803b15801561672c57600080fd5b505af1158015616740573d6000803e3d6000fd5b5050505050505b8273ffffffffffffffffffffffffffffffffffffffff16633d31e97b6167f6838673ffffffffffffffffffffffffffffffffffffffff1663463177126040518163ffffffff1660e01b815260040160206040518083038186803b1580156167ad57600080fd5b505afa1580156167c1573d6000803e3d6000fd5b505050506040513d60208110156167d757600080fd5b810190808051906020019092919050505061618090919063ffffffff16565b6040518263ffffffff1660e01b815260040180828152602001915050600060405180830381600087803b15801561682c57600080fd5b505af1158015616840573d6000803e3d6000fd5b5050505050505050505050565b60006168787f466565506f6f6c00000000000000000000000000000000000000000000000000615fa2565b905090565b600080600a838161688a57fe5b0461689e858761637890919063ffffffff16565b816168a557fe5b0490506005600a82816168b457fe5b06106168c157600a810190505b600a81816168cb57fe5b049150509392505050565b8154818355818111156168fd578183600052602060002091820191016168fc9190616902565b5b505050565b61692491905b80821115616920576000816000905550600101616908565b5090565b9056fe596f75206d757374206265206e6f6d696e61746564206265666f726520796f752063616e20616363657074206f776e6572736869704973737565723a204f6e6c79207468652073796e74686574697820636f6e74726163742063616e20706572666f726d207468697320616374696f6e4f6e6c792074686520636f6e7472616374206f776e6572206d617920706572666f726d207468697320616374696f6e536166654d6174683a206d756c7469706c69636174696f6e206f766572666c6f77a265627a7a72315820f7d4b48089c9b26d9d099aec35c2507428f1468158037f90b2dd20b2fc041c6964736f6c63430005100032",
  "linkReferences": {
    "contracts/SafeDecimalMath.sol": {
      "SafeDecimalMath": [
        {
          "length": 20,
          "start": 11272
        },
        {
          "length": 20,
          "start": 11451
        },
        {
          "length": 20,
          "start": 12875
        },
        {
          "length": 20,
          "start": 22507
        },
        {
          "length": 20,
          "start": 23264
        },
        {
          "length": 20,
          "start": 24139
        },
        {
          "length": 20,
          "start": 26370
        }
      ]
    }
  },
  "deployedLinkReferences": {
    "contracts/SafeDecimalMath.sol": {
      "SafeDecimalMath": [
        {
          "length": 20,
          "start": 10721
        },
        {
          "length": 20,
          "start": 10900
        },
        {
          "length": 20,
          "start": 12324
        },
        {
          "length": 20,
          "start": 21956
        },
        {
          "length": 20,
          "start": 22713
        },
        {
          "length": 20,
          "start": 23588
        },
        {
          "length": 20,
          "start": 25819
        }
      ]
    }
  }
}